{
	"contracts/Lottery.sol": {
		"LotteryGame": {
			"abi": [
				{
					"inputs": [],
					"stateMutability": "nonpayable",
					"type": "constructor"
				},
				{
					"inputs": [
						{
							"internalType": "uint16",
							"name": "LotCount",
							"type": "uint16"
						},
						{
							"internalType": "uint8",
							"name": "mul",
							"type": "uint8"
						},
						{
							"internalType": "uint232",
							"name": "Lucknum",
							"type": "uint232"
						},
						{
							"internalType": "address",
							"name": "ref",
							"type": "address"
						}
					],
					"name": "BuyEggs",
					"outputs": [],
					"stateMutability": "payable",
					"type": "function"
				},
				{
					"inputs": [],
					"name": "DevAddress",
					"outputs": [
						{
							"internalType": "address",
							"name": "",
							"type": "address"
						}
					],
					"stateMutability": "view",
					"type": "function"
				},
				{
					"inputs": [],
					"name": "InvestorsProfit",
					"outputs": [
						{
							"internalType": "uint256",
							"name": "",
							"type": "uint256"
						}
					],
					"stateMutability": "view",
					"type": "function"
				},
				{
					"inputs": [],
					"name": "OpenEggs",
					"outputs": [],
					"stateMutability": "nonpayable",
					"type": "function"
				},
				{
					"inputs": [],
					"name": "RecentDividendTime",
					"outputs": [
						{
							"internalType": "uint256",
							"name": "",
							"type": "uint256"
						}
					],
					"stateMutability": "view",
					"type": "function"
				},
				{
					"inputs": [],
					"name": "TotalInvestmentAmount",
					"outputs": [
						{
							"internalType": "uint256",
							"name": "",
							"type": "uint256"
						}
					],
					"stateMutability": "view",
					"type": "function"
				}
			],
			"devdoc": {
				"kind": "dev",
				"methods": {},
				"version": 1
			},
			"evm": {
				"assembly": "    /* \"contracts/Lottery.sol\":70:11252  contract LotteryGame {... */\n  mstore(0x40, 0x80)\n    /* \"contracts/Lottery.sol\":2929:3071  constructor() {... */\n  callvalue\n  dup1\n  iszero\n  tag_1\n  jumpi\n  0x00\n  dup1\n  revert\ntag_1:\n  pop\n    /* \"contracts/Lottery.sol\":2966:2976  msg.sender */\n  caller\n    /* \"contracts/Lottery.sol\":2953:2963  DevAddress */\n  0x00\n  dup1\n    /* \"contracts/Lottery.sol\":2953:2976  DevAddress = msg.sender */\n  0x0100\n  exp\n  dup2\n  sload\n  dup2\n  0xffffffffffffffffffffffffffffffffffffffff\n  mul\n  not\n  and\n  swap1\n  dup4\n  0xffffffffffffffffffffffffffffffffffffffff\n  and\n  mul\n  or\n  swap1\n  sstore\n  pop\n    /* \"contracts/Lottery.sol\":3007:3022  block.timestamp */\n  timestamp\n    /* \"contracts/Lottery.sol\":2986:3004  RecentDividendTime */\n  0x06\n    /* \"contracts/Lottery.sol\":2986:3022  RecentDividendTime = block.timestamp */\n  dup2\n  swap1\n  sstore\n  pop\n    /* \"contracts/Lottery.sol\":3049:3064  block.timestamp */\n  timestamp\n    /* \"contracts/Lottery.sol\":3032:3046  LastBuyEggTime */\n  0x08\n    /* \"contracts/Lottery.sol\":3032:3064  LastBuyEggTime = block.timestamp */\n  dup2\n  swap1\n  sstore\n  pop\n    /* \"contracts/Lottery.sol\":70:11252  contract LotteryGame {... */\n  dataSize(sub_0)\n  dup1\n  dataOffset(sub_0)\n  0x00\n  codecopy\n  0x00\n  return\nstop\n\nsub_0: assembly {\n        /* \"contracts/Lottery.sol\":70:11252  contract LotteryGame {... */\n      mstore(0x40, 0x80)\n      jumpi(tag_1, lt(calldatasize, 0x04))\n      shr(0xe0, calldataload(0x00))\n      dup1\n      0x7da384fd\n      eq\n      tag_2\n      jumpi\n      dup1\n      0x89a4c1a0\n      eq\n      tag_3\n      jumpi\n      dup1\n      0xa659f4dc\n      eq\n      tag_4\n      jumpi\n      dup1\n      0xb1c617ff\n      eq\n      tag_5\n      jumpi\n      dup1\n      0xc9ea0299\n      eq\n      tag_6\n      jumpi\n      dup1\n      0xca6aae29\n      eq\n      tag_7\n      jumpi\n    tag_1:\n      0x00\n      dup1\n      revert\n        /* \"contracts/Lottery.sol\":7857:11250  function OpenEggs() external {... */\n    tag_2:\n      callvalue\n      dup1\n      iszero\n      tag_8\n      jumpi\n      0x00\n      dup1\n      revert\n    tag_8:\n      pop\n      tag_9\n      tag_10\n      jump\t// in\n    tag_9:\n      stop\n        /* \"contracts/Lottery.sol\":1699:1724  address public DevAddress */\n    tag_3:\n      callvalue\n      dup1\n      iszero\n      tag_11\n      jumpi\n      0x00\n      dup1\n      revert\n    tag_11:\n      pop\n      tag_12\n      tag_13\n      jump\t// in\n    tag_12:\n      mload(0x40)\n      tag_14\n      swap2\n      swap1\n      tag_15\n      jump\t// in\n    tag_14:\n      mload(0x40)\n      dup1\n      swap2\n      sub\n      swap1\n      return\n        /* \"contracts/Lottery.sol\":2079:2115  uint256 public TotalInvestmentAmount */\n    tag_4:\n      callvalue\n      dup1\n      iszero\n      tag_16\n      jumpi\n      0x00\n      dup1\n      revert\n    tag_16:\n      pop\n      tag_17\n      tag_18\n      jump\t// in\n    tag_17:\n      mload(0x40)\n      tag_19\n      swap2\n      swap1\n      tag_20\n      jump\t// in\n    tag_19:\n      mload(0x40)\n      dup1\n      swap2\n      sub\n      swap1\n      return\n        /* \"contracts/Lottery.sol\":2239:2272  uint256 public RecentDividendTime */\n    tag_5:\n      callvalue\n      dup1\n      iszero\n      tag_21\n      jumpi\n      0x00\n      dup1\n      revert\n    tag_21:\n      pop\n      tag_22\n      tag_23\n      jump\t// in\n    tag_22:\n      mload(0x40)\n      tag_24\n      swap2\n      swap1\n      tag_20\n      jump\t// in\n    tag_24:\n      mload(0x40)\n      dup1\n      swap2\n      sub\n      swap1\n      return\n        /* \"contracts/Lottery.sol\":4155:6544  function BuyEggs(... */\n    tag_6:\n      tag_25\n      0x04\n      dup1\n      calldatasize\n      sub\n      dup2\n      add\n      swap1\n      tag_26\n      swap2\n      swap1\n      tag_27\n      jump\t// in\n    tag_26:\n      tag_28\n      jump\t// in\n    tag_25:\n      stop\n        /* \"contracts/Lottery.sol\":2170:2200  uint256 public InvestorsProfit */\n    tag_7:\n      callvalue\n      dup1\n      iszero\n      tag_29\n      jumpi\n      0x00\n      dup1\n      revert\n    tag_29:\n      pop\n      tag_30\n      tag_31\n      jump\t// in\n    tag_30:\n      mload(0x40)\n      tag_32\n      swap2\n      swap1\n      tag_20\n      jump\t// in\n    tag_32:\n      mload(0x40)\n      dup1\n      swap2\n      sub\n      swap1\n      return\n        /* \"contracts/Lottery.sol\":7857:11250  function OpenEggs() external {... */\n    tag_10:\n        /* \"contracts/Lottery.sol\":8014:8015  0 */\n      0x00\n        /* \"contracts/Lottery.sol\":7974:7983  UsersInfo */\n      0x09\n        /* \"contracts/Lottery.sol\":7974:7995  UsersInfo[msg.sender] */\n      0x00\n        /* \"contracts/Lottery.sol\":7984:7994  msg.sender */\n      caller\n        /* \"contracts/Lottery.sol\":7974:7995  UsersInfo[msg.sender] */\n      0xffffffffffffffffffffffffffffffffffffffff\n      and\n      0xffffffffffffffffffffffffffffffffffffffff\n      and\n      dup2\n      mstore\n      0x20\n      add\n      swap1\n      dup2\n      mstore\n      0x20\n      add\n      0x00\n      keccak256\n        /* \"contracts/Lottery.sol\":7974:8004  UsersInfo[msg.sender].eggsinfo */\n      0x00\n      add\n        /* \"contracts/Lottery.sol\":7974:8011  UsersInfo[msg.sender].eggsinfo.length */\n      dup1\n      sload\n      swap1\n      pop\n        /* \"contracts/Lottery.sol\":7974:8015  UsersInfo[msg.sender].eggsinfo.length > 0 */\n      gt\n        /* \"contracts/Lottery.sol\":7953:8078  require(... */\n      tag_34\n      jumpi\n      mload(0x40)\n      0x08c379a000000000000000000000000000000000000000000000000000000000\n      dup2\n      mstore\n      0x04\n      add\n      tag_35\n      swap1\n      tag_36\n      jump\t// in\n    tag_35:\n      mload(0x40)\n      dup1\n      swap2\n      sub\n      swap1\n      revert\n    tag_34:\n        /* \"contracts/Lottery.sol\":8257:8266  UsersInfo */\n      0x09\n        /* \"contracts/Lottery.sol\":8257:8278  UsersInfo[msg.sender] */\n      0x00\n        /* \"contracts/Lottery.sol\":8267:8277  msg.sender */\n      caller\n        /* \"contracts/Lottery.sol\":8257:8278  UsersInfo[msg.sender] */\n      0xffffffffffffffffffffffffffffffffffffffff\n      and\n      0xffffffffffffffffffffffffffffffffffffffff\n      and\n      dup2\n      mstore\n      0x20\n      add\n      swap1\n      dup2\n      mstore\n      0x20\n      add\n      0x00\n      keccak256\n        /* \"contracts/Lottery.sol\":8257:8308  UsersInfo[msg.sender]... */\n      0x00\n      add\n        /* \"contracts/Lottery.sol\":8349:8350  1 */\n      0x01\n        /* \"contracts/Lottery.sol\":8309:8318  UsersInfo */\n      0x09\n        /* \"contracts/Lottery.sol\":8309:8330  UsersInfo[msg.sender] */\n      0x00\n        /* \"contracts/Lottery.sol\":8319:8329  msg.sender */\n      caller\n        /* \"contracts/Lottery.sol\":8309:8330  UsersInfo[msg.sender] */\n      0xffffffffffffffffffffffffffffffffffffffff\n      and\n      0xffffffffffffffffffffffffffffffffffffffff\n      and\n      dup2\n      mstore\n      0x20\n      add\n      swap1\n      dup2\n      mstore\n      0x20\n      add\n      0x00\n      keccak256\n        /* \"contracts/Lottery.sol\":8309:8339  UsersInfo[msg.sender].eggsinfo */\n      0x00\n      add\n        /* \"contracts/Lottery.sol\":8309:8346  UsersInfo[msg.sender].eggsinfo.length */\n      dup1\n      sload\n      swap1\n      pop\n        /* \"contracts/Lottery.sol\":8309:8350  UsersInfo[msg.sender].eggsinfo.length - 1 */\n      tag_37\n      swap2\n      swap1\n      tag_38\n      jump\t// in\n    tag_37:\n        /* \"contracts/Lottery.sol\":8257:8351  UsersInfo[msg.sender]... */\n      dup2\n      sload\n      dup2\n      lt\n      tag_39\n      jumpi\n      tag_40\n      tag_41\n      jump\t// in\n    tag_40:\n    tag_39:\n      swap1\n      0x00\n      mstore\n      keccak256(0x00, 0x20)\n      swap1\n      0x02\n      mul\n      add\n        /* \"contracts/Lottery.sol\":8257:8384  UsersInfo[msg.sender]... */\n      0x01\n      add\n      0x01\n      swap1\n      sload\n      swap1\n      0x0100\n      exp\n      swap1\n      div\n      0xffffffffffffffffffffffffffffffffffffffffffffffffffffffffffffff\n      and\n        /* \"contracts/Lottery.sol\":8226:8384  block.number >... */\n      0xffffffffffffffffffffffffffffffffffffffffffffffffffffffffffffff\n      and\n        /* \"contracts/Lottery.sol\":8226:8238  block.number */\n      number\n        /* \"contracts/Lottery.sol\":8226:8384  block.number >... */\n      gt\n        /* \"contracts/Lottery.sol\":8205:8423  require(... */\n      tag_43\n      jumpi\n      mload(0x40)\n      0x08c379a000000000000000000000000000000000000000000000000000000000\n      dup2\n      mstore\n      0x04\n      add\n      tag_44\n      swap1\n      tag_45\n      jump\t// in\n    tag_44:\n      mload(0x40)\n      dup1\n      swap2\n      sub\n      swap1\n      revert\n    tag_43:\n        /* \"contracts/Lottery.sol\":8555:8556  0 */\n      0x00\n        /* \"contracts/Lottery.sol\":8513:8522  UsersInfo */\n      0x09\n        /* \"contracts/Lottery.sol\":8513:8534  UsersInfo[msg.sender] */\n      0x00\n        /* \"contracts/Lottery.sol\":8523:8533  msg.sender */\n      caller\n        /* \"contracts/Lottery.sol\":8513:8534  UsersInfo[msg.sender] */\n      0xffffffffffffffffffffffffffffffffffffffff\n      and\n      0xffffffffffffffffffffffffffffffffffffffff\n      and\n      dup2\n      mstore\n      0x20\n      add\n      swap1\n      dup2\n      mstore\n      0x20\n      add\n      0x00\n      keccak256\n        /* \"contracts/Lottery.sol\":8513:8545  UsersInfo[msg.sender].openedeggs */\n      0x01\n      add\n        /* \"contracts/Lottery.sol\":8513:8552  UsersInfo[msg.sender].openedeggs.length */\n      dup1\n      sload\n      swap1\n      pop\n        /* \"contracts/Lottery.sol\":8513:8556  UsersInfo[msg.sender].openedeggs.length > 0 */\n      gt\n        /* \"contracts/Lottery.sol\":8509:8609  if (UsersInfo[msg.sender].openedeggs.length > 0)... */\n      iszero\n      tag_46\n      jumpi\n        /* \"contracts/Lottery.sol\":8577:8586  UsersInfo */\n      0x09\n        /* \"contracts/Lottery.sol\":8577:8598  UsersInfo[msg.sender] */\n      0x00\n        /* \"contracts/Lottery.sol\":8587:8597  msg.sender */\n      caller\n        /* \"contracts/Lottery.sol\":8577:8598  UsersInfo[msg.sender] */\n      0xffffffffffffffffffffffffffffffffffffffff\n      and\n      0xffffffffffffffffffffffffffffffffffffffff\n      and\n      dup2\n      mstore\n      0x20\n      add\n      swap1\n      dup2\n      mstore\n      0x20\n      add\n      0x00\n      keccak256\n        /* \"contracts/Lottery.sol\":8577:8609  UsersInfo[msg.sender].openedeggs */\n      0x01\n      add\n      0x00\n        /* \"contracts/Lottery.sol\":8570:8609  delete UsersInfo[msg.sender].openedeggs */\n      tag_47\n      swap2\n      swap1\n      tag_48\n      jump\t// in\n    tag_47:\n        /* \"contracts/Lottery.sol\":8509:8609  if (UsersInfo[msg.sender].openedeggs.length > 0)... */\n    tag_46:\n        /* \"contracts/Lottery.sol\":8653:8674  uint256 WinningAmount */\n      0x00\n        /* \"contracts/Lottery.sol\":8690:8699  uint256 i */\n      dup1\n        /* \"contracts/Lottery.sol\":8702:8703  0 */\n      0x00\n        /* \"contracts/Lottery.sol\":8690:8703  uint256 i = 0 */\n      swap1\n      pop\n        /* \"contracts/Lottery.sol\":8685:10375  for (uint256 i = 0; i < UsersInfo[msg.sender].eggsinfo.length; i++) {... */\n    tag_49:\n        /* \"contracts/Lottery.sol\":8709:8718  UsersInfo */\n      0x09\n        /* \"contracts/Lottery.sol\":8709:8730  UsersInfo[msg.sender] */\n      0x00\n        /* \"contracts/Lottery.sol\":8719:8729  msg.sender */\n      caller\n        /* \"contracts/Lottery.sol\":8709:8730  UsersInfo[msg.sender] */\n      0xffffffffffffffffffffffffffffffffffffffff\n      and\n      0xffffffffffffffffffffffffffffffffffffffff\n      and\n      dup2\n      mstore\n      0x20\n      add\n      swap1\n      dup2\n      mstore\n      0x20\n      add\n      0x00\n      keccak256\n        /* \"contracts/Lottery.sol\":8709:8739  UsersInfo[msg.sender].eggsinfo */\n      0x00\n      add\n        /* \"contracts/Lottery.sol\":8709:8746  UsersInfo[msg.sender].eggsinfo.length */\n      dup1\n      sload\n      swap1\n      pop\n        /* \"contracts/Lottery.sol\":8705:8706  i */\n      dup2\n        /* \"contracts/Lottery.sol\":8705:8746  i < UsersInfo[msg.sender].eggsinfo.length */\n      lt\n        /* \"contracts/Lottery.sol\":8685:10375  for (uint256 i = 0; i < UsersInfo[msg.sender].eggsinfo.length; i++) {... */\n      iszero\n      tag_50\n      jumpi\n        /* \"contracts/Lottery.sol\":8961:8962  0 */\n      0x00\n        /* \"contracts/Lottery.sol\":8893:8902  UsersInfo */\n      0x09\n        /* \"contracts/Lottery.sol\":8893:8914  UsersInfo[msg.sender] */\n      0x00\n        /* \"contracts/Lottery.sol\":8903:8913  msg.sender */\n      caller\n        /* \"contracts/Lottery.sol\":8893:8914  UsersInfo[msg.sender] */\n      0xffffffffffffffffffffffffffffffffffffffff\n      and\n      0xffffffffffffffffffffffffffffffffffffffff\n      and\n      dup2\n      mstore\n      0x20\n      add\n      swap1\n      dup2\n      mstore\n      0x20\n      add\n      0x00\n      keccak256\n        /* \"contracts/Lottery.sol\":8893:8923  UsersInfo[msg.sender].eggsinfo */\n      0x00\n      add\n        /* \"contracts/Lottery.sol\":8924:8925  i */\n      dup3\n        /* \"contracts/Lottery.sol\":8893:8926  UsersInfo[msg.sender].eggsinfo[i] */\n      dup2\n      sload\n      dup2\n      lt\n      tag_52\n      jumpi\n      tag_53\n      tag_41\n      jump\t// in\n    tag_53:\n    tag_52:\n      swap1\n      0x00\n      mstore\n      keccak256(0x00, 0x20)\n      swap1\n      0x02\n      mul\n      add\n        /* \"contracts/Lottery.sol\":8893:8938  UsersInfo[msg.sender].eggsinfo[i].blocknumber */\n      0x01\n      add\n      0x01\n      swap1\n      sload\n      swap1\n      0x0100\n      exp\n      swap1\n      div\n      0xffffffffffffffffffffffffffffffffffffffffffffffffffffffffffffff\n      and\n        /* \"contracts/Lottery.sol\":8883:8939  blockhash(UsersInfo[msg.sender].eggsinfo[i].blocknumber) */\n      0xffffffffffffffffffffffffffffffffffffffffffffffffffffffffffffff\n      and\n      blockhash\n        /* \"contracts/Lottery.sol\":8854:8957  uint256(... */\n      0x00\n      shr\n        /* \"contracts/Lottery.sol\":8854:8962  uint256(... */\n      sub\n        /* \"contracts/Lottery.sol\":8833:8985  if (... */\n      iszero\n        /* \"contracts/Lottery.sol\":8977:8985  continue */\n      tag_51\n        /* \"contracts/Lottery.sol\":8833:8985  if (... */\n      jumpi\n        /* \"contracts/Lottery.sol\":9034:9051  uint32 LotteryNum */\n      0x00\n        /* \"contracts/Lottery.sol\":9187:9196  UsersInfo */\n      0x09\n        /* \"contracts/Lottery.sol\":9187:9208  UsersInfo[msg.sender] */\n      0x00\n        /* \"contracts/Lottery.sol\":9197:9207  msg.sender */\n      caller\n        /* \"contracts/Lottery.sol\":9187:9208  UsersInfo[msg.sender] */\n      0xffffffffffffffffffffffffffffffffffffffff\n      and\n      0xffffffffffffffffffffffffffffffffffffffff\n      and\n      dup2\n      mstore\n      0x20\n      add\n      swap1\n      dup2\n      mstore\n      0x20\n      add\n      0x00\n      keccak256\n        /* \"contracts/Lottery.sol\":9187:9217  UsersInfo[msg.sender].eggsinfo */\n      0x00\n      add\n        /* \"contracts/Lottery.sol\":9218:9219  i */\n      dup3\n        /* \"contracts/Lottery.sol\":9187:9220  UsersInfo[msg.sender].eggsinfo[i] */\n      dup2\n      sload\n      dup2\n      lt\n      tag_56\n      jumpi\n      tag_57\n      tag_41\n      jump\t// in\n    tag_57:\n    tag_56:\n      swap1\n      0x00\n      mstore\n      keccak256(0x00, 0x20)\n      swap1\n      0x02\n      mul\n      add\n        /* \"contracts/Lottery.sol\":9187:9224  UsersInfo[msg.sender].eggsinfo[i].uid */\n      0x00\n      add\n      sload\n        /* \"contracts/Lottery.sol\":9297:9306  UsersInfo */\n      0x09\n        /* \"contracts/Lottery.sol\":9297:9318  UsersInfo[msg.sender] */\n      0x00\n        /* \"contracts/Lottery.sol\":9307:9317  msg.sender */\n      caller\n        /* \"contracts/Lottery.sol\":9297:9318  UsersInfo[msg.sender] */\n      0xffffffffffffffffffffffffffffffffffffffff\n      and\n      0xffffffffffffffffffffffffffffffffffffffff\n      and\n      dup2\n      mstore\n      0x20\n      add\n      swap1\n      dup2\n      mstore\n      0x20\n      add\n      0x00\n      keccak256\n        /* \"contracts/Lottery.sol\":9297:9327  UsersInfo[msg.sender].eggsinfo */\n      0x00\n      add\n        /* \"contracts/Lottery.sol\":9328:9329  i */\n      dup4\n        /* \"contracts/Lottery.sol\":9297:9330  UsersInfo[msg.sender].eggsinfo[i] */\n      dup2\n      sload\n      dup2\n      lt\n      tag_59\n      jumpi\n      tag_60\n      tag_41\n      jump\t// in\n    tag_60:\n    tag_59:\n      swap1\n      0x00\n      mstore\n      keccak256(0x00, 0x20)\n      swap1\n      0x02\n      mul\n      add\n        /* \"contracts/Lottery.sol\":9297:9342  UsersInfo[msg.sender].eggsinfo[i].blocknumber */\n      0x01\n      add\n      0x01\n      swap1\n      sload\n      swap1\n      0x0100\n      exp\n      swap1\n      div\n      0xffffffffffffffffffffffffffffffffffffffffffffffffffffffffffffff\n      and\n        /* \"contracts/Lottery.sol\":9254:9372  blockhash(... */\n      0xffffffffffffffffffffffffffffffffffffffffffffffffffffffffffffff\n      and\n      blockhash\n        /* \"contracts/Lottery.sol\":9141:9398  abi.encodePacked(... */\n      add(0x20, mload(0x40))\n      tag_62\n      swap3\n      swap2\n      swap1\n      tag_63\n      jump\t// in\n    tag_62:\n      mload(0x40)\n      0x20\n      dup2\n      dup4\n      sub\n      sub\n      dup2\n      mstore\n      swap1\n      0x40\n      mstore\n        /* \"contracts/Lottery.sol\":9106:9420  keccak256(... */\n      dup1\n      mload\n      swap1\n      0x20\n      add\n      keccak256\n        /* \"contracts/Lottery.sol\":9054:9452  uint32(... */\n      0xe0\n      shr\n        /* \"contracts/Lottery.sol\":9034:9452  uint32 LotteryNum = uint32(... */\n      swap1\n      pop\n        /* \"contracts/Lottery.sol\":9495:9514  uint256 Winningrade */\n      0x00\n        /* \"contracts/Lottery.sol\":9517:9544  GetWinninggrade(LotteryNum) */\n      tag_64\n        /* \"contracts/Lottery.sol\":9533:9543  LotteryNum */\n      dup3\n        /* \"contracts/Lottery.sol\":9517:9532  GetWinninggrade */\n      tag_65\n        /* \"contracts/Lottery.sol\":9517:9544  GetWinninggrade(LotteryNum) */\n      jump\t// in\n    tag_64:\n        /* \"contracts/Lottery.sol\":9495:9544  uint256 Winningrade = GetWinninggrade(LotteryNum) */\n      swap1\n      pop\n        /* \"contracts/Lottery.sol\":9611:9612  0 */\n      0x00\n        /* \"contracts/Lottery.sol\":9597:9608  Winningrade */\n      dup2\n        /* \"contracts/Lottery.sol\":9597:9612  Winningrade > 0 */\n      gt\n        /* \"contracts/Lottery.sol\":9593:10134  if (Winningrade > 0) {... */\n      iszero\n      tag_66\n      jumpi\n        /* \"contracts/Lottery.sol\":9632:9652  uint256 WinningMoney */\n      0x00\n        /* \"contracts/Lottery.sol\":1287:1297  0.02 ether */\n      0x470de4df820000\n        /* \"contracts/Lottery.sol\":9709:9718  UsersInfo */\n      0x09\n        /* \"contracts/Lottery.sol\":9709:9730  UsersInfo[msg.sender] */\n      0x00\n        /* \"contracts/Lottery.sol\":9719:9729  msg.sender */\n      caller\n        /* \"contracts/Lottery.sol\":9709:9730  UsersInfo[msg.sender] */\n      0xffffffffffffffffffffffffffffffffffffffff\n      and\n      0xffffffffffffffffffffffffffffffffffffffff\n      and\n      dup2\n      mstore\n      0x20\n      add\n      swap1\n      dup2\n      mstore\n      0x20\n      add\n      0x00\n      keccak256\n        /* \"contracts/Lottery.sol\":9709:9739  UsersInfo[msg.sender].eggsinfo */\n      0x00\n      add\n        /* \"contracts/Lottery.sol\":9740:9741  i */\n      dup6\n        /* \"contracts/Lottery.sol\":9709:9742  UsersInfo[msg.sender].eggsinfo[i] */\n      dup2\n      sload\n      dup2\n      lt\n      tag_67\n      jumpi\n      tag_68\n      tag_41\n      jump\t// in\n    tag_68:\n    tag_67:\n      swap1\n      0x00\n      mstore\n      keccak256(0x00, 0x20)\n      swap1\n      0x02\n      mul\n      add\n        /* \"contracts/Lottery.sol\":9709:9746  UsersInfo[msg.sender].eggsinfo[i].mul */\n      0x01\n      add\n      0x00\n      swap1\n      sload\n      swap1\n      0x0100\n      exp\n      swap1\n      div\n      0xff\n      and\n        /* \"contracts/Lottery.sol\":9655:9746  GetWinningmultiple(Winningrade) *... */\n      0xff\n      and\n        /* \"contracts/Lottery.sol\":9655:9686  GetWinningmultiple(Winningrade) */\n      tag_70\n        /* \"contracts/Lottery.sol\":9674:9685  Winningrade */\n      dup5\n        /* \"contracts/Lottery.sol\":9655:9673  GetWinningmultiple */\n      tag_71\n        /* \"contracts/Lottery.sol\":9655:9686  GetWinningmultiple(Winningrade) */\n      jump\t// in\n    tag_70:\n        /* \"contracts/Lottery.sol\":9655:9746  GetWinningmultiple(Winningrade) *... */\n      tag_72\n      swap2\n      swap1\n      tag_73\n      jump\t// in\n    tag_72:\n        /* \"contracts/Lottery.sol\":9655:9780  GetWinningmultiple(Winningrade) *... */\n      tag_74\n      swap2\n      swap1\n      tag_73\n      jump\t// in\n    tag_74:\n        /* \"contracts/Lottery.sol\":9632:9780  uint256 WinningMoney = GetWinningmultiple(Winningrade) *... */\n      swap1\n      pop\n        /* \"contracts/Lottery.sol\":9816:9828  WinningMoney */\n      dup1\n        /* \"contracts/Lottery.sol\":9799:9828  WinningAmount += WinningMoney */\n      dup6\n      tag_75\n      swap2\n      swap1\n      tag_76\n      jump\t// in\n    tag_75:\n      swap5\n      pop\n        /* \"contracts/Lottery.sol\":9847:9873  Winninginfo memory winning */\n      0x00\n        /* \"contracts/Lottery.sol\":9876:10073  Winninginfo(... */\n      mload(0x40)\n      dup1\n      0x80\n      add\n      0x40\n      mstore\n      dup1\n        /* \"contracts/Lottery.sol\":9909:9919  LotteryNum */\n      dup6\n        /* \"contracts/Lottery.sol\":9876:10073  Winninginfo(... */\n      0xffffffff\n      and\n      dup2\n      mstore\n      0x20\n      add\n        /* \"contracts/Lottery.sol\":9941:9950  UsersInfo */\n      0x09\n        /* \"contracts/Lottery.sol\":9941:9962  UsersInfo[msg.sender] */\n      0x00\n        /* \"contracts/Lottery.sol\":9951:9961  msg.sender */\n      caller\n        /* \"contracts/Lottery.sol\":9941:9962  UsersInfo[msg.sender] */\n      0xffffffffffffffffffffffffffffffffffffffff\n      and\n      0xffffffffffffffffffffffffffffffffffffffff\n      and\n      dup2\n      mstore\n      0x20\n      add\n      swap1\n      dup2\n      mstore\n      0x20\n      add\n      0x00\n      keccak256\n        /* \"contracts/Lottery.sol\":9941:9971  UsersInfo[msg.sender].eggsinfo */\n      0x00\n      add\n        /* \"contracts/Lottery.sol\":9972:9973  i */\n      dup8\n        /* \"contracts/Lottery.sol\":9941:9974  UsersInfo[msg.sender].eggsinfo[i] */\n      dup2\n      sload\n      dup2\n      lt\n      tag_77\n      jumpi\n      tag_78\n      tag_41\n      jump\t// in\n    tag_78:\n    tag_77:\n      swap1\n      0x00\n      mstore\n      keccak256(0x00, 0x20)\n      swap1\n      0x02\n      mul\n      add\n        /* \"contracts/Lottery.sol\":9941:9978  UsersInfo[msg.sender].eggsinfo[i].mul */\n      0x01\n      add\n      0x00\n      swap1\n      sload\n      swap1\n      0x0100\n      exp\n      swap1\n      div\n      0xff\n      and\n        /* \"contracts/Lottery.sol\":9876:10073  Winninginfo(... */\n      0xff\n      and\n      dup2\n      mstore\n      0x20\n      add\n        /* \"contracts/Lottery.sol\":10007:10022  block.timestamp */\n      timestamp\n        /* \"contracts/Lottery.sol\":9876:10073  Winninginfo(... */\n      0xffffffffff\n      and\n      dup2\n      mstore\n      0x20\n      add\n        /* \"contracts/Lottery.sol\":10045:10055  msg.sender */\n      caller\n        /* \"contracts/Lottery.sol\":9876:10073  Winninginfo(... */\n      0xffffffffffffffffffffffffffffffffffffffff\n      and\n      dup2\n      mstore\n      pop\n        /* \"contracts/Lottery.sol\":9847:10073  Winninginfo memory winning = Winninginfo(... */\n      swap1\n      pop\n        /* \"contracts/Lottery.sol\":10092:10105  WinningRecord */\n      0x0b\n        /* \"contracts/Lottery.sol\":10111:10118  winning */\n      dup2\n        /* \"contracts/Lottery.sol\":10092:10119  WinningRecord.push(winning) */\n      swap1\n      dup1\n      0x01\n      dup2\n      sload\n      add\n      dup1\n      dup3\n      sstore\n      dup1\n      swap2\n      pop\n      pop\n      0x01\n      swap1\n      sub\n      swap1\n      0x00\n      mstore\n      keccak256(0x00, 0x20)\n      swap1\n      0x03\n      mul\n      add\n      0x00\n      swap1\n      swap2\n      swap1\n      swap2\n      swap1\n      swap2\n      pop\n      0x00\n      dup3\n      add\n      mload\n      dup2\n      0x00\n      add\n      exp(0x0100, 0x00)\n      dup2\n      sload\n      dup2\n      0xffffffff\n      mul\n      not\n      and\n      swap1\n      dup4\n      0xffffffff\n      and\n      mul\n      or\n      swap1\n      sstore\n      pop\n      0x20\n      dup3\n      add\n      mload\n      dup2\n      0x00\n      add\n      exp(0x0100, 0x04)\n      dup2\n      sload\n      dup2\n      0xff\n      mul\n      not\n      and\n      swap1\n      dup4\n      0xff\n      and\n      mul\n      or\n      swap1\n      sstore\n      pop\n      0x40\n      dup3\n      add\n      mload\n      dup2\n      0x01\n      add\n      sstore\n      0x60\n      dup3\n      add\n      mload\n      dup2\n      0x02\n      add\n      exp(0x0100, 0x00)\n      dup2\n      sload\n      dup2\n      0xffffffffffffffffffffffffffffffffffffffff\n      mul\n      not\n      and\n      swap1\n      dup4\n      0xffffffffffffffffffffffffffffffffffffffff\n      and\n      mul\n      or\n      swap1\n      sstore\n      pop\n      pop\n      pop\n        /* \"contracts/Lottery.sol\":9614:10134  {... */\n      pop\n      pop\n        /* \"contracts/Lottery.sol\":9593:10134  if (Winningrade > 0) {... */\n    tag_66:\n        /* \"contracts/Lottery.sol\":10148:10183  OpenedLotInfo memory OpenedLotterys */\n      0x00\n        /* \"contracts/Lottery.sol\":10186:10296  OpenedLotInfo(... */\n      mload(0x40)\n      dup1\n      0x40\n      add\n      0x40\n      mstore\n      dup1\n        /* \"contracts/Lottery.sol\":10217:10227  LotteryNum */\n      dup5\n        /* \"contracts/Lottery.sol\":10186:10296  OpenedLotInfo(... */\n      0xffffffff\n      and\n      dup2\n      mstore\n      0x20\n      add\n        /* \"contracts/Lottery.sol\":10245:10254  UsersInfo */\n      0x09\n        /* \"contracts/Lottery.sol\":10245:10266  UsersInfo[msg.sender] */\n      0x00\n        /* \"contracts/Lottery.sol\":10255:10265  msg.sender */\n      caller\n        /* \"contracts/Lottery.sol\":10245:10266  UsersInfo[msg.sender] */\n      0xffffffffffffffffffffffffffffffffffffffff\n      and\n      0xffffffffffffffffffffffffffffffffffffffff\n      and\n      dup2\n      mstore\n      0x20\n      add\n      swap1\n      dup2\n      mstore\n      0x20\n      add\n      0x00\n      keccak256\n        /* \"contracts/Lottery.sol\":10245:10275  UsersInfo[msg.sender].eggsinfo */\n      0x00\n      add\n        /* \"contracts/Lottery.sol\":10276:10277  i */\n      dup7\n        /* \"contracts/Lottery.sol\":10245:10278  UsersInfo[msg.sender].eggsinfo[i] */\n      dup2\n      sload\n      dup2\n      lt\n      tag_81\n      jumpi\n      tag_82\n      tag_41\n      jump\t// in\n    tag_82:\n    tag_81:\n      swap1\n      0x00\n      mstore\n      keccak256(0x00, 0x20)\n      swap1\n      0x02\n      mul\n      add\n        /* \"contracts/Lottery.sol\":10245:10282  UsersInfo[msg.sender].eggsinfo[i].mul */\n      0x01\n      add\n      0x00\n      swap1\n      sload\n      swap1\n      0x0100\n      exp\n      swap1\n      div\n      0xff\n      and\n        /* \"contracts/Lottery.sol\":10186:10296  OpenedLotInfo(... */\n      0xff\n      and\n      dup2\n      mstore\n      pop\n        /* \"contracts/Lottery.sol\":10148:10296  OpenedLotInfo memory OpenedLotterys = OpenedLotInfo(... */\n      swap1\n      pop\n        /* \"contracts/Lottery.sol\":10311:10320  UsersInfo */\n      0x09\n        /* \"contracts/Lottery.sol\":10311:10332  UsersInfo[msg.sender] */\n      0x00\n        /* \"contracts/Lottery.sol\":10321:10331  msg.sender */\n      caller\n        /* \"contracts/Lottery.sol\":10311:10332  UsersInfo[msg.sender] */\n      0xffffffffffffffffffffffffffffffffffffffff\n      and\n      0xffffffffffffffffffffffffffffffffffffffff\n      and\n      dup2\n      mstore\n      0x20\n      add\n      swap1\n      dup2\n      mstore\n      0x20\n      add\n      0x00\n      keccak256\n        /* \"contracts/Lottery.sol\":10311:10343  UsersInfo[msg.sender].openedeggs */\n      0x01\n      add\n        /* \"contracts/Lottery.sol\":10349:10363  OpenedLotterys */\n      dup2\n        /* \"contracts/Lottery.sol\":10311:10364  UsersInfo[msg.sender].openedeggs.push(OpenedLotterys) */\n      swap1\n      dup1\n      0x01\n      dup2\n      sload\n      add\n      dup1\n      dup3\n      sstore\n      dup1\n      swap2\n      pop\n      pop\n      0x01\n      swap1\n      sub\n      swap1\n      0x00\n      mstore\n      keccak256(0x00, 0x20)\n      add\n      0x00\n      swap1\n      swap2\n      swap1\n      swap2\n      swap1\n      swap2\n      pop\n      0x00\n      dup3\n      add\n      mload\n      dup2\n      0x00\n      add\n      exp(0x0100, 0x00)\n      dup2\n      sload\n      dup2\n      0xffffffff\n      mul\n      not\n      and\n      swap1\n      dup4\n      0xffffffff\n      and\n      mul\n      or\n      swap1\n      sstore\n      pop\n      0x20\n      dup3\n      add\n      mload\n      dup2\n      0x00\n      add\n      exp(0x0100, 0x04)\n      dup2\n      sload\n      dup2\n      0xff\n      mul\n      not\n      and\n      swap1\n      dup4\n      0xff\n      and\n      mul\n      or\n      swap1\n      sstore\n      pop\n      pop\n      pop\n        /* \"contracts/Lottery.sol\":8753:10375  {... */\n      pop\n      pop\n      pop\n        /* \"contracts/Lottery.sol\":8685:10375  for (uint256 i = 0; i < UsersInfo[msg.sender].eggsinfo.length; i++) {... */\n    tag_51:\n        /* \"contracts/Lottery.sol\":8748:8751  i++ */\n      dup1\n      dup1\n      0x01\n      add\n      swap2\n      pop\n      pop\n        /* \"contracts/Lottery.sol\":8685:10375  for (uint256 i = 0; i < UsersInfo[msg.sender].eggsinfo.length; i++) {... */\n      jump(tag_49)\n    tag_50:\n      pop\n        /* \"contracts/Lottery.sol\":10452:10461  UsersInfo */\n      0x09\n        /* \"contracts/Lottery.sol\":10452:10473  UsersInfo[msg.sender] */\n      0x00\n        /* \"contracts/Lottery.sol\":10462:10472  msg.sender */\n      caller\n        /* \"contracts/Lottery.sol\":10452:10473  UsersInfo[msg.sender] */\n      0xffffffffffffffffffffffffffffffffffffffff\n      and\n      0xffffffffffffffffffffffffffffffffffffffff\n      and\n      dup2\n      mstore\n      0x20\n      add\n      swap1\n      dup2\n      mstore\n      0x20\n      add\n      0x00\n      keccak256\n        /* \"contracts/Lottery.sol\":10452:10482  UsersInfo[msg.sender].eggsinfo */\n      0x00\n      add\n      0x00\n        /* \"contracts/Lottery.sol\":10445:10482  delete UsersInfo[msg.sender].eggsinfo */\n      tag_85\n      swap2\n      swap1\n      tag_86\n      jump\t// in\n    tag_85:\n        /* \"contracts/Lottery.sol\":10570:10571  0 */\n      0x00\n        /* \"contracts/Lottery.sol\":10554:10567  WinningAmount */\n      dup2\n        /* \"contracts/Lottery.sol\":10554:10571  WinningAmount > 0 */\n      gt\n        /* \"contracts/Lottery.sol\":10550:11244  if (WinningAmount > 0) {... */\n      iszero\n      tag_87\n      jumpi\n        /* \"contracts/Lottery.sol\":10587:10611  uint256 MaxWinningAmount */\n      0x00\n        /* \"contracts/Lottery.sol\":10614:10910  SafeMathdiv(... */\n      tag_88\n        /* \"contracts/Lottery.sol\":10643:10875  SafeMathmul(... */\n      tag_89\n        /* \"contracts/Lottery.sol\":10676:10833  SafeMathsub(... */\n      tag_90\n        /* \"contracts/Lottery.sol\":10713:10734  address(this).balance */\n      selfbalance\n        /* \"contracts/Lottery.sol\":10801:10810  DevProfit */\n      sload(0x01)\n        /* \"contracts/Lottery.sol\":10779:10798  TotalReferralProfit */\n      sload(0x07)\n        /* \"contracts/Lottery.sol\":10761:10776  InvestorsProfit */\n      sload(0x05)\n        /* \"contracts/Lottery.sol\":10761:10798  InvestorsProfit + TotalReferralProfit */\n      tag_91\n      swap2\n      swap1\n      tag_76\n      jump\t// in\n    tag_91:\n        /* \"contracts/Lottery.sol\":10761:10810  InvestorsProfit + TotalReferralProfit + DevProfit */\n      tag_92\n      swap2\n      swap1\n      tag_76\n      jump\t// in\n    tag_92:\n        /* \"contracts/Lottery.sol\":10676:10687  SafeMathsub */\n      tag_93\n        /* \"contracts/Lottery.sol\":10676:10833  SafeMathsub(... */\n      jump\t// in\n    tag_90:\n        /* \"contracts/Lottery.sol\":10855:10857  70 */\n      0x46\n        /* \"contracts/Lottery.sol\":10643:10654  SafeMathmul */\n      tag_94\n        /* \"contracts/Lottery.sol\":10643:10875  SafeMathmul(... */\n      jump\t// in\n    tag_89:\n        /* \"contracts/Lottery.sol\":10893:10896  100 */\n      0x64\n        /* \"contracts/Lottery.sol\":10614:10625  SafeMathdiv */\n      tag_95\n        /* \"contracts/Lottery.sol\":10614:10910  SafeMathdiv(... */\n      jump\t// in\n    tag_88:\n        /* \"contracts/Lottery.sol\":10587:10910  uint256 MaxWinningAmount = SafeMathdiv(... */\n      swap1\n      pop\n        /* \"contracts/Lottery.sol\":10945:10961  MaxWinningAmount */\n      dup1\n        /* \"contracts/Lottery.sol\":10929:10942  WinningAmount */\n      dup3\n        /* \"contracts/Lottery.sol\":10929:10961  WinningAmount > MaxWinningAmount */\n      gt\n        /* \"contracts/Lottery.sol\":10925:11011  if (WinningAmount > MaxWinningAmount)... */\n      iszero\n      tag_96\n      jumpi\n        /* \"contracts/Lottery.sol\":10995:11011  MaxWinningAmount */\n      dup1\n        /* \"contracts/Lottery.sol\":10979:11011  WinningAmount = MaxWinningAmount */\n      swap2\n      pop\n        /* \"contracts/Lottery.sol\":10925:11011  if (WinningAmount > MaxWinningAmount)... */\n    tag_96:\n        /* \"contracts/Lottery.sol\":11026:11040  uint256 profit */\n      0x00\n        /* \"contracts/Lottery.sol\":11043:11090  SafeMathdiv(SafeMathmul(WinningAmount, 5), 100) */\n      tag_97\n        /* \"contracts/Lottery.sol\":11055:11084  SafeMathmul(WinningAmount, 5) */\n      tag_98\n        /* \"contracts/Lottery.sol\":11067:11080  WinningAmount */\n      dup5\n        /* \"contracts/Lottery.sol\":11082:11083  5 */\n      0x05\n        /* \"contracts/Lottery.sol\":11055:11066  SafeMathmul */\n      tag_94\n        /* \"contracts/Lottery.sol\":11055:11084  SafeMathmul(WinningAmount, 5) */\n      jump\t// in\n    tag_98:\n        /* \"contracts/Lottery.sol\":11086:11089  100 */\n      0x64\n        /* \"contracts/Lottery.sol\":11043:11054  SafeMathdiv */\n      tag_95\n        /* \"contracts/Lottery.sol\":11043:11090  SafeMathdiv(SafeMathmul(WinningAmount, 5), 100) */\n      jump\t// in\n    tag_97:\n        /* \"contracts/Lottery.sol\":11026:11090  uint256 profit = SafeMathdiv(SafeMathmul(WinningAmount, 5), 100) */\n      swap1\n      pop\n        /* \"contracts/Lottery.sol\":11123:11129  profit */\n      dup1\n        /* \"contracts/Lottery.sol\":11104:11119  InvestorsProfit */\n      0x05\n      0x00\n        /* \"contracts/Lottery.sol\":11104:11129  InvestorsProfit += profit */\n      dup3\n      dup3\n      sload\n      tag_99\n      swap2\n      swap1\n      tag_76\n      jump\t// in\n    tag_99:\n      swap3\n      pop\n      pop\n      dup2\n      swap1\n      sstore\n      pop\n        /* \"contracts/Lottery.sol\":11156:11162  profit */\n      dup1\n        /* \"contracts/Lottery.sol\":11143:11152  DevProfit */\n      0x01\n      0x00\n        /* \"contracts/Lottery.sol\":11143:11162  DevProfit += profit */\n      dup3\n      dup3\n      sload\n      tag_100\n      swap2\n      swap1\n      tag_76\n      jump\t// in\n    tag_100:\n      swap3\n      pop\n      pop\n      dup2\n      swap1\n      sstore\n      pop\n        /* \"contracts/Lottery.sol\":11185:11195  msg.sender */\n      caller\n        /* \"contracts/Lottery.sol\":11177:11205  payable(msg.sender).transfer */\n      0xffffffffffffffffffffffffffffffffffffffff\n      and\n        /* \"contracts/Lottery.sol\":11177:11233  payable(msg.sender).transfer(WinningAmount - profit * 2) */\n      0x08fc\n        /* \"contracts/Lottery.sol\":11231:11232  2 */\n      0x02\n        /* \"contracts/Lottery.sol\":11222:11228  profit */\n      dup4\n        /* \"contracts/Lottery.sol\":11222:11232  profit * 2 */\n      tag_101\n      swap2\n      swap1\n      tag_73\n      jump\t// in\n    tag_101:\n        /* \"contracts/Lottery.sol\":11206:11219  WinningAmount */\n      dup6\n        /* \"contracts/Lottery.sol\":11206:11232  WinningAmount - profit * 2 */\n      tag_102\n      swap2\n      swap1\n      tag_38\n      jump\t// in\n    tag_102:\n        /* \"contracts/Lottery.sol\":11177:11233  payable(msg.sender).transfer(WinningAmount - profit * 2) */\n      swap1\n      dup2\n      iszero\n      mul\n      swap1\n      mload(0x40)\n      0x00\n      mload(0x40)\n      dup1\n      dup4\n      sub\n      dup2\n      dup6\n      dup9\n      dup9\n      call\n      swap4\n      pop\n      pop\n      pop\n      pop\n      iszero\n      dup1\n      iszero\n      tag_104\n      jumpi\n      returndatasize\n      0x00\n      dup1\n      returndatacopy\n      revert(0x00, returndatasize)\n    tag_104:\n      pop\n        /* \"contracts/Lottery.sol\":10573:11244  {... */\n      pop\n      pop\n        /* \"contracts/Lottery.sol\":10550:11244  if (WinningAmount > 0) {... */\n    tag_87:\n        /* \"contracts/Lottery.sol\":7886:11250  {... */\n      pop\n        /* \"contracts/Lottery.sol\":7857:11250  function OpenEggs() external {... */\n      jump\t// out\n        /* \"contracts/Lottery.sol\":1699:1724  address public DevAddress */\n    tag_13:\n      0x00\n      dup1\n      sload\n      swap1\n      0x0100\n      exp\n      swap1\n      div\n      0xffffffffffffffffffffffffffffffffffffffff\n      and\n      dup2\n      jump\t// out\n        /* \"contracts/Lottery.sol\":2079:2115  uint256 public TotalInvestmentAmount */\n    tag_18:\n      sload(0x04)\n      dup2\n      jump\t// out\n        /* \"contracts/Lottery.sol\":2239:2272  uint256 public RecentDividendTime */\n    tag_23:\n      sload(0x06)\n      dup2\n      jump\t// out\n        /* \"contracts/Lottery.sol\":4155:6544  function BuyEggs(... */\n    tag_28:\n        /* \"contracts/Lottery.sol\":1287:1297  0.02 ether */\n      0x470de4df820000\n        /* \"contracts/Lottery.sol\":4303:4312  msg.value */\n      callvalue\n        /* \"contracts/Lottery.sol\":4303:4327  msg.value >= PerEggPrice */\n      lt\n      iszero\n        /* \"contracts/Lottery.sol\":4295:4352  require(msg.value >= PerEggPrice, \"Buy at least one egg\") */\n      tag_106\n      jumpi\n      mload(0x40)\n      0x08c379a000000000000000000000000000000000000000000000000000000000\n      dup2\n      mstore\n      0x04\n      add\n      tag_107\n      swap1\n      tag_108\n      jump\t// in\n    tag_107:\n      mload(0x40)\n      dup1\n      swap2\n      sub\n      swap1\n      revert\n    tag_106:\n        /* \"contracts/Lottery.sol\":4377:4378  1 */\n      0x01\n        /* \"contracts/Lottery.sol\":4370:4373  mul */\n      dup4\n        /* \"contracts/Lottery.sol\":4370:4378  mul >= 1 */\n      0xff\n      and\n      lt\n      iszero\n        /* \"contracts/Lottery.sol\":4370:4392  mul >= 1 && mul <= 100 */\n      dup1\n      iszero\n      tag_109\n      jumpi\n      pop\n        /* \"contracts/Lottery.sol\":4389:4392  100 */\n      0x64\n        /* \"contracts/Lottery.sol\":4382:4385  mul */\n      dup4\n        /* \"contracts/Lottery.sol\":4382:4392  mul <= 100 */\n      0xff\n      and\n      gt\n      iszero\n        /* \"contracts/Lottery.sol\":4370:4392  mul >= 1 && mul <= 100 */\n    tag_109:\n        /* \"contracts/Lottery.sol\":4362:4424  require(mul >= 1 && mul <= 100, \"Multiples between 1 and 100\") */\n      tag_110\n      jumpi\n      mload(0x40)\n      0x08c379a000000000000000000000000000000000000000000000000000000000\n      dup2\n      mstore\n      0x04\n      add\n      tag_111\n      swap1\n      tag_112\n      jump\t// in\n    tag_111:\n      mload(0x40)\n      dup1\n      swap2\n      sub\n      swap1\n      revert\n    tag_110:\n        /* \"contracts/Lottery.sol\":4467:4468  1 */\n      0x01\n        /* \"contracts/Lottery.sol\":4455:4463  LotCount */\n      dup5\n        /* \"contracts/Lottery.sol\":4455:4468  LotCount >= 1 */\n      0xffff\n      and\n      lt\n      iszero\n        /* \"contracts/Lottery.sol\":4455:4488  LotCount >= 1 && LotCount <= 1000 */\n      dup1\n      iszero\n      tag_113\n      jumpi\n      pop\n        /* \"contracts/Lottery.sol\":4484:4488  1000 */\n      0x03e8\n        /* \"contracts/Lottery.sol\":4472:4480  LotCount */\n      dup5\n        /* \"contracts/Lottery.sol\":4472:4488  LotCount <= 1000 */\n      0xffff\n      and\n      gt\n      iszero\n        /* \"contracts/Lottery.sol\":4455:4488  LotCount >= 1 && LotCount <= 1000 */\n    tag_113:\n        /* \"contracts/Lottery.sol\":4434:4546  require(... */\n      tag_114\n      jumpi\n      mload(0x40)\n      0x08c379a000000000000000000000000000000000000000000000000000000000\n      dup2\n      mstore\n      0x04\n      add\n      tag_115\n      swap1\n      tag_116\n      jump\t// in\n    tag_115:\n      mload(0x40)\n      dup1\n      swap2\n      sub\n      swap1\n      revert\n    tag_114:\n        /* \"contracts/Lottery.sol\":4556:4579  uint256 AllLotteryCount */\n      0x00\n        /* \"contracts/Lottery.sol\":4582:4617  SafeMathdiv(msg.value, PerEggPrice) */\n      tag_117\n        /* \"contracts/Lottery.sol\":4594:4603  msg.value */\n      callvalue\n        /* \"contracts/Lottery.sol\":1287:1297  0.02 ether */\n      0x470de4df820000\n        /* \"contracts/Lottery.sol\":4582:4593  SafeMathdiv */\n      tag_95\n        /* \"contracts/Lottery.sol\":4582:4617  SafeMathdiv(msg.value, PerEggPrice) */\n      jump\t// in\n    tag_117:\n        /* \"contracts/Lottery.sol\":4556:4617  uint256 AllLotteryCount = SafeMathdiv(msg.value, PerEggPrice) */\n      swap1\n      pop\n        /* \"contracts/Lottery.sol\":4666:4669  mul */\n      dup4\n        /* \"contracts/Lottery.sol\":4655:4669  LotCount * mul */\n      0xff\n      and\n        /* \"contracts/Lottery.sol\":4655:4663  LotCount */\n      dup6\n        /* \"contracts/Lottery.sol\":4655:4669  LotCount * mul */\n      tag_118\n      swap2\n      swap1\n      tag_119\n      jump\t// in\n    tag_118:\n        /* \"contracts/Lottery.sol\":4636:4669  AllLotteryCount == LotCount * mul */\n      0xffff\n      and\n        /* \"contracts/Lottery.sol\":4636:4651  AllLotteryCount */\n      dup2\n        /* \"contracts/Lottery.sol\":4636:4669  AllLotteryCount == LotCount * mul */\n      eq\n        /* \"contracts/Lottery.sol\":4628:4686  require(AllLotteryCount == LotCount * mul, \"Invalid data\") */\n      tag_120\n      jumpi\n      mload(0x40)\n      0x08c379a000000000000000000000000000000000000000000000000000000000\n      dup2\n      mstore\n      0x04\n      add\n      tag_121\n      swap1\n      tag_122\n      jump\t// in\n    tag_121:\n      mload(0x40)\n      dup1\n      swap2\n      sub\n      swap1\n      revert\n    tag_120:\n        /* \"contracts/Lottery.sol\":4702:4711  uint256 i */\n      0x00\n        /* \"contracts/Lottery.sol\":4697:5183  for (uint256 i = 0; i < LotCount; i++) {... */\n    tag_123:\n        /* \"contracts/Lottery.sol\":4721:4729  LotCount */\n      dup6\n        /* \"contracts/Lottery.sol\":4717:4729  i < LotCount */\n      0xffff\n      and\n        /* \"contracts/Lottery.sol\":4717:4718  i */\n      dup2\n        /* \"contracts/Lottery.sol\":4717:4729  i < LotCount */\n      lt\n        /* \"contracts/Lottery.sol\":4697:5183  for (uint256 i = 0; i < LotCount; i++) {... */\n      iszero\n      tag_124\n      jumpi\n        /* \"contracts/Lottery.sol\":4750:4772  Egginfo memory egginfo */\n      0x00\n        /* \"contracts/Lottery.sol\":4775:5113  Egginfo(... */\n      mload(0x40)\n      dup1\n      0x60\n      add\n      0x40\n      mstore\n      dup1\n        /* \"contracts/Lottery.sol\":4873:4888  block.timestamp */\n      timestamp\n        /* \"contracts/Lottery.sol\":4914:4928  block.coinbase */\n      coinbase\n        /* \"contracts/Lottery.sol\":4954:4964  msg.sender */\n      caller\n        /* \"contracts/Lottery.sol\":4990:4999  Lucknum++ */\n      dup10\n      dup1\n      tag_126\n      swap1\n      tag_127\n      jump\t// in\n    tag_126:\n      swap11\n      pop\n        /* \"contracts/Lottery.sol\":4831:5021  abi.encodePacked(... */\n      add(0x20, mload(0x40))\n      tag_128\n      swap5\n      swap4\n      swap3\n      swap2\n      swap1\n      tag_129\n      jump\t// in\n    tag_128:\n      mload(0x40)\n      0x20\n      dup2\n      dup4\n      sub\n      sub\n      dup2\n      mstore\n      swap1\n      0x40\n      mstore\n        /* \"contracts/Lottery.sol\":4800:5039  keccak256(... */\n      dup1\n      mload\n      swap1\n      0x20\n      add\n      keccak256\n        /* \"contracts/Lottery.sol\":4775:5113  Egginfo(... */\n      dup2\n      mstore\n      0x20\n      add\n        /* \"contracts/Lottery.sol\":5057:5060  mul */\n      dup8\n        /* \"contracts/Lottery.sol\":4775:5113  Egginfo(... */\n      0xff\n      and\n      dup2\n      mstore\n      0x20\n      add\n        /* \"contracts/Lottery.sol\":5086:5098  block.number */\n      number\n        /* \"contracts/Lottery.sol\":4775:5113  Egginfo(... */\n      0xffffffffffffffffffffffffffffffffffffffffffffffffffffffffffffff\n      and\n      dup2\n      mstore\n      pop\n        /* \"contracts/Lottery.sol\":4750:5113  Egginfo memory egginfo = Egginfo(... */\n      swap1\n      pop\n        /* \"contracts/Lottery.sol\":5128:5137  UsersInfo */\n      0x09\n        /* \"contracts/Lottery.sol\":5128:5149  UsersInfo[msg.sender] */\n      0x00\n        /* \"contracts/Lottery.sol\":5138:5148  msg.sender */\n      caller\n        /* \"contracts/Lottery.sol\":5128:5149  UsersInfo[msg.sender] */\n      0xffffffffffffffffffffffffffffffffffffffff\n      and\n      0xffffffffffffffffffffffffffffffffffffffff\n      and\n      dup2\n      mstore\n      0x20\n      add\n      swap1\n      dup2\n      mstore\n      0x20\n      add\n      0x00\n      keccak256\n        /* \"contracts/Lottery.sol\":5128:5158  UsersInfo[msg.sender].eggsinfo */\n      0x00\n      add\n        /* \"contracts/Lottery.sol\":5164:5171  egginfo */\n      dup2\n        /* \"contracts/Lottery.sol\":5128:5172  UsersInfo[msg.sender].eggsinfo.push(egginfo) */\n      swap1\n      dup1\n      0x01\n      dup2\n      sload\n      add\n      dup1\n      dup3\n      sstore\n      dup1\n      swap2\n      pop\n      pop\n      0x01\n      swap1\n      sub\n      swap1\n      0x00\n      mstore\n      keccak256(0x00, 0x20)\n      swap1\n      0x02\n      mul\n      add\n      0x00\n      swap1\n      swap2\n      swap1\n      swap2\n      swap1\n      swap2\n      pop\n      0x00\n      dup3\n      add\n      mload\n      dup2\n      0x00\n      add\n      sstore\n      0x20\n      dup3\n      add\n      mload\n      dup2\n      0x01\n      add\n      exp(0x0100, 0x00)\n      dup2\n      sload\n      dup2\n      0xff\n      mul\n      not\n      and\n      swap1\n      dup4\n      0xff\n      and\n      mul\n      or\n      swap1\n      sstore\n      pop\n      0x40\n      dup3\n      add\n      mload\n      dup2\n      0x01\n      add\n      exp(0x0100, 0x01)\n      dup2\n      sload\n      dup2\n      0xffffffffffffffffffffffffffffffffffffffffffffffffffffffffffffff\n      mul\n      not\n      and\n      swap1\n      dup4\n      0xffffffffffffffffffffffffffffffffffffffffffffffffffffffffffffff\n      and\n      mul\n      or\n      swap1\n      sstore\n      pop\n      pop\n      pop\n        /* \"contracts/Lottery.sol\":4736:5183  {... */\n      pop\n        /* \"contracts/Lottery.sol\":4731:4734  i++ */\n      dup1\n      dup1\n      0x01\n      add\n      swap2\n      pop\n      pop\n        /* \"contracts/Lottery.sol\":4697:5183  for (uint256 i = 0; i < LotCount; i++) {... */\n      jump(tag_123)\n    tag_124:\n      pop\n        /* \"contracts/Lottery.sol\":5198:5207  UsersInfo */\n      0x09\n        /* \"contracts/Lottery.sol\":5198:5219  UsersInfo[msg.sender] */\n      0x00\n        /* \"contracts/Lottery.sol\":5208:5218  msg.sender */\n      caller\n        /* \"contracts/Lottery.sol\":5198:5219  UsersInfo[msg.sender] */\n      0xffffffffffffffffffffffffffffffffffffffff\n      and\n      0xffffffffffffffffffffffffffffffffffffffff\n      and\n      dup2\n      mstore\n      0x20\n      add\n      swap1\n      dup2\n      mstore\n      0x20\n      add\n      0x00\n      keccak256\n        /* \"contracts/Lottery.sol\":5198:5227  UsersInfo[msg.sender].actived */\n      0x03\n      add\n      0x00\n      swap1\n      sload\n      swap1\n      0x0100\n      exp\n      swap1\n      div\n      0xff\n      and\n        /* \"contracts/Lottery.sol\":5193:5277  if (!UsersInfo[msg.sender].actived)... */\n      tag_131\n      jumpi\n        /* \"contracts/Lottery.sol\":5273:5277  true */\n      0x01\n        /* \"contracts/Lottery.sol\":5241:5250  UsersInfo */\n      0x09\n        /* \"contracts/Lottery.sol\":5241:5262  UsersInfo[msg.sender] */\n      0x00\n        /* \"contracts/Lottery.sol\":5251:5261  msg.sender */\n      caller\n        /* \"contracts/Lottery.sol\":5241:5262  UsersInfo[msg.sender] */\n      0xffffffffffffffffffffffffffffffffffffffff\n      and\n      0xffffffffffffffffffffffffffffffffffffffff\n      and\n      dup2\n      mstore\n      0x20\n      add\n      swap1\n      dup2\n      mstore\n      0x20\n      add\n      0x00\n      keccak256\n        /* \"contracts/Lottery.sol\":5241:5270  UsersInfo[msg.sender].actived */\n      0x03\n      add\n      0x00\n        /* \"contracts/Lottery.sol\":5241:5277  UsersInfo[msg.sender].actived = true */\n      0x0100\n      exp\n      dup2\n      sload\n      dup2\n      0xff\n      mul\n      not\n      and\n      swap1\n      dup4\n      iszero\n      iszero\n      mul\n      or\n      swap1\n      sstore\n      pop\n        /* \"contracts/Lottery.sol\":5193:5277  if (!UsersInfo[msg.sender].actived)... */\n    tag_131:\n        /* \"contracts/Lottery.sol\":5312:5326  uint256 profit */\n      0x00\n        /* \"contracts/Lottery.sol\":5329:5372  SafeMathdiv(SafeMathmul(msg.value, 3), 100) */\n      tag_132\n        /* \"contracts/Lottery.sol\":5341:5366  SafeMathmul(msg.value, 3) */\n      tag_133\n        /* \"contracts/Lottery.sol\":5353:5362  msg.value */\n      callvalue\n        /* \"contracts/Lottery.sol\":5364:5365  3 */\n      0x03\n        /* \"contracts/Lottery.sol\":5341:5352  SafeMathmul */\n      tag_94\n        /* \"contracts/Lottery.sol\":5341:5366  SafeMathmul(msg.value, 3) */\n      jump\t// in\n    tag_133:\n        /* \"contracts/Lottery.sol\":5368:5371  100 */\n      0x64\n        /* \"contracts/Lottery.sol\":5329:5340  SafeMathdiv */\n      tag_95\n        /* \"contracts/Lottery.sol\":5329:5372  SafeMathdiv(SafeMathmul(msg.value, 3), 100) */\n      jump\t// in\n    tag_132:\n        /* \"contracts/Lottery.sol\":5312:5372  uint256 profit = SafeMathdiv(SafeMathmul(msg.value, 3), 100) */\n      swap1\n      pop\n        /* \"contracts/Lottery.sol\":5407:5424  uint256 Refprofit */\n      0x00\n        /* \"contracts/Lottery.sol\":5427:5470  SafeMathdiv(SafeMathmul(msg.value, 4), 100) */\n      tag_134\n        /* \"contracts/Lottery.sol\":5439:5464  SafeMathmul(msg.value, 4) */\n      tag_135\n        /* \"contracts/Lottery.sol\":5451:5460  msg.value */\n      callvalue\n        /* \"contracts/Lottery.sol\":5462:5463  4 */\n      0x04\n        /* \"contracts/Lottery.sol\":5439:5450  SafeMathmul */\n      tag_94\n        /* \"contracts/Lottery.sol\":5439:5464  SafeMathmul(msg.value, 4) */\n      jump\t// in\n    tag_135:\n        /* \"contracts/Lottery.sol\":5466:5469  100 */\n      0x64\n        /* \"contracts/Lottery.sol\":5427:5438  SafeMathdiv */\n      tag_95\n        /* \"contracts/Lottery.sol\":5427:5470  SafeMathdiv(SafeMathmul(msg.value, 4), 100) */\n      jump\t// in\n    tag_134:\n        /* \"contracts/Lottery.sol\":5407:5470  uint256 Refprofit = SafeMathdiv(SafeMathmul(msg.value, 4), 100) */\n      swap1\n      pop\n        /* \"contracts/Lottery.sol\":5523:5529  profit */\n      dup2\n        /* \"contracts/Lottery.sol\":5510:5519  DevProfit */\n      0x01\n      0x00\n        /* \"contracts/Lottery.sol\":5510:5529  DevProfit += profit */\n      dup3\n      dup3\n      sload\n      tag_136\n      swap2\n      swap1\n      tag_76\n      jump\t// in\n    tag_136:\n      swap3\n      pop\n      pop\n      dup2\n      swap1\n      sstore\n      pop\n        /* \"contracts/Lottery.sol\":5588:5594  profit */\n      dup2\n        /* \"contracts/Lottery.sol\":5569:5584  InvestorsProfit */\n      0x05\n      0x00\n        /* \"contracts/Lottery.sol\":5569:5594  InvestorsProfit += profit */\n      dup3\n      dup3\n      sload\n      tag_137\n      swap2\n      swap1\n      tag_76\n      jump\t// in\n    tag_137:\n      swap3\n      pop\n      pop\n      dup2\n      swap1\n      sstore\n      pop\n        /* \"contracts/Lottery.sol\":5687:5688  0 */\n      0x00\n        /* \"contracts/Lottery.sol\":5654:5689  referrals[msg.sender] == address(0) */\n      0xffffffffffffffffffffffffffffffffffffffff\n      and\n        /* \"contracts/Lottery.sol\":5654:5663  referrals */\n      0x0a\n        /* \"contracts/Lottery.sol\":5654:5675  referrals[msg.sender] */\n      0x00\n        /* \"contracts/Lottery.sol\":5664:5674  msg.sender */\n      caller\n        /* \"contracts/Lottery.sol\":5654:5675  referrals[msg.sender] */\n      0xffffffffffffffffffffffffffffffffffffffff\n      and\n      0xffffffffffffffffffffffffffffffffffffffff\n      and\n      dup2\n      mstore\n      0x20\n      add\n      swap1\n      dup2\n      mstore\n      0x20\n      add\n      0x00\n      keccak256\n      0x00\n      swap1\n      sload\n      swap1\n      0x0100\n      exp\n      swap1\n      div\n      0xffffffffffffffffffffffffffffffffffffffff\n      and\n        /* \"contracts/Lottery.sol\":5654:5689  referrals[msg.sender] == address(0) */\n      0xffffffffffffffffffffffffffffffffffffffff\n      and\n      sub\n        /* \"contracts/Lottery.sol\":5650:6538  if (referrals[msg.sender] == address(0)) {... */\n      tag_138\n      jumpi\n        /* \"contracts/Lottery.sol\":5863:5873  msg.sender */\n      caller\n        /* \"contracts/Lottery.sol\":5856:5873  ref == msg.sender */\n      0xffffffffffffffffffffffffffffffffffffffff\n      and\n        /* \"contracts/Lottery.sol\":5856:5859  ref */\n      dup5\n        /* \"contracts/Lottery.sol\":5856:5873  ref == msg.sender */\n      0xffffffffffffffffffffffffffffffffffffffff\n      and\n      eq\n        /* \"contracts/Lottery.sol\":5856:5910  ref == msg.sender ||... */\n      dup1\n      tag_139\n      jumpi\n      pop\n        /* \"contracts/Lottery.sol\":5908:5909  0 */\n      0x00\n        /* \"contracts/Lottery.sol\":5893:5910  ref == address(0) */\n      0xffffffffffffffffffffffffffffffffffffffff\n      and\n        /* \"contracts/Lottery.sol\":5893:5896  ref */\n      dup5\n        /* \"contracts/Lottery.sol\":5893:5910  ref == address(0) */\n      0xffffffffffffffffffffffffffffffffffffffff\n      and\n      eq\n        /* \"contracts/Lottery.sol\":5856:5910  ref == msg.sender ||... */\n    tag_139:\n        /* \"contracts/Lottery.sol\":5856:5960  ref == msg.sender ||... */\n      dup1\n      tag_140\n      jumpi\n      pop\n        /* \"contracts/Lottery.sol\":5931:5940  UsersInfo */\n      0x09\n        /* \"contracts/Lottery.sol\":5931:5952  UsersInfo[msg.sender] */\n      0x00\n        /* \"contracts/Lottery.sol\":5941:5951  msg.sender */\n      caller\n        /* \"contracts/Lottery.sol\":5931:5952  UsersInfo[msg.sender] */\n      0xffffffffffffffffffffffffffffffffffffffff\n      and\n      0xffffffffffffffffffffffffffffffffffffffff\n      and\n      dup2\n      mstore\n      0x20\n      add\n      swap1\n      dup2\n      mstore\n      0x20\n      add\n      0x00\n      keccak256\n        /* \"contracts/Lottery.sol\":5931:5960  UsersInfo[msg.sender].actived */\n      0x03\n      add\n      0x00\n      swap1\n      sload\n      swap1\n      0x0100\n      exp\n      swap1\n      div\n      0xff\n      and\n        /* \"contracts/Lottery.sol\":5930:5960  !UsersInfo[msg.sender].actived */\n      iszero\n        /* \"contracts/Lottery.sol\":5856:5960  ref == msg.sender ||... */\n    tag_140:\n        /* \"contracts/Lottery.sol\":5835:6101  if (... */\n      iszero\n      tag_141\n      jumpi\n        /* \"contracts/Lottery.sol\":6076:6086  DevAddress */\n      0x00\n      dup1\n      sload\n      swap1\n      0x0100\n      exp\n      swap1\n      div\n      0xffffffffffffffffffffffffffffffffffffffff\n      and\n        /* \"contracts/Lottery.sol\":6070:6086  ref = DevAddress */\n      swap4\n      pop\n        /* \"contracts/Lottery.sol\":5835:6101  if (... */\n    tag_141:\n        /* \"contracts/Lottery.sol\":6138:6141  ref */\n      dup4\n        /* \"contracts/Lottery.sol\":6114:6123  referrals */\n      0x0a\n        /* \"contracts/Lottery.sol\":6114:6135  referrals[msg.sender] */\n      0x00\n        /* \"contracts/Lottery.sol\":6124:6134  msg.sender */\n      caller\n        /* \"contracts/Lottery.sol\":6114:6135  referrals[msg.sender] */\n      0xffffffffffffffffffffffffffffffffffffffff\n      and\n      0xffffffffffffffffffffffffffffffffffffffff\n      and\n      dup2\n      mstore\n      0x20\n      add\n      swap1\n      dup2\n      mstore\n      0x20\n      add\n      0x00\n      keccak256\n      0x00\n        /* \"contracts/Lottery.sol\":6114:6141  referrals[msg.sender] = ref */\n      0x0100\n      exp\n      dup2\n      sload\n      dup2\n      0xffffffffffffffffffffffffffffffffffffffff\n      mul\n      not\n      and\n      swap1\n      dup4\n      0xffffffffffffffffffffffffffffffffffffffff\n      and\n      mul\n      or\n      swap1\n      sstore\n      pop\n        /* \"contracts/Lottery.sol\":6265:6275  DevAddress */\n      0x00\n      dup1\n      sload\n      swap1\n      0x0100\n      exp\n      swap1\n      div\n      0xffffffffffffffffffffffffffffffffffffffff\n      and\n        /* \"contracts/Lottery.sol\":6240:6275  referrals[msg.sender] == DevAddress */\n      0xffffffffffffffffffffffffffffffffffffffff\n      and\n        /* \"contracts/Lottery.sol\":6240:6249  referrals */\n      0x0a\n        /* \"contracts/Lottery.sol\":6240:6261  referrals[msg.sender] */\n      0x00\n        /* \"contracts/Lottery.sol\":6250:6260  msg.sender */\n      caller\n        /* \"contracts/Lottery.sol\":6240:6261  referrals[msg.sender] */\n      0xffffffffffffffffffffffffffffffffffffffff\n      and\n      0xffffffffffffffffffffffffffffffffffffffff\n      and\n      dup2\n      mstore\n      0x20\n      add\n      swap1\n      dup2\n      mstore\n      0x20\n      add\n      0x00\n      keccak256\n      0x00\n      swap1\n      sload\n      swap1\n      0x0100\n      exp\n      swap1\n      div\n      0xffffffffffffffffffffffffffffffffffffffff\n      and\n        /* \"contracts/Lottery.sol\":6240:6275  referrals[msg.sender] == DevAddress */\n      0xffffffffffffffffffffffffffffffffffffffff\n      and\n      sub\n        /* \"contracts/Lottery.sol\":6236:6481  if (referrals[msg.sender] == DevAddress) {... */\n      tag_142\n      jumpi\n        /* \"contracts/Lottery.sol\":6308:6317  Refprofit */\n      dup1\n        /* \"contracts/Lottery.sol\":6295:6304  DevProfit */\n      0x01\n      0x00\n        /* \"contracts/Lottery.sol\":6295:6317  DevProfit += Refprofit */\n      dup3\n      dup3\n      sload\n      tag_143\n      swap2\n      swap1\n      tag_76\n      jump\t// in\n    tag_143:\n      swap3\n      pop\n      pop\n      dup2\n      swap1\n      sstore\n      pop\n        /* \"contracts/Lottery.sol\":6236:6481  if (referrals[msg.sender] == DevAddress) {... */\n      jump(tag_144)\n    tag_142:\n        /* \"contracts/Lottery.sol\":6407:6416  Refprofit */\n      dup1\n        /* \"contracts/Lottery.sol\":6356:6365  UsersInfo */\n      0x09\n        /* \"contracts/Lottery.sol\":6356:6388  UsersInfo[referrals[msg.sender]] */\n      0x00\n        /* \"contracts/Lottery.sol\":6366:6375  referrals */\n      0x0a\n        /* \"contracts/Lottery.sol\":6366:6387  referrals[msg.sender] */\n      0x00\n        /* \"contracts/Lottery.sol\":6376:6386  msg.sender */\n      caller\n        /* \"contracts/Lottery.sol\":6366:6387  referrals[msg.sender] */\n      0xffffffffffffffffffffffffffffffffffffffff\n      and\n      0xffffffffffffffffffffffffffffffffffffffff\n      and\n      dup2\n      mstore\n      0x20\n      add\n      swap1\n      dup2\n      mstore\n      0x20\n      add\n      0x00\n      keccak256\n      0x00\n      swap1\n      sload\n      swap1\n      0x0100\n      exp\n      swap1\n      div\n      0xffffffffffffffffffffffffffffffffffffffff\n      and\n        /* \"contracts/Lottery.sol\":6356:6388  UsersInfo[referrals[msg.sender]] */\n      0xffffffffffffffffffffffffffffffffffffffff\n      and\n      0xffffffffffffffffffffffffffffffffffffffff\n      and\n      dup2\n      mstore\n      0x20\n      add\n      swap1\n      dup2\n      mstore\n      0x20\n      add\n      0x00\n      keccak256\n        /* \"contracts/Lottery.sol\":6356:6403  UsersInfo[referrals[msg.sender]].ReferralProfit */\n      0x02\n      add\n      0x00\n        /* \"contracts/Lottery.sol\":6356:6416  UsersInfo[referrals[msg.sender]].ReferralProfit += Refprofit */\n      dup3\n      dup3\n      sload\n      tag_145\n      swap2\n      swap1\n      tag_76\n      jump\t// in\n    tag_145:\n      swap3\n      pop\n      pop\n      dup2\n      swap1\n      sstore\n      pop\n        /* \"contracts/Lottery.sol\":6457:6466  Refprofit */\n      dup1\n        /* \"contracts/Lottery.sol\":6434:6453  TotalReferralProfit */\n      0x07\n      0x00\n        /* \"contracts/Lottery.sol\":6434:6466  TotalReferralProfit += Refprofit */\n      dup3\n      dup3\n      sload\n      tag_146\n      swap2\n      swap1\n      tag_76\n      jump\t// in\n    tag_146:\n      swap3\n      pop\n      pop\n      dup2\n      swap1\n      sstore\n      pop\n        /* \"contracts/Lottery.sol\":6236:6481  if (referrals[msg.sender] == DevAddress) {... */\n    tag_144:\n        /* \"contracts/Lottery.sol\":6512:6527  block.timestamp */\n      timestamp\n        /* \"contracts/Lottery.sol\":6495:6509  LastBuyEggTime */\n      0x08\n        /* \"contracts/Lottery.sol\":6495:6527  LastBuyEggTime = block.timestamp */\n      dup2\n      swap1\n      sstore\n      pop\n        /* \"contracts/Lottery.sol\":5650:6538  if (referrals[msg.sender] == address(0)) {... */\n    tag_138:\n        /* \"contracts/Lottery.sol\":4285:6544  {... */\n      pop\n      pop\n      pop\n        /* \"contracts/Lottery.sol\":4155:6544  function BuyEggs(... */\n      pop\n      pop\n      pop\n      pop\n      jump\t// out\n        /* \"contracts/Lottery.sol\":2170:2200  uint256 public InvestorsProfit */\n    tag_31:\n      sload(0x05)\n      dup2\n      jump\t// out\n        /* \"contracts/Lottery.sol\":6594:7176  function GetWinninggrade(uint32 LotteryNum) private pure returns (uint256) {... */\n    tag_65:\n        /* \"contracts/Lottery.sol\":6660:6667  uint256 */\n      0x00\n        /* \"contracts/Lottery.sol\":6696:6704  67108864 */\n      0x04000000\n        /* \"contracts/Lottery.sol\":6683:6693  LotteryNum */\n      dup3\n        /* \"contracts/Lottery.sol\":6683:6704  LotteryNum > 67108864 */\n      0xffffffff\n      and\n      gt\n        /* \"contracts/Lottery.sol\":6679:6714  if (LotteryNum > 67108864) return 0 */\n      iszero\n      tag_148\n      jumpi\n        /* \"contracts/Lottery.sol\":6713:6714  0 */\n      0x00\n        /* \"contracts/Lottery.sol\":6706:6714  return 0 */\n      swap1\n      pop\n      jump(tag_147)\n        /* \"contracts/Lottery.sol\":6679:6714  if (LotteryNum > 67108864) return 0 */\n    tag_148:\n        /* \"contracts/Lottery.sol\":6742:6750  16777216 */\n      0x01000000\n        /* \"contracts/Lottery.sol\":6728:6738  LotteryNum */\n      dup3\n        /* \"contracts/Lottery.sol\":6728:6750  LotteryNum >= 16777216 */\n      0xffffffff\n      and\n      lt\n        /* \"contracts/Lottery.sol\":6724:6761  if (LotteryNum >= 16777216) return 10 */\n      tag_149\n      jumpi\n        /* \"contracts/Lottery.sol\":6759:6761  10 */\n      0x0a\n        /* \"contracts/Lottery.sol\":6752:6761  return 10 */\n      swap1\n      pop\n      jump(tag_147)\n        /* \"contracts/Lottery.sol\":6724:6761  if (LotteryNum >= 16777216) return 10 */\n    tag_149:\n        /* \"contracts/Lottery.sol\":6789:6796  4194304 */\n      0x400000\n        /* \"contracts/Lottery.sol\":6775:6785  LotteryNum */\n      dup3\n        /* \"contracts/Lottery.sol\":6775:6796  LotteryNum >= 4194304 */\n      0xffffffff\n      and\n      lt\n        /* \"contracts/Lottery.sol\":6771:6806  if (LotteryNum >= 4194304) return 9 */\n      tag_150\n      jumpi\n        /* \"contracts/Lottery.sol\":6805:6806  9 */\n      0x09\n        /* \"contracts/Lottery.sol\":6798:6806  return 9 */\n      swap1\n      pop\n      jump(tag_147)\n        /* \"contracts/Lottery.sol\":6771:6806  if (LotteryNum >= 4194304) return 9 */\n    tag_150:\n        /* \"contracts/Lottery.sol\":6834:6841  1048576 */\n      0x100000\n        /* \"contracts/Lottery.sol\":6820:6830  LotteryNum */\n      dup3\n        /* \"contracts/Lottery.sol\":6820:6841  LotteryNum >= 1048576 */\n      0xffffffff\n      and\n      lt\n        /* \"contracts/Lottery.sol\":6816:6851  if (LotteryNum >= 1048576) return 8 */\n      tag_151\n      jumpi\n        /* \"contracts/Lottery.sol\":6850:6851  8 */\n      0x08\n        /* \"contracts/Lottery.sol\":6843:6851  return 8 */\n      swap1\n      pop\n      jump(tag_147)\n        /* \"contracts/Lottery.sol\":6816:6851  if (LotteryNum >= 1048576) return 8 */\n    tag_151:\n        /* \"contracts/Lottery.sol\":6879:6885  262144 */\n      0x040000\n        /* \"contracts/Lottery.sol\":6865:6875  LotteryNum */\n      dup3\n        /* \"contracts/Lottery.sol\":6865:6885  LotteryNum >= 262144 */\n      0xffffffff\n      and\n      lt\n        /* \"contracts/Lottery.sol\":6861:6895  if (LotteryNum >= 262144) return 7 */\n      tag_152\n      jumpi\n        /* \"contracts/Lottery.sol\":6894:6895  7 */\n      0x07\n        /* \"contracts/Lottery.sol\":6887:6895  return 7 */\n      swap1\n      pop\n      jump(tag_147)\n        /* \"contracts/Lottery.sol\":6861:6895  if (LotteryNum >= 262144) return 7 */\n    tag_152:\n        /* \"contracts/Lottery.sol\":6923:6928  65536 */\n      0x010000\n        /* \"contracts/Lottery.sol\":6909:6919  LotteryNum */\n      dup3\n        /* \"contracts/Lottery.sol\":6909:6928  LotteryNum >= 65536 */\n      0xffffffff\n      and\n      lt\n        /* \"contracts/Lottery.sol\":6905:6938  if (LotteryNum >= 65536) return 6 */\n      tag_153\n      jumpi\n        /* \"contracts/Lottery.sol\":6937:6938  6 */\n      0x06\n        /* \"contracts/Lottery.sol\":6930:6938  return 6 */\n      swap1\n      pop\n      jump(tag_147)\n        /* \"contracts/Lottery.sol\":6905:6938  if (LotteryNum >= 65536) return 6 */\n    tag_153:\n        /* \"contracts/Lottery.sol\":6966:6971  16384 */\n      0x4000\n        /* \"contracts/Lottery.sol\":6952:6962  LotteryNum */\n      dup3\n        /* \"contracts/Lottery.sol\":6952:6971  LotteryNum >= 16384 */\n      0xffffffff\n      and\n      lt\n        /* \"contracts/Lottery.sol\":6948:6981  if (LotteryNum >= 16384) return 5 */\n      tag_154\n      jumpi\n        /* \"contracts/Lottery.sol\":6980:6981  5 */\n      0x05\n        /* \"contracts/Lottery.sol\":6973:6981  return 5 */\n      swap1\n      pop\n      jump(tag_147)\n        /* \"contracts/Lottery.sol\":6948:6981  if (LotteryNum >= 16384) return 5 */\n    tag_154:\n        /* \"contracts/Lottery.sol\":7009:7013  4096 */\n      0x1000\n        /* \"contracts/Lottery.sol\":6995:7005  LotteryNum */\n      dup3\n        /* \"contracts/Lottery.sol\":6995:7013  LotteryNum >= 4096 */\n      0xffffffff\n      and\n      lt\n        /* \"contracts/Lottery.sol\":6991:7023  if (LotteryNum >= 4096) return 4 */\n      tag_155\n      jumpi\n        /* \"contracts/Lottery.sol\":7022:7023  4 */\n      0x04\n        /* \"contracts/Lottery.sol\":7015:7023  return 4 */\n      swap1\n      pop\n      jump(tag_147)\n        /* \"contracts/Lottery.sol\":6991:7023  if (LotteryNum >= 4096) return 4 */\n    tag_155:\n        /* \"contracts/Lottery.sol\":7051:7055  1024 */\n      0x0400\n        /* \"contracts/Lottery.sol\":7037:7047  LotteryNum */\n      dup3\n        /* \"contracts/Lottery.sol\":7037:7055  LotteryNum >= 1024 */\n      0xffffffff\n      and\n      lt\n        /* \"contracts/Lottery.sol\":7033:7065  if (LotteryNum >= 1024) return 3 */\n      tag_156\n      jumpi\n        /* \"contracts/Lottery.sol\":7064:7065  3 */\n      0x03\n        /* \"contracts/Lottery.sol\":7057:7065  return 3 */\n      swap1\n      pop\n      jump(tag_147)\n        /* \"contracts/Lottery.sol\":7033:7065  if (LotteryNum >= 1024) return 3 */\n    tag_156:\n        /* \"contracts/Lottery.sol\":7093:7096  256 */\n      0x0100\n        /* \"contracts/Lottery.sol\":7079:7089  LotteryNum */\n      dup3\n        /* \"contracts/Lottery.sol\":7079:7096  LotteryNum >= 256 */\n      0xffffffff\n      and\n      lt\n        /* \"contracts/Lottery.sol\":7075:7170  if (LotteryNum >= 256) {... */\n      tag_157\n      jumpi\n        /* \"contracts/Lottery.sol\":7119:7120  2 */\n      0x02\n        /* \"contracts/Lottery.sol\":7112:7120  return 2 */\n      swap1\n      pop\n      jump(tag_147)\n        /* \"contracts/Lottery.sol\":7075:7170  if (LotteryNum >= 256) {... */\n    tag_157:\n        /* \"contracts/Lottery.sol\":7158:7159  1 */\n      0x01\n        /* \"contracts/Lottery.sol\":7151:7159  return 1 */\n      swap1\n      pop\n        /* \"contracts/Lottery.sol\":6594:7176  function GetWinninggrade(uint32 LotteryNum) private pure returns (uint256) {... */\n    tag_147:\n      swap2\n      swap1\n      pop\n      jump\t// out\n        /* \"contracts/Lottery.sol\":7226:7831  function GetWinningmultiple(uint256 winninginfo)... */\n    tag_71:\n        /* \"contracts/Lottery.sol\":7321:7328  uint256 */\n      0x00\n        /* \"contracts/Lottery.sol\":7363:7364  0 */\n      dup1\n        /* \"contracts/Lottery.sol\":7348:7359  winninginfo */\n      dup3\n        /* \"contracts/Lottery.sol\":7348:7364  winninginfo == 0 */\n      sub\n        /* \"contracts/Lottery.sol\":7344:7374  if (winninginfo == 0) return 0 */\n      tag_160\n      jumpi\n        /* \"contracts/Lottery.sol\":7373:7374  0 */\n      0x00\n        /* \"contracts/Lottery.sol\":7366:7374  return 0 */\n      swap1\n      pop\n      jump(tag_159)\n        /* \"contracts/Lottery.sol\":7344:7374  if (winninginfo == 0) return 0 */\n    tag_160:\n        /* \"contracts/Lottery.sol\":7403:7405  10 */\n      0x0a\n        /* \"contracts/Lottery.sol\":7388:7399  winninginfo */\n      dup3\n        /* \"contracts/Lottery.sol\":7388:7405  winninginfo == 10 */\n      sub\n        /* \"contracts/Lottery.sol\":7384:7415  if (winninginfo == 10) return 5 */\n      tag_161\n      jumpi\n        /* \"contracts/Lottery.sol\":7414:7415  5 */\n      0x05\n        /* \"contracts/Lottery.sol\":7407:7415  return 5 */\n      swap1\n      pop\n      jump(tag_159)\n        /* \"contracts/Lottery.sol\":7384:7415  if (winninginfo == 10) return 5 */\n    tag_161:\n        /* \"contracts/Lottery.sol\":7444:7445  9 */\n      0x09\n        /* \"contracts/Lottery.sol\":7429:7440  winninginfo */\n      dup3\n        /* \"contracts/Lottery.sol\":7429:7445  winninginfo == 9 */\n      sub\n        /* \"contracts/Lottery.sol\":7425:7456  if (winninginfo == 9) return 20 */\n      tag_162\n      jumpi\n        /* \"contracts/Lottery.sol\":7454:7456  20 */\n      0x14\n        /* \"contracts/Lottery.sol\":7447:7456  return 20 */\n      swap1\n      pop\n      jump(tag_159)\n        /* \"contracts/Lottery.sol\":7425:7456  if (winninginfo == 9) return 20 */\n    tag_162:\n        /* \"contracts/Lottery.sol\":7485:7486  8 */\n      0x08\n        /* \"contracts/Lottery.sol\":7470:7481  winninginfo */\n      dup3\n        /* \"contracts/Lottery.sol\":7470:7486  winninginfo == 8 */\n      sub\n        /* \"contracts/Lottery.sol\":7466:7497  if (winninginfo == 8) return 80 */\n      tag_163\n      jumpi\n        /* \"contracts/Lottery.sol\":7495:7497  80 */\n      0x50\n        /* \"contracts/Lottery.sol\":7488:7497  return 80 */\n      swap1\n      pop\n      jump(tag_159)\n        /* \"contracts/Lottery.sol\":7466:7497  if (winninginfo == 8) return 80 */\n    tag_163:\n        /* \"contracts/Lottery.sol\":7526:7527  7 */\n      0x07\n        /* \"contracts/Lottery.sol\":7511:7522  winninginfo */\n      dup3\n        /* \"contracts/Lottery.sol\":7511:7527  winninginfo == 7 */\n      sub\n        /* \"contracts/Lottery.sol\":7507:7539  if (winninginfo == 7) return 320 */\n      tag_164\n      jumpi\n        /* \"contracts/Lottery.sol\":7536:7539  320 */\n      0x0140\n        /* \"contracts/Lottery.sol\":7529:7539  return 320 */\n      swap1\n      pop\n      jump(tag_159)\n        /* \"contracts/Lottery.sol\":7507:7539  if (winninginfo == 7) return 320 */\n    tag_164:\n        /* \"contracts/Lottery.sol\":7568:7569  6 */\n      0x06\n        /* \"contracts/Lottery.sol\":7553:7564  winninginfo */\n      dup3\n        /* \"contracts/Lottery.sol\":7553:7569  winninginfo == 6 */\n      sub\n        /* \"contracts/Lottery.sol\":7549:7582  if (winninginfo == 6) return 1200 */\n      tag_165\n      jumpi\n        /* \"contracts/Lottery.sol\":7578:7582  1200 */\n      0x04b0\n        /* \"contracts/Lottery.sol\":7571:7582  return 1200 */\n      swap1\n      pop\n      jump(tag_159)\n        /* \"contracts/Lottery.sol\":7549:7582  if (winninginfo == 6) return 1200 */\n    tag_165:\n        /* \"contracts/Lottery.sol\":7611:7612  5 */\n      0x05\n        /* \"contracts/Lottery.sol\":7596:7607  winninginfo */\n      dup3\n        /* \"contracts/Lottery.sol\":7596:7612  winninginfo == 5 */\n      sub\n        /* \"contracts/Lottery.sol\":7592:7625  if (winninginfo == 5) return 4800 */\n      tag_166\n      jumpi\n        /* \"contracts/Lottery.sol\":7621:7625  4800 */\n      0x12c0\n        /* \"contracts/Lottery.sol\":7614:7625  return 4800 */\n      swap1\n      pop\n      jump(tag_159)\n        /* \"contracts/Lottery.sol\":7592:7625  if (winninginfo == 5) return 4800 */\n    tag_166:\n        /* \"contracts/Lottery.sol\":7654:7655  4 */\n      0x04\n        /* \"contracts/Lottery.sol\":7639:7650  winninginfo */\n      dup3\n        /* \"contracts/Lottery.sol\":7639:7655  winninginfo == 4 */\n      sub\n        /* \"contracts/Lottery.sol\":7635:7669  if (winninginfo == 4) return 20000 */\n      tag_167\n      jumpi\n        /* \"contracts/Lottery.sol\":7664:7669  20000 */\n      0x4e20\n        /* \"contracts/Lottery.sol\":7657:7669  return 20000 */\n      swap1\n      pop\n      jump(tag_159)\n        /* \"contracts/Lottery.sol\":7635:7669  if (winninginfo == 4) return 20000 */\n    tag_167:\n        /* \"contracts/Lottery.sol\":7698:7699  3 */\n      0x03\n        /* \"contracts/Lottery.sol\":7683:7694  winninginfo */\n      dup3\n        /* \"contracts/Lottery.sol\":7683:7699  winninginfo == 3 */\n      sub\n        /* \"contracts/Lottery.sol\":7679:7714  if (winninginfo == 3) return 100000 */\n      tag_168\n      jumpi\n        /* \"contracts/Lottery.sol\":7708:7714  100000 */\n      0x0186a0\n        /* \"contracts/Lottery.sol\":7701:7714  return 100000 */\n      swap1\n      pop\n      jump(tag_159)\n        /* \"contracts/Lottery.sol\":7679:7714  if (winninginfo == 3) return 100000 */\n    tag_168:\n        /* \"contracts/Lottery.sol\":7743:7744  2 */\n      0x02\n        /* \"contracts/Lottery.sol\":7728:7739  winninginfo */\n      dup3\n        /* \"contracts/Lottery.sol\":7728:7744  winninginfo == 2 */\n      sub\n        /* \"contracts/Lottery.sol\":7724:7759  if (winninginfo == 2) return 500000 */\n      tag_169\n      jumpi\n        /* \"contracts/Lottery.sol\":7753:7759  500000 */\n      0x07a120\n        /* \"contracts/Lottery.sol\":7746:7759  return 500000 */\n      swap1\n      pop\n      jump(tag_159)\n        /* \"contracts/Lottery.sol\":7724:7759  if (winninginfo == 2) return 500000 */\n    tag_169:\n        /* \"contracts/Lottery.sol\":7788:7789  1 */\n      0x01\n        /* \"contracts/Lottery.sol\":7773:7784  winninginfo */\n      dup3\n        /* \"contracts/Lottery.sol\":7773:7789  winninginfo == 1 */\n      sub\n        /* \"contracts/Lottery.sol\":7769:7805  if (winninginfo == 1) return 2000000 */\n      tag_170\n      jumpi\n        /* \"contracts/Lottery.sol\":7798:7805  2000000 */\n      0x1e8480\n        /* \"contracts/Lottery.sol\":7791:7805  return 2000000 */\n      swap1\n      pop\n      jump(tag_159)\n        /* \"contracts/Lottery.sol\":7769:7805  if (winninginfo == 1) return 2000000 */\n    tag_170:\n        /* \"contracts/Lottery.sol\":7823:7824  0 */\n      0x00\n        /* \"contracts/Lottery.sol\":7816:7824  return 0 */\n      swap1\n      pop\n        /* \"contracts/Lottery.sol\":7226:7831  function GetWinningmultiple(uint256 winninginfo)... */\n    tag_159:\n      swap2\n      swap1\n      pop\n      jump\t// out\n        /* \"contracts/Lottery.sol\":3582:3711  function SafeMathsub(uint256 a, uint256 b) internal pure returns (uint256) {... */\n    tag_93:\n        /* \"contracts/Lottery.sol\":3648:3655  uint256 */\n      0x00\n        /* \"contracts/Lottery.sol\":3679:3680  a */\n      dup3\n        /* \"contracts/Lottery.sol\":3674:3675  b */\n      dup3\n        /* \"contracts/Lottery.sol\":3674:3680  b <= a */\n      gt\n      iszero\n        /* \"contracts/Lottery.sol\":3667:3681  assert(b <= a) */\n      tag_172\n      jumpi\n      tag_173\n      tag_174\n      jump\t// in\n    tag_173:\n    tag_172:\n        /* \"contracts/Lottery.sol\":3703:3704  b */\n      dup2\n        /* \"contracts/Lottery.sol\":3699:3700  a */\n      dup4\n        /* \"contracts/Lottery.sol\":3699:3704  a - b */\n      tag_175\n      swap2\n      swap1\n      tag_38\n      jump\t// in\n    tag_175:\n        /* \"contracts/Lottery.sol\":3692:3704  return a - b */\n      swap1\n      pop\n        /* \"contracts/Lottery.sol\":3582:3711  function SafeMathsub(uint256 a, uint256 b) internal pure returns (uint256) {... */\n      swap3\n      swap2\n      pop\n      pop\n      jump\t// out\n        /* \"contracts/Lottery.sol\":3737:3951  function SafeMathmul(uint256 a, uint256 b) internal pure returns (uint256) {... */\n    tag_94:\n        /* \"contracts/Lottery.sol\":3803:3810  uint256 */\n      0x00\n        /* \"contracts/Lottery.sol\":3831:3832  0 */\n      dup1\n        /* \"contracts/Lottery.sol\":3826:3827  a */\n      dup4\n        /* \"contracts/Lottery.sol\":3826:3832  a == 0 */\n      sub\n        /* \"contracts/Lottery.sol\":3822:3867  if (a == 0) {... */\n      tag_177\n      jumpi\n        /* \"contracts/Lottery.sol\":3855:3856  0 */\n      0x00\n        /* \"contracts/Lottery.sol\":3848:3856  return 0 */\n      swap1\n      pop\n      jump(tag_176)\n        /* \"contracts/Lottery.sol\":3822:3867  if (a == 0) {... */\n    tag_177:\n        /* \"contracts/Lottery.sol\":3877:3886  uint256 c */\n      0x00\n        /* \"contracts/Lottery.sol\":3893:3894  b */\n      dup3\n        /* \"contracts/Lottery.sol\":3889:3890  a */\n      dup5\n        /* \"contracts/Lottery.sol\":3889:3894  a * b */\n      tag_178\n      swap2\n      swap1\n      tag_73\n      jump\t// in\n    tag_178:\n        /* \"contracts/Lottery.sol\":3877:3894  uint256 c = a * b */\n      swap1\n      pop\n        /* \"contracts/Lottery.sol\":3923:3924  b */\n      dup3\n        /* \"contracts/Lottery.sol\":3917:3918  a */\n      dup5\n        /* \"contracts/Lottery.sol\":3913:3914  c */\n      dup3\n        /* \"contracts/Lottery.sol\":3913:3918  c / a */\n      tag_179\n      swap2\n      swap1\n      tag_180\n      jump\t// in\n    tag_179:\n        /* \"contracts/Lottery.sol\":3912:3924  (c / a) == b */\n      eq\n        /* \"contracts/Lottery.sol\":3905:3925  assert((c / a) == b) */\n      tag_181\n      jumpi\n      tag_182\n      tag_174\n      jump\t// in\n    tag_182:\n    tag_181:\n        /* \"contracts/Lottery.sol\":3943:3944  c */\n      dup1\n        /* \"contracts/Lottery.sol\":3936:3944  return c */\n      swap2\n      pop\n      pop\n        /* \"contracts/Lottery.sol\":3737:3951  function SafeMathmul(uint256 a, uint256 b) internal pure returns (uint256) {... */\n    tag_176:\n      swap3\n      swap2\n      pop\n      pop\n      jump\t// out\n        /* \"contracts/Lottery.sol\":3977:4129  function SafeMathdiv(uint256 a, uint256 b) internal pure returns (uint256) {... */\n    tag_95:\n        /* \"contracts/Lottery.sol\":4043:4050  uint256 */\n      0x00\n        /* \"contracts/Lottery.sol\":4073:4074  0 */\n      dup1\n        /* \"contracts/Lottery.sol\":4069:4070  b */\n      dup3\n        /* \"contracts/Lottery.sol\":4069:4074  b > 0 */\n      gt\n        /* \"contracts/Lottery.sol\":4062:4075  assert(b > 0) */\n      tag_184\n      jumpi\n      tag_185\n      tag_174\n      jump\t// in\n    tag_185:\n    tag_184:\n        /* \"contracts/Lottery.sol\":4086:4095  uint256 c */\n      0x00\n        /* \"contracts/Lottery.sol\":4102:4103  b */\n      dup3\n        /* \"contracts/Lottery.sol\":4098:4099  a */\n      dup5\n        /* \"contracts/Lottery.sol\":4098:4103  a / b */\n      tag_186\n      swap2\n      swap1\n      tag_180\n      jump\t// in\n    tag_186:\n        /* \"contracts/Lottery.sol\":4086:4103  uint256 c = a / b */\n      swap1\n      pop\n        /* \"contracts/Lottery.sol\":4121:4122  c */\n      dup1\n        /* \"contracts/Lottery.sol\":4114:4122  return c */\n      swap2\n      pop\n      pop\n        /* \"contracts/Lottery.sol\":3977:4129  function SafeMathdiv(uint256 a, uint256 b) internal pure returns (uint256) {... */\n      swap3\n      swap2\n      pop\n      pop\n      jump\t// out\n    tag_48:\n      pop\n      dup1\n      sload\n      0x00\n      dup3\n      sstore\n      swap1\n      0x00\n      mstore\n      keccak256(0x00, 0x20)\n      swap1\n      dup2\n      add\n      swap1\n      tag_188\n      swap2\n      swap1\n      tag_189\n      jump\t// in\n    tag_188:\n      pop\n      jump\t// out\n    tag_86:\n      pop\n      dup1\n      sload\n      0x00\n      dup3\n      sstore\n      0x02\n      mul\n      swap1\n      0x00\n      mstore\n      keccak256(0x00, 0x20)\n      swap1\n      dup2\n      add\n      swap1\n      tag_191\n      swap2\n      swap1\n      tag_192\n      jump\t// in\n    tag_191:\n      pop\n      jump\t// out\n    tag_189:\n    tag_193:\n      dup1\n      dup3\n      gt\n      iszero\n      tag_194\n      jumpi\n      0x00\n      dup1\n      dup3\n      add\n      exp(0x0100, 0x00)\n      dup2\n      sload\n      swap1\n      0xffffffff\n      mul\n      not\n      and\n      swap1\n      sstore\n      0x00\n      dup3\n      add\n      exp(0x0100, 0x04)\n      dup2\n      sload\n      swap1\n      0xff\n      mul\n      not\n      and\n      swap1\n      sstore\n      pop\n      0x01\n      add\n      jump(tag_193)\n    tag_194:\n      pop\n      swap1\n      jump\t// out\n    tag_192:\n    tag_195:\n      dup1\n      dup3\n      gt\n      iszero\n      tag_196\n      jumpi\n      0x00\n      dup1\n      dup3\n      add\n      0x00\n      swap1\n      sstore\n      0x01\n      dup3\n      add\n      exp(0x0100, 0x00)\n      dup2\n      sload\n      swap1\n      0xff\n      mul\n      not\n      and\n      swap1\n      sstore\n      0x01\n      dup3\n      add\n      exp(0x0100, 0x01)\n      dup2\n      sload\n      swap1\n      0xffffffffffffffffffffffffffffffffffffffffffffffffffffffffffffff\n      mul\n      not\n      and\n      swap1\n      sstore\n      pop\n      0x02\n      add\n      jump(tag_195)\n    tag_196:\n      pop\n      swap1\n      jump\t// out\n        /* \"#utility.yul\":7:133   */\n    tag_197:\n        /* \"#utility.yul\":44:51   */\n      0x00\n        /* \"#utility.yul\":84:126   */\n      0xffffffffffffffffffffffffffffffffffffffff\n        /* \"#utility.yul\":77:82   */\n      dup3\n        /* \"#utility.yul\":73:127   */\n      and\n        /* \"#utility.yul\":62:127   */\n      swap1\n      pop\n        /* \"#utility.yul\":7:133   */\n      swap2\n      swap1\n      pop\n      jump\t// out\n        /* \"#utility.yul\":139:235   */\n    tag_198:\n        /* \"#utility.yul\":176:183   */\n      0x00\n        /* \"#utility.yul\":205:229   */\n      tag_249\n        /* \"#utility.yul\":223:228   */\n      dup3\n        /* \"#utility.yul\":205:229   */\n      tag_197\n      jump\t// in\n    tag_249:\n        /* \"#utility.yul\":194:229   */\n      swap1\n      pop\n        /* \"#utility.yul\":139:235   */\n      swap2\n      swap1\n      pop\n      jump\t// out\n        /* \"#utility.yul\":241:359   */\n    tag_199:\n        /* \"#utility.yul\":328:352   */\n      tag_251\n        /* \"#utility.yul\":346:351   */\n      dup2\n        /* \"#utility.yul\":328:352   */\n      tag_198\n      jump\t// in\n    tag_251:\n        /* \"#utility.yul\":323:326   */\n      dup3\n        /* \"#utility.yul\":316:353   */\n      mstore\n        /* \"#utility.yul\":241:359   */\n      pop\n      pop\n      jump\t// out\n        /* \"#utility.yul\":365:587   */\n    tag_15:\n        /* \"#utility.yul\":458:462   */\n      0x00\n        /* \"#utility.yul\":496:498   */\n      0x20\n        /* \"#utility.yul\":485:494   */\n      dup3\n        /* \"#utility.yul\":481:499   */\n      add\n        /* \"#utility.yul\":473:499   */\n      swap1\n      pop\n        /* \"#utility.yul\":509:580   */\n      tag_253\n        /* \"#utility.yul\":577:578   */\n      0x00\n        /* \"#utility.yul\":566:575   */\n      dup4\n        /* \"#utility.yul\":562:579   */\n      add\n        /* \"#utility.yul\":553:559   */\n      dup5\n        /* \"#utility.yul\":509:580   */\n      tag_199\n      jump\t// in\n    tag_253:\n        /* \"#utility.yul\":365:587   */\n      swap3\n      swap2\n      pop\n      pop\n      jump\t// out\n        /* \"#utility.yul\":593:670   */\n    tag_200:\n        /* \"#utility.yul\":630:637   */\n      0x00\n        /* \"#utility.yul\":659:664   */\n      dup2\n        /* \"#utility.yul\":648:664   */\n      swap1\n      pop\n        /* \"#utility.yul\":593:670   */\n      swap2\n      swap1\n      pop\n      jump\t// out\n        /* \"#utility.yul\":676:794   */\n    tag_201:\n        /* \"#utility.yul\":763:787   */\n      tag_256\n        /* \"#utility.yul\":781:786   */\n      dup2\n        /* \"#utility.yul\":763:787   */\n      tag_200\n      jump\t// in\n    tag_256:\n        /* \"#utility.yul\":758:761   */\n      dup3\n        /* \"#utility.yul\":751:788   */\n      mstore\n        /* \"#utility.yul\":676:794   */\n      pop\n      pop\n      jump\t// out\n        /* \"#utility.yul\":800:1022   */\n    tag_20:\n        /* \"#utility.yul\":893:897   */\n      0x00\n        /* \"#utility.yul\":931:933   */\n      0x20\n        /* \"#utility.yul\":920:929   */\n      dup3\n        /* \"#utility.yul\":916:934   */\n      add\n        /* \"#utility.yul\":908:934   */\n      swap1\n      pop\n        /* \"#utility.yul\":944:1015   */\n      tag_258\n        /* \"#utility.yul\":1012:1013   */\n      0x00\n        /* \"#utility.yul\":1001:1010   */\n      dup4\n        /* \"#utility.yul\":997:1014   */\n      add\n        /* \"#utility.yul\":988:994   */\n      dup5\n        /* \"#utility.yul\":944:1015   */\n      tag_201\n      jump\t// in\n    tag_258:\n        /* \"#utility.yul\":800:1022   */\n      swap3\n      swap2\n      pop\n      pop\n      jump\t// out\n        /* \"#utility.yul\":1109:1226   */\n    tag_203:\n        /* \"#utility.yul\":1218:1219   */\n      0x00\n        /* \"#utility.yul\":1215:1216   */\n      dup1\n        /* \"#utility.yul\":1208:1220   */\n      revert\n        /* \"#utility.yul\":1355:1444   */\n    tag_205:\n        /* \"#utility.yul\":1391:1398   */\n      0x00\n        /* \"#utility.yul\":1431:1437   */\n      0xffff\n        /* \"#utility.yul\":1424:1429   */\n      dup3\n        /* \"#utility.yul\":1420:1438   */\n      and\n        /* \"#utility.yul\":1409:1438   */\n      swap1\n      pop\n        /* \"#utility.yul\":1355:1444   */\n      swap2\n      swap1\n      pop\n      jump\t// out\n        /* \"#utility.yul\":1450:1570   */\n    tag_206:\n        /* \"#utility.yul\":1522:1545   */\n      tag_264\n        /* \"#utility.yul\":1539:1544   */\n      dup2\n        /* \"#utility.yul\":1522:1545   */\n      tag_205\n      jump\t// in\n    tag_264:\n        /* \"#utility.yul\":1515:1520   */\n      dup2\n        /* \"#utility.yul\":1512:1546   */\n      eq\n        /* \"#utility.yul\":1502:1564   */\n      tag_265\n      jumpi\n        /* \"#utility.yul\":1560:1561   */\n      0x00\n        /* \"#utility.yul\":1557:1558   */\n      dup1\n        /* \"#utility.yul\":1550:1562   */\n      revert\n        /* \"#utility.yul\":1502:1564   */\n    tag_265:\n        /* \"#utility.yul\":1450:1570   */\n      pop\n      jump\t// out\n        /* \"#utility.yul\":1576:1713   */\n    tag_207:\n        /* \"#utility.yul\":1621:1626   */\n      0x00\n        /* \"#utility.yul\":1659:1665   */\n      dup2\n        /* \"#utility.yul\":1646:1666   */\n      calldataload\n        /* \"#utility.yul\":1637:1666   */\n      swap1\n      pop\n        /* \"#utility.yul\":1675:1707   */\n      tag_267\n        /* \"#utility.yul\":1701:1706   */\n      dup2\n        /* \"#utility.yul\":1675:1707   */\n      tag_206\n      jump\t// in\n    tag_267:\n        /* \"#utility.yul\":1576:1713   */\n      swap3\n      swap2\n      pop\n      pop\n      jump\t// out\n        /* \"#utility.yul\":1719:1805   */\n    tag_208:\n        /* \"#utility.yul\":1754:1761   */\n      0x00\n        /* \"#utility.yul\":1794:1798   */\n      0xff\n        /* \"#utility.yul\":1787:1792   */\n      dup3\n        /* \"#utility.yul\":1783:1799   */\n      and\n        /* \"#utility.yul\":1772:1799   */\n      swap1\n      pop\n        /* \"#utility.yul\":1719:1805   */\n      swap2\n      swap1\n      pop\n      jump\t// out\n        /* \"#utility.yul\":1811:1929   */\n    tag_209:\n        /* \"#utility.yul\":1882:1904   */\n      tag_270\n        /* \"#utility.yul\":1898:1903   */\n      dup2\n        /* \"#utility.yul\":1882:1904   */\n      tag_208\n      jump\t// in\n    tag_270:\n        /* \"#utility.yul\":1875:1880   */\n      dup2\n        /* \"#utility.yul\":1872:1905   */\n      eq\n        /* \"#utility.yul\":1862:1923   */\n      tag_271\n      jumpi\n        /* \"#utility.yul\":1919:1920   */\n      0x00\n        /* \"#utility.yul\":1916:1917   */\n      dup1\n        /* \"#utility.yul\":1909:1921   */\n      revert\n        /* \"#utility.yul\":1862:1923   */\n    tag_271:\n        /* \"#utility.yul\":1811:1929   */\n      pop\n      jump\t// out\n        /* \"#utility.yul\":1935:2070   */\n    tag_210:\n        /* \"#utility.yul\":1979:1984   */\n      0x00\n        /* \"#utility.yul\":2017:2023   */\n      dup2\n        /* \"#utility.yul\":2004:2024   */\n      calldataload\n        /* \"#utility.yul\":1995:2024   */\n      swap1\n      pop\n        /* \"#utility.yul\":2033:2064   */\n      tag_273\n        /* \"#utility.yul\":2058:2063   */\n      dup2\n        /* \"#utility.yul\":2033:2064   */\n      tag_209\n      jump\t// in\n    tag_273:\n        /* \"#utility.yul\":1935:2070   */\n      swap3\n      swap2\n      pop\n      pop\n      jump\t// out\n        /* \"#utility.yul\":2076:2220   */\n    tag_211:\n        /* \"#utility.yul\":2113:2120   */\n      0x00\n        /* \"#utility.yul\":2153:2213   */\n      0xffffffffffffffffffffffffffffffffffffffffffffffffffffffffff\n        /* \"#utility.yul\":2146:2151   */\n      dup3\n        /* \"#utility.yul\":2142:2214   */\n      and\n        /* \"#utility.yul\":2131:2214   */\n      swap1\n      pop\n        /* \"#utility.yul\":2076:2220   */\n      swap2\n      swap1\n      pop\n      jump\t// out\n        /* \"#utility.yul\":2226:2348   */\n    tag_212:\n        /* \"#utility.yul\":2299:2323   */\n      tag_276\n        /* \"#utility.yul\":2317:2322   */\n      dup2\n        /* \"#utility.yul\":2299:2323   */\n      tag_211\n      jump\t// in\n    tag_276:\n        /* \"#utility.yul\":2292:2297   */\n      dup2\n        /* \"#utility.yul\":2289:2324   */\n      eq\n        /* \"#utility.yul\":2279:2342   */\n      tag_277\n      jumpi\n        /* \"#utility.yul\":2338:2339   */\n      0x00\n        /* \"#utility.yul\":2335:2336   */\n      dup1\n        /* \"#utility.yul\":2328:2340   */\n      revert\n        /* \"#utility.yul\":2279:2342   */\n    tag_277:\n        /* \"#utility.yul\":2226:2348   */\n      pop\n      jump\t// out\n        /* \"#utility.yul\":2354:2493   */\n    tag_213:\n        /* \"#utility.yul\":2400:2405   */\n      0x00\n        /* \"#utility.yul\":2438:2444   */\n      dup2\n        /* \"#utility.yul\":2425:2445   */\n      calldataload\n        /* \"#utility.yul\":2416:2445   */\n      swap1\n      pop\n        /* \"#utility.yul\":2454:2487   */\n      tag_279\n        /* \"#utility.yul\":2481:2486   */\n      dup2\n        /* \"#utility.yul\":2454:2487   */\n      tag_212\n      jump\t// in\n    tag_279:\n        /* \"#utility.yul\":2354:2493   */\n      swap3\n      swap2\n      pop\n      pop\n      jump\t// out\n        /* \"#utility.yul\":2499:2621   */\n    tag_214:\n        /* \"#utility.yul\":2572:2596   */\n      tag_281\n        /* \"#utility.yul\":2590:2595   */\n      dup2\n        /* \"#utility.yul\":2572:2596   */\n      tag_198\n      jump\t// in\n    tag_281:\n        /* \"#utility.yul\":2565:2570   */\n      dup2\n        /* \"#utility.yul\":2562:2597   */\n      eq\n        /* \"#utility.yul\":2552:2615   */\n      tag_282\n      jumpi\n        /* \"#utility.yul\":2611:2612   */\n      0x00\n        /* \"#utility.yul\":2608:2609   */\n      dup1\n        /* \"#utility.yul\":2601:2613   */\n      revert\n        /* \"#utility.yul\":2552:2615   */\n    tag_282:\n        /* \"#utility.yul\":2499:2621   */\n      pop\n      jump\t// out\n        /* \"#utility.yul\":2627:2766   */\n    tag_215:\n        /* \"#utility.yul\":2673:2678   */\n      0x00\n        /* \"#utility.yul\":2711:2717   */\n      dup2\n        /* \"#utility.yul\":2698:2718   */\n      calldataload\n        /* \"#utility.yul\":2689:2718   */\n      swap1\n      pop\n        /* \"#utility.yul\":2727:2760   */\n      tag_284\n        /* \"#utility.yul\":2754:2759   */\n      dup2\n        /* \"#utility.yul\":2727:2760   */\n      tag_214\n      jump\t// in\n    tag_284:\n        /* \"#utility.yul\":2627:2766   */\n      swap3\n      swap2\n      pop\n      pop\n      jump\t// out\n        /* \"#utility.yul\":2772:3531   */\n    tag_27:\n        /* \"#utility.yul\":2855:2861   */\n      0x00\n        /* \"#utility.yul\":2863:2869   */\n      dup1\n        /* \"#utility.yul\":2871:2877   */\n      0x00\n        /* \"#utility.yul\":2879:2885   */\n      dup1\n        /* \"#utility.yul\":2928:2931   */\n      0x80\n        /* \"#utility.yul\":2916:2925   */\n      dup6\n        /* \"#utility.yul\":2907:2914   */\n      dup8\n        /* \"#utility.yul\":2903:2926   */\n      sub\n        /* \"#utility.yul\":2899:2932   */\n      slt\n        /* \"#utility.yul\":2896:3016   */\n      iszero\n      tag_286\n      jumpi\n        /* \"#utility.yul\":2935:3014   */\n      tag_287\n      tag_203\n      jump\t// in\n    tag_287:\n        /* \"#utility.yul\":2896:3016   */\n    tag_286:\n        /* \"#utility.yul\":3055:3056   */\n      0x00\n        /* \"#utility.yul\":3080:3132   */\n      tag_288\n        /* \"#utility.yul\":3124:3131   */\n      dup8\n        /* \"#utility.yul\":3115:3121   */\n      dup3\n        /* \"#utility.yul\":3104:3113   */\n      dup9\n        /* \"#utility.yul\":3100:3122   */\n      add\n        /* \"#utility.yul\":3080:3132   */\n      tag_207\n      jump\t// in\n    tag_288:\n        /* \"#utility.yul\":3070:3132   */\n      swap5\n      pop\n        /* \"#utility.yul\":3026:3142   */\n      pop\n        /* \"#utility.yul\":3181:3183   */\n      0x20\n        /* \"#utility.yul\":3207:3258   */\n      tag_289\n        /* \"#utility.yul\":3250:3257   */\n      dup8\n        /* \"#utility.yul\":3241:3247   */\n      dup3\n        /* \"#utility.yul\":3230:3239   */\n      dup9\n        /* \"#utility.yul\":3226:3248   */\n      add\n        /* \"#utility.yul\":3207:3258   */\n      tag_210\n      jump\t// in\n    tag_289:\n        /* \"#utility.yul\":3197:3258   */\n      swap4\n      pop\n        /* \"#utility.yul\":3152:3268   */\n      pop\n        /* \"#utility.yul\":3307:3309   */\n      0x40\n        /* \"#utility.yul\":3333:3386   */\n      tag_290\n        /* \"#utility.yul\":3378:3385   */\n      dup8\n        /* \"#utility.yul\":3369:3375   */\n      dup3\n        /* \"#utility.yul\":3358:3367   */\n      dup9\n        /* \"#utility.yul\":3354:3376   */\n      add\n        /* \"#utility.yul\":3333:3386   */\n      tag_213\n      jump\t// in\n    tag_290:\n        /* \"#utility.yul\":3323:3386   */\n      swap3\n      pop\n        /* \"#utility.yul\":3278:3396   */\n      pop\n        /* \"#utility.yul\":3435:3437   */\n      0x60\n        /* \"#utility.yul\":3461:3514   */\n      tag_291\n        /* \"#utility.yul\":3506:3513   */\n      dup8\n        /* \"#utility.yul\":3497:3503   */\n      dup3\n        /* \"#utility.yul\":3486:3495   */\n      dup9\n        /* \"#utility.yul\":3482:3504   */\n      add\n        /* \"#utility.yul\":3461:3514   */\n      tag_215\n      jump\t// in\n    tag_291:\n        /* \"#utility.yul\":3451:3514   */\n      swap2\n      pop\n        /* \"#utility.yul\":3406:3524   */\n      pop\n        /* \"#utility.yul\":2772:3531   */\n      swap3\n      swap6\n      swap2\n      swap5\n      pop\n      swap3\n      pop\n      jump\t// out\n        /* \"#utility.yul\":3537:3706   */\n    tag_216:\n        /* \"#utility.yul\":3621:3632   */\n      0x00\n        /* \"#utility.yul\":3655:3661   */\n      dup3\n        /* \"#utility.yul\":3650:3653   */\n      dup3\n        /* \"#utility.yul\":3643:3662   */\n      mstore\n        /* \"#utility.yul\":3695:3699   */\n      0x20\n        /* \"#utility.yul\":3690:3693   */\n      dup3\n        /* \"#utility.yul\":3686:3700   */\n      add\n        /* \"#utility.yul\":3671:3700   */\n      swap1\n      pop\n        /* \"#utility.yul\":3537:3706   */\n      swap3\n      swap2\n      pop\n      pop\n      jump\t// out\n        /* \"#utility.yul\":3712:3936   */\n    tag_217:\n        /* \"#utility.yul\":3852:3886   */\n      0x596f7520646f6e2774206861766520756e64726177206c6f7474657279207469\n        /* \"#utility.yul\":3848:3849   */\n      0x00\n        /* \"#utility.yul\":3840:3846   */\n      dup3\n        /* \"#utility.yul\":3836:3850   */\n      add\n        /* \"#utility.yul\":3829:3887   */\n      mstore\n        /* \"#utility.yul\":3921:3928   */\n      0x636b657473000000000000000000000000000000000000000000000000000000\n        /* \"#utility.yul\":3916:3918   */\n      0x20\n        /* \"#utility.yul\":3908:3914   */\n      dup3\n        /* \"#utility.yul\":3904:3919   */\n      add\n        /* \"#utility.yul\":3897:3929   */\n      mstore\n        /* \"#utility.yul\":3712:3936   */\n      pop\n      jump\t// out\n        /* \"#utility.yul\":3942:4308   */\n    tag_218:\n        /* \"#utility.yul\":4084:4087   */\n      0x00\n        /* \"#utility.yul\":4105:4172   */\n      tag_295\n        /* \"#utility.yul\":4169:4171   */\n      0x25\n        /* \"#utility.yul\":4164:4167   */\n      dup4\n        /* \"#utility.yul\":4105:4172   */\n      tag_216\n      jump\t// in\n    tag_295:\n        /* \"#utility.yul\":4098:4172   */\n      swap2\n      pop\n        /* \"#utility.yul\":4181:4274   */\n      tag_296\n        /* \"#utility.yul\":4270:4273   */\n      dup3\n        /* \"#utility.yul\":4181:4274   */\n      tag_217\n      jump\t// in\n    tag_296:\n        /* \"#utility.yul\":4299:4301   */\n      0x40\n        /* \"#utility.yul\":4294:4297   */\n      dup3\n        /* \"#utility.yul\":4290:4302   */\n      add\n        /* \"#utility.yul\":4283:4302   */\n      swap1\n      pop\n        /* \"#utility.yul\":3942:4308   */\n      swap2\n      swap1\n      pop\n      jump\t// out\n        /* \"#utility.yul\":4314:4733   */\n    tag_36:\n        /* \"#utility.yul\":4480:4484   */\n      0x00\n        /* \"#utility.yul\":4518:4520   */\n      0x20\n        /* \"#utility.yul\":4507:4516   */\n      dup3\n        /* \"#utility.yul\":4503:4521   */\n      add\n        /* \"#utility.yul\":4495:4521   */\n      swap1\n      pop\n        /* \"#utility.yul\":4567:4576   */\n      dup2\n        /* \"#utility.yul\":4561:4565   */\n      dup2\n        /* \"#utility.yul\":4557:4577   */\n      sub\n        /* \"#utility.yul\":4553:4554   */\n      0x00\n        /* \"#utility.yul\":4542:4551   */\n      dup4\n        /* \"#utility.yul\":4538:4555   */\n      add\n        /* \"#utility.yul\":4531:4578   */\n      mstore\n        /* \"#utility.yul\":4595:4726   */\n      tag_298\n        /* \"#utility.yul\":4721:4725   */\n      dup2\n        /* \"#utility.yul\":4595:4726   */\n      tag_218\n      jump\t// in\n    tag_298:\n        /* \"#utility.yul\":4587:4726   */\n      swap1\n      pop\n        /* \"#utility.yul\":4314:4733   */\n      swap2\n      swap1\n      pop\n      jump\t// out\n        /* \"#utility.yul\":4739:4919   */\n    tag_219:\n        /* \"#utility.yul\":4787:4864   */\n      0x4e487b7100000000000000000000000000000000000000000000000000000000\n        /* \"#utility.yul\":4784:4785   */\n      0x00\n        /* \"#utility.yul\":4777:4865   */\n      mstore\n        /* \"#utility.yul\":4884:4888   */\n      0x11\n        /* \"#utility.yul\":4881:4882   */\n      0x04\n        /* \"#utility.yul\":4874:4889   */\n      mstore\n        /* \"#utility.yul\":4908:4912   */\n      0x24\n        /* \"#utility.yul\":4905:4906   */\n      0x00\n        /* \"#utility.yul\":4898:4913   */\n      revert\n        /* \"#utility.yul\":4925:5119   */\n    tag_38:\n        /* \"#utility.yul\":4965:4969   */\n      0x00\n        /* \"#utility.yul\":4985:5005   */\n      tag_301\n        /* \"#utility.yul\":5003:5004   */\n      dup3\n        /* \"#utility.yul\":4985:5005   */\n      tag_200\n      jump\t// in\n    tag_301:\n        /* \"#utility.yul\":4980:5005   */\n      swap2\n      pop\n        /* \"#utility.yul\":5019:5039   */\n      tag_302\n        /* \"#utility.yul\":5037:5038   */\n      dup4\n        /* \"#utility.yul\":5019:5039   */\n      tag_200\n      jump\t// in\n    tag_302:\n        /* \"#utility.yul\":5014:5039   */\n      swap3\n      pop\n        /* \"#utility.yul\":5063:5064   */\n      dup3\n        /* \"#utility.yul\":5060:5061   */\n      dup3\n        /* \"#utility.yul\":5056:5065   */\n      sub\n        /* \"#utility.yul\":5048:5065   */\n      swap1\n      pop\n        /* \"#utility.yul\":5087:5088   */\n      dup2\n        /* \"#utility.yul\":5081:5085   */\n      dup2\n        /* \"#utility.yul\":5078:5089   */\n      gt\n        /* \"#utility.yul\":5075:5112   */\n      iszero\n      tag_303\n      jumpi\n        /* \"#utility.yul\":5092:5110   */\n      tag_304\n      tag_219\n      jump\t// in\n    tag_304:\n        /* \"#utility.yul\":5075:5112   */\n    tag_303:\n        /* \"#utility.yul\":4925:5119   */\n      swap3\n      swap2\n      pop\n      pop\n      jump\t// out\n        /* \"#utility.yul\":5125:5305   */\n    tag_41:\n        /* \"#utility.yul\":5173:5250   */\n      0x4e487b7100000000000000000000000000000000000000000000000000000000\n        /* \"#utility.yul\":5170:5171   */\n      0x00\n        /* \"#utility.yul\":5163:5251   */\n      mstore\n        /* \"#utility.yul\":5270:5274   */\n      0x32\n        /* \"#utility.yul\":5267:5268   */\n      0x04\n        /* \"#utility.yul\":5260:5275   */\n      mstore\n        /* \"#utility.yul\":5294:5298   */\n      0x24\n        /* \"#utility.yul\":5291:5292   */\n      0x00\n        /* \"#utility.yul\":5284:5299   */\n      revert\n        /* \"#utility.yul\":5311:5474   */\n    tag_220:\n        /* \"#utility.yul\":5451:5466   */\n      0x49742773206e6f742074696d6500000000000000000000000000000000000000\n        /* \"#utility.yul\":5447:5448   */\n      0x00\n        /* \"#utility.yul\":5439:5445   */\n      dup3\n        /* \"#utility.yul\":5435:5449   */\n      add\n        /* \"#utility.yul\":5428:5467   */\n      mstore\n        /* \"#utility.yul\":5311:5474   */\n      pop\n      jump\t// out\n        /* \"#utility.yul\":5480:5846   */\n    tag_221:\n        /* \"#utility.yul\":5622:5625   */\n      0x00\n        /* \"#utility.yul\":5643:5710   */\n      tag_308\n        /* \"#utility.yul\":5707:5709   */\n      0x0d\n        /* \"#utility.yul\":5702:5705   */\n      dup4\n        /* \"#utility.yul\":5643:5710   */\n      tag_216\n      jump\t// in\n    tag_308:\n        /* \"#utility.yul\":5636:5710   */\n      swap2\n      pop\n        /* \"#utility.yul\":5719:5812   */\n      tag_309\n        /* \"#utility.yul\":5808:5811   */\n      dup3\n        /* \"#utility.yul\":5719:5812   */\n      tag_220\n      jump\t// in\n    tag_309:\n        /* \"#utility.yul\":5837:5839   */\n      0x20\n        /* \"#utility.yul\":5832:5835   */\n      dup3\n        /* \"#utility.yul\":5828:5840   */\n      add\n        /* \"#utility.yul\":5821:5840   */\n      swap1\n      pop\n        /* \"#utility.yul\":5480:5846   */\n      swap2\n      swap1\n      pop\n      jump\t// out\n        /* \"#utility.yul\":5852:6271   */\n    tag_45:\n        /* \"#utility.yul\":6018:6022   */\n      0x00\n        /* \"#utility.yul\":6056:6058   */\n      0x20\n        /* \"#utility.yul\":6045:6054   */\n      dup3\n        /* \"#utility.yul\":6041:6059   */\n      add\n        /* \"#utility.yul\":6033:6059   */\n      swap1\n      pop\n        /* \"#utility.yul\":6105:6114   */\n      dup2\n        /* \"#utility.yul\":6099:6103   */\n      dup2\n        /* \"#utility.yul\":6095:6115   */\n      sub\n        /* \"#utility.yul\":6091:6092   */\n      0x00\n        /* \"#utility.yul\":6080:6089   */\n      dup4\n        /* \"#utility.yul\":6076:6093   */\n      add\n        /* \"#utility.yul\":6069:6116   */\n      mstore\n        /* \"#utility.yul\":6133:6264   */\n      tag_311\n        /* \"#utility.yul\":6259:6263   */\n      dup2\n        /* \"#utility.yul\":6133:6264   */\n      tag_221\n      jump\t// in\n    tag_311:\n        /* \"#utility.yul\":6125:6264   */\n      swap1\n      pop\n        /* \"#utility.yul\":5852:6271   */\n      swap2\n      swap1\n      pop\n      jump\t// out\n        /* \"#utility.yul\":6277:6354   */\n    tag_222:\n        /* \"#utility.yul\":6314:6321   */\n      0x00\n        /* \"#utility.yul\":6343:6348   */\n      dup2\n        /* \"#utility.yul\":6332:6348   */\n      swap1\n      pop\n        /* \"#utility.yul\":6277:6354   */\n      swap2\n      swap1\n      pop\n      jump\t// out\n        /* \"#utility.yul\":6360:6439   */\n    tag_223:\n        /* \"#utility.yul\":6399:6406   */\n      0x00\n        /* \"#utility.yul\":6428:6433   */\n      dup2\n        /* \"#utility.yul\":6417:6433   */\n      swap1\n      pop\n        /* \"#utility.yul\":6360:6439   */\n      swap2\n      swap1\n      pop\n      jump\t// out\n        /* \"#utility.yul\":6445:6602   */\n    tag_224:\n        /* \"#utility.yul\":6550:6595   */\n      tag_315\n        /* \"#utility.yul\":6570:6594   */\n      tag_316\n        /* \"#utility.yul\":6588:6593   */\n      dup3\n        /* \"#utility.yul\":6570:6594   */\n      tag_222\n      jump\t// in\n    tag_316:\n        /* \"#utility.yul\":6550:6595   */\n      tag_223\n      jump\t// in\n    tag_315:\n        /* \"#utility.yul\":6545:6548   */\n      dup3\n        /* \"#utility.yul\":6538:6596   */\n      mstore\n        /* \"#utility.yul\":6445:6602   */\n      pop\n      pop\n      jump\t// out\n        /* \"#utility.yul\":6608:7005   */\n    tag_63:\n        /* \"#utility.yul\":6748:6751   */\n      0x00\n        /* \"#utility.yul\":6763:6838   */\n      tag_318\n        /* \"#utility.yul\":6834:6837   */\n      dup3\n        /* \"#utility.yul\":6825:6831   */\n      dup6\n        /* \"#utility.yul\":6763:6838   */\n      tag_224\n      jump\t// in\n    tag_318:\n        /* \"#utility.yul\":6863:6865   */\n      0x20\n        /* \"#utility.yul\":6858:6861   */\n      dup3\n        /* \"#utility.yul\":6854:6866   */\n      add\n        /* \"#utility.yul\":6847:6866   */\n      swap2\n      pop\n        /* \"#utility.yul\":6876:6951   */\n      tag_319\n        /* \"#utility.yul\":6947:6950   */\n      dup3\n        /* \"#utility.yul\":6938:6944   */\n      dup5\n        /* \"#utility.yul\":6876:6951   */\n      tag_224\n      jump\t// in\n    tag_319:\n        /* \"#utility.yul\":6976:6978   */\n      0x20\n        /* \"#utility.yul\":6971:6974   */\n      dup3\n        /* \"#utility.yul\":6967:6979   */\n      add\n        /* \"#utility.yul\":6960:6979   */\n      swap2\n      pop\n        /* \"#utility.yul\":6996:6999   */\n      dup2\n        /* \"#utility.yul\":6989:6999   */\n      swap1\n      pop\n        /* \"#utility.yul\":6608:7005   */\n      swap4\n      swap3\n      pop\n      pop\n      pop\n      jump\t// out\n        /* \"#utility.yul\":7011:7421   */\n    tag_73:\n        /* \"#utility.yul\":7051:7058   */\n      0x00\n        /* \"#utility.yul\":7074:7094   */\n      tag_321\n        /* \"#utility.yul\":7092:7093   */\n      dup3\n        /* \"#utility.yul\":7074:7094   */\n      tag_200\n      jump\t// in\n    tag_321:\n        /* \"#utility.yul\":7069:7094   */\n      swap2\n      pop\n        /* \"#utility.yul\":7108:7128   */\n      tag_322\n        /* \"#utility.yul\":7126:7127   */\n      dup4\n        /* \"#utility.yul\":7108:7128   */\n      tag_200\n      jump\t// in\n    tag_322:\n        /* \"#utility.yul\":7103:7128   */\n      swap3\n      pop\n        /* \"#utility.yul\":7163:7164   */\n      dup3\n        /* \"#utility.yul\":7160:7161   */\n      dup3\n        /* \"#utility.yul\":7156:7165   */\n      mul\n        /* \"#utility.yul\":7185:7215   */\n      tag_323\n        /* \"#utility.yul\":7203:7214   */\n      dup2\n        /* \"#utility.yul\":7185:7215   */\n      tag_200\n      jump\t// in\n    tag_323:\n        /* \"#utility.yul\":7174:7215   */\n      swap2\n      pop\n        /* \"#utility.yul\":7364:7365   */\n      dup3\n        /* \"#utility.yul\":7355:7362   */\n      dup3\n        /* \"#utility.yul\":7351:7366   */\n      div\n        /* \"#utility.yul\":7348:7349   */\n      dup5\n        /* \"#utility.yul\":7345:7367   */\n      eq\n        /* \"#utility.yul\":7325:7326   */\n      dup4\n        /* \"#utility.yul\":7318:7327   */\n      iszero\n        /* \"#utility.yul\":7298:7381   */\n      or\n        /* \"#utility.yul\":7275:7414   */\n      tag_324\n      jumpi\n        /* \"#utility.yul\":7394:7412   */\n      tag_325\n      tag_219\n      jump\t// in\n    tag_325:\n        /* \"#utility.yul\":7275:7414   */\n    tag_324:\n        /* \"#utility.yul\":7059:7421   */\n      pop\n        /* \"#utility.yul\":7011:7421   */\n      swap3\n      swap2\n      pop\n      pop\n      jump\t// out\n        /* \"#utility.yul\":7427:7618   */\n    tag_76:\n        /* \"#utility.yul\":7467:7470   */\n      0x00\n        /* \"#utility.yul\":7486:7506   */\n      tag_327\n        /* \"#utility.yul\":7504:7505   */\n      dup3\n        /* \"#utility.yul\":7486:7506   */\n      tag_200\n      jump\t// in\n    tag_327:\n        /* \"#utility.yul\":7481:7506   */\n      swap2\n      pop\n        /* \"#utility.yul\":7520:7540   */\n      tag_328\n        /* \"#utility.yul\":7538:7539   */\n      dup4\n        /* \"#utility.yul\":7520:7540   */\n      tag_200\n      jump\t// in\n    tag_328:\n        /* \"#utility.yul\":7515:7540   */\n      swap3\n      pop\n        /* \"#utility.yul\":7563:7564   */\n      dup3\n        /* \"#utility.yul\":7560:7561   */\n      dup3\n        /* \"#utility.yul\":7556:7565   */\n      add\n        /* \"#utility.yul\":7549:7565   */\n      swap1\n      pop\n        /* \"#utility.yul\":7584:7587   */\n      dup1\n        /* \"#utility.yul\":7581:7582   */\n      dup3\n        /* \"#utility.yul\":7578:7588   */\n      gt\n        /* \"#utility.yul\":7575:7611   */\n      iszero\n      tag_329\n      jumpi\n        /* \"#utility.yul\":7591:7609   */\n      tag_330\n      tag_219\n      jump\t// in\n    tag_330:\n        /* \"#utility.yul\":7575:7611   */\n    tag_329:\n        /* \"#utility.yul\":7427:7618   */\n      swap3\n      swap2\n      pop\n      pop\n      jump\t// out\n        /* \"#utility.yul\":7624:7794   */\n    tag_225:\n        /* \"#utility.yul\":7764:7786   */\n      0x427579206174206c65617374206f6e6520656767000000000000000000000000\n        /* \"#utility.yul\":7760:7761   */\n      0x00\n        /* \"#utility.yul\":7752:7758   */\n      dup3\n        /* \"#utility.yul\":7748:7762   */\n      add\n        /* \"#utility.yul\":7741:7787   */\n      mstore\n        /* \"#utility.yul\":7624:7794   */\n      pop\n      jump\t// out\n        /* \"#utility.yul\":7800:8166   */\n    tag_226:\n        /* \"#utility.yul\":7942:7945   */\n      0x00\n        /* \"#utility.yul\":7963:8030   */\n      tag_333\n        /* \"#utility.yul\":8027:8029   */\n      0x14\n        /* \"#utility.yul\":8022:8025   */\n      dup4\n        /* \"#utility.yul\":7963:8030   */\n      tag_216\n      jump\t// in\n    tag_333:\n        /* \"#utility.yul\":7956:8030   */\n      swap2\n      pop\n        /* \"#utility.yul\":8039:8132   */\n      tag_334\n        /* \"#utility.yul\":8128:8131   */\n      dup3\n        /* \"#utility.yul\":8039:8132   */\n      tag_225\n      jump\t// in\n    tag_334:\n        /* \"#utility.yul\":8157:8159   */\n      0x20\n        /* \"#utility.yul\":8152:8155   */\n      dup3\n        /* \"#utility.yul\":8148:8160   */\n      add\n        /* \"#utility.yul\":8141:8160   */\n      swap1\n      pop\n        /* \"#utility.yul\":7800:8166   */\n      swap2\n      swap1\n      pop\n      jump\t// out\n        /* \"#utility.yul\":8172:8591   */\n    tag_108:\n        /* \"#utility.yul\":8338:8342   */\n      0x00\n        /* \"#utility.yul\":8376:8378   */\n      0x20\n        /* \"#utility.yul\":8365:8374   */\n      dup3\n        /* \"#utility.yul\":8361:8379   */\n      add\n        /* \"#utility.yul\":8353:8379   */\n      swap1\n      pop\n        /* \"#utility.yul\":8425:8434   */\n      dup2\n        /* \"#utility.yul\":8419:8423   */\n      dup2\n        /* \"#utility.yul\":8415:8435   */\n      sub\n        /* \"#utility.yul\":8411:8412   */\n      0x00\n        /* \"#utility.yul\":8400:8409   */\n      dup4\n        /* \"#utility.yul\":8396:8413   */\n      add\n        /* \"#utility.yul\":8389:8436   */\n      mstore\n        /* \"#utility.yul\":8453:8584   */\n      tag_336\n        /* \"#utility.yul\":8579:8583   */\n      dup2\n        /* \"#utility.yul\":8453:8584   */\n      tag_226\n      jump\t// in\n    tag_336:\n        /* \"#utility.yul\":8445:8584   */\n      swap1\n      pop\n        /* \"#utility.yul\":8172:8591   */\n      swap2\n      swap1\n      pop\n      jump\t// out\n        /* \"#utility.yul\":8597:8774   */\n    tag_227:\n        /* \"#utility.yul\":8737:8766   */\n      0x4d756c7469706c6573206265747765656e203120616e64203130300000000000\n        /* \"#utility.yul\":8733:8734   */\n      0x00\n        /* \"#utility.yul\":8725:8731   */\n      dup3\n        /* \"#utility.yul\":8721:8735   */\n      add\n        /* \"#utility.yul\":8714:8767   */\n      mstore\n        /* \"#utility.yul\":8597:8774   */\n      pop\n      jump\t// out\n        /* \"#utility.yul\":8780:9146   */\n    tag_228:\n        /* \"#utility.yul\":8922:8925   */\n      0x00\n        /* \"#utility.yul\":8943:9010   */\n      tag_339\n        /* \"#utility.yul\":9007:9009   */\n      0x1b\n        /* \"#utility.yul\":9002:9005   */\n      dup4\n        /* \"#utility.yul\":8943:9010   */\n      tag_216\n      jump\t// in\n    tag_339:\n        /* \"#utility.yul\":8936:9010   */\n      swap2\n      pop\n        /* \"#utility.yul\":9019:9112   */\n      tag_340\n        /* \"#utility.yul\":9108:9111   */\n      dup3\n        /* \"#utility.yul\":9019:9112   */\n      tag_227\n      jump\t// in\n    tag_340:\n        /* \"#utility.yul\":9137:9139   */\n      0x20\n        /* \"#utility.yul\":9132:9135   */\n      dup3\n        /* \"#utility.yul\":9128:9140   */\n      add\n        /* \"#utility.yul\":9121:9140   */\n      swap1\n      pop\n        /* \"#utility.yul\":8780:9146   */\n      swap2\n      swap1\n      pop\n      jump\t// out\n        /* \"#utility.yul\":9152:9571   */\n    tag_112:\n        /* \"#utility.yul\":9318:9322   */\n      0x00\n        /* \"#utility.yul\":9356:9358   */\n      0x20\n        /* \"#utility.yul\":9345:9354   */\n      dup3\n        /* \"#utility.yul\":9341:9359   */\n      add\n        /* \"#utility.yul\":9333:9359   */\n      swap1\n      pop\n        /* \"#utility.yul\":9405:9414   */\n      dup2\n        /* \"#utility.yul\":9399:9403   */\n      dup2\n        /* \"#utility.yul\":9395:9415   */\n      sub\n        /* \"#utility.yul\":9391:9392   */\n      0x00\n        /* \"#utility.yul\":9380:9389   */\n      dup4\n        /* \"#utility.yul\":9376:9393   */\n      add\n        /* \"#utility.yul\":9369:9416   */\n      mstore\n        /* \"#utility.yul\":9433:9564   */\n      tag_342\n        /* \"#utility.yul\":9559:9563   */\n      dup2\n        /* \"#utility.yul\":9433:9564   */\n      tag_228\n      jump\t// in\n    tag_342:\n        /* \"#utility.yul\":9425:9564   */\n      swap1\n      pop\n        /* \"#utility.yul\":9152:9571   */\n      swap2\n      swap1\n      pop\n      jump\t// out\n        /* \"#utility.yul\":9577:9759   */\n    tag_229:\n        /* \"#utility.yul\":9717:9751   */\n      0x4e756d626572206f662065676773206265747765656e203120616e6420313030\n        /* \"#utility.yul\":9713:9714   */\n      0x00\n        /* \"#utility.yul\":9705:9711   */\n      dup3\n        /* \"#utility.yul\":9701:9715   */\n      add\n        /* \"#utility.yul\":9694:9752   */\n      mstore\n        /* \"#utility.yul\":9577:9759   */\n      pop\n      jump\t// out\n        /* \"#utility.yul\":9765:10131   */\n    tag_230:\n        /* \"#utility.yul\":9907:9910   */\n      0x00\n        /* \"#utility.yul\":9928:9995   */\n      tag_345\n        /* \"#utility.yul\":9992:9994   */\n      0x20\n        /* \"#utility.yul\":9987:9990   */\n      dup4\n        /* \"#utility.yul\":9928:9995   */\n      tag_216\n      jump\t// in\n    tag_345:\n        /* \"#utility.yul\":9921:9995   */\n      swap2\n      pop\n        /* \"#utility.yul\":10004:10097   */\n      tag_346\n        /* \"#utility.yul\":10093:10096   */\n      dup3\n        /* \"#utility.yul\":10004:10097   */\n      tag_229\n      jump\t// in\n    tag_346:\n        /* \"#utility.yul\":10122:10124   */\n      0x20\n        /* \"#utility.yul\":10117:10120   */\n      dup3\n        /* \"#utility.yul\":10113:10125   */\n      add\n        /* \"#utility.yul\":10106:10125   */\n      swap1\n      pop\n        /* \"#utility.yul\":9765:10131   */\n      swap2\n      swap1\n      pop\n      jump\t// out\n        /* \"#utility.yul\":10137:10556   */\n    tag_116:\n        /* \"#utility.yul\":10303:10307   */\n      0x00\n        /* \"#utility.yul\":10341:10343   */\n      0x20\n        /* \"#utility.yul\":10330:10339   */\n      dup3\n        /* \"#utility.yul\":10326:10344   */\n      add\n        /* \"#utility.yul\":10318:10344   */\n      swap1\n      pop\n        /* \"#utility.yul\":10390:10399   */\n      dup2\n        /* \"#utility.yul\":10384:10388   */\n      dup2\n        /* \"#utility.yul\":10380:10400   */\n      sub\n        /* \"#utility.yul\":10376:10377   */\n      0x00\n        /* \"#utility.yul\":10365:10374   */\n      dup4\n        /* \"#utility.yul\":10361:10378   */\n      add\n        /* \"#utility.yul\":10354:10401   */\n      mstore\n        /* \"#utility.yul\":10418:10549   */\n      tag_348\n        /* \"#utility.yul\":10544:10548   */\n      dup2\n        /* \"#utility.yul\":10418:10549   */\n      tag_230\n      jump\t// in\n    tag_348:\n        /* \"#utility.yul\":10410:10549   */\n      swap1\n      pop\n        /* \"#utility.yul\":10137:10556   */\n      swap2\n      swap1\n      pop\n      jump\t// out\n        /* \"#utility.yul\":10562:10837   */\n    tag_119:\n        /* \"#utility.yul\":10601:10608   */\n      0x00\n        /* \"#utility.yul\":10624:10643   */\n      tag_350\n        /* \"#utility.yul\":10641:10642   */\n      dup3\n        /* \"#utility.yul\":10624:10643   */\n      tag_205\n      jump\t// in\n    tag_350:\n        /* \"#utility.yul\":10619:10643   */\n      swap2\n      pop\n        /* \"#utility.yul\":10657:10676   */\n      tag_351\n        /* \"#utility.yul\":10674:10675   */\n      dup4\n        /* \"#utility.yul\":10657:10676   */\n      tag_205\n      jump\t// in\n    tag_351:\n        /* \"#utility.yul\":10652:10676   */\n      swap3\n      pop\n        /* \"#utility.yul\":10711:10712   */\n      dup3\n        /* \"#utility.yul\":10708:10709   */\n      dup3\n        /* \"#utility.yul\":10704:10713   */\n      mul\n        /* \"#utility.yul\":10733:10762   */\n      tag_352\n        /* \"#utility.yul\":10750:10761   */\n      dup2\n        /* \"#utility.yul\":10733:10762   */\n      tag_205\n      jump\t// in\n    tag_352:\n        /* \"#utility.yul\":10722:10762   */\n      swap2\n      pop\n        /* \"#utility.yul\":10794:10805   */\n      dup1\n        /* \"#utility.yul\":10785:10792   */\n      dup3\n        /* \"#utility.yul\":10782:10806   */\n      eq\n        /* \"#utility.yul\":10772:10830   */\n      tag_353\n      jumpi\n        /* \"#utility.yul\":10810:10828   */\n      tag_354\n      tag_219\n      jump\t// in\n    tag_354:\n        /* \"#utility.yul\":10772:10830   */\n    tag_353:\n        /* \"#utility.yul\":10609:10837   */\n      pop\n        /* \"#utility.yul\":10562:10837   */\n      swap3\n      swap2\n      pop\n      pop\n      jump\t// out\n        /* \"#utility.yul\":10843:11005   */\n    tag_231:\n        /* \"#utility.yul\":10983:10997   */\n      0x496e76616c696420646174610000000000000000000000000000000000000000\n        /* \"#utility.yul\":10979:10980   */\n      0x00\n        /* \"#utility.yul\":10971:10977   */\n      dup3\n        /* \"#utility.yul\":10967:10981   */\n      add\n        /* \"#utility.yul\":10960:10998   */\n      mstore\n        /* \"#utility.yul\":10843:11005   */\n      pop\n      jump\t// out\n        /* \"#utility.yul\":11011:11377   */\n    tag_232:\n        /* \"#utility.yul\":11153:11156   */\n      0x00\n        /* \"#utility.yul\":11174:11241   */\n      tag_357\n        /* \"#utility.yul\":11238:11240   */\n      0x0c\n        /* \"#utility.yul\":11233:11236   */\n      dup4\n        /* \"#utility.yul\":11174:11241   */\n      tag_216\n      jump\t// in\n    tag_357:\n        /* \"#utility.yul\":11167:11241   */\n      swap2\n      pop\n        /* \"#utility.yul\":11250:11343   */\n      tag_358\n        /* \"#utility.yul\":11339:11342   */\n      dup3\n        /* \"#utility.yul\":11250:11343   */\n      tag_231\n      jump\t// in\n    tag_358:\n        /* \"#utility.yul\":11368:11370   */\n      0x20\n        /* \"#utility.yul\":11363:11366   */\n      dup3\n        /* \"#utility.yul\":11359:11371   */\n      add\n        /* \"#utility.yul\":11352:11371   */\n      swap1\n      pop\n        /* \"#utility.yul\":11011:11377   */\n      swap2\n      swap1\n      pop\n      jump\t// out\n        /* \"#utility.yul\":11383:11802   */\n    tag_122:\n        /* \"#utility.yul\":11549:11553   */\n      0x00\n        /* \"#utility.yul\":11587:11589   */\n      0x20\n        /* \"#utility.yul\":11576:11585   */\n      dup3\n        /* \"#utility.yul\":11572:11590   */\n      add\n        /* \"#utility.yul\":11564:11590   */\n      swap1\n      pop\n        /* \"#utility.yul\":11636:11645   */\n      dup2\n        /* \"#utility.yul\":11630:11634   */\n      dup2\n        /* \"#utility.yul\":11626:11646   */\n      sub\n        /* \"#utility.yul\":11622:11623   */\n      0x00\n        /* \"#utility.yul\":11611:11620   */\n      dup4\n        /* \"#utility.yul\":11607:11624   */\n      add\n        /* \"#utility.yul\":11600:11647   */\n      mstore\n        /* \"#utility.yul\":11664:11795   */\n      tag_360\n        /* \"#utility.yul\":11790:11794   */\n      dup2\n        /* \"#utility.yul\":11664:11795   */\n      tag_232\n      jump\t// in\n    tag_360:\n        /* \"#utility.yul\":11656:11795   */\n      swap1\n      pop\n        /* \"#utility.yul\":11383:11802   */\n      swap2\n      swap1\n      pop\n      jump\t// out\n        /* \"#utility.yul\":11808:12035   */\n    tag_127:\n        /* \"#utility.yul\":11847:11850   */\n      0x00\n        /* \"#utility.yul\":11870:11894   */\n      tag_362\n        /* \"#utility.yul\":11888:11893   */\n      dup3\n        /* \"#utility.yul\":11870:11894   */\n      tag_211\n      jump\t// in\n    tag_362:\n        /* \"#utility.yul\":11861:11894   */\n      swap2\n      pop\n        /* \"#utility.yul\":11916:11976   */\n      0xffffffffffffffffffffffffffffffffffffffffffffffffffffffffff\n        /* \"#utility.yul\":11909:11914   */\n      dup3\n        /* \"#utility.yul\":11906:11977   */\n      sub\n        /* \"#utility.yul\":11903:12000   */\n      tag_363\n      jumpi\n        /* \"#utility.yul\":11980:11998   */\n      tag_364\n      tag_219\n      jump\t// in\n    tag_364:\n        /* \"#utility.yul\":11903:12000   */\n    tag_363:\n        /* \"#utility.yul\":12027:12028   */\n      0x01\n        /* \"#utility.yul\":12020:12025   */\n      dup3\n        /* \"#utility.yul\":12016:12029   */\n      add\n        /* \"#utility.yul\":12009:12029   */\n      swap1\n      pop\n        /* \"#utility.yul\":11808:12035   */\n      swap2\n      swap1\n      pop\n      jump\t// out\n        /* \"#utility.yul\":12041:12120   */\n    tag_233:\n        /* \"#utility.yul\":12080:12087   */\n      0x00\n        /* \"#utility.yul\":12109:12114   */\n      dup2\n        /* \"#utility.yul\":12098:12114   */\n      swap1\n      pop\n        /* \"#utility.yul\":12041:12120   */\n      swap2\n      swap1\n      pop\n      jump\t// out\n        /* \"#utility.yul\":12126:12283   */\n    tag_234:\n        /* \"#utility.yul\":12231:12276   */\n      tag_367\n        /* \"#utility.yul\":12251:12275   */\n      tag_368\n        /* \"#utility.yul\":12269:12274   */\n      dup3\n        /* \"#utility.yul\":12251:12275   */\n      tag_200\n      jump\t// in\n    tag_368:\n        /* \"#utility.yul\":12231:12276   */\n      tag_233\n      jump\t// in\n    tag_367:\n        /* \"#utility.yul\":12226:12229   */\n      dup3\n        /* \"#utility.yul\":12219:12277   */\n      mstore\n        /* \"#utility.yul\":12126:12283   */\n      pop\n      pop\n      jump\t// out\n        /* \"#utility.yul\":12289:12393   */\n    tag_235:\n        /* \"#utility.yul\":12334:12341   */\n      0x00\n        /* \"#utility.yul\":12363:12387   */\n      tag_370\n        /* \"#utility.yul\":12381:12386   */\n      dup3\n        /* \"#utility.yul\":12363:12387   */\n      tag_197\n      jump\t// in\n    tag_370:\n        /* \"#utility.yul\":12352:12387   */\n      swap1\n      pop\n        /* \"#utility.yul\":12289:12393   */\n      swap2\n      swap1\n      pop\n      jump\t// out\n        /* \"#utility.yul\":12399:12493   */\n    tag_236:\n        /* \"#utility.yul\":12432:12440   */\n      0x00\n        /* \"#utility.yul\":12480:12485   */\n      dup2\n        /* \"#utility.yul\":12476:12478   */\n      0x60\n        /* \"#utility.yul\":12472:12486   */\n      shl\n        /* \"#utility.yul\":12451:12486   */\n      swap1\n      pop\n        /* \"#utility.yul\":12399:12493   */\n      swap2\n      swap1\n      pop\n      jump\t// out\n        /* \"#utility.yul\":12499:12593   */\n    tag_237:\n        /* \"#utility.yul\":12538:12545   */\n      0x00\n        /* \"#utility.yul\":12567:12587   */\n      tag_373\n        /* \"#utility.yul\":12581:12586   */\n      dup3\n        /* \"#utility.yul\":12567:12587   */\n      tag_236\n      jump\t// in\n    tag_373:\n        /* \"#utility.yul\":12556:12587   */\n      swap1\n      pop\n        /* \"#utility.yul\":12499:12593   */\n      swap2\n      swap1\n      pop\n      jump\t// out\n        /* \"#utility.yul\":12599:12707   */\n    tag_238:\n        /* \"#utility.yul\":12646:12653   */\n      0x00\n        /* \"#utility.yul\":12675:12701   */\n      tag_375\n        /* \"#utility.yul\":12695:12700   */\n      dup3\n        /* \"#utility.yul\":12675:12701   */\n      tag_237\n      jump\t// in\n    tag_375:\n        /* \"#utility.yul\":12664:12701   */\n      swap1\n      pop\n        /* \"#utility.yul\":12599:12707   */\n      swap2\n      swap1\n      pop\n      jump\t// out\n        /* \"#utility.yul\":12713:12902   */\n    tag_239:\n        /* \"#utility.yul\":12834:12895   */\n      tag_377\n        /* \"#utility.yul\":12862:12894   */\n      tag_378\n        /* \"#utility.yul\":12888:12893   */\n      dup3\n        /* \"#utility.yul\":12862:12894   */\n      tag_235\n      jump\t// in\n    tag_378:\n        /* \"#utility.yul\":12834:12895   */\n      tag_238\n      jump\t// in\n    tag_377:\n        /* \"#utility.yul\":12829:12832   */\n      dup3\n        /* \"#utility.yul\":12822:12896   */\n      mstore\n        /* \"#utility.yul\":12713:12902   */\n      pop\n      pop\n      jump\t// out\n        /* \"#utility.yul\":12908:13008   */\n    tag_240:\n        /* \"#utility.yul\":12947:12954   */\n      0x00\n        /* \"#utility.yul\":12976:13002   */\n      tag_380\n        /* \"#utility.yul\":12996:13001   */\n      dup3\n        /* \"#utility.yul\":12976:13002   */\n      tag_237\n      jump\t// in\n    tag_380:\n        /* \"#utility.yul\":12965:13002   */\n      swap1\n      pop\n        /* \"#utility.yul\":12908:13008   */\n      swap2\n      swap1\n      pop\n      jump\t// out\n        /* \"#utility.yul\":13014:13171   */\n    tag_241:\n        /* \"#utility.yul\":13119:13164   */\n      tag_382\n        /* \"#utility.yul\":13139:13163   */\n      tag_383\n        /* \"#utility.yul\":13157:13162   */\n      dup3\n        /* \"#utility.yul\":13139:13163   */\n      tag_198\n      jump\t// in\n    tag_383:\n        /* \"#utility.yul\":13119:13164   */\n      tag_240\n      jump\t// in\n    tag_382:\n        /* \"#utility.yul\":13114:13117   */\n      dup3\n        /* \"#utility.yul\":13107:13165   */\n      mstore\n        /* \"#utility.yul\":13014:13171   */\n      pop\n      pop\n      jump\t// out\n        /* \"#utility.yul\":13177:13271   */\n    tag_242:\n        /* \"#utility.yul\":13210:13218   */\n      0x00\n        /* \"#utility.yul\":13258:13263   */\n      dup2\n        /* \"#utility.yul\":13254:13256   */\n      0x18\n        /* \"#utility.yul\":13250:13264   */\n      shl\n        /* \"#utility.yul\":13229:13264   */\n      swap1\n      pop\n        /* \"#utility.yul\":13177:13271   */\n      swap2\n      swap1\n      pop\n      jump\t// out\n        /* \"#utility.yul\":13277:13371   */\n    tag_243:\n        /* \"#utility.yul\":13316:13323   */\n      0x00\n        /* \"#utility.yul\":13345:13365   */\n      tag_386\n        /* \"#utility.yul\":13359:13364   */\n      dup3\n        /* \"#utility.yul\":13345:13365   */\n      tag_242\n      jump\t// in\n    tag_386:\n        /* \"#utility.yul\":13334:13365   */\n      swap1\n      pop\n        /* \"#utility.yul\":13277:13371   */\n      swap2\n      swap1\n      pop\n      jump\t// out\n        /* \"#utility.yul\":13377:13534   */\n    tag_244:\n        /* \"#utility.yul\":13482:13527   */\n      tag_388\n        /* \"#utility.yul\":13502:13526   */\n      tag_389\n        /* \"#utility.yul\":13520:13525   */\n      dup3\n        /* \"#utility.yul\":13502:13526   */\n      tag_211\n      jump\t// in\n    tag_389:\n        /* \"#utility.yul\":13482:13527   */\n      tag_243\n      jump\t// in\n    tag_388:\n        /* \"#utility.yul\":13477:13480   */\n      dup3\n        /* \"#utility.yul\":13470:13528   */\n      mstore\n        /* \"#utility.yul\":13377:13534   */\n      pop\n      pop\n      jump\t// out\n        /* \"#utility.yul\":13540:14251   */\n    tag_129:\n        /* \"#utility.yul\":13752:13755   */\n      0x00\n        /* \"#utility.yul\":13767:13842   */\n      tag_391\n        /* \"#utility.yul\":13838:13841   */\n      dup3\n        /* \"#utility.yul\":13829:13835   */\n      dup8\n        /* \"#utility.yul\":13767:13842   */\n      tag_234\n      jump\t// in\n    tag_391:\n        /* \"#utility.yul\":13867:13869   */\n      0x20\n        /* \"#utility.yul\":13862:13865   */\n      dup3\n        /* \"#utility.yul\":13858:13870   */\n      add\n        /* \"#utility.yul\":13851:13870   */\n      swap2\n      pop\n        /* \"#utility.yul\":13880:13971   */\n      tag_392\n        /* \"#utility.yul\":13967:13970   */\n      dup3\n        /* \"#utility.yul\":13958:13964   */\n      dup7\n        /* \"#utility.yul\":13880:13971   */\n      tag_239\n      jump\t// in\n    tag_392:\n        /* \"#utility.yul\":13996:13998   */\n      0x14\n        /* \"#utility.yul\":13991:13994   */\n      dup3\n        /* \"#utility.yul\":13987:13999   */\n      add\n        /* \"#utility.yul\":13980:13999   */\n      swap2\n      pop\n        /* \"#utility.yul\":14009:14084   */\n      tag_393\n        /* \"#utility.yul\":14080:14083   */\n      dup3\n        /* \"#utility.yul\":14071:14077   */\n      dup6\n        /* \"#utility.yul\":14009:14084   */\n      tag_241\n      jump\t// in\n    tag_393:\n        /* \"#utility.yul\":14109:14111   */\n      0x14\n        /* \"#utility.yul\":14104:14107   */\n      dup3\n        /* \"#utility.yul\":14100:14112   */\n      add\n        /* \"#utility.yul\":14093:14112   */\n      swap2\n      pop\n        /* \"#utility.yul\":14122:14197   */\n      tag_394\n        /* \"#utility.yul\":14193:14196   */\n      dup3\n        /* \"#utility.yul\":14184:14190   */\n      dup5\n        /* \"#utility.yul\":14122:14197   */\n      tag_244\n      jump\t// in\n    tag_394:\n        /* \"#utility.yul\":14222:14224   */\n      0x1d\n        /* \"#utility.yul\":14217:14220   */\n      dup3\n        /* \"#utility.yul\":14213:14225   */\n      add\n        /* \"#utility.yul\":14206:14225   */\n      swap2\n      pop\n        /* \"#utility.yul\":14242:14245   */\n      dup2\n        /* \"#utility.yul\":14235:14245   */\n      swap1\n      pop\n        /* \"#utility.yul\":13540:14251   */\n      swap6\n      swap5\n      pop\n      pop\n      pop\n      pop\n      pop\n      jump\t// out\n        /* \"#utility.yul\":14257:14437   */\n    tag_174:\n        /* \"#utility.yul\":14305:14382   */\n      0x4e487b7100000000000000000000000000000000000000000000000000000000\n        /* \"#utility.yul\":14302:14303   */\n      0x00\n        /* \"#utility.yul\":14295:14383   */\n      mstore\n        /* \"#utility.yul\":14402:14406   */\n      0x01\n        /* \"#utility.yul\":14399:14400   */\n      0x04\n        /* \"#utility.yul\":14392:14407   */\n      mstore\n        /* \"#utility.yul\":14426:14430   */\n      0x24\n        /* \"#utility.yul\":14423:14424   */\n      0x00\n        /* \"#utility.yul\":14416:14431   */\n      revert\n        /* \"#utility.yul\":14443:14623   */\n    tag_245:\n        /* \"#utility.yul\":14491:14568   */\n      0x4e487b7100000000000000000000000000000000000000000000000000000000\n        /* \"#utility.yul\":14488:14489   */\n      0x00\n        /* \"#utility.yul\":14481:14569   */\n      mstore\n        /* \"#utility.yul\":14588:14592   */\n      0x12\n        /* \"#utility.yul\":14585:14586   */\n      0x04\n        /* \"#utility.yul\":14578:14593   */\n      mstore\n        /* \"#utility.yul\":14612:14616   */\n      0x24\n        /* \"#utility.yul\":14609:14610   */\n      0x00\n        /* \"#utility.yul\":14602:14617   */\n      revert\n        /* \"#utility.yul\":14629:14814   */\n    tag_180:\n        /* \"#utility.yul\":14669:14670   */\n      0x00\n        /* \"#utility.yul\":14686:14706   */\n      tag_398\n        /* \"#utility.yul\":14704:14705   */\n      dup3\n        /* \"#utility.yul\":14686:14706   */\n      tag_200\n      jump\t// in\n    tag_398:\n        /* \"#utility.yul\":14681:14706   */\n      swap2\n      pop\n        /* \"#utility.yul\":14720:14740   */\n      tag_399\n        /* \"#utility.yul\":14738:14739   */\n      dup4\n        /* \"#utility.yul\":14720:14740   */\n      tag_200\n      jump\t// in\n    tag_399:\n        /* \"#utility.yul\":14715:14740   */\n      swap3\n      pop\n        /* \"#utility.yul\":14759:14760   */\n      dup3\n        /* \"#utility.yul\":14749:14784   */\n      tag_400\n      jumpi\n        /* \"#utility.yul\":14764:14782   */\n      tag_401\n      tag_245\n      jump\t// in\n    tag_401:\n        /* \"#utility.yul\":14749:14784   */\n    tag_400:\n        /* \"#utility.yul\":14806:14807   */\n      dup3\n        /* \"#utility.yul\":14803:14804   */\n      dup3\n        /* \"#utility.yul\":14799:14808   */\n      div\n        /* \"#utility.yul\":14794:14808   */\n      swap1\n      pop\n        /* \"#utility.yul\":14629:14814   */\n      swap3\n      swap2\n      pop\n      pop\n      jump\t// out\n\n    auxdata: 0xa2646970667358221220c69dbb20176fb12f90447b7b546a30224dee8310ea1458e69ec53d18b85736c764736f6c634300081a0033\n}\n",
				"bytecode": {
					"linkReferences": {},
					"object": "6080604052348015600e575f80fd5b50335f806101000a81548173ffffffffffffffffffffffffffffffffffffffff021916908373ffffffffffffffffffffffffffffffffffffffff1602179055504260068190555042600881905550611dbb806100695f395ff3fe608060405260043610610054575f3560e01c80637da384fd1461005857806389a4c1a01461006e578063a659f4dc14610098578063b1c617ff146100c2578063c9ea0299146100ec578063ca6aae2914610108575b5f80fd5b348015610063575f80fd5b5061006c610132565b005b348015610079575f80fd5b50610082610a89565b60405161008f91906115c6565b60405180910390f35b3480156100a3575f80fd5b506100ac610aac565b6040516100b991906115f7565b60405180910390f35b3480156100cd575f80fd5b506100d6610ab2565b6040516100e391906115f7565b60405180910390f35b610106600480360381019061010191906116fd565b610ab8565b005b348015610113575f80fd5b5061011c61123c565b60405161012991906115f7565b60405180910390f35b5f60095f3373ffffffffffffffffffffffffffffffffffffffff1673ffffffffffffffffffffffffffffffffffffffff1681526020019081526020015f205f0180549050116101b6576040517f08c379a00000000000000000000000000000000000000000000000000000000081526004016101ad906117e1565b60405180910390fd5b60095f3373ffffffffffffffffffffffffffffffffffffffff1673ffffffffffffffffffffffffffffffffffffffff1681526020019081526020015f205f01600160095f3373ffffffffffffffffffffffffffffffffffffffff1673ffffffffffffffffffffffffffffffffffffffff1681526020019081526020015f205f0180549050610244919061182c565b815481106102555761025461185f565b5b905f5260205f20906002020160010160019054906101000a90047effffffffffffffffffffffffffffffffffffffffffffffffffffffffffffff167effffffffffffffffffffffffffffffffffffffffffffffffffffffffffffff1643116102f2576040517f08c379a00000000000000000000000000000000000000000000000000000000081526004016102e9906118d6565b60405180910390fd5b5f60095f3373ffffffffffffffffffffffffffffffffffffffff1673ffffffffffffffffffffffffffffffffffffffff1681526020019081526020015f206001018054905011156103895760095f3373ffffffffffffffffffffffffffffffffffffffff1673ffffffffffffffffffffffffffffffffffffffff1681526020019081526020015f206001015f61038891906114a7565b5b5f805f90505b60095f3373ffffffffffffffffffffffffffffffffffffffff1673ffffffffffffffffffffffffffffffffffffffff1681526020019081526020015f205f0180549050811015610944575f60095f3373ffffffffffffffffffffffffffffffffffffffff1673ffffffffffffffffffffffffffffffffffffffff1681526020019081526020015f205f01828154811061042b5761042a61185f565b5b905f5260205f20906002020160010160019054906101000a90047effffffffffffffffffffffffffffffffffffffffffffffffffffffffffffff167effffffffffffffffffffffffffffffffffffffffffffffffffffffffffffff16405f1c0315610937575f60095f3373ffffffffffffffffffffffffffffffffffffffff1673ffffffffffffffffffffffffffffffffffffffff1681526020019081526020015f205f0182815481106104e2576104e161185f565b5b905f5260205f2090600202015f015460095f3373ffffffffffffffffffffffffffffffffffffffff1673ffffffffffffffffffffffffffffffffffffffff1681526020019081526020015f205f0183815481106105425761054161185f565b5b905f5260205f20906002020160010160019054906101000a90047effffffffffffffffffffffffffffffffffffffffffffffffffffffffffffff167effffffffffffffffffffffffffffffffffffffffffffffffffffffffffffff16406040516020016105b092919061191d565b6040516020818303038152906040528051906020012060e01c90505f6105d582611242565b90505f8111156107fd575f66470de4df82000060095f3373ffffffffffffffffffffffffffffffffffffffff1673ffffffffffffffffffffffffffffffffffffffff1681526020019081526020015f205f0185815481106106395761063861185f565b5b905f5260205f2090600202016001015f9054906101000a900460ff1660ff1661066184611345565b61066b9190611948565b6106759190611948565b905080856106839190611989565b94505f60405180608001604052808563ffffffff16815260200160095f3373ffffffffffffffffffffffffffffffffffffffff1673ffffffffffffffffffffffffffffffffffffffff1681526020019081526020015f205f0187815481106106ee576106ed61185f565b5b905f5260205f2090600202016001015f9054906101000a900460ff1660ff1681526020014264ffffffffff1681526020013373ffffffffffffffffffffffffffffffffffffffff168152509050600b81908060018154018082558091505060019003905f5260205f2090600302015f909190919091505f820151815f015f6101000a81548163ffffffff021916908363ffffffff1602179055506020820151815f0160046101000a81548160ff021916908360ff160217905550604082015181600101556060820151816002015f6101000a81548173ffffffffffffffffffffffffffffffffffffffff021916908373ffffffffffffffffffffffffffffffffffffffff160217905550505050505b5f60405180604001604052808463ffffffff16815260200160095f3373ffffffffffffffffffffffffffffffffffffffff1673ffffffffffffffffffffffffffffffffffffffff1681526020019081526020015f205f0186815481106108665761086561185f565b5b905f5260205f2090600202016001015f9054906101000a900460ff1660ff16815250905060095f3373ffffffffffffffffffffffffffffffffffffffff1673ffffffffffffffffffffffffffffffffffffffff1681526020019081526020015f2060010181908060018154018082558091505060019003905f5260205f20015f909190919091505f820151815f015f6101000a81548163ffffffff021916908363ffffffff1602179055506020820151815f0160046101000a81548160ff021916908360ff16021790555050505050505b808060010191505061038f565b5060095f3373ffffffffffffffffffffffffffffffffffffffff1673ffffffffffffffffffffffffffffffffffffffff1681526020019081526020015f205f015f61098f91906114c5565b5f811115610a86575f6109d26109cb6109c4476001546007546005546109b59190611989565b6109bf9190611989565b611412565b6046611438565b606461147d565b9050808211156109e0578091505b5f6109f66109ef846005611438565b606461147d565b90508060055f828254610a099190611989565b925050819055508060015f828254610a219190611989565b925050819055503373ffffffffffffffffffffffffffffffffffffffff166108fc600283610a4f9190611948565b85610a5a919061182c565b90811502906040515f60405180830381858888f19350505050158015610a82573d5f803e3d5ffd5b5050505b50565b5f8054906101000a900473ffffffffffffffffffffffffffffffffffffffff1681565b60045481565b60065481565b66470de4df820000341015610b02576040517f08c379a0000000000000000000000000000000000000000000000000000000008152600401610af990611a06565b60405180910390fd5b60018360ff1610158015610b1a575060648360ff1611155b610b59576040517f08c379a0000000000000000000000000000000000000000000000000000000008152600401610b5090611a6e565b60405180910390fd5b60018461ffff1610158015610b7457506103e88461ffff1611155b610bb3576040517f08c379a0000000000000000000000000000000000000000000000000000000008152600401610baa90611ad6565b60405180910390fd5b5f610bc53466470de4df82000061147d565b90508360ff1685610bd69190611af4565b61ffff168114610c1b576040517f08c379a0000000000000000000000000000000000000000000000000000000008152600401610c1290611b7a565b60405180910390fd5b5f5b8561ffff16811015610d9e575f60405180606001604052804241338980610c4390611b98565b9a50604051602001610c589493929190611cae565b6040516020818303038152906040528051906020012081526020018760ff168152602001437effffffffffffffffffffffffffffffffffffffffffffffffffffffffffffff16815250905060095f3373ffffffffffffffffffffffffffffffffffffffff1673ffffffffffffffffffffffffffffffffffffffff1681526020019081526020015f205f0181908060018154018082558091505060019003905f5260205f2090600202015f909190919091505f820151815f01556020820151816001015f6101000a81548160ff021916908360ff16021790555060408201518160010160016101000a8154817effffffffffffffffffffffffffffffffffffffffffffffffffffffffffffff02191690837effffffffffffffffffffffffffffffffffffffffffffffffffffffffffffff1602179055505050508080600101915050610c1d565b5060095f3373ffffffffffffffffffffffffffffffffffffffff1673ffffffffffffffffffffffffffffffffffffffff1681526020019081526020015f206003015f9054906101000a900460ff16610e4957600160095f3373ffffffffffffffffffffffffffffffffffffffff1673ffffffffffffffffffffffffffffffffffffffff1681526020019081526020015f206003015f6101000a81548160ff0219169083151502179055505b5f610e5f610e58346003611438565b606461147d565b90505f610e77610e70346004611438565b606461147d565b90508160015f828254610e8a9190611989565b925050819055508160055f828254610ea29190611989565b925050819055505f73ffffffffffffffffffffffffffffffffffffffff16600a5f3373ffffffffffffffffffffffffffffffffffffffff1673ffffffffffffffffffffffffffffffffffffffff1681526020019081526020015f205f9054906101000a900473ffffffffffffffffffffffffffffffffffffffff1673ffffffffffffffffffffffffffffffffffffffff1603611233573373ffffffffffffffffffffffffffffffffffffffff168473ffffffffffffffffffffffffffffffffffffffff161480610f9d57505f73ffffffffffffffffffffffffffffffffffffffff168473ffffffffffffffffffffffffffffffffffffffff16145b80610ff2575060095f3373ffffffffffffffffffffffffffffffffffffffff1673ffffffffffffffffffffffffffffffffffffffff1681526020019081526020015f206003015f9054906101000a900460ff16155b1561101a575f8054906101000a900473ffffffffffffffffffffffffffffffffffffffff1693505b83600a5f3373ffffffffffffffffffffffffffffffffffffffff1673ffffffffffffffffffffffffffffffffffffffff1681526020019081526020015f205f6101000a81548173ffffffffffffffffffffffffffffffffffffffff021916908373ffffffffffffffffffffffffffffffffffffffff1602179055505f8054906101000a900473ffffffffffffffffffffffffffffffffffffffff1673ffffffffffffffffffffffffffffffffffffffff16600a5f3373ffffffffffffffffffffffffffffffffffffffff1673ffffffffffffffffffffffffffffffffffffffff1681526020019081526020015f205f9054906101000a900473ffffffffffffffffffffffffffffffffffffffff1673ffffffffffffffffffffffffffffffffffffffff1603611160578060015f8282546111549190611989565b9250508190555061122b565b8060095f600a5f3373ffffffffffffffffffffffffffffffffffffffff1673ffffffffffffffffffffffffffffffffffffffff1681526020019081526020015f205f9054906101000a900473ffffffffffffffffffffffffffffffffffffffff1673ffffffffffffffffffffffffffffffffffffffff1673ffffffffffffffffffffffffffffffffffffffff1681526020019081526020015f206002015f82825461120b9190611989565b925050819055508060075f8282546112239190611989565b925050819055505b426008819055505b50505050505050565b60055481565b5f63040000008263ffffffff16111561125d575f9050611340565b63010000008263ffffffff161061127757600a9050611340565b624000008263ffffffff16106112905760099050611340565b621000008263ffffffff16106112a95760089050611340565b620400008263ffffffff16106112c25760079050611340565b620100008263ffffffff16106112db5760069050611340565b6140008263ffffffff16106112f35760059050611340565b6110008263ffffffff161061130b5760049050611340565b6104008263ffffffff16106113235760039050611340565b6101008263ffffffff161061133b5760029050611340565b600190505b919050565b5f808203611355575f905061140d565b600a8203611366576005905061140d565b60098203611377576014905061140d565b60088203611388576050905061140d565b6007820361139a57610140905061140d565b600682036113ac576104b0905061140d565b600582036113be576112c0905061140d565b600482036113d057614e20905061140d565b600382036113e357620186a0905061140d565b600282036113f6576207a120905061140d565b6001820361140957621e8480905061140d565b5f90505b919050565b5f8282111561142457611423611cfb565b5b8183611430919061182c565b905092915050565b5f808303611448575f9050611477565b5f82846114559190611948565b90508284826114649190611d55565b1461147257611471611cfb565b5b809150505b92915050565b5f80821161148e5761148d611cfb565b5b5f828461149b9190611d55565b90508091505092915050565b5080545f8255905f5260205f20908101906114c291906114e6565b50565b5080545f8255600202905f5260205f20908101906114e39190611525565b50565b5b80821115611521575f8082015f6101000a81549063ffffffff02191690555f820160046101000a81549060ff0219169055506001016114e7565b5090565b5b80821115611583575f8082015f9055600182015f6101000a81549060ff02191690556001820160016101000a8154907effffffffffffffffffffffffffffffffffffffffffffffffffffffffffffff021916905550600201611526565b5090565b5f73ffffffffffffffffffffffffffffffffffffffff82169050919050565b5f6115b082611587565b9050919050565b6115c0816115a6565b82525050565b5f6020820190506115d95f8301846115b7565b92915050565b5f819050919050565b6115f1816115df565b82525050565b5f60208201905061160a5f8301846115e8565b92915050565b5f80fd5b5f61ffff82169050919050565b61162a81611614565b8114611634575f80fd5b50565b5f8135905061164581611621565b92915050565b5f60ff82169050919050565b6116608161164b565b811461166a575f80fd5b50565b5f8135905061167b81611657565b92915050565b5f7cffffffffffffffffffffffffffffffffffffffffffffffffffffffffff82169050919050565b6116b281611681565b81146116bc575f80fd5b50565b5f813590506116cd816116a9565b92915050565b6116dc816115a6565b81146116e6575f80fd5b50565b5f813590506116f7816116d3565b92915050565b5f805f806080858703121561171557611714611610565b5b5f61172287828801611637565b94505060206117338782880161166d565b9350506040611744878288016116bf565b9250506060611755878288016116e9565b91505092959194509250565b5f82825260208201905092915050565b7f596f7520646f6e2774206861766520756e64726177206c6f74746572792074695f8201527f636b657473000000000000000000000000000000000000000000000000000000602082015250565b5f6117cb602583611761565b91506117d682611771565b604082019050919050565b5f6020820190508181035f8301526117f8816117bf565b9050919050565b7f4e487b71000000000000000000000000000000000000000000000000000000005f52601160045260245ffd5b5f611836826115df565b9150611841836115df565b9250828203905081811115611859576118586117ff565b5b92915050565b7f4e487b71000000000000000000000000000000000000000000000000000000005f52603260045260245ffd5b7f49742773206e6f742074696d65000000000000000000000000000000000000005f82015250565b5f6118c0600d83611761565b91506118cb8261188c565b602082019050919050565b5f6020820190508181035f8301526118ed816118b4565b9050919050565b5f819050919050565b5f819050919050565b611917611912826118f4565b6118fd565b82525050565b5f6119288285611906565b6020820191506119388284611906565b6020820191508190509392505050565b5f611952826115df565b915061195d836115df565b925082820261196b816115df565b91508282048414831517611982576119816117ff565b5b5092915050565b5f611993826115df565b915061199e836115df565b92508282019050808211156119b6576119b56117ff565b5b92915050565b7f427579206174206c65617374206f6e65206567670000000000000000000000005f82015250565b5f6119f0601483611761565b91506119fb826119bc565b602082019050919050565b5f6020820190508181035f830152611a1d816119e4565b9050919050565b7f4d756c7469706c6573206265747765656e203120616e642031303000000000005f82015250565b5f611a58601b83611761565b9150611a6382611a24565b602082019050919050565b5f6020820190508181035f830152611a8581611a4c565b9050919050565b7f4e756d626572206f662065676773206265747765656e203120616e64203130305f82015250565b5f611ac0602083611761565b9150611acb82611a8c565b602082019050919050565b5f6020820190508181035f830152611aed81611ab4565b9050919050565b5f611afe82611614565b9150611b0983611614565b9250828202611b1781611614565b9150808214611b2957611b286117ff565b5b5092915050565b7f496e76616c6964206461746100000000000000000000000000000000000000005f82015250565b5f611b64600c83611761565b9150611b6f82611b30565b602082019050919050565b5f6020820190508181035f830152611b9181611b58565b9050919050565b5f611ba282611681565b91507cffffffffffffffffffffffffffffffffffffffffffffffffffffffffff8203611bd157611bd06117ff565b5b600182019050919050565b5f819050919050565b611bf6611bf1826115df565b611bdc565b82525050565b5f611c0682611587565b9050919050565b5f8160601b9050919050565b5f611c2382611c0d565b9050919050565b5f611c3482611c19565b9050919050565b611c4c611c4782611bfc565b611c2a565b82525050565b5f611c5c82611c19565b9050919050565b611c74611c6f826115a6565b611c52565b82525050565b5f8160181b9050919050565b5f611c9082611c7a565b9050919050565b611ca8611ca382611681565b611c86565b82525050565b5f611cb98287611be5565b602082019150611cc98286611c3b565b601482019150611cd98285611c63565b601482019150611ce98284611c97565b601d8201915081905095945050505050565b7f4e487b71000000000000000000000000000000000000000000000000000000005f52600160045260245ffd5b7f4e487b71000000000000000000000000000000000000000000000000000000005f52601260045260245ffd5b5f611d5f826115df565b9150611d6a836115df565b925082611d7a57611d79611d28565b5b82820490509291505056fea2646970667358221220c69dbb20176fb12f90447b7b546a30224dee8310ea1458e69ec53d18b85736c764736f6c634300081a0033",
					"opcodes": "PUSH1 0x80 PUSH1 0x40 MSTORE CALLVALUE DUP1 ISZERO PUSH1 0xE JUMPI PUSH0 DUP1 REVERT JUMPDEST POP CALLER PUSH0 DUP1 PUSH2 0x100 EXP DUP2 SLOAD DUP2 PUSH20 0xFFFFFFFFFFFFFFFFFFFFFFFFFFFFFFFFFFFFFFFF MUL NOT AND SWAP1 DUP4 PUSH20 0xFFFFFFFFFFFFFFFFFFFFFFFFFFFFFFFFFFFFFFFF AND MUL OR SWAP1 SSTORE POP TIMESTAMP PUSH1 0x6 DUP2 SWAP1 SSTORE POP TIMESTAMP PUSH1 0x8 DUP2 SWAP1 SSTORE POP PUSH2 0x1DBB DUP1 PUSH2 0x69 PUSH0 CODECOPY PUSH0 RETURN INVALID PUSH1 0x80 PUSH1 0x40 MSTORE PUSH1 0x4 CALLDATASIZE LT PUSH2 0x54 JUMPI PUSH0 CALLDATALOAD PUSH1 0xE0 SHR DUP1 PUSH4 0x7DA384FD EQ PUSH2 0x58 JUMPI DUP1 PUSH4 0x89A4C1A0 EQ PUSH2 0x6E JUMPI DUP1 PUSH4 0xA659F4DC EQ PUSH2 0x98 JUMPI DUP1 PUSH4 0xB1C617FF EQ PUSH2 0xC2 JUMPI DUP1 PUSH4 0xC9EA0299 EQ PUSH2 0xEC JUMPI DUP1 PUSH4 0xCA6AAE29 EQ PUSH2 0x108 JUMPI JUMPDEST PUSH0 DUP1 REVERT JUMPDEST CALLVALUE DUP1 ISZERO PUSH2 0x63 JUMPI PUSH0 DUP1 REVERT JUMPDEST POP PUSH2 0x6C PUSH2 0x132 JUMP JUMPDEST STOP JUMPDEST CALLVALUE DUP1 ISZERO PUSH2 0x79 JUMPI PUSH0 DUP1 REVERT JUMPDEST POP PUSH2 0x82 PUSH2 0xA89 JUMP JUMPDEST PUSH1 0x40 MLOAD PUSH2 0x8F SWAP2 SWAP1 PUSH2 0x15C6 JUMP JUMPDEST PUSH1 0x40 MLOAD DUP1 SWAP2 SUB SWAP1 RETURN JUMPDEST CALLVALUE DUP1 ISZERO PUSH2 0xA3 JUMPI PUSH0 DUP1 REVERT JUMPDEST POP PUSH2 0xAC PUSH2 0xAAC JUMP JUMPDEST PUSH1 0x40 MLOAD PUSH2 0xB9 SWAP2 SWAP1 PUSH2 0x15F7 JUMP JUMPDEST PUSH1 0x40 MLOAD DUP1 SWAP2 SUB SWAP1 RETURN JUMPDEST CALLVALUE DUP1 ISZERO PUSH2 0xCD JUMPI PUSH0 DUP1 REVERT JUMPDEST POP PUSH2 0xD6 PUSH2 0xAB2 JUMP JUMPDEST PUSH1 0x40 MLOAD PUSH2 0xE3 SWAP2 SWAP1 PUSH2 0x15F7 JUMP JUMPDEST PUSH1 0x40 MLOAD DUP1 SWAP2 SUB SWAP1 RETURN JUMPDEST PUSH2 0x106 PUSH1 0x4 DUP1 CALLDATASIZE SUB DUP2 ADD SWAP1 PUSH2 0x101 SWAP2 SWAP1 PUSH2 0x16FD JUMP JUMPDEST PUSH2 0xAB8 JUMP JUMPDEST STOP JUMPDEST CALLVALUE DUP1 ISZERO PUSH2 0x113 JUMPI PUSH0 DUP1 REVERT JUMPDEST POP PUSH2 0x11C PUSH2 0x123C JUMP JUMPDEST PUSH1 0x40 MLOAD PUSH2 0x129 SWAP2 SWAP1 PUSH2 0x15F7 JUMP JUMPDEST PUSH1 0x40 MLOAD DUP1 SWAP2 SUB SWAP1 RETURN JUMPDEST PUSH0 PUSH1 0x9 PUSH0 CALLER PUSH20 0xFFFFFFFFFFFFFFFFFFFFFFFFFFFFFFFFFFFFFFFF AND PUSH20 0xFFFFFFFFFFFFFFFFFFFFFFFFFFFFFFFFFFFFFFFF AND DUP2 MSTORE PUSH1 0x20 ADD SWAP1 DUP2 MSTORE PUSH1 0x20 ADD PUSH0 KECCAK256 PUSH0 ADD DUP1 SLOAD SWAP1 POP GT PUSH2 0x1B6 JUMPI PUSH1 0x40 MLOAD PUSH32 0x8C379A000000000000000000000000000000000000000000000000000000000 DUP2 MSTORE PUSH1 0x4 ADD PUSH2 0x1AD SWAP1 PUSH2 0x17E1 JUMP JUMPDEST PUSH1 0x40 MLOAD DUP1 SWAP2 SUB SWAP1 REVERT JUMPDEST PUSH1 0x9 PUSH0 CALLER PUSH20 0xFFFFFFFFFFFFFFFFFFFFFFFFFFFFFFFFFFFFFFFF AND PUSH20 0xFFFFFFFFFFFFFFFFFFFFFFFFFFFFFFFFFFFFFFFF AND DUP2 MSTORE PUSH1 0x20 ADD SWAP1 DUP2 MSTORE PUSH1 0x20 ADD PUSH0 KECCAK256 PUSH0 ADD PUSH1 0x1 PUSH1 0x9 PUSH0 CALLER PUSH20 0xFFFFFFFFFFFFFFFFFFFFFFFFFFFFFFFFFFFFFFFF AND PUSH20 0xFFFFFFFFFFFFFFFFFFFFFFFFFFFFFFFFFFFFFFFF AND DUP2 MSTORE PUSH1 0x20 ADD SWAP1 DUP2 MSTORE PUSH1 0x20 ADD PUSH0 KECCAK256 PUSH0 ADD DUP1 SLOAD SWAP1 POP PUSH2 0x244 SWAP2 SWAP1 PUSH2 0x182C JUMP JUMPDEST DUP2 SLOAD DUP2 LT PUSH2 0x255 JUMPI PUSH2 0x254 PUSH2 0x185F JUMP JUMPDEST JUMPDEST SWAP1 PUSH0 MSTORE PUSH1 0x20 PUSH0 KECCAK256 SWAP1 PUSH1 0x2 MUL ADD PUSH1 0x1 ADD PUSH1 0x1 SWAP1 SLOAD SWAP1 PUSH2 0x100 EXP SWAP1 DIV PUSH31 0xFFFFFFFFFFFFFFFFFFFFFFFFFFFFFFFFFFFFFFFFFFFFFFFFFFFFFFFFFFFFFF AND PUSH31 0xFFFFFFFFFFFFFFFFFFFFFFFFFFFFFFFFFFFFFFFFFFFFFFFFFFFFFFFFFFFFFF AND NUMBER GT PUSH2 0x2F2 JUMPI PUSH1 0x40 MLOAD PUSH32 0x8C379A000000000000000000000000000000000000000000000000000000000 DUP2 MSTORE PUSH1 0x4 ADD PUSH2 0x2E9 SWAP1 PUSH2 0x18D6 JUMP JUMPDEST PUSH1 0x40 MLOAD DUP1 SWAP2 SUB SWAP1 REVERT JUMPDEST PUSH0 PUSH1 0x9 PUSH0 CALLER PUSH20 0xFFFFFFFFFFFFFFFFFFFFFFFFFFFFFFFFFFFFFFFF AND PUSH20 0xFFFFFFFFFFFFFFFFFFFFFFFFFFFFFFFFFFFFFFFF AND DUP2 MSTORE PUSH1 0x20 ADD SWAP1 DUP2 MSTORE PUSH1 0x20 ADD PUSH0 KECCAK256 PUSH1 0x1 ADD DUP1 SLOAD SWAP1 POP GT ISZERO PUSH2 0x389 JUMPI PUSH1 0x9 PUSH0 CALLER PUSH20 0xFFFFFFFFFFFFFFFFFFFFFFFFFFFFFFFFFFFFFFFF AND PUSH20 0xFFFFFFFFFFFFFFFFFFFFFFFFFFFFFFFFFFFFFFFF AND DUP2 MSTORE PUSH1 0x20 ADD SWAP1 DUP2 MSTORE PUSH1 0x20 ADD PUSH0 KECCAK256 PUSH1 0x1 ADD PUSH0 PUSH2 0x388 SWAP2 SWAP1 PUSH2 0x14A7 JUMP JUMPDEST JUMPDEST PUSH0 DUP1 PUSH0 SWAP1 POP JUMPDEST PUSH1 0x9 PUSH0 CALLER PUSH20 0xFFFFFFFFFFFFFFFFFFFFFFFFFFFFFFFFFFFFFFFF AND PUSH20 0xFFFFFFFFFFFFFFFFFFFFFFFFFFFFFFFFFFFFFFFF AND DUP2 MSTORE PUSH1 0x20 ADD SWAP1 DUP2 MSTORE PUSH1 0x20 ADD PUSH0 KECCAK256 PUSH0 ADD DUP1 SLOAD SWAP1 POP DUP2 LT ISZERO PUSH2 0x944 JUMPI PUSH0 PUSH1 0x9 PUSH0 CALLER PUSH20 0xFFFFFFFFFFFFFFFFFFFFFFFFFFFFFFFFFFFFFFFF AND PUSH20 0xFFFFFFFFFFFFFFFFFFFFFFFFFFFFFFFFFFFFFFFF AND DUP2 MSTORE PUSH1 0x20 ADD SWAP1 DUP2 MSTORE PUSH1 0x20 ADD PUSH0 KECCAK256 PUSH0 ADD DUP3 DUP2 SLOAD DUP2 LT PUSH2 0x42B JUMPI PUSH2 0x42A PUSH2 0x185F JUMP JUMPDEST JUMPDEST SWAP1 PUSH0 MSTORE PUSH1 0x20 PUSH0 KECCAK256 SWAP1 PUSH1 0x2 MUL ADD PUSH1 0x1 ADD PUSH1 0x1 SWAP1 SLOAD SWAP1 PUSH2 0x100 EXP SWAP1 DIV PUSH31 0xFFFFFFFFFFFFFFFFFFFFFFFFFFFFFFFFFFFFFFFFFFFFFFFFFFFFFFFFFFFFFF AND PUSH31 0xFFFFFFFFFFFFFFFFFFFFFFFFFFFFFFFFFFFFFFFFFFFFFFFFFFFFFFFFFFFFFF AND BLOCKHASH PUSH0 SHR SUB ISZERO PUSH2 0x937 JUMPI PUSH0 PUSH1 0x9 PUSH0 CALLER PUSH20 0xFFFFFFFFFFFFFFFFFFFFFFFFFFFFFFFFFFFFFFFF AND PUSH20 0xFFFFFFFFFFFFFFFFFFFFFFFFFFFFFFFFFFFFFFFF AND DUP2 MSTORE PUSH1 0x20 ADD SWAP1 DUP2 MSTORE PUSH1 0x20 ADD PUSH0 KECCAK256 PUSH0 ADD DUP3 DUP2 SLOAD DUP2 LT PUSH2 0x4E2 JUMPI PUSH2 0x4E1 PUSH2 0x185F JUMP JUMPDEST JUMPDEST SWAP1 PUSH0 MSTORE PUSH1 0x20 PUSH0 KECCAK256 SWAP1 PUSH1 0x2 MUL ADD PUSH0 ADD SLOAD PUSH1 0x9 PUSH0 CALLER PUSH20 0xFFFFFFFFFFFFFFFFFFFFFFFFFFFFFFFFFFFFFFFF AND PUSH20 0xFFFFFFFFFFFFFFFFFFFFFFFFFFFFFFFFFFFFFFFF AND DUP2 MSTORE PUSH1 0x20 ADD SWAP1 DUP2 MSTORE PUSH1 0x20 ADD PUSH0 KECCAK256 PUSH0 ADD DUP4 DUP2 SLOAD DUP2 LT PUSH2 0x542 JUMPI PUSH2 0x541 PUSH2 0x185F JUMP JUMPDEST JUMPDEST SWAP1 PUSH0 MSTORE PUSH1 0x20 PUSH0 KECCAK256 SWAP1 PUSH1 0x2 MUL ADD PUSH1 0x1 ADD PUSH1 0x1 SWAP1 SLOAD SWAP1 PUSH2 0x100 EXP SWAP1 DIV PUSH31 0xFFFFFFFFFFFFFFFFFFFFFFFFFFFFFFFFFFFFFFFFFFFFFFFFFFFFFFFFFFFFFF AND PUSH31 0xFFFFFFFFFFFFFFFFFFFFFFFFFFFFFFFFFFFFFFFFFFFFFFFFFFFFFFFFFFFFFF AND BLOCKHASH PUSH1 0x40 MLOAD PUSH1 0x20 ADD PUSH2 0x5B0 SWAP3 SWAP2 SWAP1 PUSH2 0x191D JUMP JUMPDEST PUSH1 0x40 MLOAD PUSH1 0x20 DUP2 DUP4 SUB SUB DUP2 MSTORE SWAP1 PUSH1 0x40 MSTORE DUP1 MLOAD SWAP1 PUSH1 0x20 ADD KECCAK256 PUSH1 0xE0 SHR SWAP1 POP PUSH0 PUSH2 0x5D5 DUP3 PUSH2 0x1242 JUMP JUMPDEST SWAP1 POP PUSH0 DUP2 GT ISZERO PUSH2 0x7FD JUMPI PUSH0 PUSH7 0x470DE4DF820000 PUSH1 0x9 PUSH0 CALLER PUSH20 0xFFFFFFFFFFFFFFFFFFFFFFFFFFFFFFFFFFFFFFFF AND PUSH20 0xFFFFFFFFFFFFFFFFFFFFFFFFFFFFFFFFFFFFFFFF AND DUP2 MSTORE PUSH1 0x20 ADD SWAP1 DUP2 MSTORE PUSH1 0x20 ADD PUSH0 KECCAK256 PUSH0 ADD DUP6 DUP2 SLOAD DUP2 LT PUSH2 0x639 JUMPI PUSH2 0x638 PUSH2 0x185F JUMP JUMPDEST JUMPDEST SWAP1 PUSH0 MSTORE PUSH1 0x20 PUSH0 KECCAK256 SWAP1 PUSH1 0x2 MUL ADD PUSH1 0x1 ADD PUSH0 SWAP1 SLOAD SWAP1 PUSH2 0x100 EXP SWAP1 DIV PUSH1 0xFF AND PUSH1 0xFF AND PUSH2 0x661 DUP5 PUSH2 0x1345 JUMP JUMPDEST PUSH2 0x66B SWAP2 SWAP1 PUSH2 0x1948 JUMP JUMPDEST PUSH2 0x675 SWAP2 SWAP1 PUSH2 0x1948 JUMP JUMPDEST SWAP1 POP DUP1 DUP6 PUSH2 0x683 SWAP2 SWAP1 PUSH2 0x1989 JUMP JUMPDEST SWAP5 POP PUSH0 PUSH1 0x40 MLOAD DUP1 PUSH1 0x80 ADD PUSH1 0x40 MSTORE DUP1 DUP6 PUSH4 0xFFFFFFFF AND DUP2 MSTORE PUSH1 0x20 ADD PUSH1 0x9 PUSH0 CALLER PUSH20 0xFFFFFFFFFFFFFFFFFFFFFFFFFFFFFFFFFFFFFFFF AND PUSH20 0xFFFFFFFFFFFFFFFFFFFFFFFFFFFFFFFFFFFFFFFF AND DUP2 MSTORE PUSH1 0x20 ADD SWAP1 DUP2 MSTORE PUSH1 0x20 ADD PUSH0 KECCAK256 PUSH0 ADD DUP8 DUP2 SLOAD DUP2 LT PUSH2 0x6EE JUMPI PUSH2 0x6ED PUSH2 0x185F JUMP JUMPDEST JUMPDEST SWAP1 PUSH0 MSTORE PUSH1 0x20 PUSH0 KECCAK256 SWAP1 PUSH1 0x2 MUL ADD PUSH1 0x1 ADD PUSH0 SWAP1 SLOAD SWAP1 PUSH2 0x100 EXP SWAP1 DIV PUSH1 0xFF AND PUSH1 0xFF AND DUP2 MSTORE PUSH1 0x20 ADD TIMESTAMP PUSH5 0xFFFFFFFFFF AND DUP2 MSTORE PUSH1 0x20 ADD CALLER PUSH20 0xFFFFFFFFFFFFFFFFFFFFFFFFFFFFFFFFFFFFFFFF AND DUP2 MSTORE POP SWAP1 POP PUSH1 0xB DUP2 SWAP1 DUP1 PUSH1 0x1 DUP2 SLOAD ADD DUP1 DUP3 SSTORE DUP1 SWAP2 POP POP PUSH1 0x1 SWAP1 SUB SWAP1 PUSH0 MSTORE PUSH1 0x20 PUSH0 KECCAK256 SWAP1 PUSH1 0x3 MUL ADD PUSH0 SWAP1 SWAP2 SWAP1 SWAP2 SWAP1 SWAP2 POP PUSH0 DUP3 ADD MLOAD DUP2 PUSH0 ADD PUSH0 PUSH2 0x100 EXP DUP2 SLOAD DUP2 PUSH4 0xFFFFFFFF MUL NOT AND SWAP1 DUP4 PUSH4 0xFFFFFFFF AND MUL OR SWAP1 SSTORE POP PUSH1 0x20 DUP3 ADD MLOAD DUP2 PUSH0 ADD PUSH1 0x4 PUSH2 0x100 EXP DUP2 SLOAD DUP2 PUSH1 0xFF MUL NOT AND SWAP1 DUP4 PUSH1 0xFF AND MUL OR SWAP1 SSTORE POP PUSH1 0x40 DUP3 ADD MLOAD DUP2 PUSH1 0x1 ADD SSTORE PUSH1 0x60 DUP3 ADD MLOAD DUP2 PUSH1 0x2 ADD PUSH0 PUSH2 0x100 EXP DUP2 SLOAD DUP2 PUSH20 0xFFFFFFFFFFFFFFFFFFFFFFFFFFFFFFFFFFFFFFFF MUL NOT AND SWAP1 DUP4 PUSH20 0xFFFFFFFFFFFFFFFFFFFFFFFFFFFFFFFFFFFFFFFF AND MUL OR SWAP1 SSTORE POP POP POP POP POP JUMPDEST PUSH0 PUSH1 0x40 MLOAD DUP1 PUSH1 0x40 ADD PUSH1 0x40 MSTORE DUP1 DUP5 PUSH4 0xFFFFFFFF AND DUP2 MSTORE PUSH1 0x20 ADD PUSH1 0x9 PUSH0 CALLER PUSH20 0xFFFFFFFFFFFFFFFFFFFFFFFFFFFFFFFFFFFFFFFF AND PUSH20 0xFFFFFFFFFFFFFFFFFFFFFFFFFFFFFFFFFFFFFFFF AND DUP2 MSTORE PUSH1 0x20 ADD SWAP1 DUP2 MSTORE PUSH1 0x20 ADD PUSH0 KECCAK256 PUSH0 ADD DUP7 DUP2 SLOAD DUP2 LT PUSH2 0x866 JUMPI PUSH2 0x865 PUSH2 0x185F JUMP JUMPDEST JUMPDEST SWAP1 PUSH0 MSTORE PUSH1 0x20 PUSH0 KECCAK256 SWAP1 PUSH1 0x2 MUL ADD PUSH1 0x1 ADD PUSH0 SWAP1 SLOAD SWAP1 PUSH2 0x100 EXP SWAP1 DIV PUSH1 0xFF AND PUSH1 0xFF AND DUP2 MSTORE POP SWAP1 POP PUSH1 0x9 PUSH0 CALLER PUSH20 0xFFFFFFFFFFFFFFFFFFFFFFFFFFFFFFFFFFFFFFFF AND PUSH20 0xFFFFFFFFFFFFFFFFFFFFFFFFFFFFFFFFFFFFFFFF AND DUP2 MSTORE PUSH1 0x20 ADD SWAP1 DUP2 MSTORE PUSH1 0x20 ADD PUSH0 KECCAK256 PUSH1 0x1 ADD DUP2 SWAP1 DUP1 PUSH1 0x1 DUP2 SLOAD ADD DUP1 DUP3 SSTORE DUP1 SWAP2 POP POP PUSH1 0x1 SWAP1 SUB SWAP1 PUSH0 MSTORE PUSH1 0x20 PUSH0 KECCAK256 ADD PUSH0 SWAP1 SWAP2 SWAP1 SWAP2 SWAP1 SWAP2 POP PUSH0 DUP3 ADD MLOAD DUP2 PUSH0 ADD PUSH0 PUSH2 0x100 EXP DUP2 SLOAD DUP2 PUSH4 0xFFFFFFFF MUL NOT AND SWAP1 DUP4 PUSH4 0xFFFFFFFF AND MUL OR SWAP1 SSTORE POP PUSH1 0x20 DUP3 ADD MLOAD DUP2 PUSH0 ADD PUSH1 0x4 PUSH2 0x100 EXP DUP2 SLOAD DUP2 PUSH1 0xFF MUL NOT AND SWAP1 DUP4 PUSH1 0xFF AND MUL OR SWAP1 SSTORE POP POP POP POP POP POP JUMPDEST DUP1 DUP1 PUSH1 0x1 ADD SWAP2 POP POP PUSH2 0x38F JUMP JUMPDEST POP PUSH1 0x9 PUSH0 CALLER PUSH20 0xFFFFFFFFFFFFFFFFFFFFFFFFFFFFFFFFFFFFFFFF AND PUSH20 0xFFFFFFFFFFFFFFFFFFFFFFFFFFFFFFFFFFFFFFFF AND DUP2 MSTORE PUSH1 0x20 ADD SWAP1 DUP2 MSTORE PUSH1 0x20 ADD PUSH0 KECCAK256 PUSH0 ADD PUSH0 PUSH2 0x98F SWAP2 SWAP1 PUSH2 0x14C5 JUMP JUMPDEST PUSH0 DUP2 GT ISZERO PUSH2 0xA86 JUMPI PUSH0 PUSH2 0x9D2 PUSH2 0x9CB PUSH2 0x9C4 SELFBALANCE PUSH1 0x1 SLOAD PUSH1 0x7 SLOAD PUSH1 0x5 SLOAD PUSH2 0x9B5 SWAP2 SWAP1 PUSH2 0x1989 JUMP JUMPDEST PUSH2 0x9BF SWAP2 SWAP1 PUSH2 0x1989 JUMP JUMPDEST PUSH2 0x1412 JUMP JUMPDEST PUSH1 0x46 PUSH2 0x1438 JUMP JUMPDEST PUSH1 0x64 PUSH2 0x147D JUMP JUMPDEST SWAP1 POP DUP1 DUP3 GT ISZERO PUSH2 0x9E0 JUMPI DUP1 SWAP2 POP JUMPDEST PUSH0 PUSH2 0x9F6 PUSH2 0x9EF DUP5 PUSH1 0x5 PUSH2 0x1438 JUMP JUMPDEST PUSH1 0x64 PUSH2 0x147D JUMP JUMPDEST SWAP1 POP DUP1 PUSH1 0x5 PUSH0 DUP3 DUP3 SLOAD PUSH2 0xA09 SWAP2 SWAP1 PUSH2 0x1989 JUMP JUMPDEST SWAP3 POP POP DUP2 SWAP1 SSTORE POP DUP1 PUSH1 0x1 PUSH0 DUP3 DUP3 SLOAD PUSH2 0xA21 SWAP2 SWAP1 PUSH2 0x1989 JUMP JUMPDEST SWAP3 POP POP DUP2 SWAP1 SSTORE POP CALLER PUSH20 0xFFFFFFFFFFFFFFFFFFFFFFFFFFFFFFFFFFFFFFFF AND PUSH2 0x8FC PUSH1 0x2 DUP4 PUSH2 0xA4F SWAP2 SWAP1 PUSH2 0x1948 JUMP JUMPDEST DUP6 PUSH2 0xA5A SWAP2 SWAP1 PUSH2 0x182C JUMP JUMPDEST SWAP1 DUP2 ISZERO MUL SWAP1 PUSH1 0x40 MLOAD PUSH0 PUSH1 0x40 MLOAD DUP1 DUP4 SUB DUP2 DUP6 DUP9 DUP9 CALL SWAP4 POP POP POP POP ISZERO DUP1 ISZERO PUSH2 0xA82 JUMPI RETURNDATASIZE PUSH0 DUP1 RETURNDATACOPY RETURNDATASIZE PUSH0 REVERT JUMPDEST POP POP POP JUMPDEST POP JUMP JUMPDEST PUSH0 DUP1 SLOAD SWAP1 PUSH2 0x100 EXP SWAP1 DIV PUSH20 0xFFFFFFFFFFFFFFFFFFFFFFFFFFFFFFFFFFFFFFFF AND DUP2 JUMP JUMPDEST PUSH1 0x4 SLOAD DUP2 JUMP JUMPDEST PUSH1 0x6 SLOAD DUP2 JUMP JUMPDEST PUSH7 0x470DE4DF820000 CALLVALUE LT ISZERO PUSH2 0xB02 JUMPI PUSH1 0x40 MLOAD PUSH32 0x8C379A000000000000000000000000000000000000000000000000000000000 DUP2 MSTORE PUSH1 0x4 ADD PUSH2 0xAF9 SWAP1 PUSH2 0x1A06 JUMP JUMPDEST PUSH1 0x40 MLOAD DUP1 SWAP2 SUB SWAP1 REVERT JUMPDEST PUSH1 0x1 DUP4 PUSH1 0xFF AND LT ISZERO DUP1 ISZERO PUSH2 0xB1A JUMPI POP PUSH1 0x64 DUP4 PUSH1 0xFF AND GT ISZERO JUMPDEST PUSH2 0xB59 JUMPI PUSH1 0x40 MLOAD PUSH32 0x8C379A000000000000000000000000000000000000000000000000000000000 DUP2 MSTORE PUSH1 0x4 ADD PUSH2 0xB50 SWAP1 PUSH2 0x1A6E JUMP JUMPDEST PUSH1 0x40 MLOAD DUP1 SWAP2 SUB SWAP1 REVERT JUMPDEST PUSH1 0x1 DUP5 PUSH2 0xFFFF AND LT ISZERO DUP1 ISZERO PUSH2 0xB74 JUMPI POP PUSH2 0x3E8 DUP5 PUSH2 0xFFFF AND GT ISZERO JUMPDEST PUSH2 0xBB3 JUMPI PUSH1 0x40 MLOAD PUSH32 0x8C379A000000000000000000000000000000000000000000000000000000000 DUP2 MSTORE PUSH1 0x4 ADD PUSH2 0xBAA SWAP1 PUSH2 0x1AD6 JUMP JUMPDEST PUSH1 0x40 MLOAD DUP1 SWAP2 SUB SWAP1 REVERT JUMPDEST PUSH0 PUSH2 0xBC5 CALLVALUE PUSH7 0x470DE4DF820000 PUSH2 0x147D JUMP JUMPDEST SWAP1 POP DUP4 PUSH1 0xFF AND DUP6 PUSH2 0xBD6 SWAP2 SWAP1 PUSH2 0x1AF4 JUMP JUMPDEST PUSH2 0xFFFF AND DUP2 EQ PUSH2 0xC1B JUMPI PUSH1 0x40 MLOAD PUSH32 0x8C379A000000000000000000000000000000000000000000000000000000000 DUP2 MSTORE PUSH1 0x4 ADD PUSH2 0xC12 SWAP1 PUSH2 0x1B7A JUMP JUMPDEST PUSH1 0x40 MLOAD DUP1 SWAP2 SUB SWAP1 REVERT JUMPDEST PUSH0 JUMPDEST DUP6 PUSH2 0xFFFF AND DUP2 LT ISZERO PUSH2 0xD9E JUMPI PUSH0 PUSH1 0x40 MLOAD DUP1 PUSH1 0x60 ADD PUSH1 0x40 MSTORE DUP1 TIMESTAMP COINBASE CALLER DUP10 DUP1 PUSH2 0xC43 SWAP1 PUSH2 0x1B98 JUMP JUMPDEST SWAP11 POP PUSH1 0x40 MLOAD PUSH1 0x20 ADD PUSH2 0xC58 SWAP5 SWAP4 SWAP3 SWAP2 SWAP1 PUSH2 0x1CAE JUMP JUMPDEST PUSH1 0x40 MLOAD PUSH1 0x20 DUP2 DUP4 SUB SUB DUP2 MSTORE SWAP1 PUSH1 0x40 MSTORE DUP1 MLOAD SWAP1 PUSH1 0x20 ADD KECCAK256 DUP2 MSTORE PUSH1 0x20 ADD DUP8 PUSH1 0xFF AND DUP2 MSTORE PUSH1 0x20 ADD NUMBER PUSH31 0xFFFFFFFFFFFFFFFFFFFFFFFFFFFFFFFFFFFFFFFFFFFFFFFFFFFFFFFFFFFFFF AND DUP2 MSTORE POP SWAP1 POP PUSH1 0x9 PUSH0 CALLER PUSH20 0xFFFFFFFFFFFFFFFFFFFFFFFFFFFFFFFFFFFFFFFF AND PUSH20 0xFFFFFFFFFFFFFFFFFFFFFFFFFFFFFFFFFFFFFFFF AND DUP2 MSTORE PUSH1 0x20 ADD SWAP1 DUP2 MSTORE PUSH1 0x20 ADD PUSH0 KECCAK256 PUSH0 ADD DUP2 SWAP1 DUP1 PUSH1 0x1 DUP2 SLOAD ADD DUP1 DUP3 SSTORE DUP1 SWAP2 POP POP PUSH1 0x1 SWAP1 SUB SWAP1 PUSH0 MSTORE PUSH1 0x20 PUSH0 KECCAK256 SWAP1 PUSH1 0x2 MUL ADD PUSH0 SWAP1 SWAP2 SWAP1 SWAP2 SWAP1 SWAP2 POP PUSH0 DUP3 ADD MLOAD DUP2 PUSH0 ADD SSTORE PUSH1 0x20 DUP3 ADD MLOAD DUP2 PUSH1 0x1 ADD PUSH0 PUSH2 0x100 EXP DUP2 SLOAD DUP2 PUSH1 0xFF MUL NOT AND SWAP1 DUP4 PUSH1 0xFF AND MUL OR SWAP1 SSTORE POP PUSH1 0x40 DUP3 ADD MLOAD DUP2 PUSH1 0x1 ADD PUSH1 0x1 PUSH2 0x100 EXP DUP2 SLOAD DUP2 PUSH31 0xFFFFFFFFFFFFFFFFFFFFFFFFFFFFFFFFFFFFFFFFFFFFFFFFFFFFFFFFFFFFFF MUL NOT AND SWAP1 DUP4 PUSH31 0xFFFFFFFFFFFFFFFFFFFFFFFFFFFFFFFFFFFFFFFFFFFFFFFFFFFFFFFFFFFFFF AND MUL OR SWAP1 SSTORE POP POP POP POP DUP1 DUP1 PUSH1 0x1 ADD SWAP2 POP POP PUSH2 0xC1D JUMP JUMPDEST POP PUSH1 0x9 PUSH0 CALLER PUSH20 0xFFFFFFFFFFFFFFFFFFFFFFFFFFFFFFFFFFFFFFFF AND PUSH20 0xFFFFFFFFFFFFFFFFFFFFFFFFFFFFFFFFFFFFFFFF AND DUP2 MSTORE PUSH1 0x20 ADD SWAP1 DUP2 MSTORE PUSH1 0x20 ADD PUSH0 KECCAK256 PUSH1 0x3 ADD PUSH0 SWAP1 SLOAD SWAP1 PUSH2 0x100 EXP SWAP1 DIV PUSH1 0xFF AND PUSH2 0xE49 JUMPI PUSH1 0x1 PUSH1 0x9 PUSH0 CALLER PUSH20 0xFFFFFFFFFFFFFFFFFFFFFFFFFFFFFFFFFFFFFFFF AND PUSH20 0xFFFFFFFFFFFFFFFFFFFFFFFFFFFFFFFFFFFFFFFF AND DUP2 MSTORE PUSH1 0x20 ADD SWAP1 DUP2 MSTORE PUSH1 0x20 ADD PUSH0 KECCAK256 PUSH1 0x3 ADD PUSH0 PUSH2 0x100 EXP DUP2 SLOAD DUP2 PUSH1 0xFF MUL NOT AND SWAP1 DUP4 ISZERO ISZERO MUL OR SWAP1 SSTORE POP JUMPDEST PUSH0 PUSH2 0xE5F PUSH2 0xE58 CALLVALUE PUSH1 0x3 PUSH2 0x1438 JUMP JUMPDEST PUSH1 0x64 PUSH2 0x147D JUMP JUMPDEST SWAP1 POP PUSH0 PUSH2 0xE77 PUSH2 0xE70 CALLVALUE PUSH1 0x4 PUSH2 0x1438 JUMP JUMPDEST PUSH1 0x64 PUSH2 0x147D JUMP JUMPDEST SWAP1 POP DUP2 PUSH1 0x1 PUSH0 DUP3 DUP3 SLOAD PUSH2 0xE8A SWAP2 SWAP1 PUSH2 0x1989 JUMP JUMPDEST SWAP3 POP POP DUP2 SWAP1 SSTORE POP DUP2 PUSH1 0x5 PUSH0 DUP3 DUP3 SLOAD PUSH2 0xEA2 SWAP2 SWAP1 PUSH2 0x1989 JUMP JUMPDEST SWAP3 POP POP DUP2 SWAP1 SSTORE POP PUSH0 PUSH20 0xFFFFFFFFFFFFFFFFFFFFFFFFFFFFFFFFFFFFFFFF AND PUSH1 0xA PUSH0 CALLER PUSH20 0xFFFFFFFFFFFFFFFFFFFFFFFFFFFFFFFFFFFFFFFF AND PUSH20 0xFFFFFFFFFFFFFFFFFFFFFFFFFFFFFFFFFFFFFFFF AND DUP2 MSTORE PUSH1 0x20 ADD SWAP1 DUP2 MSTORE PUSH1 0x20 ADD PUSH0 KECCAK256 PUSH0 SWAP1 SLOAD SWAP1 PUSH2 0x100 EXP SWAP1 DIV PUSH20 0xFFFFFFFFFFFFFFFFFFFFFFFFFFFFFFFFFFFFFFFF AND PUSH20 0xFFFFFFFFFFFFFFFFFFFFFFFFFFFFFFFFFFFFFFFF AND SUB PUSH2 0x1233 JUMPI CALLER PUSH20 0xFFFFFFFFFFFFFFFFFFFFFFFFFFFFFFFFFFFFFFFF AND DUP5 PUSH20 0xFFFFFFFFFFFFFFFFFFFFFFFFFFFFFFFFFFFFFFFF AND EQ DUP1 PUSH2 0xF9D JUMPI POP PUSH0 PUSH20 0xFFFFFFFFFFFFFFFFFFFFFFFFFFFFFFFFFFFFFFFF AND DUP5 PUSH20 0xFFFFFFFFFFFFFFFFFFFFFFFFFFFFFFFFFFFFFFFF AND EQ JUMPDEST DUP1 PUSH2 0xFF2 JUMPI POP PUSH1 0x9 PUSH0 CALLER PUSH20 0xFFFFFFFFFFFFFFFFFFFFFFFFFFFFFFFFFFFFFFFF AND PUSH20 0xFFFFFFFFFFFFFFFFFFFFFFFFFFFFFFFFFFFFFFFF AND DUP2 MSTORE PUSH1 0x20 ADD SWAP1 DUP2 MSTORE PUSH1 0x20 ADD PUSH0 KECCAK256 PUSH1 0x3 ADD PUSH0 SWAP1 SLOAD SWAP1 PUSH2 0x100 EXP SWAP1 DIV PUSH1 0xFF AND ISZERO JUMPDEST ISZERO PUSH2 0x101A JUMPI PUSH0 DUP1 SLOAD SWAP1 PUSH2 0x100 EXP SWAP1 DIV PUSH20 0xFFFFFFFFFFFFFFFFFFFFFFFFFFFFFFFFFFFFFFFF AND SWAP4 POP JUMPDEST DUP4 PUSH1 0xA PUSH0 CALLER PUSH20 0xFFFFFFFFFFFFFFFFFFFFFFFFFFFFFFFFFFFFFFFF AND PUSH20 0xFFFFFFFFFFFFFFFFFFFFFFFFFFFFFFFFFFFFFFFF AND DUP2 MSTORE PUSH1 0x20 ADD SWAP1 DUP2 MSTORE PUSH1 0x20 ADD PUSH0 KECCAK256 PUSH0 PUSH2 0x100 EXP DUP2 SLOAD DUP2 PUSH20 0xFFFFFFFFFFFFFFFFFFFFFFFFFFFFFFFFFFFFFFFF MUL NOT AND SWAP1 DUP4 PUSH20 0xFFFFFFFFFFFFFFFFFFFFFFFFFFFFFFFFFFFFFFFF AND MUL OR SWAP1 SSTORE POP PUSH0 DUP1 SLOAD SWAP1 PUSH2 0x100 EXP SWAP1 DIV PUSH20 0xFFFFFFFFFFFFFFFFFFFFFFFFFFFFFFFFFFFFFFFF AND PUSH20 0xFFFFFFFFFFFFFFFFFFFFFFFFFFFFFFFFFFFFFFFF AND PUSH1 0xA PUSH0 CALLER PUSH20 0xFFFFFFFFFFFFFFFFFFFFFFFFFFFFFFFFFFFFFFFF AND PUSH20 0xFFFFFFFFFFFFFFFFFFFFFFFFFFFFFFFFFFFFFFFF AND DUP2 MSTORE PUSH1 0x20 ADD SWAP1 DUP2 MSTORE PUSH1 0x20 ADD PUSH0 KECCAK256 PUSH0 SWAP1 SLOAD SWAP1 PUSH2 0x100 EXP SWAP1 DIV PUSH20 0xFFFFFFFFFFFFFFFFFFFFFFFFFFFFFFFFFFFFFFFF AND PUSH20 0xFFFFFFFFFFFFFFFFFFFFFFFFFFFFFFFFFFFFFFFF AND SUB PUSH2 0x1160 JUMPI DUP1 PUSH1 0x1 PUSH0 DUP3 DUP3 SLOAD PUSH2 0x1154 SWAP2 SWAP1 PUSH2 0x1989 JUMP JUMPDEST SWAP3 POP POP DUP2 SWAP1 SSTORE POP PUSH2 0x122B JUMP JUMPDEST DUP1 PUSH1 0x9 PUSH0 PUSH1 0xA PUSH0 CALLER PUSH20 0xFFFFFFFFFFFFFFFFFFFFFFFFFFFFFFFFFFFFFFFF AND PUSH20 0xFFFFFFFFFFFFFFFFFFFFFFFFFFFFFFFFFFFFFFFF AND DUP2 MSTORE PUSH1 0x20 ADD SWAP1 DUP2 MSTORE PUSH1 0x20 ADD PUSH0 KECCAK256 PUSH0 SWAP1 SLOAD SWAP1 PUSH2 0x100 EXP SWAP1 DIV PUSH20 0xFFFFFFFFFFFFFFFFFFFFFFFFFFFFFFFFFFFFFFFF AND PUSH20 0xFFFFFFFFFFFFFFFFFFFFFFFFFFFFFFFFFFFFFFFF AND PUSH20 0xFFFFFFFFFFFFFFFFFFFFFFFFFFFFFFFFFFFFFFFF AND DUP2 MSTORE PUSH1 0x20 ADD SWAP1 DUP2 MSTORE PUSH1 0x20 ADD PUSH0 KECCAK256 PUSH1 0x2 ADD PUSH0 DUP3 DUP3 SLOAD PUSH2 0x120B SWAP2 SWAP1 PUSH2 0x1989 JUMP JUMPDEST SWAP3 POP POP DUP2 SWAP1 SSTORE POP DUP1 PUSH1 0x7 PUSH0 DUP3 DUP3 SLOAD PUSH2 0x1223 SWAP2 SWAP1 PUSH2 0x1989 JUMP JUMPDEST SWAP3 POP POP DUP2 SWAP1 SSTORE POP JUMPDEST TIMESTAMP PUSH1 0x8 DUP2 SWAP1 SSTORE POP JUMPDEST POP POP POP POP POP POP POP JUMP JUMPDEST PUSH1 0x5 SLOAD DUP2 JUMP JUMPDEST PUSH0 PUSH4 0x4000000 DUP3 PUSH4 0xFFFFFFFF AND GT ISZERO PUSH2 0x125D JUMPI PUSH0 SWAP1 POP PUSH2 0x1340 JUMP JUMPDEST PUSH4 0x1000000 DUP3 PUSH4 0xFFFFFFFF AND LT PUSH2 0x1277 JUMPI PUSH1 0xA SWAP1 POP PUSH2 0x1340 JUMP JUMPDEST PUSH3 0x400000 DUP3 PUSH4 0xFFFFFFFF AND LT PUSH2 0x1290 JUMPI PUSH1 0x9 SWAP1 POP PUSH2 0x1340 JUMP JUMPDEST PUSH3 0x100000 DUP3 PUSH4 0xFFFFFFFF AND LT PUSH2 0x12A9 JUMPI PUSH1 0x8 SWAP1 POP PUSH2 0x1340 JUMP JUMPDEST PUSH3 0x40000 DUP3 PUSH4 0xFFFFFFFF AND LT PUSH2 0x12C2 JUMPI PUSH1 0x7 SWAP1 POP PUSH2 0x1340 JUMP JUMPDEST PUSH3 0x10000 DUP3 PUSH4 0xFFFFFFFF AND LT PUSH2 0x12DB JUMPI PUSH1 0x6 SWAP1 POP PUSH2 0x1340 JUMP JUMPDEST PUSH2 0x4000 DUP3 PUSH4 0xFFFFFFFF AND LT PUSH2 0x12F3 JUMPI PUSH1 0x5 SWAP1 POP PUSH2 0x1340 JUMP JUMPDEST PUSH2 0x1000 DUP3 PUSH4 0xFFFFFFFF AND LT PUSH2 0x130B JUMPI PUSH1 0x4 SWAP1 POP PUSH2 0x1340 JUMP JUMPDEST PUSH2 0x400 DUP3 PUSH4 0xFFFFFFFF AND LT PUSH2 0x1323 JUMPI PUSH1 0x3 SWAP1 POP PUSH2 0x1340 JUMP JUMPDEST PUSH2 0x100 DUP3 PUSH4 0xFFFFFFFF AND LT PUSH2 0x133B JUMPI PUSH1 0x2 SWAP1 POP PUSH2 0x1340 JUMP JUMPDEST PUSH1 0x1 SWAP1 POP JUMPDEST SWAP2 SWAP1 POP JUMP JUMPDEST PUSH0 DUP1 DUP3 SUB PUSH2 0x1355 JUMPI PUSH0 SWAP1 POP PUSH2 0x140D JUMP JUMPDEST PUSH1 0xA DUP3 SUB PUSH2 0x1366 JUMPI PUSH1 0x5 SWAP1 POP PUSH2 0x140D JUMP JUMPDEST PUSH1 0x9 DUP3 SUB PUSH2 0x1377 JUMPI PUSH1 0x14 SWAP1 POP PUSH2 0x140D JUMP JUMPDEST PUSH1 0x8 DUP3 SUB PUSH2 0x1388 JUMPI PUSH1 0x50 SWAP1 POP PUSH2 0x140D JUMP JUMPDEST PUSH1 0x7 DUP3 SUB PUSH2 0x139A JUMPI PUSH2 0x140 SWAP1 POP PUSH2 0x140D JUMP JUMPDEST PUSH1 0x6 DUP3 SUB PUSH2 0x13AC JUMPI PUSH2 0x4B0 SWAP1 POP PUSH2 0x140D JUMP JUMPDEST PUSH1 0x5 DUP3 SUB PUSH2 0x13BE JUMPI PUSH2 0x12C0 SWAP1 POP PUSH2 0x140D JUMP JUMPDEST PUSH1 0x4 DUP3 SUB PUSH2 0x13D0 JUMPI PUSH2 0x4E20 SWAP1 POP PUSH2 0x140D JUMP JUMPDEST PUSH1 0x3 DUP3 SUB PUSH2 0x13E3 JUMPI PUSH3 0x186A0 SWAP1 POP PUSH2 0x140D JUMP JUMPDEST PUSH1 0x2 DUP3 SUB PUSH2 0x13F6 JUMPI PUSH3 0x7A120 SWAP1 POP PUSH2 0x140D JUMP JUMPDEST PUSH1 0x1 DUP3 SUB PUSH2 0x1409 JUMPI PUSH3 0x1E8480 SWAP1 POP PUSH2 0x140D JUMP JUMPDEST PUSH0 SWAP1 POP JUMPDEST SWAP2 SWAP1 POP JUMP JUMPDEST PUSH0 DUP3 DUP3 GT ISZERO PUSH2 0x1424 JUMPI PUSH2 0x1423 PUSH2 0x1CFB JUMP JUMPDEST JUMPDEST DUP2 DUP4 PUSH2 0x1430 SWAP2 SWAP1 PUSH2 0x182C JUMP JUMPDEST SWAP1 POP SWAP3 SWAP2 POP POP JUMP JUMPDEST PUSH0 DUP1 DUP4 SUB PUSH2 0x1448 JUMPI PUSH0 SWAP1 POP PUSH2 0x1477 JUMP JUMPDEST PUSH0 DUP3 DUP5 PUSH2 0x1455 SWAP2 SWAP1 PUSH2 0x1948 JUMP JUMPDEST SWAP1 POP DUP3 DUP5 DUP3 PUSH2 0x1464 SWAP2 SWAP1 PUSH2 0x1D55 JUMP JUMPDEST EQ PUSH2 0x1472 JUMPI PUSH2 0x1471 PUSH2 0x1CFB JUMP JUMPDEST JUMPDEST DUP1 SWAP2 POP POP JUMPDEST SWAP3 SWAP2 POP POP JUMP JUMPDEST PUSH0 DUP1 DUP3 GT PUSH2 0x148E JUMPI PUSH2 0x148D PUSH2 0x1CFB JUMP JUMPDEST JUMPDEST PUSH0 DUP3 DUP5 PUSH2 0x149B SWAP2 SWAP1 PUSH2 0x1D55 JUMP JUMPDEST SWAP1 POP DUP1 SWAP2 POP POP SWAP3 SWAP2 POP POP JUMP JUMPDEST POP DUP1 SLOAD PUSH0 DUP3 SSTORE SWAP1 PUSH0 MSTORE PUSH1 0x20 PUSH0 KECCAK256 SWAP1 DUP2 ADD SWAP1 PUSH2 0x14C2 SWAP2 SWAP1 PUSH2 0x14E6 JUMP JUMPDEST POP JUMP JUMPDEST POP DUP1 SLOAD PUSH0 DUP3 SSTORE PUSH1 0x2 MUL SWAP1 PUSH0 MSTORE PUSH1 0x20 PUSH0 KECCAK256 SWAP1 DUP2 ADD SWAP1 PUSH2 0x14E3 SWAP2 SWAP1 PUSH2 0x1525 JUMP JUMPDEST POP JUMP JUMPDEST JUMPDEST DUP1 DUP3 GT ISZERO PUSH2 0x1521 JUMPI PUSH0 DUP1 DUP3 ADD PUSH0 PUSH2 0x100 EXP DUP2 SLOAD SWAP1 PUSH4 0xFFFFFFFF MUL NOT AND SWAP1 SSTORE PUSH0 DUP3 ADD PUSH1 0x4 PUSH2 0x100 EXP DUP2 SLOAD SWAP1 PUSH1 0xFF MUL NOT AND SWAP1 SSTORE POP PUSH1 0x1 ADD PUSH2 0x14E7 JUMP JUMPDEST POP SWAP1 JUMP JUMPDEST JUMPDEST DUP1 DUP3 GT ISZERO PUSH2 0x1583 JUMPI PUSH0 DUP1 DUP3 ADD PUSH0 SWAP1 SSTORE PUSH1 0x1 DUP3 ADD PUSH0 PUSH2 0x100 EXP DUP2 SLOAD SWAP1 PUSH1 0xFF MUL NOT AND SWAP1 SSTORE PUSH1 0x1 DUP3 ADD PUSH1 0x1 PUSH2 0x100 EXP DUP2 SLOAD SWAP1 PUSH31 0xFFFFFFFFFFFFFFFFFFFFFFFFFFFFFFFFFFFFFFFFFFFFFFFFFFFFFFFFFFFFFF MUL NOT AND SWAP1 SSTORE POP PUSH1 0x2 ADD PUSH2 0x1526 JUMP JUMPDEST POP SWAP1 JUMP JUMPDEST PUSH0 PUSH20 0xFFFFFFFFFFFFFFFFFFFFFFFFFFFFFFFFFFFFFFFF DUP3 AND SWAP1 POP SWAP2 SWAP1 POP JUMP JUMPDEST PUSH0 PUSH2 0x15B0 DUP3 PUSH2 0x1587 JUMP JUMPDEST SWAP1 POP SWAP2 SWAP1 POP JUMP JUMPDEST PUSH2 0x15C0 DUP2 PUSH2 0x15A6 JUMP JUMPDEST DUP3 MSTORE POP POP JUMP JUMPDEST PUSH0 PUSH1 0x20 DUP3 ADD SWAP1 POP PUSH2 0x15D9 PUSH0 DUP4 ADD DUP5 PUSH2 0x15B7 JUMP JUMPDEST SWAP3 SWAP2 POP POP JUMP JUMPDEST PUSH0 DUP2 SWAP1 POP SWAP2 SWAP1 POP JUMP JUMPDEST PUSH2 0x15F1 DUP2 PUSH2 0x15DF JUMP JUMPDEST DUP3 MSTORE POP POP JUMP JUMPDEST PUSH0 PUSH1 0x20 DUP3 ADD SWAP1 POP PUSH2 0x160A PUSH0 DUP4 ADD DUP5 PUSH2 0x15E8 JUMP JUMPDEST SWAP3 SWAP2 POP POP JUMP JUMPDEST PUSH0 DUP1 REVERT JUMPDEST PUSH0 PUSH2 0xFFFF DUP3 AND SWAP1 POP SWAP2 SWAP1 POP JUMP JUMPDEST PUSH2 0x162A DUP2 PUSH2 0x1614 JUMP JUMPDEST DUP2 EQ PUSH2 0x1634 JUMPI PUSH0 DUP1 REVERT JUMPDEST POP JUMP JUMPDEST PUSH0 DUP2 CALLDATALOAD SWAP1 POP PUSH2 0x1645 DUP2 PUSH2 0x1621 JUMP JUMPDEST SWAP3 SWAP2 POP POP JUMP JUMPDEST PUSH0 PUSH1 0xFF DUP3 AND SWAP1 POP SWAP2 SWAP1 POP JUMP JUMPDEST PUSH2 0x1660 DUP2 PUSH2 0x164B JUMP JUMPDEST DUP2 EQ PUSH2 0x166A JUMPI PUSH0 DUP1 REVERT JUMPDEST POP JUMP JUMPDEST PUSH0 DUP2 CALLDATALOAD SWAP1 POP PUSH2 0x167B DUP2 PUSH2 0x1657 JUMP JUMPDEST SWAP3 SWAP2 POP POP JUMP JUMPDEST PUSH0 PUSH29 0xFFFFFFFFFFFFFFFFFFFFFFFFFFFFFFFFFFFFFFFFFFFFFFFFFFFFFFFFFF DUP3 AND SWAP1 POP SWAP2 SWAP1 POP JUMP JUMPDEST PUSH2 0x16B2 DUP2 PUSH2 0x1681 JUMP JUMPDEST DUP2 EQ PUSH2 0x16BC JUMPI PUSH0 DUP1 REVERT JUMPDEST POP JUMP JUMPDEST PUSH0 DUP2 CALLDATALOAD SWAP1 POP PUSH2 0x16CD DUP2 PUSH2 0x16A9 JUMP JUMPDEST SWAP3 SWAP2 POP POP JUMP JUMPDEST PUSH2 0x16DC DUP2 PUSH2 0x15A6 JUMP JUMPDEST DUP2 EQ PUSH2 0x16E6 JUMPI PUSH0 DUP1 REVERT JUMPDEST POP JUMP JUMPDEST PUSH0 DUP2 CALLDATALOAD SWAP1 POP PUSH2 0x16F7 DUP2 PUSH2 0x16D3 JUMP JUMPDEST SWAP3 SWAP2 POP POP JUMP JUMPDEST PUSH0 DUP1 PUSH0 DUP1 PUSH1 0x80 DUP6 DUP8 SUB SLT ISZERO PUSH2 0x1715 JUMPI PUSH2 0x1714 PUSH2 0x1610 JUMP JUMPDEST JUMPDEST PUSH0 PUSH2 0x1722 DUP8 DUP3 DUP9 ADD PUSH2 0x1637 JUMP JUMPDEST SWAP5 POP POP PUSH1 0x20 PUSH2 0x1733 DUP8 DUP3 DUP9 ADD PUSH2 0x166D JUMP JUMPDEST SWAP4 POP POP PUSH1 0x40 PUSH2 0x1744 DUP8 DUP3 DUP9 ADD PUSH2 0x16BF JUMP JUMPDEST SWAP3 POP POP PUSH1 0x60 PUSH2 0x1755 DUP8 DUP3 DUP9 ADD PUSH2 0x16E9 JUMP JUMPDEST SWAP2 POP POP SWAP3 SWAP6 SWAP2 SWAP5 POP SWAP3 POP JUMP JUMPDEST PUSH0 DUP3 DUP3 MSTORE PUSH1 0x20 DUP3 ADD SWAP1 POP SWAP3 SWAP2 POP POP JUMP JUMPDEST PUSH32 0x596F7520646F6E2774206861766520756E64726177206C6F7474657279207469 PUSH0 DUP3 ADD MSTORE PUSH32 0x636B657473000000000000000000000000000000000000000000000000000000 PUSH1 0x20 DUP3 ADD MSTORE POP JUMP JUMPDEST PUSH0 PUSH2 0x17CB PUSH1 0x25 DUP4 PUSH2 0x1761 JUMP JUMPDEST SWAP2 POP PUSH2 0x17D6 DUP3 PUSH2 0x1771 JUMP JUMPDEST PUSH1 0x40 DUP3 ADD SWAP1 POP SWAP2 SWAP1 POP JUMP JUMPDEST PUSH0 PUSH1 0x20 DUP3 ADD SWAP1 POP DUP2 DUP2 SUB PUSH0 DUP4 ADD MSTORE PUSH2 0x17F8 DUP2 PUSH2 0x17BF JUMP JUMPDEST SWAP1 POP SWAP2 SWAP1 POP JUMP JUMPDEST PUSH32 0x4E487B7100000000000000000000000000000000000000000000000000000000 PUSH0 MSTORE PUSH1 0x11 PUSH1 0x4 MSTORE PUSH1 0x24 PUSH0 REVERT JUMPDEST PUSH0 PUSH2 0x1836 DUP3 PUSH2 0x15DF JUMP JUMPDEST SWAP2 POP PUSH2 0x1841 DUP4 PUSH2 0x15DF JUMP JUMPDEST SWAP3 POP DUP3 DUP3 SUB SWAP1 POP DUP2 DUP2 GT ISZERO PUSH2 0x1859 JUMPI PUSH2 0x1858 PUSH2 0x17FF JUMP JUMPDEST JUMPDEST SWAP3 SWAP2 POP POP JUMP JUMPDEST PUSH32 0x4E487B7100000000000000000000000000000000000000000000000000000000 PUSH0 MSTORE PUSH1 0x32 PUSH1 0x4 MSTORE PUSH1 0x24 PUSH0 REVERT JUMPDEST PUSH32 0x49742773206E6F742074696D6500000000000000000000000000000000000000 PUSH0 DUP3 ADD MSTORE POP JUMP JUMPDEST PUSH0 PUSH2 0x18C0 PUSH1 0xD DUP4 PUSH2 0x1761 JUMP JUMPDEST SWAP2 POP PUSH2 0x18CB DUP3 PUSH2 0x188C JUMP JUMPDEST PUSH1 0x20 DUP3 ADD SWAP1 POP SWAP2 SWAP1 POP JUMP JUMPDEST PUSH0 PUSH1 0x20 DUP3 ADD SWAP1 POP DUP2 DUP2 SUB PUSH0 DUP4 ADD MSTORE PUSH2 0x18ED DUP2 PUSH2 0x18B4 JUMP JUMPDEST SWAP1 POP SWAP2 SWAP1 POP JUMP JUMPDEST PUSH0 DUP2 SWAP1 POP SWAP2 SWAP1 POP JUMP JUMPDEST PUSH0 DUP2 SWAP1 POP SWAP2 SWAP1 POP JUMP JUMPDEST PUSH2 0x1917 PUSH2 0x1912 DUP3 PUSH2 0x18F4 JUMP JUMPDEST PUSH2 0x18FD JUMP JUMPDEST DUP3 MSTORE POP POP JUMP JUMPDEST PUSH0 PUSH2 0x1928 DUP3 DUP6 PUSH2 0x1906 JUMP JUMPDEST PUSH1 0x20 DUP3 ADD SWAP2 POP PUSH2 0x1938 DUP3 DUP5 PUSH2 0x1906 JUMP JUMPDEST PUSH1 0x20 DUP3 ADD SWAP2 POP DUP2 SWAP1 POP SWAP4 SWAP3 POP POP POP JUMP JUMPDEST PUSH0 PUSH2 0x1952 DUP3 PUSH2 0x15DF JUMP JUMPDEST SWAP2 POP PUSH2 0x195D DUP4 PUSH2 0x15DF JUMP JUMPDEST SWAP3 POP DUP3 DUP3 MUL PUSH2 0x196B DUP2 PUSH2 0x15DF JUMP JUMPDEST SWAP2 POP DUP3 DUP3 DIV DUP5 EQ DUP4 ISZERO OR PUSH2 0x1982 JUMPI PUSH2 0x1981 PUSH2 0x17FF JUMP JUMPDEST JUMPDEST POP SWAP3 SWAP2 POP POP JUMP JUMPDEST PUSH0 PUSH2 0x1993 DUP3 PUSH2 0x15DF JUMP JUMPDEST SWAP2 POP PUSH2 0x199E DUP4 PUSH2 0x15DF JUMP JUMPDEST SWAP3 POP DUP3 DUP3 ADD SWAP1 POP DUP1 DUP3 GT ISZERO PUSH2 0x19B6 JUMPI PUSH2 0x19B5 PUSH2 0x17FF JUMP JUMPDEST JUMPDEST SWAP3 SWAP2 POP POP JUMP JUMPDEST PUSH32 0x427579206174206C65617374206F6E6520656767000000000000000000000000 PUSH0 DUP3 ADD MSTORE POP JUMP JUMPDEST PUSH0 PUSH2 0x19F0 PUSH1 0x14 DUP4 PUSH2 0x1761 JUMP JUMPDEST SWAP2 POP PUSH2 0x19FB DUP3 PUSH2 0x19BC JUMP JUMPDEST PUSH1 0x20 DUP3 ADD SWAP1 POP SWAP2 SWAP1 POP JUMP JUMPDEST PUSH0 PUSH1 0x20 DUP3 ADD SWAP1 POP DUP2 DUP2 SUB PUSH0 DUP4 ADD MSTORE PUSH2 0x1A1D DUP2 PUSH2 0x19E4 JUMP JUMPDEST SWAP1 POP SWAP2 SWAP1 POP JUMP JUMPDEST PUSH32 0x4D756C7469706C6573206265747765656E203120616E64203130300000000000 PUSH0 DUP3 ADD MSTORE POP JUMP JUMPDEST PUSH0 PUSH2 0x1A58 PUSH1 0x1B DUP4 PUSH2 0x1761 JUMP JUMPDEST SWAP2 POP PUSH2 0x1A63 DUP3 PUSH2 0x1A24 JUMP JUMPDEST PUSH1 0x20 DUP3 ADD SWAP1 POP SWAP2 SWAP1 POP JUMP JUMPDEST PUSH0 PUSH1 0x20 DUP3 ADD SWAP1 POP DUP2 DUP2 SUB PUSH0 DUP4 ADD MSTORE PUSH2 0x1A85 DUP2 PUSH2 0x1A4C JUMP JUMPDEST SWAP1 POP SWAP2 SWAP1 POP JUMP JUMPDEST PUSH32 0x4E756D626572206F662065676773206265747765656E203120616E6420313030 PUSH0 DUP3 ADD MSTORE POP JUMP JUMPDEST PUSH0 PUSH2 0x1AC0 PUSH1 0x20 DUP4 PUSH2 0x1761 JUMP JUMPDEST SWAP2 POP PUSH2 0x1ACB DUP3 PUSH2 0x1A8C JUMP JUMPDEST PUSH1 0x20 DUP3 ADD SWAP1 POP SWAP2 SWAP1 POP JUMP JUMPDEST PUSH0 PUSH1 0x20 DUP3 ADD SWAP1 POP DUP2 DUP2 SUB PUSH0 DUP4 ADD MSTORE PUSH2 0x1AED DUP2 PUSH2 0x1AB4 JUMP JUMPDEST SWAP1 POP SWAP2 SWAP1 POP JUMP JUMPDEST PUSH0 PUSH2 0x1AFE DUP3 PUSH2 0x1614 JUMP JUMPDEST SWAP2 POP PUSH2 0x1B09 DUP4 PUSH2 0x1614 JUMP JUMPDEST SWAP3 POP DUP3 DUP3 MUL PUSH2 0x1B17 DUP2 PUSH2 0x1614 JUMP JUMPDEST SWAP2 POP DUP1 DUP3 EQ PUSH2 0x1B29 JUMPI PUSH2 0x1B28 PUSH2 0x17FF JUMP JUMPDEST JUMPDEST POP SWAP3 SWAP2 POP POP JUMP JUMPDEST PUSH32 0x496E76616C696420646174610000000000000000000000000000000000000000 PUSH0 DUP3 ADD MSTORE POP JUMP JUMPDEST PUSH0 PUSH2 0x1B64 PUSH1 0xC DUP4 PUSH2 0x1761 JUMP JUMPDEST SWAP2 POP PUSH2 0x1B6F DUP3 PUSH2 0x1B30 JUMP JUMPDEST PUSH1 0x20 DUP3 ADD SWAP1 POP SWAP2 SWAP1 POP JUMP JUMPDEST PUSH0 PUSH1 0x20 DUP3 ADD SWAP1 POP DUP2 DUP2 SUB PUSH0 DUP4 ADD MSTORE PUSH2 0x1B91 DUP2 PUSH2 0x1B58 JUMP JUMPDEST SWAP1 POP SWAP2 SWAP1 POP JUMP JUMPDEST PUSH0 PUSH2 0x1BA2 DUP3 PUSH2 0x1681 JUMP JUMPDEST SWAP2 POP PUSH29 0xFFFFFFFFFFFFFFFFFFFFFFFFFFFFFFFFFFFFFFFFFFFFFFFFFFFFFFFFFF DUP3 SUB PUSH2 0x1BD1 JUMPI PUSH2 0x1BD0 PUSH2 0x17FF JUMP JUMPDEST JUMPDEST PUSH1 0x1 DUP3 ADD SWAP1 POP SWAP2 SWAP1 POP JUMP JUMPDEST PUSH0 DUP2 SWAP1 POP SWAP2 SWAP1 POP JUMP JUMPDEST PUSH2 0x1BF6 PUSH2 0x1BF1 DUP3 PUSH2 0x15DF JUMP JUMPDEST PUSH2 0x1BDC JUMP JUMPDEST DUP3 MSTORE POP POP JUMP JUMPDEST PUSH0 PUSH2 0x1C06 DUP3 PUSH2 0x1587 JUMP JUMPDEST SWAP1 POP SWAP2 SWAP1 POP JUMP JUMPDEST PUSH0 DUP2 PUSH1 0x60 SHL SWAP1 POP SWAP2 SWAP1 POP JUMP JUMPDEST PUSH0 PUSH2 0x1C23 DUP3 PUSH2 0x1C0D JUMP JUMPDEST SWAP1 POP SWAP2 SWAP1 POP JUMP JUMPDEST PUSH0 PUSH2 0x1C34 DUP3 PUSH2 0x1C19 JUMP JUMPDEST SWAP1 POP SWAP2 SWAP1 POP JUMP JUMPDEST PUSH2 0x1C4C PUSH2 0x1C47 DUP3 PUSH2 0x1BFC JUMP JUMPDEST PUSH2 0x1C2A JUMP JUMPDEST DUP3 MSTORE POP POP JUMP JUMPDEST PUSH0 PUSH2 0x1C5C DUP3 PUSH2 0x1C19 JUMP JUMPDEST SWAP1 POP SWAP2 SWAP1 POP JUMP JUMPDEST PUSH2 0x1C74 PUSH2 0x1C6F DUP3 PUSH2 0x15A6 JUMP JUMPDEST PUSH2 0x1C52 JUMP JUMPDEST DUP3 MSTORE POP POP JUMP JUMPDEST PUSH0 DUP2 PUSH1 0x18 SHL SWAP1 POP SWAP2 SWAP1 POP JUMP JUMPDEST PUSH0 PUSH2 0x1C90 DUP3 PUSH2 0x1C7A JUMP JUMPDEST SWAP1 POP SWAP2 SWAP1 POP JUMP JUMPDEST PUSH2 0x1CA8 PUSH2 0x1CA3 DUP3 PUSH2 0x1681 JUMP JUMPDEST PUSH2 0x1C86 JUMP JUMPDEST DUP3 MSTORE POP POP JUMP JUMPDEST PUSH0 PUSH2 0x1CB9 DUP3 DUP8 PUSH2 0x1BE5 JUMP JUMPDEST PUSH1 0x20 DUP3 ADD SWAP2 POP PUSH2 0x1CC9 DUP3 DUP7 PUSH2 0x1C3B JUMP JUMPDEST PUSH1 0x14 DUP3 ADD SWAP2 POP PUSH2 0x1CD9 DUP3 DUP6 PUSH2 0x1C63 JUMP JUMPDEST PUSH1 0x14 DUP3 ADD SWAP2 POP PUSH2 0x1CE9 DUP3 DUP5 PUSH2 0x1C97 JUMP JUMPDEST PUSH1 0x1D DUP3 ADD SWAP2 POP DUP2 SWAP1 POP SWAP6 SWAP5 POP POP POP POP POP JUMP JUMPDEST PUSH32 0x4E487B7100000000000000000000000000000000000000000000000000000000 PUSH0 MSTORE PUSH1 0x1 PUSH1 0x4 MSTORE PUSH1 0x24 PUSH0 REVERT JUMPDEST PUSH32 0x4E487B7100000000000000000000000000000000000000000000000000000000 PUSH0 MSTORE PUSH1 0x12 PUSH1 0x4 MSTORE PUSH1 0x24 PUSH0 REVERT JUMPDEST PUSH0 PUSH2 0x1D5F DUP3 PUSH2 0x15DF JUMP JUMPDEST SWAP2 POP PUSH2 0x1D6A DUP4 PUSH2 0x15DF JUMP JUMPDEST SWAP3 POP DUP3 PUSH2 0x1D7A JUMPI PUSH2 0x1D79 PUSH2 0x1D28 JUMP JUMPDEST JUMPDEST DUP3 DUP3 DIV SWAP1 POP SWAP3 SWAP2 POP POP JUMP INVALID LOG2 PUSH5 0x6970667358 0x22 SLT KECCAK256 0xC6 SWAP14 0xBB KECCAK256 OR PUSH16 0xB12F90447B7B546A30224DEE8310EA14 PC 0xE6 SWAP15 0xC5 RETURNDATASIZE XOR 0xB8 JUMPI CALLDATASIZE 0xC7 PUSH5 0x736F6C6343 STOP ADDMOD BYTE STOP CALLER "
				},
				"gasEstimates": {
					"creation": {
						"codeDepositCost": "1522200",
						"executionCost": "70078",
						"totalCost": "1592278"
					},
					"external": {
						"BuyEggs(uint16,uint8,uint232,address)": "infinite",
						"DevAddress()": "2505",
						"InvestorsProfit()": "2513",
						"OpenEggs()": "infinite",
						"RecentDividendTime()": "2469",
						"TotalInvestmentAmount()": "2447"
					},
					"internal": {
						"GetWinninggrade(uint32)": "331",
						"GetWinningmultiple(uint256)": "291",
						"SafeMathadd(uint256,uint256)": "infinite",
						"SafeMathdiv(uint256,uint256)": "infinite",
						"SafeMathmul(uint256,uint256)": "infinite",
						"SafeMathsub(uint256,uint256)": "infinite"
					}
				},
				"methodIdentifiers": {
					"BuyEggs(uint16,uint8,uint232,address)": "c9ea0299",
					"DevAddress()": "89a4c1a0",
					"InvestorsProfit()": "ca6aae29",
					"OpenEggs()": "7da384fd",
					"RecentDividendTime()": "b1c617ff",
					"TotalInvestmentAmount()": "a659f4dc"
				}
			},
			"storageLayout": {
				"storage": [
					{
						"astId": 56,
						"contract": "contracts/Lottery.sol:LotteryGame",
						"label": "DevAddress",
						"offset": 0,
						"slot": "0",
						"type": "t_address"
					},
					{
						"astId": 58,
						"contract": "contracts/Lottery.sol:LotteryGame",
						"label": "DevProfit",
						"offset": 0,
						"slot": "1",
						"type": "t_uint256"
					},
					{
						"astId": 61,
						"contract": "contracts/Lottery.sol:LotteryGame",
						"label": "investors",
						"offset": 0,
						"slot": "2",
						"type": "t_array(t_address)dyn_storage"
					},
					{
						"astId": 66,
						"contract": "contracts/Lottery.sol:LotteryGame",
						"label": "InvestorsBalance",
						"offset": 0,
						"slot": "3",
						"type": "t_mapping(t_address,t_struct(investorbalance)42_storage)"
					},
					{
						"astId": 68,
						"contract": "contracts/Lottery.sol:LotteryGame",
						"label": "TotalInvestmentAmount",
						"offset": 0,
						"slot": "4",
						"type": "t_uint256"
					},
					{
						"astId": 70,
						"contract": "contracts/Lottery.sol:LotteryGame",
						"label": "InvestorsProfit",
						"offset": 0,
						"slot": "5",
						"type": "t_uint256"
					},
					{
						"astId": 72,
						"contract": "contracts/Lottery.sol:LotteryGame",
						"label": "RecentDividendTime",
						"offset": 0,
						"slot": "6",
						"type": "t_uint256"
					},
					{
						"astId": 74,
						"contract": "contracts/Lottery.sol:LotteryGame",
						"label": "TotalReferralProfit",
						"offset": 0,
						"slot": "7",
						"type": "t_uint256"
					},
					{
						"astId": 76,
						"contract": "contracts/Lottery.sol:LotteryGame",
						"label": "LastBuyEggTime",
						"offset": 0,
						"slot": "8",
						"type": "t_uint256"
					},
					{
						"astId": 81,
						"contract": "contracts/Lottery.sol:LotteryGame",
						"label": "UsersInfo",
						"offset": 0,
						"slot": "9",
						"type": "t_mapping(t_address,t_struct(userinfo)26_storage)"
					},
					{
						"astId": 85,
						"contract": "contracts/Lottery.sol:LotteryGame",
						"label": "referrals",
						"offset": 0,
						"slot": "10",
						"type": "t_mapping(t_address,t_address)"
					},
					{
						"astId": 89,
						"contract": "contracts/Lottery.sol:LotteryGame",
						"label": "WinningRecord",
						"offset": 0,
						"slot": "11",
						"type": "t_array(t_struct(Winninginfo)35_storage)dyn_storage"
					}
				],
				"types": {
					"t_address": {
						"encoding": "inplace",
						"label": "address",
						"numberOfBytes": "20"
					},
					"t_array(t_address)dyn_storage": {
						"base": "t_address",
						"encoding": "dynamic_array",
						"label": "address[]",
						"numberOfBytes": "32"
					},
					"t_array(t_struct(Egginfo)8_storage)dyn_storage": {
						"base": "t_struct(Egginfo)8_storage",
						"encoding": "dynamic_array",
						"label": "struct LotteryGame.Egginfo[]",
						"numberOfBytes": "32"
					},
					"t_array(t_struct(OpenedLotInfo)13_storage)dyn_storage": {
						"base": "t_struct(OpenedLotInfo)13_storage",
						"encoding": "dynamic_array",
						"label": "struct LotteryGame.OpenedLotInfo[]",
						"numberOfBytes": "32"
					},
					"t_array(t_struct(Winninginfo)35_storage)dyn_storage": {
						"base": "t_struct(Winninginfo)35_storage",
						"encoding": "dynamic_array",
						"label": "struct LotteryGame.Winninginfo[]",
						"numberOfBytes": "32"
					},
					"t_bool": {
						"encoding": "inplace",
						"label": "bool",
						"numberOfBytes": "1"
					},
					"t_bytes32": {
						"encoding": "inplace",
						"label": "bytes32",
						"numberOfBytes": "32"
					},
					"t_mapping(t_address,t_address)": {
						"encoding": "mapping",
						"key": "t_address",
						"label": "mapping(address => address)",
						"numberOfBytes": "32",
						"value": "t_address"
					},
					"t_mapping(t_address,t_struct(investorbalance)42_storage)": {
						"encoding": "mapping",
						"key": "t_address",
						"label": "mapping(address => struct LotteryGame.investorbalance)",
						"numberOfBytes": "32",
						"value": "t_struct(investorbalance)42_storage"
					},
					"t_mapping(t_address,t_struct(userinfo)26_storage)": {
						"encoding": "mapping",
						"key": "t_address",
						"label": "mapping(address => struct LotteryGame.userinfo)",
						"numberOfBytes": "32",
						"value": "t_struct(userinfo)26_storage"
					},
					"t_struct(Egginfo)8_storage": {
						"encoding": "inplace",
						"label": "struct LotteryGame.Egginfo",
						"members": [
							{
								"astId": 3,
								"contract": "contracts/Lottery.sol:LotteryGame",
								"label": "uid",
								"offset": 0,
								"slot": "0",
								"type": "t_bytes32"
							},
							{
								"astId": 5,
								"contract": "contracts/Lottery.sol:LotteryGame",
								"label": "mul",
								"offset": 0,
								"slot": "1",
								"type": "t_uint8"
							},
							{
								"astId": 7,
								"contract": "contracts/Lottery.sol:LotteryGame",
								"label": "blocknumber",
								"offset": 1,
								"slot": "1",
								"type": "t_uint248"
							}
						],
						"numberOfBytes": "64"
					},
					"t_struct(OpenedLotInfo)13_storage": {
						"encoding": "inplace",
						"label": "struct LotteryGame.OpenedLotInfo",
						"members": [
							{
								"astId": 10,
								"contract": "contracts/Lottery.sol:LotteryGame",
								"label": "Lotterynum",
								"offset": 0,
								"slot": "0",
								"type": "t_uint32"
							},
							{
								"astId": 12,
								"contract": "contracts/Lottery.sol:LotteryGame",
								"label": "mul",
								"offset": 4,
								"slot": "0",
								"type": "t_uint8"
							}
						],
						"numberOfBytes": "32"
					},
					"t_struct(Winninginfo)35_storage": {
						"encoding": "inplace",
						"label": "struct LotteryGame.Winninginfo",
						"members": [
							{
								"astId": 28,
								"contract": "contracts/Lottery.sol:LotteryGame",
								"label": "LotteryNum",
								"offset": 0,
								"slot": "0",
								"type": "t_uint32"
							},
							{
								"astId": 30,
								"contract": "contracts/Lottery.sol:LotteryGame",
								"label": "mul",
								"offset": 4,
								"slot": "0",
								"type": "t_uint8"
							},
							{
								"astId": 32,
								"contract": "contracts/Lottery.sol:LotteryGame",
								"label": "timestamp",
								"offset": 0,
								"slot": "1",
								"type": "t_uint256"
							},
							{
								"astId": 34,
								"contract": "contracts/Lottery.sol:LotteryGame",
								"label": "winner",
								"offset": 0,
								"slot": "2",
								"type": "t_address"
							}
						],
						"numberOfBytes": "96"
					},
					"t_struct(investorbalance)42_storage": {
						"encoding": "inplace",
						"label": "struct LotteryGame.investorbalance",
						"members": [
							{
								"astId": 37,
								"contract": "contracts/Lottery.sol:LotteryGame",
								"label": "balance",
								"offset": 0,
								"slot": "0",
								"type": "t_uint256"
							},
							{
								"astId": 39,
								"contract": "contracts/Lottery.sol:LotteryGame",
								"label": "LastInvestTime",
								"offset": 0,
								"slot": "1",
								"type": "t_uint256"
							},
							{
								"astId": 41,
								"contract": "contracts/Lottery.sol:LotteryGame",
								"label": "HasInvested",
								"offset": 0,
								"slot": "2",
								"type": "t_bool"
							}
						],
						"numberOfBytes": "96"
					},
					"t_struct(userinfo)26_storage": {
						"encoding": "inplace",
						"label": "struct LotteryGame.userinfo",
						"members": [
							{
								"astId": 17,
								"contract": "contracts/Lottery.sol:LotteryGame",
								"label": "eggsinfo",
								"offset": 0,
								"slot": "0",
								"type": "t_array(t_struct(Egginfo)8_storage)dyn_storage"
							},
							{
								"astId": 21,
								"contract": "contracts/Lottery.sol:LotteryGame",
								"label": "openedeggs",
								"offset": 0,
								"slot": "1",
								"type": "t_array(t_struct(OpenedLotInfo)13_storage)dyn_storage"
							},
							{
								"astId": 23,
								"contract": "contracts/Lottery.sol:LotteryGame",
								"label": "ReferralProfit",
								"offset": 0,
								"slot": "2",
								"type": "t_uint256"
							},
							{
								"astId": 25,
								"contract": "contracts/Lottery.sol:LotteryGame",
								"label": "actived",
								"offset": 0,
								"slot": "3",
								"type": "t_bool"
							}
						],
						"numberOfBytes": "128"
					},
					"t_uint248": {
						"encoding": "inplace",
						"label": "uint248",
						"numberOfBytes": "31"
					},
					"t_uint256": {
						"encoding": "inplace",
						"label": "uint256",
						"numberOfBytes": "32"
					},
					"t_uint32": {
						"encoding": "inplace",
						"label": "uint32",
						"numberOfBytes": "4"
					},
					"t_uint8": {
						"encoding": "inplace",
						"label": "uint8",
						"numberOfBytes": "1"
					}
				}
			},
			"userdoc": {
				"kind": "user",
				"methods": {},
				"version": 1
			}
		}
	}
}