{
	"contracts/Lottery.sol": {
		"LotteryGame": {
			"abi": [
				{
					"inputs": [],
					"stateMutability": "nonpayable",
					"type": "constructor"
				},
				{
					"inputs": [
						{
							"internalType": "uint16",
							"name": "LotCount",
							"type": "uint16"
						},
						{
							"internalType": "uint8",
							"name": "mul",
							"type": "uint8"
						},
						{
							"internalType": "uint232",
							"name": "Lucknum",
							"type": "uint232"
						},
						{
							"internalType": "address",
							"name": "ref",
							"type": "address"
						}
					],
					"name": "BuyEggs",
					"outputs": [],
					"stateMutability": "payable",
					"type": "function"
				},
				{
					"inputs": [],
					"name": "DevAddress",
					"outputs": [
						{
							"internalType": "address",
							"name": "",
							"type": "address"
						}
					],
					"stateMutability": "view",
					"type": "function"
				},
				{
					"inputs": [],
					"name": "DeveloperWithdrawal",
					"outputs": [],
					"stateMutability": "nonpayable",
					"type": "function"
				},
				{
					"inputs": [],
					"name": "DistributeInvestmentIncome",
					"outputs": [],
					"stateMutability": "nonpayable",
					"type": "function"
				},
				{
					"inputs": [],
					"name": "InvestmentDeposit",
					"outputs": [],
					"stateMutability": "payable",
					"type": "function"
				},
				{
					"inputs": [
						{
							"internalType": "uint256",
							"name": "WithdrawalAmount",
							"type": "uint256"
						}
					],
					"name": "InvestmentWithdrawal",
					"outputs": [],
					"stateMutability": "nonpayable",
					"type": "function"
				},
				{
					"inputs": [],
					"name": "InvestorsProfit",
					"outputs": [
						{
							"internalType": "uint256",
							"name": "",
							"type": "uint256"
						}
					],
					"stateMutability": "view",
					"type": "function"
				},
				{
					"inputs": [],
					"name": "OpenEggs",
					"outputs": [],
					"stateMutability": "nonpayable",
					"type": "function"
				},
				{
					"inputs": [],
					"name": "RecentDividendTime",
					"outputs": [
						{
							"internalType": "uint256",
							"name": "",
							"type": "uint256"
						}
					],
					"stateMutability": "view",
					"type": "function"
				},
				{
					"inputs": [],
					"name": "TotalInvestmentAmount",
					"outputs": [
						{
							"internalType": "uint256",
							"name": "",
							"type": "uint256"
						}
					],
					"stateMutability": "view",
					"type": "function"
				},
				{
					"inputs": [],
					"name": "WithdrawReferralProfit",
					"outputs": [],
					"stateMutability": "nonpayable",
					"type": "function"
				}
			],
			"devdoc": {
				"kind": "dev",
				"methods": {},
				"version": 1
			},
			"evm": {
				"assembly": "    /* \"contracts/Lottery.sol\":70:16039  contract LotteryGame {... */\n  mstore(0x40, 0x80)\n    /* \"contracts/Lottery.sol\":2929:3071  constructor() {... */\n  callvalue\n  dup1\n  iszero\n  tag_1\n  jumpi\n  0x00\n  dup1\n  revert\ntag_1:\n  pop\n    /* \"contracts/Lottery.sol\":2966:2976  msg.sender */\n  caller\n    /* \"contracts/Lottery.sol\":2953:2963  DevAddress */\n  0x00\n  dup1\n    /* \"contracts/Lottery.sol\":2953:2976  DevAddress = msg.sender */\n  0x0100\n  exp\n  dup2\n  sload\n  dup2\n  0xffffffffffffffffffffffffffffffffffffffff\n  mul\n  not\n  and\n  swap1\n  dup4\n  0xffffffffffffffffffffffffffffffffffffffff\n  and\n  mul\n  or\n  swap1\n  sstore\n  pop\n    /* \"contracts/Lottery.sol\":3007:3022  block.timestamp */\n  timestamp\n    /* \"contracts/Lottery.sol\":2986:3004  RecentDividendTime */\n  0x06\n    /* \"contracts/Lottery.sol\":2986:3022  RecentDividendTime = block.timestamp */\n  dup2\n  swap1\n  sstore\n  pop\n    /* \"contracts/Lottery.sol\":3049:3064  block.timestamp */\n  timestamp\n    /* \"contracts/Lottery.sol\":3032:3046  LastBuyEggTime */\n  0x08\n    /* \"contracts/Lottery.sol\":3032:3064  LastBuyEggTime = block.timestamp */\n  dup2\n  swap1\n  sstore\n  pop\n    /* \"contracts/Lottery.sol\":70:16039  contract LotteryGame {... */\n  dataSize(sub_0)\n  dup1\n  dataOffset(sub_0)\n  0x00\n  codecopy\n  0x00\n  return\nstop\n\nsub_0: assembly {\n        /* \"contracts/Lottery.sol\":70:16039  contract LotteryGame {... */\n      mstore(0x40, 0x80)\n      jumpi(tag_1, lt(calldatasize, 0x04))\n      shr(0xe0, calldataload(0x00))\n      dup1\n      0xa659f4dc\n      gt\n      tag_13\n      jumpi\n      dup1\n      0xa659f4dc\n      eq\n      tag_7\n      jumpi\n      dup1\n      0xb1c617ff\n      eq\n      tag_8\n      jumpi\n      dup1\n      0xc9ea0299\n      eq\n      tag_9\n      jumpi\n      dup1\n      0xca6aae29\n      eq\n      tag_10\n      jumpi\n      dup1\n      0xdd5f6f4d\n      eq\n      tag_11\n      jumpi\n      dup1\n      0xf4e79b5b\n      eq\n      tag_12\n      jumpi\n      jump(tag_1)\n    tag_13:\n      dup1\n      0x12db1357\n      eq\n      tag_2\n      jumpi\n      dup1\n      0x22629256\n      eq\n      tag_3\n      jumpi\n      dup1\n      0x49821332\n      eq\n      tag_4\n      jumpi\n      dup1\n      0x7da384fd\n      eq\n      tag_5\n      jumpi\n      dup1\n      0x89a4c1a0\n      eq\n      tag_6\n      jumpi\n    tag_1:\n      0x00\n      dup1\n      revert\n        /* \"contracts/Lottery.sol\":13714:15297  function DistributeInvestmentIncome() external {... */\n    tag_2:\n      callvalue\n      dup1\n      iszero\n      tag_14\n      jumpi\n      0x00\n      dup1\n      revert\n    tag_14:\n      pop\n      tag_15\n      tag_16\n      jump\t// in\n    tag_15:\n      stop\n        /* \"contracts/Lottery.sol\":15332:15771  function WithdrawReferralProfit() external {... */\n    tag_3:\n      callvalue\n      dup1\n      iszero\n      tag_17\n      jumpi\n      0x00\n      dup1\n      revert\n    tag_17:\n      pop\n      tag_18\n      tag_19\n      jump\t// in\n    tag_18:\n      stop\n        /* \"contracts/Lottery.sol\":11279:12272  function InvestmentDeposit() external payable {... */\n    tag_4:\n      tag_20\n      tag_21\n      jump\t// in\n    tag_20:\n      stop\n        /* \"contracts/Lottery.sol\":7857:11250  function OpenEggs() external {... */\n    tag_5:\n      callvalue\n      dup1\n      iszero\n      tag_22\n      jumpi\n      0x00\n      dup1\n      revert\n    tag_22:\n      pop\n      tag_23\n      tag_24\n      jump\t// in\n    tag_23:\n      stop\n        /* \"contracts/Lottery.sol\":1699:1724  address public DevAddress */\n    tag_6:\n      callvalue\n      dup1\n      iszero\n      tag_25\n      jumpi\n      0x00\n      dup1\n      revert\n    tag_25:\n      pop\n      tag_26\n      tag_27\n      jump\t// in\n    tag_26:\n      mload(0x40)\n      tag_28\n      swap2\n      swap1\n      tag_29\n      jump\t// in\n    tag_28:\n      mload(0x40)\n      dup1\n      swap2\n      sub\n      swap1\n      return\n        /* \"contracts/Lottery.sol\":2079:2115  uint256 public TotalInvestmentAmount */\n    tag_7:\n      callvalue\n      dup1\n      iszero\n      tag_30\n      jumpi\n      0x00\n      dup1\n      revert\n    tag_30:\n      pop\n      tag_31\n      tag_32\n      jump\t// in\n    tag_31:\n      mload(0x40)\n      tag_33\n      swap2\n      swap1\n      tag_34\n      jump\t// in\n    tag_33:\n      mload(0x40)\n      dup1\n      swap2\n      sub\n      swap1\n      return\n        /* \"contracts/Lottery.sol\":2239:2272  uint256 public RecentDividendTime */\n    tag_8:\n      callvalue\n      dup1\n      iszero\n      tag_35\n      jumpi\n      0x00\n      dup1\n      revert\n    tag_35:\n      pop\n      tag_36\n      tag_37\n      jump\t// in\n    tag_36:\n      mload(0x40)\n      tag_38\n      swap2\n      swap1\n      tag_34\n      jump\t// in\n    tag_38:\n      mload(0x40)\n      dup1\n      swap2\n      sub\n      swap1\n      return\n        /* \"contracts/Lottery.sol\":4155:6544  function BuyEggs(... */\n    tag_9:\n      tag_39\n      0x04\n      dup1\n      calldatasize\n      sub\n      dup2\n      add\n      swap1\n      tag_40\n      swap2\n      swap1\n      tag_41\n      jump\t// in\n    tag_40:\n      tag_42\n      jump\t// in\n    tag_39:\n      stop\n        /* \"contracts/Lottery.sol\":2170:2200  uint256 public InvestorsProfit */\n    tag_10:\n      callvalue\n      dup1\n      iszero\n      tag_43\n      jumpi\n      0x00\n      dup1\n      revert\n    tag_43:\n      pop\n      tag_44\n      tag_45\n      jump\t// in\n    tag_44:\n      mload(0x40)\n      tag_46\n      swap2\n      swap1\n      tag_34\n      jump\t// in\n    tag_46:\n      mload(0x40)\n      dup1\n      swap2\n      sub\n      swap1\n      return\n        /* \"contracts/Lottery.sol\":12301:13685  function InvestmentWithdrawal(uint256 WithdrawalAmount) external {... */\n    tag_11:\n      callvalue\n      dup1\n      iszero\n      tag_47\n      jumpi\n      0x00\n      dup1\n      revert\n    tag_47:\n      pop\n      tag_48\n      0x04\n      dup1\n      calldatasize\n      sub\n      dup2\n      add\n      swap1\n      tag_49\n      swap2\n      swap1\n      tag_50\n      jump\t// in\n    tag_49:\n      tag_51\n      jump\t// in\n    tag_48:\n      stop\n        /* \"contracts/Lottery.sol\":15806:16037  function DeveloperWithdrawal() external {... */\n    tag_12:\n      callvalue\n      dup1\n      iszero\n      tag_52\n      jumpi\n      0x00\n      dup1\n      revert\n    tag_52:\n      pop\n      tag_53\n      tag_54\n      jump\t// in\n    tag_53:\n      stop\n        /* \"contracts/Lottery.sol\":13714:15297  function DistributeInvestmentIncome() external {... */\n    tag_16:\n        /* \"contracts/Lottery.sol\":1547:1554  1 ether */\n      0x0de0b6b3a7640000\n        /* \"contracts/Lottery.sol\":13883:13899  InvestorsBalance */\n      0x03\n        /* \"contracts/Lottery.sol\":13883:13911  InvestorsBalance[msg.sender] */\n      0x00\n        /* \"contracts/Lottery.sol\":13900:13910  msg.sender */\n      caller\n        /* \"contracts/Lottery.sol\":13883:13911  InvestorsBalance[msg.sender] */\n      0xffffffffffffffffffffffffffffffffffffffff\n      and\n      0xffffffffffffffffffffffffffffffffffffffff\n      and\n      dup2\n      mstore\n      0x20\n      add\n      swap1\n      dup2\n      mstore\n      0x20\n      add\n      0x00\n      keccak256\n        /* \"contracts/Lottery.sol\":13883:13919  InvestorsBalance[msg.sender].balance */\n      0x00\n      add\n      sload\n        /* \"contracts/Lottery.sol\":13883:13948  InvestorsBalance[msg.sender].balance >= Mininum_Investment_amount */\n      lt\n      iszero\n        /* \"contracts/Lottery.sol\":13883:13992  InvestorsBalance[msg.sender].balance >= Mininum_Investment_amount ||... */\n      dup1\n      tag_56\n      jumpi\n      pop\n        /* \"contracts/Lottery.sol\":13982:13992  DevAddress */\n      0x00\n      dup1\n      sload\n      swap1\n      0x0100\n      exp\n      swap1\n      div\n      0xffffffffffffffffffffffffffffffffffffffff\n      and\n        /* \"contracts/Lottery.sol\":13968:13992  msg.sender == DevAddress */\n      0xffffffffffffffffffffffffffffffffffffffff\n      and\n        /* \"contracts/Lottery.sol\":13968:13978  msg.sender */\n      caller\n        /* \"contracts/Lottery.sol\":13968:13992  msg.sender == DevAddress */\n      0xffffffffffffffffffffffffffffffffffffffff\n      and\n      eq\n        /* \"contracts/Lottery.sol\":13883:13992  InvestorsBalance[msg.sender].balance >= Mininum_Investment_amount ||... */\n    tag_56:\n        /* \"contracts/Lottery.sol\":13862:14040  require(... */\n      tag_57\n      jumpi\n      mload(0x40)\n      0x08c379a000000000000000000000000000000000000000000000000000000000\n      dup2\n      mstore\n      0x04\n      add\n      tag_58\n      swap1\n      tag_59\n      jump\t// in\n    tag_58:\n      mload(0x40)\n      dup1\n      swap2\n      sub\n      swap1\n      revert\n    tag_57:\n        /* \"contracts/Lottery.sol\":14051:14077  uint256 Tmpinvestorsprofit */\n      0x00\n        /* \"contracts/Lottery.sol\":14080:14095  InvestorsProfit */\n      sload(0x05)\n        /* \"contracts/Lottery.sol\":14051:14095  uint256 Tmpinvestorsprofit = InvestorsProfit */\n      swap1\n      pop\n        /* \"contracts/Lottery.sol\":14105:14127  uint256 developeraward */\n      0x00\n        /* \"contracts/Lottery.sol\":14210:14227  uint256 prizepool */\n      dup1\n        /* \"contracts/Lottery.sol\":14230:14351  SafeMathsub(... */\n      tag_60\n        /* \"contracts/Lottery.sol\":14255:14276  address(this).balance */\n      selfbalance\n        /* \"contracts/Lottery.sol\":14331:14340  DevProfit */\n      sload(0x01)\n        /* \"contracts/Lottery.sol\":14309:14328  TotalReferralProfit */\n      sload(0x07)\n        /* \"contracts/Lottery.sol\":14291:14306  InvestorsProfit */\n      sload(0x05)\n        /* \"contracts/Lottery.sol\":14291:14328  InvestorsProfit + TotalReferralProfit */\n      tag_61\n      swap2\n      swap1\n      tag_62\n      jump\t// in\n    tag_61:\n        /* \"contracts/Lottery.sol\":14291:14340  InvestorsProfit + TotalReferralProfit + DevProfit */\n      tag_63\n      swap2\n      swap1\n      tag_62\n      jump\t// in\n    tag_63:\n        /* \"contracts/Lottery.sol\":14230:14241  SafeMathsub */\n      tag_64\n        /* \"contracts/Lottery.sol\":14230:14351  SafeMathsub(... */\n      jump\t// in\n    tag_60:\n        /* \"contracts/Lottery.sol\":14210:14351  uint256 prizepool = SafeMathsub(... */\n      swap1\n      pop\n        /* \"contracts/Lottery.sol\":1438:1449  10000 ether */\n      0x021e19e0c9bab2400000\n        /* \"contracts/Lottery.sol\":14366:14375  prizepool */\n      dup2\n        /* \"contracts/Lottery.sol\":14366:14402  prizepool >= Maxinum_Investment_pool */\n      lt\n        /* \"contracts/Lottery.sol\":14362:14513  if (prizepool >= Maxinum_Investment_pool) {... */\n      tag_65\n      jumpi\n        /* \"contracts/Lottery.sol\":14452:14455  200 */\n      0xc8\n        /* \"contracts/Lottery.sol\":14440:14449  prizepool */\n      dup2\n        /* \"contracts/Lottery.sol\":14440:14455  prizepool / 200 */\n      tag_66\n      swap2\n      swap1\n      tag_67\n      jump\t// in\n    tag_66:\n        /* \"contracts/Lottery.sol\":14418:14455  Tmpinvestorsprofit += prizepool / 200 */\n      dup4\n      tag_68\n      swap2\n      swap1\n      tag_62\n      jump\t// in\n    tag_68:\n      swap3\n      pop\n        /* \"contracts/Lottery.sol\":14499:14502  200 */\n      0xc8\n        /* \"contracts/Lottery.sol\":14487:14496  prizepool */\n      dup2\n        /* \"contracts/Lottery.sol\":14487:14502  prizepool / 200 */\n      tag_69\n      swap2\n      swap1\n      tag_67\n      jump\t// in\n    tag_69:\n        /* \"contracts/Lottery.sol\":14469:14502  developeraward += prizepool / 200 */\n      dup3\n      tag_70\n      swap2\n      swap1\n      tag_62\n      jump\t// in\n    tag_70:\n      swap2\n      pop\n        /* \"contracts/Lottery.sol\":14362:14513  if (prizepool >= Maxinum_Investment_pool) {... */\n    tag_65:\n        /* \"contracts/Lottery.sol\":14540:14541  0 */\n      0x00\n        /* \"contracts/Lottery.sol\":14522:14537  InvestorsProfit */\n      0x05\n        /* \"contracts/Lottery.sol\":14522:14541  InvestorsProfit = 0 */\n      dup2\n      swap1\n      sstore\n      pop\n        /* \"contracts/Lottery.sol\":14557:14566  uint256 i */\n      0x00\n        /* \"contracts/Lottery.sol\":14552:15188  for (uint256 i = 0; i < investors.length; i++) {... */\n    tag_71:\n        /* \"contracts/Lottery.sol\":14576:14585  investors */\n      0x02\n        /* \"contracts/Lottery.sol\":14576:14592  investors.length */\n      dup1\n      sload\n      swap1\n      pop\n        /* \"contracts/Lottery.sol\":14572:14573  i */\n      dup2\n        /* \"contracts/Lottery.sol\":14572:14592  i < investors.length */\n      lt\n        /* \"contracts/Lottery.sol\":14552:15188  for (uint256 i = 0; i < investors.length; i++) {... */\n      iszero\n      tag_72\n      jumpi\n        /* \"contracts/Lottery.sol\":1547:1554  1 ether */\n      0x0de0b6b3a7640000\n        /* \"contracts/Lottery.sol\":14634:14650  InvestorsBalance */\n      0x03\n        /* \"contracts/Lottery.sol\":14634:14664  InvestorsBalance[investors[i]] */\n      0x00\n        /* \"contracts/Lottery.sol\":14651:14660  investors */\n      0x02\n        /* \"contracts/Lottery.sol\":14661:14662  i */\n      dup5\n        /* \"contracts/Lottery.sol\":14651:14663  investors[i] */\n      dup2\n      sload\n      dup2\n      lt\n      tag_74\n      jumpi\n      tag_75\n      tag_76\n      jump\t// in\n    tag_75:\n    tag_74:\n      swap1\n      0x00\n      mstore\n      keccak256(0x00, 0x20)\n      add\n      0x00\n      swap1\n      sload\n      swap1\n      0x0100\n      exp\n      swap1\n      div\n      0xffffffffffffffffffffffffffffffffffffffff\n      and\n        /* \"contracts/Lottery.sol\":14634:14664  InvestorsBalance[investors[i]] */\n      0xffffffffffffffffffffffffffffffffffffffff\n      and\n      0xffffffffffffffffffffffffffffffffffffffff\n      and\n      dup2\n      mstore\n      0x20\n      add\n      swap1\n      dup2\n      mstore\n      0x20\n      add\n      0x00\n      keccak256\n        /* \"contracts/Lottery.sol\":14634:14672  InvestorsBalance[investors[i]].balance */\n      0x00\n      add\n      sload\n        /* \"contracts/Lottery.sol\":14634:14717  InvestorsBalance[investors[i]].balance >=... */\n      lt\n        /* \"contracts/Lottery.sol\":14613:15178  if (... */\n      tag_78\n      jumpi\n        /* \"contracts/Lottery.sol\":14830:14856  uint256 thisinvestorprofit */\n      0x00\n        /* \"contracts/Lottery.sol\":14859:15094  SafeMathdiv(... */\n      tag_79\n        /* \"contracts/Lottery.sol\":14892:15033  SafeMathmul(... */\n      tag_80\n        /* \"contracts/Lottery.sol\":14929:14945  InvestorsBalance */\n      0x03\n        /* \"contracts/Lottery.sol\":14929:14959  InvestorsBalance[investors[i]] */\n      0x00\n        /* \"contracts/Lottery.sol\":14946:14955  investors */\n      0x02\n        /* \"contracts/Lottery.sol\":14956:14957  i */\n      dup7\n        /* \"contracts/Lottery.sol\":14946:14958  investors[i] */\n      dup2\n      sload\n      dup2\n      lt\n      tag_81\n      jumpi\n      tag_82\n      tag_76\n      jump\t// in\n    tag_82:\n    tag_81:\n      swap1\n      0x00\n      mstore\n      keccak256(0x00, 0x20)\n      add\n      0x00\n      swap1\n      sload\n      swap1\n      0x0100\n      exp\n      swap1\n      div\n      0xffffffffffffffffffffffffffffffffffffffff\n      and\n        /* \"contracts/Lottery.sol\":14929:14959  InvestorsBalance[investors[i]] */\n      0xffffffffffffffffffffffffffffffffffffffff\n      and\n      0xffffffffffffffffffffffffffffffffffffffff\n      and\n      dup2\n      mstore\n      0x20\n      add\n      swap1\n      dup2\n      mstore\n      0x20\n      add\n      0x00\n      keccak256\n        /* \"contracts/Lottery.sol\":14929:14967  InvestorsBalance[investors[i]].balance */\n      0x00\n      add\n      sload\n        /* \"contracts/Lottery.sol\":14993:15011  Tmpinvestorsprofit */\n      dup8\n        /* \"contracts/Lottery.sol\":14892:14903  SafeMathmul */\n      tag_84\n        /* \"contracts/Lottery.sol\":14892:15033  SafeMathmul(... */\n      jump\t// in\n    tag_80:\n        /* \"contracts/Lottery.sol\":15055:15076  TotalInvestmentAmount */\n      sload(0x04)\n        /* \"contracts/Lottery.sol\":14859:14870  SafeMathdiv */\n      tag_85\n        /* \"contracts/Lottery.sol\":14859:15094  SafeMathdiv(... */\n      jump\t// in\n    tag_79:\n        /* \"contracts/Lottery.sol\":14830:15094  uint256 thisinvestorprofit = SafeMathdiv(... */\n      swap1\n      pop\n        /* \"contracts/Lottery.sol\":15121:15130  investors */\n      0x02\n        /* \"contracts/Lottery.sol\":15131:15132  i */\n      dup3\n        /* \"contracts/Lottery.sol\":15121:15133  investors[i] */\n      dup2\n      sload\n      dup2\n      lt\n      tag_86\n      jumpi\n      tag_87\n      tag_76\n      jump\t// in\n    tag_87:\n    tag_86:\n      swap1\n      0x00\n      mstore\n      keccak256(0x00, 0x20)\n      add\n      0x00\n      swap1\n      sload\n      swap1\n      0x0100\n      exp\n      swap1\n      div\n      0xffffffffffffffffffffffffffffffffffffffff\n      and\n        /* \"contracts/Lottery.sol\":15113:15143  payable(investors[i]).transfer */\n      0xffffffffffffffffffffffffffffffffffffffff\n      and\n        /* \"contracts/Lottery.sol\":15113:15163  payable(investors[i]).transfer(thisinvestorprofit) */\n      0x08fc\n        /* \"contracts/Lottery.sol\":15144:15162  thisinvestorprofit */\n      dup3\n        /* \"contracts/Lottery.sol\":15113:15163  payable(investors[i]).transfer(thisinvestorprofit) */\n      swap1\n      dup2\n      iszero\n      mul\n      swap1\n      mload(0x40)\n      0x00\n      mload(0x40)\n      dup1\n      dup4\n      sub\n      dup2\n      dup6\n      dup9\n      dup9\n      call\n      swap4\n      pop\n      pop\n      pop\n      pop\n      iszero\n      dup1\n      iszero\n      tag_90\n      jumpi\n      returndatasize\n      0x00\n      dup1\n      returndatacopy\n      revert(0x00, returndatasize)\n    tag_90:\n      pop\n        /* \"contracts/Lottery.sol\":14732:15178  {... */\n      pop\n        /* \"contracts/Lottery.sol\":14613:15178  if (... */\n    tag_78:\n        /* \"contracts/Lottery.sol\":14594:14597  i++ */\n      dup1\n      dup1\n      0x01\n      add\n      swap2\n      pop\n      pop\n        /* \"contracts/Lottery.sol\":14552:15188  for (uint256 i = 0; i < investors.length; i++) {... */\n      jump(tag_71)\n    tag_72:\n      pop\n        /* \"contracts/Lottery.sol\":15219:15220  0 */\n      0x00\n        /* \"contracts/Lottery.sol\":15202:15216  developeraward */\n      dup3\n        /* \"contracts/Lottery.sol\":15202:15220  developeraward > 0 */\n      gt\n        /* \"contracts/Lottery.sol\":15198:15291  if (developeraward > 0) {... */\n      iszero\n      tag_91\n      jumpi\n        /* \"contracts/Lottery.sol\":15244:15254  DevAddress */\n      0x00\n      dup1\n      sload\n      swap1\n      0x0100\n      exp\n      swap1\n      div\n      0xffffffffffffffffffffffffffffffffffffffff\n      and\n        /* \"contracts/Lottery.sol\":15236:15264  payable(DevAddress).transfer */\n      0xffffffffffffffffffffffffffffffffffffffff\n      and\n        /* \"contracts/Lottery.sol\":15236:15280  payable(DevAddress).transfer(developeraward) */\n      0x08fc\n        /* \"contracts/Lottery.sol\":15265:15279  developeraward */\n      dup4\n        /* \"contracts/Lottery.sol\":15236:15280  payable(DevAddress).transfer(developeraward) */\n      swap1\n      dup2\n      iszero\n      mul\n      swap1\n      mload(0x40)\n      0x00\n      mload(0x40)\n      dup1\n      dup4\n      sub\n      dup2\n      dup6\n      dup9\n      dup9\n      call\n      swap4\n      pop\n      pop\n      pop\n      pop\n      iszero\n      dup1\n      iszero\n      tag_93\n      jumpi\n      returndatasize\n      0x00\n      dup1\n      returndatacopy\n      revert(0x00, returndatasize)\n    tag_93:\n      pop\n        /* \"contracts/Lottery.sol\":15198:15291  if (developeraward > 0) {... */\n    tag_91:\n        /* \"contracts/Lottery.sol\":13761:15297  {... */\n      pop\n      pop\n      pop\n        /* \"contracts/Lottery.sol\":13714:15297  function DistributeInvestmentIncome() external {... */\n      jump\t// out\n        /* \"contracts/Lottery.sol\":15332:15771  function WithdrawReferralProfit() external {... */\n    tag_19:\n        /* \"contracts/Lottery.sol\":15498:15508  0.01 ether */\n      0x2386f26fc10000\n        /* \"contracts/Lottery.sol\":15458:15467  UsersInfo */\n      0x09\n        /* \"contracts/Lottery.sol\":15458:15479  UsersInfo[msg.sender] */\n      0x00\n        /* \"contracts/Lottery.sol\":15468:15478  msg.sender */\n      caller\n        /* \"contracts/Lottery.sol\":15458:15479  UsersInfo[msg.sender] */\n      0xffffffffffffffffffffffffffffffffffffffff\n      and\n      0xffffffffffffffffffffffffffffffffffffffff\n      and\n      dup2\n      mstore\n      0x20\n      add\n      swap1\n      dup2\n      mstore\n      0x20\n      add\n      0x00\n      keccak256\n        /* \"contracts/Lottery.sol\":15458:15494  UsersInfo[msg.sender].ReferralProfit */\n      0x02\n      add\n      sload\n        /* \"contracts/Lottery.sol\":15458:15508  UsersInfo[msg.sender].ReferralProfit >= 0.01 ether */\n      lt\n      iszero\n        /* \"contracts/Lottery.sol\":15437:15564  require(... */\n      tag_95\n      jumpi\n      mload(0x40)\n      0x08c379a000000000000000000000000000000000000000000000000000000000\n      dup2\n      mstore\n      0x04\n      add\n      tag_96\n      swap1\n      tag_97\n      jump\t// in\n    tag_96:\n      mload(0x40)\n      dup1\n      swap2\n      sub\n      swap1\n      revert\n    tag_95:\n        /* \"contracts/Lottery.sol\":15575:15589  uint256 profit */\n      0x00\n        /* \"contracts/Lottery.sol\":15592:15601  UsersInfo */\n      0x09\n        /* \"contracts/Lottery.sol\":15592:15613  UsersInfo[msg.sender] */\n      0x00\n        /* \"contracts/Lottery.sol\":15602:15612  msg.sender */\n      caller\n        /* \"contracts/Lottery.sol\":15592:15613  UsersInfo[msg.sender] */\n      0xffffffffffffffffffffffffffffffffffffffff\n      and\n      0xffffffffffffffffffffffffffffffffffffffff\n      and\n      dup2\n      mstore\n      0x20\n      add\n      swap1\n      dup2\n      mstore\n      0x20\n      add\n      0x00\n      keccak256\n        /* \"contracts/Lottery.sol\":15592:15628  UsersInfo[msg.sender].ReferralProfit */\n      0x02\n      add\n      sload\n        /* \"contracts/Lottery.sol\":15575:15628  uint256 profit = UsersInfo[msg.sender].ReferralProfit */\n      swap1\n      pop\n        /* \"contracts/Lottery.sol\":15677:15678  0 */\n      0x00\n        /* \"contracts/Lottery.sol\":15638:15647  UsersInfo */\n      0x09\n        /* \"contracts/Lottery.sol\":15638:15659  UsersInfo[msg.sender] */\n      0x00\n        /* \"contracts/Lottery.sol\":15648:15658  msg.sender */\n      caller\n        /* \"contracts/Lottery.sol\":15638:15659  UsersInfo[msg.sender] */\n      0xffffffffffffffffffffffffffffffffffffffff\n      and\n      0xffffffffffffffffffffffffffffffffffffffff\n      and\n      dup2\n      mstore\n      0x20\n      add\n      swap1\n      dup2\n      mstore\n      0x20\n      add\n      0x00\n      keccak256\n        /* \"contracts/Lottery.sol\":15638:15674  UsersInfo[msg.sender].ReferralProfit */\n      0x02\n      add\n        /* \"contracts/Lottery.sol\":15638:15678  UsersInfo[msg.sender].ReferralProfit = 0 */\n      dup2\n      swap1\n      sstore\n      pop\n        /* \"contracts/Lottery.sol\":15712:15718  profit */\n      dup1\n        /* \"contracts/Lottery.sol\":15689:15708  TotalReferralProfit */\n      0x07\n      0x00\n        /* \"contracts/Lottery.sol\":15689:15718  TotalReferralProfit -= profit */\n      dup3\n      dup3\n      sload\n      tag_98\n      swap2\n      swap1\n      tag_99\n      jump\t// in\n    tag_98:\n      swap3\n      pop\n      pop\n      dup2\n      swap1\n      sstore\n      pop\n        /* \"contracts/Lottery.sol\":15736:15746  msg.sender */\n      caller\n        /* \"contracts/Lottery.sol\":15728:15756  payable(msg.sender).transfer */\n      0xffffffffffffffffffffffffffffffffffffffff\n      and\n        /* \"contracts/Lottery.sol\":15728:15764  payable(msg.sender).transfer(profit) */\n      0x08fc\n        /* \"contracts/Lottery.sol\":15757:15763  profit */\n      dup3\n        /* \"contracts/Lottery.sol\":15728:15764  payable(msg.sender).transfer(profit) */\n      swap1\n      dup2\n      iszero\n      mul\n      swap1\n      mload(0x40)\n      0x00\n      mload(0x40)\n      dup1\n      dup4\n      sub\n      dup2\n      dup6\n      dup9\n      dup9\n      call\n      swap4\n      pop\n      pop\n      pop\n      pop\n      iszero\n      dup1\n      iszero\n      tag_101\n      jumpi\n      returndatasize\n      0x00\n      dup1\n      returndatacopy\n      revert(0x00, returndatasize)\n    tag_101:\n      pop\n        /* \"contracts/Lottery.sol\":15375:15771  {... */\n      pop\n        /* \"contracts/Lottery.sol\":15332:15771  function WithdrawReferralProfit() external {... */\n      jump\t// out\n        /* \"contracts/Lottery.sol\":11279:12272  function InvestmentDeposit() external payable {... */\n    tag_21:\n        /* \"contracts/Lottery.sol\":1547:1554  1 ether */\n      0x0de0b6b3a7640000\n        /* \"contracts/Lottery.sol\":11404:11413  msg.value */\n      callvalue\n        /* \"contracts/Lottery.sol\":11404:11442  msg.value >= Mininum_Investment_amount */\n      lt\n      iszero\n        /* \"contracts/Lottery.sol\":11404:11500  msg.value >= Mininum_Investment_amount &&... */\n      dup1\n      iszero\n      tag_103\n      jumpi\n      pop\n        /* \"contracts/Lottery.sol\":1648:1658  1000 ether */\n      0x3635c9adc5dea00000\n        /* \"contracts/Lottery.sol\":11462:11471  msg.value */\n      callvalue\n        /* \"contracts/Lottery.sol\":11462:11500  msg.value <= Maxinum_Investment_amount */\n      gt\n      iszero\n        /* \"contracts/Lottery.sol\":11404:11500  msg.value >= Mininum_Investment_amount &&... */\n    tag_103:\n        /* \"contracts/Lottery.sol\":11383:11563  require(... */\n      tag_104\n      jumpi\n      mload(0x40)\n      0x08c379a000000000000000000000000000000000000000000000000000000000\n      dup2\n      mstore\n      0x04\n      add\n      tag_105\n      swap1\n      tag_106\n      jump\t// in\n    tag_105:\n      mload(0x40)\n      dup1\n      swap2\n      sub\n      swap1\n      revert\n    tag_104:\n        /* \"contracts/Lottery.sol\":1438:1449  10000 ether */\n      0x021e19e0c9bab2400000\n        /* \"contracts/Lottery.sol\":11625:11758  SafeMathsub(... */\n      tag_107\n        /* \"contracts/Lottery.sol\":11654:11675  address(this).balance */\n      selfbalance\n        /* \"contracts/Lottery.sol\":11734:11743  DevProfit */\n      sload(0x01)\n        /* \"contracts/Lottery.sol\":11712:11731  TotalReferralProfit */\n      sload(0x07)\n        /* \"contracts/Lottery.sol\":11694:11709  InvestorsProfit */\n      sload(0x05)\n        /* \"contracts/Lottery.sol\":11694:11731  InvestorsProfit + TotalReferralProfit */\n      tag_108\n      swap2\n      swap1\n      tag_62\n      jump\t// in\n    tag_108:\n        /* \"contracts/Lottery.sol\":11694:11743  InvestorsProfit + TotalReferralProfit + DevProfit */\n      tag_109\n      swap2\n      swap1\n      tag_62\n      jump\t// in\n    tag_109:\n        /* \"contracts/Lottery.sol\":11625:11636  SafeMathsub */\n      tag_64\n        /* \"contracts/Lottery.sol\":11625:11758  SafeMathsub(... */\n      jump\t// in\n    tag_107:\n        /* \"contracts/Lottery.sol\":11625:11785  SafeMathsub(... */\n      gt\n      iszero\n        /* \"contracts/Lottery.sol\":11604:11795  require(... */\n      tag_110\n      jumpi\n      0x00\n      dup1\n      revert\n    tag_110:\n        /* \"contracts/Lottery.sol\":11864:11873  msg.value */\n      callvalue\n        /* \"contracts/Lottery.sol\":11839:11860  TotalInvestmentAmount */\n      0x04\n      0x00\n        /* \"contracts/Lottery.sol\":11839:11873  TotalInvestmentAmount += msg.value */\n      dup3\n      dup3\n      sload\n      tag_111\n      swap2\n      swap1\n      tag_62\n      jump\t// in\n    tag_111:\n      swap3\n      pop\n      pop\n      dup2\n      swap1\n      sstore\n      pop\n        /* \"contracts/Lottery.sol\":11965:11974  msg.value */\n      callvalue\n        /* \"contracts/Lottery.sol\":11925:11941  InvestorsBalance */\n      0x03\n        /* \"contracts/Lottery.sol\":11925:11953  InvestorsBalance[msg.sender] */\n      0x00\n        /* \"contracts/Lottery.sol\":11942:11952  msg.sender */\n      caller\n        /* \"contracts/Lottery.sol\":11925:11953  InvestorsBalance[msg.sender] */\n      0xffffffffffffffffffffffffffffffffffffffff\n      and\n      0xffffffffffffffffffffffffffffffffffffffff\n      and\n      dup2\n      mstore\n      0x20\n      add\n      swap1\n      dup2\n      mstore\n      0x20\n      add\n      0x00\n      keccak256\n        /* \"contracts/Lottery.sol\":11925:11961  InvestorsBalance[msg.sender].balance */\n      0x00\n      add\n      0x00\n        /* \"contracts/Lottery.sol\":11925:11974  InvestorsBalance[msg.sender].balance += msg.value */\n      dup3\n      dup3\n      sload\n      tag_112\n      swap2\n      swap1\n      tag_62\n      jump\t// in\n    tag_112:\n      swap3\n      pop\n      pop\n      dup2\n      swap1\n      sstore\n      pop\n        /* \"contracts/Lottery.sol\":12030:12045  block.timestamp */\n      timestamp\n        /* \"contracts/Lottery.sol\":11984:12000  InvestorsBalance */\n      0x03\n        /* \"contracts/Lottery.sol\":11984:12012  InvestorsBalance[msg.sender] */\n      0x00\n        /* \"contracts/Lottery.sol\":12001:12011  msg.sender */\n      caller\n        /* \"contracts/Lottery.sol\":11984:12012  InvestorsBalance[msg.sender] */\n      0xffffffffffffffffffffffffffffffffffffffff\n      and\n      0xffffffffffffffffffffffffffffffffffffffff\n      and\n      dup2\n      mstore\n      0x20\n      add\n      swap1\n      dup2\n      mstore\n      0x20\n      add\n      0x00\n      keccak256\n        /* \"contracts/Lottery.sol\":11984:12027  InvestorsBalance[msg.sender].LastInvestTime */\n      0x01\n      add\n        /* \"contracts/Lottery.sol\":11984:12045  InvestorsBalance[msg.sender].LastInvestTime = block.timestamp */\n      dup2\n      swap1\n      sstore\n      pop\n        /* \"contracts/Lottery.sol\":12112:12128  InvestorsBalance */\n      0x03\n        /* \"contracts/Lottery.sol\":12112:12140  InvestorsBalance[msg.sender] */\n      0x00\n        /* \"contracts/Lottery.sol\":12129:12139  msg.sender */\n      caller\n        /* \"contracts/Lottery.sol\":12112:12140  InvestorsBalance[msg.sender] */\n      0xffffffffffffffffffffffffffffffffffffffff\n      and\n      0xffffffffffffffffffffffffffffffffffffffff\n      and\n      dup2\n      mstore\n      0x20\n      add\n      swap1\n      dup2\n      mstore\n      0x20\n      add\n      0x00\n      keccak256\n        /* \"contracts/Lottery.sol\":12112:12152  InvestorsBalance[msg.sender].HasInvested */\n      0x02\n      add\n      0x00\n      swap1\n      sload\n      swap1\n      0x0100\n      exp\n      swap1\n      div\n      0xff\n      and\n        /* \"contracts/Lottery.sol\":12107:12266  if (!InvestorsBalance[msg.sender].HasInvested) {... */\n      tag_113\n      jumpi\n        /* \"contracts/Lottery.sol\":12211:12215  true */\n      0x01\n        /* \"contracts/Lottery.sol\":12168:12184  InvestorsBalance */\n      0x03\n        /* \"contracts/Lottery.sol\":12168:12196  InvestorsBalance[msg.sender] */\n      0x00\n        /* \"contracts/Lottery.sol\":12185:12195  msg.sender */\n      caller\n        /* \"contracts/Lottery.sol\":12168:12196  InvestorsBalance[msg.sender] */\n      0xffffffffffffffffffffffffffffffffffffffff\n      and\n      0xffffffffffffffffffffffffffffffffffffffff\n      and\n      dup2\n      mstore\n      0x20\n      add\n      swap1\n      dup2\n      mstore\n      0x20\n      add\n      0x00\n      keccak256\n        /* \"contracts/Lottery.sol\":12168:12208  InvestorsBalance[msg.sender].HasInvested */\n      0x02\n      add\n      0x00\n        /* \"contracts/Lottery.sol\":12168:12215  InvestorsBalance[msg.sender].HasInvested = true */\n      0x0100\n      exp\n      dup2\n      sload\n      dup2\n      0xff\n      mul\n      not\n      and\n      swap1\n      dup4\n      iszero\n      iszero\n      mul\n      or\n      swap1\n      sstore\n      pop\n        /* \"contracts/Lottery.sol\":12229:12238  investors */\n      0x02\n        /* \"contracts/Lottery.sol\":12244:12254  msg.sender */\n      caller\n        /* \"contracts/Lottery.sol\":12229:12255  investors.push(msg.sender) */\n      swap1\n      dup1\n      0x01\n      dup2\n      sload\n      add\n      dup1\n      dup3\n      sstore\n      dup1\n      swap2\n      pop\n      pop\n      0x01\n      swap1\n      sub\n      swap1\n      0x00\n      mstore\n      keccak256(0x00, 0x20)\n      add\n      0x00\n      swap1\n      swap2\n      swap1\n      swap2\n      swap1\n      swap2\n      0x0100\n      exp\n      dup2\n      sload\n      dup2\n      0xffffffffffffffffffffffffffffffffffffffff\n      mul\n      not\n      and\n      swap1\n      dup4\n      0xffffffffffffffffffffffffffffffffffffffff\n      and\n      mul\n      or\n      swap1\n      sstore\n      pop\n        /* \"contracts/Lottery.sol\":12107:12266  if (!InvestorsBalance[msg.sender].HasInvested) {... */\n    tag_113:\n        /* \"contracts/Lottery.sol\":11279:12272  function InvestmentDeposit() external payable {... */\n      jump\t// out\n        /* \"contracts/Lottery.sol\":7857:11250  function OpenEggs() external {... */\n    tag_24:\n        /* \"contracts/Lottery.sol\":8014:8015  0 */\n      0x00\n        /* \"contracts/Lottery.sol\":7974:7983  UsersInfo */\n      0x09\n        /* \"contracts/Lottery.sol\":7974:7995  UsersInfo[msg.sender] */\n      0x00\n        /* \"contracts/Lottery.sol\":7984:7994  msg.sender */\n      caller\n        /* \"contracts/Lottery.sol\":7974:7995  UsersInfo[msg.sender] */\n      0xffffffffffffffffffffffffffffffffffffffff\n      and\n      0xffffffffffffffffffffffffffffffffffffffff\n      and\n      dup2\n      mstore\n      0x20\n      add\n      swap1\n      dup2\n      mstore\n      0x20\n      add\n      0x00\n      keccak256\n        /* \"contracts/Lottery.sol\":7974:8004  UsersInfo[msg.sender].eggsinfo */\n      0x00\n      add\n        /* \"contracts/Lottery.sol\":7974:8011  UsersInfo[msg.sender].eggsinfo.length */\n      dup1\n      sload\n      swap1\n      pop\n        /* \"contracts/Lottery.sol\":7974:8015  UsersInfo[msg.sender].eggsinfo.length > 0 */\n      gt\n        /* \"contracts/Lottery.sol\":7953:8078  require(... */\n      tag_116\n      jumpi\n      mload(0x40)\n      0x08c379a000000000000000000000000000000000000000000000000000000000\n      dup2\n      mstore\n      0x04\n      add\n      tag_117\n      swap1\n      tag_118\n      jump\t// in\n    tag_117:\n      mload(0x40)\n      dup1\n      swap2\n      sub\n      swap1\n      revert\n    tag_116:\n        /* \"contracts/Lottery.sol\":8257:8266  UsersInfo */\n      0x09\n        /* \"contracts/Lottery.sol\":8257:8278  UsersInfo[msg.sender] */\n      0x00\n        /* \"contracts/Lottery.sol\":8267:8277  msg.sender */\n      caller\n        /* \"contracts/Lottery.sol\":8257:8278  UsersInfo[msg.sender] */\n      0xffffffffffffffffffffffffffffffffffffffff\n      and\n      0xffffffffffffffffffffffffffffffffffffffff\n      and\n      dup2\n      mstore\n      0x20\n      add\n      swap1\n      dup2\n      mstore\n      0x20\n      add\n      0x00\n      keccak256\n        /* \"contracts/Lottery.sol\":8257:8308  UsersInfo[msg.sender]... */\n      0x00\n      add\n        /* \"contracts/Lottery.sol\":8349:8350  1 */\n      0x01\n        /* \"contracts/Lottery.sol\":8309:8318  UsersInfo */\n      0x09\n        /* \"contracts/Lottery.sol\":8309:8330  UsersInfo[msg.sender] */\n      0x00\n        /* \"contracts/Lottery.sol\":8319:8329  msg.sender */\n      caller\n        /* \"contracts/Lottery.sol\":8309:8330  UsersInfo[msg.sender] */\n      0xffffffffffffffffffffffffffffffffffffffff\n      and\n      0xffffffffffffffffffffffffffffffffffffffff\n      and\n      dup2\n      mstore\n      0x20\n      add\n      swap1\n      dup2\n      mstore\n      0x20\n      add\n      0x00\n      keccak256\n        /* \"contracts/Lottery.sol\":8309:8339  UsersInfo[msg.sender].eggsinfo */\n      0x00\n      add\n        /* \"contracts/Lottery.sol\":8309:8346  UsersInfo[msg.sender].eggsinfo.length */\n      dup1\n      sload\n      swap1\n      pop\n        /* \"contracts/Lottery.sol\":8309:8350  UsersInfo[msg.sender].eggsinfo.length - 1 */\n      tag_119\n      swap2\n      swap1\n      tag_99\n      jump\t// in\n    tag_119:\n        /* \"contracts/Lottery.sol\":8257:8351  UsersInfo[msg.sender]... */\n      dup2\n      sload\n      dup2\n      lt\n      tag_120\n      jumpi\n      tag_121\n      tag_76\n      jump\t// in\n    tag_121:\n    tag_120:\n      swap1\n      0x00\n      mstore\n      keccak256(0x00, 0x20)\n      swap1\n      0x02\n      mul\n      add\n        /* \"contracts/Lottery.sol\":8257:8384  UsersInfo[msg.sender]... */\n      0x01\n      add\n      0x01\n      swap1\n      sload\n      swap1\n      0x0100\n      exp\n      swap1\n      div\n      0xffffffffffffffffffffffffffffffffffffffffffffffffffffffffffffff\n      and\n        /* \"contracts/Lottery.sol\":8226:8384  block.number >... */\n      0xffffffffffffffffffffffffffffffffffffffffffffffffffffffffffffff\n      and\n        /* \"contracts/Lottery.sol\":8226:8238  block.number */\n      number\n        /* \"contracts/Lottery.sol\":8226:8384  block.number >... */\n      gt\n        /* \"contracts/Lottery.sol\":8205:8423  require(... */\n      tag_123\n      jumpi\n      mload(0x40)\n      0x08c379a000000000000000000000000000000000000000000000000000000000\n      dup2\n      mstore\n      0x04\n      add\n      tag_124\n      swap1\n      tag_125\n      jump\t// in\n    tag_124:\n      mload(0x40)\n      dup1\n      swap2\n      sub\n      swap1\n      revert\n    tag_123:\n        /* \"contracts/Lottery.sol\":8555:8556  0 */\n      0x00\n        /* \"contracts/Lottery.sol\":8513:8522  UsersInfo */\n      0x09\n        /* \"contracts/Lottery.sol\":8513:8534  UsersInfo[msg.sender] */\n      0x00\n        /* \"contracts/Lottery.sol\":8523:8533  msg.sender */\n      caller\n        /* \"contracts/Lottery.sol\":8513:8534  UsersInfo[msg.sender] */\n      0xffffffffffffffffffffffffffffffffffffffff\n      and\n      0xffffffffffffffffffffffffffffffffffffffff\n      and\n      dup2\n      mstore\n      0x20\n      add\n      swap1\n      dup2\n      mstore\n      0x20\n      add\n      0x00\n      keccak256\n        /* \"contracts/Lottery.sol\":8513:8545  UsersInfo[msg.sender].openedeggs */\n      0x01\n      add\n        /* \"contracts/Lottery.sol\":8513:8552  UsersInfo[msg.sender].openedeggs.length */\n      dup1\n      sload\n      swap1\n      pop\n        /* \"contracts/Lottery.sol\":8513:8556  UsersInfo[msg.sender].openedeggs.length > 0 */\n      gt\n        /* \"contracts/Lottery.sol\":8509:8609  if (UsersInfo[msg.sender].openedeggs.length > 0)... */\n      iszero\n      tag_126\n      jumpi\n        /* \"contracts/Lottery.sol\":8577:8586  UsersInfo */\n      0x09\n        /* \"contracts/Lottery.sol\":8577:8598  UsersInfo[msg.sender] */\n      0x00\n        /* \"contracts/Lottery.sol\":8587:8597  msg.sender */\n      caller\n        /* \"contracts/Lottery.sol\":8577:8598  UsersInfo[msg.sender] */\n      0xffffffffffffffffffffffffffffffffffffffff\n      and\n      0xffffffffffffffffffffffffffffffffffffffff\n      and\n      dup2\n      mstore\n      0x20\n      add\n      swap1\n      dup2\n      mstore\n      0x20\n      add\n      0x00\n      keccak256\n        /* \"contracts/Lottery.sol\":8577:8609  UsersInfo[msg.sender].openedeggs */\n      0x01\n      add\n      0x00\n        /* \"contracts/Lottery.sol\":8570:8609  delete UsersInfo[msg.sender].openedeggs */\n      tag_127\n      swap2\n      swap1\n      tag_128\n      jump\t// in\n    tag_127:\n        /* \"contracts/Lottery.sol\":8509:8609  if (UsersInfo[msg.sender].openedeggs.length > 0)... */\n    tag_126:\n        /* \"contracts/Lottery.sol\":8653:8674  uint256 WinningAmount */\n      0x00\n        /* \"contracts/Lottery.sol\":8690:8699  uint256 i */\n      dup1\n        /* \"contracts/Lottery.sol\":8702:8703  0 */\n      0x00\n        /* \"contracts/Lottery.sol\":8690:8703  uint256 i = 0 */\n      swap1\n      pop\n        /* \"contracts/Lottery.sol\":8685:10375  for (uint256 i = 0; i < UsersInfo[msg.sender].eggsinfo.length; i++) {... */\n    tag_129:\n        /* \"contracts/Lottery.sol\":8709:8718  UsersInfo */\n      0x09\n        /* \"contracts/Lottery.sol\":8709:8730  UsersInfo[msg.sender] */\n      0x00\n        /* \"contracts/Lottery.sol\":8719:8729  msg.sender */\n      caller\n        /* \"contracts/Lottery.sol\":8709:8730  UsersInfo[msg.sender] */\n      0xffffffffffffffffffffffffffffffffffffffff\n      and\n      0xffffffffffffffffffffffffffffffffffffffff\n      and\n      dup2\n      mstore\n      0x20\n      add\n      swap1\n      dup2\n      mstore\n      0x20\n      add\n      0x00\n      keccak256\n        /* \"contracts/Lottery.sol\":8709:8739  UsersInfo[msg.sender].eggsinfo */\n      0x00\n      add\n        /* \"contracts/Lottery.sol\":8709:8746  UsersInfo[msg.sender].eggsinfo.length */\n      dup1\n      sload\n      swap1\n      pop\n        /* \"contracts/Lottery.sol\":8705:8706  i */\n      dup2\n        /* \"contracts/Lottery.sol\":8705:8746  i < UsersInfo[msg.sender].eggsinfo.length */\n      lt\n        /* \"contracts/Lottery.sol\":8685:10375  for (uint256 i = 0; i < UsersInfo[msg.sender].eggsinfo.length; i++) {... */\n      iszero\n      tag_130\n      jumpi\n        /* \"contracts/Lottery.sol\":8961:8962  0 */\n      0x00\n        /* \"contracts/Lottery.sol\":8893:8902  UsersInfo */\n      0x09\n        /* \"contracts/Lottery.sol\":8893:8914  UsersInfo[msg.sender] */\n      0x00\n        /* \"contracts/Lottery.sol\":8903:8913  msg.sender */\n      caller\n        /* \"contracts/Lottery.sol\":8893:8914  UsersInfo[msg.sender] */\n      0xffffffffffffffffffffffffffffffffffffffff\n      and\n      0xffffffffffffffffffffffffffffffffffffffff\n      and\n      dup2\n      mstore\n      0x20\n      add\n      swap1\n      dup2\n      mstore\n      0x20\n      add\n      0x00\n      keccak256\n        /* \"contracts/Lottery.sol\":8893:8923  UsersInfo[msg.sender].eggsinfo */\n      0x00\n      add\n        /* \"contracts/Lottery.sol\":8924:8925  i */\n      dup3\n        /* \"contracts/Lottery.sol\":8893:8926  UsersInfo[msg.sender].eggsinfo[i] */\n      dup2\n      sload\n      dup2\n      lt\n      tag_132\n      jumpi\n      tag_133\n      tag_76\n      jump\t// in\n    tag_133:\n    tag_132:\n      swap1\n      0x00\n      mstore\n      keccak256(0x00, 0x20)\n      swap1\n      0x02\n      mul\n      add\n        /* \"contracts/Lottery.sol\":8893:8938  UsersInfo[msg.sender].eggsinfo[i].blocknumber */\n      0x01\n      add\n      0x01\n      swap1\n      sload\n      swap1\n      0x0100\n      exp\n      swap1\n      div\n      0xffffffffffffffffffffffffffffffffffffffffffffffffffffffffffffff\n      and\n        /* \"contracts/Lottery.sol\":8883:8939  blockhash(UsersInfo[msg.sender].eggsinfo[i].blocknumber) */\n      0xffffffffffffffffffffffffffffffffffffffffffffffffffffffffffffff\n      and\n      blockhash\n        /* \"contracts/Lottery.sol\":8854:8957  uint256(... */\n      0x00\n      shr\n        /* \"contracts/Lottery.sol\":8854:8962  uint256(... */\n      sub\n        /* \"contracts/Lottery.sol\":8833:8985  if (... */\n      iszero\n        /* \"contracts/Lottery.sol\":8977:8985  continue */\n      tag_131\n        /* \"contracts/Lottery.sol\":8833:8985  if (... */\n      jumpi\n        /* \"contracts/Lottery.sol\":9034:9051  uint32 LotteryNum */\n      0x00\n        /* \"contracts/Lottery.sol\":9187:9196  UsersInfo */\n      0x09\n        /* \"contracts/Lottery.sol\":9187:9208  UsersInfo[msg.sender] */\n      0x00\n        /* \"contracts/Lottery.sol\":9197:9207  msg.sender */\n      caller\n        /* \"contracts/Lottery.sol\":9187:9208  UsersInfo[msg.sender] */\n      0xffffffffffffffffffffffffffffffffffffffff\n      and\n      0xffffffffffffffffffffffffffffffffffffffff\n      and\n      dup2\n      mstore\n      0x20\n      add\n      swap1\n      dup2\n      mstore\n      0x20\n      add\n      0x00\n      keccak256\n        /* \"contracts/Lottery.sol\":9187:9217  UsersInfo[msg.sender].eggsinfo */\n      0x00\n      add\n        /* \"contracts/Lottery.sol\":9218:9219  i */\n      dup3\n        /* \"contracts/Lottery.sol\":9187:9220  UsersInfo[msg.sender].eggsinfo[i] */\n      dup2\n      sload\n      dup2\n      lt\n      tag_136\n      jumpi\n      tag_137\n      tag_76\n      jump\t// in\n    tag_137:\n    tag_136:\n      swap1\n      0x00\n      mstore\n      keccak256(0x00, 0x20)\n      swap1\n      0x02\n      mul\n      add\n        /* \"contracts/Lottery.sol\":9187:9224  UsersInfo[msg.sender].eggsinfo[i].uid */\n      0x00\n      add\n      sload\n        /* \"contracts/Lottery.sol\":9297:9306  UsersInfo */\n      0x09\n        /* \"contracts/Lottery.sol\":9297:9318  UsersInfo[msg.sender] */\n      0x00\n        /* \"contracts/Lottery.sol\":9307:9317  msg.sender */\n      caller\n        /* \"contracts/Lottery.sol\":9297:9318  UsersInfo[msg.sender] */\n      0xffffffffffffffffffffffffffffffffffffffff\n      and\n      0xffffffffffffffffffffffffffffffffffffffff\n      and\n      dup2\n      mstore\n      0x20\n      add\n      swap1\n      dup2\n      mstore\n      0x20\n      add\n      0x00\n      keccak256\n        /* \"contracts/Lottery.sol\":9297:9327  UsersInfo[msg.sender].eggsinfo */\n      0x00\n      add\n        /* \"contracts/Lottery.sol\":9328:9329  i */\n      dup4\n        /* \"contracts/Lottery.sol\":9297:9330  UsersInfo[msg.sender].eggsinfo[i] */\n      dup2\n      sload\n      dup2\n      lt\n      tag_139\n      jumpi\n      tag_140\n      tag_76\n      jump\t// in\n    tag_140:\n    tag_139:\n      swap1\n      0x00\n      mstore\n      keccak256(0x00, 0x20)\n      swap1\n      0x02\n      mul\n      add\n        /* \"contracts/Lottery.sol\":9297:9342  UsersInfo[msg.sender].eggsinfo[i].blocknumber */\n      0x01\n      add\n      0x01\n      swap1\n      sload\n      swap1\n      0x0100\n      exp\n      swap1\n      div\n      0xffffffffffffffffffffffffffffffffffffffffffffffffffffffffffffff\n      and\n        /* \"contracts/Lottery.sol\":9254:9372  blockhash(... */\n      0xffffffffffffffffffffffffffffffffffffffffffffffffffffffffffffff\n      and\n      blockhash\n        /* \"contracts/Lottery.sol\":9141:9398  abi.encodePacked(... */\n      add(0x20, mload(0x40))\n      tag_142\n      swap3\n      swap2\n      swap1\n      tag_143\n      jump\t// in\n    tag_142:\n      mload(0x40)\n      0x20\n      dup2\n      dup4\n      sub\n      sub\n      dup2\n      mstore\n      swap1\n      0x40\n      mstore\n        /* \"contracts/Lottery.sol\":9106:9420  keccak256(... */\n      dup1\n      mload\n      swap1\n      0x20\n      add\n      keccak256\n        /* \"contracts/Lottery.sol\":9054:9452  uint32(... */\n      0xe0\n      shr\n        /* \"contracts/Lottery.sol\":9034:9452  uint32 LotteryNum = uint32(... */\n      swap1\n      pop\n        /* \"contracts/Lottery.sol\":9495:9514  uint256 Winningrade */\n      0x00\n        /* \"contracts/Lottery.sol\":9517:9544  GetWinninggrade(LotteryNum) */\n      tag_144\n        /* \"contracts/Lottery.sol\":9533:9543  LotteryNum */\n      dup3\n        /* \"contracts/Lottery.sol\":9517:9532  GetWinninggrade */\n      tag_145\n        /* \"contracts/Lottery.sol\":9517:9544  GetWinninggrade(LotteryNum) */\n      jump\t// in\n    tag_144:\n        /* \"contracts/Lottery.sol\":9495:9544  uint256 Winningrade = GetWinninggrade(LotteryNum) */\n      swap1\n      pop\n        /* \"contracts/Lottery.sol\":9611:9612  0 */\n      0x00\n        /* \"contracts/Lottery.sol\":9597:9608  Winningrade */\n      dup2\n        /* \"contracts/Lottery.sol\":9597:9612  Winningrade > 0 */\n      gt\n        /* \"contracts/Lottery.sol\":9593:10134  if (Winningrade > 0) {... */\n      iszero\n      tag_146\n      jumpi\n        /* \"contracts/Lottery.sol\":9632:9652  uint256 WinningMoney */\n      0x00\n        /* \"contracts/Lottery.sol\":1287:1297  0.02 ether */\n      0x470de4df820000\n        /* \"contracts/Lottery.sol\":9709:9718  UsersInfo */\n      0x09\n        /* \"contracts/Lottery.sol\":9709:9730  UsersInfo[msg.sender] */\n      0x00\n        /* \"contracts/Lottery.sol\":9719:9729  msg.sender */\n      caller\n        /* \"contracts/Lottery.sol\":9709:9730  UsersInfo[msg.sender] */\n      0xffffffffffffffffffffffffffffffffffffffff\n      and\n      0xffffffffffffffffffffffffffffffffffffffff\n      and\n      dup2\n      mstore\n      0x20\n      add\n      swap1\n      dup2\n      mstore\n      0x20\n      add\n      0x00\n      keccak256\n        /* \"contracts/Lottery.sol\":9709:9739  UsersInfo[msg.sender].eggsinfo */\n      0x00\n      add\n        /* \"contracts/Lottery.sol\":9740:9741  i */\n      dup6\n        /* \"contracts/Lottery.sol\":9709:9742  UsersInfo[msg.sender].eggsinfo[i] */\n      dup2\n      sload\n      dup2\n      lt\n      tag_147\n      jumpi\n      tag_148\n      tag_76\n      jump\t// in\n    tag_148:\n    tag_147:\n      swap1\n      0x00\n      mstore\n      keccak256(0x00, 0x20)\n      swap1\n      0x02\n      mul\n      add\n        /* \"contracts/Lottery.sol\":9709:9746  UsersInfo[msg.sender].eggsinfo[i].mul */\n      0x01\n      add\n      0x00\n      swap1\n      sload\n      swap1\n      0x0100\n      exp\n      swap1\n      div\n      0xff\n      and\n        /* \"contracts/Lottery.sol\":9655:9746  GetWinningmultiple(Winningrade) *... */\n      0xff\n      and\n        /* \"contracts/Lottery.sol\":9655:9686  GetWinningmultiple(Winningrade) */\n      tag_150\n        /* \"contracts/Lottery.sol\":9674:9685  Winningrade */\n      dup5\n        /* \"contracts/Lottery.sol\":9655:9673  GetWinningmultiple */\n      tag_151\n        /* \"contracts/Lottery.sol\":9655:9686  GetWinningmultiple(Winningrade) */\n      jump\t// in\n    tag_150:\n        /* \"contracts/Lottery.sol\":9655:9746  GetWinningmultiple(Winningrade) *... */\n      tag_152\n      swap2\n      swap1\n      tag_153\n      jump\t// in\n    tag_152:\n        /* \"contracts/Lottery.sol\":9655:9780  GetWinningmultiple(Winningrade) *... */\n      tag_154\n      swap2\n      swap1\n      tag_153\n      jump\t// in\n    tag_154:\n        /* \"contracts/Lottery.sol\":9632:9780  uint256 WinningMoney = GetWinningmultiple(Winningrade) *... */\n      swap1\n      pop\n        /* \"contracts/Lottery.sol\":9816:9828  WinningMoney */\n      dup1\n        /* \"contracts/Lottery.sol\":9799:9828  WinningAmount += WinningMoney */\n      dup6\n      tag_155\n      swap2\n      swap1\n      tag_62\n      jump\t// in\n    tag_155:\n      swap5\n      pop\n        /* \"contracts/Lottery.sol\":9847:9873  Winninginfo memory winning */\n      0x00\n        /* \"contracts/Lottery.sol\":9876:10073  Winninginfo(... */\n      mload(0x40)\n      dup1\n      0x80\n      add\n      0x40\n      mstore\n      dup1\n        /* \"contracts/Lottery.sol\":9909:9919  LotteryNum */\n      dup6\n        /* \"contracts/Lottery.sol\":9876:10073  Winninginfo(... */\n      0xffffffff\n      and\n      dup2\n      mstore\n      0x20\n      add\n        /* \"contracts/Lottery.sol\":9941:9950  UsersInfo */\n      0x09\n        /* \"contracts/Lottery.sol\":9941:9962  UsersInfo[msg.sender] */\n      0x00\n        /* \"contracts/Lottery.sol\":9951:9961  msg.sender */\n      caller\n        /* \"contracts/Lottery.sol\":9941:9962  UsersInfo[msg.sender] */\n      0xffffffffffffffffffffffffffffffffffffffff\n      and\n      0xffffffffffffffffffffffffffffffffffffffff\n      and\n      dup2\n      mstore\n      0x20\n      add\n      swap1\n      dup2\n      mstore\n      0x20\n      add\n      0x00\n      keccak256\n        /* \"contracts/Lottery.sol\":9941:9971  UsersInfo[msg.sender].eggsinfo */\n      0x00\n      add\n        /* \"contracts/Lottery.sol\":9972:9973  i */\n      dup8\n        /* \"contracts/Lottery.sol\":9941:9974  UsersInfo[msg.sender].eggsinfo[i] */\n      dup2\n      sload\n      dup2\n      lt\n      tag_156\n      jumpi\n      tag_157\n      tag_76\n      jump\t// in\n    tag_157:\n    tag_156:\n      swap1\n      0x00\n      mstore\n      keccak256(0x00, 0x20)\n      swap1\n      0x02\n      mul\n      add\n        /* \"contracts/Lottery.sol\":9941:9978  UsersInfo[msg.sender].eggsinfo[i].mul */\n      0x01\n      add\n      0x00\n      swap1\n      sload\n      swap1\n      0x0100\n      exp\n      swap1\n      div\n      0xff\n      and\n        /* \"contracts/Lottery.sol\":9876:10073  Winninginfo(... */\n      0xff\n      and\n      dup2\n      mstore\n      0x20\n      add\n        /* \"contracts/Lottery.sol\":10007:10022  block.timestamp */\n      timestamp\n        /* \"contracts/Lottery.sol\":9876:10073  Winninginfo(... */\n      0xffffffffff\n      and\n      dup2\n      mstore\n      0x20\n      add\n        /* \"contracts/Lottery.sol\":10045:10055  msg.sender */\n      caller\n        /* \"contracts/Lottery.sol\":9876:10073  Winninginfo(... */\n      0xffffffffffffffffffffffffffffffffffffffff\n      and\n      dup2\n      mstore\n      pop\n        /* \"contracts/Lottery.sol\":9847:10073  Winninginfo memory winning = Winninginfo(... */\n      swap1\n      pop\n        /* \"contracts/Lottery.sol\":10092:10105  WinningRecord */\n      0x0b\n        /* \"contracts/Lottery.sol\":10111:10118  winning */\n      dup2\n        /* \"contracts/Lottery.sol\":10092:10119  WinningRecord.push(winning) */\n      swap1\n      dup1\n      0x01\n      dup2\n      sload\n      add\n      dup1\n      dup3\n      sstore\n      dup1\n      swap2\n      pop\n      pop\n      0x01\n      swap1\n      sub\n      swap1\n      0x00\n      mstore\n      keccak256(0x00, 0x20)\n      swap1\n      0x03\n      mul\n      add\n      0x00\n      swap1\n      swap2\n      swap1\n      swap2\n      swap1\n      swap2\n      pop\n      0x00\n      dup3\n      add\n      mload\n      dup2\n      0x00\n      add\n      exp(0x0100, 0x00)\n      dup2\n      sload\n      dup2\n      0xffffffff\n      mul\n      not\n      and\n      swap1\n      dup4\n      0xffffffff\n      and\n      mul\n      or\n      swap1\n      sstore\n      pop\n      0x20\n      dup3\n      add\n      mload\n      dup2\n      0x00\n      add\n      exp(0x0100, 0x04)\n      dup2\n      sload\n      dup2\n      0xff\n      mul\n      not\n      and\n      swap1\n      dup4\n      0xff\n      and\n      mul\n      or\n      swap1\n      sstore\n      pop\n      0x40\n      dup3\n      add\n      mload\n      dup2\n      0x01\n      add\n      sstore\n      0x60\n      dup3\n      add\n      mload\n      dup2\n      0x02\n      add\n      exp(0x0100, 0x00)\n      dup2\n      sload\n      dup2\n      0xffffffffffffffffffffffffffffffffffffffff\n      mul\n      not\n      and\n      swap1\n      dup4\n      0xffffffffffffffffffffffffffffffffffffffff\n      and\n      mul\n      or\n      swap1\n      sstore\n      pop\n      pop\n      pop\n        /* \"contracts/Lottery.sol\":9614:10134  {... */\n      pop\n      pop\n        /* \"contracts/Lottery.sol\":9593:10134  if (Winningrade > 0) {... */\n    tag_146:\n        /* \"contracts/Lottery.sol\":10148:10183  OpenedLotInfo memory OpenedLotterys */\n      0x00\n        /* \"contracts/Lottery.sol\":10186:10296  OpenedLotInfo(... */\n      mload(0x40)\n      dup1\n      0x40\n      add\n      0x40\n      mstore\n      dup1\n        /* \"contracts/Lottery.sol\":10217:10227  LotteryNum */\n      dup5\n        /* \"contracts/Lottery.sol\":10186:10296  OpenedLotInfo(... */\n      0xffffffff\n      and\n      dup2\n      mstore\n      0x20\n      add\n        /* \"contracts/Lottery.sol\":10245:10254  UsersInfo */\n      0x09\n        /* \"contracts/Lottery.sol\":10245:10266  UsersInfo[msg.sender] */\n      0x00\n        /* \"contracts/Lottery.sol\":10255:10265  msg.sender */\n      caller\n        /* \"contracts/Lottery.sol\":10245:10266  UsersInfo[msg.sender] */\n      0xffffffffffffffffffffffffffffffffffffffff\n      and\n      0xffffffffffffffffffffffffffffffffffffffff\n      and\n      dup2\n      mstore\n      0x20\n      add\n      swap1\n      dup2\n      mstore\n      0x20\n      add\n      0x00\n      keccak256\n        /* \"contracts/Lottery.sol\":10245:10275  UsersInfo[msg.sender].eggsinfo */\n      0x00\n      add\n        /* \"contracts/Lottery.sol\":10276:10277  i */\n      dup7\n        /* \"contracts/Lottery.sol\":10245:10278  UsersInfo[msg.sender].eggsinfo[i] */\n      dup2\n      sload\n      dup2\n      lt\n      tag_160\n      jumpi\n      tag_161\n      tag_76\n      jump\t// in\n    tag_161:\n    tag_160:\n      swap1\n      0x00\n      mstore\n      keccak256(0x00, 0x20)\n      swap1\n      0x02\n      mul\n      add\n        /* \"contracts/Lottery.sol\":10245:10282  UsersInfo[msg.sender].eggsinfo[i].mul */\n      0x01\n      add\n      0x00\n      swap1\n      sload\n      swap1\n      0x0100\n      exp\n      swap1\n      div\n      0xff\n      and\n        /* \"contracts/Lottery.sol\":10186:10296  OpenedLotInfo(... */\n      0xff\n      and\n      dup2\n      mstore\n      pop\n        /* \"contracts/Lottery.sol\":10148:10296  OpenedLotInfo memory OpenedLotterys = OpenedLotInfo(... */\n      swap1\n      pop\n        /* \"contracts/Lottery.sol\":10311:10320  UsersInfo */\n      0x09\n        /* \"contracts/Lottery.sol\":10311:10332  UsersInfo[msg.sender] */\n      0x00\n        /* \"contracts/Lottery.sol\":10321:10331  msg.sender */\n      caller\n        /* \"contracts/Lottery.sol\":10311:10332  UsersInfo[msg.sender] */\n      0xffffffffffffffffffffffffffffffffffffffff\n      and\n      0xffffffffffffffffffffffffffffffffffffffff\n      and\n      dup2\n      mstore\n      0x20\n      add\n      swap1\n      dup2\n      mstore\n      0x20\n      add\n      0x00\n      keccak256\n        /* \"contracts/Lottery.sol\":10311:10343  UsersInfo[msg.sender].openedeggs */\n      0x01\n      add\n        /* \"contracts/Lottery.sol\":10349:10363  OpenedLotterys */\n      dup2\n        /* \"contracts/Lottery.sol\":10311:10364  UsersInfo[msg.sender].openedeggs.push(OpenedLotterys) */\n      swap1\n      dup1\n      0x01\n      dup2\n      sload\n      add\n      dup1\n      dup3\n      sstore\n      dup1\n      swap2\n      pop\n      pop\n      0x01\n      swap1\n      sub\n      swap1\n      0x00\n      mstore\n      keccak256(0x00, 0x20)\n      add\n      0x00\n      swap1\n      swap2\n      swap1\n      swap2\n      swap1\n      swap2\n      pop\n      0x00\n      dup3\n      add\n      mload\n      dup2\n      0x00\n      add\n      exp(0x0100, 0x00)\n      dup2\n      sload\n      dup2\n      0xffffffff\n      mul\n      not\n      and\n      swap1\n      dup4\n      0xffffffff\n      and\n      mul\n      or\n      swap1\n      sstore\n      pop\n      0x20\n      dup3\n      add\n      mload\n      dup2\n      0x00\n      add\n      exp(0x0100, 0x04)\n      dup2\n      sload\n      dup2\n      0xff\n      mul\n      not\n      and\n      swap1\n      dup4\n      0xff\n      and\n      mul\n      or\n      swap1\n      sstore\n      pop\n      pop\n      pop\n        /* \"contracts/Lottery.sol\":8753:10375  {... */\n      pop\n      pop\n      pop\n        /* \"contracts/Lottery.sol\":8685:10375  for (uint256 i = 0; i < UsersInfo[msg.sender].eggsinfo.length; i++) {... */\n    tag_131:\n        /* \"contracts/Lottery.sol\":8748:8751  i++ */\n      dup1\n      dup1\n      0x01\n      add\n      swap2\n      pop\n      pop\n        /* \"contracts/Lottery.sol\":8685:10375  for (uint256 i = 0; i < UsersInfo[msg.sender].eggsinfo.length; i++) {... */\n      jump(tag_129)\n    tag_130:\n      pop\n        /* \"contracts/Lottery.sol\":10452:10461  UsersInfo */\n      0x09\n        /* \"contracts/Lottery.sol\":10452:10473  UsersInfo[msg.sender] */\n      0x00\n        /* \"contracts/Lottery.sol\":10462:10472  msg.sender */\n      caller\n        /* \"contracts/Lottery.sol\":10452:10473  UsersInfo[msg.sender] */\n      0xffffffffffffffffffffffffffffffffffffffff\n      and\n      0xffffffffffffffffffffffffffffffffffffffff\n      and\n      dup2\n      mstore\n      0x20\n      add\n      swap1\n      dup2\n      mstore\n      0x20\n      add\n      0x00\n      keccak256\n        /* \"contracts/Lottery.sol\":10452:10482  UsersInfo[msg.sender].eggsinfo */\n      0x00\n      add\n      0x00\n        /* \"contracts/Lottery.sol\":10445:10482  delete UsersInfo[msg.sender].eggsinfo */\n      tag_164\n      swap2\n      swap1\n      tag_165\n      jump\t// in\n    tag_164:\n        /* \"contracts/Lottery.sol\":10570:10571  0 */\n      0x00\n        /* \"contracts/Lottery.sol\":10554:10567  WinningAmount */\n      dup2\n        /* \"contracts/Lottery.sol\":10554:10571  WinningAmount > 0 */\n      gt\n        /* \"contracts/Lottery.sol\":10550:11244  if (WinningAmount > 0) {... */\n      iszero\n      tag_166\n      jumpi\n        /* \"contracts/Lottery.sol\":10587:10611  uint256 MaxWinningAmount */\n      0x00\n        /* \"contracts/Lottery.sol\":10614:10910  SafeMathdiv(... */\n      tag_167\n        /* \"contracts/Lottery.sol\":10643:10875  SafeMathmul(... */\n      tag_168\n        /* \"contracts/Lottery.sol\":10676:10833  SafeMathsub(... */\n      tag_169\n        /* \"contracts/Lottery.sol\":10713:10734  address(this).balance */\n      selfbalance\n        /* \"contracts/Lottery.sol\":10801:10810  DevProfit */\n      sload(0x01)\n        /* \"contracts/Lottery.sol\":10779:10798  TotalReferralProfit */\n      sload(0x07)\n        /* \"contracts/Lottery.sol\":10761:10776  InvestorsProfit */\n      sload(0x05)\n        /* \"contracts/Lottery.sol\":10761:10798  InvestorsProfit + TotalReferralProfit */\n      tag_170\n      swap2\n      swap1\n      tag_62\n      jump\t// in\n    tag_170:\n        /* \"contracts/Lottery.sol\":10761:10810  InvestorsProfit + TotalReferralProfit + DevProfit */\n      tag_171\n      swap2\n      swap1\n      tag_62\n      jump\t// in\n    tag_171:\n        /* \"contracts/Lottery.sol\":10676:10687  SafeMathsub */\n      tag_64\n        /* \"contracts/Lottery.sol\":10676:10833  SafeMathsub(... */\n      jump\t// in\n    tag_169:\n        /* \"contracts/Lottery.sol\":10855:10857  70 */\n      0x46\n        /* \"contracts/Lottery.sol\":10643:10654  SafeMathmul */\n      tag_84\n        /* \"contracts/Lottery.sol\":10643:10875  SafeMathmul(... */\n      jump\t// in\n    tag_168:\n        /* \"contracts/Lottery.sol\":10893:10896  100 */\n      0x64\n        /* \"contracts/Lottery.sol\":10614:10625  SafeMathdiv */\n      tag_85\n        /* \"contracts/Lottery.sol\":10614:10910  SafeMathdiv(... */\n      jump\t// in\n    tag_167:\n        /* \"contracts/Lottery.sol\":10587:10910  uint256 MaxWinningAmount = SafeMathdiv(... */\n      swap1\n      pop\n        /* \"contracts/Lottery.sol\":10945:10961  MaxWinningAmount */\n      dup1\n        /* \"contracts/Lottery.sol\":10929:10942  WinningAmount */\n      dup3\n        /* \"contracts/Lottery.sol\":10929:10961  WinningAmount > MaxWinningAmount */\n      gt\n        /* \"contracts/Lottery.sol\":10925:11011  if (WinningAmount > MaxWinningAmount)... */\n      iszero\n      tag_172\n      jumpi\n        /* \"contracts/Lottery.sol\":10995:11011  MaxWinningAmount */\n      dup1\n        /* \"contracts/Lottery.sol\":10979:11011  WinningAmount = MaxWinningAmount */\n      swap2\n      pop\n        /* \"contracts/Lottery.sol\":10925:11011  if (WinningAmount > MaxWinningAmount)... */\n    tag_172:\n        /* \"contracts/Lottery.sol\":11026:11040  uint256 profit */\n      0x00\n        /* \"contracts/Lottery.sol\":11043:11090  SafeMathdiv(SafeMathmul(WinningAmount, 5), 100) */\n      tag_173\n        /* \"contracts/Lottery.sol\":11055:11084  SafeMathmul(WinningAmount, 5) */\n      tag_174\n        /* \"contracts/Lottery.sol\":11067:11080  WinningAmount */\n      dup5\n        /* \"contracts/Lottery.sol\":11082:11083  5 */\n      0x05\n        /* \"contracts/Lottery.sol\":11055:11066  SafeMathmul */\n      tag_84\n        /* \"contracts/Lottery.sol\":11055:11084  SafeMathmul(WinningAmount, 5) */\n      jump\t// in\n    tag_174:\n        /* \"contracts/Lottery.sol\":11086:11089  100 */\n      0x64\n        /* \"contracts/Lottery.sol\":11043:11054  SafeMathdiv */\n      tag_85\n        /* \"contracts/Lottery.sol\":11043:11090  SafeMathdiv(SafeMathmul(WinningAmount, 5), 100) */\n      jump\t// in\n    tag_173:\n        /* \"contracts/Lottery.sol\":11026:11090  uint256 profit = SafeMathdiv(SafeMathmul(WinningAmount, 5), 100) */\n      swap1\n      pop\n        /* \"contracts/Lottery.sol\":11123:11129  profit */\n      dup1\n        /* \"contracts/Lottery.sol\":11104:11119  InvestorsProfit */\n      0x05\n      0x00\n        /* \"contracts/Lottery.sol\":11104:11129  InvestorsProfit += profit */\n      dup3\n      dup3\n      sload\n      tag_175\n      swap2\n      swap1\n      tag_62\n      jump\t// in\n    tag_175:\n      swap3\n      pop\n      pop\n      dup2\n      swap1\n      sstore\n      pop\n        /* \"contracts/Lottery.sol\":11156:11162  profit */\n      dup1\n        /* \"contracts/Lottery.sol\":11143:11152  DevProfit */\n      0x01\n      0x00\n        /* \"contracts/Lottery.sol\":11143:11162  DevProfit += profit */\n      dup3\n      dup3\n      sload\n      tag_176\n      swap2\n      swap1\n      tag_62\n      jump\t// in\n    tag_176:\n      swap3\n      pop\n      pop\n      dup2\n      swap1\n      sstore\n      pop\n        /* \"contracts/Lottery.sol\":11185:11195  msg.sender */\n      caller\n        /* \"contracts/Lottery.sol\":11177:11205  payable(msg.sender).transfer */\n      0xffffffffffffffffffffffffffffffffffffffff\n      and\n        /* \"contracts/Lottery.sol\":11177:11233  payable(msg.sender).transfer(WinningAmount - profit * 2) */\n      0x08fc\n        /* \"contracts/Lottery.sol\":11231:11232  2 */\n      0x02\n        /* \"contracts/Lottery.sol\":11222:11228  profit */\n      dup4\n        /* \"contracts/Lottery.sol\":11222:11232  profit * 2 */\n      tag_177\n      swap2\n      swap1\n      tag_153\n      jump\t// in\n    tag_177:\n        /* \"contracts/Lottery.sol\":11206:11219  WinningAmount */\n      dup6\n        /* \"contracts/Lottery.sol\":11206:11232  WinningAmount - profit * 2 */\n      tag_178\n      swap2\n      swap1\n      tag_99\n      jump\t// in\n    tag_178:\n        /* \"contracts/Lottery.sol\":11177:11233  payable(msg.sender).transfer(WinningAmount - profit * 2) */\n      swap1\n      dup2\n      iszero\n      mul\n      swap1\n      mload(0x40)\n      0x00\n      mload(0x40)\n      dup1\n      dup4\n      sub\n      dup2\n      dup6\n      dup9\n      dup9\n      call\n      swap4\n      pop\n      pop\n      pop\n      pop\n      iszero\n      dup1\n      iszero\n      tag_180\n      jumpi\n      returndatasize\n      0x00\n      dup1\n      returndatacopy\n      revert(0x00, returndatasize)\n    tag_180:\n      pop\n        /* \"contracts/Lottery.sol\":10573:11244  {... */\n      pop\n      pop\n        /* \"contracts/Lottery.sol\":10550:11244  if (WinningAmount > 0) {... */\n    tag_166:\n        /* \"contracts/Lottery.sol\":7886:11250  {... */\n      pop\n        /* \"contracts/Lottery.sol\":7857:11250  function OpenEggs() external {... */\n      jump\t// out\n        /* \"contracts/Lottery.sol\":1699:1724  address public DevAddress */\n    tag_27:\n      0x00\n      dup1\n      sload\n      swap1\n      0x0100\n      exp\n      swap1\n      div\n      0xffffffffffffffffffffffffffffffffffffffff\n      and\n      dup2\n      jump\t// out\n        /* \"contracts/Lottery.sol\":2079:2115  uint256 public TotalInvestmentAmount */\n    tag_32:\n      sload(0x04)\n      dup2\n      jump\t// out\n        /* \"contracts/Lottery.sol\":2239:2272  uint256 public RecentDividendTime */\n    tag_37:\n      sload(0x06)\n      dup2\n      jump\t// out\n        /* \"contracts/Lottery.sol\":4155:6544  function BuyEggs(... */\n    tag_42:\n        /* \"contracts/Lottery.sol\":1287:1297  0.02 ether */\n      0x470de4df820000\n        /* \"contracts/Lottery.sol\":4303:4312  msg.value */\n      callvalue\n        /* \"contracts/Lottery.sol\":4303:4327  msg.value >= PerEggPrice */\n      lt\n      iszero\n        /* \"contracts/Lottery.sol\":4295:4352  require(msg.value >= PerEggPrice, \"Buy at least one egg\") */\n      tag_182\n      jumpi\n      mload(0x40)\n      0x08c379a000000000000000000000000000000000000000000000000000000000\n      dup2\n      mstore\n      0x04\n      add\n      tag_183\n      swap1\n      tag_184\n      jump\t// in\n    tag_183:\n      mload(0x40)\n      dup1\n      swap2\n      sub\n      swap1\n      revert\n    tag_182:\n        /* \"contracts/Lottery.sol\":4377:4378  1 */\n      0x01\n        /* \"contracts/Lottery.sol\":4370:4373  mul */\n      dup4\n        /* \"contracts/Lottery.sol\":4370:4378  mul >= 1 */\n      0xff\n      and\n      lt\n      iszero\n        /* \"contracts/Lottery.sol\":4370:4392  mul >= 1 && mul <= 100 */\n      dup1\n      iszero\n      tag_185\n      jumpi\n      pop\n        /* \"contracts/Lottery.sol\":4389:4392  100 */\n      0x64\n        /* \"contracts/Lottery.sol\":4382:4385  mul */\n      dup4\n        /* \"contracts/Lottery.sol\":4382:4392  mul <= 100 */\n      0xff\n      and\n      gt\n      iszero\n        /* \"contracts/Lottery.sol\":4370:4392  mul >= 1 && mul <= 100 */\n    tag_185:\n        /* \"contracts/Lottery.sol\":4362:4424  require(mul >= 1 && mul <= 100, \"Multiples between 1 and 100\") */\n      tag_186\n      jumpi\n      mload(0x40)\n      0x08c379a000000000000000000000000000000000000000000000000000000000\n      dup2\n      mstore\n      0x04\n      add\n      tag_187\n      swap1\n      tag_188\n      jump\t// in\n    tag_187:\n      mload(0x40)\n      dup1\n      swap2\n      sub\n      swap1\n      revert\n    tag_186:\n        /* \"contracts/Lottery.sol\":4467:4468  1 */\n      0x01\n        /* \"contracts/Lottery.sol\":4455:4463  LotCount */\n      dup5\n        /* \"contracts/Lottery.sol\":4455:4468  LotCount >= 1 */\n      0xffff\n      and\n      lt\n      iszero\n        /* \"contracts/Lottery.sol\":4455:4488  LotCount >= 1 && LotCount <= 1000 */\n      dup1\n      iszero\n      tag_189\n      jumpi\n      pop\n        /* \"contracts/Lottery.sol\":4484:4488  1000 */\n      0x03e8\n        /* \"contracts/Lottery.sol\":4472:4480  LotCount */\n      dup5\n        /* \"contracts/Lottery.sol\":4472:4488  LotCount <= 1000 */\n      0xffff\n      and\n      gt\n      iszero\n        /* \"contracts/Lottery.sol\":4455:4488  LotCount >= 1 && LotCount <= 1000 */\n    tag_189:\n        /* \"contracts/Lottery.sol\":4434:4546  require(... */\n      tag_190\n      jumpi\n      mload(0x40)\n      0x08c379a000000000000000000000000000000000000000000000000000000000\n      dup2\n      mstore\n      0x04\n      add\n      tag_191\n      swap1\n      tag_192\n      jump\t// in\n    tag_191:\n      mload(0x40)\n      dup1\n      swap2\n      sub\n      swap1\n      revert\n    tag_190:\n        /* \"contracts/Lottery.sol\":4556:4579  uint256 AllLotteryCount */\n      0x00\n        /* \"contracts/Lottery.sol\":4582:4617  SafeMathdiv(msg.value, PerEggPrice) */\n      tag_193\n        /* \"contracts/Lottery.sol\":4594:4603  msg.value */\n      callvalue\n        /* \"contracts/Lottery.sol\":1287:1297  0.02 ether */\n      0x470de4df820000\n        /* \"contracts/Lottery.sol\":4582:4593  SafeMathdiv */\n      tag_85\n        /* \"contracts/Lottery.sol\":4582:4617  SafeMathdiv(msg.value, PerEggPrice) */\n      jump\t// in\n    tag_193:\n        /* \"contracts/Lottery.sol\":4556:4617  uint256 AllLotteryCount = SafeMathdiv(msg.value, PerEggPrice) */\n      swap1\n      pop\n        /* \"contracts/Lottery.sol\":4666:4669  mul */\n      dup4\n        /* \"contracts/Lottery.sol\":4655:4669  LotCount * mul */\n      0xff\n      and\n        /* \"contracts/Lottery.sol\":4655:4663  LotCount */\n      dup6\n        /* \"contracts/Lottery.sol\":4655:4669  LotCount * mul */\n      tag_194\n      swap2\n      swap1\n      tag_195\n      jump\t// in\n    tag_194:\n        /* \"contracts/Lottery.sol\":4636:4669  AllLotteryCount == LotCount * mul */\n      0xffff\n      and\n        /* \"contracts/Lottery.sol\":4636:4651  AllLotteryCount */\n      dup2\n        /* \"contracts/Lottery.sol\":4636:4669  AllLotteryCount == LotCount * mul */\n      eq\n        /* \"contracts/Lottery.sol\":4628:4686  require(AllLotteryCount == LotCount * mul, \"Invalid data\") */\n      tag_196\n      jumpi\n      mload(0x40)\n      0x08c379a000000000000000000000000000000000000000000000000000000000\n      dup2\n      mstore\n      0x04\n      add\n      tag_197\n      swap1\n      tag_198\n      jump\t// in\n    tag_197:\n      mload(0x40)\n      dup1\n      swap2\n      sub\n      swap1\n      revert\n    tag_196:\n        /* \"contracts/Lottery.sol\":4702:4711  uint256 i */\n      0x00\n        /* \"contracts/Lottery.sol\":4697:5183  for (uint256 i = 0; i < LotCount; i++) {... */\n    tag_199:\n        /* \"contracts/Lottery.sol\":4721:4729  LotCount */\n      dup6\n        /* \"contracts/Lottery.sol\":4717:4729  i < LotCount */\n      0xffff\n      and\n        /* \"contracts/Lottery.sol\":4717:4718  i */\n      dup2\n        /* \"contracts/Lottery.sol\":4717:4729  i < LotCount */\n      lt\n        /* \"contracts/Lottery.sol\":4697:5183  for (uint256 i = 0; i < LotCount; i++) {... */\n      iszero\n      tag_200\n      jumpi\n        /* \"contracts/Lottery.sol\":4750:4772  Egginfo memory egginfo */\n      0x00\n        /* \"contracts/Lottery.sol\":4775:5113  Egginfo(... */\n      mload(0x40)\n      dup1\n      0x60\n      add\n      0x40\n      mstore\n      dup1\n        /* \"contracts/Lottery.sol\":4873:4888  block.timestamp */\n      timestamp\n        /* \"contracts/Lottery.sol\":4914:4928  block.coinbase */\n      coinbase\n        /* \"contracts/Lottery.sol\":4954:4964  msg.sender */\n      caller\n        /* \"contracts/Lottery.sol\":4990:4999  Lucknum++ */\n      dup10\n      dup1\n      tag_202\n      swap1\n      tag_203\n      jump\t// in\n    tag_202:\n      swap11\n      pop\n        /* \"contracts/Lottery.sol\":4831:5021  abi.encodePacked(... */\n      add(0x20, mload(0x40))\n      tag_204\n      swap5\n      swap4\n      swap3\n      swap2\n      swap1\n      tag_205\n      jump\t// in\n    tag_204:\n      mload(0x40)\n      0x20\n      dup2\n      dup4\n      sub\n      sub\n      dup2\n      mstore\n      swap1\n      0x40\n      mstore\n        /* \"contracts/Lottery.sol\":4800:5039  keccak256(... */\n      dup1\n      mload\n      swap1\n      0x20\n      add\n      keccak256\n        /* \"contracts/Lottery.sol\":4775:5113  Egginfo(... */\n      dup2\n      mstore\n      0x20\n      add\n        /* \"contracts/Lottery.sol\":5057:5060  mul */\n      dup8\n        /* \"contracts/Lottery.sol\":4775:5113  Egginfo(... */\n      0xff\n      and\n      dup2\n      mstore\n      0x20\n      add\n        /* \"contracts/Lottery.sol\":5086:5098  block.number */\n      number\n        /* \"contracts/Lottery.sol\":4775:5113  Egginfo(... */\n      0xffffffffffffffffffffffffffffffffffffffffffffffffffffffffffffff\n      and\n      dup2\n      mstore\n      pop\n        /* \"contracts/Lottery.sol\":4750:5113  Egginfo memory egginfo = Egginfo(... */\n      swap1\n      pop\n        /* \"contracts/Lottery.sol\":5128:5137  UsersInfo */\n      0x09\n        /* \"contracts/Lottery.sol\":5128:5149  UsersInfo[msg.sender] */\n      0x00\n        /* \"contracts/Lottery.sol\":5138:5148  msg.sender */\n      caller\n        /* \"contracts/Lottery.sol\":5128:5149  UsersInfo[msg.sender] */\n      0xffffffffffffffffffffffffffffffffffffffff\n      and\n      0xffffffffffffffffffffffffffffffffffffffff\n      and\n      dup2\n      mstore\n      0x20\n      add\n      swap1\n      dup2\n      mstore\n      0x20\n      add\n      0x00\n      keccak256\n        /* \"contracts/Lottery.sol\":5128:5158  UsersInfo[msg.sender].eggsinfo */\n      0x00\n      add\n        /* \"contracts/Lottery.sol\":5164:5171  egginfo */\n      dup2\n        /* \"contracts/Lottery.sol\":5128:5172  UsersInfo[msg.sender].eggsinfo.push(egginfo) */\n      swap1\n      dup1\n      0x01\n      dup2\n      sload\n      add\n      dup1\n      dup3\n      sstore\n      dup1\n      swap2\n      pop\n      pop\n      0x01\n      swap1\n      sub\n      swap1\n      0x00\n      mstore\n      keccak256(0x00, 0x20)\n      swap1\n      0x02\n      mul\n      add\n      0x00\n      swap1\n      swap2\n      swap1\n      swap2\n      swap1\n      swap2\n      pop\n      0x00\n      dup3\n      add\n      mload\n      dup2\n      0x00\n      add\n      sstore\n      0x20\n      dup3\n      add\n      mload\n      dup2\n      0x01\n      add\n      exp(0x0100, 0x00)\n      dup2\n      sload\n      dup2\n      0xff\n      mul\n      not\n      and\n      swap1\n      dup4\n      0xff\n      and\n      mul\n      or\n      swap1\n      sstore\n      pop\n      0x40\n      dup3\n      add\n      mload\n      dup2\n      0x01\n      add\n      exp(0x0100, 0x01)\n      dup2\n      sload\n      dup2\n      0xffffffffffffffffffffffffffffffffffffffffffffffffffffffffffffff\n      mul\n      not\n      and\n      swap1\n      dup4\n      0xffffffffffffffffffffffffffffffffffffffffffffffffffffffffffffff\n      and\n      mul\n      or\n      swap1\n      sstore\n      pop\n      pop\n      pop\n        /* \"contracts/Lottery.sol\":4736:5183  {... */\n      pop\n        /* \"contracts/Lottery.sol\":4731:4734  i++ */\n      dup1\n      dup1\n      0x01\n      add\n      swap2\n      pop\n      pop\n        /* \"contracts/Lottery.sol\":4697:5183  for (uint256 i = 0; i < LotCount; i++) {... */\n      jump(tag_199)\n    tag_200:\n      pop\n        /* \"contracts/Lottery.sol\":5198:5207  UsersInfo */\n      0x09\n        /* \"contracts/Lottery.sol\":5198:5219  UsersInfo[msg.sender] */\n      0x00\n        /* \"contracts/Lottery.sol\":5208:5218  msg.sender */\n      caller\n        /* \"contracts/Lottery.sol\":5198:5219  UsersInfo[msg.sender] */\n      0xffffffffffffffffffffffffffffffffffffffff\n      and\n      0xffffffffffffffffffffffffffffffffffffffff\n      and\n      dup2\n      mstore\n      0x20\n      add\n      swap1\n      dup2\n      mstore\n      0x20\n      add\n      0x00\n      keccak256\n        /* \"contracts/Lottery.sol\":5198:5227  UsersInfo[msg.sender].actived */\n      0x03\n      add\n      0x00\n      swap1\n      sload\n      swap1\n      0x0100\n      exp\n      swap1\n      div\n      0xff\n      and\n        /* \"contracts/Lottery.sol\":5193:5277  if (!UsersInfo[msg.sender].actived)... */\n      tag_207\n      jumpi\n        /* \"contracts/Lottery.sol\":5273:5277  true */\n      0x01\n        /* \"contracts/Lottery.sol\":5241:5250  UsersInfo */\n      0x09\n        /* \"contracts/Lottery.sol\":5241:5262  UsersInfo[msg.sender] */\n      0x00\n        /* \"contracts/Lottery.sol\":5251:5261  msg.sender */\n      caller\n        /* \"contracts/Lottery.sol\":5241:5262  UsersInfo[msg.sender] */\n      0xffffffffffffffffffffffffffffffffffffffff\n      and\n      0xffffffffffffffffffffffffffffffffffffffff\n      and\n      dup2\n      mstore\n      0x20\n      add\n      swap1\n      dup2\n      mstore\n      0x20\n      add\n      0x00\n      keccak256\n        /* \"contracts/Lottery.sol\":5241:5270  UsersInfo[msg.sender].actived */\n      0x03\n      add\n      0x00\n        /* \"contracts/Lottery.sol\":5241:5277  UsersInfo[msg.sender].actived = true */\n      0x0100\n      exp\n      dup2\n      sload\n      dup2\n      0xff\n      mul\n      not\n      and\n      swap1\n      dup4\n      iszero\n      iszero\n      mul\n      or\n      swap1\n      sstore\n      pop\n        /* \"contracts/Lottery.sol\":5193:5277  if (!UsersInfo[msg.sender].actived)... */\n    tag_207:\n        /* \"contracts/Lottery.sol\":5312:5326  uint256 profit */\n      0x00\n        /* \"contracts/Lottery.sol\":5329:5372  SafeMathdiv(SafeMathmul(msg.value, 3), 100) */\n      tag_208\n        /* \"contracts/Lottery.sol\":5341:5366  SafeMathmul(msg.value, 3) */\n      tag_209\n        /* \"contracts/Lottery.sol\":5353:5362  msg.value */\n      callvalue\n        /* \"contracts/Lottery.sol\":5364:5365  3 */\n      0x03\n        /* \"contracts/Lottery.sol\":5341:5352  SafeMathmul */\n      tag_84\n        /* \"contracts/Lottery.sol\":5341:5366  SafeMathmul(msg.value, 3) */\n      jump\t// in\n    tag_209:\n        /* \"contracts/Lottery.sol\":5368:5371  100 */\n      0x64\n        /* \"contracts/Lottery.sol\":5329:5340  SafeMathdiv */\n      tag_85\n        /* \"contracts/Lottery.sol\":5329:5372  SafeMathdiv(SafeMathmul(msg.value, 3), 100) */\n      jump\t// in\n    tag_208:\n        /* \"contracts/Lottery.sol\":5312:5372  uint256 profit = SafeMathdiv(SafeMathmul(msg.value, 3), 100) */\n      swap1\n      pop\n        /* \"contracts/Lottery.sol\":5407:5424  uint256 Refprofit */\n      0x00\n        /* \"contracts/Lottery.sol\":5427:5470  SafeMathdiv(SafeMathmul(msg.value, 4), 100) */\n      tag_210\n        /* \"contracts/Lottery.sol\":5439:5464  SafeMathmul(msg.value, 4) */\n      tag_211\n        /* \"contracts/Lottery.sol\":5451:5460  msg.value */\n      callvalue\n        /* \"contracts/Lottery.sol\":5462:5463  4 */\n      0x04\n        /* \"contracts/Lottery.sol\":5439:5450  SafeMathmul */\n      tag_84\n        /* \"contracts/Lottery.sol\":5439:5464  SafeMathmul(msg.value, 4) */\n      jump\t// in\n    tag_211:\n        /* \"contracts/Lottery.sol\":5466:5469  100 */\n      0x64\n        /* \"contracts/Lottery.sol\":5427:5438  SafeMathdiv */\n      tag_85\n        /* \"contracts/Lottery.sol\":5427:5470  SafeMathdiv(SafeMathmul(msg.value, 4), 100) */\n      jump\t// in\n    tag_210:\n        /* \"contracts/Lottery.sol\":5407:5470  uint256 Refprofit = SafeMathdiv(SafeMathmul(msg.value, 4), 100) */\n      swap1\n      pop\n        /* \"contracts/Lottery.sol\":5523:5529  profit */\n      dup2\n        /* \"contracts/Lottery.sol\":5510:5519  DevProfit */\n      0x01\n      0x00\n        /* \"contracts/Lottery.sol\":5510:5529  DevProfit += profit */\n      dup3\n      dup3\n      sload\n      tag_212\n      swap2\n      swap1\n      tag_62\n      jump\t// in\n    tag_212:\n      swap3\n      pop\n      pop\n      dup2\n      swap1\n      sstore\n      pop\n        /* \"contracts/Lottery.sol\":5588:5594  profit */\n      dup2\n        /* \"contracts/Lottery.sol\":5569:5584  InvestorsProfit */\n      0x05\n      0x00\n        /* \"contracts/Lottery.sol\":5569:5594  InvestorsProfit += profit */\n      dup3\n      dup3\n      sload\n      tag_213\n      swap2\n      swap1\n      tag_62\n      jump\t// in\n    tag_213:\n      swap3\n      pop\n      pop\n      dup2\n      swap1\n      sstore\n      pop\n        /* \"contracts/Lottery.sol\":5687:5688  0 */\n      0x00\n        /* \"contracts/Lottery.sol\":5654:5689  referrals[msg.sender] == address(0) */\n      0xffffffffffffffffffffffffffffffffffffffff\n      and\n        /* \"contracts/Lottery.sol\":5654:5663  referrals */\n      0x0a\n        /* \"contracts/Lottery.sol\":5654:5675  referrals[msg.sender] */\n      0x00\n        /* \"contracts/Lottery.sol\":5664:5674  msg.sender */\n      caller\n        /* \"contracts/Lottery.sol\":5654:5675  referrals[msg.sender] */\n      0xffffffffffffffffffffffffffffffffffffffff\n      and\n      0xffffffffffffffffffffffffffffffffffffffff\n      and\n      dup2\n      mstore\n      0x20\n      add\n      swap1\n      dup2\n      mstore\n      0x20\n      add\n      0x00\n      keccak256\n      0x00\n      swap1\n      sload\n      swap1\n      0x0100\n      exp\n      swap1\n      div\n      0xffffffffffffffffffffffffffffffffffffffff\n      and\n        /* \"contracts/Lottery.sol\":5654:5689  referrals[msg.sender] == address(0) */\n      0xffffffffffffffffffffffffffffffffffffffff\n      and\n      sub\n        /* \"contracts/Lottery.sol\":5650:6538  if (referrals[msg.sender] == address(0)) {... */\n      tag_214\n      jumpi\n        /* \"contracts/Lottery.sol\":5863:5873  msg.sender */\n      caller\n        /* \"contracts/Lottery.sol\":5856:5873  ref == msg.sender */\n      0xffffffffffffffffffffffffffffffffffffffff\n      and\n        /* \"contracts/Lottery.sol\":5856:5859  ref */\n      dup5\n        /* \"contracts/Lottery.sol\":5856:5873  ref == msg.sender */\n      0xffffffffffffffffffffffffffffffffffffffff\n      and\n      eq\n        /* \"contracts/Lottery.sol\":5856:5910  ref == msg.sender ||... */\n      dup1\n      tag_215\n      jumpi\n      pop\n        /* \"contracts/Lottery.sol\":5908:5909  0 */\n      0x00\n        /* \"contracts/Lottery.sol\":5893:5910  ref == address(0) */\n      0xffffffffffffffffffffffffffffffffffffffff\n      and\n        /* \"contracts/Lottery.sol\":5893:5896  ref */\n      dup5\n        /* \"contracts/Lottery.sol\":5893:5910  ref == address(0) */\n      0xffffffffffffffffffffffffffffffffffffffff\n      and\n      eq\n        /* \"contracts/Lottery.sol\":5856:5910  ref == msg.sender ||... */\n    tag_215:\n        /* \"contracts/Lottery.sol\":5856:5960  ref == msg.sender ||... */\n      dup1\n      tag_216\n      jumpi\n      pop\n        /* \"contracts/Lottery.sol\":5931:5940  UsersInfo */\n      0x09\n        /* \"contracts/Lottery.sol\":5931:5952  UsersInfo[msg.sender] */\n      0x00\n        /* \"contracts/Lottery.sol\":5941:5951  msg.sender */\n      caller\n        /* \"contracts/Lottery.sol\":5931:5952  UsersInfo[msg.sender] */\n      0xffffffffffffffffffffffffffffffffffffffff\n      and\n      0xffffffffffffffffffffffffffffffffffffffff\n      and\n      dup2\n      mstore\n      0x20\n      add\n      swap1\n      dup2\n      mstore\n      0x20\n      add\n      0x00\n      keccak256\n        /* \"contracts/Lottery.sol\":5931:5960  UsersInfo[msg.sender].actived */\n      0x03\n      add\n      0x00\n      swap1\n      sload\n      swap1\n      0x0100\n      exp\n      swap1\n      div\n      0xff\n      and\n        /* \"contracts/Lottery.sol\":5930:5960  !UsersInfo[msg.sender].actived */\n      iszero\n        /* \"contracts/Lottery.sol\":5856:5960  ref == msg.sender ||... */\n    tag_216:\n        /* \"contracts/Lottery.sol\":5835:6101  if (... */\n      iszero\n      tag_217\n      jumpi\n        /* \"contracts/Lottery.sol\":6076:6086  DevAddress */\n      0x00\n      dup1\n      sload\n      swap1\n      0x0100\n      exp\n      swap1\n      div\n      0xffffffffffffffffffffffffffffffffffffffff\n      and\n        /* \"contracts/Lottery.sol\":6070:6086  ref = DevAddress */\n      swap4\n      pop\n        /* \"contracts/Lottery.sol\":5835:6101  if (... */\n    tag_217:\n        /* \"contracts/Lottery.sol\":6138:6141  ref */\n      dup4\n        /* \"contracts/Lottery.sol\":6114:6123  referrals */\n      0x0a\n        /* \"contracts/Lottery.sol\":6114:6135  referrals[msg.sender] */\n      0x00\n        /* \"contracts/Lottery.sol\":6124:6134  msg.sender */\n      caller\n        /* \"contracts/Lottery.sol\":6114:6135  referrals[msg.sender] */\n      0xffffffffffffffffffffffffffffffffffffffff\n      and\n      0xffffffffffffffffffffffffffffffffffffffff\n      and\n      dup2\n      mstore\n      0x20\n      add\n      swap1\n      dup2\n      mstore\n      0x20\n      add\n      0x00\n      keccak256\n      0x00\n        /* \"contracts/Lottery.sol\":6114:6141  referrals[msg.sender] = ref */\n      0x0100\n      exp\n      dup2\n      sload\n      dup2\n      0xffffffffffffffffffffffffffffffffffffffff\n      mul\n      not\n      and\n      swap1\n      dup4\n      0xffffffffffffffffffffffffffffffffffffffff\n      and\n      mul\n      or\n      swap1\n      sstore\n      pop\n        /* \"contracts/Lottery.sol\":6265:6275  DevAddress */\n      0x00\n      dup1\n      sload\n      swap1\n      0x0100\n      exp\n      swap1\n      div\n      0xffffffffffffffffffffffffffffffffffffffff\n      and\n        /* \"contracts/Lottery.sol\":6240:6275  referrals[msg.sender] == DevAddress */\n      0xffffffffffffffffffffffffffffffffffffffff\n      and\n        /* \"contracts/Lottery.sol\":6240:6249  referrals */\n      0x0a\n        /* \"contracts/Lottery.sol\":6240:6261  referrals[msg.sender] */\n      0x00\n        /* \"contracts/Lottery.sol\":6250:6260  msg.sender */\n      caller\n        /* \"contracts/Lottery.sol\":6240:6261  referrals[msg.sender] */\n      0xffffffffffffffffffffffffffffffffffffffff\n      and\n      0xffffffffffffffffffffffffffffffffffffffff\n      and\n      dup2\n      mstore\n      0x20\n      add\n      swap1\n      dup2\n      mstore\n      0x20\n      add\n      0x00\n      keccak256\n      0x00\n      swap1\n      sload\n      swap1\n      0x0100\n      exp\n      swap1\n      div\n      0xffffffffffffffffffffffffffffffffffffffff\n      and\n        /* \"contracts/Lottery.sol\":6240:6275  referrals[msg.sender] == DevAddress */\n      0xffffffffffffffffffffffffffffffffffffffff\n      and\n      sub\n        /* \"contracts/Lottery.sol\":6236:6481  if (referrals[msg.sender] == DevAddress) {... */\n      tag_218\n      jumpi\n        /* \"contracts/Lottery.sol\":6308:6317  Refprofit */\n      dup1\n        /* \"contracts/Lottery.sol\":6295:6304  DevProfit */\n      0x01\n      0x00\n        /* \"contracts/Lottery.sol\":6295:6317  DevProfit += Refprofit */\n      dup3\n      dup3\n      sload\n      tag_219\n      swap2\n      swap1\n      tag_62\n      jump\t// in\n    tag_219:\n      swap3\n      pop\n      pop\n      dup2\n      swap1\n      sstore\n      pop\n        /* \"contracts/Lottery.sol\":6236:6481  if (referrals[msg.sender] == DevAddress) {... */\n      jump(tag_220)\n    tag_218:\n        /* \"contracts/Lottery.sol\":6407:6416  Refprofit */\n      dup1\n        /* \"contracts/Lottery.sol\":6356:6365  UsersInfo */\n      0x09\n        /* \"contracts/Lottery.sol\":6356:6388  UsersInfo[referrals[msg.sender]] */\n      0x00\n        /* \"contracts/Lottery.sol\":6366:6375  referrals */\n      0x0a\n        /* \"contracts/Lottery.sol\":6366:6387  referrals[msg.sender] */\n      0x00\n        /* \"contracts/Lottery.sol\":6376:6386  msg.sender */\n      caller\n        /* \"contracts/Lottery.sol\":6366:6387  referrals[msg.sender] */\n      0xffffffffffffffffffffffffffffffffffffffff\n      and\n      0xffffffffffffffffffffffffffffffffffffffff\n      and\n      dup2\n      mstore\n      0x20\n      add\n      swap1\n      dup2\n      mstore\n      0x20\n      add\n      0x00\n      keccak256\n      0x00\n      swap1\n      sload\n      swap1\n      0x0100\n      exp\n      swap1\n      div\n      0xffffffffffffffffffffffffffffffffffffffff\n      and\n        /* \"contracts/Lottery.sol\":6356:6388  UsersInfo[referrals[msg.sender]] */\n      0xffffffffffffffffffffffffffffffffffffffff\n      and\n      0xffffffffffffffffffffffffffffffffffffffff\n      and\n      dup2\n      mstore\n      0x20\n      add\n      swap1\n      dup2\n      mstore\n      0x20\n      add\n      0x00\n      keccak256\n        /* \"contracts/Lottery.sol\":6356:6403  UsersInfo[referrals[msg.sender]].ReferralProfit */\n      0x02\n      add\n      0x00\n        /* \"contracts/Lottery.sol\":6356:6416  UsersInfo[referrals[msg.sender]].ReferralProfit += Refprofit */\n      dup3\n      dup3\n      sload\n      tag_221\n      swap2\n      swap1\n      tag_62\n      jump\t// in\n    tag_221:\n      swap3\n      pop\n      pop\n      dup2\n      swap1\n      sstore\n      pop\n        /* \"contracts/Lottery.sol\":6457:6466  Refprofit */\n      dup1\n        /* \"contracts/Lottery.sol\":6434:6453  TotalReferralProfit */\n      0x07\n      0x00\n        /* \"contracts/Lottery.sol\":6434:6466  TotalReferralProfit += Refprofit */\n      dup3\n      dup3\n      sload\n      tag_222\n      swap2\n      swap1\n      tag_62\n      jump\t// in\n    tag_222:\n      swap3\n      pop\n      pop\n      dup2\n      swap1\n      sstore\n      pop\n        /* \"contracts/Lottery.sol\":6236:6481  if (referrals[msg.sender] == DevAddress) {... */\n    tag_220:\n        /* \"contracts/Lottery.sol\":6512:6527  block.timestamp */\n      timestamp\n        /* \"contracts/Lottery.sol\":6495:6509  LastBuyEggTime */\n      0x08\n        /* \"contracts/Lottery.sol\":6495:6527  LastBuyEggTime = block.timestamp */\n      dup2\n      swap1\n      sstore\n      pop\n        /* \"contracts/Lottery.sol\":5650:6538  if (referrals[msg.sender] == address(0)) {... */\n    tag_214:\n        /* \"contracts/Lottery.sol\":4285:6544  {... */\n      pop\n      pop\n      pop\n        /* \"contracts/Lottery.sol\":4155:6544  function BuyEggs(... */\n      pop\n      pop\n      pop\n      pop\n      jump\t// out\n        /* \"contracts/Lottery.sol\":2170:2200  uint256 public InvestorsProfit */\n    tag_45:\n      sload(0x05)\n      dup2\n      jump\t// out\n        /* \"contracts/Lottery.sol\":12301:13685  function InvestmentWithdrawal(uint256 WithdrawalAmount) external {... */\n    tag_51:\n        /* \"contracts/Lottery.sol\":1547:1554  1 ether */\n      0x0de0b6b3a7640000\n        /* \"contracts/Lottery.sol\":12457:12473  WithdrawalAmount */\n      dup2\n        /* \"contracts/Lottery.sol\":12457:12502  WithdrawalAmount >= Mininum_Investment_amount */\n      lt\n      iszero\n        /* \"contracts/Lottery.sol\":12436:12603  require(... */\n      tag_224\n      jumpi\n      mload(0x40)\n      0x08c379a000000000000000000000000000000000000000000000000000000000\n      dup2\n      mstore\n      0x04\n      add\n      tag_225\n      swap1\n      tag_226\n      jump\t// in\n    tag_225:\n      mload(0x40)\n      dup1\n      swap2\n      sub\n      swap1\n      revert\n    tag_224:\n        /* \"contracts/Lottery.sol\":12691:12707  InvestorsBalance */\n      0x03\n        /* \"contracts/Lottery.sol\":12691:12719  InvestorsBalance[msg.sender] */\n      0x00\n        /* \"contracts/Lottery.sol\":12708:12718  msg.sender */\n      caller\n        /* \"contracts/Lottery.sol\":12691:12719  InvestorsBalance[msg.sender] */\n      0xffffffffffffffffffffffffffffffffffffffff\n      and\n      0xffffffffffffffffffffffffffffffffffffffff\n      and\n      dup2\n      mstore\n      0x20\n      add\n      swap1\n      dup2\n      mstore\n      0x20\n      add\n      0x00\n      keccak256\n        /* \"contracts/Lottery.sol\":12691:12727  InvestorsBalance[msg.sender].balance */\n      0x00\n      add\n      sload\n        /* \"contracts/Lottery.sol\":12671:12687  WithdrawalAmount */\n      dup2\n        /* \"contracts/Lottery.sol\":12671:12727  WithdrawalAmount <= InvestorsBalance[msg.sender].balance */\n      gt\n      iszero\n        /* \"contracts/Lottery.sol\":12650:12781  require(... */\n      tag_227\n      jumpi\n      mload(0x40)\n      0x08c379a000000000000000000000000000000000000000000000000000000000\n      dup2\n      mstore\n      0x04\n      add\n      tag_228\n      swap1\n      tag_229\n      jump\t// in\n    tag_228:\n      mload(0x40)\n      dup1\n      swap2\n      sub\n      swap1\n      revert\n    tag_227:\n        /* \"contracts/Lottery.sol\":13001:13008  1 weeks */\n      0x093a80\n        /* \"contracts/Lottery.sol\":12955:12971  InvestorsBalance */\n      0x03\n        /* \"contracts/Lottery.sol\":12955:12983  InvestorsBalance[msg.sender] */\n      0x00\n        /* \"contracts/Lottery.sol\":12972:12982  msg.sender */\n      caller\n        /* \"contracts/Lottery.sol\":12955:12983  InvestorsBalance[msg.sender] */\n      0xffffffffffffffffffffffffffffffffffffffff\n      and\n      0xffffffffffffffffffffffffffffffffffffffff\n      and\n      dup2\n      mstore\n      0x20\n      add\n      swap1\n      dup2\n      mstore\n      0x20\n      add\n      0x00\n      keccak256\n        /* \"contracts/Lottery.sol\":12955:12998  InvestorsBalance[msg.sender].LastInvestTime */\n      0x01\n      add\n      sload\n        /* \"contracts/Lottery.sol\":12955:13008  InvestorsBalance[msg.sender].LastInvestTime + 1 weeks */\n      tag_230\n      swap2\n      swap1\n      tag_62\n      jump\t// in\n    tag_230:\n        /* \"contracts/Lottery.sol\":12920:12935  block.timestamp */\n      timestamp\n        /* \"contracts/Lottery.sol\":12920:13008  block.timestamp >=... */\n      lt\n      iszero\n        /* \"contracts/Lottery.sol\":12899:13065  require(... */\n      tag_231\n      jumpi\n      mload(0x40)\n      0x08c379a000000000000000000000000000000000000000000000000000000000\n      dup2\n      mstore\n      0x04\n      add\n      tag_232\n      swap1\n      tag_233\n      jump\t// in\n    tag_232:\n      mload(0x40)\n      dup1\n      swap2\n      sub\n      swap1\n      revert\n    tag_231:\n        /* \"contracts/Lottery.sol\":13300:13316  WithdrawalAmount */\n      dup1\n        /* \"contracts/Lottery.sol\":13163:13296  SafeMathsub(... */\n      tag_234\n        /* \"contracts/Lottery.sol\":13192:13213  address(this).balance */\n      selfbalance\n        /* \"contracts/Lottery.sol\":13272:13281  DevProfit */\n      sload(0x01)\n        /* \"contracts/Lottery.sol\":13250:13269  TotalReferralProfit */\n      sload(0x07)\n        /* \"contracts/Lottery.sol\":13232:13247  InvestorsProfit */\n      sload(0x05)\n        /* \"contracts/Lottery.sol\":13232:13269  InvestorsProfit + TotalReferralProfit */\n      tag_235\n      swap2\n      swap1\n      tag_62\n      jump\t// in\n    tag_235:\n        /* \"contracts/Lottery.sol\":13232:13281  InvestorsProfit + TotalReferralProfit + DevProfit */\n      tag_236\n      swap2\n      swap1\n      tag_62\n      jump\t// in\n    tag_236:\n        /* \"contracts/Lottery.sol\":13163:13174  SafeMathsub */\n      tag_64\n        /* \"contracts/Lottery.sol\":13163:13296  SafeMathsub(... */\n      jump\t// in\n    tag_234:\n        /* \"contracts/Lottery.sol\":13163:13316  SafeMathsub(... */\n      lt\n      iszero\n        /* \"contracts/Lottery.sol\":13142:13372  require(... */\n      tag_237\n      jumpi\n      mload(0x40)\n      0x08c379a000000000000000000000000000000000000000000000000000000000\n      dup2\n      mstore\n      0x04\n      add\n      tag_238\n      swap1\n      tag_239\n      jump\t// in\n    tag_238:\n      mload(0x40)\n      dup1\n      swap2\n      sub\n      swap1\n      revert\n    tag_237:\n        /* \"contracts/Lottery.sol\":13483:13499  WithdrawalAmount */\n      dup1\n        /* \"contracts/Lottery.sol\":13443:13459  InvestorsBalance */\n      0x03\n        /* \"contracts/Lottery.sol\":13443:13471  InvestorsBalance[msg.sender] */\n      0x00\n        /* \"contracts/Lottery.sol\":13460:13470  msg.sender */\n      caller\n        /* \"contracts/Lottery.sol\":13443:13471  InvestorsBalance[msg.sender] */\n      0xffffffffffffffffffffffffffffffffffffffff\n      and\n      0xffffffffffffffffffffffffffffffffffffffff\n      and\n      dup2\n      mstore\n      0x20\n      add\n      swap1\n      dup2\n      mstore\n      0x20\n      add\n      0x00\n      keccak256\n        /* \"contracts/Lottery.sol\":13443:13479  InvestorsBalance[msg.sender].balance */\n      0x00\n      add\n      0x00\n        /* \"contracts/Lottery.sol\":13443:13499  InvestorsBalance[msg.sender].balance -= WithdrawalAmount */\n      dup3\n      dup3\n      sload\n      tag_240\n      swap2\n      swap1\n      tag_99\n      jump\t// in\n    tag_240:\n      swap3\n      pop\n      pop\n      dup2\n      swap1\n      sstore\n      pop\n        /* \"contracts/Lottery.sol\":13567:13583  WithdrawalAmount */\n      dup1\n        /* \"contracts/Lottery.sol\":13542:13563  TotalInvestmentAmount */\n      0x04\n      0x00\n        /* \"contracts/Lottery.sol\":13542:13583  TotalInvestmentAmount -= WithdrawalAmount */\n      dup3\n      dup3\n      sload\n      tag_241\n      swap2\n      swap1\n      tag_99\n      jump\t// in\n    tag_241:\n      swap3\n      pop\n      pop\n      dup2\n      swap1\n      sstore\n      pop\n        /* \"contracts/Lottery.sol\":13640:13650  msg.sender */\n      caller\n        /* \"contracts/Lottery.sol\":13632:13660  payable(msg.sender).transfer */\n      0xffffffffffffffffffffffffffffffffffffffff\n      and\n        /* \"contracts/Lottery.sol\":13632:13678  payable(msg.sender).transfer(WithdrawalAmount) */\n      0x08fc\n        /* \"contracts/Lottery.sol\":13661:13677  WithdrawalAmount */\n      dup3\n        /* \"contracts/Lottery.sol\":13632:13678  payable(msg.sender).transfer(WithdrawalAmount) */\n      swap1\n      dup2\n      iszero\n      mul\n      swap1\n      mload(0x40)\n      0x00\n      mload(0x40)\n      dup1\n      dup4\n      sub\n      dup2\n      dup6\n      dup9\n      dup9\n      call\n      swap4\n      pop\n      pop\n      pop\n      pop\n      iszero\n      dup1\n      iszero\n      tag_243\n      jumpi\n      returndatasize\n      0x00\n      dup1\n      returndatacopy\n      revert(0x00, returndatasize)\n    tag_243:\n      pop\n        /* \"contracts/Lottery.sol\":12301:13685  function InvestmentWithdrawal(uint256 WithdrawalAmount) external {... */\n      pop\n      jump\t// out\n        /* \"contracts/Lottery.sol\":15806:16037  function DeveloperWithdrawal() external {... */\n    tag_54:\n        /* \"contracts/Lottery.sol\":15878:15888  DevAddress */\n      0x00\n      dup1\n      sload\n      swap1\n      0x0100\n      exp\n      swap1\n      div\n      0xffffffffffffffffffffffffffffffffffffffff\n      and\n        /* \"contracts/Lottery.sol\":15864:15888  msg.sender == DevAddress */\n      0xffffffffffffffffffffffffffffffffffffffff\n      and\n        /* \"contracts/Lottery.sol\":15864:15874  msg.sender */\n      caller\n        /* \"contracts/Lottery.sol\":15864:15888  msg.sender == DevAddress */\n      0xffffffffffffffffffffffffffffffffffffffff\n      and\n      eq\n        /* \"contracts/Lottery.sol\":15856:15918  require(msg.sender == DevAddress, \"You must be the developer\") */\n      tag_245\n      jumpi\n      mload(0x40)\n      0x08c379a000000000000000000000000000000000000000000000000000000000\n      dup2\n      mstore\n      0x04\n      add\n      tag_246\n      swap1\n      tag_247\n      jump\t// in\n    tag_246:\n      mload(0x40)\n      dup1\n      swap2\n      sub\n      swap1\n      revert\n    tag_245:\n        /* \"contracts/Lottery.sol\":15928:15945  uint256 devprofit */\n      0x00\n        /* \"contracts/Lottery.sol\":15948:15957  DevProfit */\n      sload(0x01)\n        /* \"contracts/Lottery.sol\":15928:15957  uint256 devprofit = DevProfit */\n      swap1\n      pop\n        /* \"contracts/Lottery.sol\":15979:15980  0 */\n      0x00\n        /* \"contracts/Lottery.sol\":15967:15976  DevProfit */\n      0x01\n        /* \"contracts/Lottery.sol\":15967:15980  DevProfit = 0 */\n      dup2\n      swap1\n      sstore\n      pop\n        /* \"contracts/Lottery.sol\":15999:16009  DevAddress */\n      0x00\n      dup1\n      sload\n      swap1\n      0x0100\n      exp\n      swap1\n      div\n      0xffffffffffffffffffffffffffffffffffffffff\n      and\n        /* \"contracts/Lottery.sol\":15991:16019  payable(DevAddress).transfer */\n      0xffffffffffffffffffffffffffffffffffffffff\n      and\n        /* \"contracts/Lottery.sol\":15991:16030  payable(DevAddress).transfer(devprofit) */\n      0x08fc\n        /* \"contracts/Lottery.sol\":16020:16029  devprofit */\n      dup3\n        /* \"contracts/Lottery.sol\":15991:16030  payable(DevAddress).transfer(devprofit) */\n      swap1\n      dup2\n      iszero\n      mul\n      swap1\n      mload(0x40)\n      0x00\n      mload(0x40)\n      dup1\n      dup4\n      sub\n      dup2\n      dup6\n      dup9\n      dup9\n      call\n      swap4\n      pop\n      pop\n      pop\n      pop\n      iszero\n      dup1\n      iszero\n      tag_249\n      jumpi\n      returndatasize\n      0x00\n      dup1\n      returndatacopy\n      revert(0x00, returndatasize)\n    tag_249:\n      pop\n        /* \"contracts/Lottery.sol\":15846:16037  {... */\n      pop\n        /* \"contracts/Lottery.sol\":15806:16037  function DeveloperWithdrawal() external {... */\n      jump\t// out\n        /* \"contracts/Lottery.sol\":3582:3711  function SafeMathsub(uint256 a, uint256 b) internal pure returns (uint256) {... */\n    tag_64:\n        /* \"contracts/Lottery.sol\":3648:3655  uint256 */\n      0x00\n        /* \"contracts/Lottery.sol\":3679:3680  a */\n      dup3\n        /* \"contracts/Lottery.sol\":3674:3675  b */\n      dup3\n        /* \"contracts/Lottery.sol\":3674:3680  b <= a */\n      gt\n      iszero\n        /* \"contracts/Lottery.sol\":3667:3681  assert(b <= a) */\n      tag_251\n      jumpi\n      tag_252\n      tag_253\n      jump\t// in\n    tag_252:\n    tag_251:\n        /* \"contracts/Lottery.sol\":3703:3704  b */\n      dup2\n        /* \"contracts/Lottery.sol\":3699:3700  a */\n      dup4\n        /* \"contracts/Lottery.sol\":3699:3704  a - b */\n      tag_254\n      swap2\n      swap1\n      tag_99\n      jump\t// in\n    tag_254:\n        /* \"contracts/Lottery.sol\":3692:3704  return a - b */\n      swap1\n      pop\n        /* \"contracts/Lottery.sol\":3582:3711  function SafeMathsub(uint256 a, uint256 b) internal pure returns (uint256) {... */\n      swap3\n      swap2\n      pop\n      pop\n      jump\t// out\n        /* \"contracts/Lottery.sol\":3737:3951  function SafeMathmul(uint256 a, uint256 b) internal pure returns (uint256) {... */\n    tag_84:\n        /* \"contracts/Lottery.sol\":3803:3810  uint256 */\n      0x00\n        /* \"contracts/Lottery.sol\":3831:3832  0 */\n      dup1\n        /* \"contracts/Lottery.sol\":3826:3827  a */\n      dup4\n        /* \"contracts/Lottery.sol\":3826:3832  a == 0 */\n      sub\n        /* \"contracts/Lottery.sol\":3822:3867  if (a == 0) {... */\n      tag_256\n      jumpi\n        /* \"contracts/Lottery.sol\":3855:3856  0 */\n      0x00\n        /* \"contracts/Lottery.sol\":3848:3856  return 0 */\n      swap1\n      pop\n      jump(tag_255)\n        /* \"contracts/Lottery.sol\":3822:3867  if (a == 0) {... */\n    tag_256:\n        /* \"contracts/Lottery.sol\":3877:3886  uint256 c */\n      0x00\n        /* \"contracts/Lottery.sol\":3893:3894  b */\n      dup3\n        /* \"contracts/Lottery.sol\":3889:3890  a */\n      dup5\n        /* \"contracts/Lottery.sol\":3889:3894  a * b */\n      tag_257\n      swap2\n      swap1\n      tag_153\n      jump\t// in\n    tag_257:\n        /* \"contracts/Lottery.sol\":3877:3894  uint256 c = a * b */\n      swap1\n      pop\n        /* \"contracts/Lottery.sol\":3923:3924  b */\n      dup3\n        /* \"contracts/Lottery.sol\":3917:3918  a */\n      dup5\n        /* \"contracts/Lottery.sol\":3913:3914  c */\n      dup3\n        /* \"contracts/Lottery.sol\":3913:3918  c / a */\n      tag_258\n      swap2\n      swap1\n      tag_67\n      jump\t// in\n    tag_258:\n        /* \"contracts/Lottery.sol\":3912:3924  (c / a) == b */\n      eq\n        /* \"contracts/Lottery.sol\":3905:3925  assert((c / a) == b) */\n      tag_259\n      jumpi\n      tag_260\n      tag_253\n      jump\t// in\n    tag_260:\n    tag_259:\n        /* \"contracts/Lottery.sol\":3943:3944  c */\n      dup1\n        /* \"contracts/Lottery.sol\":3936:3944  return c */\n      swap2\n      pop\n      pop\n        /* \"contracts/Lottery.sol\":3737:3951  function SafeMathmul(uint256 a, uint256 b) internal pure returns (uint256) {... */\n    tag_255:\n      swap3\n      swap2\n      pop\n      pop\n      jump\t// out\n        /* \"contracts/Lottery.sol\":3977:4129  function SafeMathdiv(uint256 a, uint256 b) internal pure returns (uint256) {... */\n    tag_85:\n        /* \"contracts/Lottery.sol\":4043:4050  uint256 */\n      0x00\n        /* \"contracts/Lottery.sol\":4073:4074  0 */\n      dup1\n        /* \"contracts/Lottery.sol\":4069:4070  b */\n      dup3\n        /* \"contracts/Lottery.sol\":4069:4074  b > 0 */\n      gt\n        /* \"contracts/Lottery.sol\":4062:4075  assert(b > 0) */\n      tag_262\n      jumpi\n      tag_263\n      tag_253\n      jump\t// in\n    tag_263:\n    tag_262:\n        /* \"contracts/Lottery.sol\":4086:4095  uint256 c */\n      0x00\n        /* \"contracts/Lottery.sol\":4102:4103  b */\n      dup3\n        /* \"contracts/Lottery.sol\":4098:4099  a */\n      dup5\n        /* \"contracts/Lottery.sol\":4098:4103  a / b */\n      tag_264\n      swap2\n      swap1\n      tag_67\n      jump\t// in\n    tag_264:\n        /* \"contracts/Lottery.sol\":4086:4103  uint256 c = a / b */\n      swap1\n      pop\n        /* \"contracts/Lottery.sol\":4121:4122  c */\n      dup1\n        /* \"contracts/Lottery.sol\":4114:4122  return c */\n      swap2\n      pop\n      pop\n        /* \"contracts/Lottery.sol\":3977:4129  function SafeMathdiv(uint256 a, uint256 b) internal pure returns (uint256) {... */\n      swap3\n      swap2\n      pop\n      pop\n      jump\t// out\n        /* \"contracts/Lottery.sol\":6594:7176  function GetWinninggrade(uint32 LotteryNum) private pure returns (uint256) {... */\n    tag_145:\n        /* \"contracts/Lottery.sol\":6660:6667  uint256 */\n      0x00\n        /* \"contracts/Lottery.sol\":6696:6704  67108864 */\n      0x04000000\n        /* \"contracts/Lottery.sol\":6683:6693  LotteryNum */\n      dup3\n        /* \"contracts/Lottery.sol\":6683:6704  LotteryNum > 67108864 */\n      0xffffffff\n      and\n      gt\n        /* \"contracts/Lottery.sol\":6679:6714  if (LotteryNum > 67108864) return 0 */\n      iszero\n      tag_266\n      jumpi\n        /* \"contracts/Lottery.sol\":6713:6714  0 */\n      0x00\n        /* \"contracts/Lottery.sol\":6706:6714  return 0 */\n      swap1\n      pop\n      jump(tag_265)\n        /* \"contracts/Lottery.sol\":6679:6714  if (LotteryNum > 67108864) return 0 */\n    tag_266:\n        /* \"contracts/Lottery.sol\":6742:6750  16777216 */\n      0x01000000\n        /* \"contracts/Lottery.sol\":6728:6738  LotteryNum */\n      dup3\n        /* \"contracts/Lottery.sol\":6728:6750  LotteryNum >= 16777216 */\n      0xffffffff\n      and\n      lt\n        /* \"contracts/Lottery.sol\":6724:6761  if (LotteryNum >= 16777216) return 10 */\n      tag_267\n      jumpi\n        /* \"contracts/Lottery.sol\":6759:6761  10 */\n      0x0a\n        /* \"contracts/Lottery.sol\":6752:6761  return 10 */\n      swap1\n      pop\n      jump(tag_265)\n        /* \"contracts/Lottery.sol\":6724:6761  if (LotteryNum >= 16777216) return 10 */\n    tag_267:\n        /* \"contracts/Lottery.sol\":6789:6796  4194304 */\n      0x400000\n        /* \"contracts/Lottery.sol\":6775:6785  LotteryNum */\n      dup3\n        /* \"contracts/Lottery.sol\":6775:6796  LotteryNum >= 4194304 */\n      0xffffffff\n      and\n      lt\n        /* \"contracts/Lottery.sol\":6771:6806  if (LotteryNum >= 4194304) return 9 */\n      tag_268\n      jumpi\n        /* \"contracts/Lottery.sol\":6805:6806  9 */\n      0x09\n        /* \"contracts/Lottery.sol\":6798:6806  return 9 */\n      swap1\n      pop\n      jump(tag_265)\n        /* \"contracts/Lottery.sol\":6771:6806  if (LotteryNum >= 4194304) return 9 */\n    tag_268:\n        /* \"contracts/Lottery.sol\":6834:6841  1048576 */\n      0x100000\n        /* \"contracts/Lottery.sol\":6820:6830  LotteryNum */\n      dup3\n        /* \"contracts/Lottery.sol\":6820:6841  LotteryNum >= 1048576 */\n      0xffffffff\n      and\n      lt\n        /* \"contracts/Lottery.sol\":6816:6851  if (LotteryNum >= 1048576) return 8 */\n      tag_269\n      jumpi\n        /* \"contracts/Lottery.sol\":6850:6851  8 */\n      0x08\n        /* \"contracts/Lottery.sol\":6843:6851  return 8 */\n      swap1\n      pop\n      jump(tag_265)\n        /* \"contracts/Lottery.sol\":6816:6851  if (LotteryNum >= 1048576) return 8 */\n    tag_269:\n        /* \"contracts/Lottery.sol\":6879:6885  262144 */\n      0x040000\n        /* \"contracts/Lottery.sol\":6865:6875  LotteryNum */\n      dup3\n        /* \"contracts/Lottery.sol\":6865:6885  LotteryNum >= 262144 */\n      0xffffffff\n      and\n      lt\n        /* \"contracts/Lottery.sol\":6861:6895  if (LotteryNum >= 262144) return 7 */\n      tag_270\n      jumpi\n        /* \"contracts/Lottery.sol\":6894:6895  7 */\n      0x07\n        /* \"contracts/Lottery.sol\":6887:6895  return 7 */\n      swap1\n      pop\n      jump(tag_265)\n        /* \"contracts/Lottery.sol\":6861:6895  if (LotteryNum >= 262144) return 7 */\n    tag_270:\n        /* \"contracts/Lottery.sol\":6923:6928  65536 */\n      0x010000\n        /* \"contracts/Lottery.sol\":6909:6919  LotteryNum */\n      dup3\n        /* \"contracts/Lottery.sol\":6909:6928  LotteryNum >= 65536 */\n      0xffffffff\n      and\n      lt\n        /* \"contracts/Lottery.sol\":6905:6938  if (LotteryNum >= 65536) return 6 */\n      tag_271\n      jumpi\n        /* \"contracts/Lottery.sol\":6937:6938  6 */\n      0x06\n        /* \"contracts/Lottery.sol\":6930:6938  return 6 */\n      swap1\n      pop\n      jump(tag_265)\n        /* \"contracts/Lottery.sol\":6905:6938  if (LotteryNum >= 65536) return 6 */\n    tag_271:\n        /* \"contracts/Lottery.sol\":6966:6971  16384 */\n      0x4000\n        /* \"contracts/Lottery.sol\":6952:6962  LotteryNum */\n      dup3\n        /* \"contracts/Lottery.sol\":6952:6971  LotteryNum >= 16384 */\n      0xffffffff\n      and\n      lt\n        /* \"contracts/Lottery.sol\":6948:6981  if (LotteryNum >= 16384) return 5 */\n      tag_272\n      jumpi\n        /* \"contracts/Lottery.sol\":6980:6981  5 */\n      0x05\n        /* \"contracts/Lottery.sol\":6973:6981  return 5 */\n      swap1\n      pop\n      jump(tag_265)\n        /* \"contracts/Lottery.sol\":6948:6981  if (LotteryNum >= 16384) return 5 */\n    tag_272:\n        /* \"contracts/Lottery.sol\":7009:7013  4096 */\n      0x1000\n        /* \"contracts/Lottery.sol\":6995:7005  LotteryNum */\n      dup3\n        /* \"contracts/Lottery.sol\":6995:7013  LotteryNum >= 4096 */\n      0xffffffff\n      and\n      lt\n        /* \"contracts/Lottery.sol\":6991:7023  if (LotteryNum >= 4096) return 4 */\n      tag_273\n      jumpi\n        /* \"contracts/Lottery.sol\":7022:7023  4 */\n      0x04\n        /* \"contracts/Lottery.sol\":7015:7023  return 4 */\n      swap1\n      pop\n      jump(tag_265)\n        /* \"contracts/Lottery.sol\":6991:7023  if (LotteryNum >= 4096) return 4 */\n    tag_273:\n        /* \"contracts/Lottery.sol\":7051:7055  1024 */\n      0x0400\n        /* \"contracts/Lottery.sol\":7037:7047  LotteryNum */\n      dup3\n        /* \"contracts/Lottery.sol\":7037:7055  LotteryNum >= 1024 */\n      0xffffffff\n      and\n      lt\n        /* \"contracts/Lottery.sol\":7033:7065  if (LotteryNum >= 1024) return 3 */\n      tag_274\n      jumpi\n        /* \"contracts/Lottery.sol\":7064:7065  3 */\n      0x03\n        /* \"contracts/Lottery.sol\":7057:7065  return 3 */\n      swap1\n      pop\n      jump(tag_265)\n        /* \"contracts/Lottery.sol\":7033:7065  if (LotteryNum >= 1024) return 3 */\n    tag_274:\n        /* \"contracts/Lottery.sol\":7093:7096  256 */\n      0x0100\n        /* \"contracts/Lottery.sol\":7079:7089  LotteryNum */\n      dup3\n        /* \"contracts/Lottery.sol\":7079:7096  LotteryNum >= 256 */\n      0xffffffff\n      and\n      lt\n        /* \"contracts/Lottery.sol\":7075:7170  if (LotteryNum >= 256) {... */\n      tag_275\n      jumpi\n        /* \"contracts/Lottery.sol\":7119:7120  2 */\n      0x02\n        /* \"contracts/Lottery.sol\":7112:7120  return 2 */\n      swap1\n      pop\n      jump(tag_265)\n        /* \"contracts/Lottery.sol\":7075:7170  if (LotteryNum >= 256) {... */\n    tag_275:\n        /* \"contracts/Lottery.sol\":7158:7159  1 */\n      0x01\n        /* \"contracts/Lottery.sol\":7151:7159  return 1 */\n      swap1\n      pop\n        /* \"contracts/Lottery.sol\":6594:7176  function GetWinninggrade(uint32 LotteryNum) private pure returns (uint256) {... */\n    tag_265:\n      swap2\n      swap1\n      pop\n      jump\t// out\n        /* \"contracts/Lottery.sol\":7226:7831  function GetWinningmultiple(uint256 winninginfo)... */\n    tag_151:\n        /* \"contracts/Lottery.sol\":7321:7328  uint256 */\n      0x00\n        /* \"contracts/Lottery.sol\":7363:7364  0 */\n      dup1\n        /* \"contracts/Lottery.sol\":7348:7359  winninginfo */\n      dup3\n        /* \"contracts/Lottery.sol\":7348:7364  winninginfo == 0 */\n      sub\n        /* \"contracts/Lottery.sol\":7344:7374  if (winninginfo == 0) return 0 */\n      tag_278\n      jumpi\n        /* \"contracts/Lottery.sol\":7373:7374  0 */\n      0x00\n        /* \"contracts/Lottery.sol\":7366:7374  return 0 */\n      swap1\n      pop\n      jump(tag_277)\n        /* \"contracts/Lottery.sol\":7344:7374  if (winninginfo == 0) return 0 */\n    tag_278:\n        /* \"contracts/Lottery.sol\":7403:7405  10 */\n      0x0a\n        /* \"contracts/Lottery.sol\":7388:7399  winninginfo */\n      dup3\n        /* \"contracts/Lottery.sol\":7388:7405  winninginfo == 10 */\n      sub\n        /* \"contracts/Lottery.sol\":7384:7415  if (winninginfo == 10) return 5 */\n      tag_279\n      jumpi\n        /* \"contracts/Lottery.sol\":7414:7415  5 */\n      0x05\n        /* \"contracts/Lottery.sol\":7407:7415  return 5 */\n      swap1\n      pop\n      jump(tag_277)\n        /* \"contracts/Lottery.sol\":7384:7415  if (winninginfo == 10) return 5 */\n    tag_279:\n        /* \"contracts/Lottery.sol\":7444:7445  9 */\n      0x09\n        /* \"contracts/Lottery.sol\":7429:7440  winninginfo */\n      dup3\n        /* \"contracts/Lottery.sol\":7429:7445  winninginfo == 9 */\n      sub\n        /* \"contracts/Lottery.sol\":7425:7456  if (winninginfo == 9) return 20 */\n      tag_280\n      jumpi\n        /* \"contracts/Lottery.sol\":7454:7456  20 */\n      0x14\n        /* \"contracts/Lottery.sol\":7447:7456  return 20 */\n      swap1\n      pop\n      jump(tag_277)\n        /* \"contracts/Lottery.sol\":7425:7456  if (winninginfo == 9) return 20 */\n    tag_280:\n        /* \"contracts/Lottery.sol\":7485:7486  8 */\n      0x08\n        /* \"contracts/Lottery.sol\":7470:7481  winninginfo */\n      dup3\n        /* \"contracts/Lottery.sol\":7470:7486  winninginfo == 8 */\n      sub\n        /* \"contracts/Lottery.sol\":7466:7497  if (winninginfo == 8) return 80 */\n      tag_281\n      jumpi\n        /* \"contracts/Lottery.sol\":7495:7497  80 */\n      0x50\n        /* \"contracts/Lottery.sol\":7488:7497  return 80 */\n      swap1\n      pop\n      jump(tag_277)\n        /* \"contracts/Lottery.sol\":7466:7497  if (winninginfo == 8) return 80 */\n    tag_281:\n        /* \"contracts/Lottery.sol\":7526:7527  7 */\n      0x07\n        /* \"contracts/Lottery.sol\":7511:7522  winninginfo */\n      dup3\n        /* \"contracts/Lottery.sol\":7511:7527  winninginfo == 7 */\n      sub\n        /* \"contracts/Lottery.sol\":7507:7539  if (winninginfo == 7) return 320 */\n      tag_282\n      jumpi\n        /* \"contracts/Lottery.sol\":7536:7539  320 */\n      0x0140\n        /* \"contracts/Lottery.sol\":7529:7539  return 320 */\n      swap1\n      pop\n      jump(tag_277)\n        /* \"contracts/Lottery.sol\":7507:7539  if (winninginfo == 7) return 320 */\n    tag_282:\n        /* \"contracts/Lottery.sol\":7568:7569  6 */\n      0x06\n        /* \"contracts/Lottery.sol\":7553:7564  winninginfo */\n      dup3\n        /* \"contracts/Lottery.sol\":7553:7569  winninginfo == 6 */\n      sub\n        /* \"contracts/Lottery.sol\":7549:7582  if (winninginfo == 6) return 1200 */\n      tag_283\n      jumpi\n        /* \"contracts/Lottery.sol\":7578:7582  1200 */\n      0x04b0\n        /* \"contracts/Lottery.sol\":7571:7582  return 1200 */\n      swap1\n      pop\n      jump(tag_277)\n        /* \"contracts/Lottery.sol\":7549:7582  if (winninginfo == 6) return 1200 */\n    tag_283:\n        /* \"contracts/Lottery.sol\":7611:7612  5 */\n      0x05\n        /* \"contracts/Lottery.sol\":7596:7607  winninginfo */\n      dup3\n        /* \"contracts/Lottery.sol\":7596:7612  winninginfo == 5 */\n      sub\n        /* \"contracts/Lottery.sol\":7592:7625  if (winninginfo == 5) return 4800 */\n      tag_284\n      jumpi\n        /* \"contracts/Lottery.sol\":7621:7625  4800 */\n      0x12c0\n        /* \"contracts/Lottery.sol\":7614:7625  return 4800 */\n      swap1\n      pop\n      jump(tag_277)\n        /* \"contracts/Lottery.sol\":7592:7625  if (winninginfo == 5) return 4800 */\n    tag_284:\n        /* \"contracts/Lottery.sol\":7654:7655  4 */\n      0x04\n        /* \"contracts/Lottery.sol\":7639:7650  winninginfo */\n      dup3\n        /* \"contracts/Lottery.sol\":7639:7655  winninginfo == 4 */\n      sub\n        /* \"contracts/Lottery.sol\":7635:7669  if (winninginfo == 4) return 20000 */\n      tag_285\n      jumpi\n        /* \"contracts/Lottery.sol\":7664:7669  20000 */\n      0x4e20\n        /* \"contracts/Lottery.sol\":7657:7669  return 20000 */\n      swap1\n      pop\n      jump(tag_277)\n        /* \"contracts/Lottery.sol\":7635:7669  if (winninginfo == 4) return 20000 */\n    tag_285:\n        /* \"contracts/Lottery.sol\":7698:7699  3 */\n      0x03\n        /* \"contracts/Lottery.sol\":7683:7694  winninginfo */\n      dup3\n        /* \"contracts/Lottery.sol\":7683:7699  winninginfo == 3 */\n      sub\n        /* \"contracts/Lottery.sol\":7679:7714  if (winninginfo == 3) return 100000 */\n      tag_286\n      jumpi\n        /* \"contracts/Lottery.sol\":7708:7714  100000 */\n      0x0186a0\n        /* \"contracts/Lottery.sol\":7701:7714  return 100000 */\n      swap1\n      pop\n      jump(tag_277)\n        /* \"contracts/Lottery.sol\":7679:7714  if (winninginfo == 3) return 100000 */\n    tag_286:\n        /* \"contracts/Lottery.sol\":7743:7744  2 */\n      0x02\n        /* \"contracts/Lottery.sol\":7728:7739  winninginfo */\n      dup3\n        /* \"contracts/Lottery.sol\":7728:7744  winninginfo == 2 */\n      sub\n        /* \"contracts/Lottery.sol\":7724:7759  if (winninginfo == 2) return 500000 */\n      tag_287\n      jumpi\n        /* \"contracts/Lottery.sol\":7753:7759  500000 */\n      0x07a120\n        /* \"contracts/Lottery.sol\":7746:7759  return 500000 */\n      swap1\n      pop\n      jump(tag_277)\n        /* \"contracts/Lottery.sol\":7724:7759  if (winninginfo == 2) return 500000 */\n    tag_287:\n        /* \"contracts/Lottery.sol\":7788:7789  1 */\n      0x01\n        /* \"contracts/Lottery.sol\":7773:7784  winninginfo */\n      dup3\n        /* \"contracts/Lottery.sol\":7773:7789  winninginfo == 1 */\n      sub\n        /* \"contracts/Lottery.sol\":7769:7805  if (winninginfo == 1) return 2000000 */\n      tag_288\n      jumpi\n        /* \"contracts/Lottery.sol\":7798:7805  2000000 */\n      0x1e8480\n        /* \"contracts/Lottery.sol\":7791:7805  return 2000000 */\n      swap1\n      pop\n      jump(tag_277)\n        /* \"contracts/Lottery.sol\":7769:7805  if (winninginfo == 1) return 2000000 */\n    tag_288:\n        /* \"contracts/Lottery.sol\":7823:7824  0 */\n      0x00\n        /* \"contracts/Lottery.sol\":7816:7824  return 0 */\n      swap1\n      pop\n        /* \"contracts/Lottery.sol\":7226:7831  function GetWinningmultiple(uint256 winninginfo)... */\n    tag_277:\n      swap2\n      swap1\n      pop\n      jump\t// out\n    tag_128:\n      pop\n      dup1\n      sload\n      0x00\n      dup3\n      sstore\n      swap1\n      0x00\n      mstore\n      keccak256(0x00, 0x20)\n      swap1\n      dup2\n      add\n      swap1\n      tag_290\n      swap2\n      swap1\n      tag_291\n      jump\t// in\n    tag_290:\n      pop\n      jump\t// out\n    tag_165:\n      pop\n      dup1\n      sload\n      0x00\n      dup3\n      sstore\n      0x02\n      mul\n      swap1\n      0x00\n      mstore\n      keccak256(0x00, 0x20)\n      swap1\n      dup2\n      add\n      swap1\n      tag_293\n      swap2\n      swap1\n      tag_294\n      jump\t// in\n    tag_293:\n      pop\n      jump\t// out\n    tag_291:\n    tag_295:\n      dup1\n      dup3\n      gt\n      iszero\n      tag_296\n      jumpi\n      0x00\n      dup1\n      dup3\n      add\n      exp(0x0100, 0x00)\n      dup2\n      sload\n      swap1\n      0xffffffff\n      mul\n      not\n      and\n      swap1\n      sstore\n      0x00\n      dup3\n      add\n      exp(0x0100, 0x04)\n      dup2\n      sload\n      swap1\n      0xff\n      mul\n      not\n      and\n      swap1\n      sstore\n      pop\n      0x01\n      add\n      jump(tag_295)\n    tag_296:\n      pop\n      swap1\n      jump\t// out\n    tag_294:\n    tag_297:\n      dup1\n      dup3\n      gt\n      iszero\n      tag_298\n      jumpi\n      0x00\n      dup1\n      dup3\n      add\n      0x00\n      swap1\n      sstore\n      0x01\n      dup3\n      add\n      exp(0x0100, 0x00)\n      dup2\n      sload\n      swap1\n      0xff\n      mul\n      not\n      and\n      swap1\n      sstore\n      0x01\n      dup3\n      add\n      exp(0x0100, 0x01)\n      dup2\n      sload\n      swap1\n      0xffffffffffffffffffffffffffffffffffffffffffffffffffffffffffffff\n      mul\n      not\n      and\n      swap1\n      sstore\n      pop\n      0x02\n      add\n      jump(tag_297)\n    tag_298:\n      pop\n      swap1\n      jump\t// out\n        /* \"#utility.yul\":7:133   */\n    tag_299:\n        /* \"#utility.yul\":44:51   */\n      0x00\n        /* \"#utility.yul\":84:126   */\n      0xffffffffffffffffffffffffffffffffffffffff\n        /* \"#utility.yul\":77:82   */\n      dup3\n        /* \"#utility.yul\":73:127   */\n      and\n        /* \"#utility.yul\":62:127   */\n      swap1\n      pop\n        /* \"#utility.yul\":7:133   */\n      swap2\n      swap1\n      pop\n      jump\t// out\n        /* \"#utility.yul\":139:235   */\n    tag_300:\n        /* \"#utility.yul\":176:183   */\n      0x00\n        /* \"#utility.yul\":205:229   */\n      tag_369\n        /* \"#utility.yul\":223:228   */\n      dup3\n        /* \"#utility.yul\":205:229   */\n      tag_299\n      jump\t// in\n    tag_369:\n        /* \"#utility.yul\":194:229   */\n      swap1\n      pop\n        /* \"#utility.yul\":139:235   */\n      swap2\n      swap1\n      pop\n      jump\t// out\n        /* \"#utility.yul\":241:359   */\n    tag_301:\n        /* \"#utility.yul\":328:352   */\n      tag_371\n        /* \"#utility.yul\":346:351   */\n      dup2\n        /* \"#utility.yul\":328:352   */\n      tag_300\n      jump\t// in\n    tag_371:\n        /* \"#utility.yul\":323:326   */\n      dup3\n        /* \"#utility.yul\":316:353   */\n      mstore\n        /* \"#utility.yul\":241:359   */\n      pop\n      pop\n      jump\t// out\n        /* \"#utility.yul\":365:587   */\n    tag_29:\n        /* \"#utility.yul\":458:462   */\n      0x00\n        /* \"#utility.yul\":496:498   */\n      0x20\n        /* \"#utility.yul\":485:494   */\n      dup3\n        /* \"#utility.yul\":481:499   */\n      add\n        /* \"#utility.yul\":473:499   */\n      swap1\n      pop\n        /* \"#utility.yul\":509:580   */\n      tag_373\n        /* \"#utility.yul\":577:578   */\n      0x00\n        /* \"#utility.yul\":566:575   */\n      dup4\n        /* \"#utility.yul\":562:579   */\n      add\n        /* \"#utility.yul\":553:559   */\n      dup5\n        /* \"#utility.yul\":509:580   */\n      tag_301\n      jump\t// in\n    tag_373:\n        /* \"#utility.yul\":365:587   */\n      swap3\n      swap2\n      pop\n      pop\n      jump\t// out\n        /* \"#utility.yul\":593:670   */\n    tag_302:\n        /* \"#utility.yul\":630:637   */\n      0x00\n        /* \"#utility.yul\":659:664   */\n      dup2\n        /* \"#utility.yul\":648:664   */\n      swap1\n      pop\n        /* \"#utility.yul\":593:670   */\n      swap2\n      swap1\n      pop\n      jump\t// out\n        /* \"#utility.yul\":676:794   */\n    tag_303:\n        /* \"#utility.yul\":763:787   */\n      tag_376\n        /* \"#utility.yul\":781:786   */\n      dup2\n        /* \"#utility.yul\":763:787   */\n      tag_302\n      jump\t// in\n    tag_376:\n        /* \"#utility.yul\":758:761   */\n      dup3\n        /* \"#utility.yul\":751:788   */\n      mstore\n        /* \"#utility.yul\":676:794   */\n      pop\n      pop\n      jump\t// out\n        /* \"#utility.yul\":800:1022   */\n    tag_34:\n        /* \"#utility.yul\":893:897   */\n      0x00\n        /* \"#utility.yul\":931:933   */\n      0x20\n        /* \"#utility.yul\":920:929   */\n      dup3\n        /* \"#utility.yul\":916:934   */\n      add\n        /* \"#utility.yul\":908:934   */\n      swap1\n      pop\n        /* \"#utility.yul\":944:1015   */\n      tag_378\n        /* \"#utility.yul\":1012:1013   */\n      0x00\n        /* \"#utility.yul\":1001:1010   */\n      dup4\n        /* \"#utility.yul\":997:1014   */\n      add\n        /* \"#utility.yul\":988:994   */\n      dup5\n        /* \"#utility.yul\":944:1015   */\n      tag_303\n      jump\t// in\n    tag_378:\n        /* \"#utility.yul\":800:1022   */\n      swap3\n      swap2\n      pop\n      pop\n      jump\t// out\n        /* \"#utility.yul\":1109:1226   */\n    tag_305:\n        /* \"#utility.yul\":1218:1219   */\n      0x00\n        /* \"#utility.yul\":1215:1216   */\n      dup1\n        /* \"#utility.yul\":1208:1220   */\n      revert\n        /* \"#utility.yul\":1355:1444   */\n    tag_307:\n        /* \"#utility.yul\":1391:1398   */\n      0x00\n        /* \"#utility.yul\":1431:1437   */\n      0xffff\n        /* \"#utility.yul\":1424:1429   */\n      dup3\n        /* \"#utility.yul\":1420:1438   */\n      and\n        /* \"#utility.yul\":1409:1438   */\n      swap1\n      pop\n        /* \"#utility.yul\":1355:1444   */\n      swap2\n      swap1\n      pop\n      jump\t// out\n        /* \"#utility.yul\":1450:1570   */\n    tag_308:\n        /* \"#utility.yul\":1522:1545   */\n      tag_384\n        /* \"#utility.yul\":1539:1544   */\n      dup2\n        /* \"#utility.yul\":1522:1545   */\n      tag_307\n      jump\t// in\n    tag_384:\n        /* \"#utility.yul\":1515:1520   */\n      dup2\n        /* \"#utility.yul\":1512:1546   */\n      eq\n        /* \"#utility.yul\":1502:1564   */\n      tag_385\n      jumpi\n        /* \"#utility.yul\":1560:1561   */\n      0x00\n        /* \"#utility.yul\":1557:1558   */\n      dup1\n        /* \"#utility.yul\":1550:1562   */\n      revert\n        /* \"#utility.yul\":1502:1564   */\n    tag_385:\n        /* \"#utility.yul\":1450:1570   */\n      pop\n      jump\t// out\n        /* \"#utility.yul\":1576:1713   */\n    tag_309:\n        /* \"#utility.yul\":1621:1626   */\n      0x00\n        /* \"#utility.yul\":1659:1665   */\n      dup2\n        /* \"#utility.yul\":1646:1666   */\n      calldataload\n        /* \"#utility.yul\":1637:1666   */\n      swap1\n      pop\n        /* \"#utility.yul\":1675:1707   */\n      tag_387\n        /* \"#utility.yul\":1701:1706   */\n      dup2\n        /* \"#utility.yul\":1675:1707   */\n      tag_308\n      jump\t// in\n    tag_387:\n        /* \"#utility.yul\":1576:1713   */\n      swap3\n      swap2\n      pop\n      pop\n      jump\t// out\n        /* \"#utility.yul\":1719:1805   */\n    tag_310:\n        /* \"#utility.yul\":1754:1761   */\n      0x00\n        /* \"#utility.yul\":1794:1798   */\n      0xff\n        /* \"#utility.yul\":1787:1792   */\n      dup3\n        /* \"#utility.yul\":1783:1799   */\n      and\n        /* \"#utility.yul\":1772:1799   */\n      swap1\n      pop\n        /* \"#utility.yul\":1719:1805   */\n      swap2\n      swap1\n      pop\n      jump\t// out\n        /* \"#utility.yul\":1811:1929   */\n    tag_311:\n        /* \"#utility.yul\":1882:1904   */\n      tag_390\n        /* \"#utility.yul\":1898:1903   */\n      dup2\n        /* \"#utility.yul\":1882:1904   */\n      tag_310\n      jump\t// in\n    tag_390:\n        /* \"#utility.yul\":1875:1880   */\n      dup2\n        /* \"#utility.yul\":1872:1905   */\n      eq\n        /* \"#utility.yul\":1862:1923   */\n      tag_391\n      jumpi\n        /* \"#utility.yul\":1919:1920   */\n      0x00\n        /* \"#utility.yul\":1916:1917   */\n      dup1\n        /* \"#utility.yul\":1909:1921   */\n      revert\n        /* \"#utility.yul\":1862:1923   */\n    tag_391:\n        /* \"#utility.yul\":1811:1929   */\n      pop\n      jump\t// out\n        /* \"#utility.yul\":1935:2070   */\n    tag_312:\n        /* \"#utility.yul\":1979:1984   */\n      0x00\n        /* \"#utility.yul\":2017:2023   */\n      dup2\n        /* \"#utility.yul\":2004:2024   */\n      calldataload\n        /* \"#utility.yul\":1995:2024   */\n      swap1\n      pop\n        /* \"#utility.yul\":2033:2064   */\n      tag_393\n        /* \"#utility.yul\":2058:2063   */\n      dup2\n        /* \"#utility.yul\":2033:2064   */\n      tag_311\n      jump\t// in\n    tag_393:\n        /* \"#utility.yul\":1935:2070   */\n      swap3\n      swap2\n      pop\n      pop\n      jump\t// out\n        /* \"#utility.yul\":2076:2220   */\n    tag_313:\n        /* \"#utility.yul\":2113:2120   */\n      0x00\n        /* \"#utility.yul\":2153:2213   */\n      0xffffffffffffffffffffffffffffffffffffffffffffffffffffffffff\n        /* \"#utility.yul\":2146:2151   */\n      dup3\n        /* \"#utility.yul\":2142:2214   */\n      and\n        /* \"#utility.yul\":2131:2214   */\n      swap1\n      pop\n        /* \"#utility.yul\":2076:2220   */\n      swap2\n      swap1\n      pop\n      jump\t// out\n        /* \"#utility.yul\":2226:2348   */\n    tag_314:\n        /* \"#utility.yul\":2299:2323   */\n      tag_396\n        /* \"#utility.yul\":2317:2322   */\n      dup2\n        /* \"#utility.yul\":2299:2323   */\n      tag_313\n      jump\t// in\n    tag_396:\n        /* \"#utility.yul\":2292:2297   */\n      dup2\n        /* \"#utility.yul\":2289:2324   */\n      eq\n        /* \"#utility.yul\":2279:2342   */\n      tag_397\n      jumpi\n        /* \"#utility.yul\":2338:2339   */\n      0x00\n        /* \"#utility.yul\":2335:2336   */\n      dup1\n        /* \"#utility.yul\":2328:2340   */\n      revert\n        /* \"#utility.yul\":2279:2342   */\n    tag_397:\n        /* \"#utility.yul\":2226:2348   */\n      pop\n      jump\t// out\n        /* \"#utility.yul\":2354:2493   */\n    tag_315:\n        /* \"#utility.yul\":2400:2405   */\n      0x00\n        /* \"#utility.yul\":2438:2444   */\n      dup2\n        /* \"#utility.yul\":2425:2445   */\n      calldataload\n        /* \"#utility.yul\":2416:2445   */\n      swap1\n      pop\n        /* \"#utility.yul\":2454:2487   */\n      tag_399\n        /* \"#utility.yul\":2481:2486   */\n      dup2\n        /* \"#utility.yul\":2454:2487   */\n      tag_314\n      jump\t// in\n    tag_399:\n        /* \"#utility.yul\":2354:2493   */\n      swap3\n      swap2\n      pop\n      pop\n      jump\t// out\n        /* \"#utility.yul\":2499:2621   */\n    tag_316:\n        /* \"#utility.yul\":2572:2596   */\n      tag_401\n        /* \"#utility.yul\":2590:2595   */\n      dup2\n        /* \"#utility.yul\":2572:2596   */\n      tag_300\n      jump\t// in\n    tag_401:\n        /* \"#utility.yul\":2565:2570   */\n      dup2\n        /* \"#utility.yul\":2562:2597   */\n      eq\n        /* \"#utility.yul\":2552:2615   */\n      tag_402\n      jumpi\n        /* \"#utility.yul\":2611:2612   */\n      0x00\n        /* \"#utility.yul\":2608:2609   */\n      dup1\n        /* \"#utility.yul\":2601:2613   */\n      revert\n        /* \"#utility.yul\":2552:2615   */\n    tag_402:\n        /* \"#utility.yul\":2499:2621   */\n      pop\n      jump\t// out\n        /* \"#utility.yul\":2627:2766   */\n    tag_317:\n        /* \"#utility.yul\":2673:2678   */\n      0x00\n        /* \"#utility.yul\":2711:2717   */\n      dup2\n        /* \"#utility.yul\":2698:2718   */\n      calldataload\n        /* \"#utility.yul\":2689:2718   */\n      swap1\n      pop\n        /* \"#utility.yul\":2727:2760   */\n      tag_404\n        /* \"#utility.yul\":2754:2759   */\n      dup2\n        /* \"#utility.yul\":2727:2760   */\n      tag_316\n      jump\t// in\n    tag_404:\n        /* \"#utility.yul\":2627:2766   */\n      swap3\n      swap2\n      pop\n      pop\n      jump\t// out\n        /* \"#utility.yul\":2772:3531   */\n    tag_41:\n        /* \"#utility.yul\":2855:2861   */\n      0x00\n        /* \"#utility.yul\":2863:2869   */\n      dup1\n        /* \"#utility.yul\":2871:2877   */\n      0x00\n        /* \"#utility.yul\":2879:2885   */\n      dup1\n        /* \"#utility.yul\":2928:2931   */\n      0x80\n        /* \"#utility.yul\":2916:2925   */\n      dup6\n        /* \"#utility.yul\":2907:2914   */\n      dup8\n        /* \"#utility.yul\":2903:2926   */\n      sub\n        /* \"#utility.yul\":2899:2932   */\n      slt\n        /* \"#utility.yul\":2896:3016   */\n      iszero\n      tag_406\n      jumpi\n        /* \"#utility.yul\":2935:3014   */\n      tag_407\n      tag_305\n      jump\t// in\n    tag_407:\n        /* \"#utility.yul\":2896:3016   */\n    tag_406:\n        /* \"#utility.yul\":3055:3056   */\n      0x00\n        /* \"#utility.yul\":3080:3132   */\n      tag_408\n        /* \"#utility.yul\":3124:3131   */\n      dup8\n        /* \"#utility.yul\":3115:3121   */\n      dup3\n        /* \"#utility.yul\":3104:3113   */\n      dup9\n        /* \"#utility.yul\":3100:3122   */\n      add\n        /* \"#utility.yul\":3080:3132   */\n      tag_309\n      jump\t// in\n    tag_408:\n        /* \"#utility.yul\":3070:3132   */\n      swap5\n      pop\n        /* \"#utility.yul\":3026:3142   */\n      pop\n        /* \"#utility.yul\":3181:3183   */\n      0x20\n        /* \"#utility.yul\":3207:3258   */\n      tag_409\n        /* \"#utility.yul\":3250:3257   */\n      dup8\n        /* \"#utility.yul\":3241:3247   */\n      dup3\n        /* \"#utility.yul\":3230:3239   */\n      dup9\n        /* \"#utility.yul\":3226:3248   */\n      add\n        /* \"#utility.yul\":3207:3258   */\n      tag_312\n      jump\t// in\n    tag_409:\n        /* \"#utility.yul\":3197:3258   */\n      swap4\n      pop\n        /* \"#utility.yul\":3152:3268   */\n      pop\n        /* \"#utility.yul\":3307:3309   */\n      0x40\n        /* \"#utility.yul\":3333:3386   */\n      tag_410\n        /* \"#utility.yul\":3378:3385   */\n      dup8\n        /* \"#utility.yul\":3369:3375   */\n      dup3\n        /* \"#utility.yul\":3358:3367   */\n      dup9\n        /* \"#utility.yul\":3354:3376   */\n      add\n        /* \"#utility.yul\":3333:3386   */\n      tag_315\n      jump\t// in\n    tag_410:\n        /* \"#utility.yul\":3323:3386   */\n      swap3\n      pop\n        /* \"#utility.yul\":3278:3396   */\n      pop\n        /* \"#utility.yul\":3435:3437   */\n      0x60\n        /* \"#utility.yul\":3461:3514   */\n      tag_411\n        /* \"#utility.yul\":3506:3513   */\n      dup8\n        /* \"#utility.yul\":3497:3503   */\n      dup3\n        /* \"#utility.yul\":3486:3495   */\n      dup9\n        /* \"#utility.yul\":3482:3504   */\n      add\n        /* \"#utility.yul\":3461:3514   */\n      tag_317\n      jump\t// in\n    tag_411:\n        /* \"#utility.yul\":3451:3514   */\n      swap2\n      pop\n        /* \"#utility.yul\":3406:3524   */\n      pop\n        /* \"#utility.yul\":2772:3531   */\n      swap3\n      swap6\n      swap2\n      swap5\n      pop\n      swap3\n      pop\n      jump\t// out\n        /* \"#utility.yul\":3537:3659   */\n    tag_318:\n        /* \"#utility.yul\":3610:3634   */\n      tag_413\n        /* \"#utility.yul\":3628:3633   */\n      dup2\n        /* \"#utility.yul\":3610:3634   */\n      tag_302\n      jump\t// in\n    tag_413:\n        /* \"#utility.yul\":3603:3608   */\n      dup2\n        /* \"#utility.yul\":3600:3635   */\n      eq\n        /* \"#utility.yul\":3590:3653   */\n      tag_414\n      jumpi\n        /* \"#utility.yul\":3649:3650   */\n      0x00\n        /* \"#utility.yul\":3646:3647   */\n      dup1\n        /* \"#utility.yul\":3639:3651   */\n      revert\n        /* \"#utility.yul\":3590:3653   */\n    tag_414:\n        /* \"#utility.yul\":3537:3659   */\n      pop\n      jump\t// out\n        /* \"#utility.yul\":3665:3804   */\n    tag_319:\n        /* \"#utility.yul\":3711:3716   */\n      0x00\n        /* \"#utility.yul\":3749:3755   */\n      dup2\n        /* \"#utility.yul\":3736:3756   */\n      calldataload\n        /* \"#utility.yul\":3727:3756   */\n      swap1\n      pop\n        /* \"#utility.yul\":3765:3798   */\n      tag_416\n        /* \"#utility.yul\":3792:3797   */\n      dup2\n        /* \"#utility.yul\":3765:3798   */\n      tag_318\n      jump\t// in\n    tag_416:\n        /* \"#utility.yul\":3665:3804   */\n      swap3\n      swap2\n      pop\n      pop\n      jump\t// out\n        /* \"#utility.yul\":3810:4139   */\n    tag_50:\n        /* \"#utility.yul\":3869:3875   */\n      0x00\n        /* \"#utility.yul\":3918:3920   */\n      0x20\n        /* \"#utility.yul\":3906:3915   */\n      dup3\n        /* \"#utility.yul\":3897:3904   */\n      dup5\n        /* \"#utility.yul\":3893:3916   */\n      sub\n        /* \"#utility.yul\":3889:3921   */\n      slt\n        /* \"#utility.yul\":3886:4005   */\n      iszero\n      tag_418\n      jumpi\n        /* \"#utility.yul\":3924:4003   */\n      tag_419\n      tag_305\n      jump\t// in\n    tag_419:\n        /* \"#utility.yul\":3886:4005   */\n    tag_418:\n        /* \"#utility.yul\":4044:4045   */\n      0x00\n        /* \"#utility.yul\":4069:4122   */\n      tag_420\n        /* \"#utility.yul\":4114:4121   */\n      dup5\n        /* \"#utility.yul\":4105:4111   */\n      dup3\n        /* \"#utility.yul\":4094:4103   */\n      dup6\n        /* \"#utility.yul\":4090:4112   */\n      add\n        /* \"#utility.yul\":4069:4122   */\n      tag_319\n      jump\t// in\n    tag_420:\n        /* \"#utility.yul\":4059:4122   */\n      swap2\n      pop\n        /* \"#utility.yul\":4015:4132   */\n      pop\n        /* \"#utility.yul\":3810:4139   */\n      swap3\n      swap2\n      pop\n      pop\n      jump\t// out\n        /* \"#utility.yul\":4145:4314   */\n    tag_320:\n        /* \"#utility.yul\":4229:4240   */\n      0x00\n        /* \"#utility.yul\":4263:4269   */\n      dup3\n        /* \"#utility.yul\":4258:4261   */\n      dup3\n        /* \"#utility.yul\":4251:4270   */\n      mstore\n        /* \"#utility.yul\":4303:4307   */\n      0x20\n        /* \"#utility.yul\":4298:4301   */\n      dup3\n        /* \"#utility.yul\":4294:4308   */\n      add\n        /* \"#utility.yul\":4279:4308   */\n      swap1\n      pop\n        /* \"#utility.yul\":4145:4314   */\n      swap3\n      swap2\n      pop\n      pop\n      jump\t// out\n        /* \"#utility.yul\":4320:4492   */\n    tag_321:\n        /* \"#utility.yul\":4460:4484   */\n      0x596f75206d757374206265206120696e766573746f7200000000000000000000\n        /* \"#utility.yul\":4456:4457   */\n      0x00\n        /* \"#utility.yul\":4448:4454   */\n      dup3\n        /* \"#utility.yul\":4444:4458   */\n      add\n        /* \"#utility.yul\":4437:4485   */\n      mstore\n        /* \"#utility.yul\":4320:4492   */\n      pop\n      jump\t// out\n        /* \"#utility.yul\":4498:4864   */\n    tag_322:\n        /* \"#utility.yul\":4640:4643   */\n      0x00\n        /* \"#utility.yul\":4661:4728   */\n      tag_424\n        /* \"#utility.yul\":4725:4727   */\n      0x16\n        /* \"#utility.yul\":4720:4723   */\n      dup4\n        /* \"#utility.yul\":4661:4728   */\n      tag_320\n      jump\t// in\n    tag_424:\n        /* \"#utility.yul\":4654:4728   */\n      swap2\n      pop\n        /* \"#utility.yul\":4737:4830   */\n      tag_425\n        /* \"#utility.yul\":4826:4829   */\n      dup3\n        /* \"#utility.yul\":4737:4830   */\n      tag_321\n      jump\t// in\n    tag_425:\n        /* \"#utility.yul\":4855:4857   */\n      0x20\n        /* \"#utility.yul\":4850:4853   */\n      dup3\n        /* \"#utility.yul\":4846:4858   */\n      add\n        /* \"#utility.yul\":4839:4858   */\n      swap1\n      pop\n        /* \"#utility.yul\":4498:4864   */\n      swap2\n      swap1\n      pop\n      jump\t// out\n        /* \"#utility.yul\":4870:5289   */\n    tag_59:\n        /* \"#utility.yul\":5036:5040   */\n      0x00\n        /* \"#utility.yul\":5074:5076   */\n      0x20\n        /* \"#utility.yul\":5063:5072   */\n      dup3\n        /* \"#utility.yul\":5059:5077   */\n      add\n        /* \"#utility.yul\":5051:5077   */\n      swap1\n      pop\n        /* \"#utility.yul\":5123:5132   */\n      dup2\n        /* \"#utility.yul\":5117:5121   */\n      dup2\n        /* \"#utility.yul\":5113:5133   */\n      sub\n        /* \"#utility.yul\":5109:5110   */\n      0x00\n        /* \"#utility.yul\":5098:5107   */\n      dup4\n        /* \"#utility.yul\":5094:5111   */\n      add\n        /* \"#utility.yul\":5087:5134   */\n      mstore\n        /* \"#utility.yul\":5151:5282   */\n      tag_427\n        /* \"#utility.yul\":5277:5281   */\n      dup2\n        /* \"#utility.yul\":5151:5282   */\n      tag_322\n      jump\t// in\n    tag_427:\n        /* \"#utility.yul\":5143:5282   */\n      swap1\n      pop\n        /* \"#utility.yul\":4870:5289   */\n      swap2\n      swap1\n      pop\n      jump\t// out\n        /* \"#utility.yul\":5295:5475   */\n    tag_323:\n        /* \"#utility.yul\":5343:5420   */\n      0x4e487b7100000000000000000000000000000000000000000000000000000000\n        /* \"#utility.yul\":5340:5341   */\n      0x00\n        /* \"#utility.yul\":5333:5421   */\n      mstore\n        /* \"#utility.yul\":5440:5444   */\n      0x11\n        /* \"#utility.yul\":5437:5438   */\n      0x04\n        /* \"#utility.yul\":5430:5445   */\n      mstore\n        /* \"#utility.yul\":5464:5468   */\n      0x24\n        /* \"#utility.yul\":5461:5462   */\n      0x00\n        /* \"#utility.yul\":5454:5469   */\n      revert\n        /* \"#utility.yul\":5481:5672   */\n    tag_62:\n        /* \"#utility.yul\":5521:5524   */\n      0x00\n        /* \"#utility.yul\":5540:5560   */\n      tag_430\n        /* \"#utility.yul\":5558:5559   */\n      dup3\n        /* \"#utility.yul\":5540:5560   */\n      tag_302\n      jump\t// in\n    tag_430:\n        /* \"#utility.yul\":5535:5560   */\n      swap2\n      pop\n        /* \"#utility.yul\":5574:5594   */\n      tag_431\n        /* \"#utility.yul\":5592:5593   */\n      dup4\n        /* \"#utility.yul\":5574:5594   */\n      tag_302\n      jump\t// in\n    tag_431:\n        /* \"#utility.yul\":5569:5594   */\n      swap3\n      pop\n        /* \"#utility.yul\":5617:5618   */\n      dup3\n        /* \"#utility.yul\":5614:5615   */\n      dup3\n        /* \"#utility.yul\":5610:5619   */\n      add\n        /* \"#utility.yul\":5603:5619   */\n      swap1\n      pop\n        /* \"#utility.yul\":5638:5641   */\n      dup1\n        /* \"#utility.yul\":5635:5636   */\n      dup3\n        /* \"#utility.yul\":5632:5642   */\n      gt\n        /* \"#utility.yul\":5629:5665   */\n      iszero\n      tag_432\n      jumpi\n        /* \"#utility.yul\":5645:5663   */\n      tag_433\n      tag_323\n      jump\t// in\n    tag_433:\n        /* \"#utility.yul\":5629:5665   */\n    tag_432:\n        /* \"#utility.yul\":5481:5672   */\n      swap3\n      swap2\n      pop\n      pop\n      jump\t// out\n        /* \"#utility.yul\":5678:5858   */\n    tag_324:\n        /* \"#utility.yul\":5726:5803   */\n      0x4e487b7100000000000000000000000000000000000000000000000000000000\n        /* \"#utility.yul\":5723:5724   */\n      0x00\n        /* \"#utility.yul\":5716:5804   */\n      mstore\n        /* \"#utility.yul\":5823:5827   */\n      0x12\n        /* \"#utility.yul\":5820:5821   */\n      0x04\n        /* \"#utility.yul\":5813:5828   */\n      mstore\n        /* \"#utility.yul\":5847:5851   */\n      0x24\n        /* \"#utility.yul\":5844:5845   */\n      0x00\n        /* \"#utility.yul\":5837:5852   */\n      revert\n        /* \"#utility.yul\":5864:6049   */\n    tag_67:\n        /* \"#utility.yul\":5904:5905   */\n      0x00\n        /* \"#utility.yul\":5921:5941   */\n      tag_436\n        /* \"#utility.yul\":5939:5940   */\n      dup3\n        /* \"#utility.yul\":5921:5941   */\n      tag_302\n      jump\t// in\n    tag_436:\n        /* \"#utility.yul\":5916:5941   */\n      swap2\n      pop\n        /* \"#utility.yul\":5955:5975   */\n      tag_437\n        /* \"#utility.yul\":5973:5974   */\n      dup4\n        /* \"#utility.yul\":5955:5975   */\n      tag_302\n      jump\t// in\n    tag_437:\n        /* \"#utility.yul\":5950:5975   */\n      swap3\n      pop\n        /* \"#utility.yul\":5994:5995   */\n      dup3\n        /* \"#utility.yul\":5984:6019   */\n      tag_438\n      jumpi\n        /* \"#utility.yul\":5999:6017   */\n      tag_439\n      tag_324\n      jump\t// in\n    tag_439:\n        /* \"#utility.yul\":5984:6019   */\n    tag_438:\n        /* \"#utility.yul\":6041:6042   */\n      dup3\n        /* \"#utility.yul\":6038:6039   */\n      dup3\n        /* \"#utility.yul\":6034:6043   */\n      div\n        /* \"#utility.yul\":6029:6043   */\n      swap1\n      pop\n        /* \"#utility.yul\":5864:6049   */\n      swap3\n      swap2\n      pop\n      pop\n      jump\t// out\n        /* \"#utility.yul\":6055:6235   */\n    tag_76:\n        /* \"#utility.yul\":6103:6180   */\n      0x4e487b7100000000000000000000000000000000000000000000000000000000\n        /* \"#utility.yul\":6100:6101   */\n      0x00\n        /* \"#utility.yul\":6093:6181   */\n      mstore\n        /* \"#utility.yul\":6200:6204   */\n      0x32\n        /* \"#utility.yul\":6197:6198   */\n      0x04\n        /* \"#utility.yul\":6190:6205   */\n      mstore\n        /* \"#utility.yul\":6224:6228   */\n      0x24\n        /* \"#utility.yul\":6221:6222   */\n      0x00\n        /* \"#utility.yul\":6214:6229   */\n      revert\n        /* \"#utility.yul\":6241:6421   */\n    tag_325:\n        /* \"#utility.yul\":6381:6413   */\n      0x4e6f7420656e6f7567682070726f66697420746f207769746864726177210000\n        /* \"#utility.yul\":6377:6378   */\n      0x00\n        /* \"#utility.yul\":6369:6375   */\n      dup3\n        /* \"#utility.yul\":6365:6379   */\n      add\n        /* \"#utility.yul\":6358:6414   */\n      mstore\n        /* \"#utility.yul\":6241:6421   */\n      pop\n      jump\t// out\n        /* \"#utility.yul\":6427:6793   */\n    tag_326:\n        /* \"#utility.yul\":6569:6572   */\n      0x00\n        /* \"#utility.yul\":6590:6657   */\n      tag_443\n        /* \"#utility.yul\":6654:6656   */\n      0x1e\n        /* \"#utility.yul\":6649:6652   */\n      dup4\n        /* \"#utility.yul\":6590:6657   */\n      tag_320\n      jump\t// in\n    tag_443:\n        /* \"#utility.yul\":6583:6657   */\n      swap2\n      pop\n        /* \"#utility.yul\":6666:6759   */\n      tag_444\n        /* \"#utility.yul\":6755:6758   */\n      dup3\n        /* \"#utility.yul\":6666:6759   */\n      tag_325\n      jump\t// in\n    tag_444:\n        /* \"#utility.yul\":6784:6786   */\n      0x20\n        /* \"#utility.yul\":6779:6782   */\n      dup3\n        /* \"#utility.yul\":6775:6787   */\n      add\n        /* \"#utility.yul\":6768:6787   */\n      swap1\n      pop\n        /* \"#utility.yul\":6427:6793   */\n      swap2\n      swap1\n      pop\n      jump\t// out\n        /* \"#utility.yul\":6799:7218   */\n    tag_97:\n        /* \"#utility.yul\":6965:6969   */\n      0x00\n        /* \"#utility.yul\":7003:7005   */\n      0x20\n        /* \"#utility.yul\":6992:7001   */\n      dup3\n        /* \"#utility.yul\":6988:7006   */\n      add\n        /* \"#utility.yul\":6980:7006   */\n      swap1\n      pop\n        /* \"#utility.yul\":7052:7061   */\n      dup2\n        /* \"#utility.yul\":7046:7050   */\n      dup2\n        /* \"#utility.yul\":7042:7062   */\n      sub\n        /* \"#utility.yul\":7038:7039   */\n      0x00\n        /* \"#utility.yul\":7027:7036   */\n      dup4\n        /* \"#utility.yul\":7023:7040   */\n      add\n        /* \"#utility.yul\":7016:7063   */\n      mstore\n        /* \"#utility.yul\":7080:7211   */\n      tag_446\n        /* \"#utility.yul\":7206:7210   */\n      dup2\n        /* \"#utility.yul\":7080:7211   */\n      tag_326\n      jump\t// in\n    tag_446:\n        /* \"#utility.yul\":7072:7211   */\n      swap1\n      pop\n        /* \"#utility.yul\":6799:7218   */\n      swap2\n      swap1\n      pop\n      jump\t// out\n        /* \"#utility.yul\":7224:7418   */\n    tag_99:\n        /* \"#utility.yul\":7264:7268   */\n      0x00\n        /* \"#utility.yul\":7284:7304   */\n      tag_448\n        /* \"#utility.yul\":7302:7303   */\n      dup3\n        /* \"#utility.yul\":7284:7304   */\n      tag_302\n      jump\t// in\n    tag_448:\n        /* \"#utility.yul\":7279:7304   */\n      swap2\n      pop\n        /* \"#utility.yul\":7318:7338   */\n      tag_449\n        /* \"#utility.yul\":7336:7337   */\n      dup4\n        /* \"#utility.yul\":7318:7338   */\n      tag_302\n      jump\t// in\n    tag_449:\n        /* \"#utility.yul\":7313:7338   */\n      swap3\n      pop\n        /* \"#utility.yul\":7362:7363   */\n      dup3\n        /* \"#utility.yul\":7359:7360   */\n      dup3\n        /* \"#utility.yul\":7355:7364   */\n      sub\n        /* \"#utility.yul\":7347:7364   */\n      swap1\n      pop\n        /* \"#utility.yul\":7386:7387   */\n      dup2\n        /* \"#utility.yul\":7380:7384   */\n      dup2\n        /* \"#utility.yul\":7377:7388   */\n      gt\n        /* \"#utility.yul\":7374:7411   */\n      iszero\n      tag_450\n      jumpi\n        /* \"#utility.yul\":7391:7409   */\n      tag_451\n      tag_323\n      jump\t// in\n    tag_451:\n        /* \"#utility.yul\":7374:7411   */\n    tag_450:\n        /* \"#utility.yul\":7224:7418   */\n      swap3\n      swap2\n      pop\n      pop\n      jump\t// out\n        /* \"#utility.yul\":7424:7648   */\n    tag_327:\n        /* \"#utility.yul\":7564:7598   */\n      0x496e766573746d656e7420616d6f756e7420626574657765656e203120616e64\n        /* \"#utility.yul\":7560:7561   */\n      0x00\n        /* \"#utility.yul\":7552:7558   */\n      dup3\n        /* \"#utility.yul\":7548:7562   */\n      add\n        /* \"#utility.yul\":7541:7599   */\n      mstore\n        /* \"#utility.yul\":7633:7640   */\n      0x2031303030000000000000000000000000000000000000000000000000000000\n        /* \"#utility.yul\":7628:7630   */\n      0x20\n        /* \"#utility.yul\":7620:7626   */\n      dup3\n        /* \"#utility.yul\":7616:7631   */\n      add\n        /* \"#utility.yul\":7609:7641   */\n      mstore\n        /* \"#utility.yul\":7424:7648   */\n      pop\n      jump\t// out\n        /* \"#utility.yul\":7654:8020   */\n    tag_328:\n        /* \"#utility.yul\":7796:7799   */\n      0x00\n        /* \"#utility.yul\":7817:7884   */\n      tag_454\n        /* \"#utility.yul\":7881:7883   */\n      0x25\n        /* \"#utility.yul\":7876:7879   */\n      dup4\n        /* \"#utility.yul\":7817:7884   */\n      tag_320\n      jump\t// in\n    tag_454:\n        /* \"#utility.yul\":7810:7884   */\n      swap2\n      pop\n        /* \"#utility.yul\":7893:7986   */\n      tag_455\n        /* \"#utility.yul\":7982:7985   */\n      dup3\n        /* \"#utility.yul\":7893:7986   */\n      tag_327\n      jump\t// in\n    tag_455:\n        /* \"#utility.yul\":8011:8013   */\n      0x40\n        /* \"#utility.yul\":8006:8009   */\n      dup3\n        /* \"#utility.yul\":8002:8014   */\n      add\n        /* \"#utility.yul\":7995:8014   */\n      swap1\n      pop\n        /* \"#utility.yul\":7654:8020   */\n      swap2\n      swap1\n      pop\n      jump\t// out\n        /* \"#utility.yul\":8026:8445   */\n    tag_106:\n        /* \"#utility.yul\":8192:8196   */\n      0x00\n        /* \"#utility.yul\":8230:8232   */\n      0x20\n        /* \"#utility.yul\":8219:8228   */\n      dup3\n        /* \"#utility.yul\":8215:8233   */\n      add\n        /* \"#utility.yul\":8207:8233   */\n      swap1\n      pop\n        /* \"#utility.yul\":8279:8288   */\n      dup2\n        /* \"#utility.yul\":8273:8277   */\n      dup2\n        /* \"#utility.yul\":8269:8289   */\n      sub\n        /* \"#utility.yul\":8265:8266   */\n      0x00\n        /* \"#utility.yul\":8254:8263   */\n      dup4\n        /* \"#utility.yul\":8250:8267   */\n      add\n        /* \"#utility.yul\":8243:8290   */\n      mstore\n        /* \"#utility.yul\":8307:8438   */\n      tag_457\n        /* \"#utility.yul\":8433:8437   */\n      dup2\n        /* \"#utility.yul\":8307:8438   */\n      tag_328\n      jump\t// in\n    tag_457:\n        /* \"#utility.yul\":8299:8438   */\n      swap1\n      pop\n        /* \"#utility.yul\":8026:8445   */\n      swap2\n      swap1\n      pop\n      jump\t// out\n        /* \"#utility.yul\":8451:8675   */\n    tag_329:\n        /* \"#utility.yul\":8591:8625   */\n      0x596f7520646f6e2774206861766520756e64726177206c6f7474657279207469\n        /* \"#utility.yul\":8587:8588   */\n      0x00\n        /* \"#utility.yul\":8579:8585   */\n      dup3\n        /* \"#utility.yul\":8575:8589   */\n      add\n        /* \"#utility.yul\":8568:8626   */\n      mstore\n        /* \"#utility.yul\":8660:8667   */\n      0x636b657473000000000000000000000000000000000000000000000000000000\n        /* \"#utility.yul\":8655:8657   */\n      0x20\n        /* \"#utility.yul\":8647:8653   */\n      dup3\n        /* \"#utility.yul\":8643:8658   */\n      add\n        /* \"#utility.yul\":8636:8668   */\n      mstore\n        /* \"#utility.yul\":8451:8675   */\n      pop\n      jump\t// out\n        /* \"#utility.yul\":8681:9047   */\n    tag_330:\n        /* \"#utility.yul\":8823:8826   */\n      0x00\n        /* \"#utility.yul\":8844:8911   */\n      tag_460\n        /* \"#utility.yul\":8908:8910   */\n      0x25\n        /* \"#utility.yul\":8903:8906   */\n      dup4\n        /* \"#utility.yul\":8844:8911   */\n      tag_320\n      jump\t// in\n    tag_460:\n        /* \"#utility.yul\":8837:8911   */\n      swap2\n      pop\n        /* \"#utility.yul\":8920:9013   */\n      tag_461\n        /* \"#utility.yul\":9009:9012   */\n      dup3\n        /* \"#utility.yul\":8920:9013   */\n      tag_329\n      jump\t// in\n    tag_461:\n        /* \"#utility.yul\":9038:9040   */\n      0x40\n        /* \"#utility.yul\":9033:9036   */\n      dup3\n        /* \"#utility.yul\":9029:9041   */\n      add\n        /* \"#utility.yul\":9022:9041   */\n      swap1\n      pop\n        /* \"#utility.yul\":8681:9047   */\n      swap2\n      swap1\n      pop\n      jump\t// out\n        /* \"#utility.yul\":9053:9472   */\n    tag_118:\n        /* \"#utility.yul\":9219:9223   */\n      0x00\n        /* \"#utility.yul\":9257:9259   */\n      0x20\n        /* \"#utility.yul\":9246:9255   */\n      dup3\n        /* \"#utility.yul\":9242:9260   */\n      add\n        /* \"#utility.yul\":9234:9260   */\n      swap1\n      pop\n        /* \"#utility.yul\":9306:9315   */\n      dup2\n        /* \"#utility.yul\":9300:9304   */\n      dup2\n        /* \"#utility.yul\":9296:9316   */\n      sub\n        /* \"#utility.yul\":9292:9293   */\n      0x00\n        /* \"#utility.yul\":9281:9290   */\n      dup4\n        /* \"#utility.yul\":9277:9294   */\n      add\n        /* \"#utility.yul\":9270:9317   */\n      mstore\n        /* \"#utility.yul\":9334:9465   */\n      tag_463\n        /* \"#utility.yul\":9460:9464   */\n      dup2\n        /* \"#utility.yul\":9334:9465   */\n      tag_330\n      jump\t// in\n    tag_463:\n        /* \"#utility.yul\":9326:9465   */\n      swap1\n      pop\n        /* \"#utility.yul\":9053:9472   */\n      swap2\n      swap1\n      pop\n      jump\t// out\n        /* \"#utility.yul\":9478:9641   */\n    tag_331:\n        /* \"#utility.yul\":9618:9633   */\n      0x49742773206e6f742074696d6500000000000000000000000000000000000000\n        /* \"#utility.yul\":9614:9615   */\n      0x00\n        /* \"#utility.yul\":9606:9612   */\n      dup3\n        /* \"#utility.yul\":9602:9616   */\n      add\n        /* \"#utility.yul\":9595:9634   */\n      mstore\n        /* \"#utility.yul\":9478:9641   */\n      pop\n      jump\t// out\n        /* \"#utility.yul\":9647:10013   */\n    tag_332:\n        /* \"#utility.yul\":9789:9792   */\n      0x00\n        /* \"#utility.yul\":9810:9877   */\n      tag_466\n        /* \"#utility.yul\":9874:9876   */\n      0x0d\n        /* \"#utility.yul\":9869:9872   */\n      dup4\n        /* \"#utility.yul\":9810:9877   */\n      tag_320\n      jump\t// in\n    tag_466:\n        /* \"#utility.yul\":9803:9877   */\n      swap2\n      pop\n        /* \"#utility.yul\":9886:9979   */\n      tag_467\n        /* \"#utility.yul\":9975:9978   */\n      dup3\n        /* \"#utility.yul\":9886:9979   */\n      tag_331\n      jump\t// in\n    tag_467:\n        /* \"#utility.yul\":10004:10006   */\n      0x20\n        /* \"#utility.yul\":9999:10002   */\n      dup3\n        /* \"#utility.yul\":9995:10007   */\n      add\n        /* \"#utility.yul\":9988:10007   */\n      swap1\n      pop\n        /* \"#utility.yul\":9647:10013   */\n      swap2\n      swap1\n      pop\n      jump\t// out\n        /* \"#utility.yul\":10019:10438   */\n    tag_125:\n        /* \"#utility.yul\":10185:10189   */\n      0x00\n        /* \"#utility.yul\":10223:10225   */\n      0x20\n        /* \"#utility.yul\":10212:10221   */\n      dup3\n        /* \"#utility.yul\":10208:10226   */\n      add\n        /* \"#utility.yul\":10200:10226   */\n      swap1\n      pop\n        /* \"#utility.yul\":10272:10281   */\n      dup2\n        /* \"#utility.yul\":10266:10270   */\n      dup2\n        /* \"#utility.yul\":10262:10282   */\n      sub\n        /* \"#utility.yul\":10258:10259   */\n      0x00\n        /* \"#utility.yul\":10247:10256   */\n      dup4\n        /* \"#utility.yul\":10243:10260   */\n      add\n        /* \"#utility.yul\":10236:10283   */\n      mstore\n        /* \"#utility.yul\":10300:10431   */\n      tag_469\n        /* \"#utility.yul\":10426:10430   */\n      dup2\n        /* \"#utility.yul\":10300:10431   */\n      tag_332\n      jump\t// in\n    tag_469:\n        /* \"#utility.yul\":10292:10431   */\n      swap1\n      pop\n        /* \"#utility.yul\":10019:10438   */\n      swap2\n      swap1\n      pop\n      jump\t// out\n        /* \"#utility.yul\":10444:10521   */\n    tag_333:\n        /* \"#utility.yul\":10481:10488   */\n      0x00\n        /* \"#utility.yul\":10510:10515   */\n      dup2\n        /* \"#utility.yul\":10499:10515   */\n      swap1\n      pop\n        /* \"#utility.yul\":10444:10521   */\n      swap2\n      swap1\n      pop\n      jump\t// out\n        /* \"#utility.yul\":10527:10606   */\n    tag_334:\n        /* \"#utility.yul\":10566:10573   */\n      0x00\n        /* \"#utility.yul\":10595:10600   */\n      dup2\n        /* \"#utility.yul\":10584:10600   */\n      swap1\n      pop\n        /* \"#utility.yul\":10527:10606   */\n      swap2\n      swap1\n      pop\n      jump\t// out\n        /* \"#utility.yul\":10612:10769   */\n    tag_335:\n        /* \"#utility.yul\":10717:10762   */\n      tag_473\n        /* \"#utility.yul\":10737:10761   */\n      tag_474\n        /* \"#utility.yul\":10755:10760   */\n      dup3\n        /* \"#utility.yul\":10737:10761   */\n      tag_333\n      jump\t// in\n    tag_474:\n        /* \"#utility.yul\":10717:10762   */\n      tag_334\n      jump\t// in\n    tag_473:\n        /* \"#utility.yul\":10712:10715   */\n      dup3\n        /* \"#utility.yul\":10705:10763   */\n      mstore\n        /* \"#utility.yul\":10612:10769   */\n      pop\n      pop\n      jump\t// out\n        /* \"#utility.yul\":10775:11172   */\n    tag_143:\n        /* \"#utility.yul\":10915:10918   */\n      0x00\n        /* \"#utility.yul\":10930:11005   */\n      tag_476\n        /* \"#utility.yul\":11001:11004   */\n      dup3\n        /* \"#utility.yul\":10992:10998   */\n      dup6\n        /* \"#utility.yul\":10930:11005   */\n      tag_335\n      jump\t// in\n    tag_476:\n        /* \"#utility.yul\":11030:11032   */\n      0x20\n        /* \"#utility.yul\":11025:11028   */\n      dup3\n        /* \"#utility.yul\":11021:11033   */\n      add\n        /* \"#utility.yul\":11014:11033   */\n      swap2\n      pop\n        /* \"#utility.yul\":11043:11118   */\n      tag_477\n        /* \"#utility.yul\":11114:11117   */\n      dup3\n        /* \"#utility.yul\":11105:11111   */\n      dup5\n        /* \"#utility.yul\":11043:11118   */\n      tag_335\n      jump\t// in\n    tag_477:\n        /* \"#utility.yul\":11143:11145   */\n      0x20\n        /* \"#utility.yul\":11138:11141   */\n      dup3\n        /* \"#utility.yul\":11134:11146   */\n      add\n        /* \"#utility.yul\":11127:11146   */\n      swap2\n      pop\n        /* \"#utility.yul\":11163:11166   */\n      dup2\n        /* \"#utility.yul\":11156:11166   */\n      swap1\n      pop\n        /* \"#utility.yul\":10775:11172   */\n      swap4\n      swap3\n      pop\n      pop\n      pop\n      jump\t// out\n        /* \"#utility.yul\":11178:11588   */\n    tag_153:\n        /* \"#utility.yul\":11218:11225   */\n      0x00\n        /* \"#utility.yul\":11241:11261   */\n      tag_479\n        /* \"#utility.yul\":11259:11260   */\n      dup3\n        /* \"#utility.yul\":11241:11261   */\n      tag_302\n      jump\t// in\n    tag_479:\n        /* \"#utility.yul\":11236:11261   */\n      swap2\n      pop\n        /* \"#utility.yul\":11275:11295   */\n      tag_480\n        /* \"#utility.yul\":11293:11294   */\n      dup4\n        /* \"#utility.yul\":11275:11295   */\n      tag_302\n      jump\t// in\n    tag_480:\n        /* \"#utility.yul\":11270:11295   */\n      swap3\n      pop\n        /* \"#utility.yul\":11330:11331   */\n      dup3\n        /* \"#utility.yul\":11327:11328   */\n      dup3\n        /* \"#utility.yul\":11323:11332   */\n      mul\n        /* \"#utility.yul\":11352:11382   */\n      tag_481\n        /* \"#utility.yul\":11370:11381   */\n      dup2\n        /* \"#utility.yul\":11352:11382   */\n      tag_302\n      jump\t// in\n    tag_481:\n        /* \"#utility.yul\":11341:11382   */\n      swap2\n      pop\n        /* \"#utility.yul\":11531:11532   */\n      dup3\n        /* \"#utility.yul\":11522:11529   */\n      dup3\n        /* \"#utility.yul\":11518:11533   */\n      div\n        /* \"#utility.yul\":11515:11516   */\n      dup5\n        /* \"#utility.yul\":11512:11534   */\n      eq\n        /* \"#utility.yul\":11492:11493   */\n      dup4\n        /* \"#utility.yul\":11485:11494   */\n      iszero\n        /* \"#utility.yul\":11465:11548   */\n      or\n        /* \"#utility.yul\":11442:11581   */\n      tag_482\n      jumpi\n        /* \"#utility.yul\":11561:11579   */\n      tag_483\n      tag_323\n      jump\t// in\n    tag_483:\n        /* \"#utility.yul\":11442:11581   */\n    tag_482:\n        /* \"#utility.yul\":11226:11588   */\n      pop\n        /* \"#utility.yul\":11178:11588   */\n      swap3\n      swap2\n      pop\n      pop\n      jump\t// out\n        /* \"#utility.yul\":11594:11764   */\n    tag_336:\n        /* \"#utility.yul\":11734:11756   */\n      0x427579206174206c65617374206f6e6520656767000000000000000000000000\n        /* \"#utility.yul\":11730:11731   */\n      0x00\n        /* \"#utility.yul\":11722:11728   */\n      dup3\n        /* \"#utility.yul\":11718:11732   */\n      add\n        /* \"#utility.yul\":11711:11757   */\n      mstore\n        /* \"#utility.yul\":11594:11764   */\n      pop\n      jump\t// out\n        /* \"#utility.yul\":11770:12136   */\n    tag_337:\n        /* \"#utility.yul\":11912:11915   */\n      0x00\n        /* \"#utility.yul\":11933:12000   */\n      tag_486\n        /* \"#utility.yul\":11997:11999   */\n      0x14\n        /* \"#utility.yul\":11992:11995   */\n      dup4\n        /* \"#utility.yul\":11933:12000   */\n      tag_320\n      jump\t// in\n    tag_486:\n        /* \"#utility.yul\":11926:12000   */\n      swap2\n      pop\n        /* \"#utility.yul\":12009:12102   */\n      tag_487\n        /* \"#utility.yul\":12098:12101   */\n      dup3\n        /* \"#utility.yul\":12009:12102   */\n      tag_336\n      jump\t// in\n    tag_487:\n        /* \"#utility.yul\":12127:12129   */\n      0x20\n        /* \"#utility.yul\":12122:12125   */\n      dup3\n        /* \"#utility.yul\":12118:12130   */\n      add\n        /* \"#utility.yul\":12111:12130   */\n      swap1\n      pop\n        /* \"#utility.yul\":11770:12136   */\n      swap2\n      swap1\n      pop\n      jump\t// out\n        /* \"#utility.yul\":12142:12561   */\n    tag_184:\n        /* \"#utility.yul\":12308:12312   */\n      0x00\n        /* \"#utility.yul\":12346:12348   */\n      0x20\n        /* \"#utility.yul\":12335:12344   */\n      dup3\n        /* \"#utility.yul\":12331:12349   */\n      add\n        /* \"#utility.yul\":12323:12349   */\n      swap1\n      pop\n        /* \"#utility.yul\":12395:12404   */\n      dup2\n        /* \"#utility.yul\":12389:12393   */\n      dup2\n        /* \"#utility.yul\":12385:12405   */\n      sub\n        /* \"#utility.yul\":12381:12382   */\n      0x00\n        /* \"#utility.yul\":12370:12379   */\n      dup4\n        /* \"#utility.yul\":12366:12383   */\n      add\n        /* \"#utility.yul\":12359:12406   */\n      mstore\n        /* \"#utility.yul\":12423:12554   */\n      tag_489\n        /* \"#utility.yul\":12549:12553   */\n      dup2\n        /* \"#utility.yul\":12423:12554   */\n      tag_337\n      jump\t// in\n    tag_489:\n        /* \"#utility.yul\":12415:12554   */\n      swap1\n      pop\n        /* \"#utility.yul\":12142:12561   */\n      swap2\n      swap1\n      pop\n      jump\t// out\n        /* \"#utility.yul\":12567:12744   */\n    tag_338:\n        /* \"#utility.yul\":12707:12736   */\n      0x4d756c7469706c6573206265747765656e203120616e64203130300000000000\n        /* \"#utility.yul\":12703:12704   */\n      0x00\n        /* \"#utility.yul\":12695:12701   */\n      dup3\n        /* \"#utility.yul\":12691:12705   */\n      add\n        /* \"#utility.yul\":12684:12737   */\n      mstore\n        /* \"#utility.yul\":12567:12744   */\n      pop\n      jump\t// out\n        /* \"#utility.yul\":12750:13116   */\n    tag_339:\n        /* \"#utility.yul\":12892:12895   */\n      0x00\n        /* \"#utility.yul\":12913:12980   */\n      tag_492\n        /* \"#utility.yul\":12977:12979   */\n      0x1b\n        /* \"#utility.yul\":12972:12975   */\n      dup4\n        /* \"#utility.yul\":12913:12980   */\n      tag_320\n      jump\t// in\n    tag_492:\n        /* \"#utility.yul\":12906:12980   */\n      swap2\n      pop\n        /* \"#utility.yul\":12989:13082   */\n      tag_493\n        /* \"#utility.yul\":13078:13081   */\n      dup3\n        /* \"#utility.yul\":12989:13082   */\n      tag_338\n      jump\t// in\n    tag_493:\n        /* \"#utility.yul\":13107:13109   */\n      0x20\n        /* \"#utility.yul\":13102:13105   */\n      dup3\n        /* \"#utility.yul\":13098:13110   */\n      add\n        /* \"#utility.yul\":13091:13110   */\n      swap1\n      pop\n        /* \"#utility.yul\":12750:13116   */\n      swap2\n      swap1\n      pop\n      jump\t// out\n        /* \"#utility.yul\":13122:13541   */\n    tag_188:\n        /* \"#utility.yul\":13288:13292   */\n      0x00\n        /* \"#utility.yul\":13326:13328   */\n      0x20\n        /* \"#utility.yul\":13315:13324   */\n      dup3\n        /* \"#utility.yul\":13311:13329   */\n      add\n        /* \"#utility.yul\":13303:13329   */\n      swap1\n      pop\n        /* \"#utility.yul\":13375:13384   */\n      dup2\n        /* \"#utility.yul\":13369:13373   */\n      dup2\n        /* \"#utility.yul\":13365:13385   */\n      sub\n        /* \"#utility.yul\":13361:13362   */\n      0x00\n        /* \"#utility.yul\":13350:13359   */\n      dup4\n        /* \"#utility.yul\":13346:13363   */\n      add\n        /* \"#utility.yul\":13339:13386   */\n      mstore\n        /* \"#utility.yul\":13403:13534   */\n      tag_495\n        /* \"#utility.yul\":13529:13533   */\n      dup2\n        /* \"#utility.yul\":13403:13534   */\n      tag_339\n      jump\t// in\n    tag_495:\n        /* \"#utility.yul\":13395:13534   */\n      swap1\n      pop\n        /* \"#utility.yul\":13122:13541   */\n      swap2\n      swap1\n      pop\n      jump\t// out\n        /* \"#utility.yul\":13547:13729   */\n    tag_340:\n        /* \"#utility.yul\":13687:13721   */\n      0x4e756d626572206f662065676773206265747765656e203120616e6420313030\n        /* \"#utility.yul\":13683:13684   */\n      0x00\n        /* \"#utility.yul\":13675:13681   */\n      dup3\n        /* \"#utility.yul\":13671:13685   */\n      add\n        /* \"#utility.yul\":13664:13722   */\n      mstore\n        /* \"#utility.yul\":13547:13729   */\n      pop\n      jump\t// out\n        /* \"#utility.yul\":13735:14101   */\n    tag_341:\n        /* \"#utility.yul\":13877:13880   */\n      0x00\n        /* \"#utility.yul\":13898:13965   */\n      tag_498\n        /* \"#utility.yul\":13962:13964   */\n      0x20\n        /* \"#utility.yul\":13957:13960   */\n      dup4\n        /* \"#utility.yul\":13898:13965   */\n      tag_320\n      jump\t// in\n    tag_498:\n        /* \"#utility.yul\":13891:13965   */\n      swap2\n      pop\n        /* \"#utility.yul\":13974:14067   */\n      tag_499\n        /* \"#utility.yul\":14063:14066   */\n      dup3\n        /* \"#utility.yul\":13974:14067   */\n      tag_340\n      jump\t// in\n    tag_499:\n        /* \"#utility.yul\":14092:14094   */\n      0x20\n        /* \"#utility.yul\":14087:14090   */\n      dup3\n        /* \"#utility.yul\":14083:14095   */\n      add\n        /* \"#utility.yul\":14076:14095   */\n      swap1\n      pop\n        /* \"#utility.yul\":13735:14101   */\n      swap2\n      swap1\n      pop\n      jump\t// out\n        /* \"#utility.yul\":14107:14526   */\n    tag_192:\n        /* \"#utility.yul\":14273:14277   */\n      0x00\n        /* \"#utility.yul\":14311:14313   */\n      0x20\n        /* \"#utility.yul\":14300:14309   */\n      dup3\n        /* \"#utility.yul\":14296:14314   */\n      add\n        /* \"#utility.yul\":14288:14314   */\n      swap1\n      pop\n        /* \"#utility.yul\":14360:14369   */\n      dup2\n        /* \"#utility.yul\":14354:14358   */\n      dup2\n        /* \"#utility.yul\":14350:14370   */\n      sub\n        /* \"#utility.yul\":14346:14347   */\n      0x00\n        /* \"#utility.yul\":14335:14344   */\n      dup4\n        /* \"#utility.yul\":14331:14348   */\n      add\n        /* \"#utility.yul\":14324:14371   */\n      mstore\n        /* \"#utility.yul\":14388:14519   */\n      tag_501\n        /* \"#utility.yul\":14514:14518   */\n      dup2\n        /* \"#utility.yul\":14388:14519   */\n      tag_341\n      jump\t// in\n    tag_501:\n        /* \"#utility.yul\":14380:14519   */\n      swap1\n      pop\n        /* \"#utility.yul\":14107:14526   */\n      swap2\n      swap1\n      pop\n      jump\t// out\n        /* \"#utility.yul\":14532:14807   */\n    tag_195:\n        /* \"#utility.yul\":14571:14578   */\n      0x00\n        /* \"#utility.yul\":14594:14613   */\n      tag_503\n        /* \"#utility.yul\":14611:14612   */\n      dup3\n        /* \"#utility.yul\":14594:14613   */\n      tag_307\n      jump\t// in\n    tag_503:\n        /* \"#utility.yul\":14589:14613   */\n      swap2\n      pop\n        /* \"#utility.yul\":14627:14646   */\n      tag_504\n        /* \"#utility.yul\":14644:14645   */\n      dup4\n        /* \"#utility.yul\":14627:14646   */\n      tag_307\n      jump\t// in\n    tag_504:\n        /* \"#utility.yul\":14622:14646   */\n      swap3\n      pop\n        /* \"#utility.yul\":14681:14682   */\n      dup3\n        /* \"#utility.yul\":14678:14679   */\n      dup3\n        /* \"#utility.yul\":14674:14683   */\n      mul\n        /* \"#utility.yul\":14703:14732   */\n      tag_505\n        /* \"#utility.yul\":14720:14731   */\n      dup2\n        /* \"#utility.yul\":14703:14732   */\n      tag_307\n      jump\t// in\n    tag_505:\n        /* \"#utility.yul\":14692:14732   */\n      swap2\n      pop\n        /* \"#utility.yul\":14764:14775   */\n      dup1\n        /* \"#utility.yul\":14755:14762   */\n      dup3\n        /* \"#utility.yul\":14752:14776   */\n      eq\n        /* \"#utility.yul\":14742:14800   */\n      tag_506\n      jumpi\n        /* \"#utility.yul\":14780:14798   */\n      tag_507\n      tag_323\n      jump\t// in\n    tag_507:\n        /* \"#utility.yul\":14742:14800   */\n    tag_506:\n        /* \"#utility.yul\":14579:14807   */\n      pop\n        /* \"#utility.yul\":14532:14807   */\n      swap3\n      swap2\n      pop\n      pop\n      jump\t// out\n        /* \"#utility.yul\":14813:14975   */\n    tag_342:\n        /* \"#utility.yul\":14953:14967   */\n      0x496e76616c696420646174610000000000000000000000000000000000000000\n        /* \"#utility.yul\":14949:14950   */\n      0x00\n        /* \"#utility.yul\":14941:14947   */\n      dup3\n        /* \"#utility.yul\":14937:14951   */\n      add\n        /* \"#utility.yul\":14930:14968   */\n      mstore\n        /* \"#utility.yul\":14813:14975   */\n      pop\n      jump\t// out\n        /* \"#utility.yul\":14981:15347   */\n    tag_343:\n        /* \"#utility.yul\":15123:15126   */\n      0x00\n        /* \"#utility.yul\":15144:15211   */\n      tag_510\n        /* \"#utility.yul\":15208:15210   */\n      0x0c\n        /* \"#utility.yul\":15203:15206   */\n      dup4\n        /* \"#utility.yul\":15144:15211   */\n      tag_320\n      jump\t// in\n    tag_510:\n        /* \"#utility.yul\":15137:15211   */\n      swap2\n      pop\n        /* \"#utility.yul\":15220:15313   */\n      tag_511\n        /* \"#utility.yul\":15309:15312   */\n      dup3\n        /* \"#utility.yul\":15220:15313   */\n      tag_342\n      jump\t// in\n    tag_511:\n        /* \"#utility.yul\":15338:15340   */\n      0x20\n        /* \"#utility.yul\":15333:15336   */\n      dup3\n        /* \"#utility.yul\":15329:15341   */\n      add\n        /* \"#utility.yul\":15322:15341   */\n      swap1\n      pop\n        /* \"#utility.yul\":14981:15347   */\n      swap2\n      swap1\n      pop\n      jump\t// out\n        /* \"#utility.yul\":15353:15772   */\n    tag_198:\n        /* \"#utility.yul\":15519:15523   */\n      0x00\n        /* \"#utility.yul\":15557:15559   */\n      0x20\n        /* \"#utility.yul\":15546:15555   */\n      dup3\n        /* \"#utility.yul\":15542:15560   */\n      add\n        /* \"#utility.yul\":15534:15560   */\n      swap1\n      pop\n        /* \"#utility.yul\":15606:15615   */\n      dup2\n        /* \"#utility.yul\":15600:15604   */\n      dup2\n        /* \"#utility.yul\":15596:15616   */\n      sub\n        /* \"#utility.yul\":15592:15593   */\n      0x00\n        /* \"#utility.yul\":15581:15590   */\n      dup4\n        /* \"#utility.yul\":15577:15594   */\n      add\n        /* \"#utility.yul\":15570:15617   */\n      mstore\n        /* \"#utility.yul\":15634:15765   */\n      tag_513\n        /* \"#utility.yul\":15760:15764   */\n      dup2\n        /* \"#utility.yul\":15634:15765   */\n      tag_343\n      jump\t// in\n    tag_513:\n        /* \"#utility.yul\":15626:15765   */\n      swap1\n      pop\n        /* \"#utility.yul\":15353:15772   */\n      swap2\n      swap1\n      pop\n      jump\t// out\n        /* \"#utility.yul\":15778:16005   */\n    tag_203:\n        /* \"#utility.yul\":15817:15820   */\n      0x00\n        /* \"#utility.yul\":15840:15864   */\n      tag_515\n        /* \"#utility.yul\":15858:15863   */\n      dup3\n        /* \"#utility.yul\":15840:15864   */\n      tag_313\n      jump\t// in\n    tag_515:\n        /* \"#utility.yul\":15831:15864   */\n      swap2\n      pop\n        /* \"#utility.yul\":15886:15946   */\n      0xffffffffffffffffffffffffffffffffffffffffffffffffffffffffff\n        /* \"#utility.yul\":15879:15884   */\n      dup3\n        /* \"#utility.yul\":15876:15947   */\n      sub\n        /* \"#utility.yul\":15873:15970   */\n      tag_516\n      jumpi\n        /* \"#utility.yul\":15950:15968   */\n      tag_517\n      tag_323\n      jump\t// in\n    tag_517:\n        /* \"#utility.yul\":15873:15970   */\n    tag_516:\n        /* \"#utility.yul\":15997:15998   */\n      0x01\n        /* \"#utility.yul\":15990:15995   */\n      dup3\n        /* \"#utility.yul\":15986:15999   */\n      add\n        /* \"#utility.yul\":15979:15999   */\n      swap1\n      pop\n        /* \"#utility.yul\":15778:16005   */\n      swap2\n      swap1\n      pop\n      jump\t// out\n        /* \"#utility.yul\":16011:16090   */\n    tag_344:\n        /* \"#utility.yul\":16050:16057   */\n      0x00\n        /* \"#utility.yul\":16079:16084   */\n      dup2\n        /* \"#utility.yul\":16068:16084   */\n      swap1\n      pop\n        /* \"#utility.yul\":16011:16090   */\n      swap2\n      swap1\n      pop\n      jump\t// out\n        /* \"#utility.yul\":16096:16253   */\n    tag_345:\n        /* \"#utility.yul\":16201:16246   */\n      tag_520\n        /* \"#utility.yul\":16221:16245   */\n      tag_521\n        /* \"#utility.yul\":16239:16244   */\n      dup3\n        /* \"#utility.yul\":16221:16245   */\n      tag_302\n      jump\t// in\n    tag_521:\n        /* \"#utility.yul\":16201:16246   */\n      tag_344\n      jump\t// in\n    tag_520:\n        /* \"#utility.yul\":16196:16199   */\n      dup3\n        /* \"#utility.yul\":16189:16247   */\n      mstore\n        /* \"#utility.yul\":16096:16253   */\n      pop\n      pop\n      jump\t// out\n        /* \"#utility.yul\":16259:16363   */\n    tag_346:\n        /* \"#utility.yul\":16304:16311   */\n      0x00\n        /* \"#utility.yul\":16333:16357   */\n      tag_523\n        /* \"#utility.yul\":16351:16356   */\n      dup3\n        /* \"#utility.yul\":16333:16357   */\n      tag_299\n      jump\t// in\n    tag_523:\n        /* \"#utility.yul\":16322:16357   */\n      swap1\n      pop\n        /* \"#utility.yul\":16259:16363   */\n      swap2\n      swap1\n      pop\n      jump\t// out\n        /* \"#utility.yul\":16369:16463   */\n    tag_347:\n        /* \"#utility.yul\":16402:16410   */\n      0x00\n        /* \"#utility.yul\":16450:16455   */\n      dup2\n        /* \"#utility.yul\":16446:16448   */\n      0x60\n        /* \"#utility.yul\":16442:16456   */\n      shl\n        /* \"#utility.yul\":16421:16456   */\n      swap1\n      pop\n        /* \"#utility.yul\":16369:16463   */\n      swap2\n      swap1\n      pop\n      jump\t// out\n        /* \"#utility.yul\":16469:16563   */\n    tag_348:\n        /* \"#utility.yul\":16508:16515   */\n      0x00\n        /* \"#utility.yul\":16537:16557   */\n      tag_526\n        /* \"#utility.yul\":16551:16556   */\n      dup3\n        /* \"#utility.yul\":16537:16557   */\n      tag_347\n      jump\t// in\n    tag_526:\n        /* \"#utility.yul\":16526:16557   */\n      swap1\n      pop\n        /* \"#utility.yul\":16469:16563   */\n      swap2\n      swap1\n      pop\n      jump\t// out\n        /* \"#utility.yul\":16569:16677   */\n    tag_349:\n        /* \"#utility.yul\":16616:16623   */\n      0x00\n        /* \"#utility.yul\":16645:16671   */\n      tag_528\n        /* \"#utility.yul\":16665:16670   */\n      dup3\n        /* \"#utility.yul\":16645:16671   */\n      tag_348\n      jump\t// in\n    tag_528:\n        /* \"#utility.yul\":16634:16671   */\n      swap1\n      pop\n        /* \"#utility.yul\":16569:16677   */\n      swap2\n      swap1\n      pop\n      jump\t// out\n        /* \"#utility.yul\":16683:16872   */\n    tag_350:\n        /* \"#utility.yul\":16804:16865   */\n      tag_530\n        /* \"#utility.yul\":16832:16864   */\n      tag_531\n        /* \"#utility.yul\":16858:16863   */\n      dup3\n        /* \"#utility.yul\":16832:16864   */\n      tag_346\n      jump\t// in\n    tag_531:\n        /* \"#utility.yul\":16804:16865   */\n      tag_349\n      jump\t// in\n    tag_530:\n        /* \"#utility.yul\":16799:16802   */\n      dup3\n        /* \"#utility.yul\":16792:16866   */\n      mstore\n        /* \"#utility.yul\":16683:16872   */\n      pop\n      pop\n      jump\t// out\n        /* \"#utility.yul\":16878:16978   */\n    tag_351:\n        /* \"#utility.yul\":16917:16924   */\n      0x00\n        /* \"#utility.yul\":16946:16972   */\n      tag_533\n        /* \"#utility.yul\":16966:16971   */\n      dup3\n        /* \"#utility.yul\":16946:16972   */\n      tag_348\n      jump\t// in\n    tag_533:\n        /* \"#utility.yul\":16935:16972   */\n      swap1\n      pop\n        /* \"#utility.yul\":16878:16978   */\n      swap2\n      swap1\n      pop\n      jump\t// out\n        /* \"#utility.yul\":16984:17141   */\n    tag_352:\n        /* \"#utility.yul\":17089:17134   */\n      tag_535\n        /* \"#utility.yul\":17109:17133   */\n      tag_536\n        /* \"#utility.yul\":17127:17132   */\n      dup3\n        /* \"#utility.yul\":17109:17133   */\n      tag_300\n      jump\t// in\n    tag_536:\n        /* \"#utility.yul\":17089:17134   */\n      tag_351\n      jump\t// in\n    tag_535:\n        /* \"#utility.yul\":17084:17087   */\n      dup3\n        /* \"#utility.yul\":17077:17135   */\n      mstore\n        /* \"#utility.yul\":16984:17141   */\n      pop\n      pop\n      jump\t// out\n        /* \"#utility.yul\":17147:17241   */\n    tag_353:\n        /* \"#utility.yul\":17180:17188   */\n      0x00\n        /* \"#utility.yul\":17228:17233   */\n      dup2\n        /* \"#utility.yul\":17224:17226   */\n      0x18\n        /* \"#utility.yul\":17220:17234   */\n      shl\n        /* \"#utility.yul\":17199:17234   */\n      swap1\n      pop\n        /* \"#utility.yul\":17147:17241   */\n      swap2\n      swap1\n      pop\n      jump\t// out\n        /* \"#utility.yul\":17247:17341   */\n    tag_354:\n        /* \"#utility.yul\":17286:17293   */\n      0x00\n        /* \"#utility.yul\":17315:17335   */\n      tag_539\n        /* \"#utility.yul\":17329:17334   */\n      dup3\n        /* \"#utility.yul\":17315:17335   */\n      tag_353\n      jump\t// in\n    tag_539:\n        /* \"#utility.yul\":17304:17335   */\n      swap1\n      pop\n        /* \"#utility.yul\":17247:17341   */\n      swap2\n      swap1\n      pop\n      jump\t// out\n        /* \"#utility.yul\":17347:17504   */\n    tag_355:\n        /* \"#utility.yul\":17452:17497   */\n      tag_541\n        /* \"#utility.yul\":17472:17496   */\n      tag_542\n        /* \"#utility.yul\":17490:17495   */\n      dup3\n        /* \"#utility.yul\":17472:17496   */\n      tag_313\n      jump\t// in\n    tag_542:\n        /* \"#utility.yul\":17452:17497   */\n      tag_354\n      jump\t// in\n    tag_541:\n        /* \"#utility.yul\":17447:17450   */\n      dup3\n        /* \"#utility.yul\":17440:17498   */\n      mstore\n        /* \"#utility.yul\":17347:17504   */\n      pop\n      pop\n      jump\t// out\n        /* \"#utility.yul\":17510:18221   */\n    tag_205:\n        /* \"#utility.yul\":17722:17725   */\n      0x00\n        /* \"#utility.yul\":17737:17812   */\n      tag_544\n        /* \"#utility.yul\":17808:17811   */\n      dup3\n        /* \"#utility.yul\":17799:17805   */\n      dup8\n        /* \"#utility.yul\":17737:17812   */\n      tag_345\n      jump\t// in\n    tag_544:\n        /* \"#utility.yul\":17837:17839   */\n      0x20\n        /* \"#utility.yul\":17832:17835   */\n      dup3\n        /* \"#utility.yul\":17828:17840   */\n      add\n        /* \"#utility.yul\":17821:17840   */\n      swap2\n      pop\n        /* \"#utility.yul\":17850:17941   */\n      tag_545\n        /* \"#utility.yul\":17937:17940   */\n      dup3\n        /* \"#utility.yul\":17928:17934   */\n      dup7\n        /* \"#utility.yul\":17850:17941   */\n      tag_350\n      jump\t// in\n    tag_545:\n        /* \"#utility.yul\":17966:17968   */\n      0x14\n        /* \"#utility.yul\":17961:17964   */\n      dup3\n        /* \"#utility.yul\":17957:17969   */\n      add\n        /* \"#utility.yul\":17950:17969   */\n      swap2\n      pop\n        /* \"#utility.yul\":17979:18054   */\n      tag_546\n        /* \"#utility.yul\":18050:18053   */\n      dup3\n        /* \"#utility.yul\":18041:18047   */\n      dup6\n        /* \"#utility.yul\":17979:18054   */\n      tag_352\n      jump\t// in\n    tag_546:\n        /* \"#utility.yul\":18079:18081   */\n      0x14\n        /* \"#utility.yul\":18074:18077   */\n      dup3\n        /* \"#utility.yul\":18070:18082   */\n      add\n        /* \"#utility.yul\":18063:18082   */\n      swap2\n      pop\n        /* \"#utility.yul\":18092:18167   */\n      tag_547\n        /* \"#utility.yul\":18163:18166   */\n      dup3\n        /* \"#utility.yul\":18154:18160   */\n      dup5\n        /* \"#utility.yul\":18092:18167   */\n      tag_355\n      jump\t// in\n    tag_547:\n        /* \"#utility.yul\":18192:18194   */\n      0x1d\n        /* \"#utility.yul\":18187:18190   */\n      dup3\n        /* \"#utility.yul\":18183:18195   */\n      add\n        /* \"#utility.yul\":18176:18195   */\n      swap2\n      pop\n        /* \"#utility.yul\":18212:18215   */\n      dup2\n        /* \"#utility.yul\":18205:18215   */\n      swap1\n      pop\n        /* \"#utility.yul\":17510:18221   */\n      swap6\n      swap5\n      pop\n      pop\n      pop\n      pop\n      pop\n      jump\t// out\n        /* \"#utility.yul\":18227:18526   */\n    tag_356:\n        /* \"#utility.yul\":18367:18401   */\n      0x4d696e696d756d20696e766573746d656e7420616d6f756e7420697320726571\n        /* \"#utility.yul\":18363:18364   */\n      0x00\n        /* \"#utility.yul\":18355:18361   */\n      dup3\n        /* \"#utility.yul\":18351:18365   */\n      add\n        /* \"#utility.yul\":18344:18402   */\n      mstore\n        /* \"#utility.yul\":18436:18470   */\n      0x75697265642c6974277320736d616c6c6572207468616e20746865206d696e69\n        /* \"#utility.yul\":18431:18433   */\n      0x20\n        /* \"#utility.yul\":18423:18429   */\n      dup3\n        /* \"#utility.yul\":18419:18434   */\n      add\n        /* \"#utility.yul\":18412:18471   */\n      mstore\n        /* \"#utility.yul\":18505:18518   */\n      0x6d756d206465706f736974000000000000000000000000000000000000000000\n        /* \"#utility.yul\":18500:18502   */\n      0x40\n        /* \"#utility.yul\":18492:18498   */\n      dup3\n        /* \"#utility.yul\":18488:18503   */\n      add\n        /* \"#utility.yul\":18481:18519   */\n      mstore\n        /* \"#utility.yul\":18227:18526   */\n      pop\n      jump\t// out\n        /* \"#utility.yul\":18532:18898   */\n    tag_357:\n        /* \"#utility.yul\":18674:18677   */\n      0x00\n        /* \"#utility.yul\":18695:18762   */\n      tag_550\n        /* \"#utility.yul\":18759:18761   */\n      0x4b\n        /* \"#utility.yul\":18754:18757   */\n      dup4\n        /* \"#utility.yul\":18695:18762   */\n      tag_320\n      jump\t// in\n    tag_550:\n        /* \"#utility.yul\":18688:18762   */\n      swap2\n      pop\n        /* \"#utility.yul\":18771:18864   */\n      tag_551\n        /* \"#utility.yul\":18860:18863   */\n      dup3\n        /* \"#utility.yul\":18771:18864   */\n      tag_356\n      jump\t// in\n    tag_551:\n        /* \"#utility.yul\":18889:18891   */\n      0x60\n        /* \"#utility.yul\":18884:18887   */\n      dup3\n        /* \"#utility.yul\":18880:18892   */\n      add\n        /* \"#utility.yul\":18873:18892   */\n      swap1\n      pop\n        /* \"#utility.yul\":18532:18898   */\n      swap2\n      swap1\n      pop\n      jump\t// out\n        /* \"#utility.yul\":18904:19323   */\n    tag_226:\n        /* \"#utility.yul\":19070:19074   */\n      0x00\n        /* \"#utility.yul\":19108:19110   */\n      0x20\n        /* \"#utility.yul\":19097:19106   */\n      dup3\n        /* \"#utility.yul\":19093:19111   */\n      add\n        /* \"#utility.yul\":19085:19111   */\n      swap1\n      pop\n        /* \"#utility.yul\":19157:19166   */\n      dup2\n        /* \"#utility.yul\":19151:19155   */\n      dup2\n        /* \"#utility.yul\":19147:19167   */\n      sub\n        /* \"#utility.yul\":19143:19144   */\n      0x00\n        /* \"#utility.yul\":19132:19141   */\n      dup4\n        /* \"#utility.yul\":19128:19145   */\n      add\n        /* \"#utility.yul\":19121:19168   */\n      mstore\n        /* \"#utility.yul\":19185:19316   */\n      tag_553\n        /* \"#utility.yul\":19311:19315   */\n      dup2\n        /* \"#utility.yul\":19185:19316   */\n      tag_357\n      jump\t// in\n    tag_553:\n        /* \"#utility.yul\":19177:19316   */\n      swap1\n      pop\n        /* \"#utility.yul\":18904:19323   */\n      swap2\n      swap1\n      pop\n      jump\t// out\n        /* \"#utility.yul\":19329:19507   */\n    tag_358:\n        /* \"#utility.yul\":19469:19499   */\n      0x4e6f7420656e6f7567682066756e6420746f2077697468647261772100000000\n        /* \"#utility.yul\":19465:19466   */\n      0x00\n        /* \"#utility.yul\":19457:19463   */\n      dup3\n        /* \"#utility.yul\":19453:19467   */\n      add\n        /* \"#utility.yul\":19446:19500   */\n      mstore\n        /* \"#utility.yul\":19329:19507   */\n      pop\n      jump\t// out\n        /* \"#utility.yul\":19513:19879   */\n    tag_359:\n        /* \"#utility.yul\":19655:19658   */\n      0x00\n        /* \"#utility.yul\":19676:19743   */\n      tag_556\n        /* \"#utility.yul\":19740:19742   */\n      0x1c\n        /* \"#utility.yul\":19735:19738   */\n      dup4\n        /* \"#utility.yul\":19676:19743   */\n      tag_320\n      jump\t// in\n    tag_556:\n        /* \"#utility.yul\":19669:19743   */\n      swap2\n      pop\n        /* \"#utility.yul\":19752:19845   */\n      tag_557\n        /* \"#utility.yul\":19841:19844   */\n      dup3\n        /* \"#utility.yul\":19752:19845   */\n      tag_358\n      jump\t// in\n    tag_557:\n        /* \"#utility.yul\":19870:19872   */\n      0x20\n        /* \"#utility.yul\":19865:19868   */\n      dup3\n        /* \"#utility.yul\":19861:19873   */\n      add\n        /* \"#utility.yul\":19854:19873   */\n      swap1\n      pop\n        /* \"#utility.yul\":19513:19879   */\n      swap2\n      swap1\n      pop\n      jump\t// out\n        /* \"#utility.yul\":19885:20304   */\n    tag_229:\n        /* \"#utility.yul\":20051:20055   */\n      0x00\n        /* \"#utility.yul\":20089:20091   */\n      0x20\n        /* \"#utility.yul\":20078:20087   */\n      dup3\n        /* \"#utility.yul\":20074:20092   */\n      add\n        /* \"#utility.yul\":20066:20092   */\n      swap1\n      pop\n        /* \"#utility.yul\":20138:20147   */\n      dup2\n        /* \"#utility.yul\":20132:20136   */\n      dup2\n        /* \"#utility.yul\":20128:20148   */\n      sub\n        /* \"#utility.yul\":20124:20125   */\n      0x00\n        /* \"#utility.yul\":20113:20122   */\n      dup4\n        /* \"#utility.yul\":20109:20126   */\n      add\n        /* \"#utility.yul\":20102:20149   */\n      mstore\n        /* \"#utility.yul\":20166:20297   */\n      tag_559\n        /* \"#utility.yul\":20292:20296   */\n      dup2\n        /* \"#utility.yul\":20166:20297   */\n      tag_359\n      jump\t// in\n    tag_559:\n        /* \"#utility.yul\":20158:20297   */\n      swap1\n      pop\n        /* \"#utility.yul\":19885:20304   */\n      swap2\n      swap1\n      pop\n      jump\t// out\n        /* \"#utility.yul\":20310:20491   */\n    tag_360:\n        /* \"#utility.yul\":20450:20483   */\n      0x43616e6e6f74207769746864726177206166746572206f6e65207765656b2100\n        /* \"#utility.yul\":20446:20447   */\n      0x00\n        /* \"#utility.yul\":20438:20444   */\n      dup3\n        /* \"#utility.yul\":20434:20448   */\n      add\n        /* \"#utility.yul\":20427:20484   */\n      mstore\n        /* \"#utility.yul\":20310:20491   */\n      pop\n      jump\t// out\n        /* \"#utility.yul\":20497:20863   */\n    tag_361:\n        /* \"#utility.yul\":20639:20642   */\n      0x00\n        /* \"#utility.yul\":20660:20727   */\n      tag_562\n        /* \"#utility.yul\":20724:20726   */\n      0x1f\n        /* \"#utility.yul\":20719:20722   */\n      dup4\n        /* \"#utility.yul\":20660:20727   */\n      tag_320\n      jump\t// in\n    tag_562:\n        /* \"#utility.yul\":20653:20727   */\n      swap2\n      pop\n        /* \"#utility.yul\":20736:20829   */\n      tag_563\n        /* \"#utility.yul\":20825:20828   */\n      dup3\n        /* \"#utility.yul\":20736:20829   */\n      tag_360\n      jump\t// in\n    tag_563:\n        /* \"#utility.yul\":20854:20856   */\n      0x20\n        /* \"#utility.yul\":20849:20852   */\n      dup3\n        /* \"#utility.yul\":20845:20857   */\n      add\n        /* \"#utility.yul\":20838:20857   */\n      swap1\n      pop\n        /* \"#utility.yul\":20497:20863   */\n      swap2\n      swap1\n      pop\n      jump\t// out\n        /* \"#utility.yul\":20869:21288   */\n    tag_233:\n        /* \"#utility.yul\":21035:21039   */\n      0x00\n        /* \"#utility.yul\":21073:21075   */\n      0x20\n        /* \"#utility.yul\":21062:21071   */\n      dup3\n        /* \"#utility.yul\":21058:21076   */\n      add\n        /* \"#utility.yul\":21050:21076   */\n      swap1\n      pop\n        /* \"#utility.yul\":21122:21131   */\n      dup2\n        /* \"#utility.yul\":21116:21120   */\n      dup2\n        /* \"#utility.yul\":21112:21132   */\n      sub\n        /* \"#utility.yul\":21108:21109   */\n      0x00\n        /* \"#utility.yul\":21097:21106   */\n      dup4\n        /* \"#utility.yul\":21093:21110   */\n      add\n        /* \"#utility.yul\":21086:21133   */\n      mstore\n        /* \"#utility.yul\":21150:21281   */\n      tag_565\n        /* \"#utility.yul\":21276:21280   */\n      dup2\n        /* \"#utility.yul\":21150:21281   */\n      tag_361\n      jump\t// in\n    tag_565:\n        /* \"#utility.yul\":21142:21281   */\n      swap1\n      pop\n        /* \"#utility.yul\":20869:21288   */\n      swap2\n      swap1\n      pop\n      jump\t// out\n        /* \"#utility.yul\":21294:21474   */\n    tag_362:\n        /* \"#utility.yul\":21434:21466   */\n      0x496e73756666696369656e742066756e6420746f207769746864726177210000\n        /* \"#utility.yul\":21430:21431   */\n      0x00\n        /* \"#utility.yul\":21422:21428   */\n      dup3\n        /* \"#utility.yul\":21418:21432   */\n      add\n        /* \"#utility.yul\":21411:21467   */\n      mstore\n        /* \"#utility.yul\":21294:21474   */\n      pop\n      jump\t// out\n        /* \"#utility.yul\":21480:21846   */\n    tag_363:\n        /* \"#utility.yul\":21622:21625   */\n      0x00\n        /* \"#utility.yul\":21643:21710   */\n      tag_568\n        /* \"#utility.yul\":21707:21709   */\n      0x1e\n        /* \"#utility.yul\":21702:21705   */\n      dup4\n        /* \"#utility.yul\":21643:21710   */\n      tag_320\n      jump\t// in\n    tag_568:\n        /* \"#utility.yul\":21636:21710   */\n      swap2\n      pop\n        /* \"#utility.yul\":21719:21812   */\n      tag_569\n        /* \"#utility.yul\":21808:21811   */\n      dup3\n        /* \"#utility.yul\":21719:21812   */\n      tag_362\n      jump\t// in\n    tag_569:\n        /* \"#utility.yul\":21837:21839   */\n      0x20\n        /* \"#utility.yul\":21832:21835   */\n      dup3\n        /* \"#utility.yul\":21828:21840   */\n      add\n        /* \"#utility.yul\":21821:21840   */\n      swap1\n      pop\n        /* \"#utility.yul\":21480:21846   */\n      swap2\n      swap1\n      pop\n      jump\t// out\n        /* \"#utility.yul\":21852:22271   */\n    tag_239:\n        /* \"#utility.yul\":22018:22022   */\n      0x00\n        /* \"#utility.yul\":22056:22058   */\n      0x20\n        /* \"#utility.yul\":22045:22054   */\n      dup3\n        /* \"#utility.yul\":22041:22059   */\n      add\n        /* \"#utility.yul\":22033:22059   */\n      swap1\n      pop\n        /* \"#utility.yul\":22105:22114   */\n      dup2\n        /* \"#utility.yul\":22099:22103   */\n      dup2\n        /* \"#utility.yul\":22095:22115   */\n      sub\n        /* \"#utility.yul\":22091:22092   */\n      0x00\n        /* \"#utility.yul\":22080:22089   */\n      dup4\n        /* \"#utility.yul\":22076:22093   */\n      add\n        /* \"#utility.yul\":22069:22116   */\n      mstore\n        /* \"#utility.yul\":22133:22264   */\n      tag_571\n        /* \"#utility.yul\":22259:22263   */\n      dup2\n        /* \"#utility.yul\":22133:22264   */\n      tag_363\n      jump\t// in\n    tag_571:\n        /* \"#utility.yul\":22125:22264   */\n      swap1\n      pop\n        /* \"#utility.yul\":21852:22271   */\n      swap2\n      swap1\n      pop\n      jump\t// out\n        /* \"#utility.yul\":22277:22452   */\n    tag_364:\n        /* \"#utility.yul\":22417:22444   */\n      0x596f75206d7573742062652074686520646576656c6f70657200000000000000\n        /* \"#utility.yul\":22413:22414   */\n      0x00\n        /* \"#utility.yul\":22405:22411   */\n      dup3\n        /* \"#utility.yul\":22401:22415   */\n      add\n        /* \"#utility.yul\":22394:22445   */\n      mstore\n        /* \"#utility.yul\":22277:22452   */\n      pop\n      jump\t// out\n        /* \"#utility.yul\":22458:22824   */\n    tag_365:\n        /* \"#utility.yul\":22600:22603   */\n      0x00\n        /* \"#utility.yul\":22621:22688   */\n      tag_574\n        /* \"#utility.yul\":22685:22687   */\n      0x19\n        /* \"#utility.yul\":22680:22683   */\n      dup4\n        /* \"#utility.yul\":22621:22688   */\n      tag_320\n      jump\t// in\n    tag_574:\n        /* \"#utility.yul\":22614:22688   */\n      swap2\n      pop\n        /* \"#utility.yul\":22697:22790   */\n      tag_575\n        /* \"#utility.yul\":22786:22789   */\n      dup3\n        /* \"#utility.yul\":22697:22790   */\n      tag_364\n      jump\t// in\n    tag_575:\n        /* \"#utility.yul\":22815:22817   */\n      0x20\n        /* \"#utility.yul\":22810:22813   */\n      dup3\n        /* \"#utility.yul\":22806:22818   */\n      add\n        /* \"#utility.yul\":22799:22818   */\n      swap1\n      pop\n        /* \"#utility.yul\":22458:22824   */\n      swap2\n      swap1\n      pop\n      jump\t// out\n        /* \"#utility.yul\":22830:23249   */\n    tag_247:\n        /* \"#utility.yul\":22996:23000   */\n      0x00\n        /* \"#utility.yul\":23034:23036   */\n      0x20\n        /* \"#utility.yul\":23023:23032   */\n      dup3\n        /* \"#utility.yul\":23019:23037   */\n      add\n        /* \"#utility.yul\":23011:23037   */\n      swap1\n      pop\n        /* \"#utility.yul\":23083:23092   */\n      dup2\n        /* \"#utility.yul\":23077:23081   */\n      dup2\n        /* \"#utility.yul\":23073:23093   */\n      sub\n        /* \"#utility.yul\":23069:23070   */\n      0x00\n        /* \"#utility.yul\":23058:23067   */\n      dup4\n        /* \"#utility.yul\":23054:23071   */\n      add\n        /* \"#utility.yul\":23047:23094   */\n      mstore\n        /* \"#utility.yul\":23111:23242   */\n      tag_577\n        /* \"#utility.yul\":23237:23241   */\n      dup2\n        /* \"#utility.yul\":23111:23242   */\n      tag_365\n      jump\t// in\n    tag_577:\n        /* \"#utility.yul\":23103:23242   */\n      swap1\n      pop\n        /* \"#utility.yul\":22830:23249   */\n      swap2\n      swap1\n      pop\n      jump\t// out\n        /* \"#utility.yul\":23255:23435   */\n    tag_253:\n        /* \"#utility.yul\":23303:23380   */\n      0x4e487b7100000000000000000000000000000000000000000000000000000000\n        /* \"#utility.yul\":23300:23301   */\n      0x00\n        /* \"#utility.yul\":23293:23381   */\n      mstore\n        /* \"#utility.yul\":23400:23404   */\n      0x01\n        /* \"#utility.yul\":23397:23398   */\n      0x04\n        /* \"#utility.yul\":23390:23405   */\n      mstore\n        /* \"#utility.yul\":23424:23428   */\n      0x24\n        /* \"#utility.yul\":23421:23422   */\n      0x00\n        /* \"#utility.yul\":23414:23429   */\n      revert\n\n    auxdata: 0xa264697066735822122057b8b18fc73283b99d8f691d6759ccca0364bda641a8afa00e3d154fb2f8d20064736f6c634300081a0033\n}\n",
				"bytecode": {
					"linkReferences": {},
					"object": "6080604052348015600e575f80fd5b50335f806101000a81548173ffffffffffffffffffffffffffffffffffffffff021916908373ffffffffffffffffffffffffffffffffffffffff1602179055504260068190555042600881905550612d48806100695f395ff3fe60806040526004361061009b575f3560e01c8063a659f4dc11610063578063a659f4dc14610115578063b1c617ff1461013f578063c9ea029914610169578063ca6aae2914610185578063dd5f6f4d146101af578063f4e79b5b146101d75761009b565b806312db13571461009f57806322629256146100b557806349821332146100cb5780637da384fd146100d557806389a4c1a0146100eb575b5f80fd5b3480156100aa575f80fd5b506100b36101ed565b005b3480156100c0575f80fd5b506100c9610573565b005b6100d36106e5565b005b3480156100e0575f80fd5b506100e961093e565b005b3480156100f6575f80fd5b506100ff611295565b60405161010c919061214c565b60405180910390f35b348015610120575f80fd5b506101296112b8565b604051610136919061217d565b60405180910390f35b34801561014a575f80fd5b506101536112be565b604051610160919061217d565b60405180910390f35b610183600480360381019061017e9190612283565b6112c4565b005b348015610190575f80fd5b50610199611a48565b6040516101a6919061217d565b60405180910390f35b3480156101ba575f80fd5b506101d560048036038101906101d09190612311565b611a4e565b005b3480156101e2575f80fd5b506101eb611cc8565b005b670de0b6b3a764000060035f3373ffffffffffffffffffffffffffffffffffffffff1673ffffffffffffffffffffffffffffffffffffffff1681526020019081526020015f205f015410158061028d57505f8054906101000a900473ffffffffffffffffffffffffffffffffffffffff1673ffffffffffffffffffffffffffffffffffffffff163373ffffffffffffffffffffffffffffffffffffffff16145b6102cc576040517f08c379a00000000000000000000000000000000000000000000000000000000081526004016102c390612396565b60405180910390fd5b5f60055490505f806102fa476001546007546005546102eb91906123e1565b6102f591906123e1565b611dc8565b905069021e19e0c9bab240000081106103425760c88161031a9190612441565b8361032591906123e1565b925060c8816103349190612441565b8261033f91906123e1565b91505b5f6005819055505f5b60028054905081101561050157670de0b6b3a764000060035f6002848154811061037857610377612471565b5b905f5260205f20015f9054906101000a900473ffffffffffffffffffffffffffffffffffffffff1673ffffffffffffffffffffffffffffffffffffffff1673ffffffffffffffffffffffffffffffffffffffff1681526020019081526020015f205f0154106104f4575f61047161046960035f600286815481106103ff576103fe612471565b5b905f5260205f20015f9054906101000a900473ffffffffffffffffffffffffffffffffffffffff1673ffffffffffffffffffffffffffffffffffffffff1673ffffffffffffffffffffffffffffffffffffffff1681526020019081526020015f205f015487611dee565b600454611e33565b90506002828154811061048757610486612471565b5b905f5260205f20015f9054906101000a900473ffffffffffffffffffffffffffffffffffffffff1673ffffffffffffffffffffffffffffffffffffffff166108fc8290811502906040515f60405180830381858888f193505050501580156104f1573d5f803e3d5ffd5b50505b808060010191505061034b565b505f82111561056e575f8054906101000a900473ffffffffffffffffffffffffffffffffffffffff1673ffffffffffffffffffffffffffffffffffffffff166108fc8390811502906040515f60405180830381858888f1935050505015801561056c573d5f803e3d5ffd5b505b505050565b662386f26fc1000060095f3373ffffffffffffffffffffffffffffffffffffffff1673ffffffffffffffffffffffffffffffffffffffff1681526020019081526020015f206002015410156105fd576040517f08c379a00000000000000000000000000000000000000000000000000000000081526004016105f4906124e8565b60405180910390fd5b5f60095f3373ffffffffffffffffffffffffffffffffffffffff1673ffffffffffffffffffffffffffffffffffffffff1681526020019081526020015f206002015490505f60095f3373ffffffffffffffffffffffffffffffffffffffff1673ffffffffffffffffffffffffffffffffffffffff1681526020019081526020015f20600201819055508060075f8282546106979190612506565b925050819055503373ffffffffffffffffffffffffffffffffffffffff166108fc8290811502906040515f60405180830381858888f193505050501580156106e1573d5f803e3d5ffd5b5050565b670de0b6b3a764000034101580156107065750683635c9adc5dea000003411155b610745576040517f08c379a000000000000000000000000000000000000000000000000000000000815260040161073c906125a9565b60405180910390fd5b69021e19e0c9bab24000006107764760015460075460055461076791906123e1565b61077191906123e1565b611dc8565b1115610780575f80fd5b3460045f82825461079191906123e1565b925050819055503460035f3373ffffffffffffffffffffffffffffffffffffffff1673ffffffffffffffffffffffffffffffffffffffff1681526020019081526020015f205f015f8282546107e691906123e1565b925050819055504260035f3373ffffffffffffffffffffffffffffffffffffffff1673ffffffffffffffffffffffffffffffffffffffff1681526020019081526020015f206001018190555060035f3373ffffffffffffffffffffffffffffffffffffffff1673ffffffffffffffffffffffffffffffffffffffff1681526020019081526020015f206002015f9054906101000a900460ff1661093c57600160035f3373ffffffffffffffffffffffffffffffffffffffff1673ffffffffffffffffffffffffffffffffffffffff1681526020019081526020015f206002015f6101000a81548160ff021916908315150217905550600233908060018154018082558091505060019003905f5260205f20015f9091909190916101000a81548173ffffffffffffffffffffffffffffffffffffffff021916908373ffffffffffffffffffffffffffffffffffffffff1602179055505b565b5f60095f3373ffffffffffffffffffffffffffffffffffffffff1673ffffffffffffffffffffffffffffffffffffffff1681526020019081526020015f205f0180549050116109c2576040517f08c379a00000000000000000000000000000000000000000000000000000000081526004016109b990612637565b60405180910390fd5b60095f3373ffffffffffffffffffffffffffffffffffffffff1673ffffffffffffffffffffffffffffffffffffffff1681526020019081526020015f205f01600160095f3373ffffffffffffffffffffffffffffffffffffffff1673ffffffffffffffffffffffffffffffffffffffff1681526020019081526020015f205f0180549050610a509190612506565b81548110610a6157610a60612471565b5b905f5260205f20906002020160010160019054906101000a90047effffffffffffffffffffffffffffffffffffffffffffffffffffffffffffff167effffffffffffffffffffffffffffffffffffffffffffffffffffffffffffff164311610afe576040517f08c379a0000000000000000000000000000000000000000000000000000000008152600401610af59061269f565b60405180910390fd5b5f60095f3373ffffffffffffffffffffffffffffffffffffffff1673ffffffffffffffffffffffffffffffffffffffff1681526020019081526020015f20600101805490501115610b955760095f3373ffffffffffffffffffffffffffffffffffffffff1673ffffffffffffffffffffffffffffffffffffffff1681526020019081526020015f206001015f610b94919061202d565b5b5f805f90505b60095f3373ffffffffffffffffffffffffffffffffffffffff1673ffffffffffffffffffffffffffffffffffffffff1681526020019081526020015f205f0180549050811015611150575f60095f3373ffffffffffffffffffffffffffffffffffffffff1673ffffffffffffffffffffffffffffffffffffffff1681526020019081526020015f205f018281548110610c3757610c36612471565b5b905f5260205f20906002020160010160019054906101000a90047effffffffffffffffffffffffffffffffffffffffffffffffffffffffffffff167effffffffffffffffffffffffffffffffffffffffffffffffffffffffffffff16405f1c0315611143575f60095f3373ffffffffffffffffffffffffffffffffffffffff1673ffffffffffffffffffffffffffffffffffffffff1681526020019081526020015f205f018281548110610cee57610ced612471565b5b905f5260205f2090600202015f015460095f3373ffffffffffffffffffffffffffffffffffffffff1673ffffffffffffffffffffffffffffffffffffffff1681526020019081526020015f205f018381548110610d4e57610d4d612471565b5b905f5260205f20906002020160010160019054906101000a90047effffffffffffffffffffffffffffffffffffffffffffffffffffffffffffff167effffffffffffffffffffffffffffffffffffffffffffffffffffffffffffff1640604051602001610dbc9291906126e6565b6040516020818303038152906040528051906020012060e01c90505f610de182611e5d565b90505f811115611009575f66470de4df82000060095f3373ffffffffffffffffffffffffffffffffffffffff1673ffffffffffffffffffffffffffffffffffffffff1681526020019081526020015f205f018581548110610e4557610e44612471565b5b905f5260205f2090600202016001015f9054906101000a900460ff1660ff16610e6d84611f60565b610e779190612711565b610e819190612711565b90508085610e8f91906123e1565b94505f60405180608001604052808563ffffffff16815260200160095f3373ffffffffffffffffffffffffffffffffffffffff1673ffffffffffffffffffffffffffffffffffffffff1681526020019081526020015f205f018781548110610efa57610ef9612471565b5b905f5260205f2090600202016001015f9054906101000a900460ff1660ff1681526020014264ffffffffff1681526020013373ffffffffffffffffffffffffffffffffffffffff168152509050600b81908060018154018082558091505060019003905f5260205f2090600302015f909190919091505f820151815f015f6101000a81548163ffffffff021916908363ffffffff1602179055506020820151815f0160046101000a81548160ff021916908360ff160217905550604082015181600101556060820151816002015f6101000a81548173ffffffffffffffffffffffffffffffffffffffff021916908373ffffffffffffffffffffffffffffffffffffffff160217905550505050505b5f60405180604001604052808463ffffffff16815260200160095f3373ffffffffffffffffffffffffffffffffffffffff1673ffffffffffffffffffffffffffffffffffffffff1681526020019081526020015f205f01868154811061107257611071612471565b5b905f5260205f2090600202016001015f9054906101000a900460ff1660ff16815250905060095f3373ffffffffffffffffffffffffffffffffffffffff1673ffffffffffffffffffffffffffffffffffffffff1681526020019081526020015f2060010181908060018154018082558091505060019003905f5260205f20015f909190919091505f820151815f015f6101000a81548163ffffffff021916908363ffffffff1602179055506020820151815f0160046101000a81548160ff021916908360ff16021790555050505050505b8080600101915050610b9b565b5060095f3373ffffffffffffffffffffffffffffffffffffffff1673ffffffffffffffffffffffffffffffffffffffff1681526020019081526020015f205f015f61119b919061204b565b5f811115611292575f6111de6111d76111d0476001546007546005546111c191906123e1565b6111cb91906123e1565b611dc8565b6046611dee565b6064611e33565b9050808211156111ec578091505b5f6112026111fb846005611dee565b6064611e33565b90508060055f82825461121591906123e1565b925050819055508060015f82825461122d91906123e1565b925050819055503373ffffffffffffffffffffffffffffffffffffffff166108fc60028361125b9190612711565b856112669190612506565b90811502906040515f60405180830381858888f1935050505015801561128e573d5f803e3d5ffd5b5050505b50565b5f8054906101000a900473ffffffffffffffffffffffffffffffffffffffff1681565b60045481565b60065481565b66470de4df82000034101561130e576040517f08c379a00000000000000000000000000000000000000000000000000000000081526004016113059061279c565b60405180910390fd5b60018360ff1610158015611326575060648360ff1611155b611365576040517f08c379a000000000000000000000000000000000000000000000000000000000815260040161135c90612804565b60405180910390fd5b60018461ffff161015801561138057506103e88461ffff1611155b6113bf576040517f08c379a00000000000000000000000000000000000000000000000000000000081526004016113b69061286c565b60405180910390fd5b5f6113d13466470de4df820000611e33565b90508360ff16856113e2919061288a565b61ffff168114611427576040517f08c379a000000000000000000000000000000000000000000000000000000000815260040161141e90612910565b60405180910390fd5b5f5b8561ffff168110156115aa575f6040518060600160405280424133898061144f9061292e565b9a506040516020016114649493929190612a44565b6040516020818303038152906040528051906020012081526020018760ff168152602001437effffffffffffffffffffffffffffffffffffffffffffffffffffffffffffff16815250905060095f3373ffffffffffffffffffffffffffffffffffffffff1673ffffffffffffffffffffffffffffffffffffffff1681526020019081526020015f205f0181908060018154018082558091505060019003905f5260205f2090600202015f909190919091505f820151815f01556020820151816001015f6101000a81548160ff021916908360ff16021790555060408201518160010160016101000a8154817effffffffffffffffffffffffffffffffffffffffffffffffffffffffffffff02191690837effffffffffffffffffffffffffffffffffffffffffffffffffffffffffffff1602179055505050508080600101915050611429565b5060095f3373ffffffffffffffffffffffffffffffffffffffff1673ffffffffffffffffffffffffffffffffffffffff1681526020019081526020015f206003015f9054906101000a900460ff1661165557600160095f3373ffffffffffffffffffffffffffffffffffffffff1673ffffffffffffffffffffffffffffffffffffffff1681526020019081526020015f206003015f6101000a81548160ff0219169083151502179055505b5f61166b611664346003611dee565b6064611e33565b90505f61168361167c346004611dee565b6064611e33565b90508160015f82825461169691906123e1565b925050819055508160055f8282546116ae91906123e1565b925050819055505f73ffffffffffffffffffffffffffffffffffffffff16600a5f3373ffffffffffffffffffffffffffffffffffffffff1673ffffffffffffffffffffffffffffffffffffffff1681526020019081526020015f205f9054906101000a900473ffffffffffffffffffffffffffffffffffffffff1673ffffffffffffffffffffffffffffffffffffffff1603611a3f573373ffffffffffffffffffffffffffffffffffffffff168473ffffffffffffffffffffffffffffffffffffffff1614806117a957505f73ffffffffffffffffffffffffffffffffffffffff168473ffffffffffffffffffffffffffffffffffffffff16145b806117fe575060095f3373ffffffffffffffffffffffffffffffffffffffff1673ffffffffffffffffffffffffffffffffffffffff1681526020019081526020015f206003015f9054906101000a900460ff16155b15611826575f8054906101000a900473ffffffffffffffffffffffffffffffffffffffff1693505b83600a5f3373ffffffffffffffffffffffffffffffffffffffff1673ffffffffffffffffffffffffffffffffffffffff1681526020019081526020015f205f6101000a81548173ffffffffffffffffffffffffffffffffffffffff021916908373ffffffffffffffffffffffffffffffffffffffff1602179055505f8054906101000a900473ffffffffffffffffffffffffffffffffffffffff1673ffffffffffffffffffffffffffffffffffffffff16600a5f3373ffffffffffffffffffffffffffffffffffffffff1673ffffffffffffffffffffffffffffffffffffffff1681526020019081526020015f205f9054906101000a900473ffffffffffffffffffffffffffffffffffffffff1673ffffffffffffffffffffffffffffffffffffffff160361196c578060015f82825461196091906123e1565b92505081905550611a37565b8060095f600a5f3373ffffffffffffffffffffffffffffffffffffffff1673ffffffffffffffffffffffffffffffffffffffff1681526020019081526020015f205f9054906101000a900473ffffffffffffffffffffffffffffffffffffffff1673ffffffffffffffffffffffffffffffffffffffff1673ffffffffffffffffffffffffffffffffffffffff1681526020019081526020015f206002015f828254611a1791906123e1565b925050819055508060075f828254611a2f91906123e1565b925050819055505b426008819055505b50505050505050565b60055481565b670de0b6b3a7640000811015611a99576040517f08c379a0000000000000000000000000000000000000000000000000000000008152600401611a9090612b27565b60405180910390fd5b60035f3373ffffffffffffffffffffffffffffffffffffffff1673ffffffffffffffffffffffffffffffffffffffff1681526020019081526020015f205f0154811115611b1b576040517f08c379a0000000000000000000000000000000000000000000000000000000008152600401611b1290612b8f565b60405180910390fd5b62093a8060035f3373ffffffffffffffffffffffffffffffffffffffff1673ffffffffffffffffffffffffffffffffffffffff1681526020019081526020015f2060010154611b6a91906123e1565b421015611bac576040517f08c379a0000000000000000000000000000000000000000000000000000000008152600401611ba390612bf7565b60405180910390fd5b80611bd347600154600754600554611bc491906123e1565b611bce91906123e1565b611dc8565b1015611c14576040517f08c379a0000000000000000000000000000000000000000000000000000000008152600401611c0b90612c5f565b60405180910390fd5b8060035f3373ffffffffffffffffffffffffffffffffffffffff1673ffffffffffffffffffffffffffffffffffffffff1681526020019081526020015f205f015f828254611c629190612506565b925050819055508060045f828254611c7a9190612506565b925050819055503373ffffffffffffffffffffffffffffffffffffffff166108fc8290811502906040515f60405180830381858888f19350505050158015611cc4573d5f803e3d5ffd5b5050565b5f8054906101000a900473ffffffffffffffffffffffffffffffffffffffff1673ffffffffffffffffffffffffffffffffffffffff163373ffffffffffffffffffffffffffffffffffffffff1614611d55576040517f08c379a0000000000000000000000000000000000000000000000000000000008152600401611d4c90612cc7565b60405180910390fd5b5f60015490505f6001819055505f8054906101000a900473ffffffffffffffffffffffffffffffffffffffff1673ffffffffffffffffffffffffffffffffffffffff166108fc8290811502906040515f60405180830381858888f19350505050158015611dc4573d5f803e3d5ffd5b5050565b5f82821115611dda57611dd9612ce5565b5b8183611de69190612506565b905092915050565b5f808303611dfe575f9050611e2d565b5f8284611e0b9190612711565b9050828482611e1a9190612441565b14611e2857611e27612ce5565b5b809150505b92915050565b5f808211611e4457611e43612ce5565b5b5f8284611e519190612441565b90508091505092915050565b5f63040000008263ffffffff161115611e78575f9050611f5b565b63010000008263ffffffff1610611e9257600a9050611f5b565b624000008263ffffffff1610611eab5760099050611f5b565b621000008263ffffffff1610611ec45760089050611f5b565b620400008263ffffffff1610611edd5760079050611f5b565b620100008263ffffffff1610611ef65760069050611f5b565b6140008263ffffffff1610611f0e5760059050611f5b565b6110008263ffffffff1610611f265760049050611f5b565b6104008263ffffffff1610611f3e5760039050611f5b565b6101008263ffffffff1610611f565760029050611f5b565b600190505b919050565b5f808203611f70575f9050612028565b600a8203611f815760059050612028565b60098203611f925760149050612028565b60088203611fa35760509050612028565b60078203611fb5576101409050612028565b60068203611fc7576104b09050612028565b60058203611fd9576112c09050612028565b60048203611feb57614e209050612028565b60038203611ffe57620186a09050612028565b60028203612011576207a1209050612028565b6001820361202457621e84809050612028565b5f90505b919050565b5080545f8255905f5260205f2090810190612048919061206c565b50565b5080545f8255600202905f5260205f209081019061206991906120ab565b50565b5b808211156120a7575f8082015f6101000a81549063ffffffff02191690555f820160046101000a81549060ff02191690555060010161206d565b5090565b5b80821115612109575f8082015f9055600182015f6101000a81549060ff02191690556001820160016101000a8154907effffffffffffffffffffffffffffffffffffffffffffffffffffffffffffff0219169055506002016120ac565b5090565b5f73ffffffffffffffffffffffffffffffffffffffff82169050919050565b5f6121368261210d565b9050919050565b6121468161212c565b82525050565b5f60208201905061215f5f83018461213d565b92915050565b5f819050919050565b61217781612165565b82525050565b5f6020820190506121905f83018461216e565b92915050565b5f80fd5b5f61ffff82169050919050565b6121b08161219a565b81146121ba575f80fd5b50565b5f813590506121cb816121a7565b92915050565b5f60ff82169050919050565b6121e6816121d1565b81146121f0575f80fd5b50565b5f81359050612201816121dd565b92915050565b5f7cffffffffffffffffffffffffffffffffffffffffffffffffffffffffff82169050919050565b61223881612207565b8114612242575f80fd5b50565b5f813590506122538161222f565b92915050565b6122628161212c565b811461226c575f80fd5b50565b5f8135905061227d81612259565b92915050565b5f805f806080858703121561229b5761229a612196565b5b5f6122a8878288016121bd565b94505060206122b9878288016121f3565b93505060406122ca87828801612245565b92505060606122db8782880161226f565b91505092959194509250565b6122f081612165565b81146122fa575f80fd5b50565b5f8135905061230b816122e7565b92915050565b5f6020828403121561232657612325612196565b5b5f612333848285016122fd565b91505092915050565b5f82825260208201905092915050565b7f596f75206d757374206265206120696e766573746f72000000000000000000005f82015250565b5f61238060168361233c565b915061238b8261234c565b602082019050919050565b5f6020820190508181035f8301526123ad81612374565b9050919050565b7f4e487b71000000000000000000000000000000000000000000000000000000005f52601160045260245ffd5b5f6123eb82612165565b91506123f683612165565b925082820190508082111561240e5761240d6123b4565b5b92915050565b7f4e487b71000000000000000000000000000000000000000000000000000000005f52601260045260245ffd5b5f61244b82612165565b915061245683612165565b92508261246657612465612414565b5b828204905092915050565b7f4e487b71000000000000000000000000000000000000000000000000000000005f52603260045260245ffd5b7f4e6f7420656e6f7567682070726f66697420746f2077697468647261772100005f82015250565b5f6124d2601e8361233c565b91506124dd8261249e565b602082019050919050565b5f6020820190508181035f8301526124ff816124c6565b9050919050565b5f61251082612165565b915061251b83612165565b9250828203905081811115612533576125326123b4565b5b92915050565b7f496e766573746d656e7420616d6f756e7420626574657765656e203120616e645f8201527f2031303030000000000000000000000000000000000000000000000000000000602082015250565b5f61259360258361233c565b915061259e82612539565b604082019050919050565b5f6020820190508181035f8301526125c081612587565b9050919050565b7f596f7520646f6e2774206861766520756e64726177206c6f74746572792074695f8201527f636b657473000000000000000000000000000000000000000000000000000000602082015250565b5f61262160258361233c565b915061262c826125c7565b604082019050919050565b5f6020820190508181035f83015261264e81612615565b9050919050565b7f49742773206e6f742074696d65000000000000000000000000000000000000005f82015250565b5f612689600d8361233c565b915061269482612655565b602082019050919050565b5f6020820190508181035f8301526126b68161267d565b9050919050565b5f819050919050565b5f819050919050565b6126e06126db826126bd565b6126c6565b82525050565b5f6126f182856126cf565b60208201915061270182846126cf565b6020820191508190509392505050565b5f61271b82612165565b915061272683612165565b925082820261273481612165565b9150828204841483151761274b5761274a6123b4565b5b5092915050565b7f427579206174206c65617374206f6e65206567670000000000000000000000005f82015250565b5f61278660148361233c565b915061279182612752565b602082019050919050565b5f6020820190508181035f8301526127b38161277a565b9050919050565b7f4d756c7469706c6573206265747765656e203120616e642031303000000000005f82015250565b5f6127ee601b8361233c565b91506127f9826127ba565b602082019050919050565b5f6020820190508181035f83015261281b816127e2565b9050919050565b7f4e756d626572206f662065676773206265747765656e203120616e64203130305f82015250565b5f61285660208361233c565b915061286182612822565b602082019050919050565b5f6020820190508181035f8301526128838161284a565b9050919050565b5f6128948261219a565b915061289f8361219a565b92508282026128ad8161219a565b91508082146128bf576128be6123b4565b5b5092915050565b7f496e76616c6964206461746100000000000000000000000000000000000000005f82015250565b5f6128fa600c8361233c565b9150612905826128c6565b602082019050919050565b5f6020820190508181035f830152612927816128ee565b9050919050565b5f61293882612207565b91507cffffffffffffffffffffffffffffffffffffffffffffffffffffffffff8203612967576129666123b4565b5b600182019050919050565b5f819050919050565b61298c61298782612165565b612972565b82525050565b5f61299c8261210d565b9050919050565b5f8160601b9050919050565b5f6129b9826129a3565b9050919050565b5f6129ca826129af565b9050919050565b6129e26129dd82612992565b6129c0565b82525050565b5f6129f2826129af565b9050919050565b612a0a612a058261212c565b6129e8565b82525050565b5f8160181b9050919050565b5f612a2682612a10565b9050919050565b612a3e612a3982612207565b612a1c565b82525050565b5f612a4f828761297b565b602082019150612a5f82866129d1565b601482019150612a6f82856129f9565b601482019150612a7f8284612a2d565b601d8201915081905095945050505050565b7f4d696e696d756d20696e766573746d656e7420616d6f756e74206973207265715f8201527f75697265642c6974277320736d616c6c6572207468616e20746865206d696e6960208201527f6d756d206465706f736974000000000000000000000000000000000000000000604082015250565b5f612b11604b8361233c565b9150612b1c82612a91565b606082019050919050565b5f6020820190508181035f830152612b3e81612b05565b9050919050565b7f4e6f7420656e6f7567682066756e6420746f20776974686472617721000000005f82015250565b5f612b79601c8361233c565b9150612b8482612b45565b602082019050919050565b5f6020820190508181035f830152612ba681612b6d565b9050919050565b7f43616e6e6f74207769746864726177206166746572206f6e65207765656b21005f82015250565b5f612be1601f8361233c565b9150612bec82612bad565b602082019050919050565b5f6020820190508181035f830152612c0e81612bd5565b9050919050565b7f496e73756666696369656e742066756e6420746f2077697468647261772100005f82015250565b5f612c49601e8361233c565b9150612c5482612c15565b602082019050919050565b5f6020820190508181035f830152612c7681612c3d565b9050919050565b7f596f75206d7573742062652074686520646576656c6f706572000000000000005f82015250565b5f612cb160198361233c565b9150612cbc82612c7d565b602082019050919050565b5f6020820190508181035f830152612cde81612ca5565b9050919050565b7f4e487b71000000000000000000000000000000000000000000000000000000005f52600160045260245ffdfea264697066735822122057b8b18fc73283b99d8f691d6759ccca0364bda641a8afa00e3d154fb2f8d20064736f6c634300081a0033",
					"opcodes": "PUSH1 0x80 PUSH1 0x40 MSTORE CALLVALUE DUP1 ISZERO PUSH1 0xE JUMPI PUSH0 DUP1 REVERT JUMPDEST POP CALLER PUSH0 DUP1 PUSH2 0x100 EXP DUP2 SLOAD DUP2 PUSH20 0xFFFFFFFFFFFFFFFFFFFFFFFFFFFFFFFFFFFFFFFF MUL NOT AND SWAP1 DUP4 PUSH20 0xFFFFFFFFFFFFFFFFFFFFFFFFFFFFFFFFFFFFFFFF AND MUL OR SWAP1 SSTORE POP TIMESTAMP PUSH1 0x6 DUP2 SWAP1 SSTORE POP TIMESTAMP PUSH1 0x8 DUP2 SWAP1 SSTORE POP PUSH2 0x2D48 DUP1 PUSH2 0x69 PUSH0 CODECOPY PUSH0 RETURN INVALID PUSH1 0x80 PUSH1 0x40 MSTORE PUSH1 0x4 CALLDATASIZE LT PUSH2 0x9B JUMPI PUSH0 CALLDATALOAD PUSH1 0xE0 SHR DUP1 PUSH4 0xA659F4DC GT PUSH2 0x63 JUMPI DUP1 PUSH4 0xA659F4DC EQ PUSH2 0x115 JUMPI DUP1 PUSH4 0xB1C617FF EQ PUSH2 0x13F JUMPI DUP1 PUSH4 0xC9EA0299 EQ PUSH2 0x169 JUMPI DUP1 PUSH4 0xCA6AAE29 EQ PUSH2 0x185 JUMPI DUP1 PUSH4 0xDD5F6F4D EQ PUSH2 0x1AF JUMPI DUP1 PUSH4 0xF4E79B5B EQ PUSH2 0x1D7 JUMPI PUSH2 0x9B JUMP JUMPDEST DUP1 PUSH4 0x12DB1357 EQ PUSH2 0x9F JUMPI DUP1 PUSH4 0x22629256 EQ PUSH2 0xB5 JUMPI DUP1 PUSH4 0x49821332 EQ PUSH2 0xCB JUMPI DUP1 PUSH4 0x7DA384FD EQ PUSH2 0xD5 JUMPI DUP1 PUSH4 0x89A4C1A0 EQ PUSH2 0xEB JUMPI JUMPDEST PUSH0 DUP1 REVERT JUMPDEST CALLVALUE DUP1 ISZERO PUSH2 0xAA JUMPI PUSH0 DUP1 REVERT JUMPDEST POP PUSH2 0xB3 PUSH2 0x1ED JUMP JUMPDEST STOP JUMPDEST CALLVALUE DUP1 ISZERO PUSH2 0xC0 JUMPI PUSH0 DUP1 REVERT JUMPDEST POP PUSH2 0xC9 PUSH2 0x573 JUMP JUMPDEST STOP JUMPDEST PUSH2 0xD3 PUSH2 0x6E5 JUMP JUMPDEST STOP JUMPDEST CALLVALUE DUP1 ISZERO PUSH2 0xE0 JUMPI PUSH0 DUP1 REVERT JUMPDEST POP PUSH2 0xE9 PUSH2 0x93E JUMP JUMPDEST STOP JUMPDEST CALLVALUE DUP1 ISZERO PUSH2 0xF6 JUMPI PUSH0 DUP1 REVERT JUMPDEST POP PUSH2 0xFF PUSH2 0x1295 JUMP JUMPDEST PUSH1 0x40 MLOAD PUSH2 0x10C SWAP2 SWAP1 PUSH2 0x214C JUMP JUMPDEST PUSH1 0x40 MLOAD DUP1 SWAP2 SUB SWAP1 RETURN JUMPDEST CALLVALUE DUP1 ISZERO PUSH2 0x120 JUMPI PUSH0 DUP1 REVERT JUMPDEST POP PUSH2 0x129 PUSH2 0x12B8 JUMP JUMPDEST PUSH1 0x40 MLOAD PUSH2 0x136 SWAP2 SWAP1 PUSH2 0x217D JUMP JUMPDEST PUSH1 0x40 MLOAD DUP1 SWAP2 SUB SWAP1 RETURN JUMPDEST CALLVALUE DUP1 ISZERO PUSH2 0x14A JUMPI PUSH0 DUP1 REVERT JUMPDEST POP PUSH2 0x153 PUSH2 0x12BE JUMP JUMPDEST PUSH1 0x40 MLOAD PUSH2 0x160 SWAP2 SWAP1 PUSH2 0x217D JUMP JUMPDEST PUSH1 0x40 MLOAD DUP1 SWAP2 SUB SWAP1 RETURN JUMPDEST PUSH2 0x183 PUSH1 0x4 DUP1 CALLDATASIZE SUB DUP2 ADD SWAP1 PUSH2 0x17E SWAP2 SWAP1 PUSH2 0x2283 JUMP JUMPDEST PUSH2 0x12C4 JUMP JUMPDEST STOP JUMPDEST CALLVALUE DUP1 ISZERO PUSH2 0x190 JUMPI PUSH0 DUP1 REVERT JUMPDEST POP PUSH2 0x199 PUSH2 0x1A48 JUMP JUMPDEST PUSH1 0x40 MLOAD PUSH2 0x1A6 SWAP2 SWAP1 PUSH2 0x217D JUMP JUMPDEST PUSH1 0x40 MLOAD DUP1 SWAP2 SUB SWAP1 RETURN JUMPDEST CALLVALUE DUP1 ISZERO PUSH2 0x1BA JUMPI PUSH0 DUP1 REVERT JUMPDEST POP PUSH2 0x1D5 PUSH1 0x4 DUP1 CALLDATASIZE SUB DUP2 ADD SWAP1 PUSH2 0x1D0 SWAP2 SWAP1 PUSH2 0x2311 JUMP JUMPDEST PUSH2 0x1A4E JUMP JUMPDEST STOP JUMPDEST CALLVALUE DUP1 ISZERO PUSH2 0x1E2 JUMPI PUSH0 DUP1 REVERT JUMPDEST POP PUSH2 0x1EB PUSH2 0x1CC8 JUMP JUMPDEST STOP JUMPDEST PUSH8 0xDE0B6B3A7640000 PUSH1 0x3 PUSH0 CALLER PUSH20 0xFFFFFFFFFFFFFFFFFFFFFFFFFFFFFFFFFFFFFFFF AND PUSH20 0xFFFFFFFFFFFFFFFFFFFFFFFFFFFFFFFFFFFFFFFF AND DUP2 MSTORE PUSH1 0x20 ADD SWAP1 DUP2 MSTORE PUSH1 0x20 ADD PUSH0 KECCAK256 PUSH0 ADD SLOAD LT ISZERO DUP1 PUSH2 0x28D JUMPI POP PUSH0 DUP1 SLOAD SWAP1 PUSH2 0x100 EXP SWAP1 DIV PUSH20 0xFFFFFFFFFFFFFFFFFFFFFFFFFFFFFFFFFFFFFFFF AND PUSH20 0xFFFFFFFFFFFFFFFFFFFFFFFFFFFFFFFFFFFFFFFF AND CALLER PUSH20 0xFFFFFFFFFFFFFFFFFFFFFFFFFFFFFFFFFFFFFFFF AND EQ JUMPDEST PUSH2 0x2CC JUMPI PUSH1 0x40 MLOAD PUSH32 0x8C379A000000000000000000000000000000000000000000000000000000000 DUP2 MSTORE PUSH1 0x4 ADD PUSH2 0x2C3 SWAP1 PUSH2 0x2396 JUMP JUMPDEST PUSH1 0x40 MLOAD DUP1 SWAP2 SUB SWAP1 REVERT JUMPDEST PUSH0 PUSH1 0x5 SLOAD SWAP1 POP PUSH0 DUP1 PUSH2 0x2FA SELFBALANCE PUSH1 0x1 SLOAD PUSH1 0x7 SLOAD PUSH1 0x5 SLOAD PUSH2 0x2EB SWAP2 SWAP1 PUSH2 0x23E1 JUMP JUMPDEST PUSH2 0x2F5 SWAP2 SWAP1 PUSH2 0x23E1 JUMP JUMPDEST PUSH2 0x1DC8 JUMP JUMPDEST SWAP1 POP PUSH10 0x21E19E0C9BAB2400000 DUP2 LT PUSH2 0x342 JUMPI PUSH1 0xC8 DUP2 PUSH2 0x31A SWAP2 SWAP1 PUSH2 0x2441 JUMP JUMPDEST DUP4 PUSH2 0x325 SWAP2 SWAP1 PUSH2 0x23E1 JUMP JUMPDEST SWAP3 POP PUSH1 0xC8 DUP2 PUSH2 0x334 SWAP2 SWAP1 PUSH2 0x2441 JUMP JUMPDEST DUP3 PUSH2 0x33F SWAP2 SWAP1 PUSH2 0x23E1 JUMP JUMPDEST SWAP2 POP JUMPDEST PUSH0 PUSH1 0x5 DUP2 SWAP1 SSTORE POP PUSH0 JUMPDEST PUSH1 0x2 DUP1 SLOAD SWAP1 POP DUP2 LT ISZERO PUSH2 0x501 JUMPI PUSH8 0xDE0B6B3A7640000 PUSH1 0x3 PUSH0 PUSH1 0x2 DUP5 DUP2 SLOAD DUP2 LT PUSH2 0x378 JUMPI PUSH2 0x377 PUSH2 0x2471 JUMP JUMPDEST JUMPDEST SWAP1 PUSH0 MSTORE PUSH1 0x20 PUSH0 KECCAK256 ADD PUSH0 SWAP1 SLOAD SWAP1 PUSH2 0x100 EXP SWAP1 DIV PUSH20 0xFFFFFFFFFFFFFFFFFFFFFFFFFFFFFFFFFFFFFFFF AND PUSH20 0xFFFFFFFFFFFFFFFFFFFFFFFFFFFFFFFFFFFFFFFF AND PUSH20 0xFFFFFFFFFFFFFFFFFFFFFFFFFFFFFFFFFFFFFFFF AND DUP2 MSTORE PUSH1 0x20 ADD SWAP1 DUP2 MSTORE PUSH1 0x20 ADD PUSH0 KECCAK256 PUSH0 ADD SLOAD LT PUSH2 0x4F4 JUMPI PUSH0 PUSH2 0x471 PUSH2 0x469 PUSH1 0x3 PUSH0 PUSH1 0x2 DUP7 DUP2 SLOAD DUP2 LT PUSH2 0x3FF JUMPI PUSH2 0x3FE PUSH2 0x2471 JUMP JUMPDEST JUMPDEST SWAP1 PUSH0 MSTORE PUSH1 0x20 PUSH0 KECCAK256 ADD PUSH0 SWAP1 SLOAD SWAP1 PUSH2 0x100 EXP SWAP1 DIV PUSH20 0xFFFFFFFFFFFFFFFFFFFFFFFFFFFFFFFFFFFFFFFF AND PUSH20 0xFFFFFFFFFFFFFFFFFFFFFFFFFFFFFFFFFFFFFFFF AND PUSH20 0xFFFFFFFFFFFFFFFFFFFFFFFFFFFFFFFFFFFFFFFF AND DUP2 MSTORE PUSH1 0x20 ADD SWAP1 DUP2 MSTORE PUSH1 0x20 ADD PUSH0 KECCAK256 PUSH0 ADD SLOAD DUP8 PUSH2 0x1DEE JUMP JUMPDEST PUSH1 0x4 SLOAD PUSH2 0x1E33 JUMP JUMPDEST SWAP1 POP PUSH1 0x2 DUP3 DUP2 SLOAD DUP2 LT PUSH2 0x487 JUMPI PUSH2 0x486 PUSH2 0x2471 JUMP JUMPDEST JUMPDEST SWAP1 PUSH0 MSTORE PUSH1 0x20 PUSH0 KECCAK256 ADD PUSH0 SWAP1 SLOAD SWAP1 PUSH2 0x100 EXP SWAP1 DIV PUSH20 0xFFFFFFFFFFFFFFFFFFFFFFFFFFFFFFFFFFFFFFFF AND PUSH20 0xFFFFFFFFFFFFFFFFFFFFFFFFFFFFFFFFFFFFFFFF AND PUSH2 0x8FC DUP3 SWAP1 DUP2 ISZERO MUL SWAP1 PUSH1 0x40 MLOAD PUSH0 PUSH1 0x40 MLOAD DUP1 DUP4 SUB DUP2 DUP6 DUP9 DUP9 CALL SWAP4 POP POP POP POP ISZERO DUP1 ISZERO PUSH2 0x4F1 JUMPI RETURNDATASIZE PUSH0 DUP1 RETURNDATACOPY RETURNDATASIZE PUSH0 REVERT JUMPDEST POP POP JUMPDEST DUP1 DUP1 PUSH1 0x1 ADD SWAP2 POP POP PUSH2 0x34B JUMP JUMPDEST POP PUSH0 DUP3 GT ISZERO PUSH2 0x56E JUMPI PUSH0 DUP1 SLOAD SWAP1 PUSH2 0x100 EXP SWAP1 DIV PUSH20 0xFFFFFFFFFFFFFFFFFFFFFFFFFFFFFFFFFFFFFFFF AND PUSH20 0xFFFFFFFFFFFFFFFFFFFFFFFFFFFFFFFFFFFFFFFF AND PUSH2 0x8FC DUP4 SWAP1 DUP2 ISZERO MUL SWAP1 PUSH1 0x40 MLOAD PUSH0 PUSH1 0x40 MLOAD DUP1 DUP4 SUB DUP2 DUP6 DUP9 DUP9 CALL SWAP4 POP POP POP POP ISZERO DUP1 ISZERO PUSH2 0x56C JUMPI RETURNDATASIZE PUSH0 DUP1 RETURNDATACOPY RETURNDATASIZE PUSH0 REVERT JUMPDEST POP JUMPDEST POP POP POP JUMP JUMPDEST PUSH7 0x2386F26FC10000 PUSH1 0x9 PUSH0 CALLER PUSH20 0xFFFFFFFFFFFFFFFFFFFFFFFFFFFFFFFFFFFFFFFF AND PUSH20 0xFFFFFFFFFFFFFFFFFFFFFFFFFFFFFFFFFFFFFFFF AND DUP2 MSTORE PUSH1 0x20 ADD SWAP1 DUP2 MSTORE PUSH1 0x20 ADD PUSH0 KECCAK256 PUSH1 0x2 ADD SLOAD LT ISZERO PUSH2 0x5FD JUMPI PUSH1 0x40 MLOAD PUSH32 0x8C379A000000000000000000000000000000000000000000000000000000000 DUP2 MSTORE PUSH1 0x4 ADD PUSH2 0x5F4 SWAP1 PUSH2 0x24E8 JUMP JUMPDEST PUSH1 0x40 MLOAD DUP1 SWAP2 SUB SWAP1 REVERT JUMPDEST PUSH0 PUSH1 0x9 PUSH0 CALLER PUSH20 0xFFFFFFFFFFFFFFFFFFFFFFFFFFFFFFFFFFFFFFFF AND PUSH20 0xFFFFFFFFFFFFFFFFFFFFFFFFFFFFFFFFFFFFFFFF AND DUP2 MSTORE PUSH1 0x20 ADD SWAP1 DUP2 MSTORE PUSH1 0x20 ADD PUSH0 KECCAK256 PUSH1 0x2 ADD SLOAD SWAP1 POP PUSH0 PUSH1 0x9 PUSH0 CALLER PUSH20 0xFFFFFFFFFFFFFFFFFFFFFFFFFFFFFFFFFFFFFFFF AND PUSH20 0xFFFFFFFFFFFFFFFFFFFFFFFFFFFFFFFFFFFFFFFF AND DUP2 MSTORE PUSH1 0x20 ADD SWAP1 DUP2 MSTORE PUSH1 0x20 ADD PUSH0 KECCAK256 PUSH1 0x2 ADD DUP2 SWAP1 SSTORE POP DUP1 PUSH1 0x7 PUSH0 DUP3 DUP3 SLOAD PUSH2 0x697 SWAP2 SWAP1 PUSH2 0x2506 JUMP JUMPDEST SWAP3 POP POP DUP2 SWAP1 SSTORE POP CALLER PUSH20 0xFFFFFFFFFFFFFFFFFFFFFFFFFFFFFFFFFFFFFFFF AND PUSH2 0x8FC DUP3 SWAP1 DUP2 ISZERO MUL SWAP1 PUSH1 0x40 MLOAD PUSH0 PUSH1 0x40 MLOAD DUP1 DUP4 SUB DUP2 DUP6 DUP9 DUP9 CALL SWAP4 POP POP POP POP ISZERO DUP1 ISZERO PUSH2 0x6E1 JUMPI RETURNDATASIZE PUSH0 DUP1 RETURNDATACOPY RETURNDATASIZE PUSH0 REVERT JUMPDEST POP POP JUMP JUMPDEST PUSH8 0xDE0B6B3A7640000 CALLVALUE LT ISZERO DUP1 ISZERO PUSH2 0x706 JUMPI POP PUSH9 0x3635C9ADC5DEA00000 CALLVALUE GT ISZERO JUMPDEST PUSH2 0x745 JUMPI PUSH1 0x40 MLOAD PUSH32 0x8C379A000000000000000000000000000000000000000000000000000000000 DUP2 MSTORE PUSH1 0x4 ADD PUSH2 0x73C SWAP1 PUSH2 0x25A9 JUMP JUMPDEST PUSH1 0x40 MLOAD DUP1 SWAP2 SUB SWAP1 REVERT JUMPDEST PUSH10 0x21E19E0C9BAB2400000 PUSH2 0x776 SELFBALANCE PUSH1 0x1 SLOAD PUSH1 0x7 SLOAD PUSH1 0x5 SLOAD PUSH2 0x767 SWAP2 SWAP1 PUSH2 0x23E1 JUMP JUMPDEST PUSH2 0x771 SWAP2 SWAP1 PUSH2 0x23E1 JUMP JUMPDEST PUSH2 0x1DC8 JUMP JUMPDEST GT ISZERO PUSH2 0x780 JUMPI PUSH0 DUP1 REVERT JUMPDEST CALLVALUE PUSH1 0x4 PUSH0 DUP3 DUP3 SLOAD PUSH2 0x791 SWAP2 SWAP1 PUSH2 0x23E1 JUMP JUMPDEST SWAP3 POP POP DUP2 SWAP1 SSTORE POP CALLVALUE PUSH1 0x3 PUSH0 CALLER PUSH20 0xFFFFFFFFFFFFFFFFFFFFFFFFFFFFFFFFFFFFFFFF AND PUSH20 0xFFFFFFFFFFFFFFFFFFFFFFFFFFFFFFFFFFFFFFFF AND DUP2 MSTORE PUSH1 0x20 ADD SWAP1 DUP2 MSTORE PUSH1 0x20 ADD PUSH0 KECCAK256 PUSH0 ADD PUSH0 DUP3 DUP3 SLOAD PUSH2 0x7E6 SWAP2 SWAP1 PUSH2 0x23E1 JUMP JUMPDEST SWAP3 POP POP DUP2 SWAP1 SSTORE POP TIMESTAMP PUSH1 0x3 PUSH0 CALLER PUSH20 0xFFFFFFFFFFFFFFFFFFFFFFFFFFFFFFFFFFFFFFFF AND PUSH20 0xFFFFFFFFFFFFFFFFFFFFFFFFFFFFFFFFFFFFFFFF AND DUP2 MSTORE PUSH1 0x20 ADD SWAP1 DUP2 MSTORE PUSH1 0x20 ADD PUSH0 KECCAK256 PUSH1 0x1 ADD DUP2 SWAP1 SSTORE POP PUSH1 0x3 PUSH0 CALLER PUSH20 0xFFFFFFFFFFFFFFFFFFFFFFFFFFFFFFFFFFFFFFFF AND PUSH20 0xFFFFFFFFFFFFFFFFFFFFFFFFFFFFFFFFFFFFFFFF AND DUP2 MSTORE PUSH1 0x20 ADD SWAP1 DUP2 MSTORE PUSH1 0x20 ADD PUSH0 KECCAK256 PUSH1 0x2 ADD PUSH0 SWAP1 SLOAD SWAP1 PUSH2 0x100 EXP SWAP1 DIV PUSH1 0xFF AND PUSH2 0x93C JUMPI PUSH1 0x1 PUSH1 0x3 PUSH0 CALLER PUSH20 0xFFFFFFFFFFFFFFFFFFFFFFFFFFFFFFFFFFFFFFFF AND PUSH20 0xFFFFFFFFFFFFFFFFFFFFFFFFFFFFFFFFFFFFFFFF AND DUP2 MSTORE PUSH1 0x20 ADD SWAP1 DUP2 MSTORE PUSH1 0x20 ADD PUSH0 KECCAK256 PUSH1 0x2 ADD PUSH0 PUSH2 0x100 EXP DUP2 SLOAD DUP2 PUSH1 0xFF MUL NOT AND SWAP1 DUP4 ISZERO ISZERO MUL OR SWAP1 SSTORE POP PUSH1 0x2 CALLER SWAP1 DUP1 PUSH1 0x1 DUP2 SLOAD ADD DUP1 DUP3 SSTORE DUP1 SWAP2 POP POP PUSH1 0x1 SWAP1 SUB SWAP1 PUSH0 MSTORE PUSH1 0x20 PUSH0 KECCAK256 ADD PUSH0 SWAP1 SWAP2 SWAP1 SWAP2 SWAP1 SWAP2 PUSH2 0x100 EXP DUP2 SLOAD DUP2 PUSH20 0xFFFFFFFFFFFFFFFFFFFFFFFFFFFFFFFFFFFFFFFF MUL NOT AND SWAP1 DUP4 PUSH20 0xFFFFFFFFFFFFFFFFFFFFFFFFFFFFFFFFFFFFFFFF AND MUL OR SWAP1 SSTORE POP JUMPDEST JUMP JUMPDEST PUSH0 PUSH1 0x9 PUSH0 CALLER PUSH20 0xFFFFFFFFFFFFFFFFFFFFFFFFFFFFFFFFFFFFFFFF AND PUSH20 0xFFFFFFFFFFFFFFFFFFFFFFFFFFFFFFFFFFFFFFFF AND DUP2 MSTORE PUSH1 0x20 ADD SWAP1 DUP2 MSTORE PUSH1 0x20 ADD PUSH0 KECCAK256 PUSH0 ADD DUP1 SLOAD SWAP1 POP GT PUSH2 0x9C2 JUMPI PUSH1 0x40 MLOAD PUSH32 0x8C379A000000000000000000000000000000000000000000000000000000000 DUP2 MSTORE PUSH1 0x4 ADD PUSH2 0x9B9 SWAP1 PUSH2 0x2637 JUMP JUMPDEST PUSH1 0x40 MLOAD DUP1 SWAP2 SUB SWAP1 REVERT JUMPDEST PUSH1 0x9 PUSH0 CALLER PUSH20 0xFFFFFFFFFFFFFFFFFFFFFFFFFFFFFFFFFFFFFFFF AND PUSH20 0xFFFFFFFFFFFFFFFFFFFFFFFFFFFFFFFFFFFFFFFF AND DUP2 MSTORE PUSH1 0x20 ADD SWAP1 DUP2 MSTORE PUSH1 0x20 ADD PUSH0 KECCAK256 PUSH0 ADD PUSH1 0x1 PUSH1 0x9 PUSH0 CALLER PUSH20 0xFFFFFFFFFFFFFFFFFFFFFFFFFFFFFFFFFFFFFFFF AND PUSH20 0xFFFFFFFFFFFFFFFFFFFFFFFFFFFFFFFFFFFFFFFF AND DUP2 MSTORE PUSH1 0x20 ADD SWAP1 DUP2 MSTORE PUSH1 0x20 ADD PUSH0 KECCAK256 PUSH0 ADD DUP1 SLOAD SWAP1 POP PUSH2 0xA50 SWAP2 SWAP1 PUSH2 0x2506 JUMP JUMPDEST DUP2 SLOAD DUP2 LT PUSH2 0xA61 JUMPI PUSH2 0xA60 PUSH2 0x2471 JUMP JUMPDEST JUMPDEST SWAP1 PUSH0 MSTORE PUSH1 0x20 PUSH0 KECCAK256 SWAP1 PUSH1 0x2 MUL ADD PUSH1 0x1 ADD PUSH1 0x1 SWAP1 SLOAD SWAP1 PUSH2 0x100 EXP SWAP1 DIV PUSH31 0xFFFFFFFFFFFFFFFFFFFFFFFFFFFFFFFFFFFFFFFFFFFFFFFFFFFFFFFFFFFFFF AND PUSH31 0xFFFFFFFFFFFFFFFFFFFFFFFFFFFFFFFFFFFFFFFFFFFFFFFFFFFFFFFFFFFFFF AND NUMBER GT PUSH2 0xAFE JUMPI PUSH1 0x40 MLOAD PUSH32 0x8C379A000000000000000000000000000000000000000000000000000000000 DUP2 MSTORE PUSH1 0x4 ADD PUSH2 0xAF5 SWAP1 PUSH2 0x269F JUMP JUMPDEST PUSH1 0x40 MLOAD DUP1 SWAP2 SUB SWAP1 REVERT JUMPDEST PUSH0 PUSH1 0x9 PUSH0 CALLER PUSH20 0xFFFFFFFFFFFFFFFFFFFFFFFFFFFFFFFFFFFFFFFF AND PUSH20 0xFFFFFFFFFFFFFFFFFFFFFFFFFFFFFFFFFFFFFFFF AND DUP2 MSTORE PUSH1 0x20 ADD SWAP1 DUP2 MSTORE PUSH1 0x20 ADD PUSH0 KECCAK256 PUSH1 0x1 ADD DUP1 SLOAD SWAP1 POP GT ISZERO PUSH2 0xB95 JUMPI PUSH1 0x9 PUSH0 CALLER PUSH20 0xFFFFFFFFFFFFFFFFFFFFFFFFFFFFFFFFFFFFFFFF AND PUSH20 0xFFFFFFFFFFFFFFFFFFFFFFFFFFFFFFFFFFFFFFFF AND DUP2 MSTORE PUSH1 0x20 ADD SWAP1 DUP2 MSTORE PUSH1 0x20 ADD PUSH0 KECCAK256 PUSH1 0x1 ADD PUSH0 PUSH2 0xB94 SWAP2 SWAP1 PUSH2 0x202D JUMP JUMPDEST JUMPDEST PUSH0 DUP1 PUSH0 SWAP1 POP JUMPDEST PUSH1 0x9 PUSH0 CALLER PUSH20 0xFFFFFFFFFFFFFFFFFFFFFFFFFFFFFFFFFFFFFFFF AND PUSH20 0xFFFFFFFFFFFFFFFFFFFFFFFFFFFFFFFFFFFFFFFF AND DUP2 MSTORE PUSH1 0x20 ADD SWAP1 DUP2 MSTORE PUSH1 0x20 ADD PUSH0 KECCAK256 PUSH0 ADD DUP1 SLOAD SWAP1 POP DUP2 LT ISZERO PUSH2 0x1150 JUMPI PUSH0 PUSH1 0x9 PUSH0 CALLER PUSH20 0xFFFFFFFFFFFFFFFFFFFFFFFFFFFFFFFFFFFFFFFF AND PUSH20 0xFFFFFFFFFFFFFFFFFFFFFFFFFFFFFFFFFFFFFFFF AND DUP2 MSTORE PUSH1 0x20 ADD SWAP1 DUP2 MSTORE PUSH1 0x20 ADD PUSH0 KECCAK256 PUSH0 ADD DUP3 DUP2 SLOAD DUP2 LT PUSH2 0xC37 JUMPI PUSH2 0xC36 PUSH2 0x2471 JUMP JUMPDEST JUMPDEST SWAP1 PUSH0 MSTORE PUSH1 0x20 PUSH0 KECCAK256 SWAP1 PUSH1 0x2 MUL ADD PUSH1 0x1 ADD PUSH1 0x1 SWAP1 SLOAD SWAP1 PUSH2 0x100 EXP SWAP1 DIV PUSH31 0xFFFFFFFFFFFFFFFFFFFFFFFFFFFFFFFFFFFFFFFFFFFFFFFFFFFFFFFFFFFFFF AND PUSH31 0xFFFFFFFFFFFFFFFFFFFFFFFFFFFFFFFFFFFFFFFFFFFFFFFFFFFFFFFFFFFFFF AND BLOCKHASH PUSH0 SHR SUB ISZERO PUSH2 0x1143 JUMPI PUSH0 PUSH1 0x9 PUSH0 CALLER PUSH20 0xFFFFFFFFFFFFFFFFFFFFFFFFFFFFFFFFFFFFFFFF AND PUSH20 0xFFFFFFFFFFFFFFFFFFFFFFFFFFFFFFFFFFFFFFFF AND DUP2 MSTORE PUSH1 0x20 ADD SWAP1 DUP2 MSTORE PUSH1 0x20 ADD PUSH0 KECCAK256 PUSH0 ADD DUP3 DUP2 SLOAD DUP2 LT PUSH2 0xCEE JUMPI PUSH2 0xCED PUSH2 0x2471 JUMP JUMPDEST JUMPDEST SWAP1 PUSH0 MSTORE PUSH1 0x20 PUSH0 KECCAK256 SWAP1 PUSH1 0x2 MUL ADD PUSH0 ADD SLOAD PUSH1 0x9 PUSH0 CALLER PUSH20 0xFFFFFFFFFFFFFFFFFFFFFFFFFFFFFFFFFFFFFFFF AND PUSH20 0xFFFFFFFFFFFFFFFFFFFFFFFFFFFFFFFFFFFFFFFF AND DUP2 MSTORE PUSH1 0x20 ADD SWAP1 DUP2 MSTORE PUSH1 0x20 ADD PUSH0 KECCAK256 PUSH0 ADD DUP4 DUP2 SLOAD DUP2 LT PUSH2 0xD4E JUMPI PUSH2 0xD4D PUSH2 0x2471 JUMP JUMPDEST JUMPDEST SWAP1 PUSH0 MSTORE PUSH1 0x20 PUSH0 KECCAK256 SWAP1 PUSH1 0x2 MUL ADD PUSH1 0x1 ADD PUSH1 0x1 SWAP1 SLOAD SWAP1 PUSH2 0x100 EXP SWAP1 DIV PUSH31 0xFFFFFFFFFFFFFFFFFFFFFFFFFFFFFFFFFFFFFFFFFFFFFFFFFFFFFFFFFFFFFF AND PUSH31 0xFFFFFFFFFFFFFFFFFFFFFFFFFFFFFFFFFFFFFFFFFFFFFFFFFFFFFFFFFFFFFF AND BLOCKHASH PUSH1 0x40 MLOAD PUSH1 0x20 ADD PUSH2 0xDBC SWAP3 SWAP2 SWAP1 PUSH2 0x26E6 JUMP JUMPDEST PUSH1 0x40 MLOAD PUSH1 0x20 DUP2 DUP4 SUB SUB DUP2 MSTORE SWAP1 PUSH1 0x40 MSTORE DUP1 MLOAD SWAP1 PUSH1 0x20 ADD KECCAK256 PUSH1 0xE0 SHR SWAP1 POP PUSH0 PUSH2 0xDE1 DUP3 PUSH2 0x1E5D JUMP JUMPDEST SWAP1 POP PUSH0 DUP2 GT ISZERO PUSH2 0x1009 JUMPI PUSH0 PUSH7 0x470DE4DF820000 PUSH1 0x9 PUSH0 CALLER PUSH20 0xFFFFFFFFFFFFFFFFFFFFFFFFFFFFFFFFFFFFFFFF AND PUSH20 0xFFFFFFFFFFFFFFFFFFFFFFFFFFFFFFFFFFFFFFFF AND DUP2 MSTORE PUSH1 0x20 ADD SWAP1 DUP2 MSTORE PUSH1 0x20 ADD PUSH0 KECCAK256 PUSH0 ADD DUP6 DUP2 SLOAD DUP2 LT PUSH2 0xE45 JUMPI PUSH2 0xE44 PUSH2 0x2471 JUMP JUMPDEST JUMPDEST SWAP1 PUSH0 MSTORE PUSH1 0x20 PUSH0 KECCAK256 SWAP1 PUSH1 0x2 MUL ADD PUSH1 0x1 ADD PUSH0 SWAP1 SLOAD SWAP1 PUSH2 0x100 EXP SWAP1 DIV PUSH1 0xFF AND PUSH1 0xFF AND PUSH2 0xE6D DUP5 PUSH2 0x1F60 JUMP JUMPDEST PUSH2 0xE77 SWAP2 SWAP1 PUSH2 0x2711 JUMP JUMPDEST PUSH2 0xE81 SWAP2 SWAP1 PUSH2 0x2711 JUMP JUMPDEST SWAP1 POP DUP1 DUP6 PUSH2 0xE8F SWAP2 SWAP1 PUSH2 0x23E1 JUMP JUMPDEST SWAP5 POP PUSH0 PUSH1 0x40 MLOAD DUP1 PUSH1 0x80 ADD PUSH1 0x40 MSTORE DUP1 DUP6 PUSH4 0xFFFFFFFF AND DUP2 MSTORE PUSH1 0x20 ADD PUSH1 0x9 PUSH0 CALLER PUSH20 0xFFFFFFFFFFFFFFFFFFFFFFFFFFFFFFFFFFFFFFFF AND PUSH20 0xFFFFFFFFFFFFFFFFFFFFFFFFFFFFFFFFFFFFFFFF AND DUP2 MSTORE PUSH1 0x20 ADD SWAP1 DUP2 MSTORE PUSH1 0x20 ADD PUSH0 KECCAK256 PUSH0 ADD DUP8 DUP2 SLOAD DUP2 LT PUSH2 0xEFA JUMPI PUSH2 0xEF9 PUSH2 0x2471 JUMP JUMPDEST JUMPDEST SWAP1 PUSH0 MSTORE PUSH1 0x20 PUSH0 KECCAK256 SWAP1 PUSH1 0x2 MUL ADD PUSH1 0x1 ADD PUSH0 SWAP1 SLOAD SWAP1 PUSH2 0x100 EXP SWAP1 DIV PUSH1 0xFF AND PUSH1 0xFF AND DUP2 MSTORE PUSH1 0x20 ADD TIMESTAMP PUSH5 0xFFFFFFFFFF AND DUP2 MSTORE PUSH1 0x20 ADD CALLER PUSH20 0xFFFFFFFFFFFFFFFFFFFFFFFFFFFFFFFFFFFFFFFF AND DUP2 MSTORE POP SWAP1 POP PUSH1 0xB DUP2 SWAP1 DUP1 PUSH1 0x1 DUP2 SLOAD ADD DUP1 DUP3 SSTORE DUP1 SWAP2 POP POP PUSH1 0x1 SWAP1 SUB SWAP1 PUSH0 MSTORE PUSH1 0x20 PUSH0 KECCAK256 SWAP1 PUSH1 0x3 MUL ADD PUSH0 SWAP1 SWAP2 SWAP1 SWAP2 SWAP1 SWAP2 POP PUSH0 DUP3 ADD MLOAD DUP2 PUSH0 ADD PUSH0 PUSH2 0x100 EXP DUP2 SLOAD DUP2 PUSH4 0xFFFFFFFF MUL NOT AND SWAP1 DUP4 PUSH4 0xFFFFFFFF AND MUL OR SWAP1 SSTORE POP PUSH1 0x20 DUP3 ADD MLOAD DUP2 PUSH0 ADD PUSH1 0x4 PUSH2 0x100 EXP DUP2 SLOAD DUP2 PUSH1 0xFF MUL NOT AND SWAP1 DUP4 PUSH1 0xFF AND MUL OR SWAP1 SSTORE POP PUSH1 0x40 DUP3 ADD MLOAD DUP2 PUSH1 0x1 ADD SSTORE PUSH1 0x60 DUP3 ADD MLOAD DUP2 PUSH1 0x2 ADD PUSH0 PUSH2 0x100 EXP DUP2 SLOAD DUP2 PUSH20 0xFFFFFFFFFFFFFFFFFFFFFFFFFFFFFFFFFFFFFFFF MUL NOT AND SWAP1 DUP4 PUSH20 0xFFFFFFFFFFFFFFFFFFFFFFFFFFFFFFFFFFFFFFFF AND MUL OR SWAP1 SSTORE POP POP POP POP POP JUMPDEST PUSH0 PUSH1 0x40 MLOAD DUP1 PUSH1 0x40 ADD PUSH1 0x40 MSTORE DUP1 DUP5 PUSH4 0xFFFFFFFF AND DUP2 MSTORE PUSH1 0x20 ADD PUSH1 0x9 PUSH0 CALLER PUSH20 0xFFFFFFFFFFFFFFFFFFFFFFFFFFFFFFFFFFFFFFFF AND PUSH20 0xFFFFFFFFFFFFFFFFFFFFFFFFFFFFFFFFFFFFFFFF AND DUP2 MSTORE PUSH1 0x20 ADD SWAP1 DUP2 MSTORE PUSH1 0x20 ADD PUSH0 KECCAK256 PUSH0 ADD DUP7 DUP2 SLOAD DUP2 LT PUSH2 0x1072 JUMPI PUSH2 0x1071 PUSH2 0x2471 JUMP JUMPDEST JUMPDEST SWAP1 PUSH0 MSTORE PUSH1 0x20 PUSH0 KECCAK256 SWAP1 PUSH1 0x2 MUL ADD PUSH1 0x1 ADD PUSH0 SWAP1 SLOAD SWAP1 PUSH2 0x100 EXP SWAP1 DIV PUSH1 0xFF AND PUSH1 0xFF AND DUP2 MSTORE POP SWAP1 POP PUSH1 0x9 PUSH0 CALLER PUSH20 0xFFFFFFFFFFFFFFFFFFFFFFFFFFFFFFFFFFFFFFFF AND PUSH20 0xFFFFFFFFFFFFFFFFFFFFFFFFFFFFFFFFFFFFFFFF AND DUP2 MSTORE PUSH1 0x20 ADD SWAP1 DUP2 MSTORE PUSH1 0x20 ADD PUSH0 KECCAK256 PUSH1 0x1 ADD DUP2 SWAP1 DUP1 PUSH1 0x1 DUP2 SLOAD ADD DUP1 DUP3 SSTORE DUP1 SWAP2 POP POP PUSH1 0x1 SWAP1 SUB SWAP1 PUSH0 MSTORE PUSH1 0x20 PUSH0 KECCAK256 ADD PUSH0 SWAP1 SWAP2 SWAP1 SWAP2 SWAP1 SWAP2 POP PUSH0 DUP3 ADD MLOAD DUP2 PUSH0 ADD PUSH0 PUSH2 0x100 EXP DUP2 SLOAD DUP2 PUSH4 0xFFFFFFFF MUL NOT AND SWAP1 DUP4 PUSH4 0xFFFFFFFF AND MUL OR SWAP1 SSTORE POP PUSH1 0x20 DUP3 ADD MLOAD DUP2 PUSH0 ADD PUSH1 0x4 PUSH2 0x100 EXP DUP2 SLOAD DUP2 PUSH1 0xFF MUL NOT AND SWAP1 DUP4 PUSH1 0xFF AND MUL OR SWAP1 SSTORE POP POP POP POP POP POP JUMPDEST DUP1 DUP1 PUSH1 0x1 ADD SWAP2 POP POP PUSH2 0xB9B JUMP JUMPDEST POP PUSH1 0x9 PUSH0 CALLER PUSH20 0xFFFFFFFFFFFFFFFFFFFFFFFFFFFFFFFFFFFFFFFF AND PUSH20 0xFFFFFFFFFFFFFFFFFFFFFFFFFFFFFFFFFFFFFFFF AND DUP2 MSTORE PUSH1 0x20 ADD SWAP1 DUP2 MSTORE PUSH1 0x20 ADD PUSH0 KECCAK256 PUSH0 ADD PUSH0 PUSH2 0x119B SWAP2 SWAP1 PUSH2 0x204B JUMP JUMPDEST PUSH0 DUP2 GT ISZERO PUSH2 0x1292 JUMPI PUSH0 PUSH2 0x11DE PUSH2 0x11D7 PUSH2 0x11D0 SELFBALANCE PUSH1 0x1 SLOAD PUSH1 0x7 SLOAD PUSH1 0x5 SLOAD PUSH2 0x11C1 SWAP2 SWAP1 PUSH2 0x23E1 JUMP JUMPDEST PUSH2 0x11CB SWAP2 SWAP1 PUSH2 0x23E1 JUMP JUMPDEST PUSH2 0x1DC8 JUMP JUMPDEST PUSH1 0x46 PUSH2 0x1DEE JUMP JUMPDEST PUSH1 0x64 PUSH2 0x1E33 JUMP JUMPDEST SWAP1 POP DUP1 DUP3 GT ISZERO PUSH2 0x11EC JUMPI DUP1 SWAP2 POP JUMPDEST PUSH0 PUSH2 0x1202 PUSH2 0x11FB DUP5 PUSH1 0x5 PUSH2 0x1DEE JUMP JUMPDEST PUSH1 0x64 PUSH2 0x1E33 JUMP JUMPDEST SWAP1 POP DUP1 PUSH1 0x5 PUSH0 DUP3 DUP3 SLOAD PUSH2 0x1215 SWAP2 SWAP1 PUSH2 0x23E1 JUMP JUMPDEST SWAP3 POP POP DUP2 SWAP1 SSTORE POP DUP1 PUSH1 0x1 PUSH0 DUP3 DUP3 SLOAD PUSH2 0x122D SWAP2 SWAP1 PUSH2 0x23E1 JUMP JUMPDEST SWAP3 POP POP DUP2 SWAP1 SSTORE POP CALLER PUSH20 0xFFFFFFFFFFFFFFFFFFFFFFFFFFFFFFFFFFFFFFFF AND PUSH2 0x8FC PUSH1 0x2 DUP4 PUSH2 0x125B SWAP2 SWAP1 PUSH2 0x2711 JUMP JUMPDEST DUP6 PUSH2 0x1266 SWAP2 SWAP1 PUSH2 0x2506 JUMP JUMPDEST SWAP1 DUP2 ISZERO MUL SWAP1 PUSH1 0x40 MLOAD PUSH0 PUSH1 0x40 MLOAD DUP1 DUP4 SUB DUP2 DUP6 DUP9 DUP9 CALL SWAP4 POP POP POP POP ISZERO DUP1 ISZERO PUSH2 0x128E JUMPI RETURNDATASIZE PUSH0 DUP1 RETURNDATACOPY RETURNDATASIZE PUSH0 REVERT JUMPDEST POP POP POP JUMPDEST POP JUMP JUMPDEST PUSH0 DUP1 SLOAD SWAP1 PUSH2 0x100 EXP SWAP1 DIV PUSH20 0xFFFFFFFFFFFFFFFFFFFFFFFFFFFFFFFFFFFFFFFF AND DUP2 JUMP JUMPDEST PUSH1 0x4 SLOAD DUP2 JUMP JUMPDEST PUSH1 0x6 SLOAD DUP2 JUMP JUMPDEST PUSH7 0x470DE4DF820000 CALLVALUE LT ISZERO PUSH2 0x130E JUMPI PUSH1 0x40 MLOAD PUSH32 0x8C379A000000000000000000000000000000000000000000000000000000000 DUP2 MSTORE PUSH1 0x4 ADD PUSH2 0x1305 SWAP1 PUSH2 0x279C JUMP JUMPDEST PUSH1 0x40 MLOAD DUP1 SWAP2 SUB SWAP1 REVERT JUMPDEST PUSH1 0x1 DUP4 PUSH1 0xFF AND LT ISZERO DUP1 ISZERO PUSH2 0x1326 JUMPI POP PUSH1 0x64 DUP4 PUSH1 0xFF AND GT ISZERO JUMPDEST PUSH2 0x1365 JUMPI PUSH1 0x40 MLOAD PUSH32 0x8C379A000000000000000000000000000000000000000000000000000000000 DUP2 MSTORE PUSH1 0x4 ADD PUSH2 0x135C SWAP1 PUSH2 0x2804 JUMP JUMPDEST PUSH1 0x40 MLOAD DUP1 SWAP2 SUB SWAP1 REVERT JUMPDEST PUSH1 0x1 DUP5 PUSH2 0xFFFF AND LT ISZERO DUP1 ISZERO PUSH2 0x1380 JUMPI POP PUSH2 0x3E8 DUP5 PUSH2 0xFFFF AND GT ISZERO JUMPDEST PUSH2 0x13BF JUMPI PUSH1 0x40 MLOAD PUSH32 0x8C379A000000000000000000000000000000000000000000000000000000000 DUP2 MSTORE PUSH1 0x4 ADD PUSH2 0x13B6 SWAP1 PUSH2 0x286C JUMP JUMPDEST PUSH1 0x40 MLOAD DUP1 SWAP2 SUB SWAP1 REVERT JUMPDEST PUSH0 PUSH2 0x13D1 CALLVALUE PUSH7 0x470DE4DF820000 PUSH2 0x1E33 JUMP JUMPDEST SWAP1 POP DUP4 PUSH1 0xFF AND DUP6 PUSH2 0x13E2 SWAP2 SWAP1 PUSH2 0x288A JUMP JUMPDEST PUSH2 0xFFFF AND DUP2 EQ PUSH2 0x1427 JUMPI PUSH1 0x40 MLOAD PUSH32 0x8C379A000000000000000000000000000000000000000000000000000000000 DUP2 MSTORE PUSH1 0x4 ADD PUSH2 0x141E SWAP1 PUSH2 0x2910 JUMP JUMPDEST PUSH1 0x40 MLOAD DUP1 SWAP2 SUB SWAP1 REVERT JUMPDEST PUSH0 JUMPDEST DUP6 PUSH2 0xFFFF AND DUP2 LT ISZERO PUSH2 0x15AA JUMPI PUSH0 PUSH1 0x40 MLOAD DUP1 PUSH1 0x60 ADD PUSH1 0x40 MSTORE DUP1 TIMESTAMP COINBASE CALLER DUP10 DUP1 PUSH2 0x144F SWAP1 PUSH2 0x292E JUMP JUMPDEST SWAP11 POP PUSH1 0x40 MLOAD PUSH1 0x20 ADD PUSH2 0x1464 SWAP5 SWAP4 SWAP3 SWAP2 SWAP1 PUSH2 0x2A44 JUMP JUMPDEST PUSH1 0x40 MLOAD PUSH1 0x20 DUP2 DUP4 SUB SUB DUP2 MSTORE SWAP1 PUSH1 0x40 MSTORE DUP1 MLOAD SWAP1 PUSH1 0x20 ADD KECCAK256 DUP2 MSTORE PUSH1 0x20 ADD DUP8 PUSH1 0xFF AND DUP2 MSTORE PUSH1 0x20 ADD NUMBER PUSH31 0xFFFFFFFFFFFFFFFFFFFFFFFFFFFFFFFFFFFFFFFFFFFFFFFFFFFFFFFFFFFFFF AND DUP2 MSTORE POP SWAP1 POP PUSH1 0x9 PUSH0 CALLER PUSH20 0xFFFFFFFFFFFFFFFFFFFFFFFFFFFFFFFFFFFFFFFF AND PUSH20 0xFFFFFFFFFFFFFFFFFFFFFFFFFFFFFFFFFFFFFFFF AND DUP2 MSTORE PUSH1 0x20 ADD SWAP1 DUP2 MSTORE PUSH1 0x20 ADD PUSH0 KECCAK256 PUSH0 ADD DUP2 SWAP1 DUP1 PUSH1 0x1 DUP2 SLOAD ADD DUP1 DUP3 SSTORE DUP1 SWAP2 POP POP PUSH1 0x1 SWAP1 SUB SWAP1 PUSH0 MSTORE PUSH1 0x20 PUSH0 KECCAK256 SWAP1 PUSH1 0x2 MUL ADD PUSH0 SWAP1 SWAP2 SWAP1 SWAP2 SWAP1 SWAP2 POP PUSH0 DUP3 ADD MLOAD DUP2 PUSH0 ADD SSTORE PUSH1 0x20 DUP3 ADD MLOAD DUP2 PUSH1 0x1 ADD PUSH0 PUSH2 0x100 EXP DUP2 SLOAD DUP2 PUSH1 0xFF MUL NOT AND SWAP1 DUP4 PUSH1 0xFF AND MUL OR SWAP1 SSTORE POP PUSH1 0x40 DUP3 ADD MLOAD DUP2 PUSH1 0x1 ADD PUSH1 0x1 PUSH2 0x100 EXP DUP2 SLOAD DUP2 PUSH31 0xFFFFFFFFFFFFFFFFFFFFFFFFFFFFFFFFFFFFFFFFFFFFFFFFFFFFFFFFFFFFFF MUL NOT AND SWAP1 DUP4 PUSH31 0xFFFFFFFFFFFFFFFFFFFFFFFFFFFFFFFFFFFFFFFFFFFFFFFFFFFFFFFFFFFFFF AND MUL OR SWAP1 SSTORE POP POP POP POP DUP1 DUP1 PUSH1 0x1 ADD SWAP2 POP POP PUSH2 0x1429 JUMP JUMPDEST POP PUSH1 0x9 PUSH0 CALLER PUSH20 0xFFFFFFFFFFFFFFFFFFFFFFFFFFFFFFFFFFFFFFFF AND PUSH20 0xFFFFFFFFFFFFFFFFFFFFFFFFFFFFFFFFFFFFFFFF AND DUP2 MSTORE PUSH1 0x20 ADD SWAP1 DUP2 MSTORE PUSH1 0x20 ADD PUSH0 KECCAK256 PUSH1 0x3 ADD PUSH0 SWAP1 SLOAD SWAP1 PUSH2 0x100 EXP SWAP1 DIV PUSH1 0xFF AND PUSH2 0x1655 JUMPI PUSH1 0x1 PUSH1 0x9 PUSH0 CALLER PUSH20 0xFFFFFFFFFFFFFFFFFFFFFFFFFFFFFFFFFFFFFFFF AND PUSH20 0xFFFFFFFFFFFFFFFFFFFFFFFFFFFFFFFFFFFFFFFF AND DUP2 MSTORE PUSH1 0x20 ADD SWAP1 DUP2 MSTORE PUSH1 0x20 ADD PUSH0 KECCAK256 PUSH1 0x3 ADD PUSH0 PUSH2 0x100 EXP DUP2 SLOAD DUP2 PUSH1 0xFF MUL NOT AND SWAP1 DUP4 ISZERO ISZERO MUL OR SWAP1 SSTORE POP JUMPDEST PUSH0 PUSH2 0x166B PUSH2 0x1664 CALLVALUE PUSH1 0x3 PUSH2 0x1DEE JUMP JUMPDEST PUSH1 0x64 PUSH2 0x1E33 JUMP JUMPDEST SWAP1 POP PUSH0 PUSH2 0x1683 PUSH2 0x167C CALLVALUE PUSH1 0x4 PUSH2 0x1DEE JUMP JUMPDEST PUSH1 0x64 PUSH2 0x1E33 JUMP JUMPDEST SWAP1 POP DUP2 PUSH1 0x1 PUSH0 DUP3 DUP3 SLOAD PUSH2 0x1696 SWAP2 SWAP1 PUSH2 0x23E1 JUMP JUMPDEST SWAP3 POP POP DUP2 SWAP1 SSTORE POP DUP2 PUSH1 0x5 PUSH0 DUP3 DUP3 SLOAD PUSH2 0x16AE SWAP2 SWAP1 PUSH2 0x23E1 JUMP JUMPDEST SWAP3 POP POP DUP2 SWAP1 SSTORE POP PUSH0 PUSH20 0xFFFFFFFFFFFFFFFFFFFFFFFFFFFFFFFFFFFFFFFF AND PUSH1 0xA PUSH0 CALLER PUSH20 0xFFFFFFFFFFFFFFFFFFFFFFFFFFFFFFFFFFFFFFFF AND PUSH20 0xFFFFFFFFFFFFFFFFFFFFFFFFFFFFFFFFFFFFFFFF AND DUP2 MSTORE PUSH1 0x20 ADD SWAP1 DUP2 MSTORE PUSH1 0x20 ADD PUSH0 KECCAK256 PUSH0 SWAP1 SLOAD SWAP1 PUSH2 0x100 EXP SWAP1 DIV PUSH20 0xFFFFFFFFFFFFFFFFFFFFFFFFFFFFFFFFFFFFFFFF AND PUSH20 0xFFFFFFFFFFFFFFFFFFFFFFFFFFFFFFFFFFFFFFFF AND SUB PUSH2 0x1A3F JUMPI CALLER PUSH20 0xFFFFFFFFFFFFFFFFFFFFFFFFFFFFFFFFFFFFFFFF AND DUP5 PUSH20 0xFFFFFFFFFFFFFFFFFFFFFFFFFFFFFFFFFFFFFFFF AND EQ DUP1 PUSH2 0x17A9 JUMPI POP PUSH0 PUSH20 0xFFFFFFFFFFFFFFFFFFFFFFFFFFFFFFFFFFFFFFFF AND DUP5 PUSH20 0xFFFFFFFFFFFFFFFFFFFFFFFFFFFFFFFFFFFFFFFF AND EQ JUMPDEST DUP1 PUSH2 0x17FE JUMPI POP PUSH1 0x9 PUSH0 CALLER PUSH20 0xFFFFFFFFFFFFFFFFFFFFFFFFFFFFFFFFFFFFFFFF AND PUSH20 0xFFFFFFFFFFFFFFFFFFFFFFFFFFFFFFFFFFFFFFFF AND DUP2 MSTORE PUSH1 0x20 ADD SWAP1 DUP2 MSTORE PUSH1 0x20 ADD PUSH0 KECCAK256 PUSH1 0x3 ADD PUSH0 SWAP1 SLOAD SWAP1 PUSH2 0x100 EXP SWAP1 DIV PUSH1 0xFF AND ISZERO JUMPDEST ISZERO PUSH2 0x1826 JUMPI PUSH0 DUP1 SLOAD SWAP1 PUSH2 0x100 EXP SWAP1 DIV PUSH20 0xFFFFFFFFFFFFFFFFFFFFFFFFFFFFFFFFFFFFFFFF AND SWAP4 POP JUMPDEST DUP4 PUSH1 0xA PUSH0 CALLER PUSH20 0xFFFFFFFFFFFFFFFFFFFFFFFFFFFFFFFFFFFFFFFF AND PUSH20 0xFFFFFFFFFFFFFFFFFFFFFFFFFFFFFFFFFFFFFFFF AND DUP2 MSTORE PUSH1 0x20 ADD SWAP1 DUP2 MSTORE PUSH1 0x20 ADD PUSH0 KECCAK256 PUSH0 PUSH2 0x100 EXP DUP2 SLOAD DUP2 PUSH20 0xFFFFFFFFFFFFFFFFFFFFFFFFFFFFFFFFFFFFFFFF MUL NOT AND SWAP1 DUP4 PUSH20 0xFFFFFFFFFFFFFFFFFFFFFFFFFFFFFFFFFFFFFFFF AND MUL OR SWAP1 SSTORE POP PUSH0 DUP1 SLOAD SWAP1 PUSH2 0x100 EXP SWAP1 DIV PUSH20 0xFFFFFFFFFFFFFFFFFFFFFFFFFFFFFFFFFFFFFFFF AND PUSH20 0xFFFFFFFFFFFFFFFFFFFFFFFFFFFFFFFFFFFFFFFF AND PUSH1 0xA PUSH0 CALLER PUSH20 0xFFFFFFFFFFFFFFFFFFFFFFFFFFFFFFFFFFFFFFFF AND PUSH20 0xFFFFFFFFFFFFFFFFFFFFFFFFFFFFFFFFFFFFFFFF AND DUP2 MSTORE PUSH1 0x20 ADD SWAP1 DUP2 MSTORE PUSH1 0x20 ADD PUSH0 KECCAK256 PUSH0 SWAP1 SLOAD SWAP1 PUSH2 0x100 EXP SWAP1 DIV PUSH20 0xFFFFFFFFFFFFFFFFFFFFFFFFFFFFFFFFFFFFFFFF AND PUSH20 0xFFFFFFFFFFFFFFFFFFFFFFFFFFFFFFFFFFFFFFFF AND SUB PUSH2 0x196C JUMPI DUP1 PUSH1 0x1 PUSH0 DUP3 DUP3 SLOAD PUSH2 0x1960 SWAP2 SWAP1 PUSH2 0x23E1 JUMP JUMPDEST SWAP3 POP POP DUP2 SWAP1 SSTORE POP PUSH2 0x1A37 JUMP JUMPDEST DUP1 PUSH1 0x9 PUSH0 PUSH1 0xA PUSH0 CALLER PUSH20 0xFFFFFFFFFFFFFFFFFFFFFFFFFFFFFFFFFFFFFFFF AND PUSH20 0xFFFFFFFFFFFFFFFFFFFFFFFFFFFFFFFFFFFFFFFF AND DUP2 MSTORE PUSH1 0x20 ADD SWAP1 DUP2 MSTORE PUSH1 0x20 ADD PUSH0 KECCAK256 PUSH0 SWAP1 SLOAD SWAP1 PUSH2 0x100 EXP SWAP1 DIV PUSH20 0xFFFFFFFFFFFFFFFFFFFFFFFFFFFFFFFFFFFFFFFF AND PUSH20 0xFFFFFFFFFFFFFFFFFFFFFFFFFFFFFFFFFFFFFFFF AND PUSH20 0xFFFFFFFFFFFFFFFFFFFFFFFFFFFFFFFFFFFFFFFF AND DUP2 MSTORE PUSH1 0x20 ADD SWAP1 DUP2 MSTORE PUSH1 0x20 ADD PUSH0 KECCAK256 PUSH1 0x2 ADD PUSH0 DUP3 DUP3 SLOAD PUSH2 0x1A17 SWAP2 SWAP1 PUSH2 0x23E1 JUMP JUMPDEST SWAP3 POP POP DUP2 SWAP1 SSTORE POP DUP1 PUSH1 0x7 PUSH0 DUP3 DUP3 SLOAD PUSH2 0x1A2F SWAP2 SWAP1 PUSH2 0x23E1 JUMP JUMPDEST SWAP3 POP POP DUP2 SWAP1 SSTORE POP JUMPDEST TIMESTAMP PUSH1 0x8 DUP2 SWAP1 SSTORE POP JUMPDEST POP POP POP POP POP POP POP JUMP JUMPDEST PUSH1 0x5 SLOAD DUP2 JUMP JUMPDEST PUSH8 0xDE0B6B3A7640000 DUP2 LT ISZERO PUSH2 0x1A99 JUMPI PUSH1 0x40 MLOAD PUSH32 0x8C379A000000000000000000000000000000000000000000000000000000000 DUP2 MSTORE PUSH1 0x4 ADD PUSH2 0x1A90 SWAP1 PUSH2 0x2B27 JUMP JUMPDEST PUSH1 0x40 MLOAD DUP1 SWAP2 SUB SWAP1 REVERT JUMPDEST PUSH1 0x3 PUSH0 CALLER PUSH20 0xFFFFFFFFFFFFFFFFFFFFFFFFFFFFFFFFFFFFFFFF AND PUSH20 0xFFFFFFFFFFFFFFFFFFFFFFFFFFFFFFFFFFFFFFFF AND DUP2 MSTORE PUSH1 0x20 ADD SWAP1 DUP2 MSTORE PUSH1 0x20 ADD PUSH0 KECCAK256 PUSH0 ADD SLOAD DUP2 GT ISZERO PUSH2 0x1B1B JUMPI PUSH1 0x40 MLOAD PUSH32 0x8C379A000000000000000000000000000000000000000000000000000000000 DUP2 MSTORE PUSH1 0x4 ADD PUSH2 0x1B12 SWAP1 PUSH2 0x2B8F JUMP JUMPDEST PUSH1 0x40 MLOAD DUP1 SWAP2 SUB SWAP1 REVERT JUMPDEST PUSH3 0x93A80 PUSH1 0x3 PUSH0 CALLER PUSH20 0xFFFFFFFFFFFFFFFFFFFFFFFFFFFFFFFFFFFFFFFF AND PUSH20 0xFFFFFFFFFFFFFFFFFFFFFFFFFFFFFFFFFFFFFFFF AND DUP2 MSTORE PUSH1 0x20 ADD SWAP1 DUP2 MSTORE PUSH1 0x20 ADD PUSH0 KECCAK256 PUSH1 0x1 ADD SLOAD PUSH2 0x1B6A SWAP2 SWAP1 PUSH2 0x23E1 JUMP JUMPDEST TIMESTAMP LT ISZERO PUSH2 0x1BAC JUMPI PUSH1 0x40 MLOAD PUSH32 0x8C379A000000000000000000000000000000000000000000000000000000000 DUP2 MSTORE PUSH1 0x4 ADD PUSH2 0x1BA3 SWAP1 PUSH2 0x2BF7 JUMP JUMPDEST PUSH1 0x40 MLOAD DUP1 SWAP2 SUB SWAP1 REVERT JUMPDEST DUP1 PUSH2 0x1BD3 SELFBALANCE PUSH1 0x1 SLOAD PUSH1 0x7 SLOAD PUSH1 0x5 SLOAD PUSH2 0x1BC4 SWAP2 SWAP1 PUSH2 0x23E1 JUMP JUMPDEST PUSH2 0x1BCE SWAP2 SWAP1 PUSH2 0x23E1 JUMP JUMPDEST PUSH2 0x1DC8 JUMP JUMPDEST LT ISZERO PUSH2 0x1C14 JUMPI PUSH1 0x40 MLOAD PUSH32 0x8C379A000000000000000000000000000000000000000000000000000000000 DUP2 MSTORE PUSH1 0x4 ADD PUSH2 0x1C0B SWAP1 PUSH2 0x2C5F JUMP JUMPDEST PUSH1 0x40 MLOAD DUP1 SWAP2 SUB SWAP1 REVERT JUMPDEST DUP1 PUSH1 0x3 PUSH0 CALLER PUSH20 0xFFFFFFFFFFFFFFFFFFFFFFFFFFFFFFFFFFFFFFFF AND PUSH20 0xFFFFFFFFFFFFFFFFFFFFFFFFFFFFFFFFFFFFFFFF AND DUP2 MSTORE PUSH1 0x20 ADD SWAP1 DUP2 MSTORE PUSH1 0x20 ADD PUSH0 KECCAK256 PUSH0 ADD PUSH0 DUP3 DUP3 SLOAD PUSH2 0x1C62 SWAP2 SWAP1 PUSH2 0x2506 JUMP JUMPDEST SWAP3 POP POP DUP2 SWAP1 SSTORE POP DUP1 PUSH1 0x4 PUSH0 DUP3 DUP3 SLOAD PUSH2 0x1C7A SWAP2 SWAP1 PUSH2 0x2506 JUMP JUMPDEST SWAP3 POP POP DUP2 SWAP1 SSTORE POP CALLER PUSH20 0xFFFFFFFFFFFFFFFFFFFFFFFFFFFFFFFFFFFFFFFF AND PUSH2 0x8FC DUP3 SWAP1 DUP2 ISZERO MUL SWAP1 PUSH1 0x40 MLOAD PUSH0 PUSH1 0x40 MLOAD DUP1 DUP4 SUB DUP2 DUP6 DUP9 DUP9 CALL SWAP4 POP POP POP POP ISZERO DUP1 ISZERO PUSH2 0x1CC4 JUMPI RETURNDATASIZE PUSH0 DUP1 RETURNDATACOPY RETURNDATASIZE PUSH0 REVERT JUMPDEST POP POP JUMP JUMPDEST PUSH0 DUP1 SLOAD SWAP1 PUSH2 0x100 EXP SWAP1 DIV PUSH20 0xFFFFFFFFFFFFFFFFFFFFFFFFFFFFFFFFFFFFFFFF AND PUSH20 0xFFFFFFFFFFFFFFFFFFFFFFFFFFFFFFFFFFFFFFFF AND CALLER PUSH20 0xFFFFFFFFFFFFFFFFFFFFFFFFFFFFFFFFFFFFFFFF AND EQ PUSH2 0x1D55 JUMPI PUSH1 0x40 MLOAD PUSH32 0x8C379A000000000000000000000000000000000000000000000000000000000 DUP2 MSTORE PUSH1 0x4 ADD PUSH2 0x1D4C SWAP1 PUSH2 0x2CC7 JUMP JUMPDEST PUSH1 0x40 MLOAD DUP1 SWAP2 SUB SWAP1 REVERT JUMPDEST PUSH0 PUSH1 0x1 SLOAD SWAP1 POP PUSH0 PUSH1 0x1 DUP2 SWAP1 SSTORE POP PUSH0 DUP1 SLOAD SWAP1 PUSH2 0x100 EXP SWAP1 DIV PUSH20 0xFFFFFFFFFFFFFFFFFFFFFFFFFFFFFFFFFFFFFFFF AND PUSH20 0xFFFFFFFFFFFFFFFFFFFFFFFFFFFFFFFFFFFFFFFF AND PUSH2 0x8FC DUP3 SWAP1 DUP2 ISZERO MUL SWAP1 PUSH1 0x40 MLOAD PUSH0 PUSH1 0x40 MLOAD DUP1 DUP4 SUB DUP2 DUP6 DUP9 DUP9 CALL SWAP4 POP POP POP POP ISZERO DUP1 ISZERO PUSH2 0x1DC4 JUMPI RETURNDATASIZE PUSH0 DUP1 RETURNDATACOPY RETURNDATASIZE PUSH0 REVERT JUMPDEST POP POP JUMP JUMPDEST PUSH0 DUP3 DUP3 GT ISZERO PUSH2 0x1DDA JUMPI PUSH2 0x1DD9 PUSH2 0x2CE5 JUMP JUMPDEST JUMPDEST DUP2 DUP4 PUSH2 0x1DE6 SWAP2 SWAP1 PUSH2 0x2506 JUMP JUMPDEST SWAP1 POP SWAP3 SWAP2 POP POP JUMP JUMPDEST PUSH0 DUP1 DUP4 SUB PUSH2 0x1DFE JUMPI PUSH0 SWAP1 POP PUSH2 0x1E2D JUMP JUMPDEST PUSH0 DUP3 DUP5 PUSH2 0x1E0B SWAP2 SWAP1 PUSH2 0x2711 JUMP JUMPDEST SWAP1 POP DUP3 DUP5 DUP3 PUSH2 0x1E1A SWAP2 SWAP1 PUSH2 0x2441 JUMP JUMPDEST EQ PUSH2 0x1E28 JUMPI PUSH2 0x1E27 PUSH2 0x2CE5 JUMP JUMPDEST JUMPDEST DUP1 SWAP2 POP POP JUMPDEST SWAP3 SWAP2 POP POP JUMP JUMPDEST PUSH0 DUP1 DUP3 GT PUSH2 0x1E44 JUMPI PUSH2 0x1E43 PUSH2 0x2CE5 JUMP JUMPDEST JUMPDEST PUSH0 DUP3 DUP5 PUSH2 0x1E51 SWAP2 SWAP1 PUSH2 0x2441 JUMP JUMPDEST SWAP1 POP DUP1 SWAP2 POP POP SWAP3 SWAP2 POP POP JUMP JUMPDEST PUSH0 PUSH4 0x4000000 DUP3 PUSH4 0xFFFFFFFF AND GT ISZERO PUSH2 0x1E78 JUMPI PUSH0 SWAP1 POP PUSH2 0x1F5B JUMP JUMPDEST PUSH4 0x1000000 DUP3 PUSH4 0xFFFFFFFF AND LT PUSH2 0x1E92 JUMPI PUSH1 0xA SWAP1 POP PUSH2 0x1F5B JUMP JUMPDEST PUSH3 0x400000 DUP3 PUSH4 0xFFFFFFFF AND LT PUSH2 0x1EAB JUMPI PUSH1 0x9 SWAP1 POP PUSH2 0x1F5B JUMP JUMPDEST PUSH3 0x100000 DUP3 PUSH4 0xFFFFFFFF AND LT PUSH2 0x1EC4 JUMPI PUSH1 0x8 SWAP1 POP PUSH2 0x1F5B JUMP JUMPDEST PUSH3 0x40000 DUP3 PUSH4 0xFFFFFFFF AND LT PUSH2 0x1EDD JUMPI PUSH1 0x7 SWAP1 POP PUSH2 0x1F5B JUMP JUMPDEST PUSH3 0x10000 DUP3 PUSH4 0xFFFFFFFF AND LT PUSH2 0x1EF6 JUMPI PUSH1 0x6 SWAP1 POP PUSH2 0x1F5B JUMP JUMPDEST PUSH2 0x4000 DUP3 PUSH4 0xFFFFFFFF AND LT PUSH2 0x1F0E JUMPI PUSH1 0x5 SWAP1 POP PUSH2 0x1F5B JUMP JUMPDEST PUSH2 0x1000 DUP3 PUSH4 0xFFFFFFFF AND LT PUSH2 0x1F26 JUMPI PUSH1 0x4 SWAP1 POP PUSH2 0x1F5B JUMP JUMPDEST PUSH2 0x400 DUP3 PUSH4 0xFFFFFFFF AND LT PUSH2 0x1F3E JUMPI PUSH1 0x3 SWAP1 POP PUSH2 0x1F5B JUMP JUMPDEST PUSH2 0x100 DUP3 PUSH4 0xFFFFFFFF AND LT PUSH2 0x1F56 JUMPI PUSH1 0x2 SWAP1 POP PUSH2 0x1F5B JUMP JUMPDEST PUSH1 0x1 SWAP1 POP JUMPDEST SWAP2 SWAP1 POP JUMP JUMPDEST PUSH0 DUP1 DUP3 SUB PUSH2 0x1F70 JUMPI PUSH0 SWAP1 POP PUSH2 0x2028 JUMP JUMPDEST PUSH1 0xA DUP3 SUB PUSH2 0x1F81 JUMPI PUSH1 0x5 SWAP1 POP PUSH2 0x2028 JUMP JUMPDEST PUSH1 0x9 DUP3 SUB PUSH2 0x1F92 JUMPI PUSH1 0x14 SWAP1 POP PUSH2 0x2028 JUMP JUMPDEST PUSH1 0x8 DUP3 SUB PUSH2 0x1FA3 JUMPI PUSH1 0x50 SWAP1 POP PUSH2 0x2028 JUMP JUMPDEST PUSH1 0x7 DUP3 SUB PUSH2 0x1FB5 JUMPI PUSH2 0x140 SWAP1 POP PUSH2 0x2028 JUMP JUMPDEST PUSH1 0x6 DUP3 SUB PUSH2 0x1FC7 JUMPI PUSH2 0x4B0 SWAP1 POP PUSH2 0x2028 JUMP JUMPDEST PUSH1 0x5 DUP3 SUB PUSH2 0x1FD9 JUMPI PUSH2 0x12C0 SWAP1 POP PUSH2 0x2028 JUMP JUMPDEST PUSH1 0x4 DUP3 SUB PUSH2 0x1FEB JUMPI PUSH2 0x4E20 SWAP1 POP PUSH2 0x2028 JUMP JUMPDEST PUSH1 0x3 DUP3 SUB PUSH2 0x1FFE JUMPI PUSH3 0x186A0 SWAP1 POP PUSH2 0x2028 JUMP JUMPDEST PUSH1 0x2 DUP3 SUB PUSH2 0x2011 JUMPI PUSH3 0x7A120 SWAP1 POP PUSH2 0x2028 JUMP JUMPDEST PUSH1 0x1 DUP3 SUB PUSH2 0x2024 JUMPI PUSH3 0x1E8480 SWAP1 POP PUSH2 0x2028 JUMP JUMPDEST PUSH0 SWAP1 POP JUMPDEST SWAP2 SWAP1 POP JUMP JUMPDEST POP DUP1 SLOAD PUSH0 DUP3 SSTORE SWAP1 PUSH0 MSTORE PUSH1 0x20 PUSH0 KECCAK256 SWAP1 DUP2 ADD SWAP1 PUSH2 0x2048 SWAP2 SWAP1 PUSH2 0x206C JUMP JUMPDEST POP JUMP JUMPDEST POP DUP1 SLOAD PUSH0 DUP3 SSTORE PUSH1 0x2 MUL SWAP1 PUSH0 MSTORE PUSH1 0x20 PUSH0 KECCAK256 SWAP1 DUP2 ADD SWAP1 PUSH2 0x2069 SWAP2 SWAP1 PUSH2 0x20AB JUMP JUMPDEST POP JUMP JUMPDEST JUMPDEST DUP1 DUP3 GT ISZERO PUSH2 0x20A7 JUMPI PUSH0 DUP1 DUP3 ADD PUSH0 PUSH2 0x100 EXP DUP2 SLOAD SWAP1 PUSH4 0xFFFFFFFF MUL NOT AND SWAP1 SSTORE PUSH0 DUP3 ADD PUSH1 0x4 PUSH2 0x100 EXP DUP2 SLOAD SWAP1 PUSH1 0xFF MUL NOT AND SWAP1 SSTORE POP PUSH1 0x1 ADD PUSH2 0x206D JUMP JUMPDEST POP SWAP1 JUMP JUMPDEST JUMPDEST DUP1 DUP3 GT ISZERO PUSH2 0x2109 JUMPI PUSH0 DUP1 DUP3 ADD PUSH0 SWAP1 SSTORE PUSH1 0x1 DUP3 ADD PUSH0 PUSH2 0x100 EXP DUP2 SLOAD SWAP1 PUSH1 0xFF MUL NOT AND SWAP1 SSTORE PUSH1 0x1 DUP3 ADD PUSH1 0x1 PUSH2 0x100 EXP DUP2 SLOAD SWAP1 PUSH31 0xFFFFFFFFFFFFFFFFFFFFFFFFFFFFFFFFFFFFFFFFFFFFFFFFFFFFFFFFFFFFFF MUL NOT AND SWAP1 SSTORE POP PUSH1 0x2 ADD PUSH2 0x20AC JUMP JUMPDEST POP SWAP1 JUMP JUMPDEST PUSH0 PUSH20 0xFFFFFFFFFFFFFFFFFFFFFFFFFFFFFFFFFFFFFFFF DUP3 AND SWAP1 POP SWAP2 SWAP1 POP JUMP JUMPDEST PUSH0 PUSH2 0x2136 DUP3 PUSH2 0x210D JUMP JUMPDEST SWAP1 POP SWAP2 SWAP1 POP JUMP JUMPDEST PUSH2 0x2146 DUP2 PUSH2 0x212C JUMP JUMPDEST DUP3 MSTORE POP POP JUMP JUMPDEST PUSH0 PUSH1 0x20 DUP3 ADD SWAP1 POP PUSH2 0x215F PUSH0 DUP4 ADD DUP5 PUSH2 0x213D JUMP JUMPDEST SWAP3 SWAP2 POP POP JUMP JUMPDEST PUSH0 DUP2 SWAP1 POP SWAP2 SWAP1 POP JUMP JUMPDEST PUSH2 0x2177 DUP2 PUSH2 0x2165 JUMP JUMPDEST DUP3 MSTORE POP POP JUMP JUMPDEST PUSH0 PUSH1 0x20 DUP3 ADD SWAP1 POP PUSH2 0x2190 PUSH0 DUP4 ADD DUP5 PUSH2 0x216E JUMP JUMPDEST SWAP3 SWAP2 POP POP JUMP JUMPDEST PUSH0 DUP1 REVERT JUMPDEST PUSH0 PUSH2 0xFFFF DUP3 AND SWAP1 POP SWAP2 SWAP1 POP JUMP JUMPDEST PUSH2 0x21B0 DUP2 PUSH2 0x219A JUMP JUMPDEST DUP2 EQ PUSH2 0x21BA JUMPI PUSH0 DUP1 REVERT JUMPDEST POP JUMP JUMPDEST PUSH0 DUP2 CALLDATALOAD SWAP1 POP PUSH2 0x21CB DUP2 PUSH2 0x21A7 JUMP JUMPDEST SWAP3 SWAP2 POP POP JUMP JUMPDEST PUSH0 PUSH1 0xFF DUP3 AND SWAP1 POP SWAP2 SWAP1 POP JUMP JUMPDEST PUSH2 0x21E6 DUP2 PUSH2 0x21D1 JUMP JUMPDEST DUP2 EQ PUSH2 0x21F0 JUMPI PUSH0 DUP1 REVERT JUMPDEST POP JUMP JUMPDEST PUSH0 DUP2 CALLDATALOAD SWAP1 POP PUSH2 0x2201 DUP2 PUSH2 0x21DD JUMP JUMPDEST SWAP3 SWAP2 POP POP JUMP JUMPDEST PUSH0 PUSH29 0xFFFFFFFFFFFFFFFFFFFFFFFFFFFFFFFFFFFFFFFFFFFFFFFFFFFFFFFFFF DUP3 AND SWAP1 POP SWAP2 SWAP1 POP JUMP JUMPDEST PUSH2 0x2238 DUP2 PUSH2 0x2207 JUMP JUMPDEST DUP2 EQ PUSH2 0x2242 JUMPI PUSH0 DUP1 REVERT JUMPDEST POP JUMP JUMPDEST PUSH0 DUP2 CALLDATALOAD SWAP1 POP PUSH2 0x2253 DUP2 PUSH2 0x222F JUMP JUMPDEST SWAP3 SWAP2 POP POP JUMP JUMPDEST PUSH2 0x2262 DUP2 PUSH2 0x212C JUMP JUMPDEST DUP2 EQ PUSH2 0x226C JUMPI PUSH0 DUP1 REVERT JUMPDEST POP JUMP JUMPDEST PUSH0 DUP2 CALLDATALOAD SWAP1 POP PUSH2 0x227D DUP2 PUSH2 0x2259 JUMP JUMPDEST SWAP3 SWAP2 POP POP JUMP JUMPDEST PUSH0 DUP1 PUSH0 DUP1 PUSH1 0x80 DUP6 DUP8 SUB SLT ISZERO PUSH2 0x229B JUMPI PUSH2 0x229A PUSH2 0x2196 JUMP JUMPDEST JUMPDEST PUSH0 PUSH2 0x22A8 DUP8 DUP3 DUP9 ADD PUSH2 0x21BD JUMP JUMPDEST SWAP5 POP POP PUSH1 0x20 PUSH2 0x22B9 DUP8 DUP3 DUP9 ADD PUSH2 0x21F3 JUMP JUMPDEST SWAP4 POP POP PUSH1 0x40 PUSH2 0x22CA DUP8 DUP3 DUP9 ADD PUSH2 0x2245 JUMP JUMPDEST SWAP3 POP POP PUSH1 0x60 PUSH2 0x22DB DUP8 DUP3 DUP9 ADD PUSH2 0x226F JUMP JUMPDEST SWAP2 POP POP SWAP3 SWAP6 SWAP2 SWAP5 POP SWAP3 POP JUMP JUMPDEST PUSH2 0x22F0 DUP2 PUSH2 0x2165 JUMP JUMPDEST DUP2 EQ PUSH2 0x22FA JUMPI PUSH0 DUP1 REVERT JUMPDEST POP JUMP JUMPDEST PUSH0 DUP2 CALLDATALOAD SWAP1 POP PUSH2 0x230B DUP2 PUSH2 0x22E7 JUMP JUMPDEST SWAP3 SWAP2 POP POP JUMP JUMPDEST PUSH0 PUSH1 0x20 DUP3 DUP5 SUB SLT ISZERO PUSH2 0x2326 JUMPI PUSH2 0x2325 PUSH2 0x2196 JUMP JUMPDEST JUMPDEST PUSH0 PUSH2 0x2333 DUP5 DUP3 DUP6 ADD PUSH2 0x22FD JUMP JUMPDEST SWAP2 POP POP SWAP3 SWAP2 POP POP JUMP JUMPDEST PUSH0 DUP3 DUP3 MSTORE PUSH1 0x20 DUP3 ADD SWAP1 POP SWAP3 SWAP2 POP POP JUMP JUMPDEST PUSH32 0x596F75206D757374206265206120696E766573746F7200000000000000000000 PUSH0 DUP3 ADD MSTORE POP JUMP JUMPDEST PUSH0 PUSH2 0x2380 PUSH1 0x16 DUP4 PUSH2 0x233C JUMP JUMPDEST SWAP2 POP PUSH2 0x238B DUP3 PUSH2 0x234C JUMP JUMPDEST PUSH1 0x20 DUP3 ADD SWAP1 POP SWAP2 SWAP1 POP JUMP JUMPDEST PUSH0 PUSH1 0x20 DUP3 ADD SWAP1 POP DUP2 DUP2 SUB PUSH0 DUP4 ADD MSTORE PUSH2 0x23AD DUP2 PUSH2 0x2374 JUMP JUMPDEST SWAP1 POP SWAP2 SWAP1 POP JUMP JUMPDEST PUSH32 0x4E487B7100000000000000000000000000000000000000000000000000000000 PUSH0 MSTORE PUSH1 0x11 PUSH1 0x4 MSTORE PUSH1 0x24 PUSH0 REVERT JUMPDEST PUSH0 PUSH2 0x23EB DUP3 PUSH2 0x2165 JUMP JUMPDEST SWAP2 POP PUSH2 0x23F6 DUP4 PUSH2 0x2165 JUMP JUMPDEST SWAP3 POP DUP3 DUP3 ADD SWAP1 POP DUP1 DUP3 GT ISZERO PUSH2 0x240E JUMPI PUSH2 0x240D PUSH2 0x23B4 JUMP JUMPDEST JUMPDEST SWAP3 SWAP2 POP POP JUMP JUMPDEST PUSH32 0x4E487B7100000000000000000000000000000000000000000000000000000000 PUSH0 MSTORE PUSH1 0x12 PUSH1 0x4 MSTORE PUSH1 0x24 PUSH0 REVERT JUMPDEST PUSH0 PUSH2 0x244B DUP3 PUSH2 0x2165 JUMP JUMPDEST SWAP2 POP PUSH2 0x2456 DUP4 PUSH2 0x2165 JUMP JUMPDEST SWAP3 POP DUP3 PUSH2 0x2466 JUMPI PUSH2 0x2465 PUSH2 0x2414 JUMP JUMPDEST JUMPDEST DUP3 DUP3 DIV SWAP1 POP SWAP3 SWAP2 POP POP JUMP JUMPDEST PUSH32 0x4E487B7100000000000000000000000000000000000000000000000000000000 PUSH0 MSTORE PUSH1 0x32 PUSH1 0x4 MSTORE PUSH1 0x24 PUSH0 REVERT JUMPDEST PUSH32 0x4E6F7420656E6F7567682070726F66697420746F207769746864726177210000 PUSH0 DUP3 ADD MSTORE POP JUMP JUMPDEST PUSH0 PUSH2 0x24D2 PUSH1 0x1E DUP4 PUSH2 0x233C JUMP JUMPDEST SWAP2 POP PUSH2 0x24DD DUP3 PUSH2 0x249E JUMP JUMPDEST PUSH1 0x20 DUP3 ADD SWAP1 POP SWAP2 SWAP1 POP JUMP JUMPDEST PUSH0 PUSH1 0x20 DUP3 ADD SWAP1 POP DUP2 DUP2 SUB PUSH0 DUP4 ADD MSTORE PUSH2 0x24FF DUP2 PUSH2 0x24C6 JUMP JUMPDEST SWAP1 POP SWAP2 SWAP1 POP JUMP JUMPDEST PUSH0 PUSH2 0x2510 DUP3 PUSH2 0x2165 JUMP JUMPDEST SWAP2 POP PUSH2 0x251B DUP4 PUSH2 0x2165 JUMP JUMPDEST SWAP3 POP DUP3 DUP3 SUB SWAP1 POP DUP2 DUP2 GT ISZERO PUSH2 0x2533 JUMPI PUSH2 0x2532 PUSH2 0x23B4 JUMP JUMPDEST JUMPDEST SWAP3 SWAP2 POP POP JUMP JUMPDEST PUSH32 0x496E766573746D656E7420616D6F756E7420626574657765656E203120616E64 PUSH0 DUP3 ADD MSTORE PUSH32 0x2031303030000000000000000000000000000000000000000000000000000000 PUSH1 0x20 DUP3 ADD MSTORE POP JUMP JUMPDEST PUSH0 PUSH2 0x2593 PUSH1 0x25 DUP4 PUSH2 0x233C JUMP JUMPDEST SWAP2 POP PUSH2 0x259E DUP3 PUSH2 0x2539 JUMP JUMPDEST PUSH1 0x40 DUP3 ADD SWAP1 POP SWAP2 SWAP1 POP JUMP JUMPDEST PUSH0 PUSH1 0x20 DUP3 ADD SWAP1 POP DUP2 DUP2 SUB PUSH0 DUP4 ADD MSTORE PUSH2 0x25C0 DUP2 PUSH2 0x2587 JUMP JUMPDEST SWAP1 POP SWAP2 SWAP1 POP JUMP JUMPDEST PUSH32 0x596F7520646F6E2774206861766520756E64726177206C6F7474657279207469 PUSH0 DUP3 ADD MSTORE PUSH32 0x636B657473000000000000000000000000000000000000000000000000000000 PUSH1 0x20 DUP3 ADD MSTORE POP JUMP JUMPDEST PUSH0 PUSH2 0x2621 PUSH1 0x25 DUP4 PUSH2 0x233C JUMP JUMPDEST SWAP2 POP PUSH2 0x262C DUP3 PUSH2 0x25C7 JUMP JUMPDEST PUSH1 0x40 DUP3 ADD SWAP1 POP SWAP2 SWAP1 POP JUMP JUMPDEST PUSH0 PUSH1 0x20 DUP3 ADD SWAP1 POP DUP2 DUP2 SUB PUSH0 DUP4 ADD MSTORE PUSH2 0x264E DUP2 PUSH2 0x2615 JUMP JUMPDEST SWAP1 POP SWAP2 SWAP1 POP JUMP JUMPDEST PUSH32 0x49742773206E6F742074696D6500000000000000000000000000000000000000 PUSH0 DUP3 ADD MSTORE POP JUMP JUMPDEST PUSH0 PUSH2 0x2689 PUSH1 0xD DUP4 PUSH2 0x233C JUMP JUMPDEST SWAP2 POP PUSH2 0x2694 DUP3 PUSH2 0x2655 JUMP JUMPDEST PUSH1 0x20 DUP3 ADD SWAP1 POP SWAP2 SWAP1 POP JUMP JUMPDEST PUSH0 PUSH1 0x20 DUP3 ADD SWAP1 POP DUP2 DUP2 SUB PUSH0 DUP4 ADD MSTORE PUSH2 0x26B6 DUP2 PUSH2 0x267D JUMP JUMPDEST SWAP1 POP SWAP2 SWAP1 POP JUMP JUMPDEST PUSH0 DUP2 SWAP1 POP SWAP2 SWAP1 POP JUMP JUMPDEST PUSH0 DUP2 SWAP1 POP SWAP2 SWAP1 POP JUMP JUMPDEST PUSH2 0x26E0 PUSH2 0x26DB DUP3 PUSH2 0x26BD JUMP JUMPDEST PUSH2 0x26C6 JUMP JUMPDEST DUP3 MSTORE POP POP JUMP JUMPDEST PUSH0 PUSH2 0x26F1 DUP3 DUP6 PUSH2 0x26CF JUMP JUMPDEST PUSH1 0x20 DUP3 ADD SWAP2 POP PUSH2 0x2701 DUP3 DUP5 PUSH2 0x26CF JUMP JUMPDEST PUSH1 0x20 DUP3 ADD SWAP2 POP DUP2 SWAP1 POP SWAP4 SWAP3 POP POP POP JUMP JUMPDEST PUSH0 PUSH2 0x271B DUP3 PUSH2 0x2165 JUMP JUMPDEST SWAP2 POP PUSH2 0x2726 DUP4 PUSH2 0x2165 JUMP JUMPDEST SWAP3 POP DUP3 DUP3 MUL PUSH2 0x2734 DUP2 PUSH2 0x2165 JUMP JUMPDEST SWAP2 POP DUP3 DUP3 DIV DUP5 EQ DUP4 ISZERO OR PUSH2 0x274B JUMPI PUSH2 0x274A PUSH2 0x23B4 JUMP JUMPDEST JUMPDEST POP SWAP3 SWAP2 POP POP JUMP JUMPDEST PUSH32 0x427579206174206C65617374206F6E6520656767000000000000000000000000 PUSH0 DUP3 ADD MSTORE POP JUMP JUMPDEST PUSH0 PUSH2 0x2786 PUSH1 0x14 DUP4 PUSH2 0x233C JUMP JUMPDEST SWAP2 POP PUSH2 0x2791 DUP3 PUSH2 0x2752 JUMP JUMPDEST PUSH1 0x20 DUP3 ADD SWAP1 POP SWAP2 SWAP1 POP JUMP JUMPDEST PUSH0 PUSH1 0x20 DUP3 ADD SWAP1 POP DUP2 DUP2 SUB PUSH0 DUP4 ADD MSTORE PUSH2 0x27B3 DUP2 PUSH2 0x277A JUMP JUMPDEST SWAP1 POP SWAP2 SWAP1 POP JUMP JUMPDEST PUSH32 0x4D756C7469706C6573206265747765656E203120616E64203130300000000000 PUSH0 DUP3 ADD MSTORE POP JUMP JUMPDEST PUSH0 PUSH2 0x27EE PUSH1 0x1B DUP4 PUSH2 0x233C JUMP JUMPDEST SWAP2 POP PUSH2 0x27F9 DUP3 PUSH2 0x27BA JUMP JUMPDEST PUSH1 0x20 DUP3 ADD SWAP1 POP SWAP2 SWAP1 POP JUMP JUMPDEST PUSH0 PUSH1 0x20 DUP3 ADD SWAP1 POP DUP2 DUP2 SUB PUSH0 DUP4 ADD MSTORE PUSH2 0x281B DUP2 PUSH2 0x27E2 JUMP JUMPDEST SWAP1 POP SWAP2 SWAP1 POP JUMP JUMPDEST PUSH32 0x4E756D626572206F662065676773206265747765656E203120616E6420313030 PUSH0 DUP3 ADD MSTORE POP JUMP JUMPDEST PUSH0 PUSH2 0x2856 PUSH1 0x20 DUP4 PUSH2 0x233C JUMP JUMPDEST SWAP2 POP PUSH2 0x2861 DUP3 PUSH2 0x2822 JUMP JUMPDEST PUSH1 0x20 DUP3 ADD SWAP1 POP SWAP2 SWAP1 POP JUMP JUMPDEST PUSH0 PUSH1 0x20 DUP3 ADD SWAP1 POP DUP2 DUP2 SUB PUSH0 DUP4 ADD MSTORE PUSH2 0x2883 DUP2 PUSH2 0x284A JUMP JUMPDEST SWAP1 POP SWAP2 SWAP1 POP JUMP JUMPDEST PUSH0 PUSH2 0x2894 DUP3 PUSH2 0x219A JUMP JUMPDEST SWAP2 POP PUSH2 0x289F DUP4 PUSH2 0x219A JUMP JUMPDEST SWAP3 POP DUP3 DUP3 MUL PUSH2 0x28AD DUP2 PUSH2 0x219A JUMP JUMPDEST SWAP2 POP DUP1 DUP3 EQ PUSH2 0x28BF JUMPI PUSH2 0x28BE PUSH2 0x23B4 JUMP JUMPDEST JUMPDEST POP SWAP3 SWAP2 POP POP JUMP JUMPDEST PUSH32 0x496E76616C696420646174610000000000000000000000000000000000000000 PUSH0 DUP3 ADD MSTORE POP JUMP JUMPDEST PUSH0 PUSH2 0x28FA PUSH1 0xC DUP4 PUSH2 0x233C JUMP JUMPDEST SWAP2 POP PUSH2 0x2905 DUP3 PUSH2 0x28C6 JUMP JUMPDEST PUSH1 0x20 DUP3 ADD SWAP1 POP SWAP2 SWAP1 POP JUMP JUMPDEST PUSH0 PUSH1 0x20 DUP3 ADD SWAP1 POP DUP2 DUP2 SUB PUSH0 DUP4 ADD MSTORE PUSH2 0x2927 DUP2 PUSH2 0x28EE JUMP JUMPDEST SWAP1 POP SWAP2 SWAP1 POP JUMP JUMPDEST PUSH0 PUSH2 0x2938 DUP3 PUSH2 0x2207 JUMP JUMPDEST SWAP2 POP PUSH29 0xFFFFFFFFFFFFFFFFFFFFFFFFFFFFFFFFFFFFFFFFFFFFFFFFFFFFFFFFFF DUP3 SUB PUSH2 0x2967 JUMPI PUSH2 0x2966 PUSH2 0x23B4 JUMP JUMPDEST JUMPDEST PUSH1 0x1 DUP3 ADD SWAP1 POP SWAP2 SWAP1 POP JUMP JUMPDEST PUSH0 DUP2 SWAP1 POP SWAP2 SWAP1 POP JUMP JUMPDEST PUSH2 0x298C PUSH2 0x2987 DUP3 PUSH2 0x2165 JUMP JUMPDEST PUSH2 0x2972 JUMP JUMPDEST DUP3 MSTORE POP POP JUMP JUMPDEST PUSH0 PUSH2 0x299C DUP3 PUSH2 0x210D JUMP JUMPDEST SWAP1 POP SWAP2 SWAP1 POP JUMP JUMPDEST PUSH0 DUP2 PUSH1 0x60 SHL SWAP1 POP SWAP2 SWAP1 POP JUMP JUMPDEST PUSH0 PUSH2 0x29B9 DUP3 PUSH2 0x29A3 JUMP JUMPDEST SWAP1 POP SWAP2 SWAP1 POP JUMP JUMPDEST PUSH0 PUSH2 0x29CA DUP3 PUSH2 0x29AF JUMP JUMPDEST SWAP1 POP SWAP2 SWAP1 POP JUMP JUMPDEST PUSH2 0x29E2 PUSH2 0x29DD DUP3 PUSH2 0x2992 JUMP JUMPDEST PUSH2 0x29C0 JUMP JUMPDEST DUP3 MSTORE POP POP JUMP JUMPDEST PUSH0 PUSH2 0x29F2 DUP3 PUSH2 0x29AF JUMP JUMPDEST SWAP1 POP SWAP2 SWAP1 POP JUMP JUMPDEST PUSH2 0x2A0A PUSH2 0x2A05 DUP3 PUSH2 0x212C JUMP JUMPDEST PUSH2 0x29E8 JUMP JUMPDEST DUP3 MSTORE POP POP JUMP JUMPDEST PUSH0 DUP2 PUSH1 0x18 SHL SWAP1 POP SWAP2 SWAP1 POP JUMP JUMPDEST PUSH0 PUSH2 0x2A26 DUP3 PUSH2 0x2A10 JUMP JUMPDEST SWAP1 POP SWAP2 SWAP1 POP JUMP JUMPDEST PUSH2 0x2A3E PUSH2 0x2A39 DUP3 PUSH2 0x2207 JUMP JUMPDEST PUSH2 0x2A1C JUMP JUMPDEST DUP3 MSTORE POP POP JUMP JUMPDEST PUSH0 PUSH2 0x2A4F DUP3 DUP8 PUSH2 0x297B JUMP JUMPDEST PUSH1 0x20 DUP3 ADD SWAP2 POP PUSH2 0x2A5F DUP3 DUP7 PUSH2 0x29D1 JUMP JUMPDEST PUSH1 0x14 DUP3 ADD SWAP2 POP PUSH2 0x2A6F DUP3 DUP6 PUSH2 0x29F9 JUMP JUMPDEST PUSH1 0x14 DUP3 ADD SWAP2 POP PUSH2 0x2A7F DUP3 DUP5 PUSH2 0x2A2D JUMP JUMPDEST PUSH1 0x1D DUP3 ADD SWAP2 POP DUP2 SWAP1 POP SWAP6 SWAP5 POP POP POP POP POP JUMP JUMPDEST PUSH32 0x4D696E696D756D20696E766573746D656E7420616D6F756E7420697320726571 PUSH0 DUP3 ADD MSTORE PUSH32 0x75697265642C6974277320736D616C6C6572207468616E20746865206D696E69 PUSH1 0x20 DUP3 ADD MSTORE PUSH32 0x6D756D206465706F736974000000000000000000000000000000000000000000 PUSH1 0x40 DUP3 ADD MSTORE POP JUMP JUMPDEST PUSH0 PUSH2 0x2B11 PUSH1 0x4B DUP4 PUSH2 0x233C JUMP JUMPDEST SWAP2 POP PUSH2 0x2B1C DUP3 PUSH2 0x2A91 JUMP JUMPDEST PUSH1 0x60 DUP3 ADD SWAP1 POP SWAP2 SWAP1 POP JUMP JUMPDEST PUSH0 PUSH1 0x20 DUP3 ADD SWAP1 POP DUP2 DUP2 SUB PUSH0 DUP4 ADD MSTORE PUSH2 0x2B3E DUP2 PUSH2 0x2B05 JUMP JUMPDEST SWAP1 POP SWAP2 SWAP1 POP JUMP JUMPDEST PUSH32 0x4E6F7420656E6F7567682066756E6420746F2077697468647261772100000000 PUSH0 DUP3 ADD MSTORE POP JUMP JUMPDEST PUSH0 PUSH2 0x2B79 PUSH1 0x1C DUP4 PUSH2 0x233C JUMP JUMPDEST SWAP2 POP PUSH2 0x2B84 DUP3 PUSH2 0x2B45 JUMP JUMPDEST PUSH1 0x20 DUP3 ADD SWAP1 POP SWAP2 SWAP1 POP JUMP JUMPDEST PUSH0 PUSH1 0x20 DUP3 ADD SWAP1 POP DUP2 DUP2 SUB PUSH0 DUP4 ADD MSTORE PUSH2 0x2BA6 DUP2 PUSH2 0x2B6D JUMP JUMPDEST SWAP1 POP SWAP2 SWAP1 POP JUMP JUMPDEST PUSH32 0x43616E6E6F74207769746864726177206166746572206F6E65207765656B2100 PUSH0 DUP3 ADD MSTORE POP JUMP JUMPDEST PUSH0 PUSH2 0x2BE1 PUSH1 0x1F DUP4 PUSH2 0x233C JUMP JUMPDEST SWAP2 POP PUSH2 0x2BEC DUP3 PUSH2 0x2BAD JUMP JUMPDEST PUSH1 0x20 DUP3 ADD SWAP1 POP SWAP2 SWAP1 POP JUMP JUMPDEST PUSH0 PUSH1 0x20 DUP3 ADD SWAP1 POP DUP2 DUP2 SUB PUSH0 DUP4 ADD MSTORE PUSH2 0x2C0E DUP2 PUSH2 0x2BD5 JUMP JUMPDEST SWAP1 POP SWAP2 SWAP1 POP JUMP JUMPDEST PUSH32 0x496E73756666696369656E742066756E6420746F207769746864726177210000 PUSH0 DUP3 ADD MSTORE POP JUMP JUMPDEST PUSH0 PUSH2 0x2C49 PUSH1 0x1E DUP4 PUSH2 0x233C JUMP JUMPDEST SWAP2 POP PUSH2 0x2C54 DUP3 PUSH2 0x2C15 JUMP JUMPDEST PUSH1 0x20 DUP3 ADD SWAP1 POP SWAP2 SWAP1 POP JUMP JUMPDEST PUSH0 PUSH1 0x20 DUP3 ADD SWAP1 POP DUP2 DUP2 SUB PUSH0 DUP4 ADD MSTORE PUSH2 0x2C76 DUP2 PUSH2 0x2C3D JUMP JUMPDEST SWAP1 POP SWAP2 SWAP1 POP JUMP JUMPDEST PUSH32 0x596F75206D7573742062652074686520646576656C6F70657200000000000000 PUSH0 DUP3 ADD MSTORE POP JUMP JUMPDEST PUSH0 PUSH2 0x2CB1 PUSH1 0x19 DUP4 PUSH2 0x233C JUMP JUMPDEST SWAP2 POP PUSH2 0x2CBC DUP3 PUSH2 0x2C7D JUMP JUMPDEST PUSH1 0x20 DUP3 ADD SWAP1 POP SWAP2 SWAP1 POP JUMP JUMPDEST PUSH0 PUSH1 0x20 DUP3 ADD SWAP1 POP DUP2 DUP2 SUB PUSH0 DUP4 ADD MSTORE PUSH2 0x2CDE DUP2 PUSH2 0x2CA5 JUMP JUMPDEST SWAP1 POP SWAP2 SWAP1 POP JUMP JUMPDEST PUSH32 0x4E487B7100000000000000000000000000000000000000000000000000000000 PUSH0 MSTORE PUSH1 0x1 PUSH1 0x4 MSTORE PUSH1 0x24 PUSH0 REVERT INVALID LOG2 PUSH5 0x6970667358 0x22 SLT KECCAK256 JUMPI 0xB8 0xB1 DUP16 0xC7 ORIGIN DUP4 0xB9 SWAP14 DUP16 PUSH10 0x1D6759CCCA0364BDA641 0xA8 0xAF LOG0 0xE RETURNDATASIZE ISZERO 0x4F 0xB2 0xF8 0xD2 STOP PUSH5 0x736F6C6343 STOP ADDMOD BYTE STOP CALLER "
				},
				"gasEstimates": {
					"creation": {
						"codeDepositCost": "2318400",
						"executionCost": "70975",
						"totalCost": "2389375"
					},
					"external": {
						"BuyEggs(uint16,uint8,uint232,address)": "infinite",
						"DevAddress()": "2594",
						"DeveloperWithdrawal()": "infinite",
						"DistributeInvestmentIncome()": "infinite",
						"InvestmentDeposit()": "infinite",
						"InvestmentWithdrawal(uint256)": "infinite",
						"InvestorsProfit()": "2491",
						"OpenEggs()": "infinite",
						"RecentDividendTime()": "2447",
						"TotalInvestmentAmount()": "2425",
						"WithdrawReferralProfit()": "infinite"
					},
					"internal": {
						"GetWinninggrade(uint32)": "331",
						"GetWinningmultiple(uint256)": "291",
						"SafeMathadd(uint256,uint256)": "infinite",
						"SafeMathdiv(uint256,uint256)": "infinite",
						"SafeMathmul(uint256,uint256)": "infinite",
						"SafeMathsub(uint256,uint256)": "infinite"
					}
				},
				"methodIdentifiers": {
					"BuyEggs(uint16,uint8,uint232,address)": "c9ea0299",
					"DevAddress()": "89a4c1a0",
					"DeveloperWithdrawal()": "f4e79b5b",
					"DistributeInvestmentIncome()": "12db1357",
					"InvestmentDeposit()": "49821332",
					"InvestmentWithdrawal(uint256)": "dd5f6f4d",
					"InvestorsProfit()": "ca6aae29",
					"OpenEggs()": "7da384fd",
					"RecentDividendTime()": "b1c617ff",
					"TotalInvestmentAmount()": "a659f4dc",
					"WithdrawReferralProfit()": "22629256"
				}
			},
			"storageLayout": {
				"storage": [
					{
						"astId": 56,
						"contract": "contracts/Lottery.sol:LotteryGame",
						"label": "DevAddress",
						"offset": 0,
						"slot": "0",
						"type": "t_address"
					},
					{
						"astId": 58,
						"contract": "contracts/Lottery.sol:LotteryGame",
						"label": "DevProfit",
						"offset": 0,
						"slot": "1",
						"type": "t_uint256"
					},
					{
						"astId": 61,
						"contract": "contracts/Lottery.sol:LotteryGame",
						"label": "investors",
						"offset": 0,
						"slot": "2",
						"type": "t_array(t_address)dyn_storage"
					},
					{
						"astId": 66,
						"contract": "contracts/Lottery.sol:LotteryGame",
						"label": "InvestorsBalance",
						"offset": 0,
						"slot": "3",
						"type": "t_mapping(t_address,t_struct(investorbalance)42_storage)"
					},
					{
						"astId": 68,
						"contract": "contracts/Lottery.sol:LotteryGame",
						"label": "TotalInvestmentAmount",
						"offset": 0,
						"slot": "4",
						"type": "t_uint256"
					},
					{
						"astId": 70,
						"contract": "contracts/Lottery.sol:LotteryGame",
						"label": "InvestorsProfit",
						"offset": 0,
						"slot": "5",
						"type": "t_uint256"
					},
					{
						"astId": 72,
						"contract": "contracts/Lottery.sol:LotteryGame",
						"label": "RecentDividendTime",
						"offset": 0,
						"slot": "6",
						"type": "t_uint256"
					},
					{
						"astId": 74,
						"contract": "contracts/Lottery.sol:LotteryGame",
						"label": "TotalReferralProfit",
						"offset": 0,
						"slot": "7",
						"type": "t_uint256"
					},
					{
						"astId": 76,
						"contract": "contracts/Lottery.sol:LotteryGame",
						"label": "LastBuyEggTime",
						"offset": 0,
						"slot": "8",
						"type": "t_uint256"
					},
					{
						"astId": 81,
						"contract": "contracts/Lottery.sol:LotteryGame",
						"label": "UsersInfo",
						"offset": 0,
						"slot": "9",
						"type": "t_mapping(t_address,t_struct(userinfo)26_storage)"
					},
					{
						"astId": 85,
						"contract": "contracts/Lottery.sol:LotteryGame",
						"label": "referrals",
						"offset": 0,
						"slot": "10",
						"type": "t_mapping(t_address,t_address)"
					},
					{
						"astId": 89,
						"contract": "contracts/Lottery.sol:LotteryGame",
						"label": "WinningRecord",
						"offset": 0,
						"slot": "11",
						"type": "t_array(t_struct(Winninginfo)35_storage)dyn_storage"
					}
				],
				"types": {
					"t_address": {
						"encoding": "inplace",
						"label": "address",
						"numberOfBytes": "20"
					},
					"t_array(t_address)dyn_storage": {
						"base": "t_address",
						"encoding": "dynamic_array",
						"label": "address[]",
						"numberOfBytes": "32"
					},
					"t_array(t_struct(Egginfo)8_storage)dyn_storage": {
						"base": "t_struct(Egginfo)8_storage",
						"encoding": "dynamic_array",
						"label": "struct LotteryGame.Egginfo[]",
						"numberOfBytes": "32"
					},
					"t_array(t_struct(OpenedLotInfo)13_storage)dyn_storage": {
						"base": "t_struct(OpenedLotInfo)13_storage",
						"encoding": "dynamic_array",
						"label": "struct LotteryGame.OpenedLotInfo[]",
						"numberOfBytes": "32"
					},
					"t_array(t_struct(Winninginfo)35_storage)dyn_storage": {
						"base": "t_struct(Winninginfo)35_storage",
						"encoding": "dynamic_array",
						"label": "struct LotteryGame.Winninginfo[]",
						"numberOfBytes": "32"
					},
					"t_bool": {
						"encoding": "inplace",
						"label": "bool",
						"numberOfBytes": "1"
					},
					"t_bytes32": {
						"encoding": "inplace",
						"label": "bytes32",
						"numberOfBytes": "32"
					},
					"t_mapping(t_address,t_address)": {
						"encoding": "mapping",
						"key": "t_address",
						"label": "mapping(address => address)",
						"numberOfBytes": "32",
						"value": "t_address"
					},
					"t_mapping(t_address,t_struct(investorbalance)42_storage)": {
						"encoding": "mapping",
						"key": "t_address",
						"label": "mapping(address => struct LotteryGame.investorbalance)",
						"numberOfBytes": "32",
						"value": "t_struct(investorbalance)42_storage"
					},
					"t_mapping(t_address,t_struct(userinfo)26_storage)": {
						"encoding": "mapping",
						"key": "t_address",
						"label": "mapping(address => struct LotteryGame.userinfo)",
						"numberOfBytes": "32",
						"value": "t_struct(userinfo)26_storage"
					},
					"t_struct(Egginfo)8_storage": {
						"encoding": "inplace",
						"label": "struct LotteryGame.Egginfo",
						"members": [
							{
								"astId": 3,
								"contract": "contracts/Lottery.sol:LotteryGame",
								"label": "uid",
								"offset": 0,
								"slot": "0",
								"type": "t_bytes32"
							},
							{
								"astId": 5,
								"contract": "contracts/Lottery.sol:LotteryGame",
								"label": "mul",
								"offset": 0,
								"slot": "1",
								"type": "t_uint8"
							},
							{
								"astId": 7,
								"contract": "contracts/Lottery.sol:LotteryGame",
								"label": "blocknumber",
								"offset": 1,
								"slot": "1",
								"type": "t_uint248"
							}
						],
						"numberOfBytes": "64"
					},
					"t_struct(OpenedLotInfo)13_storage": {
						"encoding": "inplace",
						"label": "struct LotteryGame.OpenedLotInfo",
						"members": [
							{
								"astId": 10,
								"contract": "contracts/Lottery.sol:LotteryGame",
								"label": "Lotterynum",
								"offset": 0,
								"slot": "0",
								"type": "t_uint32"
							},
							{
								"astId": 12,
								"contract": "contracts/Lottery.sol:LotteryGame",
								"label": "mul",
								"offset": 4,
								"slot": "0",
								"type": "t_uint8"
							}
						],
						"numberOfBytes": "32"
					},
					"t_struct(Winninginfo)35_storage": {
						"encoding": "inplace",
						"label": "struct LotteryGame.Winninginfo",
						"members": [
							{
								"astId": 28,
								"contract": "contracts/Lottery.sol:LotteryGame",
								"label": "LotteryNum",
								"offset": 0,
								"slot": "0",
								"type": "t_uint32"
							},
							{
								"astId": 30,
								"contract": "contracts/Lottery.sol:LotteryGame",
								"label": "mul",
								"offset": 4,
								"slot": "0",
								"type": "t_uint8"
							},
							{
								"astId": 32,
								"contract": "contracts/Lottery.sol:LotteryGame",
								"label": "timestamp",
								"offset": 0,
								"slot": "1",
								"type": "t_uint256"
							},
							{
								"astId": 34,
								"contract": "contracts/Lottery.sol:LotteryGame",
								"label": "winner",
								"offset": 0,
								"slot": "2",
								"type": "t_address"
							}
						],
						"numberOfBytes": "96"
					},
					"t_struct(investorbalance)42_storage": {
						"encoding": "inplace",
						"label": "struct LotteryGame.investorbalance",
						"members": [
							{
								"astId": 37,
								"contract": "contracts/Lottery.sol:LotteryGame",
								"label": "balance",
								"offset": 0,
								"slot": "0",
								"type": "t_uint256"
							},
							{
								"astId": 39,
								"contract": "contracts/Lottery.sol:LotteryGame",
								"label": "LastInvestTime",
								"offset": 0,
								"slot": "1",
								"type": "t_uint256"
							},
							{
								"astId": 41,
								"contract": "contracts/Lottery.sol:LotteryGame",
								"label": "HasInvested",
								"offset": 0,
								"slot": "2",
								"type": "t_bool"
							}
						],
						"numberOfBytes": "96"
					},
					"t_struct(userinfo)26_storage": {
						"encoding": "inplace",
						"label": "struct LotteryGame.userinfo",
						"members": [
							{
								"astId": 17,
								"contract": "contracts/Lottery.sol:LotteryGame",
								"label": "eggsinfo",
								"offset": 0,
								"slot": "0",
								"type": "t_array(t_struct(Egginfo)8_storage)dyn_storage"
							},
							{
								"astId": 21,
								"contract": "contracts/Lottery.sol:LotteryGame",
								"label": "openedeggs",
								"offset": 0,
								"slot": "1",
								"type": "t_array(t_struct(OpenedLotInfo)13_storage)dyn_storage"
							},
							{
								"astId": 23,
								"contract": "contracts/Lottery.sol:LotteryGame",
								"label": "ReferralProfit",
								"offset": 0,
								"slot": "2",
								"type": "t_uint256"
							},
							{
								"astId": 25,
								"contract": "contracts/Lottery.sol:LotteryGame",
								"label": "actived",
								"offset": 0,
								"slot": "3",
								"type": "t_bool"
							}
						],
						"numberOfBytes": "128"
					},
					"t_uint248": {
						"encoding": "inplace",
						"label": "uint248",
						"numberOfBytes": "31"
					},
					"t_uint256": {
						"encoding": "inplace",
						"label": "uint256",
						"numberOfBytes": "32"
					},
					"t_uint32": {
						"encoding": "inplace",
						"label": "uint32",
						"numberOfBytes": "4"
					},
					"t_uint8": {
						"encoding": "inplace",
						"label": "uint8",
						"numberOfBytes": "1"
					}
				}
			},
			"userdoc": {
				"kind": "user",
				"methods": {},
				"version": 1
			}
		}
	}
}