{
	"contracts/Lottery.sol": {
		"LotteryGame": {
			"abi": [
				{
					"inputs": [],
					"stateMutability": "nonpayable",
					"type": "constructor"
				},
				{
					"inputs": [
						{
							"internalType": "uint16",
							"name": "LotCount",
							"type": "uint16"
						},
						{
							"internalType": "uint8",
							"name": "mul",
							"type": "uint8"
						},
						{
							"internalType": "uint232",
							"name": "Lucknum",
							"type": "uint232"
						},
						{
							"internalType": "address",
							"name": "ref",
							"type": "address"
						}
					],
					"name": "BuyEggs",
					"outputs": [],
					"stateMutability": "payable",
					"type": "function"
				},
				{
					"inputs": [],
					"name": "DestructContract",
					"outputs": [],
					"stateMutability": "nonpayable",
					"type": "function"
				},
				{
					"inputs": [],
					"name": "DevAddress",
					"outputs": [
						{
							"internalType": "address",
							"name": "",
							"type": "address"
						}
					],
					"stateMutability": "view",
					"type": "function"
				},
				{
					"inputs": [],
					"name": "DeveloperWithdrawal",
					"outputs": [],
					"stateMutability": "nonpayable",
					"type": "function"
				},
				{
					"inputs": [],
					"name": "DistributeInvestmentIncome",
					"outputs": [],
					"stateMutability": "nonpayable",
					"type": "function"
				},
				{
					"inputs": [
						{
							"internalType": "address",
							"name": "addr",
							"type": "address"
						}
					],
					"name": "GetInvestmentBalance",
					"outputs": [
						{
							"internalType": "uint256",
							"name": "",
							"type": "uint256"
						}
					],
					"stateMutability": "view",
					"type": "function"
				},
				{
					"inputs": [],
					"name": "GetLatestLottery",
					"outputs": [
						{
							"components": [
								{
									"internalType": "uint32",
									"name": "Lotterynum",
									"type": "uint32"
								},
								{
									"internalType": "uint8",
									"name": "mul",
									"type": "uint8"
								}
							],
							"internalType": "struct LotteryGame.OpenedLotInfo[]",
							"name": "",
							"type": "tuple[]"
						}
					],
					"stateMutability": "view",
					"type": "function"
				},
				{
					"inputs": [
						{
							"internalType": "uint256",
							"name": "RecordCount",
							"type": "uint256"
						}
					],
					"name": "GetWinningRecord",
					"outputs": [
						{
							"components": [
								{
									"internalType": "uint32",
									"name": "LotteryNum",
									"type": "uint32"
								},
								{
									"internalType": "uint8",
									"name": "mul",
									"type": "uint8"
								},
								{
									"internalType": "uint256",
									"name": "timestamp",
									"type": "uint256"
								},
								{
									"internalType": "address",
									"name": "winner",
									"type": "address"
								}
							],
							"internalType": "struct LotteryGame.Winninginfo[]",
							"name": "",
							"type": "tuple[]"
						}
					],
					"stateMutability": "view",
					"type": "function"
				},
				{
					"inputs": [],
					"name": "InvestmentDeposit",
					"outputs": [],
					"stateMutability": "payable",
					"type": "function"
				},
				{
					"inputs": [
						{
							"internalType": "uint256",
							"name": "WithdrawalAmount",
							"type": "uint256"
						}
					],
					"name": "InvestmentWithdrawal",
					"outputs": [],
					"stateMutability": "nonpayable",
					"type": "function"
				},
				{
					"inputs": [],
					"name": "InvestorsProfit",
					"outputs": [
						{
							"internalType": "uint256",
							"name": "",
							"type": "uint256"
						}
					],
					"stateMutability": "view",
					"type": "function"
				},
				{
					"inputs": [],
					"name": "OpenEggs",
					"outputs": [],
					"stateMutability": "nonpayable",
					"type": "function"
				},
				{
					"inputs": [],
					"name": "RecentDividendTime",
					"outputs": [
						{
							"internalType": "uint256",
							"name": "",
							"type": "uint256"
						}
					],
					"stateMutability": "view",
					"type": "function"
				},
				{
					"inputs": [],
					"name": "TotalInvestmentAmount",
					"outputs": [
						{
							"internalType": "uint256",
							"name": "",
							"type": "uint256"
						}
					],
					"stateMutability": "view",
					"type": "function"
				},
				{
					"inputs": [],
					"name": "WithdrawReferralProfit",
					"outputs": [],
					"stateMutability": "nonpayable",
					"type": "function"
				}
			],
			"devdoc": {
				"kind": "dev",
				"methods": {},
				"version": 1
			},
			"evm": {
				"assembly": "    /* \"contracts/Lottery.sol\":70:18486  contract LotteryGame {... */\n  mstore(0x40, 0x80)\n    /* \"contracts/Lottery.sol\":2929:3071  constructor() {... */\n  callvalue\n  dup1\n  iszero\n  tag_1\n  jumpi\n  0x00\n  dup1\n  revert\ntag_1:\n  pop\n    /* \"contracts/Lottery.sol\":2953:2963  DevAddress */\n  0x00\n    /* \"contracts/Lottery.sol\":2953:2976  DevAddress = msg.sender */\n  dup1\n  sload\n  not(sub(shl(0xa0, 0x01), 0x01))\n  and\n    /* \"contracts/Lottery.sol\":2966:2976  msg.sender */\n  caller\n    /* \"contracts/Lottery.sol\":2953:2976  DevAddress = msg.sender */\n  or\n  swap1\n  sstore\n    /* \"contracts/Lottery.sol\":3007:3022  block.timestamp */\n  timestamp\n    /* \"contracts/Lottery.sol\":2986:3004  RecentDividendTime */\n  0x06\n    /* \"contracts/Lottery.sol\":2986:3022  RecentDividendTime = block.timestamp */\n  dup2\n  swap1\n  sstore\n    /* \"contracts/Lottery.sol\":3032:3046  LastBuyEggTime */\n  0x08\n    /* \"contracts/Lottery.sol\":3032:3064  LastBuyEggTime = block.timestamp */\n  sstore\n    /* \"contracts/Lottery.sol\":70:18486  contract LotteryGame {... */\n  dataSize(sub_0)\n  dup1\n  dataOffset(sub_0)\n  0x00\n  codecopy\n  0x00\n  return\nstop\n\nsub_0: assembly {\n        /* \"contracts/Lottery.sol\":70:18486  contract LotteryGame {... */\n      mstore(0x40, 0x80)\n      jumpi(tag_1, lt(calldatasize, 0x04))\n      shr(0xe0, calldataload(0x00))\n      dup1\n      0xa659f4dc\n      gt\n      tag_17\n      jumpi\n      dup1\n      0xcf438305\n      gt\n      tag_18\n      jumpi\n      dup1\n      0xcf438305\n      eq\n      tag_13\n      jumpi\n      dup1\n      0xd9498a83\n      eq\n      tag_14\n      jumpi\n      dup1\n      0xdd5f6f4d\n      eq\n      tag_15\n      jumpi\n      dup1\n      0xf4e79b5b\n      eq\n      tag_16\n      jumpi\n      0x00\n      dup1\n      revert\n    tag_18:\n      dup1\n      0xa659f4dc\n      eq\n      tag_9\n      jumpi\n      dup1\n      0xb1c617ff\n      eq\n      tag_10\n      jumpi\n      dup1\n      0xc9ea0299\n      eq\n      tag_11\n      jumpi\n      dup1\n      0xca6aae29\n      eq\n      tag_12\n      jumpi\n      0x00\n      dup1\n      revert\n    tag_17:\n      dup1\n      0x2b5baca1\n      gt\n      tag_19\n      jumpi\n      dup1\n      0x2b5baca1\n      eq\n      tag_5\n      jumpi\n      dup1\n      0x49821332\n      eq\n      tag_6\n      jumpi\n      dup1\n      0x7da384fd\n      eq\n      tag_7\n      jumpi\n      dup1\n      0x89a4c1a0\n      eq\n      tag_8\n      jumpi\n      0x00\n      dup1\n      revert\n    tag_19:\n      dup1\n      0x12db1357\n      eq\n      tag_2\n      jumpi\n      dup1\n      0x22629256\n      eq\n      tag_3\n      jumpi\n      dup1\n      0x289f9019\n      eq\n      tag_4\n      jumpi\n    tag_1:\n      0x00\n      dup1\n      revert\n        /* \"contracts/Lottery.sol\":13714:15297  function DistributeInvestmentIncome() external {... */\n    tag_2:\n      callvalue\n      dup1\n      iszero\n      tag_20\n      jumpi\n      0x00\n      dup1\n      revert\n    tag_20:\n      pop\n      tag_21\n      tag_22\n      jump\t// in\n    tag_21:\n      stop\n        /* \"contracts/Lottery.sol\":15332:15771  function WithdrawReferralProfit() external {... */\n    tag_3:\n      callvalue\n      dup1\n      iszero\n      tag_23\n      jumpi\n      0x00\n      dup1\n      revert\n    tag_23:\n      pop\n      tag_21\n      tag_25\n      jump\t// in\n        /* \"contracts/Lottery.sol\":17057:18484  function DestructContract() external {... */\n    tag_4:\n      callvalue\n      dup1\n      iszero\n      tag_26\n      jumpi\n      0x00\n      dup1\n      revert\n    tag_26:\n      pop\n      tag_21\n      tag_28\n      jump\t// in\n        /* \"contracts/Lottery.sol\":16069:16642  function GetWinningRecord(uint256 RecordCount)... */\n    tag_5:\n      callvalue\n      dup1\n      iszero\n      tag_29\n      jumpi\n      0x00\n      dup1\n      revert\n    tag_29:\n      pop\n      tag_30\n      tag_31\n      calldatasize\n      0x04\n      tag_32\n      jump\t// in\n    tag_31:\n      tag_33\n      jump\t// in\n    tag_30:\n      mload(0x40)\n      tag_34\n      swap2\n      swap1\n      tag_35\n      jump\t// in\n    tag_34:\n      mload(0x40)\n      dup1\n      swap2\n      sub\n      swap1\n      return\n        /* \"contracts/Lottery.sol\":11279:12272  function InvestmentDeposit() external payable {... */\n    tag_6:\n      tag_21\n      tag_37\n      jump\t// in\n        /* \"contracts/Lottery.sol\":7857:11250  function OpenEggs() external {... */\n    tag_7:\n      callvalue\n      dup1\n      iszero\n      tag_38\n      jumpi\n      0x00\n      dup1\n      revert\n    tag_38:\n      pop\n      tag_21\n      tag_40\n      jump\t// in\n        /* \"contracts/Lottery.sol\":1699:1724  address public DevAddress */\n    tag_8:\n      callvalue\n      dup1\n      iszero\n      tag_41\n      jumpi\n      0x00\n      dup1\n      revert\n    tag_41:\n      pop\n      sload(0x00)\n      tag_42\n      swap1\n      sub(shl(0xa0, 0x01), 0x01)\n      and\n      dup2\n      jump\n    tag_42:\n      mload(0x40)\n      sub(shl(0xa0, 0x01), 0x01)\n        /* \"#utility.yul\":1284:1316   */\n      swap1\n      swap2\n      and\n        /* \"#utility.yul\":1266:1317   */\n      dup2\n      mstore\n        /* \"#utility.yul\":1254:1256   */\n      0x20\n        /* \"#utility.yul\":1239:1257   */\n      add\n        /* \"contracts/Lottery.sol\":1699:1724  address public DevAddress */\n      tag_34\n        /* \"#utility.yul\":1120:1323   */\n      jump\n        /* \"contracts/Lottery.sol\":2079:2115  uint256 public TotalInvestmentAmount */\n    tag_9:\n      callvalue\n      dup1\n      iszero\n      tag_46\n      jumpi\n      0x00\n      dup1\n      revert\n    tag_46:\n      pop\n      tag_47\n      sload(0x04)\n      dup2\n      jump\n    tag_47:\n      mload(0x40)\n        /* \"#utility.yul\":1474:1499   */\n      swap1\n      dup2\n      mstore\n        /* \"#utility.yul\":1462:1464   */\n      0x20\n        /* \"#utility.yul\":1447:1465   */\n      add\n        /* \"contracts/Lottery.sol\":2079:2115  uint256 public TotalInvestmentAmount */\n      tag_34\n        /* \"#utility.yul\":1328:1505   */\n      jump\n        /* \"contracts/Lottery.sol\":2239:2272  uint256 public RecentDividendTime */\n    tag_10:\n      callvalue\n      dup1\n      iszero\n      tag_51\n      jumpi\n      0x00\n      dup1\n      revert\n    tag_51:\n      pop\n      tag_47\n      sload(0x06)\n      dup2\n      jump\n        /* \"contracts/Lottery.sol\":4155:6544  function BuyEggs(... */\n    tag_11:\n      tag_21\n      tag_56\n      calldatasize\n      0x04\n      tag_57\n      jump\t// in\n    tag_56:\n      tag_58\n      jump\t// in\n        /* \"contracts/Lottery.sol\":2170:2200  uint256 public InvestorsProfit */\n    tag_12:\n      callvalue\n      dup1\n      iszero\n      tag_59\n      jumpi\n      0x00\n      dup1\n      revert\n    tag_59:\n      pop\n      tag_47\n      sload(0x05)\n      dup2\n      jump\n        /* \"contracts/Lottery.sol\":16835:16963  function GetInvestmentBalance(address addr) public view returns (uint256) {... */\n    tag_13:\n      callvalue\n      dup1\n      iszero\n      tag_63\n      jumpi\n      0x00\n      dup1\n      revert\n    tag_63:\n      pop\n      tag_47\n      tag_65\n      calldatasize\n      0x04\n      tag_66\n      jump\t// in\n    tag_65:\n      sub(shl(0xa0, 0x01), 0x01)\n        /* \"contracts/Lottery.sol\":16926:16948  InvestorsBalance[addr] */\n      and\n        /* \"contracts/Lottery.sol\":16900:16907  uint256 */\n      0x00\n        /* \"contracts/Lottery.sol\":16926:16948  InvestorsBalance[addr] */\n      swap1\n      dup2\n      mstore\n        /* \"contracts/Lottery.sol\":16926:16942  InvestorsBalance */\n      0x03\n        /* \"contracts/Lottery.sol\":16926:16948  InvestorsBalance[addr] */\n      0x20\n      mstore\n      0x40\n      swap1\n      keccak256\n        /* \"contracts/Lottery.sol\":16926:16956  InvestorsBalance[addr].balance */\n      sload\n      swap1\n        /* \"contracts/Lottery.sol\":16835:16963  function GetInvestmentBalance(address addr) public view returns (uint256) {... */\n      jump\n        /* \"contracts/Lottery.sol\":16674:16803  function GetLatestLottery() public view returns (OpenedLotInfo[] memory) {... */\n    tag_14:\n      callvalue\n      dup1\n      iszero\n      tag_69\n      jumpi\n      0x00\n      dup1\n      revert\n    tag_69:\n      pop\n      tag_70\n      tag_71\n      jump\t// in\n    tag_70:\n      mload(0x40)\n      tag_34\n      swap2\n      swap1\n      tag_73\n      jump\t// in\n        /* \"contracts/Lottery.sol\":12301:13685  function InvestmentWithdrawal(uint256 WithdrawalAmount) external {... */\n    tag_15:\n      callvalue\n      dup1\n      iszero\n      tag_74\n      jumpi\n      0x00\n      dup1\n      revert\n    tag_74:\n      pop\n      tag_21\n      tag_76\n      calldatasize\n      0x04\n      tag_32\n      jump\t// in\n    tag_76:\n      tag_77\n      jump\t// in\n        /* \"contracts/Lottery.sol\":15806:16037  function DeveloperWithdrawal() external {... */\n    tag_16:\n      callvalue\n      dup1\n      iszero\n      tag_78\n      jumpi\n      0x00\n      dup1\n      revert\n    tag_78:\n      pop\n      tag_21\n      tag_80\n      jump\t// in\n        /* \"contracts/Lottery.sol\":13714:15297  function DistributeInvestmentIncome() external {... */\n    tag_22:\n        /* \"contracts/Lottery.sol\":13900:13910  msg.sender */\n      caller\n        /* \"contracts/Lottery.sol\":13883:13911  InvestorsBalance[msg.sender] */\n      0x00\n      swap1\n      dup2\n      mstore\n        /* \"contracts/Lottery.sol\":13883:13899  InvestorsBalance */\n      0x03\n        /* \"contracts/Lottery.sol\":13883:13911  InvestorsBalance[msg.sender] */\n      0x20\n      mstore\n      0x40\n      swap1\n      keccak256\n        /* \"contracts/Lottery.sol\":13883:13919  InvestorsBalance[msg.sender].balance */\n      sload\n        /* \"contracts/Lottery.sol\":1547:1554  1 ether */\n      0x0de0b6b3a7640000\n      gt\n        /* \"contracts/Lottery.sol\":13883:13948  InvestorsBalance[msg.sender].balance >= Mininum_Investment_amount */\n      iszero\n      dup1\n        /* \"contracts/Lottery.sol\":13883:13992  InvestorsBalance[msg.sender].balance >= Mininum_Investment_amount ||... */\n      tag_82\n      jumpi\n      pop\n        /* \"contracts/Lottery.sol\":13982:13992  DevAddress */\n      and(sub(shl(0xa0, 0x01), 0x01), sload(0x00))\n        /* \"contracts/Lottery.sol\":13968:13978  msg.sender */\n      caller\n        /* \"contracts/Lottery.sol\":13968:13992  msg.sender == DevAddress */\n      eq\n        /* \"contracts/Lottery.sol\":13883:13992  InvestorsBalance[msg.sender].balance >= Mininum_Investment_amount ||... */\n    tag_82:\n        /* \"contracts/Lottery.sol\":13862:14040  require(... */\n      tag_83\n      jumpi\n      mload(0x40)\n      shl(0xe5, 0x461bcd)\n      dup2\n      mstore\n        /* \"#utility.yul\":3567:3569   */\n      0x20\n        /* \"contracts/Lottery.sol\":13862:14040  require(... */\n      0x04\n      dup3\n      add\n        /* \"#utility.yul\":3549:3570   */\n      mstore\n        /* \"#utility.yul\":3606:3608   */\n      0x16\n        /* \"#utility.yul\":3586:3604   */\n      0x24\n      dup3\n      add\n        /* \"#utility.yul\":3579:3609   */\n      mstore\n      shl(0x51, 0x2cb7ba9036bab9ba10313290309034b73b32b9ba37b9)\n        /* \"#utility.yul\":3625:3643   */\n      0x44\n      dup3\n      add\n        /* \"#utility.yul\":3618:3670   */\n      mstore\n        /* \"#utility.yul\":3687:3705   */\n      0x64\n      add\n        /* \"contracts/Lottery.sol\":13862:14040  require(... */\n    tag_84:\n      mload(0x40)\n      dup1\n      swap2\n      sub\n      swap1\n      revert\n    tag_83:\n        /* \"contracts/Lottery.sol\":14080:14095  InvestorsProfit */\n      sload(0x05)\n        /* \"contracts/Lottery.sol\":14331:14340  DevProfit */\n      sload(0x01)\n        /* \"contracts/Lottery.sol\":14309:14328  TotalReferralProfit */\n      sload(0x07)\n        /* \"contracts/Lottery.sol\":14051:14077  uint256 Tmpinvestorsprofit */\n      0x00\n      swap2\n      dup3\n      swap2\n        /* \"contracts/Lottery.sol\":14230:14351  SafeMathsub(... */\n      tag_86\n      swap2\n        /* \"contracts/Lottery.sol\":14255:14276  address(this).balance */\n      selfbalance\n      swap2\n        /* \"contracts/Lottery.sol\":14291:14328  InvestorsProfit + TotalReferralProfit */\n      tag_87\n      swap1\n        /* \"contracts/Lottery.sol\":14080:14095  InvestorsProfit */\n      dup8\n        /* \"contracts/Lottery.sol\":14291:14328  InvestorsProfit + TotalReferralProfit */\n      tag_88\n      jump\t// in\n    tag_87:\n        /* \"contracts/Lottery.sol\":14291:14340  InvestorsProfit + TotalReferralProfit + DevProfit */\n      tag_89\n      swap2\n      swap1\n      tag_88\n      jump\t// in\n    tag_89:\n        /* \"contracts/Lottery.sol\":14230:14241  SafeMathsub */\n      tag_90\n        /* \"contracts/Lottery.sol\":14230:14351  SafeMathsub(... */\n      jump\t// in\n    tag_86:\n        /* \"contracts/Lottery.sol\":14210:14351  uint256 prizepool = SafeMathsub(... */\n      swap1\n      pop\n        /* \"contracts/Lottery.sol\":1438:1449  10000 ether */\n      0x021e19e0c9bab2400000\n        /* \"contracts/Lottery.sol\":14366:14375  prizepool */\n      dup2\n        /* \"contracts/Lottery.sol\":14366:14402  prizepool >= Maxinum_Investment_pool */\n      lt\n        /* \"contracts/Lottery.sol\":14362:14513  if (prizepool >= Maxinum_Investment_pool) {... */\n      tag_91\n      jumpi\n        /* \"contracts/Lottery.sol\":14440:14455  prizepool / 200 */\n      tag_92\n        /* \"contracts/Lottery.sol\":14452:14455  200 */\n      0xc8\n        /* \"contracts/Lottery.sol\":14440:14449  prizepool */\n      dup3\n        /* \"contracts/Lottery.sol\":14440:14455  prizepool / 200 */\n      tag_93\n      jump\t// in\n    tag_92:\n        /* \"contracts/Lottery.sol\":14418:14455  Tmpinvestorsprofit += prizepool / 200 */\n      tag_94\n      swap1\n      dup5\n      tag_88\n      jump\t// in\n    tag_94:\n      swap3\n      pop\n        /* \"contracts/Lottery.sol\":14487:14502  prizepool / 200 */\n      tag_95\n        /* \"contracts/Lottery.sol\":14499:14502  200 */\n      0xc8\n        /* \"contracts/Lottery.sol\":14487:14496  prizepool */\n      dup3\n        /* \"contracts/Lottery.sol\":14487:14502  prizepool / 200 */\n      tag_93\n      jump\t// in\n    tag_95:\n        /* \"contracts/Lottery.sol\":14469:14502  developeraward += prizepool / 200 */\n      tag_96\n      swap1\n      dup4\n      tag_88\n      jump\t// in\n    tag_96:\n      swap2\n      pop\n        /* \"contracts/Lottery.sol\":14362:14513  if (prizepool >= Maxinum_Investment_pool) {... */\n    tag_91:\n        /* \"contracts/Lottery.sol\":14540:14541  0 */\n      0x00\n        /* \"contracts/Lottery.sol\":14522:14537  InvestorsProfit */\n      0x05\n        /* \"contracts/Lottery.sol\":14522:14541  InvestorsProfit = 0 */\n      dup2\n      swap1\n      sstore\n        /* \"contracts/Lottery.sol\":14552:15188  for (uint256 i = 0; i < investors.length; i++) {... */\n    tag_97:\n        /* \"contracts/Lottery.sol\":14576:14585  investors */\n      0x02\n        /* \"contracts/Lottery.sol\":14576:14592  investors.length */\n      sload\n        /* \"contracts/Lottery.sol\":14572:14592  i < investors.length */\n      dup2\n      lt\n        /* \"contracts/Lottery.sol\":14552:15188  for (uint256 i = 0; i < investors.length; i++) {... */\n      iszero\n      tag_98\n      jumpi\n        /* \"contracts/Lottery.sol\":1547:1554  1 ether */\n      0x0de0b6b3a7640000\n        /* \"contracts/Lottery.sol\":14634:14650  InvestorsBalance */\n      0x03\n        /* \"contracts/Lottery.sol\":14634:14664  InvestorsBalance[investors[i]] */\n      0x00\n        /* \"contracts/Lottery.sol\":14651:14660  investors */\n      0x02\n        /* \"contracts/Lottery.sol\":14661:14662  i */\n      dup5\n        /* \"contracts/Lottery.sol\":14651:14663  investors[i] */\n      dup2\n      sload\n      dup2\n      lt\n      tag_101\n      jumpi\n      tag_101\n      tag_102\n      jump\t// in\n    tag_101:\n      0x00\n      swap2\n      dup3\n      mstore\n      0x20\n      dup1\n      dup4\n      keccak256\n      swap1\n      swap2\n      add\n      sload\n      sub(shl(0xa0, 0x01), 0x01)\n      and\n        /* \"contracts/Lottery.sol\":14634:14664  InvestorsBalance[investors[i]] */\n      dup4\n      mstore\n      dup3\n      add\n      swap3\n      swap1\n      swap3\n      mstore\n      0x40\n      add\n      swap1\n      keccak256\n        /* \"contracts/Lottery.sol\":14634:14672  InvestorsBalance[investors[i]].balance */\n      sload\n        /* \"contracts/Lottery.sol\":14634:14717  InvestorsBalance[investors[i]].balance >=... */\n      lt\n        /* \"contracts/Lottery.sol\":14613:15178  if (... */\n      tag_104\n      jumpi\n        /* \"contracts/Lottery.sol\":14830:14856  uint256 thisinvestorprofit */\n      0x00\n        /* \"contracts/Lottery.sol\":14859:15094  SafeMathdiv(... */\n      tag_105\n        /* \"contracts/Lottery.sol\":14892:15033  SafeMathmul(... */\n      tag_106\n        /* \"contracts/Lottery.sol\":14929:14945  InvestorsBalance */\n      0x03\n        /* \"contracts/Lottery.sol\":14929:14959  InvestorsBalance[investors[i]] */\n      0x00\n        /* \"contracts/Lottery.sol\":14946:14955  investors */\n      0x02\n        /* \"contracts/Lottery.sol\":14956:14957  i */\n      dup7\n        /* \"contracts/Lottery.sol\":14946:14958  investors[i] */\n      dup2\n      sload\n      dup2\n      lt\n      tag_108\n      jumpi\n      tag_108\n      tag_102\n      jump\t// in\n    tag_108:\n      0x00\n      swap2\n      dup3\n      mstore\n      0x20\n      dup1\n      dup4\n      keccak256\n      swap1\n      swap2\n      add\n      sload\n      sub(shl(0xa0, 0x01), 0x01)\n      and\n        /* \"contracts/Lottery.sol\":14929:14959  InvestorsBalance[investors[i]] */\n      dup4\n      mstore\n      dup3\n      add\n      swap3\n      swap1\n      swap3\n      mstore\n      0x40\n      add\n      swap1\n      keccak256\n        /* \"contracts/Lottery.sol\":14929:14967  InvestorsBalance[investors[i]].balance */\n      sload\n        /* \"contracts/Lottery.sol\":14993:15011  Tmpinvestorsprofit */\n      dup8\n        /* \"contracts/Lottery.sol\":14892:14903  SafeMathmul */\n      tag_110\n        /* \"contracts/Lottery.sol\":14892:15033  SafeMathmul(... */\n      jump\t// in\n    tag_106:\n        /* \"contracts/Lottery.sol\":15055:15076  TotalInvestmentAmount */\n      sload(0x04)\n        /* \"contracts/Lottery.sol\":14859:14870  SafeMathdiv */\n      tag_111\n        /* \"contracts/Lottery.sol\":14859:15094  SafeMathdiv(... */\n      jump\t// in\n    tag_105:\n        /* \"contracts/Lottery.sol\":14830:15094  uint256 thisinvestorprofit = SafeMathdiv(... */\n      swap1\n      pop\n        /* \"contracts/Lottery.sol\":15121:15130  investors */\n      0x02\n        /* \"contracts/Lottery.sol\":15131:15132  i */\n      dup3\n        /* \"contracts/Lottery.sol\":15121:15133  investors[i] */\n      dup2\n      sload\n      dup2\n      lt\n      tag_113\n      jumpi\n      tag_113\n      tag_102\n      jump\t// in\n    tag_113:\n      0x00\n      swap2\n      dup3\n      mstore\n      0x20\n      dup3\n      keccak256\n      add\n      sload\n        /* \"contracts/Lottery.sol\":15113:15163  payable(investors[i]).transfer(thisinvestorprofit) */\n      mload(0x40)\n      sub(shl(0xa0, 0x01), 0x01)\n        /* \"contracts/Lottery.sol\":15121:15133  investors[i] */\n      swap1\n      swap2\n      and\n      swap2\n        /* \"contracts/Lottery.sol\":15113:15163  payable(investors[i]).transfer(thisinvestorprofit) */\n      dup4\n      iszero\n      0x08fc\n      mul\n      swap2\n        /* \"contracts/Lottery.sol\":15144:15162  thisinvestorprofit */\n      dup5\n      swap2\n        /* \"contracts/Lottery.sol\":15113:15163  payable(investors[i]).transfer(thisinvestorprofit) */\n      dup2\n        /* \"contracts/Lottery.sol\":15121:15133  investors[i] */\n      dup2\n        /* \"contracts/Lottery.sol\":15113:15163  payable(investors[i]).transfer(thisinvestorprofit) */\n      dup2\n        /* \"contracts/Lottery.sol\":15144:15162  thisinvestorprofit */\n      dup6\n        /* \"contracts/Lottery.sol\":15121:15133  investors[i] */\n      dup9\n        /* \"contracts/Lottery.sol\":15113:15163  payable(investors[i]).transfer(thisinvestorprofit) */\n      dup9\n      call\n      swap4\n      pop\n      pop\n      pop\n      pop\n      iszero\n      dup1\n      iszero\n      tag_116\n      jumpi\n      returndatasize\n      0x00\n      dup1\n      returndatacopy\n      revert(0x00, returndatasize)\n    tag_116:\n      pop\n        /* \"contracts/Lottery.sol\":14732:15178  {... */\n      pop\n        /* \"contracts/Lottery.sol\":14613:15178  if (... */\n    tag_104:\n        /* \"contracts/Lottery.sol\":14594:14597  i++ */\n      0x01\n      add\n        /* \"contracts/Lottery.sol\":14552:15188  for (uint256 i = 0; i < investors.length; i++) {... */\n      jump(tag_97)\n    tag_98:\n      pop\n        /* \"contracts/Lottery.sol\":15202:15220  developeraward > 0 */\n      dup2\n      iszero\n        /* \"contracts/Lottery.sol\":15198:15291  if (developeraward > 0) {... */\n      tag_117\n      jumpi\n        /* \"contracts/Lottery.sol\":15244:15254  DevAddress */\n      0x00\n      dup1\n      sload\n        /* \"contracts/Lottery.sol\":15236:15280  payable(DevAddress).transfer(developeraward) */\n      mload(0x40)\n      sub(shl(0xa0, 0x01), 0x01)\n        /* \"contracts/Lottery.sol\":15244:15254  DevAddress */\n      swap1\n      swap2\n      and\n      swap2\n        /* \"contracts/Lottery.sol\":15236:15280  payable(DevAddress).transfer(developeraward) */\n      dup5\n      iszero\n      0x08fc\n      mul\n      swap2\n        /* \"contracts/Lottery.sol\":15265:15279  developeraward */\n      dup6\n      swap2\n        /* \"contracts/Lottery.sol\":15236:15280  payable(DevAddress).transfer(developeraward) */\n      dup2\n        /* \"contracts/Lottery.sol\":15244:15254  DevAddress */\n      dup2\n        /* \"contracts/Lottery.sol\":15236:15280  payable(DevAddress).transfer(developeraward) */\n      dup2\n        /* \"contracts/Lottery.sol\":15265:15279  developeraward */\n      dup6\n        /* \"contracts/Lottery.sol\":15244:15254  DevAddress */\n      dup9\n        /* \"contracts/Lottery.sol\":15236:15280  payable(DevAddress).transfer(developeraward) */\n      dup9\n      call\n      swap4\n      pop\n      pop\n      pop\n      pop\n      iszero\n      dup1\n      iszero\n      tag_119\n      jumpi\n      returndatasize\n      0x00\n      dup1\n      returndatacopy\n      revert(0x00, returndatasize)\n    tag_119:\n      pop\n        /* \"contracts/Lottery.sol\":15198:15291  if (developeraward > 0) {... */\n    tag_117:\n        /* \"contracts/Lottery.sol\":13761:15297  {... */\n      pop\n      pop\n      pop\n        /* \"contracts/Lottery.sol\":13714:15297  function DistributeInvestmentIncome() external {... */\n      jump\t// out\n        /* \"contracts/Lottery.sol\":15332:15771  function WithdrawReferralProfit() external {... */\n    tag_25:\n        /* \"contracts/Lottery.sol\":15468:15478  msg.sender */\n      caller\n        /* \"contracts/Lottery.sol\":15458:15479  UsersInfo[msg.sender] */\n      0x00\n      swap1\n      dup2\n      mstore\n        /* \"contracts/Lottery.sol\":15458:15467  UsersInfo */\n      0x09\n        /* \"contracts/Lottery.sol\":15458:15479  UsersInfo[msg.sender] */\n      0x20\n      mstore\n      0x40\n      swap1\n      keccak256\n        /* \"contracts/Lottery.sol\":15458:15494  UsersInfo[msg.sender].ReferralProfit */\n      0x02\n      add\n      sload\n        /* \"contracts/Lottery.sol\":15498:15508  0.01 ether */\n      0x2386f26fc10000\n      gt\n        /* \"contracts/Lottery.sol\":15458:15508  UsersInfo[msg.sender].ReferralProfit >= 0.01 ether */\n      iszero\n        /* \"contracts/Lottery.sol\":15437:15564  require(... */\n      tag_121\n      jumpi\n      mload(0x40)\n      shl(0xe5, 0x461bcd)\n      dup2\n      mstore\n        /* \"#utility.yul\":4534:4536   */\n      0x20\n        /* \"contracts/Lottery.sol\":15437:15564  require(... */\n      0x04\n      dup3\n      add\n        /* \"#utility.yul\":4516:4537   */\n      mstore\n        /* \"#utility.yul\":4573:4575   */\n      0x1e\n        /* \"#utility.yul\":4553:4571   */\n      0x24\n      dup3\n      add\n        /* \"#utility.yul\":4546:4576   */\n      mstore\n        /* \"#utility.yul\":4612:4644   */\n      0x4e6f7420656e6f7567682070726f66697420746f207769746864726177210000\n        /* \"#utility.yul\":4592:4610   */\n      0x44\n      dup3\n      add\n        /* \"#utility.yul\":4585:4645   */\n      mstore\n        /* \"#utility.yul\":4662:4680   */\n      0x64\n      add\n        /* \"contracts/Lottery.sol\":15437:15564  require(... */\n      tag_84\n        /* \"#utility.yul\":4332:4686   */\n      jump\n        /* \"contracts/Lottery.sol\":15437:15564  require(... */\n    tag_121:\n        /* \"contracts/Lottery.sol\":15602:15612  msg.sender */\n      caller\n        /* \"contracts/Lottery.sol\":15575:15589  uint256 profit */\n      0x00\n        /* \"contracts/Lottery.sol\":15592:15613  UsersInfo[msg.sender] */\n      swap1\n      dup2\n      mstore\n        /* \"contracts/Lottery.sol\":15592:15601  UsersInfo */\n      0x09\n        /* \"contracts/Lottery.sol\":15592:15613  UsersInfo[msg.sender] */\n      0x20\n      mstore\n      0x40\n      dup2\n      keccak256\n        /* \"contracts/Lottery.sol\":15592:15628  UsersInfo[msg.sender].ReferralProfit */\n      0x02\n      add\n      dup1\n      sload\n        /* \"contracts/Lottery.sol\":15638:15678  UsersInfo[msg.sender].ReferralProfit = 0 */\n      swap1\n      dup3\n      swap1\n      sstore\n        /* \"contracts/Lottery.sol\":15689:15708  TotalReferralProfit */\n      0x07\n        /* \"contracts/Lottery.sol\":15689:15718  TotalReferralProfit -= profit */\n      dup1\n      sload\n        /* \"contracts/Lottery.sol\":15592:15628  UsersInfo[msg.sender].ReferralProfit */\n      swap2\n      swap3\n      dup4\n      swap3\n        /* \"contracts/Lottery.sol\":15689:15718  TotalReferralProfit -= profit */\n      tag_124\n      swap1\n        /* \"contracts/Lottery.sol\":15592:15628  UsersInfo[msg.sender].ReferralProfit */\n      dup5\n      swap1\n        /* \"contracts/Lottery.sol\":15689:15718  TotalReferralProfit -= profit */\n      tag_125\n      jump\t// in\n    tag_124:\n      swap1\n      swap2\n      sstore\n      pop\n      pop\n        /* \"contracts/Lottery.sol\":15728:15764  payable(msg.sender).transfer(profit) */\n      mload(0x40)\n        /* \"contracts/Lottery.sol\":15736:15746  msg.sender */\n      caller\n      swap1\n        /* \"contracts/Lottery.sol\":15728:15764  payable(msg.sender).transfer(profit) */\n      dup3\n      iszero\n      0x08fc\n      mul\n      swap1\n        /* \"contracts/Lottery.sol\":15757:15763  profit */\n      dup4\n      swap1\n        /* \"contracts/Lottery.sol\":15728:15764  payable(msg.sender).transfer(profit) */\n      0x00\n      dup2\n      dup2\n      dup2\n        /* \"contracts/Lottery.sol\":15757:15763  profit */\n      dup6\n        /* \"contracts/Lottery.sol\":15736:15746  msg.sender */\n      dup9\n        /* \"contracts/Lottery.sol\":15728:15764  payable(msg.sender).transfer(profit) */\n      dup9\n      call\n      swap4\n      pop\n      pop\n      pop\n      pop\n      iszero\n      dup1\n      iszero\n      tag_127\n      jumpi\n      returndatasize\n      0x00\n      dup1\n      returndatacopy\n      revert(0x00, returndatasize)\n    tag_127:\n      pop\n        /* \"contracts/Lottery.sol\":15375:15771  {... */\n      pop\n        /* \"contracts/Lottery.sol\":15332:15771  function WithdrawReferralProfit() external {... */\n      jump\t// out\n        /* \"contracts/Lottery.sol\":17057:18484  function DestructContract() external {... */\n    tag_28:\n        /* \"contracts/Lottery.sol\":17126:17136  DevAddress */\n      and(sub(shl(0xa0, 0x01), 0x01), sload(0x00))\n        /* \"contracts/Lottery.sol\":17112:17122  msg.sender */\n      caller\n        /* \"contracts/Lottery.sol\":17112:17136  msg.sender == DevAddress */\n      eq\n        /* \"contracts/Lottery.sol\":17104:17137  require(msg.sender == DevAddress) */\n      tag_129\n      jumpi\n      0x00\n      dup1\n      revert\n    tag_129:\n        /* \"contracts/Lottery.sol\":17174:17188  LastBuyEggTime */\n      sload(0x08)\n        /* \"contracts/Lottery.sol\":17174:17198  LastBuyEggTime + 15 days */\n      tag_130\n      swap1\n        /* \"contracts/Lottery.sol\":17191:17198  15 days */\n      0x13c680\n        /* \"contracts/Lottery.sol\":17174:17198  LastBuyEggTime + 15 days */\n      tag_88\n      jump\t// in\n    tag_130:\n        /* \"contracts/Lottery.sol\":17155:17170  block.timestamp */\n      timestamp\n        /* \"contracts/Lottery.sol\":17155:17198  block.timestamp >= LastBuyEggTime + 15 days */\n      lt\n      iszero\n        /* \"contracts/Lottery.sol\":17147:17199  require(block.timestamp >= LastBuyEggTime + 15 days) */\n      tag_131\n      jumpi\n      0x00\n      dup1\n      revert\n    tag_131:\n        /* \"contracts/Lottery.sol\":17239:17260  TotalInvestmentAmount */\n      sload(0x04)\n        /* \"contracts/Lottery.sol\":17214:17235  address(this).balance */\n      selfbalance\n        /* \"contracts/Lottery.sol\":17214:17260  address(this).balance >= TotalInvestmentAmount */\n      lt\n        /* \"contracts/Lottery.sol\":17210:18434  if (address(this).balance >= TotalInvestmentAmount) {... */\n      tag_132\n      jumpi\n        /* \"contracts/Lottery.sol\":17281:17290  uint256 i */\n      0x00\n        /* \"contracts/Lottery.sol\":17276:17643  for (uint256 i = 0; i < investors.length; i++) {... */\n    tag_133:\n        /* \"contracts/Lottery.sol\":17300:17309  investors */\n      0x02\n        /* \"contracts/Lottery.sol\":17300:17316  investors.length */\n      sload\n        /* \"contracts/Lottery.sol\":17296:17316  i < investors.length */\n      dup2\n      lt\n        /* \"contracts/Lottery.sol\":17276:17643  for (uint256 i = 0; i < investors.length; i++) {... */\n      iszero\n      tag_134\n      jumpi\n        /* \"contracts/Lottery.sol\":1547:1554  1 ether */\n      0x0de0b6b3a7640000\n        /* \"contracts/Lottery.sol\":17366:17382  InvestorsBalance */\n      0x03\n        /* \"contracts/Lottery.sol\":17366:17396  InvestorsBalance[investors[i]] */\n      0x00\n        /* \"contracts/Lottery.sol\":17383:17392  investors */\n      0x02\n        /* \"contracts/Lottery.sol\":17393:17394  i */\n      dup5\n        /* \"contracts/Lottery.sol\":17383:17395  investors[i] */\n      dup2\n      sload\n      dup2\n      lt\n      tag_137\n      jumpi\n      tag_137\n      tag_102\n      jump\t// in\n    tag_137:\n      0x00\n      swap2\n      dup3\n      mstore\n      0x20\n      dup1\n      dup4\n      keccak256\n      swap1\n      swap2\n      add\n      sload\n      sub(shl(0xa0, 0x01), 0x01)\n      and\n        /* \"contracts/Lottery.sol\":17366:17396  InvestorsBalance[investors[i]] */\n      dup4\n      mstore\n      dup3\n      add\n      swap3\n      swap1\n      swap3\n      mstore\n      0x40\n      add\n      swap1\n      keccak256\n        /* \"contracts/Lottery.sol\":17366:17404  InvestorsBalance[investors[i]].balance */\n      sload\n        /* \"contracts/Lottery.sol\":17366:17453  InvestorsBalance[investors[i]].balance >=... */\n      lt\n        /* \"contracts/Lottery.sol\":17341:17629  if (... */\n      tag_139\n      jumpi\n        /* \"contracts/Lottery.sol\":17502:17511  investors */\n      0x02\n        /* \"contracts/Lottery.sol\":17512:17513  i */\n      dup2\n        /* \"contracts/Lottery.sol\":17502:17514  investors[i] */\n      dup2\n      sload\n      dup2\n      lt\n      tag_141\n      jumpi\n      tag_141\n      tag_102\n      jump\t// in\n    tag_141:\n      0x00\n      swap2\n      dup3\n      mstore\n      0x20\n      dup3\n      keccak256\n      add\n      sload\n        /* \"contracts/Lottery.sol\":17567:17576  investors */\n      0x02\n        /* \"contracts/Lottery.sol\":17567:17579  investors[i] */\n      dup1\n      sload\n      sub(shl(0xa0, 0x01), 0x01)\n        /* \"contracts/Lottery.sol\":17502:17514  investors[i] */\n      swap1\n      swap3\n      and\n      swap3\n        /* \"contracts/Lottery.sol\":17494:17610  payable(investors[i]).transfer(... */\n      0x08fc\n      swap3\n        /* \"contracts/Lottery.sol\":17550:17566  InvestorsBalance */\n      0x03\n      swap3\n        /* \"contracts/Lottery.sol\":17567:17576  investors */\n      swap1\n        /* \"contracts/Lottery.sol\":17577:17578  i */\n      dup7\n      swap1\n        /* \"contracts/Lottery.sol\":17567:17579  investors[i] */\n      dup2\n      lt\n      tag_144\n      jumpi\n      tag_144\n      tag_102\n      jump\t// in\n    tag_144:\n      0x00\n      swap2\n      dup3\n      mstore\n      0x20\n      dup1\n      dup4\n      keccak256\n      swap1\n      swap2\n      add\n      sload\n      sub(shl(0xa0, 0x01), 0x01)\n      and\n        /* \"contracts/Lottery.sol\":17550:17580  InvestorsBalance[investors[i]] */\n      dup4\n      mstore\n      dup3\n      add\n      swap3\n      swap1\n      swap3\n      mstore\n      0x40\n      swap1\n      dup2\n      add\n      dup3\n      keccak256\n        /* \"contracts/Lottery.sol\":17550:17588  InvestorsBalance[investors[i]].balance */\n      sload\n        /* \"contracts/Lottery.sol\":17494:17610  payable(investors[i]).transfer(... */\n      swap1\n      mload\n      dup2\n      iszero\n      swap1\n      swap4\n      mul\n      swap3\n        /* \"contracts/Lottery.sol\":17550:17588  InvestorsBalance[investors[i]].balance */\n      swap1\n      swap2\n        /* \"contracts/Lottery.sol\":17494:17610  payable(investors[i]).transfer(... */\n      dup2\n        /* \"contracts/Lottery.sol\":17567:17579  investors[i] */\n      dup2\n        /* \"contracts/Lottery.sol\":17494:17610  payable(investors[i]).transfer(... */\n      dup2\n        /* \"contracts/Lottery.sol\":17550:17588  InvestorsBalance[investors[i]].balance */\n      dup6\n        /* \"contracts/Lottery.sol\":17494:17610  payable(investors[i]).transfer(... */\n      dup9\n      dup9\n      call\n      swap4\n      pop\n      pop\n      pop\n      pop\n      iszero\n      dup1\n      iszero\n      tag_147\n      jumpi\n      returndatasize\n      0x00\n      dup1\n      returndatacopy\n      revert(0x00, returndatasize)\n    tag_147:\n      pop\n        /* \"contracts/Lottery.sol\":17341:17629  if (... */\n    tag_139:\n        /* \"contracts/Lottery.sol\":17318:17321  i++ */\n      0x01\n      add\n        /* \"contracts/Lottery.sol\":17276:17643  for (uint256 i = 0; i < investors.length; i++) {... */\n      jump(tag_133)\n    tag_134:\n      pop\n        /* \"contracts/Lottery.sol\":17210:18434  if (address(this).balance >= TotalInvestmentAmount) {... */\n      jump(tag_148)\n    tag_132:\n        /* \"contracts/Lottery.sol\":17745:17766  address(this).balance */\n      selfbalance\n        /* \"contracts/Lottery.sol\":1547:1554  1 ether */\n      0x0de0b6b3a7640000\n        /* \"contracts/Lottery.sol\":17785:17829  contractBalance >= Mininum_Investment_amount */\n      dup2\n      lt\n        /* \"contracts/Lottery.sol\":17781:18424  if (contractBalance >= Mininum_Investment_amount) {... */\n      tag_149\n      jumpi\n        /* \"contracts/Lottery.sol\":17854:17863  uint256 i */\n      0x00\n        /* \"contracts/Lottery.sol\":17849:18410  for (uint256 i = 0; i < investors.length; i++) {... */\n    tag_150:\n        /* \"contracts/Lottery.sol\":17873:17882  investors */\n      0x02\n        /* \"contracts/Lottery.sol\":17873:17889  investors.length */\n      sload\n        /* \"contracts/Lottery.sol\":17869:17889  i < investors.length */\n      dup2\n      lt\n        /* \"contracts/Lottery.sol\":17849:18410  for (uint256 i = 0; i < investors.length; i++) {... */\n      iszero\n      tag_151\n      jumpi\n        /* \"contracts/Lottery.sol\":1547:1554  1 ether */\n      0x0de0b6b3a7640000\n        /* \"contracts/Lottery.sol\":17947:17963  InvestorsBalance */\n      0x03\n        /* \"contracts/Lottery.sol\":17947:17977  InvestorsBalance[investors[i]] */\n      0x00\n        /* \"contracts/Lottery.sol\":17964:17973  investors */\n      0x02\n        /* \"contracts/Lottery.sol\":17974:17975  i */\n      dup5\n        /* \"contracts/Lottery.sol\":17964:17976  investors[i] */\n      dup2\n      sload\n      dup2\n      lt\n      tag_154\n      jumpi\n      tag_154\n      tag_102\n      jump\t// in\n    tag_154:\n      0x00\n      swap2\n      dup3\n      mstore\n      0x20\n      dup1\n      dup4\n      keccak256\n      swap1\n      swap2\n      add\n      sload\n      sub(shl(0xa0, 0x01), 0x01)\n      and\n        /* \"contracts/Lottery.sol\":17947:17977  InvestorsBalance[investors[i]] */\n      dup4\n      mstore\n      dup3\n      add\n      swap3\n      swap1\n      swap3\n      mstore\n      0x40\n      add\n      swap1\n      keccak256\n        /* \"contracts/Lottery.sol\":17947:17985  InvestorsBalance[investors[i]].balance */\n      sload\n        /* \"contracts/Lottery.sol\":17947:18038  InvestorsBalance[investors[i]].balance >=... */\n      lt\n        /* \"contracts/Lottery.sol\":17918:18392  if (... */\n      tag_156\n      jumpi\n        /* \"contracts/Lottery.sol\":18177:18186  investors */\n      0x02\n        /* \"contracts/Lottery.sol\":18187:18188  i */\n      dup2\n        /* \"contracts/Lottery.sol\":18177:18189  investors[i] */\n      dup2\n      sload\n      dup2\n      lt\n      tag_158\n      jumpi\n      tag_158\n      tag_102\n      jump\t// in\n    tag_158:\n      0x00\n      swap2\n      dup3\n      mstore\n      0x20\n      dup3\n      keccak256\n      add\n      sload\n        /* \"contracts/Lottery.sol\":18322:18343  TotalInvestmentAmount */\n      sload(0x04)\n        /* \"contracts/Lottery.sol\":18247:18256  investors */\n      0x02\n        /* \"contracts/Lottery.sol\":18247:18259  investors[i] */\n      dup1\n      sload\n      sub(shl(0xa0, 0x01), 0x01)\n        /* \"contracts/Lottery.sol\":18177:18189  investors[i] */\n      swap1\n      swap4\n      and\n      swap4\n        /* \"contracts/Lottery.sol\":18169:18369  payable(investors[i]).transfer(... */\n      0x08fc\n      swap4\n        /* \"contracts/Lottery.sol\":18303:18318  contractBalance */\n      dup8\n      swap3\n        /* \"contracts/Lottery.sol\":18230:18246  InvestorsBalance */\n      0x03\n      swap3\n        /* \"contracts/Lottery.sol\":18177:18189  investors[i] */\n      swap2\n        /* \"contracts/Lottery.sol\":18257:18258  i */\n      dup9\n      swap1\n        /* \"contracts/Lottery.sol\":18247:18259  investors[i] */\n      dup2\n      lt\n      tag_161\n      jumpi\n      tag_161\n      tag_102\n      jump\t// in\n    tag_161:\n      0x00\n      swap2\n      dup3\n      mstore\n      0x20\n      dup1\n      dup4\n      keccak256\n      swap1\n      swap2\n      add\n      sload\n      sub(shl(0xa0, 0x01), 0x01)\n      and\n        /* \"contracts/Lottery.sol\":18230:18260  InvestorsBalance[investors[i]] */\n      dup4\n      mstore\n      dup3\n      add\n      swap3\n      swap1\n      swap3\n      mstore\n      0x40\n      add\n      swap1\n      keccak256\n        /* \"contracts/Lottery.sol\":18230:18268  InvestorsBalance[investors[i]].balance */\n      sload\n        /* \"contracts/Lottery.sol\":18230:18318  InvestorsBalance[investors[i]].balance *... */\n      tag_163\n      swap2\n      swap1\n      tag_164\n      jump\t// in\n    tag_163:\n        /* \"contracts/Lottery.sol\":18229:18343  (InvestorsBalance[investors[i]].balance *... */\n      tag_165\n      swap2\n      swap1\n      tag_93\n      jump\t// in\n    tag_165:\n        /* \"contracts/Lottery.sol\":18169:18369  payable(investors[i]).transfer(... */\n      mload(0x40)\n      dup2\n      iszero\n      swap1\n      swap3\n      mul\n      swap2\n      0x00\n      dup2\n      dup2\n      dup2\n      dup6\n      dup9\n      dup9\n      call\n      swap4\n      pop\n      pop\n      pop\n      pop\n      iszero\n      dup1\n      iszero\n      tag_167\n      jumpi\n      returndatasize\n      0x00\n      dup1\n      returndatacopy\n      revert(0x00, returndatasize)\n    tag_167:\n      pop\n        /* \"contracts/Lottery.sol\":17918:18392  if (... */\n    tag_156:\n        /* \"contracts/Lottery.sol\":17891:17894  i++ */\n      0x01\n      add\n        /* \"contracts/Lottery.sol\":17849:18410  for (uint256 i = 0; i < investors.length; i++) {... */\n      jump(tag_150)\n    tag_151:\n      pop\n        /* \"contracts/Lottery.sol\":17781:18424  if (contractBalance >= Mininum_Investment_amount) {... */\n    tag_149:\n        /* \"contracts/Lottery.sol\":17659:18434  {... */\n      pop\n        /* \"contracts/Lottery.sol\":17210:18434  if (address(this).balance >= TotalInvestmentAmount) {... */\n    tag_148:\n        /* \"contracts/Lottery.sol\":18465:18475  DevAddress */\n      and(sub(shl(0xa0, 0x01), 0x01), sload(0x00))\n        /* \"contracts/Lottery.sol\":18444:18477  selfdestruct(payable(DevAddress)) */\n      selfdestruct\n        /* \"contracts/Lottery.sol\":16069:16642  function GetWinningRecord(uint256 RecordCount)... */\n    tag_33:\n        /* \"contracts/Lottery.sol\":16264:16277  WinningRecord */\n      0x0b\n        /* \"contracts/Lottery.sol\":16264:16284  WinningRecord.length */\n      sload\n        /* \"contracts/Lottery.sol\":16161:16181  Winninginfo[] memory */\n      0x60\n      swap1\n        /* \"contracts/Lottery.sol\":16216:16227  RecordCount */\n      dup3\n      swap1\n        /* \"contracts/Lottery.sol\":16299:16326  RecordCt > WinningRecordLen */\n      dup1\n      dup3\n      gt\n        /* \"contracts/Lottery.sol\":16295:16380  if (RecordCt > WinningRecordLen) {... */\n      iszero\n      tag_169\n      jumpi\n        /* \"contracts/Lottery.sol\":16353:16369  WinningRecordLen */\n      dup1\n        /* \"contracts/Lottery.sol\":16342:16369  RecordCt = WinningRecordLen */\n      swap2\n      pop\n        /* \"contracts/Lottery.sol\":16295:16380  if (RecordCt > WinningRecordLen) {... */\n    tag_169:\n        /* \"contracts/Lottery.sol\":16390:16430  Winninginfo[] memory LatelyWinnersRecord */\n      0x00\n        /* \"contracts/Lottery.sol\":16451:16459  RecordCt */\n      dup3\n        /* \"contracts/Lottery.sol\":16433:16460  new Winninginfo[](RecordCt) */\n      0xffffffffffffffff\n      dup2\n      gt\n      iszero\n      tag_171\n      jumpi\n      tag_171\n      tag_172\n      jump\t// in\n    tag_171:\n      mload(0x40)\n      swap1\n      dup1\n      dup3\n      mstore\n      dup1\n      0x20\n      mul\n      0x20\n      add\n      dup3\n      add\n      0x40\n      mstore\n      dup1\n      iszero\n      tag_173\n      jumpi\n      dup2\n      0x20\n      add\n    tag_174:\n      0x40\n      dup1\n      mload\n      0x80\n      dup2\n      add\n      dup3\n      mstore\n      0x00\n      dup1\n      dup3\n      mstore\n      0x20\n      dup1\n      dup4\n      add\n      dup3\n      swap1\n      mstore\n      swap3\n      dup3\n      add\n      dup2\n      swap1\n      mstore\n      0x60\n      dup3\n      add\n      mstore\n      dup3\n      mstore\n      not(0x00)\n      swap1\n      swap3\n      add\n      swap2\n      add\n      dup2\n      tag_174\n      jumpi\n      swap1\n      pop\n    tag_173:\n      pop\n        /* \"contracts/Lottery.sol\":16390:16460  Winninginfo[] memory LatelyWinnersRecord = new Winninginfo[](RecordCt) */\n      swap1\n      pop\n        /* \"contracts/Lottery.sol\":16476:16485  uint256 i */\n      0x00\n        /* \"contracts/Lottery.sol\":16471:16599  for (uint256 i = 0; i < RecordCt; i++) {... */\n    tag_177:\n        /* \"contracts/Lottery.sol\":16495:16503  RecordCt */\n      dup4\n        /* \"contracts/Lottery.sol\":16491:16492  i */\n      dup2\n        /* \"contracts/Lottery.sol\":16491:16503  i < RecordCt */\n      lt\n        /* \"contracts/Lottery.sol\":16471:16599  for (uint256 i = 0; i < RecordCt; i++) {... */\n      iszero\n      tag_178\n      jumpi\n        /* \"contracts/Lottery.sol\":16549:16562  WinningRecord */\n      0x0b\n        /* \"contracts/Lottery.sol\":16586:16587  i */\n      dup2\n        /* \"contracts/Lottery.sol\":16563:16583  WinningRecordLen - 1 */\n      tag_180\n        /* \"contracts/Lottery.sol\":16582:16583  1 */\n      0x01\n        /* \"contracts/Lottery.sol\":16563:16579  WinningRecordLen */\n      dup7\n        /* \"contracts/Lottery.sol\":16563:16583  WinningRecordLen - 1 */\n      tag_125\n      jump\t// in\n    tag_180:\n        /* \"contracts/Lottery.sol\":16563:16587  WinningRecordLen - 1 - i */\n      tag_181\n      swap2\n      swap1\n      tag_125\n      jump\t// in\n    tag_181:\n        /* \"contracts/Lottery.sol\":16549:16588  WinningRecord[WinningRecordLen - 1 - i] */\n      dup2\n      sload\n      dup2\n      lt\n      tag_183\n      jumpi\n      tag_183\n      tag_102\n      jump\t// in\n    tag_183:\n      0x00\n      swap2\n      dup3\n      mstore\n      0x20\n      swap2\n      dup3\n      swap1\n      keccak256\n        /* \"contracts/Lottery.sol\":16524:16588  LatelyWinnersRecord[i] = WinningRecord[WinningRecordLen - 1 - i] */\n      0x40\n      dup1\n      mload\n      0x80\n      dup2\n      add\n      dup3\n      mstore\n        /* \"contracts/Lottery.sol\":16549:16588  WinningRecord[WinningRecordLen - 1 - i] */\n      0x03\n      swap1\n      swap4\n      mul\n      swap1\n      swap2\n      add\n        /* \"contracts/Lottery.sol\":16524:16588  LatelyWinnersRecord[i] = WinningRecord[WinningRecordLen - 1 - i] */\n      dup1\n      sload\n      0xffffffff\n      dup2\n      and\n      dup5\n      mstore\n      0xff\n      0x0100000000\n      swap1\n      swap2\n      div\n      and\n      swap4\n      dup4\n      add\n      swap4\n      swap1\n      swap4\n      mstore\n      0x01\n      dup4\n      add\n      sload\n      swap1\n      dup3\n      add\n      mstore\n      0x02\n      swap1\n      swap2\n      add\n      sload\n      sub(shl(0xa0, 0x01), 0x01)\n      and\n      0x60\n      dup3\n      add\n      mstore\n        /* \"contracts/Lottery.sol\":16524:16546  LatelyWinnersRecord[i] */\n      dup3\n      mload\n        /* \"contracts/Lottery.sol\":16524:16543  LatelyWinnersRecord */\n      dup4\n      swap1\n        /* \"contracts/Lottery.sol\":16544:16545  i */\n      dup4\n      swap1\n        /* \"contracts/Lottery.sol\":16524:16546  LatelyWinnersRecord[i] */\n      dup2\n      lt\n      tag_186\n      jumpi\n      tag_186\n      tag_102\n      jump\t// in\n    tag_186:\n      0x20\n      swap1\n      dup2\n      mul\n      swap2\n      swap1\n      swap2\n      add\n      add\n        /* \"contracts/Lottery.sol\":16524:16588  LatelyWinnersRecord[i] = WinningRecord[WinningRecordLen - 1 - i] */\n      mstore\n        /* \"contracts/Lottery.sol\":16505:16508  i++ */\n      0x01\n      add\n        /* \"contracts/Lottery.sol\":16471:16599  for (uint256 i = 0; i < RecordCt; i++) {... */\n      jump(tag_177)\n    tag_178:\n      pop\n        /* \"contracts/Lottery.sol\":16616:16635  LatelyWinnersRecord */\n      swap5\n        /* \"contracts/Lottery.sol\":16069:16642  function GetWinningRecord(uint256 RecordCount)... */\n      swap4\n      pop\n      pop\n      pop\n      pop\n      jump\t// out\n        /* \"contracts/Lottery.sol\":11279:12272  function InvestmentDeposit() external payable {... */\n    tag_37:\n        /* \"contracts/Lottery.sol\":1547:1554  1 ether */\n      0x0de0b6b3a7640000\n        /* \"contracts/Lottery.sol\":11404:11413  msg.value */\n      callvalue\n        /* \"contracts/Lottery.sol\":11404:11442  msg.value >= Mininum_Investment_amount */\n      lt\n      iszero\n        /* \"contracts/Lottery.sol\":11404:11500  msg.value >= Mininum_Investment_amount &&... */\n      dup1\n      iszero\n      tag_188\n      jumpi\n      pop\n        /* \"contracts/Lottery.sol\":1648:1658  1000 ether */\n      0x3635c9adc5dea00000\n        /* \"contracts/Lottery.sol\":11462:11471  msg.value */\n      callvalue\n        /* \"contracts/Lottery.sol\":11462:11500  msg.value <= Maxinum_Investment_amount */\n      gt\n      iszero\n        /* \"contracts/Lottery.sol\":11404:11500  msg.value >= Mininum_Investment_amount &&... */\n    tag_188:\n        /* \"contracts/Lottery.sol\":11383:11563  require(... */\n      tag_189\n      jumpi\n      mload(0x40)\n      shl(0xe5, 0x461bcd)\n      dup2\n      mstore\n        /* \"#utility.yul\":5331:5333   */\n      0x20\n        /* \"contracts/Lottery.sol\":11383:11563  require(... */\n      0x04\n      dup3\n      add\n        /* \"#utility.yul\":5313:5334   */\n      mstore\n        /* \"#utility.yul\":5370:5372   */\n      0x25\n        /* \"#utility.yul\":5350:5368   */\n      0x24\n      dup3\n      add\n        /* \"#utility.yul\":5343:5373   */\n      mstore\n        /* \"#utility.yul\":5409:5443   */\n      0x496e766573746d656e7420616d6f756e7420626574657765656e203120616e64\n        /* \"#utility.yul\":5389:5407   */\n      0x44\n      dup3\n      add\n        /* \"#utility.yul\":5382:5444   */\n      mstore\n      shl(0xdc, 0x0203130303)\n        /* \"#utility.yul\":5460:5478   */\n      0x64\n      dup3\n      add\n        /* \"#utility.yul\":5453:5488   */\n      mstore\n        /* \"#utility.yul\":5505:5524   */\n      0x84\n      add\n        /* \"contracts/Lottery.sol\":11383:11563  require(... */\n      tag_84\n        /* \"#utility.yul\":5129:5530   */\n      jump\n        /* \"contracts/Lottery.sol\":11383:11563  require(... */\n    tag_189:\n        /* \"contracts/Lottery.sol\":1438:1449  10000 ether */\n      0x021e19e0c9bab2400000\n        /* \"contracts/Lottery.sol\":11625:11758  SafeMathsub(... */\n      tag_192\n        /* \"contracts/Lottery.sol\":11654:11675  address(this).balance */\n      selfbalance\n        /* \"contracts/Lottery.sol\":11734:11743  DevProfit */\n      sload(0x01)\n        /* \"contracts/Lottery.sol\":11712:11731  TotalReferralProfit */\n      sload(0x07)\n        /* \"contracts/Lottery.sol\":11694:11709  InvestorsProfit */\n      sload(0x05)\n        /* \"contracts/Lottery.sol\":11694:11731  InvestorsProfit + TotalReferralProfit */\n      tag_87\n      swap2\n      swap1\n      tag_88\n      jump\t// in\n        /* \"contracts/Lottery.sol\":11625:11758  SafeMathsub(... */\n    tag_192:\n        /* \"contracts/Lottery.sol\":11625:11785  SafeMathsub(... */\n      gt\n      iszero\n        /* \"contracts/Lottery.sol\":11604:11795  require(... */\n      tag_195\n      jumpi\n      0x00\n      dup1\n      revert\n    tag_195:\n        /* \"contracts/Lottery.sol\":11864:11873  msg.value */\n      callvalue\n        /* \"contracts/Lottery.sol\":11839:11860  TotalInvestmentAmount */\n      0x04\n      0x00\n        /* \"contracts/Lottery.sol\":11839:11873  TotalInvestmentAmount += msg.value */\n      dup3\n      dup3\n      sload\n      tag_196\n      swap2\n      swap1\n      tag_88\n      jump\t// in\n    tag_196:\n      swap1\n      swap2\n      sstore\n      pop\n      pop\n        /* \"contracts/Lottery.sol\":11942:11952  msg.sender */\n      caller\n        /* \"contracts/Lottery.sol\":11925:11953  InvestorsBalance[msg.sender] */\n      0x00\n      swap1\n      dup2\n      mstore\n        /* \"contracts/Lottery.sol\":11925:11941  InvestorsBalance */\n      0x03\n        /* \"contracts/Lottery.sol\":11925:11953  InvestorsBalance[msg.sender] */\n      0x20\n      mstore\n      0x40\n      dup2\n      keccak256\n        /* \"contracts/Lottery.sol\":11925:11974  InvestorsBalance[msg.sender].balance += msg.value */\n      dup1\n      sload\n        /* \"contracts/Lottery.sol\":11965:11974  msg.value */\n      callvalue\n      swap3\n        /* \"contracts/Lottery.sol\":11925:11953  InvestorsBalance[msg.sender] */\n      swap1\n        /* \"contracts/Lottery.sol\":11925:11974  InvestorsBalance[msg.sender].balance += msg.value */\n      tag_197\n      swap1\n        /* \"contracts/Lottery.sol\":11965:11974  msg.value */\n      dup5\n      swap1\n        /* \"contracts/Lottery.sol\":11925:11974  InvestorsBalance[msg.sender].balance += msg.value */\n      tag_88\n      jump\t// in\n    tag_197:\n      swap1\n      swap2\n      sstore\n      pop\n      pop\n        /* \"contracts/Lottery.sol\":12001:12011  msg.sender */\n      caller\n        /* \"contracts/Lottery.sol\":11984:12012  InvestorsBalance[msg.sender] */\n      0x00\n      swap1\n      dup2\n      mstore\n        /* \"contracts/Lottery.sol\":11984:12000  InvestorsBalance */\n      0x03\n        /* \"contracts/Lottery.sol\":11984:12012  InvestorsBalance[msg.sender] */\n      0x20\n      mstore\n      0x40\n      swap1\n      keccak256\n        /* \"contracts/Lottery.sol\":12030:12045  block.timestamp */\n      timestamp\n        /* \"contracts/Lottery.sol\":11984:12027  InvestorsBalance[msg.sender].LastInvestTime */\n      0x01\n      dup3\n      add\n        /* \"contracts/Lottery.sol\":11984:12045  InvestorsBalance[msg.sender].LastInvestTime = block.timestamp */\n      sstore\n        /* \"contracts/Lottery.sol\":12112:12152  InvestorsBalance[msg.sender].HasInvested */\n      0x02\n      add\n      sload\n      0xff\n      and\n        /* \"contracts/Lottery.sol\":12107:12266  if (!InvestorsBalance[msg.sender].HasInvested) {... */\n      tag_198\n      jumpi\n        /* \"contracts/Lottery.sol\":12185:12195  msg.sender */\n      caller\n        /* \"contracts/Lottery.sol\":12168:12196  InvestorsBalance[msg.sender] */\n      0x00\n      dup2\n      dup2\n      mstore\n        /* \"contracts/Lottery.sol\":12168:12184  InvestorsBalance */\n      0x03\n        /* \"contracts/Lottery.sol\":12168:12196  InvestorsBalance[msg.sender] */\n      0x20\n      mstore\n      0x40\n      dup2\n      keccak256\n        /* \"contracts/Lottery.sol\":12168:12208  InvestorsBalance[msg.sender].HasInvested */\n      0x02\n      swap1\n      dup2\n      add\n        /* \"contracts/Lottery.sol\":12168:12215  InvestorsBalance[msg.sender].HasInvested = true */\n      dup1\n      sload\n      not(0xff)\n      and\n        /* \"contracts/Lottery.sol\":12211:12215  true */\n      0x01\n        /* \"contracts/Lottery.sol\":12168:12215  InvestorsBalance[msg.sender].HasInvested = true */\n      swap1\n      dup2\n      or\n      swap1\n      swap2\n      sstore\n        /* \"contracts/Lottery.sol\":12229:12255  investors.push(msg.sender) */\n      dup2\n      sload\n      swap1\n      dup2\n      add\n      dup3\n      sstore\n      swap2\n      mstore\n      0x405787fa12a823e0f2b7631cc41b3ba8828b3321ca811111fa75cd3aa3bb5ace\n      add\n      dup1\n      sload\n      not(sub(shl(0xa0, 0x01), 0x01))\n      and\n      swap1\n      swap2\n      or\n      swap1\n      sstore\n        /* \"contracts/Lottery.sol\":12107:12266  if (!InvestorsBalance[msg.sender].HasInvested) {... */\n    tag_198:\n        /* \"contracts/Lottery.sol\":11279:12272  function InvestmentDeposit() external payable {... */\n      jump\t// out\n        /* \"contracts/Lottery.sol\":7857:11250  function OpenEggs() external {... */\n    tag_40:\n        /* \"contracts/Lottery.sol\":7984:7994  msg.sender */\n      caller\n        /* \"contracts/Lottery.sol\":8014:8015  0 */\n      0x00\n        /* \"contracts/Lottery.sol\":7974:7995  UsersInfo[msg.sender] */\n      swap1\n      dup2\n      mstore\n        /* \"contracts/Lottery.sol\":7974:7983  UsersInfo */\n      0x09\n        /* \"contracts/Lottery.sol\":7974:7995  UsersInfo[msg.sender] */\n      0x20\n      mstore\n      0x40\n      swap1\n      keccak256\n        /* \"contracts/Lottery.sol\":7974:8011  UsersInfo[msg.sender].eggsinfo.length */\n      sload\n        /* \"contracts/Lottery.sol\":7953:8078  require(... */\n      tag_201\n      jumpi\n      mload(0x40)\n      shl(0xe5, 0x461bcd)\n      dup2\n      mstore\n        /* \"#utility.yul\":5737:5739   */\n      0x20\n        /* \"contracts/Lottery.sol\":7953:8078  require(... */\n      0x04\n      dup3\n      add\n        /* \"#utility.yul\":5719:5740   */\n      mstore\n        /* \"#utility.yul\":5776:5778   */\n      0x25\n        /* \"#utility.yul\":5756:5774   */\n      0x24\n      dup3\n      add\n        /* \"#utility.yul\":5749:5779   */\n      mstore\n        /* \"#utility.yul\":5815:5849   */\n      0x596f7520646f6e2774206861766520756e64726177206c6f7474657279207469\n        /* \"#utility.yul\":5795:5813   */\n      0x44\n      dup3\n      add\n        /* \"#utility.yul\":5788:5850   */\n      mstore\n      shl(0xd8, 0x636b657473)\n        /* \"#utility.yul\":5866:5884   */\n      0x64\n      dup3\n      add\n        /* \"#utility.yul\":5859:5894   */\n      mstore\n        /* \"#utility.yul\":5911:5930   */\n      0x84\n      add\n        /* \"contracts/Lottery.sol\":7953:8078  require(... */\n      tag_84\n        /* \"#utility.yul\":5535:5936   */\n      jump\n        /* \"contracts/Lottery.sol\":7953:8078  require(... */\n    tag_201:\n        /* \"contracts/Lottery.sol\":8267:8277  msg.sender */\n      caller\n        /* \"contracts/Lottery.sol\":8257:8278  UsersInfo[msg.sender] */\n      0x00\n      swap1\n      dup2\n      mstore\n        /* \"contracts/Lottery.sol\":8257:8266  UsersInfo */\n      0x09\n        /* \"contracts/Lottery.sol\":8257:8278  UsersInfo[msg.sender] */\n      0x20\n      mstore\n      0x40\n      swap1\n      keccak256\n        /* \"contracts/Lottery.sol\":8309:8346  UsersInfo[msg.sender].eggsinfo.length */\n      dup1\n      sload\n        /* \"contracts/Lottery.sol\":8309:8350  UsersInfo[msg.sender].eggsinfo.length - 1 */\n      tag_204\n      swap1\n        /* \"contracts/Lottery.sol\":8349:8350  1 */\n      0x01\n      swap1\n        /* \"contracts/Lottery.sol\":8309:8350  UsersInfo[msg.sender].eggsinfo.length - 1 */\n      tag_125\n      jump\t// in\n    tag_204:\n        /* \"contracts/Lottery.sol\":8257:8351  UsersInfo[msg.sender]... */\n      dup2\n      sload\n      dup2\n      lt\n      tag_206\n      jumpi\n      tag_206\n      tag_102\n      jump\t// in\n    tag_206:\n      0x00\n      swap2\n      dup3\n      mstore\n      0x20\n      swap1\n      swap2\n      keccak256\n      0x02\n      swap1\n      swap2\n      mul\n      add\n        /* \"contracts/Lottery.sol\":8257:8384  UsersInfo[msg.sender]... */\n      0x01\n      add\n      sload\n      0x0100\n      swap1\n      div\n      sub(shl(0xf8, 0x01), 0x01)\n      and\n        /* \"contracts/Lottery.sol\":8226:8238  block.number */\n      number\n        /* \"contracts/Lottery.sol\":8226:8384  block.number >... */\n      gt\n        /* \"contracts/Lottery.sol\":8205:8423  require(... */\n      tag_208\n      jumpi\n      mload(0x40)\n      shl(0xe5, 0x461bcd)\n      dup2\n      mstore\n        /* \"#utility.yul\":6143:6145   */\n      0x20\n        /* \"contracts/Lottery.sol\":8205:8423  require(... */\n      0x04\n      dup3\n      add\n        /* \"#utility.yul\":6125:6146   */\n      mstore\n        /* \"#utility.yul\":6182:6184   */\n      0x0d\n        /* \"#utility.yul\":6162:6180   */\n      0x24\n      dup3\n      add\n        /* \"#utility.yul\":6155:6185   */\n      mstore\n      shl(0x98, 0x49742773206e6f742074696d65)\n        /* \"#utility.yul\":6201:6219   */\n      0x44\n      dup3\n      add\n        /* \"#utility.yul\":6194:6237   */\n      mstore\n        /* \"#utility.yul\":6254:6272   */\n      0x64\n      add\n        /* \"contracts/Lottery.sol\":8205:8423  require(... */\n      tag_84\n        /* \"#utility.yul\":5941:6278   */\n      jump\n        /* \"contracts/Lottery.sol\":8205:8423  require(... */\n    tag_208:\n        /* \"contracts/Lottery.sol\":8523:8533  msg.sender */\n      caller\n        /* \"contracts/Lottery.sol\":8555:8556  0 */\n      0x00\n        /* \"contracts/Lottery.sol\":8513:8534  UsersInfo[msg.sender] */\n      swap1\n      dup2\n      mstore\n        /* \"contracts/Lottery.sol\":8513:8522  UsersInfo */\n      0x09\n        /* \"contracts/Lottery.sol\":8513:8534  UsersInfo[msg.sender] */\n      0x20\n      mstore\n      0x40\n      swap1\n      keccak256\n        /* \"contracts/Lottery.sol\":8513:8545  UsersInfo[msg.sender].openedeggs */\n      0x01\n      add\n        /* \"contracts/Lottery.sol\":8513:8552  UsersInfo[msg.sender].openedeggs.length */\n      sload\n        /* \"contracts/Lottery.sol\":8513:8556  UsersInfo[msg.sender].openedeggs.length > 0 */\n      iszero\n        /* \"contracts/Lottery.sol\":8509:8609  if (UsersInfo[msg.sender].openedeggs.length > 0)... */\n      tag_212\n      jumpi\n        /* \"contracts/Lottery.sol\":8587:8597  msg.sender */\n      caller\n        /* \"contracts/Lottery.sol\":8577:8598  UsersInfo[msg.sender] */\n      0x00\n      swap1\n      dup2\n      mstore\n        /* \"contracts/Lottery.sol\":8577:8586  UsersInfo */\n      0x09\n        /* \"contracts/Lottery.sol\":8577:8598  UsersInfo[msg.sender] */\n      0x20\n      mstore\n      0x40\n      dup2\n      keccak256\n        /* \"contracts/Lottery.sol\":8570:8609  delete UsersInfo[msg.sender].openedeggs */\n      tag_212\n      swap2\n        /* \"contracts/Lottery.sol\":8577:8609  UsersInfo[msg.sender].openedeggs */\n      0x01\n      swap1\n      swap2\n      add\n      swap1\n        /* \"contracts/Lottery.sol\":8570:8609  delete UsersInfo[msg.sender].openedeggs */\n      tag_213\n      jump\t// in\n    tag_212:\n        /* \"contracts/Lottery.sol\":8653:8674  uint256 WinningAmount */\n      0x00\n      dup1\n        /* \"contracts/Lottery.sol\":8685:10375  for (uint256 i = 0; i < UsersInfo[msg.sender].eggsinfo.length; i++) {... */\n    tag_214:\n        /* \"contracts/Lottery.sol\":8719:8729  msg.sender */\n      caller\n        /* \"contracts/Lottery.sol\":8709:8730  UsersInfo[msg.sender] */\n      0x00\n      swap1\n      dup2\n      mstore\n        /* \"contracts/Lottery.sol\":8709:8718  UsersInfo */\n      0x09\n        /* \"contracts/Lottery.sol\":8709:8730  UsersInfo[msg.sender] */\n      0x20\n      mstore\n      0x40\n      swap1\n      keccak256\n        /* \"contracts/Lottery.sol\":8709:8746  UsersInfo[msg.sender].eggsinfo.length */\n      sload\n        /* \"contracts/Lottery.sol\":8705:8746  i < UsersInfo[msg.sender].eggsinfo.length */\n      dup2\n      lt\n        /* \"contracts/Lottery.sol\":8685:10375  for (uint256 i = 0; i < UsersInfo[msg.sender].eggsinfo.length; i++) {... */\n      iszero\n      tag_215\n      jumpi\n        /* \"contracts/Lottery.sol\":8903:8913  msg.sender */\n      caller\n        /* \"contracts/Lottery.sol\":8893:8914  UsersInfo[msg.sender] */\n      0x00\n      swap1\n      dup2\n      mstore\n        /* \"contracts/Lottery.sol\":8893:8902  UsersInfo */\n      0x09\n        /* \"contracts/Lottery.sol\":8893:8914  UsersInfo[msg.sender] */\n      0x20\n      mstore\n      0x40\n      swap1\n      keccak256\n        /* \"contracts/Lottery.sol\":8893:8926  UsersInfo[msg.sender].eggsinfo[i] */\n      dup1\n      sload\n        /* \"contracts/Lottery.sol\":8924:8925  i */\n      dup3\n      swap1\n        /* \"contracts/Lottery.sol\":8893:8926  UsersInfo[msg.sender].eggsinfo[i] */\n      dup2\n      lt\n      tag_218\n      jumpi\n      tag_218\n      tag_102\n      jump\t// in\n    tag_218:\n      0x00\n      swap2\n      dup3\n      mstore\n      0x20\n      swap1\n      swap2\n      keccak256\n      0x02\n      swap1\n      swap2\n      mul\n      add\n        /* \"contracts/Lottery.sol\":8893:8938  UsersInfo[msg.sender].eggsinfo[i].blocknumber */\n      0x01\n      add\n      sload\n      0x0100\n      swap1\n      div\n      sub(shl(0xf8, 0x01), 0x01)\n      and\n        /* \"contracts/Lottery.sol\":8883:8939  blockhash(UsersInfo[msg.sender].eggsinfo[i].blocknumber) */\n      blockhash\n        /* \"contracts/Lottery.sol\":8833:8985  if (... */\n      iszero\n        /* \"contracts/Lottery.sol\":8977:8985  continue */\n      tag_216\n        /* \"contracts/Lottery.sol\":8833:8985  if (... */\n      jumpi\n        /* \"contracts/Lottery.sol\":9197:9207  msg.sender */\n      caller\n        /* \"contracts/Lottery.sol\":9034:9051  uint32 LotteryNum */\n      0x00\n        /* \"contracts/Lottery.sol\":9187:9208  UsersInfo[msg.sender] */\n      swap1\n      dup2\n      mstore\n        /* \"contracts/Lottery.sol\":9187:9196  UsersInfo */\n      0x09\n        /* \"contracts/Lottery.sol\":9187:9208  UsersInfo[msg.sender] */\n      0x20\n      mstore\n      0x40\n      dup2\n      keccak256\n        /* \"contracts/Lottery.sol\":9187:9220  UsersInfo[msg.sender].eggsinfo[i] */\n      dup1\n      sload\n        /* \"contracts/Lottery.sol\":9218:9219  i */\n      dup4\n      swap1\n        /* \"contracts/Lottery.sol\":9187:9220  UsersInfo[msg.sender].eggsinfo[i] */\n      dup2\n      lt\n      tag_222\n      jumpi\n      tag_222\n      tag_102\n      jump\t// in\n    tag_222:\n      0x00\n      swap2\n      dup3\n      mstore\n      0x20\n      dup1\n      dup4\n      keccak256\n      0x02\n      swap1\n      swap3\n      mul\n      swap1\n      swap2\n      add\n        /* \"contracts/Lottery.sol\":9187:9224  UsersInfo[msg.sender].eggsinfo[i].uid */\n      sload\n        /* \"contracts/Lottery.sol\":9307:9317  msg.sender */\n      caller\n        /* \"contracts/Lottery.sol\":9297:9318  UsersInfo[msg.sender] */\n      dup4\n      mstore\n        /* \"contracts/Lottery.sol\":9297:9306  UsersInfo */\n      0x09\n        /* \"contracts/Lottery.sol\":9297:9318  UsersInfo[msg.sender] */\n      swap1\n      swap2\n      mstore\n      0x40\n      swap1\n      swap2\n      keccak256\n        /* \"contracts/Lottery.sol\":9297:9330  UsersInfo[msg.sender].eggsinfo[i] */\n      dup1\n      sload\n        /* \"contracts/Lottery.sol\":9328:9329  i */\n      dup5\n      swap1\n        /* \"contracts/Lottery.sol\":9297:9330  UsersInfo[msg.sender].eggsinfo[i] */\n      dup2\n      lt\n      tag_225\n      jumpi\n      tag_225\n      tag_102\n      jump\t// in\n    tag_225:\n      swap1\n      0x00\n      mstore\n      keccak256(0x00, 0x20)\n      swap1\n      0x02\n      mul\n      add\n        /* \"contracts/Lottery.sol\":9297:9342  UsersInfo[msg.sender].eggsinfo[i].blocknumber */\n      0x01\n      add\n      0x01\n      swap1\n      sload\n      swap1\n      0x0100\n      exp\n      swap1\n      div\n      sub(shl(0xf8, 0x01), 0x01)\n      and\n      sub(shl(0xf8, 0x01), 0x01)\n        /* \"contracts/Lottery.sol\":9254:9372  blockhash(... */\n      and\n      blockhash\n        /* \"contracts/Lottery.sol\":9141:9398  abi.encodePacked(... */\n      add(0x20, mload(0x40))\n      tag_227\n      swap3\n      swap2\n      swap1\n        /* \"#utility.yul\":6440:6459   */\n      swap2\n      dup3\n      mstore\n        /* \"#utility.yul\":6484:6486   */\n      0x20\n        /* \"#utility.yul\":6475:6487   */\n      dup3\n      add\n        /* \"#utility.yul\":6468:6496   */\n      mstore\n        /* \"#utility.yul\":6521:6523   */\n      0x40\n        /* \"#utility.yul\":6512:6524   */\n      add\n      swap1\n        /* \"#utility.yul\":6283:6530   */\n      jump\n        /* \"contracts/Lottery.sol\":9141:9398  abi.encodePacked(... */\n    tag_227:\n      mload(0x40)\n      0x20\n      dup2\n      dup4\n      sub\n      sub\n      dup2\n      mstore\n      swap1\n      0x40\n      mstore\n        /* \"contracts/Lottery.sol\":9106:9420  keccak256(... */\n      dup1\n      mload\n      swap1\n      0x20\n      add\n      keccak256\n        /* \"contracts/Lottery.sol\":9054:9452  uint32(... */\n      0xe0\n      shr\n        /* \"contracts/Lottery.sol\":9034:9452  uint32 LotteryNum = uint32(... */\n      swap1\n      pop\n        /* \"contracts/Lottery.sol\":9495:9514  uint256 Winningrade */\n      0x00\n        /* \"contracts/Lottery.sol\":9517:9544  GetWinninggrade(LotteryNum) */\n      tag_229\n        /* \"contracts/Lottery.sol\":9533:9543  LotteryNum */\n      dup3\n        /* \"contracts/Lottery.sol\":9517:9532  GetWinninggrade */\n      tag_230\n        /* \"contracts/Lottery.sol\":9517:9544  GetWinninggrade(LotteryNum) */\n      jump\t// in\n    tag_229:\n        /* \"contracts/Lottery.sol\":9495:9544  uint256 Winningrade = GetWinninggrade(LotteryNum) */\n      swap1\n      pop\n        /* \"contracts/Lottery.sol\":9597:9612  Winningrade > 0 */\n      dup1\n      iszero\n        /* \"contracts/Lottery.sol\":9593:10134  if (Winningrade > 0) {... */\n      tag_231\n      jumpi\n        /* \"contracts/Lottery.sol\":9719:9729  msg.sender */\n      caller\n        /* \"contracts/Lottery.sol\":9632:9652  uint256 WinningMoney */\n      0x00\n        /* \"contracts/Lottery.sol\":9709:9730  UsersInfo[msg.sender] */\n      swap1\n      dup2\n      mstore\n        /* \"contracts/Lottery.sol\":9709:9718  UsersInfo */\n      0x09\n        /* \"contracts/Lottery.sol\":9709:9730  UsersInfo[msg.sender] */\n      0x20\n      mstore\n      0x40\n      dup2\n      keccak256\n        /* \"contracts/Lottery.sol\":9709:9742  UsersInfo[msg.sender].eggsinfo[i] */\n      dup1\n      sload\n        /* \"contracts/Lottery.sol\":1287:1297  0.02 ether */\n      0x470de4df820000\n      swap2\n        /* \"contracts/Lottery.sol\":9709:9730  UsersInfo[msg.sender] */\n      swap1\n        /* \"contracts/Lottery.sol\":9740:9741  i */\n      dup7\n      swap1\n        /* \"contracts/Lottery.sol\":9709:9742  UsersInfo[msg.sender].eggsinfo[i] */\n      dup2\n      lt\n      tag_233\n      jumpi\n      tag_233\n      tag_102\n      jump\t// in\n    tag_233:\n      0x00\n      swap2\n      dup3\n      mstore\n      0x20\n      swap1\n      swap2\n      keccak256\n        /* \"contracts/Lottery.sol\":9709:9746  UsersInfo[msg.sender].eggsinfo[i].mul */\n      0x01\n        /* \"contracts/Lottery.sol\":9709:9742  UsersInfo[msg.sender].eggsinfo[i] */\n      0x02\n      swap1\n      swap3\n      mul\n      add\n        /* \"contracts/Lottery.sol\":9709:9746  UsersInfo[msg.sender].eggsinfo[i].mul */\n      add\n      sload\n      0xff\n      and\n        /* \"contracts/Lottery.sol\":9655:9686  GetWinningmultiple(Winningrade) */\n      tag_235\n        /* \"contracts/Lottery.sol\":9674:9685  Winningrade */\n      dup5\n        /* \"contracts/Lottery.sol\":9655:9673  GetWinningmultiple */\n      tag_236\n        /* \"contracts/Lottery.sol\":9655:9686  GetWinningmultiple(Winningrade) */\n      jump\t// in\n    tag_235:\n        /* \"contracts/Lottery.sol\":9655:9746  GetWinningmultiple(Winningrade) *... */\n      tag_237\n      swap2\n      swap1\n      tag_164\n      jump\t// in\n    tag_237:\n        /* \"contracts/Lottery.sol\":9655:9780  GetWinningmultiple(Winningrade) *... */\n      tag_238\n      swap2\n      swap1\n      tag_164\n      jump\t// in\n    tag_238:\n        /* \"contracts/Lottery.sol\":9632:9780  uint256 WinningMoney = GetWinningmultiple(Winningrade) *... */\n      swap1\n      pop\n        /* \"contracts/Lottery.sol\":9799:9828  WinningAmount += WinningMoney */\n      tag_239\n        /* \"contracts/Lottery.sol\":9632:9780  uint256 WinningMoney = GetWinningmultiple(Winningrade) *... */\n      dup2\n        /* \"contracts/Lottery.sol\":9799:9828  WinningAmount += WinningMoney */\n      dup7\n      tag_88\n      jump\t// in\n    tag_239:\n        /* \"contracts/Lottery.sol\":9876:10073  Winninginfo(... */\n      0x40\n      dup1\n      mload\n      0x80\n      dup2\n      add\n      dup3\n      mstore\n      0xffffffff\n      dup7\n      and\n      dup2\n      mstore\n        /* \"contracts/Lottery.sol\":9951:9961  msg.sender */\n      caller\n        /* \"contracts/Lottery.sol\":9847:9873  Winninginfo memory winning */\n      0x00\n        /* \"contracts/Lottery.sol\":9941:9962  UsersInfo[msg.sender] */\n      swap1\n      dup2\n      mstore\n        /* \"contracts/Lottery.sol\":9941:9950  UsersInfo */\n      0x09\n        /* \"contracts/Lottery.sol\":9876:10073  Winninginfo(... */\n      0x20\n        /* \"contracts/Lottery.sol\":9941:9962  UsersInfo[msg.sender] */\n      swap1\n      dup2\n      mstore\n      swap3\n      dup2\n      keccak256\n        /* \"contracts/Lottery.sol\":9941:9974  UsersInfo[msg.sender].eggsinfo[i] */\n      dup1\n      sload\n        /* \"contracts/Lottery.sol\":9799:9828  WinningAmount += WinningMoney */\n      swap5\n      swap10\n      pop\n        /* \"contracts/Lottery.sol\":9847:9873  Winninginfo memory winning */\n      swap1\n      swap4\n        /* \"contracts/Lottery.sol\":9876:10073  Winninginfo(... */\n      swap2\n      swap3\n      dup4\n      add\n      swap2\n        /* \"contracts/Lottery.sol\":9972:9973  i */\n      dup9\n      swap1\n        /* \"contracts/Lottery.sol\":9941:9974  UsersInfo[msg.sender].eggsinfo[i] */\n      dup2\n      lt\n      tag_241\n      jumpi\n      tag_241\n      tag_102\n      jump\t// in\n    tag_241:\n      0x00\n      swap2\n      dup3\n      mstore\n      0x20\n      dup1\n      dup4\n      keccak256\n        /* \"contracts/Lottery.sol\":9941:9978  UsersInfo[msg.sender].eggsinfo[i].mul */\n      0x01\n        /* \"contracts/Lottery.sol\":9941:9974  UsersInfo[msg.sender].eggsinfo[i] */\n      0x02\n      swap1\n      swap4\n      mul\n      add\n        /* \"contracts/Lottery.sol\":9941:9978  UsersInfo[msg.sender].eggsinfo[i].mul */\n      dup3\n      add\n      sload\n      0xff\n      swap1\n      dup2\n      and\n        /* \"contracts/Lottery.sol\":9876:10073  Winninginfo(... */\n      dup6\n      mstore\n      0xffffffffff\n        /* \"contracts/Lottery.sol\":10007:10022  block.timestamp */\n      timestamp\n        /* \"contracts/Lottery.sol\":9876:10073  Winninginfo(... */\n      and\n      dup6\n      dup4\n      add\n      mstore\n        /* \"contracts/Lottery.sol\":10045:10055  msg.sender */\n      caller\n        /* \"contracts/Lottery.sol\":9876:10073  Winninginfo(... */\n      0x40\n      swap6\n      dup7\n      add\n      mstore\n        /* \"contracts/Lottery.sol\":10092:10105  WinningRecord */\n      0x0b\n        /* \"contracts/Lottery.sol\":10092:10119  WinningRecord.push(winning) */\n      dup1\n      sload\n      swap4\n      dup5\n      add\n      dup2\n      sstore\n      swap1\n      swap4\n      mstore\n      dup5\n      mload\n      0x03\n      swap1\n      swap3\n      mul\n      0x0175b7a638427703f0dbe7bb9bbf987a2551717b34e79f33b5b1008d1fa01db9\n      dup2\n      add\n      dup1\n      sload\n      swap3\n      dup8\n      add\n      mload\n      swap1\n      swap5\n      and\n      0x0100000000\n      mul\n      not(0xffffffffff)\n      swap1\n      swap3\n      and\n      0xffffffff\n      swap1\n      swap4\n      and\n      swap3\n      swap1\n      swap3\n      or\n      or\n      swap1\n      swap2\n      sstore\n      swap1\n      dup3\n      add\n      mload\n      0x0175b7a638427703f0dbe7bb9bbf987a2551717b34e79f33b5b1008d1fa01dba\n      dup3\n      add\n      sstore\n      0x60\n      swap1\n      swap2\n      add\n      mload\n      0x0175b7a638427703f0dbe7bb9bbf987a2551717b34e79f33b5b1008d1fa01dbb\n      swap1\n      swap2\n      add\n      dup1\n      sload\n      sub(shl(0xa0, 0x01), 0x01)\n      swap3\n      swap1\n      swap3\n      and\n      not(sub(shl(0xa0, 0x01), 0x01))\n      swap1\n      swap3\n      and\n      swap2\n      swap1\n      swap2\n      or\n      swap1\n      sstore\n      pop\n      pop\n        /* \"contracts/Lottery.sol\":9593:10134  if (Winningrade > 0) {... */\n    tag_231:\n        /* \"contracts/Lottery.sol\":10186:10296  OpenedLotInfo(... */\n      0x40\n      dup1\n      mload\n      dup1\n      dup3\n      add\n      dup3\n      mstore\n      0xffffffff\n      dup5\n      and\n      dup2\n      mstore\n        /* \"contracts/Lottery.sol\":10255:10265  msg.sender */\n      caller\n        /* \"contracts/Lottery.sol\":10148:10183  OpenedLotInfo memory OpenedLotterys */\n      0x00\n        /* \"contracts/Lottery.sol\":10245:10266  UsersInfo[msg.sender] */\n      swap1\n      dup2\n      mstore\n        /* \"contracts/Lottery.sol\":10245:10254  UsersInfo */\n      0x09\n        /* \"contracts/Lottery.sol\":10186:10296  OpenedLotInfo(... */\n      0x20\n        /* \"contracts/Lottery.sol\":10245:10266  UsersInfo[msg.sender] */\n      swap1\n      dup2\n      mstore\n      swap3\n      dup2\n      keccak256\n        /* \"contracts/Lottery.sol\":10245:10278  UsersInfo[msg.sender].eggsinfo[i] */\n      dup1\n      sload\n        /* \"contracts/Lottery.sol\":10148:10183  OpenedLotInfo memory OpenedLotterys */\n      swap2\n      swap4\n        /* \"contracts/Lottery.sol\":10186:10296  OpenedLotInfo(... */\n      dup4\n      add\n      swap2\n        /* \"contracts/Lottery.sol\":10276:10277  i */\n      dup8\n      swap1\n        /* \"contracts/Lottery.sol\":10245:10278  UsersInfo[msg.sender].eggsinfo[i] */\n      dup2\n      lt\n      tag_245\n      jumpi\n      tag_245\n      tag_102\n      jump\t// in\n    tag_245:\n      0x00\n      swap2\n      dup3\n      mstore\n      0x20\n      dup1\n      dup4\n      keccak256\n        /* \"contracts/Lottery.sol\":10245:10282  UsersInfo[msg.sender].eggsinfo[i].mul */\n      0x01\n        /* \"contracts/Lottery.sol\":10245:10278  UsersInfo[msg.sender].eggsinfo[i] */\n      0x02\n      swap1\n      swap4\n      mul\n      add\n        /* \"contracts/Lottery.sol\":10245:10282  UsersInfo[msg.sender].eggsinfo[i].mul */\n      dup3\n      add\n      sload\n      0xff\n      swap1\n      dup2\n      and\n        /* \"contracts/Lottery.sol\":10186:10296  OpenedLotInfo(... */\n      swap1\n      swap5\n      mstore\n        /* \"contracts/Lottery.sol\":10321:10331  msg.sender */\n      caller\n        /* \"contracts/Lottery.sol\":10311:10332  UsersInfo[msg.sender] */\n      dup4\n      mstore\n        /* \"contracts/Lottery.sol\":10311:10320  UsersInfo */\n      0x09\n        /* \"contracts/Lottery.sol\":10311:10332  UsersInfo[msg.sender] */\n      dup2\n      mstore\n      0x40\n      dup4\n      keccak256\n        /* \"contracts/Lottery.sol\":10311:10343  UsersInfo[msg.sender].openedeggs */\n      dup3\n      add\n        /* \"contracts/Lottery.sol\":10311:10364  UsersInfo[msg.sender].openedeggs.push(OpenedLotterys) */\n      dup1\n      sload\n      swap3\n      dup4\n      add\n      dup2\n      sstore\n      dup4\n      mstore\n      swap2\n      dup3\n      swap1\n      keccak256\n      dup5\n      mload\n      swap2\n      add\n      dup1\n      sload\n      swap5\n      swap1\n      swap3\n      add\n      mload\n      swap1\n      swap3\n      and\n      0x0100000000\n      mul\n      not(0xffffffffff)\n      swap1\n      swap4\n      and\n      0xffffffff\n      swap1\n      swap3\n      and\n      swap2\n      swap1\n      swap2\n      or\n      swap2\n      swap1\n      swap2\n      or\n      swap1\n      sstore\n      pop\n      pop\n      pop\n        /* \"contracts/Lottery.sol\":8685:10375  for (uint256 i = 0; i < UsersInfo[msg.sender].eggsinfo.length; i++) {... */\n    tag_216:\n        /* \"contracts/Lottery.sol\":8748:8751  i++ */\n      0x01\n      add\n        /* \"contracts/Lottery.sol\":8685:10375  for (uint256 i = 0; i < UsersInfo[msg.sender].eggsinfo.length; i++) {... */\n      jump(tag_214)\n    tag_215:\n      pop\n        /* \"contracts/Lottery.sol\":10462:10472  msg.sender */\n      caller\n        /* \"contracts/Lottery.sol\":10452:10473  UsersInfo[msg.sender] */\n      0x00\n      swap1\n      dup2\n      mstore\n        /* \"contracts/Lottery.sol\":10452:10461  UsersInfo */\n      0x09\n        /* \"contracts/Lottery.sol\":10452:10473  UsersInfo[msg.sender] */\n      0x20\n      mstore\n      0x40\n      dup2\n      keccak256\n        /* \"contracts/Lottery.sol\":10445:10482  delete UsersInfo[msg.sender].eggsinfo */\n      tag_248\n      swap2\n      tag_249\n      jump\t// in\n    tag_248:\n        /* \"contracts/Lottery.sol\":10554:10571  WinningAmount > 0 */\n      dup1\n      iszero\n        /* \"contracts/Lottery.sol\":10550:11244  if (WinningAmount > 0) {... */\n      tag_250\n      jumpi\n        /* \"contracts/Lottery.sol\":10587:10611  uint256 MaxWinningAmount */\n      0x00\n        /* \"contracts/Lottery.sol\":10614:10910  SafeMathdiv(... */\n      tag_251\n        /* \"contracts/Lottery.sol\":10643:10875  SafeMathmul(... */\n      tag_252\n        /* \"contracts/Lottery.sol\":10676:10833  SafeMathsub(... */\n      tag_253\n        /* \"contracts/Lottery.sol\":10713:10734  address(this).balance */\n      selfbalance\n        /* \"contracts/Lottery.sol\":10801:10810  DevProfit */\n      sload(0x01)\n        /* \"contracts/Lottery.sol\":10779:10798  TotalReferralProfit */\n      sload(0x07)\n        /* \"contracts/Lottery.sol\":10761:10776  InvestorsProfit */\n      sload(0x05)\n        /* \"contracts/Lottery.sol\":10761:10798  InvestorsProfit + TotalReferralProfit */\n      tag_87\n      swap2\n      swap1\n      tag_88\n      jump\t// in\n        /* \"contracts/Lottery.sol\":10676:10833  SafeMathsub(... */\n    tag_253:\n        /* \"contracts/Lottery.sol\":10855:10857  70 */\n      0x46\n        /* \"contracts/Lottery.sol\":10643:10654  SafeMathmul */\n      tag_110\n        /* \"contracts/Lottery.sol\":10643:10875  SafeMathmul(... */\n      jump\t// in\n    tag_252:\n        /* \"contracts/Lottery.sol\":10893:10896  100 */\n      0x64\n        /* \"contracts/Lottery.sol\":10614:10625  SafeMathdiv */\n      tag_111\n        /* \"contracts/Lottery.sol\":10614:10910  SafeMathdiv(... */\n      jump\t// in\n    tag_251:\n        /* \"contracts/Lottery.sol\":10587:10910  uint256 MaxWinningAmount = SafeMathdiv(... */\n      swap1\n      pop\n        /* \"contracts/Lottery.sol\":10945:10961  MaxWinningAmount */\n      dup1\n        /* \"contracts/Lottery.sol\":10929:10942  WinningAmount */\n      dup3\n        /* \"contracts/Lottery.sol\":10929:10961  WinningAmount > MaxWinningAmount */\n      gt\n        /* \"contracts/Lottery.sol\":10925:11011  if (WinningAmount > MaxWinningAmount)... */\n      iszero\n      tag_256\n      jumpi\n        /* \"contracts/Lottery.sol\":10995:11011  MaxWinningAmount */\n      dup1\n        /* \"contracts/Lottery.sol\":10979:11011  WinningAmount = MaxWinningAmount */\n      swap2\n      pop\n        /* \"contracts/Lottery.sol\":10925:11011  if (WinningAmount > MaxWinningAmount)... */\n    tag_256:\n        /* \"contracts/Lottery.sol\":11026:11040  uint256 profit */\n      0x00\n        /* \"contracts/Lottery.sol\":11043:11090  SafeMathdiv(SafeMathmul(WinningAmount, 5), 100) */\n      tag_257\n        /* \"contracts/Lottery.sol\":11055:11084  SafeMathmul(WinningAmount, 5) */\n      tag_252\n        /* \"contracts/Lottery.sol\":11067:11080  WinningAmount */\n      dup5\n        /* \"contracts/Lottery.sol\":11082:11083  5 */\n      0x05\n        /* \"contracts/Lottery.sol\":11055:11066  SafeMathmul */\n      tag_110\n        /* \"contracts/Lottery.sol\":11055:11084  SafeMathmul(WinningAmount, 5) */\n      jump\t// in\n        /* \"contracts/Lottery.sol\":11043:11090  SafeMathdiv(SafeMathmul(WinningAmount, 5), 100) */\n    tag_257:\n        /* \"contracts/Lottery.sol\":11026:11090  uint256 profit = SafeMathdiv(SafeMathmul(WinningAmount, 5), 100) */\n      swap1\n      pop\n        /* \"contracts/Lottery.sol\":11123:11129  profit */\n      dup1\n        /* \"contracts/Lottery.sol\":11104:11119  InvestorsProfit */\n      0x05\n      0x00\n        /* \"contracts/Lottery.sol\":11104:11129  InvestorsProfit += profit */\n      dup3\n      dup3\n      sload\n      tag_259\n      swap2\n      swap1\n      tag_88\n      jump\t// in\n    tag_259:\n      swap3\n      pop\n      pop\n      dup2\n      swap1\n      sstore\n      pop\n        /* \"contracts/Lottery.sol\":11156:11162  profit */\n      dup1\n        /* \"contracts/Lottery.sol\":11143:11152  DevProfit */\n      0x01\n      0x00\n        /* \"contracts/Lottery.sol\":11143:11162  DevProfit += profit */\n      dup3\n      dup3\n      sload\n      tag_260\n      swap2\n      swap1\n      tag_88\n      jump\t// in\n    tag_260:\n      swap1\n      swap2\n      sstore\n      pop\n        /* \"contracts/Lottery.sol\":11185:11195  msg.sender */\n      caller\n      swap1\n      pop\n        /* \"contracts/Lottery.sol\":11177:11233  payable(msg.sender).transfer(WinningAmount - profit * 2) */\n      0x08fc\n        /* \"contracts/Lottery.sol\":11222:11232  profit * 2 */\n      tag_261\n        /* \"contracts/Lottery.sol\":11222:11228  profit */\n      dup4\n        /* \"contracts/Lottery.sol\":11231:11232  2 */\n      0x02\n        /* \"contracts/Lottery.sol\":11222:11232  profit * 2 */\n      tag_164\n      jump\t// in\n    tag_261:\n        /* \"contracts/Lottery.sol\":11206:11232  WinningAmount - profit * 2 */\n      tag_262\n      swap1\n        /* \"contracts/Lottery.sol\":11206:11219  WinningAmount */\n      dup7\n        /* \"contracts/Lottery.sol\":11206:11232  WinningAmount - profit * 2 */\n      tag_125\n      jump\t// in\n    tag_262:\n        /* \"contracts/Lottery.sol\":11177:11233  payable(msg.sender).transfer(WinningAmount - profit * 2) */\n      mload(0x40)\n      dup2\n      iszero\n      swap1\n      swap3\n      mul\n      swap2\n      0x00\n      dup2\n      dup2\n      dup2\n      dup6\n      dup9\n      dup9\n      call\n      swap4\n      pop\n      pop\n      pop\n      pop\n      iszero\n      dup1\n      iszero\n      tag_119\n      jumpi\n      returndatasize\n      0x00\n      dup1\n      returndatacopy\n      revert(0x00, returndatasize)\n        /* \"contracts/Lottery.sol\":10550:11244  if (WinningAmount > 0) {... */\n    tag_250:\n        /* \"contracts/Lottery.sol\":7886:11250  {... */\n      pop\n        /* \"contracts/Lottery.sol\":7857:11250  function OpenEggs() external {... */\n      jump\t// out\n        /* \"contracts/Lottery.sol\":4155:6544  function BuyEggs(... */\n    tag_58:\n        /* \"contracts/Lottery.sol\":1287:1297  0.02 ether */\n      0x470de4df820000\n        /* \"contracts/Lottery.sol\":4303:4312  msg.value */\n      callvalue\n        /* \"contracts/Lottery.sol\":4303:4327  msg.value >= PerEggPrice */\n      lt\n      iszero\n        /* \"contracts/Lottery.sol\":4295:4352  require(msg.value >= PerEggPrice, \"Buy at least one egg\") */\n      tag_266\n      jumpi\n      mload(0x40)\n      shl(0xe5, 0x461bcd)\n      dup2\n      mstore\n        /* \"#utility.yul\":6737:6739   */\n      0x20\n        /* \"contracts/Lottery.sol\":4295:4352  require(msg.value >= PerEggPrice, \"Buy at least one egg\") */\n      0x04\n      dup3\n      add\n        /* \"#utility.yul\":6719:6740   */\n      mstore\n        /* \"#utility.yul\":6776:6778   */\n      0x14\n        /* \"#utility.yul\":6756:6774   */\n      0x24\n      dup3\n      add\n        /* \"#utility.yul\":6749:6779   */\n      mstore\n      shl(0x60, 0x427579206174206c65617374206f6e6520656767)\n        /* \"#utility.yul\":6795:6813   */\n      0x44\n      dup3\n      add\n        /* \"#utility.yul\":6788:6838   */\n      mstore\n        /* \"#utility.yul\":6855:6873   */\n      0x64\n      add\n        /* \"contracts/Lottery.sol\":4295:4352  require(msg.value >= PerEggPrice, \"Buy at least one egg\") */\n      tag_84\n        /* \"#utility.yul\":6535:6879   */\n      jump\n        /* \"contracts/Lottery.sol\":4295:4352  require(msg.value >= PerEggPrice, \"Buy at least one egg\") */\n    tag_266:\n        /* \"contracts/Lottery.sol\":4377:4378  1 */\n      0x01\n        /* \"contracts/Lottery.sol\":4370:4373  mul */\n      dup4\n        /* \"contracts/Lottery.sol\":4370:4378  mul >= 1 */\n      0xff\n      and\n      lt\n      iszero\n        /* \"contracts/Lottery.sol\":4370:4392  mul >= 1 && mul <= 100 */\n      dup1\n      iszero\n      tag_269\n      jumpi\n      pop\n        /* \"contracts/Lottery.sol\":4389:4392  100 */\n      0x64\n        /* \"contracts/Lottery.sol\":4382:4385  mul */\n      dup4\n        /* \"contracts/Lottery.sol\":4382:4392  mul <= 100 */\n      0xff\n      and\n      gt\n      iszero\n        /* \"contracts/Lottery.sol\":4370:4392  mul >= 1 && mul <= 100 */\n    tag_269:\n        /* \"contracts/Lottery.sol\":4362:4424  require(mul >= 1 && mul <= 100, \"Multiples between 1 and 100\") */\n      tag_270\n      jumpi\n      mload(0x40)\n      shl(0xe5, 0x461bcd)\n      dup2\n      mstore\n        /* \"#utility.yul\":7086:7088   */\n      0x20\n        /* \"contracts/Lottery.sol\":4362:4424  require(mul >= 1 && mul <= 100, \"Multiples between 1 and 100\") */\n      0x04\n      dup3\n      add\n        /* \"#utility.yul\":7068:7089   */\n      mstore\n        /* \"#utility.yul\":7125:7127   */\n      0x1b\n        /* \"#utility.yul\":7105:7123   */\n      0x24\n      dup3\n      add\n        /* \"#utility.yul\":7098:7128   */\n      mstore\n        /* \"#utility.yul\":7164:7193   */\n      0x4d756c7469706c6573206265747765656e203120616e64203130300000000000\n        /* \"#utility.yul\":7144:7162   */\n      0x44\n      dup3\n      add\n        /* \"#utility.yul\":7137:7194   */\n      mstore\n        /* \"#utility.yul\":7211:7229   */\n      0x64\n      add\n        /* \"contracts/Lottery.sol\":4362:4424  require(mul >= 1 && mul <= 100, \"Multiples between 1 and 100\") */\n      tag_84\n        /* \"#utility.yul\":6884:7235   */\n      jump\n        /* \"contracts/Lottery.sol\":4362:4424  require(mul >= 1 && mul <= 100, \"Multiples between 1 and 100\") */\n    tag_270:\n        /* \"contracts/Lottery.sol\":4467:4468  1 */\n      0x01\n        /* \"contracts/Lottery.sol\":4455:4463  LotCount */\n      dup5\n        /* \"contracts/Lottery.sol\":4455:4468  LotCount >= 1 */\n      0xffff\n      and\n      lt\n      iszero\n        /* \"contracts/Lottery.sol\":4455:4488  LotCount >= 1 && LotCount <= 1000 */\n      dup1\n      iszero\n      tag_273\n      jumpi\n      pop\n        /* \"contracts/Lottery.sol\":4484:4488  1000 */\n      0x03e8\n        /* \"contracts/Lottery.sol\":4472:4480  LotCount */\n      dup5\n        /* \"contracts/Lottery.sol\":4472:4488  LotCount <= 1000 */\n      0xffff\n      and\n      gt\n      iszero\n        /* \"contracts/Lottery.sol\":4455:4488  LotCount >= 1 && LotCount <= 1000 */\n    tag_273:\n        /* \"contracts/Lottery.sol\":4434:4546  require(... */\n      tag_274\n      jumpi\n      mload(0x40)\n      shl(0xe5, 0x461bcd)\n      dup2\n      mstore\n        /* \"#utility.yul\":7442:7444   */\n      0x20\n        /* \"contracts/Lottery.sol\":4434:4546  require(... */\n      0x04\n      dup3\n      add\n        /* \"#utility.yul\":7424:7445   */\n      dup2\n      swap1\n      mstore\n        /* \"#utility.yul\":7461:7479   */\n      0x24\n      dup3\n      add\n        /* \"#utility.yul\":7454:7484   */\n      mstore\n        /* \"#utility.yul\":7520:7554   */\n      0x4e756d626572206f662065676773206265747765656e203120616e6420313030\n        /* \"#utility.yul\":7500:7518   */\n      0x44\n      dup3\n      add\n        /* \"#utility.yul\":7493:7555   */\n      mstore\n        /* \"#utility.yul\":7572:7590   */\n      0x64\n      add\n        /* \"contracts/Lottery.sol\":4434:4546  require(... */\n      tag_84\n        /* \"#utility.yul\":7240:7596   */\n      jump\n        /* \"contracts/Lottery.sol\":4434:4546  require(... */\n    tag_274:\n        /* \"contracts/Lottery.sol\":4556:4579  uint256 AllLotteryCount */\n      0x00\n        /* \"contracts/Lottery.sol\":4582:4617  SafeMathdiv(msg.value, PerEggPrice) */\n      tag_277\n        /* \"contracts/Lottery.sol\":4594:4603  msg.value */\n      callvalue\n        /* \"contracts/Lottery.sol\":1287:1297  0.02 ether */\n      0x470de4df820000\n        /* \"contracts/Lottery.sol\":4582:4593  SafeMathdiv */\n      tag_111\n        /* \"contracts/Lottery.sol\":4582:4617  SafeMathdiv(msg.value, PerEggPrice) */\n      jump\t// in\n    tag_277:\n        /* \"contracts/Lottery.sol\":4556:4617  uint256 AllLotteryCount = SafeMathdiv(msg.value, PerEggPrice) */\n      swap1\n      pop\n        /* \"contracts/Lottery.sol\":4655:4669  LotCount * mul */\n      tag_278\n      0xff\n      dup6\n      and\n        /* \"contracts/Lottery.sol\":4655:4663  LotCount */\n      dup7\n        /* \"contracts/Lottery.sol\":4655:4669  LotCount * mul */\n      tag_279\n      jump\t// in\n    tag_278:\n        /* \"contracts/Lottery.sol\":4636:4669  AllLotteryCount == LotCount * mul */\n      0xffff\n      and\n        /* \"contracts/Lottery.sol\":4636:4651  AllLotteryCount */\n      dup2\n        /* \"contracts/Lottery.sol\":4636:4669  AllLotteryCount == LotCount * mul */\n      eq\n        /* \"contracts/Lottery.sol\":4628:4686  require(AllLotteryCount == LotCount * mul, \"Invalid data\") */\n      tag_280\n      jumpi\n      mload(0x40)\n      shl(0xe5, 0x461bcd)\n      dup2\n      mstore\n        /* \"#utility.yul\":8040:8042   */\n      0x20\n        /* \"contracts/Lottery.sol\":4628:4686  require(AllLotteryCount == LotCount * mul, \"Invalid data\") */\n      0x04\n      dup3\n      add\n        /* \"#utility.yul\":8022:8043   */\n      mstore\n        /* \"#utility.yul\":8079:8081   */\n      0x0c\n        /* \"#utility.yul\":8059:8077   */\n      0x24\n      dup3\n      add\n        /* \"#utility.yul\":8052:8082   */\n      mstore\n      shl(0xa0, 0x496e76616c69642064617461)\n        /* \"#utility.yul\":8098:8116   */\n      0x44\n      dup3\n      add\n        /* \"#utility.yul\":8091:8133   */\n      mstore\n        /* \"#utility.yul\":8150:8168   */\n      0x64\n      add\n        /* \"contracts/Lottery.sol\":4628:4686  require(AllLotteryCount == LotCount * mul, \"Invalid data\") */\n      tag_84\n        /* \"#utility.yul\":7838:8174   */\n      jump\n        /* \"contracts/Lottery.sol\":4628:4686  require(AllLotteryCount == LotCount * mul, \"Invalid data\") */\n    tag_280:\n        /* \"contracts/Lottery.sol\":4702:4711  uint256 i */\n      0x00\n        /* \"contracts/Lottery.sol\":4697:5183  for (uint256 i = 0; i < LotCount; i++) {... */\n    tag_283:\n        /* \"contracts/Lottery.sol\":4721:4729  LotCount */\n      dup6\n        /* \"contracts/Lottery.sol\":4717:4729  i < LotCount */\n      0xffff\n      and\n        /* \"contracts/Lottery.sol\":4717:4718  i */\n      dup2\n        /* \"contracts/Lottery.sol\":4717:4729  i < LotCount */\n      lt\n        /* \"contracts/Lottery.sol\":4697:5183  for (uint256 i = 0; i < LotCount; i++) {... */\n      iszero\n      tag_284\n      jumpi\n        /* \"contracts/Lottery.sol\":4750:4772  Egginfo memory egginfo */\n      0x00\n        /* \"contracts/Lottery.sol\":4775:5113  Egginfo(... */\n      mload(0x40)\n      dup1\n      0x60\n      add\n      0x40\n      mstore\n      dup1\n        /* \"contracts/Lottery.sol\":4873:4888  block.timestamp */\n      timestamp\n        /* \"contracts/Lottery.sol\":4914:4928  block.coinbase */\n      coinbase\n        /* \"contracts/Lottery.sol\":4954:4964  msg.sender */\n      caller\n        /* \"contracts/Lottery.sol\":4990:4999  Lucknum++ */\n      dup10\n      dup1\n      tag_286\n      swap1\n      tag_287\n      jump\t// in\n    tag_286:\n      swap11\n      pop\n        /* \"contracts/Lottery.sol\":4831:5021  abi.encodePacked(... */\n      add(0x20, mload(0x40))\n      tag_288\n      swap5\n      swap4\n      swap3\n      swap2\n      swap1\n        /* \"#utility.yul\":8620:8639   */\n      swap4\n      dup5\n      mstore\n        /* \"#utility.yul\":8677:8679   */\n      0x60\n        /* \"#utility.yul\":8673:8688   */\n      swap3\n      dup4\n      shl\n      not(0xffffffffffffffffffffffff)\n        /* \"#utility.yul\":8669:8722   */\n      swap1\n      dup2\n      and\n        /* \"#utility.yul\":8664:8666   */\n      0x20\n        /* \"#utility.yul\":8655:8667   */\n      dup7\n      add\n        /* \"#utility.yul\":8648:8723   */\n      mstore\n        /* \"#utility.yul\":8757:8772   */\n      swap2\n      swap1\n      swap3\n      shl\n        /* \"#utility.yul\":8753:8806   */\n      and\n        /* \"#utility.yul\":8748:8750   */\n      0x34\n        /* \"#utility.yul\":8739:8751   */\n      dup4\n      add\n        /* \"#utility.yul\":8732:8807   */\n      mstore\n        /* \"#utility.yul\":8845:8847   */\n      0x18\n        /* \"#utility.yul\":8841:8856   */\n      shl\n      not(0xffffff)\n        /* \"#utility.yul\":8837:8872   */\n      and\n        /* \"#utility.yul\":8832:8834   */\n      0x48\n        /* \"#utility.yul\":8823:8835   */\n      dup3\n      add\n        /* \"#utility.yul\":8816:8873   */\n      mstore\n        /* \"#utility.yul\":8898:8901   */\n      0x65\n        /* \"#utility.yul\":8889:8902   */\n      add\n      swap1\n        /* \"#utility.yul\":8391:8908   */\n      jump\n        /* \"contracts/Lottery.sol\":4831:5021  abi.encodePacked(... */\n    tag_288:\n      0x40\n      dup1\n      mload\n      not(0x1f)\n      dup2\n      dup5\n      sub\n      add\n      dup2\n      mstore\n      swap2\n      dup2\n      mstore\n        /* \"contracts/Lottery.sol\":4800:5039  keccak256(... */\n      dup2\n      mload\n        /* \"contracts/Lottery.sol\":4831:5021  abi.encodePacked(... */\n      0x20\n        /* \"contracts/Lottery.sol\":4800:5039  keccak256(... */\n      swap3\n      dup4\n      add\n      keccak256\n        /* \"contracts/Lottery.sol\":4775:5113  Egginfo(... */\n      dup4\n      mstore\n      0xff\n      dup1\n      dup12\n      and\n      dup5\n      dup5\n      add\n      mstore\n      sub(shl(0xf8, 0x01), 0x01)\n        /* \"contracts/Lottery.sol\":5086:5098  block.number */\n      number\n        /* \"contracts/Lottery.sol\":4775:5113  Egginfo(... */\n      dup2\n      and\n      swap5\n      dup4\n      add\n      swap5\n      swap1\n      swap5\n      mstore\n        /* \"contracts/Lottery.sol\":5138:5148  msg.sender */\n      caller\n      0x00\n        /* \"contracts/Lottery.sol\":5128:5149  UsersInfo[msg.sender] */\n      swap1\n      dup2\n      mstore\n        /* \"contracts/Lottery.sol\":5128:5137  UsersInfo */\n      0x09\n        /* \"contracts/Lottery.sol\":5128:5149  UsersInfo[msg.sender] */\n      dup5\n      mstore\n      dup3\n      dup2\n      keccak256\n        /* \"contracts/Lottery.sol\":5128:5172  UsersInfo[msg.sender].eggsinfo.push(egginfo) */\n      dup1\n      sload\n      0x01\n      dup2\n      dup2\n      add\n      dup4\n      sstore\n      swap2\n      dup4\n      mstore\n      swap2\n      dup6\n      swap1\n      keccak256\n      dup8\n      mload\n      0x02\n      swap1\n      swap4\n      mul\n      add\n      swap2\n      dup3\n      sstore\n      swap4\n      dup7\n      add\n      mload\n      swap6\n      swap1\n      swap3\n      add\n      mload\n      swap1\n      swap4\n      and\n      0x0100\n      mul\n      swap4\n      swap1\n      swap3\n      and\n      swap3\n      swap1\n      swap3\n      or\n      swap1\n      dup3\n      add\n      sstore\n        /* \"contracts/Lottery.sol\":4731:4734  i++ */\n      swap2\n      swap1\n      swap2\n      add\n      swap1\n      pop\n        /* \"contracts/Lottery.sol\":4697:5183  for (uint256 i = 0; i < LotCount; i++) {... */\n      jump(tag_283)\n    tag_284:\n      pop\n        /* \"contracts/Lottery.sol\":5208:5218  msg.sender */\n      caller\n        /* \"contracts/Lottery.sol\":5198:5219  UsersInfo[msg.sender] */\n      0x00\n      swap1\n      dup2\n      mstore\n        /* \"contracts/Lottery.sol\":5198:5207  UsersInfo */\n      0x09\n        /* \"contracts/Lottery.sol\":5198:5219  UsersInfo[msg.sender] */\n      0x20\n      mstore\n      0x40\n      swap1\n      keccak256\n        /* \"contracts/Lottery.sol\":5198:5227  UsersInfo[msg.sender].actived */\n      0x03\n      add\n      sload\n      0xff\n      and\n        /* \"contracts/Lottery.sol\":5193:5277  if (!UsersInfo[msg.sender].actived)... */\n      tag_291\n      jumpi\n        /* \"contracts/Lottery.sol\":5251:5261  msg.sender */\n      caller\n        /* \"contracts/Lottery.sol\":5241:5262  UsersInfo[msg.sender] */\n      0x00\n      swap1\n      dup2\n      mstore\n        /* \"contracts/Lottery.sol\":5241:5250  UsersInfo */\n      0x09\n        /* \"contracts/Lottery.sol\":5241:5262  UsersInfo[msg.sender] */\n      0x20\n      mstore\n      0x40\n      swap1\n      keccak256\n        /* \"contracts/Lottery.sol\":5241:5270  UsersInfo[msg.sender].actived */\n      0x03\n      add\n        /* \"contracts/Lottery.sol\":5241:5277  UsersInfo[msg.sender].actived = true */\n      dup1\n      sload\n      not(0xff)\n      and\n        /* \"contracts/Lottery.sol\":5273:5277  true */\n      0x01\n        /* \"contracts/Lottery.sol\":5241:5277  UsersInfo[msg.sender].actived = true */\n      or\n      swap1\n      sstore\n        /* \"contracts/Lottery.sol\":5193:5277  if (!UsersInfo[msg.sender].actived)... */\n    tag_291:\n        /* \"contracts/Lottery.sol\":5312:5326  uint256 profit */\n      0x00\n        /* \"contracts/Lottery.sol\":5329:5372  SafeMathdiv(SafeMathmul(msg.value, 3), 100) */\n      tag_292\n        /* \"contracts/Lottery.sol\":5341:5366  SafeMathmul(msg.value, 3) */\n      tag_252\n        /* \"contracts/Lottery.sol\":5353:5362  msg.value */\n      callvalue\n        /* \"contracts/Lottery.sol\":5364:5365  3 */\n      0x03\n        /* \"contracts/Lottery.sol\":5341:5352  SafeMathmul */\n      tag_110\n        /* \"contracts/Lottery.sol\":5341:5366  SafeMathmul(msg.value, 3) */\n      jump\t// in\n        /* \"contracts/Lottery.sol\":5329:5372  SafeMathdiv(SafeMathmul(msg.value, 3), 100) */\n    tag_292:\n        /* \"contracts/Lottery.sol\":5312:5372  uint256 profit = SafeMathdiv(SafeMathmul(msg.value, 3), 100) */\n      swap1\n      pop\n        /* \"contracts/Lottery.sol\":5407:5424  uint256 Refprofit */\n      0x00\n        /* \"contracts/Lottery.sol\":5427:5470  SafeMathdiv(SafeMathmul(msg.value, 4), 100) */\n      tag_294\n        /* \"contracts/Lottery.sol\":5439:5464  SafeMathmul(msg.value, 4) */\n      tag_252\n        /* \"contracts/Lottery.sol\":5451:5460  msg.value */\n      callvalue\n        /* \"contracts/Lottery.sol\":5462:5463  4 */\n      0x04\n        /* \"contracts/Lottery.sol\":5439:5450  SafeMathmul */\n      tag_110\n        /* \"contracts/Lottery.sol\":5439:5464  SafeMathmul(msg.value, 4) */\n      jump\t// in\n        /* \"contracts/Lottery.sol\":5427:5470  SafeMathdiv(SafeMathmul(msg.value, 4), 100) */\n    tag_294:\n        /* \"contracts/Lottery.sol\":5407:5470  uint256 Refprofit = SafeMathdiv(SafeMathmul(msg.value, 4), 100) */\n      swap1\n      pop\n        /* \"contracts/Lottery.sol\":5523:5529  profit */\n      dup2\n        /* \"contracts/Lottery.sol\":5510:5519  DevProfit */\n      0x01\n      0x00\n        /* \"contracts/Lottery.sol\":5510:5529  DevProfit += profit */\n      dup3\n      dup3\n      sload\n      tag_296\n      swap2\n      swap1\n      tag_88\n      jump\t// in\n    tag_296:\n      swap3\n      pop\n      pop\n      dup2\n      swap1\n      sstore\n      pop\n        /* \"contracts/Lottery.sol\":5588:5594  profit */\n      dup2\n        /* \"contracts/Lottery.sol\":5569:5584  InvestorsProfit */\n      0x05\n      0x00\n        /* \"contracts/Lottery.sol\":5569:5594  InvestorsProfit += profit */\n      dup3\n      dup3\n      sload\n      tag_297\n      swap2\n      swap1\n      tag_88\n      jump\t// in\n    tag_297:\n      swap1\n      swap2\n      sstore\n      pop\n      pop\n        /* \"contracts/Lottery.sol\":5664:5674  msg.sender */\n      caller\n        /* \"contracts/Lottery.sol\":5687:5688  0 */\n      0x00\n        /* \"contracts/Lottery.sol\":5654:5675  referrals[msg.sender] */\n      swap1\n      dup2\n      mstore\n        /* \"contracts/Lottery.sol\":5654:5663  referrals */\n      0x0a\n        /* \"contracts/Lottery.sol\":5654:5675  referrals[msg.sender] */\n      0x20\n      mstore\n      0x40\n      swap1\n      keccak256\n      sload\n      sub(shl(0xa0, 0x01), 0x01)\n      and\n        /* \"contracts/Lottery.sol\":5650:6538  if (referrals[msg.sender] == address(0)) {... */\n      tag_298\n      jumpi\n      sub(shl(0xa0, 0x01), 0x01)\n        /* \"contracts/Lottery.sol\":5856:5873  ref == msg.sender */\n      dup5\n      and\n        /* \"contracts/Lottery.sol\":5863:5873  msg.sender */\n      caller\n        /* \"contracts/Lottery.sol\":5856:5873  ref == msg.sender */\n      eq\n      dup1\n        /* \"contracts/Lottery.sol\":5856:5910  ref == msg.sender ||... */\n      tag_299\n      jumpi\n      pop\n      sub(shl(0xa0, 0x01), 0x01)\n        /* \"contracts/Lottery.sol\":5893:5910  ref == address(0) */\n      dup5\n      and\n      iszero\n        /* \"contracts/Lottery.sol\":5856:5910  ref == msg.sender ||... */\n    tag_299:\n        /* \"contracts/Lottery.sol\":5856:5960  ref == msg.sender ||... */\n      dup1\n      tag_300\n      jumpi\n      pop\n        /* \"contracts/Lottery.sol\":5941:5951  msg.sender */\n      caller\n        /* \"contracts/Lottery.sol\":5931:5952  UsersInfo[msg.sender] */\n      0x00\n      swap1\n      dup2\n      mstore\n        /* \"contracts/Lottery.sol\":5931:5940  UsersInfo */\n      0x09\n        /* \"contracts/Lottery.sol\":5931:5952  UsersInfo[msg.sender] */\n      0x20\n      mstore\n      0x40\n      swap1\n      keccak256\n        /* \"contracts/Lottery.sol\":5931:5960  UsersInfo[msg.sender].actived */\n      0x03\n      add\n      sload\n      0xff\n      and\n        /* \"contracts/Lottery.sol\":5930:5960  !UsersInfo[msg.sender].actived */\n      iszero\n        /* \"contracts/Lottery.sol\":5856:5960  ref == msg.sender ||... */\n    tag_300:\n        /* \"contracts/Lottery.sol\":5835:6101  if (... */\n      iszero\n      tag_301\n      jumpi\n        /* \"contracts/Lottery.sol\":6076:6086  DevAddress */\n      and(sub(shl(0xa0, 0x01), 0x01), sload(0x00))\n      swap4\n      pop\n        /* \"contracts/Lottery.sol\":5835:6101  if (... */\n    tag_301:\n        /* \"contracts/Lottery.sol\":6124:6134  msg.sender */\n      caller\n        /* \"contracts/Lottery.sol\":6114:6135  referrals[msg.sender] */\n      0x00\n      swap1\n      dup2\n      mstore\n        /* \"contracts/Lottery.sol\":6114:6123  referrals */\n      0x0a\n        /* \"contracts/Lottery.sol\":6114:6135  referrals[msg.sender] */\n      0x20\n      mstore\n      0x40\n      dup2\n      keccak256\n        /* \"contracts/Lottery.sol\":6114:6141  referrals[msg.sender] = ref */\n      dup1\n      sload\n      not(sub(shl(0xa0, 0x01), 0x01))\n      and\n      sub(shl(0xa0, 0x01), 0x01)\n      dup8\n      dup2\n      and\n      swap2\n      dup3\n      or\n      swap1\n      swap3\n      sstore\n        /* \"contracts/Lottery.sol\":6265:6275  DevAddress */\n      swap2\n      sload\n      and\n        /* \"contracts/Lottery.sol\":6240:6275  referrals[msg.sender] == DevAddress */\n      swap1\n      sub\n        /* \"contracts/Lottery.sol\":6236:6481  if (referrals[msg.sender] == DevAddress) {... */\n      tag_302\n      jumpi\n        /* \"contracts/Lottery.sol\":6308:6317  Refprofit */\n      dup1\n        /* \"contracts/Lottery.sol\":6295:6304  DevProfit */\n      0x01\n      0x00\n        /* \"contracts/Lottery.sol\":6295:6317  DevProfit += Refprofit */\n      dup3\n      dup3\n      sload\n      tag_303\n      swap2\n      swap1\n      tag_88\n      jump\t// in\n    tag_303:\n      swap1\n      swap2\n      sstore\n      pop\n        /* \"contracts/Lottery.sol\":6236:6481  if (referrals[msg.sender] == DevAddress) {... */\n      tag_304\n      swap1\n      pop\n      jump\n    tag_302:\n        /* \"contracts/Lottery.sol\":6376:6386  msg.sender */\n      caller\n        /* \"contracts/Lottery.sol\":6356:6388  UsersInfo[referrals[msg.sender]] */\n      0x00\n        /* \"contracts/Lottery.sol\":6366:6387  referrals[msg.sender] */\n      swap1\n      dup2\n      mstore\n        /* \"contracts/Lottery.sol\":6366:6375  referrals */\n      0x0a\n        /* \"contracts/Lottery.sol\":6366:6387  referrals[msg.sender] */\n      0x20\n      swap1\n      dup2\n      mstore\n      0x40\n      dup1\n      dup4\n      keccak256\n      sload\n      sub(shl(0xa0, 0x01), 0x01)\n      and\n        /* \"contracts/Lottery.sol\":6356:6388  UsersInfo[referrals[msg.sender]] */\n      dup4\n      mstore\n        /* \"contracts/Lottery.sol\":6356:6365  UsersInfo */\n      0x09\n        /* \"contracts/Lottery.sol\":6356:6388  UsersInfo[referrals[msg.sender]] */\n      swap1\n      swap2\n      mstore\n      dup2\n      keccak256\n        /* \"contracts/Lottery.sol\":6356:6403  UsersInfo[referrals[msg.sender]].ReferralProfit */\n      0x02\n      add\n        /* \"contracts/Lottery.sol\":6356:6416  UsersInfo[referrals[msg.sender]].ReferralProfit += Refprofit */\n      dup1\n      sload\n        /* \"contracts/Lottery.sol\":6407:6416  Refprofit */\n      dup4\n      swap3\n        /* \"contracts/Lottery.sol\":6356:6388  UsersInfo[referrals[msg.sender]] */\n      swap1\n        /* \"contracts/Lottery.sol\":6356:6416  UsersInfo[referrals[msg.sender]].ReferralProfit += Refprofit */\n      tag_305\n      swap1\n        /* \"contracts/Lottery.sol\":6407:6416  Refprofit */\n      dup5\n      swap1\n        /* \"contracts/Lottery.sol\":6356:6416  UsersInfo[referrals[msg.sender]].ReferralProfit += Refprofit */\n      tag_88\n      jump\t// in\n    tag_305:\n      swap3\n      pop\n      pop\n      dup2\n      swap1\n      sstore\n      pop\n        /* \"contracts/Lottery.sol\":6457:6466  Refprofit */\n      dup1\n        /* \"contracts/Lottery.sol\":6434:6453  TotalReferralProfit */\n      0x07\n      0x00\n        /* \"contracts/Lottery.sol\":6434:6466  TotalReferralProfit += Refprofit */\n      dup3\n      dup3\n      sload\n      tag_306\n      swap2\n      swap1\n      tag_88\n      jump\t// in\n    tag_306:\n      swap1\n      swap2\n      sstore\n      pop\n      pop\n        /* \"contracts/Lottery.sol\":6236:6481  if (referrals[msg.sender] == DevAddress) {... */\n    tag_304:\n        /* \"contracts/Lottery.sol\":6512:6527  block.timestamp */\n      timestamp\n        /* \"contracts/Lottery.sol\":6495:6509  LastBuyEggTime */\n      0x08\n        /* \"contracts/Lottery.sol\":6495:6527  LastBuyEggTime = block.timestamp */\n      sstore\n        /* \"contracts/Lottery.sol\":5650:6538  if (referrals[msg.sender] == address(0)) {... */\n    tag_298:\n        /* \"contracts/Lottery.sol\":4285:6544  {... */\n      pop\n      pop\n      pop\n        /* \"contracts/Lottery.sol\":4155:6544  function BuyEggs(... */\n      pop\n      pop\n      pop\n      pop\n      jump\t// out\n        /* \"contracts/Lottery.sol\":16674:16803  function GetLatestLottery() public view returns (OpenedLotInfo[] memory) {... */\n    tag_71:\n        /* \"contracts/Lottery.sol\":16774:16784  msg.sender */\n      caller\n        /* \"contracts/Lottery.sol\":16764:16785  UsersInfo[msg.sender] */\n      0x00\n      swap1\n      dup2\n      mstore\n        /* \"contracts/Lottery.sol\":16764:16773  UsersInfo */\n      0x09\n        /* \"contracts/Lottery.sol\":16764:16785  UsersInfo[msg.sender] */\n      0x20\n      swap1\n      dup2\n      mstore\n      0x40\n      dup1\n      dup4\n      keccak256\n        /* \"contracts/Lottery.sol\":16764:16796  UsersInfo[msg.sender].openedeggs */\n      0x01\n      add\n        /* \"contracts/Lottery.sol\":16757:16796  return UsersInfo[msg.sender].openedeggs */\n      dup1\n      sload\n      dup3\n      mload\n      dup2\n      dup6\n      mul\n      dup2\n      add\n      dup6\n      add\n      swap1\n      swap4\n      mstore\n      dup1\n      dup4\n      mstore\n        /* \"contracts/Lottery.sol\":16723:16745  OpenedLotInfo[] memory */\n      0x60\n      swap5\n        /* \"contracts/Lottery.sol\":16757:16796  return UsersInfo[msg.sender].openedeggs */\n      swap3\n      swap4\n        /* \"contracts/Lottery.sol\":16764:16796  UsersInfo[msg.sender].openedeggs */\n      swap2\n      swap3\n        /* \"contracts/Lottery.sol\":16757:16796  return UsersInfo[msg.sender].openedeggs */\n      swap1\n      swap2\n      dup5\n      add\n    tag_309:\n      dup3\n      dup3\n      lt\n      iszero\n      tag_310\n      jumpi\n      0x00\n      dup5\n      dup2\n      mstore\n      0x20\n      swap1\n      dup2\n      swap1\n      keccak256\n      0x40\n      dup1\n      mload\n      dup1\n      dup3\n      add\n      swap1\n      swap2\n      mstore\n      swap1\n      dup5\n      add\n      sload\n      0xffffffff\n      dup2\n      and\n      dup3\n      mstore\n      0x0100000000\n      swap1\n      div\n      0xff\n      and\n      dup2\n      dup4\n      add\n      mstore\n      dup3\n      mstore\n      0x01\n      swap1\n      swap3\n      add\n      swap2\n      add\n      jump(tag_309)\n    tag_310:\n      pop\n      pop\n      pop\n      pop\n      swap1\n      pop\n        /* \"contracts/Lottery.sol\":16674:16803  function GetLatestLottery() public view returns (OpenedLotInfo[] memory) {... */\n      swap1\n      jump\t// out\n        /* \"contracts/Lottery.sol\":12301:13685  function InvestmentWithdrawal(uint256 WithdrawalAmount) external {... */\n    tag_77:\n        /* \"contracts/Lottery.sol\":1547:1554  1 ether */\n      0x0de0b6b3a7640000\n        /* \"contracts/Lottery.sol\":12457:12473  WithdrawalAmount */\n      dup2\n        /* \"contracts/Lottery.sol\":12457:12502  WithdrawalAmount >= Mininum_Investment_amount */\n      lt\n      iszero\n        /* \"contracts/Lottery.sol\":12436:12603  require(... */\n      tag_313\n      jumpi\n      mload(0x40)\n      shl(0xe5, 0x461bcd)\n      dup2\n      mstore\n        /* \"#utility.yul\":9115:9117   */\n      0x20\n        /* \"contracts/Lottery.sol\":12436:12603  require(... */\n      0x04\n      dup3\n      add\n        /* \"#utility.yul\":9097:9118   */\n      mstore\n        /* \"#utility.yul\":9154:9156   */\n      0x4b\n        /* \"#utility.yul\":9134:9152   */\n      0x24\n      dup3\n      add\n        /* \"#utility.yul\":9127:9157   */\n      mstore\n        /* \"#utility.yul\":9193:9227   */\n      0x4d696e696d756d20696e766573746d656e7420616d6f756e7420697320726571\n        /* \"#utility.yul\":9173:9191   */\n      0x44\n      dup3\n      add\n        /* \"#utility.yul\":9166:9228   */\n      mstore\n        /* \"#utility.yul\":9264:9298   */\n      0x75697265642c6974277320736d616c6c6572207468616e20746865206d696e69\n        /* \"#utility.yul\":9244:9262   */\n      0x64\n      dup3\n      add\n        /* \"#utility.yul\":9237:9299   */\n      mstore\n      shl(0xaa, 0x1b5d5b4819195c1bdcda5d)\n        /* \"#utility.yul\":9315:9334   */\n      0x84\n      dup3\n      add\n        /* \"#utility.yul\":9308:9350   */\n      mstore\n        /* \"#utility.yul\":9367:9386   */\n      0xa4\n      add\n        /* \"contracts/Lottery.sol\":12436:12603  require(... */\n      tag_84\n        /* \"#utility.yul\":8913:9392   */\n      jump\n        /* \"contracts/Lottery.sol\":12436:12603  require(... */\n    tag_313:\n        /* \"contracts/Lottery.sol\":12708:12718  msg.sender */\n      caller\n        /* \"contracts/Lottery.sol\":12691:12719  InvestorsBalance[msg.sender] */\n      0x00\n      swap1\n      dup2\n      mstore\n        /* \"contracts/Lottery.sol\":12691:12707  InvestorsBalance */\n      0x03\n        /* \"contracts/Lottery.sol\":12691:12719  InvestorsBalance[msg.sender] */\n      0x20\n      mstore\n      0x40\n      swap1\n      keccak256\n        /* \"contracts/Lottery.sol\":12691:12727  InvestorsBalance[msg.sender].balance */\n      sload\n        /* \"contracts/Lottery.sol\":12671:12727  WithdrawalAmount <= InvestorsBalance[msg.sender].balance */\n      dup2\n      gt\n      iszero\n        /* \"contracts/Lottery.sol\":12650:12781  require(... */\n      tag_316\n      jumpi\n      mload(0x40)\n      shl(0xe5, 0x461bcd)\n      dup2\n      mstore\n        /* \"#utility.yul\":9599:9601   */\n      0x20\n        /* \"contracts/Lottery.sol\":12650:12781  require(... */\n      0x04\n      dup3\n      add\n        /* \"#utility.yul\":9581:9602   */\n      mstore\n        /* \"#utility.yul\":9638:9640   */\n      0x1c\n        /* \"#utility.yul\":9618:9636   */\n      0x24\n      dup3\n      add\n        /* \"#utility.yul\":9611:9641   */\n      mstore\n        /* \"#utility.yul\":9677:9707   */\n      0x4e6f7420656e6f7567682066756e6420746f2077697468647261772100000000\n        /* \"#utility.yul\":9657:9675   */\n      0x44\n      dup3\n      add\n        /* \"#utility.yul\":9650:9708   */\n      mstore\n        /* \"#utility.yul\":9725:9743   */\n      0x64\n      add\n        /* \"contracts/Lottery.sol\":12650:12781  require(... */\n      tag_84\n        /* \"#utility.yul\":9397:9749   */\n      jump\n        /* \"contracts/Lottery.sol\":12650:12781  require(... */\n    tag_316:\n        /* \"contracts/Lottery.sol\":12972:12982  msg.sender */\n      caller\n        /* \"contracts/Lottery.sol\":12955:12983  InvestorsBalance[msg.sender] */\n      0x00\n      swap1\n      dup2\n      mstore\n        /* \"contracts/Lottery.sol\":12955:12971  InvestorsBalance */\n      0x03\n        /* \"contracts/Lottery.sol\":12955:12983  InvestorsBalance[msg.sender] */\n      0x20\n      mstore\n      0x40\n      swap1\n      keccak256\n        /* \"contracts/Lottery.sol\":12955:12998  InvestorsBalance[msg.sender].LastInvestTime */\n      0x01\n      add\n      sload\n        /* \"contracts/Lottery.sol\":12955:13008  InvestorsBalance[msg.sender].LastInvestTime + 1 weeks */\n      tag_319\n      swap1\n        /* \"contracts/Lottery.sol\":13001:13008  1 weeks */\n      0x093a80\n        /* \"contracts/Lottery.sol\":12955:13008  InvestorsBalance[msg.sender].LastInvestTime + 1 weeks */\n      tag_88\n      jump\t// in\n    tag_319:\n        /* \"contracts/Lottery.sol\":12920:12935  block.timestamp */\n      timestamp\n        /* \"contracts/Lottery.sol\":12920:13008  block.timestamp >=... */\n      lt\n      iszero\n        /* \"contracts/Lottery.sol\":12899:13065  require(... */\n      tag_320\n      jumpi\n      mload(0x40)\n      shl(0xe5, 0x461bcd)\n      dup2\n      mstore\n        /* \"#utility.yul\":9956:9958   */\n      0x20\n        /* \"contracts/Lottery.sol\":12899:13065  require(... */\n      0x04\n      dup3\n      add\n        /* \"#utility.yul\":9938:9959   */\n      mstore\n        /* \"#utility.yul\":9995:9997   */\n      0x1f\n        /* \"#utility.yul\":9975:9993   */\n      0x24\n      dup3\n      add\n        /* \"#utility.yul\":9968:9998   */\n      mstore\n        /* \"#utility.yul\":10034:10067   */\n      0x43616e6e6f74207769746864726177206166746572206f6e65207765656b2100\n        /* \"#utility.yul\":10014:10032   */\n      0x44\n      dup3\n      add\n        /* \"#utility.yul\":10007:10068   */\n      mstore\n        /* \"#utility.yul\":10085:10103   */\n      0x64\n      add\n        /* \"contracts/Lottery.sol\":12899:13065  require(... */\n      tag_84\n        /* \"#utility.yul\":9754:10109   */\n      jump\n        /* \"contracts/Lottery.sol\":12899:13065  require(... */\n    tag_320:\n        /* \"contracts/Lottery.sol\":13300:13316  WithdrawalAmount */\n      dup1\n        /* \"contracts/Lottery.sol\":13163:13296  SafeMathsub(... */\n      tag_323\n        /* \"contracts/Lottery.sol\":13192:13213  address(this).balance */\n      selfbalance\n        /* \"contracts/Lottery.sol\":13272:13281  DevProfit */\n      sload(0x01)\n        /* \"contracts/Lottery.sol\":13250:13269  TotalReferralProfit */\n      sload(0x07)\n        /* \"contracts/Lottery.sol\":13232:13247  InvestorsProfit */\n      sload(0x05)\n        /* \"contracts/Lottery.sol\":13232:13269  InvestorsProfit + TotalReferralProfit */\n      tag_87\n      swap2\n      swap1\n      tag_88\n      jump\t// in\n        /* \"contracts/Lottery.sol\":13163:13296  SafeMathsub(... */\n    tag_323:\n        /* \"contracts/Lottery.sol\":13163:13316  SafeMathsub(... */\n      lt\n      iszero\n        /* \"contracts/Lottery.sol\":13142:13372  require(... */\n      tag_326\n      jumpi\n      mload(0x40)\n      shl(0xe5, 0x461bcd)\n      dup2\n      mstore\n        /* \"#utility.yul\":10316:10318   */\n      0x20\n        /* \"contracts/Lottery.sol\":13142:13372  require(... */\n      0x04\n      dup3\n      add\n        /* \"#utility.yul\":10298:10319   */\n      mstore\n        /* \"#utility.yul\":10355:10357   */\n      0x1e\n        /* \"#utility.yul\":10335:10353   */\n      0x24\n      dup3\n      add\n        /* \"#utility.yul\":10328:10358   */\n      mstore\n        /* \"#utility.yul\":10394:10426   */\n      0x496e73756666696369656e742066756e6420746f207769746864726177210000\n        /* \"#utility.yul\":10374:10392   */\n      0x44\n      dup3\n      add\n        /* \"#utility.yul\":10367:10427   */\n      mstore\n        /* \"#utility.yul\":10444:10462   */\n      0x64\n      add\n        /* \"contracts/Lottery.sol\":13142:13372  require(... */\n      tag_84\n        /* \"#utility.yul\":10114:10468   */\n      jump\n        /* \"contracts/Lottery.sol\":13142:13372  require(... */\n    tag_326:\n        /* \"contracts/Lottery.sol\":13460:13470  msg.sender */\n      caller\n        /* \"contracts/Lottery.sol\":13443:13471  InvestorsBalance[msg.sender] */\n      0x00\n      swap1\n      dup2\n      mstore\n        /* \"contracts/Lottery.sol\":13443:13459  InvestorsBalance */\n      0x03\n        /* \"contracts/Lottery.sol\":13443:13471  InvestorsBalance[msg.sender] */\n      0x20\n      mstore\n      0x40\n      dup2\n      keccak256\n        /* \"contracts/Lottery.sol\":13443:13499  InvestorsBalance[msg.sender].balance -= WithdrawalAmount */\n      dup1\n      sload\n        /* \"contracts/Lottery.sol\":13483:13499  WithdrawalAmount */\n      dup4\n      swap3\n        /* \"contracts/Lottery.sol\":13443:13471  InvestorsBalance[msg.sender] */\n      swap1\n        /* \"contracts/Lottery.sol\":13443:13499  InvestorsBalance[msg.sender].balance -= WithdrawalAmount */\n      tag_329\n      swap1\n        /* \"contracts/Lottery.sol\":13483:13499  WithdrawalAmount */\n      dup5\n      swap1\n        /* \"contracts/Lottery.sol\":13443:13499  InvestorsBalance[msg.sender].balance -= WithdrawalAmount */\n      tag_125\n      jump\t// in\n    tag_329:\n      swap3\n      pop\n      pop\n      dup2\n      swap1\n      sstore\n      pop\n        /* \"contracts/Lottery.sol\":13567:13583  WithdrawalAmount */\n      dup1\n        /* \"contracts/Lottery.sol\":13542:13563  TotalInvestmentAmount */\n      0x04\n      0x00\n        /* \"contracts/Lottery.sol\":13542:13583  TotalInvestmentAmount -= WithdrawalAmount */\n      dup3\n      dup3\n      sload\n      tag_124\n      swap2\n      swap1\n      tag_125\n      jump\t// in\n        /* \"contracts/Lottery.sol\":15806:16037  function DeveloperWithdrawal() external {... */\n    tag_80:\n        /* \"contracts/Lottery.sol\":15878:15888  DevAddress */\n      and(sub(shl(0xa0, 0x01), 0x01), sload(0x00))\n        /* \"contracts/Lottery.sol\":15864:15874  msg.sender */\n      caller\n        /* \"contracts/Lottery.sol\":15864:15888  msg.sender == DevAddress */\n      eq\n        /* \"contracts/Lottery.sol\":15856:15918  require(msg.sender == DevAddress, \"You must be the developer\") */\n      tag_334\n      jumpi\n      mload(0x40)\n      shl(0xe5, 0x461bcd)\n      dup2\n      mstore\n        /* \"#utility.yul\":10675:10677   */\n      0x20\n        /* \"contracts/Lottery.sol\":15856:15918  require(msg.sender == DevAddress, \"You must be the developer\") */\n      0x04\n      dup3\n      add\n        /* \"#utility.yul\":10657:10678   */\n      mstore\n        /* \"#utility.yul\":10714:10716   */\n      0x19\n        /* \"#utility.yul\":10694:10712   */\n      0x24\n      dup3\n      add\n        /* \"#utility.yul\":10687:10717   */\n      mstore\n        /* \"#utility.yul\":10753:10780   */\n      0x596f75206d7573742062652074686520646576656c6f70657200000000000000\n        /* \"#utility.yul\":10733:10751   */\n      0x44\n      dup3\n      add\n        /* \"#utility.yul\":10726:10781   */\n      mstore\n        /* \"#utility.yul\":10798:10816   */\n      0x64\n      add\n        /* \"contracts/Lottery.sol\":15856:15918  require(msg.sender == DevAddress, \"You must be the developer\") */\n      tag_84\n        /* \"#utility.yul\":10473:10822   */\n      jump\n        /* \"contracts/Lottery.sol\":15856:15918  require(msg.sender == DevAddress, \"You must be the developer\") */\n    tag_334:\n        /* \"contracts/Lottery.sol\":15948:15957  DevProfit */\n      0x01\n      dup1\n      sload\n        /* \"contracts/Lottery.sol\":15928:15945  uint256 devprofit */\n      0x00\n        /* \"contracts/Lottery.sol\":15967:15980  DevProfit = 0 */\n      swap2\n      dup3\n      swap1\n      sstore\n        /* \"contracts/Lottery.sol\":15999:16009  DevAddress */\n      dup2\n      sload\n        /* \"contracts/Lottery.sol\":15991:16030  payable(DevAddress).transfer(devprofit) */\n      mload(0x40)\n        /* \"contracts/Lottery.sol\":15948:15957  DevProfit */\n      swap2\n      swap3\n      sub(shl(0xa0, 0x01), 0x01)\n        /* \"contracts/Lottery.sol\":15999:16009  DevAddress */\n      swap1\n      swap2\n      and\n      swap2\n        /* \"contracts/Lottery.sol\":15991:16030  payable(DevAddress).transfer(devprofit) */\n      dup4\n      iszero\n      0x08fc\n      mul\n      swap2\n        /* \"contracts/Lottery.sol\":15948:15957  DevProfit */\n      dup5\n      swap2\n        /* \"contracts/Lottery.sol\":15991:16030  payable(DevAddress).transfer(devprofit) */\n      swap1\n      dup2\n        /* \"contracts/Lottery.sol\":15928:15945  uint256 devprofit */\n      dup2\n        /* \"contracts/Lottery.sol\":15991:16030  payable(DevAddress).transfer(devprofit) */\n      dup2\n        /* \"contracts/Lottery.sol\":15948:15957  DevProfit */\n      dup6\n        /* \"contracts/Lottery.sol\":15999:16009  DevAddress */\n      dup9\n        /* \"contracts/Lottery.sol\":15991:16030  payable(DevAddress).transfer(devprofit) */\n      dup9\n      call\n      swap4\n      pop\n      pop\n      pop\n      pop\n      iszero\n      dup1\n      iszero\n      tag_127\n      jumpi\n      returndatasize\n      0x00\n      dup1\n      returndatacopy\n      revert(0x00, returndatasize)\n        /* \"contracts/Lottery.sol\":3582:3711  function SafeMathsub(uint256 a, uint256 b) internal pure returns (uint256) {... */\n    tag_90:\n        /* \"contracts/Lottery.sol\":3648:3655  uint256 */\n      0x00\n        /* \"contracts/Lottery.sol\":3679:3680  a */\n      dup3\n        /* \"contracts/Lottery.sol\":3674:3675  b */\n      dup3\n        /* \"contracts/Lottery.sol\":3674:3680  b <= a */\n      gt\n      iszero\n        /* \"contracts/Lottery.sol\":3667:3681  assert(b <= a) */\n      tag_341\n      jumpi\n      tag_341\n      tag_342\n      jump\t// in\n    tag_341:\n        /* \"contracts/Lottery.sol\":3699:3704  a - b */\n      tag_343\n        /* \"contracts/Lottery.sol\":3703:3704  b */\n      dup3\n        /* \"contracts/Lottery.sol\":3699:3700  a */\n      dup5\n        /* \"contracts/Lottery.sol\":3699:3704  a - b */\n      tag_125\n      jump\t// in\n    tag_343:\n        /* \"contracts/Lottery.sol\":3692:3704  return a - b */\n      swap1\n      pop\n        /* \"contracts/Lottery.sol\":3582:3711  function SafeMathsub(uint256 a, uint256 b) internal pure returns (uint256) {... */\n    tag_339:\n      swap3\n      swap2\n      pop\n      pop\n      jump\t// out\n        /* \"contracts/Lottery.sol\":3737:3951  function SafeMathmul(uint256 a, uint256 b) internal pure returns (uint256) {... */\n    tag_110:\n        /* \"contracts/Lottery.sol\":3803:3810  uint256 */\n      0x00\n        /* \"contracts/Lottery.sol\":3826:3827  a */\n      dup3\n        /* \"contracts/Lottery.sol\":3831:3832  0 */\n      0x00\n        /* \"contracts/Lottery.sol\":3826:3832  a == 0 */\n      sub\n        /* \"contracts/Lottery.sol\":3822:3867  if (a == 0) {... */\n      tag_345\n      jumpi\n      pop\n        /* \"contracts/Lottery.sol\":3855:3856  0 */\n      0x00\n        /* \"contracts/Lottery.sol\":3848:3856  return 0 */\n      jump(tag_339)\n        /* \"contracts/Lottery.sol\":3822:3867  if (a == 0) {... */\n    tag_345:\n        /* \"contracts/Lottery.sol\":3877:3886  uint256 c */\n      0x00\n        /* \"contracts/Lottery.sol\":3889:3894  a * b */\n      tag_346\n        /* \"contracts/Lottery.sol\":3893:3894  b */\n      dup4\n        /* \"contracts/Lottery.sol\":3889:3890  a */\n      dup6\n        /* \"contracts/Lottery.sol\":3889:3894  a * b */\n      tag_164\n      jump\t// in\n    tag_346:\n        /* \"contracts/Lottery.sol\":3877:3894  uint256 c = a * b */\n      swap1\n      pop\n        /* \"contracts/Lottery.sol\":3923:3924  b */\n      dup3\n        /* \"contracts/Lottery.sol\":3913:3918  c / a */\n      tag_347\n        /* \"contracts/Lottery.sol\":3917:3918  a */\n      dup6\n        /* \"contracts/Lottery.sol\":3877:3894  uint256 c = a * b */\n      dup4\n        /* \"contracts/Lottery.sol\":3913:3918  c / a */\n      tag_93\n      jump\t// in\n    tag_347:\n        /* \"contracts/Lottery.sol\":3912:3924  (c / a) == b */\n      eq\n        /* \"contracts/Lottery.sol\":3905:3925  assert((c / a) == b) */\n      tag_343\n      jumpi\n      tag_343\n      tag_342\n      jump\t// in\n        /* \"contracts/Lottery.sol\":3977:4129  function SafeMathdiv(uint256 a, uint256 b) internal pure returns (uint256) {... */\n    tag_111:\n        /* \"contracts/Lottery.sol\":4043:4050  uint256 */\n      0x00\n        /* \"contracts/Lottery.sol\":4073:4074  0 */\n      dup1\n        /* \"contracts/Lottery.sol\":4069:4070  b */\n      dup3\n        /* \"contracts/Lottery.sol\":4069:4074  b > 0 */\n      gt\n        /* \"contracts/Lottery.sol\":4062:4075  assert(b > 0) */\n      tag_352\n      jumpi\n      tag_352\n      tag_342\n      jump\t// in\n    tag_352:\n        /* \"contracts/Lottery.sol\":4086:4095  uint256 c */\n      0x00\n        /* \"contracts/Lottery.sol\":4098:4103  a / b */\n      tag_353\n        /* \"contracts/Lottery.sol\":4102:4103  b */\n      dup4\n        /* \"contracts/Lottery.sol\":4098:4099  a */\n      dup6\n        /* \"contracts/Lottery.sol\":4098:4103  a / b */\n      tag_93\n      jump\t// in\n    tag_353:\n        /* \"contracts/Lottery.sol\":4086:4103  uint256 c = a / b */\n      swap5\n        /* \"contracts/Lottery.sol\":3977:4129  function SafeMathdiv(uint256 a, uint256 b) internal pure returns (uint256) {... */\n      swap4\n      pop\n      pop\n      pop\n      pop\n      jump\t// out\n        /* \"contracts/Lottery.sol\":6594:7176  function GetWinninggrade(uint32 LotteryNum) private pure returns (uint256) {... */\n    tag_230:\n        /* \"contracts/Lottery.sol\":6660:6667  uint256 */\n      0x00\n        /* \"contracts/Lottery.sol\":6696:6704  67108864 */\n      0x04000000\n        /* \"contracts/Lottery.sol\":6683:6693  LotteryNum */\n      dup3\n        /* \"contracts/Lottery.sol\":6683:6704  LotteryNum > 67108864 */\n      0xffffffff\n      and\n      gt\n        /* \"contracts/Lottery.sol\":6679:6714  if (LotteryNum > 67108864) return 0 */\n      iszero\n      tag_355\n      jumpi\n      pop\n        /* \"contracts/Lottery.sol\":6713:6714  0 */\n      0x00\n      swap2\n        /* \"contracts/Lottery.sol\":6594:7176  function GetWinninggrade(uint32 LotteryNum) private pure returns (uint256) {... */\n      swap1\n      pop\n      jump\t// out\n        /* \"contracts/Lottery.sol\":6679:6714  if (LotteryNum > 67108864) return 0 */\n    tag_355:\n        /* \"contracts/Lottery.sol\":6742:6750  16777216 */\n      0x01000000\n        /* \"contracts/Lottery.sol\":6728:6738  LotteryNum */\n      dup3\n        /* \"contracts/Lottery.sol\":6728:6750  LotteryNum >= 16777216 */\n      0xffffffff\n      and\n      lt\n        /* \"contracts/Lottery.sol\":6724:6761  if (LotteryNum >= 16777216) return 10 */\n      tag_356\n      jumpi\n      pop\n        /* \"contracts/Lottery.sol\":6759:6761  10 */\n      0x0a\n      swap2\n        /* \"contracts/Lottery.sol\":6594:7176  function GetWinninggrade(uint32 LotteryNum) private pure returns (uint256) {... */\n      swap1\n      pop\n      jump\t// out\n        /* \"contracts/Lottery.sol\":6724:6761  if (LotteryNum >= 16777216) return 10 */\n    tag_356:\n        /* \"contracts/Lottery.sol\":6789:6796  4194304 */\n      0x400000\n        /* \"contracts/Lottery.sol\":6775:6785  LotteryNum */\n      dup3\n        /* \"contracts/Lottery.sol\":6775:6796  LotteryNum >= 4194304 */\n      0xffffffff\n      and\n      lt\n        /* \"contracts/Lottery.sol\":6771:6806  if (LotteryNum >= 4194304) return 9 */\n      tag_357\n      jumpi\n      pop\n        /* \"contracts/Lottery.sol\":6805:6806  9 */\n      0x09\n      swap2\n        /* \"contracts/Lottery.sol\":6594:7176  function GetWinninggrade(uint32 LotteryNum) private pure returns (uint256) {... */\n      swap1\n      pop\n      jump\t// out\n        /* \"contracts/Lottery.sol\":6771:6806  if (LotteryNum >= 4194304) return 9 */\n    tag_357:\n        /* \"contracts/Lottery.sol\":6834:6841  1048576 */\n      0x100000\n        /* \"contracts/Lottery.sol\":6820:6830  LotteryNum */\n      dup3\n        /* \"contracts/Lottery.sol\":6820:6841  LotteryNum >= 1048576 */\n      0xffffffff\n      and\n      lt\n        /* \"contracts/Lottery.sol\":6816:6851  if (LotteryNum >= 1048576) return 8 */\n      tag_358\n      jumpi\n      pop\n        /* \"contracts/Lottery.sol\":6850:6851  8 */\n      0x08\n      swap2\n        /* \"contracts/Lottery.sol\":6594:7176  function GetWinninggrade(uint32 LotteryNum) private pure returns (uint256) {... */\n      swap1\n      pop\n      jump\t// out\n        /* \"contracts/Lottery.sol\":6816:6851  if (LotteryNum >= 1048576) return 8 */\n    tag_358:\n        /* \"contracts/Lottery.sol\":6879:6885  262144 */\n      0x040000\n        /* \"contracts/Lottery.sol\":6865:6875  LotteryNum */\n      dup3\n        /* \"contracts/Lottery.sol\":6865:6885  LotteryNum >= 262144 */\n      0xffffffff\n      and\n      lt\n        /* \"contracts/Lottery.sol\":6861:6895  if (LotteryNum >= 262144) return 7 */\n      tag_359\n      jumpi\n      pop\n        /* \"contracts/Lottery.sol\":6894:6895  7 */\n      0x07\n      swap2\n        /* \"contracts/Lottery.sol\":6594:7176  function GetWinninggrade(uint32 LotteryNum) private pure returns (uint256) {... */\n      swap1\n      pop\n      jump\t// out\n        /* \"contracts/Lottery.sol\":6861:6895  if (LotteryNum >= 262144) return 7 */\n    tag_359:\n        /* \"contracts/Lottery.sol\":6923:6928  65536 */\n      0x010000\n        /* \"contracts/Lottery.sol\":6909:6919  LotteryNum */\n      dup3\n        /* \"contracts/Lottery.sol\":6909:6928  LotteryNum >= 65536 */\n      0xffffffff\n      and\n      lt\n        /* \"contracts/Lottery.sol\":6905:6938  if (LotteryNum >= 65536) return 6 */\n      tag_360\n      jumpi\n      pop\n        /* \"contracts/Lottery.sol\":6937:6938  6 */\n      0x06\n      swap2\n        /* \"contracts/Lottery.sol\":6594:7176  function GetWinninggrade(uint32 LotteryNum) private pure returns (uint256) {... */\n      swap1\n      pop\n      jump\t// out\n        /* \"contracts/Lottery.sol\":6905:6938  if (LotteryNum >= 65536) return 6 */\n    tag_360:\n        /* \"contracts/Lottery.sol\":6966:6971  16384 */\n      0x4000\n        /* \"contracts/Lottery.sol\":6952:6962  LotteryNum */\n      dup3\n        /* \"contracts/Lottery.sol\":6952:6971  LotteryNum >= 16384 */\n      0xffffffff\n      and\n      lt\n        /* \"contracts/Lottery.sol\":6948:6981  if (LotteryNum >= 16384) return 5 */\n      tag_361\n      jumpi\n      pop\n        /* \"contracts/Lottery.sol\":6980:6981  5 */\n      0x05\n      swap2\n        /* \"contracts/Lottery.sol\":6594:7176  function GetWinninggrade(uint32 LotteryNum) private pure returns (uint256) {... */\n      swap1\n      pop\n      jump\t// out\n        /* \"contracts/Lottery.sol\":6948:6981  if (LotteryNum >= 16384) return 5 */\n    tag_361:\n        /* \"contracts/Lottery.sol\":7009:7013  4096 */\n      0x1000\n        /* \"contracts/Lottery.sol\":6995:7005  LotteryNum */\n      dup3\n        /* \"contracts/Lottery.sol\":6995:7013  LotteryNum >= 4096 */\n      0xffffffff\n      and\n      lt\n        /* \"contracts/Lottery.sol\":6991:7023  if (LotteryNum >= 4096) return 4 */\n      tag_362\n      jumpi\n      pop\n        /* \"contracts/Lottery.sol\":7022:7023  4 */\n      0x04\n      swap2\n        /* \"contracts/Lottery.sol\":6594:7176  function GetWinninggrade(uint32 LotteryNum) private pure returns (uint256) {... */\n      swap1\n      pop\n      jump\t// out\n        /* \"contracts/Lottery.sol\":6991:7023  if (LotteryNum >= 4096) return 4 */\n    tag_362:\n        /* \"contracts/Lottery.sol\":7051:7055  1024 */\n      0x0400\n        /* \"contracts/Lottery.sol\":7037:7047  LotteryNum */\n      dup3\n        /* \"contracts/Lottery.sol\":7037:7055  LotteryNum >= 1024 */\n      0xffffffff\n      and\n      lt\n        /* \"contracts/Lottery.sol\":7033:7065  if (LotteryNum >= 1024) return 3 */\n      tag_363\n      jumpi\n      pop\n        /* \"contracts/Lottery.sol\":7064:7065  3 */\n      0x03\n      swap2\n        /* \"contracts/Lottery.sol\":6594:7176  function GetWinninggrade(uint32 LotteryNum) private pure returns (uint256) {... */\n      swap1\n      pop\n      jump\t// out\n        /* \"contracts/Lottery.sol\":7033:7065  if (LotteryNum >= 1024) return 3 */\n    tag_363:\n        /* \"contracts/Lottery.sol\":7093:7096  256 */\n      0x0100\n        /* \"contracts/Lottery.sol\":7079:7089  LotteryNum */\n      dup3\n        /* \"contracts/Lottery.sol\":7079:7096  LotteryNum >= 256 */\n      0xffffffff\n      and\n      lt\n        /* \"contracts/Lottery.sol\":7075:7170  if (LotteryNum >= 256) {... */\n      tag_364\n      jumpi\n      pop\n        /* \"contracts/Lottery.sol\":7119:7120  2 */\n      0x02\n      swap2\n        /* \"contracts/Lottery.sol\":6594:7176  function GetWinninggrade(uint32 LotteryNum) private pure returns (uint256) {... */\n      swap1\n      pop\n      jump\t// out\n        /* \"contracts/Lottery.sol\":7075:7170  if (LotteryNum >= 256) {... */\n    tag_364:\n      pop\n        /* \"contracts/Lottery.sol\":7158:7159  1 */\n      0x01\n      swap2\n        /* \"contracts/Lottery.sol\":6594:7176  function GetWinninggrade(uint32 LotteryNum) private pure returns (uint256) {... */\n      swap1\n      pop\n      jump\t// out\n        /* \"contracts/Lottery.sol\":7075:7170  if (LotteryNum >= 256) {... */\n    tag_365:\n        /* \"contracts/Lottery.sol\":6594:7176  function GetWinninggrade(uint32 LotteryNum) private pure returns (uint256) {... */\n      swap2\n      swap1\n      pop\n      jump\t// out\n        /* \"contracts/Lottery.sol\":7226:7831  function GetWinningmultiple(uint256 winninginfo)... */\n    tag_236:\n        /* \"contracts/Lottery.sol\":7321:7328  uint256 */\n      0x00\n        /* \"contracts/Lottery.sol\":7348:7359  winninginfo */\n      dup2\n        /* \"contracts/Lottery.sol\":7363:7364  0 */\n      0x00\n        /* \"contracts/Lottery.sol\":7348:7364  winninginfo == 0 */\n      sub\n        /* \"contracts/Lottery.sol\":7344:7374  if (winninginfo == 0) return 0 */\n      tag_367\n      jumpi\n      pop\n        /* \"contracts/Lottery.sol\":7373:7374  0 */\n      0x00\n      swap2\n        /* \"contracts/Lottery.sol\":7226:7831  function GetWinningmultiple(uint256 winninginfo)... */\n      swap1\n      pop\n      jump\t// out\n        /* \"contracts/Lottery.sol\":7344:7374  if (winninginfo == 0) return 0 */\n    tag_367:\n        /* \"contracts/Lottery.sol\":7388:7399  winninginfo */\n      dup2\n        /* \"contracts/Lottery.sol\":7403:7405  10 */\n      0x0a\n        /* \"contracts/Lottery.sol\":7388:7405  winninginfo == 10 */\n      sub\n        /* \"contracts/Lottery.sol\":7384:7415  if (winninginfo == 10) return 5 */\n      tag_368\n      jumpi\n      pop\n        /* \"contracts/Lottery.sol\":7414:7415  5 */\n      0x05\n      swap2\n        /* \"contracts/Lottery.sol\":7226:7831  function GetWinningmultiple(uint256 winninginfo)... */\n      swap1\n      pop\n      jump\t// out\n        /* \"contracts/Lottery.sol\":7384:7415  if (winninginfo == 10) return 5 */\n    tag_368:\n        /* \"contracts/Lottery.sol\":7429:7440  winninginfo */\n      dup2\n        /* \"contracts/Lottery.sol\":7444:7445  9 */\n      0x09\n        /* \"contracts/Lottery.sol\":7429:7445  winninginfo == 9 */\n      sub\n        /* \"contracts/Lottery.sol\":7425:7456  if (winninginfo == 9) return 20 */\n      tag_369\n      jumpi\n      pop\n        /* \"contracts/Lottery.sol\":7454:7456  20 */\n      0x14\n      swap2\n        /* \"contracts/Lottery.sol\":7226:7831  function GetWinningmultiple(uint256 winninginfo)... */\n      swap1\n      pop\n      jump\t// out\n        /* \"contracts/Lottery.sol\":7425:7456  if (winninginfo == 9) return 20 */\n    tag_369:\n        /* \"contracts/Lottery.sol\":7470:7481  winninginfo */\n      dup2\n        /* \"contracts/Lottery.sol\":7485:7486  8 */\n      0x08\n        /* \"contracts/Lottery.sol\":7470:7486  winninginfo == 8 */\n      sub\n        /* \"contracts/Lottery.sol\":7466:7497  if (winninginfo == 8) return 80 */\n      tag_370\n      jumpi\n      pop\n        /* \"contracts/Lottery.sol\":7495:7497  80 */\n      0x50\n      swap2\n        /* \"contracts/Lottery.sol\":7226:7831  function GetWinningmultiple(uint256 winninginfo)... */\n      swap1\n      pop\n      jump\t// out\n        /* \"contracts/Lottery.sol\":7466:7497  if (winninginfo == 8) return 80 */\n    tag_370:\n        /* \"contracts/Lottery.sol\":7511:7522  winninginfo */\n      dup2\n        /* \"contracts/Lottery.sol\":7526:7527  7 */\n      0x07\n        /* \"contracts/Lottery.sol\":7511:7527  winninginfo == 7 */\n      sub\n        /* \"contracts/Lottery.sol\":7507:7539  if (winninginfo == 7) return 320 */\n      tag_371\n      jumpi\n      pop\n        /* \"contracts/Lottery.sol\":7536:7539  320 */\n      0x0140\n      swap2\n        /* \"contracts/Lottery.sol\":7226:7831  function GetWinningmultiple(uint256 winninginfo)... */\n      swap1\n      pop\n      jump\t// out\n        /* \"contracts/Lottery.sol\":7507:7539  if (winninginfo == 7) return 320 */\n    tag_371:\n        /* \"contracts/Lottery.sol\":7553:7564  winninginfo */\n      dup2\n        /* \"contracts/Lottery.sol\":7568:7569  6 */\n      0x06\n        /* \"contracts/Lottery.sol\":7553:7569  winninginfo == 6 */\n      sub\n        /* \"contracts/Lottery.sol\":7549:7582  if (winninginfo == 6) return 1200 */\n      tag_372\n      jumpi\n      pop\n        /* \"contracts/Lottery.sol\":7578:7582  1200 */\n      0x04b0\n      swap2\n        /* \"contracts/Lottery.sol\":7226:7831  function GetWinningmultiple(uint256 winninginfo)... */\n      swap1\n      pop\n      jump\t// out\n        /* \"contracts/Lottery.sol\":7549:7582  if (winninginfo == 6) return 1200 */\n    tag_372:\n        /* \"contracts/Lottery.sol\":7596:7607  winninginfo */\n      dup2\n        /* \"contracts/Lottery.sol\":7611:7612  5 */\n      0x05\n        /* \"contracts/Lottery.sol\":7596:7612  winninginfo == 5 */\n      sub\n        /* \"contracts/Lottery.sol\":7592:7625  if (winninginfo == 5) return 4800 */\n      tag_373\n      jumpi\n      pop\n        /* \"contracts/Lottery.sol\":7621:7625  4800 */\n      0x12c0\n      swap2\n        /* \"contracts/Lottery.sol\":7226:7831  function GetWinningmultiple(uint256 winninginfo)... */\n      swap1\n      pop\n      jump\t// out\n        /* \"contracts/Lottery.sol\":7592:7625  if (winninginfo == 5) return 4800 */\n    tag_373:\n        /* \"contracts/Lottery.sol\":7639:7650  winninginfo */\n      dup2\n        /* \"contracts/Lottery.sol\":7654:7655  4 */\n      0x04\n        /* \"contracts/Lottery.sol\":7639:7655  winninginfo == 4 */\n      sub\n        /* \"contracts/Lottery.sol\":7635:7669  if (winninginfo == 4) return 20000 */\n      tag_374\n      jumpi\n      pop\n        /* \"contracts/Lottery.sol\":7664:7669  20000 */\n      0x4e20\n      swap2\n        /* \"contracts/Lottery.sol\":7226:7831  function GetWinningmultiple(uint256 winninginfo)... */\n      swap1\n      pop\n      jump\t// out\n        /* \"contracts/Lottery.sol\":7635:7669  if (winninginfo == 4) return 20000 */\n    tag_374:\n        /* \"contracts/Lottery.sol\":7683:7694  winninginfo */\n      dup2\n        /* \"contracts/Lottery.sol\":7698:7699  3 */\n      0x03\n        /* \"contracts/Lottery.sol\":7683:7699  winninginfo == 3 */\n      sub\n        /* \"contracts/Lottery.sol\":7679:7714  if (winninginfo == 3) return 100000 */\n      tag_375\n      jumpi\n      pop\n        /* \"contracts/Lottery.sol\":7708:7714  100000 */\n      0x0186a0\n      swap2\n        /* \"contracts/Lottery.sol\":7226:7831  function GetWinningmultiple(uint256 winninginfo)... */\n      swap1\n      pop\n      jump\t// out\n        /* \"contracts/Lottery.sol\":7679:7714  if (winninginfo == 3) return 100000 */\n    tag_375:\n        /* \"contracts/Lottery.sol\":7728:7739  winninginfo */\n      dup2\n        /* \"contracts/Lottery.sol\":7743:7744  2 */\n      0x02\n        /* \"contracts/Lottery.sol\":7728:7744  winninginfo == 2 */\n      sub\n        /* \"contracts/Lottery.sol\":7724:7759  if (winninginfo == 2) return 500000 */\n      tag_376\n      jumpi\n      pop\n        /* \"contracts/Lottery.sol\":7753:7759  500000 */\n      0x07a120\n      swap2\n        /* \"contracts/Lottery.sol\":7226:7831  function GetWinningmultiple(uint256 winninginfo)... */\n      swap1\n      pop\n      jump\t// out\n        /* \"contracts/Lottery.sol\":7724:7759  if (winninginfo == 2) return 500000 */\n    tag_376:\n        /* \"contracts/Lottery.sol\":7773:7784  winninginfo */\n      dup2\n        /* \"contracts/Lottery.sol\":7788:7789  1 */\n      0x01\n        /* \"contracts/Lottery.sol\":7773:7789  winninginfo == 1 */\n      sub\n        /* \"contracts/Lottery.sol\":7769:7805  if (winninginfo == 1) return 2000000 */\n      tag_377\n      jumpi\n      pop\n        /* \"contracts/Lottery.sol\":7798:7805  2000000 */\n      0x1e8480\n      swap2\n        /* \"contracts/Lottery.sol\":7226:7831  function GetWinningmultiple(uint256 winninginfo)... */\n      swap1\n      pop\n      jump\t// out\n        /* \"contracts/Lottery.sol\":7769:7805  if (winninginfo == 1) return 2000000 */\n    tag_377:\n      pop\n        /* \"contracts/Lottery.sol\":7823:7824  0 */\n      0x00\n      swap2\n        /* \"contracts/Lottery.sol\":7226:7831  function GetWinningmultiple(uint256 winninginfo)... */\n      swap1\n      pop\n      jump\t// out\n    tag_213:\n      pop\n      dup1\n      sload\n      0x00\n      dup3\n      sstore\n      swap1\n      0x00\n      mstore\n      keccak256(0x00, 0x20)\n      swap1\n      dup2\n      add\n      swap1\n      tag_250\n      swap2\n      swap1\n      tag_380\n      jump\t// in\n    tag_249:\n      pop\n      dup1\n      sload\n      0x00\n      dup3\n      sstore\n      0x02\n      mul\n      swap1\n      0x00\n      mstore\n      keccak256(0x00, 0x20)\n      swap1\n      dup2\n      add\n      swap1\n      tag_250\n      swap2\n      swap1\n      tag_383\n      jump\t// in\n    tag_380:\n    tag_384:\n      dup1\n      dup3\n      gt\n      iszero\n      tag_385\n      jumpi\n      dup1\n      sload\n      not(0xffffffffff)\n      and\n      dup2\n      sstore\n      0x01\n      add\n      jump(tag_384)\n    tag_385:\n      pop\n      swap1\n      jump\t// out\n    tag_383:\n    tag_386:\n      dup1\n      dup3\n      gt\n      iszero\n      tag_385\n      jumpi\n      0x00\n      dup1\n      dup3\n      sstore\n      0x01\n      dup3\n      add\n      sstore\n      0x02\n      add\n      jump(tag_386)\n        /* \"#utility.yul\":14:194   */\n    tag_32:\n        /* \"#utility.yul\":73:79   */\n      0x00\n        /* \"#utility.yul\":126:128   */\n      0x20\n        /* \"#utility.yul\":114:123   */\n      dup3\n        /* \"#utility.yul\":105:112   */\n      dup5\n        /* \"#utility.yul\":101:124   */\n      sub\n        /* \"#utility.yul\":97:129   */\n      slt\n        /* \"#utility.yul\":94:146   */\n      iszero\n      tag_392\n      jumpi\n        /* \"#utility.yul\":142:143   */\n      0x00\n        /* \"#utility.yul\":139:140   */\n      dup1\n        /* \"#utility.yul\":132:144   */\n      revert\n        /* \"#utility.yul\":94:146   */\n    tag_392:\n      pop\n        /* \"#utility.yul\":165:188   */\n      calldataload\n      swap2\n        /* \"#utility.yul\":14:194   */\n      swap1\n      pop\n      jump\t// out\n        /* \"#utility.yul\":199:1115   */\n    tag_35:\n        /* \"#utility.yul\":443:445   */\n      0x20\n        /* \"#utility.yul\":455:476   */\n      dup1\n      dup3\n      mstore\n        /* \"#utility.yul\":525:538   */\n      dup3\n      mload\n        /* \"#utility.yul\":428:446   */\n      dup3\n      dup3\n      add\n        /* \"#utility.yul\":547:569   */\n      dup2\n      swap1\n      mstore\n        /* \"#utility.yul\":395:399   */\n      0x00\n      swap2\n        /* \"#utility.yul\":626:641   */\n      dup5\n      add\n      swap1\n        /* \"#utility.yul\":600:602   */\n      0x40\n        /* \"#utility.yul\":585:603   */\n      dup5\n      add\n      swap1\n        /* \"#utility.yul\":395:399   */\n      dup4\n        /* \"#utility.yul\":669:1089   */\n    tag_394:\n        /* \"#utility.yul\":683:689   */\n      dup2\n        /* \"#utility.yul\":680:681   */\n      dup2\n        /* \"#utility.yul\":677:690   */\n      lt\n        /* \"#utility.yul\":669:1089   */\n      iszero\n      tag_396\n      jumpi\n        /* \"#utility.yul\":742:755   */\n      dup4\n      mload\n        /* \"#utility.yul\":784:793   */\n      dup1\n      mload\n        /* \"#utility.yul\":795:805   */\n      0xffffffff\n        /* \"#utility.yul\":780:806   */\n      and\n        /* \"#utility.yul\":768:807   */\n      dup5\n      mstore\n        /* \"#utility.yul\":859:861   */\n      0x20\n        /* \"#utility.yul\":851:862   */\n      dup1\n      dup3\n      add\n        /* \"#utility.yul\":845:863   */\n      mload\n        /* \"#utility.yul\":865:869   */\n      0xff\n        /* \"#utility.yul\":841:870   */\n      and\n        /* \"#utility.yul\":827:839   */\n      dup2\n      dup7\n      add\n        /* \"#utility.yul\":820:871   */\n      mstore\n        /* \"#utility.yul\":919:921   */\n      0x40\n        /* \"#utility.yul\":911:922   */\n      dup1\n      dup4\n      add\n        /* \"#utility.yul\":905:923   */\n      mload\n        /* \"#utility.yul\":891:903   */\n      swap1\n      dup7\n      add\n        /* \"#utility.yul\":884:924   */\n      mstore\n        /* \"#utility.yul\":978:982   */\n      0x60\n        /* \"#utility.yul\":970:983   */\n      swap2\n      dup3\n      add\n        /* \"#utility.yul\":964:984   */\n      mload\n      sub(shl(0xa0, 0x01), 0x01)\n        /* \"#utility.yul\":960:1006   */\n      and\n        /* \"#utility.yul\":944:958   */\n      swap2\n      dup6\n      add\n        /* \"#utility.yul\":937:1007   */\n      swap2\n      swap1\n      swap2\n      mstore\n        /* \"#utility.yul\":1064:1079   */\n      swap1\n      swap4\n      add\n      swap3\n        /* \"#utility.yul\":1036:1040   */\n      0x80\n        /* \"#utility.yul\":1027:1041   */\n      swap1\n      swap3\n      add\n      swap2\n        /* \"#utility.yul\":1003:1004   */\n      0x01\n        /* \"#utility.yul\":698:707   */\n      add\n        /* \"#utility.yul\":669:1089   */\n      jump(tag_394)\n    tag_396:\n      pop\n        /* \"#utility.yul\":1106:1109   */\n      swap1\n      swap6\n        /* \"#utility.yul\":199:1115   */\n      swap5\n      pop\n      pop\n      pop\n      pop\n      pop\n      jump\t// out\n        /* \"#utility.yul\":1510:1683   */\n    tag_388:\n        /* \"#utility.yul\":1578:1598   */\n      dup1\n      calldataload\n      sub(shl(0xa0, 0x01), 0x01)\n        /* \"#utility.yul\":1627:1658   */\n      dup2\n      and\n        /* \"#utility.yul\":1617:1659   */\n      dup2\n      eq\n        /* \"#utility.yul\":1607:1677   */\n      tag_365\n      jumpi\n        /* \"#utility.yul\":1673:1674   */\n      0x00\n        /* \"#utility.yul\":1670:1671   */\n      dup1\n        /* \"#utility.yul\":1663:1675   */\n      revert\n        /* \"#utility.yul\":1688:2382   */\n    tag_57:\n        /* \"#utility.yul\":1771:1777   */\n      0x00\n        /* \"#utility.yul\":1779:1785   */\n      dup1\n        /* \"#utility.yul\":1787:1793   */\n      0x00\n        /* \"#utility.yul\":1795:1801   */\n      dup1\n        /* \"#utility.yul\":1848:1851   */\n      0x80\n        /* \"#utility.yul\":1836:1845   */\n      dup6\n        /* \"#utility.yul\":1827:1834   */\n      dup8\n        /* \"#utility.yul\":1823:1846   */\n      sub\n        /* \"#utility.yul\":1819:1852   */\n      slt\n        /* \"#utility.yul\":1816:1869   */\n      iszero\n      tag_402\n      jumpi\n        /* \"#utility.yul\":1865:1866   */\n      0x00\n        /* \"#utility.yul\":1862:1863   */\n      dup1\n        /* \"#utility.yul\":1855:1867   */\n      revert\n        /* \"#utility.yul\":1816:1869   */\n    tag_402:\n        /* \"#utility.yul\":1904:1913   */\n      dup5\n        /* \"#utility.yul\":1891:1914   */\n      calldataload\n        /* \"#utility.yul\":1954:1960   */\n      0xffff\n        /* \"#utility.yul\":1947:1952   */\n      dup2\n        /* \"#utility.yul\":1943:1961   */\n      and\n        /* \"#utility.yul\":1936:1941   */\n      dup2\n        /* \"#utility.yul\":1933:1962   */\n      eq\n        /* \"#utility.yul\":1923:1980   */\n      tag_403\n      jumpi\n        /* \"#utility.yul\":1976:1977   */\n      0x00\n        /* \"#utility.yul\":1973:1974   */\n      dup1\n        /* \"#utility.yul\":1966:1978   */\n      revert\n        /* \"#utility.yul\":1923:1980   */\n    tag_403:\n        /* \"#utility.yul\":1999:2004   */\n      swap4\n      pop\n        /* \"#utility.yul\":2056:2058   */\n      0x20\n        /* \"#utility.yul\":2041:2059   */\n      dup6\n      add\n        /* \"#utility.yul\":2028:2060   */\n      calldataload\n        /* \"#utility.yul\":2104:2108   */\n      0xff\n        /* \"#utility.yul\":2091:2109   */\n      dup2\n      and\n        /* \"#utility.yul\":2079:2110   */\n      dup2\n      eq\n        /* \"#utility.yul\":2069:2128   */\n      tag_404\n      jumpi\n        /* \"#utility.yul\":2124:2125   */\n      0x00\n        /* \"#utility.yul\":2121:2122   */\n      dup1\n        /* \"#utility.yul\":2114:2126   */\n      revert\n        /* \"#utility.yul\":2069:2128   */\n    tag_404:\n        /* \"#utility.yul\":2147:2154   */\n      swap3\n      pop\n        /* \"#utility.yul\":2206:2208   */\n      0x40\n        /* \"#utility.yul\":2191:2209   */\n      dup6\n      add\n        /* \"#utility.yul\":2178:2210   */\n      calldataload\n      sub(shl(0xe8, 0x01), 0x01)\n        /* \"#utility.yul\":2241:2274   */\n      dup2\n      and\n        /* \"#utility.yul\":2229:2275   */\n      dup2\n      eq\n        /* \"#utility.yul\":2219:2293   */\n      tag_405\n      jumpi\n        /* \"#utility.yul\":2289:2290   */\n      0x00\n        /* \"#utility.yul\":2286:2287   */\n      dup1\n        /* \"#utility.yul\":2279:2291   */\n      revert\n        /* \"#utility.yul\":2219:2293   */\n    tag_405:\n        /* \"#utility.yul\":2312:2319   */\n      swap2\n      pop\n        /* \"#utility.yul\":2338:2376   */\n      tag_406\n        /* \"#utility.yul\":2372:2374   */\n      0x60\n        /* \"#utility.yul\":2357:2375   */\n      dup7\n      add\n        /* \"#utility.yul\":2338:2376   */\n      tag_388\n      jump\t// in\n    tag_406:\n        /* \"#utility.yul\":2328:2376   */\n      swap1\n      pop\n        /* \"#utility.yul\":1688:2382   */\n      swap3\n      swap6\n      swap2\n      swap5\n      pop\n      swap3\n      pop\n      jump\t// out\n        /* \"#utility.yul\":2387:2573   */\n    tag_66:\n        /* \"#utility.yul\":2446:2452   */\n      0x00\n        /* \"#utility.yul\":2499:2501   */\n      0x20\n        /* \"#utility.yul\":2487:2496   */\n      dup3\n        /* \"#utility.yul\":2478:2485   */\n      dup5\n        /* \"#utility.yul\":2474:2497   */\n      sub\n        /* \"#utility.yul\":2470:2502   */\n      slt\n        /* \"#utility.yul\":2467:2519   */\n      iszero\n      tag_408\n      jumpi\n        /* \"#utility.yul\":2515:2516   */\n      0x00\n        /* \"#utility.yul\":2512:2513   */\n      dup1\n        /* \"#utility.yul\":2505:2517   */\n      revert\n        /* \"#utility.yul\":2467:2519   */\n    tag_408:\n        /* \"#utility.yul\":2538:2567   */\n      tag_343\n        /* \"#utility.yul\":2557:2566   */\n      dup3\n        /* \"#utility.yul\":2538:2567   */\n      tag_388\n      jump\t// in\n        /* \"#utility.yul\":2578:3360   */\n    tag_73:\n        /* \"#utility.yul\":2826:2828   */\n      0x20\n        /* \"#utility.yul\":2838:2859   */\n      dup1\n      dup3\n      mstore\n        /* \"#utility.yul\":2908:2921   */\n      dup3\n      mload\n        /* \"#utility.yul\":2811:2829   */\n      dup3\n      dup3\n      add\n        /* \"#utility.yul\":2930:2952   */\n      dup2\n      swap1\n      mstore\n        /* \"#utility.yul\":2778:2782   */\n      0x00\n      swap2\n        /* \"#utility.yul\":3009:3024   */\n      dup5\n      add\n      swap1\n        /* \"#utility.yul\":2983:2985   */\n      0x40\n        /* \"#utility.yul\":2968:2986   */\n      dup5\n      add\n      swap1\n        /* \"#utility.yul\":2778:2782   */\n      dup4\n        /* \"#utility.yul\":3052:3334   */\n    tag_411:\n        /* \"#utility.yul\":3066:3072   */\n      dup2\n        /* \"#utility.yul\":3063:3064   */\n      dup2\n        /* \"#utility.yul\":3060:3073   */\n      lt\n        /* \"#utility.yul\":3052:3334   */\n      iszero\n      tag_396\n      jumpi\n        /* \"#utility.yul\":3125:3138   */\n      dup4\n      mload\n        /* \"#utility.yul\":3167:3176   */\n      dup1\n      mload\n        /* \"#utility.yul\":3178:3188   */\n      0xffffffff\n        /* \"#utility.yul\":3163:3189   */\n      and\n        /* \"#utility.yul\":3151:3190   */\n      dup5\n      mstore\n        /* \"#utility.yul\":3242:3244   */\n      0x20\n        /* \"#utility.yul\":3234:3245   */\n      swap1\n      dup2\n      add\n        /* \"#utility.yul\":3228:3246   */\n      mload\n        /* \"#utility.yul\":3248:3252   */\n      0xff\n        /* \"#utility.yul\":3224:3253   */\n      and\n        /* \"#utility.yul\":3210:3222   */\n      dup2\n      dup6\n      add\n        /* \"#utility.yul\":3203:3254   */\n      mstore\n        /* \"#utility.yul\":3309:3324   */\n      swap1\n      swap4\n      add\n      swap3\n        /* \"#utility.yul\":3283:3285   */\n      0x40\n        /* \"#utility.yul\":3274:3286   */\n      swap1\n      swap3\n      add\n      swap2\n        /* \"#utility.yul\":3088:3089   */\n      0x01\n        /* \"#utility.yul\":3081:3090   */\n      add\n        /* \"#utility.yul\":3052:3334   */\n      jump(tag_411)\n        /* \"#utility.yul\":3716:3843   */\n    tag_389:\n        /* \"#utility.yul\":3777:3787   */\n      0x4e487b71\n        /* \"#utility.yul\":3772:3775   */\n      0xe0\n        /* \"#utility.yul\":3768:3788   */\n      shl\n        /* \"#utility.yul\":3765:3766   */\n      0x00\n        /* \"#utility.yul\":3758:3789   */\n      mstore\n        /* \"#utility.yul\":3808:3812   */\n      0x11\n        /* \"#utility.yul\":3805:3806   */\n      0x04\n        /* \"#utility.yul\":3798:3813   */\n      mstore\n        /* \"#utility.yul\":3832:3836   */\n      0x24\n        /* \"#utility.yul\":3829:3830   */\n      0x00\n        /* \"#utility.yul\":3822:3837   */\n      revert\n        /* \"#utility.yul\":3848:3973   */\n    tag_88:\n        /* \"#utility.yul\":3913:3922   */\n      dup1\n      dup3\n      add\n        /* \"#utility.yul\":3934:3944   */\n      dup1\n      dup3\n      gt\n        /* \"#utility.yul\":3931:3967   */\n      iszero\n      tag_339\n      jumpi\n        /* \"#utility.yul\":3947:3965   */\n      tag_339\n      tag_389\n      jump\t// in\n        /* \"#utility.yul\":3978:4195   */\n    tag_93:\n        /* \"#utility.yul\":4018:4019   */\n      0x00\n        /* \"#utility.yul\":4044:4045   */\n      dup3\n        /* \"#utility.yul\":4034:4166   */\n      tag_420\n      jumpi\n        /* \"#utility.yul\":4088:4098   */\n      0x4e487b71\n        /* \"#utility.yul\":4083:4086   */\n      0xe0\n        /* \"#utility.yul\":4079:4099   */\n      shl\n        /* \"#utility.yul\":4076:4077   */\n      0x00\n        /* \"#utility.yul\":4069:4100   */\n      mstore\n        /* \"#utility.yul\":4123:4127   */\n      0x12\n        /* \"#utility.yul\":4120:4121   */\n      0x04\n        /* \"#utility.yul\":4113:4128   */\n      mstore\n        /* \"#utility.yul\":4151:4155   */\n      0x24\n        /* \"#utility.yul\":4148:4149   */\n      0x00\n        /* \"#utility.yul\":4141:4156   */\n      revert\n        /* \"#utility.yul\":4034:4166   */\n    tag_420:\n      pop\n        /* \"#utility.yul\":4180:4189   */\n      div\n      swap1\n        /* \"#utility.yul\":3978:4195   */\n      jump\t// out\n        /* \"#utility.yul\":4200:4327   */\n    tag_102:\n        /* \"#utility.yul\":4261:4271   */\n      0x4e487b71\n        /* \"#utility.yul\":4256:4259   */\n      0xe0\n        /* \"#utility.yul\":4252:4272   */\n      shl\n        /* \"#utility.yul\":4249:4250   */\n      0x00\n        /* \"#utility.yul\":4242:4273   */\n      mstore\n        /* \"#utility.yul\":4292:4296   */\n      0x32\n        /* \"#utility.yul\":4289:4290   */\n      0x04\n        /* \"#utility.yul\":4282:4297   */\n      mstore\n        /* \"#utility.yul\":4316:4320   */\n      0x24\n        /* \"#utility.yul\":4313:4314   */\n      0x00\n        /* \"#utility.yul\":4306:4321   */\n      revert\n        /* \"#utility.yul\":4691:4819   */\n    tag_125:\n        /* \"#utility.yul\":4758:4767   */\n      dup2\n      dup2\n      sub\n        /* \"#utility.yul\":4779:4790   */\n      dup2\n      dup2\n      gt\n        /* \"#utility.yul\":4776:4813   */\n      iszero\n      tag_339\n      jumpi\n        /* \"#utility.yul\":4793:4811   */\n      tag_339\n      tag_389\n      jump\t// in\n        /* \"#utility.yul\":4824:4992   */\n    tag_164:\n        /* \"#utility.yul\":4897:4906   */\n      dup1\n      dup3\n      mul\n        /* \"#utility.yul\":4928:4937   */\n      dup2\n      iszero\n        /* \"#utility.yul\":4945:4960   */\n      dup3\n      dup3\n      div\n        /* \"#utility.yul\":4939:4961   */\n      dup5\n      eq\n        /* \"#utility.yul\":4925:4962   */\n      or\n        /* \"#utility.yul\":4915:4986   */\n      tag_339\n      jumpi\n        /* \"#utility.yul\":4966:4984   */\n      tag_339\n      tag_389\n      jump\t// in\n        /* \"#utility.yul\":4997:5124   */\n    tag_172:\n        /* \"#utility.yul\":5058:5068   */\n      0x4e487b71\n        /* \"#utility.yul\":5053:5056   */\n      0xe0\n        /* \"#utility.yul\":5049:5069   */\n      shl\n        /* \"#utility.yul\":5046:5047   */\n      0x00\n        /* \"#utility.yul\":5039:5070   */\n      mstore\n        /* \"#utility.yul\":5089:5093   */\n      0x41\n        /* \"#utility.yul\":5086:5087   */\n      0x04\n        /* \"#utility.yul\":5079:5094   */\n      mstore\n        /* \"#utility.yul\":5113:5117   */\n      0x24\n        /* \"#utility.yul\":5110:5111   */\n      0x00\n        /* \"#utility.yul\":5103:5118   */\n      revert\n        /* \"#utility.yul\":7601:7833   */\n    tag_279:\n        /* \"#utility.yul\":7708:7714   */\n      0xffff\n        /* \"#utility.yul\":7685:7699   */\n      dup2\n      dup2\n      and\n        /* \"#utility.yul\":7701:7715   */\n      dup4\n      dup3\n      and\n        /* \"#utility.yul\":7681:7716   */\n      mul\n        /* \"#utility.yul\":7736:7760   */\n      swap1\n      dup2\n      and\n      swap1\n        /* \"#utility.yul\":7779:7803   */\n      dup2\n      dup2\n      eq\n        /* \"#utility.yul\":7769:7827   */\n      tag_439\n      jumpi\n        /* \"#utility.yul\":7807:7825   */\n      tag_439\n      tag_389\n      jump\t// in\n    tag_439:\n        /* \"#utility.yul\":7769:7827   */\n      pop\n        /* \"#utility.yul\":7601:7833   */\n      swap3\n      swap2\n      pop\n      pop\n      jump\t// out\n        /* \"#utility.yul\":8179:8386   */\n    tag_287:\n        /* \"#utility.yul\":8218:8221   */\n      0x00\n      sub(shl(0xe8, 0x01), 0x01)\n        /* \"#utility.yul\":8251:8282   */\n      dup3\n      and\n      not(sub(shl(0xe8, 0x01), 0x02))\n        /* \"#utility.yul\":8294:8326   */\n      dup2\n      add\n        /* \"#utility.yul\":8291:8349   */\n      tag_443\n      jumpi\n        /* \"#utility.yul\":8329:8347   */\n      tag_443\n      tag_389\n      jump\t// in\n    tag_443:\n        /* \"#utility.yul\":8378:8379   */\n      0x01\n        /* \"#utility.yul\":8365:8380   */\n      add\n      swap3\n        /* \"#utility.yul\":8179:8386   */\n      swap2\n      pop\n      pop\n      jump\t// out\n        /* \"#utility.yul\":10827:10954   */\n    tag_342:\n        /* \"#utility.yul\":10888:10898   */\n      0x4e487b71\n        /* \"#utility.yul\":10883:10886   */\n      0xe0\n        /* \"#utility.yul\":10879:10899   */\n      shl\n        /* \"#utility.yul\":10876:10877   */\n      0x00\n        /* \"#utility.yul\":10869:10900   */\n      mstore\n        /* \"#utility.yul\":10919:10923   */\n      0x01\n        /* \"#utility.yul\":10916:10917   */\n      0x04\n        /* \"#utility.yul\":10909:10924   */\n      mstore\n        /* \"#utility.yul\":10943:10947   */\n      0x24\n        /* \"#utility.yul\":10940:10941   */\n      0x00\n        /* \"#utility.yul\":10933:10948   */\n      revert\n\n    auxdata: 0xa2646970667358221220795005b2f9f701aed3dd9180ed4435f53a675b83c7e4c44a5b9cb0d4aa5684c264736f6c634300081a0033\n}\n",
				"bytecode": {
					"linkReferences": {},
					"object": "6080604052348015600e575f80fd5b505f80546001600160a01b03191633179055426006819055600855611c6c806100365f395ff3fe6080604052600436106100e4575f3560e01c8063a659f4dc11610087578063cf43830511610057578063cf4383051461020d578063d9498a8314610241578063dd5f6f4d14610262578063f4e79b5b14610281575f80fd5b8063a659f4dc146101ad578063b1c617ff146101d0578063c9ea0299146101e5578063ca6aae29146101f8575f80fd5b80632b5baca1116100c25780632b5baca114610126578063498213321461015b5780637da384fd1461016357806389a4c1a014610177575f80fd5b806312db1357146100e857806322629256146100fe578063289f901914610112575b5f80fd5b3480156100f3575f80fd5b506100fc610295565b005b348015610109575f80fd5b506100fc6104c4565b34801561011d575f80fd5b506100fc610589565b348015610131575f80fd5b506101456101403660046119c5565b6107dc565b60405161015291906119dc565b60405180910390f35b6100fc610916565b34801561016e575f80fd5b506100fc610a75565b348015610182575f80fd5b505f54610195906001600160a01b031681565b6040516001600160a01b039091168152602001610152565b3480156101b8575f80fd5b506101c260045481565b604051908152602001610152565b3480156101db575f80fd5b506101c260065481565b6100fc6101f3366004611a69565b610ff0565b348015610203575f80fd5b506101c260055481565b348015610218575f80fd5b506101c2610227366004611ad6565b6001600160a01b03165f9081526003602052604090205490565b34801561024c575f80fd5b50610255611406565b6040516101529190611aef565b34801561026d575f80fd5b506100fc61027c3660046119c5565b611486565b34801561028c575f80fd5b506100fc611680565b335f90815260036020526040902054670de0b6b3a76400001115806102c357505f546001600160a01b031633145b61030d5760405162461bcd60e51b81526020600482015260166024820152752cb7ba9036bab9ba10313290309034b73b32b9ba37b960511b60448201526064015b60405180910390fd5b6005546001546007545f91829161033991479161032a9087611b4f565b6103349190611b4f565b61171a565b905069021e19e0c9bab2400000811061037b5761035760c882611b62565b6103619084611b4f565b925061036e60c882611b62565b6103789083611b4f565b91505b5f60058190555b60025481101561048057670de0b6b3a764000060035f600284815481106103ab576103ab611b81565b5f9182526020808320909101546001600160a01b0316835282019290925260400190205410610478575f61042361041b60035f600286815481106103f1576103f1611b81565b5f9182526020808320909101546001600160a01b031683528201929092526040019020548761173e565b600454611772565b90506002828154811061043857610438611b81565b5f9182526020822001546040516001600160a01b039091169183156108fc02918491818181858888f19350505050158015610475573d5f803e3d5ffd5b50505b600101610382565b5081156104bf575f80546040516001600160a01b039091169184156108fc02918591818181858888f193505050501580156104bd573d5f803e3d5ffd5b505b505050565b335f90815260096020526040902060020154662386f26fc10000111561052c5760405162461bcd60e51b815260206004820152601e60248201527f4e6f7420656e6f7567682070726f66697420746f2077697468647261772100006044820152606401610304565b335f9081526009602052604081206002018054908290556007805491928392610556908490611b95565b9091555050604051339082156108fc029083905f818181858888f19350505050158015610585573d5f803e3d5ffd5b5050565b5f546001600160a01b0316331461059e575f80fd5b6008546105ae906213c680611b4f565b4210156105b9575f80fd5b60045447106106b6575f5b6002548110156106b057670de0b6b3a764000060035f600284815481106105ed576105ed611b81565b5f9182526020808320909101546001600160a01b03168352820192909252604001902054106106a8576002818154811061062957610629611b81565b5f918252602082200154600280546001600160a01b03909216926108fc92600392908690811061065b5761065b611b81565b5f9182526020808320909101546001600160a01b03168352820192909252604090810182205490518115909302929091818181858888f193505050501580156106a6573d5f803e3d5ffd5b505b6001016105c4565b506107cf565b47670de0b6b3a764000081106107cd575f5b6002548110156107cb57670de0b6b3a764000060035f600284815481106106f1576106f1611b81565b5f9182526020808320909101546001600160a01b03168352820192909252604001902054106107c3576002818154811061072d5761072d611b81565b5f918252602082200154600454600280546001600160a01b03909316936108fc938792600392918890811061076457610764611b81565b5f9182526020808320909101546001600160a01b031683528201929092526040019020546107929190611ba8565b61079c9190611b62565b6040518115909202915f818181858888f193505050501580156107c1573d5f803e3d5ffd5b505b6001016106c8565b505b505b5f546001600160a01b0316ff5b600b546060908290808211156107f0578091505b5f8267ffffffffffffffff81111561080a5761080a611bbf565b60405190808252806020026020018201604052801561085a57816020015b604080516080810182525f8082526020808301829052928201819052606082015282525f199092019101816108285790505b5090505f5b8381101561090d57600b81610875600186611b95565b61087f9190611b95565b8154811061088f5761088f611b81565b5f918252602091829020604080516080810182526003909302909101805463ffffffff8116845260ff64010000000090910416938301939093526001830154908201526002909101546001600160a01b0316606082015282518390839081106108fa576108fa611b81565b602090810291909101015260010161085f565b50949350505050565b670de0b6b3a764000034101580156109375750683635c9adc5dea000003411155b6109915760405162461bcd60e51b815260206004820152602560248201527f496e766573746d656e7420616d6f756e7420626574657765656e203120616e64604482015264020313030360dc1b6064820152608401610304565b69021e19e0c9bab24000006109b34760015460075460055461032a9190611b4f565b11156109bd575f80fd5b3460045f8282546109ce9190611b4f565b9091555050335f90815260036020526040812080543492906109f1908490611b4f565b9091555050335f9081526003602052604090204260018201556002015460ff16610a7357335f8181526003602052604081206002908101805460ff191660019081179091558154908101825591527f405787fa12a823e0f2b7631cc41b3ba8828b3321ca811111fa75cd3aa3bb5ace0180546001600160a01b03191690911790555b565b335f90815260096020526040902054610ade5760405162461bcd60e51b815260206004820152602560248201527f596f7520646f6e2774206861766520756e64726177206c6f7474657279207469604482015264636b65747360d81b6064820152608401610304565b335f9081526009602052604090208054610afa90600190611b95565b81548110610b0a57610b0a611b81565b5f91825260209091206002909102016001015461010090046001600160f81b03164311610b695760405162461bcd60e51b815260206004820152600d60248201526c49742773206e6f742074696d6560981b6044820152606401610304565b335f9081526009602052604090206001015415610b9d57335f908152600960205260408120610b9d91600190910190611951565b5f805b335f90815260096020526040902054811015610f1757335f908152600960205260409020805482908110610bd657610bd6611b81565b5f91825260209091206002909102016001015461010090046001600160f81b03164015610f0f57335f908152600960205260408120805483908110610c1d57610c1d611b81565b5f918252602080832060029092029091015433835260099091526040909120805484908110610c4e57610c4e611b81565b905f5260205f20906002020160010160019054906101000a90046001600160f81b03166001600160f81b031640604051602001610c95929190918252602082015260400190565b6040516020818303038152906040528051906020012060e01c90505f610cba82611795565b90508015610e6c57335f908152600960205260408120805466470de4df820000919086908110610cec57610cec611b81565b5f91825260209091206001600290920201015460ff16610d0b84611891565b610d159190611ba8565b610d1f9190611ba8565b9050610d2b8186611b4f565b6040805160808101825263ffffffff86168152335f9081526009602090815292812080549499509093919283019188908110610d6957610d69611b81565b5f9182526020808320600160029093020182015460ff908116855264ffffffffff42168583015233604095860152600b80549384018155909352845160039092027f0175b7a638427703f0dbe7bb9bbf987a2551717b34e79f33b5b1008d1fa01db981018054928701519094166401000000000264ffffffffff1990921663ffffffff9093169290921717909155908201517f0175b7a638427703f0dbe7bb9bbf987a2551717b34e79f33b5b1008d1fa01dba8201556060909101517f0175b7a638427703f0dbe7bb9bbf987a2551717b34e79f33b5b1008d1fa01dbb90910180546001600160a01b03929092166001600160a01b031990921691909117905550505b60408051808201825263ffffffff84168152335f908152600960209081529281208054919383019187908110610ea457610ea4611b81565b5f9182526020808320600160029093020182015460ff908116909452338352600981526040832082018054928301815583529182902084519101805494909201519092166401000000000264ffffffffff1990931663ffffffff909216919091179190911790555050505b600101610ba0565b50335f908152600960205260408120610f2f9161196c565b8015610fed575f610f61610f5a610f534760015460075460055461032a9190611b4f565b604661173e565b6064611772565b905080821115610f6f578091505b5f610f7e610f5a84600561173e565b90508060055f828254610f919190611b4f565b925050819055508060015f828254610fa99190611b4f565b909155503390506108fc610fbe836002611ba8565b610fc89086611b95565b6040518115909202915f818181858888f193505050501580156104bd573d5f803e3d5ffd5b50565b66470de4df82000034101561103e5760405162461bcd60e51b8152602060048201526014602482015273427579206174206c65617374206f6e652065676760601b6044820152606401610304565b60018360ff1610158015611056575060648360ff1611155b6110a25760405162461bcd60e51b815260206004820152601b60248201527f4d756c7469706c6573206265747765656e203120616e642031303000000000006044820152606401610304565b60018461ffff16101580156110bd57506103e88461ffff1611155b6111095760405162461bcd60e51b815260206004820181905260248201527f4e756d626572206f662065676773206265747765656e203120616e64203130306044820152606401610304565b5f61111b3466470de4df820000611772565b905061112a60ff851686611bd3565b61ffff16811461116b5760405162461bcd60e51b815260206004820152600c60248201526b496e76616c6964206461746160a01b6044820152606401610304565b5f5b8561ffff16811015611262575f6040518060600160405280424133898061119390611bf7565b9a506040516020016111df9493929190938452606092831b6bffffffffffffffffffffffff1990811660208601529190921b16603483015260181b62ffffff1916604882015260650190565b60408051601f198184030181529181528151602092830120835260ff808b16848401526001600160f81b0343811694830194909452335f908152600984528281208054600181810183559183529185902087516002909302019182559386015195909201519093166101000293909216929092179082015591909101905061116d565b50335f9081526009602052604090206003015460ff1661129957335f908152600960205260409020600301805460ff191660011790555b5f6112a8610f5a34600361173e565b90505f6112b9610f5a34600461173e565b90508160015f8282546112cc9190611b4f565b925050819055508160055f8282546112e49190611b4f565b9091555050335f908152600a60205260409020546001600160a01b03166113fd576001600160a01b03841633148061132357506001600160a01b038416155b806113405750335f9081526009602052604090206003015460ff16155b15611353575f546001600160a01b031693505b335f908152600a6020526040812080546001600160a01b0319166001600160a01b0387811691821790925591541690036113a3578060015f8282546113989190611b4f565b909155506113f89050565b335f908152600a60209081526040808320546001600160a01b031683526009909152812060020180548392906113da908490611b4f565b925050819055508060075f8282546113f29190611b4f565b90915550505b426008555b50505050505050565b335f908152600960209081526040808320600101805482518185028101850190935280835260609492939192909184015b8282101561147d575f848152602090819020604080518082019091529084015463ffffffff81168252640100000000900460ff1681830152825260019092019101611437565b50505050905090565b670de0b6b3a76400008110156115185760405162461bcd60e51b815260206004820152604b60248201527f4d696e696d756d20696e766573746d656e7420616d6f756e742069732072657160448201527f75697265642c6974277320736d616c6c6572207468616e20746865206d696e6960648201526a1b5d5b4819195c1bdcda5d60aa1b608482015260a401610304565b335f908152600360205260409020548111156115765760405162461bcd60e51b815260206004820152601c60248201527f4e6f7420656e6f7567682066756e6420746f20776974686472617721000000006044820152606401610304565b335f908152600360205260409020600101546115959062093a80611b4f565b4210156115e45760405162461bcd60e51b815260206004820152601f60248201527f43616e6e6f74207769746864726177206166746572206f6e65207765656b21006044820152606401610304565b806115fc4760015460075460055461032a9190611b4f565b101561164a5760405162461bcd60e51b815260206004820152601e60248201527f496e73756666696369656e742066756e6420746f2077697468647261772100006044820152606401610304565b335f9081526003602052604081208054839290611668908490611b95565b925050819055508060045f8282546105569190611b95565b5f546001600160a01b031633146116d95760405162461bcd60e51b815260206004820152601960248201527f596f75206d7573742062652074686520646576656c6f706572000000000000006044820152606401610304565b600180545f91829055815460405191926001600160a01b039091169183156108fc0291849190818181858888f19350505050158015610585573d5f803e3d5ffd5b5f8282111561172b5761172b611c22565b6117358284611b95565b90505b92915050565b5f825f0361174d57505f611738565b5f6117588385611ba8565b9050826117658583611b62565b1461173557611735611c22565b5f80821161178257611782611c22565b5f61178d8385611b62565b949350505050565b5f63040000008263ffffffff1611156117af57505f919050565b63010000008263ffffffff16106117c85750600a919050565b624000008263ffffffff16106117e057506009919050565b621000008263ffffffff16106117f857506008919050565b620400008263ffffffff161061181057506007919050565b620100008263ffffffff161061182857506006919050565b6140008263ffffffff161061183f57506005919050565b6110008263ffffffff161061185657506004919050565b6104008263ffffffff161061186d57506003919050565b6101008263ffffffff161061188457506002919050565b506001919050565b919050565b5f815f036118a057505f919050565b81600a036118b057506005919050565b816009036118c057506014919050565b816008036118d057506050919050565b816007036118e15750610140919050565b816006036118f257506104b0919050565b8160050361190357506112c0919050565b816004036119145750614e20919050565b816003036119265750620186a0919050565b8160020361193857506207a120919050565b8160010361194a5750621e8480919050565b505f919050565b5080545f8255905f5260205f2090810190610fed919061198a565b5080545f8255600202905f5260205f2090810190610fed91906119ab565b5b808211156119a757805464ffffffffff1916815560010161198b565b5090565b5b808211156119a7575f80825560018201556002016119ac565b5f602082840312156119d5575f80fd5b5035919050565b602080825282518282018190525f918401906040840190835b81811015611a48578351805163ffffffff16845260208082015160ff1681860152604080830151908601526060918201516001600160a01b031691850191909152909301926080909201916001016119f5565b509095945050505050565b80356001600160a01b038116811461188c575f80fd5b5f805f8060808587031215611a7c575f80fd5b843561ffff81168114611a8d575f80fd5b9350602085013560ff81168114611aa2575f80fd5b925060408501356001600160e81b0381168114611abd575f80fd5b9150611acb60608601611a53565b905092959194509250565b5f60208284031215611ae6575f80fd5b61173582611a53565b602080825282518282018190525f918401906040840190835b81811015611a48578351805163ffffffff16845260209081015160ff168185015290930192604090920191600101611b08565b634e487b7160e01b5f52601160045260245ffd5b8082018082111561173857611738611b3b565b5f82611b7c57634e487b7160e01b5f52601260045260245ffd5b500490565b634e487b7160e01b5f52603260045260245ffd5b8181038181111561173857611738611b3b565b808202811582820484141761173857611738611b3b565b634e487b7160e01b5f52604160045260245ffd5b61ffff8181168382160290811690818114611bf057611bf0611b3b565b5092915050565b5f6001600160e81b0382166002600160e81b03198101611c1957611c19611b3b565b60010192915050565b634e487b7160e01b5f52600160045260245ffdfea2646970667358221220795005b2f9f701aed3dd9180ed4435f53a675b83c7e4c44a5b9cb0d4aa5684c264736f6c634300081a0033",
					"opcodes": "PUSH1 0x80 PUSH1 0x40 MSTORE CALLVALUE DUP1 ISZERO PUSH1 0xE JUMPI PUSH0 DUP1 REVERT JUMPDEST POP PUSH0 DUP1 SLOAD PUSH1 0x1 PUSH1 0x1 PUSH1 0xA0 SHL SUB NOT AND CALLER OR SWAP1 SSTORE TIMESTAMP PUSH1 0x6 DUP2 SWAP1 SSTORE PUSH1 0x8 SSTORE PUSH2 0x1C6C DUP1 PUSH2 0x36 PUSH0 CODECOPY PUSH0 RETURN INVALID PUSH1 0x80 PUSH1 0x40 MSTORE PUSH1 0x4 CALLDATASIZE LT PUSH2 0xE4 JUMPI PUSH0 CALLDATALOAD PUSH1 0xE0 SHR DUP1 PUSH4 0xA659F4DC GT PUSH2 0x87 JUMPI DUP1 PUSH4 0xCF438305 GT PUSH2 0x57 JUMPI DUP1 PUSH4 0xCF438305 EQ PUSH2 0x20D JUMPI DUP1 PUSH4 0xD9498A83 EQ PUSH2 0x241 JUMPI DUP1 PUSH4 0xDD5F6F4D EQ PUSH2 0x262 JUMPI DUP1 PUSH4 0xF4E79B5B EQ PUSH2 0x281 JUMPI PUSH0 DUP1 REVERT JUMPDEST DUP1 PUSH4 0xA659F4DC EQ PUSH2 0x1AD JUMPI DUP1 PUSH4 0xB1C617FF EQ PUSH2 0x1D0 JUMPI DUP1 PUSH4 0xC9EA0299 EQ PUSH2 0x1E5 JUMPI DUP1 PUSH4 0xCA6AAE29 EQ PUSH2 0x1F8 JUMPI PUSH0 DUP1 REVERT JUMPDEST DUP1 PUSH4 0x2B5BACA1 GT PUSH2 0xC2 JUMPI DUP1 PUSH4 0x2B5BACA1 EQ PUSH2 0x126 JUMPI DUP1 PUSH4 0x49821332 EQ PUSH2 0x15B JUMPI DUP1 PUSH4 0x7DA384FD EQ PUSH2 0x163 JUMPI DUP1 PUSH4 0x89A4C1A0 EQ PUSH2 0x177 JUMPI PUSH0 DUP1 REVERT JUMPDEST DUP1 PUSH4 0x12DB1357 EQ PUSH2 0xE8 JUMPI DUP1 PUSH4 0x22629256 EQ PUSH2 0xFE JUMPI DUP1 PUSH4 0x289F9019 EQ PUSH2 0x112 JUMPI JUMPDEST PUSH0 DUP1 REVERT JUMPDEST CALLVALUE DUP1 ISZERO PUSH2 0xF3 JUMPI PUSH0 DUP1 REVERT JUMPDEST POP PUSH2 0xFC PUSH2 0x295 JUMP JUMPDEST STOP JUMPDEST CALLVALUE DUP1 ISZERO PUSH2 0x109 JUMPI PUSH0 DUP1 REVERT JUMPDEST POP PUSH2 0xFC PUSH2 0x4C4 JUMP JUMPDEST CALLVALUE DUP1 ISZERO PUSH2 0x11D JUMPI PUSH0 DUP1 REVERT JUMPDEST POP PUSH2 0xFC PUSH2 0x589 JUMP JUMPDEST CALLVALUE DUP1 ISZERO PUSH2 0x131 JUMPI PUSH0 DUP1 REVERT JUMPDEST POP PUSH2 0x145 PUSH2 0x140 CALLDATASIZE PUSH1 0x4 PUSH2 0x19C5 JUMP JUMPDEST PUSH2 0x7DC JUMP JUMPDEST PUSH1 0x40 MLOAD PUSH2 0x152 SWAP2 SWAP1 PUSH2 0x19DC JUMP JUMPDEST PUSH1 0x40 MLOAD DUP1 SWAP2 SUB SWAP1 RETURN JUMPDEST PUSH2 0xFC PUSH2 0x916 JUMP JUMPDEST CALLVALUE DUP1 ISZERO PUSH2 0x16E JUMPI PUSH0 DUP1 REVERT JUMPDEST POP PUSH2 0xFC PUSH2 0xA75 JUMP JUMPDEST CALLVALUE DUP1 ISZERO PUSH2 0x182 JUMPI PUSH0 DUP1 REVERT JUMPDEST POP PUSH0 SLOAD PUSH2 0x195 SWAP1 PUSH1 0x1 PUSH1 0x1 PUSH1 0xA0 SHL SUB AND DUP2 JUMP JUMPDEST PUSH1 0x40 MLOAD PUSH1 0x1 PUSH1 0x1 PUSH1 0xA0 SHL SUB SWAP1 SWAP2 AND DUP2 MSTORE PUSH1 0x20 ADD PUSH2 0x152 JUMP JUMPDEST CALLVALUE DUP1 ISZERO PUSH2 0x1B8 JUMPI PUSH0 DUP1 REVERT JUMPDEST POP PUSH2 0x1C2 PUSH1 0x4 SLOAD DUP2 JUMP JUMPDEST PUSH1 0x40 MLOAD SWAP1 DUP2 MSTORE PUSH1 0x20 ADD PUSH2 0x152 JUMP JUMPDEST CALLVALUE DUP1 ISZERO PUSH2 0x1DB JUMPI PUSH0 DUP1 REVERT JUMPDEST POP PUSH2 0x1C2 PUSH1 0x6 SLOAD DUP2 JUMP JUMPDEST PUSH2 0xFC PUSH2 0x1F3 CALLDATASIZE PUSH1 0x4 PUSH2 0x1A69 JUMP JUMPDEST PUSH2 0xFF0 JUMP JUMPDEST CALLVALUE DUP1 ISZERO PUSH2 0x203 JUMPI PUSH0 DUP1 REVERT JUMPDEST POP PUSH2 0x1C2 PUSH1 0x5 SLOAD DUP2 JUMP JUMPDEST CALLVALUE DUP1 ISZERO PUSH2 0x218 JUMPI PUSH0 DUP1 REVERT JUMPDEST POP PUSH2 0x1C2 PUSH2 0x227 CALLDATASIZE PUSH1 0x4 PUSH2 0x1AD6 JUMP JUMPDEST PUSH1 0x1 PUSH1 0x1 PUSH1 0xA0 SHL SUB AND PUSH0 SWAP1 DUP2 MSTORE PUSH1 0x3 PUSH1 0x20 MSTORE PUSH1 0x40 SWAP1 KECCAK256 SLOAD SWAP1 JUMP JUMPDEST CALLVALUE DUP1 ISZERO PUSH2 0x24C JUMPI PUSH0 DUP1 REVERT JUMPDEST POP PUSH2 0x255 PUSH2 0x1406 JUMP JUMPDEST PUSH1 0x40 MLOAD PUSH2 0x152 SWAP2 SWAP1 PUSH2 0x1AEF JUMP JUMPDEST CALLVALUE DUP1 ISZERO PUSH2 0x26D JUMPI PUSH0 DUP1 REVERT JUMPDEST POP PUSH2 0xFC PUSH2 0x27C CALLDATASIZE PUSH1 0x4 PUSH2 0x19C5 JUMP JUMPDEST PUSH2 0x1486 JUMP JUMPDEST CALLVALUE DUP1 ISZERO PUSH2 0x28C JUMPI PUSH0 DUP1 REVERT JUMPDEST POP PUSH2 0xFC PUSH2 0x1680 JUMP JUMPDEST CALLER PUSH0 SWAP1 DUP2 MSTORE PUSH1 0x3 PUSH1 0x20 MSTORE PUSH1 0x40 SWAP1 KECCAK256 SLOAD PUSH8 0xDE0B6B3A7640000 GT ISZERO DUP1 PUSH2 0x2C3 JUMPI POP PUSH0 SLOAD PUSH1 0x1 PUSH1 0x1 PUSH1 0xA0 SHL SUB AND CALLER EQ JUMPDEST PUSH2 0x30D JUMPI PUSH1 0x40 MLOAD PUSH3 0x461BCD PUSH1 0xE5 SHL DUP2 MSTORE PUSH1 0x20 PUSH1 0x4 DUP3 ADD MSTORE PUSH1 0x16 PUSH1 0x24 DUP3 ADD MSTORE PUSH22 0x2CB7BA9036BAB9BA10313290309034B73B32B9BA37B9 PUSH1 0x51 SHL PUSH1 0x44 DUP3 ADD MSTORE PUSH1 0x64 ADD JUMPDEST PUSH1 0x40 MLOAD DUP1 SWAP2 SUB SWAP1 REVERT JUMPDEST PUSH1 0x5 SLOAD PUSH1 0x1 SLOAD PUSH1 0x7 SLOAD PUSH0 SWAP2 DUP3 SWAP2 PUSH2 0x339 SWAP2 SELFBALANCE SWAP2 PUSH2 0x32A SWAP1 DUP8 PUSH2 0x1B4F JUMP JUMPDEST PUSH2 0x334 SWAP2 SWAP1 PUSH2 0x1B4F JUMP JUMPDEST PUSH2 0x171A JUMP JUMPDEST SWAP1 POP PUSH10 0x21E19E0C9BAB2400000 DUP2 LT PUSH2 0x37B JUMPI PUSH2 0x357 PUSH1 0xC8 DUP3 PUSH2 0x1B62 JUMP JUMPDEST PUSH2 0x361 SWAP1 DUP5 PUSH2 0x1B4F JUMP JUMPDEST SWAP3 POP PUSH2 0x36E PUSH1 0xC8 DUP3 PUSH2 0x1B62 JUMP JUMPDEST PUSH2 0x378 SWAP1 DUP4 PUSH2 0x1B4F JUMP JUMPDEST SWAP2 POP JUMPDEST PUSH0 PUSH1 0x5 DUP2 SWAP1 SSTORE JUMPDEST PUSH1 0x2 SLOAD DUP2 LT ISZERO PUSH2 0x480 JUMPI PUSH8 0xDE0B6B3A7640000 PUSH1 0x3 PUSH0 PUSH1 0x2 DUP5 DUP2 SLOAD DUP2 LT PUSH2 0x3AB JUMPI PUSH2 0x3AB PUSH2 0x1B81 JUMP JUMPDEST PUSH0 SWAP2 DUP3 MSTORE PUSH1 0x20 DUP1 DUP4 KECCAK256 SWAP1 SWAP2 ADD SLOAD PUSH1 0x1 PUSH1 0x1 PUSH1 0xA0 SHL SUB AND DUP4 MSTORE DUP3 ADD SWAP3 SWAP1 SWAP3 MSTORE PUSH1 0x40 ADD SWAP1 KECCAK256 SLOAD LT PUSH2 0x478 JUMPI PUSH0 PUSH2 0x423 PUSH2 0x41B PUSH1 0x3 PUSH0 PUSH1 0x2 DUP7 DUP2 SLOAD DUP2 LT PUSH2 0x3F1 JUMPI PUSH2 0x3F1 PUSH2 0x1B81 JUMP JUMPDEST PUSH0 SWAP2 DUP3 MSTORE PUSH1 0x20 DUP1 DUP4 KECCAK256 SWAP1 SWAP2 ADD SLOAD PUSH1 0x1 PUSH1 0x1 PUSH1 0xA0 SHL SUB AND DUP4 MSTORE DUP3 ADD SWAP3 SWAP1 SWAP3 MSTORE PUSH1 0x40 ADD SWAP1 KECCAK256 SLOAD DUP8 PUSH2 0x173E JUMP JUMPDEST PUSH1 0x4 SLOAD PUSH2 0x1772 JUMP JUMPDEST SWAP1 POP PUSH1 0x2 DUP3 DUP2 SLOAD DUP2 LT PUSH2 0x438 JUMPI PUSH2 0x438 PUSH2 0x1B81 JUMP JUMPDEST PUSH0 SWAP2 DUP3 MSTORE PUSH1 0x20 DUP3 KECCAK256 ADD SLOAD PUSH1 0x40 MLOAD PUSH1 0x1 PUSH1 0x1 PUSH1 0xA0 SHL SUB SWAP1 SWAP2 AND SWAP2 DUP4 ISZERO PUSH2 0x8FC MUL SWAP2 DUP5 SWAP2 DUP2 DUP2 DUP2 DUP6 DUP9 DUP9 CALL SWAP4 POP POP POP POP ISZERO DUP1 ISZERO PUSH2 0x475 JUMPI RETURNDATASIZE PUSH0 DUP1 RETURNDATACOPY RETURNDATASIZE PUSH0 REVERT JUMPDEST POP POP JUMPDEST PUSH1 0x1 ADD PUSH2 0x382 JUMP JUMPDEST POP DUP2 ISZERO PUSH2 0x4BF JUMPI PUSH0 DUP1 SLOAD PUSH1 0x40 MLOAD PUSH1 0x1 PUSH1 0x1 PUSH1 0xA0 SHL SUB SWAP1 SWAP2 AND SWAP2 DUP5 ISZERO PUSH2 0x8FC MUL SWAP2 DUP6 SWAP2 DUP2 DUP2 DUP2 DUP6 DUP9 DUP9 CALL SWAP4 POP POP POP POP ISZERO DUP1 ISZERO PUSH2 0x4BD JUMPI RETURNDATASIZE PUSH0 DUP1 RETURNDATACOPY RETURNDATASIZE PUSH0 REVERT JUMPDEST POP JUMPDEST POP POP POP JUMP JUMPDEST CALLER PUSH0 SWAP1 DUP2 MSTORE PUSH1 0x9 PUSH1 0x20 MSTORE PUSH1 0x40 SWAP1 KECCAK256 PUSH1 0x2 ADD SLOAD PUSH7 0x2386F26FC10000 GT ISZERO PUSH2 0x52C JUMPI PUSH1 0x40 MLOAD PUSH3 0x461BCD PUSH1 0xE5 SHL DUP2 MSTORE PUSH1 0x20 PUSH1 0x4 DUP3 ADD MSTORE PUSH1 0x1E PUSH1 0x24 DUP3 ADD MSTORE PUSH32 0x4E6F7420656E6F7567682070726F66697420746F207769746864726177210000 PUSH1 0x44 DUP3 ADD MSTORE PUSH1 0x64 ADD PUSH2 0x304 JUMP JUMPDEST CALLER PUSH0 SWAP1 DUP2 MSTORE PUSH1 0x9 PUSH1 0x20 MSTORE PUSH1 0x40 DUP2 KECCAK256 PUSH1 0x2 ADD DUP1 SLOAD SWAP1 DUP3 SWAP1 SSTORE PUSH1 0x7 DUP1 SLOAD SWAP2 SWAP3 DUP4 SWAP3 PUSH2 0x556 SWAP1 DUP5 SWAP1 PUSH2 0x1B95 JUMP JUMPDEST SWAP1 SWAP2 SSTORE POP POP PUSH1 0x40 MLOAD CALLER SWAP1 DUP3 ISZERO PUSH2 0x8FC MUL SWAP1 DUP4 SWAP1 PUSH0 DUP2 DUP2 DUP2 DUP6 DUP9 DUP9 CALL SWAP4 POP POP POP POP ISZERO DUP1 ISZERO PUSH2 0x585 JUMPI RETURNDATASIZE PUSH0 DUP1 RETURNDATACOPY RETURNDATASIZE PUSH0 REVERT JUMPDEST POP POP JUMP JUMPDEST PUSH0 SLOAD PUSH1 0x1 PUSH1 0x1 PUSH1 0xA0 SHL SUB AND CALLER EQ PUSH2 0x59E JUMPI PUSH0 DUP1 REVERT JUMPDEST PUSH1 0x8 SLOAD PUSH2 0x5AE SWAP1 PUSH3 0x13C680 PUSH2 0x1B4F JUMP JUMPDEST TIMESTAMP LT ISZERO PUSH2 0x5B9 JUMPI PUSH0 DUP1 REVERT JUMPDEST PUSH1 0x4 SLOAD SELFBALANCE LT PUSH2 0x6B6 JUMPI PUSH0 JUMPDEST PUSH1 0x2 SLOAD DUP2 LT ISZERO PUSH2 0x6B0 JUMPI PUSH8 0xDE0B6B3A7640000 PUSH1 0x3 PUSH0 PUSH1 0x2 DUP5 DUP2 SLOAD DUP2 LT PUSH2 0x5ED JUMPI PUSH2 0x5ED PUSH2 0x1B81 JUMP JUMPDEST PUSH0 SWAP2 DUP3 MSTORE PUSH1 0x20 DUP1 DUP4 KECCAK256 SWAP1 SWAP2 ADD SLOAD PUSH1 0x1 PUSH1 0x1 PUSH1 0xA0 SHL SUB AND DUP4 MSTORE DUP3 ADD SWAP3 SWAP1 SWAP3 MSTORE PUSH1 0x40 ADD SWAP1 KECCAK256 SLOAD LT PUSH2 0x6A8 JUMPI PUSH1 0x2 DUP2 DUP2 SLOAD DUP2 LT PUSH2 0x629 JUMPI PUSH2 0x629 PUSH2 0x1B81 JUMP JUMPDEST PUSH0 SWAP2 DUP3 MSTORE PUSH1 0x20 DUP3 KECCAK256 ADD SLOAD PUSH1 0x2 DUP1 SLOAD PUSH1 0x1 PUSH1 0x1 PUSH1 0xA0 SHL SUB SWAP1 SWAP3 AND SWAP3 PUSH2 0x8FC SWAP3 PUSH1 0x3 SWAP3 SWAP1 DUP7 SWAP1 DUP2 LT PUSH2 0x65B JUMPI PUSH2 0x65B PUSH2 0x1B81 JUMP JUMPDEST PUSH0 SWAP2 DUP3 MSTORE PUSH1 0x20 DUP1 DUP4 KECCAK256 SWAP1 SWAP2 ADD SLOAD PUSH1 0x1 PUSH1 0x1 PUSH1 0xA0 SHL SUB AND DUP4 MSTORE DUP3 ADD SWAP3 SWAP1 SWAP3 MSTORE PUSH1 0x40 SWAP1 DUP2 ADD DUP3 KECCAK256 SLOAD SWAP1 MLOAD DUP2 ISZERO SWAP1 SWAP4 MUL SWAP3 SWAP1 SWAP2 DUP2 DUP2 DUP2 DUP6 DUP9 DUP9 CALL SWAP4 POP POP POP POP ISZERO DUP1 ISZERO PUSH2 0x6A6 JUMPI RETURNDATASIZE PUSH0 DUP1 RETURNDATACOPY RETURNDATASIZE PUSH0 REVERT JUMPDEST POP JUMPDEST PUSH1 0x1 ADD PUSH2 0x5C4 JUMP JUMPDEST POP PUSH2 0x7CF JUMP JUMPDEST SELFBALANCE PUSH8 0xDE0B6B3A7640000 DUP2 LT PUSH2 0x7CD JUMPI PUSH0 JUMPDEST PUSH1 0x2 SLOAD DUP2 LT ISZERO PUSH2 0x7CB JUMPI PUSH8 0xDE0B6B3A7640000 PUSH1 0x3 PUSH0 PUSH1 0x2 DUP5 DUP2 SLOAD DUP2 LT PUSH2 0x6F1 JUMPI PUSH2 0x6F1 PUSH2 0x1B81 JUMP JUMPDEST PUSH0 SWAP2 DUP3 MSTORE PUSH1 0x20 DUP1 DUP4 KECCAK256 SWAP1 SWAP2 ADD SLOAD PUSH1 0x1 PUSH1 0x1 PUSH1 0xA0 SHL SUB AND DUP4 MSTORE DUP3 ADD SWAP3 SWAP1 SWAP3 MSTORE PUSH1 0x40 ADD SWAP1 KECCAK256 SLOAD LT PUSH2 0x7C3 JUMPI PUSH1 0x2 DUP2 DUP2 SLOAD DUP2 LT PUSH2 0x72D JUMPI PUSH2 0x72D PUSH2 0x1B81 JUMP JUMPDEST PUSH0 SWAP2 DUP3 MSTORE PUSH1 0x20 DUP3 KECCAK256 ADD SLOAD PUSH1 0x4 SLOAD PUSH1 0x2 DUP1 SLOAD PUSH1 0x1 PUSH1 0x1 PUSH1 0xA0 SHL SUB SWAP1 SWAP4 AND SWAP4 PUSH2 0x8FC SWAP4 DUP8 SWAP3 PUSH1 0x3 SWAP3 SWAP2 DUP9 SWAP1 DUP2 LT PUSH2 0x764 JUMPI PUSH2 0x764 PUSH2 0x1B81 JUMP JUMPDEST PUSH0 SWAP2 DUP3 MSTORE PUSH1 0x20 DUP1 DUP4 KECCAK256 SWAP1 SWAP2 ADD SLOAD PUSH1 0x1 PUSH1 0x1 PUSH1 0xA0 SHL SUB AND DUP4 MSTORE DUP3 ADD SWAP3 SWAP1 SWAP3 MSTORE PUSH1 0x40 ADD SWAP1 KECCAK256 SLOAD PUSH2 0x792 SWAP2 SWAP1 PUSH2 0x1BA8 JUMP JUMPDEST PUSH2 0x79C SWAP2 SWAP1 PUSH2 0x1B62 JUMP JUMPDEST PUSH1 0x40 MLOAD DUP2 ISZERO SWAP1 SWAP3 MUL SWAP2 PUSH0 DUP2 DUP2 DUP2 DUP6 DUP9 DUP9 CALL SWAP4 POP POP POP POP ISZERO DUP1 ISZERO PUSH2 0x7C1 JUMPI RETURNDATASIZE PUSH0 DUP1 RETURNDATACOPY RETURNDATASIZE PUSH0 REVERT JUMPDEST POP JUMPDEST PUSH1 0x1 ADD PUSH2 0x6C8 JUMP JUMPDEST POP JUMPDEST POP JUMPDEST PUSH0 SLOAD PUSH1 0x1 PUSH1 0x1 PUSH1 0xA0 SHL SUB AND SELFDESTRUCT JUMPDEST PUSH1 0xB SLOAD PUSH1 0x60 SWAP1 DUP3 SWAP1 DUP1 DUP3 GT ISZERO PUSH2 0x7F0 JUMPI DUP1 SWAP2 POP JUMPDEST PUSH0 DUP3 PUSH8 0xFFFFFFFFFFFFFFFF DUP2 GT ISZERO PUSH2 0x80A JUMPI PUSH2 0x80A PUSH2 0x1BBF JUMP JUMPDEST PUSH1 0x40 MLOAD SWAP1 DUP1 DUP3 MSTORE DUP1 PUSH1 0x20 MUL PUSH1 0x20 ADD DUP3 ADD PUSH1 0x40 MSTORE DUP1 ISZERO PUSH2 0x85A JUMPI DUP2 PUSH1 0x20 ADD JUMPDEST PUSH1 0x40 DUP1 MLOAD PUSH1 0x80 DUP2 ADD DUP3 MSTORE PUSH0 DUP1 DUP3 MSTORE PUSH1 0x20 DUP1 DUP4 ADD DUP3 SWAP1 MSTORE SWAP3 DUP3 ADD DUP2 SWAP1 MSTORE PUSH1 0x60 DUP3 ADD MSTORE DUP3 MSTORE PUSH0 NOT SWAP1 SWAP3 ADD SWAP2 ADD DUP2 PUSH2 0x828 JUMPI SWAP1 POP JUMPDEST POP SWAP1 POP PUSH0 JUMPDEST DUP4 DUP2 LT ISZERO PUSH2 0x90D JUMPI PUSH1 0xB DUP2 PUSH2 0x875 PUSH1 0x1 DUP7 PUSH2 0x1B95 JUMP JUMPDEST PUSH2 0x87F SWAP2 SWAP1 PUSH2 0x1B95 JUMP JUMPDEST DUP2 SLOAD DUP2 LT PUSH2 0x88F JUMPI PUSH2 0x88F PUSH2 0x1B81 JUMP JUMPDEST PUSH0 SWAP2 DUP3 MSTORE PUSH1 0x20 SWAP2 DUP3 SWAP1 KECCAK256 PUSH1 0x40 DUP1 MLOAD PUSH1 0x80 DUP2 ADD DUP3 MSTORE PUSH1 0x3 SWAP1 SWAP4 MUL SWAP1 SWAP2 ADD DUP1 SLOAD PUSH4 0xFFFFFFFF DUP2 AND DUP5 MSTORE PUSH1 0xFF PUSH5 0x100000000 SWAP1 SWAP2 DIV AND SWAP4 DUP4 ADD SWAP4 SWAP1 SWAP4 MSTORE PUSH1 0x1 DUP4 ADD SLOAD SWAP1 DUP3 ADD MSTORE PUSH1 0x2 SWAP1 SWAP2 ADD SLOAD PUSH1 0x1 PUSH1 0x1 PUSH1 0xA0 SHL SUB AND PUSH1 0x60 DUP3 ADD MSTORE DUP3 MLOAD DUP4 SWAP1 DUP4 SWAP1 DUP2 LT PUSH2 0x8FA JUMPI PUSH2 0x8FA PUSH2 0x1B81 JUMP JUMPDEST PUSH1 0x20 SWAP1 DUP2 MUL SWAP2 SWAP1 SWAP2 ADD ADD MSTORE PUSH1 0x1 ADD PUSH2 0x85F JUMP JUMPDEST POP SWAP5 SWAP4 POP POP POP POP JUMP JUMPDEST PUSH8 0xDE0B6B3A7640000 CALLVALUE LT ISZERO DUP1 ISZERO PUSH2 0x937 JUMPI POP PUSH9 0x3635C9ADC5DEA00000 CALLVALUE GT ISZERO JUMPDEST PUSH2 0x991 JUMPI PUSH1 0x40 MLOAD PUSH3 0x461BCD PUSH1 0xE5 SHL DUP2 MSTORE PUSH1 0x20 PUSH1 0x4 DUP3 ADD MSTORE PUSH1 0x25 PUSH1 0x24 DUP3 ADD MSTORE PUSH32 0x496E766573746D656E7420616D6F756E7420626574657765656E203120616E64 PUSH1 0x44 DUP3 ADD MSTORE PUSH5 0x203130303 PUSH1 0xDC SHL PUSH1 0x64 DUP3 ADD MSTORE PUSH1 0x84 ADD PUSH2 0x304 JUMP JUMPDEST PUSH10 0x21E19E0C9BAB2400000 PUSH2 0x9B3 SELFBALANCE PUSH1 0x1 SLOAD PUSH1 0x7 SLOAD PUSH1 0x5 SLOAD PUSH2 0x32A SWAP2 SWAP1 PUSH2 0x1B4F JUMP JUMPDEST GT ISZERO PUSH2 0x9BD JUMPI PUSH0 DUP1 REVERT JUMPDEST CALLVALUE PUSH1 0x4 PUSH0 DUP3 DUP3 SLOAD PUSH2 0x9CE SWAP2 SWAP1 PUSH2 0x1B4F JUMP JUMPDEST SWAP1 SWAP2 SSTORE POP POP CALLER PUSH0 SWAP1 DUP2 MSTORE PUSH1 0x3 PUSH1 0x20 MSTORE PUSH1 0x40 DUP2 KECCAK256 DUP1 SLOAD CALLVALUE SWAP3 SWAP1 PUSH2 0x9F1 SWAP1 DUP5 SWAP1 PUSH2 0x1B4F JUMP JUMPDEST SWAP1 SWAP2 SSTORE POP POP CALLER PUSH0 SWAP1 DUP2 MSTORE PUSH1 0x3 PUSH1 0x20 MSTORE PUSH1 0x40 SWAP1 KECCAK256 TIMESTAMP PUSH1 0x1 DUP3 ADD SSTORE PUSH1 0x2 ADD SLOAD PUSH1 0xFF AND PUSH2 0xA73 JUMPI CALLER PUSH0 DUP2 DUP2 MSTORE PUSH1 0x3 PUSH1 0x20 MSTORE PUSH1 0x40 DUP2 KECCAK256 PUSH1 0x2 SWAP1 DUP2 ADD DUP1 SLOAD PUSH1 0xFF NOT AND PUSH1 0x1 SWAP1 DUP2 OR SWAP1 SWAP2 SSTORE DUP2 SLOAD SWAP1 DUP2 ADD DUP3 SSTORE SWAP2 MSTORE PUSH32 0x405787FA12A823E0F2B7631CC41B3BA8828B3321CA811111FA75CD3AA3BB5ACE ADD DUP1 SLOAD PUSH1 0x1 PUSH1 0x1 PUSH1 0xA0 SHL SUB NOT AND SWAP1 SWAP2 OR SWAP1 SSTORE JUMPDEST JUMP JUMPDEST CALLER PUSH0 SWAP1 DUP2 MSTORE PUSH1 0x9 PUSH1 0x20 MSTORE PUSH1 0x40 SWAP1 KECCAK256 SLOAD PUSH2 0xADE JUMPI PUSH1 0x40 MLOAD PUSH3 0x461BCD PUSH1 0xE5 SHL DUP2 MSTORE PUSH1 0x20 PUSH1 0x4 DUP3 ADD MSTORE PUSH1 0x25 PUSH1 0x24 DUP3 ADD MSTORE PUSH32 0x596F7520646F6E2774206861766520756E64726177206C6F7474657279207469 PUSH1 0x44 DUP3 ADD MSTORE PUSH5 0x636B657473 PUSH1 0xD8 SHL PUSH1 0x64 DUP3 ADD MSTORE PUSH1 0x84 ADD PUSH2 0x304 JUMP JUMPDEST CALLER PUSH0 SWAP1 DUP2 MSTORE PUSH1 0x9 PUSH1 0x20 MSTORE PUSH1 0x40 SWAP1 KECCAK256 DUP1 SLOAD PUSH2 0xAFA SWAP1 PUSH1 0x1 SWAP1 PUSH2 0x1B95 JUMP JUMPDEST DUP2 SLOAD DUP2 LT PUSH2 0xB0A JUMPI PUSH2 0xB0A PUSH2 0x1B81 JUMP JUMPDEST PUSH0 SWAP2 DUP3 MSTORE PUSH1 0x20 SWAP1 SWAP2 KECCAK256 PUSH1 0x2 SWAP1 SWAP2 MUL ADD PUSH1 0x1 ADD SLOAD PUSH2 0x100 SWAP1 DIV PUSH1 0x1 PUSH1 0x1 PUSH1 0xF8 SHL SUB AND NUMBER GT PUSH2 0xB69 JUMPI PUSH1 0x40 MLOAD PUSH3 0x461BCD PUSH1 0xE5 SHL DUP2 MSTORE PUSH1 0x20 PUSH1 0x4 DUP3 ADD MSTORE PUSH1 0xD PUSH1 0x24 DUP3 ADD MSTORE PUSH13 0x49742773206E6F742074696D65 PUSH1 0x98 SHL PUSH1 0x44 DUP3 ADD MSTORE PUSH1 0x64 ADD PUSH2 0x304 JUMP JUMPDEST CALLER PUSH0 SWAP1 DUP2 MSTORE PUSH1 0x9 PUSH1 0x20 MSTORE PUSH1 0x40 SWAP1 KECCAK256 PUSH1 0x1 ADD SLOAD ISZERO PUSH2 0xB9D JUMPI CALLER PUSH0 SWAP1 DUP2 MSTORE PUSH1 0x9 PUSH1 0x20 MSTORE PUSH1 0x40 DUP2 KECCAK256 PUSH2 0xB9D SWAP2 PUSH1 0x1 SWAP1 SWAP2 ADD SWAP1 PUSH2 0x1951 JUMP JUMPDEST PUSH0 DUP1 JUMPDEST CALLER PUSH0 SWAP1 DUP2 MSTORE PUSH1 0x9 PUSH1 0x20 MSTORE PUSH1 0x40 SWAP1 KECCAK256 SLOAD DUP2 LT ISZERO PUSH2 0xF17 JUMPI CALLER PUSH0 SWAP1 DUP2 MSTORE PUSH1 0x9 PUSH1 0x20 MSTORE PUSH1 0x40 SWAP1 KECCAK256 DUP1 SLOAD DUP3 SWAP1 DUP2 LT PUSH2 0xBD6 JUMPI PUSH2 0xBD6 PUSH2 0x1B81 JUMP JUMPDEST PUSH0 SWAP2 DUP3 MSTORE PUSH1 0x20 SWAP1 SWAP2 KECCAK256 PUSH1 0x2 SWAP1 SWAP2 MUL ADD PUSH1 0x1 ADD SLOAD PUSH2 0x100 SWAP1 DIV PUSH1 0x1 PUSH1 0x1 PUSH1 0xF8 SHL SUB AND BLOCKHASH ISZERO PUSH2 0xF0F JUMPI CALLER PUSH0 SWAP1 DUP2 MSTORE PUSH1 0x9 PUSH1 0x20 MSTORE PUSH1 0x40 DUP2 KECCAK256 DUP1 SLOAD DUP4 SWAP1 DUP2 LT PUSH2 0xC1D JUMPI PUSH2 0xC1D PUSH2 0x1B81 JUMP JUMPDEST PUSH0 SWAP2 DUP3 MSTORE PUSH1 0x20 DUP1 DUP4 KECCAK256 PUSH1 0x2 SWAP1 SWAP3 MUL SWAP1 SWAP2 ADD SLOAD CALLER DUP4 MSTORE PUSH1 0x9 SWAP1 SWAP2 MSTORE PUSH1 0x40 SWAP1 SWAP2 KECCAK256 DUP1 SLOAD DUP5 SWAP1 DUP2 LT PUSH2 0xC4E JUMPI PUSH2 0xC4E PUSH2 0x1B81 JUMP JUMPDEST SWAP1 PUSH0 MSTORE PUSH1 0x20 PUSH0 KECCAK256 SWAP1 PUSH1 0x2 MUL ADD PUSH1 0x1 ADD PUSH1 0x1 SWAP1 SLOAD SWAP1 PUSH2 0x100 EXP SWAP1 DIV PUSH1 0x1 PUSH1 0x1 PUSH1 0xF8 SHL SUB AND PUSH1 0x1 PUSH1 0x1 PUSH1 0xF8 SHL SUB AND BLOCKHASH PUSH1 0x40 MLOAD PUSH1 0x20 ADD PUSH2 0xC95 SWAP3 SWAP2 SWAP1 SWAP2 DUP3 MSTORE PUSH1 0x20 DUP3 ADD MSTORE PUSH1 0x40 ADD SWAP1 JUMP JUMPDEST PUSH1 0x40 MLOAD PUSH1 0x20 DUP2 DUP4 SUB SUB DUP2 MSTORE SWAP1 PUSH1 0x40 MSTORE DUP1 MLOAD SWAP1 PUSH1 0x20 ADD KECCAK256 PUSH1 0xE0 SHR SWAP1 POP PUSH0 PUSH2 0xCBA DUP3 PUSH2 0x1795 JUMP JUMPDEST SWAP1 POP DUP1 ISZERO PUSH2 0xE6C JUMPI CALLER PUSH0 SWAP1 DUP2 MSTORE PUSH1 0x9 PUSH1 0x20 MSTORE PUSH1 0x40 DUP2 KECCAK256 DUP1 SLOAD PUSH7 0x470DE4DF820000 SWAP2 SWAP1 DUP7 SWAP1 DUP2 LT PUSH2 0xCEC JUMPI PUSH2 0xCEC PUSH2 0x1B81 JUMP JUMPDEST PUSH0 SWAP2 DUP3 MSTORE PUSH1 0x20 SWAP1 SWAP2 KECCAK256 PUSH1 0x1 PUSH1 0x2 SWAP1 SWAP3 MUL ADD ADD SLOAD PUSH1 0xFF AND PUSH2 0xD0B DUP5 PUSH2 0x1891 JUMP JUMPDEST PUSH2 0xD15 SWAP2 SWAP1 PUSH2 0x1BA8 JUMP JUMPDEST PUSH2 0xD1F SWAP2 SWAP1 PUSH2 0x1BA8 JUMP JUMPDEST SWAP1 POP PUSH2 0xD2B DUP2 DUP7 PUSH2 0x1B4F JUMP JUMPDEST PUSH1 0x40 DUP1 MLOAD PUSH1 0x80 DUP2 ADD DUP3 MSTORE PUSH4 0xFFFFFFFF DUP7 AND DUP2 MSTORE CALLER PUSH0 SWAP1 DUP2 MSTORE PUSH1 0x9 PUSH1 0x20 SWAP1 DUP2 MSTORE SWAP3 DUP2 KECCAK256 DUP1 SLOAD SWAP5 SWAP10 POP SWAP1 SWAP4 SWAP2 SWAP3 DUP4 ADD SWAP2 DUP9 SWAP1 DUP2 LT PUSH2 0xD69 JUMPI PUSH2 0xD69 PUSH2 0x1B81 JUMP JUMPDEST PUSH0 SWAP2 DUP3 MSTORE PUSH1 0x20 DUP1 DUP4 KECCAK256 PUSH1 0x1 PUSH1 0x2 SWAP1 SWAP4 MUL ADD DUP3 ADD SLOAD PUSH1 0xFF SWAP1 DUP2 AND DUP6 MSTORE PUSH5 0xFFFFFFFFFF TIMESTAMP AND DUP6 DUP4 ADD MSTORE CALLER PUSH1 0x40 SWAP6 DUP7 ADD MSTORE PUSH1 0xB DUP1 SLOAD SWAP4 DUP5 ADD DUP2 SSTORE SWAP1 SWAP4 MSTORE DUP5 MLOAD PUSH1 0x3 SWAP1 SWAP3 MUL PUSH32 0x175B7A638427703F0DBE7BB9BBF987A2551717B34E79F33B5B1008D1FA01DB9 DUP2 ADD DUP1 SLOAD SWAP3 DUP8 ADD MLOAD SWAP1 SWAP5 AND PUSH5 0x100000000 MUL PUSH5 0xFFFFFFFFFF NOT SWAP1 SWAP3 AND PUSH4 0xFFFFFFFF SWAP1 SWAP4 AND SWAP3 SWAP1 SWAP3 OR OR SWAP1 SWAP2 SSTORE SWAP1 DUP3 ADD MLOAD PUSH32 0x175B7A638427703F0DBE7BB9BBF987A2551717B34E79F33B5B1008D1FA01DBA DUP3 ADD SSTORE PUSH1 0x60 SWAP1 SWAP2 ADD MLOAD PUSH32 0x175B7A638427703F0DBE7BB9BBF987A2551717B34E79F33B5B1008D1FA01DBB SWAP1 SWAP2 ADD DUP1 SLOAD PUSH1 0x1 PUSH1 0x1 PUSH1 0xA0 SHL SUB SWAP3 SWAP1 SWAP3 AND PUSH1 0x1 PUSH1 0x1 PUSH1 0xA0 SHL SUB NOT SWAP1 SWAP3 AND SWAP2 SWAP1 SWAP2 OR SWAP1 SSTORE POP POP JUMPDEST PUSH1 0x40 DUP1 MLOAD DUP1 DUP3 ADD DUP3 MSTORE PUSH4 0xFFFFFFFF DUP5 AND DUP2 MSTORE CALLER PUSH0 SWAP1 DUP2 MSTORE PUSH1 0x9 PUSH1 0x20 SWAP1 DUP2 MSTORE SWAP3 DUP2 KECCAK256 DUP1 SLOAD SWAP2 SWAP4 DUP4 ADD SWAP2 DUP8 SWAP1 DUP2 LT PUSH2 0xEA4 JUMPI PUSH2 0xEA4 PUSH2 0x1B81 JUMP JUMPDEST PUSH0 SWAP2 DUP3 MSTORE PUSH1 0x20 DUP1 DUP4 KECCAK256 PUSH1 0x1 PUSH1 0x2 SWAP1 SWAP4 MUL ADD DUP3 ADD SLOAD PUSH1 0xFF SWAP1 DUP2 AND SWAP1 SWAP5 MSTORE CALLER DUP4 MSTORE PUSH1 0x9 DUP2 MSTORE PUSH1 0x40 DUP4 KECCAK256 DUP3 ADD DUP1 SLOAD SWAP3 DUP4 ADD DUP2 SSTORE DUP4 MSTORE SWAP2 DUP3 SWAP1 KECCAK256 DUP5 MLOAD SWAP2 ADD DUP1 SLOAD SWAP5 SWAP1 SWAP3 ADD MLOAD SWAP1 SWAP3 AND PUSH5 0x100000000 MUL PUSH5 0xFFFFFFFFFF NOT SWAP1 SWAP4 AND PUSH4 0xFFFFFFFF SWAP1 SWAP3 AND SWAP2 SWAP1 SWAP2 OR SWAP2 SWAP1 SWAP2 OR SWAP1 SSTORE POP POP POP JUMPDEST PUSH1 0x1 ADD PUSH2 0xBA0 JUMP JUMPDEST POP CALLER PUSH0 SWAP1 DUP2 MSTORE PUSH1 0x9 PUSH1 0x20 MSTORE PUSH1 0x40 DUP2 KECCAK256 PUSH2 0xF2F SWAP2 PUSH2 0x196C JUMP JUMPDEST DUP1 ISZERO PUSH2 0xFED JUMPI PUSH0 PUSH2 0xF61 PUSH2 0xF5A PUSH2 0xF53 SELFBALANCE PUSH1 0x1 SLOAD PUSH1 0x7 SLOAD PUSH1 0x5 SLOAD PUSH2 0x32A SWAP2 SWAP1 PUSH2 0x1B4F JUMP JUMPDEST PUSH1 0x46 PUSH2 0x173E JUMP JUMPDEST PUSH1 0x64 PUSH2 0x1772 JUMP JUMPDEST SWAP1 POP DUP1 DUP3 GT ISZERO PUSH2 0xF6F JUMPI DUP1 SWAP2 POP JUMPDEST PUSH0 PUSH2 0xF7E PUSH2 0xF5A DUP5 PUSH1 0x5 PUSH2 0x173E JUMP JUMPDEST SWAP1 POP DUP1 PUSH1 0x5 PUSH0 DUP3 DUP3 SLOAD PUSH2 0xF91 SWAP2 SWAP1 PUSH2 0x1B4F JUMP JUMPDEST SWAP3 POP POP DUP2 SWAP1 SSTORE POP DUP1 PUSH1 0x1 PUSH0 DUP3 DUP3 SLOAD PUSH2 0xFA9 SWAP2 SWAP1 PUSH2 0x1B4F JUMP JUMPDEST SWAP1 SWAP2 SSTORE POP CALLER SWAP1 POP PUSH2 0x8FC PUSH2 0xFBE DUP4 PUSH1 0x2 PUSH2 0x1BA8 JUMP JUMPDEST PUSH2 0xFC8 SWAP1 DUP7 PUSH2 0x1B95 JUMP JUMPDEST PUSH1 0x40 MLOAD DUP2 ISZERO SWAP1 SWAP3 MUL SWAP2 PUSH0 DUP2 DUP2 DUP2 DUP6 DUP9 DUP9 CALL SWAP4 POP POP POP POP ISZERO DUP1 ISZERO PUSH2 0x4BD JUMPI RETURNDATASIZE PUSH0 DUP1 RETURNDATACOPY RETURNDATASIZE PUSH0 REVERT JUMPDEST POP JUMP JUMPDEST PUSH7 0x470DE4DF820000 CALLVALUE LT ISZERO PUSH2 0x103E JUMPI PUSH1 0x40 MLOAD PUSH3 0x461BCD PUSH1 0xE5 SHL DUP2 MSTORE PUSH1 0x20 PUSH1 0x4 DUP3 ADD MSTORE PUSH1 0x14 PUSH1 0x24 DUP3 ADD MSTORE PUSH20 0x427579206174206C65617374206F6E6520656767 PUSH1 0x60 SHL PUSH1 0x44 DUP3 ADD MSTORE PUSH1 0x64 ADD PUSH2 0x304 JUMP JUMPDEST PUSH1 0x1 DUP4 PUSH1 0xFF AND LT ISZERO DUP1 ISZERO PUSH2 0x1056 JUMPI POP PUSH1 0x64 DUP4 PUSH1 0xFF AND GT ISZERO JUMPDEST PUSH2 0x10A2 JUMPI PUSH1 0x40 MLOAD PUSH3 0x461BCD PUSH1 0xE5 SHL DUP2 MSTORE PUSH1 0x20 PUSH1 0x4 DUP3 ADD MSTORE PUSH1 0x1B PUSH1 0x24 DUP3 ADD MSTORE PUSH32 0x4D756C7469706C6573206265747765656E203120616E64203130300000000000 PUSH1 0x44 DUP3 ADD MSTORE PUSH1 0x64 ADD PUSH2 0x304 JUMP JUMPDEST PUSH1 0x1 DUP5 PUSH2 0xFFFF AND LT ISZERO DUP1 ISZERO PUSH2 0x10BD JUMPI POP PUSH2 0x3E8 DUP5 PUSH2 0xFFFF AND GT ISZERO JUMPDEST PUSH2 0x1109 JUMPI PUSH1 0x40 MLOAD PUSH3 0x461BCD PUSH1 0xE5 SHL DUP2 MSTORE PUSH1 0x20 PUSH1 0x4 DUP3 ADD DUP2 SWAP1 MSTORE PUSH1 0x24 DUP3 ADD MSTORE PUSH32 0x4E756D626572206F662065676773206265747765656E203120616E6420313030 PUSH1 0x44 DUP3 ADD MSTORE PUSH1 0x64 ADD PUSH2 0x304 JUMP JUMPDEST PUSH0 PUSH2 0x111B CALLVALUE PUSH7 0x470DE4DF820000 PUSH2 0x1772 JUMP JUMPDEST SWAP1 POP PUSH2 0x112A PUSH1 0xFF DUP6 AND DUP7 PUSH2 0x1BD3 JUMP JUMPDEST PUSH2 0xFFFF AND DUP2 EQ PUSH2 0x116B JUMPI PUSH1 0x40 MLOAD PUSH3 0x461BCD PUSH1 0xE5 SHL DUP2 MSTORE PUSH1 0x20 PUSH1 0x4 DUP3 ADD MSTORE PUSH1 0xC PUSH1 0x24 DUP3 ADD MSTORE PUSH12 0x496E76616C69642064617461 PUSH1 0xA0 SHL PUSH1 0x44 DUP3 ADD MSTORE PUSH1 0x64 ADD PUSH2 0x304 JUMP JUMPDEST PUSH0 JUMPDEST DUP6 PUSH2 0xFFFF AND DUP2 LT ISZERO PUSH2 0x1262 JUMPI PUSH0 PUSH1 0x40 MLOAD DUP1 PUSH1 0x60 ADD PUSH1 0x40 MSTORE DUP1 TIMESTAMP COINBASE CALLER DUP10 DUP1 PUSH2 0x1193 SWAP1 PUSH2 0x1BF7 JUMP JUMPDEST SWAP11 POP PUSH1 0x40 MLOAD PUSH1 0x20 ADD PUSH2 0x11DF SWAP5 SWAP4 SWAP3 SWAP2 SWAP1 SWAP4 DUP5 MSTORE PUSH1 0x60 SWAP3 DUP4 SHL PUSH12 0xFFFFFFFFFFFFFFFFFFFFFFFF NOT SWAP1 DUP2 AND PUSH1 0x20 DUP7 ADD MSTORE SWAP2 SWAP1 SWAP3 SHL AND PUSH1 0x34 DUP4 ADD MSTORE PUSH1 0x18 SHL PUSH3 0xFFFFFF NOT AND PUSH1 0x48 DUP3 ADD MSTORE PUSH1 0x65 ADD SWAP1 JUMP JUMPDEST PUSH1 0x40 DUP1 MLOAD PUSH1 0x1F NOT DUP2 DUP5 SUB ADD DUP2 MSTORE SWAP2 DUP2 MSTORE DUP2 MLOAD PUSH1 0x20 SWAP3 DUP4 ADD KECCAK256 DUP4 MSTORE PUSH1 0xFF DUP1 DUP12 AND DUP5 DUP5 ADD MSTORE PUSH1 0x1 PUSH1 0x1 PUSH1 0xF8 SHL SUB NUMBER DUP2 AND SWAP5 DUP4 ADD SWAP5 SWAP1 SWAP5 MSTORE CALLER PUSH0 SWAP1 DUP2 MSTORE PUSH1 0x9 DUP5 MSTORE DUP3 DUP2 KECCAK256 DUP1 SLOAD PUSH1 0x1 DUP2 DUP2 ADD DUP4 SSTORE SWAP2 DUP4 MSTORE SWAP2 DUP6 SWAP1 KECCAK256 DUP8 MLOAD PUSH1 0x2 SWAP1 SWAP4 MUL ADD SWAP2 DUP3 SSTORE SWAP4 DUP7 ADD MLOAD SWAP6 SWAP1 SWAP3 ADD MLOAD SWAP1 SWAP4 AND PUSH2 0x100 MUL SWAP4 SWAP1 SWAP3 AND SWAP3 SWAP1 SWAP3 OR SWAP1 DUP3 ADD SSTORE SWAP2 SWAP1 SWAP2 ADD SWAP1 POP PUSH2 0x116D JUMP JUMPDEST POP CALLER PUSH0 SWAP1 DUP2 MSTORE PUSH1 0x9 PUSH1 0x20 MSTORE PUSH1 0x40 SWAP1 KECCAK256 PUSH1 0x3 ADD SLOAD PUSH1 0xFF AND PUSH2 0x1299 JUMPI CALLER PUSH0 SWAP1 DUP2 MSTORE PUSH1 0x9 PUSH1 0x20 MSTORE PUSH1 0x40 SWAP1 KECCAK256 PUSH1 0x3 ADD DUP1 SLOAD PUSH1 0xFF NOT AND PUSH1 0x1 OR SWAP1 SSTORE JUMPDEST PUSH0 PUSH2 0x12A8 PUSH2 0xF5A CALLVALUE PUSH1 0x3 PUSH2 0x173E JUMP JUMPDEST SWAP1 POP PUSH0 PUSH2 0x12B9 PUSH2 0xF5A CALLVALUE PUSH1 0x4 PUSH2 0x173E JUMP JUMPDEST SWAP1 POP DUP2 PUSH1 0x1 PUSH0 DUP3 DUP3 SLOAD PUSH2 0x12CC SWAP2 SWAP1 PUSH2 0x1B4F JUMP JUMPDEST SWAP3 POP POP DUP2 SWAP1 SSTORE POP DUP2 PUSH1 0x5 PUSH0 DUP3 DUP3 SLOAD PUSH2 0x12E4 SWAP2 SWAP1 PUSH2 0x1B4F JUMP JUMPDEST SWAP1 SWAP2 SSTORE POP POP CALLER PUSH0 SWAP1 DUP2 MSTORE PUSH1 0xA PUSH1 0x20 MSTORE PUSH1 0x40 SWAP1 KECCAK256 SLOAD PUSH1 0x1 PUSH1 0x1 PUSH1 0xA0 SHL SUB AND PUSH2 0x13FD JUMPI PUSH1 0x1 PUSH1 0x1 PUSH1 0xA0 SHL SUB DUP5 AND CALLER EQ DUP1 PUSH2 0x1323 JUMPI POP PUSH1 0x1 PUSH1 0x1 PUSH1 0xA0 SHL SUB DUP5 AND ISZERO JUMPDEST DUP1 PUSH2 0x1340 JUMPI POP CALLER PUSH0 SWAP1 DUP2 MSTORE PUSH1 0x9 PUSH1 0x20 MSTORE PUSH1 0x40 SWAP1 KECCAK256 PUSH1 0x3 ADD SLOAD PUSH1 0xFF AND ISZERO JUMPDEST ISZERO PUSH2 0x1353 JUMPI PUSH0 SLOAD PUSH1 0x1 PUSH1 0x1 PUSH1 0xA0 SHL SUB AND SWAP4 POP JUMPDEST CALLER PUSH0 SWAP1 DUP2 MSTORE PUSH1 0xA PUSH1 0x20 MSTORE PUSH1 0x40 DUP2 KECCAK256 DUP1 SLOAD PUSH1 0x1 PUSH1 0x1 PUSH1 0xA0 SHL SUB NOT AND PUSH1 0x1 PUSH1 0x1 PUSH1 0xA0 SHL SUB DUP8 DUP2 AND SWAP2 DUP3 OR SWAP1 SWAP3 SSTORE SWAP2 SLOAD AND SWAP1 SUB PUSH2 0x13A3 JUMPI DUP1 PUSH1 0x1 PUSH0 DUP3 DUP3 SLOAD PUSH2 0x1398 SWAP2 SWAP1 PUSH2 0x1B4F JUMP JUMPDEST SWAP1 SWAP2 SSTORE POP PUSH2 0x13F8 SWAP1 POP JUMP JUMPDEST CALLER PUSH0 SWAP1 DUP2 MSTORE PUSH1 0xA PUSH1 0x20 SWAP1 DUP2 MSTORE PUSH1 0x40 DUP1 DUP4 KECCAK256 SLOAD PUSH1 0x1 PUSH1 0x1 PUSH1 0xA0 SHL SUB AND DUP4 MSTORE PUSH1 0x9 SWAP1 SWAP2 MSTORE DUP2 KECCAK256 PUSH1 0x2 ADD DUP1 SLOAD DUP4 SWAP3 SWAP1 PUSH2 0x13DA SWAP1 DUP5 SWAP1 PUSH2 0x1B4F JUMP JUMPDEST SWAP3 POP POP DUP2 SWAP1 SSTORE POP DUP1 PUSH1 0x7 PUSH0 DUP3 DUP3 SLOAD PUSH2 0x13F2 SWAP2 SWAP1 PUSH2 0x1B4F JUMP JUMPDEST SWAP1 SWAP2 SSTORE POP POP JUMPDEST TIMESTAMP PUSH1 0x8 SSTORE JUMPDEST POP POP POP POP POP POP POP JUMP JUMPDEST CALLER PUSH0 SWAP1 DUP2 MSTORE PUSH1 0x9 PUSH1 0x20 SWAP1 DUP2 MSTORE PUSH1 0x40 DUP1 DUP4 KECCAK256 PUSH1 0x1 ADD DUP1 SLOAD DUP3 MLOAD DUP2 DUP6 MUL DUP2 ADD DUP6 ADD SWAP1 SWAP4 MSTORE DUP1 DUP4 MSTORE PUSH1 0x60 SWAP5 SWAP3 SWAP4 SWAP2 SWAP3 SWAP1 SWAP2 DUP5 ADD JUMPDEST DUP3 DUP3 LT ISZERO PUSH2 0x147D JUMPI PUSH0 DUP5 DUP2 MSTORE PUSH1 0x20 SWAP1 DUP2 SWAP1 KECCAK256 PUSH1 0x40 DUP1 MLOAD DUP1 DUP3 ADD SWAP1 SWAP2 MSTORE SWAP1 DUP5 ADD SLOAD PUSH4 0xFFFFFFFF DUP2 AND DUP3 MSTORE PUSH5 0x100000000 SWAP1 DIV PUSH1 0xFF AND DUP2 DUP4 ADD MSTORE DUP3 MSTORE PUSH1 0x1 SWAP1 SWAP3 ADD SWAP2 ADD PUSH2 0x1437 JUMP JUMPDEST POP POP POP POP SWAP1 POP SWAP1 JUMP JUMPDEST PUSH8 0xDE0B6B3A7640000 DUP2 LT ISZERO PUSH2 0x1518 JUMPI PUSH1 0x40 MLOAD PUSH3 0x461BCD PUSH1 0xE5 SHL DUP2 MSTORE PUSH1 0x20 PUSH1 0x4 DUP3 ADD MSTORE PUSH1 0x4B PUSH1 0x24 DUP3 ADD MSTORE PUSH32 0x4D696E696D756D20696E766573746D656E7420616D6F756E7420697320726571 PUSH1 0x44 DUP3 ADD MSTORE PUSH32 0x75697265642C6974277320736D616C6C6572207468616E20746865206D696E69 PUSH1 0x64 DUP3 ADD MSTORE PUSH11 0x1B5D5B4819195C1BDCDA5D PUSH1 0xAA SHL PUSH1 0x84 DUP3 ADD MSTORE PUSH1 0xA4 ADD PUSH2 0x304 JUMP JUMPDEST CALLER PUSH0 SWAP1 DUP2 MSTORE PUSH1 0x3 PUSH1 0x20 MSTORE PUSH1 0x40 SWAP1 KECCAK256 SLOAD DUP2 GT ISZERO PUSH2 0x1576 JUMPI PUSH1 0x40 MLOAD PUSH3 0x461BCD PUSH1 0xE5 SHL DUP2 MSTORE PUSH1 0x20 PUSH1 0x4 DUP3 ADD MSTORE PUSH1 0x1C PUSH1 0x24 DUP3 ADD MSTORE PUSH32 0x4E6F7420656E6F7567682066756E6420746F2077697468647261772100000000 PUSH1 0x44 DUP3 ADD MSTORE PUSH1 0x64 ADD PUSH2 0x304 JUMP JUMPDEST CALLER PUSH0 SWAP1 DUP2 MSTORE PUSH1 0x3 PUSH1 0x20 MSTORE PUSH1 0x40 SWAP1 KECCAK256 PUSH1 0x1 ADD SLOAD PUSH2 0x1595 SWAP1 PUSH3 0x93A80 PUSH2 0x1B4F JUMP JUMPDEST TIMESTAMP LT ISZERO PUSH2 0x15E4 JUMPI PUSH1 0x40 MLOAD PUSH3 0x461BCD PUSH1 0xE5 SHL DUP2 MSTORE PUSH1 0x20 PUSH1 0x4 DUP3 ADD MSTORE PUSH1 0x1F PUSH1 0x24 DUP3 ADD MSTORE PUSH32 0x43616E6E6F74207769746864726177206166746572206F6E65207765656B2100 PUSH1 0x44 DUP3 ADD MSTORE PUSH1 0x64 ADD PUSH2 0x304 JUMP JUMPDEST DUP1 PUSH2 0x15FC SELFBALANCE PUSH1 0x1 SLOAD PUSH1 0x7 SLOAD PUSH1 0x5 SLOAD PUSH2 0x32A SWAP2 SWAP1 PUSH2 0x1B4F JUMP JUMPDEST LT ISZERO PUSH2 0x164A JUMPI PUSH1 0x40 MLOAD PUSH3 0x461BCD PUSH1 0xE5 SHL DUP2 MSTORE PUSH1 0x20 PUSH1 0x4 DUP3 ADD MSTORE PUSH1 0x1E PUSH1 0x24 DUP3 ADD MSTORE PUSH32 0x496E73756666696369656E742066756E6420746F207769746864726177210000 PUSH1 0x44 DUP3 ADD MSTORE PUSH1 0x64 ADD PUSH2 0x304 JUMP JUMPDEST CALLER PUSH0 SWAP1 DUP2 MSTORE PUSH1 0x3 PUSH1 0x20 MSTORE PUSH1 0x40 DUP2 KECCAK256 DUP1 SLOAD DUP4 SWAP3 SWAP1 PUSH2 0x1668 SWAP1 DUP5 SWAP1 PUSH2 0x1B95 JUMP JUMPDEST SWAP3 POP POP DUP2 SWAP1 SSTORE POP DUP1 PUSH1 0x4 PUSH0 DUP3 DUP3 SLOAD PUSH2 0x556 SWAP2 SWAP1 PUSH2 0x1B95 JUMP JUMPDEST PUSH0 SLOAD PUSH1 0x1 PUSH1 0x1 PUSH1 0xA0 SHL SUB AND CALLER EQ PUSH2 0x16D9 JUMPI PUSH1 0x40 MLOAD PUSH3 0x461BCD PUSH1 0xE5 SHL DUP2 MSTORE PUSH1 0x20 PUSH1 0x4 DUP3 ADD MSTORE PUSH1 0x19 PUSH1 0x24 DUP3 ADD MSTORE PUSH32 0x596F75206D7573742062652074686520646576656C6F70657200000000000000 PUSH1 0x44 DUP3 ADD MSTORE PUSH1 0x64 ADD PUSH2 0x304 JUMP JUMPDEST PUSH1 0x1 DUP1 SLOAD PUSH0 SWAP2 DUP3 SWAP1 SSTORE DUP2 SLOAD PUSH1 0x40 MLOAD SWAP2 SWAP3 PUSH1 0x1 PUSH1 0x1 PUSH1 0xA0 SHL SUB SWAP1 SWAP2 AND SWAP2 DUP4 ISZERO PUSH2 0x8FC MUL SWAP2 DUP5 SWAP2 SWAP1 DUP2 DUP2 DUP2 DUP6 DUP9 DUP9 CALL SWAP4 POP POP POP POP ISZERO DUP1 ISZERO PUSH2 0x585 JUMPI RETURNDATASIZE PUSH0 DUP1 RETURNDATACOPY RETURNDATASIZE PUSH0 REVERT JUMPDEST PUSH0 DUP3 DUP3 GT ISZERO PUSH2 0x172B JUMPI PUSH2 0x172B PUSH2 0x1C22 JUMP JUMPDEST PUSH2 0x1735 DUP3 DUP5 PUSH2 0x1B95 JUMP JUMPDEST SWAP1 POP JUMPDEST SWAP3 SWAP2 POP POP JUMP JUMPDEST PUSH0 DUP3 PUSH0 SUB PUSH2 0x174D JUMPI POP PUSH0 PUSH2 0x1738 JUMP JUMPDEST PUSH0 PUSH2 0x1758 DUP4 DUP6 PUSH2 0x1BA8 JUMP JUMPDEST SWAP1 POP DUP3 PUSH2 0x1765 DUP6 DUP4 PUSH2 0x1B62 JUMP JUMPDEST EQ PUSH2 0x1735 JUMPI PUSH2 0x1735 PUSH2 0x1C22 JUMP JUMPDEST PUSH0 DUP1 DUP3 GT PUSH2 0x1782 JUMPI PUSH2 0x1782 PUSH2 0x1C22 JUMP JUMPDEST PUSH0 PUSH2 0x178D DUP4 DUP6 PUSH2 0x1B62 JUMP JUMPDEST SWAP5 SWAP4 POP POP POP POP JUMP JUMPDEST PUSH0 PUSH4 0x4000000 DUP3 PUSH4 0xFFFFFFFF AND GT ISZERO PUSH2 0x17AF JUMPI POP PUSH0 SWAP2 SWAP1 POP JUMP JUMPDEST PUSH4 0x1000000 DUP3 PUSH4 0xFFFFFFFF AND LT PUSH2 0x17C8 JUMPI POP PUSH1 0xA SWAP2 SWAP1 POP JUMP JUMPDEST PUSH3 0x400000 DUP3 PUSH4 0xFFFFFFFF AND LT PUSH2 0x17E0 JUMPI POP PUSH1 0x9 SWAP2 SWAP1 POP JUMP JUMPDEST PUSH3 0x100000 DUP3 PUSH4 0xFFFFFFFF AND LT PUSH2 0x17F8 JUMPI POP PUSH1 0x8 SWAP2 SWAP1 POP JUMP JUMPDEST PUSH3 0x40000 DUP3 PUSH4 0xFFFFFFFF AND LT PUSH2 0x1810 JUMPI POP PUSH1 0x7 SWAP2 SWAP1 POP JUMP JUMPDEST PUSH3 0x10000 DUP3 PUSH4 0xFFFFFFFF AND LT PUSH2 0x1828 JUMPI POP PUSH1 0x6 SWAP2 SWAP1 POP JUMP JUMPDEST PUSH2 0x4000 DUP3 PUSH4 0xFFFFFFFF AND LT PUSH2 0x183F JUMPI POP PUSH1 0x5 SWAP2 SWAP1 POP JUMP JUMPDEST PUSH2 0x1000 DUP3 PUSH4 0xFFFFFFFF AND LT PUSH2 0x1856 JUMPI POP PUSH1 0x4 SWAP2 SWAP1 POP JUMP JUMPDEST PUSH2 0x400 DUP3 PUSH4 0xFFFFFFFF AND LT PUSH2 0x186D JUMPI POP PUSH1 0x3 SWAP2 SWAP1 POP JUMP JUMPDEST PUSH2 0x100 DUP3 PUSH4 0xFFFFFFFF AND LT PUSH2 0x1884 JUMPI POP PUSH1 0x2 SWAP2 SWAP1 POP JUMP JUMPDEST POP PUSH1 0x1 SWAP2 SWAP1 POP JUMP JUMPDEST SWAP2 SWAP1 POP JUMP JUMPDEST PUSH0 DUP2 PUSH0 SUB PUSH2 0x18A0 JUMPI POP PUSH0 SWAP2 SWAP1 POP JUMP JUMPDEST DUP2 PUSH1 0xA SUB PUSH2 0x18B0 JUMPI POP PUSH1 0x5 SWAP2 SWAP1 POP JUMP JUMPDEST DUP2 PUSH1 0x9 SUB PUSH2 0x18C0 JUMPI POP PUSH1 0x14 SWAP2 SWAP1 POP JUMP JUMPDEST DUP2 PUSH1 0x8 SUB PUSH2 0x18D0 JUMPI POP PUSH1 0x50 SWAP2 SWAP1 POP JUMP JUMPDEST DUP2 PUSH1 0x7 SUB PUSH2 0x18E1 JUMPI POP PUSH2 0x140 SWAP2 SWAP1 POP JUMP JUMPDEST DUP2 PUSH1 0x6 SUB PUSH2 0x18F2 JUMPI POP PUSH2 0x4B0 SWAP2 SWAP1 POP JUMP JUMPDEST DUP2 PUSH1 0x5 SUB PUSH2 0x1903 JUMPI POP PUSH2 0x12C0 SWAP2 SWAP1 POP JUMP JUMPDEST DUP2 PUSH1 0x4 SUB PUSH2 0x1914 JUMPI POP PUSH2 0x4E20 SWAP2 SWAP1 POP JUMP JUMPDEST DUP2 PUSH1 0x3 SUB PUSH2 0x1926 JUMPI POP PUSH3 0x186A0 SWAP2 SWAP1 POP JUMP JUMPDEST DUP2 PUSH1 0x2 SUB PUSH2 0x1938 JUMPI POP PUSH3 0x7A120 SWAP2 SWAP1 POP JUMP JUMPDEST DUP2 PUSH1 0x1 SUB PUSH2 0x194A JUMPI POP PUSH3 0x1E8480 SWAP2 SWAP1 POP JUMP JUMPDEST POP PUSH0 SWAP2 SWAP1 POP JUMP JUMPDEST POP DUP1 SLOAD PUSH0 DUP3 SSTORE SWAP1 PUSH0 MSTORE PUSH1 0x20 PUSH0 KECCAK256 SWAP1 DUP2 ADD SWAP1 PUSH2 0xFED SWAP2 SWAP1 PUSH2 0x198A JUMP JUMPDEST POP DUP1 SLOAD PUSH0 DUP3 SSTORE PUSH1 0x2 MUL SWAP1 PUSH0 MSTORE PUSH1 0x20 PUSH0 KECCAK256 SWAP1 DUP2 ADD SWAP1 PUSH2 0xFED SWAP2 SWAP1 PUSH2 0x19AB JUMP JUMPDEST JUMPDEST DUP1 DUP3 GT ISZERO PUSH2 0x19A7 JUMPI DUP1 SLOAD PUSH5 0xFFFFFFFFFF NOT AND DUP2 SSTORE PUSH1 0x1 ADD PUSH2 0x198B JUMP JUMPDEST POP SWAP1 JUMP JUMPDEST JUMPDEST DUP1 DUP3 GT ISZERO PUSH2 0x19A7 JUMPI PUSH0 DUP1 DUP3 SSTORE PUSH1 0x1 DUP3 ADD SSTORE PUSH1 0x2 ADD PUSH2 0x19AC JUMP JUMPDEST PUSH0 PUSH1 0x20 DUP3 DUP5 SUB SLT ISZERO PUSH2 0x19D5 JUMPI PUSH0 DUP1 REVERT JUMPDEST POP CALLDATALOAD SWAP2 SWAP1 POP JUMP JUMPDEST PUSH1 0x20 DUP1 DUP3 MSTORE DUP3 MLOAD DUP3 DUP3 ADD DUP2 SWAP1 MSTORE PUSH0 SWAP2 DUP5 ADD SWAP1 PUSH1 0x40 DUP5 ADD SWAP1 DUP4 JUMPDEST DUP2 DUP2 LT ISZERO PUSH2 0x1A48 JUMPI DUP4 MLOAD DUP1 MLOAD PUSH4 0xFFFFFFFF AND DUP5 MSTORE PUSH1 0x20 DUP1 DUP3 ADD MLOAD PUSH1 0xFF AND DUP2 DUP7 ADD MSTORE PUSH1 0x40 DUP1 DUP4 ADD MLOAD SWAP1 DUP7 ADD MSTORE PUSH1 0x60 SWAP2 DUP3 ADD MLOAD PUSH1 0x1 PUSH1 0x1 PUSH1 0xA0 SHL SUB AND SWAP2 DUP6 ADD SWAP2 SWAP1 SWAP2 MSTORE SWAP1 SWAP4 ADD SWAP3 PUSH1 0x80 SWAP1 SWAP3 ADD SWAP2 PUSH1 0x1 ADD PUSH2 0x19F5 JUMP JUMPDEST POP SWAP1 SWAP6 SWAP5 POP POP POP POP POP JUMP JUMPDEST DUP1 CALLDATALOAD PUSH1 0x1 PUSH1 0x1 PUSH1 0xA0 SHL SUB DUP2 AND DUP2 EQ PUSH2 0x188C JUMPI PUSH0 DUP1 REVERT JUMPDEST PUSH0 DUP1 PUSH0 DUP1 PUSH1 0x80 DUP6 DUP8 SUB SLT ISZERO PUSH2 0x1A7C JUMPI PUSH0 DUP1 REVERT JUMPDEST DUP5 CALLDATALOAD PUSH2 0xFFFF DUP2 AND DUP2 EQ PUSH2 0x1A8D JUMPI PUSH0 DUP1 REVERT JUMPDEST SWAP4 POP PUSH1 0x20 DUP6 ADD CALLDATALOAD PUSH1 0xFF DUP2 AND DUP2 EQ PUSH2 0x1AA2 JUMPI PUSH0 DUP1 REVERT JUMPDEST SWAP3 POP PUSH1 0x40 DUP6 ADD CALLDATALOAD PUSH1 0x1 PUSH1 0x1 PUSH1 0xE8 SHL SUB DUP2 AND DUP2 EQ PUSH2 0x1ABD JUMPI PUSH0 DUP1 REVERT JUMPDEST SWAP2 POP PUSH2 0x1ACB PUSH1 0x60 DUP7 ADD PUSH2 0x1A53 JUMP JUMPDEST SWAP1 POP SWAP3 SWAP6 SWAP2 SWAP5 POP SWAP3 POP JUMP JUMPDEST PUSH0 PUSH1 0x20 DUP3 DUP5 SUB SLT ISZERO PUSH2 0x1AE6 JUMPI PUSH0 DUP1 REVERT JUMPDEST PUSH2 0x1735 DUP3 PUSH2 0x1A53 JUMP JUMPDEST PUSH1 0x20 DUP1 DUP3 MSTORE DUP3 MLOAD DUP3 DUP3 ADD DUP2 SWAP1 MSTORE PUSH0 SWAP2 DUP5 ADD SWAP1 PUSH1 0x40 DUP5 ADD SWAP1 DUP4 JUMPDEST DUP2 DUP2 LT ISZERO PUSH2 0x1A48 JUMPI DUP4 MLOAD DUP1 MLOAD PUSH4 0xFFFFFFFF AND DUP5 MSTORE PUSH1 0x20 SWAP1 DUP2 ADD MLOAD PUSH1 0xFF AND DUP2 DUP6 ADD MSTORE SWAP1 SWAP4 ADD SWAP3 PUSH1 0x40 SWAP1 SWAP3 ADD SWAP2 PUSH1 0x1 ADD PUSH2 0x1B08 JUMP JUMPDEST PUSH4 0x4E487B71 PUSH1 0xE0 SHL PUSH0 MSTORE PUSH1 0x11 PUSH1 0x4 MSTORE PUSH1 0x24 PUSH0 REVERT JUMPDEST DUP1 DUP3 ADD DUP1 DUP3 GT ISZERO PUSH2 0x1738 JUMPI PUSH2 0x1738 PUSH2 0x1B3B JUMP JUMPDEST PUSH0 DUP3 PUSH2 0x1B7C JUMPI PUSH4 0x4E487B71 PUSH1 0xE0 SHL PUSH0 MSTORE PUSH1 0x12 PUSH1 0x4 MSTORE PUSH1 0x24 PUSH0 REVERT JUMPDEST POP DIV SWAP1 JUMP JUMPDEST PUSH4 0x4E487B71 PUSH1 0xE0 SHL PUSH0 MSTORE PUSH1 0x32 PUSH1 0x4 MSTORE PUSH1 0x24 PUSH0 REVERT JUMPDEST DUP2 DUP2 SUB DUP2 DUP2 GT ISZERO PUSH2 0x1738 JUMPI PUSH2 0x1738 PUSH2 0x1B3B JUMP JUMPDEST DUP1 DUP3 MUL DUP2 ISZERO DUP3 DUP3 DIV DUP5 EQ OR PUSH2 0x1738 JUMPI PUSH2 0x1738 PUSH2 0x1B3B JUMP JUMPDEST PUSH4 0x4E487B71 PUSH1 0xE0 SHL PUSH0 MSTORE PUSH1 0x41 PUSH1 0x4 MSTORE PUSH1 0x24 PUSH0 REVERT JUMPDEST PUSH2 0xFFFF DUP2 DUP2 AND DUP4 DUP3 AND MUL SWAP1 DUP2 AND SWAP1 DUP2 DUP2 EQ PUSH2 0x1BF0 JUMPI PUSH2 0x1BF0 PUSH2 0x1B3B JUMP JUMPDEST POP SWAP3 SWAP2 POP POP JUMP JUMPDEST PUSH0 PUSH1 0x1 PUSH1 0x1 PUSH1 0xE8 SHL SUB DUP3 AND PUSH1 0x2 PUSH1 0x1 PUSH1 0xE8 SHL SUB NOT DUP2 ADD PUSH2 0x1C19 JUMPI PUSH2 0x1C19 PUSH2 0x1B3B JUMP JUMPDEST PUSH1 0x1 ADD SWAP3 SWAP2 POP POP JUMP JUMPDEST PUSH4 0x4E487B71 PUSH1 0xE0 SHL PUSH0 MSTORE PUSH1 0x1 PUSH1 0x4 MSTORE PUSH1 0x24 PUSH0 REVERT INVALID LOG2 PUSH5 0x6970667358 0x22 SLT KECCAK256 PUSH26 0x5005B2F9F701AED3DD9180ED4435F53A675B83C7E4C44A5B9CB0 0xD4 0xAA JUMP DUP5 0xC2 PUSH5 0x736F6C6343 STOP ADDMOD BYTE STOP CALLER "
				},
				"gasEstimates": {
					"creation": {
						"codeDepositCost": "1455200",
						"executionCost": "69966",
						"totalCost": "1525166"
					},
					"external": {
						"BuyEggs(uint16,uint8,uint232,address)": "infinite",
						"DestructContract()": "infinite",
						"DevAddress()": "2424",
						"DeveloperWithdrawal()": "infinite",
						"DistributeInvestmentIncome()": "infinite",
						"GetInvestmentBalance(address)": "2560",
						"GetLatestLottery()": "infinite",
						"GetWinningRecord(uint256)": "infinite",
						"InvestmentDeposit()": "infinite",
						"InvestmentWithdrawal(uint256)": "infinite",
						"InvestorsProfit()": "2383",
						"OpenEggs()": "infinite",
						"RecentDividendTime()": "2339",
						"TotalInvestmentAmount()": "2317",
						"WithdrawReferralProfit()": "infinite"
					},
					"internal": {
						"GetWinninggrade(uint32)": "317",
						"GetWinningmultiple(uint256)": "275",
						"SafeMathadd(uint256,uint256)": "infinite",
						"SafeMathdiv(uint256,uint256)": "109",
						"SafeMathmul(uint256,uint256)": "infinite",
						"SafeMathsub(uint256,uint256)": "infinite"
					}
				},
				"methodIdentifiers": {
					"BuyEggs(uint16,uint8,uint232,address)": "c9ea0299",
					"DestructContract()": "289f9019",
					"DevAddress()": "89a4c1a0",
					"DeveloperWithdrawal()": "f4e79b5b",
					"DistributeInvestmentIncome()": "12db1357",
					"GetInvestmentBalance(address)": "cf438305",
					"GetLatestLottery()": "d9498a83",
					"GetWinningRecord(uint256)": "2b5baca1",
					"InvestmentDeposit()": "49821332",
					"InvestmentWithdrawal(uint256)": "dd5f6f4d",
					"InvestorsProfit()": "ca6aae29",
					"OpenEggs()": "7da384fd",
					"RecentDividendTime()": "b1c617ff",
					"TotalInvestmentAmount()": "a659f4dc",
					"WithdrawReferralProfit()": "22629256"
				}
			},
			"storageLayout": {
				"storage": [
					{
						"astId": 56,
						"contract": "contracts/Lottery.sol:LotteryGame",
						"label": "DevAddress",
						"offset": 0,
						"slot": "0",
						"type": "t_address"
					},
					{
						"astId": 58,
						"contract": "contracts/Lottery.sol:LotteryGame",
						"label": "DevProfit",
						"offset": 0,
						"slot": "1",
						"type": "t_uint256"
					},
					{
						"astId": 61,
						"contract": "contracts/Lottery.sol:LotteryGame",
						"label": "investors",
						"offset": 0,
						"slot": "2",
						"type": "t_array(t_address)dyn_storage"
					},
					{
						"astId": 66,
						"contract": "contracts/Lottery.sol:LotteryGame",
						"label": "InvestorsBalance",
						"offset": 0,
						"slot": "3",
						"type": "t_mapping(t_address,t_struct(investorbalance)42_storage)"
					},
					{
						"astId": 68,
						"contract": "contracts/Lottery.sol:LotteryGame",
						"label": "TotalInvestmentAmount",
						"offset": 0,
						"slot": "4",
						"type": "t_uint256"
					},
					{
						"astId": 70,
						"contract": "contracts/Lottery.sol:LotteryGame",
						"label": "InvestorsProfit",
						"offset": 0,
						"slot": "5",
						"type": "t_uint256"
					},
					{
						"astId": 72,
						"contract": "contracts/Lottery.sol:LotteryGame",
						"label": "RecentDividendTime",
						"offset": 0,
						"slot": "6",
						"type": "t_uint256"
					},
					{
						"astId": 74,
						"contract": "contracts/Lottery.sol:LotteryGame",
						"label": "TotalReferralProfit",
						"offset": 0,
						"slot": "7",
						"type": "t_uint256"
					},
					{
						"astId": 76,
						"contract": "contracts/Lottery.sol:LotteryGame",
						"label": "LastBuyEggTime",
						"offset": 0,
						"slot": "8",
						"type": "t_uint256"
					},
					{
						"astId": 81,
						"contract": "contracts/Lottery.sol:LotteryGame",
						"label": "UsersInfo",
						"offset": 0,
						"slot": "9",
						"type": "t_mapping(t_address,t_struct(userinfo)26_storage)"
					},
					{
						"astId": 85,
						"contract": "contracts/Lottery.sol:LotteryGame",
						"label": "referrals",
						"offset": 0,
						"slot": "10",
						"type": "t_mapping(t_address,t_address)"
					},
					{
						"astId": 89,
						"contract": "contracts/Lottery.sol:LotteryGame",
						"label": "WinningRecord",
						"offset": 0,
						"slot": "11",
						"type": "t_array(t_struct(Winninginfo)35_storage)dyn_storage"
					}
				],
				"types": {
					"t_address": {
						"encoding": "inplace",
						"label": "address",
						"numberOfBytes": "20"
					},
					"t_array(t_address)dyn_storage": {
						"base": "t_address",
						"encoding": "dynamic_array",
						"label": "address[]",
						"numberOfBytes": "32"
					},
					"t_array(t_struct(Egginfo)8_storage)dyn_storage": {
						"base": "t_struct(Egginfo)8_storage",
						"encoding": "dynamic_array",
						"label": "struct LotteryGame.Egginfo[]",
						"numberOfBytes": "32"
					},
					"t_array(t_struct(OpenedLotInfo)13_storage)dyn_storage": {
						"base": "t_struct(OpenedLotInfo)13_storage",
						"encoding": "dynamic_array",
						"label": "struct LotteryGame.OpenedLotInfo[]",
						"numberOfBytes": "32"
					},
					"t_array(t_struct(Winninginfo)35_storage)dyn_storage": {
						"base": "t_struct(Winninginfo)35_storage",
						"encoding": "dynamic_array",
						"label": "struct LotteryGame.Winninginfo[]",
						"numberOfBytes": "32"
					},
					"t_bool": {
						"encoding": "inplace",
						"label": "bool",
						"numberOfBytes": "1"
					},
					"t_bytes32": {
						"encoding": "inplace",
						"label": "bytes32",
						"numberOfBytes": "32"
					},
					"t_mapping(t_address,t_address)": {
						"encoding": "mapping",
						"key": "t_address",
						"label": "mapping(address => address)",
						"numberOfBytes": "32",
						"value": "t_address"
					},
					"t_mapping(t_address,t_struct(investorbalance)42_storage)": {
						"encoding": "mapping",
						"key": "t_address",
						"label": "mapping(address => struct LotteryGame.investorbalance)",
						"numberOfBytes": "32",
						"value": "t_struct(investorbalance)42_storage"
					},
					"t_mapping(t_address,t_struct(userinfo)26_storage)": {
						"encoding": "mapping",
						"key": "t_address",
						"label": "mapping(address => struct LotteryGame.userinfo)",
						"numberOfBytes": "32",
						"value": "t_struct(userinfo)26_storage"
					},
					"t_struct(Egginfo)8_storage": {
						"encoding": "inplace",
						"label": "struct LotteryGame.Egginfo",
						"members": [
							{
								"astId": 3,
								"contract": "contracts/Lottery.sol:LotteryGame",
								"label": "uid",
								"offset": 0,
								"slot": "0",
								"type": "t_bytes32"
							},
							{
								"astId": 5,
								"contract": "contracts/Lottery.sol:LotteryGame",
								"label": "mul",
								"offset": 0,
								"slot": "1",
								"type": "t_uint8"
							},
							{
								"astId": 7,
								"contract": "contracts/Lottery.sol:LotteryGame",
								"label": "blocknumber",
								"offset": 1,
								"slot": "1",
								"type": "t_uint248"
							}
						],
						"numberOfBytes": "64"
					},
					"t_struct(OpenedLotInfo)13_storage": {
						"encoding": "inplace",
						"label": "struct LotteryGame.OpenedLotInfo",
						"members": [
							{
								"astId": 10,
								"contract": "contracts/Lottery.sol:LotteryGame",
								"label": "Lotterynum",
								"offset": 0,
								"slot": "0",
								"type": "t_uint32"
							},
							{
								"astId": 12,
								"contract": "contracts/Lottery.sol:LotteryGame",
								"label": "mul",
								"offset": 4,
								"slot": "0",
								"type": "t_uint8"
							}
						],
						"numberOfBytes": "32"
					},
					"t_struct(Winninginfo)35_storage": {
						"encoding": "inplace",
						"label": "struct LotteryGame.Winninginfo",
						"members": [
							{
								"astId": 28,
								"contract": "contracts/Lottery.sol:LotteryGame",
								"label": "LotteryNum",
								"offset": 0,
								"slot": "0",
								"type": "t_uint32"
							},
							{
								"astId": 30,
								"contract": "contracts/Lottery.sol:LotteryGame",
								"label": "mul",
								"offset": 4,
								"slot": "0",
								"type": "t_uint8"
							},
							{
								"astId": 32,
								"contract": "contracts/Lottery.sol:LotteryGame",
								"label": "timestamp",
								"offset": 0,
								"slot": "1",
								"type": "t_uint256"
							},
							{
								"astId": 34,
								"contract": "contracts/Lottery.sol:LotteryGame",
								"label": "winner",
								"offset": 0,
								"slot": "2",
								"type": "t_address"
							}
						],
						"numberOfBytes": "96"
					},
					"t_struct(investorbalance)42_storage": {
						"encoding": "inplace",
						"label": "struct LotteryGame.investorbalance",
						"members": [
							{
								"astId": 37,
								"contract": "contracts/Lottery.sol:LotteryGame",
								"label": "balance",
								"offset": 0,
								"slot": "0",
								"type": "t_uint256"
							},
							{
								"astId": 39,
								"contract": "contracts/Lottery.sol:LotteryGame",
								"label": "LastInvestTime",
								"offset": 0,
								"slot": "1",
								"type": "t_uint256"
							},
							{
								"astId": 41,
								"contract": "contracts/Lottery.sol:LotteryGame",
								"label": "HasInvested",
								"offset": 0,
								"slot": "2",
								"type": "t_bool"
							}
						],
						"numberOfBytes": "96"
					},
					"t_struct(userinfo)26_storage": {
						"encoding": "inplace",
						"label": "struct LotteryGame.userinfo",
						"members": [
							{
								"astId": 17,
								"contract": "contracts/Lottery.sol:LotteryGame",
								"label": "eggsinfo",
								"offset": 0,
								"slot": "0",
								"type": "t_array(t_struct(Egginfo)8_storage)dyn_storage"
							},
							{
								"astId": 21,
								"contract": "contracts/Lottery.sol:LotteryGame",
								"label": "openedeggs",
								"offset": 0,
								"slot": "1",
								"type": "t_array(t_struct(OpenedLotInfo)13_storage)dyn_storage"
							},
							{
								"astId": 23,
								"contract": "contracts/Lottery.sol:LotteryGame",
								"label": "ReferralProfit",
								"offset": 0,
								"slot": "2",
								"type": "t_uint256"
							},
							{
								"astId": 25,
								"contract": "contracts/Lottery.sol:LotteryGame",
								"label": "actived",
								"offset": 0,
								"slot": "3",
								"type": "t_bool"
							}
						],
						"numberOfBytes": "128"
					},
					"t_uint248": {
						"encoding": "inplace",
						"label": "uint248",
						"numberOfBytes": "31"
					},
					"t_uint256": {
						"encoding": "inplace",
						"label": "uint256",
						"numberOfBytes": "32"
					},
					"t_uint32": {
						"encoding": "inplace",
						"label": "uint32",
						"numberOfBytes": "4"
					},
					"t_uint8": {
						"encoding": "inplace",
						"label": "uint8",
						"numberOfBytes": "1"
					}
				}
			},
			"userdoc": {
				"kind": "user",
				"methods": {},
				"version": 1
			}
		}
	}
}