{
	"contracts/Lottery.sol": {
		"LotteryGame": {
			"abi": [
				{
					"inputs": [],
					"stateMutability": "nonpayable",
					"type": "constructor"
				},
				{
					"inputs": [
						{
							"internalType": "uint16",
							"name": "LotCount",
							"type": "uint16"
						},
						{
							"internalType": "uint8",
							"name": "mul",
							"type": "uint8"
						},
						{
							"internalType": "uint232",
							"name": "Lucknum",
							"type": "uint232"
						},
						{
							"internalType": "address",
							"name": "ref",
							"type": "address"
						}
					],
					"name": "BuyEggs",
					"outputs": [],
					"stateMutability": "payable",
					"type": "function"
				},
				{
					"inputs": [],
					"name": "DevAddress",
					"outputs": [
						{
							"internalType": "address",
							"name": "",
							"type": "address"
						}
					],
					"stateMutability": "view",
					"type": "function"
				},
				{
					"inputs": [],
					"name": "DeveloperWithdrawal",
					"outputs": [],
					"stateMutability": "nonpayable",
					"type": "function"
				},
				{
					"inputs": [],
					"name": "DistributeInvestmentIncome",
					"outputs": [],
					"stateMutability": "nonpayable",
					"type": "function"
				},
				{
					"inputs": [
						{
							"internalType": "address",
							"name": "addr",
							"type": "address"
						}
					],
					"name": "GetInvestmentBalance",
					"outputs": [
						{
							"internalType": "uint256",
							"name": "",
							"type": "uint256"
						}
					],
					"stateMutability": "view",
					"type": "function"
				},
				{
					"inputs": [],
					"name": "GetLatestLottery",
					"outputs": [
						{
							"components": [
								{
									"internalType": "uint32",
									"name": "Lotterynum",
									"type": "uint32"
								},
								{
									"internalType": "uint8",
									"name": "mul",
									"type": "uint8"
								}
							],
							"internalType": "struct LotteryGame.OpenedLotInfo[]",
							"name": "",
							"type": "tuple[]"
						}
					],
					"stateMutability": "view",
					"type": "function"
				},
				{
					"inputs": [
						{
							"internalType": "uint256",
							"name": "RecordCount",
							"type": "uint256"
						}
					],
					"name": "GetWinningRecord",
					"outputs": [
						{
							"components": [
								{
									"internalType": "uint32",
									"name": "LotteryNum",
									"type": "uint32"
								},
								{
									"internalType": "uint8",
									"name": "mul",
									"type": "uint8"
								},
								{
									"internalType": "uint256",
									"name": "timestamp",
									"type": "uint256"
								},
								{
									"internalType": "address",
									"name": "winner",
									"type": "address"
								}
							],
							"internalType": "struct LotteryGame.Winninginfo[]",
							"name": "",
							"type": "tuple[]"
						}
					],
					"stateMutability": "view",
					"type": "function"
				},
				{
					"inputs": [],
					"name": "InvestmentDeposit",
					"outputs": [],
					"stateMutability": "payable",
					"type": "function"
				},
				{
					"inputs": [
						{
							"internalType": "uint256",
							"name": "WithdrawalAmount",
							"type": "uint256"
						}
					],
					"name": "InvestmentWithdrawal",
					"outputs": [],
					"stateMutability": "nonpayable",
					"type": "function"
				},
				{
					"inputs": [],
					"name": "InvestorsProfit",
					"outputs": [
						{
							"internalType": "uint256",
							"name": "",
							"type": "uint256"
						}
					],
					"stateMutability": "view",
					"type": "function"
				},
				{
					"inputs": [],
					"name": "OpenEggs",
					"outputs": [],
					"stateMutability": "nonpayable",
					"type": "function"
				},
				{
					"inputs": [],
					"name": "RecentDividendTime",
					"outputs": [
						{
							"internalType": "uint256",
							"name": "",
							"type": "uint256"
						}
					],
					"stateMutability": "view",
					"type": "function"
				},
				{
					"inputs": [],
					"name": "TotalInvestmentAmount",
					"outputs": [
						{
							"internalType": "uint256",
							"name": "",
							"type": "uint256"
						}
					],
					"stateMutability": "view",
					"type": "function"
				},
				{
					"inputs": [],
					"name": "WithdrawReferralProfit",
					"outputs": [],
					"stateMutability": "nonpayable",
					"type": "function"
				}
			],
			"devdoc": {
				"kind": "dev",
				"methods": {},
				"version": 1
			},
			"evm": {
				"assembly": "    /* \"contracts/Lottery.sol\":70:16965  contract LotteryGame {... */\n  mstore(0x40, 0x80)\n    /* \"contracts/Lottery.sol\":2929:3071  constructor() {... */\n  callvalue\n  dup1\n  iszero\n  tag_1\n  jumpi\n  0x00\n  dup1\n  revert\ntag_1:\n  pop\n    /* \"contracts/Lottery.sol\":2966:2976  msg.sender */\n  caller\n    /* \"contracts/Lottery.sol\":2953:2963  DevAddress */\n  0x00\n  dup1\n    /* \"contracts/Lottery.sol\":2953:2976  DevAddress = msg.sender */\n  0x0100\n  exp\n  dup2\n  sload\n  dup2\n  0xffffffffffffffffffffffffffffffffffffffff\n  mul\n  not\n  and\n  swap1\n  dup4\n  0xffffffffffffffffffffffffffffffffffffffff\n  and\n  mul\n  or\n  swap1\n  sstore\n  pop\n    /* \"contracts/Lottery.sol\":3007:3022  block.timestamp */\n  timestamp\n    /* \"contracts/Lottery.sol\":2986:3004  RecentDividendTime */\n  0x06\n    /* \"contracts/Lottery.sol\":2986:3022  RecentDividendTime = block.timestamp */\n  dup2\n  swap1\n  sstore\n  pop\n    /* \"contracts/Lottery.sol\":3049:3064  block.timestamp */\n  timestamp\n    /* \"contracts/Lottery.sol\":3032:3046  LastBuyEggTime */\n  0x08\n    /* \"contracts/Lottery.sol\":3032:3064  LastBuyEggTime = block.timestamp */\n  dup2\n  swap1\n  sstore\n  pop\n    /* \"contracts/Lottery.sol\":70:16965  contract LotteryGame {... */\n  dataSize(sub_0)\n  dup1\n  dataOffset(sub_0)\n  0x00\n  codecopy\n  0x00\n  return\nstop\n\nsub_0: assembly {\n        /* \"contracts/Lottery.sol\":70:16965  contract LotteryGame {... */\n      mstore(0x40, 0x80)\n      jumpi(tag_1, lt(calldatasize, 0x04))\n      shr(0xe0, calldataload(0x00))\n      dup1\n      0xb1c617ff\n      gt\n      tag_16\n      jumpi\n      dup1\n      0xcf438305\n      gt\n      tag_17\n      jumpi\n      dup1\n      0xcf438305\n      eq\n      tag_12\n      jumpi\n      dup1\n      0xd9498a83\n      eq\n      tag_13\n      jumpi\n      dup1\n      0xdd5f6f4d\n      eq\n      tag_14\n      jumpi\n      dup1\n      0xf4e79b5b\n      eq\n      tag_15\n      jumpi\n      jump(tag_1)\n    tag_17:\n      dup1\n      0xb1c617ff\n      eq\n      tag_9\n      jumpi\n      dup1\n      0xc9ea0299\n      eq\n      tag_10\n      jumpi\n      dup1\n      0xca6aae29\n      eq\n      tag_11\n      jumpi\n      jump(tag_1)\n    tag_16:\n      dup1\n      0x49821332\n      gt\n      tag_18\n      jumpi\n      dup1\n      0x49821332\n      eq\n      tag_5\n      jumpi\n      dup1\n      0x7da384fd\n      eq\n      tag_6\n      jumpi\n      dup1\n      0x89a4c1a0\n      eq\n      tag_7\n      jumpi\n      dup1\n      0xa659f4dc\n      eq\n      tag_8\n      jumpi\n      jump(tag_1)\n    tag_18:\n      dup1\n      0x12db1357\n      eq\n      tag_2\n      jumpi\n      dup1\n      0x22629256\n      eq\n      tag_3\n      jumpi\n      dup1\n      0x2b5baca1\n      eq\n      tag_4\n      jumpi\n    tag_1:\n      0x00\n      dup1\n      revert\n        /* \"contracts/Lottery.sol\":13714:15297  function DistributeInvestmentIncome() external {... */\n    tag_2:\n      callvalue\n      dup1\n      iszero\n      tag_19\n      jumpi\n      0x00\n      dup1\n      revert\n    tag_19:\n      pop\n      tag_20\n      tag_21\n      jump\t// in\n    tag_20:\n      stop\n        /* \"contracts/Lottery.sol\":15332:15771  function WithdrawReferralProfit() external {... */\n    tag_3:\n      callvalue\n      dup1\n      iszero\n      tag_22\n      jumpi\n      0x00\n      dup1\n      revert\n    tag_22:\n      pop\n      tag_23\n      tag_24\n      jump\t// in\n    tag_23:\n      stop\n        /* \"contracts/Lottery.sol\":16069:16642  function GetWinningRecord(uint256 RecordCount)... */\n    tag_4:\n      callvalue\n      dup1\n      iszero\n      tag_25\n      jumpi\n      0x00\n      dup1\n      revert\n    tag_25:\n      pop\n      tag_26\n      0x04\n      dup1\n      calldatasize\n      sub\n      dup2\n      add\n      swap1\n      tag_27\n      swap2\n      swap1\n      tag_28\n      jump\t// in\n    tag_27:\n      tag_29\n      jump\t// in\n    tag_26:\n      mload(0x40)\n      tag_30\n      swap2\n      swap1\n      tag_31\n      jump\t// in\n    tag_30:\n      mload(0x40)\n      dup1\n      swap2\n      sub\n      swap1\n      return\n        /* \"contracts/Lottery.sol\":11279:12272  function InvestmentDeposit() external payable {... */\n    tag_5:\n      tag_32\n      tag_33\n      jump\t// in\n    tag_32:\n      stop\n        /* \"contracts/Lottery.sol\":7857:11250  function OpenEggs() external {... */\n    tag_6:\n      callvalue\n      dup1\n      iszero\n      tag_34\n      jumpi\n      0x00\n      dup1\n      revert\n    tag_34:\n      pop\n      tag_35\n      tag_36\n      jump\t// in\n    tag_35:\n      stop\n        /* \"contracts/Lottery.sol\":1699:1724  address public DevAddress */\n    tag_7:\n      callvalue\n      dup1\n      iszero\n      tag_37\n      jumpi\n      0x00\n      dup1\n      revert\n    tag_37:\n      pop\n      tag_38\n      tag_39\n      jump\t// in\n    tag_38:\n      mload(0x40)\n      tag_40\n      swap2\n      swap1\n      tag_41\n      jump\t// in\n    tag_40:\n      mload(0x40)\n      dup1\n      swap2\n      sub\n      swap1\n      return\n        /* \"contracts/Lottery.sol\":2079:2115  uint256 public TotalInvestmentAmount */\n    tag_8:\n      callvalue\n      dup1\n      iszero\n      tag_42\n      jumpi\n      0x00\n      dup1\n      revert\n    tag_42:\n      pop\n      tag_43\n      tag_44\n      jump\t// in\n    tag_43:\n      mload(0x40)\n      tag_45\n      swap2\n      swap1\n      tag_46\n      jump\t// in\n    tag_45:\n      mload(0x40)\n      dup1\n      swap2\n      sub\n      swap1\n      return\n        /* \"contracts/Lottery.sol\":2239:2272  uint256 public RecentDividendTime */\n    tag_9:\n      callvalue\n      dup1\n      iszero\n      tag_47\n      jumpi\n      0x00\n      dup1\n      revert\n    tag_47:\n      pop\n      tag_48\n      tag_49\n      jump\t// in\n    tag_48:\n      mload(0x40)\n      tag_50\n      swap2\n      swap1\n      tag_46\n      jump\t// in\n    tag_50:\n      mload(0x40)\n      dup1\n      swap2\n      sub\n      swap1\n      return\n        /* \"contracts/Lottery.sol\":4155:6544  function BuyEggs(... */\n    tag_10:\n      tag_51\n      0x04\n      dup1\n      calldatasize\n      sub\n      dup2\n      add\n      swap1\n      tag_52\n      swap2\n      swap1\n      tag_53\n      jump\t// in\n    tag_52:\n      tag_54\n      jump\t// in\n    tag_51:\n      stop\n        /* \"contracts/Lottery.sol\":2170:2200  uint256 public InvestorsProfit */\n    tag_11:\n      callvalue\n      dup1\n      iszero\n      tag_55\n      jumpi\n      0x00\n      dup1\n      revert\n    tag_55:\n      pop\n      tag_56\n      tag_57\n      jump\t// in\n    tag_56:\n      mload(0x40)\n      tag_58\n      swap2\n      swap1\n      tag_46\n      jump\t// in\n    tag_58:\n      mload(0x40)\n      dup1\n      swap2\n      sub\n      swap1\n      return\n        /* \"contracts/Lottery.sol\":16835:16963  function GetInvestmentBalance(address addr) public view returns (uint256) {... */\n    tag_12:\n      callvalue\n      dup1\n      iszero\n      tag_59\n      jumpi\n      0x00\n      dup1\n      revert\n    tag_59:\n      pop\n      tag_60\n      0x04\n      dup1\n      calldatasize\n      sub\n      dup2\n      add\n      swap1\n      tag_61\n      swap2\n      swap1\n      tag_62\n      jump\t// in\n    tag_61:\n      tag_63\n      jump\t// in\n    tag_60:\n      mload(0x40)\n      tag_64\n      swap2\n      swap1\n      tag_46\n      jump\t// in\n    tag_64:\n      mload(0x40)\n      dup1\n      swap2\n      sub\n      swap1\n      return\n        /* \"contracts/Lottery.sol\":16674:16803  function GetLatestLottery() public view returns (OpenedLotInfo[] memory) {... */\n    tag_13:\n      callvalue\n      dup1\n      iszero\n      tag_65\n      jumpi\n      0x00\n      dup1\n      revert\n    tag_65:\n      pop\n      tag_66\n      tag_67\n      jump\t// in\n    tag_66:\n      mload(0x40)\n      tag_68\n      swap2\n      swap1\n      tag_69\n      jump\t// in\n    tag_68:\n      mload(0x40)\n      dup1\n      swap2\n      sub\n      swap1\n      return\n        /* \"contracts/Lottery.sol\":12301:13685  function InvestmentWithdrawal(uint256 WithdrawalAmount) external {... */\n    tag_14:\n      callvalue\n      dup1\n      iszero\n      tag_70\n      jumpi\n      0x00\n      dup1\n      revert\n    tag_70:\n      pop\n      tag_71\n      0x04\n      dup1\n      calldatasize\n      sub\n      dup2\n      add\n      swap1\n      tag_72\n      swap2\n      swap1\n      tag_28\n      jump\t// in\n    tag_72:\n      tag_73\n      jump\t// in\n    tag_71:\n      stop\n        /* \"contracts/Lottery.sol\":15806:16037  function DeveloperWithdrawal() external {... */\n    tag_15:\n      callvalue\n      dup1\n      iszero\n      tag_74\n      jumpi\n      0x00\n      dup1\n      revert\n    tag_74:\n      pop\n      tag_75\n      tag_76\n      jump\t// in\n    tag_75:\n      stop\n        /* \"contracts/Lottery.sol\":13714:15297  function DistributeInvestmentIncome() external {... */\n    tag_21:\n        /* \"contracts/Lottery.sol\":1547:1554  1 ether */\n      0x0de0b6b3a7640000\n        /* \"contracts/Lottery.sol\":13883:13899  InvestorsBalance */\n      0x03\n        /* \"contracts/Lottery.sol\":13883:13911  InvestorsBalance[msg.sender] */\n      0x00\n        /* \"contracts/Lottery.sol\":13900:13910  msg.sender */\n      caller\n        /* \"contracts/Lottery.sol\":13883:13911  InvestorsBalance[msg.sender] */\n      0xffffffffffffffffffffffffffffffffffffffff\n      and\n      0xffffffffffffffffffffffffffffffffffffffff\n      and\n      dup2\n      mstore\n      0x20\n      add\n      swap1\n      dup2\n      mstore\n      0x20\n      add\n      0x00\n      keccak256\n        /* \"contracts/Lottery.sol\":13883:13919  InvestorsBalance[msg.sender].balance */\n      0x00\n      add\n      sload\n        /* \"contracts/Lottery.sol\":13883:13948  InvestorsBalance[msg.sender].balance >= Mininum_Investment_amount */\n      lt\n      iszero\n        /* \"contracts/Lottery.sol\":13883:13992  InvestorsBalance[msg.sender].balance >= Mininum_Investment_amount ||... */\n      dup1\n      tag_78\n      jumpi\n      pop\n        /* \"contracts/Lottery.sol\":13982:13992  DevAddress */\n      0x00\n      dup1\n      sload\n      swap1\n      0x0100\n      exp\n      swap1\n      div\n      0xffffffffffffffffffffffffffffffffffffffff\n      and\n        /* \"contracts/Lottery.sol\":13968:13992  msg.sender == DevAddress */\n      0xffffffffffffffffffffffffffffffffffffffff\n      and\n        /* \"contracts/Lottery.sol\":13968:13978  msg.sender */\n      caller\n        /* \"contracts/Lottery.sol\":13968:13992  msg.sender == DevAddress */\n      0xffffffffffffffffffffffffffffffffffffffff\n      and\n      eq\n        /* \"contracts/Lottery.sol\":13883:13992  InvestorsBalance[msg.sender].balance >= Mininum_Investment_amount ||... */\n    tag_78:\n        /* \"contracts/Lottery.sol\":13862:14040  require(... */\n      tag_79\n      jumpi\n      mload(0x40)\n      0x08c379a000000000000000000000000000000000000000000000000000000000\n      dup2\n      mstore\n      0x04\n      add\n      tag_80\n      swap1\n      tag_81\n      jump\t// in\n    tag_80:\n      mload(0x40)\n      dup1\n      swap2\n      sub\n      swap1\n      revert\n    tag_79:\n        /* \"contracts/Lottery.sol\":14051:14077  uint256 Tmpinvestorsprofit */\n      0x00\n        /* \"contracts/Lottery.sol\":14080:14095  InvestorsProfit */\n      sload(0x05)\n        /* \"contracts/Lottery.sol\":14051:14095  uint256 Tmpinvestorsprofit = InvestorsProfit */\n      swap1\n      pop\n        /* \"contracts/Lottery.sol\":14105:14127  uint256 developeraward */\n      0x00\n        /* \"contracts/Lottery.sol\":14210:14227  uint256 prizepool */\n      dup1\n        /* \"contracts/Lottery.sol\":14230:14351  SafeMathsub(... */\n      tag_82\n        /* \"contracts/Lottery.sol\":14255:14276  address(this).balance */\n      selfbalance\n        /* \"contracts/Lottery.sol\":14331:14340  DevProfit */\n      sload(0x01)\n        /* \"contracts/Lottery.sol\":14309:14328  TotalReferralProfit */\n      sload(0x07)\n        /* \"contracts/Lottery.sol\":14291:14306  InvestorsProfit */\n      sload(0x05)\n        /* \"contracts/Lottery.sol\":14291:14328  InvestorsProfit + TotalReferralProfit */\n      tag_83\n      swap2\n      swap1\n      tag_84\n      jump\t// in\n    tag_83:\n        /* \"contracts/Lottery.sol\":14291:14340  InvestorsProfit + TotalReferralProfit + DevProfit */\n      tag_85\n      swap2\n      swap1\n      tag_84\n      jump\t// in\n    tag_85:\n        /* \"contracts/Lottery.sol\":14230:14241  SafeMathsub */\n      tag_86\n        /* \"contracts/Lottery.sol\":14230:14351  SafeMathsub(... */\n      jump\t// in\n    tag_82:\n        /* \"contracts/Lottery.sol\":14210:14351  uint256 prizepool = SafeMathsub(... */\n      swap1\n      pop\n        /* \"contracts/Lottery.sol\":1438:1449  10000 ether */\n      0x021e19e0c9bab2400000\n        /* \"contracts/Lottery.sol\":14366:14375  prizepool */\n      dup2\n        /* \"contracts/Lottery.sol\":14366:14402  prizepool >= Maxinum_Investment_pool */\n      lt\n        /* \"contracts/Lottery.sol\":14362:14513  if (prizepool >= Maxinum_Investment_pool) {... */\n      tag_87\n      jumpi\n        /* \"contracts/Lottery.sol\":14452:14455  200 */\n      0xc8\n        /* \"contracts/Lottery.sol\":14440:14449  prizepool */\n      dup2\n        /* \"contracts/Lottery.sol\":14440:14455  prizepool / 200 */\n      tag_88\n      swap2\n      swap1\n      tag_89\n      jump\t// in\n    tag_88:\n        /* \"contracts/Lottery.sol\":14418:14455  Tmpinvestorsprofit += prizepool / 200 */\n      dup4\n      tag_90\n      swap2\n      swap1\n      tag_84\n      jump\t// in\n    tag_90:\n      swap3\n      pop\n        /* \"contracts/Lottery.sol\":14499:14502  200 */\n      0xc8\n        /* \"contracts/Lottery.sol\":14487:14496  prizepool */\n      dup2\n        /* \"contracts/Lottery.sol\":14487:14502  prizepool / 200 */\n      tag_91\n      swap2\n      swap1\n      tag_89\n      jump\t// in\n    tag_91:\n        /* \"contracts/Lottery.sol\":14469:14502  developeraward += prizepool / 200 */\n      dup3\n      tag_92\n      swap2\n      swap1\n      tag_84\n      jump\t// in\n    tag_92:\n      swap2\n      pop\n        /* \"contracts/Lottery.sol\":14362:14513  if (prizepool >= Maxinum_Investment_pool) {... */\n    tag_87:\n        /* \"contracts/Lottery.sol\":14540:14541  0 */\n      0x00\n        /* \"contracts/Lottery.sol\":14522:14537  InvestorsProfit */\n      0x05\n        /* \"contracts/Lottery.sol\":14522:14541  InvestorsProfit = 0 */\n      dup2\n      swap1\n      sstore\n      pop\n        /* \"contracts/Lottery.sol\":14557:14566  uint256 i */\n      0x00\n        /* \"contracts/Lottery.sol\":14552:15188  for (uint256 i = 0; i < investors.length; i++) {... */\n    tag_93:\n        /* \"contracts/Lottery.sol\":14576:14585  investors */\n      0x02\n        /* \"contracts/Lottery.sol\":14576:14592  investors.length */\n      dup1\n      sload\n      swap1\n      pop\n        /* \"contracts/Lottery.sol\":14572:14573  i */\n      dup2\n        /* \"contracts/Lottery.sol\":14572:14592  i < investors.length */\n      lt\n        /* \"contracts/Lottery.sol\":14552:15188  for (uint256 i = 0; i < investors.length; i++) {... */\n      iszero\n      tag_94\n      jumpi\n        /* \"contracts/Lottery.sol\":1547:1554  1 ether */\n      0x0de0b6b3a7640000\n        /* \"contracts/Lottery.sol\":14634:14650  InvestorsBalance */\n      0x03\n        /* \"contracts/Lottery.sol\":14634:14664  InvestorsBalance[investors[i]] */\n      0x00\n        /* \"contracts/Lottery.sol\":14651:14660  investors */\n      0x02\n        /* \"contracts/Lottery.sol\":14661:14662  i */\n      dup5\n        /* \"contracts/Lottery.sol\":14651:14663  investors[i] */\n      dup2\n      sload\n      dup2\n      lt\n      tag_96\n      jumpi\n      tag_97\n      tag_98\n      jump\t// in\n    tag_97:\n    tag_96:\n      swap1\n      0x00\n      mstore\n      keccak256(0x00, 0x20)\n      add\n      0x00\n      swap1\n      sload\n      swap1\n      0x0100\n      exp\n      swap1\n      div\n      0xffffffffffffffffffffffffffffffffffffffff\n      and\n        /* \"contracts/Lottery.sol\":14634:14664  InvestorsBalance[investors[i]] */\n      0xffffffffffffffffffffffffffffffffffffffff\n      and\n      0xffffffffffffffffffffffffffffffffffffffff\n      and\n      dup2\n      mstore\n      0x20\n      add\n      swap1\n      dup2\n      mstore\n      0x20\n      add\n      0x00\n      keccak256\n        /* \"contracts/Lottery.sol\":14634:14672  InvestorsBalance[investors[i]].balance */\n      0x00\n      add\n      sload\n        /* \"contracts/Lottery.sol\":14634:14717  InvestorsBalance[investors[i]].balance >=... */\n      lt\n        /* \"contracts/Lottery.sol\":14613:15178  if (... */\n      tag_100\n      jumpi\n        /* \"contracts/Lottery.sol\":14830:14856  uint256 thisinvestorprofit */\n      0x00\n        /* \"contracts/Lottery.sol\":14859:15094  SafeMathdiv(... */\n      tag_101\n        /* \"contracts/Lottery.sol\":14892:15033  SafeMathmul(... */\n      tag_102\n        /* \"contracts/Lottery.sol\":14929:14945  InvestorsBalance */\n      0x03\n        /* \"contracts/Lottery.sol\":14929:14959  InvestorsBalance[investors[i]] */\n      0x00\n        /* \"contracts/Lottery.sol\":14946:14955  investors */\n      0x02\n        /* \"contracts/Lottery.sol\":14956:14957  i */\n      dup7\n        /* \"contracts/Lottery.sol\":14946:14958  investors[i] */\n      dup2\n      sload\n      dup2\n      lt\n      tag_103\n      jumpi\n      tag_104\n      tag_98\n      jump\t// in\n    tag_104:\n    tag_103:\n      swap1\n      0x00\n      mstore\n      keccak256(0x00, 0x20)\n      add\n      0x00\n      swap1\n      sload\n      swap1\n      0x0100\n      exp\n      swap1\n      div\n      0xffffffffffffffffffffffffffffffffffffffff\n      and\n        /* \"contracts/Lottery.sol\":14929:14959  InvestorsBalance[investors[i]] */\n      0xffffffffffffffffffffffffffffffffffffffff\n      and\n      0xffffffffffffffffffffffffffffffffffffffff\n      and\n      dup2\n      mstore\n      0x20\n      add\n      swap1\n      dup2\n      mstore\n      0x20\n      add\n      0x00\n      keccak256\n        /* \"contracts/Lottery.sol\":14929:14967  InvestorsBalance[investors[i]].balance */\n      0x00\n      add\n      sload\n        /* \"contracts/Lottery.sol\":14993:15011  Tmpinvestorsprofit */\n      dup8\n        /* \"contracts/Lottery.sol\":14892:14903  SafeMathmul */\n      tag_106\n        /* \"contracts/Lottery.sol\":14892:15033  SafeMathmul(... */\n      jump\t// in\n    tag_102:\n        /* \"contracts/Lottery.sol\":15055:15076  TotalInvestmentAmount */\n      sload(0x04)\n        /* \"contracts/Lottery.sol\":14859:14870  SafeMathdiv */\n      tag_107\n        /* \"contracts/Lottery.sol\":14859:15094  SafeMathdiv(... */\n      jump\t// in\n    tag_101:\n        /* \"contracts/Lottery.sol\":14830:15094  uint256 thisinvestorprofit = SafeMathdiv(... */\n      swap1\n      pop\n        /* \"contracts/Lottery.sol\":15121:15130  investors */\n      0x02\n        /* \"contracts/Lottery.sol\":15131:15132  i */\n      dup3\n        /* \"contracts/Lottery.sol\":15121:15133  investors[i] */\n      dup2\n      sload\n      dup2\n      lt\n      tag_108\n      jumpi\n      tag_109\n      tag_98\n      jump\t// in\n    tag_109:\n    tag_108:\n      swap1\n      0x00\n      mstore\n      keccak256(0x00, 0x20)\n      add\n      0x00\n      swap1\n      sload\n      swap1\n      0x0100\n      exp\n      swap1\n      div\n      0xffffffffffffffffffffffffffffffffffffffff\n      and\n        /* \"contracts/Lottery.sol\":15113:15143  payable(investors[i]).transfer */\n      0xffffffffffffffffffffffffffffffffffffffff\n      and\n        /* \"contracts/Lottery.sol\":15113:15163  payable(investors[i]).transfer(thisinvestorprofit) */\n      0x08fc\n        /* \"contracts/Lottery.sol\":15144:15162  thisinvestorprofit */\n      dup3\n        /* \"contracts/Lottery.sol\":15113:15163  payable(investors[i]).transfer(thisinvestorprofit) */\n      swap1\n      dup2\n      iszero\n      mul\n      swap1\n      mload(0x40)\n      0x00\n      mload(0x40)\n      dup1\n      dup4\n      sub\n      dup2\n      dup6\n      dup9\n      dup9\n      call\n      swap4\n      pop\n      pop\n      pop\n      pop\n      iszero\n      dup1\n      iszero\n      tag_112\n      jumpi\n      returndatasize\n      0x00\n      dup1\n      returndatacopy\n      revert(0x00, returndatasize)\n    tag_112:\n      pop\n        /* \"contracts/Lottery.sol\":14732:15178  {... */\n      pop\n        /* \"contracts/Lottery.sol\":14613:15178  if (... */\n    tag_100:\n        /* \"contracts/Lottery.sol\":14594:14597  i++ */\n      dup1\n      dup1\n      0x01\n      add\n      swap2\n      pop\n      pop\n        /* \"contracts/Lottery.sol\":14552:15188  for (uint256 i = 0; i < investors.length; i++) {... */\n      jump(tag_93)\n    tag_94:\n      pop\n        /* \"contracts/Lottery.sol\":15219:15220  0 */\n      0x00\n        /* \"contracts/Lottery.sol\":15202:15216  developeraward */\n      dup3\n        /* \"contracts/Lottery.sol\":15202:15220  developeraward > 0 */\n      gt\n        /* \"contracts/Lottery.sol\":15198:15291  if (developeraward > 0) {... */\n      iszero\n      tag_113\n      jumpi\n        /* \"contracts/Lottery.sol\":15244:15254  DevAddress */\n      0x00\n      dup1\n      sload\n      swap1\n      0x0100\n      exp\n      swap1\n      div\n      0xffffffffffffffffffffffffffffffffffffffff\n      and\n        /* \"contracts/Lottery.sol\":15236:15264  payable(DevAddress).transfer */\n      0xffffffffffffffffffffffffffffffffffffffff\n      and\n        /* \"contracts/Lottery.sol\":15236:15280  payable(DevAddress).transfer(developeraward) */\n      0x08fc\n        /* \"contracts/Lottery.sol\":15265:15279  developeraward */\n      dup4\n        /* \"contracts/Lottery.sol\":15236:15280  payable(DevAddress).transfer(developeraward) */\n      swap1\n      dup2\n      iszero\n      mul\n      swap1\n      mload(0x40)\n      0x00\n      mload(0x40)\n      dup1\n      dup4\n      sub\n      dup2\n      dup6\n      dup9\n      dup9\n      call\n      swap4\n      pop\n      pop\n      pop\n      pop\n      iszero\n      dup1\n      iszero\n      tag_115\n      jumpi\n      returndatasize\n      0x00\n      dup1\n      returndatacopy\n      revert(0x00, returndatasize)\n    tag_115:\n      pop\n        /* \"contracts/Lottery.sol\":15198:15291  if (developeraward > 0) {... */\n    tag_113:\n        /* \"contracts/Lottery.sol\":13761:15297  {... */\n      pop\n      pop\n      pop\n        /* \"contracts/Lottery.sol\":13714:15297  function DistributeInvestmentIncome() external {... */\n      jump\t// out\n        /* \"contracts/Lottery.sol\":15332:15771  function WithdrawReferralProfit() external {... */\n    tag_24:\n        /* \"contracts/Lottery.sol\":15498:15508  0.01 ether */\n      0x2386f26fc10000\n        /* \"contracts/Lottery.sol\":15458:15467  UsersInfo */\n      0x09\n        /* \"contracts/Lottery.sol\":15458:15479  UsersInfo[msg.sender] */\n      0x00\n        /* \"contracts/Lottery.sol\":15468:15478  msg.sender */\n      caller\n        /* \"contracts/Lottery.sol\":15458:15479  UsersInfo[msg.sender] */\n      0xffffffffffffffffffffffffffffffffffffffff\n      and\n      0xffffffffffffffffffffffffffffffffffffffff\n      and\n      dup2\n      mstore\n      0x20\n      add\n      swap1\n      dup2\n      mstore\n      0x20\n      add\n      0x00\n      keccak256\n        /* \"contracts/Lottery.sol\":15458:15494  UsersInfo[msg.sender].ReferralProfit */\n      0x02\n      add\n      sload\n        /* \"contracts/Lottery.sol\":15458:15508  UsersInfo[msg.sender].ReferralProfit >= 0.01 ether */\n      lt\n      iszero\n        /* \"contracts/Lottery.sol\":15437:15564  require(... */\n      tag_117\n      jumpi\n      mload(0x40)\n      0x08c379a000000000000000000000000000000000000000000000000000000000\n      dup2\n      mstore\n      0x04\n      add\n      tag_118\n      swap1\n      tag_119\n      jump\t// in\n    tag_118:\n      mload(0x40)\n      dup1\n      swap2\n      sub\n      swap1\n      revert\n    tag_117:\n        /* \"contracts/Lottery.sol\":15575:15589  uint256 profit */\n      0x00\n        /* \"contracts/Lottery.sol\":15592:15601  UsersInfo */\n      0x09\n        /* \"contracts/Lottery.sol\":15592:15613  UsersInfo[msg.sender] */\n      0x00\n        /* \"contracts/Lottery.sol\":15602:15612  msg.sender */\n      caller\n        /* \"contracts/Lottery.sol\":15592:15613  UsersInfo[msg.sender] */\n      0xffffffffffffffffffffffffffffffffffffffff\n      and\n      0xffffffffffffffffffffffffffffffffffffffff\n      and\n      dup2\n      mstore\n      0x20\n      add\n      swap1\n      dup2\n      mstore\n      0x20\n      add\n      0x00\n      keccak256\n        /* \"contracts/Lottery.sol\":15592:15628  UsersInfo[msg.sender].ReferralProfit */\n      0x02\n      add\n      sload\n        /* \"contracts/Lottery.sol\":15575:15628  uint256 profit = UsersInfo[msg.sender].ReferralProfit */\n      swap1\n      pop\n        /* \"contracts/Lottery.sol\":15677:15678  0 */\n      0x00\n        /* \"contracts/Lottery.sol\":15638:15647  UsersInfo */\n      0x09\n        /* \"contracts/Lottery.sol\":15638:15659  UsersInfo[msg.sender] */\n      0x00\n        /* \"contracts/Lottery.sol\":15648:15658  msg.sender */\n      caller\n        /* \"contracts/Lottery.sol\":15638:15659  UsersInfo[msg.sender] */\n      0xffffffffffffffffffffffffffffffffffffffff\n      and\n      0xffffffffffffffffffffffffffffffffffffffff\n      and\n      dup2\n      mstore\n      0x20\n      add\n      swap1\n      dup2\n      mstore\n      0x20\n      add\n      0x00\n      keccak256\n        /* \"contracts/Lottery.sol\":15638:15674  UsersInfo[msg.sender].ReferralProfit */\n      0x02\n      add\n        /* \"contracts/Lottery.sol\":15638:15678  UsersInfo[msg.sender].ReferralProfit = 0 */\n      dup2\n      swap1\n      sstore\n      pop\n        /* \"contracts/Lottery.sol\":15712:15718  profit */\n      dup1\n        /* \"contracts/Lottery.sol\":15689:15708  TotalReferralProfit */\n      0x07\n      0x00\n        /* \"contracts/Lottery.sol\":15689:15718  TotalReferralProfit -= profit */\n      dup3\n      dup3\n      sload\n      tag_120\n      swap2\n      swap1\n      tag_121\n      jump\t// in\n    tag_120:\n      swap3\n      pop\n      pop\n      dup2\n      swap1\n      sstore\n      pop\n        /* \"contracts/Lottery.sol\":15736:15746  msg.sender */\n      caller\n        /* \"contracts/Lottery.sol\":15728:15756  payable(msg.sender).transfer */\n      0xffffffffffffffffffffffffffffffffffffffff\n      and\n        /* \"contracts/Lottery.sol\":15728:15764  payable(msg.sender).transfer(profit) */\n      0x08fc\n        /* \"contracts/Lottery.sol\":15757:15763  profit */\n      dup3\n        /* \"contracts/Lottery.sol\":15728:15764  payable(msg.sender).transfer(profit) */\n      swap1\n      dup2\n      iszero\n      mul\n      swap1\n      mload(0x40)\n      0x00\n      mload(0x40)\n      dup1\n      dup4\n      sub\n      dup2\n      dup6\n      dup9\n      dup9\n      call\n      swap4\n      pop\n      pop\n      pop\n      pop\n      iszero\n      dup1\n      iszero\n      tag_123\n      jumpi\n      returndatasize\n      0x00\n      dup1\n      returndatacopy\n      revert(0x00, returndatasize)\n    tag_123:\n      pop\n        /* \"contracts/Lottery.sol\":15375:15771  {... */\n      pop\n        /* \"contracts/Lottery.sol\":15332:15771  function WithdrawReferralProfit() external {... */\n      jump\t// out\n        /* \"contracts/Lottery.sol\":16069:16642  function GetWinningRecord(uint256 RecordCount)... */\n    tag_29:\n        /* \"contracts/Lottery.sol\":16161:16181  Winninginfo[] memory */\n      0x60\n        /* \"contracts/Lottery.sol\":16197:16213  uint256 RecordCt */\n      0x00\n        /* \"contracts/Lottery.sol\":16216:16227  RecordCount */\n      dup3\n        /* \"contracts/Lottery.sol\":16197:16227  uint256 RecordCt = RecordCount */\n      swap1\n      pop\n        /* \"contracts/Lottery.sol\":16237:16261  uint256 WinningRecordLen */\n      0x00\n        /* \"contracts/Lottery.sol\":16264:16277  WinningRecord */\n      0x0b\n        /* \"contracts/Lottery.sol\":16264:16284  WinningRecord.length */\n      dup1\n      sload\n      swap1\n      pop\n        /* \"contracts/Lottery.sol\":16237:16284  uint256 WinningRecordLen = WinningRecord.length */\n      swap1\n      pop\n        /* \"contracts/Lottery.sol\":16310:16326  WinningRecordLen */\n      dup1\n        /* \"contracts/Lottery.sol\":16299:16307  RecordCt */\n      dup3\n        /* \"contracts/Lottery.sol\":16299:16326  RecordCt > WinningRecordLen */\n      gt\n        /* \"contracts/Lottery.sol\":16295:16380  if (RecordCt > WinningRecordLen) {... */\n      iszero\n      tag_125\n      jumpi\n        /* \"contracts/Lottery.sol\":16353:16369  WinningRecordLen */\n      dup1\n        /* \"contracts/Lottery.sol\":16342:16369  RecordCt = WinningRecordLen */\n      swap2\n      pop\n        /* \"contracts/Lottery.sol\":16295:16380  if (RecordCt > WinningRecordLen) {... */\n    tag_125:\n        /* \"contracts/Lottery.sol\":16390:16430  Winninginfo[] memory LatelyWinnersRecord */\n      0x00\n        /* \"contracts/Lottery.sol\":16451:16459  RecordCt */\n      dup3\n        /* \"contracts/Lottery.sol\":16433:16460  new Winninginfo[](RecordCt) */\n      0xffffffffffffffff\n      dup2\n      gt\n      iszero\n      tag_126\n      jumpi\n      tag_127\n      tag_128\n      jump\t// in\n    tag_127:\n    tag_126:\n      mload(0x40)\n      swap1\n      dup1\n      dup3\n      mstore\n      dup1\n      0x20\n      mul\n      0x20\n      add\n      dup3\n      add\n      0x40\n      mstore\n      dup1\n      iszero\n      tag_129\n      jumpi\n      dup2\n      0x20\n      add\n    tag_130:\n      tag_131\n      tag_132\n      jump\t// in\n    tag_131:\n      dup2\n      mstore\n      0x20\n      add\n      swap1\n      0x01\n      swap1\n      sub\n      swap1\n      dup2\n      tag_130\n      jumpi\n      swap1\n      pop\n    tag_129:\n      pop\n        /* \"contracts/Lottery.sol\":16390:16460  Winninginfo[] memory LatelyWinnersRecord = new Winninginfo[](RecordCt) */\n      swap1\n      pop\n        /* \"contracts/Lottery.sol\":16476:16485  uint256 i */\n      0x00\n        /* \"contracts/Lottery.sol\":16471:16599  for (uint256 i = 0; i < RecordCt; i++) {... */\n    tag_133:\n        /* \"contracts/Lottery.sol\":16495:16503  RecordCt */\n      dup4\n        /* \"contracts/Lottery.sol\":16491:16492  i */\n      dup2\n        /* \"contracts/Lottery.sol\":16491:16503  i < RecordCt */\n      lt\n        /* \"contracts/Lottery.sol\":16471:16599  for (uint256 i = 0; i < RecordCt; i++) {... */\n      iszero\n      tag_134\n      jumpi\n        /* \"contracts/Lottery.sol\":16549:16562  WinningRecord */\n      0x0b\n        /* \"contracts/Lottery.sol\":16586:16587  i */\n      dup2\n        /* \"contracts/Lottery.sol\":16582:16583  1 */\n      0x01\n        /* \"contracts/Lottery.sol\":16563:16579  WinningRecordLen */\n      dup6\n        /* \"contracts/Lottery.sol\":16563:16583  WinningRecordLen - 1 */\n      tag_136\n      swap2\n      swap1\n      tag_121\n      jump\t// in\n    tag_136:\n        /* \"contracts/Lottery.sol\":16563:16587  WinningRecordLen - 1 - i */\n      tag_137\n      swap2\n      swap1\n      tag_121\n      jump\t// in\n    tag_137:\n        /* \"contracts/Lottery.sol\":16549:16588  WinningRecord[WinningRecordLen - 1 - i] */\n      dup2\n      sload\n      dup2\n      lt\n      tag_138\n      jumpi\n      tag_139\n      tag_98\n      jump\t// in\n    tag_139:\n    tag_138:\n      swap1\n      0x00\n      mstore\n      keccak256(0x00, 0x20)\n      swap1\n      0x03\n      mul\n      add\n        /* \"contracts/Lottery.sol\":16524:16588  LatelyWinnersRecord[i] = WinningRecord[WinningRecordLen - 1 - i] */\n      mload(0x40)\n      dup1\n      0x80\n      add\n      0x40\n      mstore\n      swap1\n      dup2\n      0x00\n      dup3\n      add\n      0x00\n      swap1\n      sload\n      swap1\n      0x0100\n      exp\n      swap1\n      div\n      0xffffffff\n      and\n      0xffffffff\n      and\n      0xffffffff\n      and\n      dup2\n      mstore\n      0x20\n      add\n      0x00\n      dup3\n      add\n      0x04\n      swap1\n      sload\n      swap1\n      0x0100\n      exp\n      swap1\n      div\n      0xff\n      and\n      0xff\n      and\n      0xff\n      and\n      dup2\n      mstore\n      0x20\n      add\n      0x01\n      dup3\n      add\n      sload\n      dup2\n      mstore\n      0x20\n      add\n      0x02\n      dup3\n      add\n      0x00\n      swap1\n      sload\n      swap1\n      0x0100\n      exp\n      swap1\n      div\n      0xffffffffffffffffffffffffffffffffffffffff\n      and\n      0xffffffffffffffffffffffffffffffffffffffff\n      and\n      0xffffffffffffffffffffffffffffffffffffffff\n      and\n      dup2\n      mstore\n      pop\n      pop\n        /* \"contracts/Lottery.sol\":16524:16543  LatelyWinnersRecord */\n      dup3\n        /* \"contracts/Lottery.sol\":16544:16545  i */\n      dup3\n        /* \"contracts/Lottery.sol\":16524:16546  LatelyWinnersRecord[i] */\n      dup2\n      mload\n      dup2\n      lt\n      tag_141\n      jumpi\n      tag_142\n      tag_98\n      jump\t// in\n    tag_142:\n    tag_141:\n      0x20\n      mul\n      0x20\n      add\n      add\n        /* \"contracts/Lottery.sol\":16524:16588  LatelyWinnersRecord[i] = WinningRecord[WinningRecordLen - 1 - i] */\n      dup2\n      swap1\n      mstore\n      pop\n        /* \"contracts/Lottery.sol\":16505:16508  i++ */\n      dup1\n      dup1\n      0x01\n      add\n      swap2\n      pop\n      pop\n        /* \"contracts/Lottery.sol\":16471:16599  for (uint256 i = 0; i < RecordCt; i++) {... */\n      jump(tag_133)\n    tag_134:\n      pop\n        /* \"contracts/Lottery.sol\":16616:16635  LatelyWinnersRecord */\n      dup1\n        /* \"contracts/Lottery.sol\":16609:16635  return LatelyWinnersRecord */\n      swap4\n      pop\n      pop\n      pop\n      pop\n        /* \"contracts/Lottery.sol\":16069:16642  function GetWinningRecord(uint256 RecordCount)... */\n      swap2\n      swap1\n      pop\n      jump\t// out\n        /* \"contracts/Lottery.sol\":11279:12272  function InvestmentDeposit() external payable {... */\n    tag_33:\n        /* \"contracts/Lottery.sol\":1547:1554  1 ether */\n      0x0de0b6b3a7640000\n        /* \"contracts/Lottery.sol\":11404:11413  msg.value */\n      callvalue\n        /* \"contracts/Lottery.sol\":11404:11442  msg.value >= Mininum_Investment_amount */\n      lt\n      iszero\n        /* \"contracts/Lottery.sol\":11404:11500  msg.value >= Mininum_Investment_amount &&... */\n      dup1\n      iszero\n      tag_144\n      jumpi\n      pop\n        /* \"contracts/Lottery.sol\":1648:1658  1000 ether */\n      0x3635c9adc5dea00000\n        /* \"contracts/Lottery.sol\":11462:11471  msg.value */\n      callvalue\n        /* \"contracts/Lottery.sol\":11462:11500  msg.value <= Maxinum_Investment_amount */\n      gt\n      iszero\n        /* \"contracts/Lottery.sol\":11404:11500  msg.value >= Mininum_Investment_amount &&... */\n    tag_144:\n        /* \"contracts/Lottery.sol\":11383:11563  require(... */\n      tag_145\n      jumpi\n      mload(0x40)\n      0x08c379a000000000000000000000000000000000000000000000000000000000\n      dup2\n      mstore\n      0x04\n      add\n      tag_146\n      swap1\n      tag_147\n      jump\t// in\n    tag_146:\n      mload(0x40)\n      dup1\n      swap2\n      sub\n      swap1\n      revert\n    tag_145:\n        /* \"contracts/Lottery.sol\":1438:1449  10000 ether */\n      0x021e19e0c9bab2400000\n        /* \"contracts/Lottery.sol\":11625:11758  SafeMathsub(... */\n      tag_148\n        /* \"contracts/Lottery.sol\":11654:11675  address(this).balance */\n      selfbalance\n        /* \"contracts/Lottery.sol\":11734:11743  DevProfit */\n      sload(0x01)\n        /* \"contracts/Lottery.sol\":11712:11731  TotalReferralProfit */\n      sload(0x07)\n        /* \"contracts/Lottery.sol\":11694:11709  InvestorsProfit */\n      sload(0x05)\n        /* \"contracts/Lottery.sol\":11694:11731  InvestorsProfit + TotalReferralProfit */\n      tag_149\n      swap2\n      swap1\n      tag_84\n      jump\t// in\n    tag_149:\n        /* \"contracts/Lottery.sol\":11694:11743  InvestorsProfit + TotalReferralProfit + DevProfit */\n      tag_150\n      swap2\n      swap1\n      tag_84\n      jump\t// in\n    tag_150:\n        /* \"contracts/Lottery.sol\":11625:11636  SafeMathsub */\n      tag_86\n        /* \"contracts/Lottery.sol\":11625:11758  SafeMathsub(... */\n      jump\t// in\n    tag_148:\n        /* \"contracts/Lottery.sol\":11625:11785  SafeMathsub(... */\n      gt\n      iszero\n        /* \"contracts/Lottery.sol\":11604:11795  require(... */\n      tag_151\n      jumpi\n      0x00\n      dup1\n      revert\n    tag_151:\n        /* \"contracts/Lottery.sol\":11864:11873  msg.value */\n      callvalue\n        /* \"contracts/Lottery.sol\":11839:11860  TotalInvestmentAmount */\n      0x04\n      0x00\n        /* \"contracts/Lottery.sol\":11839:11873  TotalInvestmentAmount += msg.value */\n      dup3\n      dup3\n      sload\n      tag_152\n      swap2\n      swap1\n      tag_84\n      jump\t// in\n    tag_152:\n      swap3\n      pop\n      pop\n      dup2\n      swap1\n      sstore\n      pop\n        /* \"contracts/Lottery.sol\":11965:11974  msg.value */\n      callvalue\n        /* \"contracts/Lottery.sol\":11925:11941  InvestorsBalance */\n      0x03\n        /* \"contracts/Lottery.sol\":11925:11953  InvestorsBalance[msg.sender] */\n      0x00\n        /* \"contracts/Lottery.sol\":11942:11952  msg.sender */\n      caller\n        /* \"contracts/Lottery.sol\":11925:11953  InvestorsBalance[msg.sender] */\n      0xffffffffffffffffffffffffffffffffffffffff\n      and\n      0xffffffffffffffffffffffffffffffffffffffff\n      and\n      dup2\n      mstore\n      0x20\n      add\n      swap1\n      dup2\n      mstore\n      0x20\n      add\n      0x00\n      keccak256\n        /* \"contracts/Lottery.sol\":11925:11961  InvestorsBalance[msg.sender].balance */\n      0x00\n      add\n      0x00\n        /* \"contracts/Lottery.sol\":11925:11974  InvestorsBalance[msg.sender].balance += msg.value */\n      dup3\n      dup3\n      sload\n      tag_153\n      swap2\n      swap1\n      tag_84\n      jump\t// in\n    tag_153:\n      swap3\n      pop\n      pop\n      dup2\n      swap1\n      sstore\n      pop\n        /* \"contracts/Lottery.sol\":12030:12045  block.timestamp */\n      timestamp\n        /* \"contracts/Lottery.sol\":11984:12000  InvestorsBalance */\n      0x03\n        /* \"contracts/Lottery.sol\":11984:12012  InvestorsBalance[msg.sender] */\n      0x00\n        /* \"contracts/Lottery.sol\":12001:12011  msg.sender */\n      caller\n        /* \"contracts/Lottery.sol\":11984:12012  InvestorsBalance[msg.sender] */\n      0xffffffffffffffffffffffffffffffffffffffff\n      and\n      0xffffffffffffffffffffffffffffffffffffffff\n      and\n      dup2\n      mstore\n      0x20\n      add\n      swap1\n      dup2\n      mstore\n      0x20\n      add\n      0x00\n      keccak256\n        /* \"contracts/Lottery.sol\":11984:12027  InvestorsBalance[msg.sender].LastInvestTime */\n      0x01\n      add\n        /* \"contracts/Lottery.sol\":11984:12045  InvestorsBalance[msg.sender].LastInvestTime = block.timestamp */\n      dup2\n      swap1\n      sstore\n      pop\n        /* \"contracts/Lottery.sol\":12112:12128  InvestorsBalance */\n      0x03\n        /* \"contracts/Lottery.sol\":12112:12140  InvestorsBalance[msg.sender] */\n      0x00\n        /* \"contracts/Lottery.sol\":12129:12139  msg.sender */\n      caller\n        /* \"contracts/Lottery.sol\":12112:12140  InvestorsBalance[msg.sender] */\n      0xffffffffffffffffffffffffffffffffffffffff\n      and\n      0xffffffffffffffffffffffffffffffffffffffff\n      and\n      dup2\n      mstore\n      0x20\n      add\n      swap1\n      dup2\n      mstore\n      0x20\n      add\n      0x00\n      keccak256\n        /* \"contracts/Lottery.sol\":12112:12152  InvestorsBalance[msg.sender].HasInvested */\n      0x02\n      add\n      0x00\n      swap1\n      sload\n      swap1\n      0x0100\n      exp\n      swap1\n      div\n      0xff\n      and\n        /* \"contracts/Lottery.sol\":12107:12266  if (!InvestorsBalance[msg.sender].HasInvested) {... */\n      tag_154\n      jumpi\n        /* \"contracts/Lottery.sol\":12211:12215  true */\n      0x01\n        /* \"contracts/Lottery.sol\":12168:12184  InvestorsBalance */\n      0x03\n        /* \"contracts/Lottery.sol\":12168:12196  InvestorsBalance[msg.sender] */\n      0x00\n        /* \"contracts/Lottery.sol\":12185:12195  msg.sender */\n      caller\n        /* \"contracts/Lottery.sol\":12168:12196  InvestorsBalance[msg.sender] */\n      0xffffffffffffffffffffffffffffffffffffffff\n      and\n      0xffffffffffffffffffffffffffffffffffffffff\n      and\n      dup2\n      mstore\n      0x20\n      add\n      swap1\n      dup2\n      mstore\n      0x20\n      add\n      0x00\n      keccak256\n        /* \"contracts/Lottery.sol\":12168:12208  InvestorsBalance[msg.sender].HasInvested */\n      0x02\n      add\n      0x00\n        /* \"contracts/Lottery.sol\":12168:12215  InvestorsBalance[msg.sender].HasInvested = true */\n      0x0100\n      exp\n      dup2\n      sload\n      dup2\n      0xff\n      mul\n      not\n      and\n      swap1\n      dup4\n      iszero\n      iszero\n      mul\n      or\n      swap1\n      sstore\n      pop\n        /* \"contracts/Lottery.sol\":12229:12238  investors */\n      0x02\n        /* \"contracts/Lottery.sol\":12244:12254  msg.sender */\n      caller\n        /* \"contracts/Lottery.sol\":12229:12255  investors.push(msg.sender) */\n      swap1\n      dup1\n      0x01\n      dup2\n      sload\n      add\n      dup1\n      dup3\n      sstore\n      dup1\n      swap2\n      pop\n      pop\n      0x01\n      swap1\n      sub\n      swap1\n      0x00\n      mstore\n      keccak256(0x00, 0x20)\n      add\n      0x00\n      swap1\n      swap2\n      swap1\n      swap2\n      swap1\n      swap2\n      0x0100\n      exp\n      dup2\n      sload\n      dup2\n      0xffffffffffffffffffffffffffffffffffffffff\n      mul\n      not\n      and\n      swap1\n      dup4\n      0xffffffffffffffffffffffffffffffffffffffff\n      and\n      mul\n      or\n      swap1\n      sstore\n      pop\n        /* \"contracts/Lottery.sol\":12107:12266  if (!InvestorsBalance[msg.sender].HasInvested) {... */\n    tag_154:\n        /* \"contracts/Lottery.sol\":11279:12272  function InvestmentDeposit() external payable {... */\n      jump\t// out\n        /* \"contracts/Lottery.sol\":7857:11250  function OpenEggs() external {... */\n    tag_36:\n        /* \"contracts/Lottery.sol\":8014:8015  0 */\n      0x00\n        /* \"contracts/Lottery.sol\":7974:7983  UsersInfo */\n      0x09\n        /* \"contracts/Lottery.sol\":7974:7995  UsersInfo[msg.sender] */\n      0x00\n        /* \"contracts/Lottery.sol\":7984:7994  msg.sender */\n      caller\n        /* \"contracts/Lottery.sol\":7974:7995  UsersInfo[msg.sender] */\n      0xffffffffffffffffffffffffffffffffffffffff\n      and\n      0xffffffffffffffffffffffffffffffffffffffff\n      and\n      dup2\n      mstore\n      0x20\n      add\n      swap1\n      dup2\n      mstore\n      0x20\n      add\n      0x00\n      keccak256\n        /* \"contracts/Lottery.sol\":7974:8004  UsersInfo[msg.sender].eggsinfo */\n      0x00\n      add\n        /* \"contracts/Lottery.sol\":7974:8011  UsersInfo[msg.sender].eggsinfo.length */\n      dup1\n      sload\n      swap1\n      pop\n        /* \"contracts/Lottery.sol\":7974:8015  UsersInfo[msg.sender].eggsinfo.length > 0 */\n      gt\n        /* \"contracts/Lottery.sol\":7953:8078  require(... */\n      tag_157\n      jumpi\n      mload(0x40)\n      0x08c379a000000000000000000000000000000000000000000000000000000000\n      dup2\n      mstore\n      0x04\n      add\n      tag_158\n      swap1\n      tag_159\n      jump\t// in\n    tag_158:\n      mload(0x40)\n      dup1\n      swap2\n      sub\n      swap1\n      revert\n    tag_157:\n        /* \"contracts/Lottery.sol\":8257:8266  UsersInfo */\n      0x09\n        /* \"contracts/Lottery.sol\":8257:8278  UsersInfo[msg.sender] */\n      0x00\n        /* \"contracts/Lottery.sol\":8267:8277  msg.sender */\n      caller\n        /* \"contracts/Lottery.sol\":8257:8278  UsersInfo[msg.sender] */\n      0xffffffffffffffffffffffffffffffffffffffff\n      and\n      0xffffffffffffffffffffffffffffffffffffffff\n      and\n      dup2\n      mstore\n      0x20\n      add\n      swap1\n      dup2\n      mstore\n      0x20\n      add\n      0x00\n      keccak256\n        /* \"contracts/Lottery.sol\":8257:8308  UsersInfo[msg.sender]... */\n      0x00\n      add\n        /* \"contracts/Lottery.sol\":8349:8350  1 */\n      0x01\n        /* \"contracts/Lottery.sol\":8309:8318  UsersInfo */\n      0x09\n        /* \"contracts/Lottery.sol\":8309:8330  UsersInfo[msg.sender] */\n      0x00\n        /* \"contracts/Lottery.sol\":8319:8329  msg.sender */\n      caller\n        /* \"contracts/Lottery.sol\":8309:8330  UsersInfo[msg.sender] */\n      0xffffffffffffffffffffffffffffffffffffffff\n      and\n      0xffffffffffffffffffffffffffffffffffffffff\n      and\n      dup2\n      mstore\n      0x20\n      add\n      swap1\n      dup2\n      mstore\n      0x20\n      add\n      0x00\n      keccak256\n        /* \"contracts/Lottery.sol\":8309:8339  UsersInfo[msg.sender].eggsinfo */\n      0x00\n      add\n        /* \"contracts/Lottery.sol\":8309:8346  UsersInfo[msg.sender].eggsinfo.length */\n      dup1\n      sload\n      swap1\n      pop\n        /* \"contracts/Lottery.sol\":8309:8350  UsersInfo[msg.sender].eggsinfo.length - 1 */\n      tag_160\n      swap2\n      swap1\n      tag_121\n      jump\t// in\n    tag_160:\n        /* \"contracts/Lottery.sol\":8257:8351  UsersInfo[msg.sender]... */\n      dup2\n      sload\n      dup2\n      lt\n      tag_161\n      jumpi\n      tag_162\n      tag_98\n      jump\t// in\n    tag_162:\n    tag_161:\n      swap1\n      0x00\n      mstore\n      keccak256(0x00, 0x20)\n      swap1\n      0x02\n      mul\n      add\n        /* \"contracts/Lottery.sol\":8257:8384  UsersInfo[msg.sender]... */\n      0x01\n      add\n      0x01\n      swap1\n      sload\n      swap1\n      0x0100\n      exp\n      swap1\n      div\n      0xffffffffffffffffffffffffffffffffffffffffffffffffffffffffffffff\n      and\n        /* \"contracts/Lottery.sol\":8226:8384  block.number >... */\n      0xffffffffffffffffffffffffffffffffffffffffffffffffffffffffffffff\n      and\n        /* \"contracts/Lottery.sol\":8226:8238  block.number */\n      number\n        /* \"contracts/Lottery.sol\":8226:8384  block.number >... */\n      gt\n        /* \"contracts/Lottery.sol\":8205:8423  require(... */\n      tag_164\n      jumpi\n      mload(0x40)\n      0x08c379a000000000000000000000000000000000000000000000000000000000\n      dup2\n      mstore\n      0x04\n      add\n      tag_165\n      swap1\n      tag_166\n      jump\t// in\n    tag_165:\n      mload(0x40)\n      dup1\n      swap2\n      sub\n      swap1\n      revert\n    tag_164:\n        /* \"contracts/Lottery.sol\":8555:8556  0 */\n      0x00\n        /* \"contracts/Lottery.sol\":8513:8522  UsersInfo */\n      0x09\n        /* \"contracts/Lottery.sol\":8513:8534  UsersInfo[msg.sender] */\n      0x00\n        /* \"contracts/Lottery.sol\":8523:8533  msg.sender */\n      caller\n        /* \"contracts/Lottery.sol\":8513:8534  UsersInfo[msg.sender] */\n      0xffffffffffffffffffffffffffffffffffffffff\n      and\n      0xffffffffffffffffffffffffffffffffffffffff\n      and\n      dup2\n      mstore\n      0x20\n      add\n      swap1\n      dup2\n      mstore\n      0x20\n      add\n      0x00\n      keccak256\n        /* \"contracts/Lottery.sol\":8513:8545  UsersInfo[msg.sender].openedeggs */\n      0x01\n      add\n        /* \"contracts/Lottery.sol\":8513:8552  UsersInfo[msg.sender].openedeggs.length */\n      dup1\n      sload\n      swap1\n      pop\n        /* \"contracts/Lottery.sol\":8513:8556  UsersInfo[msg.sender].openedeggs.length > 0 */\n      gt\n        /* \"contracts/Lottery.sol\":8509:8609  if (UsersInfo[msg.sender].openedeggs.length > 0)... */\n      iszero\n      tag_167\n      jumpi\n        /* \"contracts/Lottery.sol\":8577:8586  UsersInfo */\n      0x09\n        /* \"contracts/Lottery.sol\":8577:8598  UsersInfo[msg.sender] */\n      0x00\n        /* \"contracts/Lottery.sol\":8587:8597  msg.sender */\n      caller\n        /* \"contracts/Lottery.sol\":8577:8598  UsersInfo[msg.sender] */\n      0xffffffffffffffffffffffffffffffffffffffff\n      and\n      0xffffffffffffffffffffffffffffffffffffffff\n      and\n      dup2\n      mstore\n      0x20\n      add\n      swap1\n      dup2\n      mstore\n      0x20\n      add\n      0x00\n      keccak256\n        /* \"contracts/Lottery.sol\":8577:8609  UsersInfo[msg.sender].openedeggs */\n      0x01\n      add\n      0x00\n        /* \"contracts/Lottery.sol\":8570:8609  delete UsersInfo[msg.sender].openedeggs */\n      tag_168\n      swap2\n      swap1\n      tag_169\n      jump\t// in\n    tag_168:\n        /* \"contracts/Lottery.sol\":8509:8609  if (UsersInfo[msg.sender].openedeggs.length > 0)... */\n    tag_167:\n        /* \"contracts/Lottery.sol\":8653:8674  uint256 WinningAmount */\n      0x00\n        /* \"contracts/Lottery.sol\":8690:8699  uint256 i */\n      dup1\n        /* \"contracts/Lottery.sol\":8702:8703  0 */\n      0x00\n        /* \"contracts/Lottery.sol\":8690:8703  uint256 i = 0 */\n      swap1\n      pop\n        /* \"contracts/Lottery.sol\":8685:10375  for (uint256 i = 0; i < UsersInfo[msg.sender].eggsinfo.length; i++) {... */\n    tag_170:\n        /* \"contracts/Lottery.sol\":8709:8718  UsersInfo */\n      0x09\n        /* \"contracts/Lottery.sol\":8709:8730  UsersInfo[msg.sender] */\n      0x00\n        /* \"contracts/Lottery.sol\":8719:8729  msg.sender */\n      caller\n        /* \"contracts/Lottery.sol\":8709:8730  UsersInfo[msg.sender] */\n      0xffffffffffffffffffffffffffffffffffffffff\n      and\n      0xffffffffffffffffffffffffffffffffffffffff\n      and\n      dup2\n      mstore\n      0x20\n      add\n      swap1\n      dup2\n      mstore\n      0x20\n      add\n      0x00\n      keccak256\n        /* \"contracts/Lottery.sol\":8709:8739  UsersInfo[msg.sender].eggsinfo */\n      0x00\n      add\n        /* \"contracts/Lottery.sol\":8709:8746  UsersInfo[msg.sender].eggsinfo.length */\n      dup1\n      sload\n      swap1\n      pop\n        /* \"contracts/Lottery.sol\":8705:8706  i */\n      dup2\n        /* \"contracts/Lottery.sol\":8705:8746  i < UsersInfo[msg.sender].eggsinfo.length */\n      lt\n        /* \"contracts/Lottery.sol\":8685:10375  for (uint256 i = 0; i < UsersInfo[msg.sender].eggsinfo.length; i++) {... */\n      iszero\n      tag_171\n      jumpi\n        /* \"contracts/Lottery.sol\":8961:8962  0 */\n      0x00\n        /* \"contracts/Lottery.sol\":8893:8902  UsersInfo */\n      0x09\n        /* \"contracts/Lottery.sol\":8893:8914  UsersInfo[msg.sender] */\n      0x00\n        /* \"contracts/Lottery.sol\":8903:8913  msg.sender */\n      caller\n        /* \"contracts/Lottery.sol\":8893:8914  UsersInfo[msg.sender] */\n      0xffffffffffffffffffffffffffffffffffffffff\n      and\n      0xffffffffffffffffffffffffffffffffffffffff\n      and\n      dup2\n      mstore\n      0x20\n      add\n      swap1\n      dup2\n      mstore\n      0x20\n      add\n      0x00\n      keccak256\n        /* \"contracts/Lottery.sol\":8893:8923  UsersInfo[msg.sender].eggsinfo */\n      0x00\n      add\n        /* \"contracts/Lottery.sol\":8924:8925  i */\n      dup3\n        /* \"contracts/Lottery.sol\":8893:8926  UsersInfo[msg.sender].eggsinfo[i] */\n      dup2\n      sload\n      dup2\n      lt\n      tag_173\n      jumpi\n      tag_174\n      tag_98\n      jump\t// in\n    tag_174:\n    tag_173:\n      swap1\n      0x00\n      mstore\n      keccak256(0x00, 0x20)\n      swap1\n      0x02\n      mul\n      add\n        /* \"contracts/Lottery.sol\":8893:8938  UsersInfo[msg.sender].eggsinfo[i].blocknumber */\n      0x01\n      add\n      0x01\n      swap1\n      sload\n      swap1\n      0x0100\n      exp\n      swap1\n      div\n      0xffffffffffffffffffffffffffffffffffffffffffffffffffffffffffffff\n      and\n        /* \"contracts/Lottery.sol\":8883:8939  blockhash(UsersInfo[msg.sender].eggsinfo[i].blocknumber) */\n      0xffffffffffffffffffffffffffffffffffffffffffffffffffffffffffffff\n      and\n      blockhash\n        /* \"contracts/Lottery.sol\":8854:8957  uint256(... */\n      0x00\n      shr\n        /* \"contracts/Lottery.sol\":8854:8962  uint256(... */\n      sub\n        /* \"contracts/Lottery.sol\":8833:8985  if (... */\n      iszero\n        /* \"contracts/Lottery.sol\":8977:8985  continue */\n      tag_172\n        /* \"contracts/Lottery.sol\":8833:8985  if (... */\n      jumpi\n        /* \"contracts/Lottery.sol\":9034:9051  uint32 LotteryNum */\n      0x00\n        /* \"contracts/Lottery.sol\":9187:9196  UsersInfo */\n      0x09\n        /* \"contracts/Lottery.sol\":9187:9208  UsersInfo[msg.sender] */\n      0x00\n        /* \"contracts/Lottery.sol\":9197:9207  msg.sender */\n      caller\n        /* \"contracts/Lottery.sol\":9187:9208  UsersInfo[msg.sender] */\n      0xffffffffffffffffffffffffffffffffffffffff\n      and\n      0xffffffffffffffffffffffffffffffffffffffff\n      and\n      dup2\n      mstore\n      0x20\n      add\n      swap1\n      dup2\n      mstore\n      0x20\n      add\n      0x00\n      keccak256\n        /* \"contracts/Lottery.sol\":9187:9217  UsersInfo[msg.sender].eggsinfo */\n      0x00\n      add\n        /* \"contracts/Lottery.sol\":9218:9219  i */\n      dup3\n        /* \"contracts/Lottery.sol\":9187:9220  UsersInfo[msg.sender].eggsinfo[i] */\n      dup2\n      sload\n      dup2\n      lt\n      tag_177\n      jumpi\n      tag_178\n      tag_98\n      jump\t// in\n    tag_178:\n    tag_177:\n      swap1\n      0x00\n      mstore\n      keccak256(0x00, 0x20)\n      swap1\n      0x02\n      mul\n      add\n        /* \"contracts/Lottery.sol\":9187:9224  UsersInfo[msg.sender].eggsinfo[i].uid */\n      0x00\n      add\n      sload\n        /* \"contracts/Lottery.sol\":9297:9306  UsersInfo */\n      0x09\n        /* \"contracts/Lottery.sol\":9297:9318  UsersInfo[msg.sender] */\n      0x00\n        /* \"contracts/Lottery.sol\":9307:9317  msg.sender */\n      caller\n        /* \"contracts/Lottery.sol\":9297:9318  UsersInfo[msg.sender] */\n      0xffffffffffffffffffffffffffffffffffffffff\n      and\n      0xffffffffffffffffffffffffffffffffffffffff\n      and\n      dup2\n      mstore\n      0x20\n      add\n      swap1\n      dup2\n      mstore\n      0x20\n      add\n      0x00\n      keccak256\n        /* \"contracts/Lottery.sol\":9297:9327  UsersInfo[msg.sender].eggsinfo */\n      0x00\n      add\n        /* \"contracts/Lottery.sol\":9328:9329  i */\n      dup4\n        /* \"contracts/Lottery.sol\":9297:9330  UsersInfo[msg.sender].eggsinfo[i] */\n      dup2\n      sload\n      dup2\n      lt\n      tag_180\n      jumpi\n      tag_181\n      tag_98\n      jump\t// in\n    tag_181:\n    tag_180:\n      swap1\n      0x00\n      mstore\n      keccak256(0x00, 0x20)\n      swap1\n      0x02\n      mul\n      add\n        /* \"contracts/Lottery.sol\":9297:9342  UsersInfo[msg.sender].eggsinfo[i].blocknumber */\n      0x01\n      add\n      0x01\n      swap1\n      sload\n      swap1\n      0x0100\n      exp\n      swap1\n      div\n      0xffffffffffffffffffffffffffffffffffffffffffffffffffffffffffffff\n      and\n        /* \"contracts/Lottery.sol\":9254:9372  blockhash(... */\n      0xffffffffffffffffffffffffffffffffffffffffffffffffffffffffffffff\n      and\n      blockhash\n        /* \"contracts/Lottery.sol\":9141:9398  abi.encodePacked(... */\n      add(0x20, mload(0x40))\n      tag_183\n      swap3\n      swap2\n      swap1\n      tag_184\n      jump\t// in\n    tag_183:\n      mload(0x40)\n      0x20\n      dup2\n      dup4\n      sub\n      sub\n      dup2\n      mstore\n      swap1\n      0x40\n      mstore\n        /* \"contracts/Lottery.sol\":9106:9420  keccak256(... */\n      dup1\n      mload\n      swap1\n      0x20\n      add\n      keccak256\n        /* \"contracts/Lottery.sol\":9054:9452  uint32(... */\n      0xe0\n      shr\n        /* \"contracts/Lottery.sol\":9034:9452  uint32 LotteryNum = uint32(... */\n      swap1\n      pop\n        /* \"contracts/Lottery.sol\":9495:9514  uint256 Winningrade */\n      0x00\n        /* \"contracts/Lottery.sol\":9517:9544  GetWinninggrade(LotteryNum) */\n      tag_185\n        /* \"contracts/Lottery.sol\":9533:9543  LotteryNum */\n      dup3\n        /* \"contracts/Lottery.sol\":9517:9532  GetWinninggrade */\n      tag_186\n        /* \"contracts/Lottery.sol\":9517:9544  GetWinninggrade(LotteryNum) */\n      jump\t// in\n    tag_185:\n        /* \"contracts/Lottery.sol\":9495:9544  uint256 Winningrade = GetWinninggrade(LotteryNum) */\n      swap1\n      pop\n        /* \"contracts/Lottery.sol\":9611:9612  0 */\n      0x00\n        /* \"contracts/Lottery.sol\":9597:9608  Winningrade */\n      dup2\n        /* \"contracts/Lottery.sol\":9597:9612  Winningrade > 0 */\n      gt\n        /* \"contracts/Lottery.sol\":9593:10134  if (Winningrade > 0) {... */\n      iszero\n      tag_187\n      jumpi\n        /* \"contracts/Lottery.sol\":9632:9652  uint256 WinningMoney */\n      0x00\n        /* \"contracts/Lottery.sol\":1287:1297  0.02 ether */\n      0x470de4df820000\n        /* \"contracts/Lottery.sol\":9709:9718  UsersInfo */\n      0x09\n        /* \"contracts/Lottery.sol\":9709:9730  UsersInfo[msg.sender] */\n      0x00\n        /* \"contracts/Lottery.sol\":9719:9729  msg.sender */\n      caller\n        /* \"contracts/Lottery.sol\":9709:9730  UsersInfo[msg.sender] */\n      0xffffffffffffffffffffffffffffffffffffffff\n      and\n      0xffffffffffffffffffffffffffffffffffffffff\n      and\n      dup2\n      mstore\n      0x20\n      add\n      swap1\n      dup2\n      mstore\n      0x20\n      add\n      0x00\n      keccak256\n        /* \"contracts/Lottery.sol\":9709:9739  UsersInfo[msg.sender].eggsinfo */\n      0x00\n      add\n        /* \"contracts/Lottery.sol\":9740:9741  i */\n      dup6\n        /* \"contracts/Lottery.sol\":9709:9742  UsersInfo[msg.sender].eggsinfo[i] */\n      dup2\n      sload\n      dup2\n      lt\n      tag_188\n      jumpi\n      tag_189\n      tag_98\n      jump\t// in\n    tag_189:\n    tag_188:\n      swap1\n      0x00\n      mstore\n      keccak256(0x00, 0x20)\n      swap1\n      0x02\n      mul\n      add\n        /* \"contracts/Lottery.sol\":9709:9746  UsersInfo[msg.sender].eggsinfo[i].mul */\n      0x01\n      add\n      0x00\n      swap1\n      sload\n      swap1\n      0x0100\n      exp\n      swap1\n      div\n      0xff\n      and\n        /* \"contracts/Lottery.sol\":9655:9746  GetWinningmultiple(Winningrade) *... */\n      0xff\n      and\n        /* \"contracts/Lottery.sol\":9655:9686  GetWinningmultiple(Winningrade) */\n      tag_191\n        /* \"contracts/Lottery.sol\":9674:9685  Winningrade */\n      dup5\n        /* \"contracts/Lottery.sol\":9655:9673  GetWinningmultiple */\n      tag_192\n        /* \"contracts/Lottery.sol\":9655:9686  GetWinningmultiple(Winningrade) */\n      jump\t// in\n    tag_191:\n        /* \"contracts/Lottery.sol\":9655:9746  GetWinningmultiple(Winningrade) *... */\n      tag_193\n      swap2\n      swap1\n      tag_194\n      jump\t// in\n    tag_193:\n        /* \"contracts/Lottery.sol\":9655:9780  GetWinningmultiple(Winningrade) *... */\n      tag_195\n      swap2\n      swap1\n      tag_194\n      jump\t// in\n    tag_195:\n        /* \"contracts/Lottery.sol\":9632:9780  uint256 WinningMoney = GetWinningmultiple(Winningrade) *... */\n      swap1\n      pop\n        /* \"contracts/Lottery.sol\":9816:9828  WinningMoney */\n      dup1\n        /* \"contracts/Lottery.sol\":9799:9828  WinningAmount += WinningMoney */\n      dup6\n      tag_196\n      swap2\n      swap1\n      tag_84\n      jump\t// in\n    tag_196:\n      swap5\n      pop\n        /* \"contracts/Lottery.sol\":9847:9873  Winninginfo memory winning */\n      0x00\n        /* \"contracts/Lottery.sol\":9876:10073  Winninginfo(... */\n      mload(0x40)\n      dup1\n      0x80\n      add\n      0x40\n      mstore\n      dup1\n        /* \"contracts/Lottery.sol\":9909:9919  LotteryNum */\n      dup6\n        /* \"contracts/Lottery.sol\":9876:10073  Winninginfo(... */\n      0xffffffff\n      and\n      dup2\n      mstore\n      0x20\n      add\n        /* \"contracts/Lottery.sol\":9941:9950  UsersInfo */\n      0x09\n        /* \"contracts/Lottery.sol\":9941:9962  UsersInfo[msg.sender] */\n      0x00\n        /* \"contracts/Lottery.sol\":9951:9961  msg.sender */\n      caller\n        /* \"contracts/Lottery.sol\":9941:9962  UsersInfo[msg.sender] */\n      0xffffffffffffffffffffffffffffffffffffffff\n      and\n      0xffffffffffffffffffffffffffffffffffffffff\n      and\n      dup2\n      mstore\n      0x20\n      add\n      swap1\n      dup2\n      mstore\n      0x20\n      add\n      0x00\n      keccak256\n        /* \"contracts/Lottery.sol\":9941:9971  UsersInfo[msg.sender].eggsinfo */\n      0x00\n      add\n        /* \"contracts/Lottery.sol\":9972:9973  i */\n      dup8\n        /* \"contracts/Lottery.sol\":9941:9974  UsersInfo[msg.sender].eggsinfo[i] */\n      dup2\n      sload\n      dup2\n      lt\n      tag_197\n      jumpi\n      tag_198\n      tag_98\n      jump\t// in\n    tag_198:\n    tag_197:\n      swap1\n      0x00\n      mstore\n      keccak256(0x00, 0x20)\n      swap1\n      0x02\n      mul\n      add\n        /* \"contracts/Lottery.sol\":9941:9978  UsersInfo[msg.sender].eggsinfo[i].mul */\n      0x01\n      add\n      0x00\n      swap1\n      sload\n      swap1\n      0x0100\n      exp\n      swap1\n      div\n      0xff\n      and\n        /* \"contracts/Lottery.sol\":9876:10073  Winninginfo(... */\n      0xff\n      and\n      dup2\n      mstore\n      0x20\n      add\n        /* \"contracts/Lottery.sol\":10007:10022  block.timestamp */\n      timestamp\n        /* \"contracts/Lottery.sol\":9876:10073  Winninginfo(... */\n      0xffffffffff\n      and\n      dup2\n      mstore\n      0x20\n      add\n        /* \"contracts/Lottery.sol\":10045:10055  msg.sender */\n      caller\n        /* \"contracts/Lottery.sol\":9876:10073  Winninginfo(... */\n      0xffffffffffffffffffffffffffffffffffffffff\n      and\n      dup2\n      mstore\n      pop\n        /* \"contracts/Lottery.sol\":9847:10073  Winninginfo memory winning = Winninginfo(... */\n      swap1\n      pop\n        /* \"contracts/Lottery.sol\":10092:10105  WinningRecord */\n      0x0b\n        /* \"contracts/Lottery.sol\":10111:10118  winning */\n      dup2\n        /* \"contracts/Lottery.sol\":10092:10119  WinningRecord.push(winning) */\n      swap1\n      dup1\n      0x01\n      dup2\n      sload\n      add\n      dup1\n      dup3\n      sstore\n      dup1\n      swap2\n      pop\n      pop\n      0x01\n      swap1\n      sub\n      swap1\n      0x00\n      mstore\n      keccak256(0x00, 0x20)\n      swap1\n      0x03\n      mul\n      add\n      0x00\n      swap1\n      swap2\n      swap1\n      swap2\n      swap1\n      swap2\n      pop\n      0x00\n      dup3\n      add\n      mload\n      dup2\n      0x00\n      add\n      exp(0x0100, 0x00)\n      dup2\n      sload\n      dup2\n      0xffffffff\n      mul\n      not\n      and\n      swap1\n      dup4\n      0xffffffff\n      and\n      mul\n      or\n      swap1\n      sstore\n      pop\n      0x20\n      dup3\n      add\n      mload\n      dup2\n      0x00\n      add\n      exp(0x0100, 0x04)\n      dup2\n      sload\n      dup2\n      0xff\n      mul\n      not\n      and\n      swap1\n      dup4\n      0xff\n      and\n      mul\n      or\n      swap1\n      sstore\n      pop\n      0x40\n      dup3\n      add\n      mload\n      dup2\n      0x01\n      add\n      sstore\n      0x60\n      dup3\n      add\n      mload\n      dup2\n      0x02\n      add\n      exp(0x0100, 0x00)\n      dup2\n      sload\n      dup2\n      0xffffffffffffffffffffffffffffffffffffffff\n      mul\n      not\n      and\n      swap1\n      dup4\n      0xffffffffffffffffffffffffffffffffffffffff\n      and\n      mul\n      or\n      swap1\n      sstore\n      pop\n      pop\n      pop\n        /* \"contracts/Lottery.sol\":9614:10134  {... */\n      pop\n      pop\n        /* \"contracts/Lottery.sol\":9593:10134  if (Winningrade > 0) {... */\n    tag_187:\n        /* \"contracts/Lottery.sol\":10148:10183  OpenedLotInfo memory OpenedLotterys */\n      0x00\n        /* \"contracts/Lottery.sol\":10186:10296  OpenedLotInfo(... */\n      mload(0x40)\n      dup1\n      0x40\n      add\n      0x40\n      mstore\n      dup1\n        /* \"contracts/Lottery.sol\":10217:10227  LotteryNum */\n      dup5\n        /* \"contracts/Lottery.sol\":10186:10296  OpenedLotInfo(... */\n      0xffffffff\n      and\n      dup2\n      mstore\n      0x20\n      add\n        /* \"contracts/Lottery.sol\":10245:10254  UsersInfo */\n      0x09\n        /* \"contracts/Lottery.sol\":10245:10266  UsersInfo[msg.sender] */\n      0x00\n        /* \"contracts/Lottery.sol\":10255:10265  msg.sender */\n      caller\n        /* \"contracts/Lottery.sol\":10245:10266  UsersInfo[msg.sender] */\n      0xffffffffffffffffffffffffffffffffffffffff\n      and\n      0xffffffffffffffffffffffffffffffffffffffff\n      and\n      dup2\n      mstore\n      0x20\n      add\n      swap1\n      dup2\n      mstore\n      0x20\n      add\n      0x00\n      keccak256\n        /* \"contracts/Lottery.sol\":10245:10275  UsersInfo[msg.sender].eggsinfo */\n      0x00\n      add\n        /* \"contracts/Lottery.sol\":10276:10277  i */\n      dup7\n        /* \"contracts/Lottery.sol\":10245:10278  UsersInfo[msg.sender].eggsinfo[i] */\n      dup2\n      sload\n      dup2\n      lt\n      tag_201\n      jumpi\n      tag_202\n      tag_98\n      jump\t// in\n    tag_202:\n    tag_201:\n      swap1\n      0x00\n      mstore\n      keccak256(0x00, 0x20)\n      swap1\n      0x02\n      mul\n      add\n        /* \"contracts/Lottery.sol\":10245:10282  UsersInfo[msg.sender].eggsinfo[i].mul */\n      0x01\n      add\n      0x00\n      swap1\n      sload\n      swap1\n      0x0100\n      exp\n      swap1\n      div\n      0xff\n      and\n        /* \"contracts/Lottery.sol\":10186:10296  OpenedLotInfo(... */\n      0xff\n      and\n      dup2\n      mstore\n      pop\n        /* \"contracts/Lottery.sol\":10148:10296  OpenedLotInfo memory OpenedLotterys = OpenedLotInfo(... */\n      swap1\n      pop\n        /* \"contracts/Lottery.sol\":10311:10320  UsersInfo */\n      0x09\n        /* \"contracts/Lottery.sol\":10311:10332  UsersInfo[msg.sender] */\n      0x00\n        /* \"contracts/Lottery.sol\":10321:10331  msg.sender */\n      caller\n        /* \"contracts/Lottery.sol\":10311:10332  UsersInfo[msg.sender] */\n      0xffffffffffffffffffffffffffffffffffffffff\n      and\n      0xffffffffffffffffffffffffffffffffffffffff\n      and\n      dup2\n      mstore\n      0x20\n      add\n      swap1\n      dup2\n      mstore\n      0x20\n      add\n      0x00\n      keccak256\n        /* \"contracts/Lottery.sol\":10311:10343  UsersInfo[msg.sender].openedeggs */\n      0x01\n      add\n        /* \"contracts/Lottery.sol\":10349:10363  OpenedLotterys */\n      dup2\n        /* \"contracts/Lottery.sol\":10311:10364  UsersInfo[msg.sender].openedeggs.push(OpenedLotterys) */\n      swap1\n      dup1\n      0x01\n      dup2\n      sload\n      add\n      dup1\n      dup3\n      sstore\n      dup1\n      swap2\n      pop\n      pop\n      0x01\n      swap1\n      sub\n      swap1\n      0x00\n      mstore\n      keccak256(0x00, 0x20)\n      add\n      0x00\n      swap1\n      swap2\n      swap1\n      swap2\n      swap1\n      swap2\n      pop\n      0x00\n      dup3\n      add\n      mload\n      dup2\n      0x00\n      add\n      exp(0x0100, 0x00)\n      dup2\n      sload\n      dup2\n      0xffffffff\n      mul\n      not\n      and\n      swap1\n      dup4\n      0xffffffff\n      and\n      mul\n      or\n      swap1\n      sstore\n      pop\n      0x20\n      dup3\n      add\n      mload\n      dup2\n      0x00\n      add\n      exp(0x0100, 0x04)\n      dup2\n      sload\n      dup2\n      0xff\n      mul\n      not\n      and\n      swap1\n      dup4\n      0xff\n      and\n      mul\n      or\n      swap1\n      sstore\n      pop\n      pop\n      pop\n        /* \"contracts/Lottery.sol\":8753:10375  {... */\n      pop\n      pop\n      pop\n        /* \"contracts/Lottery.sol\":8685:10375  for (uint256 i = 0; i < UsersInfo[msg.sender].eggsinfo.length; i++) {... */\n    tag_172:\n        /* \"contracts/Lottery.sol\":8748:8751  i++ */\n      dup1\n      dup1\n      0x01\n      add\n      swap2\n      pop\n      pop\n        /* \"contracts/Lottery.sol\":8685:10375  for (uint256 i = 0; i < UsersInfo[msg.sender].eggsinfo.length; i++) {... */\n      jump(tag_170)\n    tag_171:\n      pop\n        /* \"contracts/Lottery.sol\":10452:10461  UsersInfo */\n      0x09\n        /* \"contracts/Lottery.sol\":10452:10473  UsersInfo[msg.sender] */\n      0x00\n        /* \"contracts/Lottery.sol\":10462:10472  msg.sender */\n      caller\n        /* \"contracts/Lottery.sol\":10452:10473  UsersInfo[msg.sender] */\n      0xffffffffffffffffffffffffffffffffffffffff\n      and\n      0xffffffffffffffffffffffffffffffffffffffff\n      and\n      dup2\n      mstore\n      0x20\n      add\n      swap1\n      dup2\n      mstore\n      0x20\n      add\n      0x00\n      keccak256\n        /* \"contracts/Lottery.sol\":10452:10482  UsersInfo[msg.sender].eggsinfo */\n      0x00\n      add\n      0x00\n        /* \"contracts/Lottery.sol\":10445:10482  delete UsersInfo[msg.sender].eggsinfo */\n      tag_205\n      swap2\n      swap1\n      tag_206\n      jump\t// in\n    tag_205:\n        /* \"contracts/Lottery.sol\":10570:10571  0 */\n      0x00\n        /* \"contracts/Lottery.sol\":10554:10567  WinningAmount */\n      dup2\n        /* \"contracts/Lottery.sol\":10554:10571  WinningAmount > 0 */\n      gt\n        /* \"contracts/Lottery.sol\":10550:11244  if (WinningAmount > 0) {... */\n      iszero\n      tag_207\n      jumpi\n        /* \"contracts/Lottery.sol\":10587:10611  uint256 MaxWinningAmount */\n      0x00\n        /* \"contracts/Lottery.sol\":10614:10910  SafeMathdiv(... */\n      tag_208\n        /* \"contracts/Lottery.sol\":10643:10875  SafeMathmul(... */\n      tag_209\n        /* \"contracts/Lottery.sol\":10676:10833  SafeMathsub(... */\n      tag_210\n        /* \"contracts/Lottery.sol\":10713:10734  address(this).balance */\n      selfbalance\n        /* \"contracts/Lottery.sol\":10801:10810  DevProfit */\n      sload(0x01)\n        /* \"contracts/Lottery.sol\":10779:10798  TotalReferralProfit */\n      sload(0x07)\n        /* \"contracts/Lottery.sol\":10761:10776  InvestorsProfit */\n      sload(0x05)\n        /* \"contracts/Lottery.sol\":10761:10798  InvestorsProfit + TotalReferralProfit */\n      tag_211\n      swap2\n      swap1\n      tag_84\n      jump\t// in\n    tag_211:\n        /* \"contracts/Lottery.sol\":10761:10810  InvestorsProfit + TotalReferralProfit + DevProfit */\n      tag_212\n      swap2\n      swap1\n      tag_84\n      jump\t// in\n    tag_212:\n        /* \"contracts/Lottery.sol\":10676:10687  SafeMathsub */\n      tag_86\n        /* \"contracts/Lottery.sol\":10676:10833  SafeMathsub(... */\n      jump\t// in\n    tag_210:\n        /* \"contracts/Lottery.sol\":10855:10857  70 */\n      0x46\n        /* \"contracts/Lottery.sol\":10643:10654  SafeMathmul */\n      tag_106\n        /* \"contracts/Lottery.sol\":10643:10875  SafeMathmul(... */\n      jump\t// in\n    tag_209:\n        /* \"contracts/Lottery.sol\":10893:10896  100 */\n      0x64\n        /* \"contracts/Lottery.sol\":10614:10625  SafeMathdiv */\n      tag_107\n        /* \"contracts/Lottery.sol\":10614:10910  SafeMathdiv(... */\n      jump\t// in\n    tag_208:\n        /* \"contracts/Lottery.sol\":10587:10910  uint256 MaxWinningAmount = SafeMathdiv(... */\n      swap1\n      pop\n        /* \"contracts/Lottery.sol\":10945:10961  MaxWinningAmount */\n      dup1\n        /* \"contracts/Lottery.sol\":10929:10942  WinningAmount */\n      dup3\n        /* \"contracts/Lottery.sol\":10929:10961  WinningAmount > MaxWinningAmount */\n      gt\n        /* \"contracts/Lottery.sol\":10925:11011  if (WinningAmount > MaxWinningAmount)... */\n      iszero\n      tag_213\n      jumpi\n        /* \"contracts/Lottery.sol\":10995:11011  MaxWinningAmount */\n      dup1\n        /* \"contracts/Lottery.sol\":10979:11011  WinningAmount = MaxWinningAmount */\n      swap2\n      pop\n        /* \"contracts/Lottery.sol\":10925:11011  if (WinningAmount > MaxWinningAmount)... */\n    tag_213:\n        /* \"contracts/Lottery.sol\":11026:11040  uint256 profit */\n      0x00\n        /* \"contracts/Lottery.sol\":11043:11090  SafeMathdiv(SafeMathmul(WinningAmount, 5), 100) */\n      tag_214\n        /* \"contracts/Lottery.sol\":11055:11084  SafeMathmul(WinningAmount, 5) */\n      tag_215\n        /* \"contracts/Lottery.sol\":11067:11080  WinningAmount */\n      dup5\n        /* \"contracts/Lottery.sol\":11082:11083  5 */\n      0x05\n        /* \"contracts/Lottery.sol\":11055:11066  SafeMathmul */\n      tag_106\n        /* \"contracts/Lottery.sol\":11055:11084  SafeMathmul(WinningAmount, 5) */\n      jump\t// in\n    tag_215:\n        /* \"contracts/Lottery.sol\":11086:11089  100 */\n      0x64\n        /* \"contracts/Lottery.sol\":11043:11054  SafeMathdiv */\n      tag_107\n        /* \"contracts/Lottery.sol\":11043:11090  SafeMathdiv(SafeMathmul(WinningAmount, 5), 100) */\n      jump\t// in\n    tag_214:\n        /* \"contracts/Lottery.sol\":11026:11090  uint256 profit = SafeMathdiv(SafeMathmul(WinningAmount, 5), 100) */\n      swap1\n      pop\n        /* \"contracts/Lottery.sol\":11123:11129  profit */\n      dup1\n        /* \"contracts/Lottery.sol\":11104:11119  InvestorsProfit */\n      0x05\n      0x00\n        /* \"contracts/Lottery.sol\":11104:11129  InvestorsProfit += profit */\n      dup3\n      dup3\n      sload\n      tag_216\n      swap2\n      swap1\n      tag_84\n      jump\t// in\n    tag_216:\n      swap3\n      pop\n      pop\n      dup2\n      swap1\n      sstore\n      pop\n        /* \"contracts/Lottery.sol\":11156:11162  profit */\n      dup1\n        /* \"contracts/Lottery.sol\":11143:11152  DevProfit */\n      0x01\n      0x00\n        /* \"contracts/Lottery.sol\":11143:11162  DevProfit += profit */\n      dup3\n      dup3\n      sload\n      tag_217\n      swap2\n      swap1\n      tag_84\n      jump\t// in\n    tag_217:\n      swap3\n      pop\n      pop\n      dup2\n      swap1\n      sstore\n      pop\n        /* \"contracts/Lottery.sol\":11185:11195  msg.sender */\n      caller\n        /* \"contracts/Lottery.sol\":11177:11205  payable(msg.sender).transfer */\n      0xffffffffffffffffffffffffffffffffffffffff\n      and\n        /* \"contracts/Lottery.sol\":11177:11233  payable(msg.sender).transfer(WinningAmount - profit * 2) */\n      0x08fc\n        /* \"contracts/Lottery.sol\":11231:11232  2 */\n      0x02\n        /* \"contracts/Lottery.sol\":11222:11228  profit */\n      dup4\n        /* \"contracts/Lottery.sol\":11222:11232  profit * 2 */\n      tag_218\n      swap2\n      swap1\n      tag_194\n      jump\t// in\n    tag_218:\n        /* \"contracts/Lottery.sol\":11206:11219  WinningAmount */\n      dup6\n        /* \"contracts/Lottery.sol\":11206:11232  WinningAmount - profit * 2 */\n      tag_219\n      swap2\n      swap1\n      tag_121\n      jump\t// in\n    tag_219:\n        /* \"contracts/Lottery.sol\":11177:11233  payable(msg.sender).transfer(WinningAmount - profit * 2) */\n      swap1\n      dup2\n      iszero\n      mul\n      swap1\n      mload(0x40)\n      0x00\n      mload(0x40)\n      dup1\n      dup4\n      sub\n      dup2\n      dup6\n      dup9\n      dup9\n      call\n      swap4\n      pop\n      pop\n      pop\n      pop\n      iszero\n      dup1\n      iszero\n      tag_221\n      jumpi\n      returndatasize\n      0x00\n      dup1\n      returndatacopy\n      revert(0x00, returndatasize)\n    tag_221:\n      pop\n        /* \"contracts/Lottery.sol\":10573:11244  {... */\n      pop\n      pop\n        /* \"contracts/Lottery.sol\":10550:11244  if (WinningAmount > 0) {... */\n    tag_207:\n        /* \"contracts/Lottery.sol\":7886:11250  {... */\n      pop\n        /* \"contracts/Lottery.sol\":7857:11250  function OpenEggs() external {... */\n      jump\t// out\n        /* \"contracts/Lottery.sol\":1699:1724  address public DevAddress */\n    tag_39:\n      0x00\n      dup1\n      sload\n      swap1\n      0x0100\n      exp\n      swap1\n      div\n      0xffffffffffffffffffffffffffffffffffffffff\n      and\n      dup2\n      jump\t// out\n        /* \"contracts/Lottery.sol\":2079:2115  uint256 public TotalInvestmentAmount */\n    tag_44:\n      sload(0x04)\n      dup2\n      jump\t// out\n        /* \"contracts/Lottery.sol\":2239:2272  uint256 public RecentDividendTime */\n    tag_49:\n      sload(0x06)\n      dup2\n      jump\t// out\n        /* \"contracts/Lottery.sol\":4155:6544  function BuyEggs(... */\n    tag_54:\n        /* \"contracts/Lottery.sol\":1287:1297  0.02 ether */\n      0x470de4df820000\n        /* \"contracts/Lottery.sol\":4303:4312  msg.value */\n      callvalue\n        /* \"contracts/Lottery.sol\":4303:4327  msg.value >= PerEggPrice */\n      lt\n      iszero\n        /* \"contracts/Lottery.sol\":4295:4352  require(msg.value >= PerEggPrice, \"Buy at least one egg\") */\n      tag_223\n      jumpi\n      mload(0x40)\n      0x08c379a000000000000000000000000000000000000000000000000000000000\n      dup2\n      mstore\n      0x04\n      add\n      tag_224\n      swap1\n      tag_225\n      jump\t// in\n    tag_224:\n      mload(0x40)\n      dup1\n      swap2\n      sub\n      swap1\n      revert\n    tag_223:\n        /* \"contracts/Lottery.sol\":4377:4378  1 */\n      0x01\n        /* \"contracts/Lottery.sol\":4370:4373  mul */\n      dup4\n        /* \"contracts/Lottery.sol\":4370:4378  mul >= 1 */\n      0xff\n      and\n      lt\n      iszero\n        /* \"contracts/Lottery.sol\":4370:4392  mul >= 1 && mul <= 100 */\n      dup1\n      iszero\n      tag_226\n      jumpi\n      pop\n        /* \"contracts/Lottery.sol\":4389:4392  100 */\n      0x64\n        /* \"contracts/Lottery.sol\":4382:4385  mul */\n      dup4\n        /* \"contracts/Lottery.sol\":4382:4392  mul <= 100 */\n      0xff\n      and\n      gt\n      iszero\n        /* \"contracts/Lottery.sol\":4370:4392  mul >= 1 && mul <= 100 */\n    tag_226:\n        /* \"contracts/Lottery.sol\":4362:4424  require(mul >= 1 && mul <= 100, \"Multiples between 1 and 100\") */\n      tag_227\n      jumpi\n      mload(0x40)\n      0x08c379a000000000000000000000000000000000000000000000000000000000\n      dup2\n      mstore\n      0x04\n      add\n      tag_228\n      swap1\n      tag_229\n      jump\t// in\n    tag_228:\n      mload(0x40)\n      dup1\n      swap2\n      sub\n      swap1\n      revert\n    tag_227:\n        /* \"contracts/Lottery.sol\":4467:4468  1 */\n      0x01\n        /* \"contracts/Lottery.sol\":4455:4463  LotCount */\n      dup5\n        /* \"contracts/Lottery.sol\":4455:4468  LotCount >= 1 */\n      0xffff\n      and\n      lt\n      iszero\n        /* \"contracts/Lottery.sol\":4455:4488  LotCount >= 1 && LotCount <= 1000 */\n      dup1\n      iszero\n      tag_230\n      jumpi\n      pop\n        /* \"contracts/Lottery.sol\":4484:4488  1000 */\n      0x03e8\n        /* \"contracts/Lottery.sol\":4472:4480  LotCount */\n      dup5\n        /* \"contracts/Lottery.sol\":4472:4488  LotCount <= 1000 */\n      0xffff\n      and\n      gt\n      iszero\n        /* \"contracts/Lottery.sol\":4455:4488  LotCount >= 1 && LotCount <= 1000 */\n    tag_230:\n        /* \"contracts/Lottery.sol\":4434:4546  require(... */\n      tag_231\n      jumpi\n      mload(0x40)\n      0x08c379a000000000000000000000000000000000000000000000000000000000\n      dup2\n      mstore\n      0x04\n      add\n      tag_232\n      swap1\n      tag_233\n      jump\t// in\n    tag_232:\n      mload(0x40)\n      dup1\n      swap2\n      sub\n      swap1\n      revert\n    tag_231:\n        /* \"contracts/Lottery.sol\":4556:4579  uint256 AllLotteryCount */\n      0x00\n        /* \"contracts/Lottery.sol\":4582:4617  SafeMathdiv(msg.value, PerEggPrice) */\n      tag_234\n        /* \"contracts/Lottery.sol\":4594:4603  msg.value */\n      callvalue\n        /* \"contracts/Lottery.sol\":1287:1297  0.02 ether */\n      0x470de4df820000\n        /* \"contracts/Lottery.sol\":4582:4593  SafeMathdiv */\n      tag_107\n        /* \"contracts/Lottery.sol\":4582:4617  SafeMathdiv(msg.value, PerEggPrice) */\n      jump\t// in\n    tag_234:\n        /* \"contracts/Lottery.sol\":4556:4617  uint256 AllLotteryCount = SafeMathdiv(msg.value, PerEggPrice) */\n      swap1\n      pop\n        /* \"contracts/Lottery.sol\":4666:4669  mul */\n      dup4\n        /* \"contracts/Lottery.sol\":4655:4669  LotCount * mul */\n      0xff\n      and\n        /* \"contracts/Lottery.sol\":4655:4663  LotCount */\n      dup6\n        /* \"contracts/Lottery.sol\":4655:4669  LotCount * mul */\n      tag_235\n      swap2\n      swap1\n      tag_236\n      jump\t// in\n    tag_235:\n        /* \"contracts/Lottery.sol\":4636:4669  AllLotteryCount == LotCount * mul */\n      0xffff\n      and\n        /* \"contracts/Lottery.sol\":4636:4651  AllLotteryCount */\n      dup2\n        /* \"contracts/Lottery.sol\":4636:4669  AllLotteryCount == LotCount * mul */\n      eq\n        /* \"contracts/Lottery.sol\":4628:4686  require(AllLotteryCount == LotCount * mul, \"Invalid data\") */\n      tag_237\n      jumpi\n      mload(0x40)\n      0x08c379a000000000000000000000000000000000000000000000000000000000\n      dup2\n      mstore\n      0x04\n      add\n      tag_238\n      swap1\n      tag_239\n      jump\t// in\n    tag_238:\n      mload(0x40)\n      dup1\n      swap2\n      sub\n      swap1\n      revert\n    tag_237:\n        /* \"contracts/Lottery.sol\":4702:4711  uint256 i */\n      0x00\n        /* \"contracts/Lottery.sol\":4697:5183  for (uint256 i = 0; i < LotCount; i++) {... */\n    tag_240:\n        /* \"contracts/Lottery.sol\":4721:4729  LotCount */\n      dup6\n        /* \"contracts/Lottery.sol\":4717:4729  i < LotCount */\n      0xffff\n      and\n        /* \"contracts/Lottery.sol\":4717:4718  i */\n      dup2\n        /* \"contracts/Lottery.sol\":4717:4729  i < LotCount */\n      lt\n        /* \"contracts/Lottery.sol\":4697:5183  for (uint256 i = 0; i < LotCount; i++) {... */\n      iszero\n      tag_241\n      jumpi\n        /* \"contracts/Lottery.sol\":4750:4772  Egginfo memory egginfo */\n      0x00\n        /* \"contracts/Lottery.sol\":4775:5113  Egginfo(... */\n      mload(0x40)\n      dup1\n      0x60\n      add\n      0x40\n      mstore\n      dup1\n        /* \"contracts/Lottery.sol\":4873:4888  block.timestamp */\n      timestamp\n        /* \"contracts/Lottery.sol\":4914:4928  block.coinbase */\n      coinbase\n        /* \"contracts/Lottery.sol\":4954:4964  msg.sender */\n      caller\n        /* \"contracts/Lottery.sol\":4990:4999  Lucknum++ */\n      dup10\n      dup1\n      tag_243\n      swap1\n      tag_244\n      jump\t// in\n    tag_243:\n      swap11\n      pop\n        /* \"contracts/Lottery.sol\":4831:5021  abi.encodePacked(... */\n      add(0x20, mload(0x40))\n      tag_245\n      swap5\n      swap4\n      swap3\n      swap2\n      swap1\n      tag_246\n      jump\t// in\n    tag_245:\n      mload(0x40)\n      0x20\n      dup2\n      dup4\n      sub\n      sub\n      dup2\n      mstore\n      swap1\n      0x40\n      mstore\n        /* \"contracts/Lottery.sol\":4800:5039  keccak256(... */\n      dup1\n      mload\n      swap1\n      0x20\n      add\n      keccak256\n        /* \"contracts/Lottery.sol\":4775:5113  Egginfo(... */\n      dup2\n      mstore\n      0x20\n      add\n        /* \"contracts/Lottery.sol\":5057:5060  mul */\n      dup8\n        /* \"contracts/Lottery.sol\":4775:5113  Egginfo(... */\n      0xff\n      and\n      dup2\n      mstore\n      0x20\n      add\n        /* \"contracts/Lottery.sol\":5086:5098  block.number */\n      number\n        /* \"contracts/Lottery.sol\":4775:5113  Egginfo(... */\n      0xffffffffffffffffffffffffffffffffffffffffffffffffffffffffffffff\n      and\n      dup2\n      mstore\n      pop\n        /* \"contracts/Lottery.sol\":4750:5113  Egginfo memory egginfo = Egginfo(... */\n      swap1\n      pop\n        /* \"contracts/Lottery.sol\":5128:5137  UsersInfo */\n      0x09\n        /* \"contracts/Lottery.sol\":5128:5149  UsersInfo[msg.sender] */\n      0x00\n        /* \"contracts/Lottery.sol\":5138:5148  msg.sender */\n      caller\n        /* \"contracts/Lottery.sol\":5128:5149  UsersInfo[msg.sender] */\n      0xffffffffffffffffffffffffffffffffffffffff\n      and\n      0xffffffffffffffffffffffffffffffffffffffff\n      and\n      dup2\n      mstore\n      0x20\n      add\n      swap1\n      dup2\n      mstore\n      0x20\n      add\n      0x00\n      keccak256\n        /* \"contracts/Lottery.sol\":5128:5158  UsersInfo[msg.sender].eggsinfo */\n      0x00\n      add\n        /* \"contracts/Lottery.sol\":5164:5171  egginfo */\n      dup2\n        /* \"contracts/Lottery.sol\":5128:5172  UsersInfo[msg.sender].eggsinfo.push(egginfo) */\n      swap1\n      dup1\n      0x01\n      dup2\n      sload\n      add\n      dup1\n      dup3\n      sstore\n      dup1\n      swap2\n      pop\n      pop\n      0x01\n      swap1\n      sub\n      swap1\n      0x00\n      mstore\n      keccak256(0x00, 0x20)\n      swap1\n      0x02\n      mul\n      add\n      0x00\n      swap1\n      swap2\n      swap1\n      swap2\n      swap1\n      swap2\n      pop\n      0x00\n      dup3\n      add\n      mload\n      dup2\n      0x00\n      add\n      sstore\n      0x20\n      dup3\n      add\n      mload\n      dup2\n      0x01\n      add\n      exp(0x0100, 0x00)\n      dup2\n      sload\n      dup2\n      0xff\n      mul\n      not\n      and\n      swap1\n      dup4\n      0xff\n      and\n      mul\n      or\n      swap1\n      sstore\n      pop\n      0x40\n      dup3\n      add\n      mload\n      dup2\n      0x01\n      add\n      exp(0x0100, 0x01)\n      dup2\n      sload\n      dup2\n      0xffffffffffffffffffffffffffffffffffffffffffffffffffffffffffffff\n      mul\n      not\n      and\n      swap1\n      dup4\n      0xffffffffffffffffffffffffffffffffffffffffffffffffffffffffffffff\n      and\n      mul\n      or\n      swap1\n      sstore\n      pop\n      pop\n      pop\n        /* \"contracts/Lottery.sol\":4736:5183  {... */\n      pop\n        /* \"contracts/Lottery.sol\":4731:4734  i++ */\n      dup1\n      dup1\n      0x01\n      add\n      swap2\n      pop\n      pop\n        /* \"contracts/Lottery.sol\":4697:5183  for (uint256 i = 0; i < LotCount; i++) {... */\n      jump(tag_240)\n    tag_241:\n      pop\n        /* \"contracts/Lottery.sol\":5198:5207  UsersInfo */\n      0x09\n        /* \"contracts/Lottery.sol\":5198:5219  UsersInfo[msg.sender] */\n      0x00\n        /* \"contracts/Lottery.sol\":5208:5218  msg.sender */\n      caller\n        /* \"contracts/Lottery.sol\":5198:5219  UsersInfo[msg.sender] */\n      0xffffffffffffffffffffffffffffffffffffffff\n      and\n      0xffffffffffffffffffffffffffffffffffffffff\n      and\n      dup2\n      mstore\n      0x20\n      add\n      swap1\n      dup2\n      mstore\n      0x20\n      add\n      0x00\n      keccak256\n        /* \"contracts/Lottery.sol\":5198:5227  UsersInfo[msg.sender].actived */\n      0x03\n      add\n      0x00\n      swap1\n      sload\n      swap1\n      0x0100\n      exp\n      swap1\n      div\n      0xff\n      and\n        /* \"contracts/Lottery.sol\":5193:5277  if (!UsersInfo[msg.sender].actived)... */\n      tag_248\n      jumpi\n        /* \"contracts/Lottery.sol\":5273:5277  true */\n      0x01\n        /* \"contracts/Lottery.sol\":5241:5250  UsersInfo */\n      0x09\n        /* \"contracts/Lottery.sol\":5241:5262  UsersInfo[msg.sender] */\n      0x00\n        /* \"contracts/Lottery.sol\":5251:5261  msg.sender */\n      caller\n        /* \"contracts/Lottery.sol\":5241:5262  UsersInfo[msg.sender] */\n      0xffffffffffffffffffffffffffffffffffffffff\n      and\n      0xffffffffffffffffffffffffffffffffffffffff\n      and\n      dup2\n      mstore\n      0x20\n      add\n      swap1\n      dup2\n      mstore\n      0x20\n      add\n      0x00\n      keccak256\n        /* \"contracts/Lottery.sol\":5241:5270  UsersInfo[msg.sender].actived */\n      0x03\n      add\n      0x00\n        /* \"contracts/Lottery.sol\":5241:5277  UsersInfo[msg.sender].actived = true */\n      0x0100\n      exp\n      dup2\n      sload\n      dup2\n      0xff\n      mul\n      not\n      and\n      swap1\n      dup4\n      iszero\n      iszero\n      mul\n      or\n      swap1\n      sstore\n      pop\n        /* \"contracts/Lottery.sol\":5193:5277  if (!UsersInfo[msg.sender].actived)... */\n    tag_248:\n        /* \"contracts/Lottery.sol\":5312:5326  uint256 profit */\n      0x00\n        /* \"contracts/Lottery.sol\":5329:5372  SafeMathdiv(SafeMathmul(msg.value, 3), 100) */\n      tag_249\n        /* \"contracts/Lottery.sol\":5341:5366  SafeMathmul(msg.value, 3) */\n      tag_250\n        /* \"contracts/Lottery.sol\":5353:5362  msg.value */\n      callvalue\n        /* \"contracts/Lottery.sol\":5364:5365  3 */\n      0x03\n        /* \"contracts/Lottery.sol\":5341:5352  SafeMathmul */\n      tag_106\n        /* \"contracts/Lottery.sol\":5341:5366  SafeMathmul(msg.value, 3) */\n      jump\t// in\n    tag_250:\n        /* \"contracts/Lottery.sol\":5368:5371  100 */\n      0x64\n        /* \"contracts/Lottery.sol\":5329:5340  SafeMathdiv */\n      tag_107\n        /* \"contracts/Lottery.sol\":5329:5372  SafeMathdiv(SafeMathmul(msg.value, 3), 100) */\n      jump\t// in\n    tag_249:\n        /* \"contracts/Lottery.sol\":5312:5372  uint256 profit = SafeMathdiv(SafeMathmul(msg.value, 3), 100) */\n      swap1\n      pop\n        /* \"contracts/Lottery.sol\":5407:5424  uint256 Refprofit */\n      0x00\n        /* \"contracts/Lottery.sol\":5427:5470  SafeMathdiv(SafeMathmul(msg.value, 4), 100) */\n      tag_251\n        /* \"contracts/Lottery.sol\":5439:5464  SafeMathmul(msg.value, 4) */\n      tag_252\n        /* \"contracts/Lottery.sol\":5451:5460  msg.value */\n      callvalue\n        /* \"contracts/Lottery.sol\":5462:5463  4 */\n      0x04\n        /* \"contracts/Lottery.sol\":5439:5450  SafeMathmul */\n      tag_106\n        /* \"contracts/Lottery.sol\":5439:5464  SafeMathmul(msg.value, 4) */\n      jump\t// in\n    tag_252:\n        /* \"contracts/Lottery.sol\":5466:5469  100 */\n      0x64\n        /* \"contracts/Lottery.sol\":5427:5438  SafeMathdiv */\n      tag_107\n        /* \"contracts/Lottery.sol\":5427:5470  SafeMathdiv(SafeMathmul(msg.value, 4), 100) */\n      jump\t// in\n    tag_251:\n        /* \"contracts/Lottery.sol\":5407:5470  uint256 Refprofit = SafeMathdiv(SafeMathmul(msg.value, 4), 100) */\n      swap1\n      pop\n        /* \"contracts/Lottery.sol\":5523:5529  profit */\n      dup2\n        /* \"contracts/Lottery.sol\":5510:5519  DevProfit */\n      0x01\n      0x00\n        /* \"contracts/Lottery.sol\":5510:5529  DevProfit += profit */\n      dup3\n      dup3\n      sload\n      tag_253\n      swap2\n      swap1\n      tag_84\n      jump\t// in\n    tag_253:\n      swap3\n      pop\n      pop\n      dup2\n      swap1\n      sstore\n      pop\n        /* \"contracts/Lottery.sol\":5588:5594  profit */\n      dup2\n        /* \"contracts/Lottery.sol\":5569:5584  InvestorsProfit */\n      0x05\n      0x00\n        /* \"contracts/Lottery.sol\":5569:5594  InvestorsProfit += profit */\n      dup3\n      dup3\n      sload\n      tag_254\n      swap2\n      swap1\n      tag_84\n      jump\t// in\n    tag_254:\n      swap3\n      pop\n      pop\n      dup2\n      swap1\n      sstore\n      pop\n        /* \"contracts/Lottery.sol\":5687:5688  0 */\n      0x00\n        /* \"contracts/Lottery.sol\":5654:5689  referrals[msg.sender] == address(0) */\n      0xffffffffffffffffffffffffffffffffffffffff\n      and\n        /* \"contracts/Lottery.sol\":5654:5663  referrals */\n      0x0a\n        /* \"contracts/Lottery.sol\":5654:5675  referrals[msg.sender] */\n      0x00\n        /* \"contracts/Lottery.sol\":5664:5674  msg.sender */\n      caller\n        /* \"contracts/Lottery.sol\":5654:5675  referrals[msg.sender] */\n      0xffffffffffffffffffffffffffffffffffffffff\n      and\n      0xffffffffffffffffffffffffffffffffffffffff\n      and\n      dup2\n      mstore\n      0x20\n      add\n      swap1\n      dup2\n      mstore\n      0x20\n      add\n      0x00\n      keccak256\n      0x00\n      swap1\n      sload\n      swap1\n      0x0100\n      exp\n      swap1\n      div\n      0xffffffffffffffffffffffffffffffffffffffff\n      and\n        /* \"contracts/Lottery.sol\":5654:5689  referrals[msg.sender] == address(0) */\n      0xffffffffffffffffffffffffffffffffffffffff\n      and\n      sub\n        /* \"contracts/Lottery.sol\":5650:6538  if (referrals[msg.sender] == address(0)) {... */\n      tag_255\n      jumpi\n        /* \"contracts/Lottery.sol\":5863:5873  msg.sender */\n      caller\n        /* \"contracts/Lottery.sol\":5856:5873  ref == msg.sender */\n      0xffffffffffffffffffffffffffffffffffffffff\n      and\n        /* \"contracts/Lottery.sol\":5856:5859  ref */\n      dup5\n        /* \"contracts/Lottery.sol\":5856:5873  ref == msg.sender */\n      0xffffffffffffffffffffffffffffffffffffffff\n      and\n      eq\n        /* \"contracts/Lottery.sol\":5856:5910  ref == msg.sender ||... */\n      dup1\n      tag_256\n      jumpi\n      pop\n        /* \"contracts/Lottery.sol\":5908:5909  0 */\n      0x00\n        /* \"contracts/Lottery.sol\":5893:5910  ref == address(0) */\n      0xffffffffffffffffffffffffffffffffffffffff\n      and\n        /* \"contracts/Lottery.sol\":5893:5896  ref */\n      dup5\n        /* \"contracts/Lottery.sol\":5893:5910  ref == address(0) */\n      0xffffffffffffffffffffffffffffffffffffffff\n      and\n      eq\n        /* \"contracts/Lottery.sol\":5856:5910  ref == msg.sender ||... */\n    tag_256:\n        /* \"contracts/Lottery.sol\":5856:5960  ref == msg.sender ||... */\n      dup1\n      tag_257\n      jumpi\n      pop\n        /* \"contracts/Lottery.sol\":5931:5940  UsersInfo */\n      0x09\n        /* \"contracts/Lottery.sol\":5931:5952  UsersInfo[msg.sender] */\n      0x00\n        /* \"contracts/Lottery.sol\":5941:5951  msg.sender */\n      caller\n        /* \"contracts/Lottery.sol\":5931:5952  UsersInfo[msg.sender] */\n      0xffffffffffffffffffffffffffffffffffffffff\n      and\n      0xffffffffffffffffffffffffffffffffffffffff\n      and\n      dup2\n      mstore\n      0x20\n      add\n      swap1\n      dup2\n      mstore\n      0x20\n      add\n      0x00\n      keccak256\n        /* \"contracts/Lottery.sol\":5931:5960  UsersInfo[msg.sender].actived */\n      0x03\n      add\n      0x00\n      swap1\n      sload\n      swap1\n      0x0100\n      exp\n      swap1\n      div\n      0xff\n      and\n        /* \"contracts/Lottery.sol\":5930:5960  !UsersInfo[msg.sender].actived */\n      iszero\n        /* \"contracts/Lottery.sol\":5856:5960  ref == msg.sender ||... */\n    tag_257:\n        /* \"contracts/Lottery.sol\":5835:6101  if (... */\n      iszero\n      tag_258\n      jumpi\n        /* \"contracts/Lottery.sol\":6076:6086  DevAddress */\n      0x00\n      dup1\n      sload\n      swap1\n      0x0100\n      exp\n      swap1\n      div\n      0xffffffffffffffffffffffffffffffffffffffff\n      and\n        /* \"contracts/Lottery.sol\":6070:6086  ref = DevAddress */\n      swap4\n      pop\n        /* \"contracts/Lottery.sol\":5835:6101  if (... */\n    tag_258:\n        /* \"contracts/Lottery.sol\":6138:6141  ref */\n      dup4\n        /* \"contracts/Lottery.sol\":6114:6123  referrals */\n      0x0a\n        /* \"contracts/Lottery.sol\":6114:6135  referrals[msg.sender] */\n      0x00\n        /* \"contracts/Lottery.sol\":6124:6134  msg.sender */\n      caller\n        /* \"contracts/Lottery.sol\":6114:6135  referrals[msg.sender] */\n      0xffffffffffffffffffffffffffffffffffffffff\n      and\n      0xffffffffffffffffffffffffffffffffffffffff\n      and\n      dup2\n      mstore\n      0x20\n      add\n      swap1\n      dup2\n      mstore\n      0x20\n      add\n      0x00\n      keccak256\n      0x00\n        /* \"contracts/Lottery.sol\":6114:6141  referrals[msg.sender] = ref */\n      0x0100\n      exp\n      dup2\n      sload\n      dup2\n      0xffffffffffffffffffffffffffffffffffffffff\n      mul\n      not\n      and\n      swap1\n      dup4\n      0xffffffffffffffffffffffffffffffffffffffff\n      and\n      mul\n      or\n      swap1\n      sstore\n      pop\n        /* \"contracts/Lottery.sol\":6265:6275  DevAddress */\n      0x00\n      dup1\n      sload\n      swap1\n      0x0100\n      exp\n      swap1\n      div\n      0xffffffffffffffffffffffffffffffffffffffff\n      and\n        /* \"contracts/Lottery.sol\":6240:6275  referrals[msg.sender] == DevAddress */\n      0xffffffffffffffffffffffffffffffffffffffff\n      and\n        /* \"contracts/Lottery.sol\":6240:6249  referrals */\n      0x0a\n        /* \"contracts/Lottery.sol\":6240:6261  referrals[msg.sender] */\n      0x00\n        /* \"contracts/Lottery.sol\":6250:6260  msg.sender */\n      caller\n        /* \"contracts/Lottery.sol\":6240:6261  referrals[msg.sender] */\n      0xffffffffffffffffffffffffffffffffffffffff\n      and\n      0xffffffffffffffffffffffffffffffffffffffff\n      and\n      dup2\n      mstore\n      0x20\n      add\n      swap1\n      dup2\n      mstore\n      0x20\n      add\n      0x00\n      keccak256\n      0x00\n      swap1\n      sload\n      swap1\n      0x0100\n      exp\n      swap1\n      div\n      0xffffffffffffffffffffffffffffffffffffffff\n      and\n        /* \"contracts/Lottery.sol\":6240:6275  referrals[msg.sender] == DevAddress */\n      0xffffffffffffffffffffffffffffffffffffffff\n      and\n      sub\n        /* \"contracts/Lottery.sol\":6236:6481  if (referrals[msg.sender] == DevAddress) {... */\n      tag_259\n      jumpi\n        /* \"contracts/Lottery.sol\":6308:6317  Refprofit */\n      dup1\n        /* \"contracts/Lottery.sol\":6295:6304  DevProfit */\n      0x01\n      0x00\n        /* \"contracts/Lottery.sol\":6295:6317  DevProfit += Refprofit */\n      dup3\n      dup3\n      sload\n      tag_260\n      swap2\n      swap1\n      tag_84\n      jump\t// in\n    tag_260:\n      swap3\n      pop\n      pop\n      dup2\n      swap1\n      sstore\n      pop\n        /* \"contracts/Lottery.sol\":6236:6481  if (referrals[msg.sender] == DevAddress) {... */\n      jump(tag_261)\n    tag_259:\n        /* \"contracts/Lottery.sol\":6407:6416  Refprofit */\n      dup1\n        /* \"contracts/Lottery.sol\":6356:6365  UsersInfo */\n      0x09\n        /* \"contracts/Lottery.sol\":6356:6388  UsersInfo[referrals[msg.sender]] */\n      0x00\n        /* \"contracts/Lottery.sol\":6366:6375  referrals */\n      0x0a\n        /* \"contracts/Lottery.sol\":6366:6387  referrals[msg.sender] */\n      0x00\n        /* \"contracts/Lottery.sol\":6376:6386  msg.sender */\n      caller\n        /* \"contracts/Lottery.sol\":6366:6387  referrals[msg.sender] */\n      0xffffffffffffffffffffffffffffffffffffffff\n      and\n      0xffffffffffffffffffffffffffffffffffffffff\n      and\n      dup2\n      mstore\n      0x20\n      add\n      swap1\n      dup2\n      mstore\n      0x20\n      add\n      0x00\n      keccak256\n      0x00\n      swap1\n      sload\n      swap1\n      0x0100\n      exp\n      swap1\n      div\n      0xffffffffffffffffffffffffffffffffffffffff\n      and\n        /* \"contracts/Lottery.sol\":6356:6388  UsersInfo[referrals[msg.sender]] */\n      0xffffffffffffffffffffffffffffffffffffffff\n      and\n      0xffffffffffffffffffffffffffffffffffffffff\n      and\n      dup2\n      mstore\n      0x20\n      add\n      swap1\n      dup2\n      mstore\n      0x20\n      add\n      0x00\n      keccak256\n        /* \"contracts/Lottery.sol\":6356:6403  UsersInfo[referrals[msg.sender]].ReferralProfit */\n      0x02\n      add\n      0x00\n        /* \"contracts/Lottery.sol\":6356:6416  UsersInfo[referrals[msg.sender]].ReferralProfit += Refprofit */\n      dup3\n      dup3\n      sload\n      tag_262\n      swap2\n      swap1\n      tag_84\n      jump\t// in\n    tag_262:\n      swap3\n      pop\n      pop\n      dup2\n      swap1\n      sstore\n      pop\n        /* \"contracts/Lottery.sol\":6457:6466  Refprofit */\n      dup1\n        /* \"contracts/Lottery.sol\":6434:6453  TotalReferralProfit */\n      0x07\n      0x00\n        /* \"contracts/Lottery.sol\":6434:6466  TotalReferralProfit += Refprofit */\n      dup3\n      dup3\n      sload\n      tag_263\n      swap2\n      swap1\n      tag_84\n      jump\t// in\n    tag_263:\n      swap3\n      pop\n      pop\n      dup2\n      swap1\n      sstore\n      pop\n        /* \"contracts/Lottery.sol\":6236:6481  if (referrals[msg.sender] == DevAddress) {... */\n    tag_261:\n        /* \"contracts/Lottery.sol\":6512:6527  block.timestamp */\n      timestamp\n        /* \"contracts/Lottery.sol\":6495:6509  LastBuyEggTime */\n      0x08\n        /* \"contracts/Lottery.sol\":6495:6527  LastBuyEggTime = block.timestamp */\n      dup2\n      swap1\n      sstore\n      pop\n        /* \"contracts/Lottery.sol\":5650:6538  if (referrals[msg.sender] == address(0)) {... */\n    tag_255:\n        /* \"contracts/Lottery.sol\":4285:6544  {... */\n      pop\n      pop\n      pop\n        /* \"contracts/Lottery.sol\":4155:6544  function BuyEggs(... */\n      pop\n      pop\n      pop\n      pop\n      jump\t// out\n        /* \"contracts/Lottery.sol\":2170:2200  uint256 public InvestorsProfit */\n    tag_57:\n      sload(0x05)\n      dup2\n      jump\t// out\n        /* \"contracts/Lottery.sol\":16835:16963  function GetInvestmentBalance(address addr) public view returns (uint256) {... */\n    tag_63:\n        /* \"contracts/Lottery.sol\":16900:16907  uint256 */\n      0x00\n        /* \"contracts/Lottery.sol\":16926:16942  InvestorsBalance */\n      0x03\n        /* \"contracts/Lottery.sol\":16926:16948  InvestorsBalance[addr] */\n      0x00\n        /* \"contracts/Lottery.sol\":16943:16947  addr */\n      dup4\n        /* \"contracts/Lottery.sol\":16926:16948  InvestorsBalance[addr] */\n      0xffffffffffffffffffffffffffffffffffffffff\n      and\n      0xffffffffffffffffffffffffffffffffffffffff\n      and\n      dup2\n      mstore\n      0x20\n      add\n      swap1\n      dup2\n      mstore\n      0x20\n      add\n      0x00\n      keccak256\n        /* \"contracts/Lottery.sol\":16926:16956  InvestorsBalance[addr].balance */\n      0x00\n      add\n      sload\n        /* \"contracts/Lottery.sol\":16919:16956  return InvestorsBalance[addr].balance */\n      swap1\n      pop\n        /* \"contracts/Lottery.sol\":16835:16963  function GetInvestmentBalance(address addr) public view returns (uint256) {... */\n      swap2\n      swap1\n      pop\n      jump\t// out\n        /* \"contracts/Lottery.sol\":16674:16803  function GetLatestLottery() public view returns (OpenedLotInfo[] memory) {... */\n    tag_67:\n        /* \"contracts/Lottery.sol\":16723:16745  OpenedLotInfo[] memory */\n      0x60\n        /* \"contracts/Lottery.sol\":16764:16773  UsersInfo */\n      0x09\n        /* \"contracts/Lottery.sol\":16764:16785  UsersInfo[msg.sender] */\n      0x00\n        /* \"contracts/Lottery.sol\":16774:16784  msg.sender */\n      caller\n        /* \"contracts/Lottery.sol\":16764:16785  UsersInfo[msg.sender] */\n      0xffffffffffffffffffffffffffffffffffffffff\n      and\n      0xffffffffffffffffffffffffffffffffffffffff\n      and\n      dup2\n      mstore\n      0x20\n      add\n      swap1\n      dup2\n      mstore\n      0x20\n      add\n      0x00\n      keccak256\n        /* \"contracts/Lottery.sol\":16764:16796  UsersInfo[msg.sender].openedeggs */\n      0x01\n      add\n        /* \"contracts/Lottery.sol\":16757:16796  return UsersInfo[msg.sender].openedeggs */\n      dup1\n      sload\n      dup1\n      0x20\n      mul\n      0x20\n      add\n      mload(0x40)\n      swap1\n      dup2\n      add\n      0x40\n      mstore\n      dup1\n      swap3\n      swap2\n      swap1\n      dup2\n      dup2\n      mstore\n      0x20\n      add\n      0x00\n      swap1\n    tag_266:\n      dup3\n      dup3\n      lt\n      iszero\n      tag_267\n      jumpi\n      dup4\n      dup3\n      swap1\n      0x00\n      mstore\n      keccak256(0x00, 0x20)\n      add\n      mload(0x40)\n      dup1\n      0x40\n      add\n      0x40\n      mstore\n      swap1\n      dup2\n      0x00\n      dup3\n      add\n      0x00\n      swap1\n      sload\n      swap1\n      0x0100\n      exp\n      swap1\n      div\n      0xffffffff\n      and\n      0xffffffff\n      and\n      0xffffffff\n      and\n      dup2\n      mstore\n      0x20\n      add\n      0x00\n      dup3\n      add\n      0x04\n      swap1\n      sload\n      swap1\n      0x0100\n      exp\n      swap1\n      div\n      0xff\n      and\n      0xff\n      and\n      0xff\n      and\n      dup2\n      mstore\n      pop\n      pop\n      dup2\n      mstore\n      0x20\n      add\n      swap1\n      0x01\n      add\n      swap1\n      jump(tag_266)\n    tag_267:\n      pop\n      pop\n      pop\n      pop\n      swap1\n      pop\n        /* \"contracts/Lottery.sol\":16674:16803  function GetLatestLottery() public view returns (OpenedLotInfo[] memory) {... */\n      swap1\n      jump\t// out\n        /* \"contracts/Lottery.sol\":12301:13685  function InvestmentWithdrawal(uint256 WithdrawalAmount) external {... */\n    tag_73:\n        /* \"contracts/Lottery.sol\":1547:1554  1 ether */\n      0x0de0b6b3a7640000\n        /* \"contracts/Lottery.sol\":12457:12473  WithdrawalAmount */\n      dup2\n        /* \"contracts/Lottery.sol\":12457:12502  WithdrawalAmount >= Mininum_Investment_amount */\n      lt\n      iszero\n        /* \"contracts/Lottery.sol\":12436:12603  require(... */\n      tag_270\n      jumpi\n      mload(0x40)\n      0x08c379a000000000000000000000000000000000000000000000000000000000\n      dup2\n      mstore\n      0x04\n      add\n      tag_271\n      swap1\n      tag_272\n      jump\t// in\n    tag_271:\n      mload(0x40)\n      dup1\n      swap2\n      sub\n      swap1\n      revert\n    tag_270:\n        /* \"contracts/Lottery.sol\":12691:12707  InvestorsBalance */\n      0x03\n        /* \"contracts/Lottery.sol\":12691:12719  InvestorsBalance[msg.sender] */\n      0x00\n        /* \"contracts/Lottery.sol\":12708:12718  msg.sender */\n      caller\n        /* \"contracts/Lottery.sol\":12691:12719  InvestorsBalance[msg.sender] */\n      0xffffffffffffffffffffffffffffffffffffffff\n      and\n      0xffffffffffffffffffffffffffffffffffffffff\n      and\n      dup2\n      mstore\n      0x20\n      add\n      swap1\n      dup2\n      mstore\n      0x20\n      add\n      0x00\n      keccak256\n        /* \"contracts/Lottery.sol\":12691:12727  InvestorsBalance[msg.sender].balance */\n      0x00\n      add\n      sload\n        /* \"contracts/Lottery.sol\":12671:12687  WithdrawalAmount */\n      dup2\n        /* \"contracts/Lottery.sol\":12671:12727  WithdrawalAmount <= InvestorsBalance[msg.sender].balance */\n      gt\n      iszero\n        /* \"contracts/Lottery.sol\":12650:12781  require(... */\n      tag_273\n      jumpi\n      mload(0x40)\n      0x08c379a000000000000000000000000000000000000000000000000000000000\n      dup2\n      mstore\n      0x04\n      add\n      tag_274\n      swap1\n      tag_275\n      jump\t// in\n    tag_274:\n      mload(0x40)\n      dup1\n      swap2\n      sub\n      swap1\n      revert\n    tag_273:\n        /* \"contracts/Lottery.sol\":13001:13008  1 weeks */\n      0x093a80\n        /* \"contracts/Lottery.sol\":12955:12971  InvestorsBalance */\n      0x03\n        /* \"contracts/Lottery.sol\":12955:12983  InvestorsBalance[msg.sender] */\n      0x00\n        /* \"contracts/Lottery.sol\":12972:12982  msg.sender */\n      caller\n        /* \"contracts/Lottery.sol\":12955:12983  InvestorsBalance[msg.sender] */\n      0xffffffffffffffffffffffffffffffffffffffff\n      and\n      0xffffffffffffffffffffffffffffffffffffffff\n      and\n      dup2\n      mstore\n      0x20\n      add\n      swap1\n      dup2\n      mstore\n      0x20\n      add\n      0x00\n      keccak256\n        /* \"contracts/Lottery.sol\":12955:12998  InvestorsBalance[msg.sender].LastInvestTime */\n      0x01\n      add\n      sload\n        /* \"contracts/Lottery.sol\":12955:13008  InvestorsBalance[msg.sender].LastInvestTime + 1 weeks */\n      tag_276\n      swap2\n      swap1\n      tag_84\n      jump\t// in\n    tag_276:\n        /* \"contracts/Lottery.sol\":12920:12935  block.timestamp */\n      timestamp\n        /* \"contracts/Lottery.sol\":12920:13008  block.timestamp >=... */\n      lt\n      iszero\n        /* \"contracts/Lottery.sol\":12899:13065  require(... */\n      tag_277\n      jumpi\n      mload(0x40)\n      0x08c379a000000000000000000000000000000000000000000000000000000000\n      dup2\n      mstore\n      0x04\n      add\n      tag_278\n      swap1\n      tag_279\n      jump\t// in\n    tag_278:\n      mload(0x40)\n      dup1\n      swap2\n      sub\n      swap1\n      revert\n    tag_277:\n        /* \"contracts/Lottery.sol\":13300:13316  WithdrawalAmount */\n      dup1\n        /* \"contracts/Lottery.sol\":13163:13296  SafeMathsub(... */\n      tag_280\n        /* \"contracts/Lottery.sol\":13192:13213  address(this).balance */\n      selfbalance\n        /* \"contracts/Lottery.sol\":13272:13281  DevProfit */\n      sload(0x01)\n        /* \"contracts/Lottery.sol\":13250:13269  TotalReferralProfit */\n      sload(0x07)\n        /* \"contracts/Lottery.sol\":13232:13247  InvestorsProfit */\n      sload(0x05)\n        /* \"contracts/Lottery.sol\":13232:13269  InvestorsProfit + TotalReferralProfit */\n      tag_281\n      swap2\n      swap1\n      tag_84\n      jump\t// in\n    tag_281:\n        /* \"contracts/Lottery.sol\":13232:13281  InvestorsProfit + TotalReferralProfit + DevProfit */\n      tag_282\n      swap2\n      swap1\n      tag_84\n      jump\t// in\n    tag_282:\n        /* \"contracts/Lottery.sol\":13163:13174  SafeMathsub */\n      tag_86\n        /* \"contracts/Lottery.sol\":13163:13296  SafeMathsub(... */\n      jump\t// in\n    tag_280:\n        /* \"contracts/Lottery.sol\":13163:13316  SafeMathsub(... */\n      lt\n      iszero\n        /* \"contracts/Lottery.sol\":13142:13372  require(... */\n      tag_283\n      jumpi\n      mload(0x40)\n      0x08c379a000000000000000000000000000000000000000000000000000000000\n      dup2\n      mstore\n      0x04\n      add\n      tag_284\n      swap1\n      tag_285\n      jump\t// in\n    tag_284:\n      mload(0x40)\n      dup1\n      swap2\n      sub\n      swap1\n      revert\n    tag_283:\n        /* \"contracts/Lottery.sol\":13483:13499  WithdrawalAmount */\n      dup1\n        /* \"contracts/Lottery.sol\":13443:13459  InvestorsBalance */\n      0x03\n        /* \"contracts/Lottery.sol\":13443:13471  InvestorsBalance[msg.sender] */\n      0x00\n        /* \"contracts/Lottery.sol\":13460:13470  msg.sender */\n      caller\n        /* \"contracts/Lottery.sol\":13443:13471  InvestorsBalance[msg.sender] */\n      0xffffffffffffffffffffffffffffffffffffffff\n      and\n      0xffffffffffffffffffffffffffffffffffffffff\n      and\n      dup2\n      mstore\n      0x20\n      add\n      swap1\n      dup2\n      mstore\n      0x20\n      add\n      0x00\n      keccak256\n        /* \"contracts/Lottery.sol\":13443:13479  InvestorsBalance[msg.sender].balance */\n      0x00\n      add\n      0x00\n        /* \"contracts/Lottery.sol\":13443:13499  InvestorsBalance[msg.sender].balance -= WithdrawalAmount */\n      dup3\n      dup3\n      sload\n      tag_286\n      swap2\n      swap1\n      tag_121\n      jump\t// in\n    tag_286:\n      swap3\n      pop\n      pop\n      dup2\n      swap1\n      sstore\n      pop\n        /* \"contracts/Lottery.sol\":13567:13583  WithdrawalAmount */\n      dup1\n        /* \"contracts/Lottery.sol\":13542:13563  TotalInvestmentAmount */\n      0x04\n      0x00\n        /* \"contracts/Lottery.sol\":13542:13583  TotalInvestmentAmount -= WithdrawalAmount */\n      dup3\n      dup3\n      sload\n      tag_287\n      swap2\n      swap1\n      tag_121\n      jump\t// in\n    tag_287:\n      swap3\n      pop\n      pop\n      dup2\n      swap1\n      sstore\n      pop\n        /* \"contracts/Lottery.sol\":13640:13650  msg.sender */\n      caller\n        /* \"contracts/Lottery.sol\":13632:13660  payable(msg.sender).transfer */\n      0xffffffffffffffffffffffffffffffffffffffff\n      and\n        /* \"contracts/Lottery.sol\":13632:13678  payable(msg.sender).transfer(WithdrawalAmount) */\n      0x08fc\n        /* \"contracts/Lottery.sol\":13661:13677  WithdrawalAmount */\n      dup3\n        /* \"contracts/Lottery.sol\":13632:13678  payable(msg.sender).transfer(WithdrawalAmount) */\n      swap1\n      dup2\n      iszero\n      mul\n      swap1\n      mload(0x40)\n      0x00\n      mload(0x40)\n      dup1\n      dup4\n      sub\n      dup2\n      dup6\n      dup9\n      dup9\n      call\n      swap4\n      pop\n      pop\n      pop\n      pop\n      iszero\n      dup1\n      iszero\n      tag_289\n      jumpi\n      returndatasize\n      0x00\n      dup1\n      returndatacopy\n      revert(0x00, returndatasize)\n    tag_289:\n      pop\n        /* \"contracts/Lottery.sol\":12301:13685  function InvestmentWithdrawal(uint256 WithdrawalAmount) external {... */\n      pop\n      jump\t// out\n        /* \"contracts/Lottery.sol\":15806:16037  function DeveloperWithdrawal() external {... */\n    tag_76:\n        /* \"contracts/Lottery.sol\":15878:15888  DevAddress */\n      0x00\n      dup1\n      sload\n      swap1\n      0x0100\n      exp\n      swap1\n      div\n      0xffffffffffffffffffffffffffffffffffffffff\n      and\n        /* \"contracts/Lottery.sol\":15864:15888  msg.sender == DevAddress */\n      0xffffffffffffffffffffffffffffffffffffffff\n      and\n        /* \"contracts/Lottery.sol\":15864:15874  msg.sender */\n      caller\n        /* \"contracts/Lottery.sol\":15864:15888  msg.sender == DevAddress */\n      0xffffffffffffffffffffffffffffffffffffffff\n      and\n      eq\n        /* \"contracts/Lottery.sol\":15856:15918  require(msg.sender == DevAddress, \"You must be the developer\") */\n      tag_291\n      jumpi\n      mload(0x40)\n      0x08c379a000000000000000000000000000000000000000000000000000000000\n      dup2\n      mstore\n      0x04\n      add\n      tag_292\n      swap1\n      tag_293\n      jump\t// in\n    tag_292:\n      mload(0x40)\n      dup1\n      swap2\n      sub\n      swap1\n      revert\n    tag_291:\n        /* \"contracts/Lottery.sol\":15928:15945  uint256 devprofit */\n      0x00\n        /* \"contracts/Lottery.sol\":15948:15957  DevProfit */\n      sload(0x01)\n        /* \"contracts/Lottery.sol\":15928:15957  uint256 devprofit = DevProfit */\n      swap1\n      pop\n        /* \"contracts/Lottery.sol\":15979:15980  0 */\n      0x00\n        /* \"contracts/Lottery.sol\":15967:15976  DevProfit */\n      0x01\n        /* \"contracts/Lottery.sol\":15967:15980  DevProfit = 0 */\n      dup2\n      swap1\n      sstore\n      pop\n        /* \"contracts/Lottery.sol\":15999:16009  DevAddress */\n      0x00\n      dup1\n      sload\n      swap1\n      0x0100\n      exp\n      swap1\n      div\n      0xffffffffffffffffffffffffffffffffffffffff\n      and\n        /* \"contracts/Lottery.sol\":15991:16019  payable(DevAddress).transfer */\n      0xffffffffffffffffffffffffffffffffffffffff\n      and\n        /* \"contracts/Lottery.sol\":15991:16030  payable(DevAddress).transfer(devprofit) */\n      0x08fc\n        /* \"contracts/Lottery.sol\":16020:16029  devprofit */\n      dup3\n        /* \"contracts/Lottery.sol\":15991:16030  payable(DevAddress).transfer(devprofit) */\n      swap1\n      dup2\n      iszero\n      mul\n      swap1\n      mload(0x40)\n      0x00\n      mload(0x40)\n      dup1\n      dup4\n      sub\n      dup2\n      dup6\n      dup9\n      dup9\n      call\n      swap4\n      pop\n      pop\n      pop\n      pop\n      iszero\n      dup1\n      iszero\n      tag_295\n      jumpi\n      returndatasize\n      0x00\n      dup1\n      returndatacopy\n      revert(0x00, returndatasize)\n    tag_295:\n      pop\n        /* \"contracts/Lottery.sol\":15846:16037  {... */\n      pop\n        /* \"contracts/Lottery.sol\":15806:16037  function DeveloperWithdrawal() external {... */\n      jump\t// out\n        /* \"contracts/Lottery.sol\":3582:3711  function SafeMathsub(uint256 a, uint256 b) internal pure returns (uint256) {... */\n    tag_86:\n        /* \"contracts/Lottery.sol\":3648:3655  uint256 */\n      0x00\n        /* \"contracts/Lottery.sol\":3679:3680  a */\n      dup3\n        /* \"contracts/Lottery.sol\":3674:3675  b */\n      dup3\n        /* \"contracts/Lottery.sol\":3674:3680  b <= a */\n      gt\n      iszero\n        /* \"contracts/Lottery.sol\":3667:3681  assert(b <= a) */\n      tag_297\n      jumpi\n      tag_298\n      tag_299\n      jump\t// in\n    tag_298:\n    tag_297:\n        /* \"contracts/Lottery.sol\":3703:3704  b */\n      dup2\n        /* \"contracts/Lottery.sol\":3699:3700  a */\n      dup4\n        /* \"contracts/Lottery.sol\":3699:3704  a - b */\n      tag_300\n      swap2\n      swap1\n      tag_121\n      jump\t// in\n    tag_300:\n        /* \"contracts/Lottery.sol\":3692:3704  return a - b */\n      swap1\n      pop\n        /* \"contracts/Lottery.sol\":3582:3711  function SafeMathsub(uint256 a, uint256 b) internal pure returns (uint256) {... */\n      swap3\n      swap2\n      pop\n      pop\n      jump\t// out\n        /* \"contracts/Lottery.sol\":3737:3951  function SafeMathmul(uint256 a, uint256 b) internal pure returns (uint256) {... */\n    tag_106:\n        /* \"contracts/Lottery.sol\":3803:3810  uint256 */\n      0x00\n        /* \"contracts/Lottery.sol\":3831:3832  0 */\n      dup1\n        /* \"contracts/Lottery.sol\":3826:3827  a */\n      dup4\n        /* \"contracts/Lottery.sol\":3826:3832  a == 0 */\n      sub\n        /* \"contracts/Lottery.sol\":3822:3867  if (a == 0) {... */\n      tag_302\n      jumpi\n        /* \"contracts/Lottery.sol\":3855:3856  0 */\n      0x00\n        /* \"contracts/Lottery.sol\":3848:3856  return 0 */\n      swap1\n      pop\n      jump(tag_301)\n        /* \"contracts/Lottery.sol\":3822:3867  if (a == 0) {... */\n    tag_302:\n        /* \"contracts/Lottery.sol\":3877:3886  uint256 c */\n      0x00\n        /* \"contracts/Lottery.sol\":3893:3894  b */\n      dup3\n        /* \"contracts/Lottery.sol\":3889:3890  a */\n      dup5\n        /* \"contracts/Lottery.sol\":3889:3894  a * b */\n      tag_303\n      swap2\n      swap1\n      tag_194\n      jump\t// in\n    tag_303:\n        /* \"contracts/Lottery.sol\":3877:3894  uint256 c = a * b */\n      swap1\n      pop\n        /* \"contracts/Lottery.sol\":3923:3924  b */\n      dup3\n        /* \"contracts/Lottery.sol\":3917:3918  a */\n      dup5\n        /* \"contracts/Lottery.sol\":3913:3914  c */\n      dup3\n        /* \"contracts/Lottery.sol\":3913:3918  c / a */\n      tag_304\n      swap2\n      swap1\n      tag_89\n      jump\t// in\n    tag_304:\n        /* \"contracts/Lottery.sol\":3912:3924  (c / a) == b */\n      eq\n        /* \"contracts/Lottery.sol\":3905:3925  assert((c / a) == b) */\n      tag_305\n      jumpi\n      tag_306\n      tag_299\n      jump\t// in\n    tag_306:\n    tag_305:\n        /* \"contracts/Lottery.sol\":3943:3944  c */\n      dup1\n        /* \"contracts/Lottery.sol\":3936:3944  return c */\n      swap2\n      pop\n      pop\n        /* \"contracts/Lottery.sol\":3737:3951  function SafeMathmul(uint256 a, uint256 b) internal pure returns (uint256) {... */\n    tag_301:\n      swap3\n      swap2\n      pop\n      pop\n      jump\t// out\n        /* \"contracts/Lottery.sol\":3977:4129  function SafeMathdiv(uint256 a, uint256 b) internal pure returns (uint256) {... */\n    tag_107:\n        /* \"contracts/Lottery.sol\":4043:4050  uint256 */\n      0x00\n        /* \"contracts/Lottery.sol\":4073:4074  0 */\n      dup1\n        /* \"contracts/Lottery.sol\":4069:4070  b */\n      dup3\n        /* \"contracts/Lottery.sol\":4069:4074  b > 0 */\n      gt\n        /* \"contracts/Lottery.sol\":4062:4075  assert(b > 0) */\n      tag_308\n      jumpi\n      tag_309\n      tag_299\n      jump\t// in\n    tag_309:\n    tag_308:\n        /* \"contracts/Lottery.sol\":4086:4095  uint256 c */\n      0x00\n        /* \"contracts/Lottery.sol\":4102:4103  b */\n      dup3\n        /* \"contracts/Lottery.sol\":4098:4099  a */\n      dup5\n        /* \"contracts/Lottery.sol\":4098:4103  a / b */\n      tag_310\n      swap2\n      swap1\n      tag_89\n      jump\t// in\n    tag_310:\n        /* \"contracts/Lottery.sol\":4086:4103  uint256 c = a / b */\n      swap1\n      pop\n        /* \"contracts/Lottery.sol\":4121:4122  c */\n      dup1\n        /* \"contracts/Lottery.sol\":4114:4122  return c */\n      swap2\n      pop\n      pop\n        /* \"contracts/Lottery.sol\":3977:4129  function SafeMathdiv(uint256 a, uint256 b) internal pure returns (uint256) {... */\n      swap3\n      swap2\n      pop\n      pop\n      jump\t// out\n        /* \"contracts/Lottery.sol\":6594:7176  function GetWinninggrade(uint32 LotteryNum) private pure returns (uint256) {... */\n    tag_186:\n        /* \"contracts/Lottery.sol\":6660:6667  uint256 */\n      0x00\n        /* \"contracts/Lottery.sol\":6696:6704  67108864 */\n      0x04000000\n        /* \"contracts/Lottery.sol\":6683:6693  LotteryNum */\n      dup3\n        /* \"contracts/Lottery.sol\":6683:6704  LotteryNum > 67108864 */\n      0xffffffff\n      and\n      gt\n        /* \"contracts/Lottery.sol\":6679:6714  if (LotteryNum > 67108864) return 0 */\n      iszero\n      tag_312\n      jumpi\n        /* \"contracts/Lottery.sol\":6713:6714  0 */\n      0x00\n        /* \"contracts/Lottery.sol\":6706:6714  return 0 */\n      swap1\n      pop\n      jump(tag_311)\n        /* \"contracts/Lottery.sol\":6679:6714  if (LotteryNum > 67108864) return 0 */\n    tag_312:\n        /* \"contracts/Lottery.sol\":6742:6750  16777216 */\n      0x01000000\n        /* \"contracts/Lottery.sol\":6728:6738  LotteryNum */\n      dup3\n        /* \"contracts/Lottery.sol\":6728:6750  LotteryNum >= 16777216 */\n      0xffffffff\n      and\n      lt\n        /* \"contracts/Lottery.sol\":6724:6761  if (LotteryNum >= 16777216) return 10 */\n      tag_313\n      jumpi\n        /* \"contracts/Lottery.sol\":6759:6761  10 */\n      0x0a\n        /* \"contracts/Lottery.sol\":6752:6761  return 10 */\n      swap1\n      pop\n      jump(tag_311)\n        /* \"contracts/Lottery.sol\":6724:6761  if (LotteryNum >= 16777216) return 10 */\n    tag_313:\n        /* \"contracts/Lottery.sol\":6789:6796  4194304 */\n      0x400000\n        /* \"contracts/Lottery.sol\":6775:6785  LotteryNum */\n      dup3\n        /* \"contracts/Lottery.sol\":6775:6796  LotteryNum >= 4194304 */\n      0xffffffff\n      and\n      lt\n        /* \"contracts/Lottery.sol\":6771:6806  if (LotteryNum >= 4194304) return 9 */\n      tag_314\n      jumpi\n        /* \"contracts/Lottery.sol\":6805:6806  9 */\n      0x09\n        /* \"contracts/Lottery.sol\":6798:6806  return 9 */\n      swap1\n      pop\n      jump(tag_311)\n        /* \"contracts/Lottery.sol\":6771:6806  if (LotteryNum >= 4194304) return 9 */\n    tag_314:\n        /* \"contracts/Lottery.sol\":6834:6841  1048576 */\n      0x100000\n        /* \"contracts/Lottery.sol\":6820:6830  LotteryNum */\n      dup3\n        /* \"contracts/Lottery.sol\":6820:6841  LotteryNum >= 1048576 */\n      0xffffffff\n      and\n      lt\n        /* \"contracts/Lottery.sol\":6816:6851  if (LotteryNum >= 1048576) return 8 */\n      tag_315\n      jumpi\n        /* \"contracts/Lottery.sol\":6850:6851  8 */\n      0x08\n        /* \"contracts/Lottery.sol\":6843:6851  return 8 */\n      swap1\n      pop\n      jump(tag_311)\n        /* \"contracts/Lottery.sol\":6816:6851  if (LotteryNum >= 1048576) return 8 */\n    tag_315:\n        /* \"contracts/Lottery.sol\":6879:6885  262144 */\n      0x040000\n        /* \"contracts/Lottery.sol\":6865:6875  LotteryNum */\n      dup3\n        /* \"contracts/Lottery.sol\":6865:6885  LotteryNum >= 262144 */\n      0xffffffff\n      and\n      lt\n        /* \"contracts/Lottery.sol\":6861:6895  if (LotteryNum >= 262144) return 7 */\n      tag_316\n      jumpi\n        /* \"contracts/Lottery.sol\":6894:6895  7 */\n      0x07\n        /* \"contracts/Lottery.sol\":6887:6895  return 7 */\n      swap1\n      pop\n      jump(tag_311)\n        /* \"contracts/Lottery.sol\":6861:6895  if (LotteryNum >= 262144) return 7 */\n    tag_316:\n        /* \"contracts/Lottery.sol\":6923:6928  65536 */\n      0x010000\n        /* \"contracts/Lottery.sol\":6909:6919  LotteryNum */\n      dup3\n        /* \"contracts/Lottery.sol\":6909:6928  LotteryNum >= 65536 */\n      0xffffffff\n      and\n      lt\n        /* \"contracts/Lottery.sol\":6905:6938  if (LotteryNum >= 65536) return 6 */\n      tag_317\n      jumpi\n        /* \"contracts/Lottery.sol\":6937:6938  6 */\n      0x06\n        /* \"contracts/Lottery.sol\":6930:6938  return 6 */\n      swap1\n      pop\n      jump(tag_311)\n        /* \"contracts/Lottery.sol\":6905:6938  if (LotteryNum >= 65536) return 6 */\n    tag_317:\n        /* \"contracts/Lottery.sol\":6966:6971  16384 */\n      0x4000\n        /* \"contracts/Lottery.sol\":6952:6962  LotteryNum */\n      dup3\n        /* \"contracts/Lottery.sol\":6952:6971  LotteryNum >= 16384 */\n      0xffffffff\n      and\n      lt\n        /* \"contracts/Lottery.sol\":6948:6981  if (LotteryNum >= 16384) return 5 */\n      tag_318\n      jumpi\n        /* \"contracts/Lottery.sol\":6980:6981  5 */\n      0x05\n        /* \"contracts/Lottery.sol\":6973:6981  return 5 */\n      swap1\n      pop\n      jump(tag_311)\n        /* \"contracts/Lottery.sol\":6948:6981  if (LotteryNum >= 16384) return 5 */\n    tag_318:\n        /* \"contracts/Lottery.sol\":7009:7013  4096 */\n      0x1000\n        /* \"contracts/Lottery.sol\":6995:7005  LotteryNum */\n      dup3\n        /* \"contracts/Lottery.sol\":6995:7013  LotteryNum >= 4096 */\n      0xffffffff\n      and\n      lt\n        /* \"contracts/Lottery.sol\":6991:7023  if (LotteryNum >= 4096) return 4 */\n      tag_319\n      jumpi\n        /* \"contracts/Lottery.sol\":7022:7023  4 */\n      0x04\n        /* \"contracts/Lottery.sol\":7015:7023  return 4 */\n      swap1\n      pop\n      jump(tag_311)\n        /* \"contracts/Lottery.sol\":6991:7023  if (LotteryNum >= 4096) return 4 */\n    tag_319:\n        /* \"contracts/Lottery.sol\":7051:7055  1024 */\n      0x0400\n        /* \"contracts/Lottery.sol\":7037:7047  LotteryNum */\n      dup3\n        /* \"contracts/Lottery.sol\":7037:7055  LotteryNum >= 1024 */\n      0xffffffff\n      and\n      lt\n        /* \"contracts/Lottery.sol\":7033:7065  if (LotteryNum >= 1024) return 3 */\n      tag_320\n      jumpi\n        /* \"contracts/Lottery.sol\":7064:7065  3 */\n      0x03\n        /* \"contracts/Lottery.sol\":7057:7065  return 3 */\n      swap1\n      pop\n      jump(tag_311)\n        /* \"contracts/Lottery.sol\":7033:7065  if (LotteryNum >= 1024) return 3 */\n    tag_320:\n        /* \"contracts/Lottery.sol\":7093:7096  256 */\n      0x0100\n        /* \"contracts/Lottery.sol\":7079:7089  LotteryNum */\n      dup3\n        /* \"contracts/Lottery.sol\":7079:7096  LotteryNum >= 256 */\n      0xffffffff\n      and\n      lt\n        /* \"contracts/Lottery.sol\":7075:7170  if (LotteryNum >= 256) {... */\n      tag_321\n      jumpi\n        /* \"contracts/Lottery.sol\":7119:7120  2 */\n      0x02\n        /* \"contracts/Lottery.sol\":7112:7120  return 2 */\n      swap1\n      pop\n      jump(tag_311)\n        /* \"contracts/Lottery.sol\":7075:7170  if (LotteryNum >= 256) {... */\n    tag_321:\n        /* \"contracts/Lottery.sol\":7158:7159  1 */\n      0x01\n        /* \"contracts/Lottery.sol\":7151:7159  return 1 */\n      swap1\n      pop\n        /* \"contracts/Lottery.sol\":6594:7176  function GetWinninggrade(uint32 LotteryNum) private pure returns (uint256) {... */\n    tag_311:\n      swap2\n      swap1\n      pop\n      jump\t// out\n        /* \"contracts/Lottery.sol\":7226:7831  function GetWinningmultiple(uint256 winninginfo)... */\n    tag_192:\n        /* \"contracts/Lottery.sol\":7321:7328  uint256 */\n      0x00\n        /* \"contracts/Lottery.sol\":7363:7364  0 */\n      dup1\n        /* \"contracts/Lottery.sol\":7348:7359  winninginfo */\n      dup3\n        /* \"contracts/Lottery.sol\":7348:7364  winninginfo == 0 */\n      sub\n        /* \"contracts/Lottery.sol\":7344:7374  if (winninginfo == 0) return 0 */\n      tag_324\n      jumpi\n        /* \"contracts/Lottery.sol\":7373:7374  0 */\n      0x00\n        /* \"contracts/Lottery.sol\":7366:7374  return 0 */\n      swap1\n      pop\n      jump(tag_323)\n        /* \"contracts/Lottery.sol\":7344:7374  if (winninginfo == 0) return 0 */\n    tag_324:\n        /* \"contracts/Lottery.sol\":7403:7405  10 */\n      0x0a\n        /* \"contracts/Lottery.sol\":7388:7399  winninginfo */\n      dup3\n        /* \"contracts/Lottery.sol\":7388:7405  winninginfo == 10 */\n      sub\n        /* \"contracts/Lottery.sol\":7384:7415  if (winninginfo == 10) return 5 */\n      tag_325\n      jumpi\n        /* \"contracts/Lottery.sol\":7414:7415  5 */\n      0x05\n        /* \"contracts/Lottery.sol\":7407:7415  return 5 */\n      swap1\n      pop\n      jump(tag_323)\n        /* \"contracts/Lottery.sol\":7384:7415  if (winninginfo == 10) return 5 */\n    tag_325:\n        /* \"contracts/Lottery.sol\":7444:7445  9 */\n      0x09\n        /* \"contracts/Lottery.sol\":7429:7440  winninginfo */\n      dup3\n        /* \"contracts/Lottery.sol\":7429:7445  winninginfo == 9 */\n      sub\n        /* \"contracts/Lottery.sol\":7425:7456  if (winninginfo == 9) return 20 */\n      tag_326\n      jumpi\n        /* \"contracts/Lottery.sol\":7454:7456  20 */\n      0x14\n        /* \"contracts/Lottery.sol\":7447:7456  return 20 */\n      swap1\n      pop\n      jump(tag_323)\n        /* \"contracts/Lottery.sol\":7425:7456  if (winninginfo == 9) return 20 */\n    tag_326:\n        /* \"contracts/Lottery.sol\":7485:7486  8 */\n      0x08\n        /* \"contracts/Lottery.sol\":7470:7481  winninginfo */\n      dup3\n        /* \"contracts/Lottery.sol\":7470:7486  winninginfo == 8 */\n      sub\n        /* \"contracts/Lottery.sol\":7466:7497  if (winninginfo == 8) return 80 */\n      tag_327\n      jumpi\n        /* \"contracts/Lottery.sol\":7495:7497  80 */\n      0x50\n        /* \"contracts/Lottery.sol\":7488:7497  return 80 */\n      swap1\n      pop\n      jump(tag_323)\n        /* \"contracts/Lottery.sol\":7466:7497  if (winninginfo == 8) return 80 */\n    tag_327:\n        /* \"contracts/Lottery.sol\":7526:7527  7 */\n      0x07\n        /* \"contracts/Lottery.sol\":7511:7522  winninginfo */\n      dup3\n        /* \"contracts/Lottery.sol\":7511:7527  winninginfo == 7 */\n      sub\n        /* \"contracts/Lottery.sol\":7507:7539  if (winninginfo == 7) return 320 */\n      tag_328\n      jumpi\n        /* \"contracts/Lottery.sol\":7536:7539  320 */\n      0x0140\n        /* \"contracts/Lottery.sol\":7529:7539  return 320 */\n      swap1\n      pop\n      jump(tag_323)\n        /* \"contracts/Lottery.sol\":7507:7539  if (winninginfo == 7) return 320 */\n    tag_328:\n        /* \"contracts/Lottery.sol\":7568:7569  6 */\n      0x06\n        /* \"contracts/Lottery.sol\":7553:7564  winninginfo */\n      dup3\n        /* \"contracts/Lottery.sol\":7553:7569  winninginfo == 6 */\n      sub\n        /* \"contracts/Lottery.sol\":7549:7582  if (winninginfo == 6) return 1200 */\n      tag_329\n      jumpi\n        /* \"contracts/Lottery.sol\":7578:7582  1200 */\n      0x04b0\n        /* \"contracts/Lottery.sol\":7571:7582  return 1200 */\n      swap1\n      pop\n      jump(tag_323)\n        /* \"contracts/Lottery.sol\":7549:7582  if (winninginfo == 6) return 1200 */\n    tag_329:\n        /* \"contracts/Lottery.sol\":7611:7612  5 */\n      0x05\n        /* \"contracts/Lottery.sol\":7596:7607  winninginfo */\n      dup3\n        /* \"contracts/Lottery.sol\":7596:7612  winninginfo == 5 */\n      sub\n        /* \"contracts/Lottery.sol\":7592:7625  if (winninginfo == 5) return 4800 */\n      tag_330\n      jumpi\n        /* \"contracts/Lottery.sol\":7621:7625  4800 */\n      0x12c0\n        /* \"contracts/Lottery.sol\":7614:7625  return 4800 */\n      swap1\n      pop\n      jump(tag_323)\n        /* \"contracts/Lottery.sol\":7592:7625  if (winninginfo == 5) return 4800 */\n    tag_330:\n        /* \"contracts/Lottery.sol\":7654:7655  4 */\n      0x04\n        /* \"contracts/Lottery.sol\":7639:7650  winninginfo */\n      dup3\n        /* \"contracts/Lottery.sol\":7639:7655  winninginfo == 4 */\n      sub\n        /* \"contracts/Lottery.sol\":7635:7669  if (winninginfo == 4) return 20000 */\n      tag_331\n      jumpi\n        /* \"contracts/Lottery.sol\":7664:7669  20000 */\n      0x4e20\n        /* \"contracts/Lottery.sol\":7657:7669  return 20000 */\n      swap1\n      pop\n      jump(tag_323)\n        /* \"contracts/Lottery.sol\":7635:7669  if (winninginfo == 4) return 20000 */\n    tag_331:\n        /* \"contracts/Lottery.sol\":7698:7699  3 */\n      0x03\n        /* \"contracts/Lottery.sol\":7683:7694  winninginfo */\n      dup3\n        /* \"contracts/Lottery.sol\":7683:7699  winninginfo == 3 */\n      sub\n        /* \"contracts/Lottery.sol\":7679:7714  if (winninginfo == 3) return 100000 */\n      tag_332\n      jumpi\n        /* \"contracts/Lottery.sol\":7708:7714  100000 */\n      0x0186a0\n        /* \"contracts/Lottery.sol\":7701:7714  return 100000 */\n      swap1\n      pop\n      jump(tag_323)\n        /* \"contracts/Lottery.sol\":7679:7714  if (winninginfo == 3) return 100000 */\n    tag_332:\n        /* \"contracts/Lottery.sol\":7743:7744  2 */\n      0x02\n        /* \"contracts/Lottery.sol\":7728:7739  winninginfo */\n      dup3\n        /* \"contracts/Lottery.sol\":7728:7744  winninginfo == 2 */\n      sub\n        /* \"contracts/Lottery.sol\":7724:7759  if (winninginfo == 2) return 500000 */\n      tag_333\n      jumpi\n        /* \"contracts/Lottery.sol\":7753:7759  500000 */\n      0x07a120\n        /* \"contracts/Lottery.sol\":7746:7759  return 500000 */\n      swap1\n      pop\n      jump(tag_323)\n        /* \"contracts/Lottery.sol\":7724:7759  if (winninginfo == 2) return 500000 */\n    tag_333:\n        /* \"contracts/Lottery.sol\":7788:7789  1 */\n      0x01\n        /* \"contracts/Lottery.sol\":7773:7784  winninginfo */\n      dup3\n        /* \"contracts/Lottery.sol\":7773:7789  winninginfo == 1 */\n      sub\n        /* \"contracts/Lottery.sol\":7769:7805  if (winninginfo == 1) return 2000000 */\n      tag_334\n      jumpi\n        /* \"contracts/Lottery.sol\":7798:7805  2000000 */\n      0x1e8480\n        /* \"contracts/Lottery.sol\":7791:7805  return 2000000 */\n      swap1\n      pop\n      jump(tag_323)\n        /* \"contracts/Lottery.sol\":7769:7805  if (winninginfo == 1) return 2000000 */\n    tag_334:\n        /* \"contracts/Lottery.sol\":7823:7824  0 */\n      0x00\n        /* \"contracts/Lottery.sol\":7816:7824  return 0 */\n      swap1\n      pop\n        /* \"contracts/Lottery.sol\":7226:7831  function GetWinningmultiple(uint256 winninginfo)... */\n    tag_323:\n      swap2\n      swap1\n      pop\n      jump\t// out\n    tag_132:\n      mload(0x40)\n      dup1\n      0x80\n      add\n      0x40\n      mstore\n      dup1\n      and(0xffffffff, 0x00)\n      dup2\n      mstore\n      0x20\n      add\n      and(0xff, 0x00)\n      dup2\n      mstore\n      0x20\n      add\n      0x00\n      dup2\n      mstore\n      0x20\n      add\n      and(0xffffffffffffffffffffffffffffffffffffffff, 0x00)\n      dup2\n      mstore\n      pop\n      swap1\n      jump\t// out\n    tag_169:\n      pop\n      dup1\n      sload\n      0x00\n      dup3\n      sstore\n      swap1\n      0x00\n      mstore\n      keccak256(0x00, 0x20)\n      swap1\n      dup2\n      add\n      swap1\n      tag_336\n      swap2\n      swap1\n      tag_337\n      jump\t// in\n    tag_336:\n      pop\n      jump\t// out\n    tag_206:\n      pop\n      dup1\n      sload\n      0x00\n      dup3\n      sstore\n      0x02\n      mul\n      swap1\n      0x00\n      mstore\n      keccak256(0x00, 0x20)\n      swap1\n      dup2\n      add\n      swap1\n      tag_339\n      swap2\n      swap1\n      tag_340\n      jump\t// in\n    tag_339:\n      pop\n      jump\t// out\n    tag_337:\n    tag_341:\n      dup1\n      dup3\n      gt\n      iszero\n      tag_342\n      jumpi\n      0x00\n      dup1\n      dup3\n      add\n      exp(0x0100, 0x00)\n      dup2\n      sload\n      swap1\n      0xffffffff\n      mul\n      not\n      and\n      swap1\n      sstore\n      0x00\n      dup3\n      add\n      exp(0x0100, 0x04)\n      dup2\n      sload\n      swap1\n      0xff\n      mul\n      not\n      and\n      swap1\n      sstore\n      pop\n      0x01\n      add\n      jump(tag_341)\n    tag_342:\n      pop\n      swap1\n      jump\t// out\n    tag_340:\n    tag_343:\n      dup1\n      dup3\n      gt\n      iszero\n      tag_344\n      jumpi\n      0x00\n      dup1\n      dup3\n      add\n      0x00\n      swap1\n      sstore\n      0x01\n      dup3\n      add\n      exp(0x0100, 0x00)\n      dup2\n      sload\n      swap1\n      0xff\n      mul\n      not\n      and\n      swap1\n      sstore\n      0x01\n      dup3\n      add\n      exp(0x0100, 0x01)\n      dup2\n      sload\n      swap1\n      0xffffffffffffffffffffffffffffffffffffffffffffffffffffffffffffff\n      mul\n      not\n      and\n      swap1\n      sstore\n      pop\n      0x02\n      add\n      jump(tag_343)\n    tag_344:\n      pop\n      swap1\n      jump\t// out\n        /* \"#utility.yul\":88:205   */\n    tag_346:\n        /* \"#utility.yul\":197:198   */\n      0x00\n        /* \"#utility.yul\":194:195   */\n      dup1\n        /* \"#utility.yul\":187:199   */\n      revert\n        /* \"#utility.yul\":334:411   */\n    tag_348:\n        /* \"#utility.yul\":371:378   */\n      0x00\n        /* \"#utility.yul\":400:405   */\n      dup2\n        /* \"#utility.yul\":389:405   */\n      swap1\n      pop\n        /* \"#utility.yul\":334:411   */\n      swap2\n      swap1\n      pop\n      jump\t// out\n        /* \"#utility.yul\":417:539   */\n    tag_349:\n        /* \"#utility.yul\":490:514   */\n      tag_437\n        /* \"#utility.yul\":508:513   */\n      dup2\n        /* \"#utility.yul\":490:514   */\n      tag_348\n      jump\t// in\n    tag_437:\n        /* \"#utility.yul\":483:488   */\n      dup2\n        /* \"#utility.yul\":480:515   */\n      eq\n        /* \"#utility.yul\":470:533   */\n      tag_438\n      jumpi\n        /* \"#utility.yul\":529:530   */\n      0x00\n        /* \"#utility.yul\":526:527   */\n      dup1\n        /* \"#utility.yul\":519:531   */\n      revert\n        /* \"#utility.yul\":470:533   */\n    tag_438:\n        /* \"#utility.yul\":417:539   */\n      pop\n      jump\t// out\n        /* \"#utility.yul\":545:684   */\n    tag_350:\n        /* \"#utility.yul\":591:596   */\n      0x00\n        /* \"#utility.yul\":629:635   */\n      dup2\n        /* \"#utility.yul\":616:636   */\n      calldataload\n        /* \"#utility.yul\":607:636   */\n      swap1\n      pop\n        /* \"#utility.yul\":645:678   */\n      tag_440\n        /* \"#utility.yul\":672:677   */\n      dup2\n        /* \"#utility.yul\":645:678   */\n      tag_349\n      jump\t// in\n    tag_440:\n        /* \"#utility.yul\":545:684   */\n      swap3\n      swap2\n      pop\n      pop\n      jump\t// out\n        /* \"#utility.yul\":690:1019   */\n    tag_28:\n        /* \"#utility.yul\":749:755   */\n      0x00\n        /* \"#utility.yul\":798:800   */\n      0x20\n        /* \"#utility.yul\":786:795   */\n      dup3\n        /* \"#utility.yul\":777:784   */\n      dup5\n        /* \"#utility.yul\":773:796   */\n      sub\n        /* \"#utility.yul\":769:801   */\n      slt\n        /* \"#utility.yul\":766:885   */\n      iszero\n      tag_442\n      jumpi\n        /* \"#utility.yul\":804:883   */\n      tag_443\n      tag_346\n      jump\t// in\n    tag_443:\n        /* \"#utility.yul\":766:885   */\n    tag_442:\n        /* \"#utility.yul\":924:925   */\n      0x00\n        /* \"#utility.yul\":949:1002   */\n      tag_444\n        /* \"#utility.yul\":994:1001   */\n      dup5\n        /* \"#utility.yul\":985:991   */\n      dup3\n        /* \"#utility.yul\":974:983   */\n      dup6\n        /* \"#utility.yul\":970:992   */\n      add\n        /* \"#utility.yul\":949:1002   */\n      tag_350\n      jump\t// in\n    tag_444:\n        /* \"#utility.yul\":939:1002   */\n      swap2\n      pop\n        /* \"#utility.yul\":895:1012   */\n      pop\n        /* \"#utility.yul\":690:1019   */\n      swap3\n      swap2\n      pop\n      pop\n      jump\t// out\n        /* \"#utility.yul\":1025:1166   */\n    tag_351:\n        /* \"#utility.yul\":1119:1125   */\n      0x00\n        /* \"#utility.yul\":1153:1158   */\n      dup2\n        /* \"#utility.yul\":1147:1159   */\n      mload\n        /* \"#utility.yul\":1137:1159   */\n      swap1\n      pop\n        /* \"#utility.yul\":1025:1166   */\n      swap2\n      swap1\n      pop\n      jump\t// out\n        /* \"#utility.yul\":1172:1383   */\n    tag_352:\n        /* \"#utility.yul\":1298:1309   */\n      0x00\n        /* \"#utility.yul\":1332:1338   */\n      dup3\n        /* \"#utility.yul\":1327:1330   */\n      dup3\n        /* \"#utility.yul\":1320:1339   */\n      mstore\n        /* \"#utility.yul\":1372:1376   */\n      0x20\n        /* \"#utility.yul\":1367:1370   */\n      dup3\n        /* \"#utility.yul\":1363:1377   */\n      add\n        /* \"#utility.yul\":1348:1377   */\n      swap1\n      pop\n        /* \"#utility.yul\":1172:1383   */\n      swap3\n      swap2\n      pop\n      pop\n      jump\t// out\n        /* \"#utility.yul\":1389:1548   */\n    tag_353:\n        /* \"#utility.yul\":1483:1487   */\n      0x00\n        /* \"#utility.yul\":1506:1509   */\n      dup2\n        /* \"#utility.yul\":1498:1509   */\n      swap1\n      pop\n        /* \"#utility.yul\":1536:1540   */\n      0x20\n        /* \"#utility.yul\":1531:1534   */\n      dup3\n        /* \"#utility.yul\":1527:1541   */\n      add\n        /* \"#utility.yul\":1519:1541   */\n      swap1\n      pop\n        /* \"#utility.yul\":1389:1548   */\n      swap2\n      swap1\n      pop\n      jump\t// out\n        /* \"#utility.yul\":1554:1647   */\n    tag_354:\n        /* \"#utility.yul\":1590:1597   */\n      0x00\n        /* \"#utility.yul\":1630:1640   */\n      0xffffffff\n        /* \"#utility.yul\":1623:1628   */\n      dup3\n        /* \"#utility.yul\":1619:1641   */\n      and\n        /* \"#utility.yul\":1608:1641   */\n      swap1\n      pop\n        /* \"#utility.yul\":1554:1647   */\n      swap2\n      swap1\n      pop\n      jump\t// out\n        /* \"#utility.yul\":1653:1758   */\n    tag_355:\n        /* \"#utility.yul\":1728:1751   */\n      tag_450\n        /* \"#utility.yul\":1745:1750   */\n      dup2\n        /* \"#utility.yul\":1728:1751   */\n      tag_354\n      jump\t// in\n    tag_450:\n        /* \"#utility.yul\":1723:1726   */\n      dup3\n        /* \"#utility.yul\":1716:1752   */\n      mstore\n        /* \"#utility.yul\":1653:1758   */\n      pop\n      pop\n      jump\t// out\n        /* \"#utility.yul\":1764:1850   */\n    tag_356:\n        /* \"#utility.yul\":1799:1806   */\n      0x00\n        /* \"#utility.yul\":1839:1843   */\n      0xff\n        /* \"#utility.yul\":1832:1837   */\n      dup3\n        /* \"#utility.yul\":1828:1844   */\n      and\n        /* \"#utility.yul\":1817:1844   */\n      swap1\n      pop\n        /* \"#utility.yul\":1764:1850   */\n      swap2\n      swap1\n      pop\n      jump\t// out\n        /* \"#utility.yul\":1856:1958   */\n    tag_357:\n        /* \"#utility.yul\":1929:1951   */\n      tag_453\n        /* \"#utility.yul\":1945:1950   */\n      dup2\n        /* \"#utility.yul\":1929:1951   */\n      tag_356\n      jump\t// in\n    tag_453:\n        /* \"#utility.yul\":1924:1927   */\n      dup3\n        /* \"#utility.yul\":1917:1952   */\n      mstore\n        /* \"#utility.yul\":1856:1958   */\n      pop\n      pop\n      jump\t// out\n        /* \"#utility.yul\":1964:2072   */\n    tag_358:\n        /* \"#utility.yul\":2041:2065   */\n      tag_455\n        /* \"#utility.yul\":2059:2064   */\n      dup2\n        /* \"#utility.yul\":2041:2065   */\n      tag_348\n      jump\t// in\n    tag_455:\n        /* \"#utility.yul\":2036:2039   */\n      dup3\n        /* \"#utility.yul\":2029:2066   */\n      mstore\n        /* \"#utility.yul\":1964:2072   */\n      pop\n      pop\n      jump\t// out\n        /* \"#utility.yul\":2078:2204   */\n    tag_359:\n        /* \"#utility.yul\":2115:2122   */\n      0x00\n        /* \"#utility.yul\":2155:2197   */\n      0xffffffffffffffffffffffffffffffffffffffff\n        /* \"#utility.yul\":2148:2153   */\n      dup3\n        /* \"#utility.yul\":2144:2198   */\n      and\n        /* \"#utility.yul\":2133:2198   */\n      swap1\n      pop\n        /* \"#utility.yul\":2078:2204   */\n      swap2\n      swap1\n      pop\n      jump\t// out\n        /* \"#utility.yul\":2210:2306   */\n    tag_360:\n        /* \"#utility.yul\":2247:2254   */\n      0x00\n        /* \"#utility.yul\":2276:2300   */\n      tag_458\n        /* \"#utility.yul\":2294:2299   */\n      dup3\n        /* \"#utility.yul\":2276:2300   */\n      tag_359\n      jump\t// in\n    tag_458:\n        /* \"#utility.yul\":2265:2300   */\n      swap1\n      pop\n        /* \"#utility.yul\":2210:2306   */\n      swap2\n      swap1\n      pop\n      jump\t// out\n        /* \"#utility.yul\":2312:2420   */\n    tag_361:\n        /* \"#utility.yul\":2389:2413   */\n      tag_460\n        /* \"#utility.yul\":2407:2412   */\n      dup2\n        /* \"#utility.yul\":2389:2413   */\n      tag_360\n      jump\t// in\n    tag_460:\n        /* \"#utility.yul\":2384:2387   */\n      dup3\n        /* \"#utility.yul\":2377:2414   */\n      mstore\n        /* \"#utility.yul\":2312:2420   */\n      pop\n      pop\n      jump\t// out\n        /* \"#utility.yul\":2498:3353   */\n    tag_362:\n        /* \"#utility.yul\":2639:2643   */\n      0x80\n        /* \"#utility.yul\":2634:2637   */\n      dup3\n        /* \"#utility.yul\":2630:2644   */\n      add\n        /* \"#utility.yul\":2732:2736   */\n      0x00\n        /* \"#utility.yul\":2725:2730   */\n      dup3\n        /* \"#utility.yul\":2721:2737   */\n      add\n        /* \"#utility.yul\":2715:2738   */\n      mload\n        /* \"#utility.yul\":2751:2812   */\n      tag_462\n        /* \"#utility.yul\":2806:2810   */\n      0x00\n        /* \"#utility.yul\":2801:2804   */\n      dup6\n        /* \"#utility.yul\":2797:2811   */\n      add\n        /* \"#utility.yul\":2783:2795   */\n      dup3\n        /* \"#utility.yul\":2751:2812   */\n      tag_355\n      jump\t// in\n    tag_462:\n        /* \"#utility.yul\":2654:2822   */\n      pop\n        /* \"#utility.yul\":2903:2907   */\n      0x20\n        /* \"#utility.yul\":2896:2901   */\n      dup3\n        /* \"#utility.yul\":2892:2908   */\n      add\n        /* \"#utility.yul\":2886:2909   */\n      mload\n        /* \"#utility.yul\":2922:2981   */\n      tag_463\n        /* \"#utility.yul\":2975:2979   */\n      0x20\n        /* \"#utility.yul\":2970:2973   */\n      dup6\n        /* \"#utility.yul\":2966:2980   */\n      add\n        /* \"#utility.yul\":2952:2964   */\n      dup3\n        /* \"#utility.yul\":2922:2981   */\n      tag_357\n      jump\t// in\n    tag_463:\n        /* \"#utility.yul\":2832:2991   */\n      pop\n        /* \"#utility.yul\":3078:3082   */\n      0x40\n        /* \"#utility.yul\":3071:3076   */\n      dup3\n        /* \"#utility.yul\":3067:3083   */\n      add\n        /* \"#utility.yul\":3061:3084   */\n      mload\n        /* \"#utility.yul\":3097:3160   */\n      tag_464\n        /* \"#utility.yul\":3154:3158   */\n      0x40\n        /* \"#utility.yul\":3149:3152   */\n      dup6\n        /* \"#utility.yul\":3145:3159   */\n      add\n        /* \"#utility.yul\":3131:3143   */\n      dup3\n        /* \"#utility.yul\":3097:3160   */\n      tag_358\n      jump\t// in\n    tag_464:\n        /* \"#utility.yul\":3001:3170   */\n      pop\n        /* \"#utility.yul\":3254:3258   */\n      0x60\n        /* \"#utility.yul\":3247:3252   */\n      dup3\n        /* \"#utility.yul\":3243:3259   */\n      add\n        /* \"#utility.yul\":3237:3260   */\n      mload\n        /* \"#utility.yul\":3273:3336   */\n      tag_465\n        /* \"#utility.yul\":3330:3334   */\n      0x60\n        /* \"#utility.yul\":3325:3328   */\n      dup6\n        /* \"#utility.yul\":3321:3335   */\n      add\n        /* \"#utility.yul\":3307:3319   */\n      dup3\n        /* \"#utility.yul\":3273:3336   */\n      tag_361\n      jump\t// in\n    tag_465:\n        /* \"#utility.yul\":3180:3346   */\n      pop\n        /* \"#utility.yul\":2608:3353   */\n      pop\n        /* \"#utility.yul\":2498:3353   */\n      pop\n      pop\n      jump\t// out\n        /* \"#utility.yul\":3359:3646   */\n    tag_363:\n        /* \"#utility.yul\":3482:3492   */\n      0x00\n        /* \"#utility.yul\":3503:3603   */\n      tag_467\n        /* \"#utility.yul\":3599:3602   */\n      dup4\n        /* \"#utility.yul\":3591:3597   */\n      dup4\n        /* \"#utility.yul\":3503:3603   */\n      tag_362\n      jump\t// in\n    tag_467:\n        /* \"#utility.yul\":3635:3639   */\n      0x80\n        /* \"#utility.yul\":3630:3633   */\n      dup4\n        /* \"#utility.yul\":3626:3640   */\n      add\n        /* \"#utility.yul\":3612:3640   */\n      swap1\n      pop\n        /* \"#utility.yul\":3359:3646   */\n      swap3\n      swap2\n      pop\n      pop\n      jump\t// out\n        /* \"#utility.yul\":3652:3792   */\n    tag_364:\n        /* \"#utility.yul\":3749:3753   */\n      0x00\n        /* \"#utility.yul\":3781:3785   */\n      0x20\n        /* \"#utility.yul\":3776:3779   */\n      dup3\n        /* \"#utility.yul\":3772:3786   */\n      add\n        /* \"#utility.yul\":3764:3786   */\n      swap1\n      pop\n        /* \"#utility.yul\":3652:3792   */\n      swap2\n      swap1\n      pop\n      jump\t// out\n        /* \"#utility.yul\":3874:4822   */\n    tag_365:\n        /* \"#utility.yul\":4047:4050   */\n      0x00\n        /* \"#utility.yul\":4076:4157   */\n      tag_470\n        /* \"#utility.yul\":4151:4156   */\n      dup3\n        /* \"#utility.yul\":4076:4157   */\n      tag_351\n      jump\t// in\n    tag_470:\n        /* \"#utility.yul\":4173:4286   */\n      tag_471\n        /* \"#utility.yul\":4279:4285   */\n      dup2\n        /* \"#utility.yul\":4274:4277   */\n      dup6\n        /* \"#utility.yul\":4173:4286   */\n      tag_352\n      jump\t// in\n    tag_471:\n        /* \"#utility.yul\":4166:4286   */\n      swap4\n      pop\n        /* \"#utility.yul\":4310:4393   */\n      tag_472\n        /* \"#utility.yul\":4387:4392   */\n      dup4\n        /* \"#utility.yul\":4310:4393   */\n      tag_353\n      jump\t// in\n    tag_472:\n        /* \"#utility.yul\":4416:4423   */\n      dup1\n        /* \"#utility.yul\":4447:4448   */\n      0x00\n        /* \"#utility.yul\":4432:4797   */\n    tag_473:\n        /* \"#utility.yul\":4457:4463   */\n      dup4\n        /* \"#utility.yul\":4454:4455   */\n      dup2\n        /* \"#utility.yul\":4451:4464   */\n      lt\n        /* \"#utility.yul\":4432:4797   */\n      iszero\n      tag_475\n      jumpi\n        /* \"#utility.yul\":4533:4539   */\n      dup2\n        /* \"#utility.yul\":4527:4540   */\n      mload\n        /* \"#utility.yul\":4560:4677   */\n      tag_476\n        /* \"#utility.yul\":4673:4676   */\n      dup9\n        /* \"#utility.yul\":4658:4671   */\n      dup3\n        /* \"#utility.yul\":4560:4677   */\n      tag_363\n      jump\t// in\n    tag_476:\n        /* \"#utility.yul\":4553:4677   */\n      swap8\n      pop\n        /* \"#utility.yul\":4700:4787   */\n      tag_477\n        /* \"#utility.yul\":4780:4786   */\n      dup4\n        /* \"#utility.yul\":4700:4787   */\n      tag_364\n      jump\t// in\n    tag_477:\n        /* \"#utility.yul\":4690:4787   */\n      swap3\n      pop\n        /* \"#utility.yul\":4492:4797   */\n      pop\n        /* \"#utility.yul\":4479:4480   */\n      0x01\n        /* \"#utility.yul\":4476:4477   */\n      dup2\n        /* \"#utility.yul\":4472:4481   */\n      add\n        /* \"#utility.yul\":4467:4481   */\n      swap1\n      pop\n        /* \"#utility.yul\":4432:4797   */\n      jump(tag_473)\n    tag_475:\n        /* \"#utility.yul\":4436:4450   */\n      pop\n        /* \"#utility.yul\":4813:4816   */\n      dup6\n        /* \"#utility.yul\":4806:4816   */\n      swap4\n      pop\n        /* \"#utility.yul\":4052:4822   */\n      pop\n      pop\n      pop\n        /* \"#utility.yul\":3874:4822   */\n      swap3\n      swap2\n      pop\n      pop\n      jump\t// out\n        /* \"#utility.yul\":4828:5309   */\n    tag_31:\n        /* \"#utility.yul\":5025:5029   */\n      0x00\n        /* \"#utility.yul\":5063:5065   */\n      0x20\n        /* \"#utility.yul\":5052:5061   */\n      dup3\n        /* \"#utility.yul\":5048:5066   */\n      add\n        /* \"#utility.yul\":5040:5066   */\n      swap1\n      pop\n        /* \"#utility.yul\":5112:5121   */\n      dup2\n        /* \"#utility.yul\":5106:5110   */\n      dup2\n        /* \"#utility.yul\":5102:5122   */\n      sub\n        /* \"#utility.yul\":5098:5099   */\n      0x00\n        /* \"#utility.yul\":5087:5096   */\n      dup4\n        /* \"#utility.yul\":5083:5100   */\n      add\n        /* \"#utility.yul\":5076:5123   */\n      mstore\n        /* \"#utility.yul\":5140:5302   */\n      tag_479\n        /* \"#utility.yul\":5297:5301   */\n      dup2\n        /* \"#utility.yul\":5288:5294   */\n      dup5\n        /* \"#utility.yul\":5140:5302   */\n      tag_365\n      jump\t// in\n    tag_479:\n        /* \"#utility.yul\":5132:5302   */\n      swap1\n      pop\n        /* \"#utility.yul\":4828:5309   */\n      swap3\n      swap2\n      pop\n      pop\n      jump\t// out\n        /* \"#utility.yul\":5315:5433   */\n    tag_366:\n        /* \"#utility.yul\":5402:5426   */\n      tag_481\n        /* \"#utility.yul\":5420:5425   */\n      dup2\n        /* \"#utility.yul\":5402:5426   */\n      tag_360\n      jump\t// in\n    tag_481:\n        /* \"#utility.yul\":5397:5400   */\n      dup3\n        /* \"#utility.yul\":5390:5427   */\n      mstore\n        /* \"#utility.yul\":5315:5433   */\n      pop\n      pop\n      jump\t// out\n        /* \"#utility.yul\":5439:5661   */\n    tag_41:\n        /* \"#utility.yul\":5532:5536   */\n      0x00\n        /* \"#utility.yul\":5570:5572   */\n      0x20\n        /* \"#utility.yul\":5559:5568   */\n      dup3\n        /* \"#utility.yul\":5555:5573   */\n      add\n        /* \"#utility.yul\":5547:5573   */\n      swap1\n      pop\n        /* \"#utility.yul\":5583:5654   */\n      tag_483\n        /* \"#utility.yul\":5651:5652   */\n      0x00\n        /* \"#utility.yul\":5640:5649   */\n      dup4\n        /* \"#utility.yul\":5636:5653   */\n      add\n        /* \"#utility.yul\":5627:5633   */\n      dup5\n        /* \"#utility.yul\":5583:5654   */\n      tag_366\n      jump\t// in\n    tag_483:\n        /* \"#utility.yul\":5439:5661   */\n      swap3\n      swap2\n      pop\n      pop\n      jump\t// out\n        /* \"#utility.yul\":5667:5785   */\n    tag_367:\n        /* \"#utility.yul\":5754:5778   */\n      tag_485\n        /* \"#utility.yul\":5772:5777   */\n      dup2\n        /* \"#utility.yul\":5754:5778   */\n      tag_348\n      jump\t// in\n    tag_485:\n        /* \"#utility.yul\":5749:5752   */\n      dup3\n        /* \"#utility.yul\":5742:5779   */\n      mstore\n        /* \"#utility.yul\":5667:5785   */\n      pop\n      pop\n      jump\t// out\n        /* \"#utility.yul\":5791:6013   */\n    tag_46:\n        /* \"#utility.yul\":5884:5888   */\n      0x00\n        /* \"#utility.yul\":5922:5924   */\n      0x20\n        /* \"#utility.yul\":5911:5920   */\n      dup3\n        /* \"#utility.yul\":5907:5925   */\n      add\n        /* \"#utility.yul\":5899:5925   */\n      swap1\n      pop\n        /* \"#utility.yul\":5935:6006   */\n      tag_487\n        /* \"#utility.yul\":6003:6004   */\n      0x00\n        /* \"#utility.yul\":5992:6001   */\n      dup4\n        /* \"#utility.yul\":5988:6005   */\n      add\n        /* \"#utility.yul\":5979:5985   */\n      dup5\n        /* \"#utility.yul\":5935:6006   */\n      tag_367\n      jump\t// in\n    tag_487:\n        /* \"#utility.yul\":5791:6013   */\n      swap3\n      swap2\n      pop\n      pop\n      jump\t// out\n        /* \"#utility.yul\":6019:6108   */\n    tag_368:\n        /* \"#utility.yul\":6055:6062   */\n      0x00\n        /* \"#utility.yul\":6095:6101   */\n      0xffff\n        /* \"#utility.yul\":6088:6093   */\n      dup3\n        /* \"#utility.yul\":6084:6102   */\n      and\n        /* \"#utility.yul\":6073:6102   */\n      swap1\n      pop\n        /* \"#utility.yul\":6019:6108   */\n      swap2\n      swap1\n      pop\n      jump\t// out\n        /* \"#utility.yul\":6114:6234   */\n    tag_369:\n        /* \"#utility.yul\":6186:6209   */\n      tag_490\n        /* \"#utility.yul\":6203:6208   */\n      dup2\n        /* \"#utility.yul\":6186:6209   */\n      tag_368\n      jump\t// in\n    tag_490:\n        /* \"#utility.yul\":6179:6184   */\n      dup2\n        /* \"#utility.yul\":6176:6210   */\n      eq\n        /* \"#utility.yul\":6166:6228   */\n      tag_491\n      jumpi\n        /* \"#utility.yul\":6224:6225   */\n      0x00\n        /* \"#utility.yul\":6221:6222   */\n      dup1\n        /* \"#utility.yul\":6214:6226   */\n      revert\n        /* \"#utility.yul\":6166:6228   */\n    tag_491:\n        /* \"#utility.yul\":6114:6234   */\n      pop\n      jump\t// out\n        /* \"#utility.yul\":6240:6377   */\n    tag_370:\n        /* \"#utility.yul\":6285:6290   */\n      0x00\n        /* \"#utility.yul\":6323:6329   */\n      dup2\n        /* \"#utility.yul\":6310:6330   */\n      calldataload\n        /* \"#utility.yul\":6301:6330   */\n      swap1\n      pop\n        /* \"#utility.yul\":6339:6371   */\n      tag_493\n        /* \"#utility.yul\":6365:6370   */\n      dup2\n        /* \"#utility.yul\":6339:6371   */\n      tag_369\n      jump\t// in\n    tag_493:\n        /* \"#utility.yul\":6240:6377   */\n      swap3\n      swap2\n      pop\n      pop\n      jump\t// out\n        /* \"#utility.yul\":6383:6501   */\n    tag_371:\n        /* \"#utility.yul\":6454:6476   */\n      tag_495\n        /* \"#utility.yul\":6470:6475   */\n      dup2\n        /* \"#utility.yul\":6454:6476   */\n      tag_356\n      jump\t// in\n    tag_495:\n        /* \"#utility.yul\":6447:6452   */\n      dup2\n        /* \"#utility.yul\":6444:6477   */\n      eq\n        /* \"#utility.yul\":6434:6495   */\n      tag_496\n      jumpi\n        /* \"#utility.yul\":6491:6492   */\n      0x00\n        /* \"#utility.yul\":6488:6489   */\n      dup1\n        /* \"#utility.yul\":6481:6493   */\n      revert\n        /* \"#utility.yul\":6434:6495   */\n    tag_496:\n        /* \"#utility.yul\":6383:6501   */\n      pop\n      jump\t// out\n        /* \"#utility.yul\":6507:6642   */\n    tag_372:\n        /* \"#utility.yul\":6551:6556   */\n      0x00\n        /* \"#utility.yul\":6589:6595   */\n      dup2\n        /* \"#utility.yul\":6576:6596   */\n      calldataload\n        /* \"#utility.yul\":6567:6596   */\n      swap1\n      pop\n        /* \"#utility.yul\":6605:6636   */\n      tag_498\n        /* \"#utility.yul\":6630:6635   */\n      dup2\n        /* \"#utility.yul\":6605:6636   */\n      tag_371\n      jump\t// in\n    tag_498:\n        /* \"#utility.yul\":6507:6642   */\n      swap3\n      swap2\n      pop\n      pop\n      jump\t// out\n        /* \"#utility.yul\":6648:6792   */\n    tag_373:\n        /* \"#utility.yul\":6685:6692   */\n      0x00\n        /* \"#utility.yul\":6725:6785   */\n      0xffffffffffffffffffffffffffffffffffffffffffffffffffffffffff\n        /* \"#utility.yul\":6718:6723   */\n      dup3\n        /* \"#utility.yul\":6714:6786   */\n      and\n        /* \"#utility.yul\":6703:6786   */\n      swap1\n      pop\n        /* \"#utility.yul\":6648:6792   */\n      swap2\n      swap1\n      pop\n      jump\t// out\n        /* \"#utility.yul\":6798:6920   */\n    tag_374:\n        /* \"#utility.yul\":6871:6895   */\n      tag_501\n        /* \"#utility.yul\":6889:6894   */\n      dup2\n        /* \"#utility.yul\":6871:6895   */\n      tag_373\n      jump\t// in\n    tag_501:\n        /* \"#utility.yul\":6864:6869   */\n      dup2\n        /* \"#utility.yul\":6861:6896   */\n      eq\n        /* \"#utility.yul\":6851:6914   */\n      tag_502\n      jumpi\n        /* \"#utility.yul\":6910:6911   */\n      0x00\n        /* \"#utility.yul\":6907:6908   */\n      dup1\n        /* \"#utility.yul\":6900:6912   */\n      revert\n        /* \"#utility.yul\":6851:6914   */\n    tag_502:\n        /* \"#utility.yul\":6798:6920   */\n      pop\n      jump\t// out\n        /* \"#utility.yul\":6926:7065   */\n    tag_375:\n        /* \"#utility.yul\":6972:6977   */\n      0x00\n        /* \"#utility.yul\":7010:7016   */\n      dup2\n        /* \"#utility.yul\":6997:7017   */\n      calldataload\n        /* \"#utility.yul\":6988:7017   */\n      swap1\n      pop\n        /* \"#utility.yul\":7026:7059   */\n      tag_504\n        /* \"#utility.yul\":7053:7058   */\n      dup2\n        /* \"#utility.yul\":7026:7059   */\n      tag_374\n      jump\t// in\n    tag_504:\n        /* \"#utility.yul\":6926:7065   */\n      swap3\n      swap2\n      pop\n      pop\n      jump\t// out\n        /* \"#utility.yul\":7071:7193   */\n    tag_376:\n        /* \"#utility.yul\":7144:7168   */\n      tag_506\n        /* \"#utility.yul\":7162:7167   */\n      dup2\n        /* \"#utility.yul\":7144:7168   */\n      tag_360\n      jump\t// in\n    tag_506:\n        /* \"#utility.yul\":7137:7142   */\n      dup2\n        /* \"#utility.yul\":7134:7169   */\n      eq\n        /* \"#utility.yul\":7124:7187   */\n      tag_507\n      jumpi\n        /* \"#utility.yul\":7183:7184   */\n      0x00\n        /* \"#utility.yul\":7180:7181   */\n      dup1\n        /* \"#utility.yul\":7173:7185   */\n      revert\n        /* \"#utility.yul\":7124:7187   */\n    tag_507:\n        /* \"#utility.yul\":7071:7193   */\n      pop\n      jump\t// out\n        /* \"#utility.yul\":7199:7338   */\n    tag_377:\n        /* \"#utility.yul\":7245:7250   */\n      0x00\n        /* \"#utility.yul\":7283:7289   */\n      dup2\n        /* \"#utility.yul\":7270:7290   */\n      calldataload\n        /* \"#utility.yul\":7261:7290   */\n      swap1\n      pop\n        /* \"#utility.yul\":7299:7332   */\n      tag_509\n        /* \"#utility.yul\":7326:7331   */\n      dup2\n        /* \"#utility.yul\":7299:7332   */\n      tag_376\n      jump\t// in\n    tag_509:\n        /* \"#utility.yul\":7199:7338   */\n      swap3\n      swap2\n      pop\n      pop\n      jump\t// out\n        /* \"#utility.yul\":7344:8103   */\n    tag_53:\n        /* \"#utility.yul\":7427:7433   */\n      0x00\n        /* \"#utility.yul\":7435:7441   */\n      dup1\n        /* \"#utility.yul\":7443:7449   */\n      0x00\n        /* \"#utility.yul\":7451:7457   */\n      dup1\n        /* \"#utility.yul\":7500:7503   */\n      0x80\n        /* \"#utility.yul\":7488:7497   */\n      dup6\n        /* \"#utility.yul\":7479:7486   */\n      dup8\n        /* \"#utility.yul\":7475:7498   */\n      sub\n        /* \"#utility.yul\":7471:7504   */\n      slt\n        /* \"#utility.yul\":7468:7588   */\n      iszero\n      tag_511\n      jumpi\n        /* \"#utility.yul\":7507:7586   */\n      tag_512\n      tag_346\n      jump\t// in\n    tag_512:\n        /* \"#utility.yul\":7468:7588   */\n    tag_511:\n        /* \"#utility.yul\":7627:7628   */\n      0x00\n        /* \"#utility.yul\":7652:7704   */\n      tag_513\n        /* \"#utility.yul\":7696:7703   */\n      dup8\n        /* \"#utility.yul\":7687:7693   */\n      dup3\n        /* \"#utility.yul\":7676:7685   */\n      dup9\n        /* \"#utility.yul\":7672:7694   */\n      add\n        /* \"#utility.yul\":7652:7704   */\n      tag_370\n      jump\t// in\n    tag_513:\n        /* \"#utility.yul\":7642:7704   */\n      swap5\n      pop\n        /* \"#utility.yul\":7598:7714   */\n      pop\n        /* \"#utility.yul\":7753:7755   */\n      0x20\n        /* \"#utility.yul\":7779:7830   */\n      tag_514\n        /* \"#utility.yul\":7822:7829   */\n      dup8\n        /* \"#utility.yul\":7813:7819   */\n      dup3\n        /* \"#utility.yul\":7802:7811   */\n      dup9\n        /* \"#utility.yul\":7798:7820   */\n      add\n        /* \"#utility.yul\":7779:7830   */\n      tag_372\n      jump\t// in\n    tag_514:\n        /* \"#utility.yul\":7769:7830   */\n      swap4\n      pop\n        /* \"#utility.yul\":7724:7840   */\n      pop\n        /* \"#utility.yul\":7879:7881   */\n      0x40\n        /* \"#utility.yul\":7905:7958   */\n      tag_515\n        /* \"#utility.yul\":7950:7957   */\n      dup8\n        /* \"#utility.yul\":7941:7947   */\n      dup3\n        /* \"#utility.yul\":7930:7939   */\n      dup9\n        /* \"#utility.yul\":7926:7948   */\n      add\n        /* \"#utility.yul\":7905:7958   */\n      tag_375\n      jump\t// in\n    tag_515:\n        /* \"#utility.yul\":7895:7958   */\n      swap3\n      pop\n        /* \"#utility.yul\":7850:7968   */\n      pop\n        /* \"#utility.yul\":8007:8009   */\n      0x60\n        /* \"#utility.yul\":8033:8086   */\n      tag_516\n        /* \"#utility.yul\":8078:8085   */\n      dup8\n        /* \"#utility.yul\":8069:8075   */\n      dup3\n        /* \"#utility.yul\":8058:8067   */\n      dup9\n        /* \"#utility.yul\":8054:8076   */\n      add\n        /* \"#utility.yul\":8033:8086   */\n      tag_377\n      jump\t// in\n    tag_516:\n        /* \"#utility.yul\":8023:8086   */\n      swap2\n      pop\n        /* \"#utility.yul\":7978:8096   */\n      pop\n        /* \"#utility.yul\":7344:8103   */\n      swap3\n      swap6\n      swap2\n      swap5\n      pop\n      swap3\n      pop\n      jump\t// out\n        /* \"#utility.yul\":8109:8438   */\n    tag_62:\n        /* \"#utility.yul\":8168:8174   */\n      0x00\n        /* \"#utility.yul\":8217:8219   */\n      0x20\n        /* \"#utility.yul\":8205:8214   */\n      dup3\n        /* \"#utility.yul\":8196:8203   */\n      dup5\n        /* \"#utility.yul\":8192:8215   */\n      sub\n        /* \"#utility.yul\":8188:8220   */\n      slt\n        /* \"#utility.yul\":8185:8304   */\n      iszero\n      tag_518\n      jumpi\n        /* \"#utility.yul\":8223:8302   */\n      tag_519\n      tag_346\n      jump\t// in\n    tag_519:\n        /* \"#utility.yul\":8185:8304   */\n    tag_518:\n        /* \"#utility.yul\":8343:8344   */\n      0x00\n        /* \"#utility.yul\":8368:8421   */\n      tag_520\n        /* \"#utility.yul\":8413:8420   */\n      dup5\n        /* \"#utility.yul\":8404:8410   */\n      dup3\n        /* \"#utility.yul\":8393:8402   */\n      dup6\n        /* \"#utility.yul\":8389:8411   */\n      add\n        /* \"#utility.yul\":8368:8421   */\n      tag_377\n      jump\t// in\n    tag_520:\n        /* \"#utility.yul\":8358:8421   */\n      swap2\n      pop\n        /* \"#utility.yul\":8314:8431   */\n      pop\n        /* \"#utility.yul\":8109:8438   */\n      swap3\n      swap2\n      pop\n      pop\n      jump\t// out\n        /* \"#utility.yul\":8444:8587   */\n    tag_378:\n        /* \"#utility.yul\":8540:8546   */\n      0x00\n        /* \"#utility.yul\":8574:8579   */\n      dup2\n        /* \"#utility.yul\":8568:8580   */\n      mload\n        /* \"#utility.yul\":8558:8580   */\n      swap1\n      pop\n        /* \"#utility.yul\":8444:8587   */\n      swap2\n      swap1\n      pop\n      jump\t// out\n        /* \"#utility.yul\":8593:8806   */\n    tag_379:\n        /* \"#utility.yul\":8721:8732   */\n      0x00\n        /* \"#utility.yul\":8755:8761   */\n      dup3\n        /* \"#utility.yul\":8750:8753   */\n      dup3\n        /* \"#utility.yul\":8743:8762   */\n      mstore\n        /* \"#utility.yul\":8795:8799   */\n      0x20\n        /* \"#utility.yul\":8790:8793   */\n      dup3\n        /* \"#utility.yul\":8786:8800   */\n      add\n        /* \"#utility.yul\":8771:8800   */\n      swap1\n      pop\n        /* \"#utility.yul\":8593:8806   */\n      swap3\n      swap2\n      pop\n      pop\n      jump\t// out\n        /* \"#utility.yul\":8812:8973   */\n    tag_380:\n        /* \"#utility.yul\":8908:8912   */\n      0x00\n        /* \"#utility.yul\":8931:8934   */\n      dup2\n        /* \"#utility.yul\":8923:8934   */\n      swap1\n      pop\n        /* \"#utility.yul\":8961:8965   */\n      0x20\n        /* \"#utility.yul\":8956:8959   */\n      dup3\n        /* \"#utility.yul\":8952:8966   */\n      add\n        /* \"#utility.yul\":8944:8966   */\n      swap1\n      pop\n        /* \"#utility.yul\":8812:8973   */\n      swap2\n      swap1\n      pop\n      jump\t// out\n        /* \"#utility.yul\":9055:9559   */\n    tag_381:\n        /* \"#utility.yul\":9200:9204   */\n      0x40\n        /* \"#utility.yul\":9195:9198   */\n      dup3\n        /* \"#utility.yul\":9191:9205   */\n      add\n        /* \"#utility.yul\":9293:9297   */\n      0x00\n        /* \"#utility.yul\":9286:9291   */\n      dup3\n        /* \"#utility.yul\":9282:9298   */\n      add\n        /* \"#utility.yul\":9276:9299   */\n      mload\n        /* \"#utility.yul\":9312:9373   */\n      tag_525\n        /* \"#utility.yul\":9367:9371   */\n      0x00\n        /* \"#utility.yul\":9362:9365   */\n      dup6\n        /* \"#utility.yul\":9358:9372   */\n      add\n        /* \"#utility.yul\":9344:9356   */\n      dup3\n        /* \"#utility.yul\":9312:9373   */\n      tag_355\n      jump\t// in\n    tag_525:\n        /* \"#utility.yul\":9215:9383   */\n      pop\n        /* \"#utility.yul\":9464:9468   */\n      0x20\n        /* \"#utility.yul\":9457:9462   */\n      dup3\n        /* \"#utility.yul\":9453:9469   */\n      add\n        /* \"#utility.yul\":9447:9470   */\n      mload\n        /* \"#utility.yul\":9483:9542   */\n      tag_526\n        /* \"#utility.yul\":9536:9540   */\n      0x20\n        /* \"#utility.yul\":9531:9534   */\n      dup6\n        /* \"#utility.yul\":9527:9541   */\n      add\n        /* \"#utility.yul\":9513:9525   */\n      dup3\n        /* \"#utility.yul\":9483:9542   */\n      tag_357\n      jump\t// in\n    tag_526:\n        /* \"#utility.yul\":9393:9552   */\n      pop\n        /* \"#utility.yul\":9169:9559   */\n      pop\n        /* \"#utility.yul\":9055:9559   */\n      pop\n      pop\n      jump\t// out\n        /* \"#utility.yul\":9565:9860   */\n    tag_382:\n        /* \"#utility.yul\":9692:9702   */\n      0x00\n        /* \"#utility.yul\":9713:9817   */\n      tag_528\n        /* \"#utility.yul\":9813:9816   */\n      dup4\n        /* \"#utility.yul\":9805:9811   */\n      dup4\n        /* \"#utility.yul\":9713:9817   */\n      tag_381\n      jump\t// in\n    tag_528:\n        /* \"#utility.yul\":9849:9853   */\n      0x40\n        /* \"#utility.yul\":9844:9847   */\n      dup4\n        /* \"#utility.yul\":9840:9854   */\n      add\n        /* \"#utility.yul\":9826:9854   */\n      swap1\n      pop\n        /* \"#utility.yul\":9565:9860   */\n      swap3\n      swap2\n      pop\n      pop\n      jump\t// out\n        /* \"#utility.yul\":9866:10008   */\n    tag_383:\n        /* \"#utility.yul\":9965:9969   */\n      0x00\n        /* \"#utility.yul\":9997:10001   */\n      0x20\n        /* \"#utility.yul\":9992:9995   */\n      dup3\n        /* \"#utility.yul\":9988:10002   */\n      add\n        /* \"#utility.yul\":9980:10002   */\n      swap1\n      pop\n        /* \"#utility.yul\":9866:10008   */\n      swap2\n      swap1\n      pop\n      jump\t// out\n        /* \"#utility.yul\":10094:11058   */\n    tag_384:\n        /* \"#utility.yul\":10271:10274   */\n      0x00\n        /* \"#utility.yul\":10300:10383   */\n      tag_531\n        /* \"#utility.yul\":10377:10382   */\n      dup3\n        /* \"#utility.yul\":10300:10383   */\n      tag_378\n      jump\t// in\n    tag_531:\n        /* \"#utility.yul\":10399:10514   */\n      tag_532\n        /* \"#utility.yul\":10507:10513   */\n      dup2\n        /* \"#utility.yul\":10502:10505   */\n      dup6\n        /* \"#utility.yul\":10399:10514   */\n      tag_379\n      jump\t// in\n    tag_532:\n        /* \"#utility.yul\":10392:10514   */\n      swap4\n      pop\n        /* \"#utility.yul\":10538:10623   */\n      tag_533\n        /* \"#utility.yul\":10617:10622   */\n      dup4\n        /* \"#utility.yul\":10538:10623   */\n      tag_380\n      jump\t// in\n    tag_533:\n        /* \"#utility.yul\":10646:10653   */\n      dup1\n        /* \"#utility.yul\":10677:10678   */\n      0x00\n        /* \"#utility.yul\":10662:11033   */\n    tag_534:\n        /* \"#utility.yul\":10687:10693   */\n      dup4\n        /* \"#utility.yul\":10684:10685   */\n      dup2\n        /* \"#utility.yul\":10681:10694   */\n      lt\n        /* \"#utility.yul\":10662:11033   */\n      iszero\n      tag_536\n      jumpi\n        /* \"#utility.yul\":10763:10769   */\n      dup2\n        /* \"#utility.yul\":10757:10770   */\n      mload\n        /* \"#utility.yul\":10790:10911   */\n      tag_537\n        /* \"#utility.yul\":10907:10910   */\n      dup9\n        /* \"#utility.yul\":10892:10905   */\n      dup3\n        /* \"#utility.yul\":10790:10911   */\n      tag_382\n      jump\t// in\n    tag_537:\n        /* \"#utility.yul\":10783:10911   */\n      swap8\n      pop\n        /* \"#utility.yul\":10934:11023   */\n      tag_538\n        /* \"#utility.yul\":11016:11022   */\n      dup4\n        /* \"#utility.yul\":10934:11023   */\n      tag_383\n      jump\t// in\n    tag_538:\n        /* \"#utility.yul\":10924:11023   */\n      swap3\n      pop\n        /* \"#utility.yul\":10722:11033   */\n      pop\n        /* \"#utility.yul\":10709:10710   */\n      0x01\n        /* \"#utility.yul\":10706:10707   */\n      dup2\n        /* \"#utility.yul\":10702:10711   */\n      add\n        /* \"#utility.yul\":10697:10711   */\n      swap1\n      pop\n        /* \"#utility.yul\":10662:11033   */\n      jump(tag_534)\n    tag_536:\n        /* \"#utility.yul\":10666:10680   */\n      pop\n        /* \"#utility.yul\":11049:11052   */\n      dup6\n        /* \"#utility.yul\":11042:11052   */\n      swap4\n      pop\n        /* \"#utility.yul\":10276:11058   */\n      pop\n      pop\n      pop\n        /* \"#utility.yul\":10094:11058   */\n      swap3\n      swap2\n      pop\n      pop\n      jump\t// out\n        /* \"#utility.yul\":11064:11553   */\n    tag_69:\n        /* \"#utility.yul\":11265:11269   */\n      0x00\n        /* \"#utility.yul\":11303:11305   */\n      0x20\n        /* \"#utility.yul\":11292:11301   */\n      dup3\n        /* \"#utility.yul\":11288:11306   */\n      add\n        /* \"#utility.yul\":11280:11306   */\n      swap1\n      pop\n        /* \"#utility.yul\":11352:11361   */\n      dup2\n        /* \"#utility.yul\":11346:11350   */\n      dup2\n        /* \"#utility.yul\":11342:11362   */\n      sub\n        /* \"#utility.yul\":11338:11339   */\n      0x00\n        /* \"#utility.yul\":11327:11336   */\n      dup4\n        /* \"#utility.yul\":11323:11340   */\n      add\n        /* \"#utility.yul\":11316:11363   */\n      mstore\n        /* \"#utility.yul\":11380:11546   */\n      tag_540\n        /* \"#utility.yul\":11541:11545   */\n      dup2\n        /* \"#utility.yul\":11532:11538   */\n      dup5\n        /* \"#utility.yul\":11380:11546   */\n      tag_384\n      jump\t// in\n    tag_540:\n        /* \"#utility.yul\":11372:11546   */\n      swap1\n      pop\n        /* \"#utility.yul\":11064:11553   */\n      swap3\n      swap2\n      pop\n      pop\n      jump\t// out\n        /* \"#utility.yul\":11559:11728   */\n    tag_385:\n        /* \"#utility.yul\":11643:11654   */\n      0x00\n        /* \"#utility.yul\":11677:11683   */\n      dup3\n        /* \"#utility.yul\":11672:11675   */\n      dup3\n        /* \"#utility.yul\":11665:11684   */\n      mstore\n        /* \"#utility.yul\":11717:11721   */\n      0x20\n        /* \"#utility.yul\":11712:11715   */\n      dup3\n        /* \"#utility.yul\":11708:11722   */\n      add\n        /* \"#utility.yul\":11693:11722   */\n      swap1\n      pop\n        /* \"#utility.yul\":11559:11728   */\n      swap3\n      swap2\n      pop\n      pop\n      jump\t// out\n        /* \"#utility.yul\":11734:11906   */\n    tag_386:\n        /* \"#utility.yul\":11874:11898   */\n      0x596f75206d757374206265206120696e766573746f7200000000000000000000\n        /* \"#utility.yul\":11870:11871   */\n      0x00\n        /* \"#utility.yul\":11862:11868   */\n      dup3\n        /* \"#utility.yul\":11858:11872   */\n      add\n        /* \"#utility.yul\":11851:11899   */\n      mstore\n        /* \"#utility.yul\":11734:11906   */\n      pop\n      jump\t// out\n        /* \"#utility.yul\":11912:12278   */\n    tag_387:\n        /* \"#utility.yul\":12054:12057   */\n      0x00\n        /* \"#utility.yul\":12075:12142   */\n      tag_544\n        /* \"#utility.yul\":12139:12141   */\n      0x16\n        /* \"#utility.yul\":12134:12137   */\n      dup4\n        /* \"#utility.yul\":12075:12142   */\n      tag_385\n      jump\t// in\n    tag_544:\n        /* \"#utility.yul\":12068:12142   */\n      swap2\n      pop\n        /* \"#utility.yul\":12151:12244   */\n      tag_545\n        /* \"#utility.yul\":12240:12243   */\n      dup3\n        /* \"#utility.yul\":12151:12244   */\n      tag_386\n      jump\t// in\n    tag_545:\n        /* \"#utility.yul\":12269:12271   */\n      0x20\n        /* \"#utility.yul\":12264:12267   */\n      dup3\n        /* \"#utility.yul\":12260:12272   */\n      add\n        /* \"#utility.yul\":12253:12272   */\n      swap1\n      pop\n        /* \"#utility.yul\":11912:12278   */\n      swap2\n      swap1\n      pop\n      jump\t// out\n        /* \"#utility.yul\":12284:12703   */\n    tag_81:\n        /* \"#utility.yul\":12450:12454   */\n      0x00\n        /* \"#utility.yul\":12488:12490   */\n      0x20\n        /* \"#utility.yul\":12477:12486   */\n      dup3\n        /* \"#utility.yul\":12473:12491   */\n      add\n        /* \"#utility.yul\":12465:12491   */\n      swap1\n      pop\n        /* \"#utility.yul\":12537:12546   */\n      dup2\n        /* \"#utility.yul\":12531:12535   */\n      dup2\n        /* \"#utility.yul\":12527:12547   */\n      sub\n        /* \"#utility.yul\":12523:12524   */\n      0x00\n        /* \"#utility.yul\":12512:12521   */\n      dup4\n        /* \"#utility.yul\":12508:12525   */\n      add\n        /* \"#utility.yul\":12501:12548   */\n      mstore\n        /* \"#utility.yul\":12565:12696   */\n      tag_547\n        /* \"#utility.yul\":12691:12695   */\n      dup2\n        /* \"#utility.yul\":12565:12696   */\n      tag_387\n      jump\t// in\n    tag_547:\n        /* \"#utility.yul\":12557:12696   */\n      swap1\n      pop\n        /* \"#utility.yul\":12284:12703   */\n      swap2\n      swap1\n      pop\n      jump\t// out\n        /* \"#utility.yul\":12709:12889   */\n    tag_388:\n        /* \"#utility.yul\":12757:12834   */\n      0x4e487b7100000000000000000000000000000000000000000000000000000000\n        /* \"#utility.yul\":12754:12755   */\n      0x00\n        /* \"#utility.yul\":12747:12835   */\n      mstore\n        /* \"#utility.yul\":12854:12858   */\n      0x11\n        /* \"#utility.yul\":12851:12852   */\n      0x04\n        /* \"#utility.yul\":12844:12859   */\n      mstore\n        /* \"#utility.yul\":12878:12882   */\n      0x24\n        /* \"#utility.yul\":12875:12876   */\n      0x00\n        /* \"#utility.yul\":12868:12883   */\n      revert\n        /* \"#utility.yul\":12895:13086   */\n    tag_84:\n        /* \"#utility.yul\":12935:12938   */\n      0x00\n        /* \"#utility.yul\":12954:12974   */\n      tag_550\n        /* \"#utility.yul\":12972:12973   */\n      dup3\n        /* \"#utility.yul\":12954:12974   */\n      tag_348\n      jump\t// in\n    tag_550:\n        /* \"#utility.yul\":12949:12974   */\n      swap2\n      pop\n        /* \"#utility.yul\":12988:13008   */\n      tag_551\n        /* \"#utility.yul\":13006:13007   */\n      dup4\n        /* \"#utility.yul\":12988:13008   */\n      tag_348\n      jump\t// in\n    tag_551:\n        /* \"#utility.yul\":12983:13008   */\n      swap3\n      pop\n        /* \"#utility.yul\":13031:13032   */\n      dup3\n        /* \"#utility.yul\":13028:13029   */\n      dup3\n        /* \"#utility.yul\":13024:13033   */\n      add\n        /* \"#utility.yul\":13017:13033   */\n      swap1\n      pop\n        /* \"#utility.yul\":13052:13055   */\n      dup1\n        /* \"#utility.yul\":13049:13050   */\n      dup3\n        /* \"#utility.yul\":13046:13056   */\n      gt\n        /* \"#utility.yul\":13043:13079   */\n      iszero\n      tag_552\n      jumpi\n        /* \"#utility.yul\":13059:13077   */\n      tag_553\n      tag_388\n      jump\t// in\n    tag_553:\n        /* \"#utility.yul\":13043:13079   */\n    tag_552:\n        /* \"#utility.yul\":12895:13086   */\n      swap3\n      swap2\n      pop\n      pop\n      jump\t// out\n        /* \"#utility.yul\":13092:13272   */\n    tag_389:\n        /* \"#utility.yul\":13140:13217   */\n      0x4e487b7100000000000000000000000000000000000000000000000000000000\n        /* \"#utility.yul\":13137:13138   */\n      0x00\n        /* \"#utility.yul\":13130:13218   */\n      mstore\n        /* \"#utility.yul\":13237:13241   */\n      0x12\n        /* \"#utility.yul\":13234:13235   */\n      0x04\n        /* \"#utility.yul\":13227:13242   */\n      mstore\n        /* \"#utility.yul\":13261:13265   */\n      0x24\n        /* \"#utility.yul\":13258:13259   */\n      0x00\n        /* \"#utility.yul\":13251:13266   */\n      revert\n        /* \"#utility.yul\":13278:13463   */\n    tag_89:\n        /* \"#utility.yul\":13318:13319   */\n      0x00\n        /* \"#utility.yul\":13335:13355   */\n      tag_556\n        /* \"#utility.yul\":13353:13354   */\n      dup3\n        /* \"#utility.yul\":13335:13355   */\n      tag_348\n      jump\t// in\n    tag_556:\n        /* \"#utility.yul\":13330:13355   */\n      swap2\n      pop\n        /* \"#utility.yul\":13369:13389   */\n      tag_557\n        /* \"#utility.yul\":13387:13388   */\n      dup4\n        /* \"#utility.yul\":13369:13389   */\n      tag_348\n      jump\t// in\n    tag_557:\n        /* \"#utility.yul\":13364:13389   */\n      swap3\n      pop\n        /* \"#utility.yul\":13408:13409   */\n      dup3\n        /* \"#utility.yul\":13398:13433   */\n      tag_558\n      jumpi\n        /* \"#utility.yul\":13413:13431   */\n      tag_559\n      tag_389\n      jump\t// in\n    tag_559:\n        /* \"#utility.yul\":13398:13433   */\n    tag_558:\n        /* \"#utility.yul\":13455:13456   */\n      dup3\n        /* \"#utility.yul\":13452:13453   */\n      dup3\n        /* \"#utility.yul\":13448:13457   */\n      div\n        /* \"#utility.yul\":13443:13457   */\n      swap1\n      pop\n        /* \"#utility.yul\":13278:13463   */\n      swap3\n      swap2\n      pop\n      pop\n      jump\t// out\n        /* \"#utility.yul\":13469:13649   */\n    tag_98:\n        /* \"#utility.yul\":13517:13594   */\n      0x4e487b7100000000000000000000000000000000000000000000000000000000\n        /* \"#utility.yul\":13514:13515   */\n      0x00\n        /* \"#utility.yul\":13507:13595   */\n      mstore\n        /* \"#utility.yul\":13614:13618   */\n      0x32\n        /* \"#utility.yul\":13611:13612   */\n      0x04\n        /* \"#utility.yul\":13604:13619   */\n      mstore\n        /* \"#utility.yul\":13638:13642   */\n      0x24\n        /* \"#utility.yul\":13635:13636   */\n      0x00\n        /* \"#utility.yul\":13628:13643   */\n      revert\n        /* \"#utility.yul\":13655:13835   */\n    tag_390:\n        /* \"#utility.yul\":13795:13827   */\n      0x4e6f7420656e6f7567682070726f66697420746f207769746864726177210000\n        /* \"#utility.yul\":13791:13792   */\n      0x00\n        /* \"#utility.yul\":13783:13789   */\n      dup3\n        /* \"#utility.yul\":13779:13793   */\n      add\n        /* \"#utility.yul\":13772:13828   */\n      mstore\n        /* \"#utility.yul\":13655:13835   */\n      pop\n      jump\t// out\n        /* \"#utility.yul\":13841:14207   */\n    tag_391:\n        /* \"#utility.yul\":13983:13986   */\n      0x00\n        /* \"#utility.yul\":14004:14071   */\n      tag_563\n        /* \"#utility.yul\":14068:14070   */\n      0x1e\n        /* \"#utility.yul\":14063:14066   */\n      dup4\n        /* \"#utility.yul\":14004:14071   */\n      tag_385\n      jump\t// in\n    tag_563:\n        /* \"#utility.yul\":13997:14071   */\n      swap2\n      pop\n        /* \"#utility.yul\":14080:14173   */\n      tag_564\n        /* \"#utility.yul\":14169:14172   */\n      dup3\n        /* \"#utility.yul\":14080:14173   */\n      tag_390\n      jump\t// in\n    tag_564:\n        /* \"#utility.yul\":14198:14200   */\n      0x20\n        /* \"#utility.yul\":14193:14196   */\n      dup3\n        /* \"#utility.yul\":14189:14201   */\n      add\n        /* \"#utility.yul\":14182:14201   */\n      swap1\n      pop\n        /* \"#utility.yul\":13841:14207   */\n      swap2\n      swap1\n      pop\n      jump\t// out\n        /* \"#utility.yul\":14213:14632   */\n    tag_119:\n        /* \"#utility.yul\":14379:14383   */\n      0x00\n        /* \"#utility.yul\":14417:14419   */\n      0x20\n        /* \"#utility.yul\":14406:14415   */\n      dup3\n        /* \"#utility.yul\":14402:14420   */\n      add\n        /* \"#utility.yul\":14394:14420   */\n      swap1\n      pop\n        /* \"#utility.yul\":14466:14475   */\n      dup2\n        /* \"#utility.yul\":14460:14464   */\n      dup2\n        /* \"#utility.yul\":14456:14476   */\n      sub\n        /* \"#utility.yul\":14452:14453   */\n      0x00\n        /* \"#utility.yul\":14441:14450   */\n      dup4\n        /* \"#utility.yul\":14437:14454   */\n      add\n        /* \"#utility.yul\":14430:14477   */\n      mstore\n        /* \"#utility.yul\":14494:14625   */\n      tag_566\n        /* \"#utility.yul\":14620:14624   */\n      dup2\n        /* \"#utility.yul\":14494:14625   */\n      tag_391\n      jump\t// in\n    tag_566:\n        /* \"#utility.yul\":14486:14625   */\n      swap1\n      pop\n        /* \"#utility.yul\":14213:14632   */\n      swap2\n      swap1\n      pop\n      jump\t// out\n        /* \"#utility.yul\":14638:14832   */\n    tag_121:\n        /* \"#utility.yul\":14678:14682   */\n      0x00\n        /* \"#utility.yul\":14698:14718   */\n      tag_568\n        /* \"#utility.yul\":14716:14717   */\n      dup3\n        /* \"#utility.yul\":14698:14718   */\n      tag_348\n      jump\t// in\n    tag_568:\n        /* \"#utility.yul\":14693:14718   */\n      swap2\n      pop\n        /* \"#utility.yul\":14732:14752   */\n      tag_569\n        /* \"#utility.yul\":14750:14751   */\n      dup4\n        /* \"#utility.yul\":14732:14752   */\n      tag_348\n      jump\t// in\n    tag_569:\n        /* \"#utility.yul\":14727:14752   */\n      swap3\n      pop\n        /* \"#utility.yul\":14776:14777   */\n      dup3\n        /* \"#utility.yul\":14773:14774   */\n      dup3\n        /* \"#utility.yul\":14769:14778   */\n      sub\n        /* \"#utility.yul\":14761:14778   */\n      swap1\n      pop\n        /* \"#utility.yul\":14800:14801   */\n      dup2\n        /* \"#utility.yul\":14794:14798   */\n      dup2\n        /* \"#utility.yul\":14791:14802   */\n      gt\n        /* \"#utility.yul\":14788:14825   */\n      iszero\n      tag_570\n      jumpi\n        /* \"#utility.yul\":14805:14823   */\n      tag_571\n      tag_388\n      jump\t// in\n    tag_571:\n        /* \"#utility.yul\":14788:14825   */\n    tag_570:\n        /* \"#utility.yul\":14638:14832   */\n      swap3\n      swap2\n      pop\n      pop\n      jump\t// out\n        /* \"#utility.yul\":14838:15018   */\n    tag_128:\n        /* \"#utility.yul\":14886:14963   */\n      0x4e487b7100000000000000000000000000000000000000000000000000000000\n        /* \"#utility.yul\":14883:14884   */\n      0x00\n        /* \"#utility.yul\":14876:14964   */\n      mstore\n        /* \"#utility.yul\":14983:14987   */\n      0x41\n        /* \"#utility.yul\":14980:14981   */\n      0x04\n        /* \"#utility.yul\":14973:14988   */\n      mstore\n        /* \"#utility.yul\":15007:15011   */\n      0x24\n        /* \"#utility.yul\":15004:15005   */\n      0x00\n        /* \"#utility.yul\":14997:15012   */\n      revert\n        /* \"#utility.yul\":15024:15248   */\n    tag_392:\n        /* \"#utility.yul\":15164:15198   */\n      0x496e766573746d656e7420616d6f756e7420626574657765656e203120616e64\n        /* \"#utility.yul\":15160:15161   */\n      0x00\n        /* \"#utility.yul\":15152:15158   */\n      dup3\n        /* \"#utility.yul\":15148:15162   */\n      add\n        /* \"#utility.yul\":15141:15199   */\n      mstore\n        /* \"#utility.yul\":15233:15240   */\n      0x2031303030000000000000000000000000000000000000000000000000000000\n        /* \"#utility.yul\":15228:15230   */\n      0x20\n        /* \"#utility.yul\":15220:15226   */\n      dup3\n        /* \"#utility.yul\":15216:15231   */\n      add\n        /* \"#utility.yul\":15209:15241   */\n      mstore\n        /* \"#utility.yul\":15024:15248   */\n      pop\n      jump\t// out\n        /* \"#utility.yul\":15254:15620   */\n    tag_393:\n        /* \"#utility.yul\":15396:15399   */\n      0x00\n        /* \"#utility.yul\":15417:15484   */\n      tag_575\n        /* \"#utility.yul\":15481:15483   */\n      0x25\n        /* \"#utility.yul\":15476:15479   */\n      dup4\n        /* \"#utility.yul\":15417:15484   */\n      tag_385\n      jump\t// in\n    tag_575:\n        /* \"#utility.yul\":15410:15484   */\n      swap2\n      pop\n        /* \"#utility.yul\":15493:15586   */\n      tag_576\n        /* \"#utility.yul\":15582:15585   */\n      dup3\n        /* \"#utility.yul\":15493:15586   */\n      tag_392\n      jump\t// in\n    tag_576:\n        /* \"#utility.yul\":15611:15613   */\n      0x40\n        /* \"#utility.yul\":15606:15609   */\n      dup3\n        /* \"#utility.yul\":15602:15614   */\n      add\n        /* \"#utility.yul\":15595:15614   */\n      swap1\n      pop\n        /* \"#utility.yul\":15254:15620   */\n      swap2\n      swap1\n      pop\n      jump\t// out\n        /* \"#utility.yul\":15626:16045   */\n    tag_147:\n        /* \"#utility.yul\":15792:15796   */\n      0x00\n        /* \"#utility.yul\":15830:15832   */\n      0x20\n        /* \"#utility.yul\":15819:15828   */\n      dup3\n        /* \"#utility.yul\":15815:15833   */\n      add\n        /* \"#utility.yul\":15807:15833   */\n      swap1\n      pop\n        /* \"#utility.yul\":15879:15888   */\n      dup2\n        /* \"#utility.yul\":15873:15877   */\n      dup2\n        /* \"#utility.yul\":15869:15889   */\n      sub\n        /* \"#utility.yul\":15865:15866   */\n      0x00\n        /* \"#utility.yul\":15854:15863   */\n      dup4\n        /* \"#utility.yul\":15850:15867   */\n      add\n        /* \"#utility.yul\":15843:15890   */\n      mstore\n        /* \"#utility.yul\":15907:16038   */\n      tag_578\n        /* \"#utility.yul\":16033:16037   */\n      dup2\n        /* \"#utility.yul\":15907:16038   */\n      tag_393\n      jump\t// in\n    tag_578:\n        /* \"#utility.yul\":15899:16038   */\n      swap1\n      pop\n        /* \"#utility.yul\":15626:16045   */\n      swap2\n      swap1\n      pop\n      jump\t// out\n        /* \"#utility.yul\":16051:16275   */\n    tag_394:\n        /* \"#utility.yul\":16191:16225   */\n      0x596f7520646f6e2774206861766520756e64726177206c6f7474657279207469\n        /* \"#utility.yul\":16187:16188   */\n      0x00\n        /* \"#utility.yul\":16179:16185   */\n      dup3\n        /* \"#utility.yul\":16175:16189   */\n      add\n        /* \"#utility.yul\":16168:16226   */\n      mstore\n        /* \"#utility.yul\":16260:16267   */\n      0x636b657473000000000000000000000000000000000000000000000000000000\n        /* \"#utility.yul\":16255:16257   */\n      0x20\n        /* \"#utility.yul\":16247:16253   */\n      dup3\n        /* \"#utility.yul\":16243:16258   */\n      add\n        /* \"#utility.yul\":16236:16268   */\n      mstore\n        /* \"#utility.yul\":16051:16275   */\n      pop\n      jump\t// out\n        /* \"#utility.yul\":16281:16647   */\n    tag_395:\n        /* \"#utility.yul\":16423:16426   */\n      0x00\n        /* \"#utility.yul\":16444:16511   */\n      tag_581\n        /* \"#utility.yul\":16508:16510   */\n      0x25\n        /* \"#utility.yul\":16503:16506   */\n      dup4\n        /* \"#utility.yul\":16444:16511   */\n      tag_385\n      jump\t// in\n    tag_581:\n        /* \"#utility.yul\":16437:16511   */\n      swap2\n      pop\n        /* \"#utility.yul\":16520:16613   */\n      tag_582\n        /* \"#utility.yul\":16609:16612   */\n      dup3\n        /* \"#utility.yul\":16520:16613   */\n      tag_394\n      jump\t// in\n    tag_582:\n        /* \"#utility.yul\":16638:16640   */\n      0x40\n        /* \"#utility.yul\":16633:16636   */\n      dup3\n        /* \"#utility.yul\":16629:16641   */\n      add\n        /* \"#utility.yul\":16622:16641   */\n      swap1\n      pop\n        /* \"#utility.yul\":16281:16647   */\n      swap2\n      swap1\n      pop\n      jump\t// out\n        /* \"#utility.yul\":16653:17072   */\n    tag_159:\n        /* \"#utility.yul\":16819:16823   */\n      0x00\n        /* \"#utility.yul\":16857:16859   */\n      0x20\n        /* \"#utility.yul\":16846:16855   */\n      dup3\n        /* \"#utility.yul\":16842:16860   */\n      add\n        /* \"#utility.yul\":16834:16860   */\n      swap1\n      pop\n        /* \"#utility.yul\":16906:16915   */\n      dup2\n        /* \"#utility.yul\":16900:16904   */\n      dup2\n        /* \"#utility.yul\":16896:16916   */\n      sub\n        /* \"#utility.yul\":16892:16893   */\n      0x00\n        /* \"#utility.yul\":16881:16890   */\n      dup4\n        /* \"#utility.yul\":16877:16894   */\n      add\n        /* \"#utility.yul\":16870:16917   */\n      mstore\n        /* \"#utility.yul\":16934:17065   */\n      tag_584\n        /* \"#utility.yul\":17060:17064   */\n      dup2\n        /* \"#utility.yul\":16934:17065   */\n      tag_395\n      jump\t// in\n    tag_584:\n        /* \"#utility.yul\":16926:17065   */\n      swap1\n      pop\n        /* \"#utility.yul\":16653:17072   */\n      swap2\n      swap1\n      pop\n      jump\t// out\n        /* \"#utility.yul\":17078:17241   */\n    tag_396:\n        /* \"#utility.yul\":17218:17233   */\n      0x49742773206e6f742074696d6500000000000000000000000000000000000000\n        /* \"#utility.yul\":17214:17215   */\n      0x00\n        /* \"#utility.yul\":17206:17212   */\n      dup3\n        /* \"#utility.yul\":17202:17216   */\n      add\n        /* \"#utility.yul\":17195:17234   */\n      mstore\n        /* \"#utility.yul\":17078:17241   */\n      pop\n      jump\t// out\n        /* \"#utility.yul\":17247:17613   */\n    tag_397:\n        /* \"#utility.yul\":17389:17392   */\n      0x00\n        /* \"#utility.yul\":17410:17477   */\n      tag_587\n        /* \"#utility.yul\":17474:17476   */\n      0x0d\n        /* \"#utility.yul\":17469:17472   */\n      dup4\n        /* \"#utility.yul\":17410:17477   */\n      tag_385\n      jump\t// in\n    tag_587:\n        /* \"#utility.yul\":17403:17477   */\n      swap2\n      pop\n        /* \"#utility.yul\":17486:17579   */\n      tag_588\n        /* \"#utility.yul\":17575:17578   */\n      dup3\n        /* \"#utility.yul\":17486:17579   */\n      tag_396\n      jump\t// in\n    tag_588:\n        /* \"#utility.yul\":17604:17606   */\n      0x20\n        /* \"#utility.yul\":17599:17602   */\n      dup3\n        /* \"#utility.yul\":17595:17607   */\n      add\n        /* \"#utility.yul\":17588:17607   */\n      swap1\n      pop\n        /* \"#utility.yul\":17247:17613   */\n      swap2\n      swap1\n      pop\n      jump\t// out\n        /* \"#utility.yul\":17619:18038   */\n    tag_166:\n        /* \"#utility.yul\":17785:17789   */\n      0x00\n        /* \"#utility.yul\":17823:17825   */\n      0x20\n        /* \"#utility.yul\":17812:17821   */\n      dup3\n        /* \"#utility.yul\":17808:17826   */\n      add\n        /* \"#utility.yul\":17800:17826   */\n      swap1\n      pop\n        /* \"#utility.yul\":17872:17881   */\n      dup2\n        /* \"#utility.yul\":17866:17870   */\n      dup2\n        /* \"#utility.yul\":17862:17882   */\n      sub\n        /* \"#utility.yul\":17858:17859   */\n      0x00\n        /* \"#utility.yul\":17847:17856   */\n      dup4\n        /* \"#utility.yul\":17843:17860   */\n      add\n        /* \"#utility.yul\":17836:17883   */\n      mstore\n        /* \"#utility.yul\":17900:18031   */\n      tag_590\n        /* \"#utility.yul\":18026:18030   */\n      dup2\n        /* \"#utility.yul\":17900:18031   */\n      tag_397\n      jump\t// in\n    tag_590:\n        /* \"#utility.yul\":17892:18031   */\n      swap1\n      pop\n        /* \"#utility.yul\":17619:18038   */\n      swap2\n      swap1\n      pop\n      jump\t// out\n        /* \"#utility.yul\":18044:18121   */\n    tag_398:\n        /* \"#utility.yul\":18081:18088   */\n      0x00\n        /* \"#utility.yul\":18110:18115   */\n      dup2\n        /* \"#utility.yul\":18099:18115   */\n      swap1\n      pop\n        /* \"#utility.yul\":18044:18121   */\n      swap2\n      swap1\n      pop\n      jump\t// out\n        /* \"#utility.yul\":18127:18206   */\n    tag_399:\n        /* \"#utility.yul\":18166:18173   */\n      0x00\n        /* \"#utility.yul\":18195:18200   */\n      dup2\n        /* \"#utility.yul\":18184:18200   */\n      swap1\n      pop\n        /* \"#utility.yul\":18127:18206   */\n      swap2\n      swap1\n      pop\n      jump\t// out\n        /* \"#utility.yul\":18212:18369   */\n    tag_400:\n        /* \"#utility.yul\":18317:18362   */\n      tag_594\n        /* \"#utility.yul\":18337:18361   */\n      tag_595\n        /* \"#utility.yul\":18355:18360   */\n      dup3\n        /* \"#utility.yul\":18337:18361   */\n      tag_398\n      jump\t// in\n    tag_595:\n        /* \"#utility.yul\":18317:18362   */\n      tag_399\n      jump\t// in\n    tag_594:\n        /* \"#utility.yul\":18312:18315   */\n      dup3\n        /* \"#utility.yul\":18305:18363   */\n      mstore\n        /* \"#utility.yul\":18212:18369   */\n      pop\n      pop\n      jump\t// out\n        /* \"#utility.yul\":18375:18772   */\n    tag_184:\n        /* \"#utility.yul\":18515:18518   */\n      0x00\n        /* \"#utility.yul\":18530:18605   */\n      tag_597\n        /* \"#utility.yul\":18601:18604   */\n      dup3\n        /* \"#utility.yul\":18592:18598   */\n      dup6\n        /* \"#utility.yul\":18530:18605   */\n      tag_400\n      jump\t// in\n    tag_597:\n        /* \"#utility.yul\":18630:18632   */\n      0x20\n        /* \"#utility.yul\":18625:18628   */\n      dup3\n        /* \"#utility.yul\":18621:18633   */\n      add\n        /* \"#utility.yul\":18614:18633   */\n      swap2\n      pop\n        /* \"#utility.yul\":18643:18718   */\n      tag_598\n        /* \"#utility.yul\":18714:18717   */\n      dup3\n        /* \"#utility.yul\":18705:18711   */\n      dup5\n        /* \"#utility.yul\":18643:18718   */\n      tag_400\n      jump\t// in\n    tag_598:\n        /* \"#utility.yul\":18743:18745   */\n      0x20\n        /* \"#utility.yul\":18738:18741   */\n      dup3\n        /* \"#utility.yul\":18734:18746   */\n      add\n        /* \"#utility.yul\":18727:18746   */\n      swap2\n      pop\n        /* \"#utility.yul\":18763:18766   */\n      dup2\n        /* \"#utility.yul\":18756:18766   */\n      swap1\n      pop\n        /* \"#utility.yul\":18375:18772   */\n      swap4\n      swap3\n      pop\n      pop\n      pop\n      jump\t// out\n        /* \"#utility.yul\":18778:19188   */\n    tag_194:\n        /* \"#utility.yul\":18818:18825   */\n      0x00\n        /* \"#utility.yul\":18841:18861   */\n      tag_600\n        /* \"#utility.yul\":18859:18860   */\n      dup3\n        /* \"#utility.yul\":18841:18861   */\n      tag_348\n      jump\t// in\n    tag_600:\n        /* \"#utility.yul\":18836:18861   */\n      swap2\n      pop\n        /* \"#utility.yul\":18875:18895   */\n      tag_601\n        /* \"#utility.yul\":18893:18894   */\n      dup4\n        /* \"#utility.yul\":18875:18895   */\n      tag_348\n      jump\t// in\n    tag_601:\n        /* \"#utility.yul\":18870:18895   */\n      swap3\n      pop\n        /* \"#utility.yul\":18930:18931   */\n      dup3\n        /* \"#utility.yul\":18927:18928   */\n      dup3\n        /* \"#utility.yul\":18923:18932   */\n      mul\n        /* \"#utility.yul\":18952:18982   */\n      tag_602\n        /* \"#utility.yul\":18970:18981   */\n      dup2\n        /* \"#utility.yul\":18952:18982   */\n      tag_348\n      jump\t// in\n    tag_602:\n        /* \"#utility.yul\":18941:18982   */\n      swap2\n      pop\n        /* \"#utility.yul\":19131:19132   */\n      dup3\n        /* \"#utility.yul\":19122:19129   */\n      dup3\n        /* \"#utility.yul\":19118:19133   */\n      div\n        /* \"#utility.yul\":19115:19116   */\n      dup5\n        /* \"#utility.yul\":19112:19134   */\n      eq\n        /* \"#utility.yul\":19092:19093   */\n      dup4\n        /* \"#utility.yul\":19085:19094   */\n      iszero\n        /* \"#utility.yul\":19065:19148   */\n      or\n        /* \"#utility.yul\":19042:19181   */\n      tag_603\n      jumpi\n        /* \"#utility.yul\":19161:19179   */\n      tag_604\n      tag_388\n      jump\t// in\n    tag_604:\n        /* \"#utility.yul\":19042:19181   */\n    tag_603:\n        /* \"#utility.yul\":18826:19188   */\n      pop\n        /* \"#utility.yul\":18778:19188   */\n      swap3\n      swap2\n      pop\n      pop\n      jump\t// out\n        /* \"#utility.yul\":19194:19364   */\n    tag_401:\n        /* \"#utility.yul\":19334:19356   */\n      0x427579206174206c65617374206f6e6520656767000000000000000000000000\n        /* \"#utility.yul\":19330:19331   */\n      0x00\n        /* \"#utility.yul\":19322:19328   */\n      dup3\n        /* \"#utility.yul\":19318:19332   */\n      add\n        /* \"#utility.yul\":19311:19357   */\n      mstore\n        /* \"#utility.yul\":19194:19364   */\n      pop\n      jump\t// out\n        /* \"#utility.yul\":19370:19736   */\n    tag_402:\n        /* \"#utility.yul\":19512:19515   */\n      0x00\n        /* \"#utility.yul\":19533:19600   */\n      tag_607\n        /* \"#utility.yul\":19597:19599   */\n      0x14\n        /* \"#utility.yul\":19592:19595   */\n      dup4\n        /* \"#utility.yul\":19533:19600   */\n      tag_385\n      jump\t// in\n    tag_607:\n        /* \"#utility.yul\":19526:19600   */\n      swap2\n      pop\n        /* \"#utility.yul\":19609:19702   */\n      tag_608\n        /* \"#utility.yul\":19698:19701   */\n      dup3\n        /* \"#utility.yul\":19609:19702   */\n      tag_401\n      jump\t// in\n    tag_608:\n        /* \"#utility.yul\":19727:19729   */\n      0x20\n        /* \"#utility.yul\":19722:19725   */\n      dup3\n        /* \"#utility.yul\":19718:19730   */\n      add\n        /* \"#utility.yul\":19711:19730   */\n      swap1\n      pop\n        /* \"#utility.yul\":19370:19736   */\n      swap2\n      swap1\n      pop\n      jump\t// out\n        /* \"#utility.yul\":19742:20161   */\n    tag_225:\n        /* \"#utility.yul\":19908:19912   */\n      0x00\n        /* \"#utility.yul\":19946:19948   */\n      0x20\n        /* \"#utility.yul\":19935:19944   */\n      dup3\n        /* \"#utility.yul\":19931:19949   */\n      add\n        /* \"#utility.yul\":19923:19949   */\n      swap1\n      pop\n        /* \"#utility.yul\":19995:20004   */\n      dup2\n        /* \"#utility.yul\":19989:19993   */\n      dup2\n        /* \"#utility.yul\":19985:20005   */\n      sub\n        /* \"#utility.yul\":19981:19982   */\n      0x00\n        /* \"#utility.yul\":19970:19979   */\n      dup4\n        /* \"#utility.yul\":19966:19983   */\n      add\n        /* \"#utility.yul\":19959:20006   */\n      mstore\n        /* \"#utility.yul\":20023:20154   */\n      tag_610\n        /* \"#utility.yul\":20149:20153   */\n      dup2\n        /* \"#utility.yul\":20023:20154   */\n      tag_402\n      jump\t// in\n    tag_610:\n        /* \"#utility.yul\":20015:20154   */\n      swap1\n      pop\n        /* \"#utility.yul\":19742:20161   */\n      swap2\n      swap1\n      pop\n      jump\t// out\n        /* \"#utility.yul\":20167:20344   */\n    tag_403:\n        /* \"#utility.yul\":20307:20336   */\n      0x4d756c7469706c6573206265747765656e203120616e64203130300000000000\n        /* \"#utility.yul\":20303:20304   */\n      0x00\n        /* \"#utility.yul\":20295:20301   */\n      dup3\n        /* \"#utility.yul\":20291:20305   */\n      add\n        /* \"#utility.yul\":20284:20337   */\n      mstore\n        /* \"#utility.yul\":20167:20344   */\n      pop\n      jump\t// out\n        /* \"#utility.yul\":20350:20716   */\n    tag_404:\n        /* \"#utility.yul\":20492:20495   */\n      0x00\n        /* \"#utility.yul\":20513:20580   */\n      tag_613\n        /* \"#utility.yul\":20577:20579   */\n      0x1b\n        /* \"#utility.yul\":20572:20575   */\n      dup4\n        /* \"#utility.yul\":20513:20580   */\n      tag_385\n      jump\t// in\n    tag_613:\n        /* \"#utility.yul\":20506:20580   */\n      swap2\n      pop\n        /* \"#utility.yul\":20589:20682   */\n      tag_614\n        /* \"#utility.yul\":20678:20681   */\n      dup3\n        /* \"#utility.yul\":20589:20682   */\n      tag_403\n      jump\t// in\n    tag_614:\n        /* \"#utility.yul\":20707:20709   */\n      0x20\n        /* \"#utility.yul\":20702:20705   */\n      dup3\n        /* \"#utility.yul\":20698:20710   */\n      add\n        /* \"#utility.yul\":20691:20710   */\n      swap1\n      pop\n        /* \"#utility.yul\":20350:20716   */\n      swap2\n      swap1\n      pop\n      jump\t// out\n        /* \"#utility.yul\":20722:21141   */\n    tag_229:\n        /* \"#utility.yul\":20888:20892   */\n      0x00\n        /* \"#utility.yul\":20926:20928   */\n      0x20\n        /* \"#utility.yul\":20915:20924   */\n      dup3\n        /* \"#utility.yul\":20911:20929   */\n      add\n        /* \"#utility.yul\":20903:20929   */\n      swap1\n      pop\n        /* \"#utility.yul\":20975:20984   */\n      dup2\n        /* \"#utility.yul\":20969:20973   */\n      dup2\n        /* \"#utility.yul\":20965:20985   */\n      sub\n        /* \"#utility.yul\":20961:20962   */\n      0x00\n        /* \"#utility.yul\":20950:20959   */\n      dup4\n        /* \"#utility.yul\":20946:20963   */\n      add\n        /* \"#utility.yul\":20939:20986   */\n      mstore\n        /* \"#utility.yul\":21003:21134   */\n      tag_616\n        /* \"#utility.yul\":21129:21133   */\n      dup2\n        /* \"#utility.yul\":21003:21134   */\n      tag_404\n      jump\t// in\n    tag_616:\n        /* \"#utility.yul\":20995:21134   */\n      swap1\n      pop\n        /* \"#utility.yul\":20722:21141   */\n      swap2\n      swap1\n      pop\n      jump\t// out\n        /* \"#utility.yul\":21147:21329   */\n    tag_405:\n        /* \"#utility.yul\":21287:21321   */\n      0x4e756d626572206f662065676773206265747765656e203120616e6420313030\n        /* \"#utility.yul\":21283:21284   */\n      0x00\n        /* \"#utility.yul\":21275:21281   */\n      dup3\n        /* \"#utility.yul\":21271:21285   */\n      add\n        /* \"#utility.yul\":21264:21322   */\n      mstore\n        /* \"#utility.yul\":21147:21329   */\n      pop\n      jump\t// out\n        /* \"#utility.yul\":21335:21701   */\n    tag_406:\n        /* \"#utility.yul\":21477:21480   */\n      0x00\n        /* \"#utility.yul\":21498:21565   */\n      tag_619\n        /* \"#utility.yul\":21562:21564   */\n      0x20\n        /* \"#utility.yul\":21557:21560   */\n      dup4\n        /* \"#utility.yul\":21498:21565   */\n      tag_385\n      jump\t// in\n    tag_619:\n        /* \"#utility.yul\":21491:21565   */\n      swap2\n      pop\n        /* \"#utility.yul\":21574:21667   */\n      tag_620\n        /* \"#utility.yul\":21663:21666   */\n      dup3\n        /* \"#utility.yul\":21574:21667   */\n      tag_405\n      jump\t// in\n    tag_620:\n        /* \"#utility.yul\":21692:21694   */\n      0x20\n        /* \"#utility.yul\":21687:21690   */\n      dup3\n        /* \"#utility.yul\":21683:21695   */\n      add\n        /* \"#utility.yul\":21676:21695   */\n      swap1\n      pop\n        /* \"#utility.yul\":21335:21701   */\n      swap2\n      swap1\n      pop\n      jump\t// out\n        /* \"#utility.yul\":21707:22126   */\n    tag_233:\n        /* \"#utility.yul\":21873:21877   */\n      0x00\n        /* \"#utility.yul\":21911:21913   */\n      0x20\n        /* \"#utility.yul\":21900:21909   */\n      dup3\n        /* \"#utility.yul\":21896:21914   */\n      add\n        /* \"#utility.yul\":21888:21914   */\n      swap1\n      pop\n        /* \"#utility.yul\":21960:21969   */\n      dup2\n        /* \"#utility.yul\":21954:21958   */\n      dup2\n        /* \"#utility.yul\":21950:21970   */\n      sub\n        /* \"#utility.yul\":21946:21947   */\n      0x00\n        /* \"#utility.yul\":21935:21944   */\n      dup4\n        /* \"#utility.yul\":21931:21948   */\n      add\n        /* \"#utility.yul\":21924:21971   */\n      mstore\n        /* \"#utility.yul\":21988:22119   */\n      tag_622\n        /* \"#utility.yul\":22114:22118   */\n      dup2\n        /* \"#utility.yul\":21988:22119   */\n      tag_406\n      jump\t// in\n    tag_622:\n        /* \"#utility.yul\":21980:22119   */\n      swap1\n      pop\n        /* \"#utility.yul\":21707:22126   */\n      swap2\n      swap1\n      pop\n      jump\t// out\n        /* \"#utility.yul\":22132:22407   */\n    tag_236:\n        /* \"#utility.yul\":22171:22178   */\n      0x00\n        /* \"#utility.yul\":22194:22213   */\n      tag_624\n        /* \"#utility.yul\":22211:22212   */\n      dup3\n        /* \"#utility.yul\":22194:22213   */\n      tag_368\n      jump\t// in\n    tag_624:\n        /* \"#utility.yul\":22189:22213   */\n      swap2\n      pop\n        /* \"#utility.yul\":22227:22246   */\n      tag_625\n        /* \"#utility.yul\":22244:22245   */\n      dup4\n        /* \"#utility.yul\":22227:22246   */\n      tag_368\n      jump\t// in\n    tag_625:\n        /* \"#utility.yul\":22222:22246   */\n      swap3\n      pop\n        /* \"#utility.yul\":22281:22282   */\n      dup3\n        /* \"#utility.yul\":22278:22279   */\n      dup3\n        /* \"#utility.yul\":22274:22283   */\n      mul\n        /* \"#utility.yul\":22303:22332   */\n      tag_626\n        /* \"#utility.yul\":22320:22331   */\n      dup2\n        /* \"#utility.yul\":22303:22332   */\n      tag_368\n      jump\t// in\n    tag_626:\n        /* \"#utility.yul\":22292:22332   */\n      swap2\n      pop\n        /* \"#utility.yul\":22364:22375   */\n      dup1\n        /* \"#utility.yul\":22355:22362   */\n      dup3\n        /* \"#utility.yul\":22352:22376   */\n      eq\n        /* \"#utility.yul\":22342:22400   */\n      tag_627\n      jumpi\n        /* \"#utility.yul\":22380:22398   */\n      tag_628\n      tag_388\n      jump\t// in\n    tag_628:\n        /* \"#utility.yul\":22342:22400   */\n    tag_627:\n        /* \"#utility.yul\":22179:22407   */\n      pop\n        /* \"#utility.yul\":22132:22407   */\n      swap3\n      swap2\n      pop\n      pop\n      jump\t// out\n        /* \"#utility.yul\":22413:22575   */\n    tag_407:\n        /* \"#utility.yul\":22553:22567   */\n      0x496e76616c696420646174610000000000000000000000000000000000000000\n        /* \"#utility.yul\":22549:22550   */\n      0x00\n        /* \"#utility.yul\":22541:22547   */\n      dup3\n        /* \"#utility.yul\":22537:22551   */\n      add\n        /* \"#utility.yul\":22530:22568   */\n      mstore\n        /* \"#utility.yul\":22413:22575   */\n      pop\n      jump\t// out\n        /* \"#utility.yul\":22581:22947   */\n    tag_408:\n        /* \"#utility.yul\":22723:22726   */\n      0x00\n        /* \"#utility.yul\":22744:22811   */\n      tag_631\n        /* \"#utility.yul\":22808:22810   */\n      0x0c\n        /* \"#utility.yul\":22803:22806   */\n      dup4\n        /* \"#utility.yul\":22744:22811   */\n      tag_385\n      jump\t// in\n    tag_631:\n        /* \"#utility.yul\":22737:22811   */\n      swap2\n      pop\n        /* \"#utility.yul\":22820:22913   */\n      tag_632\n        /* \"#utility.yul\":22909:22912   */\n      dup3\n        /* \"#utility.yul\":22820:22913   */\n      tag_407\n      jump\t// in\n    tag_632:\n        /* \"#utility.yul\":22938:22940   */\n      0x20\n        /* \"#utility.yul\":22933:22936   */\n      dup3\n        /* \"#utility.yul\":22929:22941   */\n      add\n        /* \"#utility.yul\":22922:22941   */\n      swap1\n      pop\n        /* \"#utility.yul\":22581:22947   */\n      swap2\n      swap1\n      pop\n      jump\t// out\n        /* \"#utility.yul\":22953:23372   */\n    tag_239:\n        /* \"#utility.yul\":23119:23123   */\n      0x00\n        /* \"#utility.yul\":23157:23159   */\n      0x20\n        /* \"#utility.yul\":23146:23155   */\n      dup3\n        /* \"#utility.yul\":23142:23160   */\n      add\n        /* \"#utility.yul\":23134:23160   */\n      swap1\n      pop\n        /* \"#utility.yul\":23206:23215   */\n      dup2\n        /* \"#utility.yul\":23200:23204   */\n      dup2\n        /* \"#utility.yul\":23196:23216   */\n      sub\n        /* \"#utility.yul\":23192:23193   */\n      0x00\n        /* \"#utility.yul\":23181:23190   */\n      dup4\n        /* \"#utility.yul\":23177:23194   */\n      add\n        /* \"#utility.yul\":23170:23217   */\n      mstore\n        /* \"#utility.yul\":23234:23365   */\n      tag_634\n        /* \"#utility.yul\":23360:23364   */\n      dup2\n        /* \"#utility.yul\":23234:23365   */\n      tag_408\n      jump\t// in\n    tag_634:\n        /* \"#utility.yul\":23226:23365   */\n      swap1\n      pop\n        /* \"#utility.yul\":22953:23372   */\n      swap2\n      swap1\n      pop\n      jump\t// out\n        /* \"#utility.yul\":23378:23605   */\n    tag_244:\n        /* \"#utility.yul\":23417:23420   */\n      0x00\n        /* \"#utility.yul\":23440:23464   */\n      tag_636\n        /* \"#utility.yul\":23458:23463   */\n      dup3\n        /* \"#utility.yul\":23440:23464   */\n      tag_373\n      jump\t// in\n    tag_636:\n        /* \"#utility.yul\":23431:23464   */\n      swap2\n      pop\n        /* \"#utility.yul\":23486:23546   */\n      0xffffffffffffffffffffffffffffffffffffffffffffffffffffffffff\n        /* \"#utility.yul\":23479:23484   */\n      dup3\n        /* \"#utility.yul\":23476:23547   */\n      sub\n        /* \"#utility.yul\":23473:23570   */\n      tag_637\n      jumpi\n        /* \"#utility.yul\":23550:23568   */\n      tag_638\n      tag_388\n      jump\t// in\n    tag_638:\n        /* \"#utility.yul\":23473:23570   */\n    tag_637:\n        /* \"#utility.yul\":23597:23598   */\n      0x01\n        /* \"#utility.yul\":23590:23595   */\n      dup3\n        /* \"#utility.yul\":23586:23599   */\n      add\n        /* \"#utility.yul\":23579:23599   */\n      swap1\n      pop\n        /* \"#utility.yul\":23378:23605   */\n      swap2\n      swap1\n      pop\n      jump\t// out\n        /* \"#utility.yul\":23611:23690   */\n    tag_409:\n        /* \"#utility.yul\":23650:23657   */\n      0x00\n        /* \"#utility.yul\":23679:23684   */\n      dup2\n        /* \"#utility.yul\":23668:23684   */\n      swap1\n      pop\n        /* \"#utility.yul\":23611:23690   */\n      swap2\n      swap1\n      pop\n      jump\t// out\n        /* \"#utility.yul\":23696:23853   */\n    tag_410:\n        /* \"#utility.yul\":23801:23846   */\n      tag_641\n        /* \"#utility.yul\":23821:23845   */\n      tag_642\n        /* \"#utility.yul\":23839:23844   */\n      dup3\n        /* \"#utility.yul\":23821:23845   */\n      tag_348\n      jump\t// in\n    tag_642:\n        /* \"#utility.yul\":23801:23846   */\n      tag_409\n      jump\t// in\n    tag_641:\n        /* \"#utility.yul\":23796:23799   */\n      dup3\n        /* \"#utility.yul\":23789:23847   */\n      mstore\n        /* \"#utility.yul\":23696:23853   */\n      pop\n      pop\n      jump\t// out\n        /* \"#utility.yul\":23859:23963   */\n    tag_411:\n        /* \"#utility.yul\":23904:23911   */\n      0x00\n        /* \"#utility.yul\":23933:23957   */\n      tag_644\n        /* \"#utility.yul\":23951:23956   */\n      dup3\n        /* \"#utility.yul\":23933:23957   */\n      tag_359\n      jump\t// in\n    tag_644:\n        /* \"#utility.yul\":23922:23957   */\n      swap1\n      pop\n        /* \"#utility.yul\":23859:23963   */\n      swap2\n      swap1\n      pop\n      jump\t// out\n        /* \"#utility.yul\":23969:24063   */\n    tag_412:\n        /* \"#utility.yul\":24002:24010   */\n      0x00\n        /* \"#utility.yul\":24050:24055   */\n      dup2\n        /* \"#utility.yul\":24046:24048   */\n      0x60\n        /* \"#utility.yul\":24042:24056   */\n      shl\n        /* \"#utility.yul\":24021:24056   */\n      swap1\n      pop\n        /* \"#utility.yul\":23969:24063   */\n      swap2\n      swap1\n      pop\n      jump\t// out\n        /* \"#utility.yul\":24069:24163   */\n    tag_413:\n        /* \"#utility.yul\":24108:24115   */\n      0x00\n        /* \"#utility.yul\":24137:24157   */\n      tag_647\n        /* \"#utility.yul\":24151:24156   */\n      dup3\n        /* \"#utility.yul\":24137:24157   */\n      tag_412\n      jump\t// in\n    tag_647:\n        /* \"#utility.yul\":24126:24157   */\n      swap1\n      pop\n        /* \"#utility.yul\":24069:24163   */\n      swap2\n      swap1\n      pop\n      jump\t// out\n        /* \"#utility.yul\":24169:24277   */\n    tag_414:\n        /* \"#utility.yul\":24216:24223   */\n      0x00\n        /* \"#utility.yul\":24245:24271   */\n      tag_649\n        /* \"#utility.yul\":24265:24270   */\n      dup3\n        /* \"#utility.yul\":24245:24271   */\n      tag_413\n      jump\t// in\n    tag_649:\n        /* \"#utility.yul\":24234:24271   */\n      swap1\n      pop\n        /* \"#utility.yul\":24169:24277   */\n      swap2\n      swap1\n      pop\n      jump\t// out\n        /* \"#utility.yul\":24283:24472   */\n    tag_415:\n        /* \"#utility.yul\":24404:24465   */\n      tag_651\n        /* \"#utility.yul\":24432:24464   */\n      tag_652\n        /* \"#utility.yul\":24458:24463   */\n      dup3\n        /* \"#utility.yul\":24432:24464   */\n      tag_411\n      jump\t// in\n    tag_652:\n        /* \"#utility.yul\":24404:24465   */\n      tag_414\n      jump\t// in\n    tag_651:\n        /* \"#utility.yul\":24399:24402   */\n      dup3\n        /* \"#utility.yul\":24392:24466   */\n      mstore\n        /* \"#utility.yul\":24283:24472   */\n      pop\n      pop\n      jump\t// out\n        /* \"#utility.yul\":24478:24578   */\n    tag_416:\n        /* \"#utility.yul\":24517:24524   */\n      0x00\n        /* \"#utility.yul\":24546:24572   */\n      tag_654\n        /* \"#utility.yul\":24566:24571   */\n      dup3\n        /* \"#utility.yul\":24546:24572   */\n      tag_413\n      jump\t// in\n    tag_654:\n        /* \"#utility.yul\":24535:24572   */\n      swap1\n      pop\n        /* \"#utility.yul\":24478:24578   */\n      swap2\n      swap1\n      pop\n      jump\t// out\n        /* \"#utility.yul\":24584:24741   */\n    tag_417:\n        /* \"#utility.yul\":24689:24734   */\n      tag_656\n        /* \"#utility.yul\":24709:24733   */\n      tag_657\n        /* \"#utility.yul\":24727:24732   */\n      dup3\n        /* \"#utility.yul\":24709:24733   */\n      tag_360\n      jump\t// in\n    tag_657:\n        /* \"#utility.yul\":24689:24734   */\n      tag_416\n      jump\t// in\n    tag_656:\n        /* \"#utility.yul\":24684:24687   */\n      dup3\n        /* \"#utility.yul\":24677:24735   */\n      mstore\n        /* \"#utility.yul\":24584:24741   */\n      pop\n      pop\n      jump\t// out\n        /* \"#utility.yul\":24747:24841   */\n    tag_418:\n        /* \"#utility.yul\":24780:24788   */\n      0x00\n        /* \"#utility.yul\":24828:24833   */\n      dup2\n        /* \"#utility.yul\":24824:24826   */\n      0x18\n        /* \"#utility.yul\":24820:24834   */\n      shl\n        /* \"#utility.yul\":24799:24834   */\n      swap1\n      pop\n        /* \"#utility.yul\":24747:24841   */\n      swap2\n      swap1\n      pop\n      jump\t// out\n        /* \"#utility.yul\":24847:24941   */\n    tag_419:\n        /* \"#utility.yul\":24886:24893   */\n      0x00\n        /* \"#utility.yul\":24915:24935   */\n      tag_660\n        /* \"#utility.yul\":24929:24934   */\n      dup3\n        /* \"#utility.yul\":24915:24935   */\n      tag_418\n      jump\t// in\n    tag_660:\n        /* \"#utility.yul\":24904:24935   */\n      swap1\n      pop\n        /* \"#utility.yul\":24847:24941   */\n      swap2\n      swap1\n      pop\n      jump\t// out\n        /* \"#utility.yul\":24947:25104   */\n    tag_420:\n        /* \"#utility.yul\":25052:25097   */\n      tag_662\n        /* \"#utility.yul\":25072:25096   */\n      tag_663\n        /* \"#utility.yul\":25090:25095   */\n      dup3\n        /* \"#utility.yul\":25072:25096   */\n      tag_373\n      jump\t// in\n    tag_663:\n        /* \"#utility.yul\":25052:25097   */\n      tag_419\n      jump\t// in\n    tag_662:\n        /* \"#utility.yul\":25047:25050   */\n      dup3\n        /* \"#utility.yul\":25040:25098   */\n      mstore\n        /* \"#utility.yul\":24947:25104   */\n      pop\n      pop\n      jump\t// out\n        /* \"#utility.yul\":25110:25821   */\n    tag_246:\n        /* \"#utility.yul\":25322:25325   */\n      0x00\n        /* \"#utility.yul\":25337:25412   */\n      tag_665\n        /* \"#utility.yul\":25408:25411   */\n      dup3\n        /* \"#utility.yul\":25399:25405   */\n      dup8\n        /* \"#utility.yul\":25337:25412   */\n      tag_410\n      jump\t// in\n    tag_665:\n        /* \"#utility.yul\":25437:25439   */\n      0x20\n        /* \"#utility.yul\":25432:25435   */\n      dup3\n        /* \"#utility.yul\":25428:25440   */\n      add\n        /* \"#utility.yul\":25421:25440   */\n      swap2\n      pop\n        /* \"#utility.yul\":25450:25541   */\n      tag_666\n        /* \"#utility.yul\":25537:25540   */\n      dup3\n        /* \"#utility.yul\":25528:25534   */\n      dup7\n        /* \"#utility.yul\":25450:25541   */\n      tag_415\n      jump\t// in\n    tag_666:\n        /* \"#utility.yul\":25566:25568   */\n      0x14\n        /* \"#utility.yul\":25561:25564   */\n      dup3\n        /* \"#utility.yul\":25557:25569   */\n      add\n        /* \"#utility.yul\":25550:25569   */\n      swap2\n      pop\n        /* \"#utility.yul\":25579:25654   */\n      tag_667\n        /* \"#utility.yul\":25650:25653   */\n      dup3\n        /* \"#utility.yul\":25641:25647   */\n      dup6\n        /* \"#utility.yul\":25579:25654   */\n      tag_417\n      jump\t// in\n    tag_667:\n        /* \"#utility.yul\":25679:25681   */\n      0x14\n        /* \"#utility.yul\":25674:25677   */\n      dup3\n        /* \"#utility.yul\":25670:25682   */\n      add\n        /* \"#utility.yul\":25663:25682   */\n      swap2\n      pop\n        /* \"#utility.yul\":25692:25767   */\n      tag_668\n        /* \"#utility.yul\":25763:25766   */\n      dup3\n        /* \"#utility.yul\":25754:25760   */\n      dup5\n        /* \"#utility.yul\":25692:25767   */\n      tag_420\n      jump\t// in\n    tag_668:\n        /* \"#utility.yul\":25792:25794   */\n      0x1d\n        /* \"#utility.yul\":25787:25790   */\n      dup3\n        /* \"#utility.yul\":25783:25795   */\n      add\n        /* \"#utility.yul\":25776:25795   */\n      swap2\n      pop\n        /* \"#utility.yul\":25812:25815   */\n      dup2\n        /* \"#utility.yul\":25805:25815   */\n      swap1\n      pop\n        /* \"#utility.yul\":25110:25821   */\n      swap6\n      swap5\n      pop\n      pop\n      pop\n      pop\n      pop\n      jump\t// out\n        /* \"#utility.yul\":25827:26126   */\n    tag_421:\n        /* \"#utility.yul\":25967:26001   */\n      0x4d696e696d756d20696e766573746d656e7420616d6f756e7420697320726571\n        /* \"#utility.yul\":25963:25964   */\n      0x00\n        /* \"#utility.yul\":25955:25961   */\n      dup3\n        /* \"#utility.yul\":25951:25965   */\n      add\n        /* \"#utility.yul\":25944:26002   */\n      mstore\n        /* \"#utility.yul\":26036:26070   */\n      0x75697265642c6974277320736d616c6c6572207468616e20746865206d696e69\n        /* \"#utility.yul\":26031:26033   */\n      0x20\n        /* \"#utility.yul\":26023:26029   */\n      dup3\n        /* \"#utility.yul\":26019:26034   */\n      add\n        /* \"#utility.yul\":26012:26071   */\n      mstore\n        /* \"#utility.yul\":26105:26118   */\n      0x6d756d206465706f736974000000000000000000000000000000000000000000\n        /* \"#utility.yul\":26100:26102   */\n      0x40\n        /* \"#utility.yul\":26092:26098   */\n      dup3\n        /* \"#utility.yul\":26088:26103   */\n      add\n        /* \"#utility.yul\":26081:26119   */\n      mstore\n        /* \"#utility.yul\":25827:26126   */\n      pop\n      jump\t// out\n        /* \"#utility.yul\":26132:26498   */\n    tag_422:\n        /* \"#utility.yul\":26274:26277   */\n      0x00\n        /* \"#utility.yul\":26295:26362   */\n      tag_671\n        /* \"#utility.yul\":26359:26361   */\n      0x4b\n        /* \"#utility.yul\":26354:26357   */\n      dup4\n        /* \"#utility.yul\":26295:26362   */\n      tag_385\n      jump\t// in\n    tag_671:\n        /* \"#utility.yul\":26288:26362   */\n      swap2\n      pop\n        /* \"#utility.yul\":26371:26464   */\n      tag_672\n        /* \"#utility.yul\":26460:26463   */\n      dup3\n        /* \"#utility.yul\":26371:26464   */\n      tag_421\n      jump\t// in\n    tag_672:\n        /* \"#utility.yul\":26489:26491   */\n      0x60\n        /* \"#utility.yul\":26484:26487   */\n      dup3\n        /* \"#utility.yul\":26480:26492   */\n      add\n        /* \"#utility.yul\":26473:26492   */\n      swap1\n      pop\n        /* \"#utility.yul\":26132:26498   */\n      swap2\n      swap1\n      pop\n      jump\t// out\n        /* \"#utility.yul\":26504:26923   */\n    tag_272:\n        /* \"#utility.yul\":26670:26674   */\n      0x00\n        /* \"#utility.yul\":26708:26710   */\n      0x20\n        /* \"#utility.yul\":26697:26706   */\n      dup3\n        /* \"#utility.yul\":26693:26711   */\n      add\n        /* \"#utility.yul\":26685:26711   */\n      swap1\n      pop\n        /* \"#utility.yul\":26757:26766   */\n      dup2\n        /* \"#utility.yul\":26751:26755   */\n      dup2\n        /* \"#utility.yul\":26747:26767   */\n      sub\n        /* \"#utility.yul\":26743:26744   */\n      0x00\n        /* \"#utility.yul\":26732:26741   */\n      dup4\n        /* \"#utility.yul\":26728:26745   */\n      add\n        /* \"#utility.yul\":26721:26768   */\n      mstore\n        /* \"#utility.yul\":26785:26916   */\n      tag_674\n        /* \"#utility.yul\":26911:26915   */\n      dup2\n        /* \"#utility.yul\":26785:26916   */\n      tag_422\n      jump\t// in\n    tag_674:\n        /* \"#utility.yul\":26777:26916   */\n      swap1\n      pop\n        /* \"#utility.yul\":26504:26923   */\n      swap2\n      swap1\n      pop\n      jump\t// out\n        /* \"#utility.yul\":26929:27107   */\n    tag_423:\n        /* \"#utility.yul\":27069:27099   */\n      0x4e6f7420656e6f7567682066756e6420746f2077697468647261772100000000\n        /* \"#utility.yul\":27065:27066   */\n      0x00\n        /* \"#utility.yul\":27057:27063   */\n      dup3\n        /* \"#utility.yul\":27053:27067   */\n      add\n        /* \"#utility.yul\":27046:27100   */\n      mstore\n        /* \"#utility.yul\":26929:27107   */\n      pop\n      jump\t// out\n        /* \"#utility.yul\":27113:27479   */\n    tag_424:\n        /* \"#utility.yul\":27255:27258   */\n      0x00\n        /* \"#utility.yul\":27276:27343   */\n      tag_677\n        /* \"#utility.yul\":27340:27342   */\n      0x1c\n        /* \"#utility.yul\":27335:27338   */\n      dup4\n        /* \"#utility.yul\":27276:27343   */\n      tag_385\n      jump\t// in\n    tag_677:\n        /* \"#utility.yul\":27269:27343   */\n      swap2\n      pop\n        /* \"#utility.yul\":27352:27445   */\n      tag_678\n        /* \"#utility.yul\":27441:27444   */\n      dup3\n        /* \"#utility.yul\":27352:27445   */\n      tag_423\n      jump\t// in\n    tag_678:\n        /* \"#utility.yul\":27470:27472   */\n      0x20\n        /* \"#utility.yul\":27465:27468   */\n      dup3\n        /* \"#utility.yul\":27461:27473   */\n      add\n        /* \"#utility.yul\":27454:27473   */\n      swap1\n      pop\n        /* \"#utility.yul\":27113:27479   */\n      swap2\n      swap1\n      pop\n      jump\t// out\n        /* \"#utility.yul\":27485:27904   */\n    tag_275:\n        /* \"#utility.yul\":27651:27655   */\n      0x00\n        /* \"#utility.yul\":27689:27691   */\n      0x20\n        /* \"#utility.yul\":27678:27687   */\n      dup3\n        /* \"#utility.yul\":27674:27692   */\n      add\n        /* \"#utility.yul\":27666:27692   */\n      swap1\n      pop\n        /* \"#utility.yul\":27738:27747   */\n      dup2\n        /* \"#utility.yul\":27732:27736   */\n      dup2\n        /* \"#utility.yul\":27728:27748   */\n      sub\n        /* \"#utility.yul\":27724:27725   */\n      0x00\n        /* \"#utility.yul\":27713:27722   */\n      dup4\n        /* \"#utility.yul\":27709:27726   */\n      add\n        /* \"#utility.yul\":27702:27749   */\n      mstore\n        /* \"#utility.yul\":27766:27897   */\n      tag_680\n        /* \"#utility.yul\":27892:27896   */\n      dup2\n        /* \"#utility.yul\":27766:27897   */\n      tag_424\n      jump\t// in\n    tag_680:\n        /* \"#utility.yul\":27758:27897   */\n      swap1\n      pop\n        /* \"#utility.yul\":27485:27904   */\n      swap2\n      swap1\n      pop\n      jump\t// out\n        /* \"#utility.yul\":27910:28091   */\n    tag_425:\n        /* \"#utility.yul\":28050:28083   */\n      0x43616e6e6f74207769746864726177206166746572206f6e65207765656b2100\n        /* \"#utility.yul\":28046:28047   */\n      0x00\n        /* \"#utility.yul\":28038:28044   */\n      dup3\n        /* \"#utility.yul\":28034:28048   */\n      add\n        /* \"#utility.yul\":28027:28084   */\n      mstore\n        /* \"#utility.yul\":27910:28091   */\n      pop\n      jump\t// out\n        /* \"#utility.yul\":28097:28463   */\n    tag_426:\n        /* \"#utility.yul\":28239:28242   */\n      0x00\n        /* \"#utility.yul\":28260:28327   */\n      tag_683\n        /* \"#utility.yul\":28324:28326   */\n      0x1f\n        /* \"#utility.yul\":28319:28322   */\n      dup4\n        /* \"#utility.yul\":28260:28327   */\n      tag_385\n      jump\t// in\n    tag_683:\n        /* \"#utility.yul\":28253:28327   */\n      swap2\n      pop\n        /* \"#utility.yul\":28336:28429   */\n      tag_684\n        /* \"#utility.yul\":28425:28428   */\n      dup3\n        /* \"#utility.yul\":28336:28429   */\n      tag_425\n      jump\t// in\n    tag_684:\n        /* \"#utility.yul\":28454:28456   */\n      0x20\n        /* \"#utility.yul\":28449:28452   */\n      dup3\n        /* \"#utility.yul\":28445:28457   */\n      add\n        /* \"#utility.yul\":28438:28457   */\n      swap1\n      pop\n        /* \"#utility.yul\":28097:28463   */\n      swap2\n      swap1\n      pop\n      jump\t// out\n        /* \"#utility.yul\":28469:28888   */\n    tag_279:\n        /* \"#utility.yul\":28635:28639   */\n      0x00\n        /* \"#utility.yul\":28673:28675   */\n      0x20\n        /* \"#utility.yul\":28662:28671   */\n      dup3\n        /* \"#utility.yul\":28658:28676   */\n      add\n        /* \"#utility.yul\":28650:28676   */\n      swap1\n      pop\n        /* \"#utility.yul\":28722:28731   */\n      dup2\n        /* \"#utility.yul\":28716:28720   */\n      dup2\n        /* \"#utility.yul\":28712:28732   */\n      sub\n        /* \"#utility.yul\":28708:28709   */\n      0x00\n        /* \"#utility.yul\":28697:28706   */\n      dup4\n        /* \"#utility.yul\":28693:28710   */\n      add\n        /* \"#utility.yul\":28686:28733   */\n      mstore\n        /* \"#utility.yul\":28750:28881   */\n      tag_686\n        /* \"#utility.yul\":28876:28880   */\n      dup2\n        /* \"#utility.yul\":28750:28881   */\n      tag_426\n      jump\t// in\n    tag_686:\n        /* \"#utility.yul\":28742:28881   */\n      swap1\n      pop\n        /* \"#utility.yul\":28469:28888   */\n      swap2\n      swap1\n      pop\n      jump\t// out\n        /* \"#utility.yul\":28894:29074   */\n    tag_427:\n        /* \"#utility.yul\":29034:29066   */\n      0x496e73756666696369656e742066756e6420746f207769746864726177210000\n        /* \"#utility.yul\":29030:29031   */\n      0x00\n        /* \"#utility.yul\":29022:29028   */\n      dup3\n        /* \"#utility.yul\":29018:29032   */\n      add\n        /* \"#utility.yul\":29011:29067   */\n      mstore\n        /* \"#utility.yul\":28894:29074   */\n      pop\n      jump\t// out\n        /* \"#utility.yul\":29080:29446   */\n    tag_428:\n        /* \"#utility.yul\":29222:29225   */\n      0x00\n        /* \"#utility.yul\":29243:29310   */\n      tag_689\n        /* \"#utility.yul\":29307:29309   */\n      0x1e\n        /* \"#utility.yul\":29302:29305   */\n      dup4\n        /* \"#utility.yul\":29243:29310   */\n      tag_385\n      jump\t// in\n    tag_689:\n        /* \"#utility.yul\":29236:29310   */\n      swap2\n      pop\n        /* \"#utility.yul\":29319:29412   */\n      tag_690\n        /* \"#utility.yul\":29408:29411   */\n      dup3\n        /* \"#utility.yul\":29319:29412   */\n      tag_427\n      jump\t// in\n    tag_690:\n        /* \"#utility.yul\":29437:29439   */\n      0x20\n        /* \"#utility.yul\":29432:29435   */\n      dup3\n        /* \"#utility.yul\":29428:29440   */\n      add\n        /* \"#utility.yul\":29421:29440   */\n      swap1\n      pop\n        /* \"#utility.yul\":29080:29446   */\n      swap2\n      swap1\n      pop\n      jump\t// out\n        /* \"#utility.yul\":29452:29871   */\n    tag_285:\n        /* \"#utility.yul\":29618:29622   */\n      0x00\n        /* \"#utility.yul\":29656:29658   */\n      0x20\n        /* \"#utility.yul\":29645:29654   */\n      dup3\n        /* \"#utility.yul\":29641:29659   */\n      add\n        /* \"#utility.yul\":29633:29659   */\n      swap1\n      pop\n        /* \"#utility.yul\":29705:29714   */\n      dup2\n        /* \"#utility.yul\":29699:29703   */\n      dup2\n        /* \"#utility.yul\":29695:29715   */\n      sub\n        /* \"#utility.yul\":29691:29692   */\n      0x00\n        /* \"#utility.yul\":29680:29689   */\n      dup4\n        /* \"#utility.yul\":29676:29693   */\n      add\n        /* \"#utility.yul\":29669:29716   */\n      mstore\n        /* \"#utility.yul\":29733:29864   */\n      tag_692\n        /* \"#utility.yul\":29859:29863   */\n      dup2\n        /* \"#utility.yul\":29733:29864   */\n      tag_428\n      jump\t// in\n    tag_692:\n        /* \"#utility.yul\":29725:29864   */\n      swap1\n      pop\n        /* \"#utility.yul\":29452:29871   */\n      swap2\n      swap1\n      pop\n      jump\t// out\n        /* \"#utility.yul\":29877:30052   */\n    tag_429:\n        /* \"#utility.yul\":30017:30044   */\n      0x596f75206d7573742062652074686520646576656c6f70657200000000000000\n        /* \"#utility.yul\":30013:30014   */\n      0x00\n        /* \"#utility.yul\":30005:30011   */\n      dup3\n        /* \"#utility.yul\":30001:30015   */\n      add\n        /* \"#utility.yul\":29994:30045   */\n      mstore\n        /* \"#utility.yul\":29877:30052   */\n      pop\n      jump\t// out\n        /* \"#utility.yul\":30058:30424   */\n    tag_430:\n        /* \"#utility.yul\":30200:30203   */\n      0x00\n        /* \"#utility.yul\":30221:30288   */\n      tag_695\n        /* \"#utility.yul\":30285:30287   */\n      0x19\n        /* \"#utility.yul\":30280:30283   */\n      dup4\n        /* \"#utility.yul\":30221:30288   */\n      tag_385\n      jump\t// in\n    tag_695:\n        /* \"#utility.yul\":30214:30288   */\n      swap2\n      pop\n        /* \"#utility.yul\":30297:30390   */\n      tag_696\n        /* \"#utility.yul\":30386:30389   */\n      dup3\n        /* \"#utility.yul\":30297:30390   */\n      tag_429\n      jump\t// in\n    tag_696:\n        /* \"#utility.yul\":30415:30417   */\n      0x20\n        /* \"#utility.yul\":30410:30413   */\n      dup3\n        /* \"#utility.yul\":30406:30418   */\n      add\n        /* \"#utility.yul\":30399:30418   */\n      swap1\n      pop\n        /* \"#utility.yul\":30058:30424   */\n      swap2\n      swap1\n      pop\n      jump\t// out\n        /* \"#utility.yul\":30430:30849   */\n    tag_293:\n        /* \"#utility.yul\":30596:30600   */\n      0x00\n        /* \"#utility.yul\":30634:30636   */\n      0x20\n        /* \"#utility.yul\":30623:30632   */\n      dup3\n        /* \"#utility.yul\":30619:30637   */\n      add\n        /* \"#utility.yul\":30611:30637   */\n      swap1\n      pop\n        /* \"#utility.yul\":30683:30692   */\n      dup2\n        /* \"#utility.yul\":30677:30681   */\n      dup2\n        /* \"#utility.yul\":30673:30693   */\n      sub\n        /* \"#utility.yul\":30669:30670   */\n      0x00\n        /* \"#utility.yul\":30658:30667   */\n      dup4\n        /* \"#utility.yul\":30654:30671   */\n      add\n        /* \"#utility.yul\":30647:30694   */\n      mstore\n        /* \"#utility.yul\":30711:30842   */\n      tag_698\n        /* \"#utility.yul\":30837:30841   */\n      dup2\n        /* \"#utility.yul\":30711:30842   */\n      tag_430\n      jump\t// in\n    tag_698:\n        /* \"#utility.yul\":30703:30842   */\n      swap1\n      pop\n        /* \"#utility.yul\":30430:30849   */\n      swap2\n      swap1\n      pop\n      jump\t// out\n        /* \"#utility.yul\":30855:31035   */\n    tag_299:\n        /* \"#utility.yul\":30903:30980   */\n      0x4e487b7100000000000000000000000000000000000000000000000000000000\n        /* \"#utility.yul\":30900:30901   */\n      0x00\n        /* \"#utility.yul\":30893:30981   */\n      mstore\n        /* \"#utility.yul\":31000:31004   */\n      0x01\n        /* \"#utility.yul\":30997:30998   */\n      0x04\n        /* \"#utility.yul\":30990:31005   */\n      mstore\n        /* \"#utility.yul\":31024:31028   */\n      0x24\n        /* \"#utility.yul\":31021:31022   */\n      0x00\n        /* \"#utility.yul\":31014:31029   */\n      revert\n\n    auxdata: 0xa26469706673582212201bfa43e84841bace439d96739b3db6d5680f9f3cc7eb15260ff1f8b9dce0143764736f6c634300081a0033\n}\n",
				"bytecode": {
					"linkReferences": {},
					"object": "6080604052348015600e575f80fd5b50335f806101000a81548173ffffffffffffffffffffffffffffffffffffffff021916908373ffffffffffffffffffffffffffffffffffffffff16021790555042600681905550426008819055506133d3806100695f395ff3fe6080604052600436106100dc575f3560e01c8063b1c617ff1161007e578063cf43830511610058578063cf4383051461022c578063d9498a8314610268578063dd5f6f4d14610292578063f4e79b5b146102ba576100dc565b8063b1c617ff146101bc578063c9ea0299146101e6578063ca6aae2914610202576100dc565b806349821332116100ba57806349821332146101485780637da384fd1461015257806389a4c1a014610168578063a659f4dc14610192576100dc565b806312db1357146100e057806322629256146100f65780632b5baca11461010c575b5f80fd5b3480156100eb575f80fd5b506100f46102d0565b005b348015610101575f80fd5b5061010a610656565b005b348015610117575f80fd5b50610132600480360381019061012d919061251c565b6107c8565b60405161013f91906126c9565b60405180910390f35b61015061095c565b005b34801561015d575f80fd5b50610166610bb5565b005b348015610173575f80fd5b5061017c61150c565b60405161018991906126f8565b60405180910390f35b34801561019d575f80fd5b506101a661152f565b6040516101b39190612720565b60405180910390f35b3480156101c7575f80fd5b506101d0611535565b6040516101dd9190612720565b60405180910390f35b61020060048036038101906101fb9190612816565b61153b565b005b34801561020d575f80fd5b50610216611cbf565b6040516102239190612720565b60405180910390f35b348015610237575f80fd5b50610252600480360381019061024d919061287a565b611cc5565b60405161025f9190612720565b60405180910390f35b348015610273575f80fd5b5061027c611d0d565b604051610289919061297a565b60405180910390f35b34801561029d575f80fd5b506102b860048036038101906102b3919061251c565b611de3565b005b3480156102c5575f80fd5b506102ce61205d565b005b670de0b6b3a764000060035f3373ffffffffffffffffffffffffffffffffffffffff1673ffffffffffffffffffffffffffffffffffffffff1681526020019081526020015f205f015410158061037057505f8054906101000a900473ffffffffffffffffffffffffffffffffffffffff1673ffffffffffffffffffffffffffffffffffffffff163373ffffffffffffffffffffffffffffffffffffffff16145b6103af576040517f08c379a00000000000000000000000000000000000000000000000000000000081526004016103a6906129f4565b60405180910390fd5b5f60055490505f806103dd476001546007546005546103ce9190612a3f565b6103d89190612a3f565b61215d565b905069021e19e0c9bab240000081106104255760c8816103fd9190612a9f565b836104089190612a3f565b925060c8816104179190612a9f565b826104229190612a3f565b91505b5f6005819055505f5b6002805490508110156105e457670de0b6b3a764000060035f6002848154811061045b5761045a612acf565b5b905f5260205f20015f9054906101000a900473ffffffffffffffffffffffffffffffffffffffff1673ffffffffffffffffffffffffffffffffffffffff1673ffffffffffffffffffffffffffffffffffffffff1681526020019081526020015f205f0154106105d7575f61055461054c60035f600286815481106104e2576104e1612acf565b5b905f5260205f20015f9054906101000a900473ffffffffffffffffffffffffffffffffffffffff1673ffffffffffffffffffffffffffffffffffffffff1673ffffffffffffffffffffffffffffffffffffffff1681526020019081526020015f205f015487612183565b6004546121c8565b90506002828154811061056a57610569612acf565b5b905f5260205f20015f9054906101000a900473ffffffffffffffffffffffffffffffffffffffff1673ffffffffffffffffffffffffffffffffffffffff166108fc8290811502906040515f60405180830381858888f193505050501580156105d4573d5f803e3d5ffd5b50505b808060010191505061042e565b505f821115610651575f8054906101000a900473ffffffffffffffffffffffffffffffffffffffff1673ffffffffffffffffffffffffffffffffffffffff166108fc8390811502906040515f60405180830381858888f1935050505015801561064f573d5f803e3d5ffd5b505b505050565b662386f26fc1000060095f3373ffffffffffffffffffffffffffffffffffffffff1673ffffffffffffffffffffffffffffffffffffffff1681526020019081526020015f206002015410156106e0576040517f08c379a00000000000000000000000000000000000000000000000000000000081526004016106d790612b46565b60405180910390fd5b5f60095f3373ffffffffffffffffffffffffffffffffffffffff1673ffffffffffffffffffffffffffffffffffffffff1681526020019081526020015f206002015490505f60095f3373ffffffffffffffffffffffffffffffffffffffff1673ffffffffffffffffffffffffffffffffffffffff1681526020019081526020015f20600201819055508060075f82825461077a9190612b64565b925050819055503373ffffffffffffffffffffffffffffffffffffffff166108fc8290811502906040515f60405180830381858888f193505050501580156107c4573d5f803e3d5ffd5b5050565b60605f8290505f600b805490509050808211156107e3578091505b5f8267ffffffffffffffff8111156107fe576107fd612b97565b5b60405190808252806020026020018201604052801561083757816020015b6108246123c2565b81526020019060019003908161081c5790505b5090505f5b8381101561095057600b816001856108549190612b64565b61085e9190612b64565b8154811061086f5761086e612acf565b5b905f5260205f2090600302016040518060800160405290815f82015f9054906101000a900463ffffffff1663ffffffff1663ffffffff1681526020015f820160049054906101000a900460ff1660ff1660ff16815260200160018201548152602001600282015f9054906101000a900473ffffffffffffffffffffffffffffffffffffffff1673ffffffffffffffffffffffffffffffffffffffff1673ffffffffffffffffffffffffffffffffffffffff168152505082828151811061093857610937612acf565b5b6020026020010181905250808060010191505061083c565b50809350505050919050565b670de0b6b3a7640000341015801561097d5750683635c9adc5dea000003411155b6109bc576040517f08c379a00000000000000000000000000000000000000000000000000000000081526004016109b390612c34565b60405180910390fd5b69021e19e0c9bab24000006109ed476001546007546005546109de9190612a3f565b6109e89190612a3f565b61215d565b11156109f7575f80fd5b3460045f828254610a089190612a3f565b925050819055503460035f3373ffffffffffffffffffffffffffffffffffffffff1673ffffffffffffffffffffffffffffffffffffffff1681526020019081526020015f205f015f828254610a5d9190612a3f565b925050819055504260035f3373ffffffffffffffffffffffffffffffffffffffff1673ffffffffffffffffffffffffffffffffffffffff1681526020019081526020015f206001018190555060035f3373ffffffffffffffffffffffffffffffffffffffff1673ffffffffffffffffffffffffffffffffffffffff1681526020019081526020015f206002015f9054906101000a900460ff16610bb357600160035f3373ffffffffffffffffffffffffffffffffffffffff1673ffffffffffffffffffffffffffffffffffffffff1681526020019081526020015f206002015f6101000a81548160ff021916908315150217905550600233908060018154018082558091505060019003905f5260205f20015f9091909190916101000a81548173ffffffffffffffffffffffffffffffffffffffff021916908373ffffffffffffffffffffffffffffffffffffffff1602179055505b565b5f60095f3373ffffffffffffffffffffffffffffffffffffffff1673ffffffffffffffffffffffffffffffffffffffff1681526020019081526020015f205f018054905011610c39576040517f08c379a0000000000000000000000000000000000000000000000000000000008152600401610c3090612cc2565b60405180910390fd5b60095f3373ffffffffffffffffffffffffffffffffffffffff1673ffffffffffffffffffffffffffffffffffffffff1681526020019081526020015f205f01600160095f3373ffffffffffffffffffffffffffffffffffffffff1673ffffffffffffffffffffffffffffffffffffffff1681526020019081526020015f205f0180549050610cc79190612b64565b81548110610cd857610cd7612acf565b5b905f5260205f20906002020160010160019054906101000a90047effffffffffffffffffffffffffffffffffffffffffffffffffffffffffffff167effffffffffffffffffffffffffffffffffffffffffffffffffffffffffffff164311610d75576040517f08c379a0000000000000000000000000000000000000000000000000000000008152600401610d6c90612d2a565b60405180910390fd5b5f60095f3373ffffffffffffffffffffffffffffffffffffffff1673ffffffffffffffffffffffffffffffffffffffff1681526020019081526020015f20600101805490501115610e0c5760095f3373ffffffffffffffffffffffffffffffffffffffff1673ffffffffffffffffffffffffffffffffffffffff1681526020019081526020015f206001015f610e0b9190612405565b5b5f805f90505b60095f3373ffffffffffffffffffffffffffffffffffffffff1673ffffffffffffffffffffffffffffffffffffffff1681526020019081526020015f205f01805490508110156113c7575f60095f3373ffffffffffffffffffffffffffffffffffffffff1673ffffffffffffffffffffffffffffffffffffffff1681526020019081526020015f205f018281548110610eae57610ead612acf565b5b905f5260205f20906002020160010160019054906101000a90047effffffffffffffffffffffffffffffffffffffffffffffffffffffffffffff167effffffffffffffffffffffffffffffffffffffffffffffffffffffffffffff16405f1c03156113ba575f60095f3373ffffffffffffffffffffffffffffffffffffffff1673ffffffffffffffffffffffffffffffffffffffff1681526020019081526020015f205f018281548110610f6557610f64612acf565b5b905f5260205f2090600202015f015460095f3373ffffffffffffffffffffffffffffffffffffffff1673ffffffffffffffffffffffffffffffffffffffff1681526020019081526020015f205f018381548110610fc557610fc4612acf565b5b905f5260205f20906002020160010160019054906101000a90047effffffffffffffffffffffffffffffffffffffffffffffffffffffffffffff167effffffffffffffffffffffffffffffffffffffffffffffffffffffffffffff1640604051602001611033929190612d71565b6040516020818303038152906040528051906020012060e01c90505f611058826121f2565b90505f811115611280575f66470de4df82000060095f3373ffffffffffffffffffffffffffffffffffffffff1673ffffffffffffffffffffffffffffffffffffffff1681526020019081526020015f205f0185815481106110bc576110bb612acf565b5b905f5260205f2090600202016001015f9054906101000a900460ff1660ff166110e4846122f5565b6110ee9190612d9c565b6110f89190612d9c565b905080856111069190612a3f565b94505f60405180608001604052808563ffffffff16815260200160095f3373ffffffffffffffffffffffffffffffffffffffff1673ffffffffffffffffffffffffffffffffffffffff1681526020019081526020015f205f01878154811061117157611170612acf565b5b905f5260205f2090600202016001015f9054906101000a900460ff1660ff1681526020014264ffffffffff1681526020013373ffffffffffffffffffffffffffffffffffffffff168152509050600b81908060018154018082558091505060019003905f5260205f2090600302015f909190919091505f820151815f015f6101000a81548163ffffffff021916908363ffffffff1602179055506020820151815f0160046101000a81548160ff021916908360ff160217905550604082015181600101556060820151816002015f6101000a81548173ffffffffffffffffffffffffffffffffffffffff021916908373ffffffffffffffffffffffffffffffffffffffff160217905550505050505b5f60405180604001604052808463ffffffff16815260200160095f3373ffffffffffffffffffffffffffffffffffffffff1673ffffffffffffffffffffffffffffffffffffffff1681526020019081526020015f205f0186815481106112e9576112e8612acf565b5b905f5260205f2090600202016001015f9054906101000a900460ff1660ff16815250905060095f3373ffffffffffffffffffffffffffffffffffffffff1673ffffffffffffffffffffffffffffffffffffffff1681526020019081526020015f2060010181908060018154018082558091505060019003905f5260205f20015f909190919091505f820151815f015f6101000a81548163ffffffff021916908363ffffffff1602179055506020820151815f0160046101000a81548160ff021916908360ff16021790555050505050505b8080600101915050610e12565b5060095f3373ffffffffffffffffffffffffffffffffffffffff1673ffffffffffffffffffffffffffffffffffffffff1681526020019081526020015f205f015f6114129190612423565b5f811115611509575f61145561144e611447476001546007546005546114389190612a3f565b6114429190612a3f565b61215d565b6046612183565b60646121c8565b905080821115611463578091505b5f611479611472846005612183565b60646121c8565b90508060055f82825461148c9190612a3f565b925050819055508060015f8282546114a49190612a3f565b925050819055503373ffffffffffffffffffffffffffffffffffffffff166108fc6002836114d29190612d9c565b856114dd9190612b64565b90811502906040515f60405180830381858888f19350505050158015611505573d5f803e3d5ffd5b5050505b50565b5f8054906101000a900473ffffffffffffffffffffffffffffffffffffffff1681565b60045481565b60065481565b66470de4df820000341015611585576040517f08c379a000000000000000000000000000000000000000000000000000000000815260040161157c90612e27565b60405180910390fd5b60018360ff161015801561159d575060648360ff1611155b6115dc576040517f08c379a00000000000000000000000000000000000000000000000000000000081526004016115d390612e8f565b60405180910390fd5b60018461ffff16101580156115f757506103e88461ffff1611155b611636576040517f08c379a000000000000000000000000000000000000000000000000000000000815260040161162d90612ef7565b60405180910390fd5b5f6116483466470de4df8200006121c8565b90508360ff16856116599190612f15565b61ffff16811461169e576040517f08c379a000000000000000000000000000000000000000000000000000000000815260040161169590612f9b565b60405180910390fd5b5f5b8561ffff16811015611821575f604051806060016040528042413389806116c690612fb9565b9a506040516020016116db94939291906130cf565b6040516020818303038152906040528051906020012081526020018760ff168152602001437effffffffffffffffffffffffffffffffffffffffffffffffffffffffffffff16815250905060095f3373ffffffffffffffffffffffffffffffffffffffff1673ffffffffffffffffffffffffffffffffffffffff1681526020019081526020015f205f0181908060018154018082558091505060019003905f5260205f2090600202015f909190919091505f820151815f01556020820151816001015f6101000a81548160ff021916908360ff16021790555060408201518160010160016101000a8154817effffffffffffffffffffffffffffffffffffffffffffffffffffffffffffff02191690837effffffffffffffffffffffffffffffffffffffffffffffffffffffffffffff16021790555050505080806001019150506116a0565b5060095f3373ffffffffffffffffffffffffffffffffffffffff1673ffffffffffffffffffffffffffffffffffffffff1681526020019081526020015f206003015f9054906101000a900460ff166118cc57600160095f3373ffffffffffffffffffffffffffffffffffffffff1673ffffffffffffffffffffffffffffffffffffffff1681526020019081526020015f206003015f6101000a81548160ff0219169083151502179055505b5f6118e26118db346003612183565b60646121c8565b90505f6118fa6118f3346004612183565b60646121c8565b90508160015f82825461190d9190612a3f565b925050819055508160055f8282546119259190612a3f565b925050819055505f73ffffffffffffffffffffffffffffffffffffffff16600a5f3373ffffffffffffffffffffffffffffffffffffffff1673ffffffffffffffffffffffffffffffffffffffff1681526020019081526020015f205f9054906101000a900473ffffffffffffffffffffffffffffffffffffffff1673ffffffffffffffffffffffffffffffffffffffff1603611cb6573373ffffffffffffffffffffffffffffffffffffffff168473ffffffffffffffffffffffffffffffffffffffff161480611a2057505f73ffffffffffffffffffffffffffffffffffffffff168473ffffffffffffffffffffffffffffffffffffffff16145b80611a75575060095f3373ffffffffffffffffffffffffffffffffffffffff1673ffffffffffffffffffffffffffffffffffffffff1681526020019081526020015f206003015f9054906101000a900460ff16155b15611a9d575f8054906101000a900473ffffffffffffffffffffffffffffffffffffffff1693505b83600a5f3373ffffffffffffffffffffffffffffffffffffffff1673ffffffffffffffffffffffffffffffffffffffff1681526020019081526020015f205f6101000a81548173ffffffffffffffffffffffffffffffffffffffff021916908373ffffffffffffffffffffffffffffffffffffffff1602179055505f8054906101000a900473ffffffffffffffffffffffffffffffffffffffff1673ffffffffffffffffffffffffffffffffffffffff16600a5f3373ffffffffffffffffffffffffffffffffffffffff1673ffffffffffffffffffffffffffffffffffffffff1681526020019081526020015f205f9054906101000a900473ffffffffffffffffffffffffffffffffffffffff1673ffffffffffffffffffffffffffffffffffffffff1603611be3578060015f828254611bd79190612a3f565b92505081905550611cae565b8060095f600a5f3373ffffffffffffffffffffffffffffffffffffffff1673ffffffffffffffffffffffffffffffffffffffff1681526020019081526020015f205f9054906101000a900473ffffffffffffffffffffffffffffffffffffffff1673ffffffffffffffffffffffffffffffffffffffff1673ffffffffffffffffffffffffffffffffffffffff1681526020019081526020015f206002015f828254611c8e9190612a3f565b925050819055508060075f828254611ca69190612a3f565b925050819055505b426008819055505b50505050505050565b60055481565b5f60035f8373ffffffffffffffffffffffffffffffffffffffff1673ffffffffffffffffffffffffffffffffffffffff1681526020019081526020015f205f01549050919050565b606060095f3373ffffffffffffffffffffffffffffffffffffffff1673ffffffffffffffffffffffffffffffffffffffff1681526020019081526020015f20600101805480602002602001604051908101604052809291908181526020015f905b82821015611dda578382905f5260205f20016040518060400160405290815f82015f9054906101000a900463ffffffff1663ffffffff1663ffffffff1681526020015f820160049054906101000a900460ff1660ff1660ff168152505081526020019060010190611d6e565b50505050905090565b670de0b6b3a7640000811015611e2e576040517f08c379a0000000000000000000000000000000000000000000000000000000008152600401611e25906131b2565b60405180910390fd5b60035f3373ffffffffffffffffffffffffffffffffffffffff1673ffffffffffffffffffffffffffffffffffffffff1681526020019081526020015f205f0154811115611eb0576040517f08c379a0000000000000000000000000000000000000000000000000000000008152600401611ea79061321a565b60405180910390fd5b62093a8060035f3373ffffffffffffffffffffffffffffffffffffffff1673ffffffffffffffffffffffffffffffffffffffff1681526020019081526020015f2060010154611eff9190612a3f565b421015611f41576040517f08c379a0000000000000000000000000000000000000000000000000000000008152600401611f3890613282565b60405180910390fd5b80611f6847600154600754600554611f599190612a3f565b611f639190612a3f565b61215d565b1015611fa9576040517f08c379a0000000000000000000000000000000000000000000000000000000008152600401611fa0906132ea565b60405180910390fd5b8060035f3373ffffffffffffffffffffffffffffffffffffffff1673ffffffffffffffffffffffffffffffffffffffff1681526020019081526020015f205f015f828254611ff79190612b64565b925050819055508060045f82825461200f9190612b64565b925050819055503373ffffffffffffffffffffffffffffffffffffffff166108fc8290811502906040515f60405180830381858888f19350505050158015612059573d5f803e3d5ffd5b5050565b5f8054906101000a900473ffffffffffffffffffffffffffffffffffffffff1673ffffffffffffffffffffffffffffffffffffffff163373ffffffffffffffffffffffffffffffffffffffff16146120ea576040517f08c379a00000000000000000000000000000000000000000000000000000000081526004016120e190613352565b60405180910390fd5b5f60015490505f6001819055505f8054906101000a900473ffffffffffffffffffffffffffffffffffffffff1673ffffffffffffffffffffffffffffffffffffffff166108fc8290811502906040515f60405180830381858888f19350505050158015612159573d5f803e3d5ffd5b5050565b5f8282111561216f5761216e613370565b5b818361217b9190612b64565b905092915050565b5f808303612193575f90506121c2565b5f82846121a09190612d9c565b90508284826121af9190612a9f565b146121bd576121bc613370565b5b809150505b92915050565b5f8082116121d9576121d8613370565b5b5f82846121e69190612a9f565b90508091505092915050565b5f63040000008263ffffffff16111561220d575f90506122f0565b63010000008263ffffffff161061222757600a90506122f0565b624000008263ffffffff161061224057600990506122f0565b621000008263ffffffff161061225957600890506122f0565b620400008263ffffffff161061227257600790506122f0565b620100008263ffffffff161061228b57600690506122f0565b6140008263ffffffff16106122a357600590506122f0565b6110008263ffffffff16106122bb57600490506122f0565b6104008263ffffffff16106122d357600390506122f0565b6101008263ffffffff16106122eb57600290506122f0565b600190505b919050565b5f808203612305575f90506123bd565b600a820361231657600590506123bd565b6009820361232757601490506123bd565b6008820361233857605090506123bd565b6007820361234a5761014090506123bd565b6006820361235c576104b090506123bd565b6005820361236e576112c090506123bd565b6004820361238057614e2090506123bd565b6003820361239357620186a090506123bd565b600282036123a6576207a12090506123bd565b600182036123b957621e848090506123bd565b5f90505b919050565b60405180608001604052805f63ffffffff1681526020015f60ff1681526020015f81526020015f73ffffffffffffffffffffffffffffffffffffffff1681525090565b5080545f8255905f5260205f20908101906124209190612444565b50565b5080545f8255600202905f5260205f20908101906124419190612483565b50565b5b8082111561247f575f8082015f6101000a81549063ffffffff02191690555f820160046101000a81549060ff021916905550600101612445565b5090565b5b808211156124e1575f8082015f9055600182015f6101000a81549060ff02191690556001820160016101000a8154907effffffffffffffffffffffffffffffffffffffffffffffffffffffffffffff021916905550600201612484565b5090565b5f80fd5b5f819050919050565b6124fb816124e9565b8114612505575f80fd5b50565b5f81359050612516816124f2565b92915050565b5f60208284031215612531576125306124e5565b5b5f61253e84828501612508565b91505092915050565b5f81519050919050565b5f82825260208201905092915050565b5f819050602082019050919050565b5f63ffffffff82169050919050565b61258881612570565b82525050565b5f60ff82169050919050565b6125a38161258e565b82525050565b6125b2816124e9565b82525050565b5f73ffffffffffffffffffffffffffffffffffffffff82169050919050565b5f6125e1826125b8565b9050919050565b6125f1816125d7565b82525050565b608082015f82015161260b5f85018261257f565b50602082015161261e602085018261259a565b50604082015161263160408501826125a9565b50606082015161264460608501826125e8565b50505050565b5f61265583836125f7565b60808301905092915050565b5f602082019050919050565b5f61267782612547565b6126818185612551565b935061268c83612561565b805f5b838110156126bc5781516126a3888261264a565b97506126ae83612661565b92505060018101905061268f565b5085935050505092915050565b5f6020820190508181035f8301526126e1818461266d565b905092915050565b6126f2816125d7565b82525050565b5f60208201905061270b5f8301846126e9565b92915050565b61271a816124e9565b82525050565b5f6020820190506127335f830184612711565b92915050565b5f61ffff82169050919050565b61274f81612739565b8114612759575f80fd5b50565b5f8135905061276a81612746565b92915050565b6127798161258e565b8114612783575f80fd5b50565b5f8135905061279481612770565b92915050565b5f7cffffffffffffffffffffffffffffffffffffffffffffffffffffffffff82169050919050565b6127cb8161279a565b81146127d5575f80fd5b50565b5f813590506127e6816127c2565b92915050565b6127f5816125d7565b81146127ff575f80fd5b50565b5f81359050612810816127ec565b92915050565b5f805f806080858703121561282e5761282d6124e5565b5b5f61283b8782880161275c565b945050602061284c87828801612786565b935050604061285d878288016127d8565b925050606061286e87828801612802565b91505092959194509250565b5f6020828403121561288f5761288e6124e5565b5b5f61289c84828501612802565b91505092915050565b5f81519050919050565b5f82825260208201905092915050565b5f819050602082019050919050565b604082015f8201516128e25f85018261257f565b5060208201516128f5602085018261259a565b50505050565b5f61290683836128ce565b60408301905092915050565b5f602082019050919050565b5f612928826128a5565b61293281856128af565b935061293d836128bf565b805f5b8381101561296d57815161295488826128fb565b975061295f83612912565b925050600181019050612940565b5085935050505092915050565b5f6020820190508181035f830152612992818461291e565b905092915050565b5f82825260208201905092915050565b7f596f75206d757374206265206120696e766573746f72000000000000000000005f82015250565b5f6129de60168361299a565b91506129e9826129aa565b602082019050919050565b5f6020820190508181035f830152612a0b816129d2565b9050919050565b7f4e487b71000000000000000000000000000000000000000000000000000000005f52601160045260245ffd5b5f612a49826124e9565b9150612a54836124e9565b9250828201905080821115612a6c57612a6b612a12565b5b92915050565b7f4e487b71000000000000000000000000000000000000000000000000000000005f52601260045260245ffd5b5f612aa9826124e9565b9150612ab4836124e9565b925082612ac457612ac3612a72565b5b828204905092915050565b7f4e487b71000000000000000000000000000000000000000000000000000000005f52603260045260245ffd5b7f4e6f7420656e6f7567682070726f66697420746f2077697468647261772100005f82015250565b5f612b30601e8361299a565b9150612b3b82612afc565b602082019050919050565b5f6020820190508181035f830152612b5d81612b24565b9050919050565b5f612b6e826124e9565b9150612b79836124e9565b9250828203905081811115612b9157612b90612a12565b5b92915050565b7f4e487b71000000000000000000000000000000000000000000000000000000005f52604160045260245ffd5b7f496e766573746d656e7420616d6f756e7420626574657765656e203120616e645f8201527f2031303030000000000000000000000000000000000000000000000000000000602082015250565b5f612c1e60258361299a565b9150612c2982612bc4565b604082019050919050565b5f6020820190508181035f830152612c4b81612c12565b9050919050565b7f596f7520646f6e2774206861766520756e64726177206c6f74746572792074695f8201527f636b657473000000000000000000000000000000000000000000000000000000602082015250565b5f612cac60258361299a565b9150612cb782612c52565b604082019050919050565b5f6020820190508181035f830152612cd981612ca0565b9050919050565b7f49742773206e6f742074696d65000000000000000000000000000000000000005f82015250565b5f612d14600d8361299a565b9150612d1f82612ce0565b602082019050919050565b5f6020820190508181035f830152612d4181612d08565b9050919050565b5f819050919050565b5f819050919050565b612d6b612d6682612d48565b612d51565b82525050565b5f612d7c8285612d5a565b602082019150612d8c8284612d5a565b6020820191508190509392505050565b5f612da6826124e9565b9150612db1836124e9565b9250828202612dbf816124e9565b91508282048414831517612dd657612dd5612a12565b5b5092915050565b7f427579206174206c65617374206f6e65206567670000000000000000000000005f82015250565b5f612e1160148361299a565b9150612e1c82612ddd565b602082019050919050565b5f6020820190508181035f830152612e3e81612e05565b9050919050565b7f4d756c7469706c6573206265747765656e203120616e642031303000000000005f82015250565b5f612e79601b8361299a565b9150612e8482612e45565b602082019050919050565b5f6020820190508181035f830152612ea681612e6d565b9050919050565b7f4e756d626572206f662065676773206265747765656e203120616e64203130305f82015250565b5f612ee160208361299a565b9150612eec82612ead565b602082019050919050565b5f6020820190508181035f830152612f0e81612ed5565b9050919050565b5f612f1f82612739565b9150612f2a83612739565b9250828202612f3881612739565b9150808214612f4a57612f49612a12565b5b5092915050565b7f496e76616c6964206461746100000000000000000000000000000000000000005f82015250565b5f612f85600c8361299a565b9150612f9082612f51565b602082019050919050565b5f6020820190508181035f830152612fb281612f79565b9050919050565b5f612fc38261279a565b91507cffffffffffffffffffffffffffffffffffffffffffffffffffffffffff8203612ff257612ff1612a12565b5b600182019050919050565b5f819050919050565b613017613012826124e9565b612ffd565b82525050565b5f613027826125b8565b9050919050565b5f8160601b9050919050565b5f6130448261302e565b9050919050565b5f6130558261303a565b9050919050565b61306d6130688261301d565b61304b565b82525050565b5f61307d8261303a565b9050919050565b613095613090826125d7565b613073565b82525050565b5f8160181b9050919050565b5f6130b18261309b565b9050919050565b6130c96130c48261279a565b6130a7565b82525050565b5f6130da8287613006565b6020820191506130ea828661305c565b6014820191506130fa8285613084565b60148201915061310a82846130b8565b601d8201915081905095945050505050565b7f4d696e696d756d20696e766573746d656e7420616d6f756e74206973207265715f8201527f75697265642c6974277320736d616c6c6572207468616e20746865206d696e6960208201527f6d756d206465706f736974000000000000000000000000000000000000000000604082015250565b5f61319c604b8361299a565b91506131a78261311c565b606082019050919050565b5f6020820190508181035f8301526131c981613190565b9050919050565b7f4e6f7420656e6f7567682066756e6420746f20776974686472617721000000005f82015250565b5f613204601c8361299a565b915061320f826131d0565b602082019050919050565b5f6020820190508181035f830152613231816131f8565b9050919050565b7f43616e6e6f74207769746864726177206166746572206f6e65207765656b21005f82015250565b5f61326c601f8361299a565b915061327782613238565b602082019050919050565b5f6020820190508181035f83015261329981613260565b9050919050565b7f496e73756666696369656e742066756e6420746f2077697468647261772100005f82015250565b5f6132d4601e8361299a565b91506132df826132a0565b602082019050919050565b5f6020820190508181035f830152613301816132c8565b9050919050565b7f596f75206d7573742062652074686520646576656c6f706572000000000000005f82015250565b5f61333c60198361299a565b915061334782613308565b602082019050919050565b5f6020820190508181035f83015261336981613330565b9050919050565b7f4e487b71000000000000000000000000000000000000000000000000000000005f52600160045260245ffdfea26469706673582212201bfa43e84841bace439d96739b3db6d5680f9f3cc7eb15260ff1f8b9dce0143764736f6c634300081a0033",
					"opcodes": "PUSH1 0x80 PUSH1 0x40 MSTORE CALLVALUE DUP1 ISZERO PUSH1 0xE JUMPI PUSH0 DUP1 REVERT JUMPDEST POP CALLER PUSH0 DUP1 PUSH2 0x100 EXP DUP2 SLOAD DUP2 PUSH20 0xFFFFFFFFFFFFFFFFFFFFFFFFFFFFFFFFFFFFFFFF MUL NOT AND SWAP1 DUP4 PUSH20 0xFFFFFFFFFFFFFFFFFFFFFFFFFFFFFFFFFFFFFFFF AND MUL OR SWAP1 SSTORE POP TIMESTAMP PUSH1 0x6 DUP2 SWAP1 SSTORE POP TIMESTAMP PUSH1 0x8 DUP2 SWAP1 SSTORE POP PUSH2 0x33D3 DUP1 PUSH2 0x69 PUSH0 CODECOPY PUSH0 RETURN INVALID PUSH1 0x80 PUSH1 0x40 MSTORE PUSH1 0x4 CALLDATASIZE LT PUSH2 0xDC JUMPI PUSH0 CALLDATALOAD PUSH1 0xE0 SHR DUP1 PUSH4 0xB1C617FF GT PUSH2 0x7E JUMPI DUP1 PUSH4 0xCF438305 GT PUSH2 0x58 JUMPI DUP1 PUSH4 0xCF438305 EQ PUSH2 0x22C JUMPI DUP1 PUSH4 0xD9498A83 EQ PUSH2 0x268 JUMPI DUP1 PUSH4 0xDD5F6F4D EQ PUSH2 0x292 JUMPI DUP1 PUSH4 0xF4E79B5B EQ PUSH2 0x2BA JUMPI PUSH2 0xDC JUMP JUMPDEST DUP1 PUSH4 0xB1C617FF EQ PUSH2 0x1BC JUMPI DUP1 PUSH4 0xC9EA0299 EQ PUSH2 0x1E6 JUMPI DUP1 PUSH4 0xCA6AAE29 EQ PUSH2 0x202 JUMPI PUSH2 0xDC JUMP JUMPDEST DUP1 PUSH4 0x49821332 GT PUSH2 0xBA JUMPI DUP1 PUSH4 0x49821332 EQ PUSH2 0x148 JUMPI DUP1 PUSH4 0x7DA384FD EQ PUSH2 0x152 JUMPI DUP1 PUSH4 0x89A4C1A0 EQ PUSH2 0x168 JUMPI DUP1 PUSH4 0xA659F4DC EQ PUSH2 0x192 JUMPI PUSH2 0xDC JUMP JUMPDEST DUP1 PUSH4 0x12DB1357 EQ PUSH2 0xE0 JUMPI DUP1 PUSH4 0x22629256 EQ PUSH2 0xF6 JUMPI DUP1 PUSH4 0x2B5BACA1 EQ PUSH2 0x10C JUMPI JUMPDEST PUSH0 DUP1 REVERT JUMPDEST CALLVALUE DUP1 ISZERO PUSH2 0xEB JUMPI PUSH0 DUP1 REVERT JUMPDEST POP PUSH2 0xF4 PUSH2 0x2D0 JUMP JUMPDEST STOP JUMPDEST CALLVALUE DUP1 ISZERO PUSH2 0x101 JUMPI PUSH0 DUP1 REVERT JUMPDEST POP PUSH2 0x10A PUSH2 0x656 JUMP JUMPDEST STOP JUMPDEST CALLVALUE DUP1 ISZERO PUSH2 0x117 JUMPI PUSH0 DUP1 REVERT JUMPDEST POP PUSH2 0x132 PUSH1 0x4 DUP1 CALLDATASIZE SUB DUP2 ADD SWAP1 PUSH2 0x12D SWAP2 SWAP1 PUSH2 0x251C JUMP JUMPDEST PUSH2 0x7C8 JUMP JUMPDEST PUSH1 0x40 MLOAD PUSH2 0x13F SWAP2 SWAP1 PUSH2 0x26C9 JUMP JUMPDEST PUSH1 0x40 MLOAD DUP1 SWAP2 SUB SWAP1 RETURN JUMPDEST PUSH2 0x150 PUSH2 0x95C JUMP JUMPDEST STOP JUMPDEST CALLVALUE DUP1 ISZERO PUSH2 0x15D JUMPI PUSH0 DUP1 REVERT JUMPDEST POP PUSH2 0x166 PUSH2 0xBB5 JUMP JUMPDEST STOP JUMPDEST CALLVALUE DUP1 ISZERO PUSH2 0x173 JUMPI PUSH0 DUP1 REVERT JUMPDEST POP PUSH2 0x17C PUSH2 0x150C JUMP JUMPDEST PUSH1 0x40 MLOAD PUSH2 0x189 SWAP2 SWAP1 PUSH2 0x26F8 JUMP JUMPDEST PUSH1 0x40 MLOAD DUP1 SWAP2 SUB SWAP1 RETURN JUMPDEST CALLVALUE DUP1 ISZERO PUSH2 0x19D JUMPI PUSH0 DUP1 REVERT JUMPDEST POP PUSH2 0x1A6 PUSH2 0x152F JUMP JUMPDEST PUSH1 0x40 MLOAD PUSH2 0x1B3 SWAP2 SWAP1 PUSH2 0x2720 JUMP JUMPDEST PUSH1 0x40 MLOAD DUP1 SWAP2 SUB SWAP1 RETURN JUMPDEST CALLVALUE DUP1 ISZERO PUSH2 0x1C7 JUMPI PUSH0 DUP1 REVERT JUMPDEST POP PUSH2 0x1D0 PUSH2 0x1535 JUMP JUMPDEST PUSH1 0x40 MLOAD PUSH2 0x1DD SWAP2 SWAP1 PUSH2 0x2720 JUMP JUMPDEST PUSH1 0x40 MLOAD DUP1 SWAP2 SUB SWAP1 RETURN JUMPDEST PUSH2 0x200 PUSH1 0x4 DUP1 CALLDATASIZE SUB DUP2 ADD SWAP1 PUSH2 0x1FB SWAP2 SWAP1 PUSH2 0x2816 JUMP JUMPDEST PUSH2 0x153B JUMP JUMPDEST STOP JUMPDEST CALLVALUE DUP1 ISZERO PUSH2 0x20D JUMPI PUSH0 DUP1 REVERT JUMPDEST POP PUSH2 0x216 PUSH2 0x1CBF JUMP JUMPDEST PUSH1 0x40 MLOAD PUSH2 0x223 SWAP2 SWAP1 PUSH2 0x2720 JUMP JUMPDEST PUSH1 0x40 MLOAD DUP1 SWAP2 SUB SWAP1 RETURN JUMPDEST CALLVALUE DUP1 ISZERO PUSH2 0x237 JUMPI PUSH0 DUP1 REVERT JUMPDEST POP PUSH2 0x252 PUSH1 0x4 DUP1 CALLDATASIZE SUB DUP2 ADD SWAP1 PUSH2 0x24D SWAP2 SWAP1 PUSH2 0x287A JUMP JUMPDEST PUSH2 0x1CC5 JUMP JUMPDEST PUSH1 0x40 MLOAD PUSH2 0x25F SWAP2 SWAP1 PUSH2 0x2720 JUMP JUMPDEST PUSH1 0x40 MLOAD DUP1 SWAP2 SUB SWAP1 RETURN JUMPDEST CALLVALUE DUP1 ISZERO PUSH2 0x273 JUMPI PUSH0 DUP1 REVERT JUMPDEST POP PUSH2 0x27C PUSH2 0x1D0D JUMP JUMPDEST PUSH1 0x40 MLOAD PUSH2 0x289 SWAP2 SWAP1 PUSH2 0x297A JUMP JUMPDEST PUSH1 0x40 MLOAD DUP1 SWAP2 SUB SWAP1 RETURN JUMPDEST CALLVALUE DUP1 ISZERO PUSH2 0x29D JUMPI PUSH0 DUP1 REVERT JUMPDEST POP PUSH2 0x2B8 PUSH1 0x4 DUP1 CALLDATASIZE SUB DUP2 ADD SWAP1 PUSH2 0x2B3 SWAP2 SWAP1 PUSH2 0x251C JUMP JUMPDEST PUSH2 0x1DE3 JUMP JUMPDEST STOP JUMPDEST CALLVALUE DUP1 ISZERO PUSH2 0x2C5 JUMPI PUSH0 DUP1 REVERT JUMPDEST POP PUSH2 0x2CE PUSH2 0x205D JUMP JUMPDEST STOP JUMPDEST PUSH8 0xDE0B6B3A7640000 PUSH1 0x3 PUSH0 CALLER PUSH20 0xFFFFFFFFFFFFFFFFFFFFFFFFFFFFFFFFFFFFFFFF AND PUSH20 0xFFFFFFFFFFFFFFFFFFFFFFFFFFFFFFFFFFFFFFFF AND DUP2 MSTORE PUSH1 0x20 ADD SWAP1 DUP2 MSTORE PUSH1 0x20 ADD PUSH0 KECCAK256 PUSH0 ADD SLOAD LT ISZERO DUP1 PUSH2 0x370 JUMPI POP PUSH0 DUP1 SLOAD SWAP1 PUSH2 0x100 EXP SWAP1 DIV PUSH20 0xFFFFFFFFFFFFFFFFFFFFFFFFFFFFFFFFFFFFFFFF AND PUSH20 0xFFFFFFFFFFFFFFFFFFFFFFFFFFFFFFFFFFFFFFFF AND CALLER PUSH20 0xFFFFFFFFFFFFFFFFFFFFFFFFFFFFFFFFFFFFFFFF AND EQ JUMPDEST PUSH2 0x3AF JUMPI PUSH1 0x40 MLOAD PUSH32 0x8C379A000000000000000000000000000000000000000000000000000000000 DUP2 MSTORE PUSH1 0x4 ADD PUSH2 0x3A6 SWAP1 PUSH2 0x29F4 JUMP JUMPDEST PUSH1 0x40 MLOAD DUP1 SWAP2 SUB SWAP1 REVERT JUMPDEST PUSH0 PUSH1 0x5 SLOAD SWAP1 POP PUSH0 DUP1 PUSH2 0x3DD SELFBALANCE PUSH1 0x1 SLOAD PUSH1 0x7 SLOAD PUSH1 0x5 SLOAD PUSH2 0x3CE SWAP2 SWAP1 PUSH2 0x2A3F JUMP JUMPDEST PUSH2 0x3D8 SWAP2 SWAP1 PUSH2 0x2A3F JUMP JUMPDEST PUSH2 0x215D JUMP JUMPDEST SWAP1 POP PUSH10 0x21E19E0C9BAB2400000 DUP2 LT PUSH2 0x425 JUMPI PUSH1 0xC8 DUP2 PUSH2 0x3FD SWAP2 SWAP1 PUSH2 0x2A9F JUMP JUMPDEST DUP4 PUSH2 0x408 SWAP2 SWAP1 PUSH2 0x2A3F JUMP JUMPDEST SWAP3 POP PUSH1 0xC8 DUP2 PUSH2 0x417 SWAP2 SWAP1 PUSH2 0x2A9F JUMP JUMPDEST DUP3 PUSH2 0x422 SWAP2 SWAP1 PUSH2 0x2A3F JUMP JUMPDEST SWAP2 POP JUMPDEST PUSH0 PUSH1 0x5 DUP2 SWAP1 SSTORE POP PUSH0 JUMPDEST PUSH1 0x2 DUP1 SLOAD SWAP1 POP DUP2 LT ISZERO PUSH2 0x5E4 JUMPI PUSH8 0xDE0B6B3A7640000 PUSH1 0x3 PUSH0 PUSH1 0x2 DUP5 DUP2 SLOAD DUP2 LT PUSH2 0x45B JUMPI PUSH2 0x45A PUSH2 0x2ACF JUMP JUMPDEST JUMPDEST SWAP1 PUSH0 MSTORE PUSH1 0x20 PUSH0 KECCAK256 ADD PUSH0 SWAP1 SLOAD SWAP1 PUSH2 0x100 EXP SWAP1 DIV PUSH20 0xFFFFFFFFFFFFFFFFFFFFFFFFFFFFFFFFFFFFFFFF AND PUSH20 0xFFFFFFFFFFFFFFFFFFFFFFFFFFFFFFFFFFFFFFFF AND PUSH20 0xFFFFFFFFFFFFFFFFFFFFFFFFFFFFFFFFFFFFFFFF AND DUP2 MSTORE PUSH1 0x20 ADD SWAP1 DUP2 MSTORE PUSH1 0x20 ADD PUSH0 KECCAK256 PUSH0 ADD SLOAD LT PUSH2 0x5D7 JUMPI PUSH0 PUSH2 0x554 PUSH2 0x54C PUSH1 0x3 PUSH0 PUSH1 0x2 DUP7 DUP2 SLOAD DUP2 LT PUSH2 0x4E2 JUMPI PUSH2 0x4E1 PUSH2 0x2ACF JUMP JUMPDEST JUMPDEST SWAP1 PUSH0 MSTORE PUSH1 0x20 PUSH0 KECCAK256 ADD PUSH0 SWAP1 SLOAD SWAP1 PUSH2 0x100 EXP SWAP1 DIV PUSH20 0xFFFFFFFFFFFFFFFFFFFFFFFFFFFFFFFFFFFFFFFF AND PUSH20 0xFFFFFFFFFFFFFFFFFFFFFFFFFFFFFFFFFFFFFFFF AND PUSH20 0xFFFFFFFFFFFFFFFFFFFFFFFFFFFFFFFFFFFFFFFF AND DUP2 MSTORE PUSH1 0x20 ADD SWAP1 DUP2 MSTORE PUSH1 0x20 ADD PUSH0 KECCAK256 PUSH0 ADD SLOAD DUP8 PUSH2 0x2183 JUMP JUMPDEST PUSH1 0x4 SLOAD PUSH2 0x21C8 JUMP JUMPDEST SWAP1 POP PUSH1 0x2 DUP3 DUP2 SLOAD DUP2 LT PUSH2 0x56A JUMPI PUSH2 0x569 PUSH2 0x2ACF JUMP JUMPDEST JUMPDEST SWAP1 PUSH0 MSTORE PUSH1 0x20 PUSH0 KECCAK256 ADD PUSH0 SWAP1 SLOAD SWAP1 PUSH2 0x100 EXP SWAP1 DIV PUSH20 0xFFFFFFFFFFFFFFFFFFFFFFFFFFFFFFFFFFFFFFFF AND PUSH20 0xFFFFFFFFFFFFFFFFFFFFFFFFFFFFFFFFFFFFFFFF AND PUSH2 0x8FC DUP3 SWAP1 DUP2 ISZERO MUL SWAP1 PUSH1 0x40 MLOAD PUSH0 PUSH1 0x40 MLOAD DUP1 DUP4 SUB DUP2 DUP6 DUP9 DUP9 CALL SWAP4 POP POP POP POP ISZERO DUP1 ISZERO PUSH2 0x5D4 JUMPI RETURNDATASIZE PUSH0 DUP1 RETURNDATACOPY RETURNDATASIZE PUSH0 REVERT JUMPDEST POP POP JUMPDEST DUP1 DUP1 PUSH1 0x1 ADD SWAP2 POP POP PUSH2 0x42E JUMP JUMPDEST POP PUSH0 DUP3 GT ISZERO PUSH2 0x651 JUMPI PUSH0 DUP1 SLOAD SWAP1 PUSH2 0x100 EXP SWAP1 DIV PUSH20 0xFFFFFFFFFFFFFFFFFFFFFFFFFFFFFFFFFFFFFFFF AND PUSH20 0xFFFFFFFFFFFFFFFFFFFFFFFFFFFFFFFFFFFFFFFF AND PUSH2 0x8FC DUP4 SWAP1 DUP2 ISZERO MUL SWAP1 PUSH1 0x40 MLOAD PUSH0 PUSH1 0x40 MLOAD DUP1 DUP4 SUB DUP2 DUP6 DUP9 DUP9 CALL SWAP4 POP POP POP POP ISZERO DUP1 ISZERO PUSH2 0x64F JUMPI RETURNDATASIZE PUSH0 DUP1 RETURNDATACOPY RETURNDATASIZE PUSH0 REVERT JUMPDEST POP JUMPDEST POP POP POP JUMP JUMPDEST PUSH7 0x2386F26FC10000 PUSH1 0x9 PUSH0 CALLER PUSH20 0xFFFFFFFFFFFFFFFFFFFFFFFFFFFFFFFFFFFFFFFF AND PUSH20 0xFFFFFFFFFFFFFFFFFFFFFFFFFFFFFFFFFFFFFFFF AND DUP2 MSTORE PUSH1 0x20 ADD SWAP1 DUP2 MSTORE PUSH1 0x20 ADD PUSH0 KECCAK256 PUSH1 0x2 ADD SLOAD LT ISZERO PUSH2 0x6E0 JUMPI PUSH1 0x40 MLOAD PUSH32 0x8C379A000000000000000000000000000000000000000000000000000000000 DUP2 MSTORE PUSH1 0x4 ADD PUSH2 0x6D7 SWAP1 PUSH2 0x2B46 JUMP JUMPDEST PUSH1 0x40 MLOAD DUP1 SWAP2 SUB SWAP1 REVERT JUMPDEST PUSH0 PUSH1 0x9 PUSH0 CALLER PUSH20 0xFFFFFFFFFFFFFFFFFFFFFFFFFFFFFFFFFFFFFFFF AND PUSH20 0xFFFFFFFFFFFFFFFFFFFFFFFFFFFFFFFFFFFFFFFF AND DUP2 MSTORE PUSH1 0x20 ADD SWAP1 DUP2 MSTORE PUSH1 0x20 ADD PUSH0 KECCAK256 PUSH1 0x2 ADD SLOAD SWAP1 POP PUSH0 PUSH1 0x9 PUSH0 CALLER PUSH20 0xFFFFFFFFFFFFFFFFFFFFFFFFFFFFFFFFFFFFFFFF AND PUSH20 0xFFFFFFFFFFFFFFFFFFFFFFFFFFFFFFFFFFFFFFFF AND DUP2 MSTORE PUSH1 0x20 ADD SWAP1 DUP2 MSTORE PUSH1 0x20 ADD PUSH0 KECCAK256 PUSH1 0x2 ADD DUP2 SWAP1 SSTORE POP DUP1 PUSH1 0x7 PUSH0 DUP3 DUP3 SLOAD PUSH2 0x77A SWAP2 SWAP1 PUSH2 0x2B64 JUMP JUMPDEST SWAP3 POP POP DUP2 SWAP1 SSTORE POP CALLER PUSH20 0xFFFFFFFFFFFFFFFFFFFFFFFFFFFFFFFFFFFFFFFF AND PUSH2 0x8FC DUP3 SWAP1 DUP2 ISZERO MUL SWAP1 PUSH1 0x40 MLOAD PUSH0 PUSH1 0x40 MLOAD DUP1 DUP4 SUB DUP2 DUP6 DUP9 DUP9 CALL SWAP4 POP POP POP POP ISZERO DUP1 ISZERO PUSH2 0x7C4 JUMPI RETURNDATASIZE PUSH0 DUP1 RETURNDATACOPY RETURNDATASIZE PUSH0 REVERT JUMPDEST POP POP JUMP JUMPDEST PUSH1 0x60 PUSH0 DUP3 SWAP1 POP PUSH0 PUSH1 0xB DUP1 SLOAD SWAP1 POP SWAP1 POP DUP1 DUP3 GT ISZERO PUSH2 0x7E3 JUMPI DUP1 SWAP2 POP JUMPDEST PUSH0 DUP3 PUSH8 0xFFFFFFFFFFFFFFFF DUP2 GT ISZERO PUSH2 0x7FE JUMPI PUSH2 0x7FD PUSH2 0x2B97 JUMP JUMPDEST JUMPDEST PUSH1 0x40 MLOAD SWAP1 DUP1 DUP3 MSTORE DUP1 PUSH1 0x20 MUL PUSH1 0x20 ADD DUP3 ADD PUSH1 0x40 MSTORE DUP1 ISZERO PUSH2 0x837 JUMPI DUP2 PUSH1 0x20 ADD JUMPDEST PUSH2 0x824 PUSH2 0x23C2 JUMP JUMPDEST DUP2 MSTORE PUSH1 0x20 ADD SWAP1 PUSH1 0x1 SWAP1 SUB SWAP1 DUP2 PUSH2 0x81C JUMPI SWAP1 POP JUMPDEST POP SWAP1 POP PUSH0 JUMPDEST DUP4 DUP2 LT ISZERO PUSH2 0x950 JUMPI PUSH1 0xB DUP2 PUSH1 0x1 DUP6 PUSH2 0x854 SWAP2 SWAP1 PUSH2 0x2B64 JUMP JUMPDEST PUSH2 0x85E SWAP2 SWAP1 PUSH2 0x2B64 JUMP JUMPDEST DUP2 SLOAD DUP2 LT PUSH2 0x86F JUMPI PUSH2 0x86E PUSH2 0x2ACF JUMP JUMPDEST JUMPDEST SWAP1 PUSH0 MSTORE PUSH1 0x20 PUSH0 KECCAK256 SWAP1 PUSH1 0x3 MUL ADD PUSH1 0x40 MLOAD DUP1 PUSH1 0x80 ADD PUSH1 0x40 MSTORE SWAP1 DUP2 PUSH0 DUP3 ADD PUSH0 SWAP1 SLOAD SWAP1 PUSH2 0x100 EXP SWAP1 DIV PUSH4 0xFFFFFFFF AND PUSH4 0xFFFFFFFF AND PUSH4 0xFFFFFFFF AND DUP2 MSTORE PUSH1 0x20 ADD PUSH0 DUP3 ADD PUSH1 0x4 SWAP1 SLOAD SWAP1 PUSH2 0x100 EXP SWAP1 DIV PUSH1 0xFF AND PUSH1 0xFF AND PUSH1 0xFF AND DUP2 MSTORE PUSH1 0x20 ADD PUSH1 0x1 DUP3 ADD SLOAD DUP2 MSTORE PUSH1 0x20 ADD PUSH1 0x2 DUP3 ADD PUSH0 SWAP1 SLOAD SWAP1 PUSH2 0x100 EXP SWAP1 DIV PUSH20 0xFFFFFFFFFFFFFFFFFFFFFFFFFFFFFFFFFFFFFFFF AND PUSH20 0xFFFFFFFFFFFFFFFFFFFFFFFFFFFFFFFFFFFFFFFF AND PUSH20 0xFFFFFFFFFFFFFFFFFFFFFFFFFFFFFFFFFFFFFFFF AND DUP2 MSTORE POP POP DUP3 DUP3 DUP2 MLOAD DUP2 LT PUSH2 0x938 JUMPI PUSH2 0x937 PUSH2 0x2ACF JUMP JUMPDEST JUMPDEST PUSH1 0x20 MUL PUSH1 0x20 ADD ADD DUP2 SWAP1 MSTORE POP DUP1 DUP1 PUSH1 0x1 ADD SWAP2 POP POP PUSH2 0x83C JUMP JUMPDEST POP DUP1 SWAP4 POP POP POP POP SWAP2 SWAP1 POP JUMP JUMPDEST PUSH8 0xDE0B6B3A7640000 CALLVALUE LT ISZERO DUP1 ISZERO PUSH2 0x97D JUMPI POP PUSH9 0x3635C9ADC5DEA00000 CALLVALUE GT ISZERO JUMPDEST PUSH2 0x9BC JUMPI PUSH1 0x40 MLOAD PUSH32 0x8C379A000000000000000000000000000000000000000000000000000000000 DUP2 MSTORE PUSH1 0x4 ADD PUSH2 0x9B3 SWAP1 PUSH2 0x2C34 JUMP JUMPDEST PUSH1 0x40 MLOAD DUP1 SWAP2 SUB SWAP1 REVERT JUMPDEST PUSH10 0x21E19E0C9BAB2400000 PUSH2 0x9ED SELFBALANCE PUSH1 0x1 SLOAD PUSH1 0x7 SLOAD PUSH1 0x5 SLOAD PUSH2 0x9DE SWAP2 SWAP1 PUSH2 0x2A3F JUMP JUMPDEST PUSH2 0x9E8 SWAP2 SWAP1 PUSH2 0x2A3F JUMP JUMPDEST PUSH2 0x215D JUMP JUMPDEST GT ISZERO PUSH2 0x9F7 JUMPI PUSH0 DUP1 REVERT JUMPDEST CALLVALUE PUSH1 0x4 PUSH0 DUP3 DUP3 SLOAD PUSH2 0xA08 SWAP2 SWAP1 PUSH2 0x2A3F JUMP JUMPDEST SWAP3 POP POP DUP2 SWAP1 SSTORE POP CALLVALUE PUSH1 0x3 PUSH0 CALLER PUSH20 0xFFFFFFFFFFFFFFFFFFFFFFFFFFFFFFFFFFFFFFFF AND PUSH20 0xFFFFFFFFFFFFFFFFFFFFFFFFFFFFFFFFFFFFFFFF AND DUP2 MSTORE PUSH1 0x20 ADD SWAP1 DUP2 MSTORE PUSH1 0x20 ADD PUSH0 KECCAK256 PUSH0 ADD PUSH0 DUP3 DUP3 SLOAD PUSH2 0xA5D SWAP2 SWAP1 PUSH2 0x2A3F JUMP JUMPDEST SWAP3 POP POP DUP2 SWAP1 SSTORE POP TIMESTAMP PUSH1 0x3 PUSH0 CALLER PUSH20 0xFFFFFFFFFFFFFFFFFFFFFFFFFFFFFFFFFFFFFFFF AND PUSH20 0xFFFFFFFFFFFFFFFFFFFFFFFFFFFFFFFFFFFFFFFF AND DUP2 MSTORE PUSH1 0x20 ADD SWAP1 DUP2 MSTORE PUSH1 0x20 ADD PUSH0 KECCAK256 PUSH1 0x1 ADD DUP2 SWAP1 SSTORE POP PUSH1 0x3 PUSH0 CALLER PUSH20 0xFFFFFFFFFFFFFFFFFFFFFFFFFFFFFFFFFFFFFFFF AND PUSH20 0xFFFFFFFFFFFFFFFFFFFFFFFFFFFFFFFFFFFFFFFF AND DUP2 MSTORE PUSH1 0x20 ADD SWAP1 DUP2 MSTORE PUSH1 0x20 ADD PUSH0 KECCAK256 PUSH1 0x2 ADD PUSH0 SWAP1 SLOAD SWAP1 PUSH2 0x100 EXP SWAP1 DIV PUSH1 0xFF AND PUSH2 0xBB3 JUMPI PUSH1 0x1 PUSH1 0x3 PUSH0 CALLER PUSH20 0xFFFFFFFFFFFFFFFFFFFFFFFFFFFFFFFFFFFFFFFF AND PUSH20 0xFFFFFFFFFFFFFFFFFFFFFFFFFFFFFFFFFFFFFFFF AND DUP2 MSTORE PUSH1 0x20 ADD SWAP1 DUP2 MSTORE PUSH1 0x20 ADD PUSH0 KECCAK256 PUSH1 0x2 ADD PUSH0 PUSH2 0x100 EXP DUP2 SLOAD DUP2 PUSH1 0xFF MUL NOT AND SWAP1 DUP4 ISZERO ISZERO MUL OR SWAP1 SSTORE POP PUSH1 0x2 CALLER SWAP1 DUP1 PUSH1 0x1 DUP2 SLOAD ADD DUP1 DUP3 SSTORE DUP1 SWAP2 POP POP PUSH1 0x1 SWAP1 SUB SWAP1 PUSH0 MSTORE PUSH1 0x20 PUSH0 KECCAK256 ADD PUSH0 SWAP1 SWAP2 SWAP1 SWAP2 SWAP1 SWAP2 PUSH2 0x100 EXP DUP2 SLOAD DUP2 PUSH20 0xFFFFFFFFFFFFFFFFFFFFFFFFFFFFFFFFFFFFFFFF MUL NOT AND SWAP1 DUP4 PUSH20 0xFFFFFFFFFFFFFFFFFFFFFFFFFFFFFFFFFFFFFFFF AND MUL OR SWAP1 SSTORE POP JUMPDEST JUMP JUMPDEST PUSH0 PUSH1 0x9 PUSH0 CALLER PUSH20 0xFFFFFFFFFFFFFFFFFFFFFFFFFFFFFFFFFFFFFFFF AND PUSH20 0xFFFFFFFFFFFFFFFFFFFFFFFFFFFFFFFFFFFFFFFF AND DUP2 MSTORE PUSH1 0x20 ADD SWAP1 DUP2 MSTORE PUSH1 0x20 ADD PUSH0 KECCAK256 PUSH0 ADD DUP1 SLOAD SWAP1 POP GT PUSH2 0xC39 JUMPI PUSH1 0x40 MLOAD PUSH32 0x8C379A000000000000000000000000000000000000000000000000000000000 DUP2 MSTORE PUSH1 0x4 ADD PUSH2 0xC30 SWAP1 PUSH2 0x2CC2 JUMP JUMPDEST PUSH1 0x40 MLOAD DUP1 SWAP2 SUB SWAP1 REVERT JUMPDEST PUSH1 0x9 PUSH0 CALLER PUSH20 0xFFFFFFFFFFFFFFFFFFFFFFFFFFFFFFFFFFFFFFFF AND PUSH20 0xFFFFFFFFFFFFFFFFFFFFFFFFFFFFFFFFFFFFFFFF AND DUP2 MSTORE PUSH1 0x20 ADD SWAP1 DUP2 MSTORE PUSH1 0x20 ADD PUSH0 KECCAK256 PUSH0 ADD PUSH1 0x1 PUSH1 0x9 PUSH0 CALLER PUSH20 0xFFFFFFFFFFFFFFFFFFFFFFFFFFFFFFFFFFFFFFFF AND PUSH20 0xFFFFFFFFFFFFFFFFFFFFFFFFFFFFFFFFFFFFFFFF AND DUP2 MSTORE PUSH1 0x20 ADD SWAP1 DUP2 MSTORE PUSH1 0x20 ADD PUSH0 KECCAK256 PUSH0 ADD DUP1 SLOAD SWAP1 POP PUSH2 0xCC7 SWAP2 SWAP1 PUSH2 0x2B64 JUMP JUMPDEST DUP2 SLOAD DUP2 LT PUSH2 0xCD8 JUMPI PUSH2 0xCD7 PUSH2 0x2ACF JUMP JUMPDEST JUMPDEST SWAP1 PUSH0 MSTORE PUSH1 0x20 PUSH0 KECCAK256 SWAP1 PUSH1 0x2 MUL ADD PUSH1 0x1 ADD PUSH1 0x1 SWAP1 SLOAD SWAP1 PUSH2 0x100 EXP SWAP1 DIV PUSH31 0xFFFFFFFFFFFFFFFFFFFFFFFFFFFFFFFFFFFFFFFFFFFFFFFFFFFFFFFFFFFFFF AND PUSH31 0xFFFFFFFFFFFFFFFFFFFFFFFFFFFFFFFFFFFFFFFFFFFFFFFFFFFFFFFFFFFFFF AND NUMBER GT PUSH2 0xD75 JUMPI PUSH1 0x40 MLOAD PUSH32 0x8C379A000000000000000000000000000000000000000000000000000000000 DUP2 MSTORE PUSH1 0x4 ADD PUSH2 0xD6C SWAP1 PUSH2 0x2D2A JUMP JUMPDEST PUSH1 0x40 MLOAD DUP1 SWAP2 SUB SWAP1 REVERT JUMPDEST PUSH0 PUSH1 0x9 PUSH0 CALLER PUSH20 0xFFFFFFFFFFFFFFFFFFFFFFFFFFFFFFFFFFFFFFFF AND PUSH20 0xFFFFFFFFFFFFFFFFFFFFFFFFFFFFFFFFFFFFFFFF AND DUP2 MSTORE PUSH1 0x20 ADD SWAP1 DUP2 MSTORE PUSH1 0x20 ADD PUSH0 KECCAK256 PUSH1 0x1 ADD DUP1 SLOAD SWAP1 POP GT ISZERO PUSH2 0xE0C JUMPI PUSH1 0x9 PUSH0 CALLER PUSH20 0xFFFFFFFFFFFFFFFFFFFFFFFFFFFFFFFFFFFFFFFF AND PUSH20 0xFFFFFFFFFFFFFFFFFFFFFFFFFFFFFFFFFFFFFFFF AND DUP2 MSTORE PUSH1 0x20 ADD SWAP1 DUP2 MSTORE PUSH1 0x20 ADD PUSH0 KECCAK256 PUSH1 0x1 ADD PUSH0 PUSH2 0xE0B SWAP2 SWAP1 PUSH2 0x2405 JUMP JUMPDEST JUMPDEST PUSH0 DUP1 PUSH0 SWAP1 POP JUMPDEST PUSH1 0x9 PUSH0 CALLER PUSH20 0xFFFFFFFFFFFFFFFFFFFFFFFFFFFFFFFFFFFFFFFF AND PUSH20 0xFFFFFFFFFFFFFFFFFFFFFFFFFFFFFFFFFFFFFFFF AND DUP2 MSTORE PUSH1 0x20 ADD SWAP1 DUP2 MSTORE PUSH1 0x20 ADD PUSH0 KECCAK256 PUSH0 ADD DUP1 SLOAD SWAP1 POP DUP2 LT ISZERO PUSH2 0x13C7 JUMPI PUSH0 PUSH1 0x9 PUSH0 CALLER PUSH20 0xFFFFFFFFFFFFFFFFFFFFFFFFFFFFFFFFFFFFFFFF AND PUSH20 0xFFFFFFFFFFFFFFFFFFFFFFFFFFFFFFFFFFFFFFFF AND DUP2 MSTORE PUSH1 0x20 ADD SWAP1 DUP2 MSTORE PUSH1 0x20 ADD PUSH0 KECCAK256 PUSH0 ADD DUP3 DUP2 SLOAD DUP2 LT PUSH2 0xEAE JUMPI PUSH2 0xEAD PUSH2 0x2ACF JUMP JUMPDEST JUMPDEST SWAP1 PUSH0 MSTORE PUSH1 0x20 PUSH0 KECCAK256 SWAP1 PUSH1 0x2 MUL ADD PUSH1 0x1 ADD PUSH1 0x1 SWAP1 SLOAD SWAP1 PUSH2 0x100 EXP SWAP1 DIV PUSH31 0xFFFFFFFFFFFFFFFFFFFFFFFFFFFFFFFFFFFFFFFFFFFFFFFFFFFFFFFFFFFFFF AND PUSH31 0xFFFFFFFFFFFFFFFFFFFFFFFFFFFFFFFFFFFFFFFFFFFFFFFFFFFFFFFFFFFFFF AND BLOCKHASH PUSH0 SHR SUB ISZERO PUSH2 0x13BA JUMPI PUSH0 PUSH1 0x9 PUSH0 CALLER PUSH20 0xFFFFFFFFFFFFFFFFFFFFFFFFFFFFFFFFFFFFFFFF AND PUSH20 0xFFFFFFFFFFFFFFFFFFFFFFFFFFFFFFFFFFFFFFFF AND DUP2 MSTORE PUSH1 0x20 ADD SWAP1 DUP2 MSTORE PUSH1 0x20 ADD PUSH0 KECCAK256 PUSH0 ADD DUP3 DUP2 SLOAD DUP2 LT PUSH2 0xF65 JUMPI PUSH2 0xF64 PUSH2 0x2ACF JUMP JUMPDEST JUMPDEST SWAP1 PUSH0 MSTORE PUSH1 0x20 PUSH0 KECCAK256 SWAP1 PUSH1 0x2 MUL ADD PUSH0 ADD SLOAD PUSH1 0x9 PUSH0 CALLER PUSH20 0xFFFFFFFFFFFFFFFFFFFFFFFFFFFFFFFFFFFFFFFF AND PUSH20 0xFFFFFFFFFFFFFFFFFFFFFFFFFFFFFFFFFFFFFFFF AND DUP2 MSTORE PUSH1 0x20 ADD SWAP1 DUP2 MSTORE PUSH1 0x20 ADD PUSH0 KECCAK256 PUSH0 ADD DUP4 DUP2 SLOAD DUP2 LT PUSH2 0xFC5 JUMPI PUSH2 0xFC4 PUSH2 0x2ACF JUMP JUMPDEST JUMPDEST SWAP1 PUSH0 MSTORE PUSH1 0x20 PUSH0 KECCAK256 SWAP1 PUSH1 0x2 MUL ADD PUSH1 0x1 ADD PUSH1 0x1 SWAP1 SLOAD SWAP1 PUSH2 0x100 EXP SWAP1 DIV PUSH31 0xFFFFFFFFFFFFFFFFFFFFFFFFFFFFFFFFFFFFFFFFFFFFFFFFFFFFFFFFFFFFFF AND PUSH31 0xFFFFFFFFFFFFFFFFFFFFFFFFFFFFFFFFFFFFFFFFFFFFFFFFFFFFFFFFFFFFFF AND BLOCKHASH PUSH1 0x40 MLOAD PUSH1 0x20 ADD PUSH2 0x1033 SWAP3 SWAP2 SWAP1 PUSH2 0x2D71 JUMP JUMPDEST PUSH1 0x40 MLOAD PUSH1 0x20 DUP2 DUP4 SUB SUB DUP2 MSTORE SWAP1 PUSH1 0x40 MSTORE DUP1 MLOAD SWAP1 PUSH1 0x20 ADD KECCAK256 PUSH1 0xE0 SHR SWAP1 POP PUSH0 PUSH2 0x1058 DUP3 PUSH2 0x21F2 JUMP JUMPDEST SWAP1 POP PUSH0 DUP2 GT ISZERO PUSH2 0x1280 JUMPI PUSH0 PUSH7 0x470DE4DF820000 PUSH1 0x9 PUSH0 CALLER PUSH20 0xFFFFFFFFFFFFFFFFFFFFFFFFFFFFFFFFFFFFFFFF AND PUSH20 0xFFFFFFFFFFFFFFFFFFFFFFFFFFFFFFFFFFFFFFFF AND DUP2 MSTORE PUSH1 0x20 ADD SWAP1 DUP2 MSTORE PUSH1 0x20 ADD PUSH0 KECCAK256 PUSH0 ADD DUP6 DUP2 SLOAD DUP2 LT PUSH2 0x10BC JUMPI PUSH2 0x10BB PUSH2 0x2ACF JUMP JUMPDEST JUMPDEST SWAP1 PUSH0 MSTORE PUSH1 0x20 PUSH0 KECCAK256 SWAP1 PUSH1 0x2 MUL ADD PUSH1 0x1 ADD PUSH0 SWAP1 SLOAD SWAP1 PUSH2 0x100 EXP SWAP1 DIV PUSH1 0xFF AND PUSH1 0xFF AND PUSH2 0x10E4 DUP5 PUSH2 0x22F5 JUMP JUMPDEST PUSH2 0x10EE SWAP2 SWAP1 PUSH2 0x2D9C JUMP JUMPDEST PUSH2 0x10F8 SWAP2 SWAP1 PUSH2 0x2D9C JUMP JUMPDEST SWAP1 POP DUP1 DUP6 PUSH2 0x1106 SWAP2 SWAP1 PUSH2 0x2A3F JUMP JUMPDEST SWAP5 POP PUSH0 PUSH1 0x40 MLOAD DUP1 PUSH1 0x80 ADD PUSH1 0x40 MSTORE DUP1 DUP6 PUSH4 0xFFFFFFFF AND DUP2 MSTORE PUSH1 0x20 ADD PUSH1 0x9 PUSH0 CALLER PUSH20 0xFFFFFFFFFFFFFFFFFFFFFFFFFFFFFFFFFFFFFFFF AND PUSH20 0xFFFFFFFFFFFFFFFFFFFFFFFFFFFFFFFFFFFFFFFF AND DUP2 MSTORE PUSH1 0x20 ADD SWAP1 DUP2 MSTORE PUSH1 0x20 ADD PUSH0 KECCAK256 PUSH0 ADD DUP8 DUP2 SLOAD DUP2 LT PUSH2 0x1171 JUMPI PUSH2 0x1170 PUSH2 0x2ACF JUMP JUMPDEST JUMPDEST SWAP1 PUSH0 MSTORE PUSH1 0x20 PUSH0 KECCAK256 SWAP1 PUSH1 0x2 MUL ADD PUSH1 0x1 ADD PUSH0 SWAP1 SLOAD SWAP1 PUSH2 0x100 EXP SWAP1 DIV PUSH1 0xFF AND PUSH1 0xFF AND DUP2 MSTORE PUSH1 0x20 ADD TIMESTAMP PUSH5 0xFFFFFFFFFF AND DUP2 MSTORE PUSH1 0x20 ADD CALLER PUSH20 0xFFFFFFFFFFFFFFFFFFFFFFFFFFFFFFFFFFFFFFFF AND DUP2 MSTORE POP SWAP1 POP PUSH1 0xB DUP2 SWAP1 DUP1 PUSH1 0x1 DUP2 SLOAD ADD DUP1 DUP3 SSTORE DUP1 SWAP2 POP POP PUSH1 0x1 SWAP1 SUB SWAP1 PUSH0 MSTORE PUSH1 0x20 PUSH0 KECCAK256 SWAP1 PUSH1 0x3 MUL ADD PUSH0 SWAP1 SWAP2 SWAP1 SWAP2 SWAP1 SWAP2 POP PUSH0 DUP3 ADD MLOAD DUP2 PUSH0 ADD PUSH0 PUSH2 0x100 EXP DUP2 SLOAD DUP2 PUSH4 0xFFFFFFFF MUL NOT AND SWAP1 DUP4 PUSH4 0xFFFFFFFF AND MUL OR SWAP1 SSTORE POP PUSH1 0x20 DUP3 ADD MLOAD DUP2 PUSH0 ADD PUSH1 0x4 PUSH2 0x100 EXP DUP2 SLOAD DUP2 PUSH1 0xFF MUL NOT AND SWAP1 DUP4 PUSH1 0xFF AND MUL OR SWAP1 SSTORE POP PUSH1 0x40 DUP3 ADD MLOAD DUP2 PUSH1 0x1 ADD SSTORE PUSH1 0x60 DUP3 ADD MLOAD DUP2 PUSH1 0x2 ADD PUSH0 PUSH2 0x100 EXP DUP2 SLOAD DUP2 PUSH20 0xFFFFFFFFFFFFFFFFFFFFFFFFFFFFFFFFFFFFFFFF MUL NOT AND SWAP1 DUP4 PUSH20 0xFFFFFFFFFFFFFFFFFFFFFFFFFFFFFFFFFFFFFFFF AND MUL OR SWAP1 SSTORE POP POP POP POP POP JUMPDEST PUSH0 PUSH1 0x40 MLOAD DUP1 PUSH1 0x40 ADD PUSH1 0x40 MSTORE DUP1 DUP5 PUSH4 0xFFFFFFFF AND DUP2 MSTORE PUSH1 0x20 ADD PUSH1 0x9 PUSH0 CALLER PUSH20 0xFFFFFFFFFFFFFFFFFFFFFFFFFFFFFFFFFFFFFFFF AND PUSH20 0xFFFFFFFFFFFFFFFFFFFFFFFFFFFFFFFFFFFFFFFF AND DUP2 MSTORE PUSH1 0x20 ADD SWAP1 DUP2 MSTORE PUSH1 0x20 ADD PUSH0 KECCAK256 PUSH0 ADD DUP7 DUP2 SLOAD DUP2 LT PUSH2 0x12E9 JUMPI PUSH2 0x12E8 PUSH2 0x2ACF JUMP JUMPDEST JUMPDEST SWAP1 PUSH0 MSTORE PUSH1 0x20 PUSH0 KECCAK256 SWAP1 PUSH1 0x2 MUL ADD PUSH1 0x1 ADD PUSH0 SWAP1 SLOAD SWAP1 PUSH2 0x100 EXP SWAP1 DIV PUSH1 0xFF AND PUSH1 0xFF AND DUP2 MSTORE POP SWAP1 POP PUSH1 0x9 PUSH0 CALLER PUSH20 0xFFFFFFFFFFFFFFFFFFFFFFFFFFFFFFFFFFFFFFFF AND PUSH20 0xFFFFFFFFFFFFFFFFFFFFFFFFFFFFFFFFFFFFFFFF AND DUP2 MSTORE PUSH1 0x20 ADD SWAP1 DUP2 MSTORE PUSH1 0x20 ADD PUSH0 KECCAK256 PUSH1 0x1 ADD DUP2 SWAP1 DUP1 PUSH1 0x1 DUP2 SLOAD ADD DUP1 DUP3 SSTORE DUP1 SWAP2 POP POP PUSH1 0x1 SWAP1 SUB SWAP1 PUSH0 MSTORE PUSH1 0x20 PUSH0 KECCAK256 ADD PUSH0 SWAP1 SWAP2 SWAP1 SWAP2 SWAP1 SWAP2 POP PUSH0 DUP3 ADD MLOAD DUP2 PUSH0 ADD PUSH0 PUSH2 0x100 EXP DUP2 SLOAD DUP2 PUSH4 0xFFFFFFFF MUL NOT AND SWAP1 DUP4 PUSH4 0xFFFFFFFF AND MUL OR SWAP1 SSTORE POP PUSH1 0x20 DUP3 ADD MLOAD DUP2 PUSH0 ADD PUSH1 0x4 PUSH2 0x100 EXP DUP2 SLOAD DUP2 PUSH1 0xFF MUL NOT AND SWAP1 DUP4 PUSH1 0xFF AND MUL OR SWAP1 SSTORE POP POP POP POP POP POP JUMPDEST DUP1 DUP1 PUSH1 0x1 ADD SWAP2 POP POP PUSH2 0xE12 JUMP JUMPDEST POP PUSH1 0x9 PUSH0 CALLER PUSH20 0xFFFFFFFFFFFFFFFFFFFFFFFFFFFFFFFFFFFFFFFF AND PUSH20 0xFFFFFFFFFFFFFFFFFFFFFFFFFFFFFFFFFFFFFFFF AND DUP2 MSTORE PUSH1 0x20 ADD SWAP1 DUP2 MSTORE PUSH1 0x20 ADD PUSH0 KECCAK256 PUSH0 ADD PUSH0 PUSH2 0x1412 SWAP2 SWAP1 PUSH2 0x2423 JUMP JUMPDEST PUSH0 DUP2 GT ISZERO PUSH2 0x1509 JUMPI PUSH0 PUSH2 0x1455 PUSH2 0x144E PUSH2 0x1447 SELFBALANCE PUSH1 0x1 SLOAD PUSH1 0x7 SLOAD PUSH1 0x5 SLOAD PUSH2 0x1438 SWAP2 SWAP1 PUSH2 0x2A3F JUMP JUMPDEST PUSH2 0x1442 SWAP2 SWAP1 PUSH2 0x2A3F JUMP JUMPDEST PUSH2 0x215D JUMP JUMPDEST PUSH1 0x46 PUSH2 0x2183 JUMP JUMPDEST PUSH1 0x64 PUSH2 0x21C8 JUMP JUMPDEST SWAP1 POP DUP1 DUP3 GT ISZERO PUSH2 0x1463 JUMPI DUP1 SWAP2 POP JUMPDEST PUSH0 PUSH2 0x1479 PUSH2 0x1472 DUP5 PUSH1 0x5 PUSH2 0x2183 JUMP JUMPDEST PUSH1 0x64 PUSH2 0x21C8 JUMP JUMPDEST SWAP1 POP DUP1 PUSH1 0x5 PUSH0 DUP3 DUP3 SLOAD PUSH2 0x148C SWAP2 SWAP1 PUSH2 0x2A3F JUMP JUMPDEST SWAP3 POP POP DUP2 SWAP1 SSTORE POP DUP1 PUSH1 0x1 PUSH0 DUP3 DUP3 SLOAD PUSH2 0x14A4 SWAP2 SWAP1 PUSH2 0x2A3F JUMP JUMPDEST SWAP3 POP POP DUP2 SWAP1 SSTORE POP CALLER PUSH20 0xFFFFFFFFFFFFFFFFFFFFFFFFFFFFFFFFFFFFFFFF AND PUSH2 0x8FC PUSH1 0x2 DUP4 PUSH2 0x14D2 SWAP2 SWAP1 PUSH2 0x2D9C JUMP JUMPDEST DUP6 PUSH2 0x14DD SWAP2 SWAP1 PUSH2 0x2B64 JUMP JUMPDEST SWAP1 DUP2 ISZERO MUL SWAP1 PUSH1 0x40 MLOAD PUSH0 PUSH1 0x40 MLOAD DUP1 DUP4 SUB DUP2 DUP6 DUP9 DUP9 CALL SWAP4 POP POP POP POP ISZERO DUP1 ISZERO PUSH2 0x1505 JUMPI RETURNDATASIZE PUSH0 DUP1 RETURNDATACOPY RETURNDATASIZE PUSH0 REVERT JUMPDEST POP POP POP JUMPDEST POP JUMP JUMPDEST PUSH0 DUP1 SLOAD SWAP1 PUSH2 0x100 EXP SWAP1 DIV PUSH20 0xFFFFFFFFFFFFFFFFFFFFFFFFFFFFFFFFFFFFFFFF AND DUP2 JUMP JUMPDEST PUSH1 0x4 SLOAD DUP2 JUMP JUMPDEST PUSH1 0x6 SLOAD DUP2 JUMP JUMPDEST PUSH7 0x470DE4DF820000 CALLVALUE LT ISZERO PUSH2 0x1585 JUMPI PUSH1 0x40 MLOAD PUSH32 0x8C379A000000000000000000000000000000000000000000000000000000000 DUP2 MSTORE PUSH1 0x4 ADD PUSH2 0x157C SWAP1 PUSH2 0x2E27 JUMP JUMPDEST PUSH1 0x40 MLOAD DUP1 SWAP2 SUB SWAP1 REVERT JUMPDEST PUSH1 0x1 DUP4 PUSH1 0xFF AND LT ISZERO DUP1 ISZERO PUSH2 0x159D JUMPI POP PUSH1 0x64 DUP4 PUSH1 0xFF AND GT ISZERO JUMPDEST PUSH2 0x15DC JUMPI PUSH1 0x40 MLOAD PUSH32 0x8C379A000000000000000000000000000000000000000000000000000000000 DUP2 MSTORE PUSH1 0x4 ADD PUSH2 0x15D3 SWAP1 PUSH2 0x2E8F JUMP JUMPDEST PUSH1 0x40 MLOAD DUP1 SWAP2 SUB SWAP1 REVERT JUMPDEST PUSH1 0x1 DUP5 PUSH2 0xFFFF AND LT ISZERO DUP1 ISZERO PUSH2 0x15F7 JUMPI POP PUSH2 0x3E8 DUP5 PUSH2 0xFFFF AND GT ISZERO JUMPDEST PUSH2 0x1636 JUMPI PUSH1 0x40 MLOAD PUSH32 0x8C379A000000000000000000000000000000000000000000000000000000000 DUP2 MSTORE PUSH1 0x4 ADD PUSH2 0x162D SWAP1 PUSH2 0x2EF7 JUMP JUMPDEST PUSH1 0x40 MLOAD DUP1 SWAP2 SUB SWAP1 REVERT JUMPDEST PUSH0 PUSH2 0x1648 CALLVALUE PUSH7 0x470DE4DF820000 PUSH2 0x21C8 JUMP JUMPDEST SWAP1 POP DUP4 PUSH1 0xFF AND DUP6 PUSH2 0x1659 SWAP2 SWAP1 PUSH2 0x2F15 JUMP JUMPDEST PUSH2 0xFFFF AND DUP2 EQ PUSH2 0x169E JUMPI PUSH1 0x40 MLOAD PUSH32 0x8C379A000000000000000000000000000000000000000000000000000000000 DUP2 MSTORE PUSH1 0x4 ADD PUSH2 0x1695 SWAP1 PUSH2 0x2F9B JUMP JUMPDEST PUSH1 0x40 MLOAD DUP1 SWAP2 SUB SWAP1 REVERT JUMPDEST PUSH0 JUMPDEST DUP6 PUSH2 0xFFFF AND DUP2 LT ISZERO PUSH2 0x1821 JUMPI PUSH0 PUSH1 0x40 MLOAD DUP1 PUSH1 0x60 ADD PUSH1 0x40 MSTORE DUP1 TIMESTAMP COINBASE CALLER DUP10 DUP1 PUSH2 0x16C6 SWAP1 PUSH2 0x2FB9 JUMP JUMPDEST SWAP11 POP PUSH1 0x40 MLOAD PUSH1 0x20 ADD PUSH2 0x16DB SWAP5 SWAP4 SWAP3 SWAP2 SWAP1 PUSH2 0x30CF JUMP JUMPDEST PUSH1 0x40 MLOAD PUSH1 0x20 DUP2 DUP4 SUB SUB DUP2 MSTORE SWAP1 PUSH1 0x40 MSTORE DUP1 MLOAD SWAP1 PUSH1 0x20 ADD KECCAK256 DUP2 MSTORE PUSH1 0x20 ADD DUP8 PUSH1 0xFF AND DUP2 MSTORE PUSH1 0x20 ADD NUMBER PUSH31 0xFFFFFFFFFFFFFFFFFFFFFFFFFFFFFFFFFFFFFFFFFFFFFFFFFFFFFFFFFFFFFF AND DUP2 MSTORE POP SWAP1 POP PUSH1 0x9 PUSH0 CALLER PUSH20 0xFFFFFFFFFFFFFFFFFFFFFFFFFFFFFFFFFFFFFFFF AND PUSH20 0xFFFFFFFFFFFFFFFFFFFFFFFFFFFFFFFFFFFFFFFF AND DUP2 MSTORE PUSH1 0x20 ADD SWAP1 DUP2 MSTORE PUSH1 0x20 ADD PUSH0 KECCAK256 PUSH0 ADD DUP2 SWAP1 DUP1 PUSH1 0x1 DUP2 SLOAD ADD DUP1 DUP3 SSTORE DUP1 SWAP2 POP POP PUSH1 0x1 SWAP1 SUB SWAP1 PUSH0 MSTORE PUSH1 0x20 PUSH0 KECCAK256 SWAP1 PUSH1 0x2 MUL ADD PUSH0 SWAP1 SWAP2 SWAP1 SWAP2 SWAP1 SWAP2 POP PUSH0 DUP3 ADD MLOAD DUP2 PUSH0 ADD SSTORE PUSH1 0x20 DUP3 ADD MLOAD DUP2 PUSH1 0x1 ADD PUSH0 PUSH2 0x100 EXP DUP2 SLOAD DUP2 PUSH1 0xFF MUL NOT AND SWAP1 DUP4 PUSH1 0xFF AND MUL OR SWAP1 SSTORE POP PUSH1 0x40 DUP3 ADD MLOAD DUP2 PUSH1 0x1 ADD PUSH1 0x1 PUSH2 0x100 EXP DUP2 SLOAD DUP2 PUSH31 0xFFFFFFFFFFFFFFFFFFFFFFFFFFFFFFFFFFFFFFFFFFFFFFFFFFFFFFFFFFFFFF MUL NOT AND SWAP1 DUP4 PUSH31 0xFFFFFFFFFFFFFFFFFFFFFFFFFFFFFFFFFFFFFFFFFFFFFFFFFFFFFFFFFFFFFF AND MUL OR SWAP1 SSTORE POP POP POP POP DUP1 DUP1 PUSH1 0x1 ADD SWAP2 POP POP PUSH2 0x16A0 JUMP JUMPDEST POP PUSH1 0x9 PUSH0 CALLER PUSH20 0xFFFFFFFFFFFFFFFFFFFFFFFFFFFFFFFFFFFFFFFF AND PUSH20 0xFFFFFFFFFFFFFFFFFFFFFFFFFFFFFFFFFFFFFFFF AND DUP2 MSTORE PUSH1 0x20 ADD SWAP1 DUP2 MSTORE PUSH1 0x20 ADD PUSH0 KECCAK256 PUSH1 0x3 ADD PUSH0 SWAP1 SLOAD SWAP1 PUSH2 0x100 EXP SWAP1 DIV PUSH1 0xFF AND PUSH2 0x18CC JUMPI PUSH1 0x1 PUSH1 0x9 PUSH0 CALLER PUSH20 0xFFFFFFFFFFFFFFFFFFFFFFFFFFFFFFFFFFFFFFFF AND PUSH20 0xFFFFFFFFFFFFFFFFFFFFFFFFFFFFFFFFFFFFFFFF AND DUP2 MSTORE PUSH1 0x20 ADD SWAP1 DUP2 MSTORE PUSH1 0x20 ADD PUSH0 KECCAK256 PUSH1 0x3 ADD PUSH0 PUSH2 0x100 EXP DUP2 SLOAD DUP2 PUSH1 0xFF MUL NOT AND SWAP1 DUP4 ISZERO ISZERO MUL OR SWAP1 SSTORE POP JUMPDEST PUSH0 PUSH2 0x18E2 PUSH2 0x18DB CALLVALUE PUSH1 0x3 PUSH2 0x2183 JUMP JUMPDEST PUSH1 0x64 PUSH2 0x21C8 JUMP JUMPDEST SWAP1 POP PUSH0 PUSH2 0x18FA PUSH2 0x18F3 CALLVALUE PUSH1 0x4 PUSH2 0x2183 JUMP JUMPDEST PUSH1 0x64 PUSH2 0x21C8 JUMP JUMPDEST SWAP1 POP DUP2 PUSH1 0x1 PUSH0 DUP3 DUP3 SLOAD PUSH2 0x190D SWAP2 SWAP1 PUSH2 0x2A3F JUMP JUMPDEST SWAP3 POP POP DUP2 SWAP1 SSTORE POP DUP2 PUSH1 0x5 PUSH0 DUP3 DUP3 SLOAD PUSH2 0x1925 SWAP2 SWAP1 PUSH2 0x2A3F JUMP JUMPDEST SWAP3 POP POP DUP2 SWAP1 SSTORE POP PUSH0 PUSH20 0xFFFFFFFFFFFFFFFFFFFFFFFFFFFFFFFFFFFFFFFF AND PUSH1 0xA PUSH0 CALLER PUSH20 0xFFFFFFFFFFFFFFFFFFFFFFFFFFFFFFFFFFFFFFFF AND PUSH20 0xFFFFFFFFFFFFFFFFFFFFFFFFFFFFFFFFFFFFFFFF AND DUP2 MSTORE PUSH1 0x20 ADD SWAP1 DUP2 MSTORE PUSH1 0x20 ADD PUSH0 KECCAK256 PUSH0 SWAP1 SLOAD SWAP1 PUSH2 0x100 EXP SWAP1 DIV PUSH20 0xFFFFFFFFFFFFFFFFFFFFFFFFFFFFFFFFFFFFFFFF AND PUSH20 0xFFFFFFFFFFFFFFFFFFFFFFFFFFFFFFFFFFFFFFFF AND SUB PUSH2 0x1CB6 JUMPI CALLER PUSH20 0xFFFFFFFFFFFFFFFFFFFFFFFFFFFFFFFFFFFFFFFF AND DUP5 PUSH20 0xFFFFFFFFFFFFFFFFFFFFFFFFFFFFFFFFFFFFFFFF AND EQ DUP1 PUSH2 0x1A20 JUMPI POP PUSH0 PUSH20 0xFFFFFFFFFFFFFFFFFFFFFFFFFFFFFFFFFFFFFFFF AND DUP5 PUSH20 0xFFFFFFFFFFFFFFFFFFFFFFFFFFFFFFFFFFFFFFFF AND EQ JUMPDEST DUP1 PUSH2 0x1A75 JUMPI POP PUSH1 0x9 PUSH0 CALLER PUSH20 0xFFFFFFFFFFFFFFFFFFFFFFFFFFFFFFFFFFFFFFFF AND PUSH20 0xFFFFFFFFFFFFFFFFFFFFFFFFFFFFFFFFFFFFFFFF AND DUP2 MSTORE PUSH1 0x20 ADD SWAP1 DUP2 MSTORE PUSH1 0x20 ADD PUSH0 KECCAK256 PUSH1 0x3 ADD PUSH0 SWAP1 SLOAD SWAP1 PUSH2 0x100 EXP SWAP1 DIV PUSH1 0xFF AND ISZERO JUMPDEST ISZERO PUSH2 0x1A9D JUMPI PUSH0 DUP1 SLOAD SWAP1 PUSH2 0x100 EXP SWAP1 DIV PUSH20 0xFFFFFFFFFFFFFFFFFFFFFFFFFFFFFFFFFFFFFFFF AND SWAP4 POP JUMPDEST DUP4 PUSH1 0xA PUSH0 CALLER PUSH20 0xFFFFFFFFFFFFFFFFFFFFFFFFFFFFFFFFFFFFFFFF AND PUSH20 0xFFFFFFFFFFFFFFFFFFFFFFFFFFFFFFFFFFFFFFFF AND DUP2 MSTORE PUSH1 0x20 ADD SWAP1 DUP2 MSTORE PUSH1 0x20 ADD PUSH0 KECCAK256 PUSH0 PUSH2 0x100 EXP DUP2 SLOAD DUP2 PUSH20 0xFFFFFFFFFFFFFFFFFFFFFFFFFFFFFFFFFFFFFFFF MUL NOT AND SWAP1 DUP4 PUSH20 0xFFFFFFFFFFFFFFFFFFFFFFFFFFFFFFFFFFFFFFFF AND MUL OR SWAP1 SSTORE POP PUSH0 DUP1 SLOAD SWAP1 PUSH2 0x100 EXP SWAP1 DIV PUSH20 0xFFFFFFFFFFFFFFFFFFFFFFFFFFFFFFFFFFFFFFFF AND PUSH20 0xFFFFFFFFFFFFFFFFFFFFFFFFFFFFFFFFFFFFFFFF AND PUSH1 0xA PUSH0 CALLER PUSH20 0xFFFFFFFFFFFFFFFFFFFFFFFFFFFFFFFFFFFFFFFF AND PUSH20 0xFFFFFFFFFFFFFFFFFFFFFFFFFFFFFFFFFFFFFFFF AND DUP2 MSTORE PUSH1 0x20 ADD SWAP1 DUP2 MSTORE PUSH1 0x20 ADD PUSH0 KECCAK256 PUSH0 SWAP1 SLOAD SWAP1 PUSH2 0x100 EXP SWAP1 DIV PUSH20 0xFFFFFFFFFFFFFFFFFFFFFFFFFFFFFFFFFFFFFFFF AND PUSH20 0xFFFFFFFFFFFFFFFFFFFFFFFFFFFFFFFFFFFFFFFF AND SUB PUSH2 0x1BE3 JUMPI DUP1 PUSH1 0x1 PUSH0 DUP3 DUP3 SLOAD PUSH2 0x1BD7 SWAP2 SWAP1 PUSH2 0x2A3F JUMP JUMPDEST SWAP3 POP POP DUP2 SWAP1 SSTORE POP PUSH2 0x1CAE JUMP JUMPDEST DUP1 PUSH1 0x9 PUSH0 PUSH1 0xA PUSH0 CALLER PUSH20 0xFFFFFFFFFFFFFFFFFFFFFFFFFFFFFFFFFFFFFFFF AND PUSH20 0xFFFFFFFFFFFFFFFFFFFFFFFFFFFFFFFFFFFFFFFF AND DUP2 MSTORE PUSH1 0x20 ADD SWAP1 DUP2 MSTORE PUSH1 0x20 ADD PUSH0 KECCAK256 PUSH0 SWAP1 SLOAD SWAP1 PUSH2 0x100 EXP SWAP1 DIV PUSH20 0xFFFFFFFFFFFFFFFFFFFFFFFFFFFFFFFFFFFFFFFF AND PUSH20 0xFFFFFFFFFFFFFFFFFFFFFFFFFFFFFFFFFFFFFFFF AND PUSH20 0xFFFFFFFFFFFFFFFFFFFFFFFFFFFFFFFFFFFFFFFF AND DUP2 MSTORE PUSH1 0x20 ADD SWAP1 DUP2 MSTORE PUSH1 0x20 ADD PUSH0 KECCAK256 PUSH1 0x2 ADD PUSH0 DUP3 DUP3 SLOAD PUSH2 0x1C8E SWAP2 SWAP1 PUSH2 0x2A3F JUMP JUMPDEST SWAP3 POP POP DUP2 SWAP1 SSTORE POP DUP1 PUSH1 0x7 PUSH0 DUP3 DUP3 SLOAD PUSH2 0x1CA6 SWAP2 SWAP1 PUSH2 0x2A3F JUMP JUMPDEST SWAP3 POP POP DUP2 SWAP1 SSTORE POP JUMPDEST TIMESTAMP PUSH1 0x8 DUP2 SWAP1 SSTORE POP JUMPDEST POP POP POP POP POP POP POP JUMP JUMPDEST PUSH1 0x5 SLOAD DUP2 JUMP JUMPDEST PUSH0 PUSH1 0x3 PUSH0 DUP4 PUSH20 0xFFFFFFFFFFFFFFFFFFFFFFFFFFFFFFFFFFFFFFFF AND PUSH20 0xFFFFFFFFFFFFFFFFFFFFFFFFFFFFFFFFFFFFFFFF AND DUP2 MSTORE PUSH1 0x20 ADD SWAP1 DUP2 MSTORE PUSH1 0x20 ADD PUSH0 KECCAK256 PUSH0 ADD SLOAD SWAP1 POP SWAP2 SWAP1 POP JUMP JUMPDEST PUSH1 0x60 PUSH1 0x9 PUSH0 CALLER PUSH20 0xFFFFFFFFFFFFFFFFFFFFFFFFFFFFFFFFFFFFFFFF AND PUSH20 0xFFFFFFFFFFFFFFFFFFFFFFFFFFFFFFFFFFFFFFFF AND DUP2 MSTORE PUSH1 0x20 ADD SWAP1 DUP2 MSTORE PUSH1 0x20 ADD PUSH0 KECCAK256 PUSH1 0x1 ADD DUP1 SLOAD DUP1 PUSH1 0x20 MUL PUSH1 0x20 ADD PUSH1 0x40 MLOAD SWAP1 DUP2 ADD PUSH1 0x40 MSTORE DUP1 SWAP3 SWAP2 SWAP1 DUP2 DUP2 MSTORE PUSH1 0x20 ADD PUSH0 SWAP1 JUMPDEST DUP3 DUP3 LT ISZERO PUSH2 0x1DDA JUMPI DUP4 DUP3 SWAP1 PUSH0 MSTORE PUSH1 0x20 PUSH0 KECCAK256 ADD PUSH1 0x40 MLOAD DUP1 PUSH1 0x40 ADD PUSH1 0x40 MSTORE SWAP1 DUP2 PUSH0 DUP3 ADD PUSH0 SWAP1 SLOAD SWAP1 PUSH2 0x100 EXP SWAP1 DIV PUSH4 0xFFFFFFFF AND PUSH4 0xFFFFFFFF AND PUSH4 0xFFFFFFFF AND DUP2 MSTORE PUSH1 0x20 ADD PUSH0 DUP3 ADD PUSH1 0x4 SWAP1 SLOAD SWAP1 PUSH2 0x100 EXP SWAP1 DIV PUSH1 0xFF AND PUSH1 0xFF AND PUSH1 0xFF AND DUP2 MSTORE POP POP DUP2 MSTORE PUSH1 0x20 ADD SWAP1 PUSH1 0x1 ADD SWAP1 PUSH2 0x1D6E JUMP JUMPDEST POP POP POP POP SWAP1 POP SWAP1 JUMP JUMPDEST PUSH8 0xDE0B6B3A7640000 DUP2 LT ISZERO PUSH2 0x1E2E JUMPI PUSH1 0x40 MLOAD PUSH32 0x8C379A000000000000000000000000000000000000000000000000000000000 DUP2 MSTORE PUSH1 0x4 ADD PUSH2 0x1E25 SWAP1 PUSH2 0x31B2 JUMP JUMPDEST PUSH1 0x40 MLOAD DUP1 SWAP2 SUB SWAP1 REVERT JUMPDEST PUSH1 0x3 PUSH0 CALLER PUSH20 0xFFFFFFFFFFFFFFFFFFFFFFFFFFFFFFFFFFFFFFFF AND PUSH20 0xFFFFFFFFFFFFFFFFFFFFFFFFFFFFFFFFFFFFFFFF AND DUP2 MSTORE PUSH1 0x20 ADD SWAP1 DUP2 MSTORE PUSH1 0x20 ADD PUSH0 KECCAK256 PUSH0 ADD SLOAD DUP2 GT ISZERO PUSH2 0x1EB0 JUMPI PUSH1 0x40 MLOAD PUSH32 0x8C379A000000000000000000000000000000000000000000000000000000000 DUP2 MSTORE PUSH1 0x4 ADD PUSH2 0x1EA7 SWAP1 PUSH2 0x321A JUMP JUMPDEST PUSH1 0x40 MLOAD DUP1 SWAP2 SUB SWAP1 REVERT JUMPDEST PUSH3 0x93A80 PUSH1 0x3 PUSH0 CALLER PUSH20 0xFFFFFFFFFFFFFFFFFFFFFFFFFFFFFFFFFFFFFFFF AND PUSH20 0xFFFFFFFFFFFFFFFFFFFFFFFFFFFFFFFFFFFFFFFF AND DUP2 MSTORE PUSH1 0x20 ADD SWAP1 DUP2 MSTORE PUSH1 0x20 ADD PUSH0 KECCAK256 PUSH1 0x1 ADD SLOAD PUSH2 0x1EFF SWAP2 SWAP1 PUSH2 0x2A3F JUMP JUMPDEST TIMESTAMP LT ISZERO PUSH2 0x1F41 JUMPI PUSH1 0x40 MLOAD PUSH32 0x8C379A000000000000000000000000000000000000000000000000000000000 DUP2 MSTORE PUSH1 0x4 ADD PUSH2 0x1F38 SWAP1 PUSH2 0x3282 JUMP JUMPDEST PUSH1 0x40 MLOAD DUP1 SWAP2 SUB SWAP1 REVERT JUMPDEST DUP1 PUSH2 0x1F68 SELFBALANCE PUSH1 0x1 SLOAD PUSH1 0x7 SLOAD PUSH1 0x5 SLOAD PUSH2 0x1F59 SWAP2 SWAP1 PUSH2 0x2A3F JUMP JUMPDEST PUSH2 0x1F63 SWAP2 SWAP1 PUSH2 0x2A3F JUMP JUMPDEST PUSH2 0x215D JUMP JUMPDEST LT ISZERO PUSH2 0x1FA9 JUMPI PUSH1 0x40 MLOAD PUSH32 0x8C379A000000000000000000000000000000000000000000000000000000000 DUP2 MSTORE PUSH1 0x4 ADD PUSH2 0x1FA0 SWAP1 PUSH2 0x32EA JUMP JUMPDEST PUSH1 0x40 MLOAD DUP1 SWAP2 SUB SWAP1 REVERT JUMPDEST DUP1 PUSH1 0x3 PUSH0 CALLER PUSH20 0xFFFFFFFFFFFFFFFFFFFFFFFFFFFFFFFFFFFFFFFF AND PUSH20 0xFFFFFFFFFFFFFFFFFFFFFFFFFFFFFFFFFFFFFFFF AND DUP2 MSTORE PUSH1 0x20 ADD SWAP1 DUP2 MSTORE PUSH1 0x20 ADD PUSH0 KECCAK256 PUSH0 ADD PUSH0 DUP3 DUP3 SLOAD PUSH2 0x1FF7 SWAP2 SWAP1 PUSH2 0x2B64 JUMP JUMPDEST SWAP3 POP POP DUP2 SWAP1 SSTORE POP DUP1 PUSH1 0x4 PUSH0 DUP3 DUP3 SLOAD PUSH2 0x200F SWAP2 SWAP1 PUSH2 0x2B64 JUMP JUMPDEST SWAP3 POP POP DUP2 SWAP1 SSTORE POP CALLER PUSH20 0xFFFFFFFFFFFFFFFFFFFFFFFFFFFFFFFFFFFFFFFF AND PUSH2 0x8FC DUP3 SWAP1 DUP2 ISZERO MUL SWAP1 PUSH1 0x40 MLOAD PUSH0 PUSH1 0x40 MLOAD DUP1 DUP4 SUB DUP2 DUP6 DUP9 DUP9 CALL SWAP4 POP POP POP POP ISZERO DUP1 ISZERO PUSH2 0x2059 JUMPI RETURNDATASIZE PUSH0 DUP1 RETURNDATACOPY RETURNDATASIZE PUSH0 REVERT JUMPDEST POP POP JUMP JUMPDEST PUSH0 DUP1 SLOAD SWAP1 PUSH2 0x100 EXP SWAP1 DIV PUSH20 0xFFFFFFFFFFFFFFFFFFFFFFFFFFFFFFFFFFFFFFFF AND PUSH20 0xFFFFFFFFFFFFFFFFFFFFFFFFFFFFFFFFFFFFFFFF AND CALLER PUSH20 0xFFFFFFFFFFFFFFFFFFFFFFFFFFFFFFFFFFFFFFFF AND EQ PUSH2 0x20EA JUMPI PUSH1 0x40 MLOAD PUSH32 0x8C379A000000000000000000000000000000000000000000000000000000000 DUP2 MSTORE PUSH1 0x4 ADD PUSH2 0x20E1 SWAP1 PUSH2 0x3352 JUMP JUMPDEST PUSH1 0x40 MLOAD DUP1 SWAP2 SUB SWAP1 REVERT JUMPDEST PUSH0 PUSH1 0x1 SLOAD SWAP1 POP PUSH0 PUSH1 0x1 DUP2 SWAP1 SSTORE POP PUSH0 DUP1 SLOAD SWAP1 PUSH2 0x100 EXP SWAP1 DIV PUSH20 0xFFFFFFFFFFFFFFFFFFFFFFFFFFFFFFFFFFFFFFFF AND PUSH20 0xFFFFFFFFFFFFFFFFFFFFFFFFFFFFFFFFFFFFFFFF AND PUSH2 0x8FC DUP3 SWAP1 DUP2 ISZERO MUL SWAP1 PUSH1 0x40 MLOAD PUSH0 PUSH1 0x40 MLOAD DUP1 DUP4 SUB DUP2 DUP6 DUP9 DUP9 CALL SWAP4 POP POP POP POP ISZERO DUP1 ISZERO PUSH2 0x2159 JUMPI RETURNDATASIZE PUSH0 DUP1 RETURNDATACOPY RETURNDATASIZE PUSH0 REVERT JUMPDEST POP POP JUMP JUMPDEST PUSH0 DUP3 DUP3 GT ISZERO PUSH2 0x216F JUMPI PUSH2 0x216E PUSH2 0x3370 JUMP JUMPDEST JUMPDEST DUP2 DUP4 PUSH2 0x217B SWAP2 SWAP1 PUSH2 0x2B64 JUMP JUMPDEST SWAP1 POP SWAP3 SWAP2 POP POP JUMP JUMPDEST PUSH0 DUP1 DUP4 SUB PUSH2 0x2193 JUMPI PUSH0 SWAP1 POP PUSH2 0x21C2 JUMP JUMPDEST PUSH0 DUP3 DUP5 PUSH2 0x21A0 SWAP2 SWAP1 PUSH2 0x2D9C JUMP JUMPDEST SWAP1 POP DUP3 DUP5 DUP3 PUSH2 0x21AF SWAP2 SWAP1 PUSH2 0x2A9F JUMP JUMPDEST EQ PUSH2 0x21BD JUMPI PUSH2 0x21BC PUSH2 0x3370 JUMP JUMPDEST JUMPDEST DUP1 SWAP2 POP POP JUMPDEST SWAP3 SWAP2 POP POP JUMP JUMPDEST PUSH0 DUP1 DUP3 GT PUSH2 0x21D9 JUMPI PUSH2 0x21D8 PUSH2 0x3370 JUMP JUMPDEST JUMPDEST PUSH0 DUP3 DUP5 PUSH2 0x21E6 SWAP2 SWAP1 PUSH2 0x2A9F JUMP JUMPDEST SWAP1 POP DUP1 SWAP2 POP POP SWAP3 SWAP2 POP POP JUMP JUMPDEST PUSH0 PUSH4 0x4000000 DUP3 PUSH4 0xFFFFFFFF AND GT ISZERO PUSH2 0x220D JUMPI PUSH0 SWAP1 POP PUSH2 0x22F0 JUMP JUMPDEST PUSH4 0x1000000 DUP3 PUSH4 0xFFFFFFFF AND LT PUSH2 0x2227 JUMPI PUSH1 0xA SWAP1 POP PUSH2 0x22F0 JUMP JUMPDEST PUSH3 0x400000 DUP3 PUSH4 0xFFFFFFFF AND LT PUSH2 0x2240 JUMPI PUSH1 0x9 SWAP1 POP PUSH2 0x22F0 JUMP JUMPDEST PUSH3 0x100000 DUP3 PUSH4 0xFFFFFFFF AND LT PUSH2 0x2259 JUMPI PUSH1 0x8 SWAP1 POP PUSH2 0x22F0 JUMP JUMPDEST PUSH3 0x40000 DUP3 PUSH4 0xFFFFFFFF AND LT PUSH2 0x2272 JUMPI PUSH1 0x7 SWAP1 POP PUSH2 0x22F0 JUMP JUMPDEST PUSH3 0x10000 DUP3 PUSH4 0xFFFFFFFF AND LT PUSH2 0x228B JUMPI PUSH1 0x6 SWAP1 POP PUSH2 0x22F0 JUMP JUMPDEST PUSH2 0x4000 DUP3 PUSH4 0xFFFFFFFF AND LT PUSH2 0x22A3 JUMPI PUSH1 0x5 SWAP1 POP PUSH2 0x22F0 JUMP JUMPDEST PUSH2 0x1000 DUP3 PUSH4 0xFFFFFFFF AND LT PUSH2 0x22BB JUMPI PUSH1 0x4 SWAP1 POP PUSH2 0x22F0 JUMP JUMPDEST PUSH2 0x400 DUP3 PUSH4 0xFFFFFFFF AND LT PUSH2 0x22D3 JUMPI PUSH1 0x3 SWAP1 POP PUSH2 0x22F0 JUMP JUMPDEST PUSH2 0x100 DUP3 PUSH4 0xFFFFFFFF AND LT PUSH2 0x22EB JUMPI PUSH1 0x2 SWAP1 POP PUSH2 0x22F0 JUMP JUMPDEST PUSH1 0x1 SWAP1 POP JUMPDEST SWAP2 SWAP1 POP JUMP JUMPDEST PUSH0 DUP1 DUP3 SUB PUSH2 0x2305 JUMPI PUSH0 SWAP1 POP PUSH2 0x23BD JUMP JUMPDEST PUSH1 0xA DUP3 SUB PUSH2 0x2316 JUMPI PUSH1 0x5 SWAP1 POP PUSH2 0x23BD JUMP JUMPDEST PUSH1 0x9 DUP3 SUB PUSH2 0x2327 JUMPI PUSH1 0x14 SWAP1 POP PUSH2 0x23BD JUMP JUMPDEST PUSH1 0x8 DUP3 SUB PUSH2 0x2338 JUMPI PUSH1 0x50 SWAP1 POP PUSH2 0x23BD JUMP JUMPDEST PUSH1 0x7 DUP3 SUB PUSH2 0x234A JUMPI PUSH2 0x140 SWAP1 POP PUSH2 0x23BD JUMP JUMPDEST PUSH1 0x6 DUP3 SUB PUSH2 0x235C JUMPI PUSH2 0x4B0 SWAP1 POP PUSH2 0x23BD JUMP JUMPDEST PUSH1 0x5 DUP3 SUB PUSH2 0x236E JUMPI PUSH2 0x12C0 SWAP1 POP PUSH2 0x23BD JUMP JUMPDEST PUSH1 0x4 DUP3 SUB PUSH2 0x2380 JUMPI PUSH2 0x4E20 SWAP1 POP PUSH2 0x23BD JUMP JUMPDEST PUSH1 0x3 DUP3 SUB PUSH2 0x2393 JUMPI PUSH3 0x186A0 SWAP1 POP PUSH2 0x23BD JUMP JUMPDEST PUSH1 0x2 DUP3 SUB PUSH2 0x23A6 JUMPI PUSH3 0x7A120 SWAP1 POP PUSH2 0x23BD JUMP JUMPDEST PUSH1 0x1 DUP3 SUB PUSH2 0x23B9 JUMPI PUSH3 0x1E8480 SWAP1 POP PUSH2 0x23BD JUMP JUMPDEST PUSH0 SWAP1 POP JUMPDEST SWAP2 SWAP1 POP JUMP JUMPDEST PUSH1 0x40 MLOAD DUP1 PUSH1 0x80 ADD PUSH1 0x40 MSTORE DUP1 PUSH0 PUSH4 0xFFFFFFFF AND DUP2 MSTORE PUSH1 0x20 ADD PUSH0 PUSH1 0xFF AND DUP2 MSTORE PUSH1 0x20 ADD PUSH0 DUP2 MSTORE PUSH1 0x20 ADD PUSH0 PUSH20 0xFFFFFFFFFFFFFFFFFFFFFFFFFFFFFFFFFFFFFFFF AND DUP2 MSTORE POP SWAP1 JUMP JUMPDEST POP DUP1 SLOAD PUSH0 DUP3 SSTORE SWAP1 PUSH0 MSTORE PUSH1 0x20 PUSH0 KECCAK256 SWAP1 DUP2 ADD SWAP1 PUSH2 0x2420 SWAP2 SWAP1 PUSH2 0x2444 JUMP JUMPDEST POP JUMP JUMPDEST POP DUP1 SLOAD PUSH0 DUP3 SSTORE PUSH1 0x2 MUL SWAP1 PUSH0 MSTORE PUSH1 0x20 PUSH0 KECCAK256 SWAP1 DUP2 ADD SWAP1 PUSH2 0x2441 SWAP2 SWAP1 PUSH2 0x2483 JUMP JUMPDEST POP JUMP JUMPDEST JUMPDEST DUP1 DUP3 GT ISZERO PUSH2 0x247F JUMPI PUSH0 DUP1 DUP3 ADD PUSH0 PUSH2 0x100 EXP DUP2 SLOAD SWAP1 PUSH4 0xFFFFFFFF MUL NOT AND SWAP1 SSTORE PUSH0 DUP3 ADD PUSH1 0x4 PUSH2 0x100 EXP DUP2 SLOAD SWAP1 PUSH1 0xFF MUL NOT AND SWAP1 SSTORE POP PUSH1 0x1 ADD PUSH2 0x2445 JUMP JUMPDEST POP SWAP1 JUMP JUMPDEST JUMPDEST DUP1 DUP3 GT ISZERO PUSH2 0x24E1 JUMPI PUSH0 DUP1 DUP3 ADD PUSH0 SWAP1 SSTORE PUSH1 0x1 DUP3 ADD PUSH0 PUSH2 0x100 EXP DUP2 SLOAD SWAP1 PUSH1 0xFF MUL NOT AND SWAP1 SSTORE PUSH1 0x1 DUP3 ADD PUSH1 0x1 PUSH2 0x100 EXP DUP2 SLOAD SWAP1 PUSH31 0xFFFFFFFFFFFFFFFFFFFFFFFFFFFFFFFFFFFFFFFFFFFFFFFFFFFFFFFFFFFFFF MUL NOT AND SWAP1 SSTORE POP PUSH1 0x2 ADD PUSH2 0x2484 JUMP JUMPDEST POP SWAP1 JUMP JUMPDEST PUSH0 DUP1 REVERT JUMPDEST PUSH0 DUP2 SWAP1 POP SWAP2 SWAP1 POP JUMP JUMPDEST PUSH2 0x24FB DUP2 PUSH2 0x24E9 JUMP JUMPDEST DUP2 EQ PUSH2 0x2505 JUMPI PUSH0 DUP1 REVERT JUMPDEST POP JUMP JUMPDEST PUSH0 DUP2 CALLDATALOAD SWAP1 POP PUSH2 0x2516 DUP2 PUSH2 0x24F2 JUMP JUMPDEST SWAP3 SWAP2 POP POP JUMP JUMPDEST PUSH0 PUSH1 0x20 DUP3 DUP5 SUB SLT ISZERO PUSH2 0x2531 JUMPI PUSH2 0x2530 PUSH2 0x24E5 JUMP JUMPDEST JUMPDEST PUSH0 PUSH2 0x253E DUP5 DUP3 DUP6 ADD PUSH2 0x2508 JUMP JUMPDEST SWAP2 POP POP SWAP3 SWAP2 POP POP JUMP JUMPDEST PUSH0 DUP2 MLOAD SWAP1 POP SWAP2 SWAP1 POP JUMP JUMPDEST PUSH0 DUP3 DUP3 MSTORE PUSH1 0x20 DUP3 ADD SWAP1 POP SWAP3 SWAP2 POP POP JUMP JUMPDEST PUSH0 DUP2 SWAP1 POP PUSH1 0x20 DUP3 ADD SWAP1 POP SWAP2 SWAP1 POP JUMP JUMPDEST PUSH0 PUSH4 0xFFFFFFFF DUP3 AND SWAP1 POP SWAP2 SWAP1 POP JUMP JUMPDEST PUSH2 0x2588 DUP2 PUSH2 0x2570 JUMP JUMPDEST DUP3 MSTORE POP POP JUMP JUMPDEST PUSH0 PUSH1 0xFF DUP3 AND SWAP1 POP SWAP2 SWAP1 POP JUMP JUMPDEST PUSH2 0x25A3 DUP2 PUSH2 0x258E JUMP JUMPDEST DUP3 MSTORE POP POP JUMP JUMPDEST PUSH2 0x25B2 DUP2 PUSH2 0x24E9 JUMP JUMPDEST DUP3 MSTORE POP POP JUMP JUMPDEST PUSH0 PUSH20 0xFFFFFFFFFFFFFFFFFFFFFFFFFFFFFFFFFFFFFFFF DUP3 AND SWAP1 POP SWAP2 SWAP1 POP JUMP JUMPDEST PUSH0 PUSH2 0x25E1 DUP3 PUSH2 0x25B8 JUMP JUMPDEST SWAP1 POP SWAP2 SWAP1 POP JUMP JUMPDEST PUSH2 0x25F1 DUP2 PUSH2 0x25D7 JUMP JUMPDEST DUP3 MSTORE POP POP JUMP JUMPDEST PUSH1 0x80 DUP3 ADD PUSH0 DUP3 ADD MLOAD PUSH2 0x260B PUSH0 DUP6 ADD DUP3 PUSH2 0x257F JUMP JUMPDEST POP PUSH1 0x20 DUP3 ADD MLOAD PUSH2 0x261E PUSH1 0x20 DUP6 ADD DUP3 PUSH2 0x259A JUMP JUMPDEST POP PUSH1 0x40 DUP3 ADD MLOAD PUSH2 0x2631 PUSH1 0x40 DUP6 ADD DUP3 PUSH2 0x25A9 JUMP JUMPDEST POP PUSH1 0x60 DUP3 ADD MLOAD PUSH2 0x2644 PUSH1 0x60 DUP6 ADD DUP3 PUSH2 0x25E8 JUMP JUMPDEST POP POP POP POP JUMP JUMPDEST PUSH0 PUSH2 0x2655 DUP4 DUP4 PUSH2 0x25F7 JUMP JUMPDEST PUSH1 0x80 DUP4 ADD SWAP1 POP SWAP3 SWAP2 POP POP JUMP JUMPDEST PUSH0 PUSH1 0x20 DUP3 ADD SWAP1 POP SWAP2 SWAP1 POP JUMP JUMPDEST PUSH0 PUSH2 0x2677 DUP3 PUSH2 0x2547 JUMP JUMPDEST PUSH2 0x2681 DUP2 DUP6 PUSH2 0x2551 JUMP JUMPDEST SWAP4 POP PUSH2 0x268C DUP4 PUSH2 0x2561 JUMP JUMPDEST DUP1 PUSH0 JUMPDEST DUP4 DUP2 LT ISZERO PUSH2 0x26BC JUMPI DUP2 MLOAD PUSH2 0x26A3 DUP9 DUP3 PUSH2 0x264A JUMP JUMPDEST SWAP8 POP PUSH2 0x26AE DUP4 PUSH2 0x2661 JUMP JUMPDEST SWAP3 POP POP PUSH1 0x1 DUP2 ADD SWAP1 POP PUSH2 0x268F JUMP JUMPDEST POP DUP6 SWAP4 POP POP POP POP SWAP3 SWAP2 POP POP JUMP JUMPDEST PUSH0 PUSH1 0x20 DUP3 ADD SWAP1 POP DUP2 DUP2 SUB PUSH0 DUP4 ADD MSTORE PUSH2 0x26E1 DUP2 DUP5 PUSH2 0x266D JUMP JUMPDEST SWAP1 POP SWAP3 SWAP2 POP POP JUMP JUMPDEST PUSH2 0x26F2 DUP2 PUSH2 0x25D7 JUMP JUMPDEST DUP3 MSTORE POP POP JUMP JUMPDEST PUSH0 PUSH1 0x20 DUP3 ADD SWAP1 POP PUSH2 0x270B PUSH0 DUP4 ADD DUP5 PUSH2 0x26E9 JUMP JUMPDEST SWAP3 SWAP2 POP POP JUMP JUMPDEST PUSH2 0x271A DUP2 PUSH2 0x24E9 JUMP JUMPDEST DUP3 MSTORE POP POP JUMP JUMPDEST PUSH0 PUSH1 0x20 DUP3 ADD SWAP1 POP PUSH2 0x2733 PUSH0 DUP4 ADD DUP5 PUSH2 0x2711 JUMP JUMPDEST SWAP3 SWAP2 POP POP JUMP JUMPDEST PUSH0 PUSH2 0xFFFF DUP3 AND SWAP1 POP SWAP2 SWAP1 POP JUMP JUMPDEST PUSH2 0x274F DUP2 PUSH2 0x2739 JUMP JUMPDEST DUP2 EQ PUSH2 0x2759 JUMPI PUSH0 DUP1 REVERT JUMPDEST POP JUMP JUMPDEST PUSH0 DUP2 CALLDATALOAD SWAP1 POP PUSH2 0x276A DUP2 PUSH2 0x2746 JUMP JUMPDEST SWAP3 SWAP2 POP POP JUMP JUMPDEST PUSH2 0x2779 DUP2 PUSH2 0x258E JUMP JUMPDEST DUP2 EQ PUSH2 0x2783 JUMPI PUSH0 DUP1 REVERT JUMPDEST POP JUMP JUMPDEST PUSH0 DUP2 CALLDATALOAD SWAP1 POP PUSH2 0x2794 DUP2 PUSH2 0x2770 JUMP JUMPDEST SWAP3 SWAP2 POP POP JUMP JUMPDEST PUSH0 PUSH29 0xFFFFFFFFFFFFFFFFFFFFFFFFFFFFFFFFFFFFFFFFFFFFFFFFFFFFFFFFFF DUP3 AND SWAP1 POP SWAP2 SWAP1 POP JUMP JUMPDEST PUSH2 0x27CB DUP2 PUSH2 0x279A JUMP JUMPDEST DUP2 EQ PUSH2 0x27D5 JUMPI PUSH0 DUP1 REVERT JUMPDEST POP JUMP JUMPDEST PUSH0 DUP2 CALLDATALOAD SWAP1 POP PUSH2 0x27E6 DUP2 PUSH2 0x27C2 JUMP JUMPDEST SWAP3 SWAP2 POP POP JUMP JUMPDEST PUSH2 0x27F5 DUP2 PUSH2 0x25D7 JUMP JUMPDEST DUP2 EQ PUSH2 0x27FF JUMPI PUSH0 DUP1 REVERT JUMPDEST POP JUMP JUMPDEST PUSH0 DUP2 CALLDATALOAD SWAP1 POP PUSH2 0x2810 DUP2 PUSH2 0x27EC JUMP JUMPDEST SWAP3 SWAP2 POP POP JUMP JUMPDEST PUSH0 DUP1 PUSH0 DUP1 PUSH1 0x80 DUP6 DUP8 SUB SLT ISZERO PUSH2 0x282E JUMPI PUSH2 0x282D PUSH2 0x24E5 JUMP JUMPDEST JUMPDEST PUSH0 PUSH2 0x283B DUP8 DUP3 DUP9 ADD PUSH2 0x275C JUMP JUMPDEST SWAP5 POP POP PUSH1 0x20 PUSH2 0x284C DUP8 DUP3 DUP9 ADD PUSH2 0x2786 JUMP JUMPDEST SWAP4 POP POP PUSH1 0x40 PUSH2 0x285D DUP8 DUP3 DUP9 ADD PUSH2 0x27D8 JUMP JUMPDEST SWAP3 POP POP PUSH1 0x60 PUSH2 0x286E DUP8 DUP3 DUP9 ADD PUSH2 0x2802 JUMP JUMPDEST SWAP2 POP POP SWAP3 SWAP6 SWAP2 SWAP5 POP SWAP3 POP JUMP JUMPDEST PUSH0 PUSH1 0x20 DUP3 DUP5 SUB SLT ISZERO PUSH2 0x288F JUMPI PUSH2 0x288E PUSH2 0x24E5 JUMP JUMPDEST JUMPDEST PUSH0 PUSH2 0x289C DUP5 DUP3 DUP6 ADD PUSH2 0x2802 JUMP JUMPDEST SWAP2 POP POP SWAP3 SWAP2 POP POP JUMP JUMPDEST PUSH0 DUP2 MLOAD SWAP1 POP SWAP2 SWAP1 POP JUMP JUMPDEST PUSH0 DUP3 DUP3 MSTORE PUSH1 0x20 DUP3 ADD SWAP1 POP SWAP3 SWAP2 POP POP JUMP JUMPDEST PUSH0 DUP2 SWAP1 POP PUSH1 0x20 DUP3 ADD SWAP1 POP SWAP2 SWAP1 POP JUMP JUMPDEST PUSH1 0x40 DUP3 ADD PUSH0 DUP3 ADD MLOAD PUSH2 0x28E2 PUSH0 DUP6 ADD DUP3 PUSH2 0x257F JUMP JUMPDEST POP PUSH1 0x20 DUP3 ADD MLOAD PUSH2 0x28F5 PUSH1 0x20 DUP6 ADD DUP3 PUSH2 0x259A JUMP JUMPDEST POP POP POP POP JUMP JUMPDEST PUSH0 PUSH2 0x2906 DUP4 DUP4 PUSH2 0x28CE JUMP JUMPDEST PUSH1 0x40 DUP4 ADD SWAP1 POP SWAP3 SWAP2 POP POP JUMP JUMPDEST PUSH0 PUSH1 0x20 DUP3 ADD SWAP1 POP SWAP2 SWAP1 POP JUMP JUMPDEST PUSH0 PUSH2 0x2928 DUP3 PUSH2 0x28A5 JUMP JUMPDEST PUSH2 0x2932 DUP2 DUP6 PUSH2 0x28AF JUMP JUMPDEST SWAP4 POP PUSH2 0x293D DUP4 PUSH2 0x28BF JUMP JUMPDEST DUP1 PUSH0 JUMPDEST DUP4 DUP2 LT ISZERO PUSH2 0x296D JUMPI DUP2 MLOAD PUSH2 0x2954 DUP9 DUP3 PUSH2 0x28FB JUMP JUMPDEST SWAP8 POP PUSH2 0x295F DUP4 PUSH2 0x2912 JUMP JUMPDEST SWAP3 POP POP PUSH1 0x1 DUP2 ADD SWAP1 POP PUSH2 0x2940 JUMP JUMPDEST POP DUP6 SWAP4 POP POP POP POP SWAP3 SWAP2 POP POP JUMP JUMPDEST PUSH0 PUSH1 0x20 DUP3 ADD SWAP1 POP DUP2 DUP2 SUB PUSH0 DUP4 ADD MSTORE PUSH2 0x2992 DUP2 DUP5 PUSH2 0x291E JUMP JUMPDEST SWAP1 POP SWAP3 SWAP2 POP POP JUMP JUMPDEST PUSH0 DUP3 DUP3 MSTORE PUSH1 0x20 DUP3 ADD SWAP1 POP SWAP3 SWAP2 POP POP JUMP JUMPDEST PUSH32 0x596F75206D757374206265206120696E766573746F7200000000000000000000 PUSH0 DUP3 ADD MSTORE POP JUMP JUMPDEST PUSH0 PUSH2 0x29DE PUSH1 0x16 DUP4 PUSH2 0x299A JUMP JUMPDEST SWAP2 POP PUSH2 0x29E9 DUP3 PUSH2 0x29AA JUMP JUMPDEST PUSH1 0x20 DUP3 ADD SWAP1 POP SWAP2 SWAP1 POP JUMP JUMPDEST PUSH0 PUSH1 0x20 DUP3 ADD SWAP1 POP DUP2 DUP2 SUB PUSH0 DUP4 ADD MSTORE PUSH2 0x2A0B DUP2 PUSH2 0x29D2 JUMP JUMPDEST SWAP1 POP SWAP2 SWAP1 POP JUMP JUMPDEST PUSH32 0x4E487B7100000000000000000000000000000000000000000000000000000000 PUSH0 MSTORE PUSH1 0x11 PUSH1 0x4 MSTORE PUSH1 0x24 PUSH0 REVERT JUMPDEST PUSH0 PUSH2 0x2A49 DUP3 PUSH2 0x24E9 JUMP JUMPDEST SWAP2 POP PUSH2 0x2A54 DUP4 PUSH2 0x24E9 JUMP JUMPDEST SWAP3 POP DUP3 DUP3 ADD SWAP1 POP DUP1 DUP3 GT ISZERO PUSH2 0x2A6C JUMPI PUSH2 0x2A6B PUSH2 0x2A12 JUMP JUMPDEST JUMPDEST SWAP3 SWAP2 POP POP JUMP JUMPDEST PUSH32 0x4E487B7100000000000000000000000000000000000000000000000000000000 PUSH0 MSTORE PUSH1 0x12 PUSH1 0x4 MSTORE PUSH1 0x24 PUSH0 REVERT JUMPDEST PUSH0 PUSH2 0x2AA9 DUP3 PUSH2 0x24E9 JUMP JUMPDEST SWAP2 POP PUSH2 0x2AB4 DUP4 PUSH2 0x24E9 JUMP JUMPDEST SWAP3 POP DUP3 PUSH2 0x2AC4 JUMPI PUSH2 0x2AC3 PUSH2 0x2A72 JUMP JUMPDEST JUMPDEST DUP3 DUP3 DIV SWAP1 POP SWAP3 SWAP2 POP POP JUMP JUMPDEST PUSH32 0x4E487B7100000000000000000000000000000000000000000000000000000000 PUSH0 MSTORE PUSH1 0x32 PUSH1 0x4 MSTORE PUSH1 0x24 PUSH0 REVERT JUMPDEST PUSH32 0x4E6F7420656E6F7567682070726F66697420746F207769746864726177210000 PUSH0 DUP3 ADD MSTORE POP JUMP JUMPDEST PUSH0 PUSH2 0x2B30 PUSH1 0x1E DUP4 PUSH2 0x299A JUMP JUMPDEST SWAP2 POP PUSH2 0x2B3B DUP3 PUSH2 0x2AFC JUMP JUMPDEST PUSH1 0x20 DUP3 ADD SWAP1 POP SWAP2 SWAP1 POP JUMP JUMPDEST PUSH0 PUSH1 0x20 DUP3 ADD SWAP1 POP DUP2 DUP2 SUB PUSH0 DUP4 ADD MSTORE PUSH2 0x2B5D DUP2 PUSH2 0x2B24 JUMP JUMPDEST SWAP1 POP SWAP2 SWAP1 POP JUMP JUMPDEST PUSH0 PUSH2 0x2B6E DUP3 PUSH2 0x24E9 JUMP JUMPDEST SWAP2 POP PUSH2 0x2B79 DUP4 PUSH2 0x24E9 JUMP JUMPDEST SWAP3 POP DUP3 DUP3 SUB SWAP1 POP DUP2 DUP2 GT ISZERO PUSH2 0x2B91 JUMPI PUSH2 0x2B90 PUSH2 0x2A12 JUMP JUMPDEST JUMPDEST SWAP3 SWAP2 POP POP JUMP JUMPDEST PUSH32 0x4E487B7100000000000000000000000000000000000000000000000000000000 PUSH0 MSTORE PUSH1 0x41 PUSH1 0x4 MSTORE PUSH1 0x24 PUSH0 REVERT JUMPDEST PUSH32 0x496E766573746D656E7420616D6F756E7420626574657765656E203120616E64 PUSH0 DUP3 ADD MSTORE PUSH32 0x2031303030000000000000000000000000000000000000000000000000000000 PUSH1 0x20 DUP3 ADD MSTORE POP JUMP JUMPDEST PUSH0 PUSH2 0x2C1E PUSH1 0x25 DUP4 PUSH2 0x299A JUMP JUMPDEST SWAP2 POP PUSH2 0x2C29 DUP3 PUSH2 0x2BC4 JUMP JUMPDEST PUSH1 0x40 DUP3 ADD SWAP1 POP SWAP2 SWAP1 POP JUMP JUMPDEST PUSH0 PUSH1 0x20 DUP3 ADD SWAP1 POP DUP2 DUP2 SUB PUSH0 DUP4 ADD MSTORE PUSH2 0x2C4B DUP2 PUSH2 0x2C12 JUMP JUMPDEST SWAP1 POP SWAP2 SWAP1 POP JUMP JUMPDEST PUSH32 0x596F7520646F6E2774206861766520756E64726177206C6F7474657279207469 PUSH0 DUP3 ADD MSTORE PUSH32 0x636B657473000000000000000000000000000000000000000000000000000000 PUSH1 0x20 DUP3 ADD MSTORE POP JUMP JUMPDEST PUSH0 PUSH2 0x2CAC PUSH1 0x25 DUP4 PUSH2 0x299A JUMP JUMPDEST SWAP2 POP PUSH2 0x2CB7 DUP3 PUSH2 0x2C52 JUMP JUMPDEST PUSH1 0x40 DUP3 ADD SWAP1 POP SWAP2 SWAP1 POP JUMP JUMPDEST PUSH0 PUSH1 0x20 DUP3 ADD SWAP1 POP DUP2 DUP2 SUB PUSH0 DUP4 ADD MSTORE PUSH2 0x2CD9 DUP2 PUSH2 0x2CA0 JUMP JUMPDEST SWAP1 POP SWAP2 SWAP1 POP JUMP JUMPDEST PUSH32 0x49742773206E6F742074696D6500000000000000000000000000000000000000 PUSH0 DUP3 ADD MSTORE POP JUMP JUMPDEST PUSH0 PUSH2 0x2D14 PUSH1 0xD DUP4 PUSH2 0x299A JUMP JUMPDEST SWAP2 POP PUSH2 0x2D1F DUP3 PUSH2 0x2CE0 JUMP JUMPDEST PUSH1 0x20 DUP3 ADD SWAP1 POP SWAP2 SWAP1 POP JUMP JUMPDEST PUSH0 PUSH1 0x20 DUP3 ADD SWAP1 POP DUP2 DUP2 SUB PUSH0 DUP4 ADD MSTORE PUSH2 0x2D41 DUP2 PUSH2 0x2D08 JUMP JUMPDEST SWAP1 POP SWAP2 SWAP1 POP JUMP JUMPDEST PUSH0 DUP2 SWAP1 POP SWAP2 SWAP1 POP JUMP JUMPDEST PUSH0 DUP2 SWAP1 POP SWAP2 SWAP1 POP JUMP JUMPDEST PUSH2 0x2D6B PUSH2 0x2D66 DUP3 PUSH2 0x2D48 JUMP JUMPDEST PUSH2 0x2D51 JUMP JUMPDEST DUP3 MSTORE POP POP JUMP JUMPDEST PUSH0 PUSH2 0x2D7C DUP3 DUP6 PUSH2 0x2D5A JUMP JUMPDEST PUSH1 0x20 DUP3 ADD SWAP2 POP PUSH2 0x2D8C DUP3 DUP5 PUSH2 0x2D5A JUMP JUMPDEST PUSH1 0x20 DUP3 ADD SWAP2 POP DUP2 SWAP1 POP SWAP4 SWAP3 POP POP POP JUMP JUMPDEST PUSH0 PUSH2 0x2DA6 DUP3 PUSH2 0x24E9 JUMP JUMPDEST SWAP2 POP PUSH2 0x2DB1 DUP4 PUSH2 0x24E9 JUMP JUMPDEST SWAP3 POP DUP3 DUP3 MUL PUSH2 0x2DBF DUP2 PUSH2 0x24E9 JUMP JUMPDEST SWAP2 POP DUP3 DUP3 DIV DUP5 EQ DUP4 ISZERO OR PUSH2 0x2DD6 JUMPI PUSH2 0x2DD5 PUSH2 0x2A12 JUMP JUMPDEST JUMPDEST POP SWAP3 SWAP2 POP POP JUMP JUMPDEST PUSH32 0x427579206174206C65617374206F6E6520656767000000000000000000000000 PUSH0 DUP3 ADD MSTORE POP JUMP JUMPDEST PUSH0 PUSH2 0x2E11 PUSH1 0x14 DUP4 PUSH2 0x299A JUMP JUMPDEST SWAP2 POP PUSH2 0x2E1C DUP3 PUSH2 0x2DDD JUMP JUMPDEST PUSH1 0x20 DUP3 ADD SWAP1 POP SWAP2 SWAP1 POP JUMP JUMPDEST PUSH0 PUSH1 0x20 DUP3 ADD SWAP1 POP DUP2 DUP2 SUB PUSH0 DUP4 ADD MSTORE PUSH2 0x2E3E DUP2 PUSH2 0x2E05 JUMP JUMPDEST SWAP1 POP SWAP2 SWAP1 POP JUMP JUMPDEST PUSH32 0x4D756C7469706C6573206265747765656E203120616E64203130300000000000 PUSH0 DUP3 ADD MSTORE POP JUMP JUMPDEST PUSH0 PUSH2 0x2E79 PUSH1 0x1B DUP4 PUSH2 0x299A JUMP JUMPDEST SWAP2 POP PUSH2 0x2E84 DUP3 PUSH2 0x2E45 JUMP JUMPDEST PUSH1 0x20 DUP3 ADD SWAP1 POP SWAP2 SWAP1 POP JUMP JUMPDEST PUSH0 PUSH1 0x20 DUP3 ADD SWAP1 POP DUP2 DUP2 SUB PUSH0 DUP4 ADD MSTORE PUSH2 0x2EA6 DUP2 PUSH2 0x2E6D JUMP JUMPDEST SWAP1 POP SWAP2 SWAP1 POP JUMP JUMPDEST PUSH32 0x4E756D626572206F662065676773206265747765656E203120616E6420313030 PUSH0 DUP3 ADD MSTORE POP JUMP JUMPDEST PUSH0 PUSH2 0x2EE1 PUSH1 0x20 DUP4 PUSH2 0x299A JUMP JUMPDEST SWAP2 POP PUSH2 0x2EEC DUP3 PUSH2 0x2EAD JUMP JUMPDEST PUSH1 0x20 DUP3 ADD SWAP1 POP SWAP2 SWAP1 POP JUMP JUMPDEST PUSH0 PUSH1 0x20 DUP3 ADD SWAP1 POP DUP2 DUP2 SUB PUSH0 DUP4 ADD MSTORE PUSH2 0x2F0E DUP2 PUSH2 0x2ED5 JUMP JUMPDEST SWAP1 POP SWAP2 SWAP1 POP JUMP JUMPDEST PUSH0 PUSH2 0x2F1F DUP3 PUSH2 0x2739 JUMP JUMPDEST SWAP2 POP PUSH2 0x2F2A DUP4 PUSH2 0x2739 JUMP JUMPDEST SWAP3 POP DUP3 DUP3 MUL PUSH2 0x2F38 DUP2 PUSH2 0x2739 JUMP JUMPDEST SWAP2 POP DUP1 DUP3 EQ PUSH2 0x2F4A JUMPI PUSH2 0x2F49 PUSH2 0x2A12 JUMP JUMPDEST JUMPDEST POP SWAP3 SWAP2 POP POP JUMP JUMPDEST PUSH32 0x496E76616C696420646174610000000000000000000000000000000000000000 PUSH0 DUP3 ADD MSTORE POP JUMP JUMPDEST PUSH0 PUSH2 0x2F85 PUSH1 0xC DUP4 PUSH2 0x299A JUMP JUMPDEST SWAP2 POP PUSH2 0x2F90 DUP3 PUSH2 0x2F51 JUMP JUMPDEST PUSH1 0x20 DUP3 ADD SWAP1 POP SWAP2 SWAP1 POP JUMP JUMPDEST PUSH0 PUSH1 0x20 DUP3 ADD SWAP1 POP DUP2 DUP2 SUB PUSH0 DUP4 ADD MSTORE PUSH2 0x2FB2 DUP2 PUSH2 0x2F79 JUMP JUMPDEST SWAP1 POP SWAP2 SWAP1 POP JUMP JUMPDEST PUSH0 PUSH2 0x2FC3 DUP3 PUSH2 0x279A JUMP JUMPDEST SWAP2 POP PUSH29 0xFFFFFFFFFFFFFFFFFFFFFFFFFFFFFFFFFFFFFFFFFFFFFFFFFFFFFFFFFF DUP3 SUB PUSH2 0x2FF2 JUMPI PUSH2 0x2FF1 PUSH2 0x2A12 JUMP JUMPDEST JUMPDEST PUSH1 0x1 DUP3 ADD SWAP1 POP SWAP2 SWAP1 POP JUMP JUMPDEST PUSH0 DUP2 SWAP1 POP SWAP2 SWAP1 POP JUMP JUMPDEST PUSH2 0x3017 PUSH2 0x3012 DUP3 PUSH2 0x24E9 JUMP JUMPDEST PUSH2 0x2FFD JUMP JUMPDEST DUP3 MSTORE POP POP JUMP JUMPDEST PUSH0 PUSH2 0x3027 DUP3 PUSH2 0x25B8 JUMP JUMPDEST SWAP1 POP SWAP2 SWAP1 POP JUMP JUMPDEST PUSH0 DUP2 PUSH1 0x60 SHL SWAP1 POP SWAP2 SWAP1 POP JUMP JUMPDEST PUSH0 PUSH2 0x3044 DUP3 PUSH2 0x302E JUMP JUMPDEST SWAP1 POP SWAP2 SWAP1 POP JUMP JUMPDEST PUSH0 PUSH2 0x3055 DUP3 PUSH2 0x303A JUMP JUMPDEST SWAP1 POP SWAP2 SWAP1 POP JUMP JUMPDEST PUSH2 0x306D PUSH2 0x3068 DUP3 PUSH2 0x301D JUMP JUMPDEST PUSH2 0x304B JUMP JUMPDEST DUP3 MSTORE POP POP JUMP JUMPDEST PUSH0 PUSH2 0x307D DUP3 PUSH2 0x303A JUMP JUMPDEST SWAP1 POP SWAP2 SWAP1 POP JUMP JUMPDEST PUSH2 0x3095 PUSH2 0x3090 DUP3 PUSH2 0x25D7 JUMP JUMPDEST PUSH2 0x3073 JUMP JUMPDEST DUP3 MSTORE POP POP JUMP JUMPDEST PUSH0 DUP2 PUSH1 0x18 SHL SWAP1 POP SWAP2 SWAP1 POP JUMP JUMPDEST PUSH0 PUSH2 0x30B1 DUP3 PUSH2 0x309B JUMP JUMPDEST SWAP1 POP SWAP2 SWAP1 POP JUMP JUMPDEST PUSH2 0x30C9 PUSH2 0x30C4 DUP3 PUSH2 0x279A JUMP JUMPDEST PUSH2 0x30A7 JUMP JUMPDEST DUP3 MSTORE POP POP JUMP JUMPDEST PUSH0 PUSH2 0x30DA DUP3 DUP8 PUSH2 0x3006 JUMP JUMPDEST PUSH1 0x20 DUP3 ADD SWAP2 POP PUSH2 0x30EA DUP3 DUP7 PUSH2 0x305C JUMP JUMPDEST PUSH1 0x14 DUP3 ADD SWAP2 POP PUSH2 0x30FA DUP3 DUP6 PUSH2 0x3084 JUMP JUMPDEST PUSH1 0x14 DUP3 ADD SWAP2 POP PUSH2 0x310A DUP3 DUP5 PUSH2 0x30B8 JUMP JUMPDEST PUSH1 0x1D DUP3 ADD SWAP2 POP DUP2 SWAP1 POP SWAP6 SWAP5 POP POP POP POP POP JUMP JUMPDEST PUSH32 0x4D696E696D756D20696E766573746D656E7420616D6F756E7420697320726571 PUSH0 DUP3 ADD MSTORE PUSH32 0x75697265642C6974277320736D616C6C6572207468616E20746865206D696E69 PUSH1 0x20 DUP3 ADD MSTORE PUSH32 0x6D756D206465706F736974000000000000000000000000000000000000000000 PUSH1 0x40 DUP3 ADD MSTORE POP JUMP JUMPDEST PUSH0 PUSH2 0x319C PUSH1 0x4B DUP4 PUSH2 0x299A JUMP JUMPDEST SWAP2 POP PUSH2 0x31A7 DUP3 PUSH2 0x311C JUMP JUMPDEST PUSH1 0x60 DUP3 ADD SWAP1 POP SWAP2 SWAP1 POP JUMP JUMPDEST PUSH0 PUSH1 0x20 DUP3 ADD SWAP1 POP DUP2 DUP2 SUB PUSH0 DUP4 ADD MSTORE PUSH2 0x31C9 DUP2 PUSH2 0x3190 JUMP JUMPDEST SWAP1 POP SWAP2 SWAP1 POP JUMP JUMPDEST PUSH32 0x4E6F7420656E6F7567682066756E6420746F2077697468647261772100000000 PUSH0 DUP3 ADD MSTORE POP JUMP JUMPDEST PUSH0 PUSH2 0x3204 PUSH1 0x1C DUP4 PUSH2 0x299A JUMP JUMPDEST SWAP2 POP PUSH2 0x320F DUP3 PUSH2 0x31D0 JUMP JUMPDEST PUSH1 0x20 DUP3 ADD SWAP1 POP SWAP2 SWAP1 POP JUMP JUMPDEST PUSH0 PUSH1 0x20 DUP3 ADD SWAP1 POP DUP2 DUP2 SUB PUSH0 DUP4 ADD MSTORE PUSH2 0x3231 DUP2 PUSH2 0x31F8 JUMP JUMPDEST SWAP1 POP SWAP2 SWAP1 POP JUMP JUMPDEST PUSH32 0x43616E6E6F74207769746864726177206166746572206F6E65207765656B2100 PUSH0 DUP3 ADD MSTORE POP JUMP JUMPDEST PUSH0 PUSH2 0x326C PUSH1 0x1F DUP4 PUSH2 0x299A JUMP JUMPDEST SWAP2 POP PUSH2 0x3277 DUP3 PUSH2 0x3238 JUMP JUMPDEST PUSH1 0x20 DUP3 ADD SWAP1 POP SWAP2 SWAP1 POP JUMP JUMPDEST PUSH0 PUSH1 0x20 DUP3 ADD SWAP1 POP DUP2 DUP2 SUB PUSH0 DUP4 ADD MSTORE PUSH2 0x3299 DUP2 PUSH2 0x3260 JUMP JUMPDEST SWAP1 POP SWAP2 SWAP1 POP JUMP JUMPDEST PUSH32 0x496E73756666696369656E742066756E6420746F207769746864726177210000 PUSH0 DUP3 ADD MSTORE POP JUMP JUMPDEST PUSH0 PUSH2 0x32D4 PUSH1 0x1E DUP4 PUSH2 0x299A JUMP JUMPDEST SWAP2 POP PUSH2 0x32DF DUP3 PUSH2 0x32A0 JUMP JUMPDEST PUSH1 0x20 DUP3 ADD SWAP1 POP SWAP2 SWAP1 POP JUMP JUMPDEST PUSH0 PUSH1 0x20 DUP3 ADD SWAP1 POP DUP2 DUP2 SUB PUSH0 DUP4 ADD MSTORE PUSH2 0x3301 DUP2 PUSH2 0x32C8 JUMP JUMPDEST SWAP1 POP SWAP2 SWAP1 POP JUMP JUMPDEST PUSH32 0x596F75206D7573742062652074686520646576656C6F70657200000000000000 PUSH0 DUP3 ADD MSTORE POP JUMP JUMPDEST PUSH0 PUSH2 0x333C PUSH1 0x19 DUP4 PUSH2 0x299A JUMP JUMPDEST SWAP2 POP PUSH2 0x3347 DUP3 PUSH2 0x3308 JUMP JUMPDEST PUSH1 0x20 DUP3 ADD SWAP1 POP SWAP2 SWAP1 POP JUMP JUMPDEST PUSH0 PUSH1 0x20 DUP3 ADD SWAP1 POP DUP2 DUP2 SUB PUSH0 DUP4 ADD MSTORE PUSH2 0x3369 DUP2 PUSH2 0x3330 JUMP JUMPDEST SWAP1 POP SWAP2 SWAP1 POP JUMP JUMPDEST PUSH32 0x4E487B7100000000000000000000000000000000000000000000000000000000 PUSH0 MSTORE PUSH1 0x1 PUSH1 0x4 MSTORE PUSH1 0x24 PUSH0 REVERT INVALID LOG2 PUSH5 0x6970667358 0x22 SLT KECCAK256 SHL STATICCALL NUMBER 0xE8 BASEFEE COINBASE 0xBA 0xCE NUMBER SWAP14 SWAP7 PUSH20 0x9B3DB6D5680F9F3CC7EB15260FF1F8B9DCE01437 PUSH5 0x736F6C6343 STOP ADDMOD BYTE STOP CALLER "
				},
				"gasEstimates": {
					"creation": {
						"codeDepositCost": "2653400",
						"executionCost": "71366",
						"totalCost": "2724766"
					},
					"external": {
						"BuyEggs(uint16,uint8,uint232,address)": "infinite",
						"DevAddress()": "2572",
						"DeveloperWithdrawal()": "infinite",
						"DistributeInvestmentIncome()": "infinite",
						"GetInvestmentBalance(address)": "2856",
						"GetLatestLottery()": "infinite",
						"GetWinningRecord(uint256)": "infinite",
						"InvestmentDeposit()": "infinite",
						"InvestmentWithdrawal(uint256)": "infinite",
						"InvestorsProfit()": "2492",
						"OpenEggs()": "infinite",
						"RecentDividendTime()": "2448",
						"TotalInvestmentAmount()": "2514",
						"WithdrawReferralProfit()": "infinite"
					},
					"internal": {
						"GetWinninggrade(uint32)": "331",
						"GetWinningmultiple(uint256)": "291",
						"SafeMathadd(uint256,uint256)": "infinite",
						"SafeMathdiv(uint256,uint256)": "infinite",
						"SafeMathmul(uint256,uint256)": "infinite",
						"SafeMathsub(uint256,uint256)": "infinite"
					}
				},
				"methodIdentifiers": {
					"BuyEggs(uint16,uint8,uint232,address)": "c9ea0299",
					"DevAddress()": "89a4c1a0",
					"DeveloperWithdrawal()": "f4e79b5b",
					"DistributeInvestmentIncome()": "12db1357",
					"GetInvestmentBalance(address)": "cf438305",
					"GetLatestLottery()": "d9498a83",
					"GetWinningRecord(uint256)": "2b5baca1",
					"InvestmentDeposit()": "49821332",
					"InvestmentWithdrawal(uint256)": "dd5f6f4d",
					"InvestorsProfit()": "ca6aae29",
					"OpenEggs()": "7da384fd",
					"RecentDividendTime()": "b1c617ff",
					"TotalInvestmentAmount()": "a659f4dc",
					"WithdrawReferralProfit()": "22629256"
				}
			},
			"storageLayout": {
				"storage": [
					{
						"astId": 56,
						"contract": "contracts/Lottery.sol:LotteryGame",
						"label": "DevAddress",
						"offset": 0,
						"slot": "0",
						"type": "t_address"
					},
					{
						"astId": 58,
						"contract": "contracts/Lottery.sol:LotteryGame",
						"label": "DevProfit",
						"offset": 0,
						"slot": "1",
						"type": "t_uint256"
					},
					{
						"astId": 61,
						"contract": "contracts/Lottery.sol:LotteryGame",
						"label": "investors",
						"offset": 0,
						"slot": "2",
						"type": "t_array(t_address)dyn_storage"
					},
					{
						"astId": 66,
						"contract": "contracts/Lottery.sol:LotteryGame",
						"label": "InvestorsBalance",
						"offset": 0,
						"slot": "3",
						"type": "t_mapping(t_address,t_struct(investorbalance)42_storage)"
					},
					{
						"astId": 68,
						"contract": "contracts/Lottery.sol:LotteryGame",
						"label": "TotalInvestmentAmount",
						"offset": 0,
						"slot": "4",
						"type": "t_uint256"
					},
					{
						"astId": 70,
						"contract": "contracts/Lottery.sol:LotteryGame",
						"label": "InvestorsProfit",
						"offset": 0,
						"slot": "5",
						"type": "t_uint256"
					},
					{
						"astId": 72,
						"contract": "contracts/Lottery.sol:LotteryGame",
						"label": "RecentDividendTime",
						"offset": 0,
						"slot": "6",
						"type": "t_uint256"
					},
					{
						"astId": 74,
						"contract": "contracts/Lottery.sol:LotteryGame",
						"label": "TotalReferralProfit",
						"offset": 0,
						"slot": "7",
						"type": "t_uint256"
					},
					{
						"astId": 76,
						"contract": "contracts/Lottery.sol:LotteryGame",
						"label": "LastBuyEggTime",
						"offset": 0,
						"slot": "8",
						"type": "t_uint256"
					},
					{
						"astId": 81,
						"contract": "contracts/Lottery.sol:LotteryGame",
						"label": "UsersInfo",
						"offset": 0,
						"slot": "9",
						"type": "t_mapping(t_address,t_struct(userinfo)26_storage)"
					},
					{
						"astId": 85,
						"contract": "contracts/Lottery.sol:LotteryGame",
						"label": "referrals",
						"offset": 0,
						"slot": "10",
						"type": "t_mapping(t_address,t_address)"
					},
					{
						"astId": 89,
						"contract": "contracts/Lottery.sol:LotteryGame",
						"label": "WinningRecord",
						"offset": 0,
						"slot": "11",
						"type": "t_array(t_struct(Winninginfo)35_storage)dyn_storage"
					}
				],
				"types": {
					"t_address": {
						"encoding": "inplace",
						"label": "address",
						"numberOfBytes": "20"
					},
					"t_array(t_address)dyn_storage": {
						"base": "t_address",
						"encoding": "dynamic_array",
						"label": "address[]",
						"numberOfBytes": "32"
					},
					"t_array(t_struct(Egginfo)8_storage)dyn_storage": {
						"base": "t_struct(Egginfo)8_storage",
						"encoding": "dynamic_array",
						"label": "struct LotteryGame.Egginfo[]",
						"numberOfBytes": "32"
					},
					"t_array(t_struct(OpenedLotInfo)13_storage)dyn_storage": {
						"base": "t_struct(OpenedLotInfo)13_storage",
						"encoding": "dynamic_array",
						"label": "struct LotteryGame.OpenedLotInfo[]",
						"numberOfBytes": "32"
					},
					"t_array(t_struct(Winninginfo)35_storage)dyn_storage": {
						"base": "t_struct(Winninginfo)35_storage",
						"encoding": "dynamic_array",
						"label": "struct LotteryGame.Winninginfo[]",
						"numberOfBytes": "32"
					},
					"t_bool": {
						"encoding": "inplace",
						"label": "bool",
						"numberOfBytes": "1"
					},
					"t_bytes32": {
						"encoding": "inplace",
						"label": "bytes32",
						"numberOfBytes": "32"
					},
					"t_mapping(t_address,t_address)": {
						"encoding": "mapping",
						"key": "t_address",
						"label": "mapping(address => address)",
						"numberOfBytes": "32",
						"value": "t_address"
					},
					"t_mapping(t_address,t_struct(investorbalance)42_storage)": {
						"encoding": "mapping",
						"key": "t_address",
						"label": "mapping(address => struct LotteryGame.investorbalance)",
						"numberOfBytes": "32",
						"value": "t_struct(investorbalance)42_storage"
					},
					"t_mapping(t_address,t_struct(userinfo)26_storage)": {
						"encoding": "mapping",
						"key": "t_address",
						"label": "mapping(address => struct LotteryGame.userinfo)",
						"numberOfBytes": "32",
						"value": "t_struct(userinfo)26_storage"
					},
					"t_struct(Egginfo)8_storage": {
						"encoding": "inplace",
						"label": "struct LotteryGame.Egginfo",
						"members": [
							{
								"astId": 3,
								"contract": "contracts/Lottery.sol:LotteryGame",
								"label": "uid",
								"offset": 0,
								"slot": "0",
								"type": "t_bytes32"
							},
							{
								"astId": 5,
								"contract": "contracts/Lottery.sol:LotteryGame",
								"label": "mul",
								"offset": 0,
								"slot": "1",
								"type": "t_uint8"
							},
							{
								"astId": 7,
								"contract": "contracts/Lottery.sol:LotteryGame",
								"label": "blocknumber",
								"offset": 1,
								"slot": "1",
								"type": "t_uint248"
							}
						],
						"numberOfBytes": "64"
					},
					"t_struct(OpenedLotInfo)13_storage": {
						"encoding": "inplace",
						"label": "struct LotteryGame.OpenedLotInfo",
						"members": [
							{
								"astId": 10,
								"contract": "contracts/Lottery.sol:LotteryGame",
								"label": "Lotterynum",
								"offset": 0,
								"slot": "0",
								"type": "t_uint32"
							},
							{
								"astId": 12,
								"contract": "contracts/Lottery.sol:LotteryGame",
								"label": "mul",
								"offset": 4,
								"slot": "0",
								"type": "t_uint8"
							}
						],
						"numberOfBytes": "32"
					},
					"t_struct(Winninginfo)35_storage": {
						"encoding": "inplace",
						"label": "struct LotteryGame.Winninginfo",
						"members": [
							{
								"astId": 28,
								"contract": "contracts/Lottery.sol:LotteryGame",
								"label": "LotteryNum",
								"offset": 0,
								"slot": "0",
								"type": "t_uint32"
							},
							{
								"astId": 30,
								"contract": "contracts/Lottery.sol:LotteryGame",
								"label": "mul",
								"offset": 4,
								"slot": "0",
								"type": "t_uint8"
							},
							{
								"astId": 32,
								"contract": "contracts/Lottery.sol:LotteryGame",
								"label": "timestamp",
								"offset": 0,
								"slot": "1",
								"type": "t_uint256"
							},
							{
								"astId": 34,
								"contract": "contracts/Lottery.sol:LotteryGame",
								"label": "winner",
								"offset": 0,
								"slot": "2",
								"type": "t_address"
							}
						],
						"numberOfBytes": "96"
					},
					"t_struct(investorbalance)42_storage": {
						"encoding": "inplace",
						"label": "struct LotteryGame.investorbalance",
						"members": [
							{
								"astId": 37,
								"contract": "contracts/Lottery.sol:LotteryGame",
								"label": "balance",
								"offset": 0,
								"slot": "0",
								"type": "t_uint256"
							},
							{
								"astId": 39,
								"contract": "contracts/Lottery.sol:LotteryGame",
								"label": "LastInvestTime",
								"offset": 0,
								"slot": "1",
								"type": "t_uint256"
							},
							{
								"astId": 41,
								"contract": "contracts/Lottery.sol:LotteryGame",
								"label": "HasInvested",
								"offset": 0,
								"slot": "2",
								"type": "t_bool"
							}
						],
						"numberOfBytes": "96"
					},
					"t_struct(userinfo)26_storage": {
						"encoding": "inplace",
						"label": "struct LotteryGame.userinfo",
						"members": [
							{
								"astId": 17,
								"contract": "contracts/Lottery.sol:LotteryGame",
								"label": "eggsinfo",
								"offset": 0,
								"slot": "0",
								"type": "t_array(t_struct(Egginfo)8_storage)dyn_storage"
							},
							{
								"astId": 21,
								"contract": "contracts/Lottery.sol:LotteryGame",
								"label": "openedeggs",
								"offset": 0,
								"slot": "1",
								"type": "t_array(t_struct(OpenedLotInfo)13_storage)dyn_storage"
							},
							{
								"astId": 23,
								"contract": "contracts/Lottery.sol:LotteryGame",
								"label": "ReferralProfit",
								"offset": 0,
								"slot": "2",
								"type": "t_uint256"
							},
							{
								"astId": 25,
								"contract": "contracts/Lottery.sol:LotteryGame",
								"label": "actived",
								"offset": 0,
								"slot": "3",
								"type": "t_bool"
							}
						],
						"numberOfBytes": "128"
					},
					"t_uint248": {
						"encoding": "inplace",
						"label": "uint248",
						"numberOfBytes": "31"
					},
					"t_uint256": {
						"encoding": "inplace",
						"label": "uint256",
						"numberOfBytes": "32"
					},
					"t_uint32": {
						"encoding": "inplace",
						"label": "uint32",
						"numberOfBytes": "4"
					},
					"t_uint8": {
						"encoding": "inplace",
						"label": "uint8",
						"numberOfBytes": "1"
					}
				}
			},
			"userdoc": {
				"kind": "user",
				"methods": {},
				"version": 1
			}
		}
	}
}