{
	"contracts/Lottery.sol": {
		"LotteryGame": {
			"abi": [
				{
					"inputs": [],
					"stateMutability": "nonpayable",
					"type": "constructor"
				},
				{
					"inputs": [
						{
							"internalType": "uint16",
							"name": "LotCount",
							"type": "uint16"
						},
						{
							"internalType": "uint8",
							"name": "mul",
							"type": "uint8"
						},
						{
							"internalType": "uint232",
							"name": "Lucknum",
							"type": "uint232"
						},
						{
							"internalType": "address",
							"name": "ref",
							"type": "address"
						}
					],
					"name": "BuyEggs",
					"outputs": [],
					"stateMutability": "payable",
					"type": "function"
				},
				{
					"inputs": [],
					"name": "DevAddress",
					"outputs": [
						{
							"internalType": "address",
							"name": "",
							"type": "address"
						}
					],
					"stateMutability": "view",
					"type": "function"
				},
				{
					"inputs": [],
					"name": "DistributeInvestmentIncome",
					"outputs": [],
					"stateMutability": "nonpayable",
					"type": "function"
				},
				{
					"inputs": [],
					"name": "InvestmentDeposit",
					"outputs": [],
					"stateMutability": "payable",
					"type": "function"
				},
				{
					"inputs": [
						{
							"internalType": "uint256",
							"name": "WithdrawalAmount",
							"type": "uint256"
						}
					],
					"name": "InvestmentWithdrawal",
					"outputs": [],
					"stateMutability": "nonpayable",
					"type": "function"
				},
				{
					"inputs": [],
					"name": "InvestorsProfit",
					"outputs": [
						{
							"internalType": "uint256",
							"name": "",
							"type": "uint256"
						}
					],
					"stateMutability": "view",
					"type": "function"
				},
				{
					"inputs": [],
					"name": "OpenEggs",
					"outputs": [],
					"stateMutability": "nonpayable",
					"type": "function"
				},
				{
					"inputs": [],
					"name": "RecentDividendTime",
					"outputs": [
						{
							"internalType": "uint256",
							"name": "",
							"type": "uint256"
						}
					],
					"stateMutability": "view",
					"type": "function"
				},
				{
					"inputs": [],
					"name": "TotalInvestmentAmount",
					"outputs": [
						{
							"internalType": "uint256",
							"name": "",
							"type": "uint256"
						}
					],
					"stateMutability": "view",
					"type": "function"
				}
			],
			"devdoc": {
				"kind": "dev",
				"methods": {},
				"version": 1
			},
			"evm": {
				"assembly": "    /* \"contracts/Lottery.sol\":70:15299  contract LotteryGame {... */\n  mstore(0x40, 0x80)\n    /* \"contracts/Lottery.sol\":2929:3071  constructor() {... */\n  callvalue\n  dup1\n  iszero\n  tag_1\n  jumpi\n  0x00\n  dup1\n  revert\ntag_1:\n  pop\n    /* \"contracts/Lottery.sol\":2966:2976  msg.sender */\n  caller\n    /* \"contracts/Lottery.sol\":2953:2963  DevAddress */\n  0x00\n  dup1\n    /* \"contracts/Lottery.sol\":2953:2976  DevAddress = msg.sender */\n  0x0100\n  exp\n  dup2\n  sload\n  dup2\n  0xffffffffffffffffffffffffffffffffffffffff\n  mul\n  not\n  and\n  swap1\n  dup4\n  0xffffffffffffffffffffffffffffffffffffffff\n  and\n  mul\n  or\n  swap1\n  sstore\n  pop\n    /* \"contracts/Lottery.sol\":3007:3022  block.timestamp */\n  timestamp\n    /* \"contracts/Lottery.sol\":2986:3004  RecentDividendTime */\n  0x06\n    /* \"contracts/Lottery.sol\":2986:3022  RecentDividendTime = block.timestamp */\n  dup2\n  swap1\n  sstore\n  pop\n    /* \"contracts/Lottery.sol\":3049:3064  block.timestamp */\n  timestamp\n    /* \"contracts/Lottery.sol\":3032:3046  LastBuyEggTime */\n  0x08\n    /* \"contracts/Lottery.sol\":3032:3064  LastBuyEggTime = block.timestamp */\n  dup2\n  swap1\n  sstore\n  pop\n    /* \"contracts/Lottery.sol\":70:15299  contract LotteryGame {... */\n  dataSize(sub_0)\n  dup1\n  dataOffset(sub_0)\n  0x00\n  codecopy\n  0x00\n  return\nstop\n\nsub_0: assembly {\n        /* \"contracts/Lottery.sol\":70:15299  contract LotteryGame {... */\n      mstore(0x40, 0x80)\n      jumpi(tag_1, lt(calldatasize, 0x04))\n      shr(0xe0, calldataload(0x00))\n      dup1\n      0xa659f4dc\n      gt\n      tag_11\n      jumpi\n      dup1\n      0xa659f4dc\n      eq\n      tag_6\n      jumpi\n      dup1\n      0xb1c617ff\n      eq\n      tag_7\n      jumpi\n      dup1\n      0xc9ea0299\n      eq\n      tag_8\n      jumpi\n      dup1\n      0xca6aae29\n      eq\n      tag_9\n      jumpi\n      dup1\n      0xdd5f6f4d\n      eq\n      tag_10\n      jumpi\n      jump(tag_1)\n    tag_11:\n      dup1\n      0x12db1357\n      eq\n      tag_2\n      jumpi\n      dup1\n      0x49821332\n      eq\n      tag_3\n      jumpi\n      dup1\n      0x7da384fd\n      eq\n      tag_4\n      jumpi\n      dup1\n      0x89a4c1a0\n      eq\n      tag_5\n      jumpi\n    tag_1:\n      0x00\n      dup1\n      revert\n        /* \"contracts/Lottery.sol\":13714:15297  function DistributeInvestmentIncome() external {... */\n    tag_2:\n      callvalue\n      dup1\n      iszero\n      tag_12\n      jumpi\n      0x00\n      dup1\n      revert\n    tag_12:\n      pop\n      tag_13\n      tag_14\n      jump\t// in\n    tag_13:\n      stop\n        /* \"contracts/Lottery.sol\":11279:12272  function InvestmentDeposit() external payable {... */\n    tag_3:\n      tag_15\n      tag_16\n      jump\t// in\n    tag_15:\n      stop\n        /* \"contracts/Lottery.sol\":7857:11250  function OpenEggs() external {... */\n    tag_4:\n      callvalue\n      dup1\n      iszero\n      tag_17\n      jumpi\n      0x00\n      dup1\n      revert\n    tag_17:\n      pop\n      tag_18\n      tag_19\n      jump\t// in\n    tag_18:\n      stop\n        /* \"contracts/Lottery.sol\":1699:1724  address public DevAddress */\n    tag_5:\n      callvalue\n      dup1\n      iszero\n      tag_20\n      jumpi\n      0x00\n      dup1\n      revert\n    tag_20:\n      pop\n      tag_21\n      tag_22\n      jump\t// in\n    tag_21:\n      mload(0x40)\n      tag_23\n      swap2\n      swap1\n      tag_24\n      jump\t// in\n    tag_23:\n      mload(0x40)\n      dup1\n      swap2\n      sub\n      swap1\n      return\n        /* \"contracts/Lottery.sol\":2079:2115  uint256 public TotalInvestmentAmount */\n    tag_6:\n      callvalue\n      dup1\n      iszero\n      tag_25\n      jumpi\n      0x00\n      dup1\n      revert\n    tag_25:\n      pop\n      tag_26\n      tag_27\n      jump\t// in\n    tag_26:\n      mload(0x40)\n      tag_28\n      swap2\n      swap1\n      tag_29\n      jump\t// in\n    tag_28:\n      mload(0x40)\n      dup1\n      swap2\n      sub\n      swap1\n      return\n        /* \"contracts/Lottery.sol\":2239:2272  uint256 public RecentDividendTime */\n    tag_7:\n      callvalue\n      dup1\n      iszero\n      tag_30\n      jumpi\n      0x00\n      dup1\n      revert\n    tag_30:\n      pop\n      tag_31\n      tag_32\n      jump\t// in\n    tag_31:\n      mload(0x40)\n      tag_33\n      swap2\n      swap1\n      tag_29\n      jump\t// in\n    tag_33:\n      mload(0x40)\n      dup1\n      swap2\n      sub\n      swap1\n      return\n        /* \"contracts/Lottery.sol\":4155:6544  function BuyEggs(... */\n    tag_8:\n      tag_34\n      0x04\n      dup1\n      calldatasize\n      sub\n      dup2\n      add\n      swap1\n      tag_35\n      swap2\n      swap1\n      tag_36\n      jump\t// in\n    tag_35:\n      tag_37\n      jump\t// in\n    tag_34:\n      stop\n        /* \"contracts/Lottery.sol\":2170:2200  uint256 public InvestorsProfit */\n    tag_9:\n      callvalue\n      dup1\n      iszero\n      tag_38\n      jumpi\n      0x00\n      dup1\n      revert\n    tag_38:\n      pop\n      tag_39\n      tag_40\n      jump\t// in\n    tag_39:\n      mload(0x40)\n      tag_41\n      swap2\n      swap1\n      tag_29\n      jump\t// in\n    tag_41:\n      mload(0x40)\n      dup1\n      swap2\n      sub\n      swap1\n      return\n        /* \"contracts/Lottery.sol\":12301:13685  function InvestmentWithdrawal(uint256 WithdrawalAmount) external {... */\n    tag_10:\n      callvalue\n      dup1\n      iszero\n      tag_42\n      jumpi\n      0x00\n      dup1\n      revert\n    tag_42:\n      pop\n      tag_43\n      0x04\n      dup1\n      calldatasize\n      sub\n      dup2\n      add\n      swap1\n      tag_44\n      swap2\n      swap1\n      tag_45\n      jump\t// in\n    tag_44:\n      tag_46\n      jump\t// in\n    tag_43:\n      stop\n        /* \"contracts/Lottery.sol\":13714:15297  function DistributeInvestmentIncome() external {... */\n    tag_14:\n        /* \"contracts/Lottery.sol\":1547:1554  1 ether */\n      0x0de0b6b3a7640000\n        /* \"contracts/Lottery.sol\":13883:13899  InvestorsBalance */\n      0x03\n        /* \"contracts/Lottery.sol\":13883:13911  InvestorsBalance[msg.sender] */\n      0x00\n        /* \"contracts/Lottery.sol\":13900:13910  msg.sender */\n      caller\n        /* \"contracts/Lottery.sol\":13883:13911  InvestorsBalance[msg.sender] */\n      0xffffffffffffffffffffffffffffffffffffffff\n      and\n      0xffffffffffffffffffffffffffffffffffffffff\n      and\n      dup2\n      mstore\n      0x20\n      add\n      swap1\n      dup2\n      mstore\n      0x20\n      add\n      0x00\n      keccak256\n        /* \"contracts/Lottery.sol\":13883:13919  InvestorsBalance[msg.sender].balance */\n      0x00\n      add\n      sload\n        /* \"contracts/Lottery.sol\":13883:13948  InvestorsBalance[msg.sender].balance >= Mininum_Investment_amount */\n      lt\n      iszero\n        /* \"contracts/Lottery.sol\":13883:13992  InvestorsBalance[msg.sender].balance >= Mininum_Investment_amount ||... */\n      dup1\n      tag_48\n      jumpi\n      pop\n        /* \"contracts/Lottery.sol\":13982:13992  DevAddress */\n      0x00\n      dup1\n      sload\n      swap1\n      0x0100\n      exp\n      swap1\n      div\n      0xffffffffffffffffffffffffffffffffffffffff\n      and\n        /* \"contracts/Lottery.sol\":13968:13992  msg.sender == DevAddress */\n      0xffffffffffffffffffffffffffffffffffffffff\n      and\n        /* \"contracts/Lottery.sol\":13968:13978  msg.sender */\n      caller\n        /* \"contracts/Lottery.sol\":13968:13992  msg.sender == DevAddress */\n      0xffffffffffffffffffffffffffffffffffffffff\n      and\n      eq\n        /* \"contracts/Lottery.sol\":13883:13992  InvestorsBalance[msg.sender].balance >= Mininum_Investment_amount ||... */\n    tag_48:\n        /* \"contracts/Lottery.sol\":13862:14040  require(... */\n      tag_49\n      jumpi\n      mload(0x40)\n      0x08c379a000000000000000000000000000000000000000000000000000000000\n      dup2\n      mstore\n      0x04\n      add\n      tag_50\n      swap1\n      tag_51\n      jump\t// in\n    tag_50:\n      mload(0x40)\n      dup1\n      swap2\n      sub\n      swap1\n      revert\n    tag_49:\n        /* \"contracts/Lottery.sol\":14051:14077  uint256 Tmpinvestorsprofit */\n      0x00\n        /* \"contracts/Lottery.sol\":14080:14095  InvestorsProfit */\n      sload(0x05)\n        /* \"contracts/Lottery.sol\":14051:14095  uint256 Tmpinvestorsprofit = InvestorsProfit */\n      swap1\n      pop\n        /* \"contracts/Lottery.sol\":14105:14127  uint256 developeraward */\n      0x00\n        /* \"contracts/Lottery.sol\":14210:14227  uint256 prizepool */\n      dup1\n        /* \"contracts/Lottery.sol\":14230:14351  SafeMathsub(... */\n      tag_52\n        /* \"contracts/Lottery.sol\":14255:14276  address(this).balance */\n      selfbalance\n        /* \"contracts/Lottery.sol\":14331:14340  DevProfit */\n      sload(0x01)\n        /* \"contracts/Lottery.sol\":14309:14328  TotalReferralProfit */\n      sload(0x07)\n        /* \"contracts/Lottery.sol\":14291:14306  InvestorsProfit */\n      sload(0x05)\n        /* \"contracts/Lottery.sol\":14291:14328  InvestorsProfit + TotalReferralProfit */\n      tag_53\n      swap2\n      swap1\n      tag_54\n      jump\t// in\n    tag_53:\n        /* \"contracts/Lottery.sol\":14291:14340  InvestorsProfit + TotalReferralProfit + DevProfit */\n      tag_55\n      swap2\n      swap1\n      tag_54\n      jump\t// in\n    tag_55:\n        /* \"contracts/Lottery.sol\":14230:14241  SafeMathsub */\n      tag_56\n        /* \"contracts/Lottery.sol\":14230:14351  SafeMathsub(... */\n      jump\t// in\n    tag_52:\n        /* \"contracts/Lottery.sol\":14210:14351  uint256 prizepool = SafeMathsub(... */\n      swap1\n      pop\n        /* \"contracts/Lottery.sol\":1438:1449  10000 ether */\n      0x021e19e0c9bab2400000\n        /* \"contracts/Lottery.sol\":14366:14375  prizepool */\n      dup2\n        /* \"contracts/Lottery.sol\":14366:14402  prizepool >= Maxinum_Investment_pool */\n      lt\n        /* \"contracts/Lottery.sol\":14362:14513  if (prizepool >= Maxinum_Investment_pool) {... */\n      tag_57\n      jumpi\n        /* \"contracts/Lottery.sol\":14452:14455  200 */\n      0xc8\n        /* \"contracts/Lottery.sol\":14440:14449  prizepool */\n      dup2\n        /* \"contracts/Lottery.sol\":14440:14455  prizepool / 200 */\n      tag_58\n      swap2\n      swap1\n      tag_59\n      jump\t// in\n    tag_58:\n        /* \"contracts/Lottery.sol\":14418:14455  Tmpinvestorsprofit += prizepool / 200 */\n      dup4\n      tag_60\n      swap2\n      swap1\n      tag_54\n      jump\t// in\n    tag_60:\n      swap3\n      pop\n        /* \"contracts/Lottery.sol\":14499:14502  200 */\n      0xc8\n        /* \"contracts/Lottery.sol\":14487:14496  prizepool */\n      dup2\n        /* \"contracts/Lottery.sol\":14487:14502  prizepool / 200 */\n      tag_61\n      swap2\n      swap1\n      tag_59\n      jump\t// in\n    tag_61:\n        /* \"contracts/Lottery.sol\":14469:14502  developeraward += prizepool / 200 */\n      dup3\n      tag_62\n      swap2\n      swap1\n      tag_54\n      jump\t// in\n    tag_62:\n      swap2\n      pop\n        /* \"contracts/Lottery.sol\":14362:14513  if (prizepool >= Maxinum_Investment_pool) {... */\n    tag_57:\n        /* \"contracts/Lottery.sol\":14540:14541  0 */\n      0x00\n        /* \"contracts/Lottery.sol\":14522:14537  InvestorsProfit */\n      0x05\n        /* \"contracts/Lottery.sol\":14522:14541  InvestorsProfit = 0 */\n      dup2\n      swap1\n      sstore\n      pop\n        /* \"contracts/Lottery.sol\":14557:14566  uint256 i */\n      0x00\n        /* \"contracts/Lottery.sol\":14552:15188  for (uint256 i = 0; i < investors.length; i++) {... */\n    tag_63:\n        /* \"contracts/Lottery.sol\":14576:14585  investors */\n      0x02\n        /* \"contracts/Lottery.sol\":14576:14592  investors.length */\n      dup1\n      sload\n      swap1\n      pop\n        /* \"contracts/Lottery.sol\":14572:14573  i */\n      dup2\n        /* \"contracts/Lottery.sol\":14572:14592  i < investors.length */\n      lt\n        /* \"contracts/Lottery.sol\":14552:15188  for (uint256 i = 0; i < investors.length; i++) {... */\n      iszero\n      tag_64\n      jumpi\n        /* \"contracts/Lottery.sol\":1547:1554  1 ether */\n      0x0de0b6b3a7640000\n        /* \"contracts/Lottery.sol\":14634:14650  InvestorsBalance */\n      0x03\n        /* \"contracts/Lottery.sol\":14634:14664  InvestorsBalance[investors[i]] */\n      0x00\n        /* \"contracts/Lottery.sol\":14651:14660  investors */\n      0x02\n        /* \"contracts/Lottery.sol\":14661:14662  i */\n      dup5\n        /* \"contracts/Lottery.sol\":14651:14663  investors[i] */\n      dup2\n      sload\n      dup2\n      lt\n      tag_66\n      jumpi\n      tag_67\n      tag_68\n      jump\t// in\n    tag_67:\n    tag_66:\n      swap1\n      0x00\n      mstore\n      keccak256(0x00, 0x20)\n      add\n      0x00\n      swap1\n      sload\n      swap1\n      0x0100\n      exp\n      swap1\n      div\n      0xffffffffffffffffffffffffffffffffffffffff\n      and\n        /* \"contracts/Lottery.sol\":14634:14664  InvestorsBalance[investors[i]] */\n      0xffffffffffffffffffffffffffffffffffffffff\n      and\n      0xffffffffffffffffffffffffffffffffffffffff\n      and\n      dup2\n      mstore\n      0x20\n      add\n      swap1\n      dup2\n      mstore\n      0x20\n      add\n      0x00\n      keccak256\n        /* \"contracts/Lottery.sol\":14634:14672  InvestorsBalance[investors[i]].balance */\n      0x00\n      add\n      sload\n        /* \"contracts/Lottery.sol\":14634:14717  InvestorsBalance[investors[i]].balance >=... */\n      lt\n        /* \"contracts/Lottery.sol\":14613:15178  if (... */\n      tag_70\n      jumpi\n        /* \"contracts/Lottery.sol\":14830:14856  uint256 thisinvestorprofit */\n      0x00\n        /* \"contracts/Lottery.sol\":14859:15094  SafeMathdiv(... */\n      tag_71\n        /* \"contracts/Lottery.sol\":14892:15033  SafeMathmul(... */\n      tag_72\n        /* \"contracts/Lottery.sol\":14929:14945  InvestorsBalance */\n      0x03\n        /* \"contracts/Lottery.sol\":14929:14959  InvestorsBalance[investors[i]] */\n      0x00\n        /* \"contracts/Lottery.sol\":14946:14955  investors */\n      0x02\n        /* \"contracts/Lottery.sol\":14956:14957  i */\n      dup7\n        /* \"contracts/Lottery.sol\":14946:14958  investors[i] */\n      dup2\n      sload\n      dup2\n      lt\n      tag_73\n      jumpi\n      tag_74\n      tag_68\n      jump\t// in\n    tag_74:\n    tag_73:\n      swap1\n      0x00\n      mstore\n      keccak256(0x00, 0x20)\n      add\n      0x00\n      swap1\n      sload\n      swap1\n      0x0100\n      exp\n      swap1\n      div\n      0xffffffffffffffffffffffffffffffffffffffff\n      and\n        /* \"contracts/Lottery.sol\":14929:14959  InvestorsBalance[investors[i]] */\n      0xffffffffffffffffffffffffffffffffffffffff\n      and\n      0xffffffffffffffffffffffffffffffffffffffff\n      and\n      dup2\n      mstore\n      0x20\n      add\n      swap1\n      dup2\n      mstore\n      0x20\n      add\n      0x00\n      keccak256\n        /* \"contracts/Lottery.sol\":14929:14967  InvestorsBalance[investors[i]].balance */\n      0x00\n      add\n      sload\n        /* \"contracts/Lottery.sol\":14993:15011  Tmpinvestorsprofit */\n      dup8\n        /* \"contracts/Lottery.sol\":14892:14903  SafeMathmul */\n      tag_76\n        /* \"contracts/Lottery.sol\":14892:15033  SafeMathmul(... */\n      jump\t// in\n    tag_72:\n        /* \"contracts/Lottery.sol\":15055:15076  TotalInvestmentAmount */\n      sload(0x04)\n        /* \"contracts/Lottery.sol\":14859:14870  SafeMathdiv */\n      tag_77\n        /* \"contracts/Lottery.sol\":14859:15094  SafeMathdiv(... */\n      jump\t// in\n    tag_71:\n        /* \"contracts/Lottery.sol\":14830:15094  uint256 thisinvestorprofit = SafeMathdiv(... */\n      swap1\n      pop\n        /* \"contracts/Lottery.sol\":15121:15130  investors */\n      0x02\n        /* \"contracts/Lottery.sol\":15131:15132  i */\n      dup3\n        /* \"contracts/Lottery.sol\":15121:15133  investors[i] */\n      dup2\n      sload\n      dup2\n      lt\n      tag_78\n      jumpi\n      tag_79\n      tag_68\n      jump\t// in\n    tag_79:\n    tag_78:\n      swap1\n      0x00\n      mstore\n      keccak256(0x00, 0x20)\n      add\n      0x00\n      swap1\n      sload\n      swap1\n      0x0100\n      exp\n      swap1\n      div\n      0xffffffffffffffffffffffffffffffffffffffff\n      and\n        /* \"contracts/Lottery.sol\":15113:15143  payable(investors[i]).transfer */\n      0xffffffffffffffffffffffffffffffffffffffff\n      and\n        /* \"contracts/Lottery.sol\":15113:15163  payable(investors[i]).transfer(thisinvestorprofit) */\n      0x08fc\n        /* \"contracts/Lottery.sol\":15144:15162  thisinvestorprofit */\n      dup3\n        /* \"contracts/Lottery.sol\":15113:15163  payable(investors[i]).transfer(thisinvestorprofit) */\n      swap1\n      dup2\n      iszero\n      mul\n      swap1\n      mload(0x40)\n      0x00\n      mload(0x40)\n      dup1\n      dup4\n      sub\n      dup2\n      dup6\n      dup9\n      dup9\n      call\n      swap4\n      pop\n      pop\n      pop\n      pop\n      iszero\n      dup1\n      iszero\n      tag_82\n      jumpi\n      returndatasize\n      0x00\n      dup1\n      returndatacopy\n      revert(0x00, returndatasize)\n    tag_82:\n      pop\n        /* \"contracts/Lottery.sol\":14732:15178  {... */\n      pop\n        /* \"contracts/Lottery.sol\":14613:15178  if (... */\n    tag_70:\n        /* \"contracts/Lottery.sol\":14594:14597  i++ */\n      dup1\n      dup1\n      0x01\n      add\n      swap2\n      pop\n      pop\n        /* \"contracts/Lottery.sol\":14552:15188  for (uint256 i = 0; i < investors.length; i++) {... */\n      jump(tag_63)\n    tag_64:\n      pop\n        /* \"contracts/Lottery.sol\":15219:15220  0 */\n      0x00\n        /* \"contracts/Lottery.sol\":15202:15216  developeraward */\n      dup3\n        /* \"contracts/Lottery.sol\":15202:15220  developeraward > 0 */\n      gt\n        /* \"contracts/Lottery.sol\":15198:15291  if (developeraward > 0) {... */\n      iszero\n      tag_83\n      jumpi\n        /* \"contracts/Lottery.sol\":15244:15254  DevAddress */\n      0x00\n      dup1\n      sload\n      swap1\n      0x0100\n      exp\n      swap1\n      div\n      0xffffffffffffffffffffffffffffffffffffffff\n      and\n        /* \"contracts/Lottery.sol\":15236:15264  payable(DevAddress).transfer */\n      0xffffffffffffffffffffffffffffffffffffffff\n      and\n        /* \"contracts/Lottery.sol\":15236:15280  payable(DevAddress).transfer(developeraward) */\n      0x08fc\n        /* \"contracts/Lottery.sol\":15265:15279  developeraward */\n      dup4\n        /* \"contracts/Lottery.sol\":15236:15280  payable(DevAddress).transfer(developeraward) */\n      swap1\n      dup2\n      iszero\n      mul\n      swap1\n      mload(0x40)\n      0x00\n      mload(0x40)\n      dup1\n      dup4\n      sub\n      dup2\n      dup6\n      dup9\n      dup9\n      call\n      swap4\n      pop\n      pop\n      pop\n      pop\n      iszero\n      dup1\n      iszero\n      tag_85\n      jumpi\n      returndatasize\n      0x00\n      dup1\n      returndatacopy\n      revert(0x00, returndatasize)\n    tag_85:\n      pop\n        /* \"contracts/Lottery.sol\":15198:15291  if (developeraward > 0) {... */\n    tag_83:\n        /* \"contracts/Lottery.sol\":13761:15297  {... */\n      pop\n      pop\n      pop\n        /* \"contracts/Lottery.sol\":13714:15297  function DistributeInvestmentIncome() external {... */\n      jump\t// out\n        /* \"contracts/Lottery.sol\":11279:12272  function InvestmentDeposit() external payable {... */\n    tag_16:\n        /* \"contracts/Lottery.sol\":1547:1554  1 ether */\n      0x0de0b6b3a7640000\n        /* \"contracts/Lottery.sol\":11404:11413  msg.value */\n      callvalue\n        /* \"contracts/Lottery.sol\":11404:11442  msg.value >= Mininum_Investment_amount */\n      lt\n      iszero\n        /* \"contracts/Lottery.sol\":11404:11500  msg.value >= Mininum_Investment_amount &&... */\n      dup1\n      iszero\n      tag_87\n      jumpi\n      pop\n        /* \"contracts/Lottery.sol\":1648:1658  1000 ether */\n      0x3635c9adc5dea00000\n        /* \"contracts/Lottery.sol\":11462:11471  msg.value */\n      callvalue\n        /* \"contracts/Lottery.sol\":11462:11500  msg.value <= Maxinum_Investment_amount */\n      gt\n      iszero\n        /* \"contracts/Lottery.sol\":11404:11500  msg.value >= Mininum_Investment_amount &&... */\n    tag_87:\n        /* \"contracts/Lottery.sol\":11383:11563  require(... */\n      tag_88\n      jumpi\n      mload(0x40)\n      0x08c379a000000000000000000000000000000000000000000000000000000000\n      dup2\n      mstore\n      0x04\n      add\n      tag_89\n      swap1\n      tag_90\n      jump\t// in\n    tag_89:\n      mload(0x40)\n      dup1\n      swap2\n      sub\n      swap1\n      revert\n    tag_88:\n        /* \"contracts/Lottery.sol\":1438:1449  10000 ether */\n      0x021e19e0c9bab2400000\n        /* \"contracts/Lottery.sol\":11625:11758  SafeMathsub(... */\n      tag_91\n        /* \"contracts/Lottery.sol\":11654:11675  address(this).balance */\n      selfbalance\n        /* \"contracts/Lottery.sol\":11734:11743  DevProfit */\n      sload(0x01)\n        /* \"contracts/Lottery.sol\":11712:11731  TotalReferralProfit */\n      sload(0x07)\n        /* \"contracts/Lottery.sol\":11694:11709  InvestorsProfit */\n      sload(0x05)\n        /* \"contracts/Lottery.sol\":11694:11731  InvestorsProfit + TotalReferralProfit */\n      tag_92\n      swap2\n      swap1\n      tag_54\n      jump\t// in\n    tag_92:\n        /* \"contracts/Lottery.sol\":11694:11743  InvestorsProfit + TotalReferralProfit + DevProfit */\n      tag_93\n      swap2\n      swap1\n      tag_54\n      jump\t// in\n    tag_93:\n        /* \"contracts/Lottery.sol\":11625:11636  SafeMathsub */\n      tag_56\n        /* \"contracts/Lottery.sol\":11625:11758  SafeMathsub(... */\n      jump\t// in\n    tag_91:\n        /* \"contracts/Lottery.sol\":11625:11785  SafeMathsub(... */\n      gt\n      iszero\n        /* \"contracts/Lottery.sol\":11604:11795  require(... */\n      tag_94\n      jumpi\n      0x00\n      dup1\n      revert\n    tag_94:\n        /* \"contracts/Lottery.sol\":11864:11873  msg.value */\n      callvalue\n        /* \"contracts/Lottery.sol\":11839:11860  TotalInvestmentAmount */\n      0x04\n      0x00\n        /* \"contracts/Lottery.sol\":11839:11873  TotalInvestmentAmount += msg.value */\n      dup3\n      dup3\n      sload\n      tag_95\n      swap2\n      swap1\n      tag_54\n      jump\t// in\n    tag_95:\n      swap3\n      pop\n      pop\n      dup2\n      swap1\n      sstore\n      pop\n        /* \"contracts/Lottery.sol\":11965:11974  msg.value */\n      callvalue\n        /* \"contracts/Lottery.sol\":11925:11941  InvestorsBalance */\n      0x03\n        /* \"contracts/Lottery.sol\":11925:11953  InvestorsBalance[msg.sender] */\n      0x00\n        /* \"contracts/Lottery.sol\":11942:11952  msg.sender */\n      caller\n        /* \"contracts/Lottery.sol\":11925:11953  InvestorsBalance[msg.sender] */\n      0xffffffffffffffffffffffffffffffffffffffff\n      and\n      0xffffffffffffffffffffffffffffffffffffffff\n      and\n      dup2\n      mstore\n      0x20\n      add\n      swap1\n      dup2\n      mstore\n      0x20\n      add\n      0x00\n      keccak256\n        /* \"contracts/Lottery.sol\":11925:11961  InvestorsBalance[msg.sender].balance */\n      0x00\n      add\n      0x00\n        /* \"contracts/Lottery.sol\":11925:11974  InvestorsBalance[msg.sender].balance += msg.value */\n      dup3\n      dup3\n      sload\n      tag_96\n      swap2\n      swap1\n      tag_54\n      jump\t// in\n    tag_96:\n      swap3\n      pop\n      pop\n      dup2\n      swap1\n      sstore\n      pop\n        /* \"contracts/Lottery.sol\":12030:12045  block.timestamp */\n      timestamp\n        /* \"contracts/Lottery.sol\":11984:12000  InvestorsBalance */\n      0x03\n        /* \"contracts/Lottery.sol\":11984:12012  InvestorsBalance[msg.sender] */\n      0x00\n        /* \"contracts/Lottery.sol\":12001:12011  msg.sender */\n      caller\n        /* \"contracts/Lottery.sol\":11984:12012  InvestorsBalance[msg.sender] */\n      0xffffffffffffffffffffffffffffffffffffffff\n      and\n      0xffffffffffffffffffffffffffffffffffffffff\n      and\n      dup2\n      mstore\n      0x20\n      add\n      swap1\n      dup2\n      mstore\n      0x20\n      add\n      0x00\n      keccak256\n        /* \"contracts/Lottery.sol\":11984:12027  InvestorsBalance[msg.sender].LastInvestTime */\n      0x01\n      add\n        /* \"contracts/Lottery.sol\":11984:12045  InvestorsBalance[msg.sender].LastInvestTime = block.timestamp */\n      dup2\n      swap1\n      sstore\n      pop\n        /* \"contracts/Lottery.sol\":12112:12128  InvestorsBalance */\n      0x03\n        /* \"contracts/Lottery.sol\":12112:12140  InvestorsBalance[msg.sender] */\n      0x00\n        /* \"contracts/Lottery.sol\":12129:12139  msg.sender */\n      caller\n        /* \"contracts/Lottery.sol\":12112:12140  InvestorsBalance[msg.sender] */\n      0xffffffffffffffffffffffffffffffffffffffff\n      and\n      0xffffffffffffffffffffffffffffffffffffffff\n      and\n      dup2\n      mstore\n      0x20\n      add\n      swap1\n      dup2\n      mstore\n      0x20\n      add\n      0x00\n      keccak256\n        /* \"contracts/Lottery.sol\":12112:12152  InvestorsBalance[msg.sender].HasInvested */\n      0x02\n      add\n      0x00\n      swap1\n      sload\n      swap1\n      0x0100\n      exp\n      swap1\n      div\n      0xff\n      and\n        /* \"contracts/Lottery.sol\":12107:12266  if (!InvestorsBalance[msg.sender].HasInvested) {... */\n      tag_97\n      jumpi\n        /* \"contracts/Lottery.sol\":12211:12215  true */\n      0x01\n        /* \"contracts/Lottery.sol\":12168:12184  InvestorsBalance */\n      0x03\n        /* \"contracts/Lottery.sol\":12168:12196  InvestorsBalance[msg.sender] */\n      0x00\n        /* \"contracts/Lottery.sol\":12185:12195  msg.sender */\n      caller\n        /* \"contracts/Lottery.sol\":12168:12196  InvestorsBalance[msg.sender] */\n      0xffffffffffffffffffffffffffffffffffffffff\n      and\n      0xffffffffffffffffffffffffffffffffffffffff\n      and\n      dup2\n      mstore\n      0x20\n      add\n      swap1\n      dup2\n      mstore\n      0x20\n      add\n      0x00\n      keccak256\n        /* \"contracts/Lottery.sol\":12168:12208  InvestorsBalance[msg.sender].HasInvested */\n      0x02\n      add\n      0x00\n        /* \"contracts/Lottery.sol\":12168:12215  InvestorsBalance[msg.sender].HasInvested = true */\n      0x0100\n      exp\n      dup2\n      sload\n      dup2\n      0xff\n      mul\n      not\n      and\n      swap1\n      dup4\n      iszero\n      iszero\n      mul\n      or\n      swap1\n      sstore\n      pop\n        /* \"contracts/Lottery.sol\":12229:12238  investors */\n      0x02\n        /* \"contracts/Lottery.sol\":12244:12254  msg.sender */\n      caller\n        /* \"contracts/Lottery.sol\":12229:12255  investors.push(msg.sender) */\n      swap1\n      dup1\n      0x01\n      dup2\n      sload\n      add\n      dup1\n      dup3\n      sstore\n      dup1\n      swap2\n      pop\n      pop\n      0x01\n      swap1\n      sub\n      swap1\n      0x00\n      mstore\n      keccak256(0x00, 0x20)\n      add\n      0x00\n      swap1\n      swap2\n      swap1\n      swap2\n      swap1\n      swap2\n      0x0100\n      exp\n      dup2\n      sload\n      dup2\n      0xffffffffffffffffffffffffffffffffffffffff\n      mul\n      not\n      and\n      swap1\n      dup4\n      0xffffffffffffffffffffffffffffffffffffffff\n      and\n      mul\n      or\n      swap1\n      sstore\n      pop\n        /* \"contracts/Lottery.sol\":12107:12266  if (!InvestorsBalance[msg.sender].HasInvested) {... */\n    tag_97:\n        /* \"contracts/Lottery.sol\":11279:12272  function InvestmentDeposit() external payable {... */\n      jump\t// out\n        /* \"contracts/Lottery.sol\":7857:11250  function OpenEggs() external {... */\n    tag_19:\n        /* \"contracts/Lottery.sol\":8014:8015  0 */\n      0x00\n        /* \"contracts/Lottery.sol\":7974:7983  UsersInfo */\n      0x09\n        /* \"contracts/Lottery.sol\":7974:7995  UsersInfo[msg.sender] */\n      0x00\n        /* \"contracts/Lottery.sol\":7984:7994  msg.sender */\n      caller\n        /* \"contracts/Lottery.sol\":7974:7995  UsersInfo[msg.sender] */\n      0xffffffffffffffffffffffffffffffffffffffff\n      and\n      0xffffffffffffffffffffffffffffffffffffffff\n      and\n      dup2\n      mstore\n      0x20\n      add\n      swap1\n      dup2\n      mstore\n      0x20\n      add\n      0x00\n      keccak256\n        /* \"contracts/Lottery.sol\":7974:8004  UsersInfo[msg.sender].eggsinfo */\n      0x00\n      add\n        /* \"contracts/Lottery.sol\":7974:8011  UsersInfo[msg.sender].eggsinfo.length */\n      dup1\n      sload\n      swap1\n      pop\n        /* \"contracts/Lottery.sol\":7974:8015  UsersInfo[msg.sender].eggsinfo.length > 0 */\n      gt\n        /* \"contracts/Lottery.sol\":7953:8078  require(... */\n      tag_100\n      jumpi\n      mload(0x40)\n      0x08c379a000000000000000000000000000000000000000000000000000000000\n      dup2\n      mstore\n      0x04\n      add\n      tag_101\n      swap1\n      tag_102\n      jump\t// in\n    tag_101:\n      mload(0x40)\n      dup1\n      swap2\n      sub\n      swap1\n      revert\n    tag_100:\n        /* \"contracts/Lottery.sol\":8257:8266  UsersInfo */\n      0x09\n        /* \"contracts/Lottery.sol\":8257:8278  UsersInfo[msg.sender] */\n      0x00\n        /* \"contracts/Lottery.sol\":8267:8277  msg.sender */\n      caller\n        /* \"contracts/Lottery.sol\":8257:8278  UsersInfo[msg.sender] */\n      0xffffffffffffffffffffffffffffffffffffffff\n      and\n      0xffffffffffffffffffffffffffffffffffffffff\n      and\n      dup2\n      mstore\n      0x20\n      add\n      swap1\n      dup2\n      mstore\n      0x20\n      add\n      0x00\n      keccak256\n        /* \"contracts/Lottery.sol\":8257:8308  UsersInfo[msg.sender]... */\n      0x00\n      add\n        /* \"contracts/Lottery.sol\":8349:8350  1 */\n      0x01\n        /* \"contracts/Lottery.sol\":8309:8318  UsersInfo */\n      0x09\n        /* \"contracts/Lottery.sol\":8309:8330  UsersInfo[msg.sender] */\n      0x00\n        /* \"contracts/Lottery.sol\":8319:8329  msg.sender */\n      caller\n        /* \"contracts/Lottery.sol\":8309:8330  UsersInfo[msg.sender] */\n      0xffffffffffffffffffffffffffffffffffffffff\n      and\n      0xffffffffffffffffffffffffffffffffffffffff\n      and\n      dup2\n      mstore\n      0x20\n      add\n      swap1\n      dup2\n      mstore\n      0x20\n      add\n      0x00\n      keccak256\n        /* \"contracts/Lottery.sol\":8309:8339  UsersInfo[msg.sender].eggsinfo */\n      0x00\n      add\n        /* \"contracts/Lottery.sol\":8309:8346  UsersInfo[msg.sender].eggsinfo.length */\n      dup1\n      sload\n      swap1\n      pop\n        /* \"contracts/Lottery.sol\":8309:8350  UsersInfo[msg.sender].eggsinfo.length - 1 */\n      tag_103\n      swap2\n      swap1\n      tag_104\n      jump\t// in\n    tag_103:\n        /* \"contracts/Lottery.sol\":8257:8351  UsersInfo[msg.sender]... */\n      dup2\n      sload\n      dup2\n      lt\n      tag_105\n      jumpi\n      tag_106\n      tag_68\n      jump\t// in\n    tag_106:\n    tag_105:\n      swap1\n      0x00\n      mstore\n      keccak256(0x00, 0x20)\n      swap1\n      0x02\n      mul\n      add\n        /* \"contracts/Lottery.sol\":8257:8384  UsersInfo[msg.sender]... */\n      0x01\n      add\n      0x01\n      swap1\n      sload\n      swap1\n      0x0100\n      exp\n      swap1\n      div\n      0xffffffffffffffffffffffffffffffffffffffffffffffffffffffffffffff\n      and\n        /* \"contracts/Lottery.sol\":8226:8384  block.number >... */\n      0xffffffffffffffffffffffffffffffffffffffffffffffffffffffffffffff\n      and\n        /* \"contracts/Lottery.sol\":8226:8238  block.number */\n      number\n        /* \"contracts/Lottery.sol\":8226:8384  block.number >... */\n      gt\n        /* \"contracts/Lottery.sol\":8205:8423  require(... */\n      tag_108\n      jumpi\n      mload(0x40)\n      0x08c379a000000000000000000000000000000000000000000000000000000000\n      dup2\n      mstore\n      0x04\n      add\n      tag_109\n      swap1\n      tag_110\n      jump\t// in\n    tag_109:\n      mload(0x40)\n      dup1\n      swap2\n      sub\n      swap1\n      revert\n    tag_108:\n        /* \"contracts/Lottery.sol\":8555:8556  0 */\n      0x00\n        /* \"contracts/Lottery.sol\":8513:8522  UsersInfo */\n      0x09\n        /* \"contracts/Lottery.sol\":8513:8534  UsersInfo[msg.sender] */\n      0x00\n        /* \"contracts/Lottery.sol\":8523:8533  msg.sender */\n      caller\n        /* \"contracts/Lottery.sol\":8513:8534  UsersInfo[msg.sender] */\n      0xffffffffffffffffffffffffffffffffffffffff\n      and\n      0xffffffffffffffffffffffffffffffffffffffff\n      and\n      dup2\n      mstore\n      0x20\n      add\n      swap1\n      dup2\n      mstore\n      0x20\n      add\n      0x00\n      keccak256\n        /* \"contracts/Lottery.sol\":8513:8545  UsersInfo[msg.sender].openedeggs */\n      0x01\n      add\n        /* \"contracts/Lottery.sol\":8513:8552  UsersInfo[msg.sender].openedeggs.length */\n      dup1\n      sload\n      swap1\n      pop\n        /* \"contracts/Lottery.sol\":8513:8556  UsersInfo[msg.sender].openedeggs.length > 0 */\n      gt\n        /* \"contracts/Lottery.sol\":8509:8609  if (UsersInfo[msg.sender].openedeggs.length > 0)... */\n      iszero\n      tag_111\n      jumpi\n        /* \"contracts/Lottery.sol\":8577:8586  UsersInfo */\n      0x09\n        /* \"contracts/Lottery.sol\":8577:8598  UsersInfo[msg.sender] */\n      0x00\n        /* \"contracts/Lottery.sol\":8587:8597  msg.sender */\n      caller\n        /* \"contracts/Lottery.sol\":8577:8598  UsersInfo[msg.sender] */\n      0xffffffffffffffffffffffffffffffffffffffff\n      and\n      0xffffffffffffffffffffffffffffffffffffffff\n      and\n      dup2\n      mstore\n      0x20\n      add\n      swap1\n      dup2\n      mstore\n      0x20\n      add\n      0x00\n      keccak256\n        /* \"contracts/Lottery.sol\":8577:8609  UsersInfo[msg.sender].openedeggs */\n      0x01\n      add\n      0x00\n        /* \"contracts/Lottery.sol\":8570:8609  delete UsersInfo[msg.sender].openedeggs */\n      tag_112\n      swap2\n      swap1\n      tag_113\n      jump\t// in\n    tag_112:\n        /* \"contracts/Lottery.sol\":8509:8609  if (UsersInfo[msg.sender].openedeggs.length > 0)... */\n    tag_111:\n        /* \"contracts/Lottery.sol\":8653:8674  uint256 WinningAmount */\n      0x00\n        /* \"contracts/Lottery.sol\":8690:8699  uint256 i */\n      dup1\n        /* \"contracts/Lottery.sol\":8702:8703  0 */\n      0x00\n        /* \"contracts/Lottery.sol\":8690:8703  uint256 i = 0 */\n      swap1\n      pop\n        /* \"contracts/Lottery.sol\":8685:10375  for (uint256 i = 0; i < UsersInfo[msg.sender].eggsinfo.length; i++) {... */\n    tag_114:\n        /* \"contracts/Lottery.sol\":8709:8718  UsersInfo */\n      0x09\n        /* \"contracts/Lottery.sol\":8709:8730  UsersInfo[msg.sender] */\n      0x00\n        /* \"contracts/Lottery.sol\":8719:8729  msg.sender */\n      caller\n        /* \"contracts/Lottery.sol\":8709:8730  UsersInfo[msg.sender] */\n      0xffffffffffffffffffffffffffffffffffffffff\n      and\n      0xffffffffffffffffffffffffffffffffffffffff\n      and\n      dup2\n      mstore\n      0x20\n      add\n      swap1\n      dup2\n      mstore\n      0x20\n      add\n      0x00\n      keccak256\n        /* \"contracts/Lottery.sol\":8709:8739  UsersInfo[msg.sender].eggsinfo */\n      0x00\n      add\n        /* \"contracts/Lottery.sol\":8709:8746  UsersInfo[msg.sender].eggsinfo.length */\n      dup1\n      sload\n      swap1\n      pop\n        /* \"contracts/Lottery.sol\":8705:8706  i */\n      dup2\n        /* \"contracts/Lottery.sol\":8705:8746  i < UsersInfo[msg.sender].eggsinfo.length */\n      lt\n        /* \"contracts/Lottery.sol\":8685:10375  for (uint256 i = 0; i < UsersInfo[msg.sender].eggsinfo.length; i++) {... */\n      iszero\n      tag_115\n      jumpi\n        /* \"contracts/Lottery.sol\":8961:8962  0 */\n      0x00\n        /* \"contracts/Lottery.sol\":8893:8902  UsersInfo */\n      0x09\n        /* \"contracts/Lottery.sol\":8893:8914  UsersInfo[msg.sender] */\n      0x00\n        /* \"contracts/Lottery.sol\":8903:8913  msg.sender */\n      caller\n        /* \"contracts/Lottery.sol\":8893:8914  UsersInfo[msg.sender] */\n      0xffffffffffffffffffffffffffffffffffffffff\n      and\n      0xffffffffffffffffffffffffffffffffffffffff\n      and\n      dup2\n      mstore\n      0x20\n      add\n      swap1\n      dup2\n      mstore\n      0x20\n      add\n      0x00\n      keccak256\n        /* \"contracts/Lottery.sol\":8893:8923  UsersInfo[msg.sender].eggsinfo */\n      0x00\n      add\n        /* \"contracts/Lottery.sol\":8924:8925  i */\n      dup3\n        /* \"contracts/Lottery.sol\":8893:8926  UsersInfo[msg.sender].eggsinfo[i] */\n      dup2\n      sload\n      dup2\n      lt\n      tag_117\n      jumpi\n      tag_118\n      tag_68\n      jump\t// in\n    tag_118:\n    tag_117:\n      swap1\n      0x00\n      mstore\n      keccak256(0x00, 0x20)\n      swap1\n      0x02\n      mul\n      add\n        /* \"contracts/Lottery.sol\":8893:8938  UsersInfo[msg.sender].eggsinfo[i].blocknumber */\n      0x01\n      add\n      0x01\n      swap1\n      sload\n      swap1\n      0x0100\n      exp\n      swap1\n      div\n      0xffffffffffffffffffffffffffffffffffffffffffffffffffffffffffffff\n      and\n        /* \"contracts/Lottery.sol\":8883:8939  blockhash(UsersInfo[msg.sender].eggsinfo[i].blocknumber) */\n      0xffffffffffffffffffffffffffffffffffffffffffffffffffffffffffffff\n      and\n      blockhash\n        /* \"contracts/Lottery.sol\":8854:8957  uint256(... */\n      0x00\n      shr\n        /* \"contracts/Lottery.sol\":8854:8962  uint256(... */\n      sub\n        /* \"contracts/Lottery.sol\":8833:8985  if (... */\n      iszero\n        /* \"contracts/Lottery.sol\":8977:8985  continue */\n      tag_116\n        /* \"contracts/Lottery.sol\":8833:8985  if (... */\n      jumpi\n        /* \"contracts/Lottery.sol\":9034:9051  uint32 LotteryNum */\n      0x00\n        /* \"contracts/Lottery.sol\":9187:9196  UsersInfo */\n      0x09\n        /* \"contracts/Lottery.sol\":9187:9208  UsersInfo[msg.sender] */\n      0x00\n        /* \"contracts/Lottery.sol\":9197:9207  msg.sender */\n      caller\n        /* \"contracts/Lottery.sol\":9187:9208  UsersInfo[msg.sender] */\n      0xffffffffffffffffffffffffffffffffffffffff\n      and\n      0xffffffffffffffffffffffffffffffffffffffff\n      and\n      dup2\n      mstore\n      0x20\n      add\n      swap1\n      dup2\n      mstore\n      0x20\n      add\n      0x00\n      keccak256\n        /* \"contracts/Lottery.sol\":9187:9217  UsersInfo[msg.sender].eggsinfo */\n      0x00\n      add\n        /* \"contracts/Lottery.sol\":9218:9219  i */\n      dup3\n        /* \"contracts/Lottery.sol\":9187:9220  UsersInfo[msg.sender].eggsinfo[i] */\n      dup2\n      sload\n      dup2\n      lt\n      tag_121\n      jumpi\n      tag_122\n      tag_68\n      jump\t// in\n    tag_122:\n    tag_121:\n      swap1\n      0x00\n      mstore\n      keccak256(0x00, 0x20)\n      swap1\n      0x02\n      mul\n      add\n        /* \"contracts/Lottery.sol\":9187:9224  UsersInfo[msg.sender].eggsinfo[i].uid */\n      0x00\n      add\n      sload\n        /* \"contracts/Lottery.sol\":9297:9306  UsersInfo */\n      0x09\n        /* \"contracts/Lottery.sol\":9297:9318  UsersInfo[msg.sender] */\n      0x00\n        /* \"contracts/Lottery.sol\":9307:9317  msg.sender */\n      caller\n        /* \"contracts/Lottery.sol\":9297:9318  UsersInfo[msg.sender] */\n      0xffffffffffffffffffffffffffffffffffffffff\n      and\n      0xffffffffffffffffffffffffffffffffffffffff\n      and\n      dup2\n      mstore\n      0x20\n      add\n      swap1\n      dup2\n      mstore\n      0x20\n      add\n      0x00\n      keccak256\n        /* \"contracts/Lottery.sol\":9297:9327  UsersInfo[msg.sender].eggsinfo */\n      0x00\n      add\n        /* \"contracts/Lottery.sol\":9328:9329  i */\n      dup4\n        /* \"contracts/Lottery.sol\":9297:9330  UsersInfo[msg.sender].eggsinfo[i] */\n      dup2\n      sload\n      dup2\n      lt\n      tag_124\n      jumpi\n      tag_125\n      tag_68\n      jump\t// in\n    tag_125:\n    tag_124:\n      swap1\n      0x00\n      mstore\n      keccak256(0x00, 0x20)\n      swap1\n      0x02\n      mul\n      add\n        /* \"contracts/Lottery.sol\":9297:9342  UsersInfo[msg.sender].eggsinfo[i].blocknumber */\n      0x01\n      add\n      0x01\n      swap1\n      sload\n      swap1\n      0x0100\n      exp\n      swap1\n      div\n      0xffffffffffffffffffffffffffffffffffffffffffffffffffffffffffffff\n      and\n        /* \"contracts/Lottery.sol\":9254:9372  blockhash(... */\n      0xffffffffffffffffffffffffffffffffffffffffffffffffffffffffffffff\n      and\n      blockhash\n        /* \"contracts/Lottery.sol\":9141:9398  abi.encodePacked(... */\n      add(0x20, mload(0x40))\n      tag_127\n      swap3\n      swap2\n      swap1\n      tag_128\n      jump\t// in\n    tag_127:\n      mload(0x40)\n      0x20\n      dup2\n      dup4\n      sub\n      sub\n      dup2\n      mstore\n      swap1\n      0x40\n      mstore\n        /* \"contracts/Lottery.sol\":9106:9420  keccak256(... */\n      dup1\n      mload\n      swap1\n      0x20\n      add\n      keccak256\n        /* \"contracts/Lottery.sol\":9054:9452  uint32(... */\n      0xe0\n      shr\n        /* \"contracts/Lottery.sol\":9034:9452  uint32 LotteryNum = uint32(... */\n      swap1\n      pop\n        /* \"contracts/Lottery.sol\":9495:9514  uint256 Winningrade */\n      0x00\n        /* \"contracts/Lottery.sol\":9517:9544  GetWinninggrade(LotteryNum) */\n      tag_129\n        /* \"contracts/Lottery.sol\":9533:9543  LotteryNum */\n      dup3\n        /* \"contracts/Lottery.sol\":9517:9532  GetWinninggrade */\n      tag_130\n        /* \"contracts/Lottery.sol\":9517:9544  GetWinninggrade(LotteryNum) */\n      jump\t// in\n    tag_129:\n        /* \"contracts/Lottery.sol\":9495:9544  uint256 Winningrade = GetWinninggrade(LotteryNum) */\n      swap1\n      pop\n        /* \"contracts/Lottery.sol\":9611:9612  0 */\n      0x00\n        /* \"contracts/Lottery.sol\":9597:9608  Winningrade */\n      dup2\n        /* \"contracts/Lottery.sol\":9597:9612  Winningrade > 0 */\n      gt\n        /* \"contracts/Lottery.sol\":9593:10134  if (Winningrade > 0) {... */\n      iszero\n      tag_131\n      jumpi\n        /* \"contracts/Lottery.sol\":9632:9652  uint256 WinningMoney */\n      0x00\n        /* \"contracts/Lottery.sol\":1287:1297  0.02 ether */\n      0x470de4df820000\n        /* \"contracts/Lottery.sol\":9709:9718  UsersInfo */\n      0x09\n        /* \"contracts/Lottery.sol\":9709:9730  UsersInfo[msg.sender] */\n      0x00\n        /* \"contracts/Lottery.sol\":9719:9729  msg.sender */\n      caller\n        /* \"contracts/Lottery.sol\":9709:9730  UsersInfo[msg.sender] */\n      0xffffffffffffffffffffffffffffffffffffffff\n      and\n      0xffffffffffffffffffffffffffffffffffffffff\n      and\n      dup2\n      mstore\n      0x20\n      add\n      swap1\n      dup2\n      mstore\n      0x20\n      add\n      0x00\n      keccak256\n        /* \"contracts/Lottery.sol\":9709:9739  UsersInfo[msg.sender].eggsinfo */\n      0x00\n      add\n        /* \"contracts/Lottery.sol\":9740:9741  i */\n      dup6\n        /* \"contracts/Lottery.sol\":9709:9742  UsersInfo[msg.sender].eggsinfo[i] */\n      dup2\n      sload\n      dup2\n      lt\n      tag_132\n      jumpi\n      tag_133\n      tag_68\n      jump\t// in\n    tag_133:\n    tag_132:\n      swap1\n      0x00\n      mstore\n      keccak256(0x00, 0x20)\n      swap1\n      0x02\n      mul\n      add\n        /* \"contracts/Lottery.sol\":9709:9746  UsersInfo[msg.sender].eggsinfo[i].mul */\n      0x01\n      add\n      0x00\n      swap1\n      sload\n      swap1\n      0x0100\n      exp\n      swap1\n      div\n      0xff\n      and\n        /* \"contracts/Lottery.sol\":9655:9746  GetWinningmultiple(Winningrade) *... */\n      0xff\n      and\n        /* \"contracts/Lottery.sol\":9655:9686  GetWinningmultiple(Winningrade) */\n      tag_135\n        /* \"contracts/Lottery.sol\":9674:9685  Winningrade */\n      dup5\n        /* \"contracts/Lottery.sol\":9655:9673  GetWinningmultiple */\n      tag_136\n        /* \"contracts/Lottery.sol\":9655:9686  GetWinningmultiple(Winningrade) */\n      jump\t// in\n    tag_135:\n        /* \"contracts/Lottery.sol\":9655:9746  GetWinningmultiple(Winningrade) *... */\n      tag_137\n      swap2\n      swap1\n      tag_138\n      jump\t// in\n    tag_137:\n        /* \"contracts/Lottery.sol\":9655:9780  GetWinningmultiple(Winningrade) *... */\n      tag_139\n      swap2\n      swap1\n      tag_138\n      jump\t// in\n    tag_139:\n        /* \"contracts/Lottery.sol\":9632:9780  uint256 WinningMoney = GetWinningmultiple(Winningrade) *... */\n      swap1\n      pop\n        /* \"contracts/Lottery.sol\":9816:9828  WinningMoney */\n      dup1\n        /* \"contracts/Lottery.sol\":9799:9828  WinningAmount += WinningMoney */\n      dup6\n      tag_140\n      swap2\n      swap1\n      tag_54\n      jump\t// in\n    tag_140:\n      swap5\n      pop\n        /* \"contracts/Lottery.sol\":9847:9873  Winninginfo memory winning */\n      0x00\n        /* \"contracts/Lottery.sol\":9876:10073  Winninginfo(... */\n      mload(0x40)\n      dup1\n      0x80\n      add\n      0x40\n      mstore\n      dup1\n        /* \"contracts/Lottery.sol\":9909:9919  LotteryNum */\n      dup6\n        /* \"contracts/Lottery.sol\":9876:10073  Winninginfo(... */\n      0xffffffff\n      and\n      dup2\n      mstore\n      0x20\n      add\n        /* \"contracts/Lottery.sol\":9941:9950  UsersInfo */\n      0x09\n        /* \"contracts/Lottery.sol\":9941:9962  UsersInfo[msg.sender] */\n      0x00\n        /* \"contracts/Lottery.sol\":9951:9961  msg.sender */\n      caller\n        /* \"contracts/Lottery.sol\":9941:9962  UsersInfo[msg.sender] */\n      0xffffffffffffffffffffffffffffffffffffffff\n      and\n      0xffffffffffffffffffffffffffffffffffffffff\n      and\n      dup2\n      mstore\n      0x20\n      add\n      swap1\n      dup2\n      mstore\n      0x20\n      add\n      0x00\n      keccak256\n        /* \"contracts/Lottery.sol\":9941:9971  UsersInfo[msg.sender].eggsinfo */\n      0x00\n      add\n        /* \"contracts/Lottery.sol\":9972:9973  i */\n      dup8\n        /* \"contracts/Lottery.sol\":9941:9974  UsersInfo[msg.sender].eggsinfo[i] */\n      dup2\n      sload\n      dup2\n      lt\n      tag_141\n      jumpi\n      tag_142\n      tag_68\n      jump\t// in\n    tag_142:\n    tag_141:\n      swap1\n      0x00\n      mstore\n      keccak256(0x00, 0x20)\n      swap1\n      0x02\n      mul\n      add\n        /* \"contracts/Lottery.sol\":9941:9978  UsersInfo[msg.sender].eggsinfo[i].mul */\n      0x01\n      add\n      0x00\n      swap1\n      sload\n      swap1\n      0x0100\n      exp\n      swap1\n      div\n      0xff\n      and\n        /* \"contracts/Lottery.sol\":9876:10073  Winninginfo(... */\n      0xff\n      and\n      dup2\n      mstore\n      0x20\n      add\n        /* \"contracts/Lottery.sol\":10007:10022  block.timestamp */\n      timestamp\n        /* \"contracts/Lottery.sol\":9876:10073  Winninginfo(... */\n      0xffffffffff\n      and\n      dup2\n      mstore\n      0x20\n      add\n        /* \"contracts/Lottery.sol\":10045:10055  msg.sender */\n      caller\n        /* \"contracts/Lottery.sol\":9876:10073  Winninginfo(... */\n      0xffffffffffffffffffffffffffffffffffffffff\n      and\n      dup2\n      mstore\n      pop\n        /* \"contracts/Lottery.sol\":9847:10073  Winninginfo memory winning = Winninginfo(... */\n      swap1\n      pop\n        /* \"contracts/Lottery.sol\":10092:10105  WinningRecord */\n      0x0b\n        /* \"contracts/Lottery.sol\":10111:10118  winning */\n      dup2\n        /* \"contracts/Lottery.sol\":10092:10119  WinningRecord.push(winning) */\n      swap1\n      dup1\n      0x01\n      dup2\n      sload\n      add\n      dup1\n      dup3\n      sstore\n      dup1\n      swap2\n      pop\n      pop\n      0x01\n      swap1\n      sub\n      swap1\n      0x00\n      mstore\n      keccak256(0x00, 0x20)\n      swap1\n      0x03\n      mul\n      add\n      0x00\n      swap1\n      swap2\n      swap1\n      swap2\n      swap1\n      swap2\n      pop\n      0x00\n      dup3\n      add\n      mload\n      dup2\n      0x00\n      add\n      exp(0x0100, 0x00)\n      dup2\n      sload\n      dup2\n      0xffffffff\n      mul\n      not\n      and\n      swap1\n      dup4\n      0xffffffff\n      and\n      mul\n      or\n      swap1\n      sstore\n      pop\n      0x20\n      dup3\n      add\n      mload\n      dup2\n      0x00\n      add\n      exp(0x0100, 0x04)\n      dup2\n      sload\n      dup2\n      0xff\n      mul\n      not\n      and\n      swap1\n      dup4\n      0xff\n      and\n      mul\n      or\n      swap1\n      sstore\n      pop\n      0x40\n      dup3\n      add\n      mload\n      dup2\n      0x01\n      add\n      sstore\n      0x60\n      dup3\n      add\n      mload\n      dup2\n      0x02\n      add\n      exp(0x0100, 0x00)\n      dup2\n      sload\n      dup2\n      0xffffffffffffffffffffffffffffffffffffffff\n      mul\n      not\n      and\n      swap1\n      dup4\n      0xffffffffffffffffffffffffffffffffffffffff\n      and\n      mul\n      or\n      swap1\n      sstore\n      pop\n      pop\n      pop\n        /* \"contracts/Lottery.sol\":9614:10134  {... */\n      pop\n      pop\n        /* \"contracts/Lottery.sol\":9593:10134  if (Winningrade > 0) {... */\n    tag_131:\n        /* \"contracts/Lottery.sol\":10148:10183  OpenedLotInfo memory OpenedLotterys */\n      0x00\n        /* \"contracts/Lottery.sol\":10186:10296  OpenedLotInfo(... */\n      mload(0x40)\n      dup1\n      0x40\n      add\n      0x40\n      mstore\n      dup1\n        /* \"contracts/Lottery.sol\":10217:10227  LotteryNum */\n      dup5\n        /* \"contracts/Lottery.sol\":10186:10296  OpenedLotInfo(... */\n      0xffffffff\n      and\n      dup2\n      mstore\n      0x20\n      add\n        /* \"contracts/Lottery.sol\":10245:10254  UsersInfo */\n      0x09\n        /* \"contracts/Lottery.sol\":10245:10266  UsersInfo[msg.sender] */\n      0x00\n        /* \"contracts/Lottery.sol\":10255:10265  msg.sender */\n      caller\n        /* \"contracts/Lottery.sol\":10245:10266  UsersInfo[msg.sender] */\n      0xffffffffffffffffffffffffffffffffffffffff\n      and\n      0xffffffffffffffffffffffffffffffffffffffff\n      and\n      dup2\n      mstore\n      0x20\n      add\n      swap1\n      dup2\n      mstore\n      0x20\n      add\n      0x00\n      keccak256\n        /* \"contracts/Lottery.sol\":10245:10275  UsersInfo[msg.sender].eggsinfo */\n      0x00\n      add\n        /* \"contracts/Lottery.sol\":10276:10277  i */\n      dup7\n        /* \"contracts/Lottery.sol\":10245:10278  UsersInfo[msg.sender].eggsinfo[i] */\n      dup2\n      sload\n      dup2\n      lt\n      tag_145\n      jumpi\n      tag_146\n      tag_68\n      jump\t// in\n    tag_146:\n    tag_145:\n      swap1\n      0x00\n      mstore\n      keccak256(0x00, 0x20)\n      swap1\n      0x02\n      mul\n      add\n        /* \"contracts/Lottery.sol\":10245:10282  UsersInfo[msg.sender].eggsinfo[i].mul */\n      0x01\n      add\n      0x00\n      swap1\n      sload\n      swap1\n      0x0100\n      exp\n      swap1\n      div\n      0xff\n      and\n        /* \"contracts/Lottery.sol\":10186:10296  OpenedLotInfo(... */\n      0xff\n      and\n      dup2\n      mstore\n      pop\n        /* \"contracts/Lottery.sol\":10148:10296  OpenedLotInfo memory OpenedLotterys = OpenedLotInfo(... */\n      swap1\n      pop\n        /* \"contracts/Lottery.sol\":10311:10320  UsersInfo */\n      0x09\n        /* \"contracts/Lottery.sol\":10311:10332  UsersInfo[msg.sender] */\n      0x00\n        /* \"contracts/Lottery.sol\":10321:10331  msg.sender */\n      caller\n        /* \"contracts/Lottery.sol\":10311:10332  UsersInfo[msg.sender] */\n      0xffffffffffffffffffffffffffffffffffffffff\n      and\n      0xffffffffffffffffffffffffffffffffffffffff\n      and\n      dup2\n      mstore\n      0x20\n      add\n      swap1\n      dup2\n      mstore\n      0x20\n      add\n      0x00\n      keccak256\n        /* \"contracts/Lottery.sol\":10311:10343  UsersInfo[msg.sender].openedeggs */\n      0x01\n      add\n        /* \"contracts/Lottery.sol\":10349:10363  OpenedLotterys */\n      dup2\n        /* \"contracts/Lottery.sol\":10311:10364  UsersInfo[msg.sender].openedeggs.push(OpenedLotterys) */\n      swap1\n      dup1\n      0x01\n      dup2\n      sload\n      add\n      dup1\n      dup3\n      sstore\n      dup1\n      swap2\n      pop\n      pop\n      0x01\n      swap1\n      sub\n      swap1\n      0x00\n      mstore\n      keccak256(0x00, 0x20)\n      add\n      0x00\n      swap1\n      swap2\n      swap1\n      swap2\n      swap1\n      swap2\n      pop\n      0x00\n      dup3\n      add\n      mload\n      dup2\n      0x00\n      add\n      exp(0x0100, 0x00)\n      dup2\n      sload\n      dup2\n      0xffffffff\n      mul\n      not\n      and\n      swap1\n      dup4\n      0xffffffff\n      and\n      mul\n      or\n      swap1\n      sstore\n      pop\n      0x20\n      dup3\n      add\n      mload\n      dup2\n      0x00\n      add\n      exp(0x0100, 0x04)\n      dup2\n      sload\n      dup2\n      0xff\n      mul\n      not\n      and\n      swap1\n      dup4\n      0xff\n      and\n      mul\n      or\n      swap1\n      sstore\n      pop\n      pop\n      pop\n        /* \"contracts/Lottery.sol\":8753:10375  {... */\n      pop\n      pop\n      pop\n        /* \"contracts/Lottery.sol\":8685:10375  for (uint256 i = 0; i < UsersInfo[msg.sender].eggsinfo.length; i++) {... */\n    tag_116:\n        /* \"contracts/Lottery.sol\":8748:8751  i++ */\n      dup1\n      dup1\n      0x01\n      add\n      swap2\n      pop\n      pop\n        /* \"contracts/Lottery.sol\":8685:10375  for (uint256 i = 0; i < UsersInfo[msg.sender].eggsinfo.length; i++) {... */\n      jump(tag_114)\n    tag_115:\n      pop\n        /* \"contracts/Lottery.sol\":10452:10461  UsersInfo */\n      0x09\n        /* \"contracts/Lottery.sol\":10452:10473  UsersInfo[msg.sender] */\n      0x00\n        /* \"contracts/Lottery.sol\":10462:10472  msg.sender */\n      caller\n        /* \"contracts/Lottery.sol\":10452:10473  UsersInfo[msg.sender] */\n      0xffffffffffffffffffffffffffffffffffffffff\n      and\n      0xffffffffffffffffffffffffffffffffffffffff\n      and\n      dup2\n      mstore\n      0x20\n      add\n      swap1\n      dup2\n      mstore\n      0x20\n      add\n      0x00\n      keccak256\n        /* \"contracts/Lottery.sol\":10452:10482  UsersInfo[msg.sender].eggsinfo */\n      0x00\n      add\n      0x00\n        /* \"contracts/Lottery.sol\":10445:10482  delete UsersInfo[msg.sender].eggsinfo */\n      tag_149\n      swap2\n      swap1\n      tag_150\n      jump\t// in\n    tag_149:\n        /* \"contracts/Lottery.sol\":10570:10571  0 */\n      0x00\n        /* \"contracts/Lottery.sol\":10554:10567  WinningAmount */\n      dup2\n        /* \"contracts/Lottery.sol\":10554:10571  WinningAmount > 0 */\n      gt\n        /* \"contracts/Lottery.sol\":10550:11244  if (WinningAmount > 0) {... */\n      iszero\n      tag_151\n      jumpi\n        /* \"contracts/Lottery.sol\":10587:10611  uint256 MaxWinningAmount */\n      0x00\n        /* \"contracts/Lottery.sol\":10614:10910  SafeMathdiv(... */\n      tag_152\n        /* \"contracts/Lottery.sol\":10643:10875  SafeMathmul(... */\n      tag_153\n        /* \"contracts/Lottery.sol\":10676:10833  SafeMathsub(... */\n      tag_154\n        /* \"contracts/Lottery.sol\":10713:10734  address(this).balance */\n      selfbalance\n        /* \"contracts/Lottery.sol\":10801:10810  DevProfit */\n      sload(0x01)\n        /* \"contracts/Lottery.sol\":10779:10798  TotalReferralProfit */\n      sload(0x07)\n        /* \"contracts/Lottery.sol\":10761:10776  InvestorsProfit */\n      sload(0x05)\n        /* \"contracts/Lottery.sol\":10761:10798  InvestorsProfit + TotalReferralProfit */\n      tag_155\n      swap2\n      swap1\n      tag_54\n      jump\t// in\n    tag_155:\n        /* \"contracts/Lottery.sol\":10761:10810  InvestorsProfit + TotalReferralProfit + DevProfit */\n      tag_156\n      swap2\n      swap1\n      tag_54\n      jump\t// in\n    tag_156:\n        /* \"contracts/Lottery.sol\":10676:10687  SafeMathsub */\n      tag_56\n        /* \"contracts/Lottery.sol\":10676:10833  SafeMathsub(... */\n      jump\t// in\n    tag_154:\n        /* \"contracts/Lottery.sol\":10855:10857  70 */\n      0x46\n        /* \"contracts/Lottery.sol\":10643:10654  SafeMathmul */\n      tag_76\n        /* \"contracts/Lottery.sol\":10643:10875  SafeMathmul(... */\n      jump\t// in\n    tag_153:\n        /* \"contracts/Lottery.sol\":10893:10896  100 */\n      0x64\n        /* \"contracts/Lottery.sol\":10614:10625  SafeMathdiv */\n      tag_77\n        /* \"contracts/Lottery.sol\":10614:10910  SafeMathdiv(... */\n      jump\t// in\n    tag_152:\n        /* \"contracts/Lottery.sol\":10587:10910  uint256 MaxWinningAmount = SafeMathdiv(... */\n      swap1\n      pop\n        /* \"contracts/Lottery.sol\":10945:10961  MaxWinningAmount */\n      dup1\n        /* \"contracts/Lottery.sol\":10929:10942  WinningAmount */\n      dup3\n        /* \"contracts/Lottery.sol\":10929:10961  WinningAmount > MaxWinningAmount */\n      gt\n        /* \"contracts/Lottery.sol\":10925:11011  if (WinningAmount > MaxWinningAmount)... */\n      iszero\n      tag_157\n      jumpi\n        /* \"contracts/Lottery.sol\":10995:11011  MaxWinningAmount */\n      dup1\n        /* \"contracts/Lottery.sol\":10979:11011  WinningAmount = MaxWinningAmount */\n      swap2\n      pop\n        /* \"contracts/Lottery.sol\":10925:11011  if (WinningAmount > MaxWinningAmount)... */\n    tag_157:\n        /* \"contracts/Lottery.sol\":11026:11040  uint256 profit */\n      0x00\n        /* \"contracts/Lottery.sol\":11043:11090  SafeMathdiv(SafeMathmul(WinningAmount, 5), 100) */\n      tag_158\n        /* \"contracts/Lottery.sol\":11055:11084  SafeMathmul(WinningAmount, 5) */\n      tag_159\n        /* \"contracts/Lottery.sol\":11067:11080  WinningAmount */\n      dup5\n        /* \"contracts/Lottery.sol\":11082:11083  5 */\n      0x05\n        /* \"contracts/Lottery.sol\":11055:11066  SafeMathmul */\n      tag_76\n        /* \"contracts/Lottery.sol\":11055:11084  SafeMathmul(WinningAmount, 5) */\n      jump\t// in\n    tag_159:\n        /* \"contracts/Lottery.sol\":11086:11089  100 */\n      0x64\n        /* \"contracts/Lottery.sol\":11043:11054  SafeMathdiv */\n      tag_77\n        /* \"contracts/Lottery.sol\":11043:11090  SafeMathdiv(SafeMathmul(WinningAmount, 5), 100) */\n      jump\t// in\n    tag_158:\n        /* \"contracts/Lottery.sol\":11026:11090  uint256 profit = SafeMathdiv(SafeMathmul(WinningAmount, 5), 100) */\n      swap1\n      pop\n        /* \"contracts/Lottery.sol\":11123:11129  profit */\n      dup1\n        /* \"contracts/Lottery.sol\":11104:11119  InvestorsProfit */\n      0x05\n      0x00\n        /* \"contracts/Lottery.sol\":11104:11129  InvestorsProfit += profit */\n      dup3\n      dup3\n      sload\n      tag_160\n      swap2\n      swap1\n      tag_54\n      jump\t// in\n    tag_160:\n      swap3\n      pop\n      pop\n      dup2\n      swap1\n      sstore\n      pop\n        /* \"contracts/Lottery.sol\":11156:11162  profit */\n      dup1\n        /* \"contracts/Lottery.sol\":11143:11152  DevProfit */\n      0x01\n      0x00\n        /* \"contracts/Lottery.sol\":11143:11162  DevProfit += profit */\n      dup3\n      dup3\n      sload\n      tag_161\n      swap2\n      swap1\n      tag_54\n      jump\t// in\n    tag_161:\n      swap3\n      pop\n      pop\n      dup2\n      swap1\n      sstore\n      pop\n        /* \"contracts/Lottery.sol\":11185:11195  msg.sender */\n      caller\n        /* \"contracts/Lottery.sol\":11177:11205  payable(msg.sender).transfer */\n      0xffffffffffffffffffffffffffffffffffffffff\n      and\n        /* \"contracts/Lottery.sol\":11177:11233  payable(msg.sender).transfer(WinningAmount - profit * 2) */\n      0x08fc\n        /* \"contracts/Lottery.sol\":11231:11232  2 */\n      0x02\n        /* \"contracts/Lottery.sol\":11222:11228  profit */\n      dup4\n        /* \"contracts/Lottery.sol\":11222:11232  profit * 2 */\n      tag_162\n      swap2\n      swap1\n      tag_138\n      jump\t// in\n    tag_162:\n        /* \"contracts/Lottery.sol\":11206:11219  WinningAmount */\n      dup6\n        /* \"contracts/Lottery.sol\":11206:11232  WinningAmount - profit * 2 */\n      tag_163\n      swap2\n      swap1\n      tag_104\n      jump\t// in\n    tag_163:\n        /* \"contracts/Lottery.sol\":11177:11233  payable(msg.sender).transfer(WinningAmount - profit * 2) */\n      swap1\n      dup2\n      iszero\n      mul\n      swap1\n      mload(0x40)\n      0x00\n      mload(0x40)\n      dup1\n      dup4\n      sub\n      dup2\n      dup6\n      dup9\n      dup9\n      call\n      swap4\n      pop\n      pop\n      pop\n      pop\n      iszero\n      dup1\n      iszero\n      tag_165\n      jumpi\n      returndatasize\n      0x00\n      dup1\n      returndatacopy\n      revert(0x00, returndatasize)\n    tag_165:\n      pop\n        /* \"contracts/Lottery.sol\":10573:11244  {... */\n      pop\n      pop\n        /* \"contracts/Lottery.sol\":10550:11244  if (WinningAmount > 0) {... */\n    tag_151:\n        /* \"contracts/Lottery.sol\":7886:11250  {... */\n      pop\n        /* \"contracts/Lottery.sol\":7857:11250  function OpenEggs() external {... */\n      jump\t// out\n        /* \"contracts/Lottery.sol\":1699:1724  address public DevAddress */\n    tag_22:\n      0x00\n      dup1\n      sload\n      swap1\n      0x0100\n      exp\n      swap1\n      div\n      0xffffffffffffffffffffffffffffffffffffffff\n      and\n      dup2\n      jump\t// out\n        /* \"contracts/Lottery.sol\":2079:2115  uint256 public TotalInvestmentAmount */\n    tag_27:\n      sload(0x04)\n      dup2\n      jump\t// out\n        /* \"contracts/Lottery.sol\":2239:2272  uint256 public RecentDividendTime */\n    tag_32:\n      sload(0x06)\n      dup2\n      jump\t// out\n        /* \"contracts/Lottery.sol\":4155:6544  function BuyEggs(... */\n    tag_37:\n        /* \"contracts/Lottery.sol\":1287:1297  0.02 ether */\n      0x470de4df820000\n        /* \"contracts/Lottery.sol\":4303:4312  msg.value */\n      callvalue\n        /* \"contracts/Lottery.sol\":4303:4327  msg.value >= PerEggPrice */\n      lt\n      iszero\n        /* \"contracts/Lottery.sol\":4295:4352  require(msg.value >= PerEggPrice, \"Buy at least one egg\") */\n      tag_167\n      jumpi\n      mload(0x40)\n      0x08c379a000000000000000000000000000000000000000000000000000000000\n      dup2\n      mstore\n      0x04\n      add\n      tag_168\n      swap1\n      tag_169\n      jump\t// in\n    tag_168:\n      mload(0x40)\n      dup1\n      swap2\n      sub\n      swap1\n      revert\n    tag_167:\n        /* \"contracts/Lottery.sol\":4377:4378  1 */\n      0x01\n        /* \"contracts/Lottery.sol\":4370:4373  mul */\n      dup4\n        /* \"contracts/Lottery.sol\":4370:4378  mul >= 1 */\n      0xff\n      and\n      lt\n      iszero\n        /* \"contracts/Lottery.sol\":4370:4392  mul >= 1 && mul <= 100 */\n      dup1\n      iszero\n      tag_170\n      jumpi\n      pop\n        /* \"contracts/Lottery.sol\":4389:4392  100 */\n      0x64\n        /* \"contracts/Lottery.sol\":4382:4385  mul */\n      dup4\n        /* \"contracts/Lottery.sol\":4382:4392  mul <= 100 */\n      0xff\n      and\n      gt\n      iszero\n        /* \"contracts/Lottery.sol\":4370:4392  mul >= 1 && mul <= 100 */\n    tag_170:\n        /* \"contracts/Lottery.sol\":4362:4424  require(mul >= 1 && mul <= 100, \"Multiples between 1 and 100\") */\n      tag_171\n      jumpi\n      mload(0x40)\n      0x08c379a000000000000000000000000000000000000000000000000000000000\n      dup2\n      mstore\n      0x04\n      add\n      tag_172\n      swap1\n      tag_173\n      jump\t// in\n    tag_172:\n      mload(0x40)\n      dup1\n      swap2\n      sub\n      swap1\n      revert\n    tag_171:\n        /* \"contracts/Lottery.sol\":4467:4468  1 */\n      0x01\n        /* \"contracts/Lottery.sol\":4455:4463  LotCount */\n      dup5\n        /* \"contracts/Lottery.sol\":4455:4468  LotCount >= 1 */\n      0xffff\n      and\n      lt\n      iszero\n        /* \"contracts/Lottery.sol\":4455:4488  LotCount >= 1 && LotCount <= 1000 */\n      dup1\n      iszero\n      tag_174\n      jumpi\n      pop\n        /* \"contracts/Lottery.sol\":4484:4488  1000 */\n      0x03e8\n        /* \"contracts/Lottery.sol\":4472:4480  LotCount */\n      dup5\n        /* \"contracts/Lottery.sol\":4472:4488  LotCount <= 1000 */\n      0xffff\n      and\n      gt\n      iszero\n        /* \"contracts/Lottery.sol\":4455:4488  LotCount >= 1 && LotCount <= 1000 */\n    tag_174:\n        /* \"contracts/Lottery.sol\":4434:4546  require(... */\n      tag_175\n      jumpi\n      mload(0x40)\n      0x08c379a000000000000000000000000000000000000000000000000000000000\n      dup2\n      mstore\n      0x04\n      add\n      tag_176\n      swap1\n      tag_177\n      jump\t// in\n    tag_176:\n      mload(0x40)\n      dup1\n      swap2\n      sub\n      swap1\n      revert\n    tag_175:\n        /* \"contracts/Lottery.sol\":4556:4579  uint256 AllLotteryCount */\n      0x00\n        /* \"contracts/Lottery.sol\":4582:4617  SafeMathdiv(msg.value, PerEggPrice) */\n      tag_178\n        /* \"contracts/Lottery.sol\":4594:4603  msg.value */\n      callvalue\n        /* \"contracts/Lottery.sol\":1287:1297  0.02 ether */\n      0x470de4df820000\n        /* \"contracts/Lottery.sol\":4582:4593  SafeMathdiv */\n      tag_77\n        /* \"contracts/Lottery.sol\":4582:4617  SafeMathdiv(msg.value, PerEggPrice) */\n      jump\t// in\n    tag_178:\n        /* \"contracts/Lottery.sol\":4556:4617  uint256 AllLotteryCount = SafeMathdiv(msg.value, PerEggPrice) */\n      swap1\n      pop\n        /* \"contracts/Lottery.sol\":4666:4669  mul */\n      dup4\n        /* \"contracts/Lottery.sol\":4655:4669  LotCount * mul */\n      0xff\n      and\n        /* \"contracts/Lottery.sol\":4655:4663  LotCount */\n      dup6\n        /* \"contracts/Lottery.sol\":4655:4669  LotCount * mul */\n      tag_179\n      swap2\n      swap1\n      tag_180\n      jump\t// in\n    tag_179:\n        /* \"contracts/Lottery.sol\":4636:4669  AllLotteryCount == LotCount * mul */\n      0xffff\n      and\n        /* \"contracts/Lottery.sol\":4636:4651  AllLotteryCount */\n      dup2\n        /* \"contracts/Lottery.sol\":4636:4669  AllLotteryCount == LotCount * mul */\n      eq\n        /* \"contracts/Lottery.sol\":4628:4686  require(AllLotteryCount == LotCount * mul, \"Invalid data\") */\n      tag_181\n      jumpi\n      mload(0x40)\n      0x08c379a000000000000000000000000000000000000000000000000000000000\n      dup2\n      mstore\n      0x04\n      add\n      tag_182\n      swap1\n      tag_183\n      jump\t// in\n    tag_182:\n      mload(0x40)\n      dup1\n      swap2\n      sub\n      swap1\n      revert\n    tag_181:\n        /* \"contracts/Lottery.sol\":4702:4711  uint256 i */\n      0x00\n        /* \"contracts/Lottery.sol\":4697:5183  for (uint256 i = 0; i < LotCount; i++) {... */\n    tag_184:\n        /* \"contracts/Lottery.sol\":4721:4729  LotCount */\n      dup6\n        /* \"contracts/Lottery.sol\":4717:4729  i < LotCount */\n      0xffff\n      and\n        /* \"contracts/Lottery.sol\":4717:4718  i */\n      dup2\n        /* \"contracts/Lottery.sol\":4717:4729  i < LotCount */\n      lt\n        /* \"contracts/Lottery.sol\":4697:5183  for (uint256 i = 0; i < LotCount; i++) {... */\n      iszero\n      tag_185\n      jumpi\n        /* \"contracts/Lottery.sol\":4750:4772  Egginfo memory egginfo */\n      0x00\n        /* \"contracts/Lottery.sol\":4775:5113  Egginfo(... */\n      mload(0x40)\n      dup1\n      0x60\n      add\n      0x40\n      mstore\n      dup1\n        /* \"contracts/Lottery.sol\":4873:4888  block.timestamp */\n      timestamp\n        /* \"contracts/Lottery.sol\":4914:4928  block.coinbase */\n      coinbase\n        /* \"contracts/Lottery.sol\":4954:4964  msg.sender */\n      caller\n        /* \"contracts/Lottery.sol\":4990:4999  Lucknum++ */\n      dup10\n      dup1\n      tag_187\n      swap1\n      tag_188\n      jump\t// in\n    tag_187:\n      swap11\n      pop\n        /* \"contracts/Lottery.sol\":4831:5021  abi.encodePacked(... */\n      add(0x20, mload(0x40))\n      tag_189\n      swap5\n      swap4\n      swap3\n      swap2\n      swap1\n      tag_190\n      jump\t// in\n    tag_189:\n      mload(0x40)\n      0x20\n      dup2\n      dup4\n      sub\n      sub\n      dup2\n      mstore\n      swap1\n      0x40\n      mstore\n        /* \"contracts/Lottery.sol\":4800:5039  keccak256(... */\n      dup1\n      mload\n      swap1\n      0x20\n      add\n      keccak256\n        /* \"contracts/Lottery.sol\":4775:5113  Egginfo(... */\n      dup2\n      mstore\n      0x20\n      add\n        /* \"contracts/Lottery.sol\":5057:5060  mul */\n      dup8\n        /* \"contracts/Lottery.sol\":4775:5113  Egginfo(... */\n      0xff\n      and\n      dup2\n      mstore\n      0x20\n      add\n        /* \"contracts/Lottery.sol\":5086:5098  block.number */\n      number\n        /* \"contracts/Lottery.sol\":4775:5113  Egginfo(... */\n      0xffffffffffffffffffffffffffffffffffffffffffffffffffffffffffffff\n      and\n      dup2\n      mstore\n      pop\n        /* \"contracts/Lottery.sol\":4750:5113  Egginfo memory egginfo = Egginfo(... */\n      swap1\n      pop\n        /* \"contracts/Lottery.sol\":5128:5137  UsersInfo */\n      0x09\n        /* \"contracts/Lottery.sol\":5128:5149  UsersInfo[msg.sender] */\n      0x00\n        /* \"contracts/Lottery.sol\":5138:5148  msg.sender */\n      caller\n        /* \"contracts/Lottery.sol\":5128:5149  UsersInfo[msg.sender] */\n      0xffffffffffffffffffffffffffffffffffffffff\n      and\n      0xffffffffffffffffffffffffffffffffffffffff\n      and\n      dup2\n      mstore\n      0x20\n      add\n      swap1\n      dup2\n      mstore\n      0x20\n      add\n      0x00\n      keccak256\n        /* \"contracts/Lottery.sol\":5128:5158  UsersInfo[msg.sender].eggsinfo */\n      0x00\n      add\n        /* \"contracts/Lottery.sol\":5164:5171  egginfo */\n      dup2\n        /* \"contracts/Lottery.sol\":5128:5172  UsersInfo[msg.sender].eggsinfo.push(egginfo) */\n      swap1\n      dup1\n      0x01\n      dup2\n      sload\n      add\n      dup1\n      dup3\n      sstore\n      dup1\n      swap2\n      pop\n      pop\n      0x01\n      swap1\n      sub\n      swap1\n      0x00\n      mstore\n      keccak256(0x00, 0x20)\n      swap1\n      0x02\n      mul\n      add\n      0x00\n      swap1\n      swap2\n      swap1\n      swap2\n      swap1\n      swap2\n      pop\n      0x00\n      dup3\n      add\n      mload\n      dup2\n      0x00\n      add\n      sstore\n      0x20\n      dup3\n      add\n      mload\n      dup2\n      0x01\n      add\n      exp(0x0100, 0x00)\n      dup2\n      sload\n      dup2\n      0xff\n      mul\n      not\n      and\n      swap1\n      dup4\n      0xff\n      and\n      mul\n      or\n      swap1\n      sstore\n      pop\n      0x40\n      dup3\n      add\n      mload\n      dup2\n      0x01\n      add\n      exp(0x0100, 0x01)\n      dup2\n      sload\n      dup2\n      0xffffffffffffffffffffffffffffffffffffffffffffffffffffffffffffff\n      mul\n      not\n      and\n      swap1\n      dup4\n      0xffffffffffffffffffffffffffffffffffffffffffffffffffffffffffffff\n      and\n      mul\n      or\n      swap1\n      sstore\n      pop\n      pop\n      pop\n        /* \"contracts/Lottery.sol\":4736:5183  {... */\n      pop\n        /* \"contracts/Lottery.sol\":4731:4734  i++ */\n      dup1\n      dup1\n      0x01\n      add\n      swap2\n      pop\n      pop\n        /* \"contracts/Lottery.sol\":4697:5183  for (uint256 i = 0; i < LotCount; i++) {... */\n      jump(tag_184)\n    tag_185:\n      pop\n        /* \"contracts/Lottery.sol\":5198:5207  UsersInfo */\n      0x09\n        /* \"contracts/Lottery.sol\":5198:5219  UsersInfo[msg.sender] */\n      0x00\n        /* \"contracts/Lottery.sol\":5208:5218  msg.sender */\n      caller\n        /* \"contracts/Lottery.sol\":5198:5219  UsersInfo[msg.sender] */\n      0xffffffffffffffffffffffffffffffffffffffff\n      and\n      0xffffffffffffffffffffffffffffffffffffffff\n      and\n      dup2\n      mstore\n      0x20\n      add\n      swap1\n      dup2\n      mstore\n      0x20\n      add\n      0x00\n      keccak256\n        /* \"contracts/Lottery.sol\":5198:5227  UsersInfo[msg.sender].actived */\n      0x03\n      add\n      0x00\n      swap1\n      sload\n      swap1\n      0x0100\n      exp\n      swap1\n      div\n      0xff\n      and\n        /* \"contracts/Lottery.sol\":5193:5277  if (!UsersInfo[msg.sender].actived)... */\n      tag_192\n      jumpi\n        /* \"contracts/Lottery.sol\":5273:5277  true */\n      0x01\n        /* \"contracts/Lottery.sol\":5241:5250  UsersInfo */\n      0x09\n        /* \"contracts/Lottery.sol\":5241:5262  UsersInfo[msg.sender] */\n      0x00\n        /* \"contracts/Lottery.sol\":5251:5261  msg.sender */\n      caller\n        /* \"contracts/Lottery.sol\":5241:5262  UsersInfo[msg.sender] */\n      0xffffffffffffffffffffffffffffffffffffffff\n      and\n      0xffffffffffffffffffffffffffffffffffffffff\n      and\n      dup2\n      mstore\n      0x20\n      add\n      swap1\n      dup2\n      mstore\n      0x20\n      add\n      0x00\n      keccak256\n        /* \"contracts/Lottery.sol\":5241:5270  UsersInfo[msg.sender].actived */\n      0x03\n      add\n      0x00\n        /* \"contracts/Lottery.sol\":5241:5277  UsersInfo[msg.sender].actived = true */\n      0x0100\n      exp\n      dup2\n      sload\n      dup2\n      0xff\n      mul\n      not\n      and\n      swap1\n      dup4\n      iszero\n      iszero\n      mul\n      or\n      swap1\n      sstore\n      pop\n        /* \"contracts/Lottery.sol\":5193:5277  if (!UsersInfo[msg.sender].actived)... */\n    tag_192:\n        /* \"contracts/Lottery.sol\":5312:5326  uint256 profit */\n      0x00\n        /* \"contracts/Lottery.sol\":5329:5372  SafeMathdiv(SafeMathmul(msg.value, 3), 100) */\n      tag_193\n        /* \"contracts/Lottery.sol\":5341:5366  SafeMathmul(msg.value, 3) */\n      tag_194\n        /* \"contracts/Lottery.sol\":5353:5362  msg.value */\n      callvalue\n        /* \"contracts/Lottery.sol\":5364:5365  3 */\n      0x03\n        /* \"contracts/Lottery.sol\":5341:5352  SafeMathmul */\n      tag_76\n        /* \"contracts/Lottery.sol\":5341:5366  SafeMathmul(msg.value, 3) */\n      jump\t// in\n    tag_194:\n        /* \"contracts/Lottery.sol\":5368:5371  100 */\n      0x64\n        /* \"contracts/Lottery.sol\":5329:5340  SafeMathdiv */\n      tag_77\n        /* \"contracts/Lottery.sol\":5329:5372  SafeMathdiv(SafeMathmul(msg.value, 3), 100) */\n      jump\t// in\n    tag_193:\n        /* \"contracts/Lottery.sol\":5312:5372  uint256 profit = SafeMathdiv(SafeMathmul(msg.value, 3), 100) */\n      swap1\n      pop\n        /* \"contracts/Lottery.sol\":5407:5424  uint256 Refprofit */\n      0x00\n        /* \"contracts/Lottery.sol\":5427:5470  SafeMathdiv(SafeMathmul(msg.value, 4), 100) */\n      tag_195\n        /* \"contracts/Lottery.sol\":5439:5464  SafeMathmul(msg.value, 4) */\n      tag_196\n        /* \"contracts/Lottery.sol\":5451:5460  msg.value */\n      callvalue\n        /* \"contracts/Lottery.sol\":5462:5463  4 */\n      0x04\n        /* \"contracts/Lottery.sol\":5439:5450  SafeMathmul */\n      tag_76\n        /* \"contracts/Lottery.sol\":5439:5464  SafeMathmul(msg.value, 4) */\n      jump\t// in\n    tag_196:\n        /* \"contracts/Lottery.sol\":5466:5469  100 */\n      0x64\n        /* \"contracts/Lottery.sol\":5427:5438  SafeMathdiv */\n      tag_77\n        /* \"contracts/Lottery.sol\":5427:5470  SafeMathdiv(SafeMathmul(msg.value, 4), 100) */\n      jump\t// in\n    tag_195:\n        /* \"contracts/Lottery.sol\":5407:5470  uint256 Refprofit = SafeMathdiv(SafeMathmul(msg.value, 4), 100) */\n      swap1\n      pop\n        /* \"contracts/Lottery.sol\":5523:5529  profit */\n      dup2\n        /* \"contracts/Lottery.sol\":5510:5519  DevProfit */\n      0x01\n      0x00\n        /* \"contracts/Lottery.sol\":5510:5529  DevProfit += profit */\n      dup3\n      dup3\n      sload\n      tag_197\n      swap2\n      swap1\n      tag_54\n      jump\t// in\n    tag_197:\n      swap3\n      pop\n      pop\n      dup2\n      swap1\n      sstore\n      pop\n        /* \"contracts/Lottery.sol\":5588:5594  profit */\n      dup2\n        /* \"contracts/Lottery.sol\":5569:5584  InvestorsProfit */\n      0x05\n      0x00\n        /* \"contracts/Lottery.sol\":5569:5594  InvestorsProfit += profit */\n      dup3\n      dup3\n      sload\n      tag_198\n      swap2\n      swap1\n      tag_54\n      jump\t// in\n    tag_198:\n      swap3\n      pop\n      pop\n      dup2\n      swap1\n      sstore\n      pop\n        /* \"contracts/Lottery.sol\":5687:5688  0 */\n      0x00\n        /* \"contracts/Lottery.sol\":5654:5689  referrals[msg.sender] == address(0) */\n      0xffffffffffffffffffffffffffffffffffffffff\n      and\n        /* \"contracts/Lottery.sol\":5654:5663  referrals */\n      0x0a\n        /* \"contracts/Lottery.sol\":5654:5675  referrals[msg.sender] */\n      0x00\n        /* \"contracts/Lottery.sol\":5664:5674  msg.sender */\n      caller\n        /* \"contracts/Lottery.sol\":5654:5675  referrals[msg.sender] */\n      0xffffffffffffffffffffffffffffffffffffffff\n      and\n      0xffffffffffffffffffffffffffffffffffffffff\n      and\n      dup2\n      mstore\n      0x20\n      add\n      swap1\n      dup2\n      mstore\n      0x20\n      add\n      0x00\n      keccak256\n      0x00\n      swap1\n      sload\n      swap1\n      0x0100\n      exp\n      swap1\n      div\n      0xffffffffffffffffffffffffffffffffffffffff\n      and\n        /* \"contracts/Lottery.sol\":5654:5689  referrals[msg.sender] == address(0) */\n      0xffffffffffffffffffffffffffffffffffffffff\n      and\n      sub\n        /* \"contracts/Lottery.sol\":5650:6538  if (referrals[msg.sender] == address(0)) {... */\n      tag_199\n      jumpi\n        /* \"contracts/Lottery.sol\":5863:5873  msg.sender */\n      caller\n        /* \"contracts/Lottery.sol\":5856:5873  ref == msg.sender */\n      0xffffffffffffffffffffffffffffffffffffffff\n      and\n        /* \"contracts/Lottery.sol\":5856:5859  ref */\n      dup5\n        /* \"contracts/Lottery.sol\":5856:5873  ref == msg.sender */\n      0xffffffffffffffffffffffffffffffffffffffff\n      and\n      eq\n        /* \"contracts/Lottery.sol\":5856:5910  ref == msg.sender ||... */\n      dup1\n      tag_200\n      jumpi\n      pop\n        /* \"contracts/Lottery.sol\":5908:5909  0 */\n      0x00\n        /* \"contracts/Lottery.sol\":5893:5910  ref == address(0) */\n      0xffffffffffffffffffffffffffffffffffffffff\n      and\n        /* \"contracts/Lottery.sol\":5893:5896  ref */\n      dup5\n        /* \"contracts/Lottery.sol\":5893:5910  ref == address(0) */\n      0xffffffffffffffffffffffffffffffffffffffff\n      and\n      eq\n        /* \"contracts/Lottery.sol\":5856:5910  ref == msg.sender ||... */\n    tag_200:\n        /* \"contracts/Lottery.sol\":5856:5960  ref == msg.sender ||... */\n      dup1\n      tag_201\n      jumpi\n      pop\n        /* \"contracts/Lottery.sol\":5931:5940  UsersInfo */\n      0x09\n        /* \"contracts/Lottery.sol\":5931:5952  UsersInfo[msg.sender] */\n      0x00\n        /* \"contracts/Lottery.sol\":5941:5951  msg.sender */\n      caller\n        /* \"contracts/Lottery.sol\":5931:5952  UsersInfo[msg.sender] */\n      0xffffffffffffffffffffffffffffffffffffffff\n      and\n      0xffffffffffffffffffffffffffffffffffffffff\n      and\n      dup2\n      mstore\n      0x20\n      add\n      swap1\n      dup2\n      mstore\n      0x20\n      add\n      0x00\n      keccak256\n        /* \"contracts/Lottery.sol\":5931:5960  UsersInfo[msg.sender].actived */\n      0x03\n      add\n      0x00\n      swap1\n      sload\n      swap1\n      0x0100\n      exp\n      swap1\n      div\n      0xff\n      and\n        /* \"contracts/Lottery.sol\":5930:5960  !UsersInfo[msg.sender].actived */\n      iszero\n        /* \"contracts/Lottery.sol\":5856:5960  ref == msg.sender ||... */\n    tag_201:\n        /* \"contracts/Lottery.sol\":5835:6101  if (... */\n      iszero\n      tag_202\n      jumpi\n        /* \"contracts/Lottery.sol\":6076:6086  DevAddress */\n      0x00\n      dup1\n      sload\n      swap1\n      0x0100\n      exp\n      swap1\n      div\n      0xffffffffffffffffffffffffffffffffffffffff\n      and\n        /* \"contracts/Lottery.sol\":6070:6086  ref = DevAddress */\n      swap4\n      pop\n        /* \"contracts/Lottery.sol\":5835:6101  if (... */\n    tag_202:\n        /* \"contracts/Lottery.sol\":6138:6141  ref */\n      dup4\n        /* \"contracts/Lottery.sol\":6114:6123  referrals */\n      0x0a\n        /* \"contracts/Lottery.sol\":6114:6135  referrals[msg.sender] */\n      0x00\n        /* \"contracts/Lottery.sol\":6124:6134  msg.sender */\n      caller\n        /* \"contracts/Lottery.sol\":6114:6135  referrals[msg.sender] */\n      0xffffffffffffffffffffffffffffffffffffffff\n      and\n      0xffffffffffffffffffffffffffffffffffffffff\n      and\n      dup2\n      mstore\n      0x20\n      add\n      swap1\n      dup2\n      mstore\n      0x20\n      add\n      0x00\n      keccak256\n      0x00\n        /* \"contracts/Lottery.sol\":6114:6141  referrals[msg.sender] = ref */\n      0x0100\n      exp\n      dup2\n      sload\n      dup2\n      0xffffffffffffffffffffffffffffffffffffffff\n      mul\n      not\n      and\n      swap1\n      dup4\n      0xffffffffffffffffffffffffffffffffffffffff\n      and\n      mul\n      or\n      swap1\n      sstore\n      pop\n        /* \"contracts/Lottery.sol\":6265:6275  DevAddress */\n      0x00\n      dup1\n      sload\n      swap1\n      0x0100\n      exp\n      swap1\n      div\n      0xffffffffffffffffffffffffffffffffffffffff\n      and\n        /* \"contracts/Lottery.sol\":6240:6275  referrals[msg.sender] == DevAddress */\n      0xffffffffffffffffffffffffffffffffffffffff\n      and\n        /* \"contracts/Lottery.sol\":6240:6249  referrals */\n      0x0a\n        /* \"contracts/Lottery.sol\":6240:6261  referrals[msg.sender] */\n      0x00\n        /* \"contracts/Lottery.sol\":6250:6260  msg.sender */\n      caller\n        /* \"contracts/Lottery.sol\":6240:6261  referrals[msg.sender] */\n      0xffffffffffffffffffffffffffffffffffffffff\n      and\n      0xffffffffffffffffffffffffffffffffffffffff\n      and\n      dup2\n      mstore\n      0x20\n      add\n      swap1\n      dup2\n      mstore\n      0x20\n      add\n      0x00\n      keccak256\n      0x00\n      swap1\n      sload\n      swap1\n      0x0100\n      exp\n      swap1\n      div\n      0xffffffffffffffffffffffffffffffffffffffff\n      and\n        /* \"contracts/Lottery.sol\":6240:6275  referrals[msg.sender] == DevAddress */\n      0xffffffffffffffffffffffffffffffffffffffff\n      and\n      sub\n        /* \"contracts/Lottery.sol\":6236:6481  if (referrals[msg.sender] == DevAddress) {... */\n      tag_203\n      jumpi\n        /* \"contracts/Lottery.sol\":6308:6317  Refprofit */\n      dup1\n        /* \"contracts/Lottery.sol\":6295:6304  DevProfit */\n      0x01\n      0x00\n        /* \"contracts/Lottery.sol\":6295:6317  DevProfit += Refprofit */\n      dup3\n      dup3\n      sload\n      tag_204\n      swap2\n      swap1\n      tag_54\n      jump\t// in\n    tag_204:\n      swap3\n      pop\n      pop\n      dup2\n      swap1\n      sstore\n      pop\n        /* \"contracts/Lottery.sol\":6236:6481  if (referrals[msg.sender] == DevAddress) {... */\n      jump(tag_205)\n    tag_203:\n        /* \"contracts/Lottery.sol\":6407:6416  Refprofit */\n      dup1\n        /* \"contracts/Lottery.sol\":6356:6365  UsersInfo */\n      0x09\n        /* \"contracts/Lottery.sol\":6356:6388  UsersInfo[referrals[msg.sender]] */\n      0x00\n        /* \"contracts/Lottery.sol\":6366:6375  referrals */\n      0x0a\n        /* \"contracts/Lottery.sol\":6366:6387  referrals[msg.sender] */\n      0x00\n        /* \"contracts/Lottery.sol\":6376:6386  msg.sender */\n      caller\n        /* \"contracts/Lottery.sol\":6366:6387  referrals[msg.sender] */\n      0xffffffffffffffffffffffffffffffffffffffff\n      and\n      0xffffffffffffffffffffffffffffffffffffffff\n      and\n      dup2\n      mstore\n      0x20\n      add\n      swap1\n      dup2\n      mstore\n      0x20\n      add\n      0x00\n      keccak256\n      0x00\n      swap1\n      sload\n      swap1\n      0x0100\n      exp\n      swap1\n      div\n      0xffffffffffffffffffffffffffffffffffffffff\n      and\n        /* \"contracts/Lottery.sol\":6356:6388  UsersInfo[referrals[msg.sender]] */\n      0xffffffffffffffffffffffffffffffffffffffff\n      and\n      0xffffffffffffffffffffffffffffffffffffffff\n      and\n      dup2\n      mstore\n      0x20\n      add\n      swap1\n      dup2\n      mstore\n      0x20\n      add\n      0x00\n      keccak256\n        /* \"contracts/Lottery.sol\":6356:6403  UsersInfo[referrals[msg.sender]].ReferralProfit */\n      0x02\n      add\n      0x00\n        /* \"contracts/Lottery.sol\":6356:6416  UsersInfo[referrals[msg.sender]].ReferralProfit += Refprofit */\n      dup3\n      dup3\n      sload\n      tag_206\n      swap2\n      swap1\n      tag_54\n      jump\t// in\n    tag_206:\n      swap3\n      pop\n      pop\n      dup2\n      swap1\n      sstore\n      pop\n        /* \"contracts/Lottery.sol\":6457:6466  Refprofit */\n      dup1\n        /* \"contracts/Lottery.sol\":6434:6453  TotalReferralProfit */\n      0x07\n      0x00\n        /* \"contracts/Lottery.sol\":6434:6466  TotalReferralProfit += Refprofit */\n      dup3\n      dup3\n      sload\n      tag_207\n      swap2\n      swap1\n      tag_54\n      jump\t// in\n    tag_207:\n      swap3\n      pop\n      pop\n      dup2\n      swap1\n      sstore\n      pop\n        /* \"contracts/Lottery.sol\":6236:6481  if (referrals[msg.sender] == DevAddress) {... */\n    tag_205:\n        /* \"contracts/Lottery.sol\":6512:6527  block.timestamp */\n      timestamp\n        /* \"contracts/Lottery.sol\":6495:6509  LastBuyEggTime */\n      0x08\n        /* \"contracts/Lottery.sol\":6495:6527  LastBuyEggTime = block.timestamp */\n      dup2\n      swap1\n      sstore\n      pop\n        /* \"contracts/Lottery.sol\":5650:6538  if (referrals[msg.sender] == address(0)) {... */\n    tag_199:\n        /* \"contracts/Lottery.sol\":4285:6544  {... */\n      pop\n      pop\n      pop\n        /* \"contracts/Lottery.sol\":4155:6544  function BuyEggs(... */\n      pop\n      pop\n      pop\n      pop\n      jump\t// out\n        /* \"contracts/Lottery.sol\":2170:2200  uint256 public InvestorsProfit */\n    tag_40:\n      sload(0x05)\n      dup2\n      jump\t// out\n        /* \"contracts/Lottery.sol\":12301:13685  function InvestmentWithdrawal(uint256 WithdrawalAmount) external {... */\n    tag_46:\n        /* \"contracts/Lottery.sol\":1547:1554  1 ether */\n      0x0de0b6b3a7640000\n        /* \"contracts/Lottery.sol\":12457:12473  WithdrawalAmount */\n      dup2\n        /* \"contracts/Lottery.sol\":12457:12502  WithdrawalAmount >= Mininum_Investment_amount */\n      lt\n      iszero\n        /* \"contracts/Lottery.sol\":12436:12603  require(... */\n      tag_209\n      jumpi\n      mload(0x40)\n      0x08c379a000000000000000000000000000000000000000000000000000000000\n      dup2\n      mstore\n      0x04\n      add\n      tag_210\n      swap1\n      tag_211\n      jump\t// in\n    tag_210:\n      mload(0x40)\n      dup1\n      swap2\n      sub\n      swap1\n      revert\n    tag_209:\n        /* \"contracts/Lottery.sol\":12691:12707  InvestorsBalance */\n      0x03\n        /* \"contracts/Lottery.sol\":12691:12719  InvestorsBalance[msg.sender] */\n      0x00\n        /* \"contracts/Lottery.sol\":12708:12718  msg.sender */\n      caller\n        /* \"contracts/Lottery.sol\":12691:12719  InvestorsBalance[msg.sender] */\n      0xffffffffffffffffffffffffffffffffffffffff\n      and\n      0xffffffffffffffffffffffffffffffffffffffff\n      and\n      dup2\n      mstore\n      0x20\n      add\n      swap1\n      dup2\n      mstore\n      0x20\n      add\n      0x00\n      keccak256\n        /* \"contracts/Lottery.sol\":12691:12727  InvestorsBalance[msg.sender].balance */\n      0x00\n      add\n      sload\n        /* \"contracts/Lottery.sol\":12671:12687  WithdrawalAmount */\n      dup2\n        /* \"contracts/Lottery.sol\":12671:12727  WithdrawalAmount <= InvestorsBalance[msg.sender].balance */\n      gt\n      iszero\n        /* \"contracts/Lottery.sol\":12650:12781  require(... */\n      tag_212\n      jumpi\n      mload(0x40)\n      0x08c379a000000000000000000000000000000000000000000000000000000000\n      dup2\n      mstore\n      0x04\n      add\n      tag_213\n      swap1\n      tag_214\n      jump\t// in\n    tag_213:\n      mload(0x40)\n      dup1\n      swap2\n      sub\n      swap1\n      revert\n    tag_212:\n        /* \"contracts/Lottery.sol\":13001:13008  1 weeks */\n      0x093a80\n        /* \"contracts/Lottery.sol\":12955:12971  InvestorsBalance */\n      0x03\n        /* \"contracts/Lottery.sol\":12955:12983  InvestorsBalance[msg.sender] */\n      0x00\n        /* \"contracts/Lottery.sol\":12972:12982  msg.sender */\n      caller\n        /* \"contracts/Lottery.sol\":12955:12983  InvestorsBalance[msg.sender] */\n      0xffffffffffffffffffffffffffffffffffffffff\n      and\n      0xffffffffffffffffffffffffffffffffffffffff\n      and\n      dup2\n      mstore\n      0x20\n      add\n      swap1\n      dup2\n      mstore\n      0x20\n      add\n      0x00\n      keccak256\n        /* \"contracts/Lottery.sol\":12955:12998  InvestorsBalance[msg.sender].LastInvestTime */\n      0x01\n      add\n      sload\n        /* \"contracts/Lottery.sol\":12955:13008  InvestorsBalance[msg.sender].LastInvestTime + 1 weeks */\n      tag_215\n      swap2\n      swap1\n      tag_54\n      jump\t// in\n    tag_215:\n        /* \"contracts/Lottery.sol\":12920:12935  block.timestamp */\n      timestamp\n        /* \"contracts/Lottery.sol\":12920:13008  block.timestamp >=... */\n      lt\n      iszero\n        /* \"contracts/Lottery.sol\":12899:13065  require(... */\n      tag_216\n      jumpi\n      mload(0x40)\n      0x08c379a000000000000000000000000000000000000000000000000000000000\n      dup2\n      mstore\n      0x04\n      add\n      tag_217\n      swap1\n      tag_218\n      jump\t// in\n    tag_217:\n      mload(0x40)\n      dup1\n      swap2\n      sub\n      swap1\n      revert\n    tag_216:\n        /* \"contracts/Lottery.sol\":13300:13316  WithdrawalAmount */\n      dup1\n        /* \"contracts/Lottery.sol\":13163:13296  SafeMathsub(... */\n      tag_219\n        /* \"contracts/Lottery.sol\":13192:13213  address(this).balance */\n      selfbalance\n        /* \"contracts/Lottery.sol\":13272:13281  DevProfit */\n      sload(0x01)\n        /* \"contracts/Lottery.sol\":13250:13269  TotalReferralProfit */\n      sload(0x07)\n        /* \"contracts/Lottery.sol\":13232:13247  InvestorsProfit */\n      sload(0x05)\n        /* \"contracts/Lottery.sol\":13232:13269  InvestorsProfit + TotalReferralProfit */\n      tag_220\n      swap2\n      swap1\n      tag_54\n      jump\t// in\n    tag_220:\n        /* \"contracts/Lottery.sol\":13232:13281  InvestorsProfit + TotalReferralProfit + DevProfit */\n      tag_221\n      swap2\n      swap1\n      tag_54\n      jump\t// in\n    tag_221:\n        /* \"contracts/Lottery.sol\":13163:13174  SafeMathsub */\n      tag_56\n        /* \"contracts/Lottery.sol\":13163:13296  SafeMathsub(... */\n      jump\t// in\n    tag_219:\n        /* \"contracts/Lottery.sol\":13163:13316  SafeMathsub(... */\n      lt\n      iszero\n        /* \"contracts/Lottery.sol\":13142:13372  require(... */\n      tag_222\n      jumpi\n      mload(0x40)\n      0x08c379a000000000000000000000000000000000000000000000000000000000\n      dup2\n      mstore\n      0x04\n      add\n      tag_223\n      swap1\n      tag_224\n      jump\t// in\n    tag_223:\n      mload(0x40)\n      dup1\n      swap2\n      sub\n      swap1\n      revert\n    tag_222:\n        /* \"contracts/Lottery.sol\":13483:13499  WithdrawalAmount */\n      dup1\n        /* \"contracts/Lottery.sol\":13443:13459  InvestorsBalance */\n      0x03\n        /* \"contracts/Lottery.sol\":13443:13471  InvestorsBalance[msg.sender] */\n      0x00\n        /* \"contracts/Lottery.sol\":13460:13470  msg.sender */\n      caller\n        /* \"contracts/Lottery.sol\":13443:13471  InvestorsBalance[msg.sender] */\n      0xffffffffffffffffffffffffffffffffffffffff\n      and\n      0xffffffffffffffffffffffffffffffffffffffff\n      and\n      dup2\n      mstore\n      0x20\n      add\n      swap1\n      dup2\n      mstore\n      0x20\n      add\n      0x00\n      keccak256\n        /* \"contracts/Lottery.sol\":13443:13479  InvestorsBalance[msg.sender].balance */\n      0x00\n      add\n      0x00\n        /* \"contracts/Lottery.sol\":13443:13499  InvestorsBalance[msg.sender].balance -= WithdrawalAmount */\n      dup3\n      dup3\n      sload\n      tag_225\n      swap2\n      swap1\n      tag_104\n      jump\t// in\n    tag_225:\n      swap3\n      pop\n      pop\n      dup2\n      swap1\n      sstore\n      pop\n        /* \"contracts/Lottery.sol\":13567:13583  WithdrawalAmount */\n      dup1\n        /* \"contracts/Lottery.sol\":13542:13563  TotalInvestmentAmount */\n      0x04\n      0x00\n        /* \"contracts/Lottery.sol\":13542:13583  TotalInvestmentAmount -= WithdrawalAmount */\n      dup3\n      dup3\n      sload\n      tag_226\n      swap2\n      swap1\n      tag_104\n      jump\t// in\n    tag_226:\n      swap3\n      pop\n      pop\n      dup2\n      swap1\n      sstore\n      pop\n        /* \"contracts/Lottery.sol\":13640:13650  msg.sender */\n      caller\n        /* \"contracts/Lottery.sol\":13632:13660  payable(msg.sender).transfer */\n      0xffffffffffffffffffffffffffffffffffffffff\n      and\n        /* \"contracts/Lottery.sol\":13632:13678  payable(msg.sender).transfer(WithdrawalAmount) */\n      0x08fc\n        /* \"contracts/Lottery.sol\":13661:13677  WithdrawalAmount */\n      dup3\n        /* \"contracts/Lottery.sol\":13632:13678  payable(msg.sender).transfer(WithdrawalAmount) */\n      swap1\n      dup2\n      iszero\n      mul\n      swap1\n      mload(0x40)\n      0x00\n      mload(0x40)\n      dup1\n      dup4\n      sub\n      dup2\n      dup6\n      dup9\n      dup9\n      call\n      swap4\n      pop\n      pop\n      pop\n      pop\n      iszero\n      dup1\n      iszero\n      tag_228\n      jumpi\n      returndatasize\n      0x00\n      dup1\n      returndatacopy\n      revert(0x00, returndatasize)\n    tag_228:\n      pop\n        /* \"contracts/Lottery.sol\":12301:13685  function InvestmentWithdrawal(uint256 WithdrawalAmount) external {... */\n      pop\n      jump\t// out\n        /* \"contracts/Lottery.sol\":3582:3711  function SafeMathsub(uint256 a, uint256 b) internal pure returns (uint256) {... */\n    tag_56:\n        /* \"contracts/Lottery.sol\":3648:3655  uint256 */\n      0x00\n        /* \"contracts/Lottery.sol\":3679:3680  a */\n      dup3\n        /* \"contracts/Lottery.sol\":3674:3675  b */\n      dup3\n        /* \"contracts/Lottery.sol\":3674:3680  b <= a */\n      gt\n      iszero\n        /* \"contracts/Lottery.sol\":3667:3681  assert(b <= a) */\n      tag_230\n      jumpi\n      tag_231\n      tag_232\n      jump\t// in\n    tag_231:\n    tag_230:\n        /* \"contracts/Lottery.sol\":3703:3704  b */\n      dup2\n        /* \"contracts/Lottery.sol\":3699:3700  a */\n      dup4\n        /* \"contracts/Lottery.sol\":3699:3704  a - b */\n      tag_233\n      swap2\n      swap1\n      tag_104\n      jump\t// in\n    tag_233:\n        /* \"contracts/Lottery.sol\":3692:3704  return a - b */\n      swap1\n      pop\n        /* \"contracts/Lottery.sol\":3582:3711  function SafeMathsub(uint256 a, uint256 b) internal pure returns (uint256) {... */\n      swap3\n      swap2\n      pop\n      pop\n      jump\t// out\n        /* \"contracts/Lottery.sol\":3737:3951  function SafeMathmul(uint256 a, uint256 b) internal pure returns (uint256) {... */\n    tag_76:\n        /* \"contracts/Lottery.sol\":3803:3810  uint256 */\n      0x00\n        /* \"contracts/Lottery.sol\":3831:3832  0 */\n      dup1\n        /* \"contracts/Lottery.sol\":3826:3827  a */\n      dup4\n        /* \"contracts/Lottery.sol\":3826:3832  a == 0 */\n      sub\n        /* \"contracts/Lottery.sol\":3822:3867  if (a == 0) {... */\n      tag_235\n      jumpi\n        /* \"contracts/Lottery.sol\":3855:3856  0 */\n      0x00\n        /* \"contracts/Lottery.sol\":3848:3856  return 0 */\n      swap1\n      pop\n      jump(tag_234)\n        /* \"contracts/Lottery.sol\":3822:3867  if (a == 0) {... */\n    tag_235:\n        /* \"contracts/Lottery.sol\":3877:3886  uint256 c */\n      0x00\n        /* \"contracts/Lottery.sol\":3893:3894  b */\n      dup3\n        /* \"contracts/Lottery.sol\":3889:3890  a */\n      dup5\n        /* \"contracts/Lottery.sol\":3889:3894  a * b */\n      tag_236\n      swap2\n      swap1\n      tag_138\n      jump\t// in\n    tag_236:\n        /* \"contracts/Lottery.sol\":3877:3894  uint256 c = a * b */\n      swap1\n      pop\n        /* \"contracts/Lottery.sol\":3923:3924  b */\n      dup3\n        /* \"contracts/Lottery.sol\":3917:3918  a */\n      dup5\n        /* \"contracts/Lottery.sol\":3913:3914  c */\n      dup3\n        /* \"contracts/Lottery.sol\":3913:3918  c / a */\n      tag_237\n      swap2\n      swap1\n      tag_59\n      jump\t// in\n    tag_237:\n        /* \"contracts/Lottery.sol\":3912:3924  (c / a) == b */\n      eq\n        /* \"contracts/Lottery.sol\":3905:3925  assert((c / a) == b) */\n      tag_238\n      jumpi\n      tag_239\n      tag_232\n      jump\t// in\n    tag_239:\n    tag_238:\n        /* \"contracts/Lottery.sol\":3943:3944  c */\n      dup1\n        /* \"contracts/Lottery.sol\":3936:3944  return c */\n      swap2\n      pop\n      pop\n        /* \"contracts/Lottery.sol\":3737:3951  function SafeMathmul(uint256 a, uint256 b) internal pure returns (uint256) {... */\n    tag_234:\n      swap3\n      swap2\n      pop\n      pop\n      jump\t// out\n        /* \"contracts/Lottery.sol\":3977:4129  function SafeMathdiv(uint256 a, uint256 b) internal pure returns (uint256) {... */\n    tag_77:\n        /* \"contracts/Lottery.sol\":4043:4050  uint256 */\n      0x00\n        /* \"contracts/Lottery.sol\":4073:4074  0 */\n      dup1\n        /* \"contracts/Lottery.sol\":4069:4070  b */\n      dup3\n        /* \"contracts/Lottery.sol\":4069:4074  b > 0 */\n      gt\n        /* \"contracts/Lottery.sol\":4062:4075  assert(b > 0) */\n      tag_241\n      jumpi\n      tag_242\n      tag_232\n      jump\t// in\n    tag_242:\n    tag_241:\n        /* \"contracts/Lottery.sol\":4086:4095  uint256 c */\n      0x00\n        /* \"contracts/Lottery.sol\":4102:4103  b */\n      dup3\n        /* \"contracts/Lottery.sol\":4098:4099  a */\n      dup5\n        /* \"contracts/Lottery.sol\":4098:4103  a / b */\n      tag_243\n      swap2\n      swap1\n      tag_59\n      jump\t// in\n    tag_243:\n        /* \"contracts/Lottery.sol\":4086:4103  uint256 c = a / b */\n      swap1\n      pop\n        /* \"contracts/Lottery.sol\":4121:4122  c */\n      dup1\n        /* \"contracts/Lottery.sol\":4114:4122  return c */\n      swap2\n      pop\n      pop\n        /* \"contracts/Lottery.sol\":3977:4129  function SafeMathdiv(uint256 a, uint256 b) internal pure returns (uint256) {... */\n      swap3\n      swap2\n      pop\n      pop\n      jump\t// out\n        /* \"contracts/Lottery.sol\":6594:7176  function GetWinninggrade(uint32 LotteryNum) private pure returns (uint256) {... */\n    tag_130:\n        /* \"contracts/Lottery.sol\":6660:6667  uint256 */\n      0x00\n        /* \"contracts/Lottery.sol\":6696:6704  67108864 */\n      0x04000000\n        /* \"contracts/Lottery.sol\":6683:6693  LotteryNum */\n      dup3\n        /* \"contracts/Lottery.sol\":6683:6704  LotteryNum > 67108864 */\n      0xffffffff\n      and\n      gt\n        /* \"contracts/Lottery.sol\":6679:6714  if (LotteryNum > 67108864) return 0 */\n      iszero\n      tag_245\n      jumpi\n        /* \"contracts/Lottery.sol\":6713:6714  0 */\n      0x00\n        /* \"contracts/Lottery.sol\":6706:6714  return 0 */\n      swap1\n      pop\n      jump(tag_244)\n        /* \"contracts/Lottery.sol\":6679:6714  if (LotteryNum > 67108864) return 0 */\n    tag_245:\n        /* \"contracts/Lottery.sol\":6742:6750  16777216 */\n      0x01000000\n        /* \"contracts/Lottery.sol\":6728:6738  LotteryNum */\n      dup3\n        /* \"contracts/Lottery.sol\":6728:6750  LotteryNum >= 16777216 */\n      0xffffffff\n      and\n      lt\n        /* \"contracts/Lottery.sol\":6724:6761  if (LotteryNum >= 16777216) return 10 */\n      tag_246\n      jumpi\n        /* \"contracts/Lottery.sol\":6759:6761  10 */\n      0x0a\n        /* \"contracts/Lottery.sol\":6752:6761  return 10 */\n      swap1\n      pop\n      jump(tag_244)\n        /* \"contracts/Lottery.sol\":6724:6761  if (LotteryNum >= 16777216) return 10 */\n    tag_246:\n        /* \"contracts/Lottery.sol\":6789:6796  4194304 */\n      0x400000\n        /* \"contracts/Lottery.sol\":6775:6785  LotteryNum */\n      dup3\n        /* \"contracts/Lottery.sol\":6775:6796  LotteryNum >= 4194304 */\n      0xffffffff\n      and\n      lt\n        /* \"contracts/Lottery.sol\":6771:6806  if (LotteryNum >= 4194304) return 9 */\n      tag_247\n      jumpi\n        /* \"contracts/Lottery.sol\":6805:6806  9 */\n      0x09\n        /* \"contracts/Lottery.sol\":6798:6806  return 9 */\n      swap1\n      pop\n      jump(tag_244)\n        /* \"contracts/Lottery.sol\":6771:6806  if (LotteryNum >= 4194304) return 9 */\n    tag_247:\n        /* \"contracts/Lottery.sol\":6834:6841  1048576 */\n      0x100000\n        /* \"contracts/Lottery.sol\":6820:6830  LotteryNum */\n      dup3\n        /* \"contracts/Lottery.sol\":6820:6841  LotteryNum >= 1048576 */\n      0xffffffff\n      and\n      lt\n        /* \"contracts/Lottery.sol\":6816:6851  if (LotteryNum >= 1048576) return 8 */\n      tag_248\n      jumpi\n        /* \"contracts/Lottery.sol\":6850:6851  8 */\n      0x08\n        /* \"contracts/Lottery.sol\":6843:6851  return 8 */\n      swap1\n      pop\n      jump(tag_244)\n        /* \"contracts/Lottery.sol\":6816:6851  if (LotteryNum >= 1048576) return 8 */\n    tag_248:\n        /* \"contracts/Lottery.sol\":6879:6885  262144 */\n      0x040000\n        /* \"contracts/Lottery.sol\":6865:6875  LotteryNum */\n      dup3\n        /* \"contracts/Lottery.sol\":6865:6885  LotteryNum >= 262144 */\n      0xffffffff\n      and\n      lt\n        /* \"contracts/Lottery.sol\":6861:6895  if (LotteryNum >= 262144) return 7 */\n      tag_249\n      jumpi\n        /* \"contracts/Lottery.sol\":6894:6895  7 */\n      0x07\n        /* \"contracts/Lottery.sol\":6887:6895  return 7 */\n      swap1\n      pop\n      jump(tag_244)\n        /* \"contracts/Lottery.sol\":6861:6895  if (LotteryNum >= 262144) return 7 */\n    tag_249:\n        /* \"contracts/Lottery.sol\":6923:6928  65536 */\n      0x010000\n        /* \"contracts/Lottery.sol\":6909:6919  LotteryNum */\n      dup3\n        /* \"contracts/Lottery.sol\":6909:6928  LotteryNum >= 65536 */\n      0xffffffff\n      and\n      lt\n        /* \"contracts/Lottery.sol\":6905:6938  if (LotteryNum >= 65536) return 6 */\n      tag_250\n      jumpi\n        /* \"contracts/Lottery.sol\":6937:6938  6 */\n      0x06\n        /* \"contracts/Lottery.sol\":6930:6938  return 6 */\n      swap1\n      pop\n      jump(tag_244)\n        /* \"contracts/Lottery.sol\":6905:6938  if (LotteryNum >= 65536) return 6 */\n    tag_250:\n        /* \"contracts/Lottery.sol\":6966:6971  16384 */\n      0x4000\n        /* \"contracts/Lottery.sol\":6952:6962  LotteryNum */\n      dup3\n        /* \"contracts/Lottery.sol\":6952:6971  LotteryNum >= 16384 */\n      0xffffffff\n      and\n      lt\n        /* \"contracts/Lottery.sol\":6948:6981  if (LotteryNum >= 16384) return 5 */\n      tag_251\n      jumpi\n        /* \"contracts/Lottery.sol\":6980:6981  5 */\n      0x05\n        /* \"contracts/Lottery.sol\":6973:6981  return 5 */\n      swap1\n      pop\n      jump(tag_244)\n        /* \"contracts/Lottery.sol\":6948:6981  if (LotteryNum >= 16384) return 5 */\n    tag_251:\n        /* \"contracts/Lottery.sol\":7009:7013  4096 */\n      0x1000\n        /* \"contracts/Lottery.sol\":6995:7005  LotteryNum */\n      dup3\n        /* \"contracts/Lottery.sol\":6995:7013  LotteryNum >= 4096 */\n      0xffffffff\n      and\n      lt\n        /* \"contracts/Lottery.sol\":6991:7023  if (LotteryNum >= 4096) return 4 */\n      tag_252\n      jumpi\n        /* \"contracts/Lottery.sol\":7022:7023  4 */\n      0x04\n        /* \"contracts/Lottery.sol\":7015:7023  return 4 */\n      swap1\n      pop\n      jump(tag_244)\n        /* \"contracts/Lottery.sol\":6991:7023  if (LotteryNum >= 4096) return 4 */\n    tag_252:\n        /* \"contracts/Lottery.sol\":7051:7055  1024 */\n      0x0400\n        /* \"contracts/Lottery.sol\":7037:7047  LotteryNum */\n      dup3\n        /* \"contracts/Lottery.sol\":7037:7055  LotteryNum >= 1024 */\n      0xffffffff\n      and\n      lt\n        /* \"contracts/Lottery.sol\":7033:7065  if (LotteryNum >= 1024) return 3 */\n      tag_253\n      jumpi\n        /* \"contracts/Lottery.sol\":7064:7065  3 */\n      0x03\n        /* \"contracts/Lottery.sol\":7057:7065  return 3 */\n      swap1\n      pop\n      jump(tag_244)\n        /* \"contracts/Lottery.sol\":7033:7065  if (LotteryNum >= 1024) return 3 */\n    tag_253:\n        /* \"contracts/Lottery.sol\":7093:7096  256 */\n      0x0100\n        /* \"contracts/Lottery.sol\":7079:7089  LotteryNum */\n      dup3\n        /* \"contracts/Lottery.sol\":7079:7096  LotteryNum >= 256 */\n      0xffffffff\n      and\n      lt\n        /* \"contracts/Lottery.sol\":7075:7170  if (LotteryNum >= 256) {... */\n      tag_254\n      jumpi\n        /* \"contracts/Lottery.sol\":7119:7120  2 */\n      0x02\n        /* \"contracts/Lottery.sol\":7112:7120  return 2 */\n      swap1\n      pop\n      jump(tag_244)\n        /* \"contracts/Lottery.sol\":7075:7170  if (LotteryNum >= 256) {... */\n    tag_254:\n        /* \"contracts/Lottery.sol\":7158:7159  1 */\n      0x01\n        /* \"contracts/Lottery.sol\":7151:7159  return 1 */\n      swap1\n      pop\n        /* \"contracts/Lottery.sol\":6594:7176  function GetWinninggrade(uint32 LotteryNum) private pure returns (uint256) {... */\n    tag_244:\n      swap2\n      swap1\n      pop\n      jump\t// out\n        /* \"contracts/Lottery.sol\":7226:7831  function GetWinningmultiple(uint256 winninginfo)... */\n    tag_136:\n        /* \"contracts/Lottery.sol\":7321:7328  uint256 */\n      0x00\n        /* \"contracts/Lottery.sol\":7363:7364  0 */\n      dup1\n        /* \"contracts/Lottery.sol\":7348:7359  winninginfo */\n      dup3\n        /* \"contracts/Lottery.sol\":7348:7364  winninginfo == 0 */\n      sub\n        /* \"contracts/Lottery.sol\":7344:7374  if (winninginfo == 0) return 0 */\n      tag_257\n      jumpi\n        /* \"contracts/Lottery.sol\":7373:7374  0 */\n      0x00\n        /* \"contracts/Lottery.sol\":7366:7374  return 0 */\n      swap1\n      pop\n      jump(tag_256)\n        /* \"contracts/Lottery.sol\":7344:7374  if (winninginfo == 0) return 0 */\n    tag_257:\n        /* \"contracts/Lottery.sol\":7403:7405  10 */\n      0x0a\n        /* \"contracts/Lottery.sol\":7388:7399  winninginfo */\n      dup3\n        /* \"contracts/Lottery.sol\":7388:7405  winninginfo == 10 */\n      sub\n        /* \"contracts/Lottery.sol\":7384:7415  if (winninginfo == 10) return 5 */\n      tag_258\n      jumpi\n        /* \"contracts/Lottery.sol\":7414:7415  5 */\n      0x05\n        /* \"contracts/Lottery.sol\":7407:7415  return 5 */\n      swap1\n      pop\n      jump(tag_256)\n        /* \"contracts/Lottery.sol\":7384:7415  if (winninginfo == 10) return 5 */\n    tag_258:\n        /* \"contracts/Lottery.sol\":7444:7445  9 */\n      0x09\n        /* \"contracts/Lottery.sol\":7429:7440  winninginfo */\n      dup3\n        /* \"contracts/Lottery.sol\":7429:7445  winninginfo == 9 */\n      sub\n        /* \"contracts/Lottery.sol\":7425:7456  if (winninginfo == 9) return 20 */\n      tag_259\n      jumpi\n        /* \"contracts/Lottery.sol\":7454:7456  20 */\n      0x14\n        /* \"contracts/Lottery.sol\":7447:7456  return 20 */\n      swap1\n      pop\n      jump(tag_256)\n        /* \"contracts/Lottery.sol\":7425:7456  if (winninginfo == 9) return 20 */\n    tag_259:\n        /* \"contracts/Lottery.sol\":7485:7486  8 */\n      0x08\n        /* \"contracts/Lottery.sol\":7470:7481  winninginfo */\n      dup3\n        /* \"contracts/Lottery.sol\":7470:7486  winninginfo == 8 */\n      sub\n        /* \"contracts/Lottery.sol\":7466:7497  if (winninginfo == 8) return 80 */\n      tag_260\n      jumpi\n        /* \"contracts/Lottery.sol\":7495:7497  80 */\n      0x50\n        /* \"contracts/Lottery.sol\":7488:7497  return 80 */\n      swap1\n      pop\n      jump(tag_256)\n        /* \"contracts/Lottery.sol\":7466:7497  if (winninginfo == 8) return 80 */\n    tag_260:\n        /* \"contracts/Lottery.sol\":7526:7527  7 */\n      0x07\n        /* \"contracts/Lottery.sol\":7511:7522  winninginfo */\n      dup3\n        /* \"contracts/Lottery.sol\":7511:7527  winninginfo == 7 */\n      sub\n        /* \"contracts/Lottery.sol\":7507:7539  if (winninginfo == 7) return 320 */\n      tag_261\n      jumpi\n        /* \"contracts/Lottery.sol\":7536:7539  320 */\n      0x0140\n        /* \"contracts/Lottery.sol\":7529:7539  return 320 */\n      swap1\n      pop\n      jump(tag_256)\n        /* \"contracts/Lottery.sol\":7507:7539  if (winninginfo == 7) return 320 */\n    tag_261:\n        /* \"contracts/Lottery.sol\":7568:7569  6 */\n      0x06\n        /* \"contracts/Lottery.sol\":7553:7564  winninginfo */\n      dup3\n        /* \"contracts/Lottery.sol\":7553:7569  winninginfo == 6 */\n      sub\n        /* \"contracts/Lottery.sol\":7549:7582  if (winninginfo == 6) return 1200 */\n      tag_262\n      jumpi\n        /* \"contracts/Lottery.sol\":7578:7582  1200 */\n      0x04b0\n        /* \"contracts/Lottery.sol\":7571:7582  return 1200 */\n      swap1\n      pop\n      jump(tag_256)\n        /* \"contracts/Lottery.sol\":7549:7582  if (winninginfo == 6) return 1200 */\n    tag_262:\n        /* \"contracts/Lottery.sol\":7611:7612  5 */\n      0x05\n        /* \"contracts/Lottery.sol\":7596:7607  winninginfo */\n      dup3\n        /* \"contracts/Lottery.sol\":7596:7612  winninginfo == 5 */\n      sub\n        /* \"contracts/Lottery.sol\":7592:7625  if (winninginfo == 5) return 4800 */\n      tag_263\n      jumpi\n        /* \"contracts/Lottery.sol\":7621:7625  4800 */\n      0x12c0\n        /* \"contracts/Lottery.sol\":7614:7625  return 4800 */\n      swap1\n      pop\n      jump(tag_256)\n        /* \"contracts/Lottery.sol\":7592:7625  if (winninginfo == 5) return 4800 */\n    tag_263:\n        /* \"contracts/Lottery.sol\":7654:7655  4 */\n      0x04\n        /* \"contracts/Lottery.sol\":7639:7650  winninginfo */\n      dup3\n        /* \"contracts/Lottery.sol\":7639:7655  winninginfo == 4 */\n      sub\n        /* \"contracts/Lottery.sol\":7635:7669  if (winninginfo == 4) return 20000 */\n      tag_264\n      jumpi\n        /* \"contracts/Lottery.sol\":7664:7669  20000 */\n      0x4e20\n        /* \"contracts/Lottery.sol\":7657:7669  return 20000 */\n      swap1\n      pop\n      jump(tag_256)\n        /* \"contracts/Lottery.sol\":7635:7669  if (winninginfo == 4) return 20000 */\n    tag_264:\n        /* \"contracts/Lottery.sol\":7698:7699  3 */\n      0x03\n        /* \"contracts/Lottery.sol\":7683:7694  winninginfo */\n      dup3\n        /* \"contracts/Lottery.sol\":7683:7699  winninginfo == 3 */\n      sub\n        /* \"contracts/Lottery.sol\":7679:7714  if (winninginfo == 3) return 100000 */\n      tag_265\n      jumpi\n        /* \"contracts/Lottery.sol\":7708:7714  100000 */\n      0x0186a0\n        /* \"contracts/Lottery.sol\":7701:7714  return 100000 */\n      swap1\n      pop\n      jump(tag_256)\n        /* \"contracts/Lottery.sol\":7679:7714  if (winninginfo == 3) return 100000 */\n    tag_265:\n        /* \"contracts/Lottery.sol\":7743:7744  2 */\n      0x02\n        /* \"contracts/Lottery.sol\":7728:7739  winninginfo */\n      dup3\n        /* \"contracts/Lottery.sol\":7728:7744  winninginfo == 2 */\n      sub\n        /* \"contracts/Lottery.sol\":7724:7759  if (winninginfo == 2) return 500000 */\n      tag_266\n      jumpi\n        /* \"contracts/Lottery.sol\":7753:7759  500000 */\n      0x07a120\n        /* \"contracts/Lottery.sol\":7746:7759  return 500000 */\n      swap1\n      pop\n      jump(tag_256)\n        /* \"contracts/Lottery.sol\":7724:7759  if (winninginfo == 2) return 500000 */\n    tag_266:\n        /* \"contracts/Lottery.sol\":7788:7789  1 */\n      0x01\n        /* \"contracts/Lottery.sol\":7773:7784  winninginfo */\n      dup3\n        /* \"contracts/Lottery.sol\":7773:7789  winninginfo == 1 */\n      sub\n        /* \"contracts/Lottery.sol\":7769:7805  if (winninginfo == 1) return 2000000 */\n      tag_267\n      jumpi\n        /* \"contracts/Lottery.sol\":7798:7805  2000000 */\n      0x1e8480\n        /* \"contracts/Lottery.sol\":7791:7805  return 2000000 */\n      swap1\n      pop\n      jump(tag_256)\n        /* \"contracts/Lottery.sol\":7769:7805  if (winninginfo == 1) return 2000000 */\n    tag_267:\n        /* \"contracts/Lottery.sol\":7823:7824  0 */\n      0x00\n        /* \"contracts/Lottery.sol\":7816:7824  return 0 */\n      swap1\n      pop\n        /* \"contracts/Lottery.sol\":7226:7831  function GetWinningmultiple(uint256 winninginfo)... */\n    tag_256:\n      swap2\n      swap1\n      pop\n      jump\t// out\n    tag_113:\n      pop\n      dup1\n      sload\n      0x00\n      dup3\n      sstore\n      swap1\n      0x00\n      mstore\n      keccak256(0x00, 0x20)\n      swap1\n      dup2\n      add\n      swap1\n      tag_269\n      swap2\n      swap1\n      tag_270\n      jump\t// in\n    tag_269:\n      pop\n      jump\t// out\n    tag_150:\n      pop\n      dup1\n      sload\n      0x00\n      dup3\n      sstore\n      0x02\n      mul\n      swap1\n      0x00\n      mstore\n      keccak256(0x00, 0x20)\n      swap1\n      dup2\n      add\n      swap1\n      tag_272\n      swap2\n      swap1\n      tag_273\n      jump\t// in\n    tag_272:\n      pop\n      jump\t// out\n    tag_270:\n    tag_274:\n      dup1\n      dup3\n      gt\n      iszero\n      tag_275\n      jumpi\n      0x00\n      dup1\n      dup3\n      add\n      exp(0x0100, 0x00)\n      dup2\n      sload\n      swap1\n      0xffffffff\n      mul\n      not\n      and\n      swap1\n      sstore\n      0x00\n      dup3\n      add\n      exp(0x0100, 0x04)\n      dup2\n      sload\n      swap1\n      0xff\n      mul\n      not\n      and\n      swap1\n      sstore\n      pop\n      0x01\n      add\n      jump(tag_274)\n    tag_275:\n      pop\n      swap1\n      jump\t// out\n    tag_273:\n    tag_276:\n      dup1\n      dup3\n      gt\n      iszero\n      tag_277\n      jumpi\n      0x00\n      dup1\n      dup3\n      add\n      0x00\n      swap1\n      sstore\n      0x01\n      dup3\n      add\n      exp(0x0100, 0x00)\n      dup2\n      sload\n      swap1\n      0xff\n      mul\n      not\n      and\n      swap1\n      sstore\n      0x01\n      dup3\n      add\n      exp(0x0100, 0x01)\n      dup2\n      sload\n      swap1\n      0xffffffffffffffffffffffffffffffffffffffffffffffffffffffffffffff\n      mul\n      not\n      and\n      swap1\n      sstore\n      pop\n      0x02\n      add\n      jump(tag_276)\n    tag_277:\n      pop\n      swap1\n      jump\t// out\n        /* \"#utility.yul\":7:133   */\n    tag_278:\n        /* \"#utility.yul\":44:51   */\n      0x00\n        /* \"#utility.yul\":84:126   */\n      0xffffffffffffffffffffffffffffffffffffffff\n        /* \"#utility.yul\":77:82   */\n      dup3\n        /* \"#utility.yul\":73:127   */\n      and\n        /* \"#utility.yul\":62:127   */\n      swap1\n      pop\n        /* \"#utility.yul\":7:133   */\n      swap2\n      swap1\n      pop\n      jump\t// out\n        /* \"#utility.yul\":139:235   */\n    tag_279:\n        /* \"#utility.yul\":176:183   */\n      0x00\n        /* \"#utility.yul\":205:229   */\n      tag_344\n        /* \"#utility.yul\":223:228   */\n      dup3\n        /* \"#utility.yul\":205:229   */\n      tag_278\n      jump\t// in\n    tag_344:\n        /* \"#utility.yul\":194:229   */\n      swap1\n      pop\n        /* \"#utility.yul\":139:235   */\n      swap2\n      swap1\n      pop\n      jump\t// out\n        /* \"#utility.yul\":241:359   */\n    tag_280:\n        /* \"#utility.yul\":328:352   */\n      tag_346\n        /* \"#utility.yul\":346:351   */\n      dup2\n        /* \"#utility.yul\":328:352   */\n      tag_279\n      jump\t// in\n    tag_346:\n        /* \"#utility.yul\":323:326   */\n      dup3\n        /* \"#utility.yul\":316:353   */\n      mstore\n        /* \"#utility.yul\":241:359   */\n      pop\n      pop\n      jump\t// out\n        /* \"#utility.yul\":365:587   */\n    tag_24:\n        /* \"#utility.yul\":458:462   */\n      0x00\n        /* \"#utility.yul\":496:498   */\n      0x20\n        /* \"#utility.yul\":485:494   */\n      dup3\n        /* \"#utility.yul\":481:499   */\n      add\n        /* \"#utility.yul\":473:499   */\n      swap1\n      pop\n        /* \"#utility.yul\":509:580   */\n      tag_348\n        /* \"#utility.yul\":577:578   */\n      0x00\n        /* \"#utility.yul\":566:575   */\n      dup4\n        /* \"#utility.yul\":562:579   */\n      add\n        /* \"#utility.yul\":553:559   */\n      dup5\n        /* \"#utility.yul\":509:580   */\n      tag_280\n      jump\t// in\n    tag_348:\n        /* \"#utility.yul\":365:587   */\n      swap3\n      swap2\n      pop\n      pop\n      jump\t// out\n        /* \"#utility.yul\":593:670   */\n    tag_281:\n        /* \"#utility.yul\":630:637   */\n      0x00\n        /* \"#utility.yul\":659:664   */\n      dup2\n        /* \"#utility.yul\":648:664   */\n      swap1\n      pop\n        /* \"#utility.yul\":593:670   */\n      swap2\n      swap1\n      pop\n      jump\t// out\n        /* \"#utility.yul\":676:794   */\n    tag_282:\n        /* \"#utility.yul\":763:787   */\n      tag_351\n        /* \"#utility.yul\":781:786   */\n      dup2\n        /* \"#utility.yul\":763:787   */\n      tag_281\n      jump\t// in\n    tag_351:\n        /* \"#utility.yul\":758:761   */\n      dup3\n        /* \"#utility.yul\":751:788   */\n      mstore\n        /* \"#utility.yul\":676:794   */\n      pop\n      pop\n      jump\t// out\n        /* \"#utility.yul\":800:1022   */\n    tag_29:\n        /* \"#utility.yul\":893:897   */\n      0x00\n        /* \"#utility.yul\":931:933   */\n      0x20\n        /* \"#utility.yul\":920:929   */\n      dup3\n        /* \"#utility.yul\":916:934   */\n      add\n        /* \"#utility.yul\":908:934   */\n      swap1\n      pop\n        /* \"#utility.yul\":944:1015   */\n      tag_353\n        /* \"#utility.yul\":1012:1013   */\n      0x00\n        /* \"#utility.yul\":1001:1010   */\n      dup4\n        /* \"#utility.yul\":997:1014   */\n      add\n        /* \"#utility.yul\":988:994   */\n      dup5\n        /* \"#utility.yul\":944:1015   */\n      tag_282\n      jump\t// in\n    tag_353:\n        /* \"#utility.yul\":800:1022   */\n      swap3\n      swap2\n      pop\n      pop\n      jump\t// out\n        /* \"#utility.yul\":1109:1226   */\n    tag_284:\n        /* \"#utility.yul\":1218:1219   */\n      0x00\n        /* \"#utility.yul\":1215:1216   */\n      dup1\n        /* \"#utility.yul\":1208:1220   */\n      revert\n        /* \"#utility.yul\":1355:1444   */\n    tag_286:\n        /* \"#utility.yul\":1391:1398   */\n      0x00\n        /* \"#utility.yul\":1431:1437   */\n      0xffff\n        /* \"#utility.yul\":1424:1429   */\n      dup3\n        /* \"#utility.yul\":1420:1438   */\n      and\n        /* \"#utility.yul\":1409:1438   */\n      swap1\n      pop\n        /* \"#utility.yul\":1355:1444   */\n      swap2\n      swap1\n      pop\n      jump\t// out\n        /* \"#utility.yul\":1450:1570   */\n    tag_287:\n        /* \"#utility.yul\":1522:1545   */\n      tag_359\n        /* \"#utility.yul\":1539:1544   */\n      dup2\n        /* \"#utility.yul\":1522:1545   */\n      tag_286\n      jump\t// in\n    tag_359:\n        /* \"#utility.yul\":1515:1520   */\n      dup2\n        /* \"#utility.yul\":1512:1546   */\n      eq\n        /* \"#utility.yul\":1502:1564   */\n      tag_360\n      jumpi\n        /* \"#utility.yul\":1560:1561   */\n      0x00\n        /* \"#utility.yul\":1557:1558   */\n      dup1\n        /* \"#utility.yul\":1550:1562   */\n      revert\n        /* \"#utility.yul\":1502:1564   */\n    tag_360:\n        /* \"#utility.yul\":1450:1570   */\n      pop\n      jump\t// out\n        /* \"#utility.yul\":1576:1713   */\n    tag_288:\n        /* \"#utility.yul\":1621:1626   */\n      0x00\n        /* \"#utility.yul\":1659:1665   */\n      dup2\n        /* \"#utility.yul\":1646:1666   */\n      calldataload\n        /* \"#utility.yul\":1637:1666   */\n      swap1\n      pop\n        /* \"#utility.yul\":1675:1707   */\n      tag_362\n        /* \"#utility.yul\":1701:1706   */\n      dup2\n        /* \"#utility.yul\":1675:1707   */\n      tag_287\n      jump\t// in\n    tag_362:\n        /* \"#utility.yul\":1576:1713   */\n      swap3\n      swap2\n      pop\n      pop\n      jump\t// out\n        /* \"#utility.yul\":1719:1805   */\n    tag_289:\n        /* \"#utility.yul\":1754:1761   */\n      0x00\n        /* \"#utility.yul\":1794:1798   */\n      0xff\n        /* \"#utility.yul\":1787:1792   */\n      dup3\n        /* \"#utility.yul\":1783:1799   */\n      and\n        /* \"#utility.yul\":1772:1799   */\n      swap1\n      pop\n        /* \"#utility.yul\":1719:1805   */\n      swap2\n      swap1\n      pop\n      jump\t// out\n        /* \"#utility.yul\":1811:1929   */\n    tag_290:\n        /* \"#utility.yul\":1882:1904   */\n      tag_365\n        /* \"#utility.yul\":1898:1903   */\n      dup2\n        /* \"#utility.yul\":1882:1904   */\n      tag_289\n      jump\t// in\n    tag_365:\n        /* \"#utility.yul\":1875:1880   */\n      dup2\n        /* \"#utility.yul\":1872:1905   */\n      eq\n        /* \"#utility.yul\":1862:1923   */\n      tag_366\n      jumpi\n        /* \"#utility.yul\":1919:1920   */\n      0x00\n        /* \"#utility.yul\":1916:1917   */\n      dup1\n        /* \"#utility.yul\":1909:1921   */\n      revert\n        /* \"#utility.yul\":1862:1923   */\n    tag_366:\n        /* \"#utility.yul\":1811:1929   */\n      pop\n      jump\t// out\n        /* \"#utility.yul\":1935:2070   */\n    tag_291:\n        /* \"#utility.yul\":1979:1984   */\n      0x00\n        /* \"#utility.yul\":2017:2023   */\n      dup2\n        /* \"#utility.yul\":2004:2024   */\n      calldataload\n        /* \"#utility.yul\":1995:2024   */\n      swap1\n      pop\n        /* \"#utility.yul\":2033:2064   */\n      tag_368\n        /* \"#utility.yul\":2058:2063   */\n      dup2\n        /* \"#utility.yul\":2033:2064   */\n      tag_290\n      jump\t// in\n    tag_368:\n        /* \"#utility.yul\":1935:2070   */\n      swap3\n      swap2\n      pop\n      pop\n      jump\t// out\n        /* \"#utility.yul\":2076:2220   */\n    tag_292:\n        /* \"#utility.yul\":2113:2120   */\n      0x00\n        /* \"#utility.yul\":2153:2213   */\n      0xffffffffffffffffffffffffffffffffffffffffffffffffffffffffff\n        /* \"#utility.yul\":2146:2151   */\n      dup3\n        /* \"#utility.yul\":2142:2214   */\n      and\n        /* \"#utility.yul\":2131:2214   */\n      swap1\n      pop\n        /* \"#utility.yul\":2076:2220   */\n      swap2\n      swap1\n      pop\n      jump\t// out\n        /* \"#utility.yul\":2226:2348   */\n    tag_293:\n        /* \"#utility.yul\":2299:2323   */\n      tag_371\n        /* \"#utility.yul\":2317:2322   */\n      dup2\n        /* \"#utility.yul\":2299:2323   */\n      tag_292\n      jump\t// in\n    tag_371:\n        /* \"#utility.yul\":2292:2297   */\n      dup2\n        /* \"#utility.yul\":2289:2324   */\n      eq\n        /* \"#utility.yul\":2279:2342   */\n      tag_372\n      jumpi\n        /* \"#utility.yul\":2338:2339   */\n      0x00\n        /* \"#utility.yul\":2335:2336   */\n      dup1\n        /* \"#utility.yul\":2328:2340   */\n      revert\n        /* \"#utility.yul\":2279:2342   */\n    tag_372:\n        /* \"#utility.yul\":2226:2348   */\n      pop\n      jump\t// out\n        /* \"#utility.yul\":2354:2493   */\n    tag_294:\n        /* \"#utility.yul\":2400:2405   */\n      0x00\n        /* \"#utility.yul\":2438:2444   */\n      dup2\n        /* \"#utility.yul\":2425:2445   */\n      calldataload\n        /* \"#utility.yul\":2416:2445   */\n      swap1\n      pop\n        /* \"#utility.yul\":2454:2487   */\n      tag_374\n        /* \"#utility.yul\":2481:2486   */\n      dup2\n        /* \"#utility.yul\":2454:2487   */\n      tag_293\n      jump\t// in\n    tag_374:\n        /* \"#utility.yul\":2354:2493   */\n      swap3\n      swap2\n      pop\n      pop\n      jump\t// out\n        /* \"#utility.yul\":2499:2621   */\n    tag_295:\n        /* \"#utility.yul\":2572:2596   */\n      tag_376\n        /* \"#utility.yul\":2590:2595   */\n      dup2\n        /* \"#utility.yul\":2572:2596   */\n      tag_279\n      jump\t// in\n    tag_376:\n        /* \"#utility.yul\":2565:2570   */\n      dup2\n        /* \"#utility.yul\":2562:2597   */\n      eq\n        /* \"#utility.yul\":2552:2615   */\n      tag_377\n      jumpi\n        /* \"#utility.yul\":2611:2612   */\n      0x00\n        /* \"#utility.yul\":2608:2609   */\n      dup1\n        /* \"#utility.yul\":2601:2613   */\n      revert\n        /* \"#utility.yul\":2552:2615   */\n    tag_377:\n        /* \"#utility.yul\":2499:2621   */\n      pop\n      jump\t// out\n        /* \"#utility.yul\":2627:2766   */\n    tag_296:\n        /* \"#utility.yul\":2673:2678   */\n      0x00\n        /* \"#utility.yul\":2711:2717   */\n      dup2\n        /* \"#utility.yul\":2698:2718   */\n      calldataload\n        /* \"#utility.yul\":2689:2718   */\n      swap1\n      pop\n        /* \"#utility.yul\":2727:2760   */\n      tag_379\n        /* \"#utility.yul\":2754:2759   */\n      dup2\n        /* \"#utility.yul\":2727:2760   */\n      tag_295\n      jump\t// in\n    tag_379:\n        /* \"#utility.yul\":2627:2766   */\n      swap3\n      swap2\n      pop\n      pop\n      jump\t// out\n        /* \"#utility.yul\":2772:3531   */\n    tag_36:\n        /* \"#utility.yul\":2855:2861   */\n      0x00\n        /* \"#utility.yul\":2863:2869   */\n      dup1\n        /* \"#utility.yul\":2871:2877   */\n      0x00\n        /* \"#utility.yul\":2879:2885   */\n      dup1\n        /* \"#utility.yul\":2928:2931   */\n      0x80\n        /* \"#utility.yul\":2916:2925   */\n      dup6\n        /* \"#utility.yul\":2907:2914   */\n      dup8\n        /* \"#utility.yul\":2903:2926   */\n      sub\n        /* \"#utility.yul\":2899:2932   */\n      slt\n        /* \"#utility.yul\":2896:3016   */\n      iszero\n      tag_381\n      jumpi\n        /* \"#utility.yul\":2935:3014   */\n      tag_382\n      tag_284\n      jump\t// in\n    tag_382:\n        /* \"#utility.yul\":2896:3016   */\n    tag_381:\n        /* \"#utility.yul\":3055:3056   */\n      0x00\n        /* \"#utility.yul\":3080:3132   */\n      tag_383\n        /* \"#utility.yul\":3124:3131   */\n      dup8\n        /* \"#utility.yul\":3115:3121   */\n      dup3\n        /* \"#utility.yul\":3104:3113   */\n      dup9\n        /* \"#utility.yul\":3100:3122   */\n      add\n        /* \"#utility.yul\":3080:3132   */\n      tag_288\n      jump\t// in\n    tag_383:\n        /* \"#utility.yul\":3070:3132   */\n      swap5\n      pop\n        /* \"#utility.yul\":3026:3142   */\n      pop\n        /* \"#utility.yul\":3181:3183   */\n      0x20\n        /* \"#utility.yul\":3207:3258   */\n      tag_384\n        /* \"#utility.yul\":3250:3257   */\n      dup8\n        /* \"#utility.yul\":3241:3247   */\n      dup3\n        /* \"#utility.yul\":3230:3239   */\n      dup9\n        /* \"#utility.yul\":3226:3248   */\n      add\n        /* \"#utility.yul\":3207:3258   */\n      tag_291\n      jump\t// in\n    tag_384:\n        /* \"#utility.yul\":3197:3258   */\n      swap4\n      pop\n        /* \"#utility.yul\":3152:3268   */\n      pop\n        /* \"#utility.yul\":3307:3309   */\n      0x40\n        /* \"#utility.yul\":3333:3386   */\n      tag_385\n        /* \"#utility.yul\":3378:3385   */\n      dup8\n        /* \"#utility.yul\":3369:3375   */\n      dup3\n        /* \"#utility.yul\":3358:3367   */\n      dup9\n        /* \"#utility.yul\":3354:3376   */\n      add\n        /* \"#utility.yul\":3333:3386   */\n      tag_294\n      jump\t// in\n    tag_385:\n        /* \"#utility.yul\":3323:3386   */\n      swap3\n      pop\n        /* \"#utility.yul\":3278:3396   */\n      pop\n        /* \"#utility.yul\":3435:3437   */\n      0x60\n        /* \"#utility.yul\":3461:3514   */\n      tag_386\n        /* \"#utility.yul\":3506:3513   */\n      dup8\n        /* \"#utility.yul\":3497:3503   */\n      dup3\n        /* \"#utility.yul\":3486:3495   */\n      dup9\n        /* \"#utility.yul\":3482:3504   */\n      add\n        /* \"#utility.yul\":3461:3514   */\n      tag_296\n      jump\t// in\n    tag_386:\n        /* \"#utility.yul\":3451:3514   */\n      swap2\n      pop\n        /* \"#utility.yul\":3406:3524   */\n      pop\n        /* \"#utility.yul\":2772:3531   */\n      swap3\n      swap6\n      swap2\n      swap5\n      pop\n      swap3\n      pop\n      jump\t// out\n        /* \"#utility.yul\":3537:3659   */\n    tag_297:\n        /* \"#utility.yul\":3610:3634   */\n      tag_388\n        /* \"#utility.yul\":3628:3633   */\n      dup2\n        /* \"#utility.yul\":3610:3634   */\n      tag_281\n      jump\t// in\n    tag_388:\n        /* \"#utility.yul\":3603:3608   */\n      dup2\n        /* \"#utility.yul\":3600:3635   */\n      eq\n        /* \"#utility.yul\":3590:3653   */\n      tag_389\n      jumpi\n        /* \"#utility.yul\":3649:3650   */\n      0x00\n        /* \"#utility.yul\":3646:3647   */\n      dup1\n        /* \"#utility.yul\":3639:3651   */\n      revert\n        /* \"#utility.yul\":3590:3653   */\n    tag_389:\n        /* \"#utility.yul\":3537:3659   */\n      pop\n      jump\t// out\n        /* \"#utility.yul\":3665:3804   */\n    tag_298:\n        /* \"#utility.yul\":3711:3716   */\n      0x00\n        /* \"#utility.yul\":3749:3755   */\n      dup2\n        /* \"#utility.yul\":3736:3756   */\n      calldataload\n        /* \"#utility.yul\":3727:3756   */\n      swap1\n      pop\n        /* \"#utility.yul\":3765:3798   */\n      tag_391\n        /* \"#utility.yul\":3792:3797   */\n      dup2\n        /* \"#utility.yul\":3765:3798   */\n      tag_297\n      jump\t// in\n    tag_391:\n        /* \"#utility.yul\":3665:3804   */\n      swap3\n      swap2\n      pop\n      pop\n      jump\t// out\n        /* \"#utility.yul\":3810:4139   */\n    tag_45:\n        /* \"#utility.yul\":3869:3875   */\n      0x00\n        /* \"#utility.yul\":3918:3920   */\n      0x20\n        /* \"#utility.yul\":3906:3915   */\n      dup3\n        /* \"#utility.yul\":3897:3904   */\n      dup5\n        /* \"#utility.yul\":3893:3916   */\n      sub\n        /* \"#utility.yul\":3889:3921   */\n      slt\n        /* \"#utility.yul\":3886:4005   */\n      iszero\n      tag_393\n      jumpi\n        /* \"#utility.yul\":3924:4003   */\n      tag_394\n      tag_284\n      jump\t// in\n    tag_394:\n        /* \"#utility.yul\":3886:4005   */\n    tag_393:\n        /* \"#utility.yul\":4044:4045   */\n      0x00\n        /* \"#utility.yul\":4069:4122   */\n      tag_395\n        /* \"#utility.yul\":4114:4121   */\n      dup5\n        /* \"#utility.yul\":4105:4111   */\n      dup3\n        /* \"#utility.yul\":4094:4103   */\n      dup6\n        /* \"#utility.yul\":4090:4112   */\n      add\n        /* \"#utility.yul\":4069:4122   */\n      tag_298\n      jump\t// in\n    tag_395:\n        /* \"#utility.yul\":4059:4122   */\n      swap2\n      pop\n        /* \"#utility.yul\":4015:4132   */\n      pop\n        /* \"#utility.yul\":3810:4139   */\n      swap3\n      swap2\n      pop\n      pop\n      jump\t// out\n        /* \"#utility.yul\":4145:4314   */\n    tag_299:\n        /* \"#utility.yul\":4229:4240   */\n      0x00\n        /* \"#utility.yul\":4263:4269   */\n      dup3\n        /* \"#utility.yul\":4258:4261   */\n      dup3\n        /* \"#utility.yul\":4251:4270   */\n      mstore\n        /* \"#utility.yul\":4303:4307   */\n      0x20\n        /* \"#utility.yul\":4298:4301   */\n      dup3\n        /* \"#utility.yul\":4294:4308   */\n      add\n        /* \"#utility.yul\":4279:4308   */\n      swap1\n      pop\n        /* \"#utility.yul\":4145:4314   */\n      swap3\n      swap2\n      pop\n      pop\n      jump\t// out\n        /* \"#utility.yul\":4320:4492   */\n    tag_300:\n        /* \"#utility.yul\":4460:4484   */\n      0x596f75206d757374206265206120696e766573746f7200000000000000000000\n        /* \"#utility.yul\":4456:4457   */\n      0x00\n        /* \"#utility.yul\":4448:4454   */\n      dup3\n        /* \"#utility.yul\":4444:4458   */\n      add\n        /* \"#utility.yul\":4437:4485   */\n      mstore\n        /* \"#utility.yul\":4320:4492   */\n      pop\n      jump\t// out\n        /* \"#utility.yul\":4498:4864   */\n    tag_301:\n        /* \"#utility.yul\":4640:4643   */\n      0x00\n        /* \"#utility.yul\":4661:4728   */\n      tag_399\n        /* \"#utility.yul\":4725:4727   */\n      0x16\n        /* \"#utility.yul\":4720:4723   */\n      dup4\n        /* \"#utility.yul\":4661:4728   */\n      tag_299\n      jump\t// in\n    tag_399:\n        /* \"#utility.yul\":4654:4728   */\n      swap2\n      pop\n        /* \"#utility.yul\":4737:4830   */\n      tag_400\n        /* \"#utility.yul\":4826:4829   */\n      dup3\n        /* \"#utility.yul\":4737:4830   */\n      tag_300\n      jump\t// in\n    tag_400:\n        /* \"#utility.yul\":4855:4857   */\n      0x20\n        /* \"#utility.yul\":4850:4853   */\n      dup3\n        /* \"#utility.yul\":4846:4858   */\n      add\n        /* \"#utility.yul\":4839:4858   */\n      swap1\n      pop\n        /* \"#utility.yul\":4498:4864   */\n      swap2\n      swap1\n      pop\n      jump\t// out\n        /* \"#utility.yul\":4870:5289   */\n    tag_51:\n        /* \"#utility.yul\":5036:5040   */\n      0x00\n        /* \"#utility.yul\":5074:5076   */\n      0x20\n        /* \"#utility.yul\":5063:5072   */\n      dup3\n        /* \"#utility.yul\":5059:5077   */\n      add\n        /* \"#utility.yul\":5051:5077   */\n      swap1\n      pop\n        /* \"#utility.yul\":5123:5132   */\n      dup2\n        /* \"#utility.yul\":5117:5121   */\n      dup2\n        /* \"#utility.yul\":5113:5133   */\n      sub\n        /* \"#utility.yul\":5109:5110   */\n      0x00\n        /* \"#utility.yul\":5098:5107   */\n      dup4\n        /* \"#utility.yul\":5094:5111   */\n      add\n        /* \"#utility.yul\":5087:5134   */\n      mstore\n        /* \"#utility.yul\":5151:5282   */\n      tag_402\n        /* \"#utility.yul\":5277:5281   */\n      dup2\n        /* \"#utility.yul\":5151:5282   */\n      tag_301\n      jump\t// in\n    tag_402:\n        /* \"#utility.yul\":5143:5282   */\n      swap1\n      pop\n        /* \"#utility.yul\":4870:5289   */\n      swap2\n      swap1\n      pop\n      jump\t// out\n        /* \"#utility.yul\":5295:5475   */\n    tag_302:\n        /* \"#utility.yul\":5343:5420   */\n      0x4e487b7100000000000000000000000000000000000000000000000000000000\n        /* \"#utility.yul\":5340:5341   */\n      0x00\n        /* \"#utility.yul\":5333:5421   */\n      mstore\n        /* \"#utility.yul\":5440:5444   */\n      0x11\n        /* \"#utility.yul\":5437:5438   */\n      0x04\n        /* \"#utility.yul\":5430:5445   */\n      mstore\n        /* \"#utility.yul\":5464:5468   */\n      0x24\n        /* \"#utility.yul\":5461:5462   */\n      0x00\n        /* \"#utility.yul\":5454:5469   */\n      revert\n        /* \"#utility.yul\":5481:5672   */\n    tag_54:\n        /* \"#utility.yul\":5521:5524   */\n      0x00\n        /* \"#utility.yul\":5540:5560   */\n      tag_405\n        /* \"#utility.yul\":5558:5559   */\n      dup3\n        /* \"#utility.yul\":5540:5560   */\n      tag_281\n      jump\t// in\n    tag_405:\n        /* \"#utility.yul\":5535:5560   */\n      swap2\n      pop\n        /* \"#utility.yul\":5574:5594   */\n      tag_406\n        /* \"#utility.yul\":5592:5593   */\n      dup4\n        /* \"#utility.yul\":5574:5594   */\n      tag_281\n      jump\t// in\n    tag_406:\n        /* \"#utility.yul\":5569:5594   */\n      swap3\n      pop\n        /* \"#utility.yul\":5617:5618   */\n      dup3\n        /* \"#utility.yul\":5614:5615   */\n      dup3\n        /* \"#utility.yul\":5610:5619   */\n      add\n        /* \"#utility.yul\":5603:5619   */\n      swap1\n      pop\n        /* \"#utility.yul\":5638:5641   */\n      dup1\n        /* \"#utility.yul\":5635:5636   */\n      dup3\n        /* \"#utility.yul\":5632:5642   */\n      gt\n        /* \"#utility.yul\":5629:5665   */\n      iszero\n      tag_407\n      jumpi\n        /* \"#utility.yul\":5645:5663   */\n      tag_408\n      tag_302\n      jump\t// in\n    tag_408:\n        /* \"#utility.yul\":5629:5665   */\n    tag_407:\n        /* \"#utility.yul\":5481:5672   */\n      swap3\n      swap2\n      pop\n      pop\n      jump\t// out\n        /* \"#utility.yul\":5678:5858   */\n    tag_303:\n        /* \"#utility.yul\":5726:5803   */\n      0x4e487b7100000000000000000000000000000000000000000000000000000000\n        /* \"#utility.yul\":5723:5724   */\n      0x00\n        /* \"#utility.yul\":5716:5804   */\n      mstore\n        /* \"#utility.yul\":5823:5827   */\n      0x12\n        /* \"#utility.yul\":5820:5821   */\n      0x04\n        /* \"#utility.yul\":5813:5828   */\n      mstore\n        /* \"#utility.yul\":5847:5851   */\n      0x24\n        /* \"#utility.yul\":5844:5845   */\n      0x00\n        /* \"#utility.yul\":5837:5852   */\n      revert\n        /* \"#utility.yul\":5864:6049   */\n    tag_59:\n        /* \"#utility.yul\":5904:5905   */\n      0x00\n        /* \"#utility.yul\":5921:5941   */\n      tag_411\n        /* \"#utility.yul\":5939:5940   */\n      dup3\n        /* \"#utility.yul\":5921:5941   */\n      tag_281\n      jump\t// in\n    tag_411:\n        /* \"#utility.yul\":5916:5941   */\n      swap2\n      pop\n        /* \"#utility.yul\":5955:5975   */\n      tag_412\n        /* \"#utility.yul\":5973:5974   */\n      dup4\n        /* \"#utility.yul\":5955:5975   */\n      tag_281\n      jump\t// in\n    tag_412:\n        /* \"#utility.yul\":5950:5975   */\n      swap3\n      pop\n        /* \"#utility.yul\":5994:5995   */\n      dup3\n        /* \"#utility.yul\":5984:6019   */\n      tag_413\n      jumpi\n        /* \"#utility.yul\":5999:6017   */\n      tag_414\n      tag_303\n      jump\t// in\n    tag_414:\n        /* \"#utility.yul\":5984:6019   */\n    tag_413:\n        /* \"#utility.yul\":6041:6042   */\n      dup3\n        /* \"#utility.yul\":6038:6039   */\n      dup3\n        /* \"#utility.yul\":6034:6043   */\n      div\n        /* \"#utility.yul\":6029:6043   */\n      swap1\n      pop\n        /* \"#utility.yul\":5864:6049   */\n      swap3\n      swap2\n      pop\n      pop\n      jump\t// out\n        /* \"#utility.yul\":6055:6235   */\n    tag_68:\n        /* \"#utility.yul\":6103:6180   */\n      0x4e487b7100000000000000000000000000000000000000000000000000000000\n        /* \"#utility.yul\":6100:6101   */\n      0x00\n        /* \"#utility.yul\":6093:6181   */\n      mstore\n        /* \"#utility.yul\":6200:6204   */\n      0x32\n        /* \"#utility.yul\":6197:6198   */\n      0x04\n        /* \"#utility.yul\":6190:6205   */\n      mstore\n        /* \"#utility.yul\":6224:6228   */\n      0x24\n        /* \"#utility.yul\":6221:6222   */\n      0x00\n        /* \"#utility.yul\":6214:6229   */\n      revert\n        /* \"#utility.yul\":6241:6465   */\n    tag_304:\n        /* \"#utility.yul\":6381:6415   */\n      0x496e766573746d656e7420616d6f756e7420626574657765656e203120616e64\n        /* \"#utility.yul\":6377:6378   */\n      0x00\n        /* \"#utility.yul\":6369:6375   */\n      dup3\n        /* \"#utility.yul\":6365:6379   */\n      add\n        /* \"#utility.yul\":6358:6416   */\n      mstore\n        /* \"#utility.yul\":6450:6457   */\n      0x2031303030000000000000000000000000000000000000000000000000000000\n        /* \"#utility.yul\":6445:6447   */\n      0x20\n        /* \"#utility.yul\":6437:6443   */\n      dup3\n        /* \"#utility.yul\":6433:6448   */\n      add\n        /* \"#utility.yul\":6426:6458   */\n      mstore\n        /* \"#utility.yul\":6241:6465   */\n      pop\n      jump\t// out\n        /* \"#utility.yul\":6471:6837   */\n    tag_305:\n        /* \"#utility.yul\":6613:6616   */\n      0x00\n        /* \"#utility.yul\":6634:6701   */\n      tag_418\n        /* \"#utility.yul\":6698:6700   */\n      0x25\n        /* \"#utility.yul\":6693:6696   */\n      dup4\n        /* \"#utility.yul\":6634:6701   */\n      tag_299\n      jump\t// in\n    tag_418:\n        /* \"#utility.yul\":6627:6701   */\n      swap2\n      pop\n        /* \"#utility.yul\":6710:6803   */\n      tag_419\n        /* \"#utility.yul\":6799:6802   */\n      dup3\n        /* \"#utility.yul\":6710:6803   */\n      tag_304\n      jump\t// in\n    tag_419:\n        /* \"#utility.yul\":6828:6830   */\n      0x40\n        /* \"#utility.yul\":6823:6826   */\n      dup3\n        /* \"#utility.yul\":6819:6831   */\n      add\n        /* \"#utility.yul\":6812:6831   */\n      swap1\n      pop\n        /* \"#utility.yul\":6471:6837   */\n      swap2\n      swap1\n      pop\n      jump\t// out\n        /* \"#utility.yul\":6843:7262   */\n    tag_90:\n        /* \"#utility.yul\":7009:7013   */\n      0x00\n        /* \"#utility.yul\":7047:7049   */\n      0x20\n        /* \"#utility.yul\":7036:7045   */\n      dup3\n        /* \"#utility.yul\":7032:7050   */\n      add\n        /* \"#utility.yul\":7024:7050   */\n      swap1\n      pop\n        /* \"#utility.yul\":7096:7105   */\n      dup2\n        /* \"#utility.yul\":7090:7094   */\n      dup2\n        /* \"#utility.yul\":7086:7106   */\n      sub\n        /* \"#utility.yul\":7082:7083   */\n      0x00\n        /* \"#utility.yul\":7071:7080   */\n      dup4\n        /* \"#utility.yul\":7067:7084   */\n      add\n        /* \"#utility.yul\":7060:7107   */\n      mstore\n        /* \"#utility.yul\":7124:7255   */\n      tag_421\n        /* \"#utility.yul\":7250:7254   */\n      dup2\n        /* \"#utility.yul\":7124:7255   */\n      tag_305\n      jump\t// in\n    tag_421:\n        /* \"#utility.yul\":7116:7255   */\n      swap1\n      pop\n        /* \"#utility.yul\":6843:7262   */\n      swap2\n      swap1\n      pop\n      jump\t// out\n        /* \"#utility.yul\":7268:7492   */\n    tag_306:\n        /* \"#utility.yul\":7408:7442   */\n      0x596f7520646f6e2774206861766520756e64726177206c6f7474657279207469\n        /* \"#utility.yul\":7404:7405   */\n      0x00\n        /* \"#utility.yul\":7396:7402   */\n      dup3\n        /* \"#utility.yul\":7392:7406   */\n      add\n        /* \"#utility.yul\":7385:7443   */\n      mstore\n        /* \"#utility.yul\":7477:7484   */\n      0x636b657473000000000000000000000000000000000000000000000000000000\n        /* \"#utility.yul\":7472:7474   */\n      0x20\n        /* \"#utility.yul\":7464:7470   */\n      dup3\n        /* \"#utility.yul\":7460:7475   */\n      add\n        /* \"#utility.yul\":7453:7485   */\n      mstore\n        /* \"#utility.yul\":7268:7492   */\n      pop\n      jump\t// out\n        /* \"#utility.yul\":7498:7864   */\n    tag_307:\n        /* \"#utility.yul\":7640:7643   */\n      0x00\n        /* \"#utility.yul\":7661:7728   */\n      tag_424\n        /* \"#utility.yul\":7725:7727   */\n      0x25\n        /* \"#utility.yul\":7720:7723   */\n      dup4\n        /* \"#utility.yul\":7661:7728   */\n      tag_299\n      jump\t// in\n    tag_424:\n        /* \"#utility.yul\":7654:7728   */\n      swap2\n      pop\n        /* \"#utility.yul\":7737:7830   */\n      tag_425\n        /* \"#utility.yul\":7826:7829   */\n      dup3\n        /* \"#utility.yul\":7737:7830   */\n      tag_306\n      jump\t// in\n    tag_425:\n        /* \"#utility.yul\":7855:7857   */\n      0x40\n        /* \"#utility.yul\":7850:7853   */\n      dup3\n        /* \"#utility.yul\":7846:7858   */\n      add\n        /* \"#utility.yul\":7839:7858   */\n      swap1\n      pop\n        /* \"#utility.yul\":7498:7864   */\n      swap2\n      swap1\n      pop\n      jump\t// out\n        /* \"#utility.yul\":7870:8289   */\n    tag_102:\n        /* \"#utility.yul\":8036:8040   */\n      0x00\n        /* \"#utility.yul\":8074:8076   */\n      0x20\n        /* \"#utility.yul\":8063:8072   */\n      dup3\n        /* \"#utility.yul\":8059:8077   */\n      add\n        /* \"#utility.yul\":8051:8077   */\n      swap1\n      pop\n        /* \"#utility.yul\":8123:8132   */\n      dup2\n        /* \"#utility.yul\":8117:8121   */\n      dup2\n        /* \"#utility.yul\":8113:8133   */\n      sub\n        /* \"#utility.yul\":8109:8110   */\n      0x00\n        /* \"#utility.yul\":8098:8107   */\n      dup4\n        /* \"#utility.yul\":8094:8111   */\n      add\n        /* \"#utility.yul\":8087:8134   */\n      mstore\n        /* \"#utility.yul\":8151:8282   */\n      tag_427\n        /* \"#utility.yul\":8277:8281   */\n      dup2\n        /* \"#utility.yul\":8151:8282   */\n      tag_307\n      jump\t// in\n    tag_427:\n        /* \"#utility.yul\":8143:8282   */\n      swap1\n      pop\n        /* \"#utility.yul\":7870:8289   */\n      swap2\n      swap1\n      pop\n      jump\t// out\n        /* \"#utility.yul\":8295:8489   */\n    tag_104:\n        /* \"#utility.yul\":8335:8339   */\n      0x00\n        /* \"#utility.yul\":8355:8375   */\n      tag_429\n        /* \"#utility.yul\":8373:8374   */\n      dup3\n        /* \"#utility.yul\":8355:8375   */\n      tag_281\n      jump\t// in\n    tag_429:\n        /* \"#utility.yul\":8350:8375   */\n      swap2\n      pop\n        /* \"#utility.yul\":8389:8409   */\n      tag_430\n        /* \"#utility.yul\":8407:8408   */\n      dup4\n        /* \"#utility.yul\":8389:8409   */\n      tag_281\n      jump\t// in\n    tag_430:\n        /* \"#utility.yul\":8384:8409   */\n      swap3\n      pop\n        /* \"#utility.yul\":8433:8434   */\n      dup3\n        /* \"#utility.yul\":8430:8431   */\n      dup3\n        /* \"#utility.yul\":8426:8435   */\n      sub\n        /* \"#utility.yul\":8418:8435   */\n      swap1\n      pop\n        /* \"#utility.yul\":8457:8458   */\n      dup2\n        /* \"#utility.yul\":8451:8455   */\n      dup2\n        /* \"#utility.yul\":8448:8459   */\n      gt\n        /* \"#utility.yul\":8445:8482   */\n      iszero\n      tag_431\n      jumpi\n        /* \"#utility.yul\":8462:8480   */\n      tag_432\n      tag_302\n      jump\t// in\n    tag_432:\n        /* \"#utility.yul\":8445:8482   */\n    tag_431:\n        /* \"#utility.yul\":8295:8489   */\n      swap3\n      swap2\n      pop\n      pop\n      jump\t// out\n        /* \"#utility.yul\":8495:8658   */\n    tag_308:\n        /* \"#utility.yul\":8635:8650   */\n      0x49742773206e6f742074696d6500000000000000000000000000000000000000\n        /* \"#utility.yul\":8631:8632   */\n      0x00\n        /* \"#utility.yul\":8623:8629   */\n      dup3\n        /* \"#utility.yul\":8619:8633   */\n      add\n        /* \"#utility.yul\":8612:8651   */\n      mstore\n        /* \"#utility.yul\":8495:8658   */\n      pop\n      jump\t// out\n        /* \"#utility.yul\":8664:9030   */\n    tag_309:\n        /* \"#utility.yul\":8806:8809   */\n      0x00\n        /* \"#utility.yul\":8827:8894   */\n      tag_435\n        /* \"#utility.yul\":8891:8893   */\n      0x0d\n        /* \"#utility.yul\":8886:8889   */\n      dup4\n        /* \"#utility.yul\":8827:8894   */\n      tag_299\n      jump\t// in\n    tag_435:\n        /* \"#utility.yul\":8820:8894   */\n      swap2\n      pop\n        /* \"#utility.yul\":8903:8996   */\n      tag_436\n        /* \"#utility.yul\":8992:8995   */\n      dup3\n        /* \"#utility.yul\":8903:8996   */\n      tag_308\n      jump\t// in\n    tag_436:\n        /* \"#utility.yul\":9021:9023   */\n      0x20\n        /* \"#utility.yul\":9016:9019   */\n      dup3\n        /* \"#utility.yul\":9012:9024   */\n      add\n        /* \"#utility.yul\":9005:9024   */\n      swap1\n      pop\n        /* \"#utility.yul\":8664:9030   */\n      swap2\n      swap1\n      pop\n      jump\t// out\n        /* \"#utility.yul\":9036:9455   */\n    tag_110:\n        /* \"#utility.yul\":9202:9206   */\n      0x00\n        /* \"#utility.yul\":9240:9242   */\n      0x20\n        /* \"#utility.yul\":9229:9238   */\n      dup3\n        /* \"#utility.yul\":9225:9243   */\n      add\n        /* \"#utility.yul\":9217:9243   */\n      swap1\n      pop\n        /* \"#utility.yul\":9289:9298   */\n      dup2\n        /* \"#utility.yul\":9283:9287   */\n      dup2\n        /* \"#utility.yul\":9279:9299   */\n      sub\n        /* \"#utility.yul\":9275:9276   */\n      0x00\n        /* \"#utility.yul\":9264:9273   */\n      dup4\n        /* \"#utility.yul\":9260:9277   */\n      add\n        /* \"#utility.yul\":9253:9300   */\n      mstore\n        /* \"#utility.yul\":9317:9448   */\n      tag_438\n        /* \"#utility.yul\":9443:9447   */\n      dup2\n        /* \"#utility.yul\":9317:9448   */\n      tag_309\n      jump\t// in\n    tag_438:\n        /* \"#utility.yul\":9309:9448   */\n      swap1\n      pop\n        /* \"#utility.yul\":9036:9455   */\n      swap2\n      swap1\n      pop\n      jump\t// out\n        /* \"#utility.yul\":9461:9538   */\n    tag_310:\n        /* \"#utility.yul\":9498:9505   */\n      0x00\n        /* \"#utility.yul\":9527:9532   */\n      dup2\n        /* \"#utility.yul\":9516:9532   */\n      swap1\n      pop\n        /* \"#utility.yul\":9461:9538   */\n      swap2\n      swap1\n      pop\n      jump\t// out\n        /* \"#utility.yul\":9544:9623   */\n    tag_311:\n        /* \"#utility.yul\":9583:9590   */\n      0x00\n        /* \"#utility.yul\":9612:9617   */\n      dup2\n        /* \"#utility.yul\":9601:9617   */\n      swap1\n      pop\n        /* \"#utility.yul\":9544:9623   */\n      swap2\n      swap1\n      pop\n      jump\t// out\n        /* \"#utility.yul\":9629:9786   */\n    tag_312:\n        /* \"#utility.yul\":9734:9779   */\n      tag_442\n        /* \"#utility.yul\":9754:9778   */\n      tag_443\n        /* \"#utility.yul\":9772:9777   */\n      dup3\n        /* \"#utility.yul\":9754:9778   */\n      tag_310\n      jump\t// in\n    tag_443:\n        /* \"#utility.yul\":9734:9779   */\n      tag_311\n      jump\t// in\n    tag_442:\n        /* \"#utility.yul\":9729:9732   */\n      dup3\n        /* \"#utility.yul\":9722:9780   */\n      mstore\n        /* \"#utility.yul\":9629:9786   */\n      pop\n      pop\n      jump\t// out\n        /* \"#utility.yul\":9792:10189   */\n    tag_128:\n        /* \"#utility.yul\":9932:9935   */\n      0x00\n        /* \"#utility.yul\":9947:10022   */\n      tag_445\n        /* \"#utility.yul\":10018:10021   */\n      dup3\n        /* \"#utility.yul\":10009:10015   */\n      dup6\n        /* \"#utility.yul\":9947:10022   */\n      tag_312\n      jump\t// in\n    tag_445:\n        /* \"#utility.yul\":10047:10049   */\n      0x20\n        /* \"#utility.yul\":10042:10045   */\n      dup3\n        /* \"#utility.yul\":10038:10050   */\n      add\n        /* \"#utility.yul\":10031:10050   */\n      swap2\n      pop\n        /* \"#utility.yul\":10060:10135   */\n      tag_446\n        /* \"#utility.yul\":10131:10134   */\n      dup3\n        /* \"#utility.yul\":10122:10128   */\n      dup5\n        /* \"#utility.yul\":10060:10135   */\n      tag_312\n      jump\t// in\n    tag_446:\n        /* \"#utility.yul\":10160:10162   */\n      0x20\n        /* \"#utility.yul\":10155:10158   */\n      dup3\n        /* \"#utility.yul\":10151:10163   */\n      add\n        /* \"#utility.yul\":10144:10163   */\n      swap2\n      pop\n        /* \"#utility.yul\":10180:10183   */\n      dup2\n        /* \"#utility.yul\":10173:10183   */\n      swap1\n      pop\n        /* \"#utility.yul\":9792:10189   */\n      swap4\n      swap3\n      pop\n      pop\n      pop\n      jump\t// out\n        /* \"#utility.yul\":10195:10605   */\n    tag_138:\n        /* \"#utility.yul\":10235:10242   */\n      0x00\n        /* \"#utility.yul\":10258:10278   */\n      tag_448\n        /* \"#utility.yul\":10276:10277   */\n      dup3\n        /* \"#utility.yul\":10258:10278   */\n      tag_281\n      jump\t// in\n    tag_448:\n        /* \"#utility.yul\":10253:10278   */\n      swap2\n      pop\n        /* \"#utility.yul\":10292:10312   */\n      tag_449\n        /* \"#utility.yul\":10310:10311   */\n      dup4\n        /* \"#utility.yul\":10292:10312   */\n      tag_281\n      jump\t// in\n    tag_449:\n        /* \"#utility.yul\":10287:10312   */\n      swap3\n      pop\n        /* \"#utility.yul\":10347:10348   */\n      dup3\n        /* \"#utility.yul\":10344:10345   */\n      dup3\n        /* \"#utility.yul\":10340:10349   */\n      mul\n        /* \"#utility.yul\":10369:10399   */\n      tag_450\n        /* \"#utility.yul\":10387:10398   */\n      dup2\n        /* \"#utility.yul\":10369:10399   */\n      tag_281\n      jump\t// in\n    tag_450:\n        /* \"#utility.yul\":10358:10399   */\n      swap2\n      pop\n        /* \"#utility.yul\":10548:10549   */\n      dup3\n        /* \"#utility.yul\":10539:10546   */\n      dup3\n        /* \"#utility.yul\":10535:10550   */\n      div\n        /* \"#utility.yul\":10532:10533   */\n      dup5\n        /* \"#utility.yul\":10529:10551   */\n      eq\n        /* \"#utility.yul\":10509:10510   */\n      dup4\n        /* \"#utility.yul\":10502:10511   */\n      iszero\n        /* \"#utility.yul\":10482:10565   */\n      or\n        /* \"#utility.yul\":10459:10598   */\n      tag_451\n      jumpi\n        /* \"#utility.yul\":10578:10596   */\n      tag_452\n      tag_302\n      jump\t// in\n    tag_452:\n        /* \"#utility.yul\":10459:10598   */\n    tag_451:\n        /* \"#utility.yul\":10243:10605   */\n      pop\n        /* \"#utility.yul\":10195:10605   */\n      swap3\n      swap2\n      pop\n      pop\n      jump\t// out\n        /* \"#utility.yul\":10611:10781   */\n    tag_313:\n        /* \"#utility.yul\":10751:10773   */\n      0x427579206174206c65617374206f6e6520656767000000000000000000000000\n        /* \"#utility.yul\":10747:10748   */\n      0x00\n        /* \"#utility.yul\":10739:10745   */\n      dup3\n        /* \"#utility.yul\":10735:10749   */\n      add\n        /* \"#utility.yul\":10728:10774   */\n      mstore\n        /* \"#utility.yul\":10611:10781   */\n      pop\n      jump\t// out\n        /* \"#utility.yul\":10787:11153   */\n    tag_314:\n        /* \"#utility.yul\":10929:10932   */\n      0x00\n        /* \"#utility.yul\":10950:11017   */\n      tag_455\n        /* \"#utility.yul\":11014:11016   */\n      0x14\n        /* \"#utility.yul\":11009:11012   */\n      dup4\n        /* \"#utility.yul\":10950:11017   */\n      tag_299\n      jump\t// in\n    tag_455:\n        /* \"#utility.yul\":10943:11017   */\n      swap2\n      pop\n        /* \"#utility.yul\":11026:11119   */\n      tag_456\n        /* \"#utility.yul\":11115:11118   */\n      dup3\n        /* \"#utility.yul\":11026:11119   */\n      tag_313\n      jump\t// in\n    tag_456:\n        /* \"#utility.yul\":11144:11146   */\n      0x20\n        /* \"#utility.yul\":11139:11142   */\n      dup3\n        /* \"#utility.yul\":11135:11147   */\n      add\n        /* \"#utility.yul\":11128:11147   */\n      swap1\n      pop\n        /* \"#utility.yul\":10787:11153   */\n      swap2\n      swap1\n      pop\n      jump\t// out\n        /* \"#utility.yul\":11159:11578   */\n    tag_169:\n        /* \"#utility.yul\":11325:11329   */\n      0x00\n        /* \"#utility.yul\":11363:11365   */\n      0x20\n        /* \"#utility.yul\":11352:11361   */\n      dup3\n        /* \"#utility.yul\":11348:11366   */\n      add\n        /* \"#utility.yul\":11340:11366   */\n      swap1\n      pop\n        /* \"#utility.yul\":11412:11421   */\n      dup2\n        /* \"#utility.yul\":11406:11410   */\n      dup2\n        /* \"#utility.yul\":11402:11422   */\n      sub\n        /* \"#utility.yul\":11398:11399   */\n      0x00\n        /* \"#utility.yul\":11387:11396   */\n      dup4\n        /* \"#utility.yul\":11383:11400   */\n      add\n        /* \"#utility.yul\":11376:11423   */\n      mstore\n        /* \"#utility.yul\":11440:11571   */\n      tag_458\n        /* \"#utility.yul\":11566:11570   */\n      dup2\n        /* \"#utility.yul\":11440:11571   */\n      tag_314\n      jump\t// in\n    tag_458:\n        /* \"#utility.yul\":11432:11571   */\n      swap1\n      pop\n        /* \"#utility.yul\":11159:11578   */\n      swap2\n      swap1\n      pop\n      jump\t// out\n        /* \"#utility.yul\":11584:11761   */\n    tag_315:\n        /* \"#utility.yul\":11724:11753   */\n      0x4d756c7469706c6573206265747765656e203120616e64203130300000000000\n        /* \"#utility.yul\":11720:11721   */\n      0x00\n        /* \"#utility.yul\":11712:11718   */\n      dup3\n        /* \"#utility.yul\":11708:11722   */\n      add\n        /* \"#utility.yul\":11701:11754   */\n      mstore\n        /* \"#utility.yul\":11584:11761   */\n      pop\n      jump\t// out\n        /* \"#utility.yul\":11767:12133   */\n    tag_316:\n        /* \"#utility.yul\":11909:11912   */\n      0x00\n        /* \"#utility.yul\":11930:11997   */\n      tag_461\n        /* \"#utility.yul\":11994:11996   */\n      0x1b\n        /* \"#utility.yul\":11989:11992   */\n      dup4\n        /* \"#utility.yul\":11930:11997   */\n      tag_299\n      jump\t// in\n    tag_461:\n        /* \"#utility.yul\":11923:11997   */\n      swap2\n      pop\n        /* \"#utility.yul\":12006:12099   */\n      tag_462\n        /* \"#utility.yul\":12095:12098   */\n      dup3\n        /* \"#utility.yul\":12006:12099   */\n      tag_315\n      jump\t// in\n    tag_462:\n        /* \"#utility.yul\":12124:12126   */\n      0x20\n        /* \"#utility.yul\":12119:12122   */\n      dup3\n        /* \"#utility.yul\":12115:12127   */\n      add\n        /* \"#utility.yul\":12108:12127   */\n      swap1\n      pop\n        /* \"#utility.yul\":11767:12133   */\n      swap2\n      swap1\n      pop\n      jump\t// out\n        /* \"#utility.yul\":12139:12558   */\n    tag_173:\n        /* \"#utility.yul\":12305:12309   */\n      0x00\n        /* \"#utility.yul\":12343:12345   */\n      0x20\n        /* \"#utility.yul\":12332:12341   */\n      dup3\n        /* \"#utility.yul\":12328:12346   */\n      add\n        /* \"#utility.yul\":12320:12346   */\n      swap1\n      pop\n        /* \"#utility.yul\":12392:12401   */\n      dup2\n        /* \"#utility.yul\":12386:12390   */\n      dup2\n        /* \"#utility.yul\":12382:12402   */\n      sub\n        /* \"#utility.yul\":12378:12379   */\n      0x00\n        /* \"#utility.yul\":12367:12376   */\n      dup4\n        /* \"#utility.yul\":12363:12380   */\n      add\n        /* \"#utility.yul\":12356:12403   */\n      mstore\n        /* \"#utility.yul\":12420:12551   */\n      tag_464\n        /* \"#utility.yul\":12546:12550   */\n      dup2\n        /* \"#utility.yul\":12420:12551   */\n      tag_316\n      jump\t// in\n    tag_464:\n        /* \"#utility.yul\":12412:12551   */\n      swap1\n      pop\n        /* \"#utility.yul\":12139:12558   */\n      swap2\n      swap1\n      pop\n      jump\t// out\n        /* \"#utility.yul\":12564:12746   */\n    tag_317:\n        /* \"#utility.yul\":12704:12738   */\n      0x4e756d626572206f662065676773206265747765656e203120616e6420313030\n        /* \"#utility.yul\":12700:12701   */\n      0x00\n        /* \"#utility.yul\":12692:12698   */\n      dup3\n        /* \"#utility.yul\":12688:12702   */\n      add\n        /* \"#utility.yul\":12681:12739   */\n      mstore\n        /* \"#utility.yul\":12564:12746   */\n      pop\n      jump\t// out\n        /* \"#utility.yul\":12752:13118   */\n    tag_318:\n        /* \"#utility.yul\":12894:12897   */\n      0x00\n        /* \"#utility.yul\":12915:12982   */\n      tag_467\n        /* \"#utility.yul\":12979:12981   */\n      0x20\n        /* \"#utility.yul\":12974:12977   */\n      dup4\n        /* \"#utility.yul\":12915:12982   */\n      tag_299\n      jump\t// in\n    tag_467:\n        /* \"#utility.yul\":12908:12982   */\n      swap2\n      pop\n        /* \"#utility.yul\":12991:13084   */\n      tag_468\n        /* \"#utility.yul\":13080:13083   */\n      dup3\n        /* \"#utility.yul\":12991:13084   */\n      tag_317\n      jump\t// in\n    tag_468:\n        /* \"#utility.yul\":13109:13111   */\n      0x20\n        /* \"#utility.yul\":13104:13107   */\n      dup3\n        /* \"#utility.yul\":13100:13112   */\n      add\n        /* \"#utility.yul\":13093:13112   */\n      swap1\n      pop\n        /* \"#utility.yul\":12752:13118   */\n      swap2\n      swap1\n      pop\n      jump\t// out\n        /* \"#utility.yul\":13124:13543   */\n    tag_177:\n        /* \"#utility.yul\":13290:13294   */\n      0x00\n        /* \"#utility.yul\":13328:13330   */\n      0x20\n        /* \"#utility.yul\":13317:13326   */\n      dup3\n        /* \"#utility.yul\":13313:13331   */\n      add\n        /* \"#utility.yul\":13305:13331   */\n      swap1\n      pop\n        /* \"#utility.yul\":13377:13386   */\n      dup2\n        /* \"#utility.yul\":13371:13375   */\n      dup2\n        /* \"#utility.yul\":13367:13387   */\n      sub\n        /* \"#utility.yul\":13363:13364   */\n      0x00\n        /* \"#utility.yul\":13352:13361   */\n      dup4\n        /* \"#utility.yul\":13348:13365   */\n      add\n        /* \"#utility.yul\":13341:13388   */\n      mstore\n        /* \"#utility.yul\":13405:13536   */\n      tag_470\n        /* \"#utility.yul\":13531:13535   */\n      dup2\n        /* \"#utility.yul\":13405:13536   */\n      tag_318\n      jump\t// in\n    tag_470:\n        /* \"#utility.yul\":13397:13536   */\n      swap1\n      pop\n        /* \"#utility.yul\":13124:13543   */\n      swap2\n      swap1\n      pop\n      jump\t// out\n        /* \"#utility.yul\":13549:13824   */\n    tag_180:\n        /* \"#utility.yul\":13588:13595   */\n      0x00\n        /* \"#utility.yul\":13611:13630   */\n      tag_472\n        /* \"#utility.yul\":13628:13629   */\n      dup3\n        /* \"#utility.yul\":13611:13630   */\n      tag_286\n      jump\t// in\n    tag_472:\n        /* \"#utility.yul\":13606:13630   */\n      swap2\n      pop\n        /* \"#utility.yul\":13644:13663   */\n      tag_473\n        /* \"#utility.yul\":13661:13662   */\n      dup4\n        /* \"#utility.yul\":13644:13663   */\n      tag_286\n      jump\t// in\n    tag_473:\n        /* \"#utility.yul\":13639:13663   */\n      swap3\n      pop\n        /* \"#utility.yul\":13698:13699   */\n      dup3\n        /* \"#utility.yul\":13695:13696   */\n      dup3\n        /* \"#utility.yul\":13691:13700   */\n      mul\n        /* \"#utility.yul\":13720:13749   */\n      tag_474\n        /* \"#utility.yul\":13737:13748   */\n      dup2\n        /* \"#utility.yul\":13720:13749   */\n      tag_286\n      jump\t// in\n    tag_474:\n        /* \"#utility.yul\":13709:13749   */\n      swap2\n      pop\n        /* \"#utility.yul\":13781:13792   */\n      dup1\n        /* \"#utility.yul\":13772:13779   */\n      dup3\n        /* \"#utility.yul\":13769:13793   */\n      eq\n        /* \"#utility.yul\":13759:13817   */\n      tag_475\n      jumpi\n        /* \"#utility.yul\":13797:13815   */\n      tag_476\n      tag_302\n      jump\t// in\n    tag_476:\n        /* \"#utility.yul\":13759:13817   */\n    tag_475:\n        /* \"#utility.yul\":13596:13824   */\n      pop\n        /* \"#utility.yul\":13549:13824   */\n      swap3\n      swap2\n      pop\n      pop\n      jump\t// out\n        /* \"#utility.yul\":13830:13992   */\n    tag_319:\n        /* \"#utility.yul\":13970:13984   */\n      0x496e76616c696420646174610000000000000000000000000000000000000000\n        /* \"#utility.yul\":13966:13967   */\n      0x00\n        /* \"#utility.yul\":13958:13964   */\n      dup3\n        /* \"#utility.yul\":13954:13968   */\n      add\n        /* \"#utility.yul\":13947:13985   */\n      mstore\n        /* \"#utility.yul\":13830:13992   */\n      pop\n      jump\t// out\n        /* \"#utility.yul\":13998:14364   */\n    tag_320:\n        /* \"#utility.yul\":14140:14143   */\n      0x00\n        /* \"#utility.yul\":14161:14228   */\n      tag_479\n        /* \"#utility.yul\":14225:14227   */\n      0x0c\n        /* \"#utility.yul\":14220:14223   */\n      dup4\n        /* \"#utility.yul\":14161:14228   */\n      tag_299\n      jump\t// in\n    tag_479:\n        /* \"#utility.yul\":14154:14228   */\n      swap2\n      pop\n        /* \"#utility.yul\":14237:14330   */\n      tag_480\n        /* \"#utility.yul\":14326:14329   */\n      dup3\n        /* \"#utility.yul\":14237:14330   */\n      tag_319\n      jump\t// in\n    tag_480:\n        /* \"#utility.yul\":14355:14357   */\n      0x20\n        /* \"#utility.yul\":14350:14353   */\n      dup3\n        /* \"#utility.yul\":14346:14358   */\n      add\n        /* \"#utility.yul\":14339:14358   */\n      swap1\n      pop\n        /* \"#utility.yul\":13998:14364   */\n      swap2\n      swap1\n      pop\n      jump\t// out\n        /* \"#utility.yul\":14370:14789   */\n    tag_183:\n        /* \"#utility.yul\":14536:14540   */\n      0x00\n        /* \"#utility.yul\":14574:14576   */\n      0x20\n        /* \"#utility.yul\":14563:14572   */\n      dup3\n        /* \"#utility.yul\":14559:14577   */\n      add\n        /* \"#utility.yul\":14551:14577   */\n      swap1\n      pop\n        /* \"#utility.yul\":14623:14632   */\n      dup2\n        /* \"#utility.yul\":14617:14621   */\n      dup2\n        /* \"#utility.yul\":14613:14633   */\n      sub\n        /* \"#utility.yul\":14609:14610   */\n      0x00\n        /* \"#utility.yul\":14598:14607   */\n      dup4\n        /* \"#utility.yul\":14594:14611   */\n      add\n        /* \"#utility.yul\":14587:14634   */\n      mstore\n        /* \"#utility.yul\":14651:14782   */\n      tag_482\n        /* \"#utility.yul\":14777:14781   */\n      dup2\n        /* \"#utility.yul\":14651:14782   */\n      tag_320\n      jump\t// in\n    tag_482:\n        /* \"#utility.yul\":14643:14782   */\n      swap1\n      pop\n        /* \"#utility.yul\":14370:14789   */\n      swap2\n      swap1\n      pop\n      jump\t// out\n        /* \"#utility.yul\":14795:15022   */\n    tag_188:\n        /* \"#utility.yul\":14834:14837   */\n      0x00\n        /* \"#utility.yul\":14857:14881   */\n      tag_484\n        /* \"#utility.yul\":14875:14880   */\n      dup3\n        /* \"#utility.yul\":14857:14881   */\n      tag_292\n      jump\t// in\n    tag_484:\n        /* \"#utility.yul\":14848:14881   */\n      swap2\n      pop\n        /* \"#utility.yul\":14903:14963   */\n      0xffffffffffffffffffffffffffffffffffffffffffffffffffffffffff\n        /* \"#utility.yul\":14896:14901   */\n      dup3\n        /* \"#utility.yul\":14893:14964   */\n      sub\n        /* \"#utility.yul\":14890:14987   */\n      tag_485\n      jumpi\n        /* \"#utility.yul\":14967:14985   */\n      tag_486\n      tag_302\n      jump\t// in\n    tag_486:\n        /* \"#utility.yul\":14890:14987   */\n    tag_485:\n        /* \"#utility.yul\":15014:15015   */\n      0x01\n        /* \"#utility.yul\":15007:15012   */\n      dup3\n        /* \"#utility.yul\":15003:15016   */\n      add\n        /* \"#utility.yul\":14996:15016   */\n      swap1\n      pop\n        /* \"#utility.yul\":14795:15022   */\n      swap2\n      swap1\n      pop\n      jump\t// out\n        /* \"#utility.yul\":15028:15107   */\n    tag_321:\n        /* \"#utility.yul\":15067:15074   */\n      0x00\n        /* \"#utility.yul\":15096:15101   */\n      dup2\n        /* \"#utility.yul\":15085:15101   */\n      swap1\n      pop\n        /* \"#utility.yul\":15028:15107   */\n      swap2\n      swap1\n      pop\n      jump\t// out\n        /* \"#utility.yul\":15113:15270   */\n    tag_322:\n        /* \"#utility.yul\":15218:15263   */\n      tag_489\n        /* \"#utility.yul\":15238:15262   */\n      tag_490\n        /* \"#utility.yul\":15256:15261   */\n      dup3\n        /* \"#utility.yul\":15238:15262   */\n      tag_281\n      jump\t// in\n    tag_490:\n        /* \"#utility.yul\":15218:15263   */\n      tag_321\n      jump\t// in\n    tag_489:\n        /* \"#utility.yul\":15213:15216   */\n      dup3\n        /* \"#utility.yul\":15206:15264   */\n      mstore\n        /* \"#utility.yul\":15113:15270   */\n      pop\n      pop\n      jump\t// out\n        /* \"#utility.yul\":15276:15380   */\n    tag_323:\n        /* \"#utility.yul\":15321:15328   */\n      0x00\n        /* \"#utility.yul\":15350:15374   */\n      tag_492\n        /* \"#utility.yul\":15368:15373   */\n      dup3\n        /* \"#utility.yul\":15350:15374   */\n      tag_278\n      jump\t// in\n    tag_492:\n        /* \"#utility.yul\":15339:15374   */\n      swap1\n      pop\n        /* \"#utility.yul\":15276:15380   */\n      swap2\n      swap1\n      pop\n      jump\t// out\n        /* \"#utility.yul\":15386:15480   */\n    tag_324:\n        /* \"#utility.yul\":15419:15427   */\n      0x00\n        /* \"#utility.yul\":15467:15472   */\n      dup2\n        /* \"#utility.yul\":15463:15465   */\n      0x60\n        /* \"#utility.yul\":15459:15473   */\n      shl\n        /* \"#utility.yul\":15438:15473   */\n      swap1\n      pop\n        /* \"#utility.yul\":15386:15480   */\n      swap2\n      swap1\n      pop\n      jump\t// out\n        /* \"#utility.yul\":15486:15580   */\n    tag_325:\n        /* \"#utility.yul\":15525:15532   */\n      0x00\n        /* \"#utility.yul\":15554:15574   */\n      tag_495\n        /* \"#utility.yul\":15568:15573   */\n      dup3\n        /* \"#utility.yul\":15554:15574   */\n      tag_324\n      jump\t// in\n    tag_495:\n        /* \"#utility.yul\":15543:15574   */\n      swap1\n      pop\n        /* \"#utility.yul\":15486:15580   */\n      swap2\n      swap1\n      pop\n      jump\t// out\n        /* \"#utility.yul\":15586:15694   */\n    tag_326:\n        /* \"#utility.yul\":15633:15640   */\n      0x00\n        /* \"#utility.yul\":15662:15688   */\n      tag_497\n        /* \"#utility.yul\":15682:15687   */\n      dup3\n        /* \"#utility.yul\":15662:15688   */\n      tag_325\n      jump\t// in\n    tag_497:\n        /* \"#utility.yul\":15651:15688   */\n      swap1\n      pop\n        /* \"#utility.yul\":15586:15694   */\n      swap2\n      swap1\n      pop\n      jump\t// out\n        /* \"#utility.yul\":15700:15889   */\n    tag_327:\n        /* \"#utility.yul\":15821:15882   */\n      tag_499\n        /* \"#utility.yul\":15849:15881   */\n      tag_500\n        /* \"#utility.yul\":15875:15880   */\n      dup3\n        /* \"#utility.yul\":15849:15881   */\n      tag_323\n      jump\t// in\n    tag_500:\n        /* \"#utility.yul\":15821:15882   */\n      tag_326\n      jump\t// in\n    tag_499:\n        /* \"#utility.yul\":15816:15819   */\n      dup3\n        /* \"#utility.yul\":15809:15883   */\n      mstore\n        /* \"#utility.yul\":15700:15889   */\n      pop\n      pop\n      jump\t// out\n        /* \"#utility.yul\":15895:15995   */\n    tag_328:\n        /* \"#utility.yul\":15934:15941   */\n      0x00\n        /* \"#utility.yul\":15963:15989   */\n      tag_502\n        /* \"#utility.yul\":15983:15988   */\n      dup3\n        /* \"#utility.yul\":15963:15989   */\n      tag_325\n      jump\t// in\n    tag_502:\n        /* \"#utility.yul\":15952:15989   */\n      swap1\n      pop\n        /* \"#utility.yul\":15895:15995   */\n      swap2\n      swap1\n      pop\n      jump\t// out\n        /* \"#utility.yul\":16001:16158   */\n    tag_329:\n        /* \"#utility.yul\":16106:16151   */\n      tag_504\n        /* \"#utility.yul\":16126:16150   */\n      tag_505\n        /* \"#utility.yul\":16144:16149   */\n      dup3\n        /* \"#utility.yul\":16126:16150   */\n      tag_279\n      jump\t// in\n    tag_505:\n        /* \"#utility.yul\":16106:16151   */\n      tag_328\n      jump\t// in\n    tag_504:\n        /* \"#utility.yul\":16101:16104   */\n      dup3\n        /* \"#utility.yul\":16094:16152   */\n      mstore\n        /* \"#utility.yul\":16001:16158   */\n      pop\n      pop\n      jump\t// out\n        /* \"#utility.yul\":16164:16258   */\n    tag_330:\n        /* \"#utility.yul\":16197:16205   */\n      0x00\n        /* \"#utility.yul\":16245:16250   */\n      dup2\n        /* \"#utility.yul\":16241:16243   */\n      0x18\n        /* \"#utility.yul\":16237:16251   */\n      shl\n        /* \"#utility.yul\":16216:16251   */\n      swap1\n      pop\n        /* \"#utility.yul\":16164:16258   */\n      swap2\n      swap1\n      pop\n      jump\t// out\n        /* \"#utility.yul\":16264:16358   */\n    tag_331:\n        /* \"#utility.yul\":16303:16310   */\n      0x00\n        /* \"#utility.yul\":16332:16352   */\n      tag_508\n        /* \"#utility.yul\":16346:16351   */\n      dup3\n        /* \"#utility.yul\":16332:16352   */\n      tag_330\n      jump\t// in\n    tag_508:\n        /* \"#utility.yul\":16321:16352   */\n      swap1\n      pop\n        /* \"#utility.yul\":16264:16358   */\n      swap2\n      swap1\n      pop\n      jump\t// out\n        /* \"#utility.yul\":16364:16521   */\n    tag_332:\n        /* \"#utility.yul\":16469:16514   */\n      tag_510\n        /* \"#utility.yul\":16489:16513   */\n      tag_511\n        /* \"#utility.yul\":16507:16512   */\n      dup3\n        /* \"#utility.yul\":16489:16513   */\n      tag_292\n      jump\t// in\n    tag_511:\n        /* \"#utility.yul\":16469:16514   */\n      tag_331\n      jump\t// in\n    tag_510:\n        /* \"#utility.yul\":16464:16467   */\n      dup3\n        /* \"#utility.yul\":16457:16515   */\n      mstore\n        /* \"#utility.yul\":16364:16521   */\n      pop\n      pop\n      jump\t// out\n        /* \"#utility.yul\":16527:17238   */\n    tag_190:\n        /* \"#utility.yul\":16739:16742   */\n      0x00\n        /* \"#utility.yul\":16754:16829   */\n      tag_513\n        /* \"#utility.yul\":16825:16828   */\n      dup3\n        /* \"#utility.yul\":16816:16822   */\n      dup8\n        /* \"#utility.yul\":16754:16829   */\n      tag_322\n      jump\t// in\n    tag_513:\n        /* \"#utility.yul\":16854:16856   */\n      0x20\n        /* \"#utility.yul\":16849:16852   */\n      dup3\n        /* \"#utility.yul\":16845:16857   */\n      add\n        /* \"#utility.yul\":16838:16857   */\n      swap2\n      pop\n        /* \"#utility.yul\":16867:16958   */\n      tag_514\n        /* \"#utility.yul\":16954:16957   */\n      dup3\n        /* \"#utility.yul\":16945:16951   */\n      dup7\n        /* \"#utility.yul\":16867:16958   */\n      tag_327\n      jump\t// in\n    tag_514:\n        /* \"#utility.yul\":16983:16985   */\n      0x14\n        /* \"#utility.yul\":16978:16981   */\n      dup3\n        /* \"#utility.yul\":16974:16986   */\n      add\n        /* \"#utility.yul\":16967:16986   */\n      swap2\n      pop\n        /* \"#utility.yul\":16996:17071   */\n      tag_515\n        /* \"#utility.yul\":17067:17070   */\n      dup3\n        /* \"#utility.yul\":17058:17064   */\n      dup6\n        /* \"#utility.yul\":16996:17071   */\n      tag_329\n      jump\t// in\n    tag_515:\n        /* \"#utility.yul\":17096:17098   */\n      0x14\n        /* \"#utility.yul\":17091:17094   */\n      dup3\n        /* \"#utility.yul\":17087:17099   */\n      add\n        /* \"#utility.yul\":17080:17099   */\n      swap2\n      pop\n        /* \"#utility.yul\":17109:17184   */\n      tag_516\n        /* \"#utility.yul\":17180:17183   */\n      dup3\n        /* \"#utility.yul\":17171:17177   */\n      dup5\n        /* \"#utility.yul\":17109:17184   */\n      tag_332\n      jump\t// in\n    tag_516:\n        /* \"#utility.yul\":17209:17211   */\n      0x1d\n        /* \"#utility.yul\":17204:17207   */\n      dup3\n        /* \"#utility.yul\":17200:17212   */\n      add\n        /* \"#utility.yul\":17193:17212   */\n      swap2\n      pop\n        /* \"#utility.yul\":17229:17232   */\n      dup2\n        /* \"#utility.yul\":17222:17232   */\n      swap1\n      pop\n        /* \"#utility.yul\":16527:17238   */\n      swap6\n      swap5\n      pop\n      pop\n      pop\n      pop\n      pop\n      jump\t// out\n        /* \"#utility.yul\":17244:17543   */\n    tag_333:\n        /* \"#utility.yul\":17384:17418   */\n      0x4d696e696d756d20696e766573746d656e7420616d6f756e7420697320726571\n        /* \"#utility.yul\":17380:17381   */\n      0x00\n        /* \"#utility.yul\":17372:17378   */\n      dup3\n        /* \"#utility.yul\":17368:17382   */\n      add\n        /* \"#utility.yul\":17361:17419   */\n      mstore\n        /* \"#utility.yul\":17453:17487   */\n      0x75697265642c6974277320736d616c6c6572207468616e20746865206d696e69\n        /* \"#utility.yul\":17448:17450   */\n      0x20\n        /* \"#utility.yul\":17440:17446   */\n      dup3\n        /* \"#utility.yul\":17436:17451   */\n      add\n        /* \"#utility.yul\":17429:17488   */\n      mstore\n        /* \"#utility.yul\":17522:17535   */\n      0x6d756d206465706f736974000000000000000000000000000000000000000000\n        /* \"#utility.yul\":17517:17519   */\n      0x40\n        /* \"#utility.yul\":17509:17515   */\n      dup3\n        /* \"#utility.yul\":17505:17520   */\n      add\n        /* \"#utility.yul\":17498:17536   */\n      mstore\n        /* \"#utility.yul\":17244:17543   */\n      pop\n      jump\t// out\n        /* \"#utility.yul\":17549:17915   */\n    tag_334:\n        /* \"#utility.yul\":17691:17694   */\n      0x00\n        /* \"#utility.yul\":17712:17779   */\n      tag_519\n        /* \"#utility.yul\":17776:17778   */\n      0x4b\n        /* \"#utility.yul\":17771:17774   */\n      dup4\n        /* \"#utility.yul\":17712:17779   */\n      tag_299\n      jump\t// in\n    tag_519:\n        /* \"#utility.yul\":17705:17779   */\n      swap2\n      pop\n        /* \"#utility.yul\":17788:17881   */\n      tag_520\n        /* \"#utility.yul\":17877:17880   */\n      dup3\n        /* \"#utility.yul\":17788:17881   */\n      tag_333\n      jump\t// in\n    tag_520:\n        /* \"#utility.yul\":17906:17908   */\n      0x60\n        /* \"#utility.yul\":17901:17904   */\n      dup3\n        /* \"#utility.yul\":17897:17909   */\n      add\n        /* \"#utility.yul\":17890:17909   */\n      swap1\n      pop\n        /* \"#utility.yul\":17549:17915   */\n      swap2\n      swap1\n      pop\n      jump\t// out\n        /* \"#utility.yul\":17921:18340   */\n    tag_211:\n        /* \"#utility.yul\":18087:18091   */\n      0x00\n        /* \"#utility.yul\":18125:18127   */\n      0x20\n        /* \"#utility.yul\":18114:18123   */\n      dup3\n        /* \"#utility.yul\":18110:18128   */\n      add\n        /* \"#utility.yul\":18102:18128   */\n      swap1\n      pop\n        /* \"#utility.yul\":18174:18183   */\n      dup2\n        /* \"#utility.yul\":18168:18172   */\n      dup2\n        /* \"#utility.yul\":18164:18184   */\n      sub\n        /* \"#utility.yul\":18160:18161   */\n      0x00\n        /* \"#utility.yul\":18149:18158   */\n      dup4\n        /* \"#utility.yul\":18145:18162   */\n      add\n        /* \"#utility.yul\":18138:18185   */\n      mstore\n        /* \"#utility.yul\":18202:18333   */\n      tag_522\n        /* \"#utility.yul\":18328:18332   */\n      dup2\n        /* \"#utility.yul\":18202:18333   */\n      tag_334\n      jump\t// in\n    tag_522:\n        /* \"#utility.yul\":18194:18333   */\n      swap1\n      pop\n        /* \"#utility.yul\":17921:18340   */\n      swap2\n      swap1\n      pop\n      jump\t// out\n        /* \"#utility.yul\":18346:18524   */\n    tag_335:\n        /* \"#utility.yul\":18486:18516   */\n      0x4e6f7420656e6f7567682066756e6420746f2077697468647261772100000000\n        /* \"#utility.yul\":18482:18483   */\n      0x00\n        /* \"#utility.yul\":18474:18480   */\n      dup3\n        /* \"#utility.yul\":18470:18484   */\n      add\n        /* \"#utility.yul\":18463:18517   */\n      mstore\n        /* \"#utility.yul\":18346:18524   */\n      pop\n      jump\t// out\n        /* \"#utility.yul\":18530:18896   */\n    tag_336:\n        /* \"#utility.yul\":18672:18675   */\n      0x00\n        /* \"#utility.yul\":18693:18760   */\n      tag_525\n        /* \"#utility.yul\":18757:18759   */\n      0x1c\n        /* \"#utility.yul\":18752:18755   */\n      dup4\n        /* \"#utility.yul\":18693:18760   */\n      tag_299\n      jump\t// in\n    tag_525:\n        /* \"#utility.yul\":18686:18760   */\n      swap2\n      pop\n        /* \"#utility.yul\":18769:18862   */\n      tag_526\n        /* \"#utility.yul\":18858:18861   */\n      dup3\n        /* \"#utility.yul\":18769:18862   */\n      tag_335\n      jump\t// in\n    tag_526:\n        /* \"#utility.yul\":18887:18889   */\n      0x20\n        /* \"#utility.yul\":18882:18885   */\n      dup3\n        /* \"#utility.yul\":18878:18890   */\n      add\n        /* \"#utility.yul\":18871:18890   */\n      swap1\n      pop\n        /* \"#utility.yul\":18530:18896   */\n      swap2\n      swap1\n      pop\n      jump\t// out\n        /* \"#utility.yul\":18902:19321   */\n    tag_214:\n        /* \"#utility.yul\":19068:19072   */\n      0x00\n        /* \"#utility.yul\":19106:19108   */\n      0x20\n        /* \"#utility.yul\":19095:19104   */\n      dup3\n        /* \"#utility.yul\":19091:19109   */\n      add\n        /* \"#utility.yul\":19083:19109   */\n      swap1\n      pop\n        /* \"#utility.yul\":19155:19164   */\n      dup2\n        /* \"#utility.yul\":19149:19153   */\n      dup2\n        /* \"#utility.yul\":19145:19165   */\n      sub\n        /* \"#utility.yul\":19141:19142   */\n      0x00\n        /* \"#utility.yul\":19130:19139   */\n      dup4\n        /* \"#utility.yul\":19126:19143   */\n      add\n        /* \"#utility.yul\":19119:19166   */\n      mstore\n        /* \"#utility.yul\":19183:19314   */\n      tag_528\n        /* \"#utility.yul\":19309:19313   */\n      dup2\n        /* \"#utility.yul\":19183:19314   */\n      tag_336\n      jump\t// in\n    tag_528:\n        /* \"#utility.yul\":19175:19314   */\n      swap1\n      pop\n        /* \"#utility.yul\":18902:19321   */\n      swap2\n      swap1\n      pop\n      jump\t// out\n        /* \"#utility.yul\":19327:19508   */\n    tag_337:\n        /* \"#utility.yul\":19467:19500   */\n      0x43616e6e6f74207769746864726177206166746572206f6e65207765656b2100\n        /* \"#utility.yul\":19463:19464   */\n      0x00\n        /* \"#utility.yul\":19455:19461   */\n      dup3\n        /* \"#utility.yul\":19451:19465   */\n      add\n        /* \"#utility.yul\":19444:19501   */\n      mstore\n        /* \"#utility.yul\":19327:19508   */\n      pop\n      jump\t// out\n        /* \"#utility.yul\":19514:19880   */\n    tag_338:\n        /* \"#utility.yul\":19656:19659   */\n      0x00\n        /* \"#utility.yul\":19677:19744   */\n      tag_531\n        /* \"#utility.yul\":19741:19743   */\n      0x1f\n        /* \"#utility.yul\":19736:19739   */\n      dup4\n        /* \"#utility.yul\":19677:19744   */\n      tag_299\n      jump\t// in\n    tag_531:\n        /* \"#utility.yul\":19670:19744   */\n      swap2\n      pop\n        /* \"#utility.yul\":19753:19846   */\n      tag_532\n        /* \"#utility.yul\":19842:19845   */\n      dup3\n        /* \"#utility.yul\":19753:19846   */\n      tag_337\n      jump\t// in\n    tag_532:\n        /* \"#utility.yul\":19871:19873   */\n      0x20\n        /* \"#utility.yul\":19866:19869   */\n      dup3\n        /* \"#utility.yul\":19862:19874   */\n      add\n        /* \"#utility.yul\":19855:19874   */\n      swap1\n      pop\n        /* \"#utility.yul\":19514:19880   */\n      swap2\n      swap1\n      pop\n      jump\t// out\n        /* \"#utility.yul\":19886:20305   */\n    tag_218:\n        /* \"#utility.yul\":20052:20056   */\n      0x00\n        /* \"#utility.yul\":20090:20092   */\n      0x20\n        /* \"#utility.yul\":20079:20088   */\n      dup3\n        /* \"#utility.yul\":20075:20093   */\n      add\n        /* \"#utility.yul\":20067:20093   */\n      swap1\n      pop\n        /* \"#utility.yul\":20139:20148   */\n      dup2\n        /* \"#utility.yul\":20133:20137   */\n      dup2\n        /* \"#utility.yul\":20129:20149   */\n      sub\n        /* \"#utility.yul\":20125:20126   */\n      0x00\n        /* \"#utility.yul\":20114:20123   */\n      dup4\n        /* \"#utility.yul\":20110:20127   */\n      add\n        /* \"#utility.yul\":20103:20150   */\n      mstore\n        /* \"#utility.yul\":20167:20298   */\n      tag_534\n        /* \"#utility.yul\":20293:20297   */\n      dup2\n        /* \"#utility.yul\":20167:20298   */\n      tag_338\n      jump\t// in\n    tag_534:\n        /* \"#utility.yul\":20159:20298   */\n      swap1\n      pop\n        /* \"#utility.yul\":19886:20305   */\n      swap2\n      swap1\n      pop\n      jump\t// out\n        /* \"#utility.yul\":20311:20491   */\n    tag_339:\n        /* \"#utility.yul\":20451:20483   */\n      0x496e73756666696369656e742066756e6420746f207769746864726177210000\n        /* \"#utility.yul\":20447:20448   */\n      0x00\n        /* \"#utility.yul\":20439:20445   */\n      dup3\n        /* \"#utility.yul\":20435:20449   */\n      add\n        /* \"#utility.yul\":20428:20484   */\n      mstore\n        /* \"#utility.yul\":20311:20491   */\n      pop\n      jump\t// out\n        /* \"#utility.yul\":20497:20863   */\n    tag_340:\n        /* \"#utility.yul\":20639:20642   */\n      0x00\n        /* \"#utility.yul\":20660:20727   */\n      tag_537\n        /* \"#utility.yul\":20724:20726   */\n      0x1e\n        /* \"#utility.yul\":20719:20722   */\n      dup4\n        /* \"#utility.yul\":20660:20727   */\n      tag_299\n      jump\t// in\n    tag_537:\n        /* \"#utility.yul\":20653:20727   */\n      swap2\n      pop\n        /* \"#utility.yul\":20736:20829   */\n      tag_538\n        /* \"#utility.yul\":20825:20828   */\n      dup3\n        /* \"#utility.yul\":20736:20829   */\n      tag_339\n      jump\t// in\n    tag_538:\n        /* \"#utility.yul\":20854:20856   */\n      0x20\n        /* \"#utility.yul\":20849:20852   */\n      dup3\n        /* \"#utility.yul\":20845:20857   */\n      add\n        /* \"#utility.yul\":20838:20857   */\n      swap1\n      pop\n        /* \"#utility.yul\":20497:20863   */\n      swap2\n      swap1\n      pop\n      jump\t// out\n        /* \"#utility.yul\":20869:21288   */\n    tag_224:\n        /* \"#utility.yul\":21035:21039   */\n      0x00\n        /* \"#utility.yul\":21073:21075   */\n      0x20\n        /* \"#utility.yul\":21062:21071   */\n      dup3\n        /* \"#utility.yul\":21058:21076   */\n      add\n        /* \"#utility.yul\":21050:21076   */\n      swap1\n      pop\n        /* \"#utility.yul\":21122:21131   */\n      dup2\n        /* \"#utility.yul\":21116:21120   */\n      dup2\n        /* \"#utility.yul\":21112:21132   */\n      sub\n        /* \"#utility.yul\":21108:21109   */\n      0x00\n        /* \"#utility.yul\":21097:21106   */\n      dup4\n        /* \"#utility.yul\":21093:21110   */\n      add\n        /* \"#utility.yul\":21086:21133   */\n      mstore\n        /* \"#utility.yul\":21150:21281   */\n      tag_540\n        /* \"#utility.yul\":21276:21280   */\n      dup2\n        /* \"#utility.yul\":21150:21281   */\n      tag_340\n      jump\t// in\n    tag_540:\n        /* \"#utility.yul\":21142:21281   */\n      swap1\n      pop\n        /* \"#utility.yul\":20869:21288   */\n      swap2\n      swap1\n      pop\n      jump\t// out\n        /* \"#utility.yul\":21294:21474   */\n    tag_232:\n        /* \"#utility.yul\":21342:21419   */\n      0x4e487b7100000000000000000000000000000000000000000000000000000000\n        /* \"#utility.yul\":21339:21340   */\n      0x00\n        /* \"#utility.yul\":21332:21420   */\n      mstore\n        /* \"#utility.yul\":21439:21443   */\n      0x01\n        /* \"#utility.yul\":21436:21437   */\n      0x04\n        /* \"#utility.yul\":21429:21444   */\n      mstore\n        /* \"#utility.yul\":21463:21467   */\n      0x24\n        /* \"#utility.yul\":21460:21461   */\n      0x00\n        /* \"#utility.yul\":21453:21468   */\n      revert\n\n    auxdata: 0xa264697066735822122090aa411f711299a93c3c1ce8387a408863b3673afd5a619284c7d1616f8d21d664736f6c634300081a0033\n}\n",
				"bytecode": {
					"linkReferences": {},
					"object": "6080604052348015600e575f80fd5b50335f806101000a81548173ffffffffffffffffffffffffffffffffffffffff021916908373ffffffffffffffffffffffffffffffffffffffff16021790555042600681905550426008819055506129c4806100695f395ff3fe608060405260043610610085575f3560e01c8063a659f4dc11610058578063a659f4dc146100e9578063b1c617ff14610113578063c9ea02991461013d578063ca6aae2914610159578063dd5f6f4d1461018357610085565b806312db135714610089578063498213321461009f5780637da384fd146100a957806389a4c1a0146100bf575b5f80fd5b348015610094575f80fd5b5061009d6101ab565b005b6100a7610531565b005b3480156100b4575f80fd5b506100bd61078a565b005b3480156100ca575f80fd5b506100d36110e1565b6040516100e09190611e98565b60405180910390f35b3480156100f4575f80fd5b506100fd611104565b60405161010a9190611ec9565b60405180910390f35b34801561011e575f80fd5b5061012761110a565b6040516101349190611ec9565b60405180910390f35b61015760048036038101906101529190611fcf565b611110565b005b348015610164575f80fd5b5061016d611894565b60405161017a9190611ec9565b60405180910390f35b34801561018e575f80fd5b506101a960048036038101906101a4919061205d565b61189a565b005b670de0b6b3a764000060035f3373ffffffffffffffffffffffffffffffffffffffff1673ffffffffffffffffffffffffffffffffffffffff1681526020019081526020015f205f015410158061024b57505f8054906101000a900473ffffffffffffffffffffffffffffffffffffffff1673ffffffffffffffffffffffffffffffffffffffff163373ffffffffffffffffffffffffffffffffffffffff16145b61028a576040517f08c379a0000000000000000000000000000000000000000000000000000000008152600401610281906120e2565b60405180910390fd5b5f60055490505f806102b8476001546007546005546102a9919061212d565b6102b3919061212d565b611b14565b905069021e19e0c9bab240000081106103005760c8816102d8919061218d565b836102e3919061212d565b925060c8816102f2919061218d565b826102fd919061212d565b91505b5f6005819055505f5b6002805490508110156104bf57670de0b6b3a764000060035f60028481548110610336576103356121bd565b5b905f5260205f20015f9054906101000a900473ffffffffffffffffffffffffffffffffffffffff1673ffffffffffffffffffffffffffffffffffffffff1673ffffffffffffffffffffffffffffffffffffffff1681526020019081526020015f205f0154106104b2575f61042f61042760035f600286815481106103bd576103bc6121bd565b5b905f5260205f20015f9054906101000a900473ffffffffffffffffffffffffffffffffffffffff1673ffffffffffffffffffffffffffffffffffffffff1673ffffffffffffffffffffffffffffffffffffffff1681526020019081526020015f205f015487611b3a565b600454611b7f565b905060028281548110610445576104446121bd565b5b905f5260205f20015f9054906101000a900473ffffffffffffffffffffffffffffffffffffffff1673ffffffffffffffffffffffffffffffffffffffff166108fc8290811502906040515f60405180830381858888f193505050501580156104af573d5f803e3d5ffd5b50505b8080600101915050610309565b505f82111561052c575f8054906101000a900473ffffffffffffffffffffffffffffffffffffffff1673ffffffffffffffffffffffffffffffffffffffff166108fc8390811502906040515f60405180830381858888f1935050505015801561052a573d5f803e3d5ffd5b505b505050565b670de0b6b3a764000034101580156105525750683635c9adc5dea000003411155b610591576040517f08c379a00000000000000000000000000000000000000000000000000000000081526004016105889061225a565b60405180910390fd5b69021e19e0c9bab24000006105c2476001546007546005546105b3919061212d565b6105bd919061212d565b611b14565b11156105cc575f80fd5b3460045f8282546105dd919061212d565b925050819055503460035f3373ffffffffffffffffffffffffffffffffffffffff1673ffffffffffffffffffffffffffffffffffffffff1681526020019081526020015f205f015f828254610632919061212d565b925050819055504260035f3373ffffffffffffffffffffffffffffffffffffffff1673ffffffffffffffffffffffffffffffffffffffff1681526020019081526020015f206001018190555060035f3373ffffffffffffffffffffffffffffffffffffffff1673ffffffffffffffffffffffffffffffffffffffff1681526020019081526020015f206002015f9054906101000a900460ff1661078857600160035f3373ffffffffffffffffffffffffffffffffffffffff1673ffffffffffffffffffffffffffffffffffffffff1681526020019081526020015f206002015f6101000a81548160ff021916908315150217905550600233908060018154018082558091505060019003905f5260205f20015f9091909190916101000a81548173ffffffffffffffffffffffffffffffffffffffff021916908373ffffffffffffffffffffffffffffffffffffffff1602179055505b565b5f60095f3373ffffffffffffffffffffffffffffffffffffffff1673ffffffffffffffffffffffffffffffffffffffff1681526020019081526020015f205f01805490501161080e576040517f08c379a0000000000000000000000000000000000000000000000000000000008152600401610805906122e8565b60405180910390fd5b60095f3373ffffffffffffffffffffffffffffffffffffffff1673ffffffffffffffffffffffffffffffffffffffff1681526020019081526020015f205f01600160095f3373ffffffffffffffffffffffffffffffffffffffff1673ffffffffffffffffffffffffffffffffffffffff1681526020019081526020015f205f018054905061089c9190612306565b815481106108ad576108ac6121bd565b5b905f5260205f20906002020160010160019054906101000a90047effffffffffffffffffffffffffffffffffffffffffffffffffffffffffffff167effffffffffffffffffffffffffffffffffffffffffffffffffffffffffffff16431161094a576040517f08c379a000000000000000000000000000000000000000000000000000000000815260040161094190612383565b60405180910390fd5b5f60095f3373ffffffffffffffffffffffffffffffffffffffff1673ffffffffffffffffffffffffffffffffffffffff1681526020019081526020015f206001018054905011156109e15760095f3373ffffffffffffffffffffffffffffffffffffffff1673ffffffffffffffffffffffffffffffffffffffff1681526020019081526020015f206001015f6109e09190611d79565b5b5f805f90505b60095f3373ffffffffffffffffffffffffffffffffffffffff1673ffffffffffffffffffffffffffffffffffffffff1681526020019081526020015f205f0180549050811015610f9c575f60095f3373ffffffffffffffffffffffffffffffffffffffff1673ffffffffffffffffffffffffffffffffffffffff1681526020019081526020015f205f018281548110610a8357610a826121bd565b5b905f5260205f20906002020160010160019054906101000a90047effffffffffffffffffffffffffffffffffffffffffffffffffffffffffffff167effffffffffffffffffffffffffffffffffffffffffffffffffffffffffffff16405f1c0315610f8f575f60095f3373ffffffffffffffffffffffffffffffffffffffff1673ffffffffffffffffffffffffffffffffffffffff1681526020019081526020015f205f018281548110610b3a57610b396121bd565b5b905f5260205f2090600202015f015460095f3373ffffffffffffffffffffffffffffffffffffffff1673ffffffffffffffffffffffffffffffffffffffff1681526020019081526020015f205f018381548110610b9a57610b996121bd565b5b905f5260205f20906002020160010160019054906101000a90047effffffffffffffffffffffffffffffffffffffffffffffffffffffffffffff167effffffffffffffffffffffffffffffffffffffffffffffffffffffffffffff1640604051602001610c089291906123ca565b6040516020818303038152906040528051906020012060e01c90505f610c2d82611ba9565b90505f811115610e55575f66470de4df82000060095f3373ffffffffffffffffffffffffffffffffffffffff1673ffffffffffffffffffffffffffffffffffffffff1681526020019081526020015f205f018581548110610c9157610c906121bd565b5b905f5260205f2090600202016001015f9054906101000a900460ff1660ff16610cb984611cac565b610cc391906123f5565b610ccd91906123f5565b90508085610cdb919061212d565b94505f60405180608001604052808563ffffffff16815260200160095f3373ffffffffffffffffffffffffffffffffffffffff1673ffffffffffffffffffffffffffffffffffffffff1681526020019081526020015f205f018781548110610d4657610d456121bd565b5b905f5260205f2090600202016001015f9054906101000a900460ff1660ff1681526020014264ffffffffff1681526020013373ffffffffffffffffffffffffffffffffffffffff168152509050600b81908060018154018082558091505060019003905f5260205f2090600302015f909190919091505f820151815f015f6101000a81548163ffffffff021916908363ffffffff1602179055506020820151815f0160046101000a81548160ff021916908360ff160217905550604082015181600101556060820151816002015f6101000a81548173ffffffffffffffffffffffffffffffffffffffff021916908373ffffffffffffffffffffffffffffffffffffffff160217905550505050505b5f60405180604001604052808463ffffffff16815260200160095f3373ffffffffffffffffffffffffffffffffffffffff1673ffffffffffffffffffffffffffffffffffffffff1681526020019081526020015f205f018681548110610ebe57610ebd6121bd565b5b905f5260205f2090600202016001015f9054906101000a900460ff1660ff16815250905060095f3373ffffffffffffffffffffffffffffffffffffffff1673ffffffffffffffffffffffffffffffffffffffff1681526020019081526020015f2060010181908060018154018082558091505060019003905f5260205f20015f909190919091505f820151815f015f6101000a81548163ffffffff021916908363ffffffff1602179055506020820151815f0160046101000a81548160ff021916908360ff16021790555050505050505b80806001019150506109e7565b5060095f3373ffffffffffffffffffffffffffffffffffffffff1673ffffffffffffffffffffffffffffffffffffffff1681526020019081526020015f205f015f610fe79190611d97565b5f8111156110de575f61102a61102361101c4760015460075460055461100d919061212d565b611017919061212d565b611b14565b6046611b3a565b6064611b7f565b905080821115611038578091505b5f61104e611047846005611b3a565b6064611b7f565b90508060055f828254611061919061212d565b925050819055508060015f828254611079919061212d565b925050819055503373ffffffffffffffffffffffffffffffffffffffff166108fc6002836110a791906123f5565b856110b29190612306565b90811502906040515f60405180830381858888f193505050501580156110da573d5f803e3d5ffd5b5050505b50565b5f8054906101000a900473ffffffffffffffffffffffffffffffffffffffff1681565b60045481565b60065481565b66470de4df82000034101561115a576040517f08c379a000000000000000000000000000000000000000000000000000000000815260040161115190612480565b60405180910390fd5b60018360ff1610158015611172575060648360ff1611155b6111b1576040517f08c379a00000000000000000000000000000000000000000000000000000000081526004016111a8906124e8565b60405180910390fd5b60018461ffff16101580156111cc57506103e88461ffff1611155b61120b576040517f08c379a000000000000000000000000000000000000000000000000000000000815260040161120290612550565b60405180910390fd5b5f61121d3466470de4df820000611b7f565b90508360ff168561122e919061256e565b61ffff168114611273576040517f08c379a000000000000000000000000000000000000000000000000000000000815260040161126a906125f4565b60405180910390fd5b5f5b8561ffff168110156113f6575f6040518060600160405280424133898061129b90612612565b9a506040516020016112b09493929190612728565b6040516020818303038152906040528051906020012081526020018760ff168152602001437effffffffffffffffffffffffffffffffffffffffffffffffffffffffffffff16815250905060095f3373ffffffffffffffffffffffffffffffffffffffff1673ffffffffffffffffffffffffffffffffffffffff1681526020019081526020015f205f0181908060018154018082558091505060019003905f5260205f2090600202015f909190919091505f820151815f01556020820151816001015f6101000a81548160ff021916908360ff16021790555060408201518160010160016101000a8154817effffffffffffffffffffffffffffffffffffffffffffffffffffffffffffff02191690837effffffffffffffffffffffffffffffffffffffffffffffffffffffffffffff1602179055505050508080600101915050611275565b5060095f3373ffffffffffffffffffffffffffffffffffffffff1673ffffffffffffffffffffffffffffffffffffffff1681526020019081526020015f206003015f9054906101000a900460ff166114a157600160095f3373ffffffffffffffffffffffffffffffffffffffff1673ffffffffffffffffffffffffffffffffffffffff1681526020019081526020015f206003015f6101000a81548160ff0219169083151502179055505b5f6114b76114b0346003611b3a565b6064611b7f565b90505f6114cf6114c8346004611b3a565b6064611b7f565b90508160015f8282546114e2919061212d565b925050819055508160055f8282546114fa919061212d565b925050819055505f73ffffffffffffffffffffffffffffffffffffffff16600a5f3373ffffffffffffffffffffffffffffffffffffffff1673ffffffffffffffffffffffffffffffffffffffff1681526020019081526020015f205f9054906101000a900473ffffffffffffffffffffffffffffffffffffffff1673ffffffffffffffffffffffffffffffffffffffff160361188b573373ffffffffffffffffffffffffffffffffffffffff168473ffffffffffffffffffffffffffffffffffffffff1614806115f557505f73ffffffffffffffffffffffffffffffffffffffff168473ffffffffffffffffffffffffffffffffffffffff16145b8061164a575060095f3373ffffffffffffffffffffffffffffffffffffffff1673ffffffffffffffffffffffffffffffffffffffff1681526020019081526020015f206003015f9054906101000a900460ff16155b15611672575f8054906101000a900473ffffffffffffffffffffffffffffffffffffffff1693505b83600a5f3373ffffffffffffffffffffffffffffffffffffffff1673ffffffffffffffffffffffffffffffffffffffff1681526020019081526020015f205f6101000a81548173ffffffffffffffffffffffffffffffffffffffff021916908373ffffffffffffffffffffffffffffffffffffffff1602179055505f8054906101000a900473ffffffffffffffffffffffffffffffffffffffff1673ffffffffffffffffffffffffffffffffffffffff16600a5f3373ffffffffffffffffffffffffffffffffffffffff1673ffffffffffffffffffffffffffffffffffffffff1681526020019081526020015f205f9054906101000a900473ffffffffffffffffffffffffffffffffffffffff1673ffffffffffffffffffffffffffffffffffffffff16036117b8578060015f8282546117ac919061212d565b92505081905550611883565b8060095f600a5f3373ffffffffffffffffffffffffffffffffffffffff1673ffffffffffffffffffffffffffffffffffffffff1681526020019081526020015f205f9054906101000a900473ffffffffffffffffffffffffffffffffffffffff1673ffffffffffffffffffffffffffffffffffffffff1673ffffffffffffffffffffffffffffffffffffffff1681526020019081526020015f206002015f828254611863919061212d565b925050819055508060075f82825461187b919061212d565b925050819055505b426008819055505b50505050505050565b60055481565b670de0b6b3a76400008110156118e5576040517f08c379a00000000000000000000000000000000000000000000000000000000081526004016118dc9061280b565b60405180910390fd5b60035f3373ffffffffffffffffffffffffffffffffffffffff1673ffffffffffffffffffffffffffffffffffffffff1681526020019081526020015f205f0154811115611967576040517f08c379a000000000000000000000000000000000000000000000000000000000815260040161195e90612873565b60405180910390fd5b62093a8060035f3373ffffffffffffffffffffffffffffffffffffffff1673ffffffffffffffffffffffffffffffffffffffff1681526020019081526020015f20600101546119b6919061212d565b4210156119f8576040517f08c379a00000000000000000000000000000000000000000000000000000000081526004016119ef906128db565b60405180910390fd5b80611a1f47600154600754600554611a10919061212d565b611a1a919061212d565b611b14565b1015611a60576040517f08c379a0000000000000000000000000000000000000000000000000000000008152600401611a5790612943565b60405180910390fd5b8060035f3373ffffffffffffffffffffffffffffffffffffffff1673ffffffffffffffffffffffffffffffffffffffff1681526020019081526020015f205f015f828254611aae9190612306565b925050819055508060045f828254611ac69190612306565b925050819055503373ffffffffffffffffffffffffffffffffffffffff166108fc8290811502906040515f60405180830381858888f19350505050158015611b10573d5f803e3d5ffd5b5050565b5f82821115611b2657611b25612961565b5b8183611b329190612306565b905092915050565b5f808303611b4a575f9050611b79565b5f8284611b5791906123f5565b9050828482611b66919061218d565b14611b7457611b73612961565b5b809150505b92915050565b5f808211611b9057611b8f612961565b5b5f8284611b9d919061218d565b90508091505092915050565b5f63040000008263ffffffff161115611bc4575f9050611ca7565b63010000008263ffffffff1610611bde57600a9050611ca7565b624000008263ffffffff1610611bf75760099050611ca7565b621000008263ffffffff1610611c105760089050611ca7565b620400008263ffffffff1610611c295760079050611ca7565b620100008263ffffffff1610611c425760069050611ca7565b6140008263ffffffff1610611c5a5760059050611ca7565b6110008263ffffffff1610611c725760049050611ca7565b6104008263ffffffff1610611c8a5760039050611ca7565b6101008263ffffffff1610611ca25760029050611ca7565b600190505b919050565b5f808203611cbc575f9050611d74565b600a8203611ccd5760059050611d74565b60098203611cde5760149050611d74565b60088203611cef5760509050611d74565b60078203611d01576101409050611d74565b60068203611d13576104b09050611d74565b60058203611d25576112c09050611d74565b60048203611d3757614e209050611d74565b60038203611d4a57620186a09050611d74565b60028203611d5d576207a1209050611d74565b60018203611d7057621e84809050611d74565b5f90505b919050565b5080545f8255905f5260205f2090810190611d949190611db8565b50565b5080545f8255600202905f5260205f2090810190611db59190611df7565b50565b5b80821115611df3575f8082015f6101000a81549063ffffffff02191690555f820160046101000a81549060ff021916905550600101611db9565b5090565b5b80821115611e55575f8082015f9055600182015f6101000a81549060ff02191690556001820160016101000a8154907effffffffffffffffffffffffffffffffffffffffffffffffffffffffffffff021916905550600201611df8565b5090565b5f73ffffffffffffffffffffffffffffffffffffffff82169050919050565b5f611e8282611e59565b9050919050565b611e9281611e78565b82525050565b5f602082019050611eab5f830184611e89565b92915050565b5f819050919050565b611ec381611eb1565b82525050565b5f602082019050611edc5f830184611eba565b92915050565b5f80fd5b5f61ffff82169050919050565b611efc81611ee6565b8114611f06575f80fd5b50565b5f81359050611f1781611ef3565b92915050565b5f60ff82169050919050565b611f3281611f1d565b8114611f3c575f80fd5b50565b5f81359050611f4d81611f29565b92915050565b5f7cffffffffffffffffffffffffffffffffffffffffffffffffffffffffff82169050919050565b611f8481611f53565b8114611f8e575f80fd5b50565b5f81359050611f9f81611f7b565b92915050565b611fae81611e78565b8114611fb8575f80fd5b50565b5f81359050611fc981611fa5565b92915050565b5f805f8060808587031215611fe757611fe6611ee2565b5b5f611ff487828801611f09565b945050602061200587828801611f3f565b935050604061201687828801611f91565b925050606061202787828801611fbb565b91505092959194509250565b61203c81611eb1565b8114612046575f80fd5b50565b5f8135905061205781612033565b92915050565b5f6020828403121561207257612071611ee2565b5b5f61207f84828501612049565b91505092915050565b5f82825260208201905092915050565b7f596f75206d757374206265206120696e766573746f72000000000000000000005f82015250565b5f6120cc601683612088565b91506120d782612098565b602082019050919050565b5f6020820190508181035f8301526120f9816120c0565b9050919050565b7f4e487b71000000000000000000000000000000000000000000000000000000005f52601160045260245ffd5b5f61213782611eb1565b915061214283611eb1565b925082820190508082111561215a57612159612100565b5b92915050565b7f4e487b71000000000000000000000000000000000000000000000000000000005f52601260045260245ffd5b5f61219782611eb1565b91506121a283611eb1565b9250826121b2576121b1612160565b5b828204905092915050565b7f4e487b71000000000000000000000000000000000000000000000000000000005f52603260045260245ffd5b7f496e766573746d656e7420616d6f756e7420626574657765656e203120616e645f8201527f2031303030000000000000000000000000000000000000000000000000000000602082015250565b5f612244602583612088565b915061224f826121ea565b604082019050919050565b5f6020820190508181035f83015261227181612238565b9050919050565b7f596f7520646f6e2774206861766520756e64726177206c6f74746572792074695f8201527f636b657473000000000000000000000000000000000000000000000000000000602082015250565b5f6122d2602583612088565b91506122dd82612278565b604082019050919050565b5f6020820190508181035f8301526122ff816122c6565b9050919050565b5f61231082611eb1565b915061231b83611eb1565b925082820390508181111561233357612332612100565b5b92915050565b7f49742773206e6f742074696d65000000000000000000000000000000000000005f82015250565b5f61236d600d83612088565b915061237882612339565b602082019050919050565b5f6020820190508181035f83015261239a81612361565b9050919050565b5f819050919050565b5f819050919050565b6123c46123bf826123a1565b6123aa565b82525050565b5f6123d582856123b3565b6020820191506123e582846123b3565b6020820191508190509392505050565b5f6123ff82611eb1565b915061240a83611eb1565b925082820261241881611eb1565b9150828204841483151761242f5761242e612100565b5b5092915050565b7f427579206174206c65617374206f6e65206567670000000000000000000000005f82015250565b5f61246a601483612088565b915061247582612436565b602082019050919050565b5f6020820190508181035f8301526124978161245e565b9050919050565b7f4d756c7469706c6573206265747765656e203120616e642031303000000000005f82015250565b5f6124d2601b83612088565b91506124dd8261249e565b602082019050919050565b5f6020820190508181035f8301526124ff816124c6565b9050919050565b7f4e756d626572206f662065676773206265747765656e203120616e64203130305f82015250565b5f61253a602083612088565b915061254582612506565b602082019050919050565b5f6020820190508181035f8301526125678161252e565b9050919050565b5f61257882611ee6565b915061258383611ee6565b925082820261259181611ee6565b91508082146125a3576125a2612100565b5b5092915050565b7f496e76616c6964206461746100000000000000000000000000000000000000005f82015250565b5f6125de600c83612088565b91506125e9826125aa565b602082019050919050565b5f6020820190508181035f83015261260b816125d2565b9050919050565b5f61261c82611f53565b91507cffffffffffffffffffffffffffffffffffffffffffffffffffffffffff820361264b5761264a612100565b5b600182019050919050565b5f819050919050565b61267061266b82611eb1565b612656565b82525050565b5f61268082611e59565b9050919050565b5f8160601b9050919050565b5f61269d82612687565b9050919050565b5f6126ae82612693565b9050919050565b6126c66126c182612676565b6126a4565b82525050565b5f6126d682612693565b9050919050565b6126ee6126e982611e78565b6126cc565b82525050565b5f8160181b9050919050565b5f61270a826126f4565b9050919050565b61272261271d82611f53565b612700565b82525050565b5f612733828761265f565b60208201915061274382866126b5565b60148201915061275382856126dd565b6014820191506127638284612711565b601d8201915081905095945050505050565b7f4d696e696d756d20696e766573746d656e7420616d6f756e74206973207265715f8201527f75697265642c6974277320736d616c6c6572207468616e20746865206d696e6960208201527f6d756d206465706f736974000000000000000000000000000000000000000000604082015250565b5f6127f5604b83612088565b915061280082612775565b606082019050919050565b5f6020820190508181035f830152612822816127e9565b9050919050565b7f4e6f7420656e6f7567682066756e6420746f20776974686472617721000000005f82015250565b5f61285d601c83612088565b915061286882612829565b602082019050919050565b5f6020820190508181035f83015261288a81612851565b9050919050565b7f43616e6e6f74207769746864726177206166746572206f6e65207765656b21005f82015250565b5f6128c5601f83612088565b91506128d082612891565b602082019050919050565b5f6020820190508181035f8301526128f2816128b9565b9050919050565b7f496e73756666696369656e742066756e6420746f2077697468647261772100005f82015250565b5f61292d601e83612088565b9150612938826128f9565b602082019050919050565b5f6020820190508181035f83015261295a81612921565b9050919050565b7f4e487b71000000000000000000000000000000000000000000000000000000005f52600160045260245ffdfea264697066735822122090aa411f711299a93c3c1ce8387a408863b3673afd5a619284c7d1616f8d21d664736f6c634300081a0033",
					"opcodes": "PUSH1 0x80 PUSH1 0x40 MSTORE CALLVALUE DUP1 ISZERO PUSH1 0xE JUMPI PUSH0 DUP1 REVERT JUMPDEST POP CALLER PUSH0 DUP1 PUSH2 0x100 EXP DUP2 SLOAD DUP2 PUSH20 0xFFFFFFFFFFFFFFFFFFFFFFFFFFFFFFFFFFFFFFFF MUL NOT AND SWAP1 DUP4 PUSH20 0xFFFFFFFFFFFFFFFFFFFFFFFFFFFFFFFFFFFFFFFF AND MUL OR SWAP1 SSTORE POP TIMESTAMP PUSH1 0x6 DUP2 SWAP1 SSTORE POP TIMESTAMP PUSH1 0x8 DUP2 SWAP1 SSTORE POP PUSH2 0x29C4 DUP1 PUSH2 0x69 PUSH0 CODECOPY PUSH0 RETURN INVALID PUSH1 0x80 PUSH1 0x40 MSTORE PUSH1 0x4 CALLDATASIZE LT PUSH2 0x85 JUMPI PUSH0 CALLDATALOAD PUSH1 0xE0 SHR DUP1 PUSH4 0xA659F4DC GT PUSH2 0x58 JUMPI DUP1 PUSH4 0xA659F4DC EQ PUSH2 0xE9 JUMPI DUP1 PUSH4 0xB1C617FF EQ PUSH2 0x113 JUMPI DUP1 PUSH4 0xC9EA0299 EQ PUSH2 0x13D JUMPI DUP1 PUSH4 0xCA6AAE29 EQ PUSH2 0x159 JUMPI DUP1 PUSH4 0xDD5F6F4D EQ PUSH2 0x183 JUMPI PUSH2 0x85 JUMP JUMPDEST DUP1 PUSH4 0x12DB1357 EQ PUSH2 0x89 JUMPI DUP1 PUSH4 0x49821332 EQ PUSH2 0x9F JUMPI DUP1 PUSH4 0x7DA384FD EQ PUSH2 0xA9 JUMPI DUP1 PUSH4 0x89A4C1A0 EQ PUSH2 0xBF JUMPI JUMPDEST PUSH0 DUP1 REVERT JUMPDEST CALLVALUE DUP1 ISZERO PUSH2 0x94 JUMPI PUSH0 DUP1 REVERT JUMPDEST POP PUSH2 0x9D PUSH2 0x1AB JUMP JUMPDEST STOP JUMPDEST PUSH2 0xA7 PUSH2 0x531 JUMP JUMPDEST STOP JUMPDEST CALLVALUE DUP1 ISZERO PUSH2 0xB4 JUMPI PUSH0 DUP1 REVERT JUMPDEST POP PUSH2 0xBD PUSH2 0x78A JUMP JUMPDEST STOP JUMPDEST CALLVALUE DUP1 ISZERO PUSH2 0xCA JUMPI PUSH0 DUP1 REVERT JUMPDEST POP PUSH2 0xD3 PUSH2 0x10E1 JUMP JUMPDEST PUSH1 0x40 MLOAD PUSH2 0xE0 SWAP2 SWAP1 PUSH2 0x1E98 JUMP JUMPDEST PUSH1 0x40 MLOAD DUP1 SWAP2 SUB SWAP1 RETURN JUMPDEST CALLVALUE DUP1 ISZERO PUSH2 0xF4 JUMPI PUSH0 DUP1 REVERT JUMPDEST POP PUSH2 0xFD PUSH2 0x1104 JUMP JUMPDEST PUSH1 0x40 MLOAD PUSH2 0x10A SWAP2 SWAP1 PUSH2 0x1EC9 JUMP JUMPDEST PUSH1 0x40 MLOAD DUP1 SWAP2 SUB SWAP1 RETURN JUMPDEST CALLVALUE DUP1 ISZERO PUSH2 0x11E JUMPI PUSH0 DUP1 REVERT JUMPDEST POP PUSH2 0x127 PUSH2 0x110A JUMP JUMPDEST PUSH1 0x40 MLOAD PUSH2 0x134 SWAP2 SWAP1 PUSH2 0x1EC9 JUMP JUMPDEST PUSH1 0x40 MLOAD DUP1 SWAP2 SUB SWAP1 RETURN JUMPDEST PUSH2 0x157 PUSH1 0x4 DUP1 CALLDATASIZE SUB DUP2 ADD SWAP1 PUSH2 0x152 SWAP2 SWAP1 PUSH2 0x1FCF JUMP JUMPDEST PUSH2 0x1110 JUMP JUMPDEST STOP JUMPDEST CALLVALUE DUP1 ISZERO PUSH2 0x164 JUMPI PUSH0 DUP1 REVERT JUMPDEST POP PUSH2 0x16D PUSH2 0x1894 JUMP JUMPDEST PUSH1 0x40 MLOAD PUSH2 0x17A SWAP2 SWAP1 PUSH2 0x1EC9 JUMP JUMPDEST PUSH1 0x40 MLOAD DUP1 SWAP2 SUB SWAP1 RETURN JUMPDEST CALLVALUE DUP1 ISZERO PUSH2 0x18E JUMPI PUSH0 DUP1 REVERT JUMPDEST POP PUSH2 0x1A9 PUSH1 0x4 DUP1 CALLDATASIZE SUB DUP2 ADD SWAP1 PUSH2 0x1A4 SWAP2 SWAP1 PUSH2 0x205D JUMP JUMPDEST PUSH2 0x189A JUMP JUMPDEST STOP JUMPDEST PUSH8 0xDE0B6B3A7640000 PUSH1 0x3 PUSH0 CALLER PUSH20 0xFFFFFFFFFFFFFFFFFFFFFFFFFFFFFFFFFFFFFFFF AND PUSH20 0xFFFFFFFFFFFFFFFFFFFFFFFFFFFFFFFFFFFFFFFF AND DUP2 MSTORE PUSH1 0x20 ADD SWAP1 DUP2 MSTORE PUSH1 0x20 ADD PUSH0 KECCAK256 PUSH0 ADD SLOAD LT ISZERO DUP1 PUSH2 0x24B JUMPI POP PUSH0 DUP1 SLOAD SWAP1 PUSH2 0x100 EXP SWAP1 DIV PUSH20 0xFFFFFFFFFFFFFFFFFFFFFFFFFFFFFFFFFFFFFFFF AND PUSH20 0xFFFFFFFFFFFFFFFFFFFFFFFFFFFFFFFFFFFFFFFF AND CALLER PUSH20 0xFFFFFFFFFFFFFFFFFFFFFFFFFFFFFFFFFFFFFFFF AND EQ JUMPDEST PUSH2 0x28A JUMPI PUSH1 0x40 MLOAD PUSH32 0x8C379A000000000000000000000000000000000000000000000000000000000 DUP2 MSTORE PUSH1 0x4 ADD PUSH2 0x281 SWAP1 PUSH2 0x20E2 JUMP JUMPDEST PUSH1 0x40 MLOAD DUP1 SWAP2 SUB SWAP1 REVERT JUMPDEST PUSH0 PUSH1 0x5 SLOAD SWAP1 POP PUSH0 DUP1 PUSH2 0x2B8 SELFBALANCE PUSH1 0x1 SLOAD PUSH1 0x7 SLOAD PUSH1 0x5 SLOAD PUSH2 0x2A9 SWAP2 SWAP1 PUSH2 0x212D JUMP JUMPDEST PUSH2 0x2B3 SWAP2 SWAP1 PUSH2 0x212D JUMP JUMPDEST PUSH2 0x1B14 JUMP JUMPDEST SWAP1 POP PUSH10 0x21E19E0C9BAB2400000 DUP2 LT PUSH2 0x300 JUMPI PUSH1 0xC8 DUP2 PUSH2 0x2D8 SWAP2 SWAP1 PUSH2 0x218D JUMP JUMPDEST DUP4 PUSH2 0x2E3 SWAP2 SWAP1 PUSH2 0x212D JUMP JUMPDEST SWAP3 POP PUSH1 0xC8 DUP2 PUSH2 0x2F2 SWAP2 SWAP1 PUSH2 0x218D JUMP JUMPDEST DUP3 PUSH2 0x2FD SWAP2 SWAP1 PUSH2 0x212D JUMP JUMPDEST SWAP2 POP JUMPDEST PUSH0 PUSH1 0x5 DUP2 SWAP1 SSTORE POP PUSH0 JUMPDEST PUSH1 0x2 DUP1 SLOAD SWAP1 POP DUP2 LT ISZERO PUSH2 0x4BF JUMPI PUSH8 0xDE0B6B3A7640000 PUSH1 0x3 PUSH0 PUSH1 0x2 DUP5 DUP2 SLOAD DUP2 LT PUSH2 0x336 JUMPI PUSH2 0x335 PUSH2 0x21BD JUMP JUMPDEST JUMPDEST SWAP1 PUSH0 MSTORE PUSH1 0x20 PUSH0 KECCAK256 ADD PUSH0 SWAP1 SLOAD SWAP1 PUSH2 0x100 EXP SWAP1 DIV PUSH20 0xFFFFFFFFFFFFFFFFFFFFFFFFFFFFFFFFFFFFFFFF AND PUSH20 0xFFFFFFFFFFFFFFFFFFFFFFFFFFFFFFFFFFFFFFFF AND PUSH20 0xFFFFFFFFFFFFFFFFFFFFFFFFFFFFFFFFFFFFFFFF AND DUP2 MSTORE PUSH1 0x20 ADD SWAP1 DUP2 MSTORE PUSH1 0x20 ADD PUSH0 KECCAK256 PUSH0 ADD SLOAD LT PUSH2 0x4B2 JUMPI PUSH0 PUSH2 0x42F PUSH2 0x427 PUSH1 0x3 PUSH0 PUSH1 0x2 DUP7 DUP2 SLOAD DUP2 LT PUSH2 0x3BD JUMPI PUSH2 0x3BC PUSH2 0x21BD JUMP JUMPDEST JUMPDEST SWAP1 PUSH0 MSTORE PUSH1 0x20 PUSH0 KECCAK256 ADD PUSH0 SWAP1 SLOAD SWAP1 PUSH2 0x100 EXP SWAP1 DIV PUSH20 0xFFFFFFFFFFFFFFFFFFFFFFFFFFFFFFFFFFFFFFFF AND PUSH20 0xFFFFFFFFFFFFFFFFFFFFFFFFFFFFFFFFFFFFFFFF AND PUSH20 0xFFFFFFFFFFFFFFFFFFFFFFFFFFFFFFFFFFFFFFFF AND DUP2 MSTORE PUSH1 0x20 ADD SWAP1 DUP2 MSTORE PUSH1 0x20 ADD PUSH0 KECCAK256 PUSH0 ADD SLOAD DUP8 PUSH2 0x1B3A JUMP JUMPDEST PUSH1 0x4 SLOAD PUSH2 0x1B7F JUMP JUMPDEST SWAP1 POP PUSH1 0x2 DUP3 DUP2 SLOAD DUP2 LT PUSH2 0x445 JUMPI PUSH2 0x444 PUSH2 0x21BD JUMP JUMPDEST JUMPDEST SWAP1 PUSH0 MSTORE PUSH1 0x20 PUSH0 KECCAK256 ADD PUSH0 SWAP1 SLOAD SWAP1 PUSH2 0x100 EXP SWAP1 DIV PUSH20 0xFFFFFFFFFFFFFFFFFFFFFFFFFFFFFFFFFFFFFFFF AND PUSH20 0xFFFFFFFFFFFFFFFFFFFFFFFFFFFFFFFFFFFFFFFF AND PUSH2 0x8FC DUP3 SWAP1 DUP2 ISZERO MUL SWAP1 PUSH1 0x40 MLOAD PUSH0 PUSH1 0x40 MLOAD DUP1 DUP4 SUB DUP2 DUP6 DUP9 DUP9 CALL SWAP4 POP POP POP POP ISZERO DUP1 ISZERO PUSH2 0x4AF JUMPI RETURNDATASIZE PUSH0 DUP1 RETURNDATACOPY RETURNDATASIZE PUSH0 REVERT JUMPDEST POP POP JUMPDEST DUP1 DUP1 PUSH1 0x1 ADD SWAP2 POP POP PUSH2 0x309 JUMP JUMPDEST POP PUSH0 DUP3 GT ISZERO PUSH2 0x52C JUMPI PUSH0 DUP1 SLOAD SWAP1 PUSH2 0x100 EXP SWAP1 DIV PUSH20 0xFFFFFFFFFFFFFFFFFFFFFFFFFFFFFFFFFFFFFFFF AND PUSH20 0xFFFFFFFFFFFFFFFFFFFFFFFFFFFFFFFFFFFFFFFF AND PUSH2 0x8FC DUP4 SWAP1 DUP2 ISZERO MUL SWAP1 PUSH1 0x40 MLOAD PUSH0 PUSH1 0x40 MLOAD DUP1 DUP4 SUB DUP2 DUP6 DUP9 DUP9 CALL SWAP4 POP POP POP POP ISZERO DUP1 ISZERO PUSH2 0x52A JUMPI RETURNDATASIZE PUSH0 DUP1 RETURNDATACOPY RETURNDATASIZE PUSH0 REVERT JUMPDEST POP JUMPDEST POP POP POP JUMP JUMPDEST PUSH8 0xDE0B6B3A7640000 CALLVALUE LT ISZERO DUP1 ISZERO PUSH2 0x552 JUMPI POP PUSH9 0x3635C9ADC5DEA00000 CALLVALUE GT ISZERO JUMPDEST PUSH2 0x591 JUMPI PUSH1 0x40 MLOAD PUSH32 0x8C379A000000000000000000000000000000000000000000000000000000000 DUP2 MSTORE PUSH1 0x4 ADD PUSH2 0x588 SWAP1 PUSH2 0x225A JUMP JUMPDEST PUSH1 0x40 MLOAD DUP1 SWAP2 SUB SWAP1 REVERT JUMPDEST PUSH10 0x21E19E0C9BAB2400000 PUSH2 0x5C2 SELFBALANCE PUSH1 0x1 SLOAD PUSH1 0x7 SLOAD PUSH1 0x5 SLOAD PUSH2 0x5B3 SWAP2 SWAP1 PUSH2 0x212D JUMP JUMPDEST PUSH2 0x5BD SWAP2 SWAP1 PUSH2 0x212D JUMP JUMPDEST PUSH2 0x1B14 JUMP JUMPDEST GT ISZERO PUSH2 0x5CC JUMPI PUSH0 DUP1 REVERT JUMPDEST CALLVALUE PUSH1 0x4 PUSH0 DUP3 DUP3 SLOAD PUSH2 0x5DD SWAP2 SWAP1 PUSH2 0x212D JUMP JUMPDEST SWAP3 POP POP DUP2 SWAP1 SSTORE POP CALLVALUE PUSH1 0x3 PUSH0 CALLER PUSH20 0xFFFFFFFFFFFFFFFFFFFFFFFFFFFFFFFFFFFFFFFF AND PUSH20 0xFFFFFFFFFFFFFFFFFFFFFFFFFFFFFFFFFFFFFFFF AND DUP2 MSTORE PUSH1 0x20 ADD SWAP1 DUP2 MSTORE PUSH1 0x20 ADD PUSH0 KECCAK256 PUSH0 ADD PUSH0 DUP3 DUP3 SLOAD PUSH2 0x632 SWAP2 SWAP1 PUSH2 0x212D JUMP JUMPDEST SWAP3 POP POP DUP2 SWAP1 SSTORE POP TIMESTAMP PUSH1 0x3 PUSH0 CALLER PUSH20 0xFFFFFFFFFFFFFFFFFFFFFFFFFFFFFFFFFFFFFFFF AND PUSH20 0xFFFFFFFFFFFFFFFFFFFFFFFFFFFFFFFFFFFFFFFF AND DUP2 MSTORE PUSH1 0x20 ADD SWAP1 DUP2 MSTORE PUSH1 0x20 ADD PUSH0 KECCAK256 PUSH1 0x1 ADD DUP2 SWAP1 SSTORE POP PUSH1 0x3 PUSH0 CALLER PUSH20 0xFFFFFFFFFFFFFFFFFFFFFFFFFFFFFFFFFFFFFFFF AND PUSH20 0xFFFFFFFFFFFFFFFFFFFFFFFFFFFFFFFFFFFFFFFF AND DUP2 MSTORE PUSH1 0x20 ADD SWAP1 DUP2 MSTORE PUSH1 0x20 ADD PUSH0 KECCAK256 PUSH1 0x2 ADD PUSH0 SWAP1 SLOAD SWAP1 PUSH2 0x100 EXP SWAP1 DIV PUSH1 0xFF AND PUSH2 0x788 JUMPI PUSH1 0x1 PUSH1 0x3 PUSH0 CALLER PUSH20 0xFFFFFFFFFFFFFFFFFFFFFFFFFFFFFFFFFFFFFFFF AND PUSH20 0xFFFFFFFFFFFFFFFFFFFFFFFFFFFFFFFFFFFFFFFF AND DUP2 MSTORE PUSH1 0x20 ADD SWAP1 DUP2 MSTORE PUSH1 0x20 ADD PUSH0 KECCAK256 PUSH1 0x2 ADD PUSH0 PUSH2 0x100 EXP DUP2 SLOAD DUP2 PUSH1 0xFF MUL NOT AND SWAP1 DUP4 ISZERO ISZERO MUL OR SWAP1 SSTORE POP PUSH1 0x2 CALLER SWAP1 DUP1 PUSH1 0x1 DUP2 SLOAD ADD DUP1 DUP3 SSTORE DUP1 SWAP2 POP POP PUSH1 0x1 SWAP1 SUB SWAP1 PUSH0 MSTORE PUSH1 0x20 PUSH0 KECCAK256 ADD PUSH0 SWAP1 SWAP2 SWAP1 SWAP2 SWAP1 SWAP2 PUSH2 0x100 EXP DUP2 SLOAD DUP2 PUSH20 0xFFFFFFFFFFFFFFFFFFFFFFFFFFFFFFFFFFFFFFFF MUL NOT AND SWAP1 DUP4 PUSH20 0xFFFFFFFFFFFFFFFFFFFFFFFFFFFFFFFFFFFFFFFF AND MUL OR SWAP1 SSTORE POP JUMPDEST JUMP JUMPDEST PUSH0 PUSH1 0x9 PUSH0 CALLER PUSH20 0xFFFFFFFFFFFFFFFFFFFFFFFFFFFFFFFFFFFFFFFF AND PUSH20 0xFFFFFFFFFFFFFFFFFFFFFFFFFFFFFFFFFFFFFFFF AND DUP2 MSTORE PUSH1 0x20 ADD SWAP1 DUP2 MSTORE PUSH1 0x20 ADD PUSH0 KECCAK256 PUSH0 ADD DUP1 SLOAD SWAP1 POP GT PUSH2 0x80E JUMPI PUSH1 0x40 MLOAD PUSH32 0x8C379A000000000000000000000000000000000000000000000000000000000 DUP2 MSTORE PUSH1 0x4 ADD PUSH2 0x805 SWAP1 PUSH2 0x22E8 JUMP JUMPDEST PUSH1 0x40 MLOAD DUP1 SWAP2 SUB SWAP1 REVERT JUMPDEST PUSH1 0x9 PUSH0 CALLER PUSH20 0xFFFFFFFFFFFFFFFFFFFFFFFFFFFFFFFFFFFFFFFF AND PUSH20 0xFFFFFFFFFFFFFFFFFFFFFFFFFFFFFFFFFFFFFFFF AND DUP2 MSTORE PUSH1 0x20 ADD SWAP1 DUP2 MSTORE PUSH1 0x20 ADD PUSH0 KECCAK256 PUSH0 ADD PUSH1 0x1 PUSH1 0x9 PUSH0 CALLER PUSH20 0xFFFFFFFFFFFFFFFFFFFFFFFFFFFFFFFFFFFFFFFF AND PUSH20 0xFFFFFFFFFFFFFFFFFFFFFFFFFFFFFFFFFFFFFFFF AND DUP2 MSTORE PUSH1 0x20 ADD SWAP1 DUP2 MSTORE PUSH1 0x20 ADD PUSH0 KECCAK256 PUSH0 ADD DUP1 SLOAD SWAP1 POP PUSH2 0x89C SWAP2 SWAP1 PUSH2 0x2306 JUMP JUMPDEST DUP2 SLOAD DUP2 LT PUSH2 0x8AD JUMPI PUSH2 0x8AC PUSH2 0x21BD JUMP JUMPDEST JUMPDEST SWAP1 PUSH0 MSTORE PUSH1 0x20 PUSH0 KECCAK256 SWAP1 PUSH1 0x2 MUL ADD PUSH1 0x1 ADD PUSH1 0x1 SWAP1 SLOAD SWAP1 PUSH2 0x100 EXP SWAP1 DIV PUSH31 0xFFFFFFFFFFFFFFFFFFFFFFFFFFFFFFFFFFFFFFFFFFFFFFFFFFFFFFFFFFFFFF AND PUSH31 0xFFFFFFFFFFFFFFFFFFFFFFFFFFFFFFFFFFFFFFFFFFFFFFFFFFFFFFFFFFFFFF AND NUMBER GT PUSH2 0x94A JUMPI PUSH1 0x40 MLOAD PUSH32 0x8C379A000000000000000000000000000000000000000000000000000000000 DUP2 MSTORE PUSH1 0x4 ADD PUSH2 0x941 SWAP1 PUSH2 0x2383 JUMP JUMPDEST PUSH1 0x40 MLOAD DUP1 SWAP2 SUB SWAP1 REVERT JUMPDEST PUSH0 PUSH1 0x9 PUSH0 CALLER PUSH20 0xFFFFFFFFFFFFFFFFFFFFFFFFFFFFFFFFFFFFFFFF AND PUSH20 0xFFFFFFFFFFFFFFFFFFFFFFFFFFFFFFFFFFFFFFFF AND DUP2 MSTORE PUSH1 0x20 ADD SWAP1 DUP2 MSTORE PUSH1 0x20 ADD PUSH0 KECCAK256 PUSH1 0x1 ADD DUP1 SLOAD SWAP1 POP GT ISZERO PUSH2 0x9E1 JUMPI PUSH1 0x9 PUSH0 CALLER PUSH20 0xFFFFFFFFFFFFFFFFFFFFFFFFFFFFFFFFFFFFFFFF AND PUSH20 0xFFFFFFFFFFFFFFFFFFFFFFFFFFFFFFFFFFFFFFFF AND DUP2 MSTORE PUSH1 0x20 ADD SWAP1 DUP2 MSTORE PUSH1 0x20 ADD PUSH0 KECCAK256 PUSH1 0x1 ADD PUSH0 PUSH2 0x9E0 SWAP2 SWAP1 PUSH2 0x1D79 JUMP JUMPDEST JUMPDEST PUSH0 DUP1 PUSH0 SWAP1 POP JUMPDEST PUSH1 0x9 PUSH0 CALLER PUSH20 0xFFFFFFFFFFFFFFFFFFFFFFFFFFFFFFFFFFFFFFFF AND PUSH20 0xFFFFFFFFFFFFFFFFFFFFFFFFFFFFFFFFFFFFFFFF AND DUP2 MSTORE PUSH1 0x20 ADD SWAP1 DUP2 MSTORE PUSH1 0x20 ADD PUSH0 KECCAK256 PUSH0 ADD DUP1 SLOAD SWAP1 POP DUP2 LT ISZERO PUSH2 0xF9C JUMPI PUSH0 PUSH1 0x9 PUSH0 CALLER PUSH20 0xFFFFFFFFFFFFFFFFFFFFFFFFFFFFFFFFFFFFFFFF AND PUSH20 0xFFFFFFFFFFFFFFFFFFFFFFFFFFFFFFFFFFFFFFFF AND DUP2 MSTORE PUSH1 0x20 ADD SWAP1 DUP2 MSTORE PUSH1 0x20 ADD PUSH0 KECCAK256 PUSH0 ADD DUP3 DUP2 SLOAD DUP2 LT PUSH2 0xA83 JUMPI PUSH2 0xA82 PUSH2 0x21BD JUMP JUMPDEST JUMPDEST SWAP1 PUSH0 MSTORE PUSH1 0x20 PUSH0 KECCAK256 SWAP1 PUSH1 0x2 MUL ADD PUSH1 0x1 ADD PUSH1 0x1 SWAP1 SLOAD SWAP1 PUSH2 0x100 EXP SWAP1 DIV PUSH31 0xFFFFFFFFFFFFFFFFFFFFFFFFFFFFFFFFFFFFFFFFFFFFFFFFFFFFFFFFFFFFFF AND PUSH31 0xFFFFFFFFFFFFFFFFFFFFFFFFFFFFFFFFFFFFFFFFFFFFFFFFFFFFFFFFFFFFFF AND BLOCKHASH PUSH0 SHR SUB ISZERO PUSH2 0xF8F JUMPI PUSH0 PUSH1 0x9 PUSH0 CALLER PUSH20 0xFFFFFFFFFFFFFFFFFFFFFFFFFFFFFFFFFFFFFFFF AND PUSH20 0xFFFFFFFFFFFFFFFFFFFFFFFFFFFFFFFFFFFFFFFF AND DUP2 MSTORE PUSH1 0x20 ADD SWAP1 DUP2 MSTORE PUSH1 0x20 ADD PUSH0 KECCAK256 PUSH0 ADD DUP3 DUP2 SLOAD DUP2 LT PUSH2 0xB3A JUMPI PUSH2 0xB39 PUSH2 0x21BD JUMP JUMPDEST JUMPDEST SWAP1 PUSH0 MSTORE PUSH1 0x20 PUSH0 KECCAK256 SWAP1 PUSH1 0x2 MUL ADD PUSH0 ADD SLOAD PUSH1 0x9 PUSH0 CALLER PUSH20 0xFFFFFFFFFFFFFFFFFFFFFFFFFFFFFFFFFFFFFFFF AND PUSH20 0xFFFFFFFFFFFFFFFFFFFFFFFFFFFFFFFFFFFFFFFF AND DUP2 MSTORE PUSH1 0x20 ADD SWAP1 DUP2 MSTORE PUSH1 0x20 ADD PUSH0 KECCAK256 PUSH0 ADD DUP4 DUP2 SLOAD DUP2 LT PUSH2 0xB9A JUMPI PUSH2 0xB99 PUSH2 0x21BD JUMP JUMPDEST JUMPDEST SWAP1 PUSH0 MSTORE PUSH1 0x20 PUSH0 KECCAK256 SWAP1 PUSH1 0x2 MUL ADD PUSH1 0x1 ADD PUSH1 0x1 SWAP1 SLOAD SWAP1 PUSH2 0x100 EXP SWAP1 DIV PUSH31 0xFFFFFFFFFFFFFFFFFFFFFFFFFFFFFFFFFFFFFFFFFFFFFFFFFFFFFFFFFFFFFF AND PUSH31 0xFFFFFFFFFFFFFFFFFFFFFFFFFFFFFFFFFFFFFFFFFFFFFFFFFFFFFFFFFFFFFF AND BLOCKHASH PUSH1 0x40 MLOAD PUSH1 0x20 ADD PUSH2 0xC08 SWAP3 SWAP2 SWAP1 PUSH2 0x23CA JUMP JUMPDEST PUSH1 0x40 MLOAD PUSH1 0x20 DUP2 DUP4 SUB SUB DUP2 MSTORE SWAP1 PUSH1 0x40 MSTORE DUP1 MLOAD SWAP1 PUSH1 0x20 ADD KECCAK256 PUSH1 0xE0 SHR SWAP1 POP PUSH0 PUSH2 0xC2D DUP3 PUSH2 0x1BA9 JUMP JUMPDEST SWAP1 POP PUSH0 DUP2 GT ISZERO PUSH2 0xE55 JUMPI PUSH0 PUSH7 0x470DE4DF820000 PUSH1 0x9 PUSH0 CALLER PUSH20 0xFFFFFFFFFFFFFFFFFFFFFFFFFFFFFFFFFFFFFFFF AND PUSH20 0xFFFFFFFFFFFFFFFFFFFFFFFFFFFFFFFFFFFFFFFF AND DUP2 MSTORE PUSH1 0x20 ADD SWAP1 DUP2 MSTORE PUSH1 0x20 ADD PUSH0 KECCAK256 PUSH0 ADD DUP6 DUP2 SLOAD DUP2 LT PUSH2 0xC91 JUMPI PUSH2 0xC90 PUSH2 0x21BD JUMP JUMPDEST JUMPDEST SWAP1 PUSH0 MSTORE PUSH1 0x20 PUSH0 KECCAK256 SWAP1 PUSH1 0x2 MUL ADD PUSH1 0x1 ADD PUSH0 SWAP1 SLOAD SWAP1 PUSH2 0x100 EXP SWAP1 DIV PUSH1 0xFF AND PUSH1 0xFF AND PUSH2 0xCB9 DUP5 PUSH2 0x1CAC JUMP JUMPDEST PUSH2 0xCC3 SWAP2 SWAP1 PUSH2 0x23F5 JUMP JUMPDEST PUSH2 0xCCD SWAP2 SWAP1 PUSH2 0x23F5 JUMP JUMPDEST SWAP1 POP DUP1 DUP6 PUSH2 0xCDB SWAP2 SWAP1 PUSH2 0x212D JUMP JUMPDEST SWAP5 POP PUSH0 PUSH1 0x40 MLOAD DUP1 PUSH1 0x80 ADD PUSH1 0x40 MSTORE DUP1 DUP6 PUSH4 0xFFFFFFFF AND DUP2 MSTORE PUSH1 0x20 ADD PUSH1 0x9 PUSH0 CALLER PUSH20 0xFFFFFFFFFFFFFFFFFFFFFFFFFFFFFFFFFFFFFFFF AND PUSH20 0xFFFFFFFFFFFFFFFFFFFFFFFFFFFFFFFFFFFFFFFF AND DUP2 MSTORE PUSH1 0x20 ADD SWAP1 DUP2 MSTORE PUSH1 0x20 ADD PUSH0 KECCAK256 PUSH0 ADD DUP8 DUP2 SLOAD DUP2 LT PUSH2 0xD46 JUMPI PUSH2 0xD45 PUSH2 0x21BD JUMP JUMPDEST JUMPDEST SWAP1 PUSH0 MSTORE PUSH1 0x20 PUSH0 KECCAK256 SWAP1 PUSH1 0x2 MUL ADD PUSH1 0x1 ADD PUSH0 SWAP1 SLOAD SWAP1 PUSH2 0x100 EXP SWAP1 DIV PUSH1 0xFF AND PUSH1 0xFF AND DUP2 MSTORE PUSH1 0x20 ADD TIMESTAMP PUSH5 0xFFFFFFFFFF AND DUP2 MSTORE PUSH1 0x20 ADD CALLER PUSH20 0xFFFFFFFFFFFFFFFFFFFFFFFFFFFFFFFFFFFFFFFF AND DUP2 MSTORE POP SWAP1 POP PUSH1 0xB DUP2 SWAP1 DUP1 PUSH1 0x1 DUP2 SLOAD ADD DUP1 DUP3 SSTORE DUP1 SWAP2 POP POP PUSH1 0x1 SWAP1 SUB SWAP1 PUSH0 MSTORE PUSH1 0x20 PUSH0 KECCAK256 SWAP1 PUSH1 0x3 MUL ADD PUSH0 SWAP1 SWAP2 SWAP1 SWAP2 SWAP1 SWAP2 POP PUSH0 DUP3 ADD MLOAD DUP2 PUSH0 ADD PUSH0 PUSH2 0x100 EXP DUP2 SLOAD DUP2 PUSH4 0xFFFFFFFF MUL NOT AND SWAP1 DUP4 PUSH4 0xFFFFFFFF AND MUL OR SWAP1 SSTORE POP PUSH1 0x20 DUP3 ADD MLOAD DUP2 PUSH0 ADD PUSH1 0x4 PUSH2 0x100 EXP DUP2 SLOAD DUP2 PUSH1 0xFF MUL NOT AND SWAP1 DUP4 PUSH1 0xFF AND MUL OR SWAP1 SSTORE POP PUSH1 0x40 DUP3 ADD MLOAD DUP2 PUSH1 0x1 ADD SSTORE PUSH1 0x60 DUP3 ADD MLOAD DUP2 PUSH1 0x2 ADD PUSH0 PUSH2 0x100 EXP DUP2 SLOAD DUP2 PUSH20 0xFFFFFFFFFFFFFFFFFFFFFFFFFFFFFFFFFFFFFFFF MUL NOT AND SWAP1 DUP4 PUSH20 0xFFFFFFFFFFFFFFFFFFFFFFFFFFFFFFFFFFFFFFFF AND MUL OR SWAP1 SSTORE POP POP POP POP POP JUMPDEST PUSH0 PUSH1 0x40 MLOAD DUP1 PUSH1 0x40 ADD PUSH1 0x40 MSTORE DUP1 DUP5 PUSH4 0xFFFFFFFF AND DUP2 MSTORE PUSH1 0x20 ADD PUSH1 0x9 PUSH0 CALLER PUSH20 0xFFFFFFFFFFFFFFFFFFFFFFFFFFFFFFFFFFFFFFFF AND PUSH20 0xFFFFFFFFFFFFFFFFFFFFFFFFFFFFFFFFFFFFFFFF AND DUP2 MSTORE PUSH1 0x20 ADD SWAP1 DUP2 MSTORE PUSH1 0x20 ADD PUSH0 KECCAK256 PUSH0 ADD DUP7 DUP2 SLOAD DUP2 LT PUSH2 0xEBE JUMPI PUSH2 0xEBD PUSH2 0x21BD JUMP JUMPDEST JUMPDEST SWAP1 PUSH0 MSTORE PUSH1 0x20 PUSH0 KECCAK256 SWAP1 PUSH1 0x2 MUL ADD PUSH1 0x1 ADD PUSH0 SWAP1 SLOAD SWAP1 PUSH2 0x100 EXP SWAP1 DIV PUSH1 0xFF AND PUSH1 0xFF AND DUP2 MSTORE POP SWAP1 POP PUSH1 0x9 PUSH0 CALLER PUSH20 0xFFFFFFFFFFFFFFFFFFFFFFFFFFFFFFFFFFFFFFFF AND PUSH20 0xFFFFFFFFFFFFFFFFFFFFFFFFFFFFFFFFFFFFFFFF AND DUP2 MSTORE PUSH1 0x20 ADD SWAP1 DUP2 MSTORE PUSH1 0x20 ADD PUSH0 KECCAK256 PUSH1 0x1 ADD DUP2 SWAP1 DUP1 PUSH1 0x1 DUP2 SLOAD ADD DUP1 DUP3 SSTORE DUP1 SWAP2 POP POP PUSH1 0x1 SWAP1 SUB SWAP1 PUSH0 MSTORE PUSH1 0x20 PUSH0 KECCAK256 ADD PUSH0 SWAP1 SWAP2 SWAP1 SWAP2 SWAP1 SWAP2 POP PUSH0 DUP3 ADD MLOAD DUP2 PUSH0 ADD PUSH0 PUSH2 0x100 EXP DUP2 SLOAD DUP2 PUSH4 0xFFFFFFFF MUL NOT AND SWAP1 DUP4 PUSH4 0xFFFFFFFF AND MUL OR SWAP1 SSTORE POP PUSH1 0x20 DUP3 ADD MLOAD DUP2 PUSH0 ADD PUSH1 0x4 PUSH2 0x100 EXP DUP2 SLOAD DUP2 PUSH1 0xFF MUL NOT AND SWAP1 DUP4 PUSH1 0xFF AND MUL OR SWAP1 SSTORE POP POP POP POP POP POP JUMPDEST DUP1 DUP1 PUSH1 0x1 ADD SWAP2 POP POP PUSH2 0x9E7 JUMP JUMPDEST POP PUSH1 0x9 PUSH0 CALLER PUSH20 0xFFFFFFFFFFFFFFFFFFFFFFFFFFFFFFFFFFFFFFFF AND PUSH20 0xFFFFFFFFFFFFFFFFFFFFFFFFFFFFFFFFFFFFFFFF AND DUP2 MSTORE PUSH1 0x20 ADD SWAP1 DUP2 MSTORE PUSH1 0x20 ADD PUSH0 KECCAK256 PUSH0 ADD PUSH0 PUSH2 0xFE7 SWAP2 SWAP1 PUSH2 0x1D97 JUMP JUMPDEST PUSH0 DUP2 GT ISZERO PUSH2 0x10DE JUMPI PUSH0 PUSH2 0x102A PUSH2 0x1023 PUSH2 0x101C SELFBALANCE PUSH1 0x1 SLOAD PUSH1 0x7 SLOAD PUSH1 0x5 SLOAD PUSH2 0x100D SWAP2 SWAP1 PUSH2 0x212D JUMP JUMPDEST PUSH2 0x1017 SWAP2 SWAP1 PUSH2 0x212D JUMP JUMPDEST PUSH2 0x1B14 JUMP JUMPDEST PUSH1 0x46 PUSH2 0x1B3A JUMP JUMPDEST PUSH1 0x64 PUSH2 0x1B7F JUMP JUMPDEST SWAP1 POP DUP1 DUP3 GT ISZERO PUSH2 0x1038 JUMPI DUP1 SWAP2 POP JUMPDEST PUSH0 PUSH2 0x104E PUSH2 0x1047 DUP5 PUSH1 0x5 PUSH2 0x1B3A JUMP JUMPDEST PUSH1 0x64 PUSH2 0x1B7F JUMP JUMPDEST SWAP1 POP DUP1 PUSH1 0x5 PUSH0 DUP3 DUP3 SLOAD PUSH2 0x1061 SWAP2 SWAP1 PUSH2 0x212D JUMP JUMPDEST SWAP3 POP POP DUP2 SWAP1 SSTORE POP DUP1 PUSH1 0x1 PUSH0 DUP3 DUP3 SLOAD PUSH2 0x1079 SWAP2 SWAP1 PUSH2 0x212D JUMP JUMPDEST SWAP3 POP POP DUP2 SWAP1 SSTORE POP CALLER PUSH20 0xFFFFFFFFFFFFFFFFFFFFFFFFFFFFFFFFFFFFFFFF AND PUSH2 0x8FC PUSH1 0x2 DUP4 PUSH2 0x10A7 SWAP2 SWAP1 PUSH2 0x23F5 JUMP JUMPDEST DUP6 PUSH2 0x10B2 SWAP2 SWAP1 PUSH2 0x2306 JUMP JUMPDEST SWAP1 DUP2 ISZERO MUL SWAP1 PUSH1 0x40 MLOAD PUSH0 PUSH1 0x40 MLOAD DUP1 DUP4 SUB DUP2 DUP6 DUP9 DUP9 CALL SWAP4 POP POP POP POP ISZERO DUP1 ISZERO PUSH2 0x10DA JUMPI RETURNDATASIZE PUSH0 DUP1 RETURNDATACOPY RETURNDATASIZE PUSH0 REVERT JUMPDEST POP POP POP JUMPDEST POP JUMP JUMPDEST PUSH0 DUP1 SLOAD SWAP1 PUSH2 0x100 EXP SWAP1 DIV PUSH20 0xFFFFFFFFFFFFFFFFFFFFFFFFFFFFFFFFFFFFFFFF AND DUP2 JUMP JUMPDEST PUSH1 0x4 SLOAD DUP2 JUMP JUMPDEST PUSH1 0x6 SLOAD DUP2 JUMP JUMPDEST PUSH7 0x470DE4DF820000 CALLVALUE LT ISZERO PUSH2 0x115A JUMPI PUSH1 0x40 MLOAD PUSH32 0x8C379A000000000000000000000000000000000000000000000000000000000 DUP2 MSTORE PUSH1 0x4 ADD PUSH2 0x1151 SWAP1 PUSH2 0x2480 JUMP JUMPDEST PUSH1 0x40 MLOAD DUP1 SWAP2 SUB SWAP1 REVERT JUMPDEST PUSH1 0x1 DUP4 PUSH1 0xFF AND LT ISZERO DUP1 ISZERO PUSH2 0x1172 JUMPI POP PUSH1 0x64 DUP4 PUSH1 0xFF AND GT ISZERO JUMPDEST PUSH2 0x11B1 JUMPI PUSH1 0x40 MLOAD PUSH32 0x8C379A000000000000000000000000000000000000000000000000000000000 DUP2 MSTORE PUSH1 0x4 ADD PUSH2 0x11A8 SWAP1 PUSH2 0x24E8 JUMP JUMPDEST PUSH1 0x40 MLOAD DUP1 SWAP2 SUB SWAP1 REVERT JUMPDEST PUSH1 0x1 DUP5 PUSH2 0xFFFF AND LT ISZERO DUP1 ISZERO PUSH2 0x11CC JUMPI POP PUSH2 0x3E8 DUP5 PUSH2 0xFFFF AND GT ISZERO JUMPDEST PUSH2 0x120B JUMPI PUSH1 0x40 MLOAD PUSH32 0x8C379A000000000000000000000000000000000000000000000000000000000 DUP2 MSTORE PUSH1 0x4 ADD PUSH2 0x1202 SWAP1 PUSH2 0x2550 JUMP JUMPDEST PUSH1 0x40 MLOAD DUP1 SWAP2 SUB SWAP1 REVERT JUMPDEST PUSH0 PUSH2 0x121D CALLVALUE PUSH7 0x470DE4DF820000 PUSH2 0x1B7F JUMP JUMPDEST SWAP1 POP DUP4 PUSH1 0xFF AND DUP6 PUSH2 0x122E SWAP2 SWAP1 PUSH2 0x256E JUMP JUMPDEST PUSH2 0xFFFF AND DUP2 EQ PUSH2 0x1273 JUMPI PUSH1 0x40 MLOAD PUSH32 0x8C379A000000000000000000000000000000000000000000000000000000000 DUP2 MSTORE PUSH1 0x4 ADD PUSH2 0x126A SWAP1 PUSH2 0x25F4 JUMP JUMPDEST PUSH1 0x40 MLOAD DUP1 SWAP2 SUB SWAP1 REVERT JUMPDEST PUSH0 JUMPDEST DUP6 PUSH2 0xFFFF AND DUP2 LT ISZERO PUSH2 0x13F6 JUMPI PUSH0 PUSH1 0x40 MLOAD DUP1 PUSH1 0x60 ADD PUSH1 0x40 MSTORE DUP1 TIMESTAMP COINBASE CALLER DUP10 DUP1 PUSH2 0x129B SWAP1 PUSH2 0x2612 JUMP JUMPDEST SWAP11 POP PUSH1 0x40 MLOAD PUSH1 0x20 ADD PUSH2 0x12B0 SWAP5 SWAP4 SWAP3 SWAP2 SWAP1 PUSH2 0x2728 JUMP JUMPDEST PUSH1 0x40 MLOAD PUSH1 0x20 DUP2 DUP4 SUB SUB DUP2 MSTORE SWAP1 PUSH1 0x40 MSTORE DUP1 MLOAD SWAP1 PUSH1 0x20 ADD KECCAK256 DUP2 MSTORE PUSH1 0x20 ADD DUP8 PUSH1 0xFF AND DUP2 MSTORE PUSH1 0x20 ADD NUMBER PUSH31 0xFFFFFFFFFFFFFFFFFFFFFFFFFFFFFFFFFFFFFFFFFFFFFFFFFFFFFFFFFFFFFF AND DUP2 MSTORE POP SWAP1 POP PUSH1 0x9 PUSH0 CALLER PUSH20 0xFFFFFFFFFFFFFFFFFFFFFFFFFFFFFFFFFFFFFFFF AND PUSH20 0xFFFFFFFFFFFFFFFFFFFFFFFFFFFFFFFFFFFFFFFF AND DUP2 MSTORE PUSH1 0x20 ADD SWAP1 DUP2 MSTORE PUSH1 0x20 ADD PUSH0 KECCAK256 PUSH0 ADD DUP2 SWAP1 DUP1 PUSH1 0x1 DUP2 SLOAD ADD DUP1 DUP3 SSTORE DUP1 SWAP2 POP POP PUSH1 0x1 SWAP1 SUB SWAP1 PUSH0 MSTORE PUSH1 0x20 PUSH0 KECCAK256 SWAP1 PUSH1 0x2 MUL ADD PUSH0 SWAP1 SWAP2 SWAP1 SWAP2 SWAP1 SWAP2 POP PUSH0 DUP3 ADD MLOAD DUP2 PUSH0 ADD SSTORE PUSH1 0x20 DUP3 ADD MLOAD DUP2 PUSH1 0x1 ADD PUSH0 PUSH2 0x100 EXP DUP2 SLOAD DUP2 PUSH1 0xFF MUL NOT AND SWAP1 DUP4 PUSH1 0xFF AND MUL OR SWAP1 SSTORE POP PUSH1 0x40 DUP3 ADD MLOAD DUP2 PUSH1 0x1 ADD PUSH1 0x1 PUSH2 0x100 EXP DUP2 SLOAD DUP2 PUSH31 0xFFFFFFFFFFFFFFFFFFFFFFFFFFFFFFFFFFFFFFFFFFFFFFFFFFFFFFFFFFFFFF MUL NOT AND SWAP1 DUP4 PUSH31 0xFFFFFFFFFFFFFFFFFFFFFFFFFFFFFFFFFFFFFFFFFFFFFFFFFFFFFFFFFFFFFF AND MUL OR SWAP1 SSTORE POP POP POP POP DUP1 DUP1 PUSH1 0x1 ADD SWAP2 POP POP PUSH2 0x1275 JUMP JUMPDEST POP PUSH1 0x9 PUSH0 CALLER PUSH20 0xFFFFFFFFFFFFFFFFFFFFFFFFFFFFFFFFFFFFFFFF AND PUSH20 0xFFFFFFFFFFFFFFFFFFFFFFFFFFFFFFFFFFFFFFFF AND DUP2 MSTORE PUSH1 0x20 ADD SWAP1 DUP2 MSTORE PUSH1 0x20 ADD PUSH0 KECCAK256 PUSH1 0x3 ADD PUSH0 SWAP1 SLOAD SWAP1 PUSH2 0x100 EXP SWAP1 DIV PUSH1 0xFF AND PUSH2 0x14A1 JUMPI PUSH1 0x1 PUSH1 0x9 PUSH0 CALLER PUSH20 0xFFFFFFFFFFFFFFFFFFFFFFFFFFFFFFFFFFFFFFFF AND PUSH20 0xFFFFFFFFFFFFFFFFFFFFFFFFFFFFFFFFFFFFFFFF AND DUP2 MSTORE PUSH1 0x20 ADD SWAP1 DUP2 MSTORE PUSH1 0x20 ADD PUSH0 KECCAK256 PUSH1 0x3 ADD PUSH0 PUSH2 0x100 EXP DUP2 SLOAD DUP2 PUSH1 0xFF MUL NOT AND SWAP1 DUP4 ISZERO ISZERO MUL OR SWAP1 SSTORE POP JUMPDEST PUSH0 PUSH2 0x14B7 PUSH2 0x14B0 CALLVALUE PUSH1 0x3 PUSH2 0x1B3A JUMP JUMPDEST PUSH1 0x64 PUSH2 0x1B7F JUMP JUMPDEST SWAP1 POP PUSH0 PUSH2 0x14CF PUSH2 0x14C8 CALLVALUE PUSH1 0x4 PUSH2 0x1B3A JUMP JUMPDEST PUSH1 0x64 PUSH2 0x1B7F JUMP JUMPDEST SWAP1 POP DUP2 PUSH1 0x1 PUSH0 DUP3 DUP3 SLOAD PUSH2 0x14E2 SWAP2 SWAP1 PUSH2 0x212D JUMP JUMPDEST SWAP3 POP POP DUP2 SWAP1 SSTORE POP DUP2 PUSH1 0x5 PUSH0 DUP3 DUP3 SLOAD PUSH2 0x14FA SWAP2 SWAP1 PUSH2 0x212D JUMP JUMPDEST SWAP3 POP POP DUP2 SWAP1 SSTORE POP PUSH0 PUSH20 0xFFFFFFFFFFFFFFFFFFFFFFFFFFFFFFFFFFFFFFFF AND PUSH1 0xA PUSH0 CALLER PUSH20 0xFFFFFFFFFFFFFFFFFFFFFFFFFFFFFFFFFFFFFFFF AND PUSH20 0xFFFFFFFFFFFFFFFFFFFFFFFFFFFFFFFFFFFFFFFF AND DUP2 MSTORE PUSH1 0x20 ADD SWAP1 DUP2 MSTORE PUSH1 0x20 ADD PUSH0 KECCAK256 PUSH0 SWAP1 SLOAD SWAP1 PUSH2 0x100 EXP SWAP1 DIV PUSH20 0xFFFFFFFFFFFFFFFFFFFFFFFFFFFFFFFFFFFFFFFF AND PUSH20 0xFFFFFFFFFFFFFFFFFFFFFFFFFFFFFFFFFFFFFFFF AND SUB PUSH2 0x188B JUMPI CALLER PUSH20 0xFFFFFFFFFFFFFFFFFFFFFFFFFFFFFFFFFFFFFFFF AND DUP5 PUSH20 0xFFFFFFFFFFFFFFFFFFFFFFFFFFFFFFFFFFFFFFFF AND EQ DUP1 PUSH2 0x15F5 JUMPI POP PUSH0 PUSH20 0xFFFFFFFFFFFFFFFFFFFFFFFFFFFFFFFFFFFFFFFF AND DUP5 PUSH20 0xFFFFFFFFFFFFFFFFFFFFFFFFFFFFFFFFFFFFFFFF AND EQ JUMPDEST DUP1 PUSH2 0x164A JUMPI POP PUSH1 0x9 PUSH0 CALLER PUSH20 0xFFFFFFFFFFFFFFFFFFFFFFFFFFFFFFFFFFFFFFFF AND PUSH20 0xFFFFFFFFFFFFFFFFFFFFFFFFFFFFFFFFFFFFFFFF AND DUP2 MSTORE PUSH1 0x20 ADD SWAP1 DUP2 MSTORE PUSH1 0x20 ADD PUSH0 KECCAK256 PUSH1 0x3 ADD PUSH0 SWAP1 SLOAD SWAP1 PUSH2 0x100 EXP SWAP1 DIV PUSH1 0xFF AND ISZERO JUMPDEST ISZERO PUSH2 0x1672 JUMPI PUSH0 DUP1 SLOAD SWAP1 PUSH2 0x100 EXP SWAP1 DIV PUSH20 0xFFFFFFFFFFFFFFFFFFFFFFFFFFFFFFFFFFFFFFFF AND SWAP4 POP JUMPDEST DUP4 PUSH1 0xA PUSH0 CALLER PUSH20 0xFFFFFFFFFFFFFFFFFFFFFFFFFFFFFFFFFFFFFFFF AND PUSH20 0xFFFFFFFFFFFFFFFFFFFFFFFFFFFFFFFFFFFFFFFF AND DUP2 MSTORE PUSH1 0x20 ADD SWAP1 DUP2 MSTORE PUSH1 0x20 ADD PUSH0 KECCAK256 PUSH0 PUSH2 0x100 EXP DUP2 SLOAD DUP2 PUSH20 0xFFFFFFFFFFFFFFFFFFFFFFFFFFFFFFFFFFFFFFFF MUL NOT AND SWAP1 DUP4 PUSH20 0xFFFFFFFFFFFFFFFFFFFFFFFFFFFFFFFFFFFFFFFF AND MUL OR SWAP1 SSTORE POP PUSH0 DUP1 SLOAD SWAP1 PUSH2 0x100 EXP SWAP1 DIV PUSH20 0xFFFFFFFFFFFFFFFFFFFFFFFFFFFFFFFFFFFFFFFF AND PUSH20 0xFFFFFFFFFFFFFFFFFFFFFFFFFFFFFFFFFFFFFFFF AND PUSH1 0xA PUSH0 CALLER PUSH20 0xFFFFFFFFFFFFFFFFFFFFFFFFFFFFFFFFFFFFFFFF AND PUSH20 0xFFFFFFFFFFFFFFFFFFFFFFFFFFFFFFFFFFFFFFFF AND DUP2 MSTORE PUSH1 0x20 ADD SWAP1 DUP2 MSTORE PUSH1 0x20 ADD PUSH0 KECCAK256 PUSH0 SWAP1 SLOAD SWAP1 PUSH2 0x100 EXP SWAP1 DIV PUSH20 0xFFFFFFFFFFFFFFFFFFFFFFFFFFFFFFFFFFFFFFFF AND PUSH20 0xFFFFFFFFFFFFFFFFFFFFFFFFFFFFFFFFFFFFFFFF AND SUB PUSH2 0x17B8 JUMPI DUP1 PUSH1 0x1 PUSH0 DUP3 DUP3 SLOAD PUSH2 0x17AC SWAP2 SWAP1 PUSH2 0x212D JUMP JUMPDEST SWAP3 POP POP DUP2 SWAP1 SSTORE POP PUSH2 0x1883 JUMP JUMPDEST DUP1 PUSH1 0x9 PUSH0 PUSH1 0xA PUSH0 CALLER PUSH20 0xFFFFFFFFFFFFFFFFFFFFFFFFFFFFFFFFFFFFFFFF AND PUSH20 0xFFFFFFFFFFFFFFFFFFFFFFFFFFFFFFFFFFFFFFFF AND DUP2 MSTORE PUSH1 0x20 ADD SWAP1 DUP2 MSTORE PUSH1 0x20 ADD PUSH0 KECCAK256 PUSH0 SWAP1 SLOAD SWAP1 PUSH2 0x100 EXP SWAP1 DIV PUSH20 0xFFFFFFFFFFFFFFFFFFFFFFFFFFFFFFFFFFFFFFFF AND PUSH20 0xFFFFFFFFFFFFFFFFFFFFFFFFFFFFFFFFFFFFFFFF AND PUSH20 0xFFFFFFFFFFFFFFFFFFFFFFFFFFFFFFFFFFFFFFFF AND DUP2 MSTORE PUSH1 0x20 ADD SWAP1 DUP2 MSTORE PUSH1 0x20 ADD PUSH0 KECCAK256 PUSH1 0x2 ADD PUSH0 DUP3 DUP3 SLOAD PUSH2 0x1863 SWAP2 SWAP1 PUSH2 0x212D JUMP JUMPDEST SWAP3 POP POP DUP2 SWAP1 SSTORE POP DUP1 PUSH1 0x7 PUSH0 DUP3 DUP3 SLOAD PUSH2 0x187B SWAP2 SWAP1 PUSH2 0x212D JUMP JUMPDEST SWAP3 POP POP DUP2 SWAP1 SSTORE POP JUMPDEST TIMESTAMP PUSH1 0x8 DUP2 SWAP1 SSTORE POP JUMPDEST POP POP POP POP POP POP POP JUMP JUMPDEST PUSH1 0x5 SLOAD DUP2 JUMP JUMPDEST PUSH8 0xDE0B6B3A7640000 DUP2 LT ISZERO PUSH2 0x18E5 JUMPI PUSH1 0x40 MLOAD PUSH32 0x8C379A000000000000000000000000000000000000000000000000000000000 DUP2 MSTORE PUSH1 0x4 ADD PUSH2 0x18DC SWAP1 PUSH2 0x280B JUMP JUMPDEST PUSH1 0x40 MLOAD DUP1 SWAP2 SUB SWAP1 REVERT JUMPDEST PUSH1 0x3 PUSH0 CALLER PUSH20 0xFFFFFFFFFFFFFFFFFFFFFFFFFFFFFFFFFFFFFFFF AND PUSH20 0xFFFFFFFFFFFFFFFFFFFFFFFFFFFFFFFFFFFFFFFF AND DUP2 MSTORE PUSH1 0x20 ADD SWAP1 DUP2 MSTORE PUSH1 0x20 ADD PUSH0 KECCAK256 PUSH0 ADD SLOAD DUP2 GT ISZERO PUSH2 0x1967 JUMPI PUSH1 0x40 MLOAD PUSH32 0x8C379A000000000000000000000000000000000000000000000000000000000 DUP2 MSTORE PUSH1 0x4 ADD PUSH2 0x195E SWAP1 PUSH2 0x2873 JUMP JUMPDEST PUSH1 0x40 MLOAD DUP1 SWAP2 SUB SWAP1 REVERT JUMPDEST PUSH3 0x93A80 PUSH1 0x3 PUSH0 CALLER PUSH20 0xFFFFFFFFFFFFFFFFFFFFFFFFFFFFFFFFFFFFFFFF AND PUSH20 0xFFFFFFFFFFFFFFFFFFFFFFFFFFFFFFFFFFFFFFFF AND DUP2 MSTORE PUSH1 0x20 ADD SWAP1 DUP2 MSTORE PUSH1 0x20 ADD PUSH0 KECCAK256 PUSH1 0x1 ADD SLOAD PUSH2 0x19B6 SWAP2 SWAP1 PUSH2 0x212D JUMP JUMPDEST TIMESTAMP LT ISZERO PUSH2 0x19F8 JUMPI PUSH1 0x40 MLOAD PUSH32 0x8C379A000000000000000000000000000000000000000000000000000000000 DUP2 MSTORE PUSH1 0x4 ADD PUSH2 0x19EF SWAP1 PUSH2 0x28DB JUMP JUMPDEST PUSH1 0x40 MLOAD DUP1 SWAP2 SUB SWAP1 REVERT JUMPDEST DUP1 PUSH2 0x1A1F SELFBALANCE PUSH1 0x1 SLOAD PUSH1 0x7 SLOAD PUSH1 0x5 SLOAD PUSH2 0x1A10 SWAP2 SWAP1 PUSH2 0x212D JUMP JUMPDEST PUSH2 0x1A1A SWAP2 SWAP1 PUSH2 0x212D JUMP JUMPDEST PUSH2 0x1B14 JUMP JUMPDEST LT ISZERO PUSH2 0x1A60 JUMPI PUSH1 0x40 MLOAD PUSH32 0x8C379A000000000000000000000000000000000000000000000000000000000 DUP2 MSTORE PUSH1 0x4 ADD PUSH2 0x1A57 SWAP1 PUSH2 0x2943 JUMP JUMPDEST PUSH1 0x40 MLOAD DUP1 SWAP2 SUB SWAP1 REVERT JUMPDEST DUP1 PUSH1 0x3 PUSH0 CALLER PUSH20 0xFFFFFFFFFFFFFFFFFFFFFFFFFFFFFFFFFFFFFFFF AND PUSH20 0xFFFFFFFFFFFFFFFFFFFFFFFFFFFFFFFFFFFFFFFF AND DUP2 MSTORE PUSH1 0x20 ADD SWAP1 DUP2 MSTORE PUSH1 0x20 ADD PUSH0 KECCAK256 PUSH0 ADD PUSH0 DUP3 DUP3 SLOAD PUSH2 0x1AAE SWAP2 SWAP1 PUSH2 0x2306 JUMP JUMPDEST SWAP3 POP POP DUP2 SWAP1 SSTORE POP DUP1 PUSH1 0x4 PUSH0 DUP3 DUP3 SLOAD PUSH2 0x1AC6 SWAP2 SWAP1 PUSH2 0x2306 JUMP JUMPDEST SWAP3 POP POP DUP2 SWAP1 SSTORE POP CALLER PUSH20 0xFFFFFFFFFFFFFFFFFFFFFFFFFFFFFFFFFFFFFFFF AND PUSH2 0x8FC DUP3 SWAP1 DUP2 ISZERO MUL SWAP1 PUSH1 0x40 MLOAD PUSH0 PUSH1 0x40 MLOAD DUP1 DUP4 SUB DUP2 DUP6 DUP9 DUP9 CALL SWAP4 POP POP POP POP ISZERO DUP1 ISZERO PUSH2 0x1B10 JUMPI RETURNDATASIZE PUSH0 DUP1 RETURNDATACOPY RETURNDATASIZE PUSH0 REVERT JUMPDEST POP POP JUMP JUMPDEST PUSH0 DUP3 DUP3 GT ISZERO PUSH2 0x1B26 JUMPI PUSH2 0x1B25 PUSH2 0x2961 JUMP JUMPDEST JUMPDEST DUP2 DUP4 PUSH2 0x1B32 SWAP2 SWAP1 PUSH2 0x2306 JUMP JUMPDEST SWAP1 POP SWAP3 SWAP2 POP POP JUMP JUMPDEST PUSH0 DUP1 DUP4 SUB PUSH2 0x1B4A JUMPI PUSH0 SWAP1 POP PUSH2 0x1B79 JUMP JUMPDEST PUSH0 DUP3 DUP5 PUSH2 0x1B57 SWAP2 SWAP1 PUSH2 0x23F5 JUMP JUMPDEST SWAP1 POP DUP3 DUP5 DUP3 PUSH2 0x1B66 SWAP2 SWAP1 PUSH2 0x218D JUMP JUMPDEST EQ PUSH2 0x1B74 JUMPI PUSH2 0x1B73 PUSH2 0x2961 JUMP JUMPDEST JUMPDEST DUP1 SWAP2 POP POP JUMPDEST SWAP3 SWAP2 POP POP JUMP JUMPDEST PUSH0 DUP1 DUP3 GT PUSH2 0x1B90 JUMPI PUSH2 0x1B8F PUSH2 0x2961 JUMP JUMPDEST JUMPDEST PUSH0 DUP3 DUP5 PUSH2 0x1B9D SWAP2 SWAP1 PUSH2 0x218D JUMP JUMPDEST SWAP1 POP DUP1 SWAP2 POP POP SWAP3 SWAP2 POP POP JUMP JUMPDEST PUSH0 PUSH4 0x4000000 DUP3 PUSH4 0xFFFFFFFF AND GT ISZERO PUSH2 0x1BC4 JUMPI PUSH0 SWAP1 POP PUSH2 0x1CA7 JUMP JUMPDEST PUSH4 0x1000000 DUP3 PUSH4 0xFFFFFFFF AND LT PUSH2 0x1BDE JUMPI PUSH1 0xA SWAP1 POP PUSH2 0x1CA7 JUMP JUMPDEST PUSH3 0x400000 DUP3 PUSH4 0xFFFFFFFF AND LT PUSH2 0x1BF7 JUMPI PUSH1 0x9 SWAP1 POP PUSH2 0x1CA7 JUMP JUMPDEST PUSH3 0x100000 DUP3 PUSH4 0xFFFFFFFF AND LT PUSH2 0x1C10 JUMPI PUSH1 0x8 SWAP1 POP PUSH2 0x1CA7 JUMP JUMPDEST PUSH3 0x40000 DUP3 PUSH4 0xFFFFFFFF AND LT PUSH2 0x1C29 JUMPI PUSH1 0x7 SWAP1 POP PUSH2 0x1CA7 JUMP JUMPDEST PUSH3 0x10000 DUP3 PUSH4 0xFFFFFFFF AND LT PUSH2 0x1C42 JUMPI PUSH1 0x6 SWAP1 POP PUSH2 0x1CA7 JUMP JUMPDEST PUSH2 0x4000 DUP3 PUSH4 0xFFFFFFFF AND LT PUSH2 0x1C5A JUMPI PUSH1 0x5 SWAP1 POP PUSH2 0x1CA7 JUMP JUMPDEST PUSH2 0x1000 DUP3 PUSH4 0xFFFFFFFF AND LT PUSH2 0x1C72 JUMPI PUSH1 0x4 SWAP1 POP PUSH2 0x1CA7 JUMP JUMPDEST PUSH2 0x400 DUP3 PUSH4 0xFFFFFFFF AND LT PUSH2 0x1C8A JUMPI PUSH1 0x3 SWAP1 POP PUSH2 0x1CA7 JUMP JUMPDEST PUSH2 0x100 DUP3 PUSH4 0xFFFFFFFF AND LT PUSH2 0x1CA2 JUMPI PUSH1 0x2 SWAP1 POP PUSH2 0x1CA7 JUMP JUMPDEST PUSH1 0x1 SWAP1 POP JUMPDEST SWAP2 SWAP1 POP JUMP JUMPDEST PUSH0 DUP1 DUP3 SUB PUSH2 0x1CBC JUMPI PUSH0 SWAP1 POP PUSH2 0x1D74 JUMP JUMPDEST PUSH1 0xA DUP3 SUB PUSH2 0x1CCD JUMPI PUSH1 0x5 SWAP1 POP PUSH2 0x1D74 JUMP JUMPDEST PUSH1 0x9 DUP3 SUB PUSH2 0x1CDE JUMPI PUSH1 0x14 SWAP1 POP PUSH2 0x1D74 JUMP JUMPDEST PUSH1 0x8 DUP3 SUB PUSH2 0x1CEF JUMPI PUSH1 0x50 SWAP1 POP PUSH2 0x1D74 JUMP JUMPDEST PUSH1 0x7 DUP3 SUB PUSH2 0x1D01 JUMPI PUSH2 0x140 SWAP1 POP PUSH2 0x1D74 JUMP JUMPDEST PUSH1 0x6 DUP3 SUB PUSH2 0x1D13 JUMPI PUSH2 0x4B0 SWAP1 POP PUSH2 0x1D74 JUMP JUMPDEST PUSH1 0x5 DUP3 SUB PUSH2 0x1D25 JUMPI PUSH2 0x12C0 SWAP1 POP PUSH2 0x1D74 JUMP JUMPDEST PUSH1 0x4 DUP3 SUB PUSH2 0x1D37 JUMPI PUSH2 0x4E20 SWAP1 POP PUSH2 0x1D74 JUMP JUMPDEST PUSH1 0x3 DUP3 SUB PUSH2 0x1D4A JUMPI PUSH3 0x186A0 SWAP1 POP PUSH2 0x1D74 JUMP JUMPDEST PUSH1 0x2 DUP3 SUB PUSH2 0x1D5D JUMPI PUSH3 0x7A120 SWAP1 POP PUSH2 0x1D74 JUMP JUMPDEST PUSH1 0x1 DUP3 SUB PUSH2 0x1D70 JUMPI PUSH3 0x1E8480 SWAP1 POP PUSH2 0x1D74 JUMP JUMPDEST PUSH0 SWAP1 POP JUMPDEST SWAP2 SWAP1 POP JUMP JUMPDEST POP DUP1 SLOAD PUSH0 DUP3 SSTORE SWAP1 PUSH0 MSTORE PUSH1 0x20 PUSH0 KECCAK256 SWAP1 DUP2 ADD SWAP1 PUSH2 0x1D94 SWAP2 SWAP1 PUSH2 0x1DB8 JUMP JUMPDEST POP JUMP JUMPDEST POP DUP1 SLOAD PUSH0 DUP3 SSTORE PUSH1 0x2 MUL SWAP1 PUSH0 MSTORE PUSH1 0x20 PUSH0 KECCAK256 SWAP1 DUP2 ADD SWAP1 PUSH2 0x1DB5 SWAP2 SWAP1 PUSH2 0x1DF7 JUMP JUMPDEST POP JUMP JUMPDEST JUMPDEST DUP1 DUP3 GT ISZERO PUSH2 0x1DF3 JUMPI PUSH0 DUP1 DUP3 ADD PUSH0 PUSH2 0x100 EXP DUP2 SLOAD SWAP1 PUSH4 0xFFFFFFFF MUL NOT AND SWAP1 SSTORE PUSH0 DUP3 ADD PUSH1 0x4 PUSH2 0x100 EXP DUP2 SLOAD SWAP1 PUSH1 0xFF MUL NOT AND SWAP1 SSTORE POP PUSH1 0x1 ADD PUSH2 0x1DB9 JUMP JUMPDEST POP SWAP1 JUMP JUMPDEST JUMPDEST DUP1 DUP3 GT ISZERO PUSH2 0x1E55 JUMPI PUSH0 DUP1 DUP3 ADD PUSH0 SWAP1 SSTORE PUSH1 0x1 DUP3 ADD PUSH0 PUSH2 0x100 EXP DUP2 SLOAD SWAP1 PUSH1 0xFF MUL NOT AND SWAP1 SSTORE PUSH1 0x1 DUP3 ADD PUSH1 0x1 PUSH2 0x100 EXP DUP2 SLOAD SWAP1 PUSH31 0xFFFFFFFFFFFFFFFFFFFFFFFFFFFFFFFFFFFFFFFFFFFFFFFFFFFFFFFFFFFFFF MUL NOT AND SWAP1 SSTORE POP PUSH1 0x2 ADD PUSH2 0x1DF8 JUMP JUMPDEST POP SWAP1 JUMP JUMPDEST PUSH0 PUSH20 0xFFFFFFFFFFFFFFFFFFFFFFFFFFFFFFFFFFFFFFFF DUP3 AND SWAP1 POP SWAP2 SWAP1 POP JUMP JUMPDEST PUSH0 PUSH2 0x1E82 DUP3 PUSH2 0x1E59 JUMP JUMPDEST SWAP1 POP SWAP2 SWAP1 POP JUMP JUMPDEST PUSH2 0x1E92 DUP2 PUSH2 0x1E78 JUMP JUMPDEST DUP3 MSTORE POP POP JUMP JUMPDEST PUSH0 PUSH1 0x20 DUP3 ADD SWAP1 POP PUSH2 0x1EAB PUSH0 DUP4 ADD DUP5 PUSH2 0x1E89 JUMP JUMPDEST SWAP3 SWAP2 POP POP JUMP JUMPDEST PUSH0 DUP2 SWAP1 POP SWAP2 SWAP1 POP JUMP JUMPDEST PUSH2 0x1EC3 DUP2 PUSH2 0x1EB1 JUMP JUMPDEST DUP3 MSTORE POP POP JUMP JUMPDEST PUSH0 PUSH1 0x20 DUP3 ADD SWAP1 POP PUSH2 0x1EDC PUSH0 DUP4 ADD DUP5 PUSH2 0x1EBA JUMP JUMPDEST SWAP3 SWAP2 POP POP JUMP JUMPDEST PUSH0 DUP1 REVERT JUMPDEST PUSH0 PUSH2 0xFFFF DUP3 AND SWAP1 POP SWAP2 SWAP1 POP JUMP JUMPDEST PUSH2 0x1EFC DUP2 PUSH2 0x1EE6 JUMP JUMPDEST DUP2 EQ PUSH2 0x1F06 JUMPI PUSH0 DUP1 REVERT JUMPDEST POP JUMP JUMPDEST PUSH0 DUP2 CALLDATALOAD SWAP1 POP PUSH2 0x1F17 DUP2 PUSH2 0x1EF3 JUMP JUMPDEST SWAP3 SWAP2 POP POP JUMP JUMPDEST PUSH0 PUSH1 0xFF DUP3 AND SWAP1 POP SWAP2 SWAP1 POP JUMP JUMPDEST PUSH2 0x1F32 DUP2 PUSH2 0x1F1D JUMP JUMPDEST DUP2 EQ PUSH2 0x1F3C JUMPI PUSH0 DUP1 REVERT JUMPDEST POP JUMP JUMPDEST PUSH0 DUP2 CALLDATALOAD SWAP1 POP PUSH2 0x1F4D DUP2 PUSH2 0x1F29 JUMP JUMPDEST SWAP3 SWAP2 POP POP JUMP JUMPDEST PUSH0 PUSH29 0xFFFFFFFFFFFFFFFFFFFFFFFFFFFFFFFFFFFFFFFFFFFFFFFFFFFFFFFFFF DUP3 AND SWAP1 POP SWAP2 SWAP1 POP JUMP JUMPDEST PUSH2 0x1F84 DUP2 PUSH2 0x1F53 JUMP JUMPDEST DUP2 EQ PUSH2 0x1F8E JUMPI PUSH0 DUP1 REVERT JUMPDEST POP JUMP JUMPDEST PUSH0 DUP2 CALLDATALOAD SWAP1 POP PUSH2 0x1F9F DUP2 PUSH2 0x1F7B JUMP JUMPDEST SWAP3 SWAP2 POP POP JUMP JUMPDEST PUSH2 0x1FAE DUP2 PUSH2 0x1E78 JUMP JUMPDEST DUP2 EQ PUSH2 0x1FB8 JUMPI PUSH0 DUP1 REVERT JUMPDEST POP JUMP JUMPDEST PUSH0 DUP2 CALLDATALOAD SWAP1 POP PUSH2 0x1FC9 DUP2 PUSH2 0x1FA5 JUMP JUMPDEST SWAP3 SWAP2 POP POP JUMP JUMPDEST PUSH0 DUP1 PUSH0 DUP1 PUSH1 0x80 DUP6 DUP8 SUB SLT ISZERO PUSH2 0x1FE7 JUMPI PUSH2 0x1FE6 PUSH2 0x1EE2 JUMP JUMPDEST JUMPDEST PUSH0 PUSH2 0x1FF4 DUP8 DUP3 DUP9 ADD PUSH2 0x1F09 JUMP JUMPDEST SWAP5 POP POP PUSH1 0x20 PUSH2 0x2005 DUP8 DUP3 DUP9 ADD PUSH2 0x1F3F JUMP JUMPDEST SWAP4 POP POP PUSH1 0x40 PUSH2 0x2016 DUP8 DUP3 DUP9 ADD PUSH2 0x1F91 JUMP JUMPDEST SWAP3 POP POP PUSH1 0x60 PUSH2 0x2027 DUP8 DUP3 DUP9 ADD PUSH2 0x1FBB JUMP JUMPDEST SWAP2 POP POP SWAP3 SWAP6 SWAP2 SWAP5 POP SWAP3 POP JUMP JUMPDEST PUSH2 0x203C DUP2 PUSH2 0x1EB1 JUMP JUMPDEST DUP2 EQ PUSH2 0x2046 JUMPI PUSH0 DUP1 REVERT JUMPDEST POP JUMP JUMPDEST PUSH0 DUP2 CALLDATALOAD SWAP1 POP PUSH2 0x2057 DUP2 PUSH2 0x2033 JUMP JUMPDEST SWAP3 SWAP2 POP POP JUMP JUMPDEST PUSH0 PUSH1 0x20 DUP3 DUP5 SUB SLT ISZERO PUSH2 0x2072 JUMPI PUSH2 0x2071 PUSH2 0x1EE2 JUMP JUMPDEST JUMPDEST PUSH0 PUSH2 0x207F DUP5 DUP3 DUP6 ADD PUSH2 0x2049 JUMP JUMPDEST SWAP2 POP POP SWAP3 SWAP2 POP POP JUMP JUMPDEST PUSH0 DUP3 DUP3 MSTORE PUSH1 0x20 DUP3 ADD SWAP1 POP SWAP3 SWAP2 POP POP JUMP JUMPDEST PUSH32 0x596F75206D757374206265206120696E766573746F7200000000000000000000 PUSH0 DUP3 ADD MSTORE POP JUMP JUMPDEST PUSH0 PUSH2 0x20CC PUSH1 0x16 DUP4 PUSH2 0x2088 JUMP JUMPDEST SWAP2 POP PUSH2 0x20D7 DUP3 PUSH2 0x2098 JUMP JUMPDEST PUSH1 0x20 DUP3 ADD SWAP1 POP SWAP2 SWAP1 POP JUMP JUMPDEST PUSH0 PUSH1 0x20 DUP3 ADD SWAP1 POP DUP2 DUP2 SUB PUSH0 DUP4 ADD MSTORE PUSH2 0x20F9 DUP2 PUSH2 0x20C0 JUMP JUMPDEST SWAP1 POP SWAP2 SWAP1 POP JUMP JUMPDEST PUSH32 0x4E487B7100000000000000000000000000000000000000000000000000000000 PUSH0 MSTORE PUSH1 0x11 PUSH1 0x4 MSTORE PUSH1 0x24 PUSH0 REVERT JUMPDEST PUSH0 PUSH2 0x2137 DUP3 PUSH2 0x1EB1 JUMP JUMPDEST SWAP2 POP PUSH2 0x2142 DUP4 PUSH2 0x1EB1 JUMP JUMPDEST SWAP3 POP DUP3 DUP3 ADD SWAP1 POP DUP1 DUP3 GT ISZERO PUSH2 0x215A JUMPI PUSH2 0x2159 PUSH2 0x2100 JUMP JUMPDEST JUMPDEST SWAP3 SWAP2 POP POP JUMP JUMPDEST PUSH32 0x4E487B7100000000000000000000000000000000000000000000000000000000 PUSH0 MSTORE PUSH1 0x12 PUSH1 0x4 MSTORE PUSH1 0x24 PUSH0 REVERT JUMPDEST PUSH0 PUSH2 0x2197 DUP3 PUSH2 0x1EB1 JUMP JUMPDEST SWAP2 POP PUSH2 0x21A2 DUP4 PUSH2 0x1EB1 JUMP JUMPDEST SWAP3 POP DUP3 PUSH2 0x21B2 JUMPI PUSH2 0x21B1 PUSH2 0x2160 JUMP JUMPDEST JUMPDEST DUP3 DUP3 DIV SWAP1 POP SWAP3 SWAP2 POP POP JUMP JUMPDEST PUSH32 0x4E487B7100000000000000000000000000000000000000000000000000000000 PUSH0 MSTORE PUSH1 0x32 PUSH1 0x4 MSTORE PUSH1 0x24 PUSH0 REVERT JUMPDEST PUSH32 0x496E766573746D656E7420616D6F756E7420626574657765656E203120616E64 PUSH0 DUP3 ADD MSTORE PUSH32 0x2031303030000000000000000000000000000000000000000000000000000000 PUSH1 0x20 DUP3 ADD MSTORE POP JUMP JUMPDEST PUSH0 PUSH2 0x2244 PUSH1 0x25 DUP4 PUSH2 0x2088 JUMP JUMPDEST SWAP2 POP PUSH2 0x224F DUP3 PUSH2 0x21EA JUMP JUMPDEST PUSH1 0x40 DUP3 ADD SWAP1 POP SWAP2 SWAP1 POP JUMP JUMPDEST PUSH0 PUSH1 0x20 DUP3 ADD SWAP1 POP DUP2 DUP2 SUB PUSH0 DUP4 ADD MSTORE PUSH2 0x2271 DUP2 PUSH2 0x2238 JUMP JUMPDEST SWAP1 POP SWAP2 SWAP1 POP JUMP JUMPDEST PUSH32 0x596F7520646F6E2774206861766520756E64726177206C6F7474657279207469 PUSH0 DUP3 ADD MSTORE PUSH32 0x636B657473000000000000000000000000000000000000000000000000000000 PUSH1 0x20 DUP3 ADD MSTORE POP JUMP JUMPDEST PUSH0 PUSH2 0x22D2 PUSH1 0x25 DUP4 PUSH2 0x2088 JUMP JUMPDEST SWAP2 POP PUSH2 0x22DD DUP3 PUSH2 0x2278 JUMP JUMPDEST PUSH1 0x40 DUP3 ADD SWAP1 POP SWAP2 SWAP1 POP JUMP JUMPDEST PUSH0 PUSH1 0x20 DUP3 ADD SWAP1 POP DUP2 DUP2 SUB PUSH0 DUP4 ADD MSTORE PUSH2 0x22FF DUP2 PUSH2 0x22C6 JUMP JUMPDEST SWAP1 POP SWAP2 SWAP1 POP JUMP JUMPDEST PUSH0 PUSH2 0x2310 DUP3 PUSH2 0x1EB1 JUMP JUMPDEST SWAP2 POP PUSH2 0x231B DUP4 PUSH2 0x1EB1 JUMP JUMPDEST SWAP3 POP DUP3 DUP3 SUB SWAP1 POP DUP2 DUP2 GT ISZERO PUSH2 0x2333 JUMPI PUSH2 0x2332 PUSH2 0x2100 JUMP JUMPDEST JUMPDEST SWAP3 SWAP2 POP POP JUMP JUMPDEST PUSH32 0x49742773206E6F742074696D6500000000000000000000000000000000000000 PUSH0 DUP3 ADD MSTORE POP JUMP JUMPDEST PUSH0 PUSH2 0x236D PUSH1 0xD DUP4 PUSH2 0x2088 JUMP JUMPDEST SWAP2 POP PUSH2 0x2378 DUP3 PUSH2 0x2339 JUMP JUMPDEST PUSH1 0x20 DUP3 ADD SWAP1 POP SWAP2 SWAP1 POP JUMP JUMPDEST PUSH0 PUSH1 0x20 DUP3 ADD SWAP1 POP DUP2 DUP2 SUB PUSH0 DUP4 ADD MSTORE PUSH2 0x239A DUP2 PUSH2 0x2361 JUMP JUMPDEST SWAP1 POP SWAP2 SWAP1 POP JUMP JUMPDEST PUSH0 DUP2 SWAP1 POP SWAP2 SWAP1 POP JUMP JUMPDEST PUSH0 DUP2 SWAP1 POP SWAP2 SWAP1 POP JUMP JUMPDEST PUSH2 0x23C4 PUSH2 0x23BF DUP3 PUSH2 0x23A1 JUMP JUMPDEST PUSH2 0x23AA JUMP JUMPDEST DUP3 MSTORE POP POP JUMP JUMPDEST PUSH0 PUSH2 0x23D5 DUP3 DUP6 PUSH2 0x23B3 JUMP JUMPDEST PUSH1 0x20 DUP3 ADD SWAP2 POP PUSH2 0x23E5 DUP3 DUP5 PUSH2 0x23B3 JUMP JUMPDEST PUSH1 0x20 DUP3 ADD SWAP2 POP DUP2 SWAP1 POP SWAP4 SWAP3 POP POP POP JUMP JUMPDEST PUSH0 PUSH2 0x23FF DUP3 PUSH2 0x1EB1 JUMP JUMPDEST SWAP2 POP PUSH2 0x240A DUP4 PUSH2 0x1EB1 JUMP JUMPDEST SWAP3 POP DUP3 DUP3 MUL PUSH2 0x2418 DUP2 PUSH2 0x1EB1 JUMP JUMPDEST SWAP2 POP DUP3 DUP3 DIV DUP5 EQ DUP4 ISZERO OR PUSH2 0x242F JUMPI PUSH2 0x242E PUSH2 0x2100 JUMP JUMPDEST JUMPDEST POP SWAP3 SWAP2 POP POP JUMP JUMPDEST PUSH32 0x427579206174206C65617374206F6E6520656767000000000000000000000000 PUSH0 DUP3 ADD MSTORE POP JUMP JUMPDEST PUSH0 PUSH2 0x246A PUSH1 0x14 DUP4 PUSH2 0x2088 JUMP JUMPDEST SWAP2 POP PUSH2 0x2475 DUP3 PUSH2 0x2436 JUMP JUMPDEST PUSH1 0x20 DUP3 ADD SWAP1 POP SWAP2 SWAP1 POP JUMP JUMPDEST PUSH0 PUSH1 0x20 DUP3 ADD SWAP1 POP DUP2 DUP2 SUB PUSH0 DUP4 ADD MSTORE PUSH2 0x2497 DUP2 PUSH2 0x245E JUMP JUMPDEST SWAP1 POP SWAP2 SWAP1 POP JUMP JUMPDEST PUSH32 0x4D756C7469706C6573206265747765656E203120616E64203130300000000000 PUSH0 DUP3 ADD MSTORE POP JUMP JUMPDEST PUSH0 PUSH2 0x24D2 PUSH1 0x1B DUP4 PUSH2 0x2088 JUMP JUMPDEST SWAP2 POP PUSH2 0x24DD DUP3 PUSH2 0x249E JUMP JUMPDEST PUSH1 0x20 DUP3 ADD SWAP1 POP SWAP2 SWAP1 POP JUMP JUMPDEST PUSH0 PUSH1 0x20 DUP3 ADD SWAP1 POP DUP2 DUP2 SUB PUSH0 DUP4 ADD MSTORE PUSH2 0x24FF DUP2 PUSH2 0x24C6 JUMP JUMPDEST SWAP1 POP SWAP2 SWAP1 POP JUMP JUMPDEST PUSH32 0x4E756D626572206F662065676773206265747765656E203120616E6420313030 PUSH0 DUP3 ADD MSTORE POP JUMP JUMPDEST PUSH0 PUSH2 0x253A PUSH1 0x20 DUP4 PUSH2 0x2088 JUMP JUMPDEST SWAP2 POP PUSH2 0x2545 DUP3 PUSH2 0x2506 JUMP JUMPDEST PUSH1 0x20 DUP3 ADD SWAP1 POP SWAP2 SWAP1 POP JUMP JUMPDEST PUSH0 PUSH1 0x20 DUP3 ADD SWAP1 POP DUP2 DUP2 SUB PUSH0 DUP4 ADD MSTORE PUSH2 0x2567 DUP2 PUSH2 0x252E JUMP JUMPDEST SWAP1 POP SWAP2 SWAP1 POP JUMP JUMPDEST PUSH0 PUSH2 0x2578 DUP3 PUSH2 0x1EE6 JUMP JUMPDEST SWAP2 POP PUSH2 0x2583 DUP4 PUSH2 0x1EE6 JUMP JUMPDEST SWAP3 POP DUP3 DUP3 MUL PUSH2 0x2591 DUP2 PUSH2 0x1EE6 JUMP JUMPDEST SWAP2 POP DUP1 DUP3 EQ PUSH2 0x25A3 JUMPI PUSH2 0x25A2 PUSH2 0x2100 JUMP JUMPDEST JUMPDEST POP SWAP3 SWAP2 POP POP JUMP JUMPDEST PUSH32 0x496E76616C696420646174610000000000000000000000000000000000000000 PUSH0 DUP3 ADD MSTORE POP JUMP JUMPDEST PUSH0 PUSH2 0x25DE PUSH1 0xC DUP4 PUSH2 0x2088 JUMP JUMPDEST SWAP2 POP PUSH2 0x25E9 DUP3 PUSH2 0x25AA JUMP JUMPDEST PUSH1 0x20 DUP3 ADD SWAP1 POP SWAP2 SWAP1 POP JUMP JUMPDEST PUSH0 PUSH1 0x20 DUP3 ADD SWAP1 POP DUP2 DUP2 SUB PUSH0 DUP4 ADD MSTORE PUSH2 0x260B DUP2 PUSH2 0x25D2 JUMP JUMPDEST SWAP1 POP SWAP2 SWAP1 POP JUMP JUMPDEST PUSH0 PUSH2 0x261C DUP3 PUSH2 0x1F53 JUMP JUMPDEST SWAP2 POP PUSH29 0xFFFFFFFFFFFFFFFFFFFFFFFFFFFFFFFFFFFFFFFFFFFFFFFFFFFFFFFFFF DUP3 SUB PUSH2 0x264B JUMPI PUSH2 0x264A PUSH2 0x2100 JUMP JUMPDEST JUMPDEST PUSH1 0x1 DUP3 ADD SWAP1 POP SWAP2 SWAP1 POP JUMP JUMPDEST PUSH0 DUP2 SWAP1 POP SWAP2 SWAP1 POP JUMP JUMPDEST PUSH2 0x2670 PUSH2 0x266B DUP3 PUSH2 0x1EB1 JUMP JUMPDEST PUSH2 0x2656 JUMP JUMPDEST DUP3 MSTORE POP POP JUMP JUMPDEST PUSH0 PUSH2 0x2680 DUP3 PUSH2 0x1E59 JUMP JUMPDEST SWAP1 POP SWAP2 SWAP1 POP JUMP JUMPDEST PUSH0 DUP2 PUSH1 0x60 SHL SWAP1 POP SWAP2 SWAP1 POP JUMP JUMPDEST PUSH0 PUSH2 0x269D DUP3 PUSH2 0x2687 JUMP JUMPDEST SWAP1 POP SWAP2 SWAP1 POP JUMP JUMPDEST PUSH0 PUSH2 0x26AE DUP3 PUSH2 0x2693 JUMP JUMPDEST SWAP1 POP SWAP2 SWAP1 POP JUMP JUMPDEST PUSH2 0x26C6 PUSH2 0x26C1 DUP3 PUSH2 0x2676 JUMP JUMPDEST PUSH2 0x26A4 JUMP JUMPDEST DUP3 MSTORE POP POP JUMP JUMPDEST PUSH0 PUSH2 0x26D6 DUP3 PUSH2 0x2693 JUMP JUMPDEST SWAP1 POP SWAP2 SWAP1 POP JUMP JUMPDEST PUSH2 0x26EE PUSH2 0x26E9 DUP3 PUSH2 0x1E78 JUMP JUMPDEST PUSH2 0x26CC JUMP JUMPDEST DUP3 MSTORE POP POP JUMP JUMPDEST PUSH0 DUP2 PUSH1 0x18 SHL SWAP1 POP SWAP2 SWAP1 POP JUMP JUMPDEST PUSH0 PUSH2 0x270A DUP3 PUSH2 0x26F4 JUMP JUMPDEST SWAP1 POP SWAP2 SWAP1 POP JUMP JUMPDEST PUSH2 0x2722 PUSH2 0x271D DUP3 PUSH2 0x1F53 JUMP JUMPDEST PUSH2 0x2700 JUMP JUMPDEST DUP3 MSTORE POP POP JUMP JUMPDEST PUSH0 PUSH2 0x2733 DUP3 DUP8 PUSH2 0x265F JUMP JUMPDEST PUSH1 0x20 DUP3 ADD SWAP2 POP PUSH2 0x2743 DUP3 DUP7 PUSH2 0x26B5 JUMP JUMPDEST PUSH1 0x14 DUP3 ADD SWAP2 POP PUSH2 0x2753 DUP3 DUP6 PUSH2 0x26DD JUMP JUMPDEST PUSH1 0x14 DUP3 ADD SWAP2 POP PUSH2 0x2763 DUP3 DUP5 PUSH2 0x2711 JUMP JUMPDEST PUSH1 0x1D DUP3 ADD SWAP2 POP DUP2 SWAP1 POP SWAP6 SWAP5 POP POP POP POP POP JUMP JUMPDEST PUSH32 0x4D696E696D756D20696E766573746D656E7420616D6F756E7420697320726571 PUSH0 DUP3 ADD MSTORE PUSH32 0x75697265642C6974277320736D616C6C6572207468616E20746865206D696E69 PUSH1 0x20 DUP3 ADD MSTORE PUSH32 0x6D756D206465706F736974000000000000000000000000000000000000000000 PUSH1 0x40 DUP3 ADD MSTORE POP JUMP JUMPDEST PUSH0 PUSH2 0x27F5 PUSH1 0x4B DUP4 PUSH2 0x2088 JUMP JUMPDEST SWAP2 POP PUSH2 0x2800 DUP3 PUSH2 0x2775 JUMP JUMPDEST PUSH1 0x60 DUP3 ADD SWAP1 POP SWAP2 SWAP1 POP JUMP JUMPDEST PUSH0 PUSH1 0x20 DUP3 ADD SWAP1 POP DUP2 DUP2 SUB PUSH0 DUP4 ADD MSTORE PUSH2 0x2822 DUP2 PUSH2 0x27E9 JUMP JUMPDEST SWAP1 POP SWAP2 SWAP1 POP JUMP JUMPDEST PUSH32 0x4E6F7420656E6F7567682066756E6420746F2077697468647261772100000000 PUSH0 DUP3 ADD MSTORE POP JUMP JUMPDEST PUSH0 PUSH2 0x285D PUSH1 0x1C DUP4 PUSH2 0x2088 JUMP JUMPDEST SWAP2 POP PUSH2 0x2868 DUP3 PUSH2 0x2829 JUMP JUMPDEST PUSH1 0x20 DUP3 ADD SWAP1 POP SWAP2 SWAP1 POP JUMP JUMPDEST PUSH0 PUSH1 0x20 DUP3 ADD SWAP1 POP DUP2 DUP2 SUB PUSH0 DUP4 ADD MSTORE PUSH2 0x288A DUP2 PUSH2 0x2851 JUMP JUMPDEST SWAP1 POP SWAP2 SWAP1 POP JUMP JUMPDEST PUSH32 0x43616E6E6F74207769746864726177206166746572206F6E65207765656B2100 PUSH0 DUP3 ADD MSTORE POP JUMP JUMPDEST PUSH0 PUSH2 0x28C5 PUSH1 0x1F DUP4 PUSH2 0x2088 JUMP JUMPDEST SWAP2 POP PUSH2 0x28D0 DUP3 PUSH2 0x2891 JUMP JUMPDEST PUSH1 0x20 DUP3 ADD SWAP1 POP SWAP2 SWAP1 POP JUMP JUMPDEST PUSH0 PUSH1 0x20 DUP3 ADD SWAP1 POP DUP2 DUP2 SUB PUSH0 DUP4 ADD MSTORE PUSH2 0x28F2 DUP2 PUSH2 0x28B9 JUMP JUMPDEST SWAP1 POP SWAP2 SWAP1 POP JUMP JUMPDEST PUSH32 0x496E73756666696369656E742066756E6420746F207769746864726177210000 PUSH0 DUP3 ADD MSTORE POP JUMP JUMPDEST PUSH0 PUSH2 0x292D PUSH1 0x1E DUP4 PUSH2 0x2088 JUMP JUMPDEST SWAP2 POP PUSH2 0x2938 DUP3 PUSH2 0x28F9 JUMP JUMPDEST PUSH1 0x20 DUP3 ADD SWAP1 POP SWAP2 SWAP1 POP JUMP JUMPDEST PUSH0 PUSH1 0x20 DUP3 ADD SWAP1 POP DUP2 DUP2 SUB PUSH0 DUP4 ADD MSTORE PUSH2 0x295A DUP2 PUSH2 0x2921 JUMP JUMPDEST SWAP1 POP SWAP2 SWAP1 POP JUMP JUMPDEST PUSH32 0x4E487B7100000000000000000000000000000000000000000000000000000000 PUSH0 MSTORE PUSH1 0x1 PUSH1 0x4 MSTORE PUSH1 0x24 PUSH0 REVERT INVALID LOG2 PUSH5 0x6970667358 0x22 SLT KECCAK256 SWAP1 0xAA COINBASE 0x1F PUSH18 0x1299A93C3C1CE8387A408863B3673AFD5A61 SWAP3 DUP5 0xC7 0xD1 PUSH2 0x6F8D 0x21 0xD6 PUSH5 0x736F6C6343 STOP ADDMOD BYTE STOP CALLER "
				},
				"gasEstimates": {
					"creation": {
						"codeDepositCost": "2138400",
						"executionCost": "70769",
						"totalCost": "2209169"
					},
					"external": {
						"BuyEggs(uint16,uint8,uint232,address)": "infinite",
						"DevAddress()": "2572",
						"DistributeInvestmentIncome()": "infinite",
						"InvestmentDeposit()": "infinite",
						"InvestmentWithdrawal(uint256)": "infinite",
						"InvestorsProfit()": "2491",
						"OpenEggs()": "infinite",
						"RecentDividendTime()": "2447",
						"TotalInvestmentAmount()": "2425"
					},
					"internal": {
						"GetWinninggrade(uint32)": "331",
						"GetWinningmultiple(uint256)": "291",
						"SafeMathadd(uint256,uint256)": "infinite",
						"SafeMathdiv(uint256,uint256)": "infinite",
						"SafeMathmul(uint256,uint256)": "infinite",
						"SafeMathsub(uint256,uint256)": "infinite"
					}
				},
				"methodIdentifiers": {
					"BuyEggs(uint16,uint8,uint232,address)": "c9ea0299",
					"DevAddress()": "89a4c1a0",
					"DistributeInvestmentIncome()": "12db1357",
					"InvestmentDeposit()": "49821332",
					"InvestmentWithdrawal(uint256)": "dd5f6f4d",
					"InvestorsProfit()": "ca6aae29",
					"OpenEggs()": "7da384fd",
					"RecentDividendTime()": "b1c617ff",
					"TotalInvestmentAmount()": "a659f4dc"
				}
			},
			"storageLayout": {
				"storage": [
					{
						"astId": 56,
						"contract": "contracts/Lottery.sol:LotteryGame",
						"label": "DevAddress",
						"offset": 0,
						"slot": "0",
						"type": "t_address"
					},
					{
						"astId": 58,
						"contract": "contracts/Lottery.sol:LotteryGame",
						"label": "DevProfit",
						"offset": 0,
						"slot": "1",
						"type": "t_uint256"
					},
					{
						"astId": 61,
						"contract": "contracts/Lottery.sol:LotteryGame",
						"label": "investors",
						"offset": 0,
						"slot": "2",
						"type": "t_array(t_address)dyn_storage"
					},
					{
						"astId": 66,
						"contract": "contracts/Lottery.sol:LotteryGame",
						"label": "InvestorsBalance",
						"offset": 0,
						"slot": "3",
						"type": "t_mapping(t_address,t_struct(investorbalance)42_storage)"
					},
					{
						"astId": 68,
						"contract": "contracts/Lottery.sol:LotteryGame",
						"label": "TotalInvestmentAmount",
						"offset": 0,
						"slot": "4",
						"type": "t_uint256"
					},
					{
						"astId": 70,
						"contract": "contracts/Lottery.sol:LotteryGame",
						"label": "InvestorsProfit",
						"offset": 0,
						"slot": "5",
						"type": "t_uint256"
					},
					{
						"astId": 72,
						"contract": "contracts/Lottery.sol:LotteryGame",
						"label": "RecentDividendTime",
						"offset": 0,
						"slot": "6",
						"type": "t_uint256"
					},
					{
						"astId": 74,
						"contract": "contracts/Lottery.sol:LotteryGame",
						"label": "TotalReferralProfit",
						"offset": 0,
						"slot": "7",
						"type": "t_uint256"
					},
					{
						"astId": 76,
						"contract": "contracts/Lottery.sol:LotteryGame",
						"label": "LastBuyEggTime",
						"offset": 0,
						"slot": "8",
						"type": "t_uint256"
					},
					{
						"astId": 81,
						"contract": "contracts/Lottery.sol:LotteryGame",
						"label": "UsersInfo",
						"offset": 0,
						"slot": "9",
						"type": "t_mapping(t_address,t_struct(userinfo)26_storage)"
					},
					{
						"astId": 85,
						"contract": "contracts/Lottery.sol:LotteryGame",
						"label": "referrals",
						"offset": 0,
						"slot": "10",
						"type": "t_mapping(t_address,t_address)"
					},
					{
						"astId": 89,
						"contract": "contracts/Lottery.sol:LotteryGame",
						"label": "WinningRecord",
						"offset": 0,
						"slot": "11",
						"type": "t_array(t_struct(Winninginfo)35_storage)dyn_storage"
					}
				],
				"types": {
					"t_address": {
						"encoding": "inplace",
						"label": "address",
						"numberOfBytes": "20"
					},
					"t_array(t_address)dyn_storage": {
						"base": "t_address",
						"encoding": "dynamic_array",
						"label": "address[]",
						"numberOfBytes": "32"
					},
					"t_array(t_struct(Egginfo)8_storage)dyn_storage": {
						"base": "t_struct(Egginfo)8_storage",
						"encoding": "dynamic_array",
						"label": "struct LotteryGame.Egginfo[]",
						"numberOfBytes": "32"
					},
					"t_array(t_struct(OpenedLotInfo)13_storage)dyn_storage": {
						"base": "t_struct(OpenedLotInfo)13_storage",
						"encoding": "dynamic_array",
						"label": "struct LotteryGame.OpenedLotInfo[]",
						"numberOfBytes": "32"
					},
					"t_array(t_struct(Winninginfo)35_storage)dyn_storage": {
						"base": "t_struct(Winninginfo)35_storage",
						"encoding": "dynamic_array",
						"label": "struct LotteryGame.Winninginfo[]",
						"numberOfBytes": "32"
					},
					"t_bool": {
						"encoding": "inplace",
						"label": "bool",
						"numberOfBytes": "1"
					},
					"t_bytes32": {
						"encoding": "inplace",
						"label": "bytes32",
						"numberOfBytes": "32"
					},
					"t_mapping(t_address,t_address)": {
						"encoding": "mapping",
						"key": "t_address",
						"label": "mapping(address => address)",
						"numberOfBytes": "32",
						"value": "t_address"
					},
					"t_mapping(t_address,t_struct(investorbalance)42_storage)": {
						"encoding": "mapping",
						"key": "t_address",
						"label": "mapping(address => struct LotteryGame.investorbalance)",
						"numberOfBytes": "32",
						"value": "t_struct(investorbalance)42_storage"
					},
					"t_mapping(t_address,t_struct(userinfo)26_storage)": {
						"encoding": "mapping",
						"key": "t_address",
						"label": "mapping(address => struct LotteryGame.userinfo)",
						"numberOfBytes": "32",
						"value": "t_struct(userinfo)26_storage"
					},
					"t_struct(Egginfo)8_storage": {
						"encoding": "inplace",
						"label": "struct LotteryGame.Egginfo",
						"members": [
							{
								"astId": 3,
								"contract": "contracts/Lottery.sol:LotteryGame",
								"label": "uid",
								"offset": 0,
								"slot": "0",
								"type": "t_bytes32"
							},
							{
								"astId": 5,
								"contract": "contracts/Lottery.sol:LotteryGame",
								"label": "mul",
								"offset": 0,
								"slot": "1",
								"type": "t_uint8"
							},
							{
								"astId": 7,
								"contract": "contracts/Lottery.sol:LotteryGame",
								"label": "blocknumber",
								"offset": 1,
								"slot": "1",
								"type": "t_uint248"
							}
						],
						"numberOfBytes": "64"
					},
					"t_struct(OpenedLotInfo)13_storage": {
						"encoding": "inplace",
						"label": "struct LotteryGame.OpenedLotInfo",
						"members": [
							{
								"astId": 10,
								"contract": "contracts/Lottery.sol:LotteryGame",
								"label": "Lotterynum",
								"offset": 0,
								"slot": "0",
								"type": "t_uint32"
							},
							{
								"astId": 12,
								"contract": "contracts/Lottery.sol:LotteryGame",
								"label": "mul",
								"offset": 4,
								"slot": "0",
								"type": "t_uint8"
							}
						],
						"numberOfBytes": "32"
					},
					"t_struct(Winninginfo)35_storage": {
						"encoding": "inplace",
						"label": "struct LotteryGame.Winninginfo",
						"members": [
							{
								"astId": 28,
								"contract": "contracts/Lottery.sol:LotteryGame",
								"label": "LotteryNum",
								"offset": 0,
								"slot": "0",
								"type": "t_uint32"
							},
							{
								"astId": 30,
								"contract": "contracts/Lottery.sol:LotteryGame",
								"label": "mul",
								"offset": 4,
								"slot": "0",
								"type": "t_uint8"
							},
							{
								"astId": 32,
								"contract": "contracts/Lottery.sol:LotteryGame",
								"label": "timestamp",
								"offset": 0,
								"slot": "1",
								"type": "t_uint256"
							},
							{
								"astId": 34,
								"contract": "contracts/Lottery.sol:LotteryGame",
								"label": "winner",
								"offset": 0,
								"slot": "2",
								"type": "t_address"
							}
						],
						"numberOfBytes": "96"
					},
					"t_struct(investorbalance)42_storage": {
						"encoding": "inplace",
						"label": "struct LotteryGame.investorbalance",
						"members": [
							{
								"astId": 37,
								"contract": "contracts/Lottery.sol:LotteryGame",
								"label": "balance",
								"offset": 0,
								"slot": "0",
								"type": "t_uint256"
							},
							{
								"astId": 39,
								"contract": "contracts/Lottery.sol:LotteryGame",
								"label": "LastInvestTime",
								"offset": 0,
								"slot": "1",
								"type": "t_uint256"
							},
							{
								"astId": 41,
								"contract": "contracts/Lottery.sol:LotteryGame",
								"label": "HasInvested",
								"offset": 0,
								"slot": "2",
								"type": "t_bool"
							}
						],
						"numberOfBytes": "96"
					},
					"t_struct(userinfo)26_storage": {
						"encoding": "inplace",
						"label": "struct LotteryGame.userinfo",
						"members": [
							{
								"astId": 17,
								"contract": "contracts/Lottery.sol:LotteryGame",
								"label": "eggsinfo",
								"offset": 0,
								"slot": "0",
								"type": "t_array(t_struct(Egginfo)8_storage)dyn_storage"
							},
							{
								"astId": 21,
								"contract": "contracts/Lottery.sol:LotteryGame",
								"label": "openedeggs",
								"offset": 0,
								"slot": "1",
								"type": "t_array(t_struct(OpenedLotInfo)13_storage)dyn_storage"
							},
							{
								"astId": 23,
								"contract": "contracts/Lottery.sol:LotteryGame",
								"label": "ReferralProfit",
								"offset": 0,
								"slot": "2",
								"type": "t_uint256"
							},
							{
								"astId": 25,
								"contract": "contracts/Lottery.sol:LotteryGame",
								"label": "actived",
								"offset": 0,
								"slot": "3",
								"type": "t_bool"
							}
						],
						"numberOfBytes": "128"
					},
					"t_uint248": {
						"encoding": "inplace",
						"label": "uint248",
						"numberOfBytes": "31"
					},
					"t_uint256": {
						"encoding": "inplace",
						"label": "uint256",
						"numberOfBytes": "32"
					},
					"t_uint32": {
						"encoding": "inplace",
						"label": "uint32",
						"numberOfBytes": "4"
					},
					"t_uint8": {
						"encoding": "inplace",
						"label": "uint8",
						"numberOfBytes": "1"
					}
				}
			},
			"userdoc": {
				"kind": "user",
				"methods": {},
				"version": 1
			}
		}
	}
}