{
	"contracts/Lottery.sol": {
		"LotteryGame": {
			"abi": [
				{
					"inputs": [],
					"stateMutability": "nonpayable",
					"type": "constructor"
				},
				{
					"inputs": [
						{
							"internalType": "uint16",
							"name": "LotCount",
							"type": "uint16"
						},
						{
							"internalType": "uint8",
							"name": "mul",
							"type": "uint8"
						},
						{
							"internalType": "uint232",
							"name": "Lucknum",
							"type": "uint232"
						},
						{
							"internalType": "address",
							"name": "ref",
							"type": "address"
						}
					],
					"name": "BuyEggs",
					"outputs": [],
					"stateMutability": "payable",
					"type": "function"
				},
				{
					"inputs": [],
					"name": "DevAddress",
					"outputs": [
						{
							"internalType": "address",
							"name": "",
							"type": "address"
						}
					],
					"stateMutability": "view",
					"type": "function"
				},
				{
					"inputs": [],
					"name": "DeveloperWithdrawal",
					"outputs": [],
					"stateMutability": "nonpayable",
					"type": "function"
				},
				{
					"inputs": [],
					"name": "DistributeInvestmentIncome",
					"outputs": [],
					"stateMutability": "nonpayable",
					"type": "function"
				},
				{
					"inputs": [
						{
							"internalType": "uint256",
							"name": "RecordCount",
							"type": "uint256"
						}
					],
					"name": "GetWinningRecord",
					"outputs": [
						{
							"components": [
								{
									"internalType": "uint32",
									"name": "LotteryNum",
									"type": "uint32"
								},
								{
									"internalType": "uint8",
									"name": "mul",
									"type": "uint8"
								},
								{
									"internalType": "uint256",
									"name": "timestamp",
									"type": "uint256"
								},
								{
									"internalType": "address",
									"name": "winner",
									"type": "address"
								}
							],
							"internalType": "struct LotteryGame.Winninginfo[]",
							"name": "",
							"type": "tuple[]"
						}
					],
					"stateMutability": "view",
					"type": "function"
				},
				{
					"inputs": [],
					"name": "InvestmentDeposit",
					"outputs": [],
					"stateMutability": "payable",
					"type": "function"
				},
				{
					"inputs": [
						{
							"internalType": "uint256",
							"name": "WithdrawalAmount",
							"type": "uint256"
						}
					],
					"name": "InvestmentWithdrawal",
					"outputs": [],
					"stateMutability": "nonpayable",
					"type": "function"
				},
				{
					"inputs": [],
					"name": "InvestorsProfit",
					"outputs": [
						{
							"internalType": "uint256",
							"name": "",
							"type": "uint256"
						}
					],
					"stateMutability": "view",
					"type": "function"
				},
				{
					"inputs": [],
					"name": "OpenEggs",
					"outputs": [],
					"stateMutability": "nonpayable",
					"type": "function"
				},
				{
					"inputs": [],
					"name": "RecentDividendTime",
					"outputs": [
						{
							"internalType": "uint256",
							"name": "",
							"type": "uint256"
						}
					],
					"stateMutability": "view",
					"type": "function"
				},
				{
					"inputs": [],
					"name": "TotalInvestmentAmount",
					"outputs": [
						{
							"internalType": "uint256",
							"name": "",
							"type": "uint256"
						}
					],
					"stateMutability": "view",
					"type": "function"
				},
				{
					"inputs": [],
					"name": "WithdrawReferralProfit",
					"outputs": [],
					"stateMutability": "nonpayable",
					"type": "function"
				}
			],
			"devdoc": {
				"kind": "dev",
				"methods": {},
				"version": 1
			},
			"evm": {
				"assembly": "    /* \"contracts/Lottery.sol\":70:16698  contract LotteryGame {... */\n  mstore(0x40, 0x80)\n    /* \"contracts/Lottery.sol\":2929:3071  constructor() {... */\n  callvalue\n  dup1\n  iszero\n  tag_1\n  jumpi\n  0x00\n  dup1\n  revert\ntag_1:\n  pop\n    /* \"contracts/Lottery.sol\":2966:2976  msg.sender */\n  caller\n    /* \"contracts/Lottery.sol\":2953:2963  DevAddress */\n  0x00\n  dup1\n    /* \"contracts/Lottery.sol\":2953:2976  DevAddress = msg.sender */\n  0x0100\n  exp\n  dup2\n  sload\n  dup2\n  0xffffffffffffffffffffffffffffffffffffffff\n  mul\n  not\n  and\n  swap1\n  dup4\n  0xffffffffffffffffffffffffffffffffffffffff\n  and\n  mul\n  or\n  swap1\n  sstore\n  pop\n    /* \"contracts/Lottery.sol\":3007:3022  block.timestamp */\n  timestamp\n    /* \"contracts/Lottery.sol\":2986:3004  RecentDividendTime */\n  0x06\n    /* \"contracts/Lottery.sol\":2986:3022  RecentDividendTime = block.timestamp */\n  dup2\n  swap1\n  sstore\n  pop\n    /* \"contracts/Lottery.sol\":3049:3064  block.timestamp */\n  timestamp\n    /* \"contracts/Lottery.sol\":3032:3046  LastBuyEggTime */\n  0x08\n    /* \"contracts/Lottery.sol\":3032:3064  LastBuyEggTime = block.timestamp */\n  dup2\n  swap1\n  sstore\n  pop\n    /* \"contracts/Lottery.sol\":70:16698  contract LotteryGame {... */\n  dataSize(sub_0)\n  dup1\n  dataOffset(sub_0)\n  0x00\n  codecopy\n  0x00\n  return\nstop\n\nsub_0: assembly {\n        /* \"contracts/Lottery.sol\":70:16698  contract LotteryGame {... */\n      mstore(0x40, 0x80)\n      jumpi(tag_1, lt(calldatasize, 0x04))\n      shr(0xe0, calldataload(0x00))\n      dup1\n      0xa659f4dc\n      gt\n      tag_14\n      jumpi\n      dup1\n      0xa659f4dc\n      eq\n      tag_8\n      jumpi\n      dup1\n      0xb1c617ff\n      eq\n      tag_9\n      jumpi\n      dup1\n      0xc9ea0299\n      eq\n      tag_10\n      jumpi\n      dup1\n      0xca6aae29\n      eq\n      tag_11\n      jumpi\n      dup1\n      0xdd5f6f4d\n      eq\n      tag_12\n      jumpi\n      dup1\n      0xf4e79b5b\n      eq\n      tag_13\n      jumpi\n      jump(tag_1)\n    tag_14:\n      dup1\n      0x12db1357\n      eq\n      tag_2\n      jumpi\n      dup1\n      0x22629256\n      eq\n      tag_3\n      jumpi\n      dup1\n      0x2b5baca1\n      eq\n      tag_4\n      jumpi\n      dup1\n      0x49821332\n      eq\n      tag_5\n      jumpi\n      dup1\n      0x7da384fd\n      eq\n      tag_6\n      jumpi\n      dup1\n      0x89a4c1a0\n      eq\n      tag_7\n      jumpi\n    tag_1:\n      0x00\n      dup1\n      revert\n        /* \"contracts/Lottery.sol\":13714:15297  function DistributeInvestmentIncome() external {... */\n    tag_2:\n      callvalue\n      dup1\n      iszero\n      tag_15\n      jumpi\n      0x00\n      dup1\n      revert\n    tag_15:\n      pop\n      tag_16\n      tag_17\n      jump\t// in\n    tag_16:\n      stop\n        /* \"contracts/Lottery.sol\":15332:15771  function WithdrawReferralProfit() external {... */\n    tag_3:\n      callvalue\n      dup1\n      iszero\n      tag_18\n      jumpi\n      0x00\n      dup1\n      revert\n    tag_18:\n      pop\n      tag_19\n      tag_20\n      jump\t// in\n    tag_19:\n      stop\n        /* \"contracts/Lottery.sol\":16069:16642  function GetWinningRecord(uint256 RecordCount)... */\n    tag_4:\n      callvalue\n      dup1\n      iszero\n      tag_21\n      jumpi\n      0x00\n      dup1\n      revert\n    tag_21:\n      pop\n      tag_22\n      0x04\n      dup1\n      calldatasize\n      sub\n      dup2\n      add\n      swap1\n      tag_23\n      swap2\n      swap1\n      tag_24\n      jump\t// in\n    tag_23:\n      tag_25\n      jump\t// in\n    tag_22:\n      mload(0x40)\n      tag_26\n      swap2\n      swap1\n      tag_27\n      jump\t// in\n    tag_26:\n      mload(0x40)\n      dup1\n      swap2\n      sub\n      swap1\n      return\n        /* \"contracts/Lottery.sol\":11279:12272  function InvestmentDeposit() external payable {... */\n    tag_5:\n      tag_28\n      tag_29\n      jump\t// in\n    tag_28:\n      stop\n        /* \"contracts/Lottery.sol\":7857:11250  function OpenEggs() external {... */\n    tag_6:\n      callvalue\n      dup1\n      iszero\n      tag_30\n      jumpi\n      0x00\n      dup1\n      revert\n    tag_30:\n      pop\n      tag_31\n      tag_32\n      jump\t// in\n    tag_31:\n      stop\n        /* \"contracts/Lottery.sol\":1699:1724  address public DevAddress */\n    tag_7:\n      callvalue\n      dup1\n      iszero\n      tag_33\n      jumpi\n      0x00\n      dup1\n      revert\n    tag_33:\n      pop\n      tag_34\n      tag_35\n      jump\t// in\n    tag_34:\n      mload(0x40)\n      tag_36\n      swap2\n      swap1\n      tag_37\n      jump\t// in\n    tag_36:\n      mload(0x40)\n      dup1\n      swap2\n      sub\n      swap1\n      return\n        /* \"contracts/Lottery.sol\":2079:2115  uint256 public TotalInvestmentAmount */\n    tag_8:\n      callvalue\n      dup1\n      iszero\n      tag_38\n      jumpi\n      0x00\n      dup1\n      revert\n    tag_38:\n      pop\n      tag_39\n      tag_40\n      jump\t// in\n    tag_39:\n      mload(0x40)\n      tag_41\n      swap2\n      swap1\n      tag_42\n      jump\t// in\n    tag_41:\n      mload(0x40)\n      dup1\n      swap2\n      sub\n      swap1\n      return\n        /* \"contracts/Lottery.sol\":2239:2272  uint256 public RecentDividendTime */\n    tag_9:\n      callvalue\n      dup1\n      iszero\n      tag_43\n      jumpi\n      0x00\n      dup1\n      revert\n    tag_43:\n      pop\n      tag_44\n      tag_45\n      jump\t// in\n    tag_44:\n      mload(0x40)\n      tag_46\n      swap2\n      swap1\n      tag_42\n      jump\t// in\n    tag_46:\n      mload(0x40)\n      dup1\n      swap2\n      sub\n      swap1\n      return\n        /* \"contracts/Lottery.sol\":4155:6544  function BuyEggs(... */\n    tag_10:\n      tag_47\n      0x04\n      dup1\n      calldatasize\n      sub\n      dup2\n      add\n      swap1\n      tag_48\n      swap2\n      swap1\n      tag_49\n      jump\t// in\n    tag_48:\n      tag_50\n      jump\t// in\n    tag_47:\n      stop\n        /* \"contracts/Lottery.sol\":2170:2200  uint256 public InvestorsProfit */\n    tag_11:\n      callvalue\n      dup1\n      iszero\n      tag_51\n      jumpi\n      0x00\n      dup1\n      revert\n    tag_51:\n      pop\n      tag_52\n      tag_53\n      jump\t// in\n    tag_52:\n      mload(0x40)\n      tag_54\n      swap2\n      swap1\n      tag_42\n      jump\t// in\n    tag_54:\n      mload(0x40)\n      dup1\n      swap2\n      sub\n      swap1\n      return\n        /* \"contracts/Lottery.sol\":12301:13685  function InvestmentWithdrawal(uint256 WithdrawalAmount) external {... */\n    tag_12:\n      callvalue\n      dup1\n      iszero\n      tag_55\n      jumpi\n      0x00\n      dup1\n      revert\n    tag_55:\n      pop\n      tag_56\n      0x04\n      dup1\n      calldatasize\n      sub\n      dup2\n      add\n      swap1\n      tag_57\n      swap2\n      swap1\n      tag_24\n      jump\t// in\n    tag_57:\n      tag_58\n      jump\t// in\n    tag_56:\n      stop\n        /* \"contracts/Lottery.sol\":15806:16037  function DeveloperWithdrawal() external {... */\n    tag_13:\n      callvalue\n      dup1\n      iszero\n      tag_59\n      jumpi\n      0x00\n      dup1\n      revert\n    tag_59:\n      pop\n      tag_60\n      tag_61\n      jump\t// in\n    tag_60:\n      stop\n        /* \"contracts/Lottery.sol\":13714:15297  function DistributeInvestmentIncome() external {... */\n    tag_17:\n        /* \"contracts/Lottery.sol\":1547:1554  1 ether */\n      0x0de0b6b3a7640000\n        /* \"contracts/Lottery.sol\":13883:13899  InvestorsBalance */\n      0x03\n        /* \"contracts/Lottery.sol\":13883:13911  InvestorsBalance[msg.sender] */\n      0x00\n        /* \"contracts/Lottery.sol\":13900:13910  msg.sender */\n      caller\n        /* \"contracts/Lottery.sol\":13883:13911  InvestorsBalance[msg.sender] */\n      0xffffffffffffffffffffffffffffffffffffffff\n      and\n      0xffffffffffffffffffffffffffffffffffffffff\n      and\n      dup2\n      mstore\n      0x20\n      add\n      swap1\n      dup2\n      mstore\n      0x20\n      add\n      0x00\n      keccak256\n        /* \"contracts/Lottery.sol\":13883:13919  InvestorsBalance[msg.sender].balance */\n      0x00\n      add\n      sload\n        /* \"contracts/Lottery.sol\":13883:13948  InvestorsBalance[msg.sender].balance >= Mininum_Investment_amount */\n      lt\n      iszero\n        /* \"contracts/Lottery.sol\":13883:13992  InvestorsBalance[msg.sender].balance >= Mininum_Investment_amount ||... */\n      dup1\n      tag_63\n      jumpi\n      pop\n        /* \"contracts/Lottery.sol\":13982:13992  DevAddress */\n      0x00\n      dup1\n      sload\n      swap1\n      0x0100\n      exp\n      swap1\n      div\n      0xffffffffffffffffffffffffffffffffffffffff\n      and\n        /* \"contracts/Lottery.sol\":13968:13992  msg.sender == DevAddress */\n      0xffffffffffffffffffffffffffffffffffffffff\n      and\n        /* \"contracts/Lottery.sol\":13968:13978  msg.sender */\n      caller\n        /* \"contracts/Lottery.sol\":13968:13992  msg.sender == DevAddress */\n      0xffffffffffffffffffffffffffffffffffffffff\n      and\n      eq\n        /* \"contracts/Lottery.sol\":13883:13992  InvestorsBalance[msg.sender].balance >= Mininum_Investment_amount ||... */\n    tag_63:\n        /* \"contracts/Lottery.sol\":13862:14040  require(... */\n      tag_64\n      jumpi\n      mload(0x40)\n      0x08c379a000000000000000000000000000000000000000000000000000000000\n      dup2\n      mstore\n      0x04\n      add\n      tag_65\n      swap1\n      tag_66\n      jump\t// in\n    tag_65:\n      mload(0x40)\n      dup1\n      swap2\n      sub\n      swap1\n      revert\n    tag_64:\n        /* \"contracts/Lottery.sol\":14051:14077  uint256 Tmpinvestorsprofit */\n      0x00\n        /* \"contracts/Lottery.sol\":14080:14095  InvestorsProfit */\n      sload(0x05)\n        /* \"contracts/Lottery.sol\":14051:14095  uint256 Tmpinvestorsprofit = InvestorsProfit */\n      swap1\n      pop\n        /* \"contracts/Lottery.sol\":14105:14127  uint256 developeraward */\n      0x00\n        /* \"contracts/Lottery.sol\":14210:14227  uint256 prizepool */\n      dup1\n        /* \"contracts/Lottery.sol\":14230:14351  SafeMathsub(... */\n      tag_67\n        /* \"contracts/Lottery.sol\":14255:14276  address(this).balance */\n      selfbalance\n        /* \"contracts/Lottery.sol\":14331:14340  DevProfit */\n      sload(0x01)\n        /* \"contracts/Lottery.sol\":14309:14328  TotalReferralProfit */\n      sload(0x07)\n        /* \"contracts/Lottery.sol\":14291:14306  InvestorsProfit */\n      sload(0x05)\n        /* \"contracts/Lottery.sol\":14291:14328  InvestorsProfit + TotalReferralProfit */\n      tag_68\n      swap2\n      swap1\n      tag_69\n      jump\t// in\n    tag_68:\n        /* \"contracts/Lottery.sol\":14291:14340  InvestorsProfit + TotalReferralProfit + DevProfit */\n      tag_70\n      swap2\n      swap1\n      tag_69\n      jump\t// in\n    tag_70:\n        /* \"contracts/Lottery.sol\":14230:14241  SafeMathsub */\n      tag_71\n        /* \"contracts/Lottery.sol\":14230:14351  SafeMathsub(... */\n      jump\t// in\n    tag_67:\n        /* \"contracts/Lottery.sol\":14210:14351  uint256 prizepool = SafeMathsub(... */\n      swap1\n      pop\n        /* \"contracts/Lottery.sol\":1438:1449  10000 ether */\n      0x021e19e0c9bab2400000\n        /* \"contracts/Lottery.sol\":14366:14375  prizepool */\n      dup2\n        /* \"contracts/Lottery.sol\":14366:14402  prizepool >= Maxinum_Investment_pool */\n      lt\n        /* \"contracts/Lottery.sol\":14362:14513  if (prizepool >= Maxinum_Investment_pool) {... */\n      tag_72\n      jumpi\n        /* \"contracts/Lottery.sol\":14452:14455  200 */\n      0xc8\n        /* \"contracts/Lottery.sol\":14440:14449  prizepool */\n      dup2\n        /* \"contracts/Lottery.sol\":14440:14455  prizepool / 200 */\n      tag_73\n      swap2\n      swap1\n      tag_74\n      jump\t// in\n    tag_73:\n        /* \"contracts/Lottery.sol\":14418:14455  Tmpinvestorsprofit += prizepool / 200 */\n      dup4\n      tag_75\n      swap2\n      swap1\n      tag_69\n      jump\t// in\n    tag_75:\n      swap3\n      pop\n        /* \"contracts/Lottery.sol\":14499:14502  200 */\n      0xc8\n        /* \"contracts/Lottery.sol\":14487:14496  prizepool */\n      dup2\n        /* \"contracts/Lottery.sol\":14487:14502  prizepool / 200 */\n      tag_76\n      swap2\n      swap1\n      tag_74\n      jump\t// in\n    tag_76:\n        /* \"contracts/Lottery.sol\":14469:14502  developeraward += prizepool / 200 */\n      dup3\n      tag_77\n      swap2\n      swap1\n      tag_69\n      jump\t// in\n    tag_77:\n      swap2\n      pop\n        /* \"contracts/Lottery.sol\":14362:14513  if (prizepool >= Maxinum_Investment_pool) {... */\n    tag_72:\n        /* \"contracts/Lottery.sol\":14540:14541  0 */\n      0x00\n        /* \"contracts/Lottery.sol\":14522:14537  InvestorsProfit */\n      0x05\n        /* \"contracts/Lottery.sol\":14522:14541  InvestorsProfit = 0 */\n      dup2\n      swap1\n      sstore\n      pop\n        /* \"contracts/Lottery.sol\":14557:14566  uint256 i */\n      0x00\n        /* \"contracts/Lottery.sol\":14552:15188  for (uint256 i = 0; i < investors.length; i++) {... */\n    tag_78:\n        /* \"contracts/Lottery.sol\":14576:14585  investors */\n      0x02\n        /* \"contracts/Lottery.sol\":14576:14592  investors.length */\n      dup1\n      sload\n      swap1\n      pop\n        /* \"contracts/Lottery.sol\":14572:14573  i */\n      dup2\n        /* \"contracts/Lottery.sol\":14572:14592  i < investors.length */\n      lt\n        /* \"contracts/Lottery.sol\":14552:15188  for (uint256 i = 0; i < investors.length; i++) {... */\n      iszero\n      tag_79\n      jumpi\n        /* \"contracts/Lottery.sol\":1547:1554  1 ether */\n      0x0de0b6b3a7640000\n        /* \"contracts/Lottery.sol\":14634:14650  InvestorsBalance */\n      0x03\n        /* \"contracts/Lottery.sol\":14634:14664  InvestorsBalance[investors[i]] */\n      0x00\n        /* \"contracts/Lottery.sol\":14651:14660  investors */\n      0x02\n        /* \"contracts/Lottery.sol\":14661:14662  i */\n      dup5\n        /* \"contracts/Lottery.sol\":14651:14663  investors[i] */\n      dup2\n      sload\n      dup2\n      lt\n      tag_81\n      jumpi\n      tag_82\n      tag_83\n      jump\t// in\n    tag_82:\n    tag_81:\n      swap1\n      0x00\n      mstore\n      keccak256(0x00, 0x20)\n      add\n      0x00\n      swap1\n      sload\n      swap1\n      0x0100\n      exp\n      swap1\n      div\n      0xffffffffffffffffffffffffffffffffffffffff\n      and\n        /* \"contracts/Lottery.sol\":14634:14664  InvestorsBalance[investors[i]] */\n      0xffffffffffffffffffffffffffffffffffffffff\n      and\n      0xffffffffffffffffffffffffffffffffffffffff\n      and\n      dup2\n      mstore\n      0x20\n      add\n      swap1\n      dup2\n      mstore\n      0x20\n      add\n      0x00\n      keccak256\n        /* \"contracts/Lottery.sol\":14634:14672  InvestorsBalance[investors[i]].balance */\n      0x00\n      add\n      sload\n        /* \"contracts/Lottery.sol\":14634:14717  InvestorsBalance[investors[i]].balance >=... */\n      lt\n        /* \"contracts/Lottery.sol\":14613:15178  if (... */\n      tag_85\n      jumpi\n        /* \"contracts/Lottery.sol\":14830:14856  uint256 thisinvestorprofit */\n      0x00\n        /* \"contracts/Lottery.sol\":14859:15094  SafeMathdiv(... */\n      tag_86\n        /* \"contracts/Lottery.sol\":14892:15033  SafeMathmul(... */\n      tag_87\n        /* \"contracts/Lottery.sol\":14929:14945  InvestorsBalance */\n      0x03\n        /* \"contracts/Lottery.sol\":14929:14959  InvestorsBalance[investors[i]] */\n      0x00\n        /* \"contracts/Lottery.sol\":14946:14955  investors */\n      0x02\n        /* \"contracts/Lottery.sol\":14956:14957  i */\n      dup7\n        /* \"contracts/Lottery.sol\":14946:14958  investors[i] */\n      dup2\n      sload\n      dup2\n      lt\n      tag_88\n      jumpi\n      tag_89\n      tag_83\n      jump\t// in\n    tag_89:\n    tag_88:\n      swap1\n      0x00\n      mstore\n      keccak256(0x00, 0x20)\n      add\n      0x00\n      swap1\n      sload\n      swap1\n      0x0100\n      exp\n      swap1\n      div\n      0xffffffffffffffffffffffffffffffffffffffff\n      and\n        /* \"contracts/Lottery.sol\":14929:14959  InvestorsBalance[investors[i]] */\n      0xffffffffffffffffffffffffffffffffffffffff\n      and\n      0xffffffffffffffffffffffffffffffffffffffff\n      and\n      dup2\n      mstore\n      0x20\n      add\n      swap1\n      dup2\n      mstore\n      0x20\n      add\n      0x00\n      keccak256\n        /* \"contracts/Lottery.sol\":14929:14967  InvestorsBalance[investors[i]].balance */\n      0x00\n      add\n      sload\n        /* \"contracts/Lottery.sol\":14993:15011  Tmpinvestorsprofit */\n      dup8\n        /* \"contracts/Lottery.sol\":14892:14903  SafeMathmul */\n      tag_91\n        /* \"contracts/Lottery.sol\":14892:15033  SafeMathmul(... */\n      jump\t// in\n    tag_87:\n        /* \"contracts/Lottery.sol\":15055:15076  TotalInvestmentAmount */\n      sload(0x04)\n        /* \"contracts/Lottery.sol\":14859:14870  SafeMathdiv */\n      tag_92\n        /* \"contracts/Lottery.sol\":14859:15094  SafeMathdiv(... */\n      jump\t// in\n    tag_86:\n        /* \"contracts/Lottery.sol\":14830:15094  uint256 thisinvestorprofit = SafeMathdiv(... */\n      swap1\n      pop\n        /* \"contracts/Lottery.sol\":15121:15130  investors */\n      0x02\n        /* \"contracts/Lottery.sol\":15131:15132  i */\n      dup3\n        /* \"contracts/Lottery.sol\":15121:15133  investors[i] */\n      dup2\n      sload\n      dup2\n      lt\n      tag_93\n      jumpi\n      tag_94\n      tag_83\n      jump\t// in\n    tag_94:\n    tag_93:\n      swap1\n      0x00\n      mstore\n      keccak256(0x00, 0x20)\n      add\n      0x00\n      swap1\n      sload\n      swap1\n      0x0100\n      exp\n      swap1\n      div\n      0xffffffffffffffffffffffffffffffffffffffff\n      and\n        /* \"contracts/Lottery.sol\":15113:15143  payable(investors[i]).transfer */\n      0xffffffffffffffffffffffffffffffffffffffff\n      and\n        /* \"contracts/Lottery.sol\":15113:15163  payable(investors[i]).transfer(thisinvestorprofit) */\n      0x08fc\n        /* \"contracts/Lottery.sol\":15144:15162  thisinvestorprofit */\n      dup3\n        /* \"contracts/Lottery.sol\":15113:15163  payable(investors[i]).transfer(thisinvestorprofit) */\n      swap1\n      dup2\n      iszero\n      mul\n      swap1\n      mload(0x40)\n      0x00\n      mload(0x40)\n      dup1\n      dup4\n      sub\n      dup2\n      dup6\n      dup9\n      dup9\n      call\n      swap4\n      pop\n      pop\n      pop\n      pop\n      iszero\n      dup1\n      iszero\n      tag_97\n      jumpi\n      returndatasize\n      0x00\n      dup1\n      returndatacopy\n      revert(0x00, returndatasize)\n    tag_97:\n      pop\n        /* \"contracts/Lottery.sol\":14732:15178  {... */\n      pop\n        /* \"contracts/Lottery.sol\":14613:15178  if (... */\n    tag_85:\n        /* \"contracts/Lottery.sol\":14594:14597  i++ */\n      dup1\n      dup1\n      0x01\n      add\n      swap2\n      pop\n      pop\n        /* \"contracts/Lottery.sol\":14552:15188  for (uint256 i = 0; i < investors.length; i++) {... */\n      jump(tag_78)\n    tag_79:\n      pop\n        /* \"contracts/Lottery.sol\":15219:15220  0 */\n      0x00\n        /* \"contracts/Lottery.sol\":15202:15216  developeraward */\n      dup3\n        /* \"contracts/Lottery.sol\":15202:15220  developeraward > 0 */\n      gt\n        /* \"contracts/Lottery.sol\":15198:15291  if (developeraward > 0) {... */\n      iszero\n      tag_98\n      jumpi\n        /* \"contracts/Lottery.sol\":15244:15254  DevAddress */\n      0x00\n      dup1\n      sload\n      swap1\n      0x0100\n      exp\n      swap1\n      div\n      0xffffffffffffffffffffffffffffffffffffffff\n      and\n        /* \"contracts/Lottery.sol\":15236:15264  payable(DevAddress).transfer */\n      0xffffffffffffffffffffffffffffffffffffffff\n      and\n        /* \"contracts/Lottery.sol\":15236:15280  payable(DevAddress).transfer(developeraward) */\n      0x08fc\n        /* \"contracts/Lottery.sol\":15265:15279  developeraward */\n      dup4\n        /* \"contracts/Lottery.sol\":15236:15280  payable(DevAddress).transfer(developeraward) */\n      swap1\n      dup2\n      iszero\n      mul\n      swap1\n      mload(0x40)\n      0x00\n      mload(0x40)\n      dup1\n      dup4\n      sub\n      dup2\n      dup6\n      dup9\n      dup9\n      call\n      swap4\n      pop\n      pop\n      pop\n      pop\n      iszero\n      dup1\n      iszero\n      tag_100\n      jumpi\n      returndatasize\n      0x00\n      dup1\n      returndatacopy\n      revert(0x00, returndatasize)\n    tag_100:\n      pop\n        /* \"contracts/Lottery.sol\":15198:15291  if (developeraward > 0) {... */\n    tag_98:\n        /* \"contracts/Lottery.sol\":13761:15297  {... */\n      pop\n      pop\n      pop\n        /* \"contracts/Lottery.sol\":13714:15297  function DistributeInvestmentIncome() external {... */\n      jump\t// out\n        /* \"contracts/Lottery.sol\":15332:15771  function WithdrawReferralProfit() external {... */\n    tag_20:\n        /* \"contracts/Lottery.sol\":15498:15508  0.01 ether */\n      0x2386f26fc10000\n        /* \"contracts/Lottery.sol\":15458:15467  UsersInfo */\n      0x09\n        /* \"contracts/Lottery.sol\":15458:15479  UsersInfo[msg.sender] */\n      0x00\n        /* \"contracts/Lottery.sol\":15468:15478  msg.sender */\n      caller\n        /* \"contracts/Lottery.sol\":15458:15479  UsersInfo[msg.sender] */\n      0xffffffffffffffffffffffffffffffffffffffff\n      and\n      0xffffffffffffffffffffffffffffffffffffffff\n      and\n      dup2\n      mstore\n      0x20\n      add\n      swap1\n      dup2\n      mstore\n      0x20\n      add\n      0x00\n      keccak256\n        /* \"contracts/Lottery.sol\":15458:15494  UsersInfo[msg.sender].ReferralProfit */\n      0x02\n      add\n      sload\n        /* \"contracts/Lottery.sol\":15458:15508  UsersInfo[msg.sender].ReferralProfit >= 0.01 ether */\n      lt\n      iszero\n        /* \"contracts/Lottery.sol\":15437:15564  require(... */\n      tag_102\n      jumpi\n      mload(0x40)\n      0x08c379a000000000000000000000000000000000000000000000000000000000\n      dup2\n      mstore\n      0x04\n      add\n      tag_103\n      swap1\n      tag_104\n      jump\t// in\n    tag_103:\n      mload(0x40)\n      dup1\n      swap2\n      sub\n      swap1\n      revert\n    tag_102:\n        /* \"contracts/Lottery.sol\":15575:15589  uint256 profit */\n      0x00\n        /* \"contracts/Lottery.sol\":15592:15601  UsersInfo */\n      0x09\n        /* \"contracts/Lottery.sol\":15592:15613  UsersInfo[msg.sender] */\n      0x00\n        /* \"contracts/Lottery.sol\":15602:15612  msg.sender */\n      caller\n        /* \"contracts/Lottery.sol\":15592:15613  UsersInfo[msg.sender] */\n      0xffffffffffffffffffffffffffffffffffffffff\n      and\n      0xffffffffffffffffffffffffffffffffffffffff\n      and\n      dup2\n      mstore\n      0x20\n      add\n      swap1\n      dup2\n      mstore\n      0x20\n      add\n      0x00\n      keccak256\n        /* \"contracts/Lottery.sol\":15592:15628  UsersInfo[msg.sender].ReferralProfit */\n      0x02\n      add\n      sload\n        /* \"contracts/Lottery.sol\":15575:15628  uint256 profit = UsersInfo[msg.sender].ReferralProfit */\n      swap1\n      pop\n        /* \"contracts/Lottery.sol\":15677:15678  0 */\n      0x00\n        /* \"contracts/Lottery.sol\":15638:15647  UsersInfo */\n      0x09\n        /* \"contracts/Lottery.sol\":15638:15659  UsersInfo[msg.sender] */\n      0x00\n        /* \"contracts/Lottery.sol\":15648:15658  msg.sender */\n      caller\n        /* \"contracts/Lottery.sol\":15638:15659  UsersInfo[msg.sender] */\n      0xffffffffffffffffffffffffffffffffffffffff\n      and\n      0xffffffffffffffffffffffffffffffffffffffff\n      and\n      dup2\n      mstore\n      0x20\n      add\n      swap1\n      dup2\n      mstore\n      0x20\n      add\n      0x00\n      keccak256\n        /* \"contracts/Lottery.sol\":15638:15674  UsersInfo[msg.sender].ReferralProfit */\n      0x02\n      add\n        /* \"contracts/Lottery.sol\":15638:15678  UsersInfo[msg.sender].ReferralProfit = 0 */\n      dup2\n      swap1\n      sstore\n      pop\n        /* \"contracts/Lottery.sol\":15712:15718  profit */\n      dup1\n        /* \"contracts/Lottery.sol\":15689:15708  TotalReferralProfit */\n      0x07\n      0x00\n        /* \"contracts/Lottery.sol\":15689:15718  TotalReferralProfit -= profit */\n      dup3\n      dup3\n      sload\n      tag_105\n      swap2\n      swap1\n      tag_106\n      jump\t// in\n    tag_105:\n      swap3\n      pop\n      pop\n      dup2\n      swap1\n      sstore\n      pop\n        /* \"contracts/Lottery.sol\":15736:15746  msg.sender */\n      caller\n        /* \"contracts/Lottery.sol\":15728:15756  payable(msg.sender).transfer */\n      0xffffffffffffffffffffffffffffffffffffffff\n      and\n        /* \"contracts/Lottery.sol\":15728:15764  payable(msg.sender).transfer(profit) */\n      0x08fc\n        /* \"contracts/Lottery.sol\":15757:15763  profit */\n      dup3\n        /* \"contracts/Lottery.sol\":15728:15764  payable(msg.sender).transfer(profit) */\n      swap1\n      dup2\n      iszero\n      mul\n      swap1\n      mload(0x40)\n      0x00\n      mload(0x40)\n      dup1\n      dup4\n      sub\n      dup2\n      dup6\n      dup9\n      dup9\n      call\n      swap4\n      pop\n      pop\n      pop\n      pop\n      iszero\n      dup1\n      iszero\n      tag_108\n      jumpi\n      returndatasize\n      0x00\n      dup1\n      returndatacopy\n      revert(0x00, returndatasize)\n    tag_108:\n      pop\n        /* \"contracts/Lottery.sol\":15375:15771  {... */\n      pop\n        /* \"contracts/Lottery.sol\":15332:15771  function WithdrawReferralProfit() external {... */\n      jump\t// out\n        /* \"contracts/Lottery.sol\":16069:16642  function GetWinningRecord(uint256 RecordCount)... */\n    tag_25:\n        /* \"contracts/Lottery.sol\":16161:16181  Winninginfo[] memory */\n      0x60\n        /* \"contracts/Lottery.sol\":16197:16213  uint256 RecordCt */\n      0x00\n        /* \"contracts/Lottery.sol\":16216:16227  RecordCount */\n      dup3\n        /* \"contracts/Lottery.sol\":16197:16227  uint256 RecordCt = RecordCount */\n      swap1\n      pop\n        /* \"contracts/Lottery.sol\":16237:16261  uint256 WinningRecordLen */\n      0x00\n        /* \"contracts/Lottery.sol\":16264:16277  WinningRecord */\n      0x0b\n        /* \"contracts/Lottery.sol\":16264:16284  WinningRecord.length */\n      dup1\n      sload\n      swap1\n      pop\n        /* \"contracts/Lottery.sol\":16237:16284  uint256 WinningRecordLen = WinningRecord.length */\n      swap1\n      pop\n        /* \"contracts/Lottery.sol\":16310:16326  WinningRecordLen */\n      dup1\n        /* \"contracts/Lottery.sol\":16299:16307  RecordCt */\n      dup3\n        /* \"contracts/Lottery.sol\":16299:16326  RecordCt > WinningRecordLen */\n      gt\n        /* \"contracts/Lottery.sol\":16295:16380  if (RecordCt > WinningRecordLen) {... */\n      iszero\n      tag_110\n      jumpi\n        /* \"contracts/Lottery.sol\":16353:16369  WinningRecordLen */\n      dup1\n        /* \"contracts/Lottery.sol\":16342:16369  RecordCt = WinningRecordLen */\n      swap2\n      pop\n        /* \"contracts/Lottery.sol\":16295:16380  if (RecordCt > WinningRecordLen) {... */\n    tag_110:\n        /* \"contracts/Lottery.sol\":16390:16430  Winninginfo[] memory LatelyWinnersRecord */\n      0x00\n        /* \"contracts/Lottery.sol\":16451:16459  RecordCt */\n      dup3\n        /* \"contracts/Lottery.sol\":16433:16460  new Winninginfo[](RecordCt) */\n      0xffffffffffffffff\n      dup2\n      gt\n      iszero\n      tag_111\n      jumpi\n      tag_112\n      tag_113\n      jump\t// in\n    tag_112:\n    tag_111:\n      mload(0x40)\n      swap1\n      dup1\n      dup3\n      mstore\n      dup1\n      0x20\n      mul\n      0x20\n      add\n      dup3\n      add\n      0x40\n      mstore\n      dup1\n      iszero\n      tag_114\n      jumpi\n      dup2\n      0x20\n      add\n    tag_115:\n      tag_116\n      tag_117\n      jump\t// in\n    tag_116:\n      dup2\n      mstore\n      0x20\n      add\n      swap1\n      0x01\n      swap1\n      sub\n      swap1\n      dup2\n      tag_115\n      jumpi\n      swap1\n      pop\n    tag_114:\n      pop\n        /* \"contracts/Lottery.sol\":16390:16460  Winninginfo[] memory LatelyWinnersRecord = new Winninginfo[](RecordCt) */\n      swap1\n      pop\n        /* \"contracts/Lottery.sol\":16476:16485  uint256 i */\n      0x00\n        /* \"contracts/Lottery.sol\":16471:16599  for (uint256 i = 0; i < RecordCt; i++) {... */\n    tag_118:\n        /* \"contracts/Lottery.sol\":16495:16503  RecordCt */\n      dup4\n        /* \"contracts/Lottery.sol\":16491:16492  i */\n      dup2\n        /* \"contracts/Lottery.sol\":16491:16503  i < RecordCt */\n      lt\n        /* \"contracts/Lottery.sol\":16471:16599  for (uint256 i = 0; i < RecordCt; i++) {... */\n      iszero\n      tag_119\n      jumpi\n        /* \"contracts/Lottery.sol\":16549:16562  WinningRecord */\n      0x0b\n        /* \"contracts/Lottery.sol\":16586:16587  i */\n      dup2\n        /* \"contracts/Lottery.sol\":16582:16583  1 */\n      0x01\n        /* \"contracts/Lottery.sol\":16563:16579  WinningRecordLen */\n      dup6\n        /* \"contracts/Lottery.sol\":16563:16583  WinningRecordLen - 1 */\n      tag_121\n      swap2\n      swap1\n      tag_106\n      jump\t// in\n    tag_121:\n        /* \"contracts/Lottery.sol\":16563:16587  WinningRecordLen - 1 - i */\n      tag_122\n      swap2\n      swap1\n      tag_106\n      jump\t// in\n    tag_122:\n        /* \"contracts/Lottery.sol\":16549:16588  WinningRecord[WinningRecordLen - 1 - i] */\n      dup2\n      sload\n      dup2\n      lt\n      tag_123\n      jumpi\n      tag_124\n      tag_83\n      jump\t// in\n    tag_124:\n    tag_123:\n      swap1\n      0x00\n      mstore\n      keccak256(0x00, 0x20)\n      swap1\n      0x03\n      mul\n      add\n        /* \"contracts/Lottery.sol\":16524:16588  LatelyWinnersRecord[i] = WinningRecord[WinningRecordLen - 1 - i] */\n      mload(0x40)\n      dup1\n      0x80\n      add\n      0x40\n      mstore\n      swap1\n      dup2\n      0x00\n      dup3\n      add\n      0x00\n      swap1\n      sload\n      swap1\n      0x0100\n      exp\n      swap1\n      div\n      0xffffffff\n      and\n      0xffffffff\n      and\n      0xffffffff\n      and\n      dup2\n      mstore\n      0x20\n      add\n      0x00\n      dup3\n      add\n      0x04\n      swap1\n      sload\n      swap1\n      0x0100\n      exp\n      swap1\n      div\n      0xff\n      and\n      0xff\n      and\n      0xff\n      and\n      dup2\n      mstore\n      0x20\n      add\n      0x01\n      dup3\n      add\n      sload\n      dup2\n      mstore\n      0x20\n      add\n      0x02\n      dup3\n      add\n      0x00\n      swap1\n      sload\n      swap1\n      0x0100\n      exp\n      swap1\n      div\n      0xffffffffffffffffffffffffffffffffffffffff\n      and\n      0xffffffffffffffffffffffffffffffffffffffff\n      and\n      0xffffffffffffffffffffffffffffffffffffffff\n      and\n      dup2\n      mstore\n      pop\n      pop\n        /* \"contracts/Lottery.sol\":16524:16543  LatelyWinnersRecord */\n      dup3\n        /* \"contracts/Lottery.sol\":16544:16545  i */\n      dup3\n        /* \"contracts/Lottery.sol\":16524:16546  LatelyWinnersRecord[i] */\n      dup2\n      mload\n      dup2\n      lt\n      tag_126\n      jumpi\n      tag_127\n      tag_83\n      jump\t// in\n    tag_127:\n    tag_126:\n      0x20\n      mul\n      0x20\n      add\n      add\n        /* \"contracts/Lottery.sol\":16524:16588  LatelyWinnersRecord[i] = WinningRecord[WinningRecordLen - 1 - i] */\n      dup2\n      swap1\n      mstore\n      pop\n        /* \"contracts/Lottery.sol\":16505:16508  i++ */\n      dup1\n      dup1\n      0x01\n      add\n      swap2\n      pop\n      pop\n        /* \"contracts/Lottery.sol\":16471:16599  for (uint256 i = 0; i < RecordCt; i++) {... */\n      jump(tag_118)\n    tag_119:\n      pop\n        /* \"contracts/Lottery.sol\":16616:16635  LatelyWinnersRecord */\n      dup1\n        /* \"contracts/Lottery.sol\":16609:16635  return LatelyWinnersRecord */\n      swap4\n      pop\n      pop\n      pop\n      pop\n        /* \"contracts/Lottery.sol\":16069:16642  function GetWinningRecord(uint256 RecordCount)... */\n      swap2\n      swap1\n      pop\n      jump\t// out\n        /* \"contracts/Lottery.sol\":11279:12272  function InvestmentDeposit() external payable {... */\n    tag_29:\n        /* \"contracts/Lottery.sol\":1547:1554  1 ether */\n      0x0de0b6b3a7640000\n        /* \"contracts/Lottery.sol\":11404:11413  msg.value */\n      callvalue\n        /* \"contracts/Lottery.sol\":11404:11442  msg.value >= Mininum_Investment_amount */\n      lt\n      iszero\n        /* \"contracts/Lottery.sol\":11404:11500  msg.value >= Mininum_Investment_amount &&... */\n      dup1\n      iszero\n      tag_129\n      jumpi\n      pop\n        /* \"contracts/Lottery.sol\":1648:1658  1000 ether */\n      0x3635c9adc5dea00000\n        /* \"contracts/Lottery.sol\":11462:11471  msg.value */\n      callvalue\n        /* \"contracts/Lottery.sol\":11462:11500  msg.value <= Maxinum_Investment_amount */\n      gt\n      iszero\n        /* \"contracts/Lottery.sol\":11404:11500  msg.value >= Mininum_Investment_amount &&... */\n    tag_129:\n        /* \"contracts/Lottery.sol\":11383:11563  require(... */\n      tag_130\n      jumpi\n      mload(0x40)\n      0x08c379a000000000000000000000000000000000000000000000000000000000\n      dup2\n      mstore\n      0x04\n      add\n      tag_131\n      swap1\n      tag_132\n      jump\t// in\n    tag_131:\n      mload(0x40)\n      dup1\n      swap2\n      sub\n      swap1\n      revert\n    tag_130:\n        /* \"contracts/Lottery.sol\":1438:1449  10000 ether */\n      0x021e19e0c9bab2400000\n        /* \"contracts/Lottery.sol\":11625:11758  SafeMathsub(... */\n      tag_133\n        /* \"contracts/Lottery.sol\":11654:11675  address(this).balance */\n      selfbalance\n        /* \"contracts/Lottery.sol\":11734:11743  DevProfit */\n      sload(0x01)\n        /* \"contracts/Lottery.sol\":11712:11731  TotalReferralProfit */\n      sload(0x07)\n        /* \"contracts/Lottery.sol\":11694:11709  InvestorsProfit */\n      sload(0x05)\n        /* \"contracts/Lottery.sol\":11694:11731  InvestorsProfit + TotalReferralProfit */\n      tag_134\n      swap2\n      swap1\n      tag_69\n      jump\t// in\n    tag_134:\n        /* \"contracts/Lottery.sol\":11694:11743  InvestorsProfit + TotalReferralProfit + DevProfit */\n      tag_135\n      swap2\n      swap1\n      tag_69\n      jump\t// in\n    tag_135:\n        /* \"contracts/Lottery.sol\":11625:11636  SafeMathsub */\n      tag_71\n        /* \"contracts/Lottery.sol\":11625:11758  SafeMathsub(... */\n      jump\t// in\n    tag_133:\n        /* \"contracts/Lottery.sol\":11625:11785  SafeMathsub(... */\n      gt\n      iszero\n        /* \"contracts/Lottery.sol\":11604:11795  require(... */\n      tag_136\n      jumpi\n      0x00\n      dup1\n      revert\n    tag_136:\n        /* \"contracts/Lottery.sol\":11864:11873  msg.value */\n      callvalue\n        /* \"contracts/Lottery.sol\":11839:11860  TotalInvestmentAmount */\n      0x04\n      0x00\n        /* \"contracts/Lottery.sol\":11839:11873  TotalInvestmentAmount += msg.value */\n      dup3\n      dup3\n      sload\n      tag_137\n      swap2\n      swap1\n      tag_69\n      jump\t// in\n    tag_137:\n      swap3\n      pop\n      pop\n      dup2\n      swap1\n      sstore\n      pop\n        /* \"contracts/Lottery.sol\":11965:11974  msg.value */\n      callvalue\n        /* \"contracts/Lottery.sol\":11925:11941  InvestorsBalance */\n      0x03\n        /* \"contracts/Lottery.sol\":11925:11953  InvestorsBalance[msg.sender] */\n      0x00\n        /* \"contracts/Lottery.sol\":11942:11952  msg.sender */\n      caller\n        /* \"contracts/Lottery.sol\":11925:11953  InvestorsBalance[msg.sender] */\n      0xffffffffffffffffffffffffffffffffffffffff\n      and\n      0xffffffffffffffffffffffffffffffffffffffff\n      and\n      dup2\n      mstore\n      0x20\n      add\n      swap1\n      dup2\n      mstore\n      0x20\n      add\n      0x00\n      keccak256\n        /* \"contracts/Lottery.sol\":11925:11961  InvestorsBalance[msg.sender].balance */\n      0x00\n      add\n      0x00\n        /* \"contracts/Lottery.sol\":11925:11974  InvestorsBalance[msg.sender].balance += msg.value */\n      dup3\n      dup3\n      sload\n      tag_138\n      swap2\n      swap1\n      tag_69\n      jump\t// in\n    tag_138:\n      swap3\n      pop\n      pop\n      dup2\n      swap1\n      sstore\n      pop\n        /* \"contracts/Lottery.sol\":12030:12045  block.timestamp */\n      timestamp\n        /* \"contracts/Lottery.sol\":11984:12000  InvestorsBalance */\n      0x03\n        /* \"contracts/Lottery.sol\":11984:12012  InvestorsBalance[msg.sender] */\n      0x00\n        /* \"contracts/Lottery.sol\":12001:12011  msg.sender */\n      caller\n        /* \"contracts/Lottery.sol\":11984:12012  InvestorsBalance[msg.sender] */\n      0xffffffffffffffffffffffffffffffffffffffff\n      and\n      0xffffffffffffffffffffffffffffffffffffffff\n      and\n      dup2\n      mstore\n      0x20\n      add\n      swap1\n      dup2\n      mstore\n      0x20\n      add\n      0x00\n      keccak256\n        /* \"contracts/Lottery.sol\":11984:12027  InvestorsBalance[msg.sender].LastInvestTime */\n      0x01\n      add\n        /* \"contracts/Lottery.sol\":11984:12045  InvestorsBalance[msg.sender].LastInvestTime = block.timestamp */\n      dup2\n      swap1\n      sstore\n      pop\n        /* \"contracts/Lottery.sol\":12112:12128  InvestorsBalance */\n      0x03\n        /* \"contracts/Lottery.sol\":12112:12140  InvestorsBalance[msg.sender] */\n      0x00\n        /* \"contracts/Lottery.sol\":12129:12139  msg.sender */\n      caller\n        /* \"contracts/Lottery.sol\":12112:12140  InvestorsBalance[msg.sender] */\n      0xffffffffffffffffffffffffffffffffffffffff\n      and\n      0xffffffffffffffffffffffffffffffffffffffff\n      and\n      dup2\n      mstore\n      0x20\n      add\n      swap1\n      dup2\n      mstore\n      0x20\n      add\n      0x00\n      keccak256\n        /* \"contracts/Lottery.sol\":12112:12152  InvestorsBalance[msg.sender].HasInvested */\n      0x02\n      add\n      0x00\n      swap1\n      sload\n      swap1\n      0x0100\n      exp\n      swap1\n      div\n      0xff\n      and\n        /* \"contracts/Lottery.sol\":12107:12266  if (!InvestorsBalance[msg.sender].HasInvested) {... */\n      tag_139\n      jumpi\n        /* \"contracts/Lottery.sol\":12211:12215  true */\n      0x01\n        /* \"contracts/Lottery.sol\":12168:12184  InvestorsBalance */\n      0x03\n        /* \"contracts/Lottery.sol\":12168:12196  InvestorsBalance[msg.sender] */\n      0x00\n        /* \"contracts/Lottery.sol\":12185:12195  msg.sender */\n      caller\n        /* \"contracts/Lottery.sol\":12168:12196  InvestorsBalance[msg.sender] */\n      0xffffffffffffffffffffffffffffffffffffffff\n      and\n      0xffffffffffffffffffffffffffffffffffffffff\n      and\n      dup2\n      mstore\n      0x20\n      add\n      swap1\n      dup2\n      mstore\n      0x20\n      add\n      0x00\n      keccak256\n        /* \"contracts/Lottery.sol\":12168:12208  InvestorsBalance[msg.sender].HasInvested */\n      0x02\n      add\n      0x00\n        /* \"contracts/Lottery.sol\":12168:12215  InvestorsBalance[msg.sender].HasInvested = true */\n      0x0100\n      exp\n      dup2\n      sload\n      dup2\n      0xff\n      mul\n      not\n      and\n      swap1\n      dup4\n      iszero\n      iszero\n      mul\n      or\n      swap1\n      sstore\n      pop\n        /* \"contracts/Lottery.sol\":12229:12238  investors */\n      0x02\n        /* \"contracts/Lottery.sol\":12244:12254  msg.sender */\n      caller\n        /* \"contracts/Lottery.sol\":12229:12255  investors.push(msg.sender) */\n      swap1\n      dup1\n      0x01\n      dup2\n      sload\n      add\n      dup1\n      dup3\n      sstore\n      dup1\n      swap2\n      pop\n      pop\n      0x01\n      swap1\n      sub\n      swap1\n      0x00\n      mstore\n      keccak256(0x00, 0x20)\n      add\n      0x00\n      swap1\n      swap2\n      swap1\n      swap2\n      swap1\n      swap2\n      0x0100\n      exp\n      dup2\n      sload\n      dup2\n      0xffffffffffffffffffffffffffffffffffffffff\n      mul\n      not\n      and\n      swap1\n      dup4\n      0xffffffffffffffffffffffffffffffffffffffff\n      and\n      mul\n      or\n      swap1\n      sstore\n      pop\n        /* \"contracts/Lottery.sol\":12107:12266  if (!InvestorsBalance[msg.sender].HasInvested) {... */\n    tag_139:\n        /* \"contracts/Lottery.sol\":11279:12272  function InvestmentDeposit() external payable {... */\n      jump\t// out\n        /* \"contracts/Lottery.sol\":7857:11250  function OpenEggs() external {... */\n    tag_32:\n        /* \"contracts/Lottery.sol\":8014:8015  0 */\n      0x00\n        /* \"contracts/Lottery.sol\":7974:7983  UsersInfo */\n      0x09\n        /* \"contracts/Lottery.sol\":7974:7995  UsersInfo[msg.sender] */\n      0x00\n        /* \"contracts/Lottery.sol\":7984:7994  msg.sender */\n      caller\n        /* \"contracts/Lottery.sol\":7974:7995  UsersInfo[msg.sender] */\n      0xffffffffffffffffffffffffffffffffffffffff\n      and\n      0xffffffffffffffffffffffffffffffffffffffff\n      and\n      dup2\n      mstore\n      0x20\n      add\n      swap1\n      dup2\n      mstore\n      0x20\n      add\n      0x00\n      keccak256\n        /* \"contracts/Lottery.sol\":7974:8004  UsersInfo[msg.sender].eggsinfo */\n      0x00\n      add\n        /* \"contracts/Lottery.sol\":7974:8011  UsersInfo[msg.sender].eggsinfo.length */\n      dup1\n      sload\n      swap1\n      pop\n        /* \"contracts/Lottery.sol\":7974:8015  UsersInfo[msg.sender].eggsinfo.length > 0 */\n      gt\n        /* \"contracts/Lottery.sol\":7953:8078  require(... */\n      tag_142\n      jumpi\n      mload(0x40)\n      0x08c379a000000000000000000000000000000000000000000000000000000000\n      dup2\n      mstore\n      0x04\n      add\n      tag_143\n      swap1\n      tag_144\n      jump\t// in\n    tag_143:\n      mload(0x40)\n      dup1\n      swap2\n      sub\n      swap1\n      revert\n    tag_142:\n        /* \"contracts/Lottery.sol\":8257:8266  UsersInfo */\n      0x09\n        /* \"contracts/Lottery.sol\":8257:8278  UsersInfo[msg.sender] */\n      0x00\n        /* \"contracts/Lottery.sol\":8267:8277  msg.sender */\n      caller\n        /* \"contracts/Lottery.sol\":8257:8278  UsersInfo[msg.sender] */\n      0xffffffffffffffffffffffffffffffffffffffff\n      and\n      0xffffffffffffffffffffffffffffffffffffffff\n      and\n      dup2\n      mstore\n      0x20\n      add\n      swap1\n      dup2\n      mstore\n      0x20\n      add\n      0x00\n      keccak256\n        /* \"contracts/Lottery.sol\":8257:8308  UsersInfo[msg.sender]... */\n      0x00\n      add\n        /* \"contracts/Lottery.sol\":8349:8350  1 */\n      0x01\n        /* \"contracts/Lottery.sol\":8309:8318  UsersInfo */\n      0x09\n        /* \"contracts/Lottery.sol\":8309:8330  UsersInfo[msg.sender] */\n      0x00\n        /* \"contracts/Lottery.sol\":8319:8329  msg.sender */\n      caller\n        /* \"contracts/Lottery.sol\":8309:8330  UsersInfo[msg.sender] */\n      0xffffffffffffffffffffffffffffffffffffffff\n      and\n      0xffffffffffffffffffffffffffffffffffffffff\n      and\n      dup2\n      mstore\n      0x20\n      add\n      swap1\n      dup2\n      mstore\n      0x20\n      add\n      0x00\n      keccak256\n        /* \"contracts/Lottery.sol\":8309:8339  UsersInfo[msg.sender].eggsinfo */\n      0x00\n      add\n        /* \"contracts/Lottery.sol\":8309:8346  UsersInfo[msg.sender].eggsinfo.length */\n      dup1\n      sload\n      swap1\n      pop\n        /* \"contracts/Lottery.sol\":8309:8350  UsersInfo[msg.sender].eggsinfo.length - 1 */\n      tag_145\n      swap2\n      swap1\n      tag_106\n      jump\t// in\n    tag_145:\n        /* \"contracts/Lottery.sol\":8257:8351  UsersInfo[msg.sender]... */\n      dup2\n      sload\n      dup2\n      lt\n      tag_146\n      jumpi\n      tag_147\n      tag_83\n      jump\t// in\n    tag_147:\n    tag_146:\n      swap1\n      0x00\n      mstore\n      keccak256(0x00, 0x20)\n      swap1\n      0x02\n      mul\n      add\n        /* \"contracts/Lottery.sol\":8257:8384  UsersInfo[msg.sender]... */\n      0x01\n      add\n      0x01\n      swap1\n      sload\n      swap1\n      0x0100\n      exp\n      swap1\n      div\n      0xffffffffffffffffffffffffffffffffffffffffffffffffffffffffffffff\n      and\n        /* \"contracts/Lottery.sol\":8226:8384  block.number >... */\n      0xffffffffffffffffffffffffffffffffffffffffffffffffffffffffffffff\n      and\n        /* \"contracts/Lottery.sol\":8226:8238  block.number */\n      number\n        /* \"contracts/Lottery.sol\":8226:8384  block.number >... */\n      gt\n        /* \"contracts/Lottery.sol\":8205:8423  require(... */\n      tag_149\n      jumpi\n      mload(0x40)\n      0x08c379a000000000000000000000000000000000000000000000000000000000\n      dup2\n      mstore\n      0x04\n      add\n      tag_150\n      swap1\n      tag_151\n      jump\t// in\n    tag_150:\n      mload(0x40)\n      dup1\n      swap2\n      sub\n      swap1\n      revert\n    tag_149:\n        /* \"contracts/Lottery.sol\":8555:8556  0 */\n      0x00\n        /* \"contracts/Lottery.sol\":8513:8522  UsersInfo */\n      0x09\n        /* \"contracts/Lottery.sol\":8513:8534  UsersInfo[msg.sender] */\n      0x00\n        /* \"contracts/Lottery.sol\":8523:8533  msg.sender */\n      caller\n        /* \"contracts/Lottery.sol\":8513:8534  UsersInfo[msg.sender] */\n      0xffffffffffffffffffffffffffffffffffffffff\n      and\n      0xffffffffffffffffffffffffffffffffffffffff\n      and\n      dup2\n      mstore\n      0x20\n      add\n      swap1\n      dup2\n      mstore\n      0x20\n      add\n      0x00\n      keccak256\n        /* \"contracts/Lottery.sol\":8513:8545  UsersInfo[msg.sender].openedeggs */\n      0x01\n      add\n        /* \"contracts/Lottery.sol\":8513:8552  UsersInfo[msg.sender].openedeggs.length */\n      dup1\n      sload\n      swap1\n      pop\n        /* \"contracts/Lottery.sol\":8513:8556  UsersInfo[msg.sender].openedeggs.length > 0 */\n      gt\n        /* \"contracts/Lottery.sol\":8509:8609  if (UsersInfo[msg.sender].openedeggs.length > 0)... */\n      iszero\n      tag_152\n      jumpi\n        /* \"contracts/Lottery.sol\":8577:8586  UsersInfo */\n      0x09\n        /* \"contracts/Lottery.sol\":8577:8598  UsersInfo[msg.sender] */\n      0x00\n        /* \"contracts/Lottery.sol\":8587:8597  msg.sender */\n      caller\n        /* \"contracts/Lottery.sol\":8577:8598  UsersInfo[msg.sender] */\n      0xffffffffffffffffffffffffffffffffffffffff\n      and\n      0xffffffffffffffffffffffffffffffffffffffff\n      and\n      dup2\n      mstore\n      0x20\n      add\n      swap1\n      dup2\n      mstore\n      0x20\n      add\n      0x00\n      keccak256\n        /* \"contracts/Lottery.sol\":8577:8609  UsersInfo[msg.sender].openedeggs */\n      0x01\n      add\n      0x00\n        /* \"contracts/Lottery.sol\":8570:8609  delete UsersInfo[msg.sender].openedeggs */\n      tag_153\n      swap2\n      swap1\n      tag_154\n      jump\t// in\n    tag_153:\n        /* \"contracts/Lottery.sol\":8509:8609  if (UsersInfo[msg.sender].openedeggs.length > 0)... */\n    tag_152:\n        /* \"contracts/Lottery.sol\":8653:8674  uint256 WinningAmount */\n      0x00\n        /* \"contracts/Lottery.sol\":8690:8699  uint256 i */\n      dup1\n        /* \"contracts/Lottery.sol\":8702:8703  0 */\n      0x00\n        /* \"contracts/Lottery.sol\":8690:8703  uint256 i = 0 */\n      swap1\n      pop\n        /* \"contracts/Lottery.sol\":8685:10375  for (uint256 i = 0; i < UsersInfo[msg.sender].eggsinfo.length; i++) {... */\n    tag_155:\n        /* \"contracts/Lottery.sol\":8709:8718  UsersInfo */\n      0x09\n        /* \"contracts/Lottery.sol\":8709:8730  UsersInfo[msg.sender] */\n      0x00\n        /* \"contracts/Lottery.sol\":8719:8729  msg.sender */\n      caller\n        /* \"contracts/Lottery.sol\":8709:8730  UsersInfo[msg.sender] */\n      0xffffffffffffffffffffffffffffffffffffffff\n      and\n      0xffffffffffffffffffffffffffffffffffffffff\n      and\n      dup2\n      mstore\n      0x20\n      add\n      swap1\n      dup2\n      mstore\n      0x20\n      add\n      0x00\n      keccak256\n        /* \"contracts/Lottery.sol\":8709:8739  UsersInfo[msg.sender].eggsinfo */\n      0x00\n      add\n        /* \"contracts/Lottery.sol\":8709:8746  UsersInfo[msg.sender].eggsinfo.length */\n      dup1\n      sload\n      swap1\n      pop\n        /* \"contracts/Lottery.sol\":8705:8706  i */\n      dup2\n        /* \"contracts/Lottery.sol\":8705:8746  i < UsersInfo[msg.sender].eggsinfo.length */\n      lt\n        /* \"contracts/Lottery.sol\":8685:10375  for (uint256 i = 0; i < UsersInfo[msg.sender].eggsinfo.length; i++) {... */\n      iszero\n      tag_156\n      jumpi\n        /* \"contracts/Lottery.sol\":8961:8962  0 */\n      0x00\n        /* \"contracts/Lottery.sol\":8893:8902  UsersInfo */\n      0x09\n        /* \"contracts/Lottery.sol\":8893:8914  UsersInfo[msg.sender] */\n      0x00\n        /* \"contracts/Lottery.sol\":8903:8913  msg.sender */\n      caller\n        /* \"contracts/Lottery.sol\":8893:8914  UsersInfo[msg.sender] */\n      0xffffffffffffffffffffffffffffffffffffffff\n      and\n      0xffffffffffffffffffffffffffffffffffffffff\n      and\n      dup2\n      mstore\n      0x20\n      add\n      swap1\n      dup2\n      mstore\n      0x20\n      add\n      0x00\n      keccak256\n        /* \"contracts/Lottery.sol\":8893:8923  UsersInfo[msg.sender].eggsinfo */\n      0x00\n      add\n        /* \"contracts/Lottery.sol\":8924:8925  i */\n      dup3\n        /* \"contracts/Lottery.sol\":8893:8926  UsersInfo[msg.sender].eggsinfo[i] */\n      dup2\n      sload\n      dup2\n      lt\n      tag_158\n      jumpi\n      tag_159\n      tag_83\n      jump\t// in\n    tag_159:\n    tag_158:\n      swap1\n      0x00\n      mstore\n      keccak256(0x00, 0x20)\n      swap1\n      0x02\n      mul\n      add\n        /* \"contracts/Lottery.sol\":8893:8938  UsersInfo[msg.sender].eggsinfo[i].blocknumber */\n      0x01\n      add\n      0x01\n      swap1\n      sload\n      swap1\n      0x0100\n      exp\n      swap1\n      div\n      0xffffffffffffffffffffffffffffffffffffffffffffffffffffffffffffff\n      and\n        /* \"contracts/Lottery.sol\":8883:8939  blockhash(UsersInfo[msg.sender].eggsinfo[i].blocknumber) */\n      0xffffffffffffffffffffffffffffffffffffffffffffffffffffffffffffff\n      and\n      blockhash\n        /* \"contracts/Lottery.sol\":8854:8957  uint256(... */\n      0x00\n      shr\n        /* \"contracts/Lottery.sol\":8854:8962  uint256(... */\n      sub\n        /* \"contracts/Lottery.sol\":8833:8985  if (... */\n      iszero\n        /* \"contracts/Lottery.sol\":8977:8985  continue */\n      tag_157\n        /* \"contracts/Lottery.sol\":8833:8985  if (... */\n      jumpi\n        /* \"contracts/Lottery.sol\":9034:9051  uint32 LotteryNum */\n      0x00\n        /* \"contracts/Lottery.sol\":9187:9196  UsersInfo */\n      0x09\n        /* \"contracts/Lottery.sol\":9187:9208  UsersInfo[msg.sender] */\n      0x00\n        /* \"contracts/Lottery.sol\":9197:9207  msg.sender */\n      caller\n        /* \"contracts/Lottery.sol\":9187:9208  UsersInfo[msg.sender] */\n      0xffffffffffffffffffffffffffffffffffffffff\n      and\n      0xffffffffffffffffffffffffffffffffffffffff\n      and\n      dup2\n      mstore\n      0x20\n      add\n      swap1\n      dup2\n      mstore\n      0x20\n      add\n      0x00\n      keccak256\n        /* \"contracts/Lottery.sol\":9187:9217  UsersInfo[msg.sender].eggsinfo */\n      0x00\n      add\n        /* \"contracts/Lottery.sol\":9218:9219  i */\n      dup3\n        /* \"contracts/Lottery.sol\":9187:9220  UsersInfo[msg.sender].eggsinfo[i] */\n      dup2\n      sload\n      dup2\n      lt\n      tag_162\n      jumpi\n      tag_163\n      tag_83\n      jump\t// in\n    tag_163:\n    tag_162:\n      swap1\n      0x00\n      mstore\n      keccak256(0x00, 0x20)\n      swap1\n      0x02\n      mul\n      add\n        /* \"contracts/Lottery.sol\":9187:9224  UsersInfo[msg.sender].eggsinfo[i].uid */\n      0x00\n      add\n      sload\n        /* \"contracts/Lottery.sol\":9297:9306  UsersInfo */\n      0x09\n        /* \"contracts/Lottery.sol\":9297:9318  UsersInfo[msg.sender] */\n      0x00\n        /* \"contracts/Lottery.sol\":9307:9317  msg.sender */\n      caller\n        /* \"contracts/Lottery.sol\":9297:9318  UsersInfo[msg.sender] */\n      0xffffffffffffffffffffffffffffffffffffffff\n      and\n      0xffffffffffffffffffffffffffffffffffffffff\n      and\n      dup2\n      mstore\n      0x20\n      add\n      swap1\n      dup2\n      mstore\n      0x20\n      add\n      0x00\n      keccak256\n        /* \"contracts/Lottery.sol\":9297:9327  UsersInfo[msg.sender].eggsinfo */\n      0x00\n      add\n        /* \"contracts/Lottery.sol\":9328:9329  i */\n      dup4\n        /* \"contracts/Lottery.sol\":9297:9330  UsersInfo[msg.sender].eggsinfo[i] */\n      dup2\n      sload\n      dup2\n      lt\n      tag_165\n      jumpi\n      tag_166\n      tag_83\n      jump\t// in\n    tag_166:\n    tag_165:\n      swap1\n      0x00\n      mstore\n      keccak256(0x00, 0x20)\n      swap1\n      0x02\n      mul\n      add\n        /* \"contracts/Lottery.sol\":9297:9342  UsersInfo[msg.sender].eggsinfo[i].blocknumber */\n      0x01\n      add\n      0x01\n      swap1\n      sload\n      swap1\n      0x0100\n      exp\n      swap1\n      div\n      0xffffffffffffffffffffffffffffffffffffffffffffffffffffffffffffff\n      and\n        /* \"contracts/Lottery.sol\":9254:9372  blockhash(... */\n      0xffffffffffffffffffffffffffffffffffffffffffffffffffffffffffffff\n      and\n      blockhash\n        /* \"contracts/Lottery.sol\":9141:9398  abi.encodePacked(... */\n      add(0x20, mload(0x40))\n      tag_168\n      swap3\n      swap2\n      swap1\n      tag_169\n      jump\t// in\n    tag_168:\n      mload(0x40)\n      0x20\n      dup2\n      dup4\n      sub\n      sub\n      dup2\n      mstore\n      swap1\n      0x40\n      mstore\n        /* \"contracts/Lottery.sol\":9106:9420  keccak256(... */\n      dup1\n      mload\n      swap1\n      0x20\n      add\n      keccak256\n        /* \"contracts/Lottery.sol\":9054:9452  uint32(... */\n      0xe0\n      shr\n        /* \"contracts/Lottery.sol\":9034:9452  uint32 LotteryNum = uint32(... */\n      swap1\n      pop\n        /* \"contracts/Lottery.sol\":9495:9514  uint256 Winningrade */\n      0x00\n        /* \"contracts/Lottery.sol\":9517:9544  GetWinninggrade(LotteryNum) */\n      tag_170\n        /* \"contracts/Lottery.sol\":9533:9543  LotteryNum */\n      dup3\n        /* \"contracts/Lottery.sol\":9517:9532  GetWinninggrade */\n      tag_171\n        /* \"contracts/Lottery.sol\":9517:9544  GetWinninggrade(LotteryNum) */\n      jump\t// in\n    tag_170:\n        /* \"contracts/Lottery.sol\":9495:9544  uint256 Winningrade = GetWinninggrade(LotteryNum) */\n      swap1\n      pop\n        /* \"contracts/Lottery.sol\":9611:9612  0 */\n      0x00\n        /* \"contracts/Lottery.sol\":9597:9608  Winningrade */\n      dup2\n        /* \"contracts/Lottery.sol\":9597:9612  Winningrade > 0 */\n      gt\n        /* \"contracts/Lottery.sol\":9593:10134  if (Winningrade > 0) {... */\n      iszero\n      tag_172\n      jumpi\n        /* \"contracts/Lottery.sol\":9632:9652  uint256 WinningMoney */\n      0x00\n        /* \"contracts/Lottery.sol\":1287:1297  0.02 ether */\n      0x470de4df820000\n        /* \"contracts/Lottery.sol\":9709:9718  UsersInfo */\n      0x09\n        /* \"contracts/Lottery.sol\":9709:9730  UsersInfo[msg.sender] */\n      0x00\n        /* \"contracts/Lottery.sol\":9719:9729  msg.sender */\n      caller\n        /* \"contracts/Lottery.sol\":9709:9730  UsersInfo[msg.sender] */\n      0xffffffffffffffffffffffffffffffffffffffff\n      and\n      0xffffffffffffffffffffffffffffffffffffffff\n      and\n      dup2\n      mstore\n      0x20\n      add\n      swap1\n      dup2\n      mstore\n      0x20\n      add\n      0x00\n      keccak256\n        /* \"contracts/Lottery.sol\":9709:9739  UsersInfo[msg.sender].eggsinfo */\n      0x00\n      add\n        /* \"contracts/Lottery.sol\":9740:9741  i */\n      dup6\n        /* \"contracts/Lottery.sol\":9709:9742  UsersInfo[msg.sender].eggsinfo[i] */\n      dup2\n      sload\n      dup2\n      lt\n      tag_173\n      jumpi\n      tag_174\n      tag_83\n      jump\t// in\n    tag_174:\n    tag_173:\n      swap1\n      0x00\n      mstore\n      keccak256(0x00, 0x20)\n      swap1\n      0x02\n      mul\n      add\n        /* \"contracts/Lottery.sol\":9709:9746  UsersInfo[msg.sender].eggsinfo[i].mul */\n      0x01\n      add\n      0x00\n      swap1\n      sload\n      swap1\n      0x0100\n      exp\n      swap1\n      div\n      0xff\n      and\n        /* \"contracts/Lottery.sol\":9655:9746  GetWinningmultiple(Winningrade) *... */\n      0xff\n      and\n        /* \"contracts/Lottery.sol\":9655:9686  GetWinningmultiple(Winningrade) */\n      tag_176\n        /* \"contracts/Lottery.sol\":9674:9685  Winningrade */\n      dup5\n        /* \"contracts/Lottery.sol\":9655:9673  GetWinningmultiple */\n      tag_177\n        /* \"contracts/Lottery.sol\":9655:9686  GetWinningmultiple(Winningrade) */\n      jump\t// in\n    tag_176:\n        /* \"contracts/Lottery.sol\":9655:9746  GetWinningmultiple(Winningrade) *... */\n      tag_178\n      swap2\n      swap1\n      tag_179\n      jump\t// in\n    tag_178:\n        /* \"contracts/Lottery.sol\":9655:9780  GetWinningmultiple(Winningrade) *... */\n      tag_180\n      swap2\n      swap1\n      tag_179\n      jump\t// in\n    tag_180:\n        /* \"contracts/Lottery.sol\":9632:9780  uint256 WinningMoney = GetWinningmultiple(Winningrade) *... */\n      swap1\n      pop\n        /* \"contracts/Lottery.sol\":9816:9828  WinningMoney */\n      dup1\n        /* \"contracts/Lottery.sol\":9799:9828  WinningAmount += WinningMoney */\n      dup6\n      tag_181\n      swap2\n      swap1\n      tag_69\n      jump\t// in\n    tag_181:\n      swap5\n      pop\n        /* \"contracts/Lottery.sol\":9847:9873  Winninginfo memory winning */\n      0x00\n        /* \"contracts/Lottery.sol\":9876:10073  Winninginfo(... */\n      mload(0x40)\n      dup1\n      0x80\n      add\n      0x40\n      mstore\n      dup1\n        /* \"contracts/Lottery.sol\":9909:9919  LotteryNum */\n      dup6\n        /* \"contracts/Lottery.sol\":9876:10073  Winninginfo(... */\n      0xffffffff\n      and\n      dup2\n      mstore\n      0x20\n      add\n        /* \"contracts/Lottery.sol\":9941:9950  UsersInfo */\n      0x09\n        /* \"contracts/Lottery.sol\":9941:9962  UsersInfo[msg.sender] */\n      0x00\n        /* \"contracts/Lottery.sol\":9951:9961  msg.sender */\n      caller\n        /* \"contracts/Lottery.sol\":9941:9962  UsersInfo[msg.sender] */\n      0xffffffffffffffffffffffffffffffffffffffff\n      and\n      0xffffffffffffffffffffffffffffffffffffffff\n      and\n      dup2\n      mstore\n      0x20\n      add\n      swap1\n      dup2\n      mstore\n      0x20\n      add\n      0x00\n      keccak256\n        /* \"contracts/Lottery.sol\":9941:9971  UsersInfo[msg.sender].eggsinfo */\n      0x00\n      add\n        /* \"contracts/Lottery.sol\":9972:9973  i */\n      dup8\n        /* \"contracts/Lottery.sol\":9941:9974  UsersInfo[msg.sender].eggsinfo[i] */\n      dup2\n      sload\n      dup2\n      lt\n      tag_182\n      jumpi\n      tag_183\n      tag_83\n      jump\t// in\n    tag_183:\n    tag_182:\n      swap1\n      0x00\n      mstore\n      keccak256(0x00, 0x20)\n      swap1\n      0x02\n      mul\n      add\n        /* \"contracts/Lottery.sol\":9941:9978  UsersInfo[msg.sender].eggsinfo[i].mul */\n      0x01\n      add\n      0x00\n      swap1\n      sload\n      swap1\n      0x0100\n      exp\n      swap1\n      div\n      0xff\n      and\n        /* \"contracts/Lottery.sol\":9876:10073  Winninginfo(... */\n      0xff\n      and\n      dup2\n      mstore\n      0x20\n      add\n        /* \"contracts/Lottery.sol\":10007:10022  block.timestamp */\n      timestamp\n        /* \"contracts/Lottery.sol\":9876:10073  Winninginfo(... */\n      0xffffffffff\n      and\n      dup2\n      mstore\n      0x20\n      add\n        /* \"contracts/Lottery.sol\":10045:10055  msg.sender */\n      caller\n        /* \"contracts/Lottery.sol\":9876:10073  Winninginfo(... */\n      0xffffffffffffffffffffffffffffffffffffffff\n      and\n      dup2\n      mstore\n      pop\n        /* \"contracts/Lottery.sol\":9847:10073  Winninginfo memory winning = Winninginfo(... */\n      swap1\n      pop\n        /* \"contracts/Lottery.sol\":10092:10105  WinningRecord */\n      0x0b\n        /* \"contracts/Lottery.sol\":10111:10118  winning */\n      dup2\n        /* \"contracts/Lottery.sol\":10092:10119  WinningRecord.push(winning) */\n      swap1\n      dup1\n      0x01\n      dup2\n      sload\n      add\n      dup1\n      dup3\n      sstore\n      dup1\n      swap2\n      pop\n      pop\n      0x01\n      swap1\n      sub\n      swap1\n      0x00\n      mstore\n      keccak256(0x00, 0x20)\n      swap1\n      0x03\n      mul\n      add\n      0x00\n      swap1\n      swap2\n      swap1\n      swap2\n      swap1\n      swap2\n      pop\n      0x00\n      dup3\n      add\n      mload\n      dup2\n      0x00\n      add\n      exp(0x0100, 0x00)\n      dup2\n      sload\n      dup2\n      0xffffffff\n      mul\n      not\n      and\n      swap1\n      dup4\n      0xffffffff\n      and\n      mul\n      or\n      swap1\n      sstore\n      pop\n      0x20\n      dup3\n      add\n      mload\n      dup2\n      0x00\n      add\n      exp(0x0100, 0x04)\n      dup2\n      sload\n      dup2\n      0xff\n      mul\n      not\n      and\n      swap1\n      dup4\n      0xff\n      and\n      mul\n      or\n      swap1\n      sstore\n      pop\n      0x40\n      dup3\n      add\n      mload\n      dup2\n      0x01\n      add\n      sstore\n      0x60\n      dup3\n      add\n      mload\n      dup2\n      0x02\n      add\n      exp(0x0100, 0x00)\n      dup2\n      sload\n      dup2\n      0xffffffffffffffffffffffffffffffffffffffff\n      mul\n      not\n      and\n      swap1\n      dup4\n      0xffffffffffffffffffffffffffffffffffffffff\n      and\n      mul\n      or\n      swap1\n      sstore\n      pop\n      pop\n      pop\n        /* \"contracts/Lottery.sol\":9614:10134  {... */\n      pop\n      pop\n        /* \"contracts/Lottery.sol\":9593:10134  if (Winningrade > 0) {... */\n    tag_172:\n        /* \"contracts/Lottery.sol\":10148:10183  OpenedLotInfo memory OpenedLotterys */\n      0x00\n        /* \"contracts/Lottery.sol\":10186:10296  OpenedLotInfo(... */\n      mload(0x40)\n      dup1\n      0x40\n      add\n      0x40\n      mstore\n      dup1\n        /* \"contracts/Lottery.sol\":10217:10227  LotteryNum */\n      dup5\n        /* \"contracts/Lottery.sol\":10186:10296  OpenedLotInfo(... */\n      0xffffffff\n      and\n      dup2\n      mstore\n      0x20\n      add\n        /* \"contracts/Lottery.sol\":10245:10254  UsersInfo */\n      0x09\n        /* \"contracts/Lottery.sol\":10245:10266  UsersInfo[msg.sender] */\n      0x00\n        /* \"contracts/Lottery.sol\":10255:10265  msg.sender */\n      caller\n        /* \"contracts/Lottery.sol\":10245:10266  UsersInfo[msg.sender] */\n      0xffffffffffffffffffffffffffffffffffffffff\n      and\n      0xffffffffffffffffffffffffffffffffffffffff\n      and\n      dup2\n      mstore\n      0x20\n      add\n      swap1\n      dup2\n      mstore\n      0x20\n      add\n      0x00\n      keccak256\n        /* \"contracts/Lottery.sol\":10245:10275  UsersInfo[msg.sender].eggsinfo */\n      0x00\n      add\n        /* \"contracts/Lottery.sol\":10276:10277  i */\n      dup7\n        /* \"contracts/Lottery.sol\":10245:10278  UsersInfo[msg.sender].eggsinfo[i] */\n      dup2\n      sload\n      dup2\n      lt\n      tag_186\n      jumpi\n      tag_187\n      tag_83\n      jump\t// in\n    tag_187:\n    tag_186:\n      swap1\n      0x00\n      mstore\n      keccak256(0x00, 0x20)\n      swap1\n      0x02\n      mul\n      add\n        /* \"contracts/Lottery.sol\":10245:10282  UsersInfo[msg.sender].eggsinfo[i].mul */\n      0x01\n      add\n      0x00\n      swap1\n      sload\n      swap1\n      0x0100\n      exp\n      swap1\n      div\n      0xff\n      and\n        /* \"contracts/Lottery.sol\":10186:10296  OpenedLotInfo(... */\n      0xff\n      and\n      dup2\n      mstore\n      pop\n        /* \"contracts/Lottery.sol\":10148:10296  OpenedLotInfo memory OpenedLotterys = OpenedLotInfo(... */\n      swap1\n      pop\n        /* \"contracts/Lottery.sol\":10311:10320  UsersInfo */\n      0x09\n        /* \"contracts/Lottery.sol\":10311:10332  UsersInfo[msg.sender] */\n      0x00\n        /* \"contracts/Lottery.sol\":10321:10331  msg.sender */\n      caller\n        /* \"contracts/Lottery.sol\":10311:10332  UsersInfo[msg.sender] */\n      0xffffffffffffffffffffffffffffffffffffffff\n      and\n      0xffffffffffffffffffffffffffffffffffffffff\n      and\n      dup2\n      mstore\n      0x20\n      add\n      swap1\n      dup2\n      mstore\n      0x20\n      add\n      0x00\n      keccak256\n        /* \"contracts/Lottery.sol\":10311:10343  UsersInfo[msg.sender].openedeggs */\n      0x01\n      add\n        /* \"contracts/Lottery.sol\":10349:10363  OpenedLotterys */\n      dup2\n        /* \"contracts/Lottery.sol\":10311:10364  UsersInfo[msg.sender].openedeggs.push(OpenedLotterys) */\n      swap1\n      dup1\n      0x01\n      dup2\n      sload\n      add\n      dup1\n      dup3\n      sstore\n      dup1\n      swap2\n      pop\n      pop\n      0x01\n      swap1\n      sub\n      swap1\n      0x00\n      mstore\n      keccak256(0x00, 0x20)\n      add\n      0x00\n      swap1\n      swap2\n      swap1\n      swap2\n      swap1\n      swap2\n      pop\n      0x00\n      dup3\n      add\n      mload\n      dup2\n      0x00\n      add\n      exp(0x0100, 0x00)\n      dup2\n      sload\n      dup2\n      0xffffffff\n      mul\n      not\n      and\n      swap1\n      dup4\n      0xffffffff\n      and\n      mul\n      or\n      swap1\n      sstore\n      pop\n      0x20\n      dup3\n      add\n      mload\n      dup2\n      0x00\n      add\n      exp(0x0100, 0x04)\n      dup2\n      sload\n      dup2\n      0xff\n      mul\n      not\n      and\n      swap1\n      dup4\n      0xff\n      and\n      mul\n      or\n      swap1\n      sstore\n      pop\n      pop\n      pop\n        /* \"contracts/Lottery.sol\":8753:10375  {... */\n      pop\n      pop\n      pop\n        /* \"contracts/Lottery.sol\":8685:10375  for (uint256 i = 0; i < UsersInfo[msg.sender].eggsinfo.length; i++) {... */\n    tag_157:\n        /* \"contracts/Lottery.sol\":8748:8751  i++ */\n      dup1\n      dup1\n      0x01\n      add\n      swap2\n      pop\n      pop\n        /* \"contracts/Lottery.sol\":8685:10375  for (uint256 i = 0; i < UsersInfo[msg.sender].eggsinfo.length; i++) {... */\n      jump(tag_155)\n    tag_156:\n      pop\n        /* \"contracts/Lottery.sol\":10452:10461  UsersInfo */\n      0x09\n        /* \"contracts/Lottery.sol\":10452:10473  UsersInfo[msg.sender] */\n      0x00\n        /* \"contracts/Lottery.sol\":10462:10472  msg.sender */\n      caller\n        /* \"contracts/Lottery.sol\":10452:10473  UsersInfo[msg.sender] */\n      0xffffffffffffffffffffffffffffffffffffffff\n      and\n      0xffffffffffffffffffffffffffffffffffffffff\n      and\n      dup2\n      mstore\n      0x20\n      add\n      swap1\n      dup2\n      mstore\n      0x20\n      add\n      0x00\n      keccak256\n        /* \"contracts/Lottery.sol\":10452:10482  UsersInfo[msg.sender].eggsinfo */\n      0x00\n      add\n      0x00\n        /* \"contracts/Lottery.sol\":10445:10482  delete UsersInfo[msg.sender].eggsinfo */\n      tag_190\n      swap2\n      swap1\n      tag_191\n      jump\t// in\n    tag_190:\n        /* \"contracts/Lottery.sol\":10570:10571  0 */\n      0x00\n        /* \"contracts/Lottery.sol\":10554:10567  WinningAmount */\n      dup2\n        /* \"contracts/Lottery.sol\":10554:10571  WinningAmount > 0 */\n      gt\n        /* \"contracts/Lottery.sol\":10550:11244  if (WinningAmount > 0) {... */\n      iszero\n      tag_192\n      jumpi\n        /* \"contracts/Lottery.sol\":10587:10611  uint256 MaxWinningAmount */\n      0x00\n        /* \"contracts/Lottery.sol\":10614:10910  SafeMathdiv(... */\n      tag_193\n        /* \"contracts/Lottery.sol\":10643:10875  SafeMathmul(... */\n      tag_194\n        /* \"contracts/Lottery.sol\":10676:10833  SafeMathsub(... */\n      tag_195\n        /* \"contracts/Lottery.sol\":10713:10734  address(this).balance */\n      selfbalance\n        /* \"contracts/Lottery.sol\":10801:10810  DevProfit */\n      sload(0x01)\n        /* \"contracts/Lottery.sol\":10779:10798  TotalReferralProfit */\n      sload(0x07)\n        /* \"contracts/Lottery.sol\":10761:10776  InvestorsProfit */\n      sload(0x05)\n        /* \"contracts/Lottery.sol\":10761:10798  InvestorsProfit + TotalReferralProfit */\n      tag_196\n      swap2\n      swap1\n      tag_69\n      jump\t// in\n    tag_196:\n        /* \"contracts/Lottery.sol\":10761:10810  InvestorsProfit + TotalReferralProfit + DevProfit */\n      tag_197\n      swap2\n      swap1\n      tag_69\n      jump\t// in\n    tag_197:\n        /* \"contracts/Lottery.sol\":10676:10687  SafeMathsub */\n      tag_71\n        /* \"contracts/Lottery.sol\":10676:10833  SafeMathsub(... */\n      jump\t// in\n    tag_195:\n        /* \"contracts/Lottery.sol\":10855:10857  70 */\n      0x46\n        /* \"contracts/Lottery.sol\":10643:10654  SafeMathmul */\n      tag_91\n        /* \"contracts/Lottery.sol\":10643:10875  SafeMathmul(... */\n      jump\t// in\n    tag_194:\n        /* \"contracts/Lottery.sol\":10893:10896  100 */\n      0x64\n        /* \"contracts/Lottery.sol\":10614:10625  SafeMathdiv */\n      tag_92\n        /* \"contracts/Lottery.sol\":10614:10910  SafeMathdiv(... */\n      jump\t// in\n    tag_193:\n        /* \"contracts/Lottery.sol\":10587:10910  uint256 MaxWinningAmount = SafeMathdiv(... */\n      swap1\n      pop\n        /* \"contracts/Lottery.sol\":10945:10961  MaxWinningAmount */\n      dup1\n        /* \"contracts/Lottery.sol\":10929:10942  WinningAmount */\n      dup3\n        /* \"contracts/Lottery.sol\":10929:10961  WinningAmount > MaxWinningAmount */\n      gt\n        /* \"contracts/Lottery.sol\":10925:11011  if (WinningAmount > MaxWinningAmount)... */\n      iszero\n      tag_198\n      jumpi\n        /* \"contracts/Lottery.sol\":10995:11011  MaxWinningAmount */\n      dup1\n        /* \"contracts/Lottery.sol\":10979:11011  WinningAmount = MaxWinningAmount */\n      swap2\n      pop\n        /* \"contracts/Lottery.sol\":10925:11011  if (WinningAmount > MaxWinningAmount)... */\n    tag_198:\n        /* \"contracts/Lottery.sol\":11026:11040  uint256 profit */\n      0x00\n        /* \"contracts/Lottery.sol\":11043:11090  SafeMathdiv(SafeMathmul(WinningAmount, 5), 100) */\n      tag_199\n        /* \"contracts/Lottery.sol\":11055:11084  SafeMathmul(WinningAmount, 5) */\n      tag_200\n        /* \"contracts/Lottery.sol\":11067:11080  WinningAmount */\n      dup5\n        /* \"contracts/Lottery.sol\":11082:11083  5 */\n      0x05\n        /* \"contracts/Lottery.sol\":11055:11066  SafeMathmul */\n      tag_91\n        /* \"contracts/Lottery.sol\":11055:11084  SafeMathmul(WinningAmount, 5) */\n      jump\t// in\n    tag_200:\n        /* \"contracts/Lottery.sol\":11086:11089  100 */\n      0x64\n        /* \"contracts/Lottery.sol\":11043:11054  SafeMathdiv */\n      tag_92\n        /* \"contracts/Lottery.sol\":11043:11090  SafeMathdiv(SafeMathmul(WinningAmount, 5), 100) */\n      jump\t// in\n    tag_199:\n        /* \"contracts/Lottery.sol\":11026:11090  uint256 profit = SafeMathdiv(SafeMathmul(WinningAmount, 5), 100) */\n      swap1\n      pop\n        /* \"contracts/Lottery.sol\":11123:11129  profit */\n      dup1\n        /* \"contracts/Lottery.sol\":11104:11119  InvestorsProfit */\n      0x05\n      0x00\n        /* \"contracts/Lottery.sol\":11104:11129  InvestorsProfit += profit */\n      dup3\n      dup3\n      sload\n      tag_201\n      swap2\n      swap1\n      tag_69\n      jump\t// in\n    tag_201:\n      swap3\n      pop\n      pop\n      dup2\n      swap1\n      sstore\n      pop\n        /* \"contracts/Lottery.sol\":11156:11162  profit */\n      dup1\n        /* \"contracts/Lottery.sol\":11143:11152  DevProfit */\n      0x01\n      0x00\n        /* \"contracts/Lottery.sol\":11143:11162  DevProfit += profit */\n      dup3\n      dup3\n      sload\n      tag_202\n      swap2\n      swap1\n      tag_69\n      jump\t// in\n    tag_202:\n      swap3\n      pop\n      pop\n      dup2\n      swap1\n      sstore\n      pop\n        /* \"contracts/Lottery.sol\":11185:11195  msg.sender */\n      caller\n        /* \"contracts/Lottery.sol\":11177:11205  payable(msg.sender).transfer */\n      0xffffffffffffffffffffffffffffffffffffffff\n      and\n        /* \"contracts/Lottery.sol\":11177:11233  payable(msg.sender).transfer(WinningAmount - profit * 2) */\n      0x08fc\n        /* \"contracts/Lottery.sol\":11231:11232  2 */\n      0x02\n        /* \"contracts/Lottery.sol\":11222:11228  profit */\n      dup4\n        /* \"contracts/Lottery.sol\":11222:11232  profit * 2 */\n      tag_203\n      swap2\n      swap1\n      tag_179\n      jump\t// in\n    tag_203:\n        /* \"contracts/Lottery.sol\":11206:11219  WinningAmount */\n      dup6\n        /* \"contracts/Lottery.sol\":11206:11232  WinningAmount - profit * 2 */\n      tag_204\n      swap2\n      swap1\n      tag_106\n      jump\t// in\n    tag_204:\n        /* \"contracts/Lottery.sol\":11177:11233  payable(msg.sender).transfer(WinningAmount - profit * 2) */\n      swap1\n      dup2\n      iszero\n      mul\n      swap1\n      mload(0x40)\n      0x00\n      mload(0x40)\n      dup1\n      dup4\n      sub\n      dup2\n      dup6\n      dup9\n      dup9\n      call\n      swap4\n      pop\n      pop\n      pop\n      pop\n      iszero\n      dup1\n      iszero\n      tag_206\n      jumpi\n      returndatasize\n      0x00\n      dup1\n      returndatacopy\n      revert(0x00, returndatasize)\n    tag_206:\n      pop\n        /* \"contracts/Lottery.sol\":10573:11244  {... */\n      pop\n      pop\n        /* \"contracts/Lottery.sol\":10550:11244  if (WinningAmount > 0) {... */\n    tag_192:\n        /* \"contracts/Lottery.sol\":7886:11250  {... */\n      pop\n        /* \"contracts/Lottery.sol\":7857:11250  function OpenEggs() external {... */\n      jump\t// out\n        /* \"contracts/Lottery.sol\":1699:1724  address public DevAddress */\n    tag_35:\n      0x00\n      dup1\n      sload\n      swap1\n      0x0100\n      exp\n      swap1\n      div\n      0xffffffffffffffffffffffffffffffffffffffff\n      and\n      dup2\n      jump\t// out\n        /* \"contracts/Lottery.sol\":2079:2115  uint256 public TotalInvestmentAmount */\n    tag_40:\n      sload(0x04)\n      dup2\n      jump\t// out\n        /* \"contracts/Lottery.sol\":2239:2272  uint256 public RecentDividendTime */\n    tag_45:\n      sload(0x06)\n      dup2\n      jump\t// out\n        /* \"contracts/Lottery.sol\":4155:6544  function BuyEggs(... */\n    tag_50:\n        /* \"contracts/Lottery.sol\":1287:1297  0.02 ether */\n      0x470de4df820000\n        /* \"contracts/Lottery.sol\":4303:4312  msg.value */\n      callvalue\n        /* \"contracts/Lottery.sol\":4303:4327  msg.value >= PerEggPrice */\n      lt\n      iszero\n        /* \"contracts/Lottery.sol\":4295:4352  require(msg.value >= PerEggPrice, \"Buy at least one egg\") */\n      tag_208\n      jumpi\n      mload(0x40)\n      0x08c379a000000000000000000000000000000000000000000000000000000000\n      dup2\n      mstore\n      0x04\n      add\n      tag_209\n      swap1\n      tag_210\n      jump\t// in\n    tag_209:\n      mload(0x40)\n      dup1\n      swap2\n      sub\n      swap1\n      revert\n    tag_208:\n        /* \"contracts/Lottery.sol\":4377:4378  1 */\n      0x01\n        /* \"contracts/Lottery.sol\":4370:4373  mul */\n      dup4\n        /* \"contracts/Lottery.sol\":4370:4378  mul >= 1 */\n      0xff\n      and\n      lt\n      iszero\n        /* \"contracts/Lottery.sol\":4370:4392  mul >= 1 && mul <= 100 */\n      dup1\n      iszero\n      tag_211\n      jumpi\n      pop\n        /* \"contracts/Lottery.sol\":4389:4392  100 */\n      0x64\n        /* \"contracts/Lottery.sol\":4382:4385  mul */\n      dup4\n        /* \"contracts/Lottery.sol\":4382:4392  mul <= 100 */\n      0xff\n      and\n      gt\n      iszero\n        /* \"contracts/Lottery.sol\":4370:4392  mul >= 1 && mul <= 100 */\n    tag_211:\n        /* \"contracts/Lottery.sol\":4362:4424  require(mul >= 1 && mul <= 100, \"Multiples between 1 and 100\") */\n      tag_212\n      jumpi\n      mload(0x40)\n      0x08c379a000000000000000000000000000000000000000000000000000000000\n      dup2\n      mstore\n      0x04\n      add\n      tag_213\n      swap1\n      tag_214\n      jump\t// in\n    tag_213:\n      mload(0x40)\n      dup1\n      swap2\n      sub\n      swap1\n      revert\n    tag_212:\n        /* \"contracts/Lottery.sol\":4467:4468  1 */\n      0x01\n        /* \"contracts/Lottery.sol\":4455:4463  LotCount */\n      dup5\n        /* \"contracts/Lottery.sol\":4455:4468  LotCount >= 1 */\n      0xffff\n      and\n      lt\n      iszero\n        /* \"contracts/Lottery.sol\":4455:4488  LotCount >= 1 && LotCount <= 1000 */\n      dup1\n      iszero\n      tag_215\n      jumpi\n      pop\n        /* \"contracts/Lottery.sol\":4484:4488  1000 */\n      0x03e8\n        /* \"contracts/Lottery.sol\":4472:4480  LotCount */\n      dup5\n        /* \"contracts/Lottery.sol\":4472:4488  LotCount <= 1000 */\n      0xffff\n      and\n      gt\n      iszero\n        /* \"contracts/Lottery.sol\":4455:4488  LotCount >= 1 && LotCount <= 1000 */\n    tag_215:\n        /* \"contracts/Lottery.sol\":4434:4546  require(... */\n      tag_216\n      jumpi\n      mload(0x40)\n      0x08c379a000000000000000000000000000000000000000000000000000000000\n      dup2\n      mstore\n      0x04\n      add\n      tag_217\n      swap1\n      tag_218\n      jump\t// in\n    tag_217:\n      mload(0x40)\n      dup1\n      swap2\n      sub\n      swap1\n      revert\n    tag_216:\n        /* \"contracts/Lottery.sol\":4556:4579  uint256 AllLotteryCount */\n      0x00\n        /* \"contracts/Lottery.sol\":4582:4617  SafeMathdiv(msg.value, PerEggPrice) */\n      tag_219\n        /* \"contracts/Lottery.sol\":4594:4603  msg.value */\n      callvalue\n        /* \"contracts/Lottery.sol\":1287:1297  0.02 ether */\n      0x470de4df820000\n        /* \"contracts/Lottery.sol\":4582:4593  SafeMathdiv */\n      tag_92\n        /* \"contracts/Lottery.sol\":4582:4617  SafeMathdiv(msg.value, PerEggPrice) */\n      jump\t// in\n    tag_219:\n        /* \"contracts/Lottery.sol\":4556:4617  uint256 AllLotteryCount = SafeMathdiv(msg.value, PerEggPrice) */\n      swap1\n      pop\n        /* \"contracts/Lottery.sol\":4666:4669  mul */\n      dup4\n        /* \"contracts/Lottery.sol\":4655:4669  LotCount * mul */\n      0xff\n      and\n        /* \"contracts/Lottery.sol\":4655:4663  LotCount */\n      dup6\n        /* \"contracts/Lottery.sol\":4655:4669  LotCount * mul */\n      tag_220\n      swap2\n      swap1\n      tag_221\n      jump\t// in\n    tag_220:\n        /* \"contracts/Lottery.sol\":4636:4669  AllLotteryCount == LotCount * mul */\n      0xffff\n      and\n        /* \"contracts/Lottery.sol\":4636:4651  AllLotteryCount */\n      dup2\n        /* \"contracts/Lottery.sol\":4636:4669  AllLotteryCount == LotCount * mul */\n      eq\n        /* \"contracts/Lottery.sol\":4628:4686  require(AllLotteryCount == LotCount * mul, \"Invalid data\") */\n      tag_222\n      jumpi\n      mload(0x40)\n      0x08c379a000000000000000000000000000000000000000000000000000000000\n      dup2\n      mstore\n      0x04\n      add\n      tag_223\n      swap1\n      tag_224\n      jump\t// in\n    tag_223:\n      mload(0x40)\n      dup1\n      swap2\n      sub\n      swap1\n      revert\n    tag_222:\n        /* \"contracts/Lottery.sol\":4702:4711  uint256 i */\n      0x00\n        /* \"contracts/Lottery.sol\":4697:5183  for (uint256 i = 0; i < LotCount; i++) {... */\n    tag_225:\n        /* \"contracts/Lottery.sol\":4721:4729  LotCount */\n      dup6\n        /* \"contracts/Lottery.sol\":4717:4729  i < LotCount */\n      0xffff\n      and\n        /* \"contracts/Lottery.sol\":4717:4718  i */\n      dup2\n        /* \"contracts/Lottery.sol\":4717:4729  i < LotCount */\n      lt\n        /* \"contracts/Lottery.sol\":4697:5183  for (uint256 i = 0; i < LotCount; i++) {... */\n      iszero\n      tag_226\n      jumpi\n        /* \"contracts/Lottery.sol\":4750:4772  Egginfo memory egginfo */\n      0x00\n        /* \"contracts/Lottery.sol\":4775:5113  Egginfo(... */\n      mload(0x40)\n      dup1\n      0x60\n      add\n      0x40\n      mstore\n      dup1\n        /* \"contracts/Lottery.sol\":4873:4888  block.timestamp */\n      timestamp\n        /* \"contracts/Lottery.sol\":4914:4928  block.coinbase */\n      coinbase\n        /* \"contracts/Lottery.sol\":4954:4964  msg.sender */\n      caller\n        /* \"contracts/Lottery.sol\":4990:4999  Lucknum++ */\n      dup10\n      dup1\n      tag_228\n      swap1\n      tag_229\n      jump\t// in\n    tag_228:\n      swap11\n      pop\n        /* \"contracts/Lottery.sol\":4831:5021  abi.encodePacked(... */\n      add(0x20, mload(0x40))\n      tag_230\n      swap5\n      swap4\n      swap3\n      swap2\n      swap1\n      tag_231\n      jump\t// in\n    tag_230:\n      mload(0x40)\n      0x20\n      dup2\n      dup4\n      sub\n      sub\n      dup2\n      mstore\n      swap1\n      0x40\n      mstore\n        /* \"contracts/Lottery.sol\":4800:5039  keccak256(... */\n      dup1\n      mload\n      swap1\n      0x20\n      add\n      keccak256\n        /* \"contracts/Lottery.sol\":4775:5113  Egginfo(... */\n      dup2\n      mstore\n      0x20\n      add\n        /* \"contracts/Lottery.sol\":5057:5060  mul */\n      dup8\n        /* \"contracts/Lottery.sol\":4775:5113  Egginfo(... */\n      0xff\n      and\n      dup2\n      mstore\n      0x20\n      add\n        /* \"contracts/Lottery.sol\":5086:5098  block.number */\n      number\n        /* \"contracts/Lottery.sol\":4775:5113  Egginfo(... */\n      0xffffffffffffffffffffffffffffffffffffffffffffffffffffffffffffff\n      and\n      dup2\n      mstore\n      pop\n        /* \"contracts/Lottery.sol\":4750:5113  Egginfo memory egginfo = Egginfo(... */\n      swap1\n      pop\n        /* \"contracts/Lottery.sol\":5128:5137  UsersInfo */\n      0x09\n        /* \"contracts/Lottery.sol\":5128:5149  UsersInfo[msg.sender] */\n      0x00\n        /* \"contracts/Lottery.sol\":5138:5148  msg.sender */\n      caller\n        /* \"contracts/Lottery.sol\":5128:5149  UsersInfo[msg.sender] */\n      0xffffffffffffffffffffffffffffffffffffffff\n      and\n      0xffffffffffffffffffffffffffffffffffffffff\n      and\n      dup2\n      mstore\n      0x20\n      add\n      swap1\n      dup2\n      mstore\n      0x20\n      add\n      0x00\n      keccak256\n        /* \"contracts/Lottery.sol\":5128:5158  UsersInfo[msg.sender].eggsinfo */\n      0x00\n      add\n        /* \"contracts/Lottery.sol\":5164:5171  egginfo */\n      dup2\n        /* \"contracts/Lottery.sol\":5128:5172  UsersInfo[msg.sender].eggsinfo.push(egginfo) */\n      swap1\n      dup1\n      0x01\n      dup2\n      sload\n      add\n      dup1\n      dup3\n      sstore\n      dup1\n      swap2\n      pop\n      pop\n      0x01\n      swap1\n      sub\n      swap1\n      0x00\n      mstore\n      keccak256(0x00, 0x20)\n      swap1\n      0x02\n      mul\n      add\n      0x00\n      swap1\n      swap2\n      swap1\n      swap2\n      swap1\n      swap2\n      pop\n      0x00\n      dup3\n      add\n      mload\n      dup2\n      0x00\n      add\n      sstore\n      0x20\n      dup3\n      add\n      mload\n      dup2\n      0x01\n      add\n      exp(0x0100, 0x00)\n      dup2\n      sload\n      dup2\n      0xff\n      mul\n      not\n      and\n      swap1\n      dup4\n      0xff\n      and\n      mul\n      or\n      swap1\n      sstore\n      pop\n      0x40\n      dup3\n      add\n      mload\n      dup2\n      0x01\n      add\n      exp(0x0100, 0x01)\n      dup2\n      sload\n      dup2\n      0xffffffffffffffffffffffffffffffffffffffffffffffffffffffffffffff\n      mul\n      not\n      and\n      swap1\n      dup4\n      0xffffffffffffffffffffffffffffffffffffffffffffffffffffffffffffff\n      and\n      mul\n      or\n      swap1\n      sstore\n      pop\n      pop\n      pop\n        /* \"contracts/Lottery.sol\":4736:5183  {... */\n      pop\n        /* \"contracts/Lottery.sol\":4731:4734  i++ */\n      dup1\n      dup1\n      0x01\n      add\n      swap2\n      pop\n      pop\n        /* \"contracts/Lottery.sol\":4697:5183  for (uint256 i = 0; i < LotCount; i++) {... */\n      jump(tag_225)\n    tag_226:\n      pop\n        /* \"contracts/Lottery.sol\":5198:5207  UsersInfo */\n      0x09\n        /* \"contracts/Lottery.sol\":5198:5219  UsersInfo[msg.sender] */\n      0x00\n        /* \"contracts/Lottery.sol\":5208:5218  msg.sender */\n      caller\n        /* \"contracts/Lottery.sol\":5198:5219  UsersInfo[msg.sender] */\n      0xffffffffffffffffffffffffffffffffffffffff\n      and\n      0xffffffffffffffffffffffffffffffffffffffff\n      and\n      dup2\n      mstore\n      0x20\n      add\n      swap1\n      dup2\n      mstore\n      0x20\n      add\n      0x00\n      keccak256\n        /* \"contracts/Lottery.sol\":5198:5227  UsersInfo[msg.sender].actived */\n      0x03\n      add\n      0x00\n      swap1\n      sload\n      swap1\n      0x0100\n      exp\n      swap1\n      div\n      0xff\n      and\n        /* \"contracts/Lottery.sol\":5193:5277  if (!UsersInfo[msg.sender].actived)... */\n      tag_233\n      jumpi\n        /* \"contracts/Lottery.sol\":5273:5277  true */\n      0x01\n        /* \"contracts/Lottery.sol\":5241:5250  UsersInfo */\n      0x09\n        /* \"contracts/Lottery.sol\":5241:5262  UsersInfo[msg.sender] */\n      0x00\n        /* \"contracts/Lottery.sol\":5251:5261  msg.sender */\n      caller\n        /* \"contracts/Lottery.sol\":5241:5262  UsersInfo[msg.sender] */\n      0xffffffffffffffffffffffffffffffffffffffff\n      and\n      0xffffffffffffffffffffffffffffffffffffffff\n      and\n      dup2\n      mstore\n      0x20\n      add\n      swap1\n      dup2\n      mstore\n      0x20\n      add\n      0x00\n      keccak256\n        /* \"contracts/Lottery.sol\":5241:5270  UsersInfo[msg.sender].actived */\n      0x03\n      add\n      0x00\n        /* \"contracts/Lottery.sol\":5241:5277  UsersInfo[msg.sender].actived = true */\n      0x0100\n      exp\n      dup2\n      sload\n      dup2\n      0xff\n      mul\n      not\n      and\n      swap1\n      dup4\n      iszero\n      iszero\n      mul\n      or\n      swap1\n      sstore\n      pop\n        /* \"contracts/Lottery.sol\":5193:5277  if (!UsersInfo[msg.sender].actived)... */\n    tag_233:\n        /* \"contracts/Lottery.sol\":5312:5326  uint256 profit */\n      0x00\n        /* \"contracts/Lottery.sol\":5329:5372  SafeMathdiv(SafeMathmul(msg.value, 3), 100) */\n      tag_234\n        /* \"contracts/Lottery.sol\":5341:5366  SafeMathmul(msg.value, 3) */\n      tag_235\n        /* \"contracts/Lottery.sol\":5353:5362  msg.value */\n      callvalue\n        /* \"contracts/Lottery.sol\":5364:5365  3 */\n      0x03\n        /* \"contracts/Lottery.sol\":5341:5352  SafeMathmul */\n      tag_91\n        /* \"contracts/Lottery.sol\":5341:5366  SafeMathmul(msg.value, 3) */\n      jump\t// in\n    tag_235:\n        /* \"contracts/Lottery.sol\":5368:5371  100 */\n      0x64\n        /* \"contracts/Lottery.sol\":5329:5340  SafeMathdiv */\n      tag_92\n        /* \"contracts/Lottery.sol\":5329:5372  SafeMathdiv(SafeMathmul(msg.value, 3), 100) */\n      jump\t// in\n    tag_234:\n        /* \"contracts/Lottery.sol\":5312:5372  uint256 profit = SafeMathdiv(SafeMathmul(msg.value, 3), 100) */\n      swap1\n      pop\n        /* \"contracts/Lottery.sol\":5407:5424  uint256 Refprofit */\n      0x00\n        /* \"contracts/Lottery.sol\":5427:5470  SafeMathdiv(SafeMathmul(msg.value, 4), 100) */\n      tag_236\n        /* \"contracts/Lottery.sol\":5439:5464  SafeMathmul(msg.value, 4) */\n      tag_237\n        /* \"contracts/Lottery.sol\":5451:5460  msg.value */\n      callvalue\n        /* \"contracts/Lottery.sol\":5462:5463  4 */\n      0x04\n        /* \"contracts/Lottery.sol\":5439:5450  SafeMathmul */\n      tag_91\n        /* \"contracts/Lottery.sol\":5439:5464  SafeMathmul(msg.value, 4) */\n      jump\t// in\n    tag_237:\n        /* \"contracts/Lottery.sol\":5466:5469  100 */\n      0x64\n        /* \"contracts/Lottery.sol\":5427:5438  SafeMathdiv */\n      tag_92\n        /* \"contracts/Lottery.sol\":5427:5470  SafeMathdiv(SafeMathmul(msg.value, 4), 100) */\n      jump\t// in\n    tag_236:\n        /* \"contracts/Lottery.sol\":5407:5470  uint256 Refprofit = SafeMathdiv(SafeMathmul(msg.value, 4), 100) */\n      swap1\n      pop\n        /* \"contracts/Lottery.sol\":5523:5529  profit */\n      dup2\n        /* \"contracts/Lottery.sol\":5510:5519  DevProfit */\n      0x01\n      0x00\n        /* \"contracts/Lottery.sol\":5510:5529  DevProfit += profit */\n      dup3\n      dup3\n      sload\n      tag_238\n      swap2\n      swap1\n      tag_69\n      jump\t// in\n    tag_238:\n      swap3\n      pop\n      pop\n      dup2\n      swap1\n      sstore\n      pop\n        /* \"contracts/Lottery.sol\":5588:5594  profit */\n      dup2\n        /* \"contracts/Lottery.sol\":5569:5584  InvestorsProfit */\n      0x05\n      0x00\n        /* \"contracts/Lottery.sol\":5569:5594  InvestorsProfit += profit */\n      dup3\n      dup3\n      sload\n      tag_239\n      swap2\n      swap1\n      tag_69\n      jump\t// in\n    tag_239:\n      swap3\n      pop\n      pop\n      dup2\n      swap1\n      sstore\n      pop\n        /* \"contracts/Lottery.sol\":5687:5688  0 */\n      0x00\n        /* \"contracts/Lottery.sol\":5654:5689  referrals[msg.sender] == address(0) */\n      0xffffffffffffffffffffffffffffffffffffffff\n      and\n        /* \"contracts/Lottery.sol\":5654:5663  referrals */\n      0x0a\n        /* \"contracts/Lottery.sol\":5654:5675  referrals[msg.sender] */\n      0x00\n        /* \"contracts/Lottery.sol\":5664:5674  msg.sender */\n      caller\n        /* \"contracts/Lottery.sol\":5654:5675  referrals[msg.sender] */\n      0xffffffffffffffffffffffffffffffffffffffff\n      and\n      0xffffffffffffffffffffffffffffffffffffffff\n      and\n      dup2\n      mstore\n      0x20\n      add\n      swap1\n      dup2\n      mstore\n      0x20\n      add\n      0x00\n      keccak256\n      0x00\n      swap1\n      sload\n      swap1\n      0x0100\n      exp\n      swap1\n      div\n      0xffffffffffffffffffffffffffffffffffffffff\n      and\n        /* \"contracts/Lottery.sol\":5654:5689  referrals[msg.sender] == address(0) */\n      0xffffffffffffffffffffffffffffffffffffffff\n      and\n      sub\n        /* \"contracts/Lottery.sol\":5650:6538  if (referrals[msg.sender] == address(0)) {... */\n      tag_240\n      jumpi\n        /* \"contracts/Lottery.sol\":5863:5873  msg.sender */\n      caller\n        /* \"contracts/Lottery.sol\":5856:5873  ref == msg.sender */\n      0xffffffffffffffffffffffffffffffffffffffff\n      and\n        /* \"contracts/Lottery.sol\":5856:5859  ref */\n      dup5\n        /* \"contracts/Lottery.sol\":5856:5873  ref == msg.sender */\n      0xffffffffffffffffffffffffffffffffffffffff\n      and\n      eq\n        /* \"contracts/Lottery.sol\":5856:5910  ref == msg.sender ||... */\n      dup1\n      tag_241\n      jumpi\n      pop\n        /* \"contracts/Lottery.sol\":5908:5909  0 */\n      0x00\n        /* \"contracts/Lottery.sol\":5893:5910  ref == address(0) */\n      0xffffffffffffffffffffffffffffffffffffffff\n      and\n        /* \"contracts/Lottery.sol\":5893:5896  ref */\n      dup5\n        /* \"contracts/Lottery.sol\":5893:5910  ref == address(0) */\n      0xffffffffffffffffffffffffffffffffffffffff\n      and\n      eq\n        /* \"contracts/Lottery.sol\":5856:5910  ref == msg.sender ||... */\n    tag_241:\n        /* \"contracts/Lottery.sol\":5856:5960  ref == msg.sender ||... */\n      dup1\n      tag_242\n      jumpi\n      pop\n        /* \"contracts/Lottery.sol\":5931:5940  UsersInfo */\n      0x09\n        /* \"contracts/Lottery.sol\":5931:5952  UsersInfo[msg.sender] */\n      0x00\n        /* \"contracts/Lottery.sol\":5941:5951  msg.sender */\n      caller\n        /* \"contracts/Lottery.sol\":5931:5952  UsersInfo[msg.sender] */\n      0xffffffffffffffffffffffffffffffffffffffff\n      and\n      0xffffffffffffffffffffffffffffffffffffffff\n      and\n      dup2\n      mstore\n      0x20\n      add\n      swap1\n      dup2\n      mstore\n      0x20\n      add\n      0x00\n      keccak256\n        /* \"contracts/Lottery.sol\":5931:5960  UsersInfo[msg.sender].actived */\n      0x03\n      add\n      0x00\n      swap1\n      sload\n      swap1\n      0x0100\n      exp\n      swap1\n      div\n      0xff\n      and\n        /* \"contracts/Lottery.sol\":5930:5960  !UsersInfo[msg.sender].actived */\n      iszero\n        /* \"contracts/Lottery.sol\":5856:5960  ref == msg.sender ||... */\n    tag_242:\n        /* \"contracts/Lottery.sol\":5835:6101  if (... */\n      iszero\n      tag_243\n      jumpi\n        /* \"contracts/Lottery.sol\":6076:6086  DevAddress */\n      0x00\n      dup1\n      sload\n      swap1\n      0x0100\n      exp\n      swap1\n      div\n      0xffffffffffffffffffffffffffffffffffffffff\n      and\n        /* \"contracts/Lottery.sol\":6070:6086  ref = DevAddress */\n      swap4\n      pop\n        /* \"contracts/Lottery.sol\":5835:6101  if (... */\n    tag_243:\n        /* \"contracts/Lottery.sol\":6138:6141  ref */\n      dup4\n        /* \"contracts/Lottery.sol\":6114:6123  referrals */\n      0x0a\n        /* \"contracts/Lottery.sol\":6114:6135  referrals[msg.sender] */\n      0x00\n        /* \"contracts/Lottery.sol\":6124:6134  msg.sender */\n      caller\n        /* \"contracts/Lottery.sol\":6114:6135  referrals[msg.sender] */\n      0xffffffffffffffffffffffffffffffffffffffff\n      and\n      0xffffffffffffffffffffffffffffffffffffffff\n      and\n      dup2\n      mstore\n      0x20\n      add\n      swap1\n      dup2\n      mstore\n      0x20\n      add\n      0x00\n      keccak256\n      0x00\n        /* \"contracts/Lottery.sol\":6114:6141  referrals[msg.sender] = ref */\n      0x0100\n      exp\n      dup2\n      sload\n      dup2\n      0xffffffffffffffffffffffffffffffffffffffff\n      mul\n      not\n      and\n      swap1\n      dup4\n      0xffffffffffffffffffffffffffffffffffffffff\n      and\n      mul\n      or\n      swap1\n      sstore\n      pop\n        /* \"contracts/Lottery.sol\":6265:6275  DevAddress */\n      0x00\n      dup1\n      sload\n      swap1\n      0x0100\n      exp\n      swap1\n      div\n      0xffffffffffffffffffffffffffffffffffffffff\n      and\n        /* \"contracts/Lottery.sol\":6240:6275  referrals[msg.sender] == DevAddress */\n      0xffffffffffffffffffffffffffffffffffffffff\n      and\n        /* \"contracts/Lottery.sol\":6240:6249  referrals */\n      0x0a\n        /* \"contracts/Lottery.sol\":6240:6261  referrals[msg.sender] */\n      0x00\n        /* \"contracts/Lottery.sol\":6250:6260  msg.sender */\n      caller\n        /* \"contracts/Lottery.sol\":6240:6261  referrals[msg.sender] */\n      0xffffffffffffffffffffffffffffffffffffffff\n      and\n      0xffffffffffffffffffffffffffffffffffffffff\n      and\n      dup2\n      mstore\n      0x20\n      add\n      swap1\n      dup2\n      mstore\n      0x20\n      add\n      0x00\n      keccak256\n      0x00\n      swap1\n      sload\n      swap1\n      0x0100\n      exp\n      swap1\n      div\n      0xffffffffffffffffffffffffffffffffffffffff\n      and\n        /* \"contracts/Lottery.sol\":6240:6275  referrals[msg.sender] == DevAddress */\n      0xffffffffffffffffffffffffffffffffffffffff\n      and\n      sub\n        /* \"contracts/Lottery.sol\":6236:6481  if (referrals[msg.sender] == DevAddress) {... */\n      tag_244\n      jumpi\n        /* \"contracts/Lottery.sol\":6308:6317  Refprofit */\n      dup1\n        /* \"contracts/Lottery.sol\":6295:6304  DevProfit */\n      0x01\n      0x00\n        /* \"contracts/Lottery.sol\":6295:6317  DevProfit += Refprofit */\n      dup3\n      dup3\n      sload\n      tag_245\n      swap2\n      swap1\n      tag_69\n      jump\t// in\n    tag_245:\n      swap3\n      pop\n      pop\n      dup2\n      swap1\n      sstore\n      pop\n        /* \"contracts/Lottery.sol\":6236:6481  if (referrals[msg.sender] == DevAddress) {... */\n      jump(tag_246)\n    tag_244:\n        /* \"contracts/Lottery.sol\":6407:6416  Refprofit */\n      dup1\n        /* \"contracts/Lottery.sol\":6356:6365  UsersInfo */\n      0x09\n        /* \"contracts/Lottery.sol\":6356:6388  UsersInfo[referrals[msg.sender]] */\n      0x00\n        /* \"contracts/Lottery.sol\":6366:6375  referrals */\n      0x0a\n        /* \"contracts/Lottery.sol\":6366:6387  referrals[msg.sender] */\n      0x00\n        /* \"contracts/Lottery.sol\":6376:6386  msg.sender */\n      caller\n        /* \"contracts/Lottery.sol\":6366:6387  referrals[msg.sender] */\n      0xffffffffffffffffffffffffffffffffffffffff\n      and\n      0xffffffffffffffffffffffffffffffffffffffff\n      and\n      dup2\n      mstore\n      0x20\n      add\n      swap1\n      dup2\n      mstore\n      0x20\n      add\n      0x00\n      keccak256\n      0x00\n      swap1\n      sload\n      swap1\n      0x0100\n      exp\n      swap1\n      div\n      0xffffffffffffffffffffffffffffffffffffffff\n      and\n        /* \"contracts/Lottery.sol\":6356:6388  UsersInfo[referrals[msg.sender]] */\n      0xffffffffffffffffffffffffffffffffffffffff\n      and\n      0xffffffffffffffffffffffffffffffffffffffff\n      and\n      dup2\n      mstore\n      0x20\n      add\n      swap1\n      dup2\n      mstore\n      0x20\n      add\n      0x00\n      keccak256\n        /* \"contracts/Lottery.sol\":6356:6403  UsersInfo[referrals[msg.sender]].ReferralProfit */\n      0x02\n      add\n      0x00\n        /* \"contracts/Lottery.sol\":6356:6416  UsersInfo[referrals[msg.sender]].ReferralProfit += Refprofit */\n      dup3\n      dup3\n      sload\n      tag_247\n      swap2\n      swap1\n      tag_69\n      jump\t// in\n    tag_247:\n      swap3\n      pop\n      pop\n      dup2\n      swap1\n      sstore\n      pop\n        /* \"contracts/Lottery.sol\":6457:6466  Refprofit */\n      dup1\n        /* \"contracts/Lottery.sol\":6434:6453  TotalReferralProfit */\n      0x07\n      0x00\n        /* \"contracts/Lottery.sol\":6434:6466  TotalReferralProfit += Refprofit */\n      dup3\n      dup3\n      sload\n      tag_248\n      swap2\n      swap1\n      tag_69\n      jump\t// in\n    tag_248:\n      swap3\n      pop\n      pop\n      dup2\n      swap1\n      sstore\n      pop\n        /* \"contracts/Lottery.sol\":6236:6481  if (referrals[msg.sender] == DevAddress) {... */\n    tag_246:\n        /* \"contracts/Lottery.sol\":6512:6527  block.timestamp */\n      timestamp\n        /* \"contracts/Lottery.sol\":6495:6509  LastBuyEggTime */\n      0x08\n        /* \"contracts/Lottery.sol\":6495:6527  LastBuyEggTime = block.timestamp */\n      dup2\n      swap1\n      sstore\n      pop\n        /* \"contracts/Lottery.sol\":5650:6538  if (referrals[msg.sender] == address(0)) {... */\n    tag_240:\n        /* \"contracts/Lottery.sol\":4285:6544  {... */\n      pop\n      pop\n      pop\n        /* \"contracts/Lottery.sol\":4155:6544  function BuyEggs(... */\n      pop\n      pop\n      pop\n      pop\n      jump\t// out\n        /* \"contracts/Lottery.sol\":2170:2200  uint256 public InvestorsProfit */\n    tag_53:\n      sload(0x05)\n      dup2\n      jump\t// out\n        /* \"contracts/Lottery.sol\":12301:13685  function InvestmentWithdrawal(uint256 WithdrawalAmount) external {... */\n    tag_58:\n        /* \"contracts/Lottery.sol\":1547:1554  1 ether */\n      0x0de0b6b3a7640000\n        /* \"contracts/Lottery.sol\":12457:12473  WithdrawalAmount */\n      dup2\n        /* \"contracts/Lottery.sol\":12457:12502  WithdrawalAmount >= Mininum_Investment_amount */\n      lt\n      iszero\n        /* \"contracts/Lottery.sol\":12436:12603  require(... */\n      tag_250\n      jumpi\n      mload(0x40)\n      0x08c379a000000000000000000000000000000000000000000000000000000000\n      dup2\n      mstore\n      0x04\n      add\n      tag_251\n      swap1\n      tag_252\n      jump\t// in\n    tag_251:\n      mload(0x40)\n      dup1\n      swap2\n      sub\n      swap1\n      revert\n    tag_250:\n        /* \"contracts/Lottery.sol\":12691:12707  InvestorsBalance */\n      0x03\n        /* \"contracts/Lottery.sol\":12691:12719  InvestorsBalance[msg.sender] */\n      0x00\n        /* \"contracts/Lottery.sol\":12708:12718  msg.sender */\n      caller\n        /* \"contracts/Lottery.sol\":12691:12719  InvestorsBalance[msg.sender] */\n      0xffffffffffffffffffffffffffffffffffffffff\n      and\n      0xffffffffffffffffffffffffffffffffffffffff\n      and\n      dup2\n      mstore\n      0x20\n      add\n      swap1\n      dup2\n      mstore\n      0x20\n      add\n      0x00\n      keccak256\n        /* \"contracts/Lottery.sol\":12691:12727  InvestorsBalance[msg.sender].balance */\n      0x00\n      add\n      sload\n        /* \"contracts/Lottery.sol\":12671:12687  WithdrawalAmount */\n      dup2\n        /* \"contracts/Lottery.sol\":12671:12727  WithdrawalAmount <= InvestorsBalance[msg.sender].balance */\n      gt\n      iszero\n        /* \"contracts/Lottery.sol\":12650:12781  require(... */\n      tag_253\n      jumpi\n      mload(0x40)\n      0x08c379a000000000000000000000000000000000000000000000000000000000\n      dup2\n      mstore\n      0x04\n      add\n      tag_254\n      swap1\n      tag_255\n      jump\t// in\n    tag_254:\n      mload(0x40)\n      dup1\n      swap2\n      sub\n      swap1\n      revert\n    tag_253:\n        /* \"contracts/Lottery.sol\":13001:13008  1 weeks */\n      0x093a80\n        /* \"contracts/Lottery.sol\":12955:12971  InvestorsBalance */\n      0x03\n        /* \"contracts/Lottery.sol\":12955:12983  InvestorsBalance[msg.sender] */\n      0x00\n        /* \"contracts/Lottery.sol\":12972:12982  msg.sender */\n      caller\n        /* \"contracts/Lottery.sol\":12955:12983  InvestorsBalance[msg.sender] */\n      0xffffffffffffffffffffffffffffffffffffffff\n      and\n      0xffffffffffffffffffffffffffffffffffffffff\n      and\n      dup2\n      mstore\n      0x20\n      add\n      swap1\n      dup2\n      mstore\n      0x20\n      add\n      0x00\n      keccak256\n        /* \"contracts/Lottery.sol\":12955:12998  InvestorsBalance[msg.sender].LastInvestTime */\n      0x01\n      add\n      sload\n        /* \"contracts/Lottery.sol\":12955:13008  InvestorsBalance[msg.sender].LastInvestTime + 1 weeks */\n      tag_256\n      swap2\n      swap1\n      tag_69\n      jump\t// in\n    tag_256:\n        /* \"contracts/Lottery.sol\":12920:12935  block.timestamp */\n      timestamp\n        /* \"contracts/Lottery.sol\":12920:13008  block.timestamp >=... */\n      lt\n      iszero\n        /* \"contracts/Lottery.sol\":12899:13065  require(... */\n      tag_257\n      jumpi\n      mload(0x40)\n      0x08c379a000000000000000000000000000000000000000000000000000000000\n      dup2\n      mstore\n      0x04\n      add\n      tag_258\n      swap1\n      tag_259\n      jump\t// in\n    tag_258:\n      mload(0x40)\n      dup1\n      swap2\n      sub\n      swap1\n      revert\n    tag_257:\n        /* \"contracts/Lottery.sol\":13300:13316  WithdrawalAmount */\n      dup1\n        /* \"contracts/Lottery.sol\":13163:13296  SafeMathsub(... */\n      tag_260\n        /* \"contracts/Lottery.sol\":13192:13213  address(this).balance */\n      selfbalance\n        /* \"contracts/Lottery.sol\":13272:13281  DevProfit */\n      sload(0x01)\n        /* \"contracts/Lottery.sol\":13250:13269  TotalReferralProfit */\n      sload(0x07)\n        /* \"contracts/Lottery.sol\":13232:13247  InvestorsProfit */\n      sload(0x05)\n        /* \"contracts/Lottery.sol\":13232:13269  InvestorsProfit + TotalReferralProfit */\n      tag_261\n      swap2\n      swap1\n      tag_69\n      jump\t// in\n    tag_261:\n        /* \"contracts/Lottery.sol\":13232:13281  InvestorsProfit + TotalReferralProfit + DevProfit */\n      tag_262\n      swap2\n      swap1\n      tag_69\n      jump\t// in\n    tag_262:\n        /* \"contracts/Lottery.sol\":13163:13174  SafeMathsub */\n      tag_71\n        /* \"contracts/Lottery.sol\":13163:13296  SafeMathsub(... */\n      jump\t// in\n    tag_260:\n        /* \"contracts/Lottery.sol\":13163:13316  SafeMathsub(... */\n      lt\n      iszero\n        /* \"contracts/Lottery.sol\":13142:13372  require(... */\n      tag_263\n      jumpi\n      mload(0x40)\n      0x08c379a000000000000000000000000000000000000000000000000000000000\n      dup2\n      mstore\n      0x04\n      add\n      tag_264\n      swap1\n      tag_265\n      jump\t// in\n    tag_264:\n      mload(0x40)\n      dup1\n      swap2\n      sub\n      swap1\n      revert\n    tag_263:\n        /* \"contracts/Lottery.sol\":13483:13499  WithdrawalAmount */\n      dup1\n        /* \"contracts/Lottery.sol\":13443:13459  InvestorsBalance */\n      0x03\n        /* \"contracts/Lottery.sol\":13443:13471  InvestorsBalance[msg.sender] */\n      0x00\n        /* \"contracts/Lottery.sol\":13460:13470  msg.sender */\n      caller\n        /* \"contracts/Lottery.sol\":13443:13471  InvestorsBalance[msg.sender] */\n      0xffffffffffffffffffffffffffffffffffffffff\n      and\n      0xffffffffffffffffffffffffffffffffffffffff\n      and\n      dup2\n      mstore\n      0x20\n      add\n      swap1\n      dup2\n      mstore\n      0x20\n      add\n      0x00\n      keccak256\n        /* \"contracts/Lottery.sol\":13443:13479  InvestorsBalance[msg.sender].balance */\n      0x00\n      add\n      0x00\n        /* \"contracts/Lottery.sol\":13443:13499  InvestorsBalance[msg.sender].balance -= WithdrawalAmount */\n      dup3\n      dup3\n      sload\n      tag_266\n      swap2\n      swap1\n      tag_106\n      jump\t// in\n    tag_266:\n      swap3\n      pop\n      pop\n      dup2\n      swap1\n      sstore\n      pop\n        /* \"contracts/Lottery.sol\":13567:13583  WithdrawalAmount */\n      dup1\n        /* \"contracts/Lottery.sol\":13542:13563  TotalInvestmentAmount */\n      0x04\n      0x00\n        /* \"contracts/Lottery.sol\":13542:13583  TotalInvestmentAmount -= WithdrawalAmount */\n      dup3\n      dup3\n      sload\n      tag_267\n      swap2\n      swap1\n      tag_106\n      jump\t// in\n    tag_267:\n      swap3\n      pop\n      pop\n      dup2\n      swap1\n      sstore\n      pop\n        /* \"contracts/Lottery.sol\":13640:13650  msg.sender */\n      caller\n        /* \"contracts/Lottery.sol\":13632:13660  payable(msg.sender).transfer */\n      0xffffffffffffffffffffffffffffffffffffffff\n      and\n        /* \"contracts/Lottery.sol\":13632:13678  payable(msg.sender).transfer(WithdrawalAmount) */\n      0x08fc\n        /* \"contracts/Lottery.sol\":13661:13677  WithdrawalAmount */\n      dup3\n        /* \"contracts/Lottery.sol\":13632:13678  payable(msg.sender).transfer(WithdrawalAmount) */\n      swap1\n      dup2\n      iszero\n      mul\n      swap1\n      mload(0x40)\n      0x00\n      mload(0x40)\n      dup1\n      dup4\n      sub\n      dup2\n      dup6\n      dup9\n      dup9\n      call\n      swap4\n      pop\n      pop\n      pop\n      pop\n      iszero\n      dup1\n      iszero\n      tag_269\n      jumpi\n      returndatasize\n      0x00\n      dup1\n      returndatacopy\n      revert(0x00, returndatasize)\n    tag_269:\n      pop\n        /* \"contracts/Lottery.sol\":12301:13685  function InvestmentWithdrawal(uint256 WithdrawalAmount) external {... */\n      pop\n      jump\t// out\n        /* \"contracts/Lottery.sol\":15806:16037  function DeveloperWithdrawal() external {... */\n    tag_61:\n        /* \"contracts/Lottery.sol\":15878:15888  DevAddress */\n      0x00\n      dup1\n      sload\n      swap1\n      0x0100\n      exp\n      swap1\n      div\n      0xffffffffffffffffffffffffffffffffffffffff\n      and\n        /* \"contracts/Lottery.sol\":15864:15888  msg.sender == DevAddress */\n      0xffffffffffffffffffffffffffffffffffffffff\n      and\n        /* \"contracts/Lottery.sol\":15864:15874  msg.sender */\n      caller\n        /* \"contracts/Lottery.sol\":15864:15888  msg.sender == DevAddress */\n      0xffffffffffffffffffffffffffffffffffffffff\n      and\n      eq\n        /* \"contracts/Lottery.sol\":15856:15918  require(msg.sender == DevAddress, \"You must be the developer\") */\n      tag_271\n      jumpi\n      mload(0x40)\n      0x08c379a000000000000000000000000000000000000000000000000000000000\n      dup2\n      mstore\n      0x04\n      add\n      tag_272\n      swap1\n      tag_273\n      jump\t// in\n    tag_272:\n      mload(0x40)\n      dup1\n      swap2\n      sub\n      swap1\n      revert\n    tag_271:\n        /* \"contracts/Lottery.sol\":15928:15945  uint256 devprofit */\n      0x00\n        /* \"contracts/Lottery.sol\":15948:15957  DevProfit */\n      sload(0x01)\n        /* \"contracts/Lottery.sol\":15928:15957  uint256 devprofit = DevProfit */\n      swap1\n      pop\n        /* \"contracts/Lottery.sol\":15979:15980  0 */\n      0x00\n        /* \"contracts/Lottery.sol\":15967:15976  DevProfit */\n      0x01\n        /* \"contracts/Lottery.sol\":15967:15980  DevProfit = 0 */\n      dup2\n      swap1\n      sstore\n      pop\n        /* \"contracts/Lottery.sol\":15999:16009  DevAddress */\n      0x00\n      dup1\n      sload\n      swap1\n      0x0100\n      exp\n      swap1\n      div\n      0xffffffffffffffffffffffffffffffffffffffff\n      and\n        /* \"contracts/Lottery.sol\":15991:16019  payable(DevAddress).transfer */\n      0xffffffffffffffffffffffffffffffffffffffff\n      and\n        /* \"contracts/Lottery.sol\":15991:16030  payable(DevAddress).transfer(devprofit) */\n      0x08fc\n        /* \"contracts/Lottery.sol\":16020:16029  devprofit */\n      dup3\n        /* \"contracts/Lottery.sol\":15991:16030  payable(DevAddress).transfer(devprofit) */\n      swap1\n      dup2\n      iszero\n      mul\n      swap1\n      mload(0x40)\n      0x00\n      mload(0x40)\n      dup1\n      dup4\n      sub\n      dup2\n      dup6\n      dup9\n      dup9\n      call\n      swap4\n      pop\n      pop\n      pop\n      pop\n      iszero\n      dup1\n      iszero\n      tag_275\n      jumpi\n      returndatasize\n      0x00\n      dup1\n      returndatacopy\n      revert(0x00, returndatasize)\n    tag_275:\n      pop\n        /* \"contracts/Lottery.sol\":15846:16037  {... */\n      pop\n        /* \"contracts/Lottery.sol\":15806:16037  function DeveloperWithdrawal() external {... */\n      jump\t// out\n        /* \"contracts/Lottery.sol\":3582:3711  function SafeMathsub(uint256 a, uint256 b) internal pure returns (uint256) {... */\n    tag_71:\n        /* \"contracts/Lottery.sol\":3648:3655  uint256 */\n      0x00\n        /* \"contracts/Lottery.sol\":3679:3680  a */\n      dup3\n        /* \"contracts/Lottery.sol\":3674:3675  b */\n      dup3\n        /* \"contracts/Lottery.sol\":3674:3680  b <= a */\n      gt\n      iszero\n        /* \"contracts/Lottery.sol\":3667:3681  assert(b <= a) */\n      tag_277\n      jumpi\n      tag_278\n      tag_279\n      jump\t// in\n    tag_278:\n    tag_277:\n        /* \"contracts/Lottery.sol\":3703:3704  b */\n      dup2\n        /* \"contracts/Lottery.sol\":3699:3700  a */\n      dup4\n        /* \"contracts/Lottery.sol\":3699:3704  a - b */\n      tag_280\n      swap2\n      swap1\n      tag_106\n      jump\t// in\n    tag_280:\n        /* \"contracts/Lottery.sol\":3692:3704  return a - b */\n      swap1\n      pop\n        /* \"contracts/Lottery.sol\":3582:3711  function SafeMathsub(uint256 a, uint256 b) internal pure returns (uint256) {... */\n      swap3\n      swap2\n      pop\n      pop\n      jump\t// out\n        /* \"contracts/Lottery.sol\":3737:3951  function SafeMathmul(uint256 a, uint256 b) internal pure returns (uint256) {... */\n    tag_91:\n        /* \"contracts/Lottery.sol\":3803:3810  uint256 */\n      0x00\n        /* \"contracts/Lottery.sol\":3831:3832  0 */\n      dup1\n        /* \"contracts/Lottery.sol\":3826:3827  a */\n      dup4\n        /* \"contracts/Lottery.sol\":3826:3832  a == 0 */\n      sub\n        /* \"contracts/Lottery.sol\":3822:3867  if (a == 0) {... */\n      tag_282\n      jumpi\n        /* \"contracts/Lottery.sol\":3855:3856  0 */\n      0x00\n        /* \"contracts/Lottery.sol\":3848:3856  return 0 */\n      swap1\n      pop\n      jump(tag_281)\n        /* \"contracts/Lottery.sol\":3822:3867  if (a == 0) {... */\n    tag_282:\n        /* \"contracts/Lottery.sol\":3877:3886  uint256 c */\n      0x00\n        /* \"contracts/Lottery.sol\":3893:3894  b */\n      dup3\n        /* \"contracts/Lottery.sol\":3889:3890  a */\n      dup5\n        /* \"contracts/Lottery.sol\":3889:3894  a * b */\n      tag_283\n      swap2\n      swap1\n      tag_179\n      jump\t// in\n    tag_283:\n        /* \"contracts/Lottery.sol\":3877:3894  uint256 c = a * b */\n      swap1\n      pop\n        /* \"contracts/Lottery.sol\":3923:3924  b */\n      dup3\n        /* \"contracts/Lottery.sol\":3917:3918  a */\n      dup5\n        /* \"contracts/Lottery.sol\":3913:3914  c */\n      dup3\n        /* \"contracts/Lottery.sol\":3913:3918  c / a */\n      tag_284\n      swap2\n      swap1\n      tag_74\n      jump\t// in\n    tag_284:\n        /* \"contracts/Lottery.sol\":3912:3924  (c / a) == b */\n      eq\n        /* \"contracts/Lottery.sol\":3905:3925  assert((c / a) == b) */\n      tag_285\n      jumpi\n      tag_286\n      tag_279\n      jump\t// in\n    tag_286:\n    tag_285:\n        /* \"contracts/Lottery.sol\":3943:3944  c */\n      dup1\n        /* \"contracts/Lottery.sol\":3936:3944  return c */\n      swap2\n      pop\n      pop\n        /* \"contracts/Lottery.sol\":3737:3951  function SafeMathmul(uint256 a, uint256 b) internal pure returns (uint256) {... */\n    tag_281:\n      swap3\n      swap2\n      pop\n      pop\n      jump\t// out\n        /* \"contracts/Lottery.sol\":3977:4129  function SafeMathdiv(uint256 a, uint256 b) internal pure returns (uint256) {... */\n    tag_92:\n        /* \"contracts/Lottery.sol\":4043:4050  uint256 */\n      0x00\n        /* \"contracts/Lottery.sol\":4073:4074  0 */\n      dup1\n        /* \"contracts/Lottery.sol\":4069:4070  b */\n      dup3\n        /* \"contracts/Lottery.sol\":4069:4074  b > 0 */\n      gt\n        /* \"contracts/Lottery.sol\":4062:4075  assert(b > 0) */\n      tag_288\n      jumpi\n      tag_289\n      tag_279\n      jump\t// in\n    tag_289:\n    tag_288:\n        /* \"contracts/Lottery.sol\":4086:4095  uint256 c */\n      0x00\n        /* \"contracts/Lottery.sol\":4102:4103  b */\n      dup3\n        /* \"contracts/Lottery.sol\":4098:4099  a */\n      dup5\n        /* \"contracts/Lottery.sol\":4098:4103  a / b */\n      tag_290\n      swap2\n      swap1\n      tag_74\n      jump\t// in\n    tag_290:\n        /* \"contracts/Lottery.sol\":4086:4103  uint256 c = a / b */\n      swap1\n      pop\n        /* \"contracts/Lottery.sol\":4121:4122  c */\n      dup1\n        /* \"contracts/Lottery.sol\":4114:4122  return c */\n      swap2\n      pop\n      pop\n        /* \"contracts/Lottery.sol\":3977:4129  function SafeMathdiv(uint256 a, uint256 b) internal pure returns (uint256) {... */\n      swap3\n      swap2\n      pop\n      pop\n      jump\t// out\n        /* \"contracts/Lottery.sol\":6594:7176  function GetWinninggrade(uint32 LotteryNum) private pure returns (uint256) {... */\n    tag_171:\n        /* \"contracts/Lottery.sol\":6660:6667  uint256 */\n      0x00\n        /* \"contracts/Lottery.sol\":6696:6704  67108864 */\n      0x04000000\n        /* \"contracts/Lottery.sol\":6683:6693  LotteryNum */\n      dup3\n        /* \"contracts/Lottery.sol\":6683:6704  LotteryNum > 67108864 */\n      0xffffffff\n      and\n      gt\n        /* \"contracts/Lottery.sol\":6679:6714  if (LotteryNum > 67108864) return 0 */\n      iszero\n      tag_292\n      jumpi\n        /* \"contracts/Lottery.sol\":6713:6714  0 */\n      0x00\n        /* \"contracts/Lottery.sol\":6706:6714  return 0 */\n      swap1\n      pop\n      jump(tag_291)\n        /* \"contracts/Lottery.sol\":6679:6714  if (LotteryNum > 67108864) return 0 */\n    tag_292:\n        /* \"contracts/Lottery.sol\":6742:6750  16777216 */\n      0x01000000\n        /* \"contracts/Lottery.sol\":6728:6738  LotteryNum */\n      dup3\n        /* \"contracts/Lottery.sol\":6728:6750  LotteryNum >= 16777216 */\n      0xffffffff\n      and\n      lt\n        /* \"contracts/Lottery.sol\":6724:6761  if (LotteryNum >= 16777216) return 10 */\n      tag_293\n      jumpi\n        /* \"contracts/Lottery.sol\":6759:6761  10 */\n      0x0a\n        /* \"contracts/Lottery.sol\":6752:6761  return 10 */\n      swap1\n      pop\n      jump(tag_291)\n        /* \"contracts/Lottery.sol\":6724:6761  if (LotteryNum >= 16777216) return 10 */\n    tag_293:\n        /* \"contracts/Lottery.sol\":6789:6796  4194304 */\n      0x400000\n        /* \"contracts/Lottery.sol\":6775:6785  LotteryNum */\n      dup3\n        /* \"contracts/Lottery.sol\":6775:6796  LotteryNum >= 4194304 */\n      0xffffffff\n      and\n      lt\n        /* \"contracts/Lottery.sol\":6771:6806  if (LotteryNum >= 4194304) return 9 */\n      tag_294\n      jumpi\n        /* \"contracts/Lottery.sol\":6805:6806  9 */\n      0x09\n        /* \"contracts/Lottery.sol\":6798:6806  return 9 */\n      swap1\n      pop\n      jump(tag_291)\n        /* \"contracts/Lottery.sol\":6771:6806  if (LotteryNum >= 4194304) return 9 */\n    tag_294:\n        /* \"contracts/Lottery.sol\":6834:6841  1048576 */\n      0x100000\n        /* \"contracts/Lottery.sol\":6820:6830  LotteryNum */\n      dup3\n        /* \"contracts/Lottery.sol\":6820:6841  LotteryNum >= 1048576 */\n      0xffffffff\n      and\n      lt\n        /* \"contracts/Lottery.sol\":6816:6851  if (LotteryNum >= 1048576) return 8 */\n      tag_295\n      jumpi\n        /* \"contracts/Lottery.sol\":6850:6851  8 */\n      0x08\n        /* \"contracts/Lottery.sol\":6843:6851  return 8 */\n      swap1\n      pop\n      jump(tag_291)\n        /* \"contracts/Lottery.sol\":6816:6851  if (LotteryNum >= 1048576) return 8 */\n    tag_295:\n        /* \"contracts/Lottery.sol\":6879:6885  262144 */\n      0x040000\n        /* \"contracts/Lottery.sol\":6865:6875  LotteryNum */\n      dup3\n        /* \"contracts/Lottery.sol\":6865:6885  LotteryNum >= 262144 */\n      0xffffffff\n      and\n      lt\n        /* \"contracts/Lottery.sol\":6861:6895  if (LotteryNum >= 262144) return 7 */\n      tag_296\n      jumpi\n        /* \"contracts/Lottery.sol\":6894:6895  7 */\n      0x07\n        /* \"contracts/Lottery.sol\":6887:6895  return 7 */\n      swap1\n      pop\n      jump(tag_291)\n        /* \"contracts/Lottery.sol\":6861:6895  if (LotteryNum >= 262144) return 7 */\n    tag_296:\n        /* \"contracts/Lottery.sol\":6923:6928  65536 */\n      0x010000\n        /* \"contracts/Lottery.sol\":6909:6919  LotteryNum */\n      dup3\n        /* \"contracts/Lottery.sol\":6909:6928  LotteryNum >= 65536 */\n      0xffffffff\n      and\n      lt\n        /* \"contracts/Lottery.sol\":6905:6938  if (LotteryNum >= 65536) return 6 */\n      tag_297\n      jumpi\n        /* \"contracts/Lottery.sol\":6937:6938  6 */\n      0x06\n        /* \"contracts/Lottery.sol\":6930:6938  return 6 */\n      swap1\n      pop\n      jump(tag_291)\n        /* \"contracts/Lottery.sol\":6905:6938  if (LotteryNum >= 65536) return 6 */\n    tag_297:\n        /* \"contracts/Lottery.sol\":6966:6971  16384 */\n      0x4000\n        /* \"contracts/Lottery.sol\":6952:6962  LotteryNum */\n      dup3\n        /* \"contracts/Lottery.sol\":6952:6971  LotteryNum >= 16384 */\n      0xffffffff\n      and\n      lt\n        /* \"contracts/Lottery.sol\":6948:6981  if (LotteryNum >= 16384) return 5 */\n      tag_298\n      jumpi\n        /* \"contracts/Lottery.sol\":6980:6981  5 */\n      0x05\n        /* \"contracts/Lottery.sol\":6973:6981  return 5 */\n      swap1\n      pop\n      jump(tag_291)\n        /* \"contracts/Lottery.sol\":6948:6981  if (LotteryNum >= 16384) return 5 */\n    tag_298:\n        /* \"contracts/Lottery.sol\":7009:7013  4096 */\n      0x1000\n        /* \"contracts/Lottery.sol\":6995:7005  LotteryNum */\n      dup3\n        /* \"contracts/Lottery.sol\":6995:7013  LotteryNum >= 4096 */\n      0xffffffff\n      and\n      lt\n        /* \"contracts/Lottery.sol\":6991:7023  if (LotteryNum >= 4096) return 4 */\n      tag_299\n      jumpi\n        /* \"contracts/Lottery.sol\":7022:7023  4 */\n      0x04\n        /* \"contracts/Lottery.sol\":7015:7023  return 4 */\n      swap1\n      pop\n      jump(tag_291)\n        /* \"contracts/Lottery.sol\":6991:7023  if (LotteryNum >= 4096) return 4 */\n    tag_299:\n        /* \"contracts/Lottery.sol\":7051:7055  1024 */\n      0x0400\n        /* \"contracts/Lottery.sol\":7037:7047  LotteryNum */\n      dup3\n        /* \"contracts/Lottery.sol\":7037:7055  LotteryNum >= 1024 */\n      0xffffffff\n      and\n      lt\n        /* \"contracts/Lottery.sol\":7033:7065  if (LotteryNum >= 1024) return 3 */\n      tag_300\n      jumpi\n        /* \"contracts/Lottery.sol\":7064:7065  3 */\n      0x03\n        /* \"contracts/Lottery.sol\":7057:7065  return 3 */\n      swap1\n      pop\n      jump(tag_291)\n        /* \"contracts/Lottery.sol\":7033:7065  if (LotteryNum >= 1024) return 3 */\n    tag_300:\n        /* \"contracts/Lottery.sol\":7093:7096  256 */\n      0x0100\n        /* \"contracts/Lottery.sol\":7079:7089  LotteryNum */\n      dup3\n        /* \"contracts/Lottery.sol\":7079:7096  LotteryNum >= 256 */\n      0xffffffff\n      and\n      lt\n        /* \"contracts/Lottery.sol\":7075:7170  if (LotteryNum >= 256) {... */\n      tag_301\n      jumpi\n        /* \"contracts/Lottery.sol\":7119:7120  2 */\n      0x02\n        /* \"contracts/Lottery.sol\":7112:7120  return 2 */\n      swap1\n      pop\n      jump(tag_291)\n        /* \"contracts/Lottery.sol\":7075:7170  if (LotteryNum >= 256) {... */\n    tag_301:\n        /* \"contracts/Lottery.sol\":7158:7159  1 */\n      0x01\n        /* \"contracts/Lottery.sol\":7151:7159  return 1 */\n      swap1\n      pop\n        /* \"contracts/Lottery.sol\":6594:7176  function GetWinninggrade(uint32 LotteryNum) private pure returns (uint256) {... */\n    tag_291:\n      swap2\n      swap1\n      pop\n      jump\t// out\n        /* \"contracts/Lottery.sol\":7226:7831  function GetWinningmultiple(uint256 winninginfo)... */\n    tag_177:\n        /* \"contracts/Lottery.sol\":7321:7328  uint256 */\n      0x00\n        /* \"contracts/Lottery.sol\":7363:7364  0 */\n      dup1\n        /* \"contracts/Lottery.sol\":7348:7359  winninginfo */\n      dup3\n        /* \"contracts/Lottery.sol\":7348:7364  winninginfo == 0 */\n      sub\n        /* \"contracts/Lottery.sol\":7344:7374  if (winninginfo == 0) return 0 */\n      tag_304\n      jumpi\n        /* \"contracts/Lottery.sol\":7373:7374  0 */\n      0x00\n        /* \"contracts/Lottery.sol\":7366:7374  return 0 */\n      swap1\n      pop\n      jump(tag_303)\n        /* \"contracts/Lottery.sol\":7344:7374  if (winninginfo == 0) return 0 */\n    tag_304:\n        /* \"contracts/Lottery.sol\":7403:7405  10 */\n      0x0a\n        /* \"contracts/Lottery.sol\":7388:7399  winninginfo */\n      dup3\n        /* \"contracts/Lottery.sol\":7388:7405  winninginfo == 10 */\n      sub\n        /* \"contracts/Lottery.sol\":7384:7415  if (winninginfo == 10) return 5 */\n      tag_305\n      jumpi\n        /* \"contracts/Lottery.sol\":7414:7415  5 */\n      0x05\n        /* \"contracts/Lottery.sol\":7407:7415  return 5 */\n      swap1\n      pop\n      jump(tag_303)\n        /* \"contracts/Lottery.sol\":7384:7415  if (winninginfo == 10) return 5 */\n    tag_305:\n        /* \"contracts/Lottery.sol\":7444:7445  9 */\n      0x09\n        /* \"contracts/Lottery.sol\":7429:7440  winninginfo */\n      dup3\n        /* \"contracts/Lottery.sol\":7429:7445  winninginfo == 9 */\n      sub\n        /* \"contracts/Lottery.sol\":7425:7456  if (winninginfo == 9) return 20 */\n      tag_306\n      jumpi\n        /* \"contracts/Lottery.sol\":7454:7456  20 */\n      0x14\n        /* \"contracts/Lottery.sol\":7447:7456  return 20 */\n      swap1\n      pop\n      jump(tag_303)\n        /* \"contracts/Lottery.sol\":7425:7456  if (winninginfo == 9) return 20 */\n    tag_306:\n        /* \"contracts/Lottery.sol\":7485:7486  8 */\n      0x08\n        /* \"contracts/Lottery.sol\":7470:7481  winninginfo */\n      dup3\n        /* \"contracts/Lottery.sol\":7470:7486  winninginfo == 8 */\n      sub\n        /* \"contracts/Lottery.sol\":7466:7497  if (winninginfo == 8) return 80 */\n      tag_307\n      jumpi\n        /* \"contracts/Lottery.sol\":7495:7497  80 */\n      0x50\n        /* \"contracts/Lottery.sol\":7488:7497  return 80 */\n      swap1\n      pop\n      jump(tag_303)\n        /* \"contracts/Lottery.sol\":7466:7497  if (winninginfo == 8) return 80 */\n    tag_307:\n        /* \"contracts/Lottery.sol\":7526:7527  7 */\n      0x07\n        /* \"contracts/Lottery.sol\":7511:7522  winninginfo */\n      dup3\n        /* \"contracts/Lottery.sol\":7511:7527  winninginfo == 7 */\n      sub\n        /* \"contracts/Lottery.sol\":7507:7539  if (winninginfo == 7) return 320 */\n      tag_308\n      jumpi\n        /* \"contracts/Lottery.sol\":7536:7539  320 */\n      0x0140\n        /* \"contracts/Lottery.sol\":7529:7539  return 320 */\n      swap1\n      pop\n      jump(tag_303)\n        /* \"contracts/Lottery.sol\":7507:7539  if (winninginfo == 7) return 320 */\n    tag_308:\n        /* \"contracts/Lottery.sol\":7568:7569  6 */\n      0x06\n        /* \"contracts/Lottery.sol\":7553:7564  winninginfo */\n      dup3\n        /* \"contracts/Lottery.sol\":7553:7569  winninginfo == 6 */\n      sub\n        /* \"contracts/Lottery.sol\":7549:7582  if (winninginfo == 6) return 1200 */\n      tag_309\n      jumpi\n        /* \"contracts/Lottery.sol\":7578:7582  1200 */\n      0x04b0\n        /* \"contracts/Lottery.sol\":7571:7582  return 1200 */\n      swap1\n      pop\n      jump(tag_303)\n        /* \"contracts/Lottery.sol\":7549:7582  if (winninginfo == 6) return 1200 */\n    tag_309:\n        /* \"contracts/Lottery.sol\":7611:7612  5 */\n      0x05\n        /* \"contracts/Lottery.sol\":7596:7607  winninginfo */\n      dup3\n        /* \"contracts/Lottery.sol\":7596:7612  winninginfo == 5 */\n      sub\n        /* \"contracts/Lottery.sol\":7592:7625  if (winninginfo == 5) return 4800 */\n      tag_310\n      jumpi\n        /* \"contracts/Lottery.sol\":7621:7625  4800 */\n      0x12c0\n        /* \"contracts/Lottery.sol\":7614:7625  return 4800 */\n      swap1\n      pop\n      jump(tag_303)\n        /* \"contracts/Lottery.sol\":7592:7625  if (winninginfo == 5) return 4800 */\n    tag_310:\n        /* \"contracts/Lottery.sol\":7654:7655  4 */\n      0x04\n        /* \"contracts/Lottery.sol\":7639:7650  winninginfo */\n      dup3\n        /* \"contracts/Lottery.sol\":7639:7655  winninginfo == 4 */\n      sub\n        /* \"contracts/Lottery.sol\":7635:7669  if (winninginfo == 4) return 20000 */\n      tag_311\n      jumpi\n        /* \"contracts/Lottery.sol\":7664:7669  20000 */\n      0x4e20\n        /* \"contracts/Lottery.sol\":7657:7669  return 20000 */\n      swap1\n      pop\n      jump(tag_303)\n        /* \"contracts/Lottery.sol\":7635:7669  if (winninginfo == 4) return 20000 */\n    tag_311:\n        /* \"contracts/Lottery.sol\":7698:7699  3 */\n      0x03\n        /* \"contracts/Lottery.sol\":7683:7694  winninginfo */\n      dup3\n        /* \"contracts/Lottery.sol\":7683:7699  winninginfo == 3 */\n      sub\n        /* \"contracts/Lottery.sol\":7679:7714  if (winninginfo == 3) return 100000 */\n      tag_312\n      jumpi\n        /* \"contracts/Lottery.sol\":7708:7714  100000 */\n      0x0186a0\n        /* \"contracts/Lottery.sol\":7701:7714  return 100000 */\n      swap1\n      pop\n      jump(tag_303)\n        /* \"contracts/Lottery.sol\":7679:7714  if (winninginfo == 3) return 100000 */\n    tag_312:\n        /* \"contracts/Lottery.sol\":7743:7744  2 */\n      0x02\n        /* \"contracts/Lottery.sol\":7728:7739  winninginfo */\n      dup3\n        /* \"contracts/Lottery.sol\":7728:7744  winninginfo == 2 */\n      sub\n        /* \"contracts/Lottery.sol\":7724:7759  if (winninginfo == 2) return 500000 */\n      tag_313\n      jumpi\n        /* \"contracts/Lottery.sol\":7753:7759  500000 */\n      0x07a120\n        /* \"contracts/Lottery.sol\":7746:7759  return 500000 */\n      swap1\n      pop\n      jump(tag_303)\n        /* \"contracts/Lottery.sol\":7724:7759  if (winninginfo == 2) return 500000 */\n    tag_313:\n        /* \"contracts/Lottery.sol\":7788:7789  1 */\n      0x01\n        /* \"contracts/Lottery.sol\":7773:7784  winninginfo */\n      dup3\n        /* \"contracts/Lottery.sol\":7773:7789  winninginfo == 1 */\n      sub\n        /* \"contracts/Lottery.sol\":7769:7805  if (winninginfo == 1) return 2000000 */\n      tag_314\n      jumpi\n        /* \"contracts/Lottery.sol\":7798:7805  2000000 */\n      0x1e8480\n        /* \"contracts/Lottery.sol\":7791:7805  return 2000000 */\n      swap1\n      pop\n      jump(tag_303)\n        /* \"contracts/Lottery.sol\":7769:7805  if (winninginfo == 1) return 2000000 */\n    tag_314:\n        /* \"contracts/Lottery.sol\":7823:7824  0 */\n      0x00\n        /* \"contracts/Lottery.sol\":7816:7824  return 0 */\n      swap1\n      pop\n        /* \"contracts/Lottery.sol\":7226:7831  function GetWinningmultiple(uint256 winninginfo)... */\n    tag_303:\n      swap2\n      swap1\n      pop\n      jump\t// out\n    tag_117:\n      mload(0x40)\n      dup1\n      0x80\n      add\n      0x40\n      mstore\n      dup1\n      and(0xffffffff, 0x00)\n      dup2\n      mstore\n      0x20\n      add\n      and(0xff, 0x00)\n      dup2\n      mstore\n      0x20\n      add\n      0x00\n      dup2\n      mstore\n      0x20\n      add\n      and(0xffffffffffffffffffffffffffffffffffffffff, 0x00)\n      dup2\n      mstore\n      pop\n      swap1\n      jump\t// out\n    tag_154:\n      pop\n      dup1\n      sload\n      0x00\n      dup3\n      sstore\n      swap1\n      0x00\n      mstore\n      keccak256(0x00, 0x20)\n      swap1\n      dup2\n      add\n      swap1\n      tag_316\n      swap2\n      swap1\n      tag_317\n      jump\t// in\n    tag_316:\n      pop\n      jump\t// out\n    tag_191:\n      pop\n      dup1\n      sload\n      0x00\n      dup3\n      sstore\n      0x02\n      mul\n      swap1\n      0x00\n      mstore\n      keccak256(0x00, 0x20)\n      swap1\n      dup2\n      add\n      swap1\n      tag_319\n      swap2\n      swap1\n      tag_320\n      jump\t// in\n    tag_319:\n      pop\n      jump\t// out\n    tag_317:\n    tag_321:\n      dup1\n      dup3\n      gt\n      iszero\n      tag_322\n      jumpi\n      0x00\n      dup1\n      dup3\n      add\n      exp(0x0100, 0x00)\n      dup2\n      sload\n      swap1\n      0xffffffff\n      mul\n      not\n      and\n      swap1\n      sstore\n      0x00\n      dup3\n      add\n      exp(0x0100, 0x04)\n      dup2\n      sload\n      swap1\n      0xff\n      mul\n      not\n      and\n      swap1\n      sstore\n      pop\n      0x01\n      add\n      jump(tag_321)\n    tag_322:\n      pop\n      swap1\n      jump\t// out\n    tag_320:\n    tag_323:\n      dup1\n      dup3\n      gt\n      iszero\n      tag_324\n      jumpi\n      0x00\n      dup1\n      dup3\n      add\n      0x00\n      swap1\n      sstore\n      0x01\n      dup3\n      add\n      exp(0x0100, 0x00)\n      dup2\n      sload\n      swap1\n      0xff\n      mul\n      not\n      and\n      swap1\n      sstore\n      0x01\n      dup3\n      add\n      exp(0x0100, 0x01)\n      dup2\n      sload\n      swap1\n      0xffffffffffffffffffffffffffffffffffffffffffffffffffffffffffffff\n      mul\n      not\n      and\n      swap1\n      sstore\n      pop\n      0x02\n      add\n      jump(tag_323)\n    tag_324:\n      pop\n      swap1\n      jump\t// out\n        /* \"#utility.yul\":88:205   */\n    tag_326:\n        /* \"#utility.yul\":197:198   */\n      0x00\n        /* \"#utility.yul\":194:195   */\n      dup1\n        /* \"#utility.yul\":187:199   */\n      revert\n        /* \"#utility.yul\":334:411   */\n    tag_328:\n        /* \"#utility.yul\":371:378   */\n      0x00\n        /* \"#utility.yul\":400:405   */\n      dup2\n        /* \"#utility.yul\":389:405   */\n      swap1\n      pop\n        /* \"#utility.yul\":334:411   */\n      swap2\n      swap1\n      pop\n      jump\t// out\n        /* \"#utility.yul\":417:539   */\n    tag_329:\n        /* \"#utility.yul\":490:514   */\n      tag_410\n        /* \"#utility.yul\":508:513   */\n      dup2\n        /* \"#utility.yul\":490:514   */\n      tag_328\n      jump\t// in\n    tag_410:\n        /* \"#utility.yul\":483:488   */\n      dup2\n        /* \"#utility.yul\":480:515   */\n      eq\n        /* \"#utility.yul\":470:533   */\n      tag_411\n      jumpi\n        /* \"#utility.yul\":529:530   */\n      0x00\n        /* \"#utility.yul\":526:527   */\n      dup1\n        /* \"#utility.yul\":519:531   */\n      revert\n        /* \"#utility.yul\":470:533   */\n    tag_411:\n        /* \"#utility.yul\":417:539   */\n      pop\n      jump\t// out\n        /* \"#utility.yul\":545:684   */\n    tag_330:\n        /* \"#utility.yul\":591:596   */\n      0x00\n        /* \"#utility.yul\":629:635   */\n      dup2\n        /* \"#utility.yul\":616:636   */\n      calldataload\n        /* \"#utility.yul\":607:636   */\n      swap1\n      pop\n        /* \"#utility.yul\":645:678   */\n      tag_413\n        /* \"#utility.yul\":672:677   */\n      dup2\n        /* \"#utility.yul\":645:678   */\n      tag_329\n      jump\t// in\n    tag_413:\n        /* \"#utility.yul\":545:684   */\n      swap3\n      swap2\n      pop\n      pop\n      jump\t// out\n        /* \"#utility.yul\":690:1019   */\n    tag_24:\n        /* \"#utility.yul\":749:755   */\n      0x00\n        /* \"#utility.yul\":798:800   */\n      0x20\n        /* \"#utility.yul\":786:795   */\n      dup3\n        /* \"#utility.yul\":777:784   */\n      dup5\n        /* \"#utility.yul\":773:796   */\n      sub\n        /* \"#utility.yul\":769:801   */\n      slt\n        /* \"#utility.yul\":766:885   */\n      iszero\n      tag_415\n      jumpi\n        /* \"#utility.yul\":804:883   */\n      tag_416\n      tag_326\n      jump\t// in\n    tag_416:\n        /* \"#utility.yul\":766:885   */\n    tag_415:\n        /* \"#utility.yul\":924:925   */\n      0x00\n        /* \"#utility.yul\":949:1002   */\n      tag_417\n        /* \"#utility.yul\":994:1001   */\n      dup5\n        /* \"#utility.yul\":985:991   */\n      dup3\n        /* \"#utility.yul\":974:983   */\n      dup6\n        /* \"#utility.yul\":970:992   */\n      add\n        /* \"#utility.yul\":949:1002   */\n      tag_330\n      jump\t// in\n    tag_417:\n        /* \"#utility.yul\":939:1002   */\n      swap2\n      pop\n        /* \"#utility.yul\":895:1012   */\n      pop\n        /* \"#utility.yul\":690:1019   */\n      swap3\n      swap2\n      pop\n      pop\n      jump\t// out\n        /* \"#utility.yul\":1025:1166   */\n    tag_331:\n        /* \"#utility.yul\":1119:1125   */\n      0x00\n        /* \"#utility.yul\":1153:1158   */\n      dup2\n        /* \"#utility.yul\":1147:1159   */\n      mload\n        /* \"#utility.yul\":1137:1159   */\n      swap1\n      pop\n        /* \"#utility.yul\":1025:1166   */\n      swap2\n      swap1\n      pop\n      jump\t// out\n        /* \"#utility.yul\":1172:1383   */\n    tag_332:\n        /* \"#utility.yul\":1298:1309   */\n      0x00\n        /* \"#utility.yul\":1332:1338   */\n      dup3\n        /* \"#utility.yul\":1327:1330   */\n      dup3\n        /* \"#utility.yul\":1320:1339   */\n      mstore\n        /* \"#utility.yul\":1372:1376   */\n      0x20\n        /* \"#utility.yul\":1367:1370   */\n      dup3\n        /* \"#utility.yul\":1363:1377   */\n      add\n        /* \"#utility.yul\":1348:1377   */\n      swap1\n      pop\n        /* \"#utility.yul\":1172:1383   */\n      swap3\n      swap2\n      pop\n      pop\n      jump\t// out\n        /* \"#utility.yul\":1389:1548   */\n    tag_333:\n        /* \"#utility.yul\":1483:1487   */\n      0x00\n        /* \"#utility.yul\":1506:1509   */\n      dup2\n        /* \"#utility.yul\":1498:1509   */\n      swap1\n      pop\n        /* \"#utility.yul\":1536:1540   */\n      0x20\n        /* \"#utility.yul\":1531:1534   */\n      dup3\n        /* \"#utility.yul\":1527:1541   */\n      add\n        /* \"#utility.yul\":1519:1541   */\n      swap1\n      pop\n        /* \"#utility.yul\":1389:1548   */\n      swap2\n      swap1\n      pop\n      jump\t// out\n        /* \"#utility.yul\":1554:1647   */\n    tag_334:\n        /* \"#utility.yul\":1590:1597   */\n      0x00\n        /* \"#utility.yul\":1630:1640   */\n      0xffffffff\n        /* \"#utility.yul\":1623:1628   */\n      dup3\n        /* \"#utility.yul\":1619:1641   */\n      and\n        /* \"#utility.yul\":1608:1641   */\n      swap1\n      pop\n        /* \"#utility.yul\":1554:1647   */\n      swap2\n      swap1\n      pop\n      jump\t// out\n        /* \"#utility.yul\":1653:1758   */\n    tag_335:\n        /* \"#utility.yul\":1728:1751   */\n      tag_423\n        /* \"#utility.yul\":1745:1750   */\n      dup2\n        /* \"#utility.yul\":1728:1751   */\n      tag_334\n      jump\t// in\n    tag_423:\n        /* \"#utility.yul\":1723:1726   */\n      dup3\n        /* \"#utility.yul\":1716:1752   */\n      mstore\n        /* \"#utility.yul\":1653:1758   */\n      pop\n      pop\n      jump\t// out\n        /* \"#utility.yul\":1764:1850   */\n    tag_336:\n        /* \"#utility.yul\":1799:1806   */\n      0x00\n        /* \"#utility.yul\":1839:1843   */\n      0xff\n        /* \"#utility.yul\":1832:1837   */\n      dup3\n        /* \"#utility.yul\":1828:1844   */\n      and\n        /* \"#utility.yul\":1817:1844   */\n      swap1\n      pop\n        /* \"#utility.yul\":1764:1850   */\n      swap2\n      swap1\n      pop\n      jump\t// out\n        /* \"#utility.yul\":1856:1958   */\n    tag_337:\n        /* \"#utility.yul\":1929:1951   */\n      tag_426\n        /* \"#utility.yul\":1945:1950   */\n      dup2\n        /* \"#utility.yul\":1929:1951   */\n      tag_336\n      jump\t// in\n    tag_426:\n        /* \"#utility.yul\":1924:1927   */\n      dup3\n        /* \"#utility.yul\":1917:1952   */\n      mstore\n        /* \"#utility.yul\":1856:1958   */\n      pop\n      pop\n      jump\t// out\n        /* \"#utility.yul\":1964:2072   */\n    tag_338:\n        /* \"#utility.yul\":2041:2065   */\n      tag_428\n        /* \"#utility.yul\":2059:2064   */\n      dup2\n        /* \"#utility.yul\":2041:2065   */\n      tag_328\n      jump\t// in\n    tag_428:\n        /* \"#utility.yul\":2036:2039   */\n      dup3\n        /* \"#utility.yul\":2029:2066   */\n      mstore\n        /* \"#utility.yul\":1964:2072   */\n      pop\n      pop\n      jump\t// out\n        /* \"#utility.yul\":2078:2204   */\n    tag_339:\n        /* \"#utility.yul\":2115:2122   */\n      0x00\n        /* \"#utility.yul\":2155:2197   */\n      0xffffffffffffffffffffffffffffffffffffffff\n        /* \"#utility.yul\":2148:2153   */\n      dup3\n        /* \"#utility.yul\":2144:2198   */\n      and\n        /* \"#utility.yul\":2133:2198   */\n      swap1\n      pop\n        /* \"#utility.yul\":2078:2204   */\n      swap2\n      swap1\n      pop\n      jump\t// out\n        /* \"#utility.yul\":2210:2306   */\n    tag_340:\n        /* \"#utility.yul\":2247:2254   */\n      0x00\n        /* \"#utility.yul\":2276:2300   */\n      tag_431\n        /* \"#utility.yul\":2294:2299   */\n      dup3\n        /* \"#utility.yul\":2276:2300   */\n      tag_339\n      jump\t// in\n    tag_431:\n        /* \"#utility.yul\":2265:2300   */\n      swap1\n      pop\n        /* \"#utility.yul\":2210:2306   */\n      swap2\n      swap1\n      pop\n      jump\t// out\n        /* \"#utility.yul\":2312:2420   */\n    tag_341:\n        /* \"#utility.yul\":2389:2413   */\n      tag_433\n        /* \"#utility.yul\":2407:2412   */\n      dup2\n        /* \"#utility.yul\":2389:2413   */\n      tag_340\n      jump\t// in\n    tag_433:\n        /* \"#utility.yul\":2384:2387   */\n      dup3\n        /* \"#utility.yul\":2377:2414   */\n      mstore\n        /* \"#utility.yul\":2312:2420   */\n      pop\n      pop\n      jump\t// out\n        /* \"#utility.yul\":2498:3353   */\n    tag_342:\n        /* \"#utility.yul\":2639:2643   */\n      0x80\n        /* \"#utility.yul\":2634:2637   */\n      dup3\n        /* \"#utility.yul\":2630:2644   */\n      add\n        /* \"#utility.yul\":2732:2736   */\n      0x00\n        /* \"#utility.yul\":2725:2730   */\n      dup3\n        /* \"#utility.yul\":2721:2737   */\n      add\n        /* \"#utility.yul\":2715:2738   */\n      mload\n        /* \"#utility.yul\":2751:2812   */\n      tag_435\n        /* \"#utility.yul\":2806:2810   */\n      0x00\n        /* \"#utility.yul\":2801:2804   */\n      dup6\n        /* \"#utility.yul\":2797:2811   */\n      add\n        /* \"#utility.yul\":2783:2795   */\n      dup3\n        /* \"#utility.yul\":2751:2812   */\n      tag_335\n      jump\t// in\n    tag_435:\n        /* \"#utility.yul\":2654:2822   */\n      pop\n        /* \"#utility.yul\":2903:2907   */\n      0x20\n        /* \"#utility.yul\":2896:2901   */\n      dup3\n        /* \"#utility.yul\":2892:2908   */\n      add\n        /* \"#utility.yul\":2886:2909   */\n      mload\n        /* \"#utility.yul\":2922:2981   */\n      tag_436\n        /* \"#utility.yul\":2975:2979   */\n      0x20\n        /* \"#utility.yul\":2970:2973   */\n      dup6\n        /* \"#utility.yul\":2966:2980   */\n      add\n        /* \"#utility.yul\":2952:2964   */\n      dup3\n        /* \"#utility.yul\":2922:2981   */\n      tag_337\n      jump\t// in\n    tag_436:\n        /* \"#utility.yul\":2832:2991   */\n      pop\n        /* \"#utility.yul\":3078:3082   */\n      0x40\n        /* \"#utility.yul\":3071:3076   */\n      dup3\n        /* \"#utility.yul\":3067:3083   */\n      add\n        /* \"#utility.yul\":3061:3084   */\n      mload\n        /* \"#utility.yul\":3097:3160   */\n      tag_437\n        /* \"#utility.yul\":3154:3158   */\n      0x40\n        /* \"#utility.yul\":3149:3152   */\n      dup6\n        /* \"#utility.yul\":3145:3159   */\n      add\n        /* \"#utility.yul\":3131:3143   */\n      dup3\n        /* \"#utility.yul\":3097:3160   */\n      tag_338\n      jump\t// in\n    tag_437:\n        /* \"#utility.yul\":3001:3170   */\n      pop\n        /* \"#utility.yul\":3254:3258   */\n      0x60\n        /* \"#utility.yul\":3247:3252   */\n      dup3\n        /* \"#utility.yul\":3243:3259   */\n      add\n        /* \"#utility.yul\":3237:3260   */\n      mload\n        /* \"#utility.yul\":3273:3336   */\n      tag_438\n        /* \"#utility.yul\":3330:3334   */\n      0x60\n        /* \"#utility.yul\":3325:3328   */\n      dup6\n        /* \"#utility.yul\":3321:3335   */\n      add\n        /* \"#utility.yul\":3307:3319   */\n      dup3\n        /* \"#utility.yul\":3273:3336   */\n      tag_341\n      jump\t// in\n    tag_438:\n        /* \"#utility.yul\":3180:3346   */\n      pop\n        /* \"#utility.yul\":2608:3353   */\n      pop\n        /* \"#utility.yul\":2498:3353   */\n      pop\n      pop\n      jump\t// out\n        /* \"#utility.yul\":3359:3646   */\n    tag_343:\n        /* \"#utility.yul\":3482:3492   */\n      0x00\n        /* \"#utility.yul\":3503:3603   */\n      tag_440\n        /* \"#utility.yul\":3599:3602   */\n      dup4\n        /* \"#utility.yul\":3591:3597   */\n      dup4\n        /* \"#utility.yul\":3503:3603   */\n      tag_342\n      jump\t// in\n    tag_440:\n        /* \"#utility.yul\":3635:3639   */\n      0x80\n        /* \"#utility.yul\":3630:3633   */\n      dup4\n        /* \"#utility.yul\":3626:3640   */\n      add\n        /* \"#utility.yul\":3612:3640   */\n      swap1\n      pop\n        /* \"#utility.yul\":3359:3646   */\n      swap3\n      swap2\n      pop\n      pop\n      jump\t// out\n        /* \"#utility.yul\":3652:3792   */\n    tag_344:\n        /* \"#utility.yul\":3749:3753   */\n      0x00\n        /* \"#utility.yul\":3781:3785   */\n      0x20\n        /* \"#utility.yul\":3776:3779   */\n      dup3\n        /* \"#utility.yul\":3772:3786   */\n      add\n        /* \"#utility.yul\":3764:3786   */\n      swap1\n      pop\n        /* \"#utility.yul\":3652:3792   */\n      swap2\n      swap1\n      pop\n      jump\t// out\n        /* \"#utility.yul\":3874:4822   */\n    tag_345:\n        /* \"#utility.yul\":4047:4050   */\n      0x00\n        /* \"#utility.yul\":4076:4157   */\n      tag_443\n        /* \"#utility.yul\":4151:4156   */\n      dup3\n        /* \"#utility.yul\":4076:4157   */\n      tag_331\n      jump\t// in\n    tag_443:\n        /* \"#utility.yul\":4173:4286   */\n      tag_444\n        /* \"#utility.yul\":4279:4285   */\n      dup2\n        /* \"#utility.yul\":4274:4277   */\n      dup6\n        /* \"#utility.yul\":4173:4286   */\n      tag_332\n      jump\t// in\n    tag_444:\n        /* \"#utility.yul\":4166:4286   */\n      swap4\n      pop\n        /* \"#utility.yul\":4310:4393   */\n      tag_445\n        /* \"#utility.yul\":4387:4392   */\n      dup4\n        /* \"#utility.yul\":4310:4393   */\n      tag_333\n      jump\t// in\n    tag_445:\n        /* \"#utility.yul\":4416:4423   */\n      dup1\n        /* \"#utility.yul\":4447:4448   */\n      0x00\n        /* \"#utility.yul\":4432:4797   */\n    tag_446:\n        /* \"#utility.yul\":4457:4463   */\n      dup4\n        /* \"#utility.yul\":4454:4455   */\n      dup2\n        /* \"#utility.yul\":4451:4464   */\n      lt\n        /* \"#utility.yul\":4432:4797   */\n      iszero\n      tag_448\n      jumpi\n        /* \"#utility.yul\":4533:4539   */\n      dup2\n        /* \"#utility.yul\":4527:4540   */\n      mload\n        /* \"#utility.yul\":4560:4677   */\n      tag_449\n        /* \"#utility.yul\":4673:4676   */\n      dup9\n        /* \"#utility.yul\":4658:4671   */\n      dup3\n        /* \"#utility.yul\":4560:4677   */\n      tag_343\n      jump\t// in\n    tag_449:\n        /* \"#utility.yul\":4553:4677   */\n      swap8\n      pop\n        /* \"#utility.yul\":4700:4787   */\n      tag_450\n        /* \"#utility.yul\":4780:4786   */\n      dup4\n        /* \"#utility.yul\":4700:4787   */\n      tag_344\n      jump\t// in\n    tag_450:\n        /* \"#utility.yul\":4690:4787   */\n      swap3\n      pop\n        /* \"#utility.yul\":4492:4797   */\n      pop\n        /* \"#utility.yul\":4479:4480   */\n      0x01\n        /* \"#utility.yul\":4476:4477   */\n      dup2\n        /* \"#utility.yul\":4472:4481   */\n      add\n        /* \"#utility.yul\":4467:4481   */\n      swap1\n      pop\n        /* \"#utility.yul\":4432:4797   */\n      jump(tag_446)\n    tag_448:\n        /* \"#utility.yul\":4436:4450   */\n      pop\n        /* \"#utility.yul\":4813:4816   */\n      dup6\n        /* \"#utility.yul\":4806:4816   */\n      swap4\n      pop\n        /* \"#utility.yul\":4052:4822   */\n      pop\n      pop\n      pop\n        /* \"#utility.yul\":3874:4822   */\n      swap3\n      swap2\n      pop\n      pop\n      jump\t// out\n        /* \"#utility.yul\":4828:5309   */\n    tag_27:\n        /* \"#utility.yul\":5025:5029   */\n      0x00\n        /* \"#utility.yul\":5063:5065   */\n      0x20\n        /* \"#utility.yul\":5052:5061   */\n      dup3\n        /* \"#utility.yul\":5048:5066   */\n      add\n        /* \"#utility.yul\":5040:5066   */\n      swap1\n      pop\n        /* \"#utility.yul\":5112:5121   */\n      dup2\n        /* \"#utility.yul\":5106:5110   */\n      dup2\n        /* \"#utility.yul\":5102:5122   */\n      sub\n        /* \"#utility.yul\":5098:5099   */\n      0x00\n        /* \"#utility.yul\":5087:5096   */\n      dup4\n        /* \"#utility.yul\":5083:5100   */\n      add\n        /* \"#utility.yul\":5076:5123   */\n      mstore\n        /* \"#utility.yul\":5140:5302   */\n      tag_452\n        /* \"#utility.yul\":5297:5301   */\n      dup2\n        /* \"#utility.yul\":5288:5294   */\n      dup5\n        /* \"#utility.yul\":5140:5302   */\n      tag_345\n      jump\t// in\n    tag_452:\n        /* \"#utility.yul\":5132:5302   */\n      swap1\n      pop\n        /* \"#utility.yul\":4828:5309   */\n      swap3\n      swap2\n      pop\n      pop\n      jump\t// out\n        /* \"#utility.yul\":5315:5433   */\n    tag_346:\n        /* \"#utility.yul\":5402:5426   */\n      tag_454\n        /* \"#utility.yul\":5420:5425   */\n      dup2\n        /* \"#utility.yul\":5402:5426   */\n      tag_340\n      jump\t// in\n    tag_454:\n        /* \"#utility.yul\":5397:5400   */\n      dup3\n        /* \"#utility.yul\":5390:5427   */\n      mstore\n        /* \"#utility.yul\":5315:5433   */\n      pop\n      pop\n      jump\t// out\n        /* \"#utility.yul\":5439:5661   */\n    tag_37:\n        /* \"#utility.yul\":5532:5536   */\n      0x00\n        /* \"#utility.yul\":5570:5572   */\n      0x20\n        /* \"#utility.yul\":5559:5568   */\n      dup3\n        /* \"#utility.yul\":5555:5573   */\n      add\n        /* \"#utility.yul\":5547:5573   */\n      swap1\n      pop\n        /* \"#utility.yul\":5583:5654   */\n      tag_456\n        /* \"#utility.yul\":5651:5652   */\n      0x00\n        /* \"#utility.yul\":5640:5649   */\n      dup4\n        /* \"#utility.yul\":5636:5653   */\n      add\n        /* \"#utility.yul\":5627:5633   */\n      dup5\n        /* \"#utility.yul\":5583:5654   */\n      tag_346\n      jump\t// in\n    tag_456:\n        /* \"#utility.yul\":5439:5661   */\n      swap3\n      swap2\n      pop\n      pop\n      jump\t// out\n        /* \"#utility.yul\":5667:5785   */\n    tag_347:\n        /* \"#utility.yul\":5754:5778   */\n      tag_458\n        /* \"#utility.yul\":5772:5777   */\n      dup2\n        /* \"#utility.yul\":5754:5778   */\n      tag_328\n      jump\t// in\n    tag_458:\n        /* \"#utility.yul\":5749:5752   */\n      dup3\n        /* \"#utility.yul\":5742:5779   */\n      mstore\n        /* \"#utility.yul\":5667:5785   */\n      pop\n      pop\n      jump\t// out\n        /* \"#utility.yul\":5791:6013   */\n    tag_42:\n        /* \"#utility.yul\":5884:5888   */\n      0x00\n        /* \"#utility.yul\":5922:5924   */\n      0x20\n        /* \"#utility.yul\":5911:5920   */\n      dup3\n        /* \"#utility.yul\":5907:5925   */\n      add\n        /* \"#utility.yul\":5899:5925   */\n      swap1\n      pop\n        /* \"#utility.yul\":5935:6006   */\n      tag_460\n        /* \"#utility.yul\":6003:6004   */\n      0x00\n        /* \"#utility.yul\":5992:6001   */\n      dup4\n        /* \"#utility.yul\":5988:6005   */\n      add\n        /* \"#utility.yul\":5979:5985   */\n      dup5\n        /* \"#utility.yul\":5935:6006   */\n      tag_347\n      jump\t// in\n    tag_460:\n        /* \"#utility.yul\":5791:6013   */\n      swap3\n      swap2\n      pop\n      pop\n      jump\t// out\n        /* \"#utility.yul\":6019:6108   */\n    tag_348:\n        /* \"#utility.yul\":6055:6062   */\n      0x00\n        /* \"#utility.yul\":6095:6101   */\n      0xffff\n        /* \"#utility.yul\":6088:6093   */\n      dup3\n        /* \"#utility.yul\":6084:6102   */\n      and\n        /* \"#utility.yul\":6073:6102   */\n      swap1\n      pop\n        /* \"#utility.yul\":6019:6108   */\n      swap2\n      swap1\n      pop\n      jump\t// out\n        /* \"#utility.yul\":6114:6234   */\n    tag_349:\n        /* \"#utility.yul\":6186:6209   */\n      tag_463\n        /* \"#utility.yul\":6203:6208   */\n      dup2\n        /* \"#utility.yul\":6186:6209   */\n      tag_348\n      jump\t// in\n    tag_463:\n        /* \"#utility.yul\":6179:6184   */\n      dup2\n        /* \"#utility.yul\":6176:6210   */\n      eq\n        /* \"#utility.yul\":6166:6228   */\n      tag_464\n      jumpi\n        /* \"#utility.yul\":6224:6225   */\n      0x00\n        /* \"#utility.yul\":6221:6222   */\n      dup1\n        /* \"#utility.yul\":6214:6226   */\n      revert\n        /* \"#utility.yul\":6166:6228   */\n    tag_464:\n        /* \"#utility.yul\":6114:6234   */\n      pop\n      jump\t// out\n        /* \"#utility.yul\":6240:6377   */\n    tag_350:\n        /* \"#utility.yul\":6285:6290   */\n      0x00\n        /* \"#utility.yul\":6323:6329   */\n      dup2\n        /* \"#utility.yul\":6310:6330   */\n      calldataload\n        /* \"#utility.yul\":6301:6330   */\n      swap1\n      pop\n        /* \"#utility.yul\":6339:6371   */\n      tag_466\n        /* \"#utility.yul\":6365:6370   */\n      dup2\n        /* \"#utility.yul\":6339:6371   */\n      tag_349\n      jump\t// in\n    tag_466:\n        /* \"#utility.yul\":6240:6377   */\n      swap3\n      swap2\n      pop\n      pop\n      jump\t// out\n        /* \"#utility.yul\":6383:6501   */\n    tag_351:\n        /* \"#utility.yul\":6454:6476   */\n      tag_468\n        /* \"#utility.yul\":6470:6475   */\n      dup2\n        /* \"#utility.yul\":6454:6476   */\n      tag_336\n      jump\t// in\n    tag_468:\n        /* \"#utility.yul\":6447:6452   */\n      dup2\n        /* \"#utility.yul\":6444:6477   */\n      eq\n        /* \"#utility.yul\":6434:6495   */\n      tag_469\n      jumpi\n        /* \"#utility.yul\":6491:6492   */\n      0x00\n        /* \"#utility.yul\":6488:6489   */\n      dup1\n        /* \"#utility.yul\":6481:6493   */\n      revert\n        /* \"#utility.yul\":6434:6495   */\n    tag_469:\n        /* \"#utility.yul\":6383:6501   */\n      pop\n      jump\t// out\n        /* \"#utility.yul\":6507:6642   */\n    tag_352:\n        /* \"#utility.yul\":6551:6556   */\n      0x00\n        /* \"#utility.yul\":6589:6595   */\n      dup2\n        /* \"#utility.yul\":6576:6596   */\n      calldataload\n        /* \"#utility.yul\":6567:6596   */\n      swap1\n      pop\n        /* \"#utility.yul\":6605:6636   */\n      tag_471\n        /* \"#utility.yul\":6630:6635   */\n      dup2\n        /* \"#utility.yul\":6605:6636   */\n      tag_351\n      jump\t// in\n    tag_471:\n        /* \"#utility.yul\":6507:6642   */\n      swap3\n      swap2\n      pop\n      pop\n      jump\t// out\n        /* \"#utility.yul\":6648:6792   */\n    tag_353:\n        /* \"#utility.yul\":6685:6692   */\n      0x00\n        /* \"#utility.yul\":6725:6785   */\n      0xffffffffffffffffffffffffffffffffffffffffffffffffffffffffff\n        /* \"#utility.yul\":6718:6723   */\n      dup3\n        /* \"#utility.yul\":6714:6786   */\n      and\n        /* \"#utility.yul\":6703:6786   */\n      swap1\n      pop\n        /* \"#utility.yul\":6648:6792   */\n      swap2\n      swap1\n      pop\n      jump\t// out\n        /* \"#utility.yul\":6798:6920   */\n    tag_354:\n        /* \"#utility.yul\":6871:6895   */\n      tag_474\n        /* \"#utility.yul\":6889:6894   */\n      dup2\n        /* \"#utility.yul\":6871:6895   */\n      tag_353\n      jump\t// in\n    tag_474:\n        /* \"#utility.yul\":6864:6869   */\n      dup2\n        /* \"#utility.yul\":6861:6896   */\n      eq\n        /* \"#utility.yul\":6851:6914   */\n      tag_475\n      jumpi\n        /* \"#utility.yul\":6910:6911   */\n      0x00\n        /* \"#utility.yul\":6907:6908   */\n      dup1\n        /* \"#utility.yul\":6900:6912   */\n      revert\n        /* \"#utility.yul\":6851:6914   */\n    tag_475:\n        /* \"#utility.yul\":6798:6920   */\n      pop\n      jump\t// out\n        /* \"#utility.yul\":6926:7065   */\n    tag_355:\n        /* \"#utility.yul\":6972:6977   */\n      0x00\n        /* \"#utility.yul\":7010:7016   */\n      dup2\n        /* \"#utility.yul\":6997:7017   */\n      calldataload\n        /* \"#utility.yul\":6988:7017   */\n      swap1\n      pop\n        /* \"#utility.yul\":7026:7059   */\n      tag_477\n        /* \"#utility.yul\":7053:7058   */\n      dup2\n        /* \"#utility.yul\":7026:7059   */\n      tag_354\n      jump\t// in\n    tag_477:\n        /* \"#utility.yul\":6926:7065   */\n      swap3\n      swap2\n      pop\n      pop\n      jump\t// out\n        /* \"#utility.yul\":7071:7193   */\n    tag_356:\n        /* \"#utility.yul\":7144:7168   */\n      tag_479\n        /* \"#utility.yul\":7162:7167   */\n      dup2\n        /* \"#utility.yul\":7144:7168   */\n      tag_340\n      jump\t// in\n    tag_479:\n        /* \"#utility.yul\":7137:7142   */\n      dup2\n        /* \"#utility.yul\":7134:7169   */\n      eq\n        /* \"#utility.yul\":7124:7187   */\n      tag_480\n      jumpi\n        /* \"#utility.yul\":7183:7184   */\n      0x00\n        /* \"#utility.yul\":7180:7181   */\n      dup1\n        /* \"#utility.yul\":7173:7185   */\n      revert\n        /* \"#utility.yul\":7124:7187   */\n    tag_480:\n        /* \"#utility.yul\":7071:7193   */\n      pop\n      jump\t// out\n        /* \"#utility.yul\":7199:7338   */\n    tag_357:\n        /* \"#utility.yul\":7245:7250   */\n      0x00\n        /* \"#utility.yul\":7283:7289   */\n      dup2\n        /* \"#utility.yul\":7270:7290   */\n      calldataload\n        /* \"#utility.yul\":7261:7290   */\n      swap1\n      pop\n        /* \"#utility.yul\":7299:7332   */\n      tag_482\n        /* \"#utility.yul\":7326:7331   */\n      dup2\n        /* \"#utility.yul\":7299:7332   */\n      tag_356\n      jump\t// in\n    tag_482:\n        /* \"#utility.yul\":7199:7338   */\n      swap3\n      swap2\n      pop\n      pop\n      jump\t// out\n        /* \"#utility.yul\":7344:8103   */\n    tag_49:\n        /* \"#utility.yul\":7427:7433   */\n      0x00\n        /* \"#utility.yul\":7435:7441   */\n      dup1\n        /* \"#utility.yul\":7443:7449   */\n      0x00\n        /* \"#utility.yul\":7451:7457   */\n      dup1\n        /* \"#utility.yul\":7500:7503   */\n      0x80\n        /* \"#utility.yul\":7488:7497   */\n      dup6\n        /* \"#utility.yul\":7479:7486   */\n      dup8\n        /* \"#utility.yul\":7475:7498   */\n      sub\n        /* \"#utility.yul\":7471:7504   */\n      slt\n        /* \"#utility.yul\":7468:7588   */\n      iszero\n      tag_484\n      jumpi\n        /* \"#utility.yul\":7507:7586   */\n      tag_485\n      tag_326\n      jump\t// in\n    tag_485:\n        /* \"#utility.yul\":7468:7588   */\n    tag_484:\n        /* \"#utility.yul\":7627:7628   */\n      0x00\n        /* \"#utility.yul\":7652:7704   */\n      tag_486\n        /* \"#utility.yul\":7696:7703   */\n      dup8\n        /* \"#utility.yul\":7687:7693   */\n      dup3\n        /* \"#utility.yul\":7676:7685   */\n      dup9\n        /* \"#utility.yul\":7672:7694   */\n      add\n        /* \"#utility.yul\":7652:7704   */\n      tag_350\n      jump\t// in\n    tag_486:\n        /* \"#utility.yul\":7642:7704   */\n      swap5\n      pop\n        /* \"#utility.yul\":7598:7714   */\n      pop\n        /* \"#utility.yul\":7753:7755   */\n      0x20\n        /* \"#utility.yul\":7779:7830   */\n      tag_487\n        /* \"#utility.yul\":7822:7829   */\n      dup8\n        /* \"#utility.yul\":7813:7819   */\n      dup3\n        /* \"#utility.yul\":7802:7811   */\n      dup9\n        /* \"#utility.yul\":7798:7820   */\n      add\n        /* \"#utility.yul\":7779:7830   */\n      tag_352\n      jump\t// in\n    tag_487:\n        /* \"#utility.yul\":7769:7830   */\n      swap4\n      pop\n        /* \"#utility.yul\":7724:7840   */\n      pop\n        /* \"#utility.yul\":7879:7881   */\n      0x40\n        /* \"#utility.yul\":7905:7958   */\n      tag_488\n        /* \"#utility.yul\":7950:7957   */\n      dup8\n        /* \"#utility.yul\":7941:7947   */\n      dup3\n        /* \"#utility.yul\":7930:7939   */\n      dup9\n        /* \"#utility.yul\":7926:7948   */\n      add\n        /* \"#utility.yul\":7905:7958   */\n      tag_355\n      jump\t// in\n    tag_488:\n        /* \"#utility.yul\":7895:7958   */\n      swap3\n      pop\n        /* \"#utility.yul\":7850:7968   */\n      pop\n        /* \"#utility.yul\":8007:8009   */\n      0x60\n        /* \"#utility.yul\":8033:8086   */\n      tag_489\n        /* \"#utility.yul\":8078:8085   */\n      dup8\n        /* \"#utility.yul\":8069:8075   */\n      dup3\n        /* \"#utility.yul\":8058:8067   */\n      dup9\n        /* \"#utility.yul\":8054:8076   */\n      add\n        /* \"#utility.yul\":8033:8086   */\n      tag_357\n      jump\t// in\n    tag_489:\n        /* \"#utility.yul\":8023:8086   */\n      swap2\n      pop\n        /* \"#utility.yul\":7978:8096   */\n      pop\n        /* \"#utility.yul\":7344:8103   */\n      swap3\n      swap6\n      swap2\n      swap5\n      pop\n      swap3\n      pop\n      jump\t// out\n        /* \"#utility.yul\":8109:8278   */\n    tag_358:\n        /* \"#utility.yul\":8193:8204   */\n      0x00\n        /* \"#utility.yul\":8227:8233   */\n      dup3\n        /* \"#utility.yul\":8222:8225   */\n      dup3\n        /* \"#utility.yul\":8215:8234   */\n      mstore\n        /* \"#utility.yul\":8267:8271   */\n      0x20\n        /* \"#utility.yul\":8262:8265   */\n      dup3\n        /* \"#utility.yul\":8258:8272   */\n      add\n        /* \"#utility.yul\":8243:8272   */\n      swap1\n      pop\n        /* \"#utility.yul\":8109:8278   */\n      swap3\n      swap2\n      pop\n      pop\n      jump\t// out\n        /* \"#utility.yul\":8284:8456   */\n    tag_359:\n        /* \"#utility.yul\":8424:8448   */\n      0x596f75206d757374206265206120696e766573746f7200000000000000000000\n        /* \"#utility.yul\":8420:8421   */\n      0x00\n        /* \"#utility.yul\":8412:8418   */\n      dup3\n        /* \"#utility.yul\":8408:8422   */\n      add\n        /* \"#utility.yul\":8401:8449   */\n      mstore\n        /* \"#utility.yul\":8284:8456   */\n      pop\n      jump\t// out\n        /* \"#utility.yul\":8462:8828   */\n    tag_360:\n        /* \"#utility.yul\":8604:8607   */\n      0x00\n        /* \"#utility.yul\":8625:8692   */\n      tag_493\n        /* \"#utility.yul\":8689:8691   */\n      0x16\n        /* \"#utility.yul\":8684:8687   */\n      dup4\n        /* \"#utility.yul\":8625:8692   */\n      tag_358\n      jump\t// in\n    tag_493:\n        /* \"#utility.yul\":8618:8692   */\n      swap2\n      pop\n        /* \"#utility.yul\":8701:8794   */\n      tag_494\n        /* \"#utility.yul\":8790:8793   */\n      dup3\n        /* \"#utility.yul\":8701:8794   */\n      tag_359\n      jump\t// in\n    tag_494:\n        /* \"#utility.yul\":8819:8821   */\n      0x20\n        /* \"#utility.yul\":8814:8817   */\n      dup3\n        /* \"#utility.yul\":8810:8822   */\n      add\n        /* \"#utility.yul\":8803:8822   */\n      swap1\n      pop\n        /* \"#utility.yul\":8462:8828   */\n      swap2\n      swap1\n      pop\n      jump\t// out\n        /* \"#utility.yul\":8834:9253   */\n    tag_66:\n        /* \"#utility.yul\":9000:9004   */\n      0x00\n        /* \"#utility.yul\":9038:9040   */\n      0x20\n        /* \"#utility.yul\":9027:9036   */\n      dup3\n        /* \"#utility.yul\":9023:9041   */\n      add\n        /* \"#utility.yul\":9015:9041   */\n      swap1\n      pop\n        /* \"#utility.yul\":9087:9096   */\n      dup2\n        /* \"#utility.yul\":9081:9085   */\n      dup2\n        /* \"#utility.yul\":9077:9097   */\n      sub\n        /* \"#utility.yul\":9073:9074   */\n      0x00\n        /* \"#utility.yul\":9062:9071   */\n      dup4\n        /* \"#utility.yul\":9058:9075   */\n      add\n        /* \"#utility.yul\":9051:9098   */\n      mstore\n        /* \"#utility.yul\":9115:9246   */\n      tag_496\n        /* \"#utility.yul\":9241:9245   */\n      dup2\n        /* \"#utility.yul\":9115:9246   */\n      tag_360\n      jump\t// in\n    tag_496:\n        /* \"#utility.yul\":9107:9246   */\n      swap1\n      pop\n        /* \"#utility.yul\":8834:9253   */\n      swap2\n      swap1\n      pop\n      jump\t// out\n        /* \"#utility.yul\":9259:9439   */\n    tag_361:\n        /* \"#utility.yul\":9307:9384   */\n      0x4e487b7100000000000000000000000000000000000000000000000000000000\n        /* \"#utility.yul\":9304:9305   */\n      0x00\n        /* \"#utility.yul\":9297:9385   */\n      mstore\n        /* \"#utility.yul\":9404:9408   */\n      0x11\n        /* \"#utility.yul\":9401:9402   */\n      0x04\n        /* \"#utility.yul\":9394:9409   */\n      mstore\n        /* \"#utility.yul\":9428:9432   */\n      0x24\n        /* \"#utility.yul\":9425:9426   */\n      0x00\n        /* \"#utility.yul\":9418:9433   */\n      revert\n        /* \"#utility.yul\":9445:9636   */\n    tag_69:\n        /* \"#utility.yul\":9485:9488   */\n      0x00\n        /* \"#utility.yul\":9504:9524   */\n      tag_499\n        /* \"#utility.yul\":9522:9523   */\n      dup3\n        /* \"#utility.yul\":9504:9524   */\n      tag_328\n      jump\t// in\n    tag_499:\n        /* \"#utility.yul\":9499:9524   */\n      swap2\n      pop\n        /* \"#utility.yul\":9538:9558   */\n      tag_500\n        /* \"#utility.yul\":9556:9557   */\n      dup4\n        /* \"#utility.yul\":9538:9558   */\n      tag_328\n      jump\t// in\n    tag_500:\n        /* \"#utility.yul\":9533:9558   */\n      swap3\n      pop\n        /* \"#utility.yul\":9581:9582   */\n      dup3\n        /* \"#utility.yul\":9578:9579   */\n      dup3\n        /* \"#utility.yul\":9574:9583   */\n      add\n        /* \"#utility.yul\":9567:9583   */\n      swap1\n      pop\n        /* \"#utility.yul\":9602:9605   */\n      dup1\n        /* \"#utility.yul\":9599:9600   */\n      dup3\n        /* \"#utility.yul\":9596:9606   */\n      gt\n        /* \"#utility.yul\":9593:9629   */\n      iszero\n      tag_501\n      jumpi\n        /* \"#utility.yul\":9609:9627   */\n      tag_502\n      tag_361\n      jump\t// in\n    tag_502:\n        /* \"#utility.yul\":9593:9629   */\n    tag_501:\n        /* \"#utility.yul\":9445:9636   */\n      swap3\n      swap2\n      pop\n      pop\n      jump\t// out\n        /* \"#utility.yul\":9642:9822   */\n    tag_362:\n        /* \"#utility.yul\":9690:9767   */\n      0x4e487b7100000000000000000000000000000000000000000000000000000000\n        /* \"#utility.yul\":9687:9688   */\n      0x00\n        /* \"#utility.yul\":9680:9768   */\n      mstore\n        /* \"#utility.yul\":9787:9791   */\n      0x12\n        /* \"#utility.yul\":9784:9785   */\n      0x04\n        /* \"#utility.yul\":9777:9792   */\n      mstore\n        /* \"#utility.yul\":9811:9815   */\n      0x24\n        /* \"#utility.yul\":9808:9809   */\n      0x00\n        /* \"#utility.yul\":9801:9816   */\n      revert\n        /* \"#utility.yul\":9828:10013   */\n    tag_74:\n        /* \"#utility.yul\":9868:9869   */\n      0x00\n        /* \"#utility.yul\":9885:9905   */\n      tag_505\n        /* \"#utility.yul\":9903:9904   */\n      dup3\n        /* \"#utility.yul\":9885:9905   */\n      tag_328\n      jump\t// in\n    tag_505:\n        /* \"#utility.yul\":9880:9905   */\n      swap2\n      pop\n        /* \"#utility.yul\":9919:9939   */\n      tag_506\n        /* \"#utility.yul\":9937:9938   */\n      dup4\n        /* \"#utility.yul\":9919:9939   */\n      tag_328\n      jump\t// in\n    tag_506:\n        /* \"#utility.yul\":9914:9939   */\n      swap3\n      pop\n        /* \"#utility.yul\":9958:9959   */\n      dup3\n        /* \"#utility.yul\":9948:9983   */\n      tag_507\n      jumpi\n        /* \"#utility.yul\":9963:9981   */\n      tag_508\n      tag_362\n      jump\t// in\n    tag_508:\n        /* \"#utility.yul\":9948:9983   */\n    tag_507:\n        /* \"#utility.yul\":10005:10006   */\n      dup3\n        /* \"#utility.yul\":10002:10003   */\n      dup3\n        /* \"#utility.yul\":9998:10007   */\n      div\n        /* \"#utility.yul\":9993:10007   */\n      swap1\n      pop\n        /* \"#utility.yul\":9828:10013   */\n      swap3\n      swap2\n      pop\n      pop\n      jump\t// out\n        /* \"#utility.yul\":10019:10199   */\n    tag_83:\n        /* \"#utility.yul\":10067:10144   */\n      0x4e487b7100000000000000000000000000000000000000000000000000000000\n        /* \"#utility.yul\":10064:10065   */\n      0x00\n        /* \"#utility.yul\":10057:10145   */\n      mstore\n        /* \"#utility.yul\":10164:10168   */\n      0x32\n        /* \"#utility.yul\":10161:10162   */\n      0x04\n        /* \"#utility.yul\":10154:10169   */\n      mstore\n        /* \"#utility.yul\":10188:10192   */\n      0x24\n        /* \"#utility.yul\":10185:10186   */\n      0x00\n        /* \"#utility.yul\":10178:10193   */\n      revert\n        /* \"#utility.yul\":10205:10385   */\n    tag_363:\n        /* \"#utility.yul\":10345:10377   */\n      0x4e6f7420656e6f7567682070726f66697420746f207769746864726177210000\n        /* \"#utility.yul\":10341:10342   */\n      0x00\n        /* \"#utility.yul\":10333:10339   */\n      dup3\n        /* \"#utility.yul\":10329:10343   */\n      add\n        /* \"#utility.yul\":10322:10378   */\n      mstore\n        /* \"#utility.yul\":10205:10385   */\n      pop\n      jump\t// out\n        /* \"#utility.yul\":10391:10757   */\n    tag_364:\n        /* \"#utility.yul\":10533:10536   */\n      0x00\n        /* \"#utility.yul\":10554:10621   */\n      tag_512\n        /* \"#utility.yul\":10618:10620   */\n      0x1e\n        /* \"#utility.yul\":10613:10616   */\n      dup4\n        /* \"#utility.yul\":10554:10621   */\n      tag_358\n      jump\t// in\n    tag_512:\n        /* \"#utility.yul\":10547:10621   */\n      swap2\n      pop\n        /* \"#utility.yul\":10630:10723   */\n      tag_513\n        /* \"#utility.yul\":10719:10722   */\n      dup3\n        /* \"#utility.yul\":10630:10723   */\n      tag_363\n      jump\t// in\n    tag_513:\n        /* \"#utility.yul\":10748:10750   */\n      0x20\n        /* \"#utility.yul\":10743:10746   */\n      dup3\n        /* \"#utility.yul\":10739:10751   */\n      add\n        /* \"#utility.yul\":10732:10751   */\n      swap1\n      pop\n        /* \"#utility.yul\":10391:10757   */\n      swap2\n      swap1\n      pop\n      jump\t// out\n        /* \"#utility.yul\":10763:11182   */\n    tag_104:\n        /* \"#utility.yul\":10929:10933   */\n      0x00\n        /* \"#utility.yul\":10967:10969   */\n      0x20\n        /* \"#utility.yul\":10956:10965   */\n      dup3\n        /* \"#utility.yul\":10952:10970   */\n      add\n        /* \"#utility.yul\":10944:10970   */\n      swap1\n      pop\n        /* \"#utility.yul\":11016:11025   */\n      dup2\n        /* \"#utility.yul\":11010:11014   */\n      dup2\n        /* \"#utility.yul\":11006:11026   */\n      sub\n        /* \"#utility.yul\":11002:11003   */\n      0x00\n        /* \"#utility.yul\":10991:11000   */\n      dup4\n        /* \"#utility.yul\":10987:11004   */\n      add\n        /* \"#utility.yul\":10980:11027   */\n      mstore\n        /* \"#utility.yul\":11044:11175   */\n      tag_515\n        /* \"#utility.yul\":11170:11174   */\n      dup2\n        /* \"#utility.yul\":11044:11175   */\n      tag_364\n      jump\t// in\n    tag_515:\n        /* \"#utility.yul\":11036:11175   */\n      swap1\n      pop\n        /* \"#utility.yul\":10763:11182   */\n      swap2\n      swap1\n      pop\n      jump\t// out\n        /* \"#utility.yul\":11188:11382   */\n    tag_106:\n        /* \"#utility.yul\":11228:11232   */\n      0x00\n        /* \"#utility.yul\":11248:11268   */\n      tag_517\n        /* \"#utility.yul\":11266:11267   */\n      dup3\n        /* \"#utility.yul\":11248:11268   */\n      tag_328\n      jump\t// in\n    tag_517:\n        /* \"#utility.yul\":11243:11268   */\n      swap2\n      pop\n        /* \"#utility.yul\":11282:11302   */\n      tag_518\n        /* \"#utility.yul\":11300:11301   */\n      dup4\n        /* \"#utility.yul\":11282:11302   */\n      tag_328\n      jump\t// in\n    tag_518:\n        /* \"#utility.yul\":11277:11302   */\n      swap3\n      pop\n        /* \"#utility.yul\":11326:11327   */\n      dup3\n        /* \"#utility.yul\":11323:11324   */\n      dup3\n        /* \"#utility.yul\":11319:11328   */\n      sub\n        /* \"#utility.yul\":11311:11328   */\n      swap1\n      pop\n        /* \"#utility.yul\":11350:11351   */\n      dup2\n        /* \"#utility.yul\":11344:11348   */\n      dup2\n        /* \"#utility.yul\":11341:11352   */\n      gt\n        /* \"#utility.yul\":11338:11375   */\n      iszero\n      tag_519\n      jumpi\n        /* \"#utility.yul\":11355:11373   */\n      tag_520\n      tag_361\n      jump\t// in\n    tag_520:\n        /* \"#utility.yul\":11338:11375   */\n    tag_519:\n        /* \"#utility.yul\":11188:11382   */\n      swap3\n      swap2\n      pop\n      pop\n      jump\t// out\n        /* \"#utility.yul\":11388:11568   */\n    tag_113:\n        /* \"#utility.yul\":11436:11513   */\n      0x4e487b7100000000000000000000000000000000000000000000000000000000\n        /* \"#utility.yul\":11433:11434   */\n      0x00\n        /* \"#utility.yul\":11426:11514   */\n      mstore\n        /* \"#utility.yul\":11533:11537   */\n      0x41\n        /* \"#utility.yul\":11530:11531   */\n      0x04\n        /* \"#utility.yul\":11523:11538   */\n      mstore\n        /* \"#utility.yul\":11557:11561   */\n      0x24\n        /* \"#utility.yul\":11554:11555   */\n      0x00\n        /* \"#utility.yul\":11547:11562   */\n      revert\n        /* \"#utility.yul\":11574:11798   */\n    tag_365:\n        /* \"#utility.yul\":11714:11748   */\n      0x496e766573746d656e7420616d6f756e7420626574657765656e203120616e64\n        /* \"#utility.yul\":11710:11711   */\n      0x00\n        /* \"#utility.yul\":11702:11708   */\n      dup3\n        /* \"#utility.yul\":11698:11712   */\n      add\n        /* \"#utility.yul\":11691:11749   */\n      mstore\n        /* \"#utility.yul\":11783:11790   */\n      0x2031303030000000000000000000000000000000000000000000000000000000\n        /* \"#utility.yul\":11778:11780   */\n      0x20\n        /* \"#utility.yul\":11770:11776   */\n      dup3\n        /* \"#utility.yul\":11766:11781   */\n      add\n        /* \"#utility.yul\":11759:11791   */\n      mstore\n        /* \"#utility.yul\":11574:11798   */\n      pop\n      jump\t// out\n        /* \"#utility.yul\":11804:12170   */\n    tag_366:\n        /* \"#utility.yul\":11946:11949   */\n      0x00\n        /* \"#utility.yul\":11967:12034   */\n      tag_524\n        /* \"#utility.yul\":12031:12033   */\n      0x25\n        /* \"#utility.yul\":12026:12029   */\n      dup4\n        /* \"#utility.yul\":11967:12034   */\n      tag_358\n      jump\t// in\n    tag_524:\n        /* \"#utility.yul\":11960:12034   */\n      swap2\n      pop\n        /* \"#utility.yul\":12043:12136   */\n      tag_525\n        /* \"#utility.yul\":12132:12135   */\n      dup3\n        /* \"#utility.yul\":12043:12136   */\n      tag_365\n      jump\t// in\n    tag_525:\n        /* \"#utility.yul\":12161:12163   */\n      0x40\n        /* \"#utility.yul\":12156:12159   */\n      dup3\n        /* \"#utility.yul\":12152:12164   */\n      add\n        /* \"#utility.yul\":12145:12164   */\n      swap1\n      pop\n        /* \"#utility.yul\":11804:12170   */\n      swap2\n      swap1\n      pop\n      jump\t// out\n        /* \"#utility.yul\":12176:12595   */\n    tag_132:\n        /* \"#utility.yul\":12342:12346   */\n      0x00\n        /* \"#utility.yul\":12380:12382   */\n      0x20\n        /* \"#utility.yul\":12369:12378   */\n      dup3\n        /* \"#utility.yul\":12365:12383   */\n      add\n        /* \"#utility.yul\":12357:12383   */\n      swap1\n      pop\n        /* \"#utility.yul\":12429:12438   */\n      dup2\n        /* \"#utility.yul\":12423:12427   */\n      dup2\n        /* \"#utility.yul\":12419:12439   */\n      sub\n        /* \"#utility.yul\":12415:12416   */\n      0x00\n        /* \"#utility.yul\":12404:12413   */\n      dup4\n        /* \"#utility.yul\":12400:12417   */\n      add\n        /* \"#utility.yul\":12393:12440   */\n      mstore\n        /* \"#utility.yul\":12457:12588   */\n      tag_527\n        /* \"#utility.yul\":12583:12587   */\n      dup2\n        /* \"#utility.yul\":12457:12588   */\n      tag_366\n      jump\t// in\n    tag_527:\n        /* \"#utility.yul\":12449:12588   */\n      swap1\n      pop\n        /* \"#utility.yul\":12176:12595   */\n      swap2\n      swap1\n      pop\n      jump\t// out\n        /* \"#utility.yul\":12601:12825   */\n    tag_367:\n        /* \"#utility.yul\":12741:12775   */\n      0x596f7520646f6e2774206861766520756e64726177206c6f7474657279207469\n        /* \"#utility.yul\":12737:12738   */\n      0x00\n        /* \"#utility.yul\":12729:12735   */\n      dup3\n        /* \"#utility.yul\":12725:12739   */\n      add\n        /* \"#utility.yul\":12718:12776   */\n      mstore\n        /* \"#utility.yul\":12810:12817   */\n      0x636b657473000000000000000000000000000000000000000000000000000000\n        /* \"#utility.yul\":12805:12807   */\n      0x20\n        /* \"#utility.yul\":12797:12803   */\n      dup3\n        /* \"#utility.yul\":12793:12808   */\n      add\n        /* \"#utility.yul\":12786:12818   */\n      mstore\n        /* \"#utility.yul\":12601:12825   */\n      pop\n      jump\t// out\n        /* \"#utility.yul\":12831:13197   */\n    tag_368:\n        /* \"#utility.yul\":12973:12976   */\n      0x00\n        /* \"#utility.yul\":12994:13061   */\n      tag_530\n        /* \"#utility.yul\":13058:13060   */\n      0x25\n        /* \"#utility.yul\":13053:13056   */\n      dup4\n        /* \"#utility.yul\":12994:13061   */\n      tag_358\n      jump\t// in\n    tag_530:\n        /* \"#utility.yul\":12987:13061   */\n      swap2\n      pop\n        /* \"#utility.yul\":13070:13163   */\n      tag_531\n        /* \"#utility.yul\":13159:13162   */\n      dup3\n        /* \"#utility.yul\":13070:13163   */\n      tag_367\n      jump\t// in\n    tag_531:\n        /* \"#utility.yul\":13188:13190   */\n      0x40\n        /* \"#utility.yul\":13183:13186   */\n      dup3\n        /* \"#utility.yul\":13179:13191   */\n      add\n        /* \"#utility.yul\":13172:13191   */\n      swap1\n      pop\n        /* \"#utility.yul\":12831:13197   */\n      swap2\n      swap1\n      pop\n      jump\t// out\n        /* \"#utility.yul\":13203:13622   */\n    tag_144:\n        /* \"#utility.yul\":13369:13373   */\n      0x00\n        /* \"#utility.yul\":13407:13409   */\n      0x20\n        /* \"#utility.yul\":13396:13405   */\n      dup3\n        /* \"#utility.yul\":13392:13410   */\n      add\n        /* \"#utility.yul\":13384:13410   */\n      swap1\n      pop\n        /* \"#utility.yul\":13456:13465   */\n      dup2\n        /* \"#utility.yul\":13450:13454   */\n      dup2\n        /* \"#utility.yul\":13446:13466   */\n      sub\n        /* \"#utility.yul\":13442:13443   */\n      0x00\n        /* \"#utility.yul\":13431:13440   */\n      dup4\n        /* \"#utility.yul\":13427:13444   */\n      add\n        /* \"#utility.yul\":13420:13467   */\n      mstore\n        /* \"#utility.yul\":13484:13615   */\n      tag_533\n        /* \"#utility.yul\":13610:13614   */\n      dup2\n        /* \"#utility.yul\":13484:13615   */\n      tag_368\n      jump\t// in\n    tag_533:\n        /* \"#utility.yul\":13476:13615   */\n      swap1\n      pop\n        /* \"#utility.yul\":13203:13622   */\n      swap2\n      swap1\n      pop\n      jump\t// out\n        /* \"#utility.yul\":13628:13791   */\n    tag_369:\n        /* \"#utility.yul\":13768:13783   */\n      0x49742773206e6f742074696d6500000000000000000000000000000000000000\n        /* \"#utility.yul\":13764:13765   */\n      0x00\n        /* \"#utility.yul\":13756:13762   */\n      dup3\n        /* \"#utility.yul\":13752:13766   */\n      add\n        /* \"#utility.yul\":13745:13784   */\n      mstore\n        /* \"#utility.yul\":13628:13791   */\n      pop\n      jump\t// out\n        /* \"#utility.yul\":13797:14163   */\n    tag_370:\n        /* \"#utility.yul\":13939:13942   */\n      0x00\n        /* \"#utility.yul\":13960:14027   */\n      tag_536\n        /* \"#utility.yul\":14024:14026   */\n      0x0d\n        /* \"#utility.yul\":14019:14022   */\n      dup4\n        /* \"#utility.yul\":13960:14027   */\n      tag_358\n      jump\t// in\n    tag_536:\n        /* \"#utility.yul\":13953:14027   */\n      swap2\n      pop\n        /* \"#utility.yul\":14036:14129   */\n      tag_537\n        /* \"#utility.yul\":14125:14128   */\n      dup3\n        /* \"#utility.yul\":14036:14129   */\n      tag_369\n      jump\t// in\n    tag_537:\n        /* \"#utility.yul\":14154:14156   */\n      0x20\n        /* \"#utility.yul\":14149:14152   */\n      dup3\n        /* \"#utility.yul\":14145:14157   */\n      add\n        /* \"#utility.yul\":14138:14157   */\n      swap1\n      pop\n        /* \"#utility.yul\":13797:14163   */\n      swap2\n      swap1\n      pop\n      jump\t// out\n        /* \"#utility.yul\":14169:14588   */\n    tag_151:\n        /* \"#utility.yul\":14335:14339   */\n      0x00\n        /* \"#utility.yul\":14373:14375   */\n      0x20\n        /* \"#utility.yul\":14362:14371   */\n      dup3\n        /* \"#utility.yul\":14358:14376   */\n      add\n        /* \"#utility.yul\":14350:14376   */\n      swap1\n      pop\n        /* \"#utility.yul\":14422:14431   */\n      dup2\n        /* \"#utility.yul\":14416:14420   */\n      dup2\n        /* \"#utility.yul\":14412:14432   */\n      sub\n        /* \"#utility.yul\":14408:14409   */\n      0x00\n        /* \"#utility.yul\":14397:14406   */\n      dup4\n        /* \"#utility.yul\":14393:14410   */\n      add\n        /* \"#utility.yul\":14386:14433   */\n      mstore\n        /* \"#utility.yul\":14450:14581   */\n      tag_539\n        /* \"#utility.yul\":14576:14580   */\n      dup2\n        /* \"#utility.yul\":14450:14581   */\n      tag_370\n      jump\t// in\n    tag_539:\n        /* \"#utility.yul\":14442:14581   */\n      swap1\n      pop\n        /* \"#utility.yul\":14169:14588   */\n      swap2\n      swap1\n      pop\n      jump\t// out\n        /* \"#utility.yul\":14594:14671   */\n    tag_371:\n        /* \"#utility.yul\":14631:14638   */\n      0x00\n        /* \"#utility.yul\":14660:14665   */\n      dup2\n        /* \"#utility.yul\":14649:14665   */\n      swap1\n      pop\n        /* \"#utility.yul\":14594:14671   */\n      swap2\n      swap1\n      pop\n      jump\t// out\n        /* \"#utility.yul\":14677:14756   */\n    tag_372:\n        /* \"#utility.yul\":14716:14723   */\n      0x00\n        /* \"#utility.yul\":14745:14750   */\n      dup2\n        /* \"#utility.yul\":14734:14750   */\n      swap1\n      pop\n        /* \"#utility.yul\":14677:14756   */\n      swap2\n      swap1\n      pop\n      jump\t// out\n        /* \"#utility.yul\":14762:14919   */\n    tag_373:\n        /* \"#utility.yul\":14867:14912   */\n      tag_543\n        /* \"#utility.yul\":14887:14911   */\n      tag_544\n        /* \"#utility.yul\":14905:14910   */\n      dup3\n        /* \"#utility.yul\":14887:14911   */\n      tag_371\n      jump\t// in\n    tag_544:\n        /* \"#utility.yul\":14867:14912   */\n      tag_372\n      jump\t// in\n    tag_543:\n        /* \"#utility.yul\":14862:14865   */\n      dup3\n        /* \"#utility.yul\":14855:14913   */\n      mstore\n        /* \"#utility.yul\":14762:14919   */\n      pop\n      pop\n      jump\t// out\n        /* \"#utility.yul\":14925:15322   */\n    tag_169:\n        /* \"#utility.yul\":15065:15068   */\n      0x00\n        /* \"#utility.yul\":15080:15155   */\n      tag_546\n        /* \"#utility.yul\":15151:15154   */\n      dup3\n        /* \"#utility.yul\":15142:15148   */\n      dup6\n        /* \"#utility.yul\":15080:15155   */\n      tag_373\n      jump\t// in\n    tag_546:\n        /* \"#utility.yul\":15180:15182   */\n      0x20\n        /* \"#utility.yul\":15175:15178   */\n      dup3\n        /* \"#utility.yul\":15171:15183   */\n      add\n        /* \"#utility.yul\":15164:15183   */\n      swap2\n      pop\n        /* \"#utility.yul\":15193:15268   */\n      tag_547\n        /* \"#utility.yul\":15264:15267   */\n      dup3\n        /* \"#utility.yul\":15255:15261   */\n      dup5\n        /* \"#utility.yul\":15193:15268   */\n      tag_373\n      jump\t// in\n    tag_547:\n        /* \"#utility.yul\":15293:15295   */\n      0x20\n        /* \"#utility.yul\":15288:15291   */\n      dup3\n        /* \"#utility.yul\":15284:15296   */\n      add\n        /* \"#utility.yul\":15277:15296   */\n      swap2\n      pop\n        /* \"#utility.yul\":15313:15316   */\n      dup2\n        /* \"#utility.yul\":15306:15316   */\n      swap1\n      pop\n        /* \"#utility.yul\":14925:15322   */\n      swap4\n      swap3\n      pop\n      pop\n      pop\n      jump\t// out\n        /* \"#utility.yul\":15328:15738   */\n    tag_179:\n        /* \"#utility.yul\":15368:15375   */\n      0x00\n        /* \"#utility.yul\":15391:15411   */\n      tag_549\n        /* \"#utility.yul\":15409:15410   */\n      dup3\n        /* \"#utility.yul\":15391:15411   */\n      tag_328\n      jump\t// in\n    tag_549:\n        /* \"#utility.yul\":15386:15411   */\n      swap2\n      pop\n        /* \"#utility.yul\":15425:15445   */\n      tag_550\n        /* \"#utility.yul\":15443:15444   */\n      dup4\n        /* \"#utility.yul\":15425:15445   */\n      tag_328\n      jump\t// in\n    tag_550:\n        /* \"#utility.yul\":15420:15445   */\n      swap3\n      pop\n        /* \"#utility.yul\":15480:15481   */\n      dup3\n        /* \"#utility.yul\":15477:15478   */\n      dup3\n        /* \"#utility.yul\":15473:15482   */\n      mul\n        /* \"#utility.yul\":15502:15532   */\n      tag_551\n        /* \"#utility.yul\":15520:15531   */\n      dup2\n        /* \"#utility.yul\":15502:15532   */\n      tag_328\n      jump\t// in\n    tag_551:\n        /* \"#utility.yul\":15491:15532   */\n      swap2\n      pop\n        /* \"#utility.yul\":15681:15682   */\n      dup3\n        /* \"#utility.yul\":15672:15679   */\n      dup3\n        /* \"#utility.yul\":15668:15683   */\n      div\n        /* \"#utility.yul\":15665:15666   */\n      dup5\n        /* \"#utility.yul\":15662:15684   */\n      eq\n        /* \"#utility.yul\":15642:15643   */\n      dup4\n        /* \"#utility.yul\":15635:15644   */\n      iszero\n        /* \"#utility.yul\":15615:15698   */\n      or\n        /* \"#utility.yul\":15592:15731   */\n      tag_552\n      jumpi\n        /* \"#utility.yul\":15711:15729   */\n      tag_553\n      tag_361\n      jump\t// in\n    tag_553:\n        /* \"#utility.yul\":15592:15731   */\n    tag_552:\n        /* \"#utility.yul\":15376:15738   */\n      pop\n        /* \"#utility.yul\":15328:15738   */\n      swap3\n      swap2\n      pop\n      pop\n      jump\t// out\n        /* \"#utility.yul\":15744:15914   */\n    tag_374:\n        /* \"#utility.yul\":15884:15906   */\n      0x427579206174206c65617374206f6e6520656767000000000000000000000000\n        /* \"#utility.yul\":15880:15881   */\n      0x00\n        /* \"#utility.yul\":15872:15878   */\n      dup3\n        /* \"#utility.yul\":15868:15882   */\n      add\n        /* \"#utility.yul\":15861:15907   */\n      mstore\n        /* \"#utility.yul\":15744:15914   */\n      pop\n      jump\t// out\n        /* \"#utility.yul\":15920:16286   */\n    tag_375:\n        /* \"#utility.yul\":16062:16065   */\n      0x00\n        /* \"#utility.yul\":16083:16150   */\n      tag_556\n        /* \"#utility.yul\":16147:16149   */\n      0x14\n        /* \"#utility.yul\":16142:16145   */\n      dup4\n        /* \"#utility.yul\":16083:16150   */\n      tag_358\n      jump\t// in\n    tag_556:\n        /* \"#utility.yul\":16076:16150   */\n      swap2\n      pop\n        /* \"#utility.yul\":16159:16252   */\n      tag_557\n        /* \"#utility.yul\":16248:16251   */\n      dup3\n        /* \"#utility.yul\":16159:16252   */\n      tag_374\n      jump\t// in\n    tag_557:\n        /* \"#utility.yul\":16277:16279   */\n      0x20\n        /* \"#utility.yul\":16272:16275   */\n      dup3\n        /* \"#utility.yul\":16268:16280   */\n      add\n        /* \"#utility.yul\":16261:16280   */\n      swap1\n      pop\n        /* \"#utility.yul\":15920:16286   */\n      swap2\n      swap1\n      pop\n      jump\t// out\n        /* \"#utility.yul\":16292:16711   */\n    tag_210:\n        /* \"#utility.yul\":16458:16462   */\n      0x00\n        /* \"#utility.yul\":16496:16498   */\n      0x20\n        /* \"#utility.yul\":16485:16494   */\n      dup3\n        /* \"#utility.yul\":16481:16499   */\n      add\n        /* \"#utility.yul\":16473:16499   */\n      swap1\n      pop\n        /* \"#utility.yul\":16545:16554   */\n      dup2\n        /* \"#utility.yul\":16539:16543   */\n      dup2\n        /* \"#utility.yul\":16535:16555   */\n      sub\n        /* \"#utility.yul\":16531:16532   */\n      0x00\n        /* \"#utility.yul\":16520:16529   */\n      dup4\n        /* \"#utility.yul\":16516:16533   */\n      add\n        /* \"#utility.yul\":16509:16556   */\n      mstore\n        /* \"#utility.yul\":16573:16704   */\n      tag_559\n        /* \"#utility.yul\":16699:16703   */\n      dup2\n        /* \"#utility.yul\":16573:16704   */\n      tag_375\n      jump\t// in\n    tag_559:\n        /* \"#utility.yul\":16565:16704   */\n      swap1\n      pop\n        /* \"#utility.yul\":16292:16711   */\n      swap2\n      swap1\n      pop\n      jump\t// out\n        /* \"#utility.yul\":16717:16894   */\n    tag_376:\n        /* \"#utility.yul\":16857:16886   */\n      0x4d756c7469706c6573206265747765656e203120616e64203130300000000000\n        /* \"#utility.yul\":16853:16854   */\n      0x00\n        /* \"#utility.yul\":16845:16851   */\n      dup3\n        /* \"#utility.yul\":16841:16855   */\n      add\n        /* \"#utility.yul\":16834:16887   */\n      mstore\n        /* \"#utility.yul\":16717:16894   */\n      pop\n      jump\t// out\n        /* \"#utility.yul\":16900:17266   */\n    tag_377:\n        /* \"#utility.yul\":17042:17045   */\n      0x00\n        /* \"#utility.yul\":17063:17130   */\n      tag_562\n        /* \"#utility.yul\":17127:17129   */\n      0x1b\n        /* \"#utility.yul\":17122:17125   */\n      dup4\n        /* \"#utility.yul\":17063:17130   */\n      tag_358\n      jump\t// in\n    tag_562:\n        /* \"#utility.yul\":17056:17130   */\n      swap2\n      pop\n        /* \"#utility.yul\":17139:17232   */\n      tag_563\n        /* \"#utility.yul\":17228:17231   */\n      dup3\n        /* \"#utility.yul\":17139:17232   */\n      tag_376\n      jump\t// in\n    tag_563:\n        /* \"#utility.yul\":17257:17259   */\n      0x20\n        /* \"#utility.yul\":17252:17255   */\n      dup3\n        /* \"#utility.yul\":17248:17260   */\n      add\n        /* \"#utility.yul\":17241:17260   */\n      swap1\n      pop\n        /* \"#utility.yul\":16900:17266   */\n      swap2\n      swap1\n      pop\n      jump\t// out\n        /* \"#utility.yul\":17272:17691   */\n    tag_214:\n        /* \"#utility.yul\":17438:17442   */\n      0x00\n        /* \"#utility.yul\":17476:17478   */\n      0x20\n        /* \"#utility.yul\":17465:17474   */\n      dup3\n        /* \"#utility.yul\":17461:17479   */\n      add\n        /* \"#utility.yul\":17453:17479   */\n      swap1\n      pop\n        /* \"#utility.yul\":17525:17534   */\n      dup2\n        /* \"#utility.yul\":17519:17523   */\n      dup2\n        /* \"#utility.yul\":17515:17535   */\n      sub\n        /* \"#utility.yul\":17511:17512   */\n      0x00\n        /* \"#utility.yul\":17500:17509   */\n      dup4\n        /* \"#utility.yul\":17496:17513   */\n      add\n        /* \"#utility.yul\":17489:17536   */\n      mstore\n        /* \"#utility.yul\":17553:17684   */\n      tag_565\n        /* \"#utility.yul\":17679:17683   */\n      dup2\n        /* \"#utility.yul\":17553:17684   */\n      tag_377\n      jump\t// in\n    tag_565:\n        /* \"#utility.yul\":17545:17684   */\n      swap1\n      pop\n        /* \"#utility.yul\":17272:17691   */\n      swap2\n      swap1\n      pop\n      jump\t// out\n        /* \"#utility.yul\":17697:17879   */\n    tag_378:\n        /* \"#utility.yul\":17837:17871   */\n      0x4e756d626572206f662065676773206265747765656e203120616e6420313030\n        /* \"#utility.yul\":17833:17834   */\n      0x00\n        /* \"#utility.yul\":17825:17831   */\n      dup3\n        /* \"#utility.yul\":17821:17835   */\n      add\n        /* \"#utility.yul\":17814:17872   */\n      mstore\n        /* \"#utility.yul\":17697:17879   */\n      pop\n      jump\t// out\n        /* \"#utility.yul\":17885:18251   */\n    tag_379:\n        /* \"#utility.yul\":18027:18030   */\n      0x00\n        /* \"#utility.yul\":18048:18115   */\n      tag_568\n        /* \"#utility.yul\":18112:18114   */\n      0x20\n        /* \"#utility.yul\":18107:18110   */\n      dup4\n        /* \"#utility.yul\":18048:18115   */\n      tag_358\n      jump\t// in\n    tag_568:\n        /* \"#utility.yul\":18041:18115   */\n      swap2\n      pop\n        /* \"#utility.yul\":18124:18217   */\n      tag_569\n        /* \"#utility.yul\":18213:18216   */\n      dup3\n        /* \"#utility.yul\":18124:18217   */\n      tag_378\n      jump\t// in\n    tag_569:\n        /* \"#utility.yul\":18242:18244   */\n      0x20\n        /* \"#utility.yul\":18237:18240   */\n      dup3\n        /* \"#utility.yul\":18233:18245   */\n      add\n        /* \"#utility.yul\":18226:18245   */\n      swap1\n      pop\n        /* \"#utility.yul\":17885:18251   */\n      swap2\n      swap1\n      pop\n      jump\t// out\n        /* \"#utility.yul\":18257:18676   */\n    tag_218:\n        /* \"#utility.yul\":18423:18427   */\n      0x00\n        /* \"#utility.yul\":18461:18463   */\n      0x20\n        /* \"#utility.yul\":18450:18459   */\n      dup3\n        /* \"#utility.yul\":18446:18464   */\n      add\n        /* \"#utility.yul\":18438:18464   */\n      swap1\n      pop\n        /* \"#utility.yul\":18510:18519   */\n      dup2\n        /* \"#utility.yul\":18504:18508   */\n      dup2\n        /* \"#utility.yul\":18500:18520   */\n      sub\n        /* \"#utility.yul\":18496:18497   */\n      0x00\n        /* \"#utility.yul\":18485:18494   */\n      dup4\n        /* \"#utility.yul\":18481:18498   */\n      add\n        /* \"#utility.yul\":18474:18521   */\n      mstore\n        /* \"#utility.yul\":18538:18669   */\n      tag_571\n        /* \"#utility.yul\":18664:18668   */\n      dup2\n        /* \"#utility.yul\":18538:18669   */\n      tag_379\n      jump\t// in\n    tag_571:\n        /* \"#utility.yul\":18530:18669   */\n      swap1\n      pop\n        /* \"#utility.yul\":18257:18676   */\n      swap2\n      swap1\n      pop\n      jump\t// out\n        /* \"#utility.yul\":18682:18957   */\n    tag_221:\n        /* \"#utility.yul\":18721:18728   */\n      0x00\n        /* \"#utility.yul\":18744:18763   */\n      tag_573\n        /* \"#utility.yul\":18761:18762   */\n      dup3\n        /* \"#utility.yul\":18744:18763   */\n      tag_348\n      jump\t// in\n    tag_573:\n        /* \"#utility.yul\":18739:18763   */\n      swap2\n      pop\n        /* \"#utility.yul\":18777:18796   */\n      tag_574\n        /* \"#utility.yul\":18794:18795   */\n      dup4\n        /* \"#utility.yul\":18777:18796   */\n      tag_348\n      jump\t// in\n    tag_574:\n        /* \"#utility.yul\":18772:18796   */\n      swap3\n      pop\n        /* \"#utility.yul\":18831:18832   */\n      dup3\n        /* \"#utility.yul\":18828:18829   */\n      dup3\n        /* \"#utility.yul\":18824:18833   */\n      mul\n        /* \"#utility.yul\":18853:18882   */\n      tag_575\n        /* \"#utility.yul\":18870:18881   */\n      dup2\n        /* \"#utility.yul\":18853:18882   */\n      tag_348\n      jump\t// in\n    tag_575:\n        /* \"#utility.yul\":18842:18882   */\n      swap2\n      pop\n        /* \"#utility.yul\":18914:18925   */\n      dup1\n        /* \"#utility.yul\":18905:18912   */\n      dup3\n        /* \"#utility.yul\":18902:18926   */\n      eq\n        /* \"#utility.yul\":18892:18950   */\n      tag_576\n      jumpi\n        /* \"#utility.yul\":18930:18948   */\n      tag_577\n      tag_361\n      jump\t// in\n    tag_577:\n        /* \"#utility.yul\":18892:18950   */\n    tag_576:\n        /* \"#utility.yul\":18729:18957   */\n      pop\n        /* \"#utility.yul\":18682:18957   */\n      swap3\n      swap2\n      pop\n      pop\n      jump\t// out\n        /* \"#utility.yul\":18963:19125   */\n    tag_380:\n        /* \"#utility.yul\":19103:19117   */\n      0x496e76616c696420646174610000000000000000000000000000000000000000\n        /* \"#utility.yul\":19099:19100   */\n      0x00\n        /* \"#utility.yul\":19091:19097   */\n      dup3\n        /* \"#utility.yul\":19087:19101   */\n      add\n        /* \"#utility.yul\":19080:19118   */\n      mstore\n        /* \"#utility.yul\":18963:19125   */\n      pop\n      jump\t// out\n        /* \"#utility.yul\":19131:19497   */\n    tag_381:\n        /* \"#utility.yul\":19273:19276   */\n      0x00\n        /* \"#utility.yul\":19294:19361   */\n      tag_580\n        /* \"#utility.yul\":19358:19360   */\n      0x0c\n        /* \"#utility.yul\":19353:19356   */\n      dup4\n        /* \"#utility.yul\":19294:19361   */\n      tag_358\n      jump\t// in\n    tag_580:\n        /* \"#utility.yul\":19287:19361   */\n      swap2\n      pop\n        /* \"#utility.yul\":19370:19463   */\n      tag_581\n        /* \"#utility.yul\":19459:19462   */\n      dup3\n        /* \"#utility.yul\":19370:19463   */\n      tag_380\n      jump\t// in\n    tag_581:\n        /* \"#utility.yul\":19488:19490   */\n      0x20\n        /* \"#utility.yul\":19483:19486   */\n      dup3\n        /* \"#utility.yul\":19479:19491   */\n      add\n        /* \"#utility.yul\":19472:19491   */\n      swap1\n      pop\n        /* \"#utility.yul\":19131:19497   */\n      swap2\n      swap1\n      pop\n      jump\t// out\n        /* \"#utility.yul\":19503:19922   */\n    tag_224:\n        /* \"#utility.yul\":19669:19673   */\n      0x00\n        /* \"#utility.yul\":19707:19709   */\n      0x20\n        /* \"#utility.yul\":19696:19705   */\n      dup3\n        /* \"#utility.yul\":19692:19710   */\n      add\n        /* \"#utility.yul\":19684:19710   */\n      swap1\n      pop\n        /* \"#utility.yul\":19756:19765   */\n      dup2\n        /* \"#utility.yul\":19750:19754   */\n      dup2\n        /* \"#utility.yul\":19746:19766   */\n      sub\n        /* \"#utility.yul\":19742:19743   */\n      0x00\n        /* \"#utility.yul\":19731:19740   */\n      dup4\n        /* \"#utility.yul\":19727:19744   */\n      add\n        /* \"#utility.yul\":19720:19767   */\n      mstore\n        /* \"#utility.yul\":19784:19915   */\n      tag_583\n        /* \"#utility.yul\":19910:19914   */\n      dup2\n        /* \"#utility.yul\":19784:19915   */\n      tag_381\n      jump\t// in\n    tag_583:\n        /* \"#utility.yul\":19776:19915   */\n      swap1\n      pop\n        /* \"#utility.yul\":19503:19922   */\n      swap2\n      swap1\n      pop\n      jump\t// out\n        /* \"#utility.yul\":19928:20155   */\n    tag_229:\n        /* \"#utility.yul\":19967:19970   */\n      0x00\n        /* \"#utility.yul\":19990:20014   */\n      tag_585\n        /* \"#utility.yul\":20008:20013   */\n      dup3\n        /* \"#utility.yul\":19990:20014   */\n      tag_353\n      jump\t// in\n    tag_585:\n        /* \"#utility.yul\":19981:20014   */\n      swap2\n      pop\n        /* \"#utility.yul\":20036:20096   */\n      0xffffffffffffffffffffffffffffffffffffffffffffffffffffffffff\n        /* \"#utility.yul\":20029:20034   */\n      dup3\n        /* \"#utility.yul\":20026:20097   */\n      sub\n        /* \"#utility.yul\":20023:20120   */\n      tag_586\n      jumpi\n        /* \"#utility.yul\":20100:20118   */\n      tag_587\n      tag_361\n      jump\t// in\n    tag_587:\n        /* \"#utility.yul\":20023:20120   */\n    tag_586:\n        /* \"#utility.yul\":20147:20148   */\n      0x01\n        /* \"#utility.yul\":20140:20145   */\n      dup3\n        /* \"#utility.yul\":20136:20149   */\n      add\n        /* \"#utility.yul\":20129:20149   */\n      swap1\n      pop\n        /* \"#utility.yul\":19928:20155   */\n      swap2\n      swap1\n      pop\n      jump\t// out\n        /* \"#utility.yul\":20161:20240   */\n    tag_382:\n        /* \"#utility.yul\":20200:20207   */\n      0x00\n        /* \"#utility.yul\":20229:20234   */\n      dup2\n        /* \"#utility.yul\":20218:20234   */\n      swap1\n      pop\n        /* \"#utility.yul\":20161:20240   */\n      swap2\n      swap1\n      pop\n      jump\t// out\n        /* \"#utility.yul\":20246:20403   */\n    tag_383:\n        /* \"#utility.yul\":20351:20396   */\n      tag_590\n        /* \"#utility.yul\":20371:20395   */\n      tag_591\n        /* \"#utility.yul\":20389:20394   */\n      dup3\n        /* \"#utility.yul\":20371:20395   */\n      tag_328\n      jump\t// in\n    tag_591:\n        /* \"#utility.yul\":20351:20396   */\n      tag_382\n      jump\t// in\n    tag_590:\n        /* \"#utility.yul\":20346:20349   */\n      dup3\n        /* \"#utility.yul\":20339:20397   */\n      mstore\n        /* \"#utility.yul\":20246:20403   */\n      pop\n      pop\n      jump\t// out\n        /* \"#utility.yul\":20409:20513   */\n    tag_384:\n        /* \"#utility.yul\":20454:20461   */\n      0x00\n        /* \"#utility.yul\":20483:20507   */\n      tag_593\n        /* \"#utility.yul\":20501:20506   */\n      dup3\n        /* \"#utility.yul\":20483:20507   */\n      tag_339\n      jump\t// in\n    tag_593:\n        /* \"#utility.yul\":20472:20507   */\n      swap1\n      pop\n        /* \"#utility.yul\":20409:20513   */\n      swap2\n      swap1\n      pop\n      jump\t// out\n        /* \"#utility.yul\":20519:20613   */\n    tag_385:\n        /* \"#utility.yul\":20552:20560   */\n      0x00\n        /* \"#utility.yul\":20600:20605   */\n      dup2\n        /* \"#utility.yul\":20596:20598   */\n      0x60\n        /* \"#utility.yul\":20592:20606   */\n      shl\n        /* \"#utility.yul\":20571:20606   */\n      swap1\n      pop\n        /* \"#utility.yul\":20519:20613   */\n      swap2\n      swap1\n      pop\n      jump\t// out\n        /* \"#utility.yul\":20619:20713   */\n    tag_386:\n        /* \"#utility.yul\":20658:20665   */\n      0x00\n        /* \"#utility.yul\":20687:20707   */\n      tag_596\n        /* \"#utility.yul\":20701:20706   */\n      dup3\n        /* \"#utility.yul\":20687:20707   */\n      tag_385\n      jump\t// in\n    tag_596:\n        /* \"#utility.yul\":20676:20707   */\n      swap1\n      pop\n        /* \"#utility.yul\":20619:20713   */\n      swap2\n      swap1\n      pop\n      jump\t// out\n        /* \"#utility.yul\":20719:20827   */\n    tag_387:\n        /* \"#utility.yul\":20766:20773   */\n      0x00\n        /* \"#utility.yul\":20795:20821   */\n      tag_598\n        /* \"#utility.yul\":20815:20820   */\n      dup3\n        /* \"#utility.yul\":20795:20821   */\n      tag_386\n      jump\t// in\n    tag_598:\n        /* \"#utility.yul\":20784:20821   */\n      swap1\n      pop\n        /* \"#utility.yul\":20719:20827   */\n      swap2\n      swap1\n      pop\n      jump\t// out\n        /* \"#utility.yul\":20833:21022   */\n    tag_388:\n        /* \"#utility.yul\":20954:21015   */\n      tag_600\n        /* \"#utility.yul\":20982:21014   */\n      tag_601\n        /* \"#utility.yul\":21008:21013   */\n      dup3\n        /* \"#utility.yul\":20982:21014   */\n      tag_384\n      jump\t// in\n    tag_601:\n        /* \"#utility.yul\":20954:21015   */\n      tag_387\n      jump\t// in\n    tag_600:\n        /* \"#utility.yul\":20949:20952   */\n      dup3\n        /* \"#utility.yul\":20942:21016   */\n      mstore\n        /* \"#utility.yul\":20833:21022   */\n      pop\n      pop\n      jump\t// out\n        /* \"#utility.yul\":21028:21128   */\n    tag_389:\n        /* \"#utility.yul\":21067:21074   */\n      0x00\n        /* \"#utility.yul\":21096:21122   */\n      tag_603\n        /* \"#utility.yul\":21116:21121   */\n      dup3\n        /* \"#utility.yul\":21096:21122   */\n      tag_386\n      jump\t// in\n    tag_603:\n        /* \"#utility.yul\":21085:21122   */\n      swap1\n      pop\n        /* \"#utility.yul\":21028:21128   */\n      swap2\n      swap1\n      pop\n      jump\t// out\n        /* \"#utility.yul\":21134:21291   */\n    tag_390:\n        /* \"#utility.yul\":21239:21284   */\n      tag_605\n        /* \"#utility.yul\":21259:21283   */\n      tag_606\n        /* \"#utility.yul\":21277:21282   */\n      dup3\n        /* \"#utility.yul\":21259:21283   */\n      tag_340\n      jump\t// in\n    tag_606:\n        /* \"#utility.yul\":21239:21284   */\n      tag_389\n      jump\t// in\n    tag_605:\n        /* \"#utility.yul\":21234:21237   */\n      dup3\n        /* \"#utility.yul\":21227:21285   */\n      mstore\n        /* \"#utility.yul\":21134:21291   */\n      pop\n      pop\n      jump\t// out\n        /* \"#utility.yul\":21297:21391   */\n    tag_391:\n        /* \"#utility.yul\":21330:21338   */\n      0x00\n        /* \"#utility.yul\":21378:21383   */\n      dup2\n        /* \"#utility.yul\":21374:21376   */\n      0x18\n        /* \"#utility.yul\":21370:21384   */\n      shl\n        /* \"#utility.yul\":21349:21384   */\n      swap1\n      pop\n        /* \"#utility.yul\":21297:21391   */\n      swap2\n      swap1\n      pop\n      jump\t// out\n        /* \"#utility.yul\":21397:21491   */\n    tag_392:\n        /* \"#utility.yul\":21436:21443   */\n      0x00\n        /* \"#utility.yul\":21465:21485   */\n      tag_609\n        /* \"#utility.yul\":21479:21484   */\n      dup3\n        /* \"#utility.yul\":21465:21485   */\n      tag_391\n      jump\t// in\n    tag_609:\n        /* \"#utility.yul\":21454:21485   */\n      swap1\n      pop\n        /* \"#utility.yul\":21397:21491   */\n      swap2\n      swap1\n      pop\n      jump\t// out\n        /* \"#utility.yul\":21497:21654   */\n    tag_393:\n        /* \"#utility.yul\":21602:21647   */\n      tag_611\n        /* \"#utility.yul\":21622:21646   */\n      tag_612\n        /* \"#utility.yul\":21640:21645   */\n      dup3\n        /* \"#utility.yul\":21622:21646   */\n      tag_353\n      jump\t// in\n    tag_612:\n        /* \"#utility.yul\":21602:21647   */\n      tag_392\n      jump\t// in\n    tag_611:\n        /* \"#utility.yul\":21597:21600   */\n      dup3\n        /* \"#utility.yul\":21590:21648   */\n      mstore\n        /* \"#utility.yul\":21497:21654   */\n      pop\n      pop\n      jump\t// out\n        /* \"#utility.yul\":21660:22371   */\n    tag_231:\n        /* \"#utility.yul\":21872:21875   */\n      0x00\n        /* \"#utility.yul\":21887:21962   */\n      tag_614\n        /* \"#utility.yul\":21958:21961   */\n      dup3\n        /* \"#utility.yul\":21949:21955   */\n      dup8\n        /* \"#utility.yul\":21887:21962   */\n      tag_383\n      jump\t// in\n    tag_614:\n        /* \"#utility.yul\":21987:21989   */\n      0x20\n        /* \"#utility.yul\":21982:21985   */\n      dup3\n        /* \"#utility.yul\":21978:21990   */\n      add\n        /* \"#utility.yul\":21971:21990   */\n      swap2\n      pop\n        /* \"#utility.yul\":22000:22091   */\n      tag_615\n        /* \"#utility.yul\":22087:22090   */\n      dup3\n        /* \"#utility.yul\":22078:22084   */\n      dup7\n        /* \"#utility.yul\":22000:22091   */\n      tag_388\n      jump\t// in\n    tag_615:\n        /* \"#utility.yul\":22116:22118   */\n      0x14\n        /* \"#utility.yul\":22111:22114   */\n      dup3\n        /* \"#utility.yul\":22107:22119   */\n      add\n        /* \"#utility.yul\":22100:22119   */\n      swap2\n      pop\n        /* \"#utility.yul\":22129:22204   */\n      tag_616\n        /* \"#utility.yul\":22200:22203   */\n      dup3\n        /* \"#utility.yul\":22191:22197   */\n      dup6\n        /* \"#utility.yul\":22129:22204   */\n      tag_390\n      jump\t// in\n    tag_616:\n        /* \"#utility.yul\":22229:22231   */\n      0x14\n        /* \"#utility.yul\":22224:22227   */\n      dup3\n        /* \"#utility.yul\":22220:22232   */\n      add\n        /* \"#utility.yul\":22213:22232   */\n      swap2\n      pop\n        /* \"#utility.yul\":22242:22317   */\n      tag_617\n        /* \"#utility.yul\":22313:22316   */\n      dup3\n        /* \"#utility.yul\":22304:22310   */\n      dup5\n        /* \"#utility.yul\":22242:22317   */\n      tag_393\n      jump\t// in\n    tag_617:\n        /* \"#utility.yul\":22342:22344   */\n      0x1d\n        /* \"#utility.yul\":22337:22340   */\n      dup3\n        /* \"#utility.yul\":22333:22345   */\n      add\n        /* \"#utility.yul\":22326:22345   */\n      swap2\n      pop\n        /* \"#utility.yul\":22362:22365   */\n      dup2\n        /* \"#utility.yul\":22355:22365   */\n      swap1\n      pop\n        /* \"#utility.yul\":21660:22371   */\n      swap6\n      swap5\n      pop\n      pop\n      pop\n      pop\n      pop\n      jump\t// out\n        /* \"#utility.yul\":22377:22676   */\n    tag_394:\n        /* \"#utility.yul\":22517:22551   */\n      0x4d696e696d756d20696e766573746d656e7420616d6f756e7420697320726571\n        /* \"#utility.yul\":22513:22514   */\n      0x00\n        /* \"#utility.yul\":22505:22511   */\n      dup3\n        /* \"#utility.yul\":22501:22515   */\n      add\n        /* \"#utility.yul\":22494:22552   */\n      mstore\n        /* \"#utility.yul\":22586:22620   */\n      0x75697265642c6974277320736d616c6c6572207468616e20746865206d696e69\n        /* \"#utility.yul\":22581:22583   */\n      0x20\n        /* \"#utility.yul\":22573:22579   */\n      dup3\n        /* \"#utility.yul\":22569:22584   */\n      add\n        /* \"#utility.yul\":22562:22621   */\n      mstore\n        /* \"#utility.yul\":22655:22668   */\n      0x6d756d206465706f736974000000000000000000000000000000000000000000\n        /* \"#utility.yul\":22650:22652   */\n      0x40\n        /* \"#utility.yul\":22642:22648   */\n      dup3\n        /* \"#utility.yul\":22638:22653   */\n      add\n        /* \"#utility.yul\":22631:22669   */\n      mstore\n        /* \"#utility.yul\":22377:22676   */\n      pop\n      jump\t// out\n        /* \"#utility.yul\":22682:23048   */\n    tag_395:\n        /* \"#utility.yul\":22824:22827   */\n      0x00\n        /* \"#utility.yul\":22845:22912   */\n      tag_620\n        /* \"#utility.yul\":22909:22911   */\n      0x4b\n        /* \"#utility.yul\":22904:22907   */\n      dup4\n        /* \"#utility.yul\":22845:22912   */\n      tag_358\n      jump\t// in\n    tag_620:\n        /* \"#utility.yul\":22838:22912   */\n      swap2\n      pop\n        /* \"#utility.yul\":22921:23014   */\n      tag_621\n        /* \"#utility.yul\":23010:23013   */\n      dup3\n        /* \"#utility.yul\":22921:23014   */\n      tag_394\n      jump\t// in\n    tag_621:\n        /* \"#utility.yul\":23039:23041   */\n      0x60\n        /* \"#utility.yul\":23034:23037   */\n      dup3\n        /* \"#utility.yul\":23030:23042   */\n      add\n        /* \"#utility.yul\":23023:23042   */\n      swap1\n      pop\n        /* \"#utility.yul\":22682:23048   */\n      swap2\n      swap1\n      pop\n      jump\t// out\n        /* \"#utility.yul\":23054:23473   */\n    tag_252:\n        /* \"#utility.yul\":23220:23224   */\n      0x00\n        /* \"#utility.yul\":23258:23260   */\n      0x20\n        /* \"#utility.yul\":23247:23256   */\n      dup3\n        /* \"#utility.yul\":23243:23261   */\n      add\n        /* \"#utility.yul\":23235:23261   */\n      swap1\n      pop\n        /* \"#utility.yul\":23307:23316   */\n      dup2\n        /* \"#utility.yul\":23301:23305   */\n      dup2\n        /* \"#utility.yul\":23297:23317   */\n      sub\n        /* \"#utility.yul\":23293:23294   */\n      0x00\n        /* \"#utility.yul\":23282:23291   */\n      dup4\n        /* \"#utility.yul\":23278:23295   */\n      add\n        /* \"#utility.yul\":23271:23318   */\n      mstore\n        /* \"#utility.yul\":23335:23466   */\n      tag_623\n        /* \"#utility.yul\":23461:23465   */\n      dup2\n        /* \"#utility.yul\":23335:23466   */\n      tag_395\n      jump\t// in\n    tag_623:\n        /* \"#utility.yul\":23327:23466   */\n      swap1\n      pop\n        /* \"#utility.yul\":23054:23473   */\n      swap2\n      swap1\n      pop\n      jump\t// out\n        /* \"#utility.yul\":23479:23657   */\n    tag_396:\n        /* \"#utility.yul\":23619:23649   */\n      0x4e6f7420656e6f7567682066756e6420746f2077697468647261772100000000\n        /* \"#utility.yul\":23615:23616   */\n      0x00\n        /* \"#utility.yul\":23607:23613   */\n      dup3\n        /* \"#utility.yul\":23603:23617   */\n      add\n        /* \"#utility.yul\":23596:23650   */\n      mstore\n        /* \"#utility.yul\":23479:23657   */\n      pop\n      jump\t// out\n        /* \"#utility.yul\":23663:24029   */\n    tag_397:\n        /* \"#utility.yul\":23805:23808   */\n      0x00\n        /* \"#utility.yul\":23826:23893   */\n      tag_626\n        /* \"#utility.yul\":23890:23892   */\n      0x1c\n        /* \"#utility.yul\":23885:23888   */\n      dup4\n        /* \"#utility.yul\":23826:23893   */\n      tag_358\n      jump\t// in\n    tag_626:\n        /* \"#utility.yul\":23819:23893   */\n      swap2\n      pop\n        /* \"#utility.yul\":23902:23995   */\n      tag_627\n        /* \"#utility.yul\":23991:23994   */\n      dup3\n        /* \"#utility.yul\":23902:23995   */\n      tag_396\n      jump\t// in\n    tag_627:\n        /* \"#utility.yul\":24020:24022   */\n      0x20\n        /* \"#utility.yul\":24015:24018   */\n      dup3\n        /* \"#utility.yul\":24011:24023   */\n      add\n        /* \"#utility.yul\":24004:24023   */\n      swap1\n      pop\n        /* \"#utility.yul\":23663:24029   */\n      swap2\n      swap1\n      pop\n      jump\t// out\n        /* \"#utility.yul\":24035:24454   */\n    tag_255:\n        /* \"#utility.yul\":24201:24205   */\n      0x00\n        /* \"#utility.yul\":24239:24241   */\n      0x20\n        /* \"#utility.yul\":24228:24237   */\n      dup3\n        /* \"#utility.yul\":24224:24242   */\n      add\n        /* \"#utility.yul\":24216:24242   */\n      swap1\n      pop\n        /* \"#utility.yul\":24288:24297   */\n      dup2\n        /* \"#utility.yul\":24282:24286   */\n      dup2\n        /* \"#utility.yul\":24278:24298   */\n      sub\n        /* \"#utility.yul\":24274:24275   */\n      0x00\n        /* \"#utility.yul\":24263:24272   */\n      dup4\n        /* \"#utility.yul\":24259:24276   */\n      add\n        /* \"#utility.yul\":24252:24299   */\n      mstore\n        /* \"#utility.yul\":24316:24447   */\n      tag_629\n        /* \"#utility.yul\":24442:24446   */\n      dup2\n        /* \"#utility.yul\":24316:24447   */\n      tag_397\n      jump\t// in\n    tag_629:\n        /* \"#utility.yul\":24308:24447   */\n      swap1\n      pop\n        /* \"#utility.yul\":24035:24454   */\n      swap2\n      swap1\n      pop\n      jump\t// out\n        /* \"#utility.yul\":24460:24641   */\n    tag_398:\n        /* \"#utility.yul\":24600:24633   */\n      0x43616e6e6f74207769746864726177206166746572206f6e65207765656b2100\n        /* \"#utility.yul\":24596:24597   */\n      0x00\n        /* \"#utility.yul\":24588:24594   */\n      dup3\n        /* \"#utility.yul\":24584:24598   */\n      add\n        /* \"#utility.yul\":24577:24634   */\n      mstore\n        /* \"#utility.yul\":24460:24641   */\n      pop\n      jump\t// out\n        /* \"#utility.yul\":24647:25013   */\n    tag_399:\n        /* \"#utility.yul\":24789:24792   */\n      0x00\n        /* \"#utility.yul\":24810:24877   */\n      tag_632\n        /* \"#utility.yul\":24874:24876   */\n      0x1f\n        /* \"#utility.yul\":24869:24872   */\n      dup4\n        /* \"#utility.yul\":24810:24877   */\n      tag_358\n      jump\t// in\n    tag_632:\n        /* \"#utility.yul\":24803:24877   */\n      swap2\n      pop\n        /* \"#utility.yul\":24886:24979   */\n      tag_633\n        /* \"#utility.yul\":24975:24978   */\n      dup3\n        /* \"#utility.yul\":24886:24979   */\n      tag_398\n      jump\t// in\n    tag_633:\n        /* \"#utility.yul\":25004:25006   */\n      0x20\n        /* \"#utility.yul\":24999:25002   */\n      dup3\n        /* \"#utility.yul\":24995:25007   */\n      add\n        /* \"#utility.yul\":24988:25007   */\n      swap1\n      pop\n        /* \"#utility.yul\":24647:25013   */\n      swap2\n      swap1\n      pop\n      jump\t// out\n        /* \"#utility.yul\":25019:25438   */\n    tag_259:\n        /* \"#utility.yul\":25185:25189   */\n      0x00\n        /* \"#utility.yul\":25223:25225   */\n      0x20\n        /* \"#utility.yul\":25212:25221   */\n      dup3\n        /* \"#utility.yul\":25208:25226   */\n      add\n        /* \"#utility.yul\":25200:25226   */\n      swap1\n      pop\n        /* \"#utility.yul\":25272:25281   */\n      dup2\n        /* \"#utility.yul\":25266:25270   */\n      dup2\n        /* \"#utility.yul\":25262:25282   */\n      sub\n        /* \"#utility.yul\":25258:25259   */\n      0x00\n        /* \"#utility.yul\":25247:25256   */\n      dup4\n        /* \"#utility.yul\":25243:25260   */\n      add\n        /* \"#utility.yul\":25236:25283   */\n      mstore\n        /* \"#utility.yul\":25300:25431   */\n      tag_635\n        /* \"#utility.yul\":25426:25430   */\n      dup2\n        /* \"#utility.yul\":25300:25431   */\n      tag_399\n      jump\t// in\n    tag_635:\n        /* \"#utility.yul\":25292:25431   */\n      swap1\n      pop\n        /* \"#utility.yul\":25019:25438   */\n      swap2\n      swap1\n      pop\n      jump\t// out\n        /* \"#utility.yul\":25444:25624   */\n    tag_400:\n        /* \"#utility.yul\":25584:25616   */\n      0x496e73756666696369656e742066756e6420746f207769746864726177210000\n        /* \"#utility.yul\":25580:25581   */\n      0x00\n        /* \"#utility.yul\":25572:25578   */\n      dup3\n        /* \"#utility.yul\":25568:25582   */\n      add\n        /* \"#utility.yul\":25561:25617   */\n      mstore\n        /* \"#utility.yul\":25444:25624   */\n      pop\n      jump\t// out\n        /* \"#utility.yul\":25630:25996   */\n    tag_401:\n        /* \"#utility.yul\":25772:25775   */\n      0x00\n        /* \"#utility.yul\":25793:25860   */\n      tag_638\n        /* \"#utility.yul\":25857:25859   */\n      0x1e\n        /* \"#utility.yul\":25852:25855   */\n      dup4\n        /* \"#utility.yul\":25793:25860   */\n      tag_358\n      jump\t// in\n    tag_638:\n        /* \"#utility.yul\":25786:25860   */\n      swap2\n      pop\n        /* \"#utility.yul\":25869:25962   */\n      tag_639\n        /* \"#utility.yul\":25958:25961   */\n      dup3\n        /* \"#utility.yul\":25869:25962   */\n      tag_400\n      jump\t// in\n    tag_639:\n        /* \"#utility.yul\":25987:25989   */\n      0x20\n        /* \"#utility.yul\":25982:25985   */\n      dup3\n        /* \"#utility.yul\":25978:25990   */\n      add\n        /* \"#utility.yul\":25971:25990   */\n      swap1\n      pop\n        /* \"#utility.yul\":25630:25996   */\n      swap2\n      swap1\n      pop\n      jump\t// out\n        /* \"#utility.yul\":26002:26421   */\n    tag_265:\n        /* \"#utility.yul\":26168:26172   */\n      0x00\n        /* \"#utility.yul\":26206:26208   */\n      0x20\n        /* \"#utility.yul\":26195:26204   */\n      dup3\n        /* \"#utility.yul\":26191:26209   */\n      add\n        /* \"#utility.yul\":26183:26209   */\n      swap1\n      pop\n        /* \"#utility.yul\":26255:26264   */\n      dup2\n        /* \"#utility.yul\":26249:26253   */\n      dup2\n        /* \"#utility.yul\":26245:26265   */\n      sub\n        /* \"#utility.yul\":26241:26242   */\n      0x00\n        /* \"#utility.yul\":26230:26239   */\n      dup4\n        /* \"#utility.yul\":26226:26243   */\n      add\n        /* \"#utility.yul\":26219:26266   */\n      mstore\n        /* \"#utility.yul\":26283:26414   */\n      tag_641\n        /* \"#utility.yul\":26409:26413   */\n      dup2\n        /* \"#utility.yul\":26283:26414   */\n      tag_401\n      jump\t// in\n    tag_641:\n        /* \"#utility.yul\":26275:26414   */\n      swap1\n      pop\n        /* \"#utility.yul\":26002:26421   */\n      swap2\n      swap1\n      pop\n      jump\t// out\n        /* \"#utility.yul\":26427:26602   */\n    tag_402:\n        /* \"#utility.yul\":26567:26594   */\n      0x596f75206d7573742062652074686520646576656c6f70657200000000000000\n        /* \"#utility.yul\":26563:26564   */\n      0x00\n        /* \"#utility.yul\":26555:26561   */\n      dup3\n        /* \"#utility.yul\":26551:26565   */\n      add\n        /* \"#utility.yul\":26544:26595   */\n      mstore\n        /* \"#utility.yul\":26427:26602   */\n      pop\n      jump\t// out\n        /* \"#utility.yul\":26608:26974   */\n    tag_403:\n        /* \"#utility.yul\":26750:26753   */\n      0x00\n        /* \"#utility.yul\":26771:26838   */\n      tag_644\n        /* \"#utility.yul\":26835:26837   */\n      0x19\n        /* \"#utility.yul\":26830:26833   */\n      dup4\n        /* \"#utility.yul\":26771:26838   */\n      tag_358\n      jump\t// in\n    tag_644:\n        /* \"#utility.yul\":26764:26838   */\n      swap2\n      pop\n        /* \"#utility.yul\":26847:26940   */\n      tag_645\n        /* \"#utility.yul\":26936:26939   */\n      dup3\n        /* \"#utility.yul\":26847:26940   */\n      tag_402\n      jump\t// in\n    tag_645:\n        /* \"#utility.yul\":26965:26967   */\n      0x20\n        /* \"#utility.yul\":26960:26963   */\n      dup3\n        /* \"#utility.yul\":26956:26968   */\n      add\n        /* \"#utility.yul\":26949:26968   */\n      swap1\n      pop\n        /* \"#utility.yul\":26608:26974   */\n      swap2\n      swap1\n      pop\n      jump\t// out\n        /* \"#utility.yul\":26980:27399   */\n    tag_273:\n        /* \"#utility.yul\":27146:27150   */\n      0x00\n        /* \"#utility.yul\":27184:27186   */\n      0x20\n        /* \"#utility.yul\":27173:27182   */\n      dup3\n        /* \"#utility.yul\":27169:27187   */\n      add\n        /* \"#utility.yul\":27161:27187   */\n      swap1\n      pop\n        /* \"#utility.yul\":27233:27242   */\n      dup2\n        /* \"#utility.yul\":27227:27231   */\n      dup2\n        /* \"#utility.yul\":27223:27243   */\n      sub\n        /* \"#utility.yul\":27219:27220   */\n      0x00\n        /* \"#utility.yul\":27208:27217   */\n      dup4\n        /* \"#utility.yul\":27204:27221   */\n      add\n        /* \"#utility.yul\":27197:27244   */\n      mstore\n        /* \"#utility.yul\":27261:27392   */\n      tag_647\n        /* \"#utility.yul\":27387:27391   */\n      dup2\n        /* \"#utility.yul\":27261:27392   */\n      tag_403\n      jump\t// in\n    tag_647:\n        /* \"#utility.yul\":27253:27392   */\n      swap1\n      pop\n        /* \"#utility.yul\":26980:27399   */\n      swap2\n      swap1\n      pop\n      jump\t// out\n        /* \"#utility.yul\":27405:27585   */\n    tag_279:\n        /* \"#utility.yul\":27453:27530   */\n      0x4e487b7100000000000000000000000000000000000000000000000000000000\n        /* \"#utility.yul\":27450:27451   */\n      0x00\n        /* \"#utility.yul\":27443:27531   */\n      mstore\n        /* \"#utility.yul\":27550:27554   */\n      0x01\n        /* \"#utility.yul\":27547:27548   */\n      0x04\n        /* \"#utility.yul\":27540:27555   */\n      mstore\n        /* \"#utility.yul\":27574:27578   */\n      0x24\n        /* \"#utility.yul\":27571:27572   */\n      0x00\n        /* \"#utility.yul\":27564:27579   */\n      revert\n\n    auxdata: 0xa2646970667358221220751d18f40d59c756396c0aebb7ee752de71af41bc95608a2dab7d710cbe07cc464736f6c634300081a0033\n}\n",
				"bytecode": {
					"linkReferences": {},
					"object": "6080604052348015600e575f80fd5b50335f806101000a81548173ffffffffffffffffffffffffffffffffffffffff021916908373ffffffffffffffffffffffffffffffffffffffff16021790555042600681905550426008819055506130f9806100695f395ff3fe6080604052600436106100a6575f3560e01c8063a659f4dc11610063578063a659f4dc1461015c578063b1c617ff14610186578063c9ea0299146101b0578063ca6aae29146101cc578063dd5f6f4d146101f6578063f4e79b5b1461021e576100a6565b806312db1357146100aa57806322629256146100c05780632b5baca1146100d657806349821332146101125780637da384fd1461011c57806389a4c1a014610132575b5f80fd5b3480156100b5575f80fd5b506100be610234565b005b3480156100cb575f80fd5b506100d46105ba565b005b3480156100e1575f80fd5b506100fc60048036038101906100f79190612362565b61072c565b604051610109919061250f565b60405180910390f35b61011a6108c0565b005b348015610127575f80fd5b50610130610b19565b005b34801561013d575f80fd5b50610146611470565b604051610153919061253e565b60405180910390f35b348015610167575f80fd5b50610170611493565b60405161017d9190612566565b60405180910390f35b348015610191575f80fd5b5061019a611499565b6040516101a79190612566565b60405180910390f35b6101ca60048036038101906101c5919061265c565b61149f565b005b3480156101d7575f80fd5b506101e0611c23565b6040516101ed9190612566565b60405180910390f35b348015610201575f80fd5b5061021c60048036038101906102179190612362565b611c29565b005b348015610229575f80fd5b50610232611ea3565b005b670de0b6b3a764000060035f3373ffffffffffffffffffffffffffffffffffffffff1673ffffffffffffffffffffffffffffffffffffffff1681526020019081526020015f205f01541015806102d457505f8054906101000a900473ffffffffffffffffffffffffffffffffffffffff1673ffffffffffffffffffffffffffffffffffffffff163373ffffffffffffffffffffffffffffffffffffffff16145b610313576040517f08c379a000000000000000000000000000000000000000000000000000000000815260040161030a9061271a565b60405180910390fd5b5f60055490505f80610341476001546007546005546103329190612765565b61033c9190612765565b611fa3565b905069021e19e0c9bab240000081106103895760c88161036191906127c5565b8361036c9190612765565b925060c88161037b91906127c5565b826103869190612765565b91505b5f6005819055505f5b60028054905081101561054857670de0b6b3a764000060035f600284815481106103bf576103be6127f5565b5b905f5260205f20015f9054906101000a900473ffffffffffffffffffffffffffffffffffffffff1673ffffffffffffffffffffffffffffffffffffffff1673ffffffffffffffffffffffffffffffffffffffff1681526020019081526020015f205f01541061053b575f6104b86104b060035f60028681548110610446576104456127f5565b5b905f5260205f20015f9054906101000a900473ffffffffffffffffffffffffffffffffffffffff1673ffffffffffffffffffffffffffffffffffffffff1673ffffffffffffffffffffffffffffffffffffffff1681526020019081526020015f205f015487611fc9565b60045461200e565b9050600282815481106104ce576104cd6127f5565b5b905f5260205f20015f9054906101000a900473ffffffffffffffffffffffffffffffffffffffff1673ffffffffffffffffffffffffffffffffffffffff166108fc8290811502906040515f60405180830381858888f19350505050158015610538573d5f803e3d5ffd5b50505b8080600101915050610392565b505f8211156105b5575f8054906101000a900473ffffffffffffffffffffffffffffffffffffffff1673ffffffffffffffffffffffffffffffffffffffff166108fc8390811502906040515f60405180830381858888f193505050501580156105b3573d5f803e3d5ffd5b505b505050565b662386f26fc1000060095f3373ffffffffffffffffffffffffffffffffffffffff1673ffffffffffffffffffffffffffffffffffffffff1681526020019081526020015f20600201541015610644576040517f08c379a000000000000000000000000000000000000000000000000000000000815260040161063b9061286c565b60405180910390fd5b5f60095f3373ffffffffffffffffffffffffffffffffffffffff1673ffffffffffffffffffffffffffffffffffffffff1681526020019081526020015f206002015490505f60095f3373ffffffffffffffffffffffffffffffffffffffff1673ffffffffffffffffffffffffffffffffffffffff1681526020019081526020015f20600201819055508060075f8282546106de919061288a565b925050819055503373ffffffffffffffffffffffffffffffffffffffff166108fc8290811502906040515f60405180830381858888f19350505050158015610728573d5f803e3d5ffd5b5050565b60605f8290505f600b80549050905080821115610747578091505b5f8267ffffffffffffffff811115610762576107616128bd565b5b60405190808252806020026020018201604052801561079b57816020015b610788612208565b8152602001906001900390816107805790505b5090505f5b838110156108b457600b816001856107b8919061288a565b6107c2919061288a565b815481106107d3576107d26127f5565b5b905f5260205f2090600302016040518060800160405290815f82015f9054906101000a900463ffffffff1663ffffffff1663ffffffff1681526020015f820160049054906101000a900460ff1660ff1660ff16815260200160018201548152602001600282015f9054906101000a900473ffffffffffffffffffffffffffffffffffffffff1673ffffffffffffffffffffffffffffffffffffffff1673ffffffffffffffffffffffffffffffffffffffff168152505082828151811061089c5761089b6127f5565b5b602002602001018190525080806001019150506107a0565b50809350505050919050565b670de0b6b3a764000034101580156108e15750683635c9adc5dea000003411155b610920576040517f08c379a00000000000000000000000000000000000000000000000000000000081526004016109179061295a565b60405180910390fd5b69021e19e0c9bab2400000610951476001546007546005546109429190612765565b61094c9190612765565b611fa3565b111561095b575f80fd5b3460045f82825461096c9190612765565b925050819055503460035f3373ffffffffffffffffffffffffffffffffffffffff1673ffffffffffffffffffffffffffffffffffffffff1681526020019081526020015f205f015f8282546109c19190612765565b925050819055504260035f3373ffffffffffffffffffffffffffffffffffffffff1673ffffffffffffffffffffffffffffffffffffffff1681526020019081526020015f206001018190555060035f3373ffffffffffffffffffffffffffffffffffffffff1673ffffffffffffffffffffffffffffffffffffffff1681526020019081526020015f206002015f9054906101000a900460ff16610b1757600160035f3373ffffffffffffffffffffffffffffffffffffffff1673ffffffffffffffffffffffffffffffffffffffff1681526020019081526020015f206002015f6101000a81548160ff021916908315150217905550600233908060018154018082558091505060019003905f5260205f20015f9091909190916101000a81548173ffffffffffffffffffffffffffffffffffffffff021916908373ffffffffffffffffffffffffffffffffffffffff1602179055505b565b5f60095f3373ffffffffffffffffffffffffffffffffffffffff1673ffffffffffffffffffffffffffffffffffffffff1681526020019081526020015f205f018054905011610b9d576040517f08c379a0000000000000000000000000000000000000000000000000000000008152600401610b94906129e8565b60405180910390fd5b60095f3373ffffffffffffffffffffffffffffffffffffffff1673ffffffffffffffffffffffffffffffffffffffff1681526020019081526020015f205f01600160095f3373ffffffffffffffffffffffffffffffffffffffff1673ffffffffffffffffffffffffffffffffffffffff1681526020019081526020015f205f0180549050610c2b919061288a565b81548110610c3c57610c3b6127f5565b5b905f5260205f20906002020160010160019054906101000a90047effffffffffffffffffffffffffffffffffffffffffffffffffffffffffffff167effffffffffffffffffffffffffffffffffffffffffffffffffffffffffffff164311610cd9576040517f08c379a0000000000000000000000000000000000000000000000000000000008152600401610cd090612a50565b60405180910390fd5b5f60095f3373ffffffffffffffffffffffffffffffffffffffff1673ffffffffffffffffffffffffffffffffffffffff1681526020019081526020015f20600101805490501115610d705760095f3373ffffffffffffffffffffffffffffffffffffffff1673ffffffffffffffffffffffffffffffffffffffff1681526020019081526020015f206001015f610d6f919061224b565b5b5f805f90505b60095f3373ffffffffffffffffffffffffffffffffffffffff1673ffffffffffffffffffffffffffffffffffffffff1681526020019081526020015f205f018054905081101561132b575f60095f3373ffffffffffffffffffffffffffffffffffffffff1673ffffffffffffffffffffffffffffffffffffffff1681526020019081526020015f205f018281548110610e1257610e116127f5565b5b905f5260205f20906002020160010160019054906101000a90047effffffffffffffffffffffffffffffffffffffffffffffffffffffffffffff167effffffffffffffffffffffffffffffffffffffffffffffffffffffffffffff16405f1c031561131e575f60095f3373ffffffffffffffffffffffffffffffffffffffff1673ffffffffffffffffffffffffffffffffffffffff1681526020019081526020015f205f018281548110610ec957610ec86127f5565b5b905f5260205f2090600202015f015460095f3373ffffffffffffffffffffffffffffffffffffffff1673ffffffffffffffffffffffffffffffffffffffff1681526020019081526020015f205f018381548110610f2957610f286127f5565b5b905f5260205f20906002020160010160019054906101000a90047effffffffffffffffffffffffffffffffffffffffffffffffffffffffffffff167effffffffffffffffffffffffffffffffffffffffffffffffffffffffffffff1640604051602001610f97929190612a97565b6040516020818303038152906040528051906020012060e01c90505f610fbc82612038565b90505f8111156111e4575f66470de4df82000060095f3373ffffffffffffffffffffffffffffffffffffffff1673ffffffffffffffffffffffffffffffffffffffff1681526020019081526020015f205f0185815481106110205761101f6127f5565b5b905f5260205f2090600202016001015f9054906101000a900460ff1660ff166110488461213b565b6110529190612ac2565b61105c9190612ac2565b9050808561106a9190612765565b94505f60405180608001604052808563ffffffff16815260200160095f3373ffffffffffffffffffffffffffffffffffffffff1673ffffffffffffffffffffffffffffffffffffffff1681526020019081526020015f205f0187815481106110d5576110d46127f5565b5b905f5260205f2090600202016001015f9054906101000a900460ff1660ff1681526020014264ffffffffff1681526020013373ffffffffffffffffffffffffffffffffffffffff168152509050600b81908060018154018082558091505060019003905f5260205f2090600302015f909190919091505f820151815f015f6101000a81548163ffffffff021916908363ffffffff1602179055506020820151815f0160046101000a81548160ff021916908360ff160217905550604082015181600101556060820151816002015f6101000a81548173ffffffffffffffffffffffffffffffffffffffff021916908373ffffffffffffffffffffffffffffffffffffffff160217905550505050505b5f60405180604001604052808463ffffffff16815260200160095f3373ffffffffffffffffffffffffffffffffffffffff1673ffffffffffffffffffffffffffffffffffffffff1681526020019081526020015f205f01868154811061124d5761124c6127f5565b5b905f5260205f2090600202016001015f9054906101000a900460ff1660ff16815250905060095f3373ffffffffffffffffffffffffffffffffffffffff1673ffffffffffffffffffffffffffffffffffffffff1681526020019081526020015f2060010181908060018154018082558091505060019003905f5260205f20015f909190919091505f820151815f015f6101000a81548163ffffffff021916908363ffffffff1602179055506020820151815f0160046101000a81548160ff021916908360ff16021790555050505050505b8080600101915050610d76565b5060095f3373ffffffffffffffffffffffffffffffffffffffff1673ffffffffffffffffffffffffffffffffffffffff1681526020019081526020015f205f015f6113769190612269565b5f81111561146d575f6113b96113b26113ab4760015460075460055461139c9190612765565b6113a69190612765565b611fa3565b6046611fc9565b606461200e565b9050808211156113c7578091505b5f6113dd6113d6846005611fc9565b606461200e565b90508060055f8282546113f09190612765565b925050819055508060015f8282546114089190612765565b925050819055503373ffffffffffffffffffffffffffffffffffffffff166108fc6002836114369190612ac2565b85611441919061288a565b90811502906040515f60405180830381858888f19350505050158015611469573d5f803e3d5ffd5b5050505b50565b5f8054906101000a900473ffffffffffffffffffffffffffffffffffffffff1681565b60045481565b60065481565b66470de4df8200003410156114e9576040517f08c379a00000000000000000000000000000000000000000000000000000000081526004016114e090612b4d565b60405180910390fd5b60018360ff1610158015611501575060648360ff1611155b611540576040517f08c379a000000000000000000000000000000000000000000000000000000000815260040161153790612bb5565b60405180910390fd5b60018461ffff161015801561155b57506103e88461ffff1611155b61159a576040517f08c379a000000000000000000000000000000000000000000000000000000000815260040161159190612c1d565b60405180910390fd5b5f6115ac3466470de4df82000061200e565b90508360ff16856115bd9190612c3b565b61ffff168114611602576040517f08c379a00000000000000000000000000000000000000000000000000000000081526004016115f990612cc1565b60405180910390fd5b5f5b8561ffff16811015611785575f6040518060600160405280424133898061162a90612cdf565b9a5060405160200161163f9493929190612df5565b6040516020818303038152906040528051906020012081526020018760ff168152602001437effffffffffffffffffffffffffffffffffffffffffffffffffffffffffffff16815250905060095f3373ffffffffffffffffffffffffffffffffffffffff1673ffffffffffffffffffffffffffffffffffffffff1681526020019081526020015f205f0181908060018154018082558091505060019003905f5260205f2090600202015f909190919091505f820151815f01556020820151816001015f6101000a81548160ff021916908360ff16021790555060408201518160010160016101000a8154817effffffffffffffffffffffffffffffffffffffffffffffffffffffffffffff02191690837effffffffffffffffffffffffffffffffffffffffffffffffffffffffffffff1602179055505050508080600101915050611604565b5060095f3373ffffffffffffffffffffffffffffffffffffffff1673ffffffffffffffffffffffffffffffffffffffff1681526020019081526020015f206003015f9054906101000a900460ff1661183057600160095f3373ffffffffffffffffffffffffffffffffffffffff1673ffffffffffffffffffffffffffffffffffffffff1681526020019081526020015f206003015f6101000a81548160ff0219169083151502179055505b5f61184661183f346003611fc9565b606461200e565b90505f61185e611857346004611fc9565b606461200e565b90508160015f8282546118719190612765565b925050819055508160055f8282546118899190612765565b925050819055505f73ffffffffffffffffffffffffffffffffffffffff16600a5f3373ffffffffffffffffffffffffffffffffffffffff1673ffffffffffffffffffffffffffffffffffffffff1681526020019081526020015f205f9054906101000a900473ffffffffffffffffffffffffffffffffffffffff1673ffffffffffffffffffffffffffffffffffffffff1603611c1a573373ffffffffffffffffffffffffffffffffffffffff168473ffffffffffffffffffffffffffffffffffffffff16148061198457505f73ffffffffffffffffffffffffffffffffffffffff168473ffffffffffffffffffffffffffffffffffffffff16145b806119d9575060095f3373ffffffffffffffffffffffffffffffffffffffff1673ffffffffffffffffffffffffffffffffffffffff1681526020019081526020015f206003015f9054906101000a900460ff16155b15611a01575f8054906101000a900473ffffffffffffffffffffffffffffffffffffffff1693505b83600a5f3373ffffffffffffffffffffffffffffffffffffffff1673ffffffffffffffffffffffffffffffffffffffff1681526020019081526020015f205f6101000a81548173ffffffffffffffffffffffffffffffffffffffff021916908373ffffffffffffffffffffffffffffffffffffffff1602179055505f8054906101000a900473ffffffffffffffffffffffffffffffffffffffff1673ffffffffffffffffffffffffffffffffffffffff16600a5f3373ffffffffffffffffffffffffffffffffffffffff1673ffffffffffffffffffffffffffffffffffffffff1681526020019081526020015f205f9054906101000a900473ffffffffffffffffffffffffffffffffffffffff1673ffffffffffffffffffffffffffffffffffffffff1603611b47578060015f828254611b3b9190612765565b92505081905550611c12565b8060095f600a5f3373ffffffffffffffffffffffffffffffffffffffff1673ffffffffffffffffffffffffffffffffffffffff1681526020019081526020015f205f9054906101000a900473ffffffffffffffffffffffffffffffffffffffff1673ffffffffffffffffffffffffffffffffffffffff1673ffffffffffffffffffffffffffffffffffffffff1681526020019081526020015f206002015f828254611bf29190612765565b925050819055508060075f828254611c0a9190612765565b925050819055505b426008819055505b50505050505050565b60055481565b670de0b6b3a7640000811015611c74576040517f08c379a0000000000000000000000000000000000000000000000000000000008152600401611c6b90612ed8565b60405180910390fd5b60035f3373ffffffffffffffffffffffffffffffffffffffff1673ffffffffffffffffffffffffffffffffffffffff1681526020019081526020015f205f0154811115611cf6576040517f08c379a0000000000000000000000000000000000000000000000000000000008152600401611ced90612f40565b60405180910390fd5b62093a8060035f3373ffffffffffffffffffffffffffffffffffffffff1673ffffffffffffffffffffffffffffffffffffffff1681526020019081526020015f2060010154611d459190612765565b421015611d87576040517f08c379a0000000000000000000000000000000000000000000000000000000008152600401611d7e90612fa8565b60405180910390fd5b80611dae47600154600754600554611d9f9190612765565b611da99190612765565b611fa3565b1015611def576040517f08c379a0000000000000000000000000000000000000000000000000000000008152600401611de690613010565b60405180910390fd5b8060035f3373ffffffffffffffffffffffffffffffffffffffff1673ffffffffffffffffffffffffffffffffffffffff1681526020019081526020015f205f015f828254611e3d919061288a565b925050819055508060045f828254611e55919061288a565b925050819055503373ffffffffffffffffffffffffffffffffffffffff166108fc8290811502906040515f60405180830381858888f19350505050158015611e9f573d5f803e3d5ffd5b5050565b5f8054906101000a900473ffffffffffffffffffffffffffffffffffffffff1673ffffffffffffffffffffffffffffffffffffffff163373ffffffffffffffffffffffffffffffffffffffff1614611f30576040517f08c379a0000000000000000000000000000000000000000000000000000000008152600401611f2790613078565b60405180910390fd5b5f60015490505f6001819055505f8054906101000a900473ffffffffffffffffffffffffffffffffffffffff1673ffffffffffffffffffffffffffffffffffffffff166108fc8290811502906040515f60405180830381858888f19350505050158015611f9f573d5f803e3d5ffd5b5050565b5f82821115611fb557611fb4613096565b5b8183611fc1919061288a565b905092915050565b5f808303611fd9575f9050612008565b5f8284611fe69190612ac2565b9050828482611ff591906127c5565b1461200357612002613096565b5b809150505b92915050565b5f80821161201f5761201e613096565b5b5f828461202c91906127c5565b90508091505092915050565b5f63040000008263ffffffff161115612053575f9050612136565b63010000008263ffffffff161061206d57600a9050612136565b624000008263ffffffff16106120865760099050612136565b621000008263ffffffff161061209f5760089050612136565b620400008263ffffffff16106120b85760079050612136565b620100008263ffffffff16106120d15760069050612136565b6140008263ffffffff16106120e95760059050612136565b6110008263ffffffff16106121015760049050612136565b6104008263ffffffff16106121195760039050612136565b6101008263ffffffff16106121315760029050612136565b600190505b919050565b5f80820361214b575f9050612203565b600a820361215c5760059050612203565b6009820361216d5760149050612203565b6008820361217e5760509050612203565b60078203612190576101409050612203565b600682036121a2576104b09050612203565b600582036121b4576112c09050612203565b600482036121c657614e209050612203565b600382036121d957620186a09050612203565b600282036121ec576207a1209050612203565b600182036121ff57621e84809050612203565b5f90505b919050565b60405180608001604052805f63ffffffff1681526020015f60ff1681526020015f81526020015f73ffffffffffffffffffffffffffffffffffffffff1681525090565b5080545f8255905f5260205f2090810190612266919061228a565b50565b5080545f8255600202905f5260205f209081019061228791906122c9565b50565b5b808211156122c5575f8082015f6101000a81549063ffffffff02191690555f820160046101000a81549060ff02191690555060010161228b565b5090565b5b80821115612327575f8082015f9055600182015f6101000a81549060ff02191690556001820160016101000a8154907effffffffffffffffffffffffffffffffffffffffffffffffffffffffffffff0219169055506002016122ca565b5090565b5f80fd5b5f819050919050565b6123418161232f565b811461234b575f80fd5b50565b5f8135905061235c81612338565b92915050565b5f602082840312156123775761237661232b565b5b5f6123848482850161234e565b91505092915050565b5f81519050919050565b5f82825260208201905092915050565b5f819050602082019050919050565b5f63ffffffff82169050919050565b6123ce816123b6565b82525050565b5f60ff82169050919050565b6123e9816123d4565b82525050565b6123f88161232f565b82525050565b5f73ffffffffffffffffffffffffffffffffffffffff82169050919050565b5f612427826123fe565b9050919050565b6124378161241d565b82525050565b608082015f8201516124515f8501826123c5565b50602082015161246460208501826123e0565b50604082015161247760408501826123ef565b50606082015161248a606085018261242e565b50505050565b5f61249b838361243d565b60808301905092915050565b5f602082019050919050565b5f6124bd8261238d565b6124c78185612397565b93506124d2836123a7565b805f5b838110156125025781516124e98882612490565b97506124f4836124a7565b9250506001810190506124d5565b5085935050505092915050565b5f6020820190508181035f83015261252781846124b3565b905092915050565b6125388161241d565b82525050565b5f6020820190506125515f83018461252f565b92915050565b6125608161232f565b82525050565b5f6020820190506125795f830184612557565b92915050565b5f61ffff82169050919050565b6125958161257f565b811461259f575f80fd5b50565b5f813590506125b08161258c565b92915050565b6125bf816123d4565b81146125c9575f80fd5b50565b5f813590506125da816125b6565b92915050565b5f7cffffffffffffffffffffffffffffffffffffffffffffffffffffffffff82169050919050565b612611816125e0565b811461261b575f80fd5b50565b5f8135905061262c81612608565b92915050565b61263b8161241d565b8114612645575f80fd5b50565b5f8135905061265681612632565b92915050565b5f805f80608085870312156126745761267361232b565b5b5f612681878288016125a2565b9450506020612692878288016125cc565b93505060406126a38782880161261e565b92505060606126b487828801612648565b91505092959194509250565b5f82825260208201905092915050565b7f596f75206d757374206265206120696e766573746f72000000000000000000005f82015250565b5f6127046016836126c0565b915061270f826126d0565b602082019050919050565b5f6020820190508181035f830152612731816126f8565b9050919050565b7f4e487b71000000000000000000000000000000000000000000000000000000005f52601160045260245ffd5b5f61276f8261232f565b915061277a8361232f565b925082820190508082111561279257612791612738565b5b92915050565b7f4e487b71000000000000000000000000000000000000000000000000000000005f52601260045260245ffd5b5f6127cf8261232f565b91506127da8361232f565b9250826127ea576127e9612798565b5b828204905092915050565b7f4e487b71000000000000000000000000000000000000000000000000000000005f52603260045260245ffd5b7f4e6f7420656e6f7567682070726f66697420746f2077697468647261772100005f82015250565b5f612856601e836126c0565b915061286182612822565b602082019050919050565b5f6020820190508181035f8301526128838161284a565b9050919050565b5f6128948261232f565b915061289f8361232f565b92508282039050818111156128b7576128b6612738565b5b92915050565b7f4e487b71000000000000000000000000000000000000000000000000000000005f52604160045260245ffd5b7f496e766573746d656e7420616d6f756e7420626574657765656e203120616e645f8201527f2031303030000000000000000000000000000000000000000000000000000000602082015250565b5f6129446025836126c0565b915061294f826128ea565b604082019050919050565b5f6020820190508181035f83015261297181612938565b9050919050565b7f596f7520646f6e2774206861766520756e64726177206c6f74746572792074695f8201527f636b657473000000000000000000000000000000000000000000000000000000602082015250565b5f6129d26025836126c0565b91506129dd82612978565b604082019050919050565b5f6020820190508181035f8301526129ff816129c6565b9050919050565b7f49742773206e6f742074696d65000000000000000000000000000000000000005f82015250565b5f612a3a600d836126c0565b9150612a4582612a06565b602082019050919050565b5f6020820190508181035f830152612a6781612a2e565b9050919050565b5f819050919050565b5f819050919050565b612a91612a8c82612a6e565b612a77565b82525050565b5f612aa28285612a80565b602082019150612ab28284612a80565b6020820191508190509392505050565b5f612acc8261232f565b9150612ad78361232f565b9250828202612ae58161232f565b91508282048414831517612afc57612afb612738565b5b5092915050565b7f427579206174206c65617374206f6e65206567670000000000000000000000005f82015250565b5f612b376014836126c0565b9150612b4282612b03565b602082019050919050565b5f6020820190508181035f830152612b6481612b2b565b9050919050565b7f4d756c7469706c6573206265747765656e203120616e642031303000000000005f82015250565b5f612b9f601b836126c0565b9150612baa82612b6b565b602082019050919050565b5f6020820190508181035f830152612bcc81612b93565b9050919050565b7f4e756d626572206f662065676773206265747765656e203120616e64203130305f82015250565b5f612c076020836126c0565b9150612c1282612bd3565b602082019050919050565b5f6020820190508181035f830152612c3481612bfb565b9050919050565b5f612c458261257f565b9150612c508361257f565b9250828202612c5e8161257f565b9150808214612c7057612c6f612738565b5b5092915050565b7f496e76616c6964206461746100000000000000000000000000000000000000005f82015250565b5f612cab600c836126c0565b9150612cb682612c77565b602082019050919050565b5f6020820190508181035f830152612cd881612c9f565b9050919050565b5f612ce9826125e0565b91507cffffffffffffffffffffffffffffffffffffffffffffffffffffffffff8203612d1857612d17612738565b5b600182019050919050565b5f819050919050565b612d3d612d388261232f565b612d23565b82525050565b5f612d4d826123fe565b9050919050565b5f8160601b9050919050565b5f612d6a82612d54565b9050919050565b5f612d7b82612d60565b9050919050565b612d93612d8e82612d43565b612d71565b82525050565b5f612da382612d60565b9050919050565b612dbb612db68261241d565b612d99565b82525050565b5f8160181b9050919050565b5f612dd782612dc1565b9050919050565b612def612dea826125e0565b612dcd565b82525050565b5f612e008287612d2c565b602082019150612e108286612d82565b601482019150612e208285612daa565b601482019150612e308284612dde565b601d8201915081905095945050505050565b7f4d696e696d756d20696e766573746d656e7420616d6f756e74206973207265715f8201527f75697265642c6974277320736d616c6c6572207468616e20746865206d696e6960208201527f6d756d206465706f736974000000000000000000000000000000000000000000604082015250565b5f612ec2604b836126c0565b9150612ecd82612e42565b606082019050919050565b5f6020820190508181035f830152612eef81612eb6565b9050919050565b7f4e6f7420656e6f7567682066756e6420746f20776974686472617721000000005f82015250565b5f612f2a601c836126c0565b9150612f3582612ef6565b602082019050919050565b5f6020820190508181035f830152612f5781612f1e565b9050919050565b7f43616e6e6f74207769746864726177206166746572206f6e65207765656b21005f82015250565b5f612f92601f836126c0565b9150612f9d82612f5e565b602082019050919050565b5f6020820190508181035f830152612fbf81612f86565b9050919050565b7f496e73756666696369656e742066756e6420746f2077697468647261772100005f82015250565b5f612ffa601e836126c0565b915061300582612fc6565b602082019050919050565b5f6020820190508181035f83015261302781612fee565b9050919050565b7f596f75206d7573742062652074686520646576656c6f706572000000000000005f82015250565b5f6130626019836126c0565b915061306d8261302e565b602082019050919050565b5f6020820190508181035f83015261308f81613056565b9050919050565b7f4e487b71000000000000000000000000000000000000000000000000000000005f52600160045260245ffdfea2646970667358221220751d18f40d59c756396c0aebb7ee752de71af41bc95608a2dab7d710cbe07cc464736f6c634300081a0033",
					"opcodes": "PUSH1 0x80 PUSH1 0x40 MSTORE CALLVALUE DUP1 ISZERO PUSH1 0xE JUMPI PUSH0 DUP1 REVERT JUMPDEST POP CALLER PUSH0 DUP1 PUSH2 0x100 EXP DUP2 SLOAD DUP2 PUSH20 0xFFFFFFFFFFFFFFFFFFFFFFFFFFFFFFFFFFFFFFFF MUL NOT AND SWAP1 DUP4 PUSH20 0xFFFFFFFFFFFFFFFFFFFFFFFFFFFFFFFFFFFFFFFF AND MUL OR SWAP1 SSTORE POP TIMESTAMP PUSH1 0x6 DUP2 SWAP1 SSTORE POP TIMESTAMP PUSH1 0x8 DUP2 SWAP1 SSTORE POP PUSH2 0x30F9 DUP1 PUSH2 0x69 PUSH0 CODECOPY PUSH0 RETURN INVALID PUSH1 0x80 PUSH1 0x40 MSTORE PUSH1 0x4 CALLDATASIZE LT PUSH2 0xA6 JUMPI PUSH0 CALLDATALOAD PUSH1 0xE0 SHR DUP1 PUSH4 0xA659F4DC GT PUSH2 0x63 JUMPI DUP1 PUSH4 0xA659F4DC EQ PUSH2 0x15C JUMPI DUP1 PUSH4 0xB1C617FF EQ PUSH2 0x186 JUMPI DUP1 PUSH4 0xC9EA0299 EQ PUSH2 0x1B0 JUMPI DUP1 PUSH4 0xCA6AAE29 EQ PUSH2 0x1CC JUMPI DUP1 PUSH4 0xDD5F6F4D EQ PUSH2 0x1F6 JUMPI DUP1 PUSH4 0xF4E79B5B EQ PUSH2 0x21E JUMPI PUSH2 0xA6 JUMP JUMPDEST DUP1 PUSH4 0x12DB1357 EQ PUSH2 0xAA JUMPI DUP1 PUSH4 0x22629256 EQ PUSH2 0xC0 JUMPI DUP1 PUSH4 0x2B5BACA1 EQ PUSH2 0xD6 JUMPI DUP1 PUSH4 0x49821332 EQ PUSH2 0x112 JUMPI DUP1 PUSH4 0x7DA384FD EQ PUSH2 0x11C JUMPI DUP1 PUSH4 0x89A4C1A0 EQ PUSH2 0x132 JUMPI JUMPDEST PUSH0 DUP1 REVERT JUMPDEST CALLVALUE DUP1 ISZERO PUSH2 0xB5 JUMPI PUSH0 DUP1 REVERT JUMPDEST POP PUSH2 0xBE PUSH2 0x234 JUMP JUMPDEST STOP JUMPDEST CALLVALUE DUP1 ISZERO PUSH2 0xCB JUMPI PUSH0 DUP1 REVERT JUMPDEST POP PUSH2 0xD4 PUSH2 0x5BA JUMP JUMPDEST STOP JUMPDEST CALLVALUE DUP1 ISZERO PUSH2 0xE1 JUMPI PUSH0 DUP1 REVERT JUMPDEST POP PUSH2 0xFC PUSH1 0x4 DUP1 CALLDATASIZE SUB DUP2 ADD SWAP1 PUSH2 0xF7 SWAP2 SWAP1 PUSH2 0x2362 JUMP JUMPDEST PUSH2 0x72C JUMP JUMPDEST PUSH1 0x40 MLOAD PUSH2 0x109 SWAP2 SWAP1 PUSH2 0x250F JUMP JUMPDEST PUSH1 0x40 MLOAD DUP1 SWAP2 SUB SWAP1 RETURN JUMPDEST PUSH2 0x11A PUSH2 0x8C0 JUMP JUMPDEST STOP JUMPDEST CALLVALUE DUP1 ISZERO PUSH2 0x127 JUMPI PUSH0 DUP1 REVERT JUMPDEST POP PUSH2 0x130 PUSH2 0xB19 JUMP JUMPDEST STOP JUMPDEST CALLVALUE DUP1 ISZERO PUSH2 0x13D JUMPI PUSH0 DUP1 REVERT JUMPDEST POP PUSH2 0x146 PUSH2 0x1470 JUMP JUMPDEST PUSH1 0x40 MLOAD PUSH2 0x153 SWAP2 SWAP1 PUSH2 0x253E JUMP JUMPDEST PUSH1 0x40 MLOAD DUP1 SWAP2 SUB SWAP1 RETURN JUMPDEST CALLVALUE DUP1 ISZERO PUSH2 0x167 JUMPI PUSH0 DUP1 REVERT JUMPDEST POP PUSH2 0x170 PUSH2 0x1493 JUMP JUMPDEST PUSH1 0x40 MLOAD PUSH2 0x17D SWAP2 SWAP1 PUSH2 0x2566 JUMP JUMPDEST PUSH1 0x40 MLOAD DUP1 SWAP2 SUB SWAP1 RETURN JUMPDEST CALLVALUE DUP1 ISZERO PUSH2 0x191 JUMPI PUSH0 DUP1 REVERT JUMPDEST POP PUSH2 0x19A PUSH2 0x1499 JUMP JUMPDEST PUSH1 0x40 MLOAD PUSH2 0x1A7 SWAP2 SWAP1 PUSH2 0x2566 JUMP JUMPDEST PUSH1 0x40 MLOAD DUP1 SWAP2 SUB SWAP1 RETURN JUMPDEST PUSH2 0x1CA PUSH1 0x4 DUP1 CALLDATASIZE SUB DUP2 ADD SWAP1 PUSH2 0x1C5 SWAP2 SWAP1 PUSH2 0x265C JUMP JUMPDEST PUSH2 0x149F JUMP JUMPDEST STOP JUMPDEST CALLVALUE DUP1 ISZERO PUSH2 0x1D7 JUMPI PUSH0 DUP1 REVERT JUMPDEST POP PUSH2 0x1E0 PUSH2 0x1C23 JUMP JUMPDEST PUSH1 0x40 MLOAD PUSH2 0x1ED SWAP2 SWAP1 PUSH2 0x2566 JUMP JUMPDEST PUSH1 0x40 MLOAD DUP1 SWAP2 SUB SWAP1 RETURN JUMPDEST CALLVALUE DUP1 ISZERO PUSH2 0x201 JUMPI PUSH0 DUP1 REVERT JUMPDEST POP PUSH2 0x21C PUSH1 0x4 DUP1 CALLDATASIZE SUB DUP2 ADD SWAP1 PUSH2 0x217 SWAP2 SWAP1 PUSH2 0x2362 JUMP JUMPDEST PUSH2 0x1C29 JUMP JUMPDEST STOP JUMPDEST CALLVALUE DUP1 ISZERO PUSH2 0x229 JUMPI PUSH0 DUP1 REVERT JUMPDEST POP PUSH2 0x232 PUSH2 0x1EA3 JUMP JUMPDEST STOP JUMPDEST PUSH8 0xDE0B6B3A7640000 PUSH1 0x3 PUSH0 CALLER PUSH20 0xFFFFFFFFFFFFFFFFFFFFFFFFFFFFFFFFFFFFFFFF AND PUSH20 0xFFFFFFFFFFFFFFFFFFFFFFFFFFFFFFFFFFFFFFFF AND DUP2 MSTORE PUSH1 0x20 ADD SWAP1 DUP2 MSTORE PUSH1 0x20 ADD PUSH0 KECCAK256 PUSH0 ADD SLOAD LT ISZERO DUP1 PUSH2 0x2D4 JUMPI POP PUSH0 DUP1 SLOAD SWAP1 PUSH2 0x100 EXP SWAP1 DIV PUSH20 0xFFFFFFFFFFFFFFFFFFFFFFFFFFFFFFFFFFFFFFFF AND PUSH20 0xFFFFFFFFFFFFFFFFFFFFFFFFFFFFFFFFFFFFFFFF AND CALLER PUSH20 0xFFFFFFFFFFFFFFFFFFFFFFFFFFFFFFFFFFFFFFFF AND EQ JUMPDEST PUSH2 0x313 JUMPI PUSH1 0x40 MLOAD PUSH32 0x8C379A000000000000000000000000000000000000000000000000000000000 DUP2 MSTORE PUSH1 0x4 ADD PUSH2 0x30A SWAP1 PUSH2 0x271A JUMP JUMPDEST PUSH1 0x40 MLOAD DUP1 SWAP2 SUB SWAP1 REVERT JUMPDEST PUSH0 PUSH1 0x5 SLOAD SWAP1 POP PUSH0 DUP1 PUSH2 0x341 SELFBALANCE PUSH1 0x1 SLOAD PUSH1 0x7 SLOAD PUSH1 0x5 SLOAD PUSH2 0x332 SWAP2 SWAP1 PUSH2 0x2765 JUMP JUMPDEST PUSH2 0x33C SWAP2 SWAP1 PUSH2 0x2765 JUMP JUMPDEST PUSH2 0x1FA3 JUMP JUMPDEST SWAP1 POP PUSH10 0x21E19E0C9BAB2400000 DUP2 LT PUSH2 0x389 JUMPI PUSH1 0xC8 DUP2 PUSH2 0x361 SWAP2 SWAP1 PUSH2 0x27C5 JUMP JUMPDEST DUP4 PUSH2 0x36C SWAP2 SWAP1 PUSH2 0x2765 JUMP JUMPDEST SWAP3 POP PUSH1 0xC8 DUP2 PUSH2 0x37B SWAP2 SWAP1 PUSH2 0x27C5 JUMP JUMPDEST DUP3 PUSH2 0x386 SWAP2 SWAP1 PUSH2 0x2765 JUMP JUMPDEST SWAP2 POP JUMPDEST PUSH0 PUSH1 0x5 DUP2 SWAP1 SSTORE POP PUSH0 JUMPDEST PUSH1 0x2 DUP1 SLOAD SWAP1 POP DUP2 LT ISZERO PUSH2 0x548 JUMPI PUSH8 0xDE0B6B3A7640000 PUSH1 0x3 PUSH0 PUSH1 0x2 DUP5 DUP2 SLOAD DUP2 LT PUSH2 0x3BF JUMPI PUSH2 0x3BE PUSH2 0x27F5 JUMP JUMPDEST JUMPDEST SWAP1 PUSH0 MSTORE PUSH1 0x20 PUSH0 KECCAK256 ADD PUSH0 SWAP1 SLOAD SWAP1 PUSH2 0x100 EXP SWAP1 DIV PUSH20 0xFFFFFFFFFFFFFFFFFFFFFFFFFFFFFFFFFFFFFFFF AND PUSH20 0xFFFFFFFFFFFFFFFFFFFFFFFFFFFFFFFFFFFFFFFF AND PUSH20 0xFFFFFFFFFFFFFFFFFFFFFFFFFFFFFFFFFFFFFFFF AND DUP2 MSTORE PUSH1 0x20 ADD SWAP1 DUP2 MSTORE PUSH1 0x20 ADD PUSH0 KECCAK256 PUSH0 ADD SLOAD LT PUSH2 0x53B JUMPI PUSH0 PUSH2 0x4B8 PUSH2 0x4B0 PUSH1 0x3 PUSH0 PUSH1 0x2 DUP7 DUP2 SLOAD DUP2 LT PUSH2 0x446 JUMPI PUSH2 0x445 PUSH2 0x27F5 JUMP JUMPDEST JUMPDEST SWAP1 PUSH0 MSTORE PUSH1 0x20 PUSH0 KECCAK256 ADD PUSH0 SWAP1 SLOAD SWAP1 PUSH2 0x100 EXP SWAP1 DIV PUSH20 0xFFFFFFFFFFFFFFFFFFFFFFFFFFFFFFFFFFFFFFFF AND PUSH20 0xFFFFFFFFFFFFFFFFFFFFFFFFFFFFFFFFFFFFFFFF AND PUSH20 0xFFFFFFFFFFFFFFFFFFFFFFFFFFFFFFFFFFFFFFFF AND DUP2 MSTORE PUSH1 0x20 ADD SWAP1 DUP2 MSTORE PUSH1 0x20 ADD PUSH0 KECCAK256 PUSH0 ADD SLOAD DUP8 PUSH2 0x1FC9 JUMP JUMPDEST PUSH1 0x4 SLOAD PUSH2 0x200E JUMP JUMPDEST SWAP1 POP PUSH1 0x2 DUP3 DUP2 SLOAD DUP2 LT PUSH2 0x4CE JUMPI PUSH2 0x4CD PUSH2 0x27F5 JUMP JUMPDEST JUMPDEST SWAP1 PUSH0 MSTORE PUSH1 0x20 PUSH0 KECCAK256 ADD PUSH0 SWAP1 SLOAD SWAP1 PUSH2 0x100 EXP SWAP1 DIV PUSH20 0xFFFFFFFFFFFFFFFFFFFFFFFFFFFFFFFFFFFFFFFF AND PUSH20 0xFFFFFFFFFFFFFFFFFFFFFFFFFFFFFFFFFFFFFFFF AND PUSH2 0x8FC DUP3 SWAP1 DUP2 ISZERO MUL SWAP1 PUSH1 0x40 MLOAD PUSH0 PUSH1 0x40 MLOAD DUP1 DUP4 SUB DUP2 DUP6 DUP9 DUP9 CALL SWAP4 POP POP POP POP ISZERO DUP1 ISZERO PUSH2 0x538 JUMPI RETURNDATASIZE PUSH0 DUP1 RETURNDATACOPY RETURNDATASIZE PUSH0 REVERT JUMPDEST POP POP JUMPDEST DUP1 DUP1 PUSH1 0x1 ADD SWAP2 POP POP PUSH2 0x392 JUMP JUMPDEST POP PUSH0 DUP3 GT ISZERO PUSH2 0x5B5 JUMPI PUSH0 DUP1 SLOAD SWAP1 PUSH2 0x100 EXP SWAP1 DIV PUSH20 0xFFFFFFFFFFFFFFFFFFFFFFFFFFFFFFFFFFFFFFFF AND PUSH20 0xFFFFFFFFFFFFFFFFFFFFFFFFFFFFFFFFFFFFFFFF AND PUSH2 0x8FC DUP4 SWAP1 DUP2 ISZERO MUL SWAP1 PUSH1 0x40 MLOAD PUSH0 PUSH1 0x40 MLOAD DUP1 DUP4 SUB DUP2 DUP6 DUP9 DUP9 CALL SWAP4 POP POP POP POP ISZERO DUP1 ISZERO PUSH2 0x5B3 JUMPI RETURNDATASIZE PUSH0 DUP1 RETURNDATACOPY RETURNDATASIZE PUSH0 REVERT JUMPDEST POP JUMPDEST POP POP POP JUMP JUMPDEST PUSH7 0x2386F26FC10000 PUSH1 0x9 PUSH0 CALLER PUSH20 0xFFFFFFFFFFFFFFFFFFFFFFFFFFFFFFFFFFFFFFFF AND PUSH20 0xFFFFFFFFFFFFFFFFFFFFFFFFFFFFFFFFFFFFFFFF AND DUP2 MSTORE PUSH1 0x20 ADD SWAP1 DUP2 MSTORE PUSH1 0x20 ADD PUSH0 KECCAK256 PUSH1 0x2 ADD SLOAD LT ISZERO PUSH2 0x644 JUMPI PUSH1 0x40 MLOAD PUSH32 0x8C379A000000000000000000000000000000000000000000000000000000000 DUP2 MSTORE PUSH1 0x4 ADD PUSH2 0x63B SWAP1 PUSH2 0x286C JUMP JUMPDEST PUSH1 0x40 MLOAD DUP1 SWAP2 SUB SWAP1 REVERT JUMPDEST PUSH0 PUSH1 0x9 PUSH0 CALLER PUSH20 0xFFFFFFFFFFFFFFFFFFFFFFFFFFFFFFFFFFFFFFFF AND PUSH20 0xFFFFFFFFFFFFFFFFFFFFFFFFFFFFFFFFFFFFFFFF AND DUP2 MSTORE PUSH1 0x20 ADD SWAP1 DUP2 MSTORE PUSH1 0x20 ADD PUSH0 KECCAK256 PUSH1 0x2 ADD SLOAD SWAP1 POP PUSH0 PUSH1 0x9 PUSH0 CALLER PUSH20 0xFFFFFFFFFFFFFFFFFFFFFFFFFFFFFFFFFFFFFFFF AND PUSH20 0xFFFFFFFFFFFFFFFFFFFFFFFFFFFFFFFFFFFFFFFF AND DUP2 MSTORE PUSH1 0x20 ADD SWAP1 DUP2 MSTORE PUSH1 0x20 ADD PUSH0 KECCAK256 PUSH1 0x2 ADD DUP2 SWAP1 SSTORE POP DUP1 PUSH1 0x7 PUSH0 DUP3 DUP3 SLOAD PUSH2 0x6DE SWAP2 SWAP1 PUSH2 0x288A JUMP JUMPDEST SWAP3 POP POP DUP2 SWAP1 SSTORE POP CALLER PUSH20 0xFFFFFFFFFFFFFFFFFFFFFFFFFFFFFFFFFFFFFFFF AND PUSH2 0x8FC DUP3 SWAP1 DUP2 ISZERO MUL SWAP1 PUSH1 0x40 MLOAD PUSH0 PUSH1 0x40 MLOAD DUP1 DUP4 SUB DUP2 DUP6 DUP9 DUP9 CALL SWAP4 POP POP POP POP ISZERO DUP1 ISZERO PUSH2 0x728 JUMPI RETURNDATASIZE PUSH0 DUP1 RETURNDATACOPY RETURNDATASIZE PUSH0 REVERT JUMPDEST POP POP JUMP JUMPDEST PUSH1 0x60 PUSH0 DUP3 SWAP1 POP PUSH0 PUSH1 0xB DUP1 SLOAD SWAP1 POP SWAP1 POP DUP1 DUP3 GT ISZERO PUSH2 0x747 JUMPI DUP1 SWAP2 POP JUMPDEST PUSH0 DUP3 PUSH8 0xFFFFFFFFFFFFFFFF DUP2 GT ISZERO PUSH2 0x762 JUMPI PUSH2 0x761 PUSH2 0x28BD JUMP JUMPDEST JUMPDEST PUSH1 0x40 MLOAD SWAP1 DUP1 DUP3 MSTORE DUP1 PUSH1 0x20 MUL PUSH1 0x20 ADD DUP3 ADD PUSH1 0x40 MSTORE DUP1 ISZERO PUSH2 0x79B JUMPI DUP2 PUSH1 0x20 ADD JUMPDEST PUSH2 0x788 PUSH2 0x2208 JUMP JUMPDEST DUP2 MSTORE PUSH1 0x20 ADD SWAP1 PUSH1 0x1 SWAP1 SUB SWAP1 DUP2 PUSH2 0x780 JUMPI SWAP1 POP JUMPDEST POP SWAP1 POP PUSH0 JUMPDEST DUP4 DUP2 LT ISZERO PUSH2 0x8B4 JUMPI PUSH1 0xB DUP2 PUSH1 0x1 DUP6 PUSH2 0x7B8 SWAP2 SWAP1 PUSH2 0x288A JUMP JUMPDEST PUSH2 0x7C2 SWAP2 SWAP1 PUSH2 0x288A JUMP JUMPDEST DUP2 SLOAD DUP2 LT PUSH2 0x7D3 JUMPI PUSH2 0x7D2 PUSH2 0x27F5 JUMP JUMPDEST JUMPDEST SWAP1 PUSH0 MSTORE PUSH1 0x20 PUSH0 KECCAK256 SWAP1 PUSH1 0x3 MUL ADD PUSH1 0x40 MLOAD DUP1 PUSH1 0x80 ADD PUSH1 0x40 MSTORE SWAP1 DUP2 PUSH0 DUP3 ADD PUSH0 SWAP1 SLOAD SWAP1 PUSH2 0x100 EXP SWAP1 DIV PUSH4 0xFFFFFFFF AND PUSH4 0xFFFFFFFF AND PUSH4 0xFFFFFFFF AND DUP2 MSTORE PUSH1 0x20 ADD PUSH0 DUP3 ADD PUSH1 0x4 SWAP1 SLOAD SWAP1 PUSH2 0x100 EXP SWAP1 DIV PUSH1 0xFF AND PUSH1 0xFF AND PUSH1 0xFF AND DUP2 MSTORE PUSH1 0x20 ADD PUSH1 0x1 DUP3 ADD SLOAD DUP2 MSTORE PUSH1 0x20 ADD PUSH1 0x2 DUP3 ADD PUSH0 SWAP1 SLOAD SWAP1 PUSH2 0x100 EXP SWAP1 DIV PUSH20 0xFFFFFFFFFFFFFFFFFFFFFFFFFFFFFFFFFFFFFFFF AND PUSH20 0xFFFFFFFFFFFFFFFFFFFFFFFFFFFFFFFFFFFFFFFF AND PUSH20 0xFFFFFFFFFFFFFFFFFFFFFFFFFFFFFFFFFFFFFFFF AND DUP2 MSTORE POP POP DUP3 DUP3 DUP2 MLOAD DUP2 LT PUSH2 0x89C JUMPI PUSH2 0x89B PUSH2 0x27F5 JUMP JUMPDEST JUMPDEST PUSH1 0x20 MUL PUSH1 0x20 ADD ADD DUP2 SWAP1 MSTORE POP DUP1 DUP1 PUSH1 0x1 ADD SWAP2 POP POP PUSH2 0x7A0 JUMP JUMPDEST POP DUP1 SWAP4 POP POP POP POP SWAP2 SWAP1 POP JUMP JUMPDEST PUSH8 0xDE0B6B3A7640000 CALLVALUE LT ISZERO DUP1 ISZERO PUSH2 0x8E1 JUMPI POP PUSH9 0x3635C9ADC5DEA00000 CALLVALUE GT ISZERO JUMPDEST PUSH2 0x920 JUMPI PUSH1 0x40 MLOAD PUSH32 0x8C379A000000000000000000000000000000000000000000000000000000000 DUP2 MSTORE PUSH1 0x4 ADD PUSH2 0x917 SWAP1 PUSH2 0x295A JUMP JUMPDEST PUSH1 0x40 MLOAD DUP1 SWAP2 SUB SWAP1 REVERT JUMPDEST PUSH10 0x21E19E0C9BAB2400000 PUSH2 0x951 SELFBALANCE PUSH1 0x1 SLOAD PUSH1 0x7 SLOAD PUSH1 0x5 SLOAD PUSH2 0x942 SWAP2 SWAP1 PUSH2 0x2765 JUMP JUMPDEST PUSH2 0x94C SWAP2 SWAP1 PUSH2 0x2765 JUMP JUMPDEST PUSH2 0x1FA3 JUMP JUMPDEST GT ISZERO PUSH2 0x95B JUMPI PUSH0 DUP1 REVERT JUMPDEST CALLVALUE PUSH1 0x4 PUSH0 DUP3 DUP3 SLOAD PUSH2 0x96C SWAP2 SWAP1 PUSH2 0x2765 JUMP JUMPDEST SWAP3 POP POP DUP2 SWAP1 SSTORE POP CALLVALUE PUSH1 0x3 PUSH0 CALLER PUSH20 0xFFFFFFFFFFFFFFFFFFFFFFFFFFFFFFFFFFFFFFFF AND PUSH20 0xFFFFFFFFFFFFFFFFFFFFFFFFFFFFFFFFFFFFFFFF AND DUP2 MSTORE PUSH1 0x20 ADD SWAP1 DUP2 MSTORE PUSH1 0x20 ADD PUSH0 KECCAK256 PUSH0 ADD PUSH0 DUP3 DUP3 SLOAD PUSH2 0x9C1 SWAP2 SWAP1 PUSH2 0x2765 JUMP JUMPDEST SWAP3 POP POP DUP2 SWAP1 SSTORE POP TIMESTAMP PUSH1 0x3 PUSH0 CALLER PUSH20 0xFFFFFFFFFFFFFFFFFFFFFFFFFFFFFFFFFFFFFFFF AND PUSH20 0xFFFFFFFFFFFFFFFFFFFFFFFFFFFFFFFFFFFFFFFF AND DUP2 MSTORE PUSH1 0x20 ADD SWAP1 DUP2 MSTORE PUSH1 0x20 ADD PUSH0 KECCAK256 PUSH1 0x1 ADD DUP2 SWAP1 SSTORE POP PUSH1 0x3 PUSH0 CALLER PUSH20 0xFFFFFFFFFFFFFFFFFFFFFFFFFFFFFFFFFFFFFFFF AND PUSH20 0xFFFFFFFFFFFFFFFFFFFFFFFFFFFFFFFFFFFFFFFF AND DUP2 MSTORE PUSH1 0x20 ADD SWAP1 DUP2 MSTORE PUSH1 0x20 ADD PUSH0 KECCAK256 PUSH1 0x2 ADD PUSH0 SWAP1 SLOAD SWAP1 PUSH2 0x100 EXP SWAP1 DIV PUSH1 0xFF AND PUSH2 0xB17 JUMPI PUSH1 0x1 PUSH1 0x3 PUSH0 CALLER PUSH20 0xFFFFFFFFFFFFFFFFFFFFFFFFFFFFFFFFFFFFFFFF AND PUSH20 0xFFFFFFFFFFFFFFFFFFFFFFFFFFFFFFFFFFFFFFFF AND DUP2 MSTORE PUSH1 0x20 ADD SWAP1 DUP2 MSTORE PUSH1 0x20 ADD PUSH0 KECCAK256 PUSH1 0x2 ADD PUSH0 PUSH2 0x100 EXP DUP2 SLOAD DUP2 PUSH1 0xFF MUL NOT AND SWAP1 DUP4 ISZERO ISZERO MUL OR SWAP1 SSTORE POP PUSH1 0x2 CALLER SWAP1 DUP1 PUSH1 0x1 DUP2 SLOAD ADD DUP1 DUP3 SSTORE DUP1 SWAP2 POP POP PUSH1 0x1 SWAP1 SUB SWAP1 PUSH0 MSTORE PUSH1 0x20 PUSH0 KECCAK256 ADD PUSH0 SWAP1 SWAP2 SWAP1 SWAP2 SWAP1 SWAP2 PUSH2 0x100 EXP DUP2 SLOAD DUP2 PUSH20 0xFFFFFFFFFFFFFFFFFFFFFFFFFFFFFFFFFFFFFFFF MUL NOT AND SWAP1 DUP4 PUSH20 0xFFFFFFFFFFFFFFFFFFFFFFFFFFFFFFFFFFFFFFFF AND MUL OR SWAP1 SSTORE POP JUMPDEST JUMP JUMPDEST PUSH0 PUSH1 0x9 PUSH0 CALLER PUSH20 0xFFFFFFFFFFFFFFFFFFFFFFFFFFFFFFFFFFFFFFFF AND PUSH20 0xFFFFFFFFFFFFFFFFFFFFFFFFFFFFFFFFFFFFFFFF AND DUP2 MSTORE PUSH1 0x20 ADD SWAP1 DUP2 MSTORE PUSH1 0x20 ADD PUSH0 KECCAK256 PUSH0 ADD DUP1 SLOAD SWAP1 POP GT PUSH2 0xB9D JUMPI PUSH1 0x40 MLOAD PUSH32 0x8C379A000000000000000000000000000000000000000000000000000000000 DUP2 MSTORE PUSH1 0x4 ADD PUSH2 0xB94 SWAP1 PUSH2 0x29E8 JUMP JUMPDEST PUSH1 0x40 MLOAD DUP1 SWAP2 SUB SWAP1 REVERT JUMPDEST PUSH1 0x9 PUSH0 CALLER PUSH20 0xFFFFFFFFFFFFFFFFFFFFFFFFFFFFFFFFFFFFFFFF AND PUSH20 0xFFFFFFFFFFFFFFFFFFFFFFFFFFFFFFFFFFFFFFFF AND DUP2 MSTORE PUSH1 0x20 ADD SWAP1 DUP2 MSTORE PUSH1 0x20 ADD PUSH0 KECCAK256 PUSH0 ADD PUSH1 0x1 PUSH1 0x9 PUSH0 CALLER PUSH20 0xFFFFFFFFFFFFFFFFFFFFFFFFFFFFFFFFFFFFFFFF AND PUSH20 0xFFFFFFFFFFFFFFFFFFFFFFFFFFFFFFFFFFFFFFFF AND DUP2 MSTORE PUSH1 0x20 ADD SWAP1 DUP2 MSTORE PUSH1 0x20 ADD PUSH0 KECCAK256 PUSH0 ADD DUP1 SLOAD SWAP1 POP PUSH2 0xC2B SWAP2 SWAP1 PUSH2 0x288A JUMP JUMPDEST DUP2 SLOAD DUP2 LT PUSH2 0xC3C JUMPI PUSH2 0xC3B PUSH2 0x27F5 JUMP JUMPDEST JUMPDEST SWAP1 PUSH0 MSTORE PUSH1 0x20 PUSH0 KECCAK256 SWAP1 PUSH1 0x2 MUL ADD PUSH1 0x1 ADD PUSH1 0x1 SWAP1 SLOAD SWAP1 PUSH2 0x100 EXP SWAP1 DIV PUSH31 0xFFFFFFFFFFFFFFFFFFFFFFFFFFFFFFFFFFFFFFFFFFFFFFFFFFFFFFFFFFFFFF AND PUSH31 0xFFFFFFFFFFFFFFFFFFFFFFFFFFFFFFFFFFFFFFFFFFFFFFFFFFFFFFFFFFFFFF AND NUMBER GT PUSH2 0xCD9 JUMPI PUSH1 0x40 MLOAD PUSH32 0x8C379A000000000000000000000000000000000000000000000000000000000 DUP2 MSTORE PUSH1 0x4 ADD PUSH2 0xCD0 SWAP1 PUSH2 0x2A50 JUMP JUMPDEST PUSH1 0x40 MLOAD DUP1 SWAP2 SUB SWAP1 REVERT JUMPDEST PUSH0 PUSH1 0x9 PUSH0 CALLER PUSH20 0xFFFFFFFFFFFFFFFFFFFFFFFFFFFFFFFFFFFFFFFF AND PUSH20 0xFFFFFFFFFFFFFFFFFFFFFFFFFFFFFFFFFFFFFFFF AND DUP2 MSTORE PUSH1 0x20 ADD SWAP1 DUP2 MSTORE PUSH1 0x20 ADD PUSH0 KECCAK256 PUSH1 0x1 ADD DUP1 SLOAD SWAP1 POP GT ISZERO PUSH2 0xD70 JUMPI PUSH1 0x9 PUSH0 CALLER PUSH20 0xFFFFFFFFFFFFFFFFFFFFFFFFFFFFFFFFFFFFFFFF AND PUSH20 0xFFFFFFFFFFFFFFFFFFFFFFFFFFFFFFFFFFFFFFFF AND DUP2 MSTORE PUSH1 0x20 ADD SWAP1 DUP2 MSTORE PUSH1 0x20 ADD PUSH0 KECCAK256 PUSH1 0x1 ADD PUSH0 PUSH2 0xD6F SWAP2 SWAP1 PUSH2 0x224B JUMP JUMPDEST JUMPDEST PUSH0 DUP1 PUSH0 SWAP1 POP JUMPDEST PUSH1 0x9 PUSH0 CALLER PUSH20 0xFFFFFFFFFFFFFFFFFFFFFFFFFFFFFFFFFFFFFFFF AND PUSH20 0xFFFFFFFFFFFFFFFFFFFFFFFFFFFFFFFFFFFFFFFF AND DUP2 MSTORE PUSH1 0x20 ADD SWAP1 DUP2 MSTORE PUSH1 0x20 ADD PUSH0 KECCAK256 PUSH0 ADD DUP1 SLOAD SWAP1 POP DUP2 LT ISZERO PUSH2 0x132B JUMPI PUSH0 PUSH1 0x9 PUSH0 CALLER PUSH20 0xFFFFFFFFFFFFFFFFFFFFFFFFFFFFFFFFFFFFFFFF AND PUSH20 0xFFFFFFFFFFFFFFFFFFFFFFFFFFFFFFFFFFFFFFFF AND DUP2 MSTORE PUSH1 0x20 ADD SWAP1 DUP2 MSTORE PUSH1 0x20 ADD PUSH0 KECCAK256 PUSH0 ADD DUP3 DUP2 SLOAD DUP2 LT PUSH2 0xE12 JUMPI PUSH2 0xE11 PUSH2 0x27F5 JUMP JUMPDEST JUMPDEST SWAP1 PUSH0 MSTORE PUSH1 0x20 PUSH0 KECCAK256 SWAP1 PUSH1 0x2 MUL ADD PUSH1 0x1 ADD PUSH1 0x1 SWAP1 SLOAD SWAP1 PUSH2 0x100 EXP SWAP1 DIV PUSH31 0xFFFFFFFFFFFFFFFFFFFFFFFFFFFFFFFFFFFFFFFFFFFFFFFFFFFFFFFFFFFFFF AND PUSH31 0xFFFFFFFFFFFFFFFFFFFFFFFFFFFFFFFFFFFFFFFFFFFFFFFFFFFFFFFFFFFFFF AND BLOCKHASH PUSH0 SHR SUB ISZERO PUSH2 0x131E JUMPI PUSH0 PUSH1 0x9 PUSH0 CALLER PUSH20 0xFFFFFFFFFFFFFFFFFFFFFFFFFFFFFFFFFFFFFFFF AND PUSH20 0xFFFFFFFFFFFFFFFFFFFFFFFFFFFFFFFFFFFFFFFF AND DUP2 MSTORE PUSH1 0x20 ADD SWAP1 DUP2 MSTORE PUSH1 0x20 ADD PUSH0 KECCAK256 PUSH0 ADD DUP3 DUP2 SLOAD DUP2 LT PUSH2 0xEC9 JUMPI PUSH2 0xEC8 PUSH2 0x27F5 JUMP JUMPDEST JUMPDEST SWAP1 PUSH0 MSTORE PUSH1 0x20 PUSH0 KECCAK256 SWAP1 PUSH1 0x2 MUL ADD PUSH0 ADD SLOAD PUSH1 0x9 PUSH0 CALLER PUSH20 0xFFFFFFFFFFFFFFFFFFFFFFFFFFFFFFFFFFFFFFFF AND PUSH20 0xFFFFFFFFFFFFFFFFFFFFFFFFFFFFFFFFFFFFFFFF AND DUP2 MSTORE PUSH1 0x20 ADD SWAP1 DUP2 MSTORE PUSH1 0x20 ADD PUSH0 KECCAK256 PUSH0 ADD DUP4 DUP2 SLOAD DUP2 LT PUSH2 0xF29 JUMPI PUSH2 0xF28 PUSH2 0x27F5 JUMP JUMPDEST JUMPDEST SWAP1 PUSH0 MSTORE PUSH1 0x20 PUSH0 KECCAK256 SWAP1 PUSH1 0x2 MUL ADD PUSH1 0x1 ADD PUSH1 0x1 SWAP1 SLOAD SWAP1 PUSH2 0x100 EXP SWAP1 DIV PUSH31 0xFFFFFFFFFFFFFFFFFFFFFFFFFFFFFFFFFFFFFFFFFFFFFFFFFFFFFFFFFFFFFF AND PUSH31 0xFFFFFFFFFFFFFFFFFFFFFFFFFFFFFFFFFFFFFFFFFFFFFFFFFFFFFFFFFFFFFF AND BLOCKHASH PUSH1 0x40 MLOAD PUSH1 0x20 ADD PUSH2 0xF97 SWAP3 SWAP2 SWAP1 PUSH2 0x2A97 JUMP JUMPDEST PUSH1 0x40 MLOAD PUSH1 0x20 DUP2 DUP4 SUB SUB DUP2 MSTORE SWAP1 PUSH1 0x40 MSTORE DUP1 MLOAD SWAP1 PUSH1 0x20 ADD KECCAK256 PUSH1 0xE0 SHR SWAP1 POP PUSH0 PUSH2 0xFBC DUP3 PUSH2 0x2038 JUMP JUMPDEST SWAP1 POP PUSH0 DUP2 GT ISZERO PUSH2 0x11E4 JUMPI PUSH0 PUSH7 0x470DE4DF820000 PUSH1 0x9 PUSH0 CALLER PUSH20 0xFFFFFFFFFFFFFFFFFFFFFFFFFFFFFFFFFFFFFFFF AND PUSH20 0xFFFFFFFFFFFFFFFFFFFFFFFFFFFFFFFFFFFFFFFF AND DUP2 MSTORE PUSH1 0x20 ADD SWAP1 DUP2 MSTORE PUSH1 0x20 ADD PUSH0 KECCAK256 PUSH0 ADD DUP6 DUP2 SLOAD DUP2 LT PUSH2 0x1020 JUMPI PUSH2 0x101F PUSH2 0x27F5 JUMP JUMPDEST JUMPDEST SWAP1 PUSH0 MSTORE PUSH1 0x20 PUSH0 KECCAK256 SWAP1 PUSH1 0x2 MUL ADD PUSH1 0x1 ADD PUSH0 SWAP1 SLOAD SWAP1 PUSH2 0x100 EXP SWAP1 DIV PUSH1 0xFF AND PUSH1 0xFF AND PUSH2 0x1048 DUP5 PUSH2 0x213B JUMP JUMPDEST PUSH2 0x1052 SWAP2 SWAP1 PUSH2 0x2AC2 JUMP JUMPDEST PUSH2 0x105C SWAP2 SWAP1 PUSH2 0x2AC2 JUMP JUMPDEST SWAP1 POP DUP1 DUP6 PUSH2 0x106A SWAP2 SWAP1 PUSH2 0x2765 JUMP JUMPDEST SWAP5 POP PUSH0 PUSH1 0x40 MLOAD DUP1 PUSH1 0x80 ADD PUSH1 0x40 MSTORE DUP1 DUP6 PUSH4 0xFFFFFFFF AND DUP2 MSTORE PUSH1 0x20 ADD PUSH1 0x9 PUSH0 CALLER PUSH20 0xFFFFFFFFFFFFFFFFFFFFFFFFFFFFFFFFFFFFFFFF AND PUSH20 0xFFFFFFFFFFFFFFFFFFFFFFFFFFFFFFFFFFFFFFFF AND DUP2 MSTORE PUSH1 0x20 ADD SWAP1 DUP2 MSTORE PUSH1 0x20 ADD PUSH0 KECCAK256 PUSH0 ADD DUP8 DUP2 SLOAD DUP2 LT PUSH2 0x10D5 JUMPI PUSH2 0x10D4 PUSH2 0x27F5 JUMP JUMPDEST JUMPDEST SWAP1 PUSH0 MSTORE PUSH1 0x20 PUSH0 KECCAK256 SWAP1 PUSH1 0x2 MUL ADD PUSH1 0x1 ADD PUSH0 SWAP1 SLOAD SWAP1 PUSH2 0x100 EXP SWAP1 DIV PUSH1 0xFF AND PUSH1 0xFF AND DUP2 MSTORE PUSH1 0x20 ADD TIMESTAMP PUSH5 0xFFFFFFFFFF AND DUP2 MSTORE PUSH1 0x20 ADD CALLER PUSH20 0xFFFFFFFFFFFFFFFFFFFFFFFFFFFFFFFFFFFFFFFF AND DUP2 MSTORE POP SWAP1 POP PUSH1 0xB DUP2 SWAP1 DUP1 PUSH1 0x1 DUP2 SLOAD ADD DUP1 DUP3 SSTORE DUP1 SWAP2 POP POP PUSH1 0x1 SWAP1 SUB SWAP1 PUSH0 MSTORE PUSH1 0x20 PUSH0 KECCAK256 SWAP1 PUSH1 0x3 MUL ADD PUSH0 SWAP1 SWAP2 SWAP1 SWAP2 SWAP1 SWAP2 POP PUSH0 DUP3 ADD MLOAD DUP2 PUSH0 ADD PUSH0 PUSH2 0x100 EXP DUP2 SLOAD DUP2 PUSH4 0xFFFFFFFF MUL NOT AND SWAP1 DUP4 PUSH4 0xFFFFFFFF AND MUL OR SWAP1 SSTORE POP PUSH1 0x20 DUP3 ADD MLOAD DUP2 PUSH0 ADD PUSH1 0x4 PUSH2 0x100 EXP DUP2 SLOAD DUP2 PUSH1 0xFF MUL NOT AND SWAP1 DUP4 PUSH1 0xFF AND MUL OR SWAP1 SSTORE POP PUSH1 0x40 DUP3 ADD MLOAD DUP2 PUSH1 0x1 ADD SSTORE PUSH1 0x60 DUP3 ADD MLOAD DUP2 PUSH1 0x2 ADD PUSH0 PUSH2 0x100 EXP DUP2 SLOAD DUP2 PUSH20 0xFFFFFFFFFFFFFFFFFFFFFFFFFFFFFFFFFFFFFFFF MUL NOT AND SWAP1 DUP4 PUSH20 0xFFFFFFFFFFFFFFFFFFFFFFFFFFFFFFFFFFFFFFFF AND MUL OR SWAP1 SSTORE POP POP POP POP POP JUMPDEST PUSH0 PUSH1 0x40 MLOAD DUP1 PUSH1 0x40 ADD PUSH1 0x40 MSTORE DUP1 DUP5 PUSH4 0xFFFFFFFF AND DUP2 MSTORE PUSH1 0x20 ADD PUSH1 0x9 PUSH0 CALLER PUSH20 0xFFFFFFFFFFFFFFFFFFFFFFFFFFFFFFFFFFFFFFFF AND PUSH20 0xFFFFFFFFFFFFFFFFFFFFFFFFFFFFFFFFFFFFFFFF AND DUP2 MSTORE PUSH1 0x20 ADD SWAP1 DUP2 MSTORE PUSH1 0x20 ADD PUSH0 KECCAK256 PUSH0 ADD DUP7 DUP2 SLOAD DUP2 LT PUSH2 0x124D JUMPI PUSH2 0x124C PUSH2 0x27F5 JUMP JUMPDEST JUMPDEST SWAP1 PUSH0 MSTORE PUSH1 0x20 PUSH0 KECCAK256 SWAP1 PUSH1 0x2 MUL ADD PUSH1 0x1 ADD PUSH0 SWAP1 SLOAD SWAP1 PUSH2 0x100 EXP SWAP1 DIV PUSH1 0xFF AND PUSH1 0xFF AND DUP2 MSTORE POP SWAP1 POP PUSH1 0x9 PUSH0 CALLER PUSH20 0xFFFFFFFFFFFFFFFFFFFFFFFFFFFFFFFFFFFFFFFF AND PUSH20 0xFFFFFFFFFFFFFFFFFFFFFFFFFFFFFFFFFFFFFFFF AND DUP2 MSTORE PUSH1 0x20 ADD SWAP1 DUP2 MSTORE PUSH1 0x20 ADD PUSH0 KECCAK256 PUSH1 0x1 ADD DUP2 SWAP1 DUP1 PUSH1 0x1 DUP2 SLOAD ADD DUP1 DUP3 SSTORE DUP1 SWAP2 POP POP PUSH1 0x1 SWAP1 SUB SWAP1 PUSH0 MSTORE PUSH1 0x20 PUSH0 KECCAK256 ADD PUSH0 SWAP1 SWAP2 SWAP1 SWAP2 SWAP1 SWAP2 POP PUSH0 DUP3 ADD MLOAD DUP2 PUSH0 ADD PUSH0 PUSH2 0x100 EXP DUP2 SLOAD DUP2 PUSH4 0xFFFFFFFF MUL NOT AND SWAP1 DUP4 PUSH4 0xFFFFFFFF AND MUL OR SWAP1 SSTORE POP PUSH1 0x20 DUP3 ADD MLOAD DUP2 PUSH0 ADD PUSH1 0x4 PUSH2 0x100 EXP DUP2 SLOAD DUP2 PUSH1 0xFF MUL NOT AND SWAP1 DUP4 PUSH1 0xFF AND MUL OR SWAP1 SSTORE POP POP POP POP POP POP JUMPDEST DUP1 DUP1 PUSH1 0x1 ADD SWAP2 POP POP PUSH2 0xD76 JUMP JUMPDEST POP PUSH1 0x9 PUSH0 CALLER PUSH20 0xFFFFFFFFFFFFFFFFFFFFFFFFFFFFFFFFFFFFFFFF AND PUSH20 0xFFFFFFFFFFFFFFFFFFFFFFFFFFFFFFFFFFFFFFFF AND DUP2 MSTORE PUSH1 0x20 ADD SWAP1 DUP2 MSTORE PUSH1 0x20 ADD PUSH0 KECCAK256 PUSH0 ADD PUSH0 PUSH2 0x1376 SWAP2 SWAP1 PUSH2 0x2269 JUMP JUMPDEST PUSH0 DUP2 GT ISZERO PUSH2 0x146D JUMPI PUSH0 PUSH2 0x13B9 PUSH2 0x13B2 PUSH2 0x13AB SELFBALANCE PUSH1 0x1 SLOAD PUSH1 0x7 SLOAD PUSH1 0x5 SLOAD PUSH2 0x139C SWAP2 SWAP1 PUSH2 0x2765 JUMP JUMPDEST PUSH2 0x13A6 SWAP2 SWAP1 PUSH2 0x2765 JUMP JUMPDEST PUSH2 0x1FA3 JUMP JUMPDEST PUSH1 0x46 PUSH2 0x1FC9 JUMP JUMPDEST PUSH1 0x64 PUSH2 0x200E JUMP JUMPDEST SWAP1 POP DUP1 DUP3 GT ISZERO PUSH2 0x13C7 JUMPI DUP1 SWAP2 POP JUMPDEST PUSH0 PUSH2 0x13DD PUSH2 0x13D6 DUP5 PUSH1 0x5 PUSH2 0x1FC9 JUMP JUMPDEST PUSH1 0x64 PUSH2 0x200E JUMP JUMPDEST SWAP1 POP DUP1 PUSH1 0x5 PUSH0 DUP3 DUP3 SLOAD PUSH2 0x13F0 SWAP2 SWAP1 PUSH2 0x2765 JUMP JUMPDEST SWAP3 POP POP DUP2 SWAP1 SSTORE POP DUP1 PUSH1 0x1 PUSH0 DUP3 DUP3 SLOAD PUSH2 0x1408 SWAP2 SWAP1 PUSH2 0x2765 JUMP JUMPDEST SWAP3 POP POP DUP2 SWAP1 SSTORE POP CALLER PUSH20 0xFFFFFFFFFFFFFFFFFFFFFFFFFFFFFFFFFFFFFFFF AND PUSH2 0x8FC PUSH1 0x2 DUP4 PUSH2 0x1436 SWAP2 SWAP1 PUSH2 0x2AC2 JUMP JUMPDEST DUP6 PUSH2 0x1441 SWAP2 SWAP1 PUSH2 0x288A JUMP JUMPDEST SWAP1 DUP2 ISZERO MUL SWAP1 PUSH1 0x40 MLOAD PUSH0 PUSH1 0x40 MLOAD DUP1 DUP4 SUB DUP2 DUP6 DUP9 DUP9 CALL SWAP4 POP POP POP POP ISZERO DUP1 ISZERO PUSH2 0x1469 JUMPI RETURNDATASIZE PUSH0 DUP1 RETURNDATACOPY RETURNDATASIZE PUSH0 REVERT JUMPDEST POP POP POP JUMPDEST POP JUMP JUMPDEST PUSH0 DUP1 SLOAD SWAP1 PUSH2 0x100 EXP SWAP1 DIV PUSH20 0xFFFFFFFFFFFFFFFFFFFFFFFFFFFFFFFFFFFFFFFF AND DUP2 JUMP JUMPDEST PUSH1 0x4 SLOAD DUP2 JUMP JUMPDEST PUSH1 0x6 SLOAD DUP2 JUMP JUMPDEST PUSH7 0x470DE4DF820000 CALLVALUE LT ISZERO PUSH2 0x14E9 JUMPI PUSH1 0x40 MLOAD PUSH32 0x8C379A000000000000000000000000000000000000000000000000000000000 DUP2 MSTORE PUSH1 0x4 ADD PUSH2 0x14E0 SWAP1 PUSH2 0x2B4D JUMP JUMPDEST PUSH1 0x40 MLOAD DUP1 SWAP2 SUB SWAP1 REVERT JUMPDEST PUSH1 0x1 DUP4 PUSH1 0xFF AND LT ISZERO DUP1 ISZERO PUSH2 0x1501 JUMPI POP PUSH1 0x64 DUP4 PUSH1 0xFF AND GT ISZERO JUMPDEST PUSH2 0x1540 JUMPI PUSH1 0x40 MLOAD PUSH32 0x8C379A000000000000000000000000000000000000000000000000000000000 DUP2 MSTORE PUSH1 0x4 ADD PUSH2 0x1537 SWAP1 PUSH2 0x2BB5 JUMP JUMPDEST PUSH1 0x40 MLOAD DUP1 SWAP2 SUB SWAP1 REVERT JUMPDEST PUSH1 0x1 DUP5 PUSH2 0xFFFF AND LT ISZERO DUP1 ISZERO PUSH2 0x155B JUMPI POP PUSH2 0x3E8 DUP5 PUSH2 0xFFFF AND GT ISZERO JUMPDEST PUSH2 0x159A JUMPI PUSH1 0x40 MLOAD PUSH32 0x8C379A000000000000000000000000000000000000000000000000000000000 DUP2 MSTORE PUSH1 0x4 ADD PUSH2 0x1591 SWAP1 PUSH2 0x2C1D JUMP JUMPDEST PUSH1 0x40 MLOAD DUP1 SWAP2 SUB SWAP1 REVERT JUMPDEST PUSH0 PUSH2 0x15AC CALLVALUE PUSH7 0x470DE4DF820000 PUSH2 0x200E JUMP JUMPDEST SWAP1 POP DUP4 PUSH1 0xFF AND DUP6 PUSH2 0x15BD SWAP2 SWAP1 PUSH2 0x2C3B JUMP JUMPDEST PUSH2 0xFFFF AND DUP2 EQ PUSH2 0x1602 JUMPI PUSH1 0x40 MLOAD PUSH32 0x8C379A000000000000000000000000000000000000000000000000000000000 DUP2 MSTORE PUSH1 0x4 ADD PUSH2 0x15F9 SWAP1 PUSH2 0x2CC1 JUMP JUMPDEST PUSH1 0x40 MLOAD DUP1 SWAP2 SUB SWAP1 REVERT JUMPDEST PUSH0 JUMPDEST DUP6 PUSH2 0xFFFF AND DUP2 LT ISZERO PUSH2 0x1785 JUMPI PUSH0 PUSH1 0x40 MLOAD DUP1 PUSH1 0x60 ADD PUSH1 0x40 MSTORE DUP1 TIMESTAMP COINBASE CALLER DUP10 DUP1 PUSH2 0x162A SWAP1 PUSH2 0x2CDF JUMP JUMPDEST SWAP11 POP PUSH1 0x40 MLOAD PUSH1 0x20 ADD PUSH2 0x163F SWAP5 SWAP4 SWAP3 SWAP2 SWAP1 PUSH2 0x2DF5 JUMP JUMPDEST PUSH1 0x40 MLOAD PUSH1 0x20 DUP2 DUP4 SUB SUB DUP2 MSTORE SWAP1 PUSH1 0x40 MSTORE DUP1 MLOAD SWAP1 PUSH1 0x20 ADD KECCAK256 DUP2 MSTORE PUSH1 0x20 ADD DUP8 PUSH1 0xFF AND DUP2 MSTORE PUSH1 0x20 ADD NUMBER PUSH31 0xFFFFFFFFFFFFFFFFFFFFFFFFFFFFFFFFFFFFFFFFFFFFFFFFFFFFFFFFFFFFFF AND DUP2 MSTORE POP SWAP1 POP PUSH1 0x9 PUSH0 CALLER PUSH20 0xFFFFFFFFFFFFFFFFFFFFFFFFFFFFFFFFFFFFFFFF AND PUSH20 0xFFFFFFFFFFFFFFFFFFFFFFFFFFFFFFFFFFFFFFFF AND DUP2 MSTORE PUSH1 0x20 ADD SWAP1 DUP2 MSTORE PUSH1 0x20 ADD PUSH0 KECCAK256 PUSH0 ADD DUP2 SWAP1 DUP1 PUSH1 0x1 DUP2 SLOAD ADD DUP1 DUP3 SSTORE DUP1 SWAP2 POP POP PUSH1 0x1 SWAP1 SUB SWAP1 PUSH0 MSTORE PUSH1 0x20 PUSH0 KECCAK256 SWAP1 PUSH1 0x2 MUL ADD PUSH0 SWAP1 SWAP2 SWAP1 SWAP2 SWAP1 SWAP2 POP PUSH0 DUP3 ADD MLOAD DUP2 PUSH0 ADD SSTORE PUSH1 0x20 DUP3 ADD MLOAD DUP2 PUSH1 0x1 ADD PUSH0 PUSH2 0x100 EXP DUP2 SLOAD DUP2 PUSH1 0xFF MUL NOT AND SWAP1 DUP4 PUSH1 0xFF AND MUL OR SWAP1 SSTORE POP PUSH1 0x40 DUP3 ADD MLOAD DUP2 PUSH1 0x1 ADD PUSH1 0x1 PUSH2 0x100 EXP DUP2 SLOAD DUP2 PUSH31 0xFFFFFFFFFFFFFFFFFFFFFFFFFFFFFFFFFFFFFFFFFFFFFFFFFFFFFFFFFFFFFF MUL NOT AND SWAP1 DUP4 PUSH31 0xFFFFFFFFFFFFFFFFFFFFFFFFFFFFFFFFFFFFFFFFFFFFFFFFFFFFFFFFFFFFFF AND MUL OR SWAP1 SSTORE POP POP POP POP DUP1 DUP1 PUSH1 0x1 ADD SWAP2 POP POP PUSH2 0x1604 JUMP JUMPDEST POP PUSH1 0x9 PUSH0 CALLER PUSH20 0xFFFFFFFFFFFFFFFFFFFFFFFFFFFFFFFFFFFFFFFF AND PUSH20 0xFFFFFFFFFFFFFFFFFFFFFFFFFFFFFFFFFFFFFFFF AND DUP2 MSTORE PUSH1 0x20 ADD SWAP1 DUP2 MSTORE PUSH1 0x20 ADD PUSH0 KECCAK256 PUSH1 0x3 ADD PUSH0 SWAP1 SLOAD SWAP1 PUSH2 0x100 EXP SWAP1 DIV PUSH1 0xFF AND PUSH2 0x1830 JUMPI PUSH1 0x1 PUSH1 0x9 PUSH0 CALLER PUSH20 0xFFFFFFFFFFFFFFFFFFFFFFFFFFFFFFFFFFFFFFFF AND PUSH20 0xFFFFFFFFFFFFFFFFFFFFFFFFFFFFFFFFFFFFFFFF AND DUP2 MSTORE PUSH1 0x20 ADD SWAP1 DUP2 MSTORE PUSH1 0x20 ADD PUSH0 KECCAK256 PUSH1 0x3 ADD PUSH0 PUSH2 0x100 EXP DUP2 SLOAD DUP2 PUSH1 0xFF MUL NOT AND SWAP1 DUP4 ISZERO ISZERO MUL OR SWAP1 SSTORE POP JUMPDEST PUSH0 PUSH2 0x1846 PUSH2 0x183F CALLVALUE PUSH1 0x3 PUSH2 0x1FC9 JUMP JUMPDEST PUSH1 0x64 PUSH2 0x200E JUMP JUMPDEST SWAP1 POP PUSH0 PUSH2 0x185E PUSH2 0x1857 CALLVALUE PUSH1 0x4 PUSH2 0x1FC9 JUMP JUMPDEST PUSH1 0x64 PUSH2 0x200E JUMP JUMPDEST SWAP1 POP DUP2 PUSH1 0x1 PUSH0 DUP3 DUP3 SLOAD PUSH2 0x1871 SWAP2 SWAP1 PUSH2 0x2765 JUMP JUMPDEST SWAP3 POP POP DUP2 SWAP1 SSTORE POP DUP2 PUSH1 0x5 PUSH0 DUP3 DUP3 SLOAD PUSH2 0x1889 SWAP2 SWAP1 PUSH2 0x2765 JUMP JUMPDEST SWAP3 POP POP DUP2 SWAP1 SSTORE POP PUSH0 PUSH20 0xFFFFFFFFFFFFFFFFFFFFFFFFFFFFFFFFFFFFFFFF AND PUSH1 0xA PUSH0 CALLER PUSH20 0xFFFFFFFFFFFFFFFFFFFFFFFFFFFFFFFFFFFFFFFF AND PUSH20 0xFFFFFFFFFFFFFFFFFFFFFFFFFFFFFFFFFFFFFFFF AND DUP2 MSTORE PUSH1 0x20 ADD SWAP1 DUP2 MSTORE PUSH1 0x20 ADD PUSH0 KECCAK256 PUSH0 SWAP1 SLOAD SWAP1 PUSH2 0x100 EXP SWAP1 DIV PUSH20 0xFFFFFFFFFFFFFFFFFFFFFFFFFFFFFFFFFFFFFFFF AND PUSH20 0xFFFFFFFFFFFFFFFFFFFFFFFFFFFFFFFFFFFFFFFF AND SUB PUSH2 0x1C1A JUMPI CALLER PUSH20 0xFFFFFFFFFFFFFFFFFFFFFFFFFFFFFFFFFFFFFFFF AND DUP5 PUSH20 0xFFFFFFFFFFFFFFFFFFFFFFFFFFFFFFFFFFFFFFFF AND EQ DUP1 PUSH2 0x1984 JUMPI POP PUSH0 PUSH20 0xFFFFFFFFFFFFFFFFFFFFFFFFFFFFFFFFFFFFFFFF AND DUP5 PUSH20 0xFFFFFFFFFFFFFFFFFFFFFFFFFFFFFFFFFFFFFFFF AND EQ JUMPDEST DUP1 PUSH2 0x19D9 JUMPI POP PUSH1 0x9 PUSH0 CALLER PUSH20 0xFFFFFFFFFFFFFFFFFFFFFFFFFFFFFFFFFFFFFFFF AND PUSH20 0xFFFFFFFFFFFFFFFFFFFFFFFFFFFFFFFFFFFFFFFF AND DUP2 MSTORE PUSH1 0x20 ADD SWAP1 DUP2 MSTORE PUSH1 0x20 ADD PUSH0 KECCAK256 PUSH1 0x3 ADD PUSH0 SWAP1 SLOAD SWAP1 PUSH2 0x100 EXP SWAP1 DIV PUSH1 0xFF AND ISZERO JUMPDEST ISZERO PUSH2 0x1A01 JUMPI PUSH0 DUP1 SLOAD SWAP1 PUSH2 0x100 EXP SWAP1 DIV PUSH20 0xFFFFFFFFFFFFFFFFFFFFFFFFFFFFFFFFFFFFFFFF AND SWAP4 POP JUMPDEST DUP4 PUSH1 0xA PUSH0 CALLER PUSH20 0xFFFFFFFFFFFFFFFFFFFFFFFFFFFFFFFFFFFFFFFF AND PUSH20 0xFFFFFFFFFFFFFFFFFFFFFFFFFFFFFFFFFFFFFFFF AND DUP2 MSTORE PUSH1 0x20 ADD SWAP1 DUP2 MSTORE PUSH1 0x20 ADD PUSH0 KECCAK256 PUSH0 PUSH2 0x100 EXP DUP2 SLOAD DUP2 PUSH20 0xFFFFFFFFFFFFFFFFFFFFFFFFFFFFFFFFFFFFFFFF MUL NOT AND SWAP1 DUP4 PUSH20 0xFFFFFFFFFFFFFFFFFFFFFFFFFFFFFFFFFFFFFFFF AND MUL OR SWAP1 SSTORE POP PUSH0 DUP1 SLOAD SWAP1 PUSH2 0x100 EXP SWAP1 DIV PUSH20 0xFFFFFFFFFFFFFFFFFFFFFFFFFFFFFFFFFFFFFFFF AND PUSH20 0xFFFFFFFFFFFFFFFFFFFFFFFFFFFFFFFFFFFFFFFF AND PUSH1 0xA PUSH0 CALLER PUSH20 0xFFFFFFFFFFFFFFFFFFFFFFFFFFFFFFFFFFFFFFFF AND PUSH20 0xFFFFFFFFFFFFFFFFFFFFFFFFFFFFFFFFFFFFFFFF AND DUP2 MSTORE PUSH1 0x20 ADD SWAP1 DUP2 MSTORE PUSH1 0x20 ADD PUSH0 KECCAK256 PUSH0 SWAP1 SLOAD SWAP1 PUSH2 0x100 EXP SWAP1 DIV PUSH20 0xFFFFFFFFFFFFFFFFFFFFFFFFFFFFFFFFFFFFFFFF AND PUSH20 0xFFFFFFFFFFFFFFFFFFFFFFFFFFFFFFFFFFFFFFFF AND SUB PUSH2 0x1B47 JUMPI DUP1 PUSH1 0x1 PUSH0 DUP3 DUP3 SLOAD PUSH2 0x1B3B SWAP2 SWAP1 PUSH2 0x2765 JUMP JUMPDEST SWAP3 POP POP DUP2 SWAP1 SSTORE POP PUSH2 0x1C12 JUMP JUMPDEST DUP1 PUSH1 0x9 PUSH0 PUSH1 0xA PUSH0 CALLER PUSH20 0xFFFFFFFFFFFFFFFFFFFFFFFFFFFFFFFFFFFFFFFF AND PUSH20 0xFFFFFFFFFFFFFFFFFFFFFFFFFFFFFFFFFFFFFFFF AND DUP2 MSTORE PUSH1 0x20 ADD SWAP1 DUP2 MSTORE PUSH1 0x20 ADD PUSH0 KECCAK256 PUSH0 SWAP1 SLOAD SWAP1 PUSH2 0x100 EXP SWAP1 DIV PUSH20 0xFFFFFFFFFFFFFFFFFFFFFFFFFFFFFFFFFFFFFFFF AND PUSH20 0xFFFFFFFFFFFFFFFFFFFFFFFFFFFFFFFFFFFFFFFF AND PUSH20 0xFFFFFFFFFFFFFFFFFFFFFFFFFFFFFFFFFFFFFFFF AND DUP2 MSTORE PUSH1 0x20 ADD SWAP1 DUP2 MSTORE PUSH1 0x20 ADD PUSH0 KECCAK256 PUSH1 0x2 ADD PUSH0 DUP3 DUP3 SLOAD PUSH2 0x1BF2 SWAP2 SWAP1 PUSH2 0x2765 JUMP JUMPDEST SWAP3 POP POP DUP2 SWAP1 SSTORE POP DUP1 PUSH1 0x7 PUSH0 DUP3 DUP3 SLOAD PUSH2 0x1C0A SWAP2 SWAP1 PUSH2 0x2765 JUMP JUMPDEST SWAP3 POP POP DUP2 SWAP1 SSTORE POP JUMPDEST TIMESTAMP PUSH1 0x8 DUP2 SWAP1 SSTORE POP JUMPDEST POP POP POP POP POP POP POP JUMP JUMPDEST PUSH1 0x5 SLOAD DUP2 JUMP JUMPDEST PUSH8 0xDE0B6B3A7640000 DUP2 LT ISZERO PUSH2 0x1C74 JUMPI PUSH1 0x40 MLOAD PUSH32 0x8C379A000000000000000000000000000000000000000000000000000000000 DUP2 MSTORE PUSH1 0x4 ADD PUSH2 0x1C6B SWAP1 PUSH2 0x2ED8 JUMP JUMPDEST PUSH1 0x40 MLOAD DUP1 SWAP2 SUB SWAP1 REVERT JUMPDEST PUSH1 0x3 PUSH0 CALLER PUSH20 0xFFFFFFFFFFFFFFFFFFFFFFFFFFFFFFFFFFFFFFFF AND PUSH20 0xFFFFFFFFFFFFFFFFFFFFFFFFFFFFFFFFFFFFFFFF AND DUP2 MSTORE PUSH1 0x20 ADD SWAP1 DUP2 MSTORE PUSH1 0x20 ADD PUSH0 KECCAK256 PUSH0 ADD SLOAD DUP2 GT ISZERO PUSH2 0x1CF6 JUMPI PUSH1 0x40 MLOAD PUSH32 0x8C379A000000000000000000000000000000000000000000000000000000000 DUP2 MSTORE PUSH1 0x4 ADD PUSH2 0x1CED SWAP1 PUSH2 0x2F40 JUMP JUMPDEST PUSH1 0x40 MLOAD DUP1 SWAP2 SUB SWAP1 REVERT JUMPDEST PUSH3 0x93A80 PUSH1 0x3 PUSH0 CALLER PUSH20 0xFFFFFFFFFFFFFFFFFFFFFFFFFFFFFFFFFFFFFFFF AND PUSH20 0xFFFFFFFFFFFFFFFFFFFFFFFFFFFFFFFFFFFFFFFF AND DUP2 MSTORE PUSH1 0x20 ADD SWAP1 DUP2 MSTORE PUSH1 0x20 ADD PUSH0 KECCAK256 PUSH1 0x1 ADD SLOAD PUSH2 0x1D45 SWAP2 SWAP1 PUSH2 0x2765 JUMP JUMPDEST TIMESTAMP LT ISZERO PUSH2 0x1D87 JUMPI PUSH1 0x40 MLOAD PUSH32 0x8C379A000000000000000000000000000000000000000000000000000000000 DUP2 MSTORE PUSH1 0x4 ADD PUSH2 0x1D7E SWAP1 PUSH2 0x2FA8 JUMP JUMPDEST PUSH1 0x40 MLOAD DUP1 SWAP2 SUB SWAP1 REVERT JUMPDEST DUP1 PUSH2 0x1DAE SELFBALANCE PUSH1 0x1 SLOAD PUSH1 0x7 SLOAD PUSH1 0x5 SLOAD PUSH2 0x1D9F SWAP2 SWAP1 PUSH2 0x2765 JUMP JUMPDEST PUSH2 0x1DA9 SWAP2 SWAP1 PUSH2 0x2765 JUMP JUMPDEST PUSH2 0x1FA3 JUMP JUMPDEST LT ISZERO PUSH2 0x1DEF JUMPI PUSH1 0x40 MLOAD PUSH32 0x8C379A000000000000000000000000000000000000000000000000000000000 DUP2 MSTORE PUSH1 0x4 ADD PUSH2 0x1DE6 SWAP1 PUSH2 0x3010 JUMP JUMPDEST PUSH1 0x40 MLOAD DUP1 SWAP2 SUB SWAP1 REVERT JUMPDEST DUP1 PUSH1 0x3 PUSH0 CALLER PUSH20 0xFFFFFFFFFFFFFFFFFFFFFFFFFFFFFFFFFFFFFFFF AND PUSH20 0xFFFFFFFFFFFFFFFFFFFFFFFFFFFFFFFFFFFFFFFF AND DUP2 MSTORE PUSH1 0x20 ADD SWAP1 DUP2 MSTORE PUSH1 0x20 ADD PUSH0 KECCAK256 PUSH0 ADD PUSH0 DUP3 DUP3 SLOAD PUSH2 0x1E3D SWAP2 SWAP1 PUSH2 0x288A JUMP JUMPDEST SWAP3 POP POP DUP2 SWAP1 SSTORE POP DUP1 PUSH1 0x4 PUSH0 DUP3 DUP3 SLOAD PUSH2 0x1E55 SWAP2 SWAP1 PUSH2 0x288A JUMP JUMPDEST SWAP3 POP POP DUP2 SWAP1 SSTORE POP CALLER PUSH20 0xFFFFFFFFFFFFFFFFFFFFFFFFFFFFFFFFFFFFFFFF AND PUSH2 0x8FC DUP3 SWAP1 DUP2 ISZERO MUL SWAP1 PUSH1 0x40 MLOAD PUSH0 PUSH1 0x40 MLOAD DUP1 DUP4 SUB DUP2 DUP6 DUP9 DUP9 CALL SWAP4 POP POP POP POP ISZERO DUP1 ISZERO PUSH2 0x1E9F JUMPI RETURNDATASIZE PUSH0 DUP1 RETURNDATACOPY RETURNDATASIZE PUSH0 REVERT JUMPDEST POP POP JUMP JUMPDEST PUSH0 DUP1 SLOAD SWAP1 PUSH2 0x100 EXP SWAP1 DIV PUSH20 0xFFFFFFFFFFFFFFFFFFFFFFFFFFFFFFFFFFFFFFFF AND PUSH20 0xFFFFFFFFFFFFFFFFFFFFFFFFFFFFFFFFFFFFFFFF AND CALLER PUSH20 0xFFFFFFFFFFFFFFFFFFFFFFFFFFFFFFFFFFFFFFFF AND EQ PUSH2 0x1F30 JUMPI PUSH1 0x40 MLOAD PUSH32 0x8C379A000000000000000000000000000000000000000000000000000000000 DUP2 MSTORE PUSH1 0x4 ADD PUSH2 0x1F27 SWAP1 PUSH2 0x3078 JUMP JUMPDEST PUSH1 0x40 MLOAD DUP1 SWAP2 SUB SWAP1 REVERT JUMPDEST PUSH0 PUSH1 0x1 SLOAD SWAP1 POP PUSH0 PUSH1 0x1 DUP2 SWAP1 SSTORE POP PUSH0 DUP1 SLOAD SWAP1 PUSH2 0x100 EXP SWAP1 DIV PUSH20 0xFFFFFFFFFFFFFFFFFFFFFFFFFFFFFFFFFFFFFFFF AND PUSH20 0xFFFFFFFFFFFFFFFFFFFFFFFFFFFFFFFFFFFFFFFF AND PUSH2 0x8FC DUP3 SWAP1 DUP2 ISZERO MUL SWAP1 PUSH1 0x40 MLOAD PUSH0 PUSH1 0x40 MLOAD DUP1 DUP4 SUB DUP2 DUP6 DUP9 DUP9 CALL SWAP4 POP POP POP POP ISZERO DUP1 ISZERO PUSH2 0x1F9F JUMPI RETURNDATASIZE PUSH0 DUP1 RETURNDATACOPY RETURNDATASIZE PUSH0 REVERT JUMPDEST POP POP JUMP JUMPDEST PUSH0 DUP3 DUP3 GT ISZERO PUSH2 0x1FB5 JUMPI PUSH2 0x1FB4 PUSH2 0x3096 JUMP JUMPDEST JUMPDEST DUP2 DUP4 PUSH2 0x1FC1 SWAP2 SWAP1 PUSH2 0x288A JUMP JUMPDEST SWAP1 POP SWAP3 SWAP2 POP POP JUMP JUMPDEST PUSH0 DUP1 DUP4 SUB PUSH2 0x1FD9 JUMPI PUSH0 SWAP1 POP PUSH2 0x2008 JUMP JUMPDEST PUSH0 DUP3 DUP5 PUSH2 0x1FE6 SWAP2 SWAP1 PUSH2 0x2AC2 JUMP JUMPDEST SWAP1 POP DUP3 DUP5 DUP3 PUSH2 0x1FF5 SWAP2 SWAP1 PUSH2 0x27C5 JUMP JUMPDEST EQ PUSH2 0x2003 JUMPI PUSH2 0x2002 PUSH2 0x3096 JUMP JUMPDEST JUMPDEST DUP1 SWAP2 POP POP JUMPDEST SWAP3 SWAP2 POP POP JUMP JUMPDEST PUSH0 DUP1 DUP3 GT PUSH2 0x201F JUMPI PUSH2 0x201E PUSH2 0x3096 JUMP JUMPDEST JUMPDEST PUSH0 DUP3 DUP5 PUSH2 0x202C SWAP2 SWAP1 PUSH2 0x27C5 JUMP JUMPDEST SWAP1 POP DUP1 SWAP2 POP POP SWAP3 SWAP2 POP POP JUMP JUMPDEST PUSH0 PUSH4 0x4000000 DUP3 PUSH4 0xFFFFFFFF AND GT ISZERO PUSH2 0x2053 JUMPI PUSH0 SWAP1 POP PUSH2 0x2136 JUMP JUMPDEST PUSH4 0x1000000 DUP3 PUSH4 0xFFFFFFFF AND LT PUSH2 0x206D JUMPI PUSH1 0xA SWAP1 POP PUSH2 0x2136 JUMP JUMPDEST PUSH3 0x400000 DUP3 PUSH4 0xFFFFFFFF AND LT PUSH2 0x2086 JUMPI PUSH1 0x9 SWAP1 POP PUSH2 0x2136 JUMP JUMPDEST PUSH3 0x100000 DUP3 PUSH4 0xFFFFFFFF AND LT PUSH2 0x209F JUMPI PUSH1 0x8 SWAP1 POP PUSH2 0x2136 JUMP JUMPDEST PUSH3 0x40000 DUP3 PUSH4 0xFFFFFFFF AND LT PUSH2 0x20B8 JUMPI PUSH1 0x7 SWAP1 POP PUSH2 0x2136 JUMP JUMPDEST PUSH3 0x10000 DUP3 PUSH4 0xFFFFFFFF AND LT PUSH2 0x20D1 JUMPI PUSH1 0x6 SWAP1 POP PUSH2 0x2136 JUMP JUMPDEST PUSH2 0x4000 DUP3 PUSH4 0xFFFFFFFF AND LT PUSH2 0x20E9 JUMPI PUSH1 0x5 SWAP1 POP PUSH2 0x2136 JUMP JUMPDEST PUSH2 0x1000 DUP3 PUSH4 0xFFFFFFFF AND LT PUSH2 0x2101 JUMPI PUSH1 0x4 SWAP1 POP PUSH2 0x2136 JUMP JUMPDEST PUSH2 0x400 DUP3 PUSH4 0xFFFFFFFF AND LT PUSH2 0x2119 JUMPI PUSH1 0x3 SWAP1 POP PUSH2 0x2136 JUMP JUMPDEST PUSH2 0x100 DUP3 PUSH4 0xFFFFFFFF AND LT PUSH2 0x2131 JUMPI PUSH1 0x2 SWAP1 POP PUSH2 0x2136 JUMP JUMPDEST PUSH1 0x1 SWAP1 POP JUMPDEST SWAP2 SWAP1 POP JUMP JUMPDEST PUSH0 DUP1 DUP3 SUB PUSH2 0x214B JUMPI PUSH0 SWAP1 POP PUSH2 0x2203 JUMP JUMPDEST PUSH1 0xA DUP3 SUB PUSH2 0x215C JUMPI PUSH1 0x5 SWAP1 POP PUSH2 0x2203 JUMP JUMPDEST PUSH1 0x9 DUP3 SUB PUSH2 0x216D JUMPI PUSH1 0x14 SWAP1 POP PUSH2 0x2203 JUMP JUMPDEST PUSH1 0x8 DUP3 SUB PUSH2 0x217E JUMPI PUSH1 0x50 SWAP1 POP PUSH2 0x2203 JUMP JUMPDEST PUSH1 0x7 DUP3 SUB PUSH2 0x2190 JUMPI PUSH2 0x140 SWAP1 POP PUSH2 0x2203 JUMP JUMPDEST PUSH1 0x6 DUP3 SUB PUSH2 0x21A2 JUMPI PUSH2 0x4B0 SWAP1 POP PUSH2 0x2203 JUMP JUMPDEST PUSH1 0x5 DUP3 SUB PUSH2 0x21B4 JUMPI PUSH2 0x12C0 SWAP1 POP PUSH2 0x2203 JUMP JUMPDEST PUSH1 0x4 DUP3 SUB PUSH2 0x21C6 JUMPI PUSH2 0x4E20 SWAP1 POP PUSH2 0x2203 JUMP JUMPDEST PUSH1 0x3 DUP3 SUB PUSH2 0x21D9 JUMPI PUSH3 0x186A0 SWAP1 POP PUSH2 0x2203 JUMP JUMPDEST PUSH1 0x2 DUP3 SUB PUSH2 0x21EC JUMPI PUSH3 0x7A120 SWAP1 POP PUSH2 0x2203 JUMP JUMPDEST PUSH1 0x1 DUP3 SUB PUSH2 0x21FF JUMPI PUSH3 0x1E8480 SWAP1 POP PUSH2 0x2203 JUMP JUMPDEST PUSH0 SWAP1 POP JUMPDEST SWAP2 SWAP1 POP JUMP JUMPDEST PUSH1 0x40 MLOAD DUP1 PUSH1 0x80 ADD PUSH1 0x40 MSTORE DUP1 PUSH0 PUSH4 0xFFFFFFFF AND DUP2 MSTORE PUSH1 0x20 ADD PUSH0 PUSH1 0xFF AND DUP2 MSTORE PUSH1 0x20 ADD PUSH0 DUP2 MSTORE PUSH1 0x20 ADD PUSH0 PUSH20 0xFFFFFFFFFFFFFFFFFFFFFFFFFFFFFFFFFFFFFFFF AND DUP2 MSTORE POP SWAP1 JUMP JUMPDEST POP DUP1 SLOAD PUSH0 DUP3 SSTORE SWAP1 PUSH0 MSTORE PUSH1 0x20 PUSH0 KECCAK256 SWAP1 DUP2 ADD SWAP1 PUSH2 0x2266 SWAP2 SWAP1 PUSH2 0x228A JUMP JUMPDEST POP JUMP JUMPDEST POP DUP1 SLOAD PUSH0 DUP3 SSTORE PUSH1 0x2 MUL SWAP1 PUSH0 MSTORE PUSH1 0x20 PUSH0 KECCAK256 SWAP1 DUP2 ADD SWAP1 PUSH2 0x2287 SWAP2 SWAP1 PUSH2 0x22C9 JUMP JUMPDEST POP JUMP JUMPDEST JUMPDEST DUP1 DUP3 GT ISZERO PUSH2 0x22C5 JUMPI PUSH0 DUP1 DUP3 ADD PUSH0 PUSH2 0x100 EXP DUP2 SLOAD SWAP1 PUSH4 0xFFFFFFFF MUL NOT AND SWAP1 SSTORE PUSH0 DUP3 ADD PUSH1 0x4 PUSH2 0x100 EXP DUP2 SLOAD SWAP1 PUSH1 0xFF MUL NOT AND SWAP1 SSTORE POP PUSH1 0x1 ADD PUSH2 0x228B JUMP JUMPDEST POP SWAP1 JUMP JUMPDEST JUMPDEST DUP1 DUP3 GT ISZERO PUSH2 0x2327 JUMPI PUSH0 DUP1 DUP3 ADD PUSH0 SWAP1 SSTORE PUSH1 0x1 DUP3 ADD PUSH0 PUSH2 0x100 EXP DUP2 SLOAD SWAP1 PUSH1 0xFF MUL NOT AND SWAP1 SSTORE PUSH1 0x1 DUP3 ADD PUSH1 0x1 PUSH2 0x100 EXP DUP2 SLOAD SWAP1 PUSH31 0xFFFFFFFFFFFFFFFFFFFFFFFFFFFFFFFFFFFFFFFFFFFFFFFFFFFFFFFFFFFFFF MUL NOT AND SWAP1 SSTORE POP PUSH1 0x2 ADD PUSH2 0x22CA JUMP JUMPDEST POP SWAP1 JUMP JUMPDEST PUSH0 DUP1 REVERT JUMPDEST PUSH0 DUP2 SWAP1 POP SWAP2 SWAP1 POP JUMP JUMPDEST PUSH2 0x2341 DUP2 PUSH2 0x232F JUMP JUMPDEST DUP2 EQ PUSH2 0x234B JUMPI PUSH0 DUP1 REVERT JUMPDEST POP JUMP JUMPDEST PUSH0 DUP2 CALLDATALOAD SWAP1 POP PUSH2 0x235C DUP2 PUSH2 0x2338 JUMP JUMPDEST SWAP3 SWAP2 POP POP JUMP JUMPDEST PUSH0 PUSH1 0x20 DUP3 DUP5 SUB SLT ISZERO PUSH2 0x2377 JUMPI PUSH2 0x2376 PUSH2 0x232B JUMP JUMPDEST JUMPDEST PUSH0 PUSH2 0x2384 DUP5 DUP3 DUP6 ADD PUSH2 0x234E JUMP JUMPDEST SWAP2 POP POP SWAP3 SWAP2 POP POP JUMP JUMPDEST PUSH0 DUP2 MLOAD SWAP1 POP SWAP2 SWAP1 POP JUMP JUMPDEST PUSH0 DUP3 DUP3 MSTORE PUSH1 0x20 DUP3 ADD SWAP1 POP SWAP3 SWAP2 POP POP JUMP JUMPDEST PUSH0 DUP2 SWAP1 POP PUSH1 0x20 DUP3 ADD SWAP1 POP SWAP2 SWAP1 POP JUMP JUMPDEST PUSH0 PUSH4 0xFFFFFFFF DUP3 AND SWAP1 POP SWAP2 SWAP1 POP JUMP JUMPDEST PUSH2 0x23CE DUP2 PUSH2 0x23B6 JUMP JUMPDEST DUP3 MSTORE POP POP JUMP JUMPDEST PUSH0 PUSH1 0xFF DUP3 AND SWAP1 POP SWAP2 SWAP1 POP JUMP JUMPDEST PUSH2 0x23E9 DUP2 PUSH2 0x23D4 JUMP JUMPDEST DUP3 MSTORE POP POP JUMP JUMPDEST PUSH2 0x23F8 DUP2 PUSH2 0x232F JUMP JUMPDEST DUP3 MSTORE POP POP JUMP JUMPDEST PUSH0 PUSH20 0xFFFFFFFFFFFFFFFFFFFFFFFFFFFFFFFFFFFFFFFF DUP3 AND SWAP1 POP SWAP2 SWAP1 POP JUMP JUMPDEST PUSH0 PUSH2 0x2427 DUP3 PUSH2 0x23FE JUMP JUMPDEST SWAP1 POP SWAP2 SWAP1 POP JUMP JUMPDEST PUSH2 0x2437 DUP2 PUSH2 0x241D JUMP JUMPDEST DUP3 MSTORE POP POP JUMP JUMPDEST PUSH1 0x80 DUP3 ADD PUSH0 DUP3 ADD MLOAD PUSH2 0x2451 PUSH0 DUP6 ADD DUP3 PUSH2 0x23C5 JUMP JUMPDEST POP PUSH1 0x20 DUP3 ADD MLOAD PUSH2 0x2464 PUSH1 0x20 DUP6 ADD DUP3 PUSH2 0x23E0 JUMP JUMPDEST POP PUSH1 0x40 DUP3 ADD MLOAD PUSH2 0x2477 PUSH1 0x40 DUP6 ADD DUP3 PUSH2 0x23EF JUMP JUMPDEST POP PUSH1 0x60 DUP3 ADD MLOAD PUSH2 0x248A PUSH1 0x60 DUP6 ADD DUP3 PUSH2 0x242E JUMP JUMPDEST POP POP POP POP JUMP JUMPDEST PUSH0 PUSH2 0x249B DUP4 DUP4 PUSH2 0x243D JUMP JUMPDEST PUSH1 0x80 DUP4 ADD SWAP1 POP SWAP3 SWAP2 POP POP JUMP JUMPDEST PUSH0 PUSH1 0x20 DUP3 ADD SWAP1 POP SWAP2 SWAP1 POP JUMP JUMPDEST PUSH0 PUSH2 0x24BD DUP3 PUSH2 0x238D JUMP JUMPDEST PUSH2 0x24C7 DUP2 DUP6 PUSH2 0x2397 JUMP JUMPDEST SWAP4 POP PUSH2 0x24D2 DUP4 PUSH2 0x23A7 JUMP JUMPDEST DUP1 PUSH0 JUMPDEST DUP4 DUP2 LT ISZERO PUSH2 0x2502 JUMPI DUP2 MLOAD PUSH2 0x24E9 DUP9 DUP3 PUSH2 0x2490 JUMP JUMPDEST SWAP8 POP PUSH2 0x24F4 DUP4 PUSH2 0x24A7 JUMP JUMPDEST SWAP3 POP POP PUSH1 0x1 DUP2 ADD SWAP1 POP PUSH2 0x24D5 JUMP JUMPDEST POP DUP6 SWAP4 POP POP POP POP SWAP3 SWAP2 POP POP JUMP JUMPDEST PUSH0 PUSH1 0x20 DUP3 ADD SWAP1 POP DUP2 DUP2 SUB PUSH0 DUP4 ADD MSTORE PUSH2 0x2527 DUP2 DUP5 PUSH2 0x24B3 JUMP JUMPDEST SWAP1 POP SWAP3 SWAP2 POP POP JUMP JUMPDEST PUSH2 0x2538 DUP2 PUSH2 0x241D JUMP JUMPDEST DUP3 MSTORE POP POP JUMP JUMPDEST PUSH0 PUSH1 0x20 DUP3 ADD SWAP1 POP PUSH2 0x2551 PUSH0 DUP4 ADD DUP5 PUSH2 0x252F JUMP JUMPDEST SWAP3 SWAP2 POP POP JUMP JUMPDEST PUSH2 0x2560 DUP2 PUSH2 0x232F JUMP JUMPDEST DUP3 MSTORE POP POP JUMP JUMPDEST PUSH0 PUSH1 0x20 DUP3 ADD SWAP1 POP PUSH2 0x2579 PUSH0 DUP4 ADD DUP5 PUSH2 0x2557 JUMP JUMPDEST SWAP3 SWAP2 POP POP JUMP JUMPDEST PUSH0 PUSH2 0xFFFF DUP3 AND SWAP1 POP SWAP2 SWAP1 POP JUMP JUMPDEST PUSH2 0x2595 DUP2 PUSH2 0x257F JUMP JUMPDEST DUP2 EQ PUSH2 0x259F JUMPI PUSH0 DUP1 REVERT JUMPDEST POP JUMP JUMPDEST PUSH0 DUP2 CALLDATALOAD SWAP1 POP PUSH2 0x25B0 DUP2 PUSH2 0x258C JUMP JUMPDEST SWAP3 SWAP2 POP POP JUMP JUMPDEST PUSH2 0x25BF DUP2 PUSH2 0x23D4 JUMP JUMPDEST DUP2 EQ PUSH2 0x25C9 JUMPI PUSH0 DUP1 REVERT JUMPDEST POP JUMP JUMPDEST PUSH0 DUP2 CALLDATALOAD SWAP1 POP PUSH2 0x25DA DUP2 PUSH2 0x25B6 JUMP JUMPDEST SWAP3 SWAP2 POP POP JUMP JUMPDEST PUSH0 PUSH29 0xFFFFFFFFFFFFFFFFFFFFFFFFFFFFFFFFFFFFFFFFFFFFFFFFFFFFFFFFFF DUP3 AND SWAP1 POP SWAP2 SWAP1 POP JUMP JUMPDEST PUSH2 0x2611 DUP2 PUSH2 0x25E0 JUMP JUMPDEST DUP2 EQ PUSH2 0x261B JUMPI PUSH0 DUP1 REVERT JUMPDEST POP JUMP JUMPDEST PUSH0 DUP2 CALLDATALOAD SWAP1 POP PUSH2 0x262C DUP2 PUSH2 0x2608 JUMP JUMPDEST SWAP3 SWAP2 POP POP JUMP JUMPDEST PUSH2 0x263B DUP2 PUSH2 0x241D JUMP JUMPDEST DUP2 EQ PUSH2 0x2645 JUMPI PUSH0 DUP1 REVERT JUMPDEST POP JUMP JUMPDEST PUSH0 DUP2 CALLDATALOAD SWAP1 POP PUSH2 0x2656 DUP2 PUSH2 0x2632 JUMP JUMPDEST SWAP3 SWAP2 POP POP JUMP JUMPDEST PUSH0 DUP1 PUSH0 DUP1 PUSH1 0x80 DUP6 DUP8 SUB SLT ISZERO PUSH2 0x2674 JUMPI PUSH2 0x2673 PUSH2 0x232B JUMP JUMPDEST JUMPDEST PUSH0 PUSH2 0x2681 DUP8 DUP3 DUP9 ADD PUSH2 0x25A2 JUMP JUMPDEST SWAP5 POP POP PUSH1 0x20 PUSH2 0x2692 DUP8 DUP3 DUP9 ADD PUSH2 0x25CC JUMP JUMPDEST SWAP4 POP POP PUSH1 0x40 PUSH2 0x26A3 DUP8 DUP3 DUP9 ADD PUSH2 0x261E JUMP JUMPDEST SWAP3 POP POP PUSH1 0x60 PUSH2 0x26B4 DUP8 DUP3 DUP9 ADD PUSH2 0x2648 JUMP JUMPDEST SWAP2 POP POP SWAP3 SWAP6 SWAP2 SWAP5 POP SWAP3 POP JUMP JUMPDEST PUSH0 DUP3 DUP3 MSTORE PUSH1 0x20 DUP3 ADD SWAP1 POP SWAP3 SWAP2 POP POP JUMP JUMPDEST PUSH32 0x596F75206D757374206265206120696E766573746F7200000000000000000000 PUSH0 DUP3 ADD MSTORE POP JUMP JUMPDEST PUSH0 PUSH2 0x2704 PUSH1 0x16 DUP4 PUSH2 0x26C0 JUMP JUMPDEST SWAP2 POP PUSH2 0x270F DUP3 PUSH2 0x26D0 JUMP JUMPDEST PUSH1 0x20 DUP3 ADD SWAP1 POP SWAP2 SWAP1 POP JUMP JUMPDEST PUSH0 PUSH1 0x20 DUP3 ADD SWAP1 POP DUP2 DUP2 SUB PUSH0 DUP4 ADD MSTORE PUSH2 0x2731 DUP2 PUSH2 0x26F8 JUMP JUMPDEST SWAP1 POP SWAP2 SWAP1 POP JUMP JUMPDEST PUSH32 0x4E487B7100000000000000000000000000000000000000000000000000000000 PUSH0 MSTORE PUSH1 0x11 PUSH1 0x4 MSTORE PUSH1 0x24 PUSH0 REVERT JUMPDEST PUSH0 PUSH2 0x276F DUP3 PUSH2 0x232F JUMP JUMPDEST SWAP2 POP PUSH2 0x277A DUP4 PUSH2 0x232F JUMP JUMPDEST SWAP3 POP DUP3 DUP3 ADD SWAP1 POP DUP1 DUP3 GT ISZERO PUSH2 0x2792 JUMPI PUSH2 0x2791 PUSH2 0x2738 JUMP JUMPDEST JUMPDEST SWAP3 SWAP2 POP POP JUMP JUMPDEST PUSH32 0x4E487B7100000000000000000000000000000000000000000000000000000000 PUSH0 MSTORE PUSH1 0x12 PUSH1 0x4 MSTORE PUSH1 0x24 PUSH0 REVERT JUMPDEST PUSH0 PUSH2 0x27CF DUP3 PUSH2 0x232F JUMP JUMPDEST SWAP2 POP PUSH2 0x27DA DUP4 PUSH2 0x232F JUMP JUMPDEST SWAP3 POP DUP3 PUSH2 0x27EA JUMPI PUSH2 0x27E9 PUSH2 0x2798 JUMP JUMPDEST JUMPDEST DUP3 DUP3 DIV SWAP1 POP SWAP3 SWAP2 POP POP JUMP JUMPDEST PUSH32 0x4E487B7100000000000000000000000000000000000000000000000000000000 PUSH0 MSTORE PUSH1 0x32 PUSH1 0x4 MSTORE PUSH1 0x24 PUSH0 REVERT JUMPDEST PUSH32 0x4E6F7420656E6F7567682070726F66697420746F207769746864726177210000 PUSH0 DUP3 ADD MSTORE POP JUMP JUMPDEST PUSH0 PUSH2 0x2856 PUSH1 0x1E DUP4 PUSH2 0x26C0 JUMP JUMPDEST SWAP2 POP PUSH2 0x2861 DUP3 PUSH2 0x2822 JUMP JUMPDEST PUSH1 0x20 DUP3 ADD SWAP1 POP SWAP2 SWAP1 POP JUMP JUMPDEST PUSH0 PUSH1 0x20 DUP3 ADD SWAP1 POP DUP2 DUP2 SUB PUSH0 DUP4 ADD MSTORE PUSH2 0x2883 DUP2 PUSH2 0x284A JUMP JUMPDEST SWAP1 POP SWAP2 SWAP1 POP JUMP JUMPDEST PUSH0 PUSH2 0x2894 DUP3 PUSH2 0x232F JUMP JUMPDEST SWAP2 POP PUSH2 0x289F DUP4 PUSH2 0x232F JUMP JUMPDEST SWAP3 POP DUP3 DUP3 SUB SWAP1 POP DUP2 DUP2 GT ISZERO PUSH2 0x28B7 JUMPI PUSH2 0x28B6 PUSH2 0x2738 JUMP JUMPDEST JUMPDEST SWAP3 SWAP2 POP POP JUMP JUMPDEST PUSH32 0x4E487B7100000000000000000000000000000000000000000000000000000000 PUSH0 MSTORE PUSH1 0x41 PUSH1 0x4 MSTORE PUSH1 0x24 PUSH0 REVERT JUMPDEST PUSH32 0x496E766573746D656E7420616D6F756E7420626574657765656E203120616E64 PUSH0 DUP3 ADD MSTORE PUSH32 0x2031303030000000000000000000000000000000000000000000000000000000 PUSH1 0x20 DUP3 ADD MSTORE POP JUMP JUMPDEST PUSH0 PUSH2 0x2944 PUSH1 0x25 DUP4 PUSH2 0x26C0 JUMP JUMPDEST SWAP2 POP PUSH2 0x294F DUP3 PUSH2 0x28EA JUMP JUMPDEST PUSH1 0x40 DUP3 ADD SWAP1 POP SWAP2 SWAP1 POP JUMP JUMPDEST PUSH0 PUSH1 0x20 DUP3 ADD SWAP1 POP DUP2 DUP2 SUB PUSH0 DUP4 ADD MSTORE PUSH2 0x2971 DUP2 PUSH2 0x2938 JUMP JUMPDEST SWAP1 POP SWAP2 SWAP1 POP JUMP JUMPDEST PUSH32 0x596F7520646F6E2774206861766520756E64726177206C6F7474657279207469 PUSH0 DUP3 ADD MSTORE PUSH32 0x636B657473000000000000000000000000000000000000000000000000000000 PUSH1 0x20 DUP3 ADD MSTORE POP JUMP JUMPDEST PUSH0 PUSH2 0x29D2 PUSH1 0x25 DUP4 PUSH2 0x26C0 JUMP JUMPDEST SWAP2 POP PUSH2 0x29DD DUP3 PUSH2 0x2978 JUMP JUMPDEST PUSH1 0x40 DUP3 ADD SWAP1 POP SWAP2 SWAP1 POP JUMP JUMPDEST PUSH0 PUSH1 0x20 DUP3 ADD SWAP1 POP DUP2 DUP2 SUB PUSH0 DUP4 ADD MSTORE PUSH2 0x29FF DUP2 PUSH2 0x29C6 JUMP JUMPDEST SWAP1 POP SWAP2 SWAP1 POP JUMP JUMPDEST PUSH32 0x49742773206E6F742074696D6500000000000000000000000000000000000000 PUSH0 DUP3 ADD MSTORE POP JUMP JUMPDEST PUSH0 PUSH2 0x2A3A PUSH1 0xD DUP4 PUSH2 0x26C0 JUMP JUMPDEST SWAP2 POP PUSH2 0x2A45 DUP3 PUSH2 0x2A06 JUMP JUMPDEST PUSH1 0x20 DUP3 ADD SWAP1 POP SWAP2 SWAP1 POP JUMP JUMPDEST PUSH0 PUSH1 0x20 DUP3 ADD SWAP1 POP DUP2 DUP2 SUB PUSH0 DUP4 ADD MSTORE PUSH2 0x2A67 DUP2 PUSH2 0x2A2E JUMP JUMPDEST SWAP1 POP SWAP2 SWAP1 POP JUMP JUMPDEST PUSH0 DUP2 SWAP1 POP SWAP2 SWAP1 POP JUMP JUMPDEST PUSH0 DUP2 SWAP1 POP SWAP2 SWAP1 POP JUMP JUMPDEST PUSH2 0x2A91 PUSH2 0x2A8C DUP3 PUSH2 0x2A6E JUMP JUMPDEST PUSH2 0x2A77 JUMP JUMPDEST DUP3 MSTORE POP POP JUMP JUMPDEST PUSH0 PUSH2 0x2AA2 DUP3 DUP6 PUSH2 0x2A80 JUMP JUMPDEST PUSH1 0x20 DUP3 ADD SWAP2 POP PUSH2 0x2AB2 DUP3 DUP5 PUSH2 0x2A80 JUMP JUMPDEST PUSH1 0x20 DUP3 ADD SWAP2 POP DUP2 SWAP1 POP SWAP4 SWAP3 POP POP POP JUMP JUMPDEST PUSH0 PUSH2 0x2ACC DUP3 PUSH2 0x232F JUMP JUMPDEST SWAP2 POP PUSH2 0x2AD7 DUP4 PUSH2 0x232F JUMP JUMPDEST SWAP3 POP DUP3 DUP3 MUL PUSH2 0x2AE5 DUP2 PUSH2 0x232F JUMP JUMPDEST SWAP2 POP DUP3 DUP3 DIV DUP5 EQ DUP4 ISZERO OR PUSH2 0x2AFC JUMPI PUSH2 0x2AFB PUSH2 0x2738 JUMP JUMPDEST JUMPDEST POP SWAP3 SWAP2 POP POP JUMP JUMPDEST PUSH32 0x427579206174206C65617374206F6E6520656767000000000000000000000000 PUSH0 DUP3 ADD MSTORE POP JUMP JUMPDEST PUSH0 PUSH2 0x2B37 PUSH1 0x14 DUP4 PUSH2 0x26C0 JUMP JUMPDEST SWAP2 POP PUSH2 0x2B42 DUP3 PUSH2 0x2B03 JUMP JUMPDEST PUSH1 0x20 DUP3 ADD SWAP1 POP SWAP2 SWAP1 POP JUMP JUMPDEST PUSH0 PUSH1 0x20 DUP3 ADD SWAP1 POP DUP2 DUP2 SUB PUSH0 DUP4 ADD MSTORE PUSH2 0x2B64 DUP2 PUSH2 0x2B2B JUMP JUMPDEST SWAP1 POP SWAP2 SWAP1 POP JUMP JUMPDEST PUSH32 0x4D756C7469706C6573206265747765656E203120616E64203130300000000000 PUSH0 DUP3 ADD MSTORE POP JUMP JUMPDEST PUSH0 PUSH2 0x2B9F PUSH1 0x1B DUP4 PUSH2 0x26C0 JUMP JUMPDEST SWAP2 POP PUSH2 0x2BAA DUP3 PUSH2 0x2B6B JUMP JUMPDEST PUSH1 0x20 DUP3 ADD SWAP1 POP SWAP2 SWAP1 POP JUMP JUMPDEST PUSH0 PUSH1 0x20 DUP3 ADD SWAP1 POP DUP2 DUP2 SUB PUSH0 DUP4 ADD MSTORE PUSH2 0x2BCC DUP2 PUSH2 0x2B93 JUMP JUMPDEST SWAP1 POP SWAP2 SWAP1 POP JUMP JUMPDEST PUSH32 0x4E756D626572206F662065676773206265747765656E203120616E6420313030 PUSH0 DUP3 ADD MSTORE POP JUMP JUMPDEST PUSH0 PUSH2 0x2C07 PUSH1 0x20 DUP4 PUSH2 0x26C0 JUMP JUMPDEST SWAP2 POP PUSH2 0x2C12 DUP3 PUSH2 0x2BD3 JUMP JUMPDEST PUSH1 0x20 DUP3 ADD SWAP1 POP SWAP2 SWAP1 POP JUMP JUMPDEST PUSH0 PUSH1 0x20 DUP3 ADD SWAP1 POP DUP2 DUP2 SUB PUSH0 DUP4 ADD MSTORE PUSH2 0x2C34 DUP2 PUSH2 0x2BFB JUMP JUMPDEST SWAP1 POP SWAP2 SWAP1 POP JUMP JUMPDEST PUSH0 PUSH2 0x2C45 DUP3 PUSH2 0x257F JUMP JUMPDEST SWAP2 POP PUSH2 0x2C50 DUP4 PUSH2 0x257F JUMP JUMPDEST SWAP3 POP DUP3 DUP3 MUL PUSH2 0x2C5E DUP2 PUSH2 0x257F JUMP JUMPDEST SWAP2 POP DUP1 DUP3 EQ PUSH2 0x2C70 JUMPI PUSH2 0x2C6F PUSH2 0x2738 JUMP JUMPDEST JUMPDEST POP SWAP3 SWAP2 POP POP JUMP JUMPDEST PUSH32 0x496E76616C696420646174610000000000000000000000000000000000000000 PUSH0 DUP3 ADD MSTORE POP JUMP JUMPDEST PUSH0 PUSH2 0x2CAB PUSH1 0xC DUP4 PUSH2 0x26C0 JUMP JUMPDEST SWAP2 POP PUSH2 0x2CB6 DUP3 PUSH2 0x2C77 JUMP JUMPDEST PUSH1 0x20 DUP3 ADD SWAP1 POP SWAP2 SWAP1 POP JUMP JUMPDEST PUSH0 PUSH1 0x20 DUP3 ADD SWAP1 POP DUP2 DUP2 SUB PUSH0 DUP4 ADD MSTORE PUSH2 0x2CD8 DUP2 PUSH2 0x2C9F JUMP JUMPDEST SWAP1 POP SWAP2 SWAP1 POP JUMP JUMPDEST PUSH0 PUSH2 0x2CE9 DUP3 PUSH2 0x25E0 JUMP JUMPDEST SWAP2 POP PUSH29 0xFFFFFFFFFFFFFFFFFFFFFFFFFFFFFFFFFFFFFFFFFFFFFFFFFFFFFFFFFF DUP3 SUB PUSH2 0x2D18 JUMPI PUSH2 0x2D17 PUSH2 0x2738 JUMP JUMPDEST JUMPDEST PUSH1 0x1 DUP3 ADD SWAP1 POP SWAP2 SWAP1 POP JUMP JUMPDEST PUSH0 DUP2 SWAP1 POP SWAP2 SWAP1 POP JUMP JUMPDEST PUSH2 0x2D3D PUSH2 0x2D38 DUP3 PUSH2 0x232F JUMP JUMPDEST PUSH2 0x2D23 JUMP JUMPDEST DUP3 MSTORE POP POP JUMP JUMPDEST PUSH0 PUSH2 0x2D4D DUP3 PUSH2 0x23FE JUMP JUMPDEST SWAP1 POP SWAP2 SWAP1 POP JUMP JUMPDEST PUSH0 DUP2 PUSH1 0x60 SHL SWAP1 POP SWAP2 SWAP1 POP JUMP JUMPDEST PUSH0 PUSH2 0x2D6A DUP3 PUSH2 0x2D54 JUMP JUMPDEST SWAP1 POP SWAP2 SWAP1 POP JUMP JUMPDEST PUSH0 PUSH2 0x2D7B DUP3 PUSH2 0x2D60 JUMP JUMPDEST SWAP1 POP SWAP2 SWAP1 POP JUMP JUMPDEST PUSH2 0x2D93 PUSH2 0x2D8E DUP3 PUSH2 0x2D43 JUMP JUMPDEST PUSH2 0x2D71 JUMP JUMPDEST DUP3 MSTORE POP POP JUMP JUMPDEST PUSH0 PUSH2 0x2DA3 DUP3 PUSH2 0x2D60 JUMP JUMPDEST SWAP1 POP SWAP2 SWAP1 POP JUMP JUMPDEST PUSH2 0x2DBB PUSH2 0x2DB6 DUP3 PUSH2 0x241D JUMP JUMPDEST PUSH2 0x2D99 JUMP JUMPDEST DUP3 MSTORE POP POP JUMP JUMPDEST PUSH0 DUP2 PUSH1 0x18 SHL SWAP1 POP SWAP2 SWAP1 POP JUMP JUMPDEST PUSH0 PUSH2 0x2DD7 DUP3 PUSH2 0x2DC1 JUMP JUMPDEST SWAP1 POP SWAP2 SWAP1 POP JUMP JUMPDEST PUSH2 0x2DEF PUSH2 0x2DEA DUP3 PUSH2 0x25E0 JUMP JUMPDEST PUSH2 0x2DCD JUMP JUMPDEST DUP3 MSTORE POP POP JUMP JUMPDEST PUSH0 PUSH2 0x2E00 DUP3 DUP8 PUSH2 0x2D2C JUMP JUMPDEST PUSH1 0x20 DUP3 ADD SWAP2 POP PUSH2 0x2E10 DUP3 DUP7 PUSH2 0x2D82 JUMP JUMPDEST PUSH1 0x14 DUP3 ADD SWAP2 POP PUSH2 0x2E20 DUP3 DUP6 PUSH2 0x2DAA JUMP JUMPDEST PUSH1 0x14 DUP3 ADD SWAP2 POP PUSH2 0x2E30 DUP3 DUP5 PUSH2 0x2DDE JUMP JUMPDEST PUSH1 0x1D DUP3 ADD SWAP2 POP DUP2 SWAP1 POP SWAP6 SWAP5 POP POP POP POP POP JUMP JUMPDEST PUSH32 0x4D696E696D756D20696E766573746D656E7420616D6F756E7420697320726571 PUSH0 DUP3 ADD MSTORE PUSH32 0x75697265642C6974277320736D616C6C6572207468616E20746865206D696E69 PUSH1 0x20 DUP3 ADD MSTORE PUSH32 0x6D756D206465706F736974000000000000000000000000000000000000000000 PUSH1 0x40 DUP3 ADD MSTORE POP JUMP JUMPDEST PUSH0 PUSH2 0x2EC2 PUSH1 0x4B DUP4 PUSH2 0x26C0 JUMP JUMPDEST SWAP2 POP PUSH2 0x2ECD DUP3 PUSH2 0x2E42 JUMP JUMPDEST PUSH1 0x60 DUP3 ADD SWAP1 POP SWAP2 SWAP1 POP JUMP JUMPDEST PUSH0 PUSH1 0x20 DUP3 ADD SWAP1 POP DUP2 DUP2 SUB PUSH0 DUP4 ADD MSTORE PUSH2 0x2EEF DUP2 PUSH2 0x2EB6 JUMP JUMPDEST SWAP1 POP SWAP2 SWAP1 POP JUMP JUMPDEST PUSH32 0x4E6F7420656E6F7567682066756E6420746F2077697468647261772100000000 PUSH0 DUP3 ADD MSTORE POP JUMP JUMPDEST PUSH0 PUSH2 0x2F2A PUSH1 0x1C DUP4 PUSH2 0x26C0 JUMP JUMPDEST SWAP2 POP PUSH2 0x2F35 DUP3 PUSH2 0x2EF6 JUMP JUMPDEST PUSH1 0x20 DUP3 ADD SWAP1 POP SWAP2 SWAP1 POP JUMP JUMPDEST PUSH0 PUSH1 0x20 DUP3 ADD SWAP1 POP DUP2 DUP2 SUB PUSH0 DUP4 ADD MSTORE PUSH2 0x2F57 DUP2 PUSH2 0x2F1E JUMP JUMPDEST SWAP1 POP SWAP2 SWAP1 POP JUMP JUMPDEST PUSH32 0x43616E6E6F74207769746864726177206166746572206F6E65207765656B2100 PUSH0 DUP3 ADD MSTORE POP JUMP JUMPDEST PUSH0 PUSH2 0x2F92 PUSH1 0x1F DUP4 PUSH2 0x26C0 JUMP JUMPDEST SWAP2 POP PUSH2 0x2F9D DUP3 PUSH2 0x2F5E JUMP JUMPDEST PUSH1 0x20 DUP3 ADD SWAP1 POP SWAP2 SWAP1 POP JUMP JUMPDEST PUSH0 PUSH1 0x20 DUP3 ADD SWAP1 POP DUP2 DUP2 SUB PUSH0 DUP4 ADD MSTORE PUSH2 0x2FBF DUP2 PUSH2 0x2F86 JUMP JUMPDEST SWAP1 POP SWAP2 SWAP1 POP JUMP JUMPDEST PUSH32 0x496E73756666696369656E742066756E6420746F207769746864726177210000 PUSH0 DUP3 ADD MSTORE POP JUMP JUMPDEST PUSH0 PUSH2 0x2FFA PUSH1 0x1E DUP4 PUSH2 0x26C0 JUMP JUMPDEST SWAP2 POP PUSH2 0x3005 DUP3 PUSH2 0x2FC6 JUMP JUMPDEST PUSH1 0x20 DUP3 ADD SWAP1 POP SWAP2 SWAP1 POP JUMP JUMPDEST PUSH0 PUSH1 0x20 DUP3 ADD SWAP1 POP DUP2 DUP2 SUB PUSH0 DUP4 ADD MSTORE PUSH2 0x3027 DUP2 PUSH2 0x2FEE JUMP JUMPDEST SWAP1 POP SWAP2 SWAP1 POP JUMP JUMPDEST PUSH32 0x596F75206D7573742062652074686520646576656C6F70657200000000000000 PUSH0 DUP3 ADD MSTORE POP JUMP JUMPDEST PUSH0 PUSH2 0x3062 PUSH1 0x19 DUP4 PUSH2 0x26C0 JUMP JUMPDEST SWAP2 POP PUSH2 0x306D DUP3 PUSH2 0x302E JUMP JUMPDEST PUSH1 0x20 DUP3 ADD SWAP1 POP SWAP2 SWAP1 POP JUMP JUMPDEST PUSH0 PUSH1 0x20 DUP3 ADD SWAP1 POP DUP2 DUP2 SUB PUSH0 DUP4 ADD MSTORE PUSH2 0x308F DUP2 PUSH2 0x3056 JUMP JUMPDEST SWAP1 POP SWAP2 SWAP1 POP JUMP JUMPDEST PUSH32 0x4E487B7100000000000000000000000000000000000000000000000000000000 PUSH0 MSTORE PUSH1 0x1 PUSH1 0x4 MSTORE PUSH1 0x24 PUSH0 REVERT INVALID LOG2 PUSH5 0x6970667358 0x22 SLT KECCAK256 PUSH22 0x1D18F40D59C756396C0AEBB7EE752DE71AF41BC95608 LOG2 0xDA 0xB7 0xD7 LT 0xCB 0xE0 PUSH29 0xC464736F6C634300081A00330000000000000000000000000000000000 "
				},
				"gasEstimates": {
					"creation": {
						"codeDepositCost": "2507400",
						"executionCost": "71192",
						"totalCost": "2578592"
					},
					"external": {
						"BuyEggs(uint16,uint8,uint232,address)": "infinite",
						"DevAddress()": "2616",
						"DeveloperWithdrawal()": "infinite",
						"DistributeInvestmentIncome()": "infinite",
						"GetWinningRecord(uint256)": "infinite",
						"InvestmentDeposit()": "infinite",
						"InvestmentWithdrawal(uint256)": "infinite",
						"InvestorsProfit()": "2491",
						"OpenEggs()": "infinite",
						"RecentDividendTime()": "2447",
						"TotalInvestmentAmount()": "2425",
						"WithdrawReferralProfit()": "infinite"
					},
					"internal": {
						"GetWinninggrade(uint32)": "331",
						"GetWinningmultiple(uint256)": "291",
						"SafeMathadd(uint256,uint256)": "infinite",
						"SafeMathdiv(uint256,uint256)": "infinite",
						"SafeMathmul(uint256,uint256)": "infinite",
						"SafeMathsub(uint256,uint256)": "infinite"
					}
				},
				"methodIdentifiers": {
					"BuyEggs(uint16,uint8,uint232,address)": "c9ea0299",
					"DevAddress()": "89a4c1a0",
					"DeveloperWithdrawal()": "f4e79b5b",
					"DistributeInvestmentIncome()": "12db1357",
					"GetWinningRecord(uint256)": "2b5baca1",
					"InvestmentDeposit()": "49821332",
					"InvestmentWithdrawal(uint256)": "dd5f6f4d",
					"InvestorsProfit()": "ca6aae29",
					"OpenEggs()": "7da384fd",
					"RecentDividendTime()": "b1c617ff",
					"TotalInvestmentAmount()": "a659f4dc",
					"WithdrawReferralProfit()": "22629256"
				}
			},
			"storageLayout": {
				"storage": [
					{
						"astId": 56,
						"contract": "contracts/Lottery.sol:LotteryGame",
						"label": "DevAddress",
						"offset": 0,
						"slot": "0",
						"type": "t_address"
					},
					{
						"astId": 58,
						"contract": "contracts/Lottery.sol:LotteryGame",
						"label": "DevProfit",
						"offset": 0,
						"slot": "1",
						"type": "t_uint256"
					},
					{
						"astId": 61,
						"contract": "contracts/Lottery.sol:LotteryGame",
						"label": "investors",
						"offset": 0,
						"slot": "2",
						"type": "t_array(t_address)dyn_storage"
					},
					{
						"astId": 66,
						"contract": "contracts/Lottery.sol:LotteryGame",
						"label": "InvestorsBalance",
						"offset": 0,
						"slot": "3",
						"type": "t_mapping(t_address,t_struct(investorbalance)42_storage)"
					},
					{
						"astId": 68,
						"contract": "contracts/Lottery.sol:LotteryGame",
						"label": "TotalInvestmentAmount",
						"offset": 0,
						"slot": "4",
						"type": "t_uint256"
					},
					{
						"astId": 70,
						"contract": "contracts/Lottery.sol:LotteryGame",
						"label": "InvestorsProfit",
						"offset": 0,
						"slot": "5",
						"type": "t_uint256"
					},
					{
						"astId": 72,
						"contract": "contracts/Lottery.sol:LotteryGame",
						"label": "RecentDividendTime",
						"offset": 0,
						"slot": "6",
						"type": "t_uint256"
					},
					{
						"astId": 74,
						"contract": "contracts/Lottery.sol:LotteryGame",
						"label": "TotalReferralProfit",
						"offset": 0,
						"slot": "7",
						"type": "t_uint256"
					},
					{
						"astId": 76,
						"contract": "contracts/Lottery.sol:LotteryGame",
						"label": "LastBuyEggTime",
						"offset": 0,
						"slot": "8",
						"type": "t_uint256"
					},
					{
						"astId": 81,
						"contract": "contracts/Lottery.sol:LotteryGame",
						"label": "UsersInfo",
						"offset": 0,
						"slot": "9",
						"type": "t_mapping(t_address,t_struct(userinfo)26_storage)"
					},
					{
						"astId": 85,
						"contract": "contracts/Lottery.sol:LotteryGame",
						"label": "referrals",
						"offset": 0,
						"slot": "10",
						"type": "t_mapping(t_address,t_address)"
					},
					{
						"astId": 89,
						"contract": "contracts/Lottery.sol:LotteryGame",
						"label": "WinningRecord",
						"offset": 0,
						"slot": "11",
						"type": "t_array(t_struct(Winninginfo)35_storage)dyn_storage"
					}
				],
				"types": {
					"t_address": {
						"encoding": "inplace",
						"label": "address",
						"numberOfBytes": "20"
					},
					"t_array(t_address)dyn_storage": {
						"base": "t_address",
						"encoding": "dynamic_array",
						"label": "address[]",
						"numberOfBytes": "32"
					},
					"t_array(t_struct(Egginfo)8_storage)dyn_storage": {
						"base": "t_struct(Egginfo)8_storage",
						"encoding": "dynamic_array",
						"label": "struct LotteryGame.Egginfo[]",
						"numberOfBytes": "32"
					},
					"t_array(t_struct(OpenedLotInfo)13_storage)dyn_storage": {
						"base": "t_struct(OpenedLotInfo)13_storage",
						"encoding": "dynamic_array",
						"label": "struct LotteryGame.OpenedLotInfo[]",
						"numberOfBytes": "32"
					},
					"t_array(t_struct(Winninginfo)35_storage)dyn_storage": {
						"base": "t_struct(Winninginfo)35_storage",
						"encoding": "dynamic_array",
						"label": "struct LotteryGame.Winninginfo[]",
						"numberOfBytes": "32"
					},
					"t_bool": {
						"encoding": "inplace",
						"label": "bool",
						"numberOfBytes": "1"
					},
					"t_bytes32": {
						"encoding": "inplace",
						"label": "bytes32",
						"numberOfBytes": "32"
					},
					"t_mapping(t_address,t_address)": {
						"encoding": "mapping",
						"key": "t_address",
						"label": "mapping(address => address)",
						"numberOfBytes": "32",
						"value": "t_address"
					},
					"t_mapping(t_address,t_struct(investorbalance)42_storage)": {
						"encoding": "mapping",
						"key": "t_address",
						"label": "mapping(address => struct LotteryGame.investorbalance)",
						"numberOfBytes": "32",
						"value": "t_struct(investorbalance)42_storage"
					},
					"t_mapping(t_address,t_struct(userinfo)26_storage)": {
						"encoding": "mapping",
						"key": "t_address",
						"label": "mapping(address => struct LotteryGame.userinfo)",
						"numberOfBytes": "32",
						"value": "t_struct(userinfo)26_storage"
					},
					"t_struct(Egginfo)8_storage": {
						"encoding": "inplace",
						"label": "struct LotteryGame.Egginfo",
						"members": [
							{
								"astId": 3,
								"contract": "contracts/Lottery.sol:LotteryGame",
								"label": "uid",
								"offset": 0,
								"slot": "0",
								"type": "t_bytes32"
							},
							{
								"astId": 5,
								"contract": "contracts/Lottery.sol:LotteryGame",
								"label": "mul",
								"offset": 0,
								"slot": "1",
								"type": "t_uint8"
							},
							{
								"astId": 7,
								"contract": "contracts/Lottery.sol:LotteryGame",
								"label": "blocknumber",
								"offset": 1,
								"slot": "1",
								"type": "t_uint248"
							}
						],
						"numberOfBytes": "64"
					},
					"t_struct(OpenedLotInfo)13_storage": {
						"encoding": "inplace",
						"label": "struct LotteryGame.OpenedLotInfo",
						"members": [
							{
								"astId": 10,
								"contract": "contracts/Lottery.sol:LotteryGame",
								"label": "Lotterynum",
								"offset": 0,
								"slot": "0",
								"type": "t_uint32"
							},
							{
								"astId": 12,
								"contract": "contracts/Lottery.sol:LotteryGame",
								"label": "mul",
								"offset": 4,
								"slot": "0",
								"type": "t_uint8"
							}
						],
						"numberOfBytes": "32"
					},
					"t_struct(Winninginfo)35_storage": {
						"encoding": "inplace",
						"label": "struct LotteryGame.Winninginfo",
						"members": [
							{
								"astId": 28,
								"contract": "contracts/Lottery.sol:LotteryGame",
								"label": "LotteryNum",
								"offset": 0,
								"slot": "0",
								"type": "t_uint32"
							},
							{
								"astId": 30,
								"contract": "contracts/Lottery.sol:LotteryGame",
								"label": "mul",
								"offset": 4,
								"slot": "0",
								"type": "t_uint8"
							},
							{
								"astId": 32,
								"contract": "contracts/Lottery.sol:LotteryGame",
								"label": "timestamp",
								"offset": 0,
								"slot": "1",
								"type": "t_uint256"
							},
							{
								"astId": 34,
								"contract": "contracts/Lottery.sol:LotteryGame",
								"label": "winner",
								"offset": 0,
								"slot": "2",
								"type": "t_address"
							}
						],
						"numberOfBytes": "96"
					},
					"t_struct(investorbalance)42_storage": {
						"encoding": "inplace",
						"label": "struct LotteryGame.investorbalance",
						"members": [
							{
								"astId": 37,
								"contract": "contracts/Lottery.sol:LotteryGame",
								"label": "balance",
								"offset": 0,
								"slot": "0",
								"type": "t_uint256"
							},
							{
								"astId": 39,
								"contract": "contracts/Lottery.sol:LotteryGame",
								"label": "LastInvestTime",
								"offset": 0,
								"slot": "1",
								"type": "t_uint256"
							},
							{
								"astId": 41,
								"contract": "contracts/Lottery.sol:LotteryGame",
								"label": "HasInvested",
								"offset": 0,
								"slot": "2",
								"type": "t_bool"
							}
						],
						"numberOfBytes": "96"
					},
					"t_struct(userinfo)26_storage": {
						"encoding": "inplace",
						"label": "struct LotteryGame.userinfo",
						"members": [
							{
								"astId": 17,
								"contract": "contracts/Lottery.sol:LotteryGame",
								"label": "eggsinfo",
								"offset": 0,
								"slot": "0",
								"type": "t_array(t_struct(Egginfo)8_storage)dyn_storage"
							},
							{
								"astId": 21,
								"contract": "contracts/Lottery.sol:LotteryGame",
								"label": "openedeggs",
								"offset": 0,
								"slot": "1",
								"type": "t_array(t_struct(OpenedLotInfo)13_storage)dyn_storage"
							},
							{
								"astId": 23,
								"contract": "contracts/Lottery.sol:LotteryGame",
								"label": "ReferralProfit",
								"offset": 0,
								"slot": "2",
								"type": "t_uint256"
							},
							{
								"astId": 25,
								"contract": "contracts/Lottery.sol:LotteryGame",
								"label": "actived",
								"offset": 0,
								"slot": "3",
								"type": "t_bool"
							}
						],
						"numberOfBytes": "128"
					},
					"t_uint248": {
						"encoding": "inplace",
						"label": "uint248",
						"numberOfBytes": "31"
					},
					"t_uint256": {
						"encoding": "inplace",
						"label": "uint256",
						"numberOfBytes": "32"
					},
					"t_uint32": {
						"encoding": "inplace",
						"label": "uint32",
						"numberOfBytes": "4"
					},
					"t_uint8": {
						"encoding": "inplace",
						"label": "uint8",
						"numberOfBytes": "1"
					}
				}
			},
			"userdoc": {
				"kind": "user",
				"methods": {},
				"version": 1
			}
		}
	}
}