{
	"data": {
		"bytecode": {
			"linkReferences": {},
			"object": "6080604052348015600e575f80fd5b50335f806101000a81548173ffffffffffffffffffffffffffffffffffffffff021916908373ffffffffffffffffffffffffffffffffffffffff16021790555042600681905550426008819055506130f9806100695f395ff3fe6080604052600436106100a6575f3560e01c8063a659f4dc11610063578063a659f4dc1461015c578063b1c617ff14610186578063c9ea0299146101b0578063ca6aae29146101cc578063dd5f6f4d146101f6578063f4e79b5b1461021e576100a6565b806312db1357146100aa57806322629256146100c05780632b5baca1146100d657806349821332146101125780637da384fd1461011c57806389a4c1a014610132575b5f80fd5b3480156100b5575f80fd5b506100be610234565b005b3480156100cb575f80fd5b506100d46105ba565b005b3480156100e1575f80fd5b506100fc60048036038101906100f79190612362565b61072c565b604051610109919061250f565b60405180910390f35b61011a6108c0565b005b348015610127575f80fd5b50610130610b19565b005b34801561013d575f80fd5b50610146611470565b604051610153919061253e565b60405180910390f35b348015610167575f80fd5b50610170611493565b60405161017d9190612566565b60405180910390f35b348015610191575f80fd5b5061019a611499565b6040516101a79190612566565b60405180910390f35b6101ca60048036038101906101c5919061265c565b61149f565b005b3480156101d7575f80fd5b506101e0611c23565b6040516101ed9190612566565b60405180910390f35b348015610201575f80fd5b5061021c60048036038101906102179190612362565b611c29565b005b348015610229575f80fd5b50610232611ea3565b005b670de0b6b3a764000060035f3373ffffffffffffffffffffffffffffffffffffffff1673ffffffffffffffffffffffffffffffffffffffff1681526020019081526020015f205f01541015806102d457505f8054906101000a900473ffffffffffffffffffffffffffffffffffffffff1673ffffffffffffffffffffffffffffffffffffffff163373ffffffffffffffffffffffffffffffffffffffff16145b610313576040517f08c379a000000000000000000000000000000000000000000000000000000000815260040161030a9061271a565b60405180910390fd5b5f60055490505f80610341476001546007546005546103329190612765565b61033c9190612765565b611fa3565b905069021e19e0c9bab240000081106103895760c88161036191906127c5565b8361036c9190612765565b925060c88161037b91906127c5565b826103869190612765565b91505b5f6005819055505f5b60028054905081101561054857670de0b6b3a764000060035f600284815481106103bf576103be6127f5565b5b905f5260205f20015f9054906101000a900473ffffffffffffffffffffffffffffffffffffffff1673ffffffffffffffffffffffffffffffffffffffff1673ffffffffffffffffffffffffffffffffffffffff1681526020019081526020015f205f01541061053b575f6104b86104b060035f60028681548110610446576104456127f5565b5b905f5260205f20015f9054906101000a900473ffffffffffffffffffffffffffffffffffffffff1673ffffffffffffffffffffffffffffffffffffffff1673ffffffffffffffffffffffffffffffffffffffff1681526020019081526020015f205f015487611fc9565b60045461200e565b9050600282815481106104ce576104cd6127f5565b5b905f5260205f20015f9054906101000a900473ffffffffffffffffffffffffffffffffffffffff1673ffffffffffffffffffffffffffffffffffffffff166108fc8290811502906040515f60405180830381858888f19350505050158015610538573d5f803e3d5ffd5b50505b8080600101915050610392565b505f8211156105b5575f8054906101000a900473ffffffffffffffffffffffffffffffffffffffff1673ffffffffffffffffffffffffffffffffffffffff166108fc8390811502906040515f60405180830381858888f193505050501580156105b3573d5f803e3d5ffd5b505b505050565b662386f26fc1000060095f3373ffffffffffffffffffffffffffffffffffffffff1673ffffffffffffffffffffffffffffffffffffffff1681526020019081526020015f20600201541015610644576040517f08c379a000000000000000000000000000000000000000000000000000000000815260040161063b9061286c565b60405180910390fd5b5f60095f3373ffffffffffffffffffffffffffffffffffffffff1673ffffffffffffffffffffffffffffffffffffffff1681526020019081526020015f206002015490505f60095f3373ffffffffffffffffffffffffffffffffffffffff1673ffffffffffffffffffffffffffffffffffffffff1681526020019081526020015f20600201819055508060075f8282546106de919061288a565b925050819055503373ffffffffffffffffffffffffffffffffffffffff166108fc8290811502906040515f60405180830381858888f19350505050158015610728573d5f803e3d5ffd5b5050565b60605f8290505f600b80549050905080821115610747578091505b5f8267ffffffffffffffff811115610762576107616128bd565b5b60405190808252806020026020018201604052801561079b57816020015b610788612208565b8152602001906001900390816107805790505b5090505f5b838110156108b457600b816001856107b8919061288a565b6107c2919061288a565b815481106107d3576107d26127f5565b5b905f5260205f2090600302016040518060800160405290815f82015f9054906101000a900463ffffffff1663ffffffff1663ffffffff1681526020015f820160049054906101000a900460ff1660ff1660ff16815260200160018201548152602001600282015f9054906101000a900473ffffffffffffffffffffffffffffffffffffffff1673ffffffffffffffffffffffffffffffffffffffff1673ffffffffffffffffffffffffffffffffffffffff168152505082828151811061089c5761089b6127f5565b5b602002602001018190525080806001019150506107a0565b50809350505050919050565b670de0b6b3a764000034101580156108e15750683635c9adc5dea000003411155b610920576040517f08c379a00000000000000000000000000000000000000000000000000000000081526004016109179061295a565b60405180910390fd5b69021e19e0c9bab2400000610951476001546007546005546109429190612765565b61094c9190612765565b611fa3565b111561095b575f80fd5b3460045f82825461096c9190612765565b925050819055503460035f3373ffffffffffffffffffffffffffffffffffffffff1673ffffffffffffffffffffffffffffffffffffffff1681526020019081526020015f205f015f8282546109c19190612765565b925050819055504260035f3373ffffffffffffffffffffffffffffffffffffffff1673ffffffffffffffffffffffffffffffffffffffff1681526020019081526020015f206001018190555060035f3373ffffffffffffffffffffffffffffffffffffffff1673ffffffffffffffffffffffffffffffffffffffff1681526020019081526020015f206002015f9054906101000a900460ff16610b1757600160035f3373ffffffffffffffffffffffffffffffffffffffff1673ffffffffffffffffffffffffffffffffffffffff1681526020019081526020015f206002015f6101000a81548160ff021916908315150217905550600233908060018154018082558091505060019003905f5260205f20015f9091909190916101000a81548173ffffffffffffffffffffffffffffffffffffffff021916908373ffffffffffffffffffffffffffffffffffffffff1602179055505b565b5f60095f3373ffffffffffffffffffffffffffffffffffffffff1673ffffffffffffffffffffffffffffffffffffffff1681526020019081526020015f205f018054905011610b9d576040517f08c379a0000000000000000000000000000000000000000000000000000000008152600401610b94906129e8565b60405180910390fd5b60095f3373ffffffffffffffffffffffffffffffffffffffff1673ffffffffffffffffffffffffffffffffffffffff1681526020019081526020015f205f01600160095f3373ffffffffffffffffffffffffffffffffffffffff1673ffffffffffffffffffffffffffffffffffffffff1681526020019081526020015f205f0180549050610c2b919061288a565b81548110610c3c57610c3b6127f5565b5b905f5260205f20906002020160010160019054906101000a90047effffffffffffffffffffffffffffffffffffffffffffffffffffffffffffff167effffffffffffffffffffffffffffffffffffffffffffffffffffffffffffff164311610cd9576040517f08c379a0000000000000000000000000000000000000000000000000000000008152600401610cd090612a50565b60405180910390fd5b5f60095f3373ffffffffffffffffffffffffffffffffffffffff1673ffffffffffffffffffffffffffffffffffffffff1681526020019081526020015f20600101805490501115610d705760095f3373ffffffffffffffffffffffffffffffffffffffff1673ffffffffffffffffffffffffffffffffffffffff1681526020019081526020015f206001015f610d6f919061224b565b5b5f805f90505b60095f3373ffffffffffffffffffffffffffffffffffffffff1673ffffffffffffffffffffffffffffffffffffffff1681526020019081526020015f205f018054905081101561132b575f60095f3373ffffffffffffffffffffffffffffffffffffffff1673ffffffffffffffffffffffffffffffffffffffff1681526020019081526020015f205f018281548110610e1257610e116127f5565b5b905f5260205f20906002020160010160019054906101000a90047effffffffffffffffffffffffffffffffffffffffffffffffffffffffffffff167effffffffffffffffffffffffffffffffffffffffffffffffffffffffffffff16405f1c031561131e575f60095f3373ffffffffffffffffffffffffffffffffffffffff1673ffffffffffffffffffffffffffffffffffffffff1681526020019081526020015f205f018281548110610ec957610ec86127f5565b5b905f5260205f2090600202015f015460095f3373ffffffffffffffffffffffffffffffffffffffff1673ffffffffffffffffffffffffffffffffffffffff1681526020019081526020015f205f018381548110610f2957610f286127f5565b5b905f5260205f20906002020160010160019054906101000a90047effffffffffffffffffffffffffffffffffffffffffffffffffffffffffffff167effffffffffffffffffffffffffffffffffffffffffffffffffffffffffffff1640604051602001610f97929190612a97565b6040516020818303038152906040528051906020012060e01c90505f610fbc82612038565b90505f8111156111e4575f66470de4df82000060095f3373ffffffffffffffffffffffffffffffffffffffff1673ffffffffffffffffffffffffffffffffffffffff1681526020019081526020015f205f0185815481106110205761101f6127f5565b5b905f5260205f2090600202016001015f9054906101000a900460ff1660ff166110488461213b565b6110529190612ac2565b61105c9190612ac2565b9050808561106a9190612765565b94505f60405180608001604052808563ffffffff16815260200160095f3373ffffffffffffffffffffffffffffffffffffffff1673ffffffffffffffffffffffffffffffffffffffff1681526020019081526020015f205f0187815481106110d5576110d46127f5565b5b905f5260205f2090600202016001015f9054906101000a900460ff1660ff1681526020014264ffffffffff1681526020013373ffffffffffffffffffffffffffffffffffffffff168152509050600b81908060018154018082558091505060019003905f5260205f2090600302015f909190919091505f820151815f015f6101000a81548163ffffffff021916908363ffffffff1602179055506020820151815f0160046101000a81548160ff021916908360ff160217905550604082015181600101556060820151816002015f6101000a81548173ffffffffffffffffffffffffffffffffffffffff021916908373ffffffffffffffffffffffffffffffffffffffff160217905550505050505b5f60405180604001604052808463ffffffff16815260200160095f3373ffffffffffffffffffffffffffffffffffffffff1673ffffffffffffffffffffffffffffffffffffffff1681526020019081526020015f205f01868154811061124d5761124c6127f5565b5b905f5260205f2090600202016001015f9054906101000a900460ff1660ff16815250905060095f3373ffffffffffffffffffffffffffffffffffffffff1673ffffffffffffffffffffffffffffffffffffffff1681526020019081526020015f2060010181908060018154018082558091505060019003905f5260205f20015f909190919091505f820151815f015f6101000a81548163ffffffff021916908363ffffffff1602179055506020820151815f0160046101000a81548160ff021916908360ff16021790555050505050505b8080600101915050610d76565b5060095f3373ffffffffffffffffffffffffffffffffffffffff1673ffffffffffffffffffffffffffffffffffffffff1681526020019081526020015f205f015f6113769190612269565b5f81111561146d575f6113b96113b26113ab4760015460075460055461139c9190612765565b6113a69190612765565b611fa3565b6046611fc9565b606461200e565b9050808211156113c7578091505b5f6113dd6113d6846005611fc9565b606461200e565b90508060055f8282546113f09190612765565b925050819055508060015f8282546114089190612765565b925050819055503373ffffffffffffffffffffffffffffffffffffffff166108fc6002836114369190612ac2565b85611441919061288a565b90811502906040515f60405180830381858888f19350505050158015611469573d5f803e3d5ffd5b5050505b50565b5f8054906101000a900473ffffffffffffffffffffffffffffffffffffffff1681565b60045481565b60065481565b66470de4df8200003410156114e9576040517f08c379a00000000000000000000000000000000000000000000000000000000081526004016114e090612b4d565b60405180910390fd5b60018360ff1610158015611501575060648360ff1611155b611540576040517f08c379a000000000000000000000000000000000000000000000000000000000815260040161153790612bb5565b60405180910390fd5b60018461ffff161015801561155b57506103e88461ffff1611155b61159a576040517f08c379a000000000000000000000000000000000000000000000000000000000815260040161159190612c1d565b60405180910390fd5b5f6115ac3466470de4df82000061200e565b90508360ff16856115bd9190612c3b565b61ffff168114611602576040517f08c379a00000000000000000000000000000000000000000000000000000000081526004016115f990612cc1565b60405180910390fd5b5f5b8561ffff16811015611785575f6040518060600160405280424133898061162a90612cdf565b9a5060405160200161163f9493929190612df5565b6040516020818303038152906040528051906020012081526020018760ff168152602001437effffffffffffffffffffffffffffffffffffffffffffffffffffffffffffff16815250905060095f3373ffffffffffffffffffffffffffffffffffffffff1673ffffffffffffffffffffffffffffffffffffffff1681526020019081526020015f205f0181908060018154018082558091505060019003905f5260205f2090600202015f909190919091505f820151815f01556020820151816001015f6101000a81548160ff021916908360ff16021790555060408201518160010160016101000a8154817effffffffffffffffffffffffffffffffffffffffffffffffffffffffffffff02191690837effffffffffffffffffffffffffffffffffffffffffffffffffffffffffffff1602179055505050508080600101915050611604565b5060095f3373ffffffffffffffffffffffffffffffffffffffff1673ffffffffffffffffffffffffffffffffffffffff1681526020019081526020015f206003015f9054906101000a900460ff1661183057600160095f3373ffffffffffffffffffffffffffffffffffffffff1673ffffffffffffffffffffffffffffffffffffffff1681526020019081526020015f206003015f6101000a81548160ff0219169083151502179055505b5f61184661183f346003611fc9565b606461200e565b90505f61185e611857346004611fc9565b606461200e565b90508160015f8282546118719190612765565b925050819055508160055f8282546118899190612765565b925050819055505f73ffffffffffffffffffffffffffffffffffffffff16600a5f3373ffffffffffffffffffffffffffffffffffffffff1673ffffffffffffffffffffffffffffffffffffffff1681526020019081526020015f205f9054906101000a900473ffffffffffffffffffffffffffffffffffffffff1673ffffffffffffffffffffffffffffffffffffffff1603611c1a573373ffffffffffffffffffffffffffffffffffffffff168473ffffffffffffffffffffffffffffffffffffffff16148061198457505f73ffffffffffffffffffffffffffffffffffffffff168473ffffffffffffffffffffffffffffffffffffffff16145b806119d9575060095f3373ffffffffffffffffffffffffffffffffffffffff1673ffffffffffffffffffffffffffffffffffffffff1681526020019081526020015f206003015f9054906101000a900460ff16155b15611a01575f8054906101000a900473ffffffffffffffffffffffffffffffffffffffff1693505b83600a5f3373ffffffffffffffffffffffffffffffffffffffff1673ffffffffffffffffffffffffffffffffffffffff1681526020019081526020015f205f6101000a81548173ffffffffffffffffffffffffffffffffffffffff021916908373ffffffffffffffffffffffffffffffffffffffff1602179055505f8054906101000a900473ffffffffffffffffffffffffffffffffffffffff1673ffffffffffffffffffffffffffffffffffffffff16600a5f3373ffffffffffffffffffffffffffffffffffffffff1673ffffffffffffffffffffffffffffffffffffffff1681526020019081526020015f205f9054906101000a900473ffffffffffffffffffffffffffffffffffffffff1673ffffffffffffffffffffffffffffffffffffffff1603611b47578060015f828254611b3b9190612765565b92505081905550611c12565b8060095f600a5f3373ffffffffffffffffffffffffffffffffffffffff1673ffffffffffffffffffffffffffffffffffffffff1681526020019081526020015f205f9054906101000a900473ffffffffffffffffffffffffffffffffffffffff1673ffffffffffffffffffffffffffffffffffffffff1673ffffffffffffffffffffffffffffffffffffffff1681526020019081526020015f206002015f828254611bf29190612765565b925050819055508060075f828254611c0a9190612765565b925050819055505b426008819055505b50505050505050565b60055481565b670de0b6b3a7640000811015611c74576040517f08c379a0000000000000000000000000000000000000000000000000000000008152600401611c6b90612ed8565b60405180910390fd5b60035f3373ffffffffffffffffffffffffffffffffffffffff1673ffffffffffffffffffffffffffffffffffffffff1681526020019081526020015f205f0154811115611cf6576040517f08c379a0000000000000000000000000000000000000000000000000000000008152600401611ced90612f40565b60405180910390fd5b62093a8060035f3373ffffffffffffffffffffffffffffffffffffffff1673ffffffffffffffffffffffffffffffffffffffff1681526020019081526020015f2060010154611d459190612765565b421015611d87576040517f08c379a0000000000000000000000000000000000000000000000000000000008152600401611d7e90612fa8565b60405180910390fd5b80611dae47600154600754600554611d9f9190612765565b611da99190612765565b611fa3565b1015611def576040517f08c379a0000000000000000000000000000000000000000000000000000000008152600401611de690613010565b60405180910390fd5b8060035f3373ffffffffffffffffffffffffffffffffffffffff1673ffffffffffffffffffffffffffffffffffffffff1681526020019081526020015f205f015f828254611e3d919061288a565b925050819055508060045f828254611e55919061288a565b925050819055503373ffffffffffffffffffffffffffffffffffffffff166108fc8290811502906040515f60405180830381858888f19350505050158015611e9f573d5f803e3d5ffd5b5050565b5f8054906101000a900473ffffffffffffffffffffffffffffffffffffffff1673ffffffffffffffffffffffffffffffffffffffff163373ffffffffffffffffffffffffffffffffffffffff1614611f30576040517f08c379a0000000000000000000000000000000000000000000000000000000008152600401611f2790613078565b60405180910390fd5b5f60015490505f6001819055505f8054906101000a900473ffffffffffffffffffffffffffffffffffffffff1673ffffffffffffffffffffffffffffffffffffffff166108fc8290811502906040515f60405180830381858888f19350505050158015611f9f573d5f803e3d5ffd5b5050565b5f82821115611fb557611fb4613096565b5b8183611fc1919061288a565b905092915050565b5f808303611fd9575f9050612008565b5f8284611fe69190612ac2565b9050828482611ff591906127c5565b1461200357612002613096565b5b809150505b92915050565b5f80821161201f5761201e613096565b5b5f828461202c91906127c5565b90508091505092915050565b5f63040000008263ffffffff161115612053575f9050612136565b63010000008263ffffffff161061206d57600a9050612136565b624000008263ffffffff16106120865760099050612136565b621000008263ffffffff161061209f5760089050612136565b620400008263ffffffff16106120b85760079050612136565b620100008263ffffffff16106120d15760069050612136565b6140008263ffffffff16106120e95760059050612136565b6110008263ffffffff16106121015760049050612136565b6104008263ffffffff16106121195760039050612136565b6101008263ffffffff16106121315760029050612136565b600190505b919050565b5f80820361214b575f9050612203565b600a820361215c5760059050612203565b6009820361216d5760149050612203565b6008820361217e5760509050612203565b60078203612190576101409050612203565b600682036121a2576104b09050612203565b600582036121b4576112c09050612203565b600482036121c657614e209050612203565b600382036121d957620186a09050612203565b600282036121ec576207a1209050612203565b600182036121ff57621e84809050612203565b5f90505b919050565b60405180608001604052805f63ffffffff1681526020015f60ff1681526020015f81526020015f73ffffffffffffffffffffffffffffffffffffffff1681525090565b5080545f8255905f5260205f2090810190612266919061228a565b50565b5080545f8255600202905f5260205f209081019061228791906122c9565b50565b5b808211156122c5575f8082015f6101000a81549063ffffffff02191690555f820160046101000a81549060ff02191690555060010161228b565b5090565b5b80821115612327575f8082015f9055600182015f6101000a81549060ff02191690556001820160016101000a8154907effffffffffffffffffffffffffffffffffffffffffffffffffffffffffffff0219169055506002016122ca565b5090565b5f80fd5b5f819050919050565b6123418161232f565b811461234b575f80fd5b50565b5f8135905061235c81612338565b92915050565b5f602082840312156123775761237661232b565b5b5f6123848482850161234e565b91505092915050565b5f81519050919050565b5f82825260208201905092915050565b5f819050602082019050919050565b5f63ffffffff82169050919050565b6123ce816123b6565b82525050565b5f60ff82169050919050565b6123e9816123d4565b82525050565b6123f88161232f565b82525050565b5f73ffffffffffffffffffffffffffffffffffffffff82169050919050565b5f612427826123fe565b9050919050565b6124378161241d565b82525050565b608082015f8201516124515f8501826123c5565b50602082015161246460208501826123e0565b50604082015161247760408501826123ef565b50606082015161248a606085018261242e565b50505050565b5f61249b838361243d565b60808301905092915050565b5f602082019050919050565b5f6124bd8261238d565b6124c78185612397565b93506124d2836123a7565b805f5b838110156125025781516124e98882612490565b97506124f4836124a7565b9250506001810190506124d5565b5085935050505092915050565b5f6020820190508181035f83015261252781846124b3565b905092915050565b6125388161241d565b82525050565b5f6020820190506125515f83018461252f565b92915050565b6125608161232f565b82525050565b5f6020820190506125795f830184612557565b92915050565b5f61ffff82169050919050565b6125958161257f565b811461259f575f80fd5b50565b5f813590506125b08161258c565b92915050565b6125bf816123d4565b81146125c9575f80fd5b50565b5f813590506125da816125b6565b92915050565b5f7cffffffffffffffffffffffffffffffffffffffffffffffffffffffffff82169050919050565b612611816125e0565b811461261b575f80fd5b50565b5f8135905061262c81612608565b92915050565b61263b8161241d565b8114612645575f80fd5b50565b5f8135905061265681612632565b92915050565b5f805f80608085870312156126745761267361232b565b5b5f612681878288016125a2565b9450506020612692878288016125cc565b93505060406126a38782880161261e565b92505060606126b487828801612648565b91505092959194509250565b5f82825260208201905092915050565b7f596f75206d757374206265206120696e766573746f72000000000000000000005f82015250565b5f6127046016836126c0565b915061270f826126d0565b602082019050919050565b5f6020820190508181035f830152612731816126f8565b9050919050565b7f4e487b71000000000000000000000000000000000000000000000000000000005f52601160045260245ffd5b5f61276f8261232f565b915061277a8361232f565b925082820190508082111561279257612791612738565b5b92915050565b7f4e487b71000000000000000000000000000000000000000000000000000000005f52601260045260245ffd5b5f6127cf8261232f565b91506127da8361232f565b9250826127ea576127e9612798565b5b828204905092915050565b7f4e487b71000000000000000000000000000000000000000000000000000000005f52603260045260245ffd5b7f4e6f7420656e6f7567682070726f66697420746f2077697468647261772100005f82015250565b5f612856601e836126c0565b915061286182612822565b602082019050919050565b5f6020820190508181035f8301526128838161284a565b9050919050565b5f6128948261232f565b915061289f8361232f565b92508282039050818111156128b7576128b6612738565b5b92915050565b7f4e487b71000000000000000000000000000000000000000000000000000000005f52604160045260245ffd5b7f496e766573746d656e7420616d6f756e7420626574657765656e203120616e645f8201527f2031303030000000000000000000000000000000000000000000000000000000602082015250565b5f6129446025836126c0565b915061294f826128ea565b604082019050919050565b5f6020820190508181035f83015261297181612938565b9050919050565b7f596f7520646f6e2774206861766520756e64726177206c6f74746572792074695f8201527f636b657473000000000000000000000000000000000000000000000000000000602082015250565b5f6129d26025836126c0565b91506129dd82612978565b604082019050919050565b5f6020820190508181035f8301526129ff816129c6565b9050919050565b7f49742773206e6f742074696d65000000000000000000000000000000000000005f82015250565b5f612a3a600d836126c0565b9150612a4582612a06565b602082019050919050565b5f6020820190508181035f830152612a6781612a2e565b9050919050565b5f819050919050565b5f819050919050565b612a91612a8c82612a6e565b612a77565b82525050565b5f612aa28285612a80565b602082019150612ab28284612a80565b6020820191508190509392505050565b5f612acc8261232f565b9150612ad78361232f565b9250828202612ae58161232f565b91508282048414831517612afc57612afb612738565b5b5092915050565b7f427579206174206c65617374206f6e65206567670000000000000000000000005f82015250565b5f612b376014836126c0565b9150612b4282612b03565b602082019050919050565b5f6020820190508181035f830152612b6481612b2b565b9050919050565b7f4d756c7469706c6573206265747765656e203120616e642031303000000000005f82015250565b5f612b9f601b836126c0565b9150612baa82612b6b565b602082019050919050565b5f6020820190508181035f830152612bcc81612b93565b9050919050565b7f4e756d626572206f662065676773206265747765656e203120616e64203130305f82015250565b5f612c076020836126c0565b9150612c1282612bd3565b602082019050919050565b5f6020820190508181035f830152612c3481612bfb565b9050919050565b5f612c458261257f565b9150612c508361257f565b9250828202612c5e8161257f565b9150808214612c7057612c6f612738565b5b5092915050565b7f496e76616c6964206461746100000000000000000000000000000000000000005f82015250565b5f612cab600c836126c0565b9150612cb682612c77565b602082019050919050565b5f6020820190508181035f830152612cd881612c9f565b9050919050565b5f612ce9826125e0565b91507cffffffffffffffffffffffffffffffffffffffffffffffffffffffffff8203612d1857612d17612738565b5b600182019050919050565b5f819050919050565b612d3d612d388261232f565b612d23565b82525050565b5f612d4d826123fe565b9050919050565b5f8160601b9050919050565b5f612d6a82612d54565b9050919050565b5f612d7b82612d60565b9050919050565b612d93612d8e82612d43565b612d71565b82525050565b5f612da382612d60565b9050919050565b612dbb612db68261241d565b612d99565b82525050565b5f8160181b9050919050565b5f612dd782612dc1565b9050919050565b612def612dea826125e0565b612dcd565b82525050565b5f612e008287612d2c565b602082019150612e108286612d82565b601482019150612e208285612daa565b601482019150612e308284612dde565b601d8201915081905095945050505050565b7f4d696e696d756d20696e766573746d656e7420616d6f756e74206973207265715f8201527f75697265642c6974277320736d616c6c6572207468616e20746865206d696e6960208201527f6d756d206465706f736974000000000000000000000000000000000000000000604082015250565b5f612ec2604b836126c0565b9150612ecd82612e42565b606082019050919050565b5f6020820190508181035f830152612eef81612eb6565b9050919050565b7f4e6f7420656e6f7567682066756e6420746f20776974686472617721000000005f82015250565b5f612f2a601c836126c0565b9150612f3582612ef6565b602082019050919050565b5f6020820190508181035f830152612f5781612f1e565b9050919050565b7f43616e6e6f74207769746864726177206166746572206f6e65207765656b21005f82015250565b5f612f92601f836126c0565b9150612f9d82612f5e565b602082019050919050565b5f6020820190508181035f830152612fbf81612f86565b9050919050565b7f496e73756666696369656e742066756e6420746f2077697468647261772100005f82015250565b5f612ffa601e836126c0565b915061300582612fc6565b602082019050919050565b5f6020820190508181035f83015261302781612fee565b9050919050565b7f596f75206d7573742062652074686520646576656c6f706572000000000000005f82015250565b5f6130626019836126c0565b915061306d8261302e565b602082019050919050565b5f6020820190508181035f83015261308f81613056565b9050919050565b7f4e487b71000000000000000000000000000000000000000000000000000000005f52600160045260245ffdfea2646970667358221220751d18f40d59c756396c0aebb7ee752de71af41bc95608a2dab7d710cbe07cc464736f6c634300081a0033",
			"opcodes": "PUSH1 0x80 PUSH1 0x40 MSTORE CALLVALUE DUP1 ISZERO PUSH1 0xE JUMPI PUSH0 DUP1 REVERT JUMPDEST POP CALLER PUSH0 DUP1 PUSH2 0x100 EXP DUP2 SLOAD DUP2 PUSH20 0xFFFFFFFFFFFFFFFFFFFFFFFFFFFFFFFFFFFFFFFF MUL NOT AND SWAP1 DUP4 PUSH20 0xFFFFFFFFFFFFFFFFFFFFFFFFFFFFFFFFFFFFFFFF AND MUL OR SWAP1 SSTORE POP TIMESTAMP PUSH1 0x6 DUP2 SWAP1 SSTORE POP TIMESTAMP PUSH1 0x8 DUP2 SWAP1 SSTORE POP PUSH2 0x30F9 DUP1 PUSH2 0x69 PUSH0 CODECOPY PUSH0 RETURN INVALID PUSH1 0x80 PUSH1 0x40 MSTORE PUSH1 0x4 CALLDATASIZE LT PUSH2 0xA6 JUMPI PUSH0 CALLDATALOAD PUSH1 0xE0 SHR DUP1 PUSH4 0xA659F4DC GT PUSH2 0x63 JUMPI DUP1 PUSH4 0xA659F4DC EQ PUSH2 0x15C JUMPI DUP1 PUSH4 0xB1C617FF EQ PUSH2 0x186 JUMPI DUP1 PUSH4 0xC9EA0299 EQ PUSH2 0x1B0 JUMPI DUP1 PUSH4 0xCA6AAE29 EQ PUSH2 0x1CC JUMPI DUP1 PUSH4 0xDD5F6F4D EQ PUSH2 0x1F6 JUMPI DUP1 PUSH4 0xF4E79B5B EQ PUSH2 0x21E JUMPI PUSH2 0xA6 JUMP JUMPDEST DUP1 PUSH4 0x12DB1357 EQ PUSH2 0xAA JUMPI DUP1 PUSH4 0x22629256 EQ PUSH2 0xC0 JUMPI DUP1 PUSH4 0x2B5BACA1 EQ PUSH2 0xD6 JUMPI DUP1 PUSH4 0x49821332 EQ PUSH2 0x112 JUMPI DUP1 PUSH4 0x7DA384FD EQ PUSH2 0x11C JUMPI DUP1 PUSH4 0x89A4C1A0 EQ PUSH2 0x132 JUMPI JUMPDEST PUSH0 DUP1 REVERT JUMPDEST CALLVALUE DUP1 ISZERO PUSH2 0xB5 JUMPI PUSH0 DUP1 REVERT JUMPDEST POP PUSH2 0xBE PUSH2 0x234 JUMP JUMPDEST STOP JUMPDEST CALLVALUE DUP1 ISZERO PUSH2 0xCB JUMPI PUSH0 DUP1 REVERT JUMPDEST POP PUSH2 0xD4 PUSH2 0x5BA JUMP JUMPDEST STOP JUMPDEST CALLVALUE DUP1 ISZERO PUSH2 0xE1 JUMPI PUSH0 DUP1 REVERT JUMPDEST POP PUSH2 0xFC PUSH1 0x4 DUP1 CALLDATASIZE SUB DUP2 ADD SWAP1 PUSH2 0xF7 SWAP2 SWAP1 PUSH2 0x2362 JUMP JUMPDEST PUSH2 0x72C JUMP JUMPDEST PUSH1 0x40 MLOAD PUSH2 0x109 SWAP2 SWAP1 PUSH2 0x250F JUMP JUMPDEST PUSH1 0x40 MLOAD DUP1 SWAP2 SUB SWAP1 RETURN JUMPDEST PUSH2 0x11A PUSH2 0x8C0 JUMP JUMPDEST STOP JUMPDEST CALLVALUE DUP1 ISZERO PUSH2 0x127 JUMPI PUSH0 DUP1 REVERT JUMPDEST POP PUSH2 0x130 PUSH2 0xB19 JUMP JUMPDEST STOP JUMPDEST CALLVALUE DUP1 ISZERO PUSH2 0x13D JUMPI PUSH0 DUP1 REVERT JUMPDEST POP PUSH2 0x146 PUSH2 0x1470 JUMP JUMPDEST PUSH1 0x40 MLOAD PUSH2 0x153 SWAP2 SWAP1 PUSH2 0x253E JUMP JUMPDEST PUSH1 0x40 MLOAD DUP1 SWAP2 SUB SWAP1 RETURN JUMPDEST CALLVALUE DUP1 ISZERO PUSH2 0x167 JUMPI PUSH0 DUP1 REVERT JUMPDEST POP PUSH2 0x170 PUSH2 0x1493 JUMP JUMPDEST PUSH1 0x40 MLOAD PUSH2 0x17D SWAP2 SWAP1 PUSH2 0x2566 JUMP JUMPDEST PUSH1 0x40 MLOAD DUP1 SWAP2 SUB SWAP1 RETURN JUMPDEST CALLVALUE DUP1 ISZERO PUSH2 0x191 JUMPI PUSH0 DUP1 REVERT JUMPDEST POP PUSH2 0x19A PUSH2 0x1499 JUMP JUMPDEST PUSH1 0x40 MLOAD PUSH2 0x1A7 SWAP2 SWAP1 PUSH2 0x2566 JUMP JUMPDEST PUSH1 0x40 MLOAD DUP1 SWAP2 SUB SWAP1 RETURN JUMPDEST PUSH2 0x1CA PUSH1 0x4 DUP1 CALLDATASIZE SUB DUP2 ADD SWAP1 PUSH2 0x1C5 SWAP2 SWAP1 PUSH2 0x265C JUMP JUMPDEST PUSH2 0x149F JUMP JUMPDEST STOP JUMPDEST CALLVALUE DUP1 ISZERO PUSH2 0x1D7 JUMPI PUSH0 DUP1 REVERT JUMPDEST POP PUSH2 0x1E0 PUSH2 0x1C23 JUMP JUMPDEST PUSH1 0x40 MLOAD PUSH2 0x1ED SWAP2 SWAP1 PUSH2 0x2566 JUMP JUMPDEST PUSH1 0x40 MLOAD DUP1 SWAP2 SUB SWAP1 RETURN JUMPDEST CALLVALUE DUP1 ISZERO PUSH2 0x201 JUMPI PUSH0 DUP1 REVERT JUMPDEST POP PUSH2 0x21C PUSH1 0x4 DUP1 CALLDATASIZE SUB DUP2 ADD SWAP1 PUSH2 0x217 SWAP2 SWAP1 PUSH2 0x2362 JUMP JUMPDEST PUSH2 0x1C29 JUMP JUMPDEST STOP JUMPDEST CALLVALUE DUP1 ISZERO PUSH2 0x229 JUMPI PUSH0 DUP1 REVERT JUMPDEST POP PUSH2 0x232 PUSH2 0x1EA3 JUMP JUMPDEST STOP JUMPDEST PUSH8 0xDE0B6B3A7640000 PUSH1 0x3 PUSH0 CALLER PUSH20 0xFFFFFFFFFFFFFFFFFFFFFFFFFFFFFFFFFFFFFFFF AND PUSH20 0xFFFFFFFFFFFFFFFFFFFFFFFFFFFFFFFFFFFFFFFF AND DUP2 MSTORE PUSH1 0x20 ADD SWAP1 DUP2 MSTORE PUSH1 0x20 ADD PUSH0 KECCAK256 PUSH0 ADD SLOAD LT ISZERO DUP1 PUSH2 0x2D4 JUMPI POP PUSH0 DUP1 SLOAD SWAP1 PUSH2 0x100 EXP SWAP1 DIV PUSH20 0xFFFFFFFFFFFFFFFFFFFFFFFFFFFFFFFFFFFFFFFF AND PUSH20 0xFFFFFFFFFFFFFFFFFFFFFFFFFFFFFFFFFFFFFFFF AND CALLER PUSH20 0xFFFFFFFFFFFFFFFFFFFFFFFFFFFFFFFFFFFFFFFF AND EQ JUMPDEST PUSH2 0x313 JUMPI PUSH1 0x40 MLOAD PUSH32 0x8C379A000000000000000000000000000000000000000000000000000000000 DUP2 MSTORE PUSH1 0x4 ADD PUSH2 0x30A SWAP1 PUSH2 0x271A JUMP JUMPDEST PUSH1 0x40 MLOAD DUP1 SWAP2 SUB SWAP1 REVERT JUMPDEST PUSH0 PUSH1 0x5 SLOAD SWAP1 POP PUSH0 DUP1 PUSH2 0x341 SELFBALANCE PUSH1 0x1 SLOAD PUSH1 0x7 SLOAD PUSH1 0x5 SLOAD PUSH2 0x332 SWAP2 SWAP1 PUSH2 0x2765 JUMP JUMPDEST PUSH2 0x33C SWAP2 SWAP1 PUSH2 0x2765 JUMP JUMPDEST PUSH2 0x1FA3 JUMP JUMPDEST SWAP1 POP PUSH10 0x21E19E0C9BAB2400000 DUP2 LT PUSH2 0x389 JUMPI PUSH1 0xC8 DUP2 PUSH2 0x361 SWAP2 SWAP1 PUSH2 0x27C5 JUMP JUMPDEST DUP4 PUSH2 0x36C SWAP2 SWAP1 PUSH2 0x2765 JUMP JUMPDEST SWAP3 POP PUSH1 0xC8 DUP2 PUSH2 0x37B SWAP2 SWAP1 PUSH2 0x27C5 JUMP JUMPDEST DUP3 PUSH2 0x386 SWAP2 SWAP1 PUSH2 0x2765 JUMP JUMPDEST SWAP2 POP JUMPDEST PUSH0 PUSH1 0x5 DUP2 SWAP1 SSTORE POP PUSH0 JUMPDEST PUSH1 0x2 DUP1 SLOAD SWAP1 POP DUP2 LT ISZERO PUSH2 0x548 JUMPI PUSH8 0xDE0B6B3A7640000 PUSH1 0x3 PUSH0 PUSH1 0x2 DUP5 DUP2 SLOAD DUP2 LT PUSH2 0x3BF JUMPI PUSH2 0x3BE PUSH2 0x27F5 JUMP JUMPDEST JUMPDEST SWAP1 PUSH0 MSTORE PUSH1 0x20 PUSH0 KECCAK256 ADD PUSH0 SWAP1 SLOAD SWAP1 PUSH2 0x100 EXP SWAP1 DIV PUSH20 0xFFFFFFFFFFFFFFFFFFFFFFFFFFFFFFFFFFFFFFFF AND PUSH20 0xFFFFFFFFFFFFFFFFFFFFFFFFFFFFFFFFFFFFFFFF AND PUSH20 0xFFFFFFFFFFFFFFFFFFFFFFFFFFFFFFFFFFFFFFFF AND DUP2 MSTORE PUSH1 0x20 ADD SWAP1 DUP2 MSTORE PUSH1 0x20 ADD PUSH0 KECCAK256 PUSH0 ADD SLOAD LT PUSH2 0x53B JUMPI PUSH0 PUSH2 0x4B8 PUSH2 0x4B0 PUSH1 0x3 PUSH0 PUSH1 0x2 DUP7 DUP2 SLOAD DUP2 LT PUSH2 0x446 JUMPI PUSH2 0x445 PUSH2 0x27F5 JUMP JUMPDEST JUMPDEST SWAP1 PUSH0 MSTORE PUSH1 0x20 PUSH0 KECCAK256 ADD PUSH0 SWAP1 SLOAD SWAP1 PUSH2 0x100 EXP SWAP1 DIV PUSH20 0xFFFFFFFFFFFFFFFFFFFFFFFFFFFFFFFFFFFFFFFF AND PUSH20 0xFFFFFFFFFFFFFFFFFFFFFFFFFFFFFFFFFFFFFFFF AND PUSH20 0xFFFFFFFFFFFFFFFFFFFFFFFFFFFFFFFFFFFFFFFF AND DUP2 MSTORE PUSH1 0x20 ADD SWAP1 DUP2 MSTORE PUSH1 0x20 ADD PUSH0 KECCAK256 PUSH0 ADD SLOAD DUP8 PUSH2 0x1FC9 JUMP JUMPDEST PUSH1 0x4 SLOAD PUSH2 0x200E JUMP JUMPDEST SWAP1 POP PUSH1 0x2 DUP3 DUP2 SLOAD DUP2 LT PUSH2 0x4CE JUMPI PUSH2 0x4CD PUSH2 0x27F5 JUMP JUMPDEST JUMPDEST SWAP1 PUSH0 MSTORE PUSH1 0x20 PUSH0 KECCAK256 ADD PUSH0 SWAP1 SLOAD SWAP1 PUSH2 0x100 EXP SWAP1 DIV PUSH20 0xFFFFFFFFFFFFFFFFFFFFFFFFFFFFFFFFFFFFFFFF AND PUSH20 0xFFFFFFFFFFFFFFFFFFFFFFFFFFFFFFFFFFFFFFFF AND PUSH2 0x8FC DUP3 SWAP1 DUP2 ISZERO MUL SWAP1 PUSH1 0x40 MLOAD PUSH0 PUSH1 0x40 MLOAD DUP1 DUP4 SUB DUP2 DUP6 DUP9 DUP9 CALL SWAP4 POP POP POP POP ISZERO DUP1 ISZERO PUSH2 0x538 JUMPI RETURNDATASIZE PUSH0 DUP1 RETURNDATACOPY RETURNDATASIZE PUSH0 REVERT JUMPDEST POP POP JUMPDEST DUP1 DUP1 PUSH1 0x1 ADD SWAP2 POP POP PUSH2 0x392 JUMP JUMPDEST POP PUSH0 DUP3 GT ISZERO PUSH2 0x5B5 JUMPI PUSH0 DUP1 SLOAD SWAP1 PUSH2 0x100 EXP SWAP1 DIV PUSH20 0xFFFFFFFFFFFFFFFFFFFFFFFFFFFFFFFFFFFFFFFF AND PUSH20 0xFFFFFFFFFFFFFFFFFFFFFFFFFFFFFFFFFFFFFFFF AND PUSH2 0x8FC DUP4 SWAP1 DUP2 ISZERO MUL SWAP1 PUSH1 0x40 MLOAD PUSH0 PUSH1 0x40 MLOAD DUP1 DUP4 SUB DUP2 DUP6 DUP9 DUP9 CALL SWAP4 POP POP POP POP ISZERO DUP1 ISZERO PUSH2 0x5B3 JUMPI RETURNDATASIZE PUSH0 DUP1 RETURNDATACOPY RETURNDATASIZE PUSH0 REVERT JUMPDEST POP JUMPDEST POP POP POP JUMP JUMPDEST PUSH7 0x2386F26FC10000 PUSH1 0x9 PUSH0 CALLER PUSH20 0xFFFFFFFFFFFFFFFFFFFFFFFFFFFFFFFFFFFFFFFF AND PUSH20 0xFFFFFFFFFFFFFFFFFFFFFFFFFFFFFFFFFFFFFFFF AND DUP2 MSTORE PUSH1 0x20 ADD SWAP1 DUP2 MSTORE PUSH1 0x20 ADD PUSH0 KECCAK256 PUSH1 0x2 ADD SLOAD LT ISZERO PUSH2 0x644 JUMPI PUSH1 0x40 MLOAD PUSH32 0x8C379A000000000000000000000000000000000000000000000000000000000 DUP2 MSTORE PUSH1 0x4 ADD PUSH2 0x63B SWAP1 PUSH2 0x286C JUMP JUMPDEST PUSH1 0x40 MLOAD DUP1 SWAP2 SUB SWAP1 REVERT JUMPDEST PUSH0 PUSH1 0x9 PUSH0 CALLER PUSH20 0xFFFFFFFFFFFFFFFFFFFFFFFFFFFFFFFFFFFFFFFF AND PUSH20 0xFFFFFFFFFFFFFFFFFFFFFFFFFFFFFFFFFFFFFFFF AND DUP2 MSTORE PUSH1 0x20 ADD SWAP1 DUP2 MSTORE PUSH1 0x20 ADD PUSH0 KECCAK256 PUSH1 0x2 ADD SLOAD SWAP1 POP PUSH0 PUSH1 0x9 PUSH0 CALLER PUSH20 0xFFFFFFFFFFFFFFFFFFFFFFFFFFFFFFFFFFFFFFFF AND PUSH20 0xFFFFFFFFFFFFFFFFFFFFFFFFFFFFFFFFFFFFFFFF AND DUP2 MSTORE PUSH1 0x20 ADD SWAP1 DUP2 MSTORE PUSH1 0x20 ADD PUSH0 KECCAK256 PUSH1 0x2 ADD DUP2 SWAP1 SSTORE POP DUP1 PUSH1 0x7 PUSH0 DUP3 DUP3 SLOAD PUSH2 0x6DE SWAP2 SWAP1 PUSH2 0x288A JUMP JUMPDEST SWAP3 POP POP DUP2 SWAP1 SSTORE POP CALLER PUSH20 0xFFFFFFFFFFFFFFFFFFFFFFFFFFFFFFFFFFFFFFFF AND PUSH2 0x8FC DUP3 SWAP1 DUP2 ISZERO MUL SWAP1 PUSH1 0x40 MLOAD PUSH0 PUSH1 0x40 MLOAD DUP1 DUP4 SUB DUP2 DUP6 DUP9 DUP9 CALL SWAP4 POP POP POP POP ISZERO DUP1 ISZERO PUSH2 0x728 JUMPI RETURNDATASIZE PUSH0 DUP1 RETURNDATACOPY RETURNDATASIZE PUSH0 REVERT JUMPDEST POP POP JUMP JUMPDEST PUSH1 0x60 PUSH0 DUP3 SWAP1 POP PUSH0 PUSH1 0xB DUP1 SLOAD SWAP1 POP SWAP1 POP DUP1 DUP3 GT ISZERO PUSH2 0x747 JUMPI DUP1 SWAP2 POP JUMPDEST PUSH0 DUP3 PUSH8 0xFFFFFFFFFFFFFFFF DUP2 GT ISZERO PUSH2 0x762 JUMPI PUSH2 0x761 PUSH2 0x28BD JUMP JUMPDEST JUMPDEST PUSH1 0x40 MLOAD SWAP1 DUP1 DUP3 MSTORE DUP1 PUSH1 0x20 MUL PUSH1 0x20 ADD DUP3 ADD PUSH1 0x40 MSTORE DUP1 ISZERO PUSH2 0x79B JUMPI DUP2 PUSH1 0x20 ADD JUMPDEST PUSH2 0x788 PUSH2 0x2208 JUMP JUMPDEST DUP2 MSTORE PUSH1 0x20 ADD SWAP1 PUSH1 0x1 SWAP1 SUB SWAP1 DUP2 PUSH2 0x780 JUMPI SWAP1 POP JUMPDEST POP SWAP1 POP PUSH0 JUMPDEST DUP4 DUP2 LT ISZERO PUSH2 0x8B4 JUMPI PUSH1 0xB DUP2 PUSH1 0x1 DUP6 PUSH2 0x7B8 SWAP2 SWAP1 PUSH2 0x288A JUMP JUMPDEST PUSH2 0x7C2 SWAP2 SWAP1 PUSH2 0x288A JUMP JUMPDEST DUP2 SLOAD DUP2 LT PUSH2 0x7D3 JUMPI PUSH2 0x7D2 PUSH2 0x27F5 JUMP JUMPDEST JUMPDEST SWAP1 PUSH0 MSTORE PUSH1 0x20 PUSH0 KECCAK256 SWAP1 PUSH1 0x3 MUL ADD PUSH1 0x40 MLOAD DUP1 PUSH1 0x80 ADD PUSH1 0x40 MSTORE SWAP1 DUP2 PUSH0 DUP3 ADD PUSH0 SWAP1 SLOAD SWAP1 PUSH2 0x100 EXP SWAP1 DIV PUSH4 0xFFFFFFFF AND PUSH4 0xFFFFFFFF AND PUSH4 0xFFFFFFFF AND DUP2 MSTORE PUSH1 0x20 ADD PUSH0 DUP3 ADD PUSH1 0x4 SWAP1 SLOAD SWAP1 PUSH2 0x100 EXP SWAP1 DIV PUSH1 0xFF AND PUSH1 0xFF AND PUSH1 0xFF AND DUP2 MSTORE PUSH1 0x20 ADD PUSH1 0x1 DUP3 ADD SLOAD DUP2 MSTORE PUSH1 0x20 ADD PUSH1 0x2 DUP3 ADD PUSH0 SWAP1 SLOAD SWAP1 PUSH2 0x100 EXP SWAP1 DIV PUSH20 0xFFFFFFFFFFFFFFFFFFFFFFFFFFFFFFFFFFFFFFFF AND PUSH20 0xFFFFFFFFFFFFFFFFFFFFFFFFFFFFFFFFFFFFFFFF AND PUSH20 0xFFFFFFFFFFFFFFFFFFFFFFFFFFFFFFFFFFFFFFFF AND DUP2 MSTORE POP POP DUP3 DUP3 DUP2 MLOAD DUP2 LT PUSH2 0x89C JUMPI PUSH2 0x89B PUSH2 0x27F5 JUMP JUMPDEST JUMPDEST PUSH1 0x20 MUL PUSH1 0x20 ADD ADD DUP2 SWAP1 MSTORE POP DUP1 DUP1 PUSH1 0x1 ADD SWAP2 POP POP PUSH2 0x7A0 JUMP JUMPDEST POP DUP1 SWAP4 POP POP POP POP SWAP2 SWAP1 POP JUMP JUMPDEST PUSH8 0xDE0B6B3A7640000 CALLVALUE LT ISZERO DUP1 ISZERO PUSH2 0x8E1 JUMPI POP PUSH9 0x3635C9ADC5DEA00000 CALLVALUE GT ISZERO JUMPDEST PUSH2 0x920 JUMPI PUSH1 0x40 MLOAD PUSH32 0x8C379A000000000000000000000000000000000000000000000000000000000 DUP2 MSTORE PUSH1 0x4 ADD PUSH2 0x917 SWAP1 PUSH2 0x295A JUMP JUMPDEST PUSH1 0x40 MLOAD DUP1 SWAP2 SUB SWAP1 REVERT JUMPDEST PUSH10 0x21E19E0C9BAB2400000 PUSH2 0x951 SELFBALANCE PUSH1 0x1 SLOAD PUSH1 0x7 SLOAD PUSH1 0x5 SLOAD PUSH2 0x942 SWAP2 SWAP1 PUSH2 0x2765 JUMP JUMPDEST PUSH2 0x94C SWAP2 SWAP1 PUSH2 0x2765 JUMP JUMPDEST PUSH2 0x1FA3 JUMP JUMPDEST GT ISZERO PUSH2 0x95B JUMPI PUSH0 DUP1 REVERT JUMPDEST CALLVALUE PUSH1 0x4 PUSH0 DUP3 DUP3 SLOAD PUSH2 0x96C SWAP2 SWAP1 PUSH2 0x2765 JUMP JUMPDEST SWAP3 POP POP DUP2 SWAP1 SSTORE POP CALLVALUE PUSH1 0x3 PUSH0 CALLER PUSH20 0xFFFFFFFFFFFFFFFFFFFFFFFFFFFFFFFFFFFFFFFF AND PUSH20 0xFFFFFFFFFFFFFFFFFFFFFFFFFFFFFFFFFFFFFFFF AND DUP2 MSTORE PUSH1 0x20 ADD SWAP1 DUP2 MSTORE PUSH1 0x20 ADD PUSH0 KECCAK256 PUSH0 ADD PUSH0 DUP3 DUP3 SLOAD PUSH2 0x9C1 SWAP2 SWAP1 PUSH2 0x2765 JUMP JUMPDEST SWAP3 POP POP DUP2 SWAP1 SSTORE POP TIMESTAMP PUSH1 0x3 PUSH0 CALLER PUSH20 0xFFFFFFFFFFFFFFFFFFFFFFFFFFFFFFFFFFFFFFFF AND PUSH20 0xFFFFFFFFFFFFFFFFFFFFFFFFFFFFFFFFFFFFFFFF AND DUP2 MSTORE PUSH1 0x20 ADD SWAP1 DUP2 MSTORE PUSH1 0x20 ADD PUSH0 KECCAK256 PUSH1 0x1 ADD DUP2 SWAP1 SSTORE POP PUSH1 0x3 PUSH0 CALLER PUSH20 0xFFFFFFFFFFFFFFFFFFFFFFFFFFFFFFFFFFFFFFFF AND PUSH20 0xFFFFFFFFFFFFFFFFFFFFFFFFFFFFFFFFFFFFFFFF AND DUP2 MSTORE PUSH1 0x20 ADD SWAP1 DUP2 MSTORE PUSH1 0x20 ADD PUSH0 KECCAK256 PUSH1 0x2 ADD PUSH0 SWAP1 SLOAD SWAP1 PUSH2 0x100 EXP SWAP1 DIV PUSH1 0xFF AND PUSH2 0xB17 JUMPI PUSH1 0x1 PUSH1 0x3 PUSH0 CALLER PUSH20 0xFFFFFFFFFFFFFFFFFFFFFFFFFFFFFFFFFFFFFFFF AND PUSH20 0xFFFFFFFFFFFFFFFFFFFFFFFFFFFFFFFFFFFFFFFF AND DUP2 MSTORE PUSH1 0x20 ADD SWAP1 DUP2 MSTORE PUSH1 0x20 ADD PUSH0 KECCAK256 PUSH1 0x2 ADD PUSH0 PUSH2 0x100 EXP DUP2 SLOAD DUP2 PUSH1 0xFF MUL NOT AND SWAP1 DUP4 ISZERO ISZERO MUL OR SWAP1 SSTORE POP PUSH1 0x2 CALLER SWAP1 DUP1 PUSH1 0x1 DUP2 SLOAD ADD DUP1 DUP3 SSTORE DUP1 SWAP2 POP POP PUSH1 0x1 SWAP1 SUB SWAP1 PUSH0 MSTORE PUSH1 0x20 PUSH0 KECCAK256 ADD PUSH0 SWAP1 SWAP2 SWAP1 SWAP2 SWAP1 SWAP2 PUSH2 0x100 EXP DUP2 SLOAD DUP2 PUSH20 0xFFFFFFFFFFFFFFFFFFFFFFFFFFFFFFFFFFFFFFFF MUL NOT AND SWAP1 DUP4 PUSH20 0xFFFFFFFFFFFFFFFFFFFFFFFFFFFFFFFFFFFFFFFF AND MUL OR SWAP1 SSTORE POP JUMPDEST JUMP JUMPDEST PUSH0 PUSH1 0x9 PUSH0 CALLER PUSH20 0xFFFFFFFFFFFFFFFFFFFFFFFFFFFFFFFFFFFFFFFF AND PUSH20 0xFFFFFFFFFFFFFFFFFFFFFFFFFFFFFFFFFFFFFFFF AND DUP2 MSTORE PUSH1 0x20 ADD SWAP1 DUP2 MSTORE PUSH1 0x20 ADD PUSH0 KECCAK256 PUSH0 ADD DUP1 SLOAD SWAP1 POP GT PUSH2 0xB9D JUMPI PUSH1 0x40 MLOAD PUSH32 0x8C379A000000000000000000000000000000000000000000000000000000000 DUP2 MSTORE PUSH1 0x4 ADD PUSH2 0xB94 SWAP1 PUSH2 0x29E8 JUMP JUMPDEST PUSH1 0x40 MLOAD DUP1 SWAP2 SUB SWAP1 REVERT JUMPDEST PUSH1 0x9 PUSH0 CALLER PUSH20 0xFFFFFFFFFFFFFFFFFFFFFFFFFFFFFFFFFFFFFFFF AND PUSH20 0xFFFFFFFFFFFFFFFFFFFFFFFFFFFFFFFFFFFFFFFF AND DUP2 MSTORE PUSH1 0x20 ADD SWAP1 DUP2 MSTORE PUSH1 0x20 ADD PUSH0 KECCAK256 PUSH0 ADD PUSH1 0x1 PUSH1 0x9 PUSH0 CALLER PUSH20 0xFFFFFFFFFFFFFFFFFFFFFFFFFFFFFFFFFFFFFFFF AND PUSH20 0xFFFFFFFFFFFFFFFFFFFFFFFFFFFFFFFFFFFFFFFF AND DUP2 MSTORE PUSH1 0x20 ADD SWAP1 DUP2 MSTORE PUSH1 0x20 ADD PUSH0 KECCAK256 PUSH0 ADD DUP1 SLOAD SWAP1 POP PUSH2 0xC2B SWAP2 SWAP1 PUSH2 0x288A JUMP JUMPDEST DUP2 SLOAD DUP2 LT PUSH2 0xC3C JUMPI PUSH2 0xC3B PUSH2 0x27F5 JUMP JUMPDEST JUMPDEST SWAP1 PUSH0 MSTORE PUSH1 0x20 PUSH0 KECCAK256 SWAP1 PUSH1 0x2 MUL ADD PUSH1 0x1 ADD PUSH1 0x1 SWAP1 SLOAD SWAP1 PUSH2 0x100 EXP SWAP1 DIV PUSH31 0xFFFFFFFFFFFFFFFFFFFFFFFFFFFFFFFFFFFFFFFFFFFFFFFFFFFFFFFFFFFFFF AND PUSH31 0xFFFFFFFFFFFFFFFFFFFFFFFFFFFFFFFFFFFFFFFFFFFFFFFFFFFFFFFFFFFFFF AND NUMBER GT PUSH2 0xCD9 JUMPI PUSH1 0x40 MLOAD PUSH32 0x8C379A000000000000000000000000000000000000000000000000000000000 DUP2 MSTORE PUSH1 0x4 ADD PUSH2 0xCD0 SWAP1 PUSH2 0x2A50 JUMP JUMPDEST PUSH1 0x40 MLOAD DUP1 SWAP2 SUB SWAP1 REVERT JUMPDEST PUSH0 PUSH1 0x9 PUSH0 CALLER PUSH20 0xFFFFFFFFFFFFFFFFFFFFFFFFFFFFFFFFFFFFFFFF AND PUSH20 0xFFFFFFFFFFFFFFFFFFFFFFFFFFFFFFFFFFFFFFFF AND DUP2 MSTORE PUSH1 0x20 ADD SWAP1 DUP2 MSTORE PUSH1 0x20 ADD PUSH0 KECCAK256 PUSH1 0x1 ADD DUP1 SLOAD SWAP1 POP GT ISZERO PUSH2 0xD70 JUMPI PUSH1 0x9 PUSH0 CALLER PUSH20 0xFFFFFFFFFFFFFFFFFFFFFFFFFFFFFFFFFFFFFFFF AND PUSH20 0xFFFFFFFFFFFFFFFFFFFFFFFFFFFFFFFFFFFFFFFF AND DUP2 MSTORE PUSH1 0x20 ADD SWAP1 DUP2 MSTORE PUSH1 0x20 ADD PUSH0 KECCAK256 PUSH1 0x1 ADD PUSH0 PUSH2 0xD6F SWAP2 SWAP1 PUSH2 0x224B JUMP JUMPDEST JUMPDEST PUSH0 DUP1 PUSH0 SWAP1 POP JUMPDEST PUSH1 0x9 PUSH0 CALLER PUSH20 0xFFFFFFFFFFFFFFFFFFFFFFFFFFFFFFFFFFFFFFFF AND PUSH20 0xFFFFFFFFFFFFFFFFFFFFFFFFFFFFFFFFFFFFFFFF AND DUP2 MSTORE PUSH1 0x20 ADD SWAP1 DUP2 MSTORE PUSH1 0x20 ADD PUSH0 KECCAK256 PUSH0 ADD DUP1 SLOAD SWAP1 POP DUP2 LT ISZERO PUSH2 0x132B JUMPI PUSH0 PUSH1 0x9 PUSH0 CALLER PUSH20 0xFFFFFFFFFFFFFFFFFFFFFFFFFFFFFFFFFFFFFFFF AND PUSH20 0xFFFFFFFFFFFFFFFFFFFFFFFFFFFFFFFFFFFFFFFF AND DUP2 MSTORE PUSH1 0x20 ADD SWAP1 DUP2 MSTORE PUSH1 0x20 ADD PUSH0 KECCAK256 PUSH0 ADD DUP3 DUP2 SLOAD DUP2 LT PUSH2 0xE12 JUMPI PUSH2 0xE11 PUSH2 0x27F5 JUMP JUMPDEST JUMPDEST SWAP1 PUSH0 MSTORE PUSH1 0x20 PUSH0 KECCAK256 SWAP1 PUSH1 0x2 MUL ADD PUSH1 0x1 ADD PUSH1 0x1 SWAP1 SLOAD SWAP1 PUSH2 0x100 EXP SWAP1 DIV PUSH31 0xFFFFFFFFFFFFFFFFFFFFFFFFFFFFFFFFFFFFFFFFFFFFFFFFFFFFFFFFFFFFFF AND PUSH31 0xFFFFFFFFFFFFFFFFFFFFFFFFFFFFFFFFFFFFFFFFFFFFFFFFFFFFFFFFFFFFFF AND BLOCKHASH PUSH0 SHR SUB ISZERO PUSH2 0x131E JUMPI PUSH0 PUSH1 0x9 PUSH0 CALLER PUSH20 0xFFFFFFFFFFFFFFFFFFFFFFFFFFFFFFFFFFFFFFFF AND PUSH20 0xFFFFFFFFFFFFFFFFFFFFFFFFFFFFFFFFFFFFFFFF AND DUP2 MSTORE PUSH1 0x20 ADD SWAP1 DUP2 MSTORE PUSH1 0x20 ADD PUSH0 KECCAK256 PUSH0 ADD DUP3 DUP2 SLOAD DUP2 LT PUSH2 0xEC9 JUMPI PUSH2 0xEC8 PUSH2 0x27F5 JUMP JUMPDEST JUMPDEST SWAP1 PUSH0 MSTORE PUSH1 0x20 PUSH0 KECCAK256 SWAP1 PUSH1 0x2 MUL ADD PUSH0 ADD SLOAD PUSH1 0x9 PUSH0 CALLER PUSH20 0xFFFFFFFFFFFFFFFFFFFFFFFFFFFFFFFFFFFFFFFF AND PUSH20 0xFFFFFFFFFFFFFFFFFFFFFFFFFFFFFFFFFFFFFFFF AND DUP2 MSTORE PUSH1 0x20 ADD SWAP1 DUP2 MSTORE PUSH1 0x20 ADD PUSH0 KECCAK256 PUSH0 ADD DUP4 DUP2 SLOAD DUP2 LT PUSH2 0xF29 JUMPI PUSH2 0xF28 PUSH2 0x27F5 JUMP JUMPDEST JUMPDEST SWAP1 PUSH0 MSTORE PUSH1 0x20 PUSH0 KECCAK256 SWAP1 PUSH1 0x2 MUL ADD PUSH1 0x1 ADD PUSH1 0x1 SWAP1 SLOAD SWAP1 PUSH2 0x100 EXP SWAP1 DIV PUSH31 0xFFFFFFFFFFFFFFFFFFFFFFFFFFFFFFFFFFFFFFFFFFFFFFFFFFFFFFFFFFFFFF AND PUSH31 0xFFFFFFFFFFFFFFFFFFFFFFFFFFFFFFFFFFFFFFFFFFFFFFFFFFFFFFFFFFFFFF AND BLOCKHASH PUSH1 0x40 MLOAD PUSH1 0x20 ADD PUSH2 0xF97 SWAP3 SWAP2 SWAP1 PUSH2 0x2A97 JUMP JUMPDEST PUSH1 0x40 MLOAD PUSH1 0x20 DUP2 DUP4 SUB SUB DUP2 MSTORE SWAP1 PUSH1 0x40 MSTORE DUP1 MLOAD SWAP1 PUSH1 0x20 ADD KECCAK256 PUSH1 0xE0 SHR SWAP1 POP PUSH0 PUSH2 0xFBC DUP3 PUSH2 0x2038 JUMP JUMPDEST SWAP1 POP PUSH0 DUP2 GT ISZERO PUSH2 0x11E4 JUMPI PUSH0 PUSH7 0x470DE4DF820000 PUSH1 0x9 PUSH0 CALLER PUSH20 0xFFFFFFFFFFFFFFFFFFFFFFFFFFFFFFFFFFFFFFFF AND PUSH20 0xFFFFFFFFFFFFFFFFFFFFFFFFFFFFFFFFFFFFFFFF AND DUP2 MSTORE PUSH1 0x20 ADD SWAP1 DUP2 MSTORE PUSH1 0x20 ADD PUSH0 KECCAK256 PUSH0 ADD DUP6 DUP2 SLOAD DUP2 LT PUSH2 0x1020 JUMPI PUSH2 0x101F PUSH2 0x27F5 JUMP JUMPDEST JUMPDEST SWAP1 PUSH0 MSTORE PUSH1 0x20 PUSH0 KECCAK256 SWAP1 PUSH1 0x2 MUL ADD PUSH1 0x1 ADD PUSH0 SWAP1 SLOAD SWAP1 PUSH2 0x100 EXP SWAP1 DIV PUSH1 0xFF AND PUSH1 0xFF AND PUSH2 0x1048 DUP5 PUSH2 0x213B JUMP JUMPDEST PUSH2 0x1052 SWAP2 SWAP1 PUSH2 0x2AC2 JUMP JUMPDEST PUSH2 0x105C SWAP2 SWAP1 PUSH2 0x2AC2 JUMP JUMPDEST SWAP1 POP DUP1 DUP6 PUSH2 0x106A SWAP2 SWAP1 PUSH2 0x2765 JUMP JUMPDEST SWAP5 POP PUSH0 PUSH1 0x40 MLOAD DUP1 PUSH1 0x80 ADD PUSH1 0x40 MSTORE DUP1 DUP6 PUSH4 0xFFFFFFFF AND DUP2 MSTORE PUSH1 0x20 ADD PUSH1 0x9 PUSH0 CALLER PUSH20 0xFFFFFFFFFFFFFFFFFFFFFFFFFFFFFFFFFFFFFFFF AND PUSH20 0xFFFFFFFFFFFFFFFFFFFFFFFFFFFFFFFFFFFFFFFF AND DUP2 MSTORE PUSH1 0x20 ADD SWAP1 DUP2 MSTORE PUSH1 0x20 ADD PUSH0 KECCAK256 PUSH0 ADD DUP8 DUP2 SLOAD DUP2 LT PUSH2 0x10D5 JUMPI PUSH2 0x10D4 PUSH2 0x27F5 JUMP JUMPDEST JUMPDEST SWAP1 PUSH0 MSTORE PUSH1 0x20 PUSH0 KECCAK256 SWAP1 PUSH1 0x2 MUL ADD PUSH1 0x1 ADD PUSH0 SWAP1 SLOAD SWAP1 PUSH2 0x100 EXP SWAP1 DIV PUSH1 0xFF AND PUSH1 0xFF AND DUP2 MSTORE PUSH1 0x20 ADD TIMESTAMP PUSH5 0xFFFFFFFFFF AND DUP2 MSTORE PUSH1 0x20 ADD CALLER PUSH20 0xFFFFFFFFFFFFFFFFFFFFFFFFFFFFFFFFFFFFFFFF AND DUP2 MSTORE POP SWAP1 POP PUSH1 0xB DUP2 SWAP1 DUP1 PUSH1 0x1 DUP2 SLOAD ADD DUP1 DUP3 SSTORE DUP1 SWAP2 POP POP PUSH1 0x1 SWAP1 SUB SWAP1 PUSH0 MSTORE PUSH1 0x20 PUSH0 KECCAK256 SWAP1 PUSH1 0x3 MUL ADD PUSH0 SWAP1 SWAP2 SWAP1 SWAP2 SWAP1 SWAP2 POP PUSH0 DUP3 ADD MLOAD DUP2 PUSH0 ADD PUSH0 PUSH2 0x100 EXP DUP2 SLOAD DUP2 PUSH4 0xFFFFFFFF MUL NOT AND SWAP1 DUP4 PUSH4 0xFFFFFFFF AND MUL OR SWAP1 SSTORE POP PUSH1 0x20 DUP3 ADD MLOAD DUP2 PUSH0 ADD PUSH1 0x4 PUSH2 0x100 EXP DUP2 SLOAD DUP2 PUSH1 0xFF MUL NOT AND SWAP1 DUP4 PUSH1 0xFF AND MUL OR SWAP1 SSTORE POP PUSH1 0x40 DUP3 ADD MLOAD DUP2 PUSH1 0x1 ADD SSTORE PUSH1 0x60 DUP3 ADD MLOAD DUP2 PUSH1 0x2 ADD PUSH0 PUSH2 0x100 EXP DUP2 SLOAD DUP2 PUSH20 0xFFFFFFFFFFFFFFFFFFFFFFFFFFFFFFFFFFFFFFFF MUL NOT AND SWAP1 DUP4 PUSH20 0xFFFFFFFFFFFFFFFFFFFFFFFFFFFFFFFFFFFFFFFF AND MUL OR SWAP1 SSTORE POP POP POP POP POP JUMPDEST PUSH0 PUSH1 0x40 MLOAD DUP1 PUSH1 0x40 ADD PUSH1 0x40 MSTORE DUP1 DUP5 PUSH4 0xFFFFFFFF AND DUP2 MSTORE PUSH1 0x20 ADD PUSH1 0x9 PUSH0 CALLER PUSH20 0xFFFFFFFFFFFFFFFFFFFFFFFFFFFFFFFFFFFFFFFF AND PUSH20 0xFFFFFFFFFFFFFFFFFFFFFFFFFFFFFFFFFFFFFFFF AND DUP2 MSTORE PUSH1 0x20 ADD SWAP1 DUP2 MSTORE PUSH1 0x20 ADD PUSH0 KECCAK256 PUSH0 ADD DUP7 DUP2 SLOAD DUP2 LT PUSH2 0x124D JUMPI PUSH2 0x124C PUSH2 0x27F5 JUMP JUMPDEST JUMPDEST SWAP1 PUSH0 MSTORE PUSH1 0x20 PUSH0 KECCAK256 SWAP1 PUSH1 0x2 MUL ADD PUSH1 0x1 ADD PUSH0 SWAP1 SLOAD SWAP1 PUSH2 0x100 EXP SWAP1 DIV PUSH1 0xFF AND PUSH1 0xFF AND DUP2 MSTORE POP SWAP1 POP PUSH1 0x9 PUSH0 CALLER PUSH20 0xFFFFFFFFFFFFFFFFFFFFFFFFFFFFFFFFFFFFFFFF AND PUSH20 0xFFFFFFFFFFFFFFFFFFFFFFFFFFFFFFFFFFFFFFFF AND DUP2 MSTORE PUSH1 0x20 ADD SWAP1 DUP2 MSTORE PUSH1 0x20 ADD PUSH0 KECCAK256 PUSH1 0x1 ADD DUP2 SWAP1 DUP1 PUSH1 0x1 DUP2 SLOAD ADD DUP1 DUP3 SSTORE DUP1 SWAP2 POP POP PUSH1 0x1 SWAP1 SUB SWAP1 PUSH0 MSTORE PUSH1 0x20 PUSH0 KECCAK256 ADD PUSH0 SWAP1 SWAP2 SWAP1 SWAP2 SWAP1 SWAP2 POP PUSH0 DUP3 ADD MLOAD DUP2 PUSH0 ADD PUSH0 PUSH2 0x100 EXP DUP2 SLOAD DUP2 PUSH4 0xFFFFFFFF MUL NOT AND SWAP1 DUP4 PUSH4 0xFFFFFFFF AND MUL OR SWAP1 SSTORE POP PUSH1 0x20 DUP3 ADD MLOAD DUP2 PUSH0 ADD PUSH1 0x4 PUSH2 0x100 EXP DUP2 SLOAD DUP2 PUSH1 0xFF MUL NOT AND SWAP1 DUP4 PUSH1 0xFF AND MUL OR SWAP1 SSTORE POP POP POP POP POP POP JUMPDEST DUP1 DUP1 PUSH1 0x1 ADD SWAP2 POP POP PUSH2 0xD76 JUMP JUMPDEST POP PUSH1 0x9 PUSH0 CALLER PUSH20 0xFFFFFFFFFFFFFFFFFFFFFFFFFFFFFFFFFFFFFFFF AND PUSH20 0xFFFFFFFFFFFFFFFFFFFFFFFFFFFFFFFFFFFFFFFF AND DUP2 MSTORE PUSH1 0x20 ADD SWAP1 DUP2 MSTORE PUSH1 0x20 ADD PUSH0 KECCAK256 PUSH0 ADD PUSH0 PUSH2 0x1376 SWAP2 SWAP1 PUSH2 0x2269 JUMP JUMPDEST PUSH0 DUP2 GT ISZERO PUSH2 0x146D JUMPI PUSH0 PUSH2 0x13B9 PUSH2 0x13B2 PUSH2 0x13AB SELFBALANCE PUSH1 0x1 SLOAD PUSH1 0x7 SLOAD PUSH1 0x5 SLOAD PUSH2 0x139C SWAP2 SWAP1 PUSH2 0x2765 JUMP JUMPDEST PUSH2 0x13A6 SWAP2 SWAP1 PUSH2 0x2765 JUMP JUMPDEST PUSH2 0x1FA3 JUMP JUMPDEST PUSH1 0x46 PUSH2 0x1FC9 JUMP JUMPDEST PUSH1 0x64 PUSH2 0x200E JUMP JUMPDEST SWAP1 POP DUP1 DUP3 GT ISZERO PUSH2 0x13C7 JUMPI DUP1 SWAP2 POP JUMPDEST PUSH0 PUSH2 0x13DD PUSH2 0x13D6 DUP5 PUSH1 0x5 PUSH2 0x1FC9 JUMP JUMPDEST PUSH1 0x64 PUSH2 0x200E JUMP JUMPDEST SWAP1 POP DUP1 PUSH1 0x5 PUSH0 DUP3 DUP3 SLOAD PUSH2 0x13F0 SWAP2 SWAP1 PUSH2 0x2765 JUMP JUMPDEST SWAP3 POP POP DUP2 SWAP1 SSTORE POP DUP1 PUSH1 0x1 PUSH0 DUP3 DUP3 SLOAD PUSH2 0x1408 SWAP2 SWAP1 PUSH2 0x2765 JUMP JUMPDEST SWAP3 POP POP DUP2 SWAP1 SSTORE POP CALLER PUSH20 0xFFFFFFFFFFFFFFFFFFFFFFFFFFFFFFFFFFFFFFFF AND PUSH2 0x8FC PUSH1 0x2 DUP4 PUSH2 0x1436 SWAP2 SWAP1 PUSH2 0x2AC2 JUMP JUMPDEST DUP6 PUSH2 0x1441 SWAP2 SWAP1 PUSH2 0x288A JUMP JUMPDEST SWAP1 DUP2 ISZERO MUL SWAP1 PUSH1 0x40 MLOAD PUSH0 PUSH1 0x40 MLOAD DUP1 DUP4 SUB DUP2 DUP6 DUP9 DUP9 CALL SWAP4 POP POP POP POP ISZERO DUP1 ISZERO PUSH2 0x1469 JUMPI RETURNDATASIZE PUSH0 DUP1 RETURNDATACOPY RETURNDATASIZE PUSH0 REVERT JUMPDEST POP POP POP JUMPDEST POP JUMP JUMPDEST PUSH0 DUP1 SLOAD SWAP1 PUSH2 0x100 EXP SWAP1 DIV PUSH20 0xFFFFFFFFFFFFFFFFFFFFFFFFFFFFFFFFFFFFFFFF AND DUP2 JUMP JUMPDEST PUSH1 0x4 SLOAD DUP2 JUMP JUMPDEST PUSH1 0x6 SLOAD DUP2 JUMP JUMPDEST PUSH7 0x470DE4DF820000 CALLVALUE LT ISZERO PUSH2 0x14E9 JUMPI PUSH1 0x40 MLOAD PUSH32 0x8C379A000000000000000000000000000000000000000000000000000000000 DUP2 MSTORE PUSH1 0x4 ADD PUSH2 0x14E0 SWAP1 PUSH2 0x2B4D JUMP JUMPDEST PUSH1 0x40 MLOAD DUP1 SWAP2 SUB SWAP1 REVERT JUMPDEST PUSH1 0x1 DUP4 PUSH1 0xFF AND LT ISZERO DUP1 ISZERO PUSH2 0x1501 JUMPI POP PUSH1 0x64 DUP4 PUSH1 0xFF AND GT ISZERO JUMPDEST PUSH2 0x1540 JUMPI PUSH1 0x40 MLOAD PUSH32 0x8C379A000000000000000000000000000000000000000000000000000000000 DUP2 MSTORE PUSH1 0x4 ADD PUSH2 0x1537 SWAP1 PUSH2 0x2BB5 JUMP JUMPDEST PUSH1 0x40 MLOAD DUP1 SWAP2 SUB SWAP1 REVERT JUMPDEST PUSH1 0x1 DUP5 PUSH2 0xFFFF AND LT ISZERO DUP1 ISZERO PUSH2 0x155B JUMPI POP PUSH2 0x3E8 DUP5 PUSH2 0xFFFF AND GT ISZERO JUMPDEST PUSH2 0x159A JUMPI PUSH1 0x40 MLOAD PUSH32 0x8C379A000000000000000000000000000000000000000000000000000000000 DUP2 MSTORE PUSH1 0x4 ADD PUSH2 0x1591 SWAP1 PUSH2 0x2C1D JUMP JUMPDEST PUSH1 0x40 MLOAD DUP1 SWAP2 SUB SWAP1 REVERT JUMPDEST PUSH0 PUSH2 0x15AC CALLVALUE PUSH7 0x470DE4DF820000 PUSH2 0x200E JUMP JUMPDEST SWAP1 POP DUP4 PUSH1 0xFF AND DUP6 PUSH2 0x15BD SWAP2 SWAP1 PUSH2 0x2C3B JUMP JUMPDEST PUSH2 0xFFFF AND DUP2 EQ PUSH2 0x1602 JUMPI PUSH1 0x40 MLOAD PUSH32 0x8C379A000000000000000000000000000000000000000000000000000000000 DUP2 MSTORE PUSH1 0x4 ADD PUSH2 0x15F9 SWAP1 PUSH2 0x2CC1 JUMP JUMPDEST PUSH1 0x40 MLOAD DUP1 SWAP2 SUB SWAP1 REVERT JUMPDEST PUSH0 JUMPDEST DUP6 PUSH2 0xFFFF AND DUP2 LT ISZERO PUSH2 0x1785 JUMPI PUSH0 PUSH1 0x40 MLOAD DUP1 PUSH1 0x60 ADD PUSH1 0x40 MSTORE DUP1 TIMESTAMP COINBASE CALLER DUP10 DUP1 PUSH2 0x162A SWAP1 PUSH2 0x2CDF JUMP JUMPDEST SWAP11 POP PUSH1 0x40 MLOAD PUSH1 0x20 ADD PUSH2 0x163F SWAP5 SWAP4 SWAP3 SWAP2 SWAP1 PUSH2 0x2DF5 JUMP JUMPDEST PUSH1 0x40 MLOAD PUSH1 0x20 DUP2 DUP4 SUB SUB DUP2 MSTORE SWAP1 PUSH1 0x40 MSTORE DUP1 MLOAD SWAP1 PUSH1 0x20 ADD KECCAK256 DUP2 MSTORE PUSH1 0x20 ADD DUP8 PUSH1 0xFF AND DUP2 MSTORE PUSH1 0x20 ADD NUMBER PUSH31 0xFFFFFFFFFFFFFFFFFFFFFFFFFFFFFFFFFFFFFFFFFFFFFFFFFFFFFFFFFFFFFF AND DUP2 MSTORE POP SWAP1 POP PUSH1 0x9 PUSH0 CALLER PUSH20 0xFFFFFFFFFFFFFFFFFFFFFFFFFFFFFFFFFFFFFFFF AND PUSH20 0xFFFFFFFFFFFFFFFFFFFFFFFFFFFFFFFFFFFFFFFF AND DUP2 MSTORE PUSH1 0x20 ADD SWAP1 DUP2 MSTORE PUSH1 0x20 ADD PUSH0 KECCAK256 PUSH0 ADD DUP2 SWAP1 DUP1 PUSH1 0x1 DUP2 SLOAD ADD DUP1 DUP3 SSTORE DUP1 SWAP2 POP POP PUSH1 0x1 SWAP1 SUB SWAP1 PUSH0 MSTORE PUSH1 0x20 PUSH0 KECCAK256 SWAP1 PUSH1 0x2 MUL ADD PUSH0 SWAP1 SWAP2 SWAP1 SWAP2 SWAP1 SWAP2 POP PUSH0 DUP3 ADD MLOAD DUP2 PUSH0 ADD SSTORE PUSH1 0x20 DUP3 ADD MLOAD DUP2 PUSH1 0x1 ADD PUSH0 PUSH2 0x100 EXP DUP2 SLOAD DUP2 PUSH1 0xFF MUL NOT AND SWAP1 DUP4 PUSH1 0xFF AND MUL OR SWAP1 SSTORE POP PUSH1 0x40 DUP3 ADD MLOAD DUP2 PUSH1 0x1 ADD PUSH1 0x1 PUSH2 0x100 EXP DUP2 SLOAD DUP2 PUSH31 0xFFFFFFFFFFFFFFFFFFFFFFFFFFFFFFFFFFFFFFFFFFFFFFFFFFFFFFFFFFFFFF MUL NOT AND SWAP1 DUP4 PUSH31 0xFFFFFFFFFFFFFFFFFFFFFFFFFFFFFFFFFFFFFFFFFFFFFFFFFFFFFFFFFFFFFF AND MUL OR SWAP1 SSTORE POP POP POP POP DUP1 DUP1 PUSH1 0x1 ADD SWAP2 POP POP PUSH2 0x1604 JUMP JUMPDEST POP PUSH1 0x9 PUSH0 CALLER PUSH20 0xFFFFFFFFFFFFFFFFFFFFFFFFFFFFFFFFFFFFFFFF AND PUSH20 0xFFFFFFFFFFFFFFFFFFFFFFFFFFFFFFFFFFFFFFFF AND DUP2 MSTORE PUSH1 0x20 ADD SWAP1 DUP2 MSTORE PUSH1 0x20 ADD PUSH0 KECCAK256 PUSH1 0x3 ADD PUSH0 SWAP1 SLOAD SWAP1 PUSH2 0x100 EXP SWAP1 DIV PUSH1 0xFF AND PUSH2 0x1830 JUMPI PUSH1 0x1 PUSH1 0x9 PUSH0 CALLER PUSH20 0xFFFFFFFFFFFFFFFFFFFFFFFFFFFFFFFFFFFFFFFF AND PUSH20 0xFFFFFFFFFFFFFFFFFFFFFFFFFFFFFFFFFFFFFFFF AND DUP2 MSTORE PUSH1 0x20 ADD SWAP1 DUP2 MSTORE PUSH1 0x20 ADD PUSH0 KECCAK256 PUSH1 0x3 ADD PUSH0 PUSH2 0x100 EXP DUP2 SLOAD DUP2 PUSH1 0xFF MUL NOT AND SWAP1 DUP4 ISZERO ISZERO MUL OR SWAP1 SSTORE POP JUMPDEST PUSH0 PUSH2 0x1846 PUSH2 0x183F CALLVALUE PUSH1 0x3 PUSH2 0x1FC9 JUMP JUMPDEST PUSH1 0x64 PUSH2 0x200E JUMP JUMPDEST SWAP1 POP PUSH0 PUSH2 0x185E PUSH2 0x1857 CALLVALUE PUSH1 0x4 PUSH2 0x1FC9 JUMP JUMPDEST PUSH1 0x64 PUSH2 0x200E JUMP JUMPDEST SWAP1 POP DUP2 PUSH1 0x1 PUSH0 DUP3 DUP3 SLOAD PUSH2 0x1871 SWAP2 SWAP1 PUSH2 0x2765 JUMP JUMPDEST SWAP3 POP POP DUP2 SWAP1 SSTORE POP DUP2 PUSH1 0x5 PUSH0 DUP3 DUP3 SLOAD PUSH2 0x1889 SWAP2 SWAP1 PUSH2 0x2765 JUMP JUMPDEST SWAP3 POP POP DUP2 SWAP1 SSTORE POP PUSH0 PUSH20 0xFFFFFFFFFFFFFFFFFFFFFFFFFFFFFFFFFFFFFFFF AND PUSH1 0xA PUSH0 CALLER PUSH20 0xFFFFFFFFFFFFFFFFFFFFFFFFFFFFFFFFFFFFFFFF AND PUSH20 0xFFFFFFFFFFFFFFFFFFFFFFFFFFFFFFFFFFFFFFFF AND DUP2 MSTORE PUSH1 0x20 ADD SWAP1 DUP2 MSTORE PUSH1 0x20 ADD PUSH0 KECCAK256 PUSH0 SWAP1 SLOAD SWAP1 PUSH2 0x100 EXP SWAP1 DIV PUSH20 0xFFFFFFFFFFFFFFFFFFFFFFFFFFFFFFFFFFFFFFFF AND PUSH20 0xFFFFFFFFFFFFFFFFFFFFFFFFFFFFFFFFFFFFFFFF AND SUB PUSH2 0x1C1A JUMPI CALLER PUSH20 0xFFFFFFFFFFFFFFFFFFFFFFFFFFFFFFFFFFFFFFFF AND DUP5 PUSH20 0xFFFFFFFFFFFFFFFFFFFFFFFFFFFFFFFFFFFFFFFF AND EQ DUP1 PUSH2 0x1984 JUMPI POP PUSH0 PUSH20 0xFFFFFFFFFFFFFFFFFFFFFFFFFFFFFFFFFFFFFFFF AND DUP5 PUSH20 0xFFFFFFFFFFFFFFFFFFFFFFFFFFFFFFFFFFFFFFFF AND EQ JUMPDEST DUP1 PUSH2 0x19D9 JUMPI POP PUSH1 0x9 PUSH0 CALLER PUSH20 0xFFFFFFFFFFFFFFFFFFFFFFFFFFFFFFFFFFFFFFFF AND PUSH20 0xFFFFFFFFFFFFFFFFFFFFFFFFFFFFFFFFFFFFFFFF AND DUP2 MSTORE PUSH1 0x20 ADD SWAP1 DUP2 MSTORE PUSH1 0x20 ADD PUSH0 KECCAK256 PUSH1 0x3 ADD PUSH0 SWAP1 SLOAD SWAP1 PUSH2 0x100 EXP SWAP1 DIV PUSH1 0xFF AND ISZERO JUMPDEST ISZERO PUSH2 0x1A01 JUMPI PUSH0 DUP1 SLOAD SWAP1 PUSH2 0x100 EXP SWAP1 DIV PUSH20 0xFFFFFFFFFFFFFFFFFFFFFFFFFFFFFFFFFFFFFFFF AND SWAP4 POP JUMPDEST DUP4 PUSH1 0xA PUSH0 CALLER PUSH20 0xFFFFFFFFFFFFFFFFFFFFFFFFFFFFFFFFFFFFFFFF AND PUSH20 0xFFFFFFFFFFFFFFFFFFFFFFFFFFFFFFFFFFFFFFFF AND DUP2 MSTORE PUSH1 0x20 ADD SWAP1 DUP2 MSTORE PUSH1 0x20 ADD PUSH0 KECCAK256 PUSH0 PUSH2 0x100 EXP DUP2 SLOAD DUP2 PUSH20 0xFFFFFFFFFFFFFFFFFFFFFFFFFFFFFFFFFFFFFFFF MUL NOT AND SWAP1 DUP4 PUSH20 0xFFFFFFFFFFFFFFFFFFFFFFFFFFFFFFFFFFFFFFFF AND MUL OR SWAP1 SSTORE POP PUSH0 DUP1 SLOAD SWAP1 PUSH2 0x100 EXP SWAP1 DIV PUSH20 0xFFFFFFFFFFFFFFFFFFFFFFFFFFFFFFFFFFFFFFFF AND PUSH20 0xFFFFFFFFFFFFFFFFFFFFFFFFFFFFFFFFFFFFFFFF AND PUSH1 0xA PUSH0 CALLER PUSH20 0xFFFFFFFFFFFFFFFFFFFFFFFFFFFFFFFFFFFFFFFF AND PUSH20 0xFFFFFFFFFFFFFFFFFFFFFFFFFFFFFFFFFFFFFFFF AND DUP2 MSTORE PUSH1 0x20 ADD SWAP1 DUP2 MSTORE PUSH1 0x20 ADD PUSH0 KECCAK256 PUSH0 SWAP1 SLOAD SWAP1 PUSH2 0x100 EXP SWAP1 DIV PUSH20 0xFFFFFFFFFFFFFFFFFFFFFFFFFFFFFFFFFFFFFFFF AND PUSH20 0xFFFFFFFFFFFFFFFFFFFFFFFFFFFFFFFFFFFFFFFF AND SUB PUSH2 0x1B47 JUMPI DUP1 PUSH1 0x1 PUSH0 DUP3 DUP3 SLOAD PUSH2 0x1B3B SWAP2 SWAP1 PUSH2 0x2765 JUMP JUMPDEST SWAP3 POP POP DUP2 SWAP1 SSTORE POP PUSH2 0x1C12 JUMP JUMPDEST DUP1 PUSH1 0x9 PUSH0 PUSH1 0xA PUSH0 CALLER PUSH20 0xFFFFFFFFFFFFFFFFFFFFFFFFFFFFFFFFFFFFFFFF AND PUSH20 0xFFFFFFFFFFFFFFFFFFFFFFFFFFFFFFFFFFFFFFFF AND DUP2 MSTORE PUSH1 0x20 ADD SWAP1 DUP2 MSTORE PUSH1 0x20 ADD PUSH0 KECCAK256 PUSH0 SWAP1 SLOAD SWAP1 PUSH2 0x100 EXP SWAP1 DIV PUSH20 0xFFFFFFFFFFFFFFFFFFFFFFFFFFFFFFFFFFFFFFFF AND PUSH20 0xFFFFFFFFFFFFFFFFFFFFFFFFFFFFFFFFFFFFFFFF AND PUSH20 0xFFFFFFFFFFFFFFFFFFFFFFFFFFFFFFFFFFFFFFFF AND DUP2 MSTORE PUSH1 0x20 ADD SWAP1 DUP2 MSTORE PUSH1 0x20 ADD PUSH0 KECCAK256 PUSH1 0x2 ADD PUSH0 DUP3 DUP3 SLOAD PUSH2 0x1BF2 SWAP2 SWAP1 PUSH2 0x2765 JUMP JUMPDEST SWAP3 POP POP DUP2 SWAP1 SSTORE POP DUP1 PUSH1 0x7 PUSH0 DUP3 DUP3 SLOAD PUSH2 0x1C0A SWAP2 SWAP1 PUSH2 0x2765 JUMP JUMPDEST SWAP3 POP POP DUP2 SWAP1 SSTORE POP JUMPDEST TIMESTAMP PUSH1 0x8 DUP2 SWAP1 SSTORE POP JUMPDEST POP POP POP POP POP POP POP JUMP JUMPDEST PUSH1 0x5 SLOAD DUP2 JUMP JUMPDEST PUSH8 0xDE0B6B3A7640000 DUP2 LT ISZERO PUSH2 0x1C74 JUMPI PUSH1 0x40 MLOAD PUSH32 0x8C379A000000000000000000000000000000000000000000000000000000000 DUP2 MSTORE PUSH1 0x4 ADD PUSH2 0x1C6B SWAP1 PUSH2 0x2ED8 JUMP JUMPDEST PUSH1 0x40 MLOAD DUP1 SWAP2 SUB SWAP1 REVERT JUMPDEST PUSH1 0x3 PUSH0 CALLER PUSH20 0xFFFFFFFFFFFFFFFFFFFFFFFFFFFFFFFFFFFFFFFF AND PUSH20 0xFFFFFFFFFFFFFFFFFFFFFFFFFFFFFFFFFFFFFFFF AND DUP2 MSTORE PUSH1 0x20 ADD SWAP1 DUP2 MSTORE PUSH1 0x20 ADD PUSH0 KECCAK256 PUSH0 ADD SLOAD DUP2 GT ISZERO PUSH2 0x1CF6 JUMPI PUSH1 0x40 MLOAD PUSH32 0x8C379A000000000000000000000000000000000000000000000000000000000 DUP2 MSTORE PUSH1 0x4 ADD PUSH2 0x1CED SWAP1 PUSH2 0x2F40 JUMP JUMPDEST PUSH1 0x40 MLOAD DUP1 SWAP2 SUB SWAP1 REVERT JUMPDEST PUSH3 0x93A80 PUSH1 0x3 PUSH0 CALLER PUSH20 0xFFFFFFFFFFFFFFFFFFFFFFFFFFFFFFFFFFFFFFFF AND PUSH20 0xFFFFFFFFFFFFFFFFFFFFFFFFFFFFFFFFFFFFFFFF AND DUP2 MSTORE PUSH1 0x20 ADD SWAP1 DUP2 MSTORE PUSH1 0x20 ADD PUSH0 KECCAK256 PUSH1 0x1 ADD SLOAD PUSH2 0x1D45 SWAP2 SWAP1 PUSH2 0x2765 JUMP JUMPDEST TIMESTAMP LT ISZERO PUSH2 0x1D87 JUMPI PUSH1 0x40 MLOAD PUSH32 0x8C379A000000000000000000000000000000000000000000000000000000000 DUP2 MSTORE PUSH1 0x4 ADD PUSH2 0x1D7E SWAP1 PUSH2 0x2FA8 JUMP JUMPDEST PUSH1 0x40 MLOAD DUP1 SWAP2 SUB SWAP1 REVERT JUMPDEST DUP1 PUSH2 0x1DAE SELFBALANCE PUSH1 0x1 SLOAD PUSH1 0x7 SLOAD PUSH1 0x5 SLOAD PUSH2 0x1D9F SWAP2 SWAP1 PUSH2 0x2765 JUMP JUMPDEST PUSH2 0x1DA9 SWAP2 SWAP1 PUSH2 0x2765 JUMP JUMPDEST PUSH2 0x1FA3 JUMP JUMPDEST LT ISZERO PUSH2 0x1DEF JUMPI PUSH1 0x40 MLOAD PUSH32 0x8C379A000000000000000000000000000000000000000000000000000000000 DUP2 MSTORE PUSH1 0x4 ADD PUSH2 0x1DE6 SWAP1 PUSH2 0x3010 JUMP JUMPDEST PUSH1 0x40 MLOAD DUP1 SWAP2 SUB SWAP1 REVERT JUMPDEST DUP1 PUSH1 0x3 PUSH0 CALLER PUSH20 0xFFFFFFFFFFFFFFFFFFFFFFFFFFFFFFFFFFFFFFFF AND PUSH20 0xFFFFFFFFFFFFFFFFFFFFFFFFFFFFFFFFFFFFFFFF AND DUP2 MSTORE PUSH1 0x20 ADD SWAP1 DUP2 MSTORE PUSH1 0x20 ADD PUSH0 KECCAK256 PUSH0 ADD PUSH0 DUP3 DUP3 SLOAD PUSH2 0x1E3D SWAP2 SWAP1 PUSH2 0x288A JUMP JUMPDEST SWAP3 POP POP DUP2 SWAP1 SSTORE POP DUP1 PUSH1 0x4 PUSH0 DUP3 DUP3 SLOAD PUSH2 0x1E55 SWAP2 SWAP1 PUSH2 0x288A JUMP JUMPDEST SWAP3 POP POP DUP2 SWAP1 SSTORE POP CALLER PUSH20 0xFFFFFFFFFFFFFFFFFFFFFFFFFFFFFFFFFFFFFFFF AND PUSH2 0x8FC DUP3 SWAP1 DUP2 ISZERO MUL SWAP1 PUSH1 0x40 MLOAD PUSH0 PUSH1 0x40 MLOAD DUP1 DUP4 SUB DUP2 DUP6 DUP9 DUP9 CALL SWAP4 POP POP POP POP ISZERO DUP1 ISZERO PUSH2 0x1E9F JUMPI RETURNDATASIZE PUSH0 DUP1 RETURNDATACOPY RETURNDATASIZE PUSH0 REVERT JUMPDEST POP POP JUMP JUMPDEST PUSH0 DUP1 SLOAD SWAP1 PUSH2 0x100 EXP SWAP1 DIV PUSH20 0xFFFFFFFFFFFFFFFFFFFFFFFFFFFFFFFFFFFFFFFF AND PUSH20 0xFFFFFFFFFFFFFFFFFFFFFFFFFFFFFFFFFFFFFFFF AND CALLER PUSH20 0xFFFFFFFFFFFFFFFFFFFFFFFFFFFFFFFFFFFFFFFF AND EQ PUSH2 0x1F30 JUMPI PUSH1 0x40 MLOAD PUSH32 0x8C379A000000000000000000000000000000000000000000000000000000000 DUP2 MSTORE PUSH1 0x4 ADD PUSH2 0x1F27 SWAP1 PUSH2 0x3078 JUMP JUMPDEST PUSH1 0x40 MLOAD DUP1 SWAP2 SUB SWAP1 REVERT JUMPDEST PUSH0 PUSH1 0x1 SLOAD SWAP1 POP PUSH0 PUSH1 0x1 DUP2 SWAP1 SSTORE POP PUSH0 DUP1 SLOAD SWAP1 PUSH2 0x100 EXP SWAP1 DIV PUSH20 0xFFFFFFFFFFFFFFFFFFFFFFFFFFFFFFFFFFFFFFFF AND PUSH20 0xFFFFFFFFFFFFFFFFFFFFFFFFFFFFFFFFFFFFFFFF AND PUSH2 0x8FC DUP3 SWAP1 DUP2 ISZERO MUL SWAP1 PUSH1 0x40 MLOAD PUSH0 PUSH1 0x40 MLOAD DUP1 DUP4 SUB DUP2 DUP6 DUP9 DUP9 CALL SWAP4 POP POP POP POP ISZERO DUP1 ISZERO PUSH2 0x1F9F JUMPI RETURNDATASIZE PUSH0 DUP1 RETURNDATACOPY RETURNDATASIZE PUSH0 REVERT JUMPDEST POP POP JUMP JUMPDEST PUSH0 DUP3 DUP3 GT ISZERO PUSH2 0x1FB5 JUMPI PUSH2 0x1FB4 PUSH2 0x3096 JUMP JUMPDEST JUMPDEST DUP2 DUP4 PUSH2 0x1FC1 SWAP2 SWAP1 PUSH2 0x288A JUMP JUMPDEST SWAP1 POP SWAP3 SWAP2 POP POP JUMP JUMPDEST PUSH0 DUP1 DUP4 SUB PUSH2 0x1FD9 JUMPI PUSH0 SWAP1 POP PUSH2 0x2008 JUMP JUMPDEST PUSH0 DUP3 DUP5 PUSH2 0x1FE6 SWAP2 SWAP1 PUSH2 0x2AC2 JUMP JUMPDEST SWAP1 POP DUP3 DUP5 DUP3 PUSH2 0x1FF5 SWAP2 SWAP1 PUSH2 0x27C5 JUMP JUMPDEST EQ PUSH2 0x2003 JUMPI PUSH2 0x2002 PUSH2 0x3096 JUMP JUMPDEST JUMPDEST DUP1 SWAP2 POP POP JUMPDEST SWAP3 SWAP2 POP POP JUMP JUMPDEST PUSH0 DUP1 DUP3 GT PUSH2 0x201F JUMPI PUSH2 0x201E PUSH2 0x3096 JUMP JUMPDEST JUMPDEST PUSH0 DUP3 DUP5 PUSH2 0x202C SWAP2 SWAP1 PUSH2 0x27C5 JUMP JUMPDEST SWAP1 POP DUP1 SWAP2 POP POP SWAP3 SWAP2 POP POP JUMP JUMPDEST PUSH0 PUSH4 0x4000000 DUP3 PUSH4 0xFFFFFFFF AND GT ISZERO PUSH2 0x2053 JUMPI PUSH0 SWAP1 POP PUSH2 0x2136 JUMP JUMPDEST PUSH4 0x1000000 DUP3 PUSH4 0xFFFFFFFF AND LT PUSH2 0x206D JUMPI PUSH1 0xA SWAP1 POP PUSH2 0x2136 JUMP JUMPDEST PUSH3 0x400000 DUP3 PUSH4 0xFFFFFFFF AND LT PUSH2 0x2086 JUMPI PUSH1 0x9 SWAP1 POP PUSH2 0x2136 JUMP JUMPDEST PUSH3 0x100000 DUP3 PUSH4 0xFFFFFFFF AND LT PUSH2 0x209F JUMPI PUSH1 0x8 SWAP1 POP PUSH2 0x2136 JUMP JUMPDEST PUSH3 0x40000 DUP3 PUSH4 0xFFFFFFFF AND LT PUSH2 0x20B8 JUMPI PUSH1 0x7 SWAP1 POP PUSH2 0x2136 JUMP JUMPDEST PUSH3 0x10000 DUP3 PUSH4 0xFFFFFFFF AND LT PUSH2 0x20D1 JUMPI PUSH1 0x6 SWAP1 POP PUSH2 0x2136 JUMP JUMPDEST PUSH2 0x4000 DUP3 PUSH4 0xFFFFFFFF AND LT PUSH2 0x20E9 JUMPI PUSH1 0x5 SWAP1 POP PUSH2 0x2136 JUMP JUMPDEST PUSH2 0x1000 DUP3 PUSH4 0xFFFFFFFF AND LT PUSH2 0x2101 JUMPI PUSH1 0x4 SWAP1 POP PUSH2 0x2136 JUMP JUMPDEST PUSH2 0x400 DUP3 PUSH4 0xFFFFFFFF AND LT PUSH2 0x2119 JUMPI PUSH1 0x3 SWAP1 POP PUSH2 0x2136 JUMP JUMPDEST PUSH2 0x100 DUP3 PUSH4 0xFFFFFFFF AND LT PUSH2 0x2131 JUMPI PUSH1 0x2 SWAP1 POP PUSH2 0x2136 JUMP JUMPDEST PUSH1 0x1 SWAP1 POP JUMPDEST SWAP2 SWAP1 POP JUMP JUMPDEST PUSH0 DUP1 DUP3 SUB PUSH2 0x214B JUMPI PUSH0 SWAP1 POP PUSH2 0x2203 JUMP JUMPDEST PUSH1 0xA DUP3 SUB PUSH2 0x215C JUMPI PUSH1 0x5 SWAP1 POP PUSH2 0x2203 JUMP JUMPDEST PUSH1 0x9 DUP3 SUB PUSH2 0x216D JUMPI PUSH1 0x14 SWAP1 POP PUSH2 0x2203 JUMP JUMPDEST PUSH1 0x8 DUP3 SUB PUSH2 0x217E JUMPI PUSH1 0x50 SWAP1 POP PUSH2 0x2203 JUMP JUMPDEST PUSH1 0x7 DUP3 SUB PUSH2 0x2190 JUMPI PUSH2 0x140 SWAP1 POP PUSH2 0x2203 JUMP JUMPDEST PUSH1 0x6 DUP3 SUB PUSH2 0x21A2 JUMPI PUSH2 0x4B0 SWAP1 POP PUSH2 0x2203 JUMP JUMPDEST PUSH1 0x5 DUP3 SUB PUSH2 0x21B4 JUMPI PUSH2 0x12C0 SWAP1 POP PUSH2 0x2203 JUMP JUMPDEST PUSH1 0x4 DUP3 SUB PUSH2 0x21C6 JUMPI PUSH2 0x4E20 SWAP1 POP PUSH2 0x2203 JUMP JUMPDEST PUSH1 0x3 DUP3 SUB PUSH2 0x21D9 JUMPI PUSH3 0x186A0 SWAP1 POP PUSH2 0x2203 JUMP JUMPDEST PUSH1 0x2 DUP3 SUB PUSH2 0x21EC JUMPI PUSH3 0x7A120 SWAP1 POP PUSH2 0x2203 JUMP JUMPDEST PUSH1 0x1 DUP3 SUB PUSH2 0x21FF JUMPI PUSH3 0x1E8480 SWAP1 POP PUSH2 0x2203 JUMP JUMPDEST PUSH0 SWAP1 POP JUMPDEST SWAP2 SWAP1 POP JUMP JUMPDEST PUSH1 0x40 MLOAD DUP1 PUSH1 0x80 ADD PUSH1 0x40 MSTORE DUP1 PUSH0 PUSH4 0xFFFFFFFF AND DUP2 MSTORE PUSH1 0x20 ADD PUSH0 PUSH1 0xFF AND DUP2 MSTORE PUSH1 0x20 ADD PUSH0 DUP2 MSTORE PUSH1 0x20 ADD PUSH0 PUSH20 0xFFFFFFFFFFFFFFFFFFFFFFFFFFFFFFFFFFFFFFFF AND DUP2 MSTORE POP SWAP1 JUMP JUMPDEST POP DUP1 SLOAD PUSH0 DUP3 SSTORE SWAP1 PUSH0 MSTORE PUSH1 0x20 PUSH0 KECCAK256 SWAP1 DUP2 ADD SWAP1 PUSH2 0x2266 SWAP2 SWAP1 PUSH2 0x228A JUMP JUMPDEST POP JUMP JUMPDEST POP DUP1 SLOAD PUSH0 DUP3 SSTORE PUSH1 0x2 MUL SWAP1 PUSH0 MSTORE PUSH1 0x20 PUSH0 KECCAK256 SWAP1 DUP2 ADD SWAP1 PUSH2 0x2287 SWAP2 SWAP1 PUSH2 0x22C9 JUMP JUMPDEST POP JUMP JUMPDEST JUMPDEST DUP1 DUP3 GT ISZERO PUSH2 0x22C5 JUMPI PUSH0 DUP1 DUP3 ADD PUSH0 PUSH2 0x100 EXP DUP2 SLOAD SWAP1 PUSH4 0xFFFFFFFF MUL NOT AND SWAP1 SSTORE PUSH0 DUP3 ADD PUSH1 0x4 PUSH2 0x100 EXP DUP2 SLOAD SWAP1 PUSH1 0xFF MUL NOT AND SWAP1 SSTORE POP PUSH1 0x1 ADD PUSH2 0x228B JUMP JUMPDEST POP SWAP1 JUMP JUMPDEST JUMPDEST DUP1 DUP3 GT ISZERO PUSH2 0x2327 JUMPI PUSH0 DUP1 DUP3 ADD PUSH0 SWAP1 SSTORE PUSH1 0x1 DUP3 ADD PUSH0 PUSH2 0x100 EXP DUP2 SLOAD SWAP1 PUSH1 0xFF MUL NOT AND SWAP1 SSTORE PUSH1 0x1 DUP3 ADD PUSH1 0x1 PUSH2 0x100 EXP DUP2 SLOAD SWAP1 PUSH31 0xFFFFFFFFFFFFFFFFFFFFFFFFFFFFFFFFFFFFFFFFFFFFFFFFFFFFFFFFFFFFFF MUL NOT AND SWAP1 SSTORE POP PUSH1 0x2 ADD PUSH2 0x22CA JUMP JUMPDEST POP SWAP1 JUMP JUMPDEST PUSH0 DUP1 REVERT JUMPDEST PUSH0 DUP2 SWAP1 POP SWAP2 SWAP1 POP JUMP JUMPDEST PUSH2 0x2341 DUP2 PUSH2 0x232F JUMP JUMPDEST DUP2 EQ PUSH2 0x234B JUMPI PUSH0 DUP1 REVERT JUMPDEST POP JUMP JUMPDEST PUSH0 DUP2 CALLDATALOAD SWAP1 POP PUSH2 0x235C DUP2 PUSH2 0x2338 JUMP JUMPDEST SWAP3 SWAP2 POP POP JUMP JUMPDEST PUSH0 PUSH1 0x20 DUP3 DUP5 SUB SLT ISZERO PUSH2 0x2377 JUMPI PUSH2 0x2376 PUSH2 0x232B JUMP JUMPDEST JUMPDEST PUSH0 PUSH2 0x2384 DUP5 DUP3 DUP6 ADD PUSH2 0x234E JUMP JUMPDEST SWAP2 POP POP SWAP3 SWAP2 POP POP JUMP JUMPDEST PUSH0 DUP2 MLOAD SWAP1 POP SWAP2 SWAP1 POP JUMP JUMPDEST PUSH0 DUP3 DUP3 MSTORE PUSH1 0x20 DUP3 ADD SWAP1 POP SWAP3 SWAP2 POP POP JUMP JUMPDEST PUSH0 DUP2 SWAP1 POP PUSH1 0x20 DUP3 ADD SWAP1 POP SWAP2 SWAP1 POP JUMP JUMPDEST PUSH0 PUSH4 0xFFFFFFFF DUP3 AND SWAP1 POP SWAP2 SWAP1 POP JUMP JUMPDEST PUSH2 0x23CE DUP2 PUSH2 0x23B6 JUMP JUMPDEST DUP3 MSTORE POP POP JUMP JUMPDEST PUSH0 PUSH1 0xFF DUP3 AND SWAP1 POP SWAP2 SWAP1 POP JUMP JUMPDEST PUSH2 0x23E9 DUP2 PUSH2 0x23D4 JUMP JUMPDEST DUP3 MSTORE POP POP JUMP JUMPDEST PUSH2 0x23F8 DUP2 PUSH2 0x232F JUMP JUMPDEST DUP3 MSTORE POP POP JUMP JUMPDEST PUSH0 PUSH20 0xFFFFFFFFFFFFFFFFFFFFFFFFFFFFFFFFFFFFFFFF DUP3 AND SWAP1 POP SWAP2 SWAP1 POP JUMP JUMPDEST PUSH0 PUSH2 0x2427 DUP3 PUSH2 0x23FE JUMP JUMPDEST SWAP1 POP SWAP2 SWAP1 POP JUMP JUMPDEST PUSH2 0x2437 DUP2 PUSH2 0x241D JUMP JUMPDEST DUP3 MSTORE POP POP JUMP JUMPDEST PUSH1 0x80 DUP3 ADD PUSH0 DUP3 ADD MLOAD PUSH2 0x2451 PUSH0 DUP6 ADD DUP3 PUSH2 0x23C5 JUMP JUMPDEST POP PUSH1 0x20 DUP3 ADD MLOAD PUSH2 0x2464 PUSH1 0x20 DUP6 ADD DUP3 PUSH2 0x23E0 JUMP JUMPDEST POP PUSH1 0x40 DUP3 ADD MLOAD PUSH2 0x2477 PUSH1 0x40 DUP6 ADD DUP3 PUSH2 0x23EF JUMP JUMPDEST POP PUSH1 0x60 DUP3 ADD MLOAD PUSH2 0x248A PUSH1 0x60 DUP6 ADD DUP3 PUSH2 0x242E JUMP JUMPDEST POP POP POP POP JUMP JUMPDEST PUSH0 PUSH2 0x249B DUP4 DUP4 PUSH2 0x243D JUMP JUMPDEST PUSH1 0x80 DUP4 ADD SWAP1 POP SWAP3 SWAP2 POP POP JUMP JUMPDEST PUSH0 PUSH1 0x20 DUP3 ADD SWAP1 POP SWAP2 SWAP1 POP JUMP JUMPDEST PUSH0 PUSH2 0x24BD DUP3 PUSH2 0x238D JUMP JUMPDEST PUSH2 0x24C7 DUP2 DUP6 PUSH2 0x2397 JUMP JUMPDEST SWAP4 POP PUSH2 0x24D2 DUP4 PUSH2 0x23A7 JUMP JUMPDEST DUP1 PUSH0 JUMPDEST DUP4 DUP2 LT ISZERO PUSH2 0x2502 JUMPI DUP2 MLOAD PUSH2 0x24E9 DUP9 DUP3 PUSH2 0x2490 JUMP JUMPDEST SWAP8 POP PUSH2 0x24F4 DUP4 PUSH2 0x24A7 JUMP JUMPDEST SWAP3 POP POP PUSH1 0x1 DUP2 ADD SWAP1 POP PUSH2 0x24D5 JUMP JUMPDEST POP DUP6 SWAP4 POP POP POP POP SWAP3 SWAP2 POP POP JUMP JUMPDEST PUSH0 PUSH1 0x20 DUP3 ADD SWAP1 POP DUP2 DUP2 SUB PUSH0 DUP4 ADD MSTORE PUSH2 0x2527 DUP2 DUP5 PUSH2 0x24B3 JUMP JUMPDEST SWAP1 POP SWAP3 SWAP2 POP POP JUMP JUMPDEST PUSH2 0x2538 DUP2 PUSH2 0x241D JUMP JUMPDEST DUP3 MSTORE POP POP JUMP JUMPDEST PUSH0 PUSH1 0x20 DUP3 ADD SWAP1 POP PUSH2 0x2551 PUSH0 DUP4 ADD DUP5 PUSH2 0x252F JUMP JUMPDEST SWAP3 SWAP2 POP POP JUMP JUMPDEST PUSH2 0x2560 DUP2 PUSH2 0x232F JUMP JUMPDEST DUP3 MSTORE POP POP JUMP JUMPDEST PUSH0 PUSH1 0x20 DUP3 ADD SWAP1 POP PUSH2 0x2579 PUSH0 DUP4 ADD DUP5 PUSH2 0x2557 JUMP JUMPDEST SWAP3 SWAP2 POP POP JUMP JUMPDEST PUSH0 PUSH2 0xFFFF DUP3 AND SWAP1 POP SWAP2 SWAP1 POP JUMP JUMPDEST PUSH2 0x2595 DUP2 PUSH2 0x257F JUMP JUMPDEST DUP2 EQ PUSH2 0x259F JUMPI PUSH0 DUP1 REVERT JUMPDEST POP JUMP JUMPDEST PUSH0 DUP2 CALLDATALOAD SWAP1 POP PUSH2 0x25B0 DUP2 PUSH2 0x258C JUMP JUMPDEST SWAP3 SWAP2 POP POP JUMP JUMPDEST PUSH2 0x25BF DUP2 PUSH2 0x23D4 JUMP JUMPDEST DUP2 EQ PUSH2 0x25C9 JUMPI PUSH0 DUP1 REVERT JUMPDEST POP JUMP JUMPDEST PUSH0 DUP2 CALLDATALOAD SWAP1 POP PUSH2 0x25DA DUP2 PUSH2 0x25B6 JUMP JUMPDEST SWAP3 SWAP2 POP POP JUMP JUMPDEST PUSH0 PUSH29 0xFFFFFFFFFFFFFFFFFFFFFFFFFFFFFFFFFFFFFFFFFFFFFFFFFFFFFFFFFF DUP3 AND SWAP1 POP SWAP2 SWAP1 POP JUMP JUMPDEST PUSH2 0x2611 DUP2 PUSH2 0x25E0 JUMP JUMPDEST DUP2 EQ PUSH2 0x261B JUMPI PUSH0 DUP1 REVERT JUMPDEST POP JUMP JUMPDEST PUSH0 DUP2 CALLDATALOAD SWAP1 POP PUSH2 0x262C DUP2 PUSH2 0x2608 JUMP JUMPDEST SWAP3 SWAP2 POP POP JUMP JUMPDEST PUSH2 0x263B DUP2 PUSH2 0x241D JUMP JUMPDEST DUP2 EQ PUSH2 0x2645 JUMPI PUSH0 DUP1 REVERT JUMPDEST POP JUMP JUMPDEST PUSH0 DUP2 CALLDATALOAD SWAP1 POP PUSH2 0x2656 DUP2 PUSH2 0x2632 JUMP JUMPDEST SWAP3 SWAP2 POP POP JUMP JUMPDEST PUSH0 DUP1 PUSH0 DUP1 PUSH1 0x80 DUP6 DUP8 SUB SLT ISZERO PUSH2 0x2674 JUMPI PUSH2 0x2673 PUSH2 0x232B JUMP JUMPDEST JUMPDEST PUSH0 PUSH2 0x2681 DUP8 DUP3 DUP9 ADD PUSH2 0x25A2 JUMP JUMPDEST SWAP5 POP POP PUSH1 0x20 PUSH2 0x2692 DUP8 DUP3 DUP9 ADD PUSH2 0x25CC JUMP JUMPDEST SWAP4 POP POP PUSH1 0x40 PUSH2 0x26A3 DUP8 DUP3 DUP9 ADD PUSH2 0x261E JUMP JUMPDEST SWAP3 POP POP PUSH1 0x60 PUSH2 0x26B4 DUP8 DUP3 DUP9 ADD PUSH2 0x2648 JUMP JUMPDEST SWAP2 POP POP SWAP3 SWAP6 SWAP2 SWAP5 POP SWAP3 POP JUMP JUMPDEST PUSH0 DUP3 DUP3 MSTORE PUSH1 0x20 DUP3 ADD SWAP1 POP SWAP3 SWAP2 POP POP JUMP JUMPDEST PUSH32 0x596F75206D757374206265206120696E766573746F7200000000000000000000 PUSH0 DUP3 ADD MSTORE POP JUMP JUMPDEST PUSH0 PUSH2 0x2704 PUSH1 0x16 DUP4 PUSH2 0x26C0 JUMP JUMPDEST SWAP2 POP PUSH2 0x270F DUP3 PUSH2 0x26D0 JUMP JUMPDEST PUSH1 0x20 DUP3 ADD SWAP1 POP SWAP2 SWAP1 POP JUMP JUMPDEST PUSH0 PUSH1 0x20 DUP3 ADD SWAP1 POP DUP2 DUP2 SUB PUSH0 DUP4 ADD MSTORE PUSH2 0x2731 DUP2 PUSH2 0x26F8 JUMP JUMPDEST SWAP1 POP SWAP2 SWAP1 POP JUMP JUMPDEST PUSH32 0x4E487B7100000000000000000000000000000000000000000000000000000000 PUSH0 MSTORE PUSH1 0x11 PUSH1 0x4 MSTORE PUSH1 0x24 PUSH0 REVERT JUMPDEST PUSH0 PUSH2 0x276F DUP3 PUSH2 0x232F JUMP JUMPDEST SWAP2 POP PUSH2 0x277A DUP4 PUSH2 0x232F JUMP JUMPDEST SWAP3 POP DUP3 DUP3 ADD SWAP1 POP DUP1 DUP3 GT ISZERO PUSH2 0x2792 JUMPI PUSH2 0x2791 PUSH2 0x2738 JUMP JUMPDEST JUMPDEST SWAP3 SWAP2 POP POP JUMP JUMPDEST PUSH32 0x4E487B7100000000000000000000000000000000000000000000000000000000 PUSH0 MSTORE PUSH1 0x12 PUSH1 0x4 MSTORE PUSH1 0x24 PUSH0 REVERT JUMPDEST PUSH0 PUSH2 0x27CF DUP3 PUSH2 0x232F JUMP JUMPDEST SWAP2 POP PUSH2 0x27DA DUP4 PUSH2 0x232F JUMP JUMPDEST SWAP3 POP DUP3 PUSH2 0x27EA JUMPI PUSH2 0x27E9 PUSH2 0x2798 JUMP JUMPDEST JUMPDEST DUP3 DUP3 DIV SWAP1 POP SWAP3 SWAP2 POP POP JUMP JUMPDEST PUSH32 0x4E487B7100000000000000000000000000000000000000000000000000000000 PUSH0 MSTORE PUSH1 0x32 PUSH1 0x4 MSTORE PUSH1 0x24 PUSH0 REVERT JUMPDEST PUSH32 0x4E6F7420656E6F7567682070726F66697420746F207769746864726177210000 PUSH0 DUP3 ADD MSTORE POP JUMP JUMPDEST PUSH0 PUSH2 0x2856 PUSH1 0x1E DUP4 PUSH2 0x26C0 JUMP JUMPDEST SWAP2 POP PUSH2 0x2861 DUP3 PUSH2 0x2822 JUMP JUMPDEST PUSH1 0x20 DUP3 ADD SWAP1 POP SWAP2 SWAP1 POP JUMP JUMPDEST PUSH0 PUSH1 0x20 DUP3 ADD SWAP1 POP DUP2 DUP2 SUB PUSH0 DUP4 ADD MSTORE PUSH2 0x2883 DUP2 PUSH2 0x284A JUMP JUMPDEST SWAP1 POP SWAP2 SWAP1 POP JUMP JUMPDEST PUSH0 PUSH2 0x2894 DUP3 PUSH2 0x232F JUMP JUMPDEST SWAP2 POP PUSH2 0x289F DUP4 PUSH2 0x232F JUMP JUMPDEST SWAP3 POP DUP3 DUP3 SUB SWAP1 POP DUP2 DUP2 GT ISZERO PUSH2 0x28B7 JUMPI PUSH2 0x28B6 PUSH2 0x2738 JUMP JUMPDEST JUMPDEST SWAP3 SWAP2 POP POP JUMP JUMPDEST PUSH32 0x4E487B7100000000000000000000000000000000000000000000000000000000 PUSH0 MSTORE PUSH1 0x41 PUSH1 0x4 MSTORE PUSH1 0x24 PUSH0 REVERT JUMPDEST PUSH32 0x496E766573746D656E7420616D6F756E7420626574657765656E203120616E64 PUSH0 DUP3 ADD MSTORE PUSH32 0x2031303030000000000000000000000000000000000000000000000000000000 PUSH1 0x20 DUP3 ADD MSTORE POP JUMP JUMPDEST PUSH0 PUSH2 0x2944 PUSH1 0x25 DUP4 PUSH2 0x26C0 JUMP JUMPDEST SWAP2 POP PUSH2 0x294F DUP3 PUSH2 0x28EA JUMP JUMPDEST PUSH1 0x40 DUP3 ADD SWAP1 POP SWAP2 SWAP1 POP JUMP JUMPDEST PUSH0 PUSH1 0x20 DUP3 ADD SWAP1 POP DUP2 DUP2 SUB PUSH0 DUP4 ADD MSTORE PUSH2 0x2971 DUP2 PUSH2 0x2938 JUMP JUMPDEST SWAP1 POP SWAP2 SWAP1 POP JUMP JUMPDEST PUSH32 0x596F7520646F6E2774206861766520756E64726177206C6F7474657279207469 PUSH0 DUP3 ADD MSTORE PUSH32 0x636B657473000000000000000000000000000000000000000000000000000000 PUSH1 0x20 DUP3 ADD MSTORE POP JUMP JUMPDEST PUSH0 PUSH2 0x29D2 PUSH1 0x25 DUP4 PUSH2 0x26C0 JUMP JUMPDEST SWAP2 POP PUSH2 0x29DD DUP3 PUSH2 0x2978 JUMP JUMPDEST PUSH1 0x40 DUP3 ADD SWAP1 POP SWAP2 SWAP1 POP JUMP JUMPDEST PUSH0 PUSH1 0x20 DUP3 ADD SWAP1 POP DUP2 DUP2 SUB PUSH0 DUP4 ADD MSTORE PUSH2 0x29FF DUP2 PUSH2 0x29C6 JUMP JUMPDEST SWAP1 POP SWAP2 SWAP1 POP JUMP JUMPDEST PUSH32 0x49742773206E6F742074696D6500000000000000000000000000000000000000 PUSH0 DUP3 ADD MSTORE POP JUMP JUMPDEST PUSH0 PUSH2 0x2A3A PUSH1 0xD DUP4 PUSH2 0x26C0 JUMP JUMPDEST SWAP2 POP PUSH2 0x2A45 DUP3 PUSH2 0x2A06 JUMP JUMPDEST PUSH1 0x20 DUP3 ADD SWAP1 POP SWAP2 SWAP1 POP JUMP JUMPDEST PUSH0 PUSH1 0x20 DUP3 ADD SWAP1 POP DUP2 DUP2 SUB PUSH0 DUP4 ADD MSTORE PUSH2 0x2A67 DUP2 PUSH2 0x2A2E JUMP JUMPDEST SWAP1 POP SWAP2 SWAP1 POP JUMP JUMPDEST PUSH0 DUP2 SWAP1 POP SWAP2 SWAP1 POP JUMP JUMPDEST PUSH0 DUP2 SWAP1 POP SWAP2 SWAP1 POP JUMP JUMPDEST PUSH2 0x2A91 PUSH2 0x2A8C DUP3 PUSH2 0x2A6E JUMP JUMPDEST PUSH2 0x2A77 JUMP JUMPDEST DUP3 MSTORE POP POP JUMP JUMPDEST PUSH0 PUSH2 0x2AA2 DUP3 DUP6 PUSH2 0x2A80 JUMP JUMPDEST PUSH1 0x20 DUP3 ADD SWAP2 POP PUSH2 0x2AB2 DUP3 DUP5 PUSH2 0x2A80 JUMP JUMPDEST PUSH1 0x20 DUP3 ADD SWAP2 POP DUP2 SWAP1 POP SWAP4 SWAP3 POP POP POP JUMP JUMPDEST PUSH0 PUSH2 0x2ACC DUP3 PUSH2 0x232F JUMP JUMPDEST SWAP2 POP PUSH2 0x2AD7 DUP4 PUSH2 0x232F JUMP JUMPDEST SWAP3 POP DUP3 DUP3 MUL PUSH2 0x2AE5 DUP2 PUSH2 0x232F JUMP JUMPDEST SWAP2 POP DUP3 DUP3 DIV DUP5 EQ DUP4 ISZERO OR PUSH2 0x2AFC JUMPI PUSH2 0x2AFB PUSH2 0x2738 JUMP JUMPDEST JUMPDEST POP SWAP3 SWAP2 POP POP JUMP JUMPDEST PUSH32 0x427579206174206C65617374206F6E6520656767000000000000000000000000 PUSH0 DUP3 ADD MSTORE POP JUMP JUMPDEST PUSH0 PUSH2 0x2B37 PUSH1 0x14 DUP4 PUSH2 0x26C0 JUMP JUMPDEST SWAP2 POP PUSH2 0x2B42 DUP3 PUSH2 0x2B03 JUMP JUMPDEST PUSH1 0x20 DUP3 ADD SWAP1 POP SWAP2 SWAP1 POP JUMP JUMPDEST PUSH0 PUSH1 0x20 DUP3 ADD SWAP1 POP DUP2 DUP2 SUB PUSH0 DUP4 ADD MSTORE PUSH2 0x2B64 DUP2 PUSH2 0x2B2B JUMP JUMPDEST SWAP1 POP SWAP2 SWAP1 POP JUMP JUMPDEST PUSH32 0x4D756C7469706C6573206265747765656E203120616E64203130300000000000 PUSH0 DUP3 ADD MSTORE POP JUMP JUMPDEST PUSH0 PUSH2 0x2B9F PUSH1 0x1B DUP4 PUSH2 0x26C0 JUMP JUMPDEST SWAP2 POP PUSH2 0x2BAA DUP3 PUSH2 0x2B6B JUMP JUMPDEST PUSH1 0x20 DUP3 ADD SWAP1 POP SWAP2 SWAP1 POP JUMP JUMPDEST PUSH0 PUSH1 0x20 DUP3 ADD SWAP1 POP DUP2 DUP2 SUB PUSH0 DUP4 ADD MSTORE PUSH2 0x2BCC DUP2 PUSH2 0x2B93 JUMP JUMPDEST SWAP1 POP SWAP2 SWAP1 POP JUMP JUMPDEST PUSH32 0x4E756D626572206F662065676773206265747765656E203120616E6420313030 PUSH0 DUP3 ADD MSTORE POP JUMP JUMPDEST PUSH0 PUSH2 0x2C07 PUSH1 0x20 DUP4 PUSH2 0x26C0 JUMP JUMPDEST SWAP2 POP PUSH2 0x2C12 DUP3 PUSH2 0x2BD3 JUMP JUMPDEST PUSH1 0x20 DUP3 ADD SWAP1 POP SWAP2 SWAP1 POP JUMP JUMPDEST PUSH0 PUSH1 0x20 DUP3 ADD SWAP1 POP DUP2 DUP2 SUB PUSH0 DUP4 ADD MSTORE PUSH2 0x2C34 DUP2 PUSH2 0x2BFB JUMP JUMPDEST SWAP1 POP SWAP2 SWAP1 POP JUMP JUMPDEST PUSH0 PUSH2 0x2C45 DUP3 PUSH2 0x257F JUMP JUMPDEST SWAP2 POP PUSH2 0x2C50 DUP4 PUSH2 0x257F JUMP JUMPDEST SWAP3 POP DUP3 DUP3 MUL PUSH2 0x2C5E DUP2 PUSH2 0x257F JUMP JUMPDEST SWAP2 POP DUP1 DUP3 EQ PUSH2 0x2C70 JUMPI PUSH2 0x2C6F PUSH2 0x2738 JUMP JUMPDEST JUMPDEST POP SWAP3 SWAP2 POP POP JUMP JUMPDEST PUSH32 0x496E76616C696420646174610000000000000000000000000000000000000000 PUSH0 DUP3 ADD MSTORE POP JUMP JUMPDEST PUSH0 PUSH2 0x2CAB PUSH1 0xC DUP4 PUSH2 0x26C0 JUMP JUMPDEST SWAP2 POP PUSH2 0x2CB6 DUP3 PUSH2 0x2C77 JUMP JUMPDEST PUSH1 0x20 DUP3 ADD SWAP1 POP SWAP2 SWAP1 POP JUMP JUMPDEST PUSH0 PUSH1 0x20 DUP3 ADD SWAP1 POP DUP2 DUP2 SUB PUSH0 DUP4 ADD MSTORE PUSH2 0x2CD8 DUP2 PUSH2 0x2C9F JUMP JUMPDEST SWAP1 POP SWAP2 SWAP1 POP JUMP JUMPDEST PUSH0 PUSH2 0x2CE9 DUP3 PUSH2 0x25E0 JUMP JUMPDEST SWAP2 POP PUSH29 0xFFFFFFFFFFFFFFFFFFFFFFFFFFFFFFFFFFFFFFFFFFFFFFFFFFFFFFFFFF DUP3 SUB PUSH2 0x2D18 JUMPI PUSH2 0x2D17 PUSH2 0x2738 JUMP JUMPDEST JUMPDEST PUSH1 0x1 DUP3 ADD SWAP1 POP SWAP2 SWAP1 POP JUMP JUMPDEST PUSH0 DUP2 SWAP1 POP SWAP2 SWAP1 POP JUMP JUMPDEST PUSH2 0x2D3D PUSH2 0x2D38 DUP3 PUSH2 0x232F JUMP JUMPDEST PUSH2 0x2D23 JUMP JUMPDEST DUP3 MSTORE POP POP JUMP JUMPDEST PUSH0 PUSH2 0x2D4D DUP3 PUSH2 0x23FE JUMP JUMPDEST SWAP1 POP SWAP2 SWAP1 POP JUMP JUMPDEST PUSH0 DUP2 PUSH1 0x60 SHL SWAP1 POP SWAP2 SWAP1 POP JUMP JUMPDEST PUSH0 PUSH2 0x2D6A DUP3 PUSH2 0x2D54 JUMP JUMPDEST SWAP1 POP SWAP2 SWAP1 POP JUMP JUMPDEST PUSH0 PUSH2 0x2D7B DUP3 PUSH2 0x2D60 JUMP JUMPDEST SWAP1 POP SWAP2 SWAP1 POP JUMP JUMPDEST PUSH2 0x2D93 PUSH2 0x2D8E DUP3 PUSH2 0x2D43 JUMP JUMPDEST PUSH2 0x2D71 JUMP JUMPDEST DUP3 MSTORE POP POP JUMP JUMPDEST PUSH0 PUSH2 0x2DA3 DUP3 PUSH2 0x2D60 JUMP JUMPDEST SWAP1 POP SWAP2 SWAP1 POP JUMP JUMPDEST PUSH2 0x2DBB PUSH2 0x2DB6 DUP3 PUSH2 0x241D JUMP JUMPDEST PUSH2 0x2D99 JUMP JUMPDEST DUP3 MSTORE POP POP JUMP JUMPDEST PUSH0 DUP2 PUSH1 0x18 SHL SWAP1 POP SWAP2 SWAP1 POP JUMP JUMPDEST PUSH0 PUSH2 0x2DD7 DUP3 PUSH2 0x2DC1 JUMP JUMPDEST SWAP1 POP SWAP2 SWAP1 POP JUMP JUMPDEST PUSH2 0x2DEF PUSH2 0x2DEA DUP3 PUSH2 0x25E0 JUMP JUMPDEST PUSH2 0x2DCD JUMP JUMPDEST DUP3 MSTORE POP POP JUMP JUMPDEST PUSH0 PUSH2 0x2E00 DUP3 DUP8 PUSH2 0x2D2C JUMP JUMPDEST PUSH1 0x20 DUP3 ADD SWAP2 POP PUSH2 0x2E10 DUP3 DUP7 PUSH2 0x2D82 JUMP JUMPDEST PUSH1 0x14 DUP3 ADD SWAP2 POP PUSH2 0x2E20 DUP3 DUP6 PUSH2 0x2DAA JUMP JUMPDEST PUSH1 0x14 DUP3 ADD SWAP2 POP PUSH2 0x2E30 DUP3 DUP5 PUSH2 0x2DDE JUMP JUMPDEST PUSH1 0x1D DUP3 ADD SWAP2 POP DUP2 SWAP1 POP SWAP6 SWAP5 POP POP POP POP POP JUMP JUMPDEST PUSH32 0x4D696E696D756D20696E766573746D656E7420616D6F756E7420697320726571 PUSH0 DUP3 ADD MSTORE PUSH32 0x75697265642C6974277320736D616C6C6572207468616E20746865206D696E69 PUSH1 0x20 DUP3 ADD MSTORE PUSH32 0x6D756D206465706F736974000000000000000000000000000000000000000000 PUSH1 0x40 DUP3 ADD MSTORE POP JUMP JUMPDEST PUSH0 PUSH2 0x2EC2 PUSH1 0x4B DUP4 PUSH2 0x26C0 JUMP JUMPDEST SWAP2 POP PUSH2 0x2ECD DUP3 PUSH2 0x2E42 JUMP JUMPDEST PUSH1 0x60 DUP3 ADD SWAP1 POP SWAP2 SWAP1 POP JUMP JUMPDEST PUSH0 PUSH1 0x20 DUP3 ADD SWAP1 POP DUP2 DUP2 SUB PUSH0 DUP4 ADD MSTORE PUSH2 0x2EEF DUP2 PUSH2 0x2EB6 JUMP JUMPDEST SWAP1 POP SWAP2 SWAP1 POP JUMP JUMPDEST PUSH32 0x4E6F7420656E6F7567682066756E6420746F2077697468647261772100000000 PUSH0 DUP3 ADD MSTORE POP JUMP JUMPDEST PUSH0 PUSH2 0x2F2A PUSH1 0x1C DUP4 PUSH2 0x26C0 JUMP JUMPDEST SWAP2 POP PUSH2 0x2F35 DUP3 PUSH2 0x2EF6 JUMP JUMPDEST PUSH1 0x20 DUP3 ADD SWAP1 POP SWAP2 SWAP1 POP JUMP JUMPDEST PUSH0 PUSH1 0x20 DUP3 ADD SWAP1 POP DUP2 DUP2 SUB PUSH0 DUP4 ADD MSTORE PUSH2 0x2F57 DUP2 PUSH2 0x2F1E JUMP JUMPDEST SWAP1 POP SWAP2 SWAP1 POP JUMP JUMPDEST PUSH32 0x43616E6E6F74207769746864726177206166746572206F6E65207765656B2100 PUSH0 DUP3 ADD MSTORE POP JUMP JUMPDEST PUSH0 PUSH2 0x2F92 PUSH1 0x1F DUP4 PUSH2 0x26C0 JUMP JUMPDEST SWAP2 POP PUSH2 0x2F9D DUP3 PUSH2 0x2F5E JUMP JUMPDEST PUSH1 0x20 DUP3 ADD SWAP1 POP SWAP2 SWAP1 POP JUMP JUMPDEST PUSH0 PUSH1 0x20 DUP3 ADD SWAP1 POP DUP2 DUP2 SUB PUSH0 DUP4 ADD MSTORE PUSH2 0x2FBF DUP2 PUSH2 0x2F86 JUMP JUMPDEST SWAP1 POP SWAP2 SWAP1 POP JUMP JUMPDEST PUSH32 0x496E73756666696369656E742066756E6420746F207769746864726177210000 PUSH0 DUP3 ADD MSTORE POP JUMP JUMPDEST PUSH0 PUSH2 0x2FFA PUSH1 0x1E DUP4 PUSH2 0x26C0 JUMP JUMPDEST SWAP2 POP PUSH2 0x3005 DUP3 PUSH2 0x2FC6 JUMP JUMPDEST PUSH1 0x20 DUP3 ADD SWAP1 POP SWAP2 SWAP1 POP JUMP JUMPDEST PUSH0 PUSH1 0x20 DUP3 ADD SWAP1 POP DUP2 DUP2 SUB PUSH0 DUP4 ADD MSTORE PUSH2 0x3027 DUP2 PUSH2 0x2FEE JUMP JUMPDEST SWAP1 POP SWAP2 SWAP1 POP JUMP JUMPDEST PUSH32 0x596F75206D7573742062652074686520646576656C6F70657200000000000000 PUSH0 DUP3 ADD MSTORE POP JUMP JUMPDEST PUSH0 PUSH2 0x3062 PUSH1 0x19 DUP4 PUSH2 0x26C0 JUMP JUMPDEST SWAP2 POP PUSH2 0x306D DUP3 PUSH2 0x302E JUMP JUMPDEST PUSH1 0x20 DUP3 ADD SWAP1 POP SWAP2 SWAP1 POP JUMP JUMPDEST PUSH0 PUSH1 0x20 DUP3 ADD SWAP1 POP DUP2 DUP2 SUB PUSH0 DUP4 ADD MSTORE PUSH2 0x308F DUP2 PUSH2 0x3056 JUMP JUMPDEST SWAP1 POP SWAP2 SWAP1 POP JUMP JUMPDEST PUSH32 0x4E487B7100000000000000000000000000000000000000000000000000000000 PUSH0 MSTORE PUSH1 0x1 PUSH1 0x4 MSTORE PUSH1 0x24 PUSH0 REVERT INVALID LOG2 PUSH5 0x6970667358 0x22 SLT KECCAK256 PUSH22 0x1D18F40D59C756396C0AEBB7EE752DE71AF41BC95608 LOG2 0xDA 0xB7 0xD7 LT 0xCB 0xE0 PUSH29 0xC464736F6C634300081A00330000000000000000000000000000000000 "
		},
		"gasEstimates": {
			"creation": {
				"codeDepositCost": "2507400",
				"executionCost": "71192",
				"totalCost": "2578592"
			},
			"external": {
				"BuyEggs(uint16,uint8,uint232,address)": "infinite",
				"DevAddress()": "2616",
				"DeveloperWithdrawal()": "infinite",
				"DistributeInvestmentIncome()": "infinite",
				"GetWinningRecord(uint256)": "infinite",
				"InvestmentDeposit()": "infinite",
				"InvestmentWithdrawal(uint256)": "infinite",
				"InvestorsProfit()": "2491",
				"OpenEggs()": "infinite",
				"RecentDividendTime()": "2447",
				"TotalInvestmentAmount()": "2425",
				"WithdrawReferralProfit()": "infinite"
			},
			"internal": {
				"GetWinninggrade(uint32)": "331",
				"GetWinningmultiple(uint256)": "291",
				"SafeMathadd(uint256,uint256)": "infinite",
				"SafeMathdiv(uint256,uint256)": "infinite",
				"SafeMathmul(uint256,uint256)": "infinite",
				"SafeMathsub(uint256,uint256)": "infinite"
			}
		},
		"methodIdentifiers": {
			"BuyEggs(uint16,uint8,uint232,address)": "c9ea0299",
			"DevAddress()": "89a4c1a0",
			"DeveloperWithdrawal()": "f4e79b5b",
			"DistributeInvestmentIncome()": "12db1357",
			"GetWinningRecord(uint256)": "2b5baca1",
			"InvestmentDeposit()": "49821332",
			"InvestmentWithdrawal(uint256)": "dd5f6f4d",
			"InvestorsProfit()": "ca6aae29",
			"OpenEggs()": "7da384fd",
			"RecentDividendTime()": "b1c617ff",
			"TotalInvestmentAmount()": "a659f4dc",
			"WithdrawReferralProfit()": "22629256"
		}
	},
	"abi": [
		{
			"inputs": [],
			"stateMutability": "nonpayable",
			"type": "constructor"
		},
		{
			"inputs": [
				{
					"internalType": "uint16",
					"name": "LotCount",
					"type": "uint16"
				},
				{
					"internalType": "uint8",
					"name": "mul",
					"type": "uint8"
				},
				{
					"internalType": "uint232",
					"name": "Lucknum",
					"type": "uint232"
				},
				{
					"internalType": "address",
					"name": "ref",
					"type": "address"
				}
			],
			"name": "BuyEggs",
			"outputs": [],
			"stateMutability": "payable",
			"type": "function"
		},
		{
			"inputs": [],
			"name": "DevAddress",
			"outputs": [
				{
					"internalType": "address",
					"name": "",
					"type": "address"
				}
			],
			"stateMutability": "view",
			"type": "function"
		},
		{
			"inputs": [],
			"name": "DeveloperWithdrawal",
			"outputs": [],
			"stateMutability": "nonpayable",
			"type": "function"
		},
		{
			"inputs": [],
			"name": "DistributeInvestmentIncome",
			"outputs": [],
			"stateMutability": "nonpayable",
			"type": "function"
		},
		{
			"inputs": [
				{
					"internalType": "uint256",
					"name": "RecordCount",
					"type": "uint256"
				}
			],
			"name": "GetWinningRecord",
			"outputs": [
				{
					"components": [
						{
							"internalType": "uint32",
							"name": "LotteryNum",
							"type": "uint32"
						},
						{
							"internalType": "uint8",
							"name": "mul",
							"type": "uint8"
						},
						{
							"internalType": "uint256",
							"name": "timestamp",
							"type": "uint256"
						},
						{
							"internalType": "address",
							"name": "winner",
							"type": "address"
						}
					],
					"internalType": "struct LotteryGame.Winninginfo[]",
					"name": "",
					"type": "tuple[]"
				}
			],
			"stateMutability": "view",
			"type": "function"
		},
		{
			"inputs": [],
			"name": "InvestmentDeposit",
			"outputs": [],
			"stateMutability": "payable",
			"type": "function"
		},
		{
			"inputs": [
				{
					"internalType": "uint256",
					"name": "WithdrawalAmount",
					"type": "uint256"
				}
			],
			"name": "InvestmentWithdrawal",
			"outputs": [],
			"stateMutability": "nonpayable",
			"type": "function"
		},
		{
			"inputs": [],
			"name": "InvestorsProfit",
			"outputs": [
				{
					"internalType": "uint256",
					"name": "",
					"type": "uint256"
				}
			],
			"stateMutability": "view",
			"type": "function"
		},
		{
			"inputs": [],
			"name": "OpenEggs",
			"outputs": [],
			"stateMutability": "nonpayable",
			"type": "function"
		},
		{
			"inputs": [],
			"name": "RecentDividendTime",
			"outputs": [
				{
					"internalType": "uint256",
					"name": "",
					"type": "uint256"
				}
			],
			"stateMutability": "view",
			"type": "function"
		},
		{
			"inputs": [],
			"name": "TotalInvestmentAmount",
			"outputs": [
				{
					"internalType": "uint256",
					"name": "",
					"type": "uint256"
				}
			],
			"stateMutability": "view",
			"type": "function"
		},
		{
			"inputs": [],
			"name": "WithdrawReferralProfit",
			"outputs": [],
			"stateMutability": "nonpayable",
			"type": "function"
		}
	]
}