{
	"data": {
		"bytecode": {
			"linkReferences": {},
			"object": "6080604052348015600e575f80fd5b50335f806101000a81548173ffffffffffffffffffffffffffffffffffffffff021916908373ffffffffffffffffffffffffffffffffffffffff1602179055504260068190555042600881905550611dbb806100695f395ff3fe608060405260043610610054575f3560e01c80637da384fd1461005857806389a4c1a01461006e578063a659f4dc14610098578063b1c617ff146100c2578063c9ea0299146100ec578063ca6aae2914610108575b5f80fd5b348015610063575f80fd5b5061006c610132565b005b348015610079575f80fd5b50610082610a89565b60405161008f91906115c6565b60405180910390f35b3480156100a3575f80fd5b506100ac610aac565b6040516100b991906115f7565b60405180910390f35b3480156100cd575f80fd5b506100d6610ab2565b6040516100e391906115f7565b60405180910390f35b610106600480360381019061010191906116fd565b610ab8565b005b348015610113575f80fd5b5061011c61123c565b60405161012991906115f7565b60405180910390f35b5f60095f3373ffffffffffffffffffffffffffffffffffffffff1673ffffffffffffffffffffffffffffffffffffffff1681526020019081526020015f205f0180549050116101b6576040517f08c379a00000000000000000000000000000000000000000000000000000000081526004016101ad906117e1565b60405180910390fd5b60095f3373ffffffffffffffffffffffffffffffffffffffff1673ffffffffffffffffffffffffffffffffffffffff1681526020019081526020015f205f01600160095f3373ffffffffffffffffffffffffffffffffffffffff1673ffffffffffffffffffffffffffffffffffffffff1681526020019081526020015f205f0180549050610244919061182c565b815481106102555761025461185f565b5b905f5260205f20906002020160010160019054906101000a90047effffffffffffffffffffffffffffffffffffffffffffffffffffffffffffff167effffffffffffffffffffffffffffffffffffffffffffffffffffffffffffff1643116102f2576040517f08c379a00000000000000000000000000000000000000000000000000000000081526004016102e9906118d6565b60405180910390fd5b5f60095f3373ffffffffffffffffffffffffffffffffffffffff1673ffffffffffffffffffffffffffffffffffffffff1681526020019081526020015f206001018054905011156103895760095f3373ffffffffffffffffffffffffffffffffffffffff1673ffffffffffffffffffffffffffffffffffffffff1681526020019081526020015f206001015f61038891906114a7565b5b5f805f90505b60095f3373ffffffffffffffffffffffffffffffffffffffff1673ffffffffffffffffffffffffffffffffffffffff1681526020019081526020015f205f0180549050811015610944575f60095f3373ffffffffffffffffffffffffffffffffffffffff1673ffffffffffffffffffffffffffffffffffffffff1681526020019081526020015f205f01828154811061042b5761042a61185f565b5b905f5260205f20906002020160010160019054906101000a90047effffffffffffffffffffffffffffffffffffffffffffffffffffffffffffff167effffffffffffffffffffffffffffffffffffffffffffffffffffffffffffff16405f1c0315610937575f60095f3373ffffffffffffffffffffffffffffffffffffffff1673ffffffffffffffffffffffffffffffffffffffff1681526020019081526020015f205f0182815481106104e2576104e161185f565b5b905f5260205f2090600202015f015460095f3373ffffffffffffffffffffffffffffffffffffffff1673ffffffffffffffffffffffffffffffffffffffff1681526020019081526020015f205f0183815481106105425761054161185f565b5b905f5260205f20906002020160010160019054906101000a90047effffffffffffffffffffffffffffffffffffffffffffffffffffffffffffff167effffffffffffffffffffffffffffffffffffffffffffffffffffffffffffff16406040516020016105b092919061191d565b6040516020818303038152906040528051906020012060e01c90505f6105d582611242565b90505f8111156107fd575f66470de4df82000060095f3373ffffffffffffffffffffffffffffffffffffffff1673ffffffffffffffffffffffffffffffffffffffff1681526020019081526020015f205f0185815481106106395761063861185f565b5b905f5260205f2090600202016001015f9054906101000a900460ff1660ff1661066184611345565b61066b9190611948565b6106759190611948565b905080856106839190611989565b94505f60405180608001604052808563ffffffff16815260200160095f3373ffffffffffffffffffffffffffffffffffffffff1673ffffffffffffffffffffffffffffffffffffffff1681526020019081526020015f205f0187815481106106ee576106ed61185f565b5b905f5260205f2090600202016001015f9054906101000a900460ff1660ff1681526020014264ffffffffff1681526020013373ffffffffffffffffffffffffffffffffffffffff168152509050600b81908060018154018082558091505060019003905f5260205f2090600302015f909190919091505f820151815f015f6101000a81548163ffffffff021916908363ffffffff1602179055506020820151815f0160046101000a81548160ff021916908360ff160217905550604082015181600101556060820151816002015f6101000a81548173ffffffffffffffffffffffffffffffffffffffff021916908373ffffffffffffffffffffffffffffffffffffffff160217905550505050505b5f60405180604001604052808463ffffffff16815260200160095f3373ffffffffffffffffffffffffffffffffffffffff1673ffffffffffffffffffffffffffffffffffffffff1681526020019081526020015f205f0186815481106108665761086561185f565b5b905f5260205f2090600202016001015f9054906101000a900460ff1660ff16815250905060095f3373ffffffffffffffffffffffffffffffffffffffff1673ffffffffffffffffffffffffffffffffffffffff1681526020019081526020015f2060010181908060018154018082558091505060019003905f5260205f20015f909190919091505f820151815f015f6101000a81548163ffffffff021916908363ffffffff1602179055506020820151815f0160046101000a81548160ff021916908360ff16021790555050505050505b808060010191505061038f565b5060095f3373ffffffffffffffffffffffffffffffffffffffff1673ffffffffffffffffffffffffffffffffffffffff1681526020019081526020015f205f015f61098f91906114c5565b5f811115610a86575f6109d26109cb6109c4476001546007546005546109b59190611989565b6109bf9190611989565b611412565b6046611438565b606461147d565b9050808211156109e0578091505b5f6109f66109ef846005611438565b606461147d565b90508060055f828254610a099190611989565b925050819055508060015f828254610a219190611989565b925050819055503373ffffffffffffffffffffffffffffffffffffffff166108fc600283610a4f9190611948565b85610a5a919061182c565b90811502906040515f60405180830381858888f19350505050158015610a82573d5f803e3d5ffd5b5050505b50565b5f8054906101000a900473ffffffffffffffffffffffffffffffffffffffff1681565b60045481565b60065481565b66470de4df820000341015610b02576040517f08c379a0000000000000000000000000000000000000000000000000000000008152600401610af990611a06565b60405180910390fd5b60018360ff1610158015610b1a575060648360ff1611155b610b59576040517f08c379a0000000000000000000000000000000000000000000000000000000008152600401610b5090611a6e565b60405180910390fd5b60018461ffff1610158015610b7457506103e88461ffff1611155b610bb3576040517f08c379a0000000000000000000000000000000000000000000000000000000008152600401610baa90611ad6565b60405180910390fd5b5f610bc53466470de4df82000061147d565b90508360ff1685610bd69190611af4565b61ffff168114610c1b576040517f08c379a0000000000000000000000000000000000000000000000000000000008152600401610c1290611b7a565b60405180910390fd5b5f5b8561ffff16811015610d9e575f60405180606001604052804241338980610c4390611b98565b9a50604051602001610c589493929190611cae565b6040516020818303038152906040528051906020012081526020018760ff168152602001437effffffffffffffffffffffffffffffffffffffffffffffffffffffffffffff16815250905060095f3373ffffffffffffffffffffffffffffffffffffffff1673ffffffffffffffffffffffffffffffffffffffff1681526020019081526020015f205f0181908060018154018082558091505060019003905f5260205f2090600202015f909190919091505f820151815f01556020820151816001015f6101000a81548160ff021916908360ff16021790555060408201518160010160016101000a8154817effffffffffffffffffffffffffffffffffffffffffffffffffffffffffffff02191690837effffffffffffffffffffffffffffffffffffffffffffffffffffffffffffff1602179055505050508080600101915050610c1d565b5060095f3373ffffffffffffffffffffffffffffffffffffffff1673ffffffffffffffffffffffffffffffffffffffff1681526020019081526020015f206003015f9054906101000a900460ff16610e4957600160095f3373ffffffffffffffffffffffffffffffffffffffff1673ffffffffffffffffffffffffffffffffffffffff1681526020019081526020015f206003015f6101000a81548160ff0219169083151502179055505b5f610e5f610e58346003611438565b606461147d565b90505f610e77610e70346004611438565b606461147d565b90508160015f828254610e8a9190611989565b925050819055508160055f828254610ea29190611989565b925050819055505f73ffffffffffffffffffffffffffffffffffffffff16600a5f3373ffffffffffffffffffffffffffffffffffffffff1673ffffffffffffffffffffffffffffffffffffffff1681526020019081526020015f205f9054906101000a900473ffffffffffffffffffffffffffffffffffffffff1673ffffffffffffffffffffffffffffffffffffffff1603611233573373ffffffffffffffffffffffffffffffffffffffff168473ffffffffffffffffffffffffffffffffffffffff161480610f9d57505f73ffffffffffffffffffffffffffffffffffffffff168473ffffffffffffffffffffffffffffffffffffffff16145b80610ff2575060095f3373ffffffffffffffffffffffffffffffffffffffff1673ffffffffffffffffffffffffffffffffffffffff1681526020019081526020015f206003015f9054906101000a900460ff16155b1561101a575f8054906101000a900473ffffffffffffffffffffffffffffffffffffffff1693505b83600a5f3373ffffffffffffffffffffffffffffffffffffffff1673ffffffffffffffffffffffffffffffffffffffff1681526020019081526020015f205f6101000a81548173ffffffffffffffffffffffffffffffffffffffff021916908373ffffffffffffffffffffffffffffffffffffffff1602179055505f8054906101000a900473ffffffffffffffffffffffffffffffffffffffff1673ffffffffffffffffffffffffffffffffffffffff16600a5f3373ffffffffffffffffffffffffffffffffffffffff1673ffffffffffffffffffffffffffffffffffffffff1681526020019081526020015f205f9054906101000a900473ffffffffffffffffffffffffffffffffffffffff1673ffffffffffffffffffffffffffffffffffffffff1603611160578060015f8282546111549190611989565b9250508190555061122b565b8060095f600a5f3373ffffffffffffffffffffffffffffffffffffffff1673ffffffffffffffffffffffffffffffffffffffff1681526020019081526020015f205f9054906101000a900473ffffffffffffffffffffffffffffffffffffffff1673ffffffffffffffffffffffffffffffffffffffff1673ffffffffffffffffffffffffffffffffffffffff1681526020019081526020015f206002015f82825461120b9190611989565b925050819055508060075f8282546112239190611989565b925050819055505b426008819055505b50505050505050565b60055481565b5f63040000008263ffffffff16111561125d575f9050611340565b63010000008263ffffffff161061127757600a9050611340565b624000008263ffffffff16106112905760099050611340565b621000008263ffffffff16106112a95760089050611340565b620400008263ffffffff16106112c25760079050611340565b620100008263ffffffff16106112db5760069050611340565b6140008263ffffffff16106112f35760059050611340565b6110008263ffffffff161061130b5760049050611340565b6104008263ffffffff16106113235760039050611340565b6101008263ffffffff161061133b5760029050611340565b600190505b919050565b5f808203611355575f905061140d565b600a8203611366576005905061140d565b60098203611377576014905061140d565b60088203611388576050905061140d565b6007820361139a57610140905061140d565b600682036113ac576104b0905061140d565b600582036113be576112c0905061140d565b600482036113d057614e20905061140d565b600382036113e357620186a0905061140d565b600282036113f6576207a120905061140d565b6001820361140957621e8480905061140d565b5f90505b919050565b5f8282111561142457611423611cfb565b5b8183611430919061182c565b905092915050565b5f808303611448575f9050611477565b5f82846114559190611948565b90508284826114649190611d55565b1461147257611471611cfb565b5b809150505b92915050565b5f80821161148e5761148d611cfb565b5b5f828461149b9190611d55565b90508091505092915050565b5080545f8255905f5260205f20908101906114c291906114e6565b50565b5080545f8255600202905f5260205f20908101906114e39190611525565b50565b5b80821115611521575f8082015f6101000a81549063ffffffff02191690555f820160046101000a81549060ff0219169055506001016114e7565b5090565b5b80821115611583575f8082015f9055600182015f6101000a81549060ff02191690556001820160016101000a8154907effffffffffffffffffffffffffffffffffffffffffffffffffffffffffffff021916905550600201611526565b5090565b5f73ffffffffffffffffffffffffffffffffffffffff82169050919050565b5f6115b082611587565b9050919050565b6115c0816115a6565b82525050565b5f6020820190506115d95f8301846115b7565b92915050565b5f819050919050565b6115f1816115df565b82525050565b5f60208201905061160a5f8301846115e8565b92915050565b5f80fd5b5f61ffff82169050919050565b61162a81611614565b8114611634575f80fd5b50565b5f8135905061164581611621565b92915050565b5f60ff82169050919050565b6116608161164b565b811461166a575f80fd5b50565b5f8135905061167b81611657565b92915050565b5f7cffffffffffffffffffffffffffffffffffffffffffffffffffffffffff82169050919050565b6116b281611681565b81146116bc575f80fd5b50565b5f813590506116cd816116a9565b92915050565b6116dc816115a6565b81146116e6575f80fd5b50565b5f813590506116f7816116d3565b92915050565b5f805f806080858703121561171557611714611610565b5b5f61172287828801611637565b94505060206117338782880161166d565b9350506040611744878288016116bf565b9250506060611755878288016116e9565b91505092959194509250565b5f82825260208201905092915050565b7f596f7520646f6e2774206861766520756e64726177206c6f74746572792074695f8201527f636b657473000000000000000000000000000000000000000000000000000000602082015250565b5f6117cb602583611761565b91506117d682611771565b604082019050919050565b5f6020820190508181035f8301526117f8816117bf565b9050919050565b7f4e487b71000000000000000000000000000000000000000000000000000000005f52601160045260245ffd5b5f611836826115df565b9150611841836115df565b9250828203905081811115611859576118586117ff565b5b92915050565b7f4e487b71000000000000000000000000000000000000000000000000000000005f52603260045260245ffd5b7f49742773206e6f742074696d65000000000000000000000000000000000000005f82015250565b5f6118c0600d83611761565b91506118cb8261188c565b602082019050919050565b5f6020820190508181035f8301526118ed816118b4565b9050919050565b5f819050919050565b5f819050919050565b611917611912826118f4565b6118fd565b82525050565b5f6119288285611906565b6020820191506119388284611906565b6020820191508190509392505050565b5f611952826115df565b915061195d836115df565b925082820261196b816115df565b91508282048414831517611982576119816117ff565b5b5092915050565b5f611993826115df565b915061199e836115df565b92508282019050808211156119b6576119b56117ff565b5b92915050565b7f427579206174206c65617374206f6e65206567670000000000000000000000005f82015250565b5f6119f0601483611761565b91506119fb826119bc565b602082019050919050565b5f6020820190508181035f830152611a1d816119e4565b9050919050565b7f4d756c7469706c6573206265747765656e203120616e642031303000000000005f82015250565b5f611a58601b83611761565b9150611a6382611a24565b602082019050919050565b5f6020820190508181035f830152611a8581611a4c565b9050919050565b7f4e756d626572206f662065676773206265747765656e203120616e64203130305f82015250565b5f611ac0602083611761565b9150611acb82611a8c565b602082019050919050565b5f6020820190508181035f830152611aed81611ab4565b9050919050565b5f611afe82611614565b9150611b0983611614565b9250828202611b1781611614565b9150808214611b2957611b286117ff565b5b5092915050565b7f496e76616c6964206461746100000000000000000000000000000000000000005f82015250565b5f611b64600c83611761565b9150611b6f82611b30565b602082019050919050565b5f6020820190508181035f830152611b9181611b58565b9050919050565b5f611ba282611681565b91507cffffffffffffffffffffffffffffffffffffffffffffffffffffffffff8203611bd157611bd06117ff565b5b600182019050919050565b5f819050919050565b611bf6611bf1826115df565b611bdc565b82525050565b5f611c0682611587565b9050919050565b5f8160601b9050919050565b5f611c2382611c0d565b9050919050565b5f611c3482611c19565b9050919050565b611c4c611c4782611bfc565b611c2a565b82525050565b5f611c5c82611c19565b9050919050565b611c74611c6f826115a6565b611c52565b82525050565b5f8160181b9050919050565b5f611c9082611c7a565b9050919050565b611ca8611ca382611681565b611c86565b82525050565b5f611cb98287611be5565b602082019150611cc98286611c3b565b601482019150611cd98285611c63565b601482019150611ce98284611c97565b601d8201915081905095945050505050565b7f4e487b71000000000000000000000000000000000000000000000000000000005f52600160045260245ffd5b7f4e487b71000000000000000000000000000000000000000000000000000000005f52601260045260245ffd5b5f611d5f826115df565b9150611d6a836115df565b925082611d7a57611d79611d28565b5b82820490509291505056fea2646970667358221220c69dbb20176fb12f90447b7b546a30224dee8310ea1458e69ec53d18b85736c764736f6c634300081a0033",
			"opcodes": "PUSH1 0x80 PUSH1 0x40 MSTORE CALLVALUE DUP1 ISZERO PUSH1 0xE JUMPI PUSH0 DUP1 REVERT JUMPDEST POP CALLER PUSH0 DUP1 PUSH2 0x100 EXP DUP2 SLOAD DUP2 PUSH20 0xFFFFFFFFFFFFFFFFFFFFFFFFFFFFFFFFFFFFFFFF MUL NOT AND SWAP1 DUP4 PUSH20 0xFFFFFFFFFFFFFFFFFFFFFFFFFFFFFFFFFFFFFFFF AND MUL OR SWAP1 SSTORE POP TIMESTAMP PUSH1 0x6 DUP2 SWAP1 SSTORE POP TIMESTAMP PUSH1 0x8 DUP2 SWAP1 SSTORE POP PUSH2 0x1DBB DUP1 PUSH2 0x69 PUSH0 CODECOPY PUSH0 RETURN INVALID PUSH1 0x80 PUSH1 0x40 MSTORE PUSH1 0x4 CALLDATASIZE LT PUSH2 0x54 JUMPI PUSH0 CALLDATALOAD PUSH1 0xE0 SHR DUP1 PUSH4 0x7DA384FD EQ PUSH2 0x58 JUMPI DUP1 PUSH4 0x89A4C1A0 EQ PUSH2 0x6E JUMPI DUP1 PUSH4 0xA659F4DC EQ PUSH2 0x98 JUMPI DUP1 PUSH4 0xB1C617FF EQ PUSH2 0xC2 JUMPI DUP1 PUSH4 0xC9EA0299 EQ PUSH2 0xEC JUMPI DUP1 PUSH4 0xCA6AAE29 EQ PUSH2 0x108 JUMPI JUMPDEST PUSH0 DUP1 REVERT JUMPDEST CALLVALUE DUP1 ISZERO PUSH2 0x63 JUMPI PUSH0 DUP1 REVERT JUMPDEST POP PUSH2 0x6C PUSH2 0x132 JUMP JUMPDEST STOP JUMPDEST CALLVALUE DUP1 ISZERO PUSH2 0x79 JUMPI PUSH0 DUP1 REVERT JUMPDEST POP PUSH2 0x82 PUSH2 0xA89 JUMP JUMPDEST PUSH1 0x40 MLOAD PUSH2 0x8F SWAP2 SWAP1 PUSH2 0x15C6 JUMP JUMPDEST PUSH1 0x40 MLOAD DUP1 SWAP2 SUB SWAP1 RETURN JUMPDEST CALLVALUE DUP1 ISZERO PUSH2 0xA3 JUMPI PUSH0 DUP1 REVERT JUMPDEST POP PUSH2 0xAC PUSH2 0xAAC JUMP JUMPDEST PUSH1 0x40 MLOAD PUSH2 0xB9 SWAP2 SWAP1 PUSH2 0x15F7 JUMP JUMPDEST PUSH1 0x40 MLOAD DUP1 SWAP2 SUB SWAP1 RETURN JUMPDEST CALLVALUE DUP1 ISZERO PUSH2 0xCD JUMPI PUSH0 DUP1 REVERT JUMPDEST POP PUSH2 0xD6 PUSH2 0xAB2 JUMP JUMPDEST PUSH1 0x40 MLOAD PUSH2 0xE3 SWAP2 SWAP1 PUSH2 0x15F7 JUMP JUMPDEST PUSH1 0x40 MLOAD DUP1 SWAP2 SUB SWAP1 RETURN JUMPDEST PUSH2 0x106 PUSH1 0x4 DUP1 CALLDATASIZE SUB DUP2 ADD SWAP1 PUSH2 0x101 SWAP2 SWAP1 PUSH2 0x16FD JUMP JUMPDEST PUSH2 0xAB8 JUMP JUMPDEST STOP JUMPDEST CALLVALUE DUP1 ISZERO PUSH2 0x113 JUMPI PUSH0 DUP1 REVERT JUMPDEST POP PUSH2 0x11C PUSH2 0x123C JUMP JUMPDEST PUSH1 0x40 MLOAD PUSH2 0x129 SWAP2 SWAP1 PUSH2 0x15F7 JUMP JUMPDEST PUSH1 0x40 MLOAD DUP1 SWAP2 SUB SWAP1 RETURN JUMPDEST PUSH0 PUSH1 0x9 PUSH0 CALLER PUSH20 0xFFFFFFFFFFFFFFFFFFFFFFFFFFFFFFFFFFFFFFFF AND PUSH20 0xFFFFFFFFFFFFFFFFFFFFFFFFFFFFFFFFFFFFFFFF AND DUP2 MSTORE PUSH1 0x20 ADD SWAP1 DUP2 MSTORE PUSH1 0x20 ADD PUSH0 KECCAK256 PUSH0 ADD DUP1 SLOAD SWAP1 POP GT PUSH2 0x1B6 JUMPI PUSH1 0x40 MLOAD PUSH32 0x8C379A000000000000000000000000000000000000000000000000000000000 DUP2 MSTORE PUSH1 0x4 ADD PUSH2 0x1AD SWAP1 PUSH2 0x17E1 JUMP JUMPDEST PUSH1 0x40 MLOAD DUP1 SWAP2 SUB SWAP1 REVERT JUMPDEST PUSH1 0x9 PUSH0 CALLER PUSH20 0xFFFFFFFFFFFFFFFFFFFFFFFFFFFFFFFFFFFFFFFF AND PUSH20 0xFFFFFFFFFFFFFFFFFFFFFFFFFFFFFFFFFFFFFFFF AND DUP2 MSTORE PUSH1 0x20 ADD SWAP1 DUP2 MSTORE PUSH1 0x20 ADD PUSH0 KECCAK256 PUSH0 ADD PUSH1 0x1 PUSH1 0x9 PUSH0 CALLER PUSH20 0xFFFFFFFFFFFFFFFFFFFFFFFFFFFFFFFFFFFFFFFF AND PUSH20 0xFFFFFFFFFFFFFFFFFFFFFFFFFFFFFFFFFFFFFFFF AND DUP2 MSTORE PUSH1 0x20 ADD SWAP1 DUP2 MSTORE PUSH1 0x20 ADD PUSH0 KECCAK256 PUSH0 ADD DUP1 SLOAD SWAP1 POP PUSH2 0x244 SWAP2 SWAP1 PUSH2 0x182C JUMP JUMPDEST DUP2 SLOAD DUP2 LT PUSH2 0x255 JUMPI PUSH2 0x254 PUSH2 0x185F JUMP JUMPDEST JUMPDEST SWAP1 PUSH0 MSTORE PUSH1 0x20 PUSH0 KECCAK256 SWAP1 PUSH1 0x2 MUL ADD PUSH1 0x1 ADD PUSH1 0x1 SWAP1 SLOAD SWAP1 PUSH2 0x100 EXP SWAP1 DIV PUSH31 0xFFFFFFFFFFFFFFFFFFFFFFFFFFFFFFFFFFFFFFFFFFFFFFFFFFFFFFFFFFFFFF AND PUSH31 0xFFFFFFFFFFFFFFFFFFFFFFFFFFFFFFFFFFFFFFFFFFFFFFFFFFFFFFFFFFFFFF AND NUMBER GT PUSH2 0x2F2 JUMPI PUSH1 0x40 MLOAD PUSH32 0x8C379A000000000000000000000000000000000000000000000000000000000 DUP2 MSTORE PUSH1 0x4 ADD PUSH2 0x2E9 SWAP1 PUSH2 0x18D6 JUMP JUMPDEST PUSH1 0x40 MLOAD DUP1 SWAP2 SUB SWAP1 REVERT JUMPDEST PUSH0 PUSH1 0x9 PUSH0 CALLER PUSH20 0xFFFFFFFFFFFFFFFFFFFFFFFFFFFFFFFFFFFFFFFF AND PUSH20 0xFFFFFFFFFFFFFFFFFFFFFFFFFFFFFFFFFFFFFFFF AND DUP2 MSTORE PUSH1 0x20 ADD SWAP1 DUP2 MSTORE PUSH1 0x20 ADD PUSH0 KECCAK256 PUSH1 0x1 ADD DUP1 SLOAD SWAP1 POP GT ISZERO PUSH2 0x389 JUMPI PUSH1 0x9 PUSH0 CALLER PUSH20 0xFFFFFFFFFFFFFFFFFFFFFFFFFFFFFFFFFFFFFFFF AND PUSH20 0xFFFFFFFFFFFFFFFFFFFFFFFFFFFFFFFFFFFFFFFF AND DUP2 MSTORE PUSH1 0x20 ADD SWAP1 DUP2 MSTORE PUSH1 0x20 ADD PUSH0 KECCAK256 PUSH1 0x1 ADD PUSH0 PUSH2 0x388 SWAP2 SWAP1 PUSH2 0x14A7 JUMP JUMPDEST JUMPDEST PUSH0 DUP1 PUSH0 SWAP1 POP JUMPDEST PUSH1 0x9 PUSH0 CALLER PUSH20 0xFFFFFFFFFFFFFFFFFFFFFFFFFFFFFFFFFFFFFFFF AND PUSH20 0xFFFFFFFFFFFFFFFFFFFFFFFFFFFFFFFFFFFFFFFF AND DUP2 MSTORE PUSH1 0x20 ADD SWAP1 DUP2 MSTORE PUSH1 0x20 ADD PUSH0 KECCAK256 PUSH0 ADD DUP1 SLOAD SWAP1 POP DUP2 LT ISZERO PUSH2 0x944 JUMPI PUSH0 PUSH1 0x9 PUSH0 CALLER PUSH20 0xFFFFFFFFFFFFFFFFFFFFFFFFFFFFFFFFFFFFFFFF AND PUSH20 0xFFFFFFFFFFFFFFFFFFFFFFFFFFFFFFFFFFFFFFFF AND DUP2 MSTORE PUSH1 0x20 ADD SWAP1 DUP2 MSTORE PUSH1 0x20 ADD PUSH0 KECCAK256 PUSH0 ADD DUP3 DUP2 SLOAD DUP2 LT PUSH2 0x42B JUMPI PUSH2 0x42A PUSH2 0x185F JUMP JUMPDEST JUMPDEST SWAP1 PUSH0 MSTORE PUSH1 0x20 PUSH0 KECCAK256 SWAP1 PUSH1 0x2 MUL ADD PUSH1 0x1 ADD PUSH1 0x1 SWAP1 SLOAD SWAP1 PUSH2 0x100 EXP SWAP1 DIV PUSH31 0xFFFFFFFFFFFFFFFFFFFFFFFFFFFFFFFFFFFFFFFFFFFFFFFFFFFFFFFFFFFFFF AND PUSH31 0xFFFFFFFFFFFFFFFFFFFFFFFFFFFFFFFFFFFFFFFFFFFFFFFFFFFFFFFFFFFFFF AND BLOCKHASH PUSH0 SHR SUB ISZERO PUSH2 0x937 JUMPI PUSH0 PUSH1 0x9 PUSH0 CALLER PUSH20 0xFFFFFFFFFFFFFFFFFFFFFFFFFFFFFFFFFFFFFFFF AND PUSH20 0xFFFFFFFFFFFFFFFFFFFFFFFFFFFFFFFFFFFFFFFF AND DUP2 MSTORE PUSH1 0x20 ADD SWAP1 DUP2 MSTORE PUSH1 0x20 ADD PUSH0 KECCAK256 PUSH0 ADD DUP3 DUP2 SLOAD DUP2 LT PUSH2 0x4E2 JUMPI PUSH2 0x4E1 PUSH2 0x185F JUMP JUMPDEST JUMPDEST SWAP1 PUSH0 MSTORE PUSH1 0x20 PUSH0 KECCAK256 SWAP1 PUSH1 0x2 MUL ADD PUSH0 ADD SLOAD PUSH1 0x9 PUSH0 CALLER PUSH20 0xFFFFFFFFFFFFFFFFFFFFFFFFFFFFFFFFFFFFFFFF AND PUSH20 0xFFFFFFFFFFFFFFFFFFFFFFFFFFFFFFFFFFFFFFFF AND DUP2 MSTORE PUSH1 0x20 ADD SWAP1 DUP2 MSTORE PUSH1 0x20 ADD PUSH0 KECCAK256 PUSH0 ADD DUP4 DUP2 SLOAD DUP2 LT PUSH2 0x542 JUMPI PUSH2 0x541 PUSH2 0x185F JUMP JUMPDEST JUMPDEST SWAP1 PUSH0 MSTORE PUSH1 0x20 PUSH0 KECCAK256 SWAP1 PUSH1 0x2 MUL ADD PUSH1 0x1 ADD PUSH1 0x1 SWAP1 SLOAD SWAP1 PUSH2 0x100 EXP SWAP1 DIV PUSH31 0xFFFFFFFFFFFFFFFFFFFFFFFFFFFFFFFFFFFFFFFFFFFFFFFFFFFFFFFFFFFFFF AND PUSH31 0xFFFFFFFFFFFFFFFFFFFFFFFFFFFFFFFFFFFFFFFFFFFFFFFFFFFFFFFFFFFFFF AND BLOCKHASH PUSH1 0x40 MLOAD PUSH1 0x20 ADD PUSH2 0x5B0 SWAP3 SWAP2 SWAP1 PUSH2 0x191D JUMP JUMPDEST PUSH1 0x40 MLOAD PUSH1 0x20 DUP2 DUP4 SUB SUB DUP2 MSTORE SWAP1 PUSH1 0x40 MSTORE DUP1 MLOAD SWAP1 PUSH1 0x20 ADD KECCAK256 PUSH1 0xE0 SHR SWAP1 POP PUSH0 PUSH2 0x5D5 DUP3 PUSH2 0x1242 JUMP JUMPDEST SWAP1 POP PUSH0 DUP2 GT ISZERO PUSH2 0x7FD JUMPI PUSH0 PUSH7 0x470DE4DF820000 PUSH1 0x9 PUSH0 CALLER PUSH20 0xFFFFFFFFFFFFFFFFFFFFFFFFFFFFFFFFFFFFFFFF AND PUSH20 0xFFFFFFFFFFFFFFFFFFFFFFFFFFFFFFFFFFFFFFFF AND DUP2 MSTORE PUSH1 0x20 ADD SWAP1 DUP2 MSTORE PUSH1 0x20 ADD PUSH0 KECCAK256 PUSH0 ADD DUP6 DUP2 SLOAD DUP2 LT PUSH2 0x639 JUMPI PUSH2 0x638 PUSH2 0x185F JUMP JUMPDEST JUMPDEST SWAP1 PUSH0 MSTORE PUSH1 0x20 PUSH0 KECCAK256 SWAP1 PUSH1 0x2 MUL ADD PUSH1 0x1 ADD PUSH0 SWAP1 SLOAD SWAP1 PUSH2 0x100 EXP SWAP1 DIV PUSH1 0xFF AND PUSH1 0xFF AND PUSH2 0x661 DUP5 PUSH2 0x1345 JUMP JUMPDEST PUSH2 0x66B SWAP2 SWAP1 PUSH2 0x1948 JUMP JUMPDEST PUSH2 0x675 SWAP2 SWAP1 PUSH2 0x1948 JUMP JUMPDEST SWAP1 POP DUP1 DUP6 PUSH2 0x683 SWAP2 SWAP1 PUSH2 0x1989 JUMP JUMPDEST SWAP5 POP PUSH0 PUSH1 0x40 MLOAD DUP1 PUSH1 0x80 ADD PUSH1 0x40 MSTORE DUP1 DUP6 PUSH4 0xFFFFFFFF AND DUP2 MSTORE PUSH1 0x20 ADD PUSH1 0x9 PUSH0 CALLER PUSH20 0xFFFFFFFFFFFFFFFFFFFFFFFFFFFFFFFFFFFFFFFF AND PUSH20 0xFFFFFFFFFFFFFFFFFFFFFFFFFFFFFFFFFFFFFFFF AND DUP2 MSTORE PUSH1 0x20 ADD SWAP1 DUP2 MSTORE PUSH1 0x20 ADD PUSH0 KECCAK256 PUSH0 ADD DUP8 DUP2 SLOAD DUP2 LT PUSH2 0x6EE JUMPI PUSH2 0x6ED PUSH2 0x185F JUMP JUMPDEST JUMPDEST SWAP1 PUSH0 MSTORE PUSH1 0x20 PUSH0 KECCAK256 SWAP1 PUSH1 0x2 MUL ADD PUSH1 0x1 ADD PUSH0 SWAP1 SLOAD SWAP1 PUSH2 0x100 EXP SWAP1 DIV PUSH1 0xFF AND PUSH1 0xFF AND DUP2 MSTORE PUSH1 0x20 ADD TIMESTAMP PUSH5 0xFFFFFFFFFF AND DUP2 MSTORE PUSH1 0x20 ADD CALLER PUSH20 0xFFFFFFFFFFFFFFFFFFFFFFFFFFFFFFFFFFFFFFFF AND DUP2 MSTORE POP SWAP1 POP PUSH1 0xB DUP2 SWAP1 DUP1 PUSH1 0x1 DUP2 SLOAD ADD DUP1 DUP3 SSTORE DUP1 SWAP2 POP POP PUSH1 0x1 SWAP1 SUB SWAP1 PUSH0 MSTORE PUSH1 0x20 PUSH0 KECCAK256 SWAP1 PUSH1 0x3 MUL ADD PUSH0 SWAP1 SWAP2 SWAP1 SWAP2 SWAP1 SWAP2 POP PUSH0 DUP3 ADD MLOAD DUP2 PUSH0 ADD PUSH0 PUSH2 0x100 EXP DUP2 SLOAD DUP2 PUSH4 0xFFFFFFFF MUL NOT AND SWAP1 DUP4 PUSH4 0xFFFFFFFF AND MUL OR SWAP1 SSTORE POP PUSH1 0x20 DUP3 ADD MLOAD DUP2 PUSH0 ADD PUSH1 0x4 PUSH2 0x100 EXP DUP2 SLOAD DUP2 PUSH1 0xFF MUL NOT AND SWAP1 DUP4 PUSH1 0xFF AND MUL OR SWAP1 SSTORE POP PUSH1 0x40 DUP3 ADD MLOAD DUP2 PUSH1 0x1 ADD SSTORE PUSH1 0x60 DUP3 ADD MLOAD DUP2 PUSH1 0x2 ADD PUSH0 PUSH2 0x100 EXP DUP2 SLOAD DUP2 PUSH20 0xFFFFFFFFFFFFFFFFFFFFFFFFFFFFFFFFFFFFFFFF MUL NOT AND SWAP1 DUP4 PUSH20 0xFFFFFFFFFFFFFFFFFFFFFFFFFFFFFFFFFFFFFFFF AND MUL OR SWAP1 SSTORE POP POP POP POP POP JUMPDEST PUSH0 PUSH1 0x40 MLOAD DUP1 PUSH1 0x40 ADD PUSH1 0x40 MSTORE DUP1 DUP5 PUSH4 0xFFFFFFFF AND DUP2 MSTORE PUSH1 0x20 ADD PUSH1 0x9 PUSH0 CALLER PUSH20 0xFFFFFFFFFFFFFFFFFFFFFFFFFFFFFFFFFFFFFFFF AND PUSH20 0xFFFFFFFFFFFFFFFFFFFFFFFFFFFFFFFFFFFFFFFF AND DUP2 MSTORE PUSH1 0x20 ADD SWAP1 DUP2 MSTORE PUSH1 0x20 ADD PUSH0 KECCAK256 PUSH0 ADD DUP7 DUP2 SLOAD DUP2 LT PUSH2 0x866 JUMPI PUSH2 0x865 PUSH2 0x185F JUMP JUMPDEST JUMPDEST SWAP1 PUSH0 MSTORE PUSH1 0x20 PUSH0 KECCAK256 SWAP1 PUSH1 0x2 MUL ADD PUSH1 0x1 ADD PUSH0 SWAP1 SLOAD SWAP1 PUSH2 0x100 EXP SWAP1 DIV PUSH1 0xFF AND PUSH1 0xFF AND DUP2 MSTORE POP SWAP1 POP PUSH1 0x9 PUSH0 CALLER PUSH20 0xFFFFFFFFFFFFFFFFFFFFFFFFFFFFFFFFFFFFFFFF AND PUSH20 0xFFFFFFFFFFFFFFFFFFFFFFFFFFFFFFFFFFFFFFFF AND DUP2 MSTORE PUSH1 0x20 ADD SWAP1 DUP2 MSTORE PUSH1 0x20 ADD PUSH0 KECCAK256 PUSH1 0x1 ADD DUP2 SWAP1 DUP1 PUSH1 0x1 DUP2 SLOAD ADD DUP1 DUP3 SSTORE DUP1 SWAP2 POP POP PUSH1 0x1 SWAP1 SUB SWAP1 PUSH0 MSTORE PUSH1 0x20 PUSH0 KECCAK256 ADD PUSH0 SWAP1 SWAP2 SWAP1 SWAP2 SWAP1 SWAP2 POP PUSH0 DUP3 ADD MLOAD DUP2 PUSH0 ADD PUSH0 PUSH2 0x100 EXP DUP2 SLOAD DUP2 PUSH4 0xFFFFFFFF MUL NOT AND SWAP1 DUP4 PUSH4 0xFFFFFFFF AND MUL OR SWAP1 SSTORE POP PUSH1 0x20 DUP3 ADD MLOAD DUP2 PUSH0 ADD PUSH1 0x4 PUSH2 0x100 EXP DUP2 SLOAD DUP2 PUSH1 0xFF MUL NOT AND SWAP1 DUP4 PUSH1 0xFF AND MUL OR SWAP1 SSTORE POP POP POP POP POP POP JUMPDEST DUP1 DUP1 PUSH1 0x1 ADD SWAP2 POP POP PUSH2 0x38F JUMP JUMPDEST POP PUSH1 0x9 PUSH0 CALLER PUSH20 0xFFFFFFFFFFFFFFFFFFFFFFFFFFFFFFFFFFFFFFFF AND PUSH20 0xFFFFFFFFFFFFFFFFFFFFFFFFFFFFFFFFFFFFFFFF AND DUP2 MSTORE PUSH1 0x20 ADD SWAP1 DUP2 MSTORE PUSH1 0x20 ADD PUSH0 KECCAK256 PUSH0 ADD PUSH0 PUSH2 0x98F SWAP2 SWAP1 PUSH2 0x14C5 JUMP JUMPDEST PUSH0 DUP2 GT ISZERO PUSH2 0xA86 JUMPI PUSH0 PUSH2 0x9D2 PUSH2 0x9CB PUSH2 0x9C4 SELFBALANCE PUSH1 0x1 SLOAD PUSH1 0x7 SLOAD PUSH1 0x5 SLOAD PUSH2 0x9B5 SWAP2 SWAP1 PUSH2 0x1989 JUMP JUMPDEST PUSH2 0x9BF SWAP2 SWAP1 PUSH2 0x1989 JUMP JUMPDEST PUSH2 0x1412 JUMP JUMPDEST PUSH1 0x46 PUSH2 0x1438 JUMP JUMPDEST PUSH1 0x64 PUSH2 0x147D JUMP JUMPDEST SWAP1 POP DUP1 DUP3 GT ISZERO PUSH2 0x9E0 JUMPI DUP1 SWAP2 POP JUMPDEST PUSH0 PUSH2 0x9F6 PUSH2 0x9EF DUP5 PUSH1 0x5 PUSH2 0x1438 JUMP JUMPDEST PUSH1 0x64 PUSH2 0x147D JUMP JUMPDEST SWAP1 POP DUP1 PUSH1 0x5 PUSH0 DUP3 DUP3 SLOAD PUSH2 0xA09 SWAP2 SWAP1 PUSH2 0x1989 JUMP JUMPDEST SWAP3 POP POP DUP2 SWAP1 SSTORE POP DUP1 PUSH1 0x1 PUSH0 DUP3 DUP3 SLOAD PUSH2 0xA21 SWAP2 SWAP1 PUSH2 0x1989 JUMP JUMPDEST SWAP3 POP POP DUP2 SWAP1 SSTORE POP CALLER PUSH20 0xFFFFFFFFFFFFFFFFFFFFFFFFFFFFFFFFFFFFFFFF AND PUSH2 0x8FC PUSH1 0x2 DUP4 PUSH2 0xA4F SWAP2 SWAP1 PUSH2 0x1948 JUMP JUMPDEST DUP6 PUSH2 0xA5A SWAP2 SWAP1 PUSH2 0x182C JUMP JUMPDEST SWAP1 DUP2 ISZERO MUL SWAP1 PUSH1 0x40 MLOAD PUSH0 PUSH1 0x40 MLOAD DUP1 DUP4 SUB DUP2 DUP6 DUP9 DUP9 CALL SWAP4 POP POP POP POP ISZERO DUP1 ISZERO PUSH2 0xA82 JUMPI RETURNDATASIZE PUSH0 DUP1 RETURNDATACOPY RETURNDATASIZE PUSH0 REVERT JUMPDEST POP POP POP JUMPDEST POP JUMP JUMPDEST PUSH0 DUP1 SLOAD SWAP1 PUSH2 0x100 EXP SWAP1 DIV PUSH20 0xFFFFFFFFFFFFFFFFFFFFFFFFFFFFFFFFFFFFFFFF AND DUP2 JUMP JUMPDEST PUSH1 0x4 SLOAD DUP2 JUMP JUMPDEST PUSH1 0x6 SLOAD DUP2 JUMP JUMPDEST PUSH7 0x470DE4DF820000 CALLVALUE LT ISZERO PUSH2 0xB02 JUMPI PUSH1 0x40 MLOAD PUSH32 0x8C379A000000000000000000000000000000000000000000000000000000000 DUP2 MSTORE PUSH1 0x4 ADD PUSH2 0xAF9 SWAP1 PUSH2 0x1A06 JUMP JUMPDEST PUSH1 0x40 MLOAD DUP1 SWAP2 SUB SWAP1 REVERT JUMPDEST PUSH1 0x1 DUP4 PUSH1 0xFF AND LT ISZERO DUP1 ISZERO PUSH2 0xB1A JUMPI POP PUSH1 0x64 DUP4 PUSH1 0xFF AND GT ISZERO JUMPDEST PUSH2 0xB59 JUMPI PUSH1 0x40 MLOAD PUSH32 0x8C379A000000000000000000000000000000000000000000000000000000000 DUP2 MSTORE PUSH1 0x4 ADD PUSH2 0xB50 SWAP1 PUSH2 0x1A6E JUMP JUMPDEST PUSH1 0x40 MLOAD DUP1 SWAP2 SUB SWAP1 REVERT JUMPDEST PUSH1 0x1 DUP5 PUSH2 0xFFFF AND LT ISZERO DUP1 ISZERO PUSH2 0xB74 JUMPI POP PUSH2 0x3E8 DUP5 PUSH2 0xFFFF AND GT ISZERO JUMPDEST PUSH2 0xBB3 JUMPI PUSH1 0x40 MLOAD PUSH32 0x8C379A000000000000000000000000000000000000000000000000000000000 DUP2 MSTORE PUSH1 0x4 ADD PUSH2 0xBAA SWAP1 PUSH2 0x1AD6 JUMP JUMPDEST PUSH1 0x40 MLOAD DUP1 SWAP2 SUB SWAP1 REVERT JUMPDEST PUSH0 PUSH2 0xBC5 CALLVALUE PUSH7 0x470DE4DF820000 PUSH2 0x147D JUMP JUMPDEST SWAP1 POP DUP4 PUSH1 0xFF AND DUP6 PUSH2 0xBD6 SWAP2 SWAP1 PUSH2 0x1AF4 JUMP JUMPDEST PUSH2 0xFFFF AND DUP2 EQ PUSH2 0xC1B JUMPI PUSH1 0x40 MLOAD PUSH32 0x8C379A000000000000000000000000000000000000000000000000000000000 DUP2 MSTORE PUSH1 0x4 ADD PUSH2 0xC12 SWAP1 PUSH2 0x1B7A JUMP JUMPDEST PUSH1 0x40 MLOAD DUP1 SWAP2 SUB SWAP1 REVERT JUMPDEST PUSH0 JUMPDEST DUP6 PUSH2 0xFFFF AND DUP2 LT ISZERO PUSH2 0xD9E JUMPI PUSH0 PUSH1 0x40 MLOAD DUP1 PUSH1 0x60 ADD PUSH1 0x40 MSTORE DUP1 TIMESTAMP COINBASE CALLER DUP10 DUP1 PUSH2 0xC43 SWAP1 PUSH2 0x1B98 JUMP JUMPDEST SWAP11 POP PUSH1 0x40 MLOAD PUSH1 0x20 ADD PUSH2 0xC58 SWAP5 SWAP4 SWAP3 SWAP2 SWAP1 PUSH2 0x1CAE JUMP JUMPDEST PUSH1 0x40 MLOAD PUSH1 0x20 DUP2 DUP4 SUB SUB DUP2 MSTORE SWAP1 PUSH1 0x40 MSTORE DUP1 MLOAD SWAP1 PUSH1 0x20 ADD KECCAK256 DUP2 MSTORE PUSH1 0x20 ADD DUP8 PUSH1 0xFF AND DUP2 MSTORE PUSH1 0x20 ADD NUMBER PUSH31 0xFFFFFFFFFFFFFFFFFFFFFFFFFFFFFFFFFFFFFFFFFFFFFFFFFFFFFFFFFFFFFF AND DUP2 MSTORE POP SWAP1 POP PUSH1 0x9 PUSH0 CALLER PUSH20 0xFFFFFFFFFFFFFFFFFFFFFFFFFFFFFFFFFFFFFFFF AND PUSH20 0xFFFFFFFFFFFFFFFFFFFFFFFFFFFFFFFFFFFFFFFF AND DUP2 MSTORE PUSH1 0x20 ADD SWAP1 DUP2 MSTORE PUSH1 0x20 ADD PUSH0 KECCAK256 PUSH0 ADD DUP2 SWAP1 DUP1 PUSH1 0x1 DUP2 SLOAD ADD DUP1 DUP3 SSTORE DUP1 SWAP2 POP POP PUSH1 0x1 SWAP1 SUB SWAP1 PUSH0 MSTORE PUSH1 0x20 PUSH0 KECCAK256 SWAP1 PUSH1 0x2 MUL ADD PUSH0 SWAP1 SWAP2 SWAP1 SWAP2 SWAP1 SWAP2 POP PUSH0 DUP3 ADD MLOAD DUP2 PUSH0 ADD SSTORE PUSH1 0x20 DUP3 ADD MLOAD DUP2 PUSH1 0x1 ADD PUSH0 PUSH2 0x100 EXP DUP2 SLOAD DUP2 PUSH1 0xFF MUL NOT AND SWAP1 DUP4 PUSH1 0xFF AND MUL OR SWAP1 SSTORE POP PUSH1 0x40 DUP3 ADD MLOAD DUP2 PUSH1 0x1 ADD PUSH1 0x1 PUSH2 0x100 EXP DUP2 SLOAD DUP2 PUSH31 0xFFFFFFFFFFFFFFFFFFFFFFFFFFFFFFFFFFFFFFFFFFFFFFFFFFFFFFFFFFFFFF MUL NOT AND SWAP1 DUP4 PUSH31 0xFFFFFFFFFFFFFFFFFFFFFFFFFFFFFFFFFFFFFFFFFFFFFFFFFFFFFFFFFFFFFF AND MUL OR SWAP1 SSTORE POP POP POP POP DUP1 DUP1 PUSH1 0x1 ADD SWAP2 POP POP PUSH2 0xC1D JUMP JUMPDEST POP PUSH1 0x9 PUSH0 CALLER PUSH20 0xFFFFFFFFFFFFFFFFFFFFFFFFFFFFFFFFFFFFFFFF AND PUSH20 0xFFFFFFFFFFFFFFFFFFFFFFFFFFFFFFFFFFFFFFFF AND DUP2 MSTORE PUSH1 0x20 ADD SWAP1 DUP2 MSTORE PUSH1 0x20 ADD PUSH0 KECCAK256 PUSH1 0x3 ADD PUSH0 SWAP1 SLOAD SWAP1 PUSH2 0x100 EXP SWAP1 DIV PUSH1 0xFF AND PUSH2 0xE49 JUMPI PUSH1 0x1 PUSH1 0x9 PUSH0 CALLER PUSH20 0xFFFFFFFFFFFFFFFFFFFFFFFFFFFFFFFFFFFFFFFF AND PUSH20 0xFFFFFFFFFFFFFFFFFFFFFFFFFFFFFFFFFFFFFFFF AND DUP2 MSTORE PUSH1 0x20 ADD SWAP1 DUP2 MSTORE PUSH1 0x20 ADD PUSH0 KECCAK256 PUSH1 0x3 ADD PUSH0 PUSH2 0x100 EXP DUP2 SLOAD DUP2 PUSH1 0xFF MUL NOT AND SWAP1 DUP4 ISZERO ISZERO MUL OR SWAP1 SSTORE POP JUMPDEST PUSH0 PUSH2 0xE5F PUSH2 0xE58 CALLVALUE PUSH1 0x3 PUSH2 0x1438 JUMP JUMPDEST PUSH1 0x64 PUSH2 0x147D JUMP JUMPDEST SWAP1 POP PUSH0 PUSH2 0xE77 PUSH2 0xE70 CALLVALUE PUSH1 0x4 PUSH2 0x1438 JUMP JUMPDEST PUSH1 0x64 PUSH2 0x147D JUMP JUMPDEST SWAP1 POP DUP2 PUSH1 0x1 PUSH0 DUP3 DUP3 SLOAD PUSH2 0xE8A SWAP2 SWAP1 PUSH2 0x1989 JUMP JUMPDEST SWAP3 POP POP DUP2 SWAP1 SSTORE POP DUP2 PUSH1 0x5 PUSH0 DUP3 DUP3 SLOAD PUSH2 0xEA2 SWAP2 SWAP1 PUSH2 0x1989 JUMP JUMPDEST SWAP3 POP POP DUP2 SWAP1 SSTORE POP PUSH0 PUSH20 0xFFFFFFFFFFFFFFFFFFFFFFFFFFFFFFFFFFFFFFFF AND PUSH1 0xA PUSH0 CALLER PUSH20 0xFFFFFFFFFFFFFFFFFFFFFFFFFFFFFFFFFFFFFFFF AND PUSH20 0xFFFFFFFFFFFFFFFFFFFFFFFFFFFFFFFFFFFFFFFF AND DUP2 MSTORE PUSH1 0x20 ADD SWAP1 DUP2 MSTORE PUSH1 0x20 ADD PUSH0 KECCAK256 PUSH0 SWAP1 SLOAD SWAP1 PUSH2 0x100 EXP SWAP1 DIV PUSH20 0xFFFFFFFFFFFFFFFFFFFFFFFFFFFFFFFFFFFFFFFF AND PUSH20 0xFFFFFFFFFFFFFFFFFFFFFFFFFFFFFFFFFFFFFFFF AND SUB PUSH2 0x1233 JUMPI CALLER PUSH20 0xFFFFFFFFFFFFFFFFFFFFFFFFFFFFFFFFFFFFFFFF AND DUP5 PUSH20 0xFFFFFFFFFFFFFFFFFFFFFFFFFFFFFFFFFFFFFFFF AND EQ DUP1 PUSH2 0xF9D JUMPI POP PUSH0 PUSH20 0xFFFFFFFFFFFFFFFFFFFFFFFFFFFFFFFFFFFFFFFF AND DUP5 PUSH20 0xFFFFFFFFFFFFFFFFFFFFFFFFFFFFFFFFFFFFFFFF AND EQ JUMPDEST DUP1 PUSH2 0xFF2 JUMPI POP PUSH1 0x9 PUSH0 CALLER PUSH20 0xFFFFFFFFFFFFFFFFFFFFFFFFFFFFFFFFFFFFFFFF AND PUSH20 0xFFFFFFFFFFFFFFFFFFFFFFFFFFFFFFFFFFFFFFFF AND DUP2 MSTORE PUSH1 0x20 ADD SWAP1 DUP2 MSTORE PUSH1 0x20 ADD PUSH0 KECCAK256 PUSH1 0x3 ADD PUSH0 SWAP1 SLOAD SWAP1 PUSH2 0x100 EXP SWAP1 DIV PUSH1 0xFF AND ISZERO JUMPDEST ISZERO PUSH2 0x101A JUMPI PUSH0 DUP1 SLOAD SWAP1 PUSH2 0x100 EXP SWAP1 DIV PUSH20 0xFFFFFFFFFFFFFFFFFFFFFFFFFFFFFFFFFFFFFFFF AND SWAP4 POP JUMPDEST DUP4 PUSH1 0xA PUSH0 CALLER PUSH20 0xFFFFFFFFFFFFFFFFFFFFFFFFFFFFFFFFFFFFFFFF AND PUSH20 0xFFFFFFFFFFFFFFFFFFFFFFFFFFFFFFFFFFFFFFFF AND DUP2 MSTORE PUSH1 0x20 ADD SWAP1 DUP2 MSTORE PUSH1 0x20 ADD PUSH0 KECCAK256 PUSH0 PUSH2 0x100 EXP DUP2 SLOAD DUP2 PUSH20 0xFFFFFFFFFFFFFFFFFFFFFFFFFFFFFFFFFFFFFFFF MUL NOT AND SWAP1 DUP4 PUSH20 0xFFFFFFFFFFFFFFFFFFFFFFFFFFFFFFFFFFFFFFFF AND MUL OR SWAP1 SSTORE POP PUSH0 DUP1 SLOAD SWAP1 PUSH2 0x100 EXP SWAP1 DIV PUSH20 0xFFFFFFFFFFFFFFFFFFFFFFFFFFFFFFFFFFFFFFFF AND PUSH20 0xFFFFFFFFFFFFFFFFFFFFFFFFFFFFFFFFFFFFFFFF AND PUSH1 0xA PUSH0 CALLER PUSH20 0xFFFFFFFFFFFFFFFFFFFFFFFFFFFFFFFFFFFFFFFF AND PUSH20 0xFFFFFFFFFFFFFFFFFFFFFFFFFFFFFFFFFFFFFFFF AND DUP2 MSTORE PUSH1 0x20 ADD SWAP1 DUP2 MSTORE PUSH1 0x20 ADD PUSH0 KECCAK256 PUSH0 SWAP1 SLOAD SWAP1 PUSH2 0x100 EXP SWAP1 DIV PUSH20 0xFFFFFFFFFFFFFFFFFFFFFFFFFFFFFFFFFFFFFFFF AND PUSH20 0xFFFFFFFFFFFFFFFFFFFFFFFFFFFFFFFFFFFFFFFF AND SUB PUSH2 0x1160 JUMPI DUP1 PUSH1 0x1 PUSH0 DUP3 DUP3 SLOAD PUSH2 0x1154 SWAP2 SWAP1 PUSH2 0x1989 JUMP JUMPDEST SWAP3 POP POP DUP2 SWAP1 SSTORE POP PUSH2 0x122B JUMP JUMPDEST DUP1 PUSH1 0x9 PUSH0 PUSH1 0xA PUSH0 CALLER PUSH20 0xFFFFFFFFFFFFFFFFFFFFFFFFFFFFFFFFFFFFFFFF AND PUSH20 0xFFFFFFFFFFFFFFFFFFFFFFFFFFFFFFFFFFFFFFFF AND DUP2 MSTORE PUSH1 0x20 ADD SWAP1 DUP2 MSTORE PUSH1 0x20 ADD PUSH0 KECCAK256 PUSH0 SWAP1 SLOAD SWAP1 PUSH2 0x100 EXP SWAP1 DIV PUSH20 0xFFFFFFFFFFFFFFFFFFFFFFFFFFFFFFFFFFFFFFFF AND PUSH20 0xFFFFFFFFFFFFFFFFFFFFFFFFFFFFFFFFFFFFFFFF AND PUSH20 0xFFFFFFFFFFFFFFFFFFFFFFFFFFFFFFFFFFFFFFFF AND DUP2 MSTORE PUSH1 0x20 ADD SWAP1 DUP2 MSTORE PUSH1 0x20 ADD PUSH0 KECCAK256 PUSH1 0x2 ADD PUSH0 DUP3 DUP3 SLOAD PUSH2 0x120B SWAP2 SWAP1 PUSH2 0x1989 JUMP JUMPDEST SWAP3 POP POP DUP2 SWAP1 SSTORE POP DUP1 PUSH1 0x7 PUSH0 DUP3 DUP3 SLOAD PUSH2 0x1223 SWAP2 SWAP1 PUSH2 0x1989 JUMP JUMPDEST SWAP3 POP POP DUP2 SWAP1 SSTORE POP JUMPDEST TIMESTAMP PUSH1 0x8 DUP2 SWAP1 SSTORE POP JUMPDEST POP POP POP POP POP POP POP JUMP JUMPDEST PUSH1 0x5 SLOAD DUP2 JUMP JUMPDEST PUSH0 PUSH4 0x4000000 DUP3 PUSH4 0xFFFFFFFF AND GT ISZERO PUSH2 0x125D JUMPI PUSH0 SWAP1 POP PUSH2 0x1340 JUMP JUMPDEST PUSH4 0x1000000 DUP3 PUSH4 0xFFFFFFFF AND LT PUSH2 0x1277 JUMPI PUSH1 0xA SWAP1 POP PUSH2 0x1340 JUMP JUMPDEST PUSH3 0x400000 DUP3 PUSH4 0xFFFFFFFF AND LT PUSH2 0x1290 JUMPI PUSH1 0x9 SWAP1 POP PUSH2 0x1340 JUMP JUMPDEST PUSH3 0x100000 DUP3 PUSH4 0xFFFFFFFF AND LT PUSH2 0x12A9 JUMPI PUSH1 0x8 SWAP1 POP PUSH2 0x1340 JUMP JUMPDEST PUSH3 0x40000 DUP3 PUSH4 0xFFFFFFFF AND LT PUSH2 0x12C2 JUMPI PUSH1 0x7 SWAP1 POP PUSH2 0x1340 JUMP JUMPDEST PUSH3 0x10000 DUP3 PUSH4 0xFFFFFFFF AND LT PUSH2 0x12DB JUMPI PUSH1 0x6 SWAP1 POP PUSH2 0x1340 JUMP JUMPDEST PUSH2 0x4000 DUP3 PUSH4 0xFFFFFFFF AND LT PUSH2 0x12F3 JUMPI PUSH1 0x5 SWAP1 POP PUSH2 0x1340 JUMP JUMPDEST PUSH2 0x1000 DUP3 PUSH4 0xFFFFFFFF AND LT PUSH2 0x130B JUMPI PUSH1 0x4 SWAP1 POP PUSH2 0x1340 JUMP JUMPDEST PUSH2 0x400 DUP3 PUSH4 0xFFFFFFFF AND LT PUSH2 0x1323 JUMPI PUSH1 0x3 SWAP1 POP PUSH2 0x1340 JUMP JUMPDEST PUSH2 0x100 DUP3 PUSH4 0xFFFFFFFF AND LT PUSH2 0x133B JUMPI PUSH1 0x2 SWAP1 POP PUSH2 0x1340 JUMP JUMPDEST PUSH1 0x1 SWAP1 POP JUMPDEST SWAP2 SWAP1 POP JUMP JUMPDEST PUSH0 DUP1 DUP3 SUB PUSH2 0x1355 JUMPI PUSH0 SWAP1 POP PUSH2 0x140D JUMP JUMPDEST PUSH1 0xA DUP3 SUB PUSH2 0x1366 JUMPI PUSH1 0x5 SWAP1 POP PUSH2 0x140D JUMP JUMPDEST PUSH1 0x9 DUP3 SUB PUSH2 0x1377 JUMPI PUSH1 0x14 SWAP1 POP PUSH2 0x140D JUMP JUMPDEST PUSH1 0x8 DUP3 SUB PUSH2 0x1388 JUMPI PUSH1 0x50 SWAP1 POP PUSH2 0x140D JUMP JUMPDEST PUSH1 0x7 DUP3 SUB PUSH2 0x139A JUMPI PUSH2 0x140 SWAP1 POP PUSH2 0x140D JUMP JUMPDEST PUSH1 0x6 DUP3 SUB PUSH2 0x13AC JUMPI PUSH2 0x4B0 SWAP1 POP PUSH2 0x140D JUMP JUMPDEST PUSH1 0x5 DUP3 SUB PUSH2 0x13BE JUMPI PUSH2 0x12C0 SWAP1 POP PUSH2 0x140D JUMP JUMPDEST PUSH1 0x4 DUP3 SUB PUSH2 0x13D0 JUMPI PUSH2 0x4E20 SWAP1 POP PUSH2 0x140D JUMP JUMPDEST PUSH1 0x3 DUP3 SUB PUSH2 0x13E3 JUMPI PUSH3 0x186A0 SWAP1 POP PUSH2 0x140D JUMP JUMPDEST PUSH1 0x2 DUP3 SUB PUSH2 0x13F6 JUMPI PUSH3 0x7A120 SWAP1 POP PUSH2 0x140D JUMP JUMPDEST PUSH1 0x1 DUP3 SUB PUSH2 0x1409 JUMPI PUSH3 0x1E8480 SWAP1 POP PUSH2 0x140D JUMP JUMPDEST PUSH0 SWAP1 POP JUMPDEST SWAP2 SWAP1 POP JUMP JUMPDEST PUSH0 DUP3 DUP3 GT ISZERO PUSH2 0x1424 JUMPI PUSH2 0x1423 PUSH2 0x1CFB JUMP JUMPDEST JUMPDEST DUP2 DUP4 PUSH2 0x1430 SWAP2 SWAP1 PUSH2 0x182C JUMP JUMPDEST SWAP1 POP SWAP3 SWAP2 POP POP JUMP JUMPDEST PUSH0 DUP1 DUP4 SUB PUSH2 0x1448 JUMPI PUSH0 SWAP1 POP PUSH2 0x1477 JUMP JUMPDEST PUSH0 DUP3 DUP5 PUSH2 0x1455 SWAP2 SWAP1 PUSH2 0x1948 JUMP JUMPDEST SWAP1 POP DUP3 DUP5 DUP3 PUSH2 0x1464 SWAP2 SWAP1 PUSH2 0x1D55 JUMP JUMPDEST EQ PUSH2 0x1472 JUMPI PUSH2 0x1471 PUSH2 0x1CFB JUMP JUMPDEST JUMPDEST DUP1 SWAP2 POP POP JUMPDEST SWAP3 SWAP2 POP POP JUMP JUMPDEST PUSH0 DUP1 DUP3 GT PUSH2 0x148E JUMPI PUSH2 0x148D PUSH2 0x1CFB JUMP JUMPDEST JUMPDEST PUSH0 DUP3 DUP5 PUSH2 0x149B SWAP2 SWAP1 PUSH2 0x1D55 JUMP JUMPDEST SWAP1 POP DUP1 SWAP2 POP POP SWAP3 SWAP2 POP POP JUMP JUMPDEST POP DUP1 SLOAD PUSH0 DUP3 SSTORE SWAP1 PUSH0 MSTORE PUSH1 0x20 PUSH0 KECCAK256 SWAP1 DUP2 ADD SWAP1 PUSH2 0x14C2 SWAP2 SWAP1 PUSH2 0x14E6 JUMP JUMPDEST POP JUMP JUMPDEST POP DUP1 SLOAD PUSH0 DUP3 SSTORE PUSH1 0x2 MUL SWAP1 PUSH0 MSTORE PUSH1 0x20 PUSH0 KECCAK256 SWAP1 DUP2 ADD SWAP1 PUSH2 0x14E3 SWAP2 SWAP1 PUSH2 0x1525 JUMP JUMPDEST POP JUMP JUMPDEST JUMPDEST DUP1 DUP3 GT ISZERO PUSH2 0x1521 JUMPI PUSH0 DUP1 DUP3 ADD PUSH0 PUSH2 0x100 EXP DUP2 SLOAD SWAP1 PUSH4 0xFFFFFFFF MUL NOT AND SWAP1 SSTORE PUSH0 DUP3 ADD PUSH1 0x4 PUSH2 0x100 EXP DUP2 SLOAD SWAP1 PUSH1 0xFF MUL NOT AND SWAP1 SSTORE POP PUSH1 0x1 ADD PUSH2 0x14E7 JUMP JUMPDEST POP SWAP1 JUMP JUMPDEST JUMPDEST DUP1 DUP3 GT ISZERO PUSH2 0x1583 JUMPI PUSH0 DUP1 DUP3 ADD PUSH0 SWAP1 SSTORE PUSH1 0x1 DUP3 ADD PUSH0 PUSH2 0x100 EXP DUP2 SLOAD SWAP1 PUSH1 0xFF MUL NOT AND SWAP1 SSTORE PUSH1 0x1 DUP3 ADD PUSH1 0x1 PUSH2 0x100 EXP DUP2 SLOAD SWAP1 PUSH31 0xFFFFFFFFFFFFFFFFFFFFFFFFFFFFFFFFFFFFFFFFFFFFFFFFFFFFFFFFFFFFFF MUL NOT AND SWAP1 SSTORE POP PUSH1 0x2 ADD PUSH2 0x1526 JUMP JUMPDEST POP SWAP1 JUMP JUMPDEST PUSH0 PUSH20 0xFFFFFFFFFFFFFFFFFFFFFFFFFFFFFFFFFFFFFFFF DUP3 AND SWAP1 POP SWAP2 SWAP1 POP JUMP JUMPDEST PUSH0 PUSH2 0x15B0 DUP3 PUSH2 0x1587 JUMP JUMPDEST SWAP1 POP SWAP2 SWAP1 POP JUMP JUMPDEST PUSH2 0x15C0 DUP2 PUSH2 0x15A6 JUMP JUMPDEST DUP3 MSTORE POP POP JUMP JUMPDEST PUSH0 PUSH1 0x20 DUP3 ADD SWAP1 POP PUSH2 0x15D9 PUSH0 DUP4 ADD DUP5 PUSH2 0x15B7 JUMP JUMPDEST SWAP3 SWAP2 POP POP JUMP JUMPDEST PUSH0 DUP2 SWAP1 POP SWAP2 SWAP1 POP JUMP JUMPDEST PUSH2 0x15F1 DUP2 PUSH2 0x15DF JUMP JUMPDEST DUP3 MSTORE POP POP JUMP JUMPDEST PUSH0 PUSH1 0x20 DUP3 ADD SWAP1 POP PUSH2 0x160A PUSH0 DUP4 ADD DUP5 PUSH2 0x15E8 JUMP JUMPDEST SWAP3 SWAP2 POP POP JUMP JUMPDEST PUSH0 DUP1 REVERT JUMPDEST PUSH0 PUSH2 0xFFFF DUP3 AND SWAP1 POP SWAP2 SWAP1 POP JUMP JUMPDEST PUSH2 0x162A DUP2 PUSH2 0x1614 JUMP JUMPDEST DUP2 EQ PUSH2 0x1634 JUMPI PUSH0 DUP1 REVERT JUMPDEST POP JUMP JUMPDEST PUSH0 DUP2 CALLDATALOAD SWAP1 POP PUSH2 0x1645 DUP2 PUSH2 0x1621 JUMP JUMPDEST SWAP3 SWAP2 POP POP JUMP JUMPDEST PUSH0 PUSH1 0xFF DUP3 AND SWAP1 POP SWAP2 SWAP1 POP JUMP JUMPDEST PUSH2 0x1660 DUP2 PUSH2 0x164B JUMP JUMPDEST DUP2 EQ PUSH2 0x166A JUMPI PUSH0 DUP1 REVERT JUMPDEST POP JUMP JUMPDEST PUSH0 DUP2 CALLDATALOAD SWAP1 POP PUSH2 0x167B DUP2 PUSH2 0x1657 JUMP JUMPDEST SWAP3 SWAP2 POP POP JUMP JUMPDEST PUSH0 PUSH29 0xFFFFFFFFFFFFFFFFFFFFFFFFFFFFFFFFFFFFFFFFFFFFFFFFFFFFFFFFFF DUP3 AND SWAP1 POP SWAP2 SWAP1 POP JUMP JUMPDEST PUSH2 0x16B2 DUP2 PUSH2 0x1681 JUMP JUMPDEST DUP2 EQ PUSH2 0x16BC JUMPI PUSH0 DUP1 REVERT JUMPDEST POP JUMP JUMPDEST PUSH0 DUP2 CALLDATALOAD SWAP1 POP PUSH2 0x16CD DUP2 PUSH2 0x16A9 JUMP JUMPDEST SWAP3 SWAP2 POP POP JUMP JUMPDEST PUSH2 0x16DC DUP2 PUSH2 0x15A6 JUMP JUMPDEST DUP2 EQ PUSH2 0x16E6 JUMPI PUSH0 DUP1 REVERT JUMPDEST POP JUMP JUMPDEST PUSH0 DUP2 CALLDATALOAD SWAP1 POP PUSH2 0x16F7 DUP2 PUSH2 0x16D3 JUMP JUMPDEST SWAP3 SWAP2 POP POP JUMP JUMPDEST PUSH0 DUP1 PUSH0 DUP1 PUSH1 0x80 DUP6 DUP8 SUB SLT ISZERO PUSH2 0x1715 JUMPI PUSH2 0x1714 PUSH2 0x1610 JUMP JUMPDEST JUMPDEST PUSH0 PUSH2 0x1722 DUP8 DUP3 DUP9 ADD PUSH2 0x1637 JUMP JUMPDEST SWAP5 POP POP PUSH1 0x20 PUSH2 0x1733 DUP8 DUP3 DUP9 ADD PUSH2 0x166D JUMP JUMPDEST SWAP4 POP POP PUSH1 0x40 PUSH2 0x1744 DUP8 DUP3 DUP9 ADD PUSH2 0x16BF JUMP JUMPDEST SWAP3 POP POP PUSH1 0x60 PUSH2 0x1755 DUP8 DUP3 DUP9 ADD PUSH2 0x16E9 JUMP JUMPDEST SWAP2 POP POP SWAP3 SWAP6 SWAP2 SWAP5 POP SWAP3 POP JUMP JUMPDEST PUSH0 DUP3 DUP3 MSTORE PUSH1 0x20 DUP3 ADD SWAP1 POP SWAP3 SWAP2 POP POP JUMP JUMPDEST PUSH32 0x596F7520646F6E2774206861766520756E64726177206C6F7474657279207469 PUSH0 DUP3 ADD MSTORE PUSH32 0x636B657473000000000000000000000000000000000000000000000000000000 PUSH1 0x20 DUP3 ADD MSTORE POP JUMP JUMPDEST PUSH0 PUSH2 0x17CB PUSH1 0x25 DUP4 PUSH2 0x1761 JUMP JUMPDEST SWAP2 POP PUSH2 0x17D6 DUP3 PUSH2 0x1771 JUMP JUMPDEST PUSH1 0x40 DUP3 ADD SWAP1 POP SWAP2 SWAP1 POP JUMP JUMPDEST PUSH0 PUSH1 0x20 DUP3 ADD SWAP1 POP DUP2 DUP2 SUB PUSH0 DUP4 ADD MSTORE PUSH2 0x17F8 DUP2 PUSH2 0x17BF JUMP JUMPDEST SWAP1 POP SWAP2 SWAP1 POP JUMP JUMPDEST PUSH32 0x4E487B7100000000000000000000000000000000000000000000000000000000 PUSH0 MSTORE PUSH1 0x11 PUSH1 0x4 MSTORE PUSH1 0x24 PUSH0 REVERT JUMPDEST PUSH0 PUSH2 0x1836 DUP3 PUSH2 0x15DF JUMP JUMPDEST SWAP2 POP PUSH2 0x1841 DUP4 PUSH2 0x15DF JUMP JUMPDEST SWAP3 POP DUP3 DUP3 SUB SWAP1 POP DUP2 DUP2 GT ISZERO PUSH2 0x1859 JUMPI PUSH2 0x1858 PUSH2 0x17FF JUMP JUMPDEST JUMPDEST SWAP3 SWAP2 POP POP JUMP JUMPDEST PUSH32 0x4E487B7100000000000000000000000000000000000000000000000000000000 PUSH0 MSTORE PUSH1 0x32 PUSH1 0x4 MSTORE PUSH1 0x24 PUSH0 REVERT JUMPDEST PUSH32 0x49742773206E6F742074696D6500000000000000000000000000000000000000 PUSH0 DUP3 ADD MSTORE POP JUMP JUMPDEST PUSH0 PUSH2 0x18C0 PUSH1 0xD DUP4 PUSH2 0x1761 JUMP JUMPDEST SWAP2 POP PUSH2 0x18CB DUP3 PUSH2 0x188C JUMP JUMPDEST PUSH1 0x20 DUP3 ADD SWAP1 POP SWAP2 SWAP1 POP JUMP JUMPDEST PUSH0 PUSH1 0x20 DUP3 ADD SWAP1 POP DUP2 DUP2 SUB PUSH0 DUP4 ADD MSTORE PUSH2 0x18ED DUP2 PUSH2 0x18B4 JUMP JUMPDEST SWAP1 POP SWAP2 SWAP1 POP JUMP JUMPDEST PUSH0 DUP2 SWAP1 POP SWAP2 SWAP1 POP JUMP JUMPDEST PUSH0 DUP2 SWAP1 POP SWAP2 SWAP1 POP JUMP JUMPDEST PUSH2 0x1917 PUSH2 0x1912 DUP3 PUSH2 0x18F4 JUMP JUMPDEST PUSH2 0x18FD JUMP JUMPDEST DUP3 MSTORE POP POP JUMP JUMPDEST PUSH0 PUSH2 0x1928 DUP3 DUP6 PUSH2 0x1906 JUMP JUMPDEST PUSH1 0x20 DUP3 ADD SWAP2 POP PUSH2 0x1938 DUP3 DUP5 PUSH2 0x1906 JUMP JUMPDEST PUSH1 0x20 DUP3 ADD SWAP2 POP DUP2 SWAP1 POP SWAP4 SWAP3 POP POP POP JUMP JUMPDEST PUSH0 PUSH2 0x1952 DUP3 PUSH2 0x15DF JUMP JUMPDEST SWAP2 POP PUSH2 0x195D DUP4 PUSH2 0x15DF JUMP JUMPDEST SWAP3 POP DUP3 DUP3 MUL PUSH2 0x196B DUP2 PUSH2 0x15DF JUMP JUMPDEST SWAP2 POP DUP3 DUP3 DIV DUP5 EQ DUP4 ISZERO OR PUSH2 0x1982 JUMPI PUSH2 0x1981 PUSH2 0x17FF JUMP JUMPDEST JUMPDEST POP SWAP3 SWAP2 POP POP JUMP JUMPDEST PUSH0 PUSH2 0x1993 DUP3 PUSH2 0x15DF JUMP JUMPDEST SWAP2 POP PUSH2 0x199E DUP4 PUSH2 0x15DF JUMP JUMPDEST SWAP3 POP DUP3 DUP3 ADD SWAP1 POP DUP1 DUP3 GT ISZERO PUSH2 0x19B6 JUMPI PUSH2 0x19B5 PUSH2 0x17FF JUMP JUMPDEST JUMPDEST SWAP3 SWAP2 POP POP JUMP JUMPDEST PUSH32 0x427579206174206C65617374206F6E6520656767000000000000000000000000 PUSH0 DUP3 ADD MSTORE POP JUMP JUMPDEST PUSH0 PUSH2 0x19F0 PUSH1 0x14 DUP4 PUSH2 0x1761 JUMP JUMPDEST SWAP2 POP PUSH2 0x19FB DUP3 PUSH2 0x19BC JUMP JUMPDEST PUSH1 0x20 DUP3 ADD SWAP1 POP SWAP2 SWAP1 POP JUMP JUMPDEST PUSH0 PUSH1 0x20 DUP3 ADD SWAP1 POP DUP2 DUP2 SUB PUSH0 DUP4 ADD MSTORE PUSH2 0x1A1D DUP2 PUSH2 0x19E4 JUMP JUMPDEST SWAP1 POP SWAP2 SWAP1 POP JUMP JUMPDEST PUSH32 0x4D756C7469706C6573206265747765656E203120616E64203130300000000000 PUSH0 DUP3 ADD MSTORE POP JUMP JUMPDEST PUSH0 PUSH2 0x1A58 PUSH1 0x1B DUP4 PUSH2 0x1761 JUMP JUMPDEST SWAP2 POP PUSH2 0x1A63 DUP3 PUSH2 0x1A24 JUMP JUMPDEST PUSH1 0x20 DUP3 ADD SWAP1 POP SWAP2 SWAP1 POP JUMP JUMPDEST PUSH0 PUSH1 0x20 DUP3 ADD SWAP1 POP DUP2 DUP2 SUB PUSH0 DUP4 ADD MSTORE PUSH2 0x1A85 DUP2 PUSH2 0x1A4C JUMP JUMPDEST SWAP1 POP SWAP2 SWAP1 POP JUMP JUMPDEST PUSH32 0x4E756D626572206F662065676773206265747765656E203120616E6420313030 PUSH0 DUP3 ADD MSTORE POP JUMP JUMPDEST PUSH0 PUSH2 0x1AC0 PUSH1 0x20 DUP4 PUSH2 0x1761 JUMP JUMPDEST SWAP2 POP PUSH2 0x1ACB DUP3 PUSH2 0x1A8C JUMP JUMPDEST PUSH1 0x20 DUP3 ADD SWAP1 POP SWAP2 SWAP1 POP JUMP JUMPDEST PUSH0 PUSH1 0x20 DUP3 ADD SWAP1 POP DUP2 DUP2 SUB PUSH0 DUP4 ADD MSTORE PUSH2 0x1AED DUP2 PUSH2 0x1AB4 JUMP JUMPDEST SWAP1 POP SWAP2 SWAP1 POP JUMP JUMPDEST PUSH0 PUSH2 0x1AFE DUP3 PUSH2 0x1614 JUMP JUMPDEST SWAP2 POP PUSH2 0x1B09 DUP4 PUSH2 0x1614 JUMP JUMPDEST SWAP3 POP DUP3 DUP3 MUL PUSH2 0x1B17 DUP2 PUSH2 0x1614 JUMP JUMPDEST SWAP2 POP DUP1 DUP3 EQ PUSH2 0x1B29 JUMPI PUSH2 0x1B28 PUSH2 0x17FF JUMP JUMPDEST JUMPDEST POP SWAP3 SWAP2 POP POP JUMP JUMPDEST PUSH32 0x496E76616C696420646174610000000000000000000000000000000000000000 PUSH0 DUP3 ADD MSTORE POP JUMP JUMPDEST PUSH0 PUSH2 0x1B64 PUSH1 0xC DUP4 PUSH2 0x1761 JUMP JUMPDEST SWAP2 POP PUSH2 0x1B6F DUP3 PUSH2 0x1B30 JUMP JUMPDEST PUSH1 0x20 DUP3 ADD SWAP1 POP SWAP2 SWAP1 POP JUMP JUMPDEST PUSH0 PUSH1 0x20 DUP3 ADD SWAP1 POP DUP2 DUP2 SUB PUSH0 DUP4 ADD MSTORE PUSH2 0x1B91 DUP2 PUSH2 0x1B58 JUMP JUMPDEST SWAP1 POP SWAP2 SWAP1 POP JUMP JUMPDEST PUSH0 PUSH2 0x1BA2 DUP3 PUSH2 0x1681 JUMP JUMPDEST SWAP2 POP PUSH29 0xFFFFFFFFFFFFFFFFFFFFFFFFFFFFFFFFFFFFFFFFFFFFFFFFFFFFFFFFFF DUP3 SUB PUSH2 0x1BD1 JUMPI PUSH2 0x1BD0 PUSH2 0x17FF JUMP JUMPDEST JUMPDEST PUSH1 0x1 DUP3 ADD SWAP1 POP SWAP2 SWAP1 POP JUMP JUMPDEST PUSH0 DUP2 SWAP1 POP SWAP2 SWAP1 POP JUMP JUMPDEST PUSH2 0x1BF6 PUSH2 0x1BF1 DUP3 PUSH2 0x15DF JUMP JUMPDEST PUSH2 0x1BDC JUMP JUMPDEST DUP3 MSTORE POP POP JUMP JUMPDEST PUSH0 PUSH2 0x1C06 DUP3 PUSH2 0x1587 JUMP JUMPDEST SWAP1 POP SWAP2 SWAP1 POP JUMP JUMPDEST PUSH0 DUP2 PUSH1 0x60 SHL SWAP1 POP SWAP2 SWAP1 POP JUMP JUMPDEST PUSH0 PUSH2 0x1C23 DUP3 PUSH2 0x1C0D JUMP JUMPDEST SWAP1 POP SWAP2 SWAP1 POP JUMP JUMPDEST PUSH0 PUSH2 0x1C34 DUP3 PUSH2 0x1C19 JUMP JUMPDEST SWAP1 POP SWAP2 SWAP1 POP JUMP JUMPDEST PUSH2 0x1C4C PUSH2 0x1C47 DUP3 PUSH2 0x1BFC JUMP JUMPDEST PUSH2 0x1C2A JUMP JUMPDEST DUP3 MSTORE POP POP JUMP JUMPDEST PUSH0 PUSH2 0x1C5C DUP3 PUSH2 0x1C19 JUMP JUMPDEST SWAP1 POP SWAP2 SWAP1 POP JUMP JUMPDEST PUSH2 0x1C74 PUSH2 0x1C6F DUP3 PUSH2 0x15A6 JUMP JUMPDEST PUSH2 0x1C52 JUMP JUMPDEST DUP3 MSTORE POP POP JUMP JUMPDEST PUSH0 DUP2 PUSH1 0x18 SHL SWAP1 POP SWAP2 SWAP1 POP JUMP JUMPDEST PUSH0 PUSH2 0x1C90 DUP3 PUSH2 0x1C7A JUMP JUMPDEST SWAP1 POP SWAP2 SWAP1 POP JUMP JUMPDEST PUSH2 0x1CA8 PUSH2 0x1CA3 DUP3 PUSH2 0x1681 JUMP JUMPDEST PUSH2 0x1C86 JUMP JUMPDEST DUP3 MSTORE POP POP JUMP JUMPDEST PUSH0 PUSH2 0x1CB9 DUP3 DUP8 PUSH2 0x1BE5 JUMP JUMPDEST PUSH1 0x20 DUP3 ADD SWAP2 POP PUSH2 0x1CC9 DUP3 DUP7 PUSH2 0x1C3B JUMP JUMPDEST PUSH1 0x14 DUP3 ADD SWAP2 POP PUSH2 0x1CD9 DUP3 DUP6 PUSH2 0x1C63 JUMP JUMPDEST PUSH1 0x14 DUP3 ADD SWAP2 POP PUSH2 0x1CE9 DUP3 DUP5 PUSH2 0x1C97 JUMP JUMPDEST PUSH1 0x1D DUP3 ADD SWAP2 POP DUP2 SWAP1 POP SWAP6 SWAP5 POP POP POP POP POP JUMP JUMPDEST PUSH32 0x4E487B7100000000000000000000000000000000000000000000000000000000 PUSH0 MSTORE PUSH1 0x1 PUSH1 0x4 MSTORE PUSH1 0x24 PUSH0 REVERT JUMPDEST PUSH32 0x4E487B7100000000000000000000000000000000000000000000000000000000 PUSH0 MSTORE PUSH1 0x12 PUSH1 0x4 MSTORE PUSH1 0x24 PUSH0 REVERT JUMPDEST PUSH0 PUSH2 0x1D5F DUP3 PUSH2 0x15DF JUMP JUMPDEST SWAP2 POP PUSH2 0x1D6A DUP4 PUSH2 0x15DF JUMP JUMPDEST SWAP3 POP DUP3 PUSH2 0x1D7A JUMPI PUSH2 0x1D79 PUSH2 0x1D28 JUMP JUMPDEST JUMPDEST DUP3 DUP3 DIV SWAP1 POP SWAP3 SWAP2 POP POP JUMP INVALID LOG2 PUSH5 0x6970667358 0x22 SLT KECCAK256 0xC6 SWAP14 0xBB KECCAK256 OR PUSH16 0xB12F90447B7B546A30224DEE8310EA14 PC 0xE6 SWAP15 0xC5 RETURNDATASIZE XOR 0xB8 JUMPI CALLDATASIZE 0xC7 PUSH5 0x736F6C6343 STOP ADDMOD BYTE STOP CALLER "
		},
		"gasEstimates": {
			"creation": {
				"codeDepositCost": "1522200",
				"executionCost": "70078",
				"totalCost": "1592278"
			},
			"external": {
				"BuyEggs(uint16,uint8,uint232,address)": "infinite",
				"DevAddress()": "2505",
				"InvestorsProfit()": "2513",
				"OpenEggs()": "infinite",
				"RecentDividendTime()": "2469",
				"TotalInvestmentAmount()": "2447"
			},
			"internal": {
				"GetWinninggrade(uint32)": "331",
				"GetWinningmultiple(uint256)": "291",
				"SafeMathadd(uint256,uint256)": "infinite",
				"SafeMathdiv(uint256,uint256)": "infinite",
				"SafeMathmul(uint256,uint256)": "infinite",
				"SafeMathsub(uint256,uint256)": "infinite"
			}
		},
		"methodIdentifiers": {
			"BuyEggs(uint16,uint8,uint232,address)": "c9ea0299",
			"DevAddress()": "89a4c1a0",
			"InvestorsProfit()": "ca6aae29",
			"OpenEggs()": "7da384fd",
			"RecentDividendTime()": "b1c617ff",
			"TotalInvestmentAmount()": "a659f4dc"
		}
	},
	"abi": [
		{
			"inputs": [],
			"stateMutability": "nonpayable",
			"type": "constructor"
		},
		{
			"inputs": [
				{
					"internalType": "uint16",
					"name": "LotCount",
					"type": "uint16"
				},
				{
					"internalType": "uint8",
					"name": "mul",
					"type": "uint8"
				},
				{
					"internalType": "uint232",
					"name": "Lucknum",
					"type": "uint232"
				},
				{
					"internalType": "address",
					"name": "ref",
					"type": "address"
				}
			],
			"name": "BuyEggs",
			"outputs": [],
			"stateMutability": "payable",
			"type": "function"
		},
		{
			"inputs": [],
			"name": "DevAddress",
			"outputs": [
				{
					"internalType": "address",
					"name": "",
					"type": "address"
				}
			],
			"stateMutability": "view",
			"type": "function"
		},
		{
			"inputs": [],
			"name": "InvestorsProfit",
			"outputs": [
				{
					"internalType": "uint256",
					"name": "",
					"type": "uint256"
				}
			],
			"stateMutability": "view",
			"type": "function"
		},
		{
			"inputs": [],
			"name": "OpenEggs",
			"outputs": [],
			"stateMutability": "nonpayable",
			"type": "function"
		},
		{
			"inputs": [],
			"name": "RecentDividendTime",
			"outputs": [
				{
					"internalType": "uint256",
					"name": "",
					"type": "uint256"
				}
			],
			"stateMutability": "view",
			"type": "function"
		},
		{
			"inputs": [],
			"name": "TotalInvestmentAmount",
			"outputs": [
				{
					"internalType": "uint256",
					"name": "",
					"type": "uint256"
				}
			],
			"stateMutability": "view",
			"type": "function"
		}
	]
}