{
	"data": {
		"bytecode": {
			"linkReferences": {},
			"object": "6080604052348015600e575f80fd5b50335f806101000a81548173ffffffffffffffffffffffffffffffffffffffff021916908373ffffffffffffffffffffffffffffffffffffffff1602179055504260068190555042600881905550610fc3806100695f395ff3fe608060405260043610610049575f3560e01c806389a4c1a01461004d578063a659f4dc14610077578063b1c617ff146100a1578063c9ea0299146100cb578063ca6aae29146100e7575b5f80fd5b348015610058575f80fd5b50610061610111565b60405161006e9190610978565b60405180910390f35b348015610082575f80fd5b5061008b610134565b60405161009891906109a9565b60405180910390f35b3480156100ac575f80fd5b506100b561013a565b6040516100c291906109a9565b60405180910390f35b6100e560048036038101906100e09190610aaf565b610140565b005b3480156100f2575f80fd5b506100fb6108c4565b60405161010891906109a9565b60405180910390f35b5f8054906101000a900473ffffffffffffffffffffffffffffffffffffffff1681565b60045481565b60065481565b66470de4df82000034101561018a576040517f08c379a000000000000000000000000000000000000000000000000000000000815260040161018190610b6d565b60405180910390fd5b60018360ff16101580156101a2575060648360ff1611155b6101e1576040517f08c379a00000000000000000000000000000000000000000000000000000000081526004016101d890610bd5565b60405180910390fd5b60018461ffff16101580156101fc57506103e88461ffff1611155b61023b576040517f08c379a000000000000000000000000000000000000000000000000000000000815260040161023290610c3d565b60405180910390fd5b5f61024d3466470de4df8200006108ca565b90508360ff168561025e9190610c88565b61ffff1681146102a3576040517f08c379a000000000000000000000000000000000000000000000000000000000815260040161029a90610d0e565b60405180910390fd5b5f5b8561ffff16811015610426575f604051806060016040528042413389806102cb90610d2c565b9a506040516020016102e09493929190610e42565b6040516020818303038152906040528051906020012081526020018760ff168152602001437effffffffffffffffffffffffffffffffffffffffffffffffffffffffffffff16815250905060095f3373ffffffffffffffffffffffffffffffffffffffff1673ffffffffffffffffffffffffffffffffffffffff1681526020019081526020015f205f0181908060018154018082558091505060019003905f5260205f2090600202015f909190919091505f820151815f01556020820151816001015f6101000a81548160ff021916908360ff16021790555060408201518160010160016101000a8154817effffffffffffffffffffffffffffffffffffffffffffffffffffffffffffff02191690837effffffffffffffffffffffffffffffffffffffffffffffffffffffffffffff16021790555050505080806001019150506102a5565b5060095f3373ffffffffffffffffffffffffffffffffffffffff1673ffffffffffffffffffffffffffffffffffffffff1681526020019081526020015f206003015f9054906101000a900460ff166104d157600160095f3373ffffffffffffffffffffffffffffffffffffffff1673ffffffffffffffffffffffffffffffffffffffff1681526020019081526020015f206003015f6101000a81548160ff0219169083151502179055505b5f6104e76104e03460036108f4565b60646108ca565b90505f6104ff6104f83460046108f4565b60646108ca565b90508160015f8282546105129190610e8f565b925050819055508160055f82825461052a9190610e8f565b925050819055505f73ffffffffffffffffffffffffffffffffffffffff16600a5f3373ffffffffffffffffffffffffffffffffffffffff1673ffffffffffffffffffffffffffffffffffffffff1681526020019081526020015f205f9054906101000a900473ffffffffffffffffffffffffffffffffffffffff1673ffffffffffffffffffffffffffffffffffffffff16036108bb573373ffffffffffffffffffffffffffffffffffffffff168473ffffffffffffffffffffffffffffffffffffffff16148061062557505f73ffffffffffffffffffffffffffffffffffffffff168473ffffffffffffffffffffffffffffffffffffffff16145b8061067a575060095f3373ffffffffffffffffffffffffffffffffffffffff1673ffffffffffffffffffffffffffffffffffffffff1681526020019081526020015f206003015f9054906101000a900460ff16155b156106a2575f8054906101000a900473ffffffffffffffffffffffffffffffffffffffff1693505b83600a5f3373ffffffffffffffffffffffffffffffffffffffff1673ffffffffffffffffffffffffffffffffffffffff1681526020019081526020015f205f6101000a81548173ffffffffffffffffffffffffffffffffffffffff021916908373ffffffffffffffffffffffffffffffffffffffff1602179055505f8054906101000a900473ffffffffffffffffffffffffffffffffffffffff1673ffffffffffffffffffffffffffffffffffffffff16600a5f3373ffffffffffffffffffffffffffffffffffffffff1673ffffffffffffffffffffffffffffffffffffffff1681526020019081526020015f205f9054906101000a900473ffffffffffffffffffffffffffffffffffffffff1673ffffffffffffffffffffffffffffffffffffffff16036107e8578060015f8282546107dc9190610e8f565b925050819055506108b3565b8060095f600a5f3373ffffffffffffffffffffffffffffffffffffffff1673ffffffffffffffffffffffffffffffffffffffff1681526020019081526020015f205f9054906101000a900473ffffffffffffffffffffffffffffffffffffffff1673ffffffffffffffffffffffffffffffffffffffff1673ffffffffffffffffffffffffffffffffffffffff1681526020019081526020015f206002015f8282546108939190610e8f565b925050819055508060075f8282546108ab9190610e8f565b925050819055505b426008819055505b50505050505050565b60055481565b5f8082116108db576108da610ec2565b5b5f82846108e89190610f1c565b90508091505092915050565b5f808303610904575f9050610933565b5f82846109119190610f4c565b90508284826109209190610f1c565b1461092e5761092d610ec2565b5b809150505b92915050565b5f73ffffffffffffffffffffffffffffffffffffffff82169050919050565b5f61096282610939565b9050919050565b61097281610958565b82525050565b5f60208201905061098b5f830184610969565b92915050565b5f819050919050565b6109a381610991565b82525050565b5f6020820190506109bc5f83018461099a565b92915050565b5f80fd5b5f61ffff82169050919050565b6109dc816109c6565b81146109e6575f80fd5b50565b5f813590506109f7816109d3565b92915050565b5f60ff82169050919050565b610a12816109fd565b8114610a1c575f80fd5b50565b5f81359050610a2d81610a09565b92915050565b5f7cffffffffffffffffffffffffffffffffffffffffffffffffffffffffff82169050919050565b610a6481610a33565b8114610a6e575f80fd5b50565b5f81359050610a7f81610a5b565b92915050565b610a8e81610958565b8114610a98575f80fd5b50565b5f81359050610aa981610a85565b92915050565b5f805f8060808587031215610ac757610ac66109c2565b5b5f610ad4878288016109e9565b9450506020610ae587828801610a1f565b9350506040610af687828801610a71565b9250506060610b0787828801610a9b565b91505092959194509250565b5f82825260208201905092915050565b7f427579206174206c65617374206f6e65206567670000000000000000000000005f82015250565b5f610b57601483610b13565b9150610b6282610b23565b602082019050919050565b5f6020820190508181035f830152610b8481610b4b565b9050919050565b7f4d756c7469706c6573206265747765656e203120616e642031303000000000005f82015250565b5f610bbf601b83610b13565b9150610bca82610b8b565b602082019050919050565b5f6020820190508181035f830152610bec81610bb3565b9050919050565b7f4e756d626572206f662065676773206265747765656e203120616e64203130305f82015250565b5f610c27602083610b13565b9150610c3282610bf3565b602082019050919050565b5f6020820190508181035f830152610c5481610c1b565b9050919050565b7f4e487b71000000000000000000000000000000000000000000000000000000005f52601160045260245ffd5b5f610c92826109c6565b9150610c9d836109c6565b9250828202610cab816109c6565b9150808214610cbd57610cbc610c5b565b5b5092915050565b7f496e76616c6964206461746100000000000000000000000000000000000000005f82015250565b5f610cf8600c83610b13565b9150610d0382610cc4565b602082019050919050565b5f6020820190508181035f830152610d2581610cec565b9050919050565b5f610d3682610a33565b91507cffffffffffffffffffffffffffffffffffffffffffffffffffffffffff8203610d6557610d64610c5b565b5b600182019050919050565b5f819050919050565b610d8a610d8582610991565b610d70565b82525050565b5f610d9a82610939565b9050919050565b5f8160601b9050919050565b5f610db782610da1565b9050919050565b5f610dc882610dad565b9050919050565b610de0610ddb82610d90565b610dbe565b82525050565b5f610df082610dad565b9050919050565b610e08610e0382610958565b610de6565b82525050565b5f8160181b9050919050565b5f610e2482610e0e565b9050919050565b610e3c610e3782610a33565b610e1a565b82525050565b5f610e4d8287610d79565b602082019150610e5d8286610dcf565b601482019150610e6d8285610df7565b601482019150610e7d8284610e2b565b601d8201915081905095945050505050565b5f610e9982610991565b9150610ea483610991565b9250828201905080821115610ebc57610ebb610c5b565b5b92915050565b7f4e487b71000000000000000000000000000000000000000000000000000000005f52600160045260245ffd5b7f4e487b71000000000000000000000000000000000000000000000000000000005f52601260045260245ffd5b5f610f2682610991565b9150610f3183610991565b925082610f4157610f40610eef565b5b828204905092915050565b5f610f5682610991565b9150610f6183610991565b9250828202610f6f81610991565b91508282048414831517610f8657610f85610c5b565b5b509291505056fea2646970667358221220df721976670d5d83a88a72e798b54c2c93c28623d04812e2cb1d13ac53beb7f164736f6c634300081a0033",
			"opcodes": "PUSH1 0x80 PUSH1 0x40 MSTORE CALLVALUE DUP1 ISZERO PUSH1 0xE JUMPI PUSH0 DUP1 REVERT JUMPDEST POP CALLER PUSH0 DUP1 PUSH2 0x100 EXP DUP2 SLOAD DUP2 PUSH20 0xFFFFFFFFFFFFFFFFFFFFFFFFFFFFFFFFFFFFFFFF MUL NOT AND SWAP1 DUP4 PUSH20 0xFFFFFFFFFFFFFFFFFFFFFFFFFFFFFFFFFFFFFFFF AND MUL OR SWAP1 SSTORE POP TIMESTAMP PUSH1 0x6 DUP2 SWAP1 SSTORE POP TIMESTAMP PUSH1 0x8 DUP2 SWAP1 SSTORE POP PUSH2 0xFC3 DUP1 PUSH2 0x69 PUSH0 CODECOPY PUSH0 RETURN INVALID PUSH1 0x80 PUSH1 0x40 MSTORE PUSH1 0x4 CALLDATASIZE LT PUSH2 0x49 JUMPI PUSH0 CALLDATALOAD PUSH1 0xE0 SHR DUP1 PUSH4 0x89A4C1A0 EQ PUSH2 0x4D JUMPI DUP1 PUSH4 0xA659F4DC EQ PUSH2 0x77 JUMPI DUP1 PUSH4 0xB1C617FF EQ PUSH2 0xA1 JUMPI DUP1 PUSH4 0xC9EA0299 EQ PUSH2 0xCB JUMPI DUP1 PUSH4 0xCA6AAE29 EQ PUSH2 0xE7 JUMPI JUMPDEST PUSH0 DUP1 REVERT JUMPDEST CALLVALUE DUP1 ISZERO PUSH2 0x58 JUMPI PUSH0 DUP1 REVERT JUMPDEST POP PUSH2 0x61 PUSH2 0x111 JUMP JUMPDEST PUSH1 0x40 MLOAD PUSH2 0x6E SWAP2 SWAP1 PUSH2 0x978 JUMP JUMPDEST PUSH1 0x40 MLOAD DUP1 SWAP2 SUB SWAP1 RETURN JUMPDEST CALLVALUE DUP1 ISZERO PUSH2 0x82 JUMPI PUSH0 DUP1 REVERT JUMPDEST POP PUSH2 0x8B PUSH2 0x134 JUMP JUMPDEST PUSH1 0x40 MLOAD PUSH2 0x98 SWAP2 SWAP1 PUSH2 0x9A9 JUMP JUMPDEST PUSH1 0x40 MLOAD DUP1 SWAP2 SUB SWAP1 RETURN JUMPDEST CALLVALUE DUP1 ISZERO PUSH2 0xAC JUMPI PUSH0 DUP1 REVERT JUMPDEST POP PUSH2 0xB5 PUSH2 0x13A JUMP JUMPDEST PUSH1 0x40 MLOAD PUSH2 0xC2 SWAP2 SWAP1 PUSH2 0x9A9 JUMP JUMPDEST PUSH1 0x40 MLOAD DUP1 SWAP2 SUB SWAP1 RETURN JUMPDEST PUSH2 0xE5 PUSH1 0x4 DUP1 CALLDATASIZE SUB DUP2 ADD SWAP1 PUSH2 0xE0 SWAP2 SWAP1 PUSH2 0xAAF JUMP JUMPDEST PUSH2 0x140 JUMP JUMPDEST STOP JUMPDEST CALLVALUE DUP1 ISZERO PUSH2 0xF2 JUMPI PUSH0 DUP1 REVERT JUMPDEST POP PUSH2 0xFB PUSH2 0x8C4 JUMP JUMPDEST PUSH1 0x40 MLOAD PUSH2 0x108 SWAP2 SWAP1 PUSH2 0x9A9 JUMP JUMPDEST PUSH1 0x40 MLOAD DUP1 SWAP2 SUB SWAP1 RETURN JUMPDEST PUSH0 DUP1 SLOAD SWAP1 PUSH2 0x100 EXP SWAP1 DIV PUSH20 0xFFFFFFFFFFFFFFFFFFFFFFFFFFFFFFFFFFFFFFFF AND DUP2 JUMP JUMPDEST PUSH1 0x4 SLOAD DUP2 JUMP JUMPDEST PUSH1 0x6 SLOAD DUP2 JUMP JUMPDEST PUSH7 0x470DE4DF820000 CALLVALUE LT ISZERO PUSH2 0x18A JUMPI PUSH1 0x40 MLOAD PUSH32 0x8C379A000000000000000000000000000000000000000000000000000000000 DUP2 MSTORE PUSH1 0x4 ADD PUSH2 0x181 SWAP1 PUSH2 0xB6D JUMP JUMPDEST PUSH1 0x40 MLOAD DUP1 SWAP2 SUB SWAP1 REVERT JUMPDEST PUSH1 0x1 DUP4 PUSH1 0xFF AND LT ISZERO DUP1 ISZERO PUSH2 0x1A2 JUMPI POP PUSH1 0x64 DUP4 PUSH1 0xFF AND GT ISZERO JUMPDEST PUSH2 0x1E1 JUMPI PUSH1 0x40 MLOAD PUSH32 0x8C379A000000000000000000000000000000000000000000000000000000000 DUP2 MSTORE PUSH1 0x4 ADD PUSH2 0x1D8 SWAP1 PUSH2 0xBD5 JUMP JUMPDEST PUSH1 0x40 MLOAD DUP1 SWAP2 SUB SWAP1 REVERT JUMPDEST PUSH1 0x1 DUP5 PUSH2 0xFFFF AND LT ISZERO DUP1 ISZERO PUSH2 0x1FC JUMPI POP PUSH2 0x3E8 DUP5 PUSH2 0xFFFF AND GT ISZERO JUMPDEST PUSH2 0x23B JUMPI PUSH1 0x40 MLOAD PUSH32 0x8C379A000000000000000000000000000000000000000000000000000000000 DUP2 MSTORE PUSH1 0x4 ADD PUSH2 0x232 SWAP1 PUSH2 0xC3D JUMP JUMPDEST PUSH1 0x40 MLOAD DUP1 SWAP2 SUB SWAP1 REVERT JUMPDEST PUSH0 PUSH2 0x24D CALLVALUE PUSH7 0x470DE4DF820000 PUSH2 0x8CA JUMP JUMPDEST SWAP1 POP DUP4 PUSH1 0xFF AND DUP6 PUSH2 0x25E SWAP2 SWAP1 PUSH2 0xC88 JUMP JUMPDEST PUSH2 0xFFFF AND DUP2 EQ PUSH2 0x2A3 JUMPI PUSH1 0x40 MLOAD PUSH32 0x8C379A000000000000000000000000000000000000000000000000000000000 DUP2 MSTORE PUSH1 0x4 ADD PUSH2 0x29A SWAP1 PUSH2 0xD0E JUMP JUMPDEST PUSH1 0x40 MLOAD DUP1 SWAP2 SUB SWAP1 REVERT JUMPDEST PUSH0 JUMPDEST DUP6 PUSH2 0xFFFF AND DUP2 LT ISZERO PUSH2 0x426 JUMPI PUSH0 PUSH1 0x40 MLOAD DUP1 PUSH1 0x60 ADD PUSH1 0x40 MSTORE DUP1 TIMESTAMP COINBASE CALLER DUP10 DUP1 PUSH2 0x2CB SWAP1 PUSH2 0xD2C JUMP JUMPDEST SWAP11 POP PUSH1 0x40 MLOAD PUSH1 0x20 ADD PUSH2 0x2E0 SWAP5 SWAP4 SWAP3 SWAP2 SWAP1 PUSH2 0xE42 JUMP JUMPDEST PUSH1 0x40 MLOAD PUSH1 0x20 DUP2 DUP4 SUB SUB DUP2 MSTORE SWAP1 PUSH1 0x40 MSTORE DUP1 MLOAD SWAP1 PUSH1 0x20 ADD KECCAK256 DUP2 MSTORE PUSH1 0x20 ADD DUP8 PUSH1 0xFF AND DUP2 MSTORE PUSH1 0x20 ADD NUMBER PUSH31 0xFFFFFFFFFFFFFFFFFFFFFFFFFFFFFFFFFFFFFFFFFFFFFFFFFFFFFFFFFFFFFF AND DUP2 MSTORE POP SWAP1 POP PUSH1 0x9 PUSH0 CALLER PUSH20 0xFFFFFFFFFFFFFFFFFFFFFFFFFFFFFFFFFFFFFFFF AND PUSH20 0xFFFFFFFFFFFFFFFFFFFFFFFFFFFFFFFFFFFFFFFF AND DUP2 MSTORE PUSH1 0x20 ADD SWAP1 DUP2 MSTORE PUSH1 0x20 ADD PUSH0 KECCAK256 PUSH0 ADD DUP2 SWAP1 DUP1 PUSH1 0x1 DUP2 SLOAD ADD DUP1 DUP3 SSTORE DUP1 SWAP2 POP POP PUSH1 0x1 SWAP1 SUB SWAP1 PUSH0 MSTORE PUSH1 0x20 PUSH0 KECCAK256 SWAP1 PUSH1 0x2 MUL ADD PUSH0 SWAP1 SWAP2 SWAP1 SWAP2 SWAP1 SWAP2 POP PUSH0 DUP3 ADD MLOAD DUP2 PUSH0 ADD SSTORE PUSH1 0x20 DUP3 ADD MLOAD DUP2 PUSH1 0x1 ADD PUSH0 PUSH2 0x100 EXP DUP2 SLOAD DUP2 PUSH1 0xFF MUL NOT AND SWAP1 DUP4 PUSH1 0xFF AND MUL OR SWAP1 SSTORE POP PUSH1 0x40 DUP3 ADD MLOAD DUP2 PUSH1 0x1 ADD PUSH1 0x1 PUSH2 0x100 EXP DUP2 SLOAD DUP2 PUSH31 0xFFFFFFFFFFFFFFFFFFFFFFFFFFFFFFFFFFFFFFFFFFFFFFFFFFFFFFFFFFFFFF MUL NOT AND SWAP1 DUP4 PUSH31 0xFFFFFFFFFFFFFFFFFFFFFFFFFFFFFFFFFFFFFFFFFFFFFFFFFFFFFFFFFFFFFF AND MUL OR SWAP1 SSTORE POP POP POP POP DUP1 DUP1 PUSH1 0x1 ADD SWAP2 POP POP PUSH2 0x2A5 JUMP JUMPDEST POP PUSH1 0x9 PUSH0 CALLER PUSH20 0xFFFFFFFFFFFFFFFFFFFFFFFFFFFFFFFFFFFFFFFF AND PUSH20 0xFFFFFFFFFFFFFFFFFFFFFFFFFFFFFFFFFFFFFFFF AND DUP2 MSTORE PUSH1 0x20 ADD SWAP1 DUP2 MSTORE PUSH1 0x20 ADD PUSH0 KECCAK256 PUSH1 0x3 ADD PUSH0 SWAP1 SLOAD SWAP1 PUSH2 0x100 EXP SWAP1 DIV PUSH1 0xFF AND PUSH2 0x4D1 JUMPI PUSH1 0x1 PUSH1 0x9 PUSH0 CALLER PUSH20 0xFFFFFFFFFFFFFFFFFFFFFFFFFFFFFFFFFFFFFFFF AND PUSH20 0xFFFFFFFFFFFFFFFFFFFFFFFFFFFFFFFFFFFFFFFF AND DUP2 MSTORE PUSH1 0x20 ADD SWAP1 DUP2 MSTORE PUSH1 0x20 ADD PUSH0 KECCAK256 PUSH1 0x3 ADD PUSH0 PUSH2 0x100 EXP DUP2 SLOAD DUP2 PUSH1 0xFF MUL NOT AND SWAP1 DUP4 ISZERO ISZERO MUL OR SWAP1 SSTORE POP JUMPDEST PUSH0 PUSH2 0x4E7 PUSH2 0x4E0 CALLVALUE PUSH1 0x3 PUSH2 0x8F4 JUMP JUMPDEST PUSH1 0x64 PUSH2 0x8CA JUMP JUMPDEST SWAP1 POP PUSH0 PUSH2 0x4FF PUSH2 0x4F8 CALLVALUE PUSH1 0x4 PUSH2 0x8F4 JUMP JUMPDEST PUSH1 0x64 PUSH2 0x8CA JUMP JUMPDEST SWAP1 POP DUP2 PUSH1 0x1 PUSH0 DUP3 DUP3 SLOAD PUSH2 0x512 SWAP2 SWAP1 PUSH2 0xE8F JUMP JUMPDEST SWAP3 POP POP DUP2 SWAP1 SSTORE POP DUP2 PUSH1 0x5 PUSH0 DUP3 DUP3 SLOAD PUSH2 0x52A SWAP2 SWAP1 PUSH2 0xE8F JUMP JUMPDEST SWAP3 POP POP DUP2 SWAP1 SSTORE POP PUSH0 PUSH20 0xFFFFFFFFFFFFFFFFFFFFFFFFFFFFFFFFFFFFFFFF AND PUSH1 0xA PUSH0 CALLER PUSH20 0xFFFFFFFFFFFFFFFFFFFFFFFFFFFFFFFFFFFFFFFF AND PUSH20 0xFFFFFFFFFFFFFFFFFFFFFFFFFFFFFFFFFFFFFFFF AND DUP2 MSTORE PUSH1 0x20 ADD SWAP1 DUP2 MSTORE PUSH1 0x20 ADD PUSH0 KECCAK256 PUSH0 SWAP1 SLOAD SWAP1 PUSH2 0x100 EXP SWAP1 DIV PUSH20 0xFFFFFFFFFFFFFFFFFFFFFFFFFFFFFFFFFFFFFFFF AND PUSH20 0xFFFFFFFFFFFFFFFFFFFFFFFFFFFFFFFFFFFFFFFF AND SUB PUSH2 0x8BB JUMPI CALLER PUSH20 0xFFFFFFFFFFFFFFFFFFFFFFFFFFFFFFFFFFFFFFFF AND DUP5 PUSH20 0xFFFFFFFFFFFFFFFFFFFFFFFFFFFFFFFFFFFFFFFF AND EQ DUP1 PUSH2 0x625 JUMPI POP PUSH0 PUSH20 0xFFFFFFFFFFFFFFFFFFFFFFFFFFFFFFFFFFFFFFFF AND DUP5 PUSH20 0xFFFFFFFFFFFFFFFFFFFFFFFFFFFFFFFFFFFFFFFF AND EQ JUMPDEST DUP1 PUSH2 0x67A JUMPI POP PUSH1 0x9 PUSH0 CALLER PUSH20 0xFFFFFFFFFFFFFFFFFFFFFFFFFFFFFFFFFFFFFFFF AND PUSH20 0xFFFFFFFFFFFFFFFFFFFFFFFFFFFFFFFFFFFFFFFF AND DUP2 MSTORE PUSH1 0x20 ADD SWAP1 DUP2 MSTORE PUSH1 0x20 ADD PUSH0 KECCAK256 PUSH1 0x3 ADD PUSH0 SWAP1 SLOAD SWAP1 PUSH2 0x100 EXP SWAP1 DIV PUSH1 0xFF AND ISZERO JUMPDEST ISZERO PUSH2 0x6A2 JUMPI PUSH0 DUP1 SLOAD SWAP1 PUSH2 0x100 EXP SWAP1 DIV PUSH20 0xFFFFFFFFFFFFFFFFFFFFFFFFFFFFFFFFFFFFFFFF AND SWAP4 POP JUMPDEST DUP4 PUSH1 0xA PUSH0 CALLER PUSH20 0xFFFFFFFFFFFFFFFFFFFFFFFFFFFFFFFFFFFFFFFF AND PUSH20 0xFFFFFFFFFFFFFFFFFFFFFFFFFFFFFFFFFFFFFFFF AND DUP2 MSTORE PUSH1 0x20 ADD SWAP1 DUP2 MSTORE PUSH1 0x20 ADD PUSH0 KECCAK256 PUSH0 PUSH2 0x100 EXP DUP2 SLOAD DUP2 PUSH20 0xFFFFFFFFFFFFFFFFFFFFFFFFFFFFFFFFFFFFFFFF MUL NOT AND SWAP1 DUP4 PUSH20 0xFFFFFFFFFFFFFFFFFFFFFFFFFFFFFFFFFFFFFFFF AND MUL OR SWAP1 SSTORE POP PUSH0 DUP1 SLOAD SWAP1 PUSH2 0x100 EXP SWAP1 DIV PUSH20 0xFFFFFFFFFFFFFFFFFFFFFFFFFFFFFFFFFFFFFFFF AND PUSH20 0xFFFFFFFFFFFFFFFFFFFFFFFFFFFFFFFFFFFFFFFF AND PUSH1 0xA PUSH0 CALLER PUSH20 0xFFFFFFFFFFFFFFFFFFFFFFFFFFFFFFFFFFFFFFFF AND PUSH20 0xFFFFFFFFFFFFFFFFFFFFFFFFFFFFFFFFFFFFFFFF AND DUP2 MSTORE PUSH1 0x20 ADD SWAP1 DUP2 MSTORE PUSH1 0x20 ADD PUSH0 KECCAK256 PUSH0 SWAP1 SLOAD SWAP1 PUSH2 0x100 EXP SWAP1 DIV PUSH20 0xFFFFFFFFFFFFFFFFFFFFFFFFFFFFFFFFFFFFFFFF AND PUSH20 0xFFFFFFFFFFFFFFFFFFFFFFFFFFFFFFFFFFFFFFFF AND SUB PUSH2 0x7E8 JUMPI DUP1 PUSH1 0x1 PUSH0 DUP3 DUP3 SLOAD PUSH2 0x7DC SWAP2 SWAP1 PUSH2 0xE8F JUMP JUMPDEST SWAP3 POP POP DUP2 SWAP1 SSTORE POP PUSH2 0x8B3 JUMP JUMPDEST DUP1 PUSH1 0x9 PUSH0 PUSH1 0xA PUSH0 CALLER PUSH20 0xFFFFFFFFFFFFFFFFFFFFFFFFFFFFFFFFFFFFFFFF AND PUSH20 0xFFFFFFFFFFFFFFFFFFFFFFFFFFFFFFFFFFFFFFFF AND DUP2 MSTORE PUSH1 0x20 ADD SWAP1 DUP2 MSTORE PUSH1 0x20 ADD PUSH0 KECCAK256 PUSH0 SWAP1 SLOAD SWAP1 PUSH2 0x100 EXP SWAP1 DIV PUSH20 0xFFFFFFFFFFFFFFFFFFFFFFFFFFFFFFFFFFFFFFFF AND PUSH20 0xFFFFFFFFFFFFFFFFFFFFFFFFFFFFFFFFFFFFFFFF AND PUSH20 0xFFFFFFFFFFFFFFFFFFFFFFFFFFFFFFFFFFFFFFFF AND DUP2 MSTORE PUSH1 0x20 ADD SWAP1 DUP2 MSTORE PUSH1 0x20 ADD PUSH0 KECCAK256 PUSH1 0x2 ADD PUSH0 DUP3 DUP3 SLOAD PUSH2 0x893 SWAP2 SWAP1 PUSH2 0xE8F JUMP JUMPDEST SWAP3 POP POP DUP2 SWAP1 SSTORE POP DUP1 PUSH1 0x7 PUSH0 DUP3 DUP3 SLOAD PUSH2 0x8AB SWAP2 SWAP1 PUSH2 0xE8F JUMP JUMPDEST SWAP3 POP POP DUP2 SWAP1 SSTORE POP JUMPDEST TIMESTAMP PUSH1 0x8 DUP2 SWAP1 SSTORE POP JUMPDEST POP POP POP POP POP POP POP JUMP JUMPDEST PUSH1 0x5 SLOAD DUP2 JUMP JUMPDEST PUSH0 DUP1 DUP3 GT PUSH2 0x8DB JUMPI PUSH2 0x8DA PUSH2 0xEC2 JUMP JUMPDEST JUMPDEST PUSH0 DUP3 DUP5 PUSH2 0x8E8 SWAP2 SWAP1 PUSH2 0xF1C JUMP JUMPDEST SWAP1 POP DUP1 SWAP2 POP POP SWAP3 SWAP2 POP POP JUMP JUMPDEST PUSH0 DUP1 DUP4 SUB PUSH2 0x904 JUMPI PUSH0 SWAP1 POP PUSH2 0x933 JUMP JUMPDEST PUSH0 DUP3 DUP5 PUSH2 0x911 SWAP2 SWAP1 PUSH2 0xF4C JUMP JUMPDEST SWAP1 POP DUP3 DUP5 DUP3 PUSH2 0x920 SWAP2 SWAP1 PUSH2 0xF1C JUMP JUMPDEST EQ PUSH2 0x92E JUMPI PUSH2 0x92D PUSH2 0xEC2 JUMP JUMPDEST JUMPDEST DUP1 SWAP2 POP POP JUMPDEST SWAP3 SWAP2 POP POP JUMP JUMPDEST PUSH0 PUSH20 0xFFFFFFFFFFFFFFFFFFFFFFFFFFFFFFFFFFFFFFFF DUP3 AND SWAP1 POP SWAP2 SWAP1 POP JUMP JUMPDEST PUSH0 PUSH2 0x962 DUP3 PUSH2 0x939 JUMP JUMPDEST SWAP1 POP SWAP2 SWAP1 POP JUMP JUMPDEST PUSH2 0x972 DUP2 PUSH2 0x958 JUMP JUMPDEST DUP3 MSTORE POP POP JUMP JUMPDEST PUSH0 PUSH1 0x20 DUP3 ADD SWAP1 POP PUSH2 0x98B PUSH0 DUP4 ADD DUP5 PUSH2 0x969 JUMP JUMPDEST SWAP3 SWAP2 POP POP JUMP JUMPDEST PUSH0 DUP2 SWAP1 POP SWAP2 SWAP1 POP JUMP JUMPDEST PUSH2 0x9A3 DUP2 PUSH2 0x991 JUMP JUMPDEST DUP3 MSTORE POP POP JUMP JUMPDEST PUSH0 PUSH1 0x20 DUP3 ADD SWAP1 POP PUSH2 0x9BC PUSH0 DUP4 ADD DUP5 PUSH2 0x99A JUMP JUMPDEST SWAP3 SWAP2 POP POP JUMP JUMPDEST PUSH0 DUP1 REVERT JUMPDEST PUSH0 PUSH2 0xFFFF DUP3 AND SWAP1 POP SWAP2 SWAP1 POP JUMP JUMPDEST PUSH2 0x9DC DUP2 PUSH2 0x9C6 JUMP JUMPDEST DUP2 EQ PUSH2 0x9E6 JUMPI PUSH0 DUP1 REVERT JUMPDEST POP JUMP JUMPDEST PUSH0 DUP2 CALLDATALOAD SWAP1 POP PUSH2 0x9F7 DUP2 PUSH2 0x9D3 JUMP JUMPDEST SWAP3 SWAP2 POP POP JUMP JUMPDEST PUSH0 PUSH1 0xFF DUP3 AND SWAP1 POP SWAP2 SWAP1 POP JUMP JUMPDEST PUSH2 0xA12 DUP2 PUSH2 0x9FD JUMP JUMPDEST DUP2 EQ PUSH2 0xA1C JUMPI PUSH0 DUP1 REVERT JUMPDEST POP JUMP JUMPDEST PUSH0 DUP2 CALLDATALOAD SWAP1 POP PUSH2 0xA2D DUP2 PUSH2 0xA09 JUMP JUMPDEST SWAP3 SWAP2 POP POP JUMP JUMPDEST PUSH0 PUSH29 0xFFFFFFFFFFFFFFFFFFFFFFFFFFFFFFFFFFFFFFFFFFFFFFFFFFFFFFFFFF DUP3 AND SWAP1 POP SWAP2 SWAP1 POP JUMP JUMPDEST PUSH2 0xA64 DUP2 PUSH2 0xA33 JUMP JUMPDEST DUP2 EQ PUSH2 0xA6E JUMPI PUSH0 DUP1 REVERT JUMPDEST POP JUMP JUMPDEST PUSH0 DUP2 CALLDATALOAD SWAP1 POP PUSH2 0xA7F DUP2 PUSH2 0xA5B JUMP JUMPDEST SWAP3 SWAP2 POP POP JUMP JUMPDEST PUSH2 0xA8E DUP2 PUSH2 0x958 JUMP JUMPDEST DUP2 EQ PUSH2 0xA98 JUMPI PUSH0 DUP1 REVERT JUMPDEST POP JUMP JUMPDEST PUSH0 DUP2 CALLDATALOAD SWAP1 POP PUSH2 0xAA9 DUP2 PUSH2 0xA85 JUMP JUMPDEST SWAP3 SWAP2 POP POP JUMP JUMPDEST PUSH0 DUP1 PUSH0 DUP1 PUSH1 0x80 DUP6 DUP8 SUB SLT ISZERO PUSH2 0xAC7 JUMPI PUSH2 0xAC6 PUSH2 0x9C2 JUMP JUMPDEST JUMPDEST PUSH0 PUSH2 0xAD4 DUP8 DUP3 DUP9 ADD PUSH2 0x9E9 JUMP JUMPDEST SWAP5 POP POP PUSH1 0x20 PUSH2 0xAE5 DUP8 DUP3 DUP9 ADD PUSH2 0xA1F JUMP JUMPDEST SWAP4 POP POP PUSH1 0x40 PUSH2 0xAF6 DUP8 DUP3 DUP9 ADD PUSH2 0xA71 JUMP JUMPDEST SWAP3 POP POP PUSH1 0x60 PUSH2 0xB07 DUP8 DUP3 DUP9 ADD PUSH2 0xA9B JUMP JUMPDEST SWAP2 POP POP SWAP3 SWAP6 SWAP2 SWAP5 POP SWAP3 POP JUMP JUMPDEST PUSH0 DUP3 DUP3 MSTORE PUSH1 0x20 DUP3 ADD SWAP1 POP SWAP3 SWAP2 POP POP JUMP JUMPDEST PUSH32 0x427579206174206C65617374206F6E6520656767000000000000000000000000 PUSH0 DUP3 ADD MSTORE POP JUMP JUMPDEST PUSH0 PUSH2 0xB57 PUSH1 0x14 DUP4 PUSH2 0xB13 JUMP JUMPDEST SWAP2 POP PUSH2 0xB62 DUP3 PUSH2 0xB23 JUMP JUMPDEST PUSH1 0x20 DUP3 ADD SWAP1 POP SWAP2 SWAP1 POP JUMP JUMPDEST PUSH0 PUSH1 0x20 DUP3 ADD SWAP1 POP DUP2 DUP2 SUB PUSH0 DUP4 ADD MSTORE PUSH2 0xB84 DUP2 PUSH2 0xB4B JUMP JUMPDEST SWAP1 POP SWAP2 SWAP1 POP JUMP JUMPDEST PUSH32 0x4D756C7469706C6573206265747765656E203120616E64203130300000000000 PUSH0 DUP3 ADD MSTORE POP JUMP JUMPDEST PUSH0 PUSH2 0xBBF PUSH1 0x1B DUP4 PUSH2 0xB13 JUMP JUMPDEST SWAP2 POP PUSH2 0xBCA DUP3 PUSH2 0xB8B JUMP JUMPDEST PUSH1 0x20 DUP3 ADD SWAP1 POP SWAP2 SWAP1 POP JUMP JUMPDEST PUSH0 PUSH1 0x20 DUP3 ADD SWAP1 POP DUP2 DUP2 SUB PUSH0 DUP4 ADD MSTORE PUSH2 0xBEC DUP2 PUSH2 0xBB3 JUMP JUMPDEST SWAP1 POP SWAP2 SWAP1 POP JUMP JUMPDEST PUSH32 0x4E756D626572206F662065676773206265747765656E203120616E6420313030 PUSH0 DUP3 ADD MSTORE POP JUMP JUMPDEST PUSH0 PUSH2 0xC27 PUSH1 0x20 DUP4 PUSH2 0xB13 JUMP JUMPDEST SWAP2 POP PUSH2 0xC32 DUP3 PUSH2 0xBF3 JUMP JUMPDEST PUSH1 0x20 DUP3 ADD SWAP1 POP SWAP2 SWAP1 POP JUMP JUMPDEST PUSH0 PUSH1 0x20 DUP3 ADD SWAP1 POP DUP2 DUP2 SUB PUSH0 DUP4 ADD MSTORE PUSH2 0xC54 DUP2 PUSH2 0xC1B JUMP JUMPDEST SWAP1 POP SWAP2 SWAP1 POP JUMP JUMPDEST PUSH32 0x4E487B7100000000000000000000000000000000000000000000000000000000 PUSH0 MSTORE PUSH1 0x11 PUSH1 0x4 MSTORE PUSH1 0x24 PUSH0 REVERT JUMPDEST PUSH0 PUSH2 0xC92 DUP3 PUSH2 0x9C6 JUMP JUMPDEST SWAP2 POP PUSH2 0xC9D DUP4 PUSH2 0x9C6 JUMP JUMPDEST SWAP3 POP DUP3 DUP3 MUL PUSH2 0xCAB DUP2 PUSH2 0x9C6 JUMP JUMPDEST SWAP2 POP DUP1 DUP3 EQ PUSH2 0xCBD JUMPI PUSH2 0xCBC PUSH2 0xC5B JUMP JUMPDEST JUMPDEST POP SWAP3 SWAP2 POP POP JUMP JUMPDEST PUSH32 0x496E76616C696420646174610000000000000000000000000000000000000000 PUSH0 DUP3 ADD MSTORE POP JUMP JUMPDEST PUSH0 PUSH2 0xCF8 PUSH1 0xC DUP4 PUSH2 0xB13 JUMP JUMPDEST SWAP2 POP PUSH2 0xD03 DUP3 PUSH2 0xCC4 JUMP JUMPDEST PUSH1 0x20 DUP3 ADD SWAP1 POP SWAP2 SWAP1 POP JUMP JUMPDEST PUSH0 PUSH1 0x20 DUP3 ADD SWAP1 POP DUP2 DUP2 SUB PUSH0 DUP4 ADD MSTORE PUSH2 0xD25 DUP2 PUSH2 0xCEC JUMP JUMPDEST SWAP1 POP SWAP2 SWAP1 POP JUMP JUMPDEST PUSH0 PUSH2 0xD36 DUP3 PUSH2 0xA33 JUMP JUMPDEST SWAP2 POP PUSH29 0xFFFFFFFFFFFFFFFFFFFFFFFFFFFFFFFFFFFFFFFFFFFFFFFFFFFFFFFFFF DUP3 SUB PUSH2 0xD65 JUMPI PUSH2 0xD64 PUSH2 0xC5B JUMP JUMPDEST JUMPDEST PUSH1 0x1 DUP3 ADD SWAP1 POP SWAP2 SWAP1 POP JUMP JUMPDEST PUSH0 DUP2 SWAP1 POP SWAP2 SWAP1 POP JUMP JUMPDEST PUSH2 0xD8A PUSH2 0xD85 DUP3 PUSH2 0x991 JUMP JUMPDEST PUSH2 0xD70 JUMP JUMPDEST DUP3 MSTORE POP POP JUMP JUMPDEST PUSH0 PUSH2 0xD9A DUP3 PUSH2 0x939 JUMP JUMPDEST SWAP1 POP SWAP2 SWAP1 POP JUMP JUMPDEST PUSH0 DUP2 PUSH1 0x60 SHL SWAP1 POP SWAP2 SWAP1 POP JUMP JUMPDEST PUSH0 PUSH2 0xDB7 DUP3 PUSH2 0xDA1 JUMP JUMPDEST SWAP1 POP SWAP2 SWAP1 POP JUMP JUMPDEST PUSH0 PUSH2 0xDC8 DUP3 PUSH2 0xDAD JUMP JUMPDEST SWAP1 POP SWAP2 SWAP1 POP JUMP JUMPDEST PUSH2 0xDE0 PUSH2 0xDDB DUP3 PUSH2 0xD90 JUMP JUMPDEST PUSH2 0xDBE JUMP JUMPDEST DUP3 MSTORE POP POP JUMP JUMPDEST PUSH0 PUSH2 0xDF0 DUP3 PUSH2 0xDAD JUMP JUMPDEST SWAP1 POP SWAP2 SWAP1 POP JUMP JUMPDEST PUSH2 0xE08 PUSH2 0xE03 DUP3 PUSH2 0x958 JUMP JUMPDEST PUSH2 0xDE6 JUMP JUMPDEST DUP3 MSTORE POP POP JUMP JUMPDEST PUSH0 DUP2 PUSH1 0x18 SHL SWAP1 POP SWAP2 SWAP1 POP JUMP JUMPDEST PUSH0 PUSH2 0xE24 DUP3 PUSH2 0xE0E JUMP JUMPDEST SWAP1 POP SWAP2 SWAP1 POP JUMP JUMPDEST PUSH2 0xE3C PUSH2 0xE37 DUP3 PUSH2 0xA33 JUMP JUMPDEST PUSH2 0xE1A JUMP JUMPDEST DUP3 MSTORE POP POP JUMP JUMPDEST PUSH0 PUSH2 0xE4D DUP3 DUP8 PUSH2 0xD79 JUMP JUMPDEST PUSH1 0x20 DUP3 ADD SWAP2 POP PUSH2 0xE5D DUP3 DUP7 PUSH2 0xDCF JUMP JUMPDEST PUSH1 0x14 DUP3 ADD SWAP2 POP PUSH2 0xE6D DUP3 DUP6 PUSH2 0xDF7 JUMP JUMPDEST PUSH1 0x14 DUP3 ADD SWAP2 POP PUSH2 0xE7D DUP3 DUP5 PUSH2 0xE2B JUMP JUMPDEST PUSH1 0x1D DUP3 ADD SWAP2 POP DUP2 SWAP1 POP SWAP6 SWAP5 POP POP POP POP POP JUMP JUMPDEST PUSH0 PUSH2 0xE99 DUP3 PUSH2 0x991 JUMP JUMPDEST SWAP2 POP PUSH2 0xEA4 DUP4 PUSH2 0x991 JUMP JUMPDEST SWAP3 POP DUP3 DUP3 ADD SWAP1 POP DUP1 DUP3 GT ISZERO PUSH2 0xEBC JUMPI PUSH2 0xEBB PUSH2 0xC5B JUMP JUMPDEST JUMPDEST SWAP3 SWAP2 POP POP JUMP JUMPDEST PUSH32 0x4E487B7100000000000000000000000000000000000000000000000000000000 PUSH0 MSTORE PUSH1 0x1 PUSH1 0x4 MSTORE PUSH1 0x24 PUSH0 REVERT JUMPDEST PUSH32 0x4E487B7100000000000000000000000000000000000000000000000000000000 PUSH0 MSTORE PUSH1 0x12 PUSH1 0x4 MSTORE PUSH1 0x24 PUSH0 REVERT JUMPDEST PUSH0 PUSH2 0xF26 DUP3 PUSH2 0x991 JUMP JUMPDEST SWAP2 POP PUSH2 0xF31 DUP4 PUSH2 0x991 JUMP JUMPDEST SWAP3 POP DUP3 PUSH2 0xF41 JUMPI PUSH2 0xF40 PUSH2 0xEEF JUMP JUMPDEST JUMPDEST DUP3 DUP3 DIV SWAP1 POP SWAP3 SWAP2 POP POP JUMP JUMPDEST PUSH0 PUSH2 0xF56 DUP3 PUSH2 0x991 JUMP JUMPDEST SWAP2 POP PUSH2 0xF61 DUP4 PUSH2 0x991 JUMP JUMPDEST SWAP3 POP DUP3 DUP3 MUL PUSH2 0xF6F DUP2 PUSH2 0x991 JUMP JUMPDEST SWAP2 POP DUP3 DUP3 DIV DUP5 EQ DUP4 ISZERO OR PUSH2 0xF86 JUMPI PUSH2 0xF85 PUSH2 0xC5B JUMP JUMPDEST JUMPDEST POP SWAP3 SWAP2 POP POP JUMP INVALID LOG2 PUSH5 0x6970667358 0x22 SLT KECCAK256 0xDF PUSH19 0x1976670D5D83A88A72E798B54C2C93C28623D0 BASEFEE SLT 0xE2 0xCB SAR SGT 0xAC MSTORE8 0xBE 0xB7 CALL PUSH5 0x736F6C6343 STOP ADDMOD BYTE STOP CALLER "
		},
		"gasEstimates": {
			"creation": {
				"codeDepositCost": "807000",
				"executionCost": "69333",
				"totalCost": "876333"
			},
			"external": {
				"BuyEggs(uint16,uint8,uint232,address)": "infinite",
				"DevAddress()": "2483",
				"InvestorsProfit()": "2491",
				"RecentDividendTime()": "2447",
				"TotalInvestmentAmount()": "2425"
			},
			"internal": {
				"SafeMathadd(uint256,uint256)": "infinite",
				"SafeMathdiv(uint256,uint256)": "infinite",
				"SafeMathmul(uint256,uint256)": "infinite",
				"SafeMathsub(uint256,uint256)": "infinite"
			}
		},
		"methodIdentifiers": {
			"BuyEggs(uint16,uint8,uint232,address)": "c9ea0299",
			"DevAddress()": "89a4c1a0",
			"InvestorsProfit()": "ca6aae29",
			"RecentDividendTime()": "b1c617ff",
			"TotalInvestmentAmount()": "a659f4dc"
		}
	},
	"abi": [
		{
			"inputs": [],
			"stateMutability": "nonpayable",
			"type": "constructor"
		},
		{
			"inputs": [
				{
					"internalType": "uint16",
					"name": "LotCount",
					"type": "uint16"
				},
				{
					"internalType": "uint8",
					"name": "mul",
					"type": "uint8"
				},
				{
					"internalType": "uint232",
					"name": "Lucknum",
					"type": "uint232"
				},
				{
					"internalType": "address",
					"name": "ref",
					"type": "address"
				}
			],
			"name": "BuyEggs",
			"outputs": [],
			"stateMutability": "payable",
			"type": "function"
		},
		{
			"inputs": [],
			"name": "DevAddress",
			"outputs": [
				{
					"internalType": "address",
					"name": "",
					"type": "address"
				}
			],
			"stateMutability": "view",
			"type": "function"
		},
		{
			"inputs": [],
			"name": "InvestorsProfit",
			"outputs": [
				{
					"internalType": "uint256",
					"name": "",
					"type": "uint256"
				}
			],
			"stateMutability": "view",
			"type": "function"
		},
		{
			"inputs": [],
			"name": "RecentDividendTime",
			"outputs": [
				{
					"internalType": "uint256",
					"name": "",
					"type": "uint256"
				}
			],
			"stateMutability": "view",
			"type": "function"
		},
		{
			"inputs": [],
			"name": "TotalInvestmentAmount",
			"outputs": [
				{
					"internalType": "uint256",
					"name": "",
					"type": "uint256"
				}
			],
			"stateMutability": "view",
			"type": "function"
		}
	]
}