{
	"data": {
		"bytecode": {
			"linkReferences": {},
			"object": "6080604052348015600e575f80fd5b505f80546001600160a01b03191633179055426006819055600855611c6c806100365f395ff3fe6080604052600436106100e4575f3560e01c8063a659f4dc11610087578063cf43830511610057578063cf4383051461020d578063d9498a8314610241578063dd5f6f4d14610262578063f4e79b5b14610281575f80fd5b8063a659f4dc146101ad578063b1c617ff146101d0578063c9ea0299146101e5578063ca6aae29146101f8575f80fd5b80632b5baca1116100c25780632b5baca114610126578063498213321461015b5780637da384fd1461016357806389a4c1a014610177575f80fd5b806312db1357146100e857806322629256146100fe578063289f901914610112575b5f80fd5b3480156100f3575f80fd5b506100fc610295565b005b348015610109575f80fd5b506100fc6104c4565b34801561011d575f80fd5b506100fc610589565b348015610131575f80fd5b506101456101403660046119c5565b6107dc565b60405161015291906119dc565b60405180910390f35b6100fc610916565b34801561016e575f80fd5b506100fc610a75565b348015610182575f80fd5b505f54610195906001600160a01b031681565b6040516001600160a01b039091168152602001610152565b3480156101b8575f80fd5b506101c260045481565b604051908152602001610152565b3480156101db575f80fd5b506101c260065481565b6100fc6101f3366004611a69565b610ff0565b348015610203575f80fd5b506101c260055481565b348015610218575f80fd5b506101c2610227366004611ad6565b6001600160a01b03165f9081526003602052604090205490565b34801561024c575f80fd5b50610255611406565b6040516101529190611aef565b34801561026d575f80fd5b506100fc61027c3660046119c5565b611486565b34801561028c575f80fd5b506100fc611680565b335f90815260036020526040902054670de0b6b3a76400001115806102c357505f546001600160a01b031633145b61030d5760405162461bcd60e51b81526020600482015260166024820152752cb7ba9036bab9ba10313290309034b73b32b9ba37b960511b60448201526064015b60405180910390fd5b6005546001546007545f91829161033991479161032a9087611b4f565b6103349190611b4f565b61171a565b905069021e19e0c9bab2400000811061037b5761035760c882611b62565b6103619084611b4f565b925061036e60c882611b62565b6103789083611b4f565b91505b5f60058190555b60025481101561048057670de0b6b3a764000060035f600284815481106103ab576103ab611b81565b5f9182526020808320909101546001600160a01b0316835282019290925260400190205410610478575f61042361041b60035f600286815481106103f1576103f1611b81565b5f9182526020808320909101546001600160a01b031683528201929092526040019020548761173e565b600454611772565b90506002828154811061043857610438611b81565b5f9182526020822001546040516001600160a01b039091169183156108fc02918491818181858888f19350505050158015610475573d5f803e3d5ffd5b50505b600101610382565b5081156104bf575f80546040516001600160a01b039091169184156108fc02918591818181858888f193505050501580156104bd573d5f803e3d5ffd5b505b505050565b335f90815260096020526040902060020154662386f26fc10000111561052c5760405162461bcd60e51b815260206004820152601e60248201527f4e6f7420656e6f7567682070726f66697420746f2077697468647261772100006044820152606401610304565b335f9081526009602052604081206002018054908290556007805491928392610556908490611b95565b9091555050604051339082156108fc029083905f818181858888f19350505050158015610585573d5f803e3d5ffd5b5050565b5f546001600160a01b0316331461059e575f80fd5b6008546105ae906213c680611b4f565b4210156105b9575f80fd5b60045447106106b6575f5b6002548110156106b057670de0b6b3a764000060035f600284815481106105ed576105ed611b81565b5f9182526020808320909101546001600160a01b03168352820192909252604001902054106106a8576002818154811061062957610629611b81565b5f918252602082200154600280546001600160a01b03909216926108fc92600392908690811061065b5761065b611b81565b5f9182526020808320909101546001600160a01b03168352820192909252604090810182205490518115909302929091818181858888f193505050501580156106a6573d5f803e3d5ffd5b505b6001016105c4565b506107cf565b47670de0b6b3a764000081106107cd575f5b6002548110156107cb57670de0b6b3a764000060035f600284815481106106f1576106f1611b81565b5f9182526020808320909101546001600160a01b03168352820192909252604001902054106107c3576002818154811061072d5761072d611b81565b5f918252602082200154600454600280546001600160a01b03909316936108fc938792600392918890811061076457610764611b81565b5f9182526020808320909101546001600160a01b031683528201929092526040019020546107929190611ba8565b61079c9190611b62565b6040518115909202915f818181858888f193505050501580156107c1573d5f803e3d5ffd5b505b6001016106c8565b505b505b5f546001600160a01b0316ff5b600b546060908290808211156107f0578091505b5f8267ffffffffffffffff81111561080a5761080a611bbf565b60405190808252806020026020018201604052801561085a57816020015b604080516080810182525f8082526020808301829052928201819052606082015282525f199092019101816108285790505b5090505f5b8381101561090d57600b81610875600186611b95565b61087f9190611b95565b8154811061088f5761088f611b81565b5f918252602091829020604080516080810182526003909302909101805463ffffffff8116845260ff64010000000090910416938301939093526001830154908201526002909101546001600160a01b0316606082015282518390839081106108fa576108fa611b81565b602090810291909101015260010161085f565b50949350505050565b670de0b6b3a764000034101580156109375750683635c9adc5dea000003411155b6109915760405162461bcd60e51b815260206004820152602560248201527f496e766573746d656e7420616d6f756e7420626574657765656e203120616e64604482015264020313030360dc1b6064820152608401610304565b69021e19e0c9bab24000006109b34760015460075460055461032a9190611b4f565b11156109bd575f80fd5b3460045f8282546109ce9190611b4f565b9091555050335f90815260036020526040812080543492906109f1908490611b4f565b9091555050335f9081526003602052604090204260018201556002015460ff16610a7357335f8181526003602052604081206002908101805460ff191660019081179091558154908101825591527f405787fa12a823e0f2b7631cc41b3ba8828b3321ca811111fa75cd3aa3bb5ace0180546001600160a01b03191690911790555b565b335f90815260096020526040902054610ade5760405162461bcd60e51b815260206004820152602560248201527f596f7520646f6e2774206861766520756e64726177206c6f7474657279207469604482015264636b65747360d81b6064820152608401610304565b335f9081526009602052604090208054610afa90600190611b95565b81548110610b0a57610b0a611b81565b5f91825260209091206002909102016001015461010090046001600160f81b03164311610b695760405162461bcd60e51b815260206004820152600d60248201526c49742773206e6f742074696d6560981b6044820152606401610304565b335f9081526009602052604090206001015415610b9d57335f908152600960205260408120610b9d91600190910190611951565b5f805b335f90815260096020526040902054811015610f1757335f908152600960205260409020805482908110610bd657610bd6611b81565b5f91825260209091206002909102016001015461010090046001600160f81b03164015610f0f57335f908152600960205260408120805483908110610c1d57610c1d611b81565b5f918252602080832060029092029091015433835260099091526040909120805484908110610c4e57610c4e611b81565b905f5260205f20906002020160010160019054906101000a90046001600160f81b03166001600160f81b031640604051602001610c95929190918252602082015260400190565b6040516020818303038152906040528051906020012060e01c90505f610cba82611795565b90508015610e6c57335f908152600960205260408120805466470de4df820000919086908110610cec57610cec611b81565b5f91825260209091206001600290920201015460ff16610d0b84611891565b610d159190611ba8565b610d1f9190611ba8565b9050610d2b8186611b4f565b6040805160808101825263ffffffff86168152335f9081526009602090815292812080549499509093919283019188908110610d6957610d69611b81565b5f9182526020808320600160029093020182015460ff908116855264ffffffffff42168583015233604095860152600b80549384018155909352845160039092027f0175b7a638427703f0dbe7bb9bbf987a2551717b34e79f33b5b1008d1fa01db981018054928701519094166401000000000264ffffffffff1990921663ffffffff9093169290921717909155908201517f0175b7a638427703f0dbe7bb9bbf987a2551717b34e79f33b5b1008d1fa01dba8201556060909101517f0175b7a638427703f0dbe7bb9bbf987a2551717b34e79f33b5b1008d1fa01dbb90910180546001600160a01b03929092166001600160a01b031990921691909117905550505b60408051808201825263ffffffff84168152335f908152600960209081529281208054919383019187908110610ea457610ea4611b81565b5f9182526020808320600160029093020182015460ff908116909452338352600981526040832082018054928301815583529182902084519101805494909201519092166401000000000264ffffffffff1990931663ffffffff909216919091179190911790555050505b600101610ba0565b50335f908152600960205260408120610f2f9161196c565b8015610fed575f610f61610f5a610f534760015460075460055461032a9190611b4f565b604661173e565b6064611772565b905080821115610f6f578091505b5f610f7e610f5a84600561173e565b90508060055f828254610f919190611b4f565b925050819055508060015f828254610fa99190611b4f565b909155503390506108fc610fbe836002611ba8565b610fc89086611b95565b6040518115909202915f818181858888f193505050501580156104bd573d5f803e3d5ffd5b50565b66470de4df82000034101561103e5760405162461bcd60e51b8152602060048201526014602482015273427579206174206c65617374206f6e652065676760601b6044820152606401610304565b60018360ff1610158015611056575060648360ff1611155b6110a25760405162461bcd60e51b815260206004820152601b60248201527f4d756c7469706c6573206265747765656e203120616e642031303000000000006044820152606401610304565b60018461ffff16101580156110bd57506103e88461ffff1611155b6111095760405162461bcd60e51b815260206004820181905260248201527f4e756d626572206f662065676773206265747765656e203120616e64203130306044820152606401610304565b5f61111b3466470de4df820000611772565b905061112a60ff851686611bd3565b61ffff16811461116b5760405162461bcd60e51b815260206004820152600c60248201526b496e76616c6964206461746160a01b6044820152606401610304565b5f5b8561ffff16811015611262575f6040518060600160405280424133898061119390611bf7565b9a506040516020016111df9493929190938452606092831b6bffffffffffffffffffffffff1990811660208601529190921b16603483015260181b62ffffff1916604882015260650190565b60408051601f198184030181529181528151602092830120835260ff808b16848401526001600160f81b0343811694830194909452335f908152600984528281208054600181810183559183529185902087516002909302019182559386015195909201519093166101000293909216929092179082015591909101905061116d565b50335f9081526009602052604090206003015460ff1661129957335f908152600960205260409020600301805460ff191660011790555b5f6112a8610f5a34600361173e565b90505f6112b9610f5a34600461173e565b90508160015f8282546112cc9190611b4f565b925050819055508160055f8282546112e49190611b4f565b9091555050335f908152600a60205260409020546001600160a01b03166113fd576001600160a01b03841633148061132357506001600160a01b038416155b806113405750335f9081526009602052604090206003015460ff16155b15611353575f546001600160a01b031693505b335f908152600a6020526040812080546001600160a01b0319166001600160a01b0387811691821790925591541690036113a3578060015f8282546113989190611b4f565b909155506113f89050565b335f908152600a60209081526040808320546001600160a01b031683526009909152812060020180548392906113da908490611b4f565b925050819055508060075f8282546113f29190611b4f565b90915550505b426008555b50505050505050565b335f908152600960209081526040808320600101805482518185028101850190935280835260609492939192909184015b8282101561147d575f848152602090819020604080518082019091529084015463ffffffff81168252640100000000900460ff1681830152825260019092019101611437565b50505050905090565b670de0b6b3a76400008110156115185760405162461bcd60e51b815260206004820152604b60248201527f4d696e696d756d20696e766573746d656e7420616d6f756e742069732072657160448201527f75697265642c6974277320736d616c6c6572207468616e20746865206d696e6960648201526a1b5d5b4819195c1bdcda5d60aa1b608482015260a401610304565b335f908152600360205260409020548111156115765760405162461bcd60e51b815260206004820152601c60248201527f4e6f7420656e6f7567682066756e6420746f20776974686472617721000000006044820152606401610304565b335f908152600360205260409020600101546115959062093a80611b4f565b4210156115e45760405162461bcd60e51b815260206004820152601f60248201527f43616e6e6f74207769746864726177206166746572206f6e65207765656b21006044820152606401610304565b806115fc4760015460075460055461032a9190611b4f565b101561164a5760405162461bcd60e51b815260206004820152601e60248201527f496e73756666696369656e742066756e6420746f2077697468647261772100006044820152606401610304565b335f9081526003602052604081208054839290611668908490611b95565b925050819055508060045f8282546105569190611b95565b5f546001600160a01b031633146116d95760405162461bcd60e51b815260206004820152601960248201527f596f75206d7573742062652074686520646576656c6f706572000000000000006044820152606401610304565b600180545f91829055815460405191926001600160a01b039091169183156108fc0291849190818181858888f19350505050158015610585573d5f803e3d5ffd5b5f8282111561172b5761172b611c22565b6117358284611b95565b90505b92915050565b5f825f0361174d57505f611738565b5f6117588385611ba8565b9050826117658583611b62565b1461173557611735611c22565b5f80821161178257611782611c22565b5f61178d8385611b62565b949350505050565b5f63040000008263ffffffff1611156117af57505f919050565b63010000008263ffffffff16106117c85750600a919050565b624000008263ffffffff16106117e057506009919050565b621000008263ffffffff16106117f857506008919050565b620400008263ffffffff161061181057506007919050565b620100008263ffffffff161061182857506006919050565b6140008263ffffffff161061183f57506005919050565b6110008263ffffffff161061185657506004919050565b6104008263ffffffff161061186d57506003919050565b6101008263ffffffff161061188457506002919050565b506001919050565b919050565b5f815f036118a057505f919050565b81600a036118b057506005919050565b816009036118c057506014919050565b816008036118d057506050919050565b816007036118e15750610140919050565b816006036118f257506104b0919050565b8160050361190357506112c0919050565b816004036119145750614e20919050565b816003036119265750620186a0919050565b8160020361193857506207a120919050565b8160010361194a5750621e8480919050565b505f919050565b5080545f8255905f5260205f2090810190610fed919061198a565b5080545f8255600202905f5260205f2090810190610fed91906119ab565b5b808211156119a757805464ffffffffff1916815560010161198b565b5090565b5b808211156119a7575f80825560018201556002016119ac565b5f602082840312156119d5575f80fd5b5035919050565b602080825282518282018190525f918401906040840190835b81811015611a48578351805163ffffffff16845260208082015160ff1681860152604080830151908601526060918201516001600160a01b031691850191909152909301926080909201916001016119f5565b509095945050505050565b80356001600160a01b038116811461188c575f80fd5b5f805f8060808587031215611a7c575f80fd5b843561ffff81168114611a8d575f80fd5b9350602085013560ff81168114611aa2575f80fd5b925060408501356001600160e81b0381168114611abd575f80fd5b9150611acb60608601611a53565b905092959194509250565b5f60208284031215611ae6575f80fd5b61173582611a53565b602080825282518282018190525f918401906040840190835b81811015611a48578351805163ffffffff16845260209081015160ff168185015290930192604090920191600101611b08565b634e487b7160e01b5f52601160045260245ffd5b8082018082111561173857611738611b3b565b5f82611b7c57634e487b7160e01b5f52601260045260245ffd5b500490565b634e487b7160e01b5f52603260045260245ffd5b8181038181111561173857611738611b3b565b808202811582820484141761173857611738611b3b565b634e487b7160e01b5f52604160045260245ffd5b61ffff8181168382160290811690818114611bf057611bf0611b3b565b5092915050565b5f6001600160e81b0382166002600160e81b03198101611c1957611c19611b3b565b60010192915050565b634e487b7160e01b5f52600160045260245ffdfea2646970667358221220795005b2f9f701aed3dd9180ed4435f53a675b83c7e4c44a5b9cb0d4aa5684c264736f6c634300081a0033",
			"opcodes": "PUSH1 0x80 PUSH1 0x40 MSTORE CALLVALUE DUP1 ISZERO PUSH1 0xE JUMPI PUSH0 DUP1 REVERT JUMPDEST POP PUSH0 DUP1 SLOAD PUSH1 0x1 PUSH1 0x1 PUSH1 0xA0 SHL SUB NOT AND CALLER OR SWAP1 SSTORE TIMESTAMP PUSH1 0x6 DUP2 SWAP1 SSTORE PUSH1 0x8 SSTORE PUSH2 0x1C6C DUP1 PUSH2 0x36 PUSH0 CODECOPY PUSH0 RETURN INVALID PUSH1 0x80 PUSH1 0x40 MSTORE PUSH1 0x4 CALLDATASIZE LT PUSH2 0xE4 JUMPI PUSH0 CALLDATALOAD PUSH1 0xE0 SHR DUP1 PUSH4 0xA659F4DC GT PUSH2 0x87 JUMPI DUP1 PUSH4 0xCF438305 GT PUSH2 0x57 JUMPI DUP1 PUSH4 0xCF438305 EQ PUSH2 0x20D JUMPI DUP1 PUSH4 0xD9498A83 EQ PUSH2 0x241 JUMPI DUP1 PUSH4 0xDD5F6F4D EQ PUSH2 0x262 JUMPI DUP1 PUSH4 0xF4E79B5B EQ PUSH2 0x281 JUMPI PUSH0 DUP1 REVERT JUMPDEST DUP1 PUSH4 0xA659F4DC EQ PUSH2 0x1AD JUMPI DUP1 PUSH4 0xB1C617FF EQ PUSH2 0x1D0 JUMPI DUP1 PUSH4 0xC9EA0299 EQ PUSH2 0x1E5 JUMPI DUP1 PUSH4 0xCA6AAE29 EQ PUSH2 0x1F8 JUMPI PUSH0 DUP1 REVERT JUMPDEST DUP1 PUSH4 0x2B5BACA1 GT PUSH2 0xC2 JUMPI DUP1 PUSH4 0x2B5BACA1 EQ PUSH2 0x126 JUMPI DUP1 PUSH4 0x49821332 EQ PUSH2 0x15B JUMPI DUP1 PUSH4 0x7DA384FD EQ PUSH2 0x163 JUMPI DUP1 PUSH4 0x89A4C1A0 EQ PUSH2 0x177 JUMPI PUSH0 DUP1 REVERT JUMPDEST DUP1 PUSH4 0x12DB1357 EQ PUSH2 0xE8 JUMPI DUP1 PUSH4 0x22629256 EQ PUSH2 0xFE JUMPI DUP1 PUSH4 0x289F9019 EQ PUSH2 0x112 JUMPI JUMPDEST PUSH0 DUP1 REVERT JUMPDEST CALLVALUE DUP1 ISZERO PUSH2 0xF3 JUMPI PUSH0 DUP1 REVERT JUMPDEST POP PUSH2 0xFC PUSH2 0x295 JUMP JUMPDEST STOP JUMPDEST CALLVALUE DUP1 ISZERO PUSH2 0x109 JUMPI PUSH0 DUP1 REVERT JUMPDEST POP PUSH2 0xFC PUSH2 0x4C4 JUMP JUMPDEST CALLVALUE DUP1 ISZERO PUSH2 0x11D JUMPI PUSH0 DUP1 REVERT JUMPDEST POP PUSH2 0xFC PUSH2 0x589 JUMP JUMPDEST CALLVALUE DUP1 ISZERO PUSH2 0x131 JUMPI PUSH0 DUP1 REVERT JUMPDEST POP PUSH2 0x145 PUSH2 0x140 CALLDATASIZE PUSH1 0x4 PUSH2 0x19C5 JUMP JUMPDEST PUSH2 0x7DC JUMP JUMPDEST PUSH1 0x40 MLOAD PUSH2 0x152 SWAP2 SWAP1 PUSH2 0x19DC JUMP JUMPDEST PUSH1 0x40 MLOAD DUP1 SWAP2 SUB SWAP1 RETURN JUMPDEST PUSH2 0xFC PUSH2 0x916 JUMP JUMPDEST CALLVALUE DUP1 ISZERO PUSH2 0x16E JUMPI PUSH0 DUP1 REVERT JUMPDEST POP PUSH2 0xFC PUSH2 0xA75 JUMP JUMPDEST CALLVALUE DUP1 ISZERO PUSH2 0x182 JUMPI PUSH0 DUP1 REVERT JUMPDEST POP PUSH0 SLOAD PUSH2 0x195 SWAP1 PUSH1 0x1 PUSH1 0x1 PUSH1 0xA0 SHL SUB AND DUP2 JUMP JUMPDEST PUSH1 0x40 MLOAD PUSH1 0x1 PUSH1 0x1 PUSH1 0xA0 SHL SUB SWAP1 SWAP2 AND DUP2 MSTORE PUSH1 0x20 ADD PUSH2 0x152 JUMP JUMPDEST CALLVALUE DUP1 ISZERO PUSH2 0x1B8 JUMPI PUSH0 DUP1 REVERT JUMPDEST POP PUSH2 0x1C2 PUSH1 0x4 SLOAD DUP2 JUMP JUMPDEST PUSH1 0x40 MLOAD SWAP1 DUP2 MSTORE PUSH1 0x20 ADD PUSH2 0x152 JUMP JUMPDEST CALLVALUE DUP1 ISZERO PUSH2 0x1DB JUMPI PUSH0 DUP1 REVERT JUMPDEST POP PUSH2 0x1C2 PUSH1 0x6 SLOAD DUP2 JUMP JUMPDEST PUSH2 0xFC PUSH2 0x1F3 CALLDATASIZE PUSH1 0x4 PUSH2 0x1A69 JUMP JUMPDEST PUSH2 0xFF0 JUMP JUMPDEST CALLVALUE DUP1 ISZERO PUSH2 0x203 JUMPI PUSH0 DUP1 REVERT JUMPDEST POP PUSH2 0x1C2 PUSH1 0x5 SLOAD DUP2 JUMP JUMPDEST CALLVALUE DUP1 ISZERO PUSH2 0x218 JUMPI PUSH0 DUP1 REVERT JUMPDEST POP PUSH2 0x1C2 PUSH2 0x227 CALLDATASIZE PUSH1 0x4 PUSH2 0x1AD6 JUMP JUMPDEST PUSH1 0x1 PUSH1 0x1 PUSH1 0xA0 SHL SUB AND PUSH0 SWAP1 DUP2 MSTORE PUSH1 0x3 PUSH1 0x20 MSTORE PUSH1 0x40 SWAP1 KECCAK256 SLOAD SWAP1 JUMP JUMPDEST CALLVALUE DUP1 ISZERO PUSH2 0x24C JUMPI PUSH0 DUP1 REVERT JUMPDEST POP PUSH2 0x255 PUSH2 0x1406 JUMP JUMPDEST PUSH1 0x40 MLOAD PUSH2 0x152 SWAP2 SWAP1 PUSH2 0x1AEF JUMP JUMPDEST CALLVALUE DUP1 ISZERO PUSH2 0x26D JUMPI PUSH0 DUP1 REVERT JUMPDEST POP PUSH2 0xFC PUSH2 0x27C CALLDATASIZE PUSH1 0x4 PUSH2 0x19C5 JUMP JUMPDEST PUSH2 0x1486 JUMP JUMPDEST CALLVALUE DUP1 ISZERO PUSH2 0x28C JUMPI PUSH0 DUP1 REVERT JUMPDEST POP PUSH2 0xFC PUSH2 0x1680 JUMP JUMPDEST CALLER PUSH0 SWAP1 DUP2 MSTORE PUSH1 0x3 PUSH1 0x20 MSTORE PUSH1 0x40 SWAP1 KECCAK256 SLOAD PUSH8 0xDE0B6B3A7640000 GT ISZERO DUP1 PUSH2 0x2C3 JUMPI POP PUSH0 SLOAD PUSH1 0x1 PUSH1 0x1 PUSH1 0xA0 SHL SUB AND CALLER EQ JUMPDEST PUSH2 0x30D JUMPI PUSH1 0x40 MLOAD PUSH3 0x461BCD PUSH1 0xE5 SHL DUP2 MSTORE PUSH1 0x20 PUSH1 0x4 DUP3 ADD MSTORE PUSH1 0x16 PUSH1 0x24 DUP3 ADD MSTORE PUSH22 0x2CB7BA9036BAB9BA10313290309034B73B32B9BA37B9 PUSH1 0x51 SHL PUSH1 0x44 DUP3 ADD MSTORE PUSH1 0x64 ADD JUMPDEST PUSH1 0x40 MLOAD DUP1 SWAP2 SUB SWAP1 REVERT JUMPDEST PUSH1 0x5 SLOAD PUSH1 0x1 SLOAD PUSH1 0x7 SLOAD PUSH0 SWAP2 DUP3 SWAP2 PUSH2 0x339 SWAP2 SELFBALANCE SWAP2 PUSH2 0x32A SWAP1 DUP8 PUSH2 0x1B4F JUMP JUMPDEST PUSH2 0x334 SWAP2 SWAP1 PUSH2 0x1B4F JUMP JUMPDEST PUSH2 0x171A JUMP JUMPDEST SWAP1 POP PUSH10 0x21E19E0C9BAB2400000 DUP2 LT PUSH2 0x37B JUMPI PUSH2 0x357 PUSH1 0xC8 DUP3 PUSH2 0x1B62 JUMP JUMPDEST PUSH2 0x361 SWAP1 DUP5 PUSH2 0x1B4F JUMP JUMPDEST SWAP3 POP PUSH2 0x36E PUSH1 0xC8 DUP3 PUSH2 0x1B62 JUMP JUMPDEST PUSH2 0x378 SWAP1 DUP4 PUSH2 0x1B4F JUMP JUMPDEST SWAP2 POP JUMPDEST PUSH0 PUSH1 0x5 DUP2 SWAP1 SSTORE JUMPDEST PUSH1 0x2 SLOAD DUP2 LT ISZERO PUSH2 0x480 JUMPI PUSH8 0xDE0B6B3A7640000 PUSH1 0x3 PUSH0 PUSH1 0x2 DUP5 DUP2 SLOAD DUP2 LT PUSH2 0x3AB JUMPI PUSH2 0x3AB PUSH2 0x1B81 JUMP JUMPDEST PUSH0 SWAP2 DUP3 MSTORE PUSH1 0x20 DUP1 DUP4 KECCAK256 SWAP1 SWAP2 ADD SLOAD PUSH1 0x1 PUSH1 0x1 PUSH1 0xA0 SHL SUB AND DUP4 MSTORE DUP3 ADD SWAP3 SWAP1 SWAP3 MSTORE PUSH1 0x40 ADD SWAP1 KECCAK256 SLOAD LT PUSH2 0x478 JUMPI PUSH0 PUSH2 0x423 PUSH2 0x41B PUSH1 0x3 PUSH0 PUSH1 0x2 DUP7 DUP2 SLOAD DUP2 LT PUSH2 0x3F1 JUMPI PUSH2 0x3F1 PUSH2 0x1B81 JUMP JUMPDEST PUSH0 SWAP2 DUP3 MSTORE PUSH1 0x20 DUP1 DUP4 KECCAK256 SWAP1 SWAP2 ADD SLOAD PUSH1 0x1 PUSH1 0x1 PUSH1 0xA0 SHL SUB AND DUP4 MSTORE DUP3 ADD SWAP3 SWAP1 SWAP3 MSTORE PUSH1 0x40 ADD SWAP1 KECCAK256 SLOAD DUP8 PUSH2 0x173E JUMP JUMPDEST PUSH1 0x4 SLOAD PUSH2 0x1772 JUMP JUMPDEST SWAP1 POP PUSH1 0x2 DUP3 DUP2 SLOAD DUP2 LT PUSH2 0x438 JUMPI PUSH2 0x438 PUSH2 0x1B81 JUMP JUMPDEST PUSH0 SWAP2 DUP3 MSTORE PUSH1 0x20 DUP3 KECCAK256 ADD SLOAD PUSH1 0x40 MLOAD PUSH1 0x1 PUSH1 0x1 PUSH1 0xA0 SHL SUB SWAP1 SWAP2 AND SWAP2 DUP4 ISZERO PUSH2 0x8FC MUL SWAP2 DUP5 SWAP2 DUP2 DUP2 DUP2 DUP6 DUP9 DUP9 CALL SWAP4 POP POP POP POP ISZERO DUP1 ISZERO PUSH2 0x475 JUMPI RETURNDATASIZE PUSH0 DUP1 RETURNDATACOPY RETURNDATASIZE PUSH0 REVERT JUMPDEST POP POP JUMPDEST PUSH1 0x1 ADD PUSH2 0x382 JUMP JUMPDEST POP DUP2 ISZERO PUSH2 0x4BF JUMPI PUSH0 DUP1 SLOAD PUSH1 0x40 MLOAD PUSH1 0x1 PUSH1 0x1 PUSH1 0xA0 SHL SUB SWAP1 SWAP2 AND SWAP2 DUP5 ISZERO PUSH2 0x8FC MUL SWAP2 DUP6 SWAP2 DUP2 DUP2 DUP2 DUP6 DUP9 DUP9 CALL SWAP4 POP POP POP POP ISZERO DUP1 ISZERO PUSH2 0x4BD JUMPI RETURNDATASIZE PUSH0 DUP1 RETURNDATACOPY RETURNDATASIZE PUSH0 REVERT JUMPDEST POP JUMPDEST POP POP POP JUMP JUMPDEST CALLER PUSH0 SWAP1 DUP2 MSTORE PUSH1 0x9 PUSH1 0x20 MSTORE PUSH1 0x40 SWAP1 KECCAK256 PUSH1 0x2 ADD SLOAD PUSH7 0x2386F26FC10000 GT ISZERO PUSH2 0x52C JUMPI PUSH1 0x40 MLOAD PUSH3 0x461BCD PUSH1 0xE5 SHL DUP2 MSTORE PUSH1 0x20 PUSH1 0x4 DUP3 ADD MSTORE PUSH1 0x1E PUSH1 0x24 DUP3 ADD MSTORE PUSH32 0x4E6F7420656E6F7567682070726F66697420746F207769746864726177210000 PUSH1 0x44 DUP3 ADD MSTORE PUSH1 0x64 ADD PUSH2 0x304 JUMP JUMPDEST CALLER PUSH0 SWAP1 DUP2 MSTORE PUSH1 0x9 PUSH1 0x20 MSTORE PUSH1 0x40 DUP2 KECCAK256 PUSH1 0x2 ADD DUP1 SLOAD SWAP1 DUP3 SWAP1 SSTORE PUSH1 0x7 DUP1 SLOAD SWAP2 SWAP3 DUP4 SWAP3 PUSH2 0x556 SWAP1 DUP5 SWAP1 PUSH2 0x1B95 JUMP JUMPDEST SWAP1 SWAP2 SSTORE POP POP PUSH1 0x40 MLOAD CALLER SWAP1 DUP3 ISZERO PUSH2 0x8FC MUL SWAP1 DUP4 SWAP1 PUSH0 DUP2 DUP2 DUP2 DUP6 DUP9 DUP9 CALL SWAP4 POP POP POP POP ISZERO DUP1 ISZERO PUSH2 0x585 JUMPI RETURNDATASIZE PUSH0 DUP1 RETURNDATACOPY RETURNDATASIZE PUSH0 REVERT JUMPDEST POP POP JUMP JUMPDEST PUSH0 SLOAD PUSH1 0x1 PUSH1 0x1 PUSH1 0xA0 SHL SUB AND CALLER EQ PUSH2 0x59E JUMPI PUSH0 DUP1 REVERT JUMPDEST PUSH1 0x8 SLOAD PUSH2 0x5AE SWAP1 PUSH3 0x13C680 PUSH2 0x1B4F JUMP JUMPDEST TIMESTAMP LT ISZERO PUSH2 0x5B9 JUMPI PUSH0 DUP1 REVERT JUMPDEST PUSH1 0x4 SLOAD SELFBALANCE LT PUSH2 0x6B6 JUMPI PUSH0 JUMPDEST PUSH1 0x2 SLOAD DUP2 LT ISZERO PUSH2 0x6B0 JUMPI PUSH8 0xDE0B6B3A7640000 PUSH1 0x3 PUSH0 PUSH1 0x2 DUP5 DUP2 SLOAD DUP2 LT PUSH2 0x5ED JUMPI PUSH2 0x5ED PUSH2 0x1B81 JUMP JUMPDEST PUSH0 SWAP2 DUP3 MSTORE PUSH1 0x20 DUP1 DUP4 KECCAK256 SWAP1 SWAP2 ADD SLOAD PUSH1 0x1 PUSH1 0x1 PUSH1 0xA0 SHL SUB AND DUP4 MSTORE DUP3 ADD SWAP3 SWAP1 SWAP3 MSTORE PUSH1 0x40 ADD SWAP1 KECCAK256 SLOAD LT PUSH2 0x6A8 JUMPI PUSH1 0x2 DUP2 DUP2 SLOAD DUP2 LT PUSH2 0x629 JUMPI PUSH2 0x629 PUSH2 0x1B81 JUMP JUMPDEST PUSH0 SWAP2 DUP3 MSTORE PUSH1 0x20 DUP3 KECCAK256 ADD SLOAD PUSH1 0x2 DUP1 SLOAD PUSH1 0x1 PUSH1 0x1 PUSH1 0xA0 SHL SUB SWAP1 SWAP3 AND SWAP3 PUSH2 0x8FC SWAP3 PUSH1 0x3 SWAP3 SWAP1 DUP7 SWAP1 DUP2 LT PUSH2 0x65B JUMPI PUSH2 0x65B PUSH2 0x1B81 JUMP JUMPDEST PUSH0 SWAP2 DUP3 MSTORE PUSH1 0x20 DUP1 DUP4 KECCAK256 SWAP1 SWAP2 ADD SLOAD PUSH1 0x1 PUSH1 0x1 PUSH1 0xA0 SHL SUB AND DUP4 MSTORE DUP3 ADD SWAP3 SWAP1 SWAP3 MSTORE PUSH1 0x40 SWAP1 DUP2 ADD DUP3 KECCAK256 SLOAD SWAP1 MLOAD DUP2 ISZERO SWAP1 SWAP4 MUL SWAP3 SWAP1 SWAP2 DUP2 DUP2 DUP2 DUP6 DUP9 DUP9 CALL SWAP4 POP POP POP POP ISZERO DUP1 ISZERO PUSH2 0x6A6 JUMPI RETURNDATASIZE PUSH0 DUP1 RETURNDATACOPY RETURNDATASIZE PUSH0 REVERT JUMPDEST POP JUMPDEST PUSH1 0x1 ADD PUSH2 0x5C4 JUMP JUMPDEST POP PUSH2 0x7CF JUMP JUMPDEST SELFBALANCE PUSH8 0xDE0B6B3A7640000 DUP2 LT PUSH2 0x7CD JUMPI PUSH0 JUMPDEST PUSH1 0x2 SLOAD DUP2 LT ISZERO PUSH2 0x7CB JUMPI PUSH8 0xDE0B6B3A7640000 PUSH1 0x3 PUSH0 PUSH1 0x2 DUP5 DUP2 SLOAD DUP2 LT PUSH2 0x6F1 JUMPI PUSH2 0x6F1 PUSH2 0x1B81 JUMP JUMPDEST PUSH0 SWAP2 DUP3 MSTORE PUSH1 0x20 DUP1 DUP4 KECCAK256 SWAP1 SWAP2 ADD SLOAD PUSH1 0x1 PUSH1 0x1 PUSH1 0xA0 SHL SUB AND DUP4 MSTORE DUP3 ADD SWAP3 SWAP1 SWAP3 MSTORE PUSH1 0x40 ADD SWAP1 KECCAK256 SLOAD LT PUSH2 0x7C3 JUMPI PUSH1 0x2 DUP2 DUP2 SLOAD DUP2 LT PUSH2 0x72D JUMPI PUSH2 0x72D PUSH2 0x1B81 JUMP JUMPDEST PUSH0 SWAP2 DUP3 MSTORE PUSH1 0x20 DUP3 KECCAK256 ADD SLOAD PUSH1 0x4 SLOAD PUSH1 0x2 DUP1 SLOAD PUSH1 0x1 PUSH1 0x1 PUSH1 0xA0 SHL SUB SWAP1 SWAP4 AND SWAP4 PUSH2 0x8FC SWAP4 DUP8 SWAP3 PUSH1 0x3 SWAP3 SWAP2 DUP9 SWAP1 DUP2 LT PUSH2 0x764 JUMPI PUSH2 0x764 PUSH2 0x1B81 JUMP JUMPDEST PUSH0 SWAP2 DUP3 MSTORE PUSH1 0x20 DUP1 DUP4 KECCAK256 SWAP1 SWAP2 ADD SLOAD PUSH1 0x1 PUSH1 0x1 PUSH1 0xA0 SHL SUB AND DUP4 MSTORE DUP3 ADD SWAP3 SWAP1 SWAP3 MSTORE PUSH1 0x40 ADD SWAP1 KECCAK256 SLOAD PUSH2 0x792 SWAP2 SWAP1 PUSH2 0x1BA8 JUMP JUMPDEST PUSH2 0x79C SWAP2 SWAP1 PUSH2 0x1B62 JUMP JUMPDEST PUSH1 0x40 MLOAD DUP2 ISZERO SWAP1 SWAP3 MUL SWAP2 PUSH0 DUP2 DUP2 DUP2 DUP6 DUP9 DUP9 CALL SWAP4 POP POP POP POP ISZERO DUP1 ISZERO PUSH2 0x7C1 JUMPI RETURNDATASIZE PUSH0 DUP1 RETURNDATACOPY RETURNDATASIZE PUSH0 REVERT JUMPDEST POP JUMPDEST PUSH1 0x1 ADD PUSH2 0x6C8 JUMP JUMPDEST POP JUMPDEST POP JUMPDEST PUSH0 SLOAD PUSH1 0x1 PUSH1 0x1 PUSH1 0xA0 SHL SUB AND SELFDESTRUCT JUMPDEST PUSH1 0xB SLOAD PUSH1 0x60 SWAP1 DUP3 SWAP1 DUP1 DUP3 GT ISZERO PUSH2 0x7F0 JUMPI DUP1 SWAP2 POP JUMPDEST PUSH0 DUP3 PUSH8 0xFFFFFFFFFFFFFFFF DUP2 GT ISZERO PUSH2 0x80A JUMPI PUSH2 0x80A PUSH2 0x1BBF JUMP JUMPDEST PUSH1 0x40 MLOAD SWAP1 DUP1 DUP3 MSTORE DUP1 PUSH1 0x20 MUL PUSH1 0x20 ADD DUP3 ADD PUSH1 0x40 MSTORE DUP1 ISZERO PUSH2 0x85A JUMPI DUP2 PUSH1 0x20 ADD JUMPDEST PUSH1 0x40 DUP1 MLOAD PUSH1 0x80 DUP2 ADD DUP3 MSTORE PUSH0 DUP1 DUP3 MSTORE PUSH1 0x20 DUP1 DUP4 ADD DUP3 SWAP1 MSTORE SWAP3 DUP3 ADD DUP2 SWAP1 MSTORE PUSH1 0x60 DUP3 ADD MSTORE DUP3 MSTORE PUSH0 NOT SWAP1 SWAP3 ADD SWAP2 ADD DUP2 PUSH2 0x828 JUMPI SWAP1 POP JUMPDEST POP SWAP1 POP PUSH0 JUMPDEST DUP4 DUP2 LT ISZERO PUSH2 0x90D JUMPI PUSH1 0xB DUP2 PUSH2 0x875 PUSH1 0x1 DUP7 PUSH2 0x1B95 JUMP JUMPDEST PUSH2 0x87F SWAP2 SWAP1 PUSH2 0x1B95 JUMP JUMPDEST DUP2 SLOAD DUP2 LT PUSH2 0x88F JUMPI PUSH2 0x88F PUSH2 0x1B81 JUMP JUMPDEST PUSH0 SWAP2 DUP3 MSTORE PUSH1 0x20 SWAP2 DUP3 SWAP1 KECCAK256 PUSH1 0x40 DUP1 MLOAD PUSH1 0x80 DUP2 ADD DUP3 MSTORE PUSH1 0x3 SWAP1 SWAP4 MUL SWAP1 SWAP2 ADD DUP1 SLOAD PUSH4 0xFFFFFFFF DUP2 AND DUP5 MSTORE PUSH1 0xFF PUSH5 0x100000000 SWAP1 SWAP2 DIV AND SWAP4 DUP4 ADD SWAP4 SWAP1 SWAP4 MSTORE PUSH1 0x1 DUP4 ADD SLOAD SWAP1 DUP3 ADD MSTORE PUSH1 0x2 SWAP1 SWAP2 ADD SLOAD PUSH1 0x1 PUSH1 0x1 PUSH1 0xA0 SHL SUB AND PUSH1 0x60 DUP3 ADD MSTORE DUP3 MLOAD DUP4 SWAP1 DUP4 SWAP1 DUP2 LT PUSH2 0x8FA JUMPI PUSH2 0x8FA PUSH2 0x1B81 JUMP JUMPDEST PUSH1 0x20 SWAP1 DUP2 MUL SWAP2 SWAP1 SWAP2 ADD ADD MSTORE PUSH1 0x1 ADD PUSH2 0x85F JUMP JUMPDEST POP SWAP5 SWAP4 POP POP POP POP JUMP JUMPDEST PUSH8 0xDE0B6B3A7640000 CALLVALUE LT ISZERO DUP1 ISZERO PUSH2 0x937 JUMPI POP PUSH9 0x3635C9ADC5DEA00000 CALLVALUE GT ISZERO JUMPDEST PUSH2 0x991 JUMPI PUSH1 0x40 MLOAD PUSH3 0x461BCD PUSH1 0xE5 SHL DUP2 MSTORE PUSH1 0x20 PUSH1 0x4 DUP3 ADD MSTORE PUSH1 0x25 PUSH1 0x24 DUP3 ADD MSTORE PUSH32 0x496E766573746D656E7420616D6F756E7420626574657765656E203120616E64 PUSH1 0x44 DUP3 ADD MSTORE PUSH5 0x203130303 PUSH1 0xDC SHL PUSH1 0x64 DUP3 ADD MSTORE PUSH1 0x84 ADD PUSH2 0x304 JUMP JUMPDEST PUSH10 0x21E19E0C9BAB2400000 PUSH2 0x9B3 SELFBALANCE PUSH1 0x1 SLOAD PUSH1 0x7 SLOAD PUSH1 0x5 SLOAD PUSH2 0x32A SWAP2 SWAP1 PUSH2 0x1B4F JUMP JUMPDEST GT ISZERO PUSH2 0x9BD JUMPI PUSH0 DUP1 REVERT JUMPDEST CALLVALUE PUSH1 0x4 PUSH0 DUP3 DUP3 SLOAD PUSH2 0x9CE SWAP2 SWAP1 PUSH2 0x1B4F JUMP JUMPDEST SWAP1 SWAP2 SSTORE POP POP CALLER PUSH0 SWAP1 DUP2 MSTORE PUSH1 0x3 PUSH1 0x20 MSTORE PUSH1 0x40 DUP2 KECCAK256 DUP1 SLOAD CALLVALUE SWAP3 SWAP1 PUSH2 0x9F1 SWAP1 DUP5 SWAP1 PUSH2 0x1B4F JUMP JUMPDEST SWAP1 SWAP2 SSTORE POP POP CALLER PUSH0 SWAP1 DUP2 MSTORE PUSH1 0x3 PUSH1 0x20 MSTORE PUSH1 0x40 SWAP1 KECCAK256 TIMESTAMP PUSH1 0x1 DUP3 ADD SSTORE PUSH1 0x2 ADD SLOAD PUSH1 0xFF AND PUSH2 0xA73 JUMPI CALLER PUSH0 DUP2 DUP2 MSTORE PUSH1 0x3 PUSH1 0x20 MSTORE PUSH1 0x40 DUP2 KECCAK256 PUSH1 0x2 SWAP1 DUP2 ADD DUP1 SLOAD PUSH1 0xFF NOT AND PUSH1 0x1 SWAP1 DUP2 OR SWAP1 SWAP2 SSTORE DUP2 SLOAD SWAP1 DUP2 ADD DUP3 SSTORE SWAP2 MSTORE PUSH32 0x405787FA12A823E0F2B7631CC41B3BA8828B3321CA811111FA75CD3AA3BB5ACE ADD DUP1 SLOAD PUSH1 0x1 PUSH1 0x1 PUSH1 0xA0 SHL SUB NOT AND SWAP1 SWAP2 OR SWAP1 SSTORE JUMPDEST JUMP JUMPDEST CALLER PUSH0 SWAP1 DUP2 MSTORE PUSH1 0x9 PUSH1 0x20 MSTORE PUSH1 0x40 SWAP1 KECCAK256 SLOAD PUSH2 0xADE JUMPI PUSH1 0x40 MLOAD PUSH3 0x461BCD PUSH1 0xE5 SHL DUP2 MSTORE PUSH1 0x20 PUSH1 0x4 DUP3 ADD MSTORE PUSH1 0x25 PUSH1 0x24 DUP3 ADD MSTORE PUSH32 0x596F7520646F6E2774206861766520756E64726177206C6F7474657279207469 PUSH1 0x44 DUP3 ADD MSTORE PUSH5 0x636B657473 PUSH1 0xD8 SHL PUSH1 0x64 DUP3 ADD MSTORE PUSH1 0x84 ADD PUSH2 0x304 JUMP JUMPDEST CALLER PUSH0 SWAP1 DUP2 MSTORE PUSH1 0x9 PUSH1 0x20 MSTORE PUSH1 0x40 SWAP1 KECCAK256 DUP1 SLOAD PUSH2 0xAFA SWAP1 PUSH1 0x1 SWAP1 PUSH2 0x1B95 JUMP JUMPDEST DUP2 SLOAD DUP2 LT PUSH2 0xB0A JUMPI PUSH2 0xB0A PUSH2 0x1B81 JUMP JUMPDEST PUSH0 SWAP2 DUP3 MSTORE PUSH1 0x20 SWAP1 SWAP2 KECCAK256 PUSH1 0x2 SWAP1 SWAP2 MUL ADD PUSH1 0x1 ADD SLOAD PUSH2 0x100 SWAP1 DIV PUSH1 0x1 PUSH1 0x1 PUSH1 0xF8 SHL SUB AND NUMBER GT PUSH2 0xB69 JUMPI PUSH1 0x40 MLOAD PUSH3 0x461BCD PUSH1 0xE5 SHL DUP2 MSTORE PUSH1 0x20 PUSH1 0x4 DUP3 ADD MSTORE PUSH1 0xD PUSH1 0x24 DUP3 ADD MSTORE PUSH13 0x49742773206E6F742074696D65 PUSH1 0x98 SHL PUSH1 0x44 DUP3 ADD MSTORE PUSH1 0x64 ADD PUSH2 0x304 JUMP JUMPDEST CALLER PUSH0 SWAP1 DUP2 MSTORE PUSH1 0x9 PUSH1 0x20 MSTORE PUSH1 0x40 SWAP1 KECCAK256 PUSH1 0x1 ADD SLOAD ISZERO PUSH2 0xB9D JUMPI CALLER PUSH0 SWAP1 DUP2 MSTORE PUSH1 0x9 PUSH1 0x20 MSTORE PUSH1 0x40 DUP2 KECCAK256 PUSH2 0xB9D SWAP2 PUSH1 0x1 SWAP1 SWAP2 ADD SWAP1 PUSH2 0x1951 JUMP JUMPDEST PUSH0 DUP1 JUMPDEST CALLER PUSH0 SWAP1 DUP2 MSTORE PUSH1 0x9 PUSH1 0x20 MSTORE PUSH1 0x40 SWAP1 KECCAK256 SLOAD DUP2 LT ISZERO PUSH2 0xF17 JUMPI CALLER PUSH0 SWAP1 DUP2 MSTORE PUSH1 0x9 PUSH1 0x20 MSTORE PUSH1 0x40 SWAP1 KECCAK256 DUP1 SLOAD DUP3 SWAP1 DUP2 LT PUSH2 0xBD6 JUMPI PUSH2 0xBD6 PUSH2 0x1B81 JUMP JUMPDEST PUSH0 SWAP2 DUP3 MSTORE PUSH1 0x20 SWAP1 SWAP2 KECCAK256 PUSH1 0x2 SWAP1 SWAP2 MUL ADD PUSH1 0x1 ADD SLOAD PUSH2 0x100 SWAP1 DIV PUSH1 0x1 PUSH1 0x1 PUSH1 0xF8 SHL SUB AND BLOCKHASH ISZERO PUSH2 0xF0F JUMPI CALLER PUSH0 SWAP1 DUP2 MSTORE PUSH1 0x9 PUSH1 0x20 MSTORE PUSH1 0x40 DUP2 KECCAK256 DUP1 SLOAD DUP4 SWAP1 DUP2 LT PUSH2 0xC1D JUMPI PUSH2 0xC1D PUSH2 0x1B81 JUMP JUMPDEST PUSH0 SWAP2 DUP3 MSTORE PUSH1 0x20 DUP1 DUP4 KECCAK256 PUSH1 0x2 SWAP1 SWAP3 MUL SWAP1 SWAP2 ADD SLOAD CALLER DUP4 MSTORE PUSH1 0x9 SWAP1 SWAP2 MSTORE PUSH1 0x40 SWAP1 SWAP2 KECCAK256 DUP1 SLOAD DUP5 SWAP1 DUP2 LT PUSH2 0xC4E JUMPI PUSH2 0xC4E PUSH2 0x1B81 JUMP JUMPDEST SWAP1 PUSH0 MSTORE PUSH1 0x20 PUSH0 KECCAK256 SWAP1 PUSH1 0x2 MUL ADD PUSH1 0x1 ADD PUSH1 0x1 SWAP1 SLOAD SWAP1 PUSH2 0x100 EXP SWAP1 DIV PUSH1 0x1 PUSH1 0x1 PUSH1 0xF8 SHL SUB AND PUSH1 0x1 PUSH1 0x1 PUSH1 0xF8 SHL SUB AND BLOCKHASH PUSH1 0x40 MLOAD PUSH1 0x20 ADD PUSH2 0xC95 SWAP3 SWAP2 SWAP1 SWAP2 DUP3 MSTORE PUSH1 0x20 DUP3 ADD MSTORE PUSH1 0x40 ADD SWAP1 JUMP JUMPDEST PUSH1 0x40 MLOAD PUSH1 0x20 DUP2 DUP4 SUB SUB DUP2 MSTORE SWAP1 PUSH1 0x40 MSTORE DUP1 MLOAD SWAP1 PUSH1 0x20 ADD KECCAK256 PUSH1 0xE0 SHR SWAP1 POP PUSH0 PUSH2 0xCBA DUP3 PUSH2 0x1795 JUMP JUMPDEST SWAP1 POP DUP1 ISZERO PUSH2 0xE6C JUMPI CALLER PUSH0 SWAP1 DUP2 MSTORE PUSH1 0x9 PUSH1 0x20 MSTORE PUSH1 0x40 DUP2 KECCAK256 DUP1 SLOAD PUSH7 0x470DE4DF820000 SWAP2 SWAP1 DUP7 SWAP1 DUP2 LT PUSH2 0xCEC JUMPI PUSH2 0xCEC PUSH2 0x1B81 JUMP JUMPDEST PUSH0 SWAP2 DUP3 MSTORE PUSH1 0x20 SWAP1 SWAP2 KECCAK256 PUSH1 0x1 PUSH1 0x2 SWAP1 SWAP3 MUL ADD ADD SLOAD PUSH1 0xFF AND PUSH2 0xD0B DUP5 PUSH2 0x1891 JUMP JUMPDEST PUSH2 0xD15 SWAP2 SWAP1 PUSH2 0x1BA8 JUMP JUMPDEST PUSH2 0xD1F SWAP2 SWAP1 PUSH2 0x1BA8 JUMP JUMPDEST SWAP1 POP PUSH2 0xD2B DUP2 DUP7 PUSH2 0x1B4F JUMP JUMPDEST PUSH1 0x40 DUP1 MLOAD PUSH1 0x80 DUP2 ADD DUP3 MSTORE PUSH4 0xFFFFFFFF DUP7 AND DUP2 MSTORE CALLER PUSH0 SWAP1 DUP2 MSTORE PUSH1 0x9 PUSH1 0x20 SWAP1 DUP2 MSTORE SWAP3 DUP2 KECCAK256 DUP1 SLOAD SWAP5 SWAP10 POP SWAP1 SWAP4 SWAP2 SWAP3 DUP4 ADD SWAP2 DUP9 SWAP1 DUP2 LT PUSH2 0xD69 JUMPI PUSH2 0xD69 PUSH2 0x1B81 JUMP JUMPDEST PUSH0 SWAP2 DUP3 MSTORE PUSH1 0x20 DUP1 DUP4 KECCAK256 PUSH1 0x1 PUSH1 0x2 SWAP1 SWAP4 MUL ADD DUP3 ADD SLOAD PUSH1 0xFF SWAP1 DUP2 AND DUP6 MSTORE PUSH5 0xFFFFFFFFFF TIMESTAMP AND DUP6 DUP4 ADD MSTORE CALLER PUSH1 0x40 SWAP6 DUP7 ADD MSTORE PUSH1 0xB DUP1 SLOAD SWAP4 DUP5 ADD DUP2 SSTORE SWAP1 SWAP4 MSTORE DUP5 MLOAD PUSH1 0x3 SWAP1 SWAP3 MUL PUSH32 0x175B7A638427703F0DBE7BB9BBF987A2551717B34E79F33B5B1008D1FA01DB9 DUP2 ADD DUP1 SLOAD SWAP3 DUP8 ADD MLOAD SWAP1 SWAP5 AND PUSH5 0x100000000 MUL PUSH5 0xFFFFFFFFFF NOT SWAP1 SWAP3 AND PUSH4 0xFFFFFFFF SWAP1 SWAP4 AND SWAP3 SWAP1 SWAP3 OR OR SWAP1 SWAP2 SSTORE SWAP1 DUP3 ADD MLOAD PUSH32 0x175B7A638427703F0DBE7BB9BBF987A2551717B34E79F33B5B1008D1FA01DBA DUP3 ADD SSTORE PUSH1 0x60 SWAP1 SWAP2 ADD MLOAD PUSH32 0x175B7A638427703F0DBE7BB9BBF987A2551717B34E79F33B5B1008D1FA01DBB SWAP1 SWAP2 ADD DUP1 SLOAD PUSH1 0x1 PUSH1 0x1 PUSH1 0xA0 SHL SUB SWAP3 SWAP1 SWAP3 AND PUSH1 0x1 PUSH1 0x1 PUSH1 0xA0 SHL SUB NOT SWAP1 SWAP3 AND SWAP2 SWAP1 SWAP2 OR SWAP1 SSTORE POP POP JUMPDEST PUSH1 0x40 DUP1 MLOAD DUP1 DUP3 ADD DUP3 MSTORE PUSH4 0xFFFFFFFF DUP5 AND DUP2 MSTORE CALLER PUSH0 SWAP1 DUP2 MSTORE PUSH1 0x9 PUSH1 0x20 SWAP1 DUP2 MSTORE SWAP3 DUP2 KECCAK256 DUP1 SLOAD SWAP2 SWAP4 DUP4 ADD SWAP2 DUP8 SWAP1 DUP2 LT PUSH2 0xEA4 JUMPI PUSH2 0xEA4 PUSH2 0x1B81 JUMP JUMPDEST PUSH0 SWAP2 DUP3 MSTORE PUSH1 0x20 DUP1 DUP4 KECCAK256 PUSH1 0x1 PUSH1 0x2 SWAP1 SWAP4 MUL ADD DUP3 ADD SLOAD PUSH1 0xFF SWAP1 DUP2 AND SWAP1 SWAP5 MSTORE CALLER DUP4 MSTORE PUSH1 0x9 DUP2 MSTORE PUSH1 0x40 DUP4 KECCAK256 DUP3 ADD DUP1 SLOAD SWAP3 DUP4 ADD DUP2 SSTORE DUP4 MSTORE SWAP2 DUP3 SWAP1 KECCAK256 DUP5 MLOAD SWAP2 ADD DUP1 SLOAD SWAP5 SWAP1 SWAP3 ADD MLOAD SWAP1 SWAP3 AND PUSH5 0x100000000 MUL PUSH5 0xFFFFFFFFFF NOT SWAP1 SWAP4 AND PUSH4 0xFFFFFFFF SWAP1 SWAP3 AND SWAP2 SWAP1 SWAP2 OR SWAP2 SWAP1 SWAP2 OR SWAP1 SSTORE POP POP POP JUMPDEST PUSH1 0x1 ADD PUSH2 0xBA0 JUMP JUMPDEST POP CALLER PUSH0 SWAP1 DUP2 MSTORE PUSH1 0x9 PUSH1 0x20 MSTORE PUSH1 0x40 DUP2 KECCAK256 PUSH2 0xF2F SWAP2 PUSH2 0x196C JUMP JUMPDEST DUP1 ISZERO PUSH2 0xFED JUMPI PUSH0 PUSH2 0xF61 PUSH2 0xF5A PUSH2 0xF53 SELFBALANCE PUSH1 0x1 SLOAD PUSH1 0x7 SLOAD PUSH1 0x5 SLOAD PUSH2 0x32A SWAP2 SWAP1 PUSH2 0x1B4F JUMP JUMPDEST PUSH1 0x46 PUSH2 0x173E JUMP JUMPDEST PUSH1 0x64 PUSH2 0x1772 JUMP JUMPDEST SWAP1 POP DUP1 DUP3 GT ISZERO PUSH2 0xF6F JUMPI DUP1 SWAP2 POP JUMPDEST PUSH0 PUSH2 0xF7E PUSH2 0xF5A DUP5 PUSH1 0x5 PUSH2 0x173E JUMP JUMPDEST SWAP1 POP DUP1 PUSH1 0x5 PUSH0 DUP3 DUP3 SLOAD PUSH2 0xF91 SWAP2 SWAP1 PUSH2 0x1B4F JUMP JUMPDEST SWAP3 POP POP DUP2 SWAP1 SSTORE POP DUP1 PUSH1 0x1 PUSH0 DUP3 DUP3 SLOAD PUSH2 0xFA9 SWAP2 SWAP1 PUSH2 0x1B4F JUMP JUMPDEST SWAP1 SWAP2 SSTORE POP CALLER SWAP1 POP PUSH2 0x8FC PUSH2 0xFBE DUP4 PUSH1 0x2 PUSH2 0x1BA8 JUMP JUMPDEST PUSH2 0xFC8 SWAP1 DUP7 PUSH2 0x1B95 JUMP JUMPDEST PUSH1 0x40 MLOAD DUP2 ISZERO SWAP1 SWAP3 MUL SWAP2 PUSH0 DUP2 DUP2 DUP2 DUP6 DUP9 DUP9 CALL SWAP4 POP POP POP POP ISZERO DUP1 ISZERO PUSH2 0x4BD JUMPI RETURNDATASIZE PUSH0 DUP1 RETURNDATACOPY RETURNDATASIZE PUSH0 REVERT JUMPDEST POP JUMP JUMPDEST PUSH7 0x470DE4DF820000 CALLVALUE LT ISZERO PUSH2 0x103E JUMPI PUSH1 0x40 MLOAD PUSH3 0x461BCD PUSH1 0xE5 SHL DUP2 MSTORE PUSH1 0x20 PUSH1 0x4 DUP3 ADD MSTORE PUSH1 0x14 PUSH1 0x24 DUP3 ADD MSTORE PUSH20 0x427579206174206C65617374206F6E6520656767 PUSH1 0x60 SHL PUSH1 0x44 DUP3 ADD MSTORE PUSH1 0x64 ADD PUSH2 0x304 JUMP JUMPDEST PUSH1 0x1 DUP4 PUSH1 0xFF AND LT ISZERO DUP1 ISZERO PUSH2 0x1056 JUMPI POP PUSH1 0x64 DUP4 PUSH1 0xFF AND GT ISZERO JUMPDEST PUSH2 0x10A2 JUMPI PUSH1 0x40 MLOAD PUSH3 0x461BCD PUSH1 0xE5 SHL DUP2 MSTORE PUSH1 0x20 PUSH1 0x4 DUP3 ADD MSTORE PUSH1 0x1B PUSH1 0x24 DUP3 ADD MSTORE PUSH32 0x4D756C7469706C6573206265747765656E203120616E64203130300000000000 PUSH1 0x44 DUP3 ADD MSTORE PUSH1 0x64 ADD PUSH2 0x304 JUMP JUMPDEST PUSH1 0x1 DUP5 PUSH2 0xFFFF AND LT ISZERO DUP1 ISZERO PUSH2 0x10BD JUMPI POP PUSH2 0x3E8 DUP5 PUSH2 0xFFFF AND GT ISZERO JUMPDEST PUSH2 0x1109 JUMPI PUSH1 0x40 MLOAD PUSH3 0x461BCD PUSH1 0xE5 SHL DUP2 MSTORE PUSH1 0x20 PUSH1 0x4 DUP3 ADD DUP2 SWAP1 MSTORE PUSH1 0x24 DUP3 ADD MSTORE PUSH32 0x4E756D626572206F662065676773206265747765656E203120616E6420313030 PUSH1 0x44 DUP3 ADD MSTORE PUSH1 0x64 ADD PUSH2 0x304 JUMP JUMPDEST PUSH0 PUSH2 0x111B CALLVALUE PUSH7 0x470DE4DF820000 PUSH2 0x1772 JUMP JUMPDEST SWAP1 POP PUSH2 0x112A PUSH1 0xFF DUP6 AND DUP7 PUSH2 0x1BD3 JUMP JUMPDEST PUSH2 0xFFFF AND DUP2 EQ PUSH2 0x116B JUMPI PUSH1 0x40 MLOAD PUSH3 0x461BCD PUSH1 0xE5 SHL DUP2 MSTORE PUSH1 0x20 PUSH1 0x4 DUP3 ADD MSTORE PUSH1 0xC PUSH1 0x24 DUP3 ADD MSTORE PUSH12 0x496E76616C69642064617461 PUSH1 0xA0 SHL PUSH1 0x44 DUP3 ADD MSTORE PUSH1 0x64 ADD PUSH2 0x304 JUMP JUMPDEST PUSH0 JUMPDEST DUP6 PUSH2 0xFFFF AND DUP2 LT ISZERO PUSH2 0x1262 JUMPI PUSH0 PUSH1 0x40 MLOAD DUP1 PUSH1 0x60 ADD PUSH1 0x40 MSTORE DUP1 TIMESTAMP COINBASE CALLER DUP10 DUP1 PUSH2 0x1193 SWAP1 PUSH2 0x1BF7 JUMP JUMPDEST SWAP11 POP PUSH1 0x40 MLOAD PUSH1 0x20 ADD PUSH2 0x11DF SWAP5 SWAP4 SWAP3 SWAP2 SWAP1 SWAP4 DUP5 MSTORE PUSH1 0x60 SWAP3 DUP4 SHL PUSH12 0xFFFFFFFFFFFFFFFFFFFFFFFF NOT SWAP1 DUP2 AND PUSH1 0x20 DUP7 ADD MSTORE SWAP2 SWAP1 SWAP3 SHL AND PUSH1 0x34 DUP4 ADD MSTORE PUSH1 0x18 SHL PUSH3 0xFFFFFF NOT AND PUSH1 0x48 DUP3 ADD MSTORE PUSH1 0x65 ADD SWAP1 JUMP JUMPDEST PUSH1 0x40 DUP1 MLOAD PUSH1 0x1F NOT DUP2 DUP5 SUB ADD DUP2 MSTORE SWAP2 DUP2 MSTORE DUP2 MLOAD PUSH1 0x20 SWAP3 DUP4 ADD KECCAK256 DUP4 MSTORE PUSH1 0xFF DUP1 DUP12 AND DUP5 DUP5 ADD MSTORE PUSH1 0x1 PUSH1 0x1 PUSH1 0xF8 SHL SUB NUMBER DUP2 AND SWAP5 DUP4 ADD SWAP5 SWAP1 SWAP5 MSTORE CALLER PUSH0 SWAP1 DUP2 MSTORE PUSH1 0x9 DUP5 MSTORE DUP3 DUP2 KECCAK256 DUP1 SLOAD PUSH1 0x1 DUP2 DUP2 ADD DUP4 SSTORE SWAP2 DUP4 MSTORE SWAP2 DUP6 SWAP1 KECCAK256 DUP8 MLOAD PUSH1 0x2 SWAP1 SWAP4 MUL ADD SWAP2 DUP3 SSTORE SWAP4 DUP7 ADD MLOAD SWAP6 SWAP1 SWAP3 ADD MLOAD SWAP1 SWAP4 AND PUSH2 0x100 MUL SWAP4 SWAP1 SWAP3 AND SWAP3 SWAP1 SWAP3 OR SWAP1 DUP3 ADD SSTORE SWAP2 SWAP1 SWAP2 ADD SWAP1 POP PUSH2 0x116D JUMP JUMPDEST POP CALLER PUSH0 SWAP1 DUP2 MSTORE PUSH1 0x9 PUSH1 0x20 MSTORE PUSH1 0x40 SWAP1 KECCAK256 PUSH1 0x3 ADD SLOAD PUSH1 0xFF AND PUSH2 0x1299 JUMPI CALLER PUSH0 SWAP1 DUP2 MSTORE PUSH1 0x9 PUSH1 0x20 MSTORE PUSH1 0x40 SWAP1 KECCAK256 PUSH1 0x3 ADD DUP1 SLOAD PUSH1 0xFF NOT AND PUSH1 0x1 OR SWAP1 SSTORE JUMPDEST PUSH0 PUSH2 0x12A8 PUSH2 0xF5A CALLVALUE PUSH1 0x3 PUSH2 0x173E JUMP JUMPDEST SWAP1 POP PUSH0 PUSH2 0x12B9 PUSH2 0xF5A CALLVALUE PUSH1 0x4 PUSH2 0x173E JUMP JUMPDEST SWAP1 POP DUP2 PUSH1 0x1 PUSH0 DUP3 DUP3 SLOAD PUSH2 0x12CC SWAP2 SWAP1 PUSH2 0x1B4F JUMP JUMPDEST SWAP3 POP POP DUP2 SWAP1 SSTORE POP DUP2 PUSH1 0x5 PUSH0 DUP3 DUP3 SLOAD PUSH2 0x12E4 SWAP2 SWAP1 PUSH2 0x1B4F JUMP JUMPDEST SWAP1 SWAP2 SSTORE POP POP CALLER PUSH0 SWAP1 DUP2 MSTORE PUSH1 0xA PUSH1 0x20 MSTORE PUSH1 0x40 SWAP1 KECCAK256 SLOAD PUSH1 0x1 PUSH1 0x1 PUSH1 0xA0 SHL SUB AND PUSH2 0x13FD JUMPI PUSH1 0x1 PUSH1 0x1 PUSH1 0xA0 SHL SUB DUP5 AND CALLER EQ DUP1 PUSH2 0x1323 JUMPI POP PUSH1 0x1 PUSH1 0x1 PUSH1 0xA0 SHL SUB DUP5 AND ISZERO JUMPDEST DUP1 PUSH2 0x1340 JUMPI POP CALLER PUSH0 SWAP1 DUP2 MSTORE PUSH1 0x9 PUSH1 0x20 MSTORE PUSH1 0x40 SWAP1 KECCAK256 PUSH1 0x3 ADD SLOAD PUSH1 0xFF AND ISZERO JUMPDEST ISZERO PUSH2 0x1353 JUMPI PUSH0 SLOAD PUSH1 0x1 PUSH1 0x1 PUSH1 0xA0 SHL SUB AND SWAP4 POP JUMPDEST CALLER PUSH0 SWAP1 DUP2 MSTORE PUSH1 0xA PUSH1 0x20 MSTORE PUSH1 0x40 DUP2 KECCAK256 DUP1 SLOAD PUSH1 0x1 PUSH1 0x1 PUSH1 0xA0 SHL SUB NOT AND PUSH1 0x1 PUSH1 0x1 PUSH1 0xA0 SHL SUB DUP8 DUP2 AND SWAP2 DUP3 OR SWAP1 SWAP3 SSTORE SWAP2 SLOAD AND SWAP1 SUB PUSH2 0x13A3 JUMPI DUP1 PUSH1 0x1 PUSH0 DUP3 DUP3 SLOAD PUSH2 0x1398 SWAP2 SWAP1 PUSH2 0x1B4F JUMP JUMPDEST SWAP1 SWAP2 SSTORE POP PUSH2 0x13F8 SWAP1 POP JUMP JUMPDEST CALLER PUSH0 SWAP1 DUP2 MSTORE PUSH1 0xA PUSH1 0x20 SWAP1 DUP2 MSTORE PUSH1 0x40 DUP1 DUP4 KECCAK256 SLOAD PUSH1 0x1 PUSH1 0x1 PUSH1 0xA0 SHL SUB AND DUP4 MSTORE PUSH1 0x9 SWAP1 SWAP2 MSTORE DUP2 KECCAK256 PUSH1 0x2 ADD DUP1 SLOAD DUP4 SWAP3 SWAP1 PUSH2 0x13DA SWAP1 DUP5 SWAP1 PUSH2 0x1B4F JUMP JUMPDEST SWAP3 POP POP DUP2 SWAP1 SSTORE POP DUP1 PUSH1 0x7 PUSH0 DUP3 DUP3 SLOAD PUSH2 0x13F2 SWAP2 SWAP1 PUSH2 0x1B4F JUMP JUMPDEST SWAP1 SWAP2 SSTORE POP POP JUMPDEST TIMESTAMP PUSH1 0x8 SSTORE JUMPDEST POP POP POP POP POP POP POP JUMP JUMPDEST CALLER PUSH0 SWAP1 DUP2 MSTORE PUSH1 0x9 PUSH1 0x20 SWAP1 DUP2 MSTORE PUSH1 0x40 DUP1 DUP4 KECCAK256 PUSH1 0x1 ADD DUP1 SLOAD DUP3 MLOAD DUP2 DUP6 MUL DUP2 ADD DUP6 ADD SWAP1 SWAP4 MSTORE DUP1 DUP4 MSTORE PUSH1 0x60 SWAP5 SWAP3 SWAP4 SWAP2 SWAP3 SWAP1 SWAP2 DUP5 ADD JUMPDEST DUP3 DUP3 LT ISZERO PUSH2 0x147D JUMPI PUSH0 DUP5 DUP2 MSTORE PUSH1 0x20 SWAP1 DUP2 SWAP1 KECCAK256 PUSH1 0x40 DUP1 MLOAD DUP1 DUP3 ADD SWAP1 SWAP2 MSTORE SWAP1 DUP5 ADD SLOAD PUSH4 0xFFFFFFFF DUP2 AND DUP3 MSTORE PUSH5 0x100000000 SWAP1 DIV PUSH1 0xFF AND DUP2 DUP4 ADD MSTORE DUP3 MSTORE PUSH1 0x1 SWAP1 SWAP3 ADD SWAP2 ADD PUSH2 0x1437 JUMP JUMPDEST POP POP POP POP SWAP1 POP SWAP1 JUMP JUMPDEST PUSH8 0xDE0B6B3A7640000 DUP2 LT ISZERO PUSH2 0x1518 JUMPI PUSH1 0x40 MLOAD PUSH3 0x461BCD PUSH1 0xE5 SHL DUP2 MSTORE PUSH1 0x20 PUSH1 0x4 DUP3 ADD MSTORE PUSH1 0x4B PUSH1 0x24 DUP3 ADD MSTORE PUSH32 0x4D696E696D756D20696E766573746D656E7420616D6F756E7420697320726571 PUSH1 0x44 DUP3 ADD MSTORE PUSH32 0x75697265642C6974277320736D616C6C6572207468616E20746865206D696E69 PUSH1 0x64 DUP3 ADD MSTORE PUSH11 0x1B5D5B4819195C1BDCDA5D PUSH1 0xAA SHL PUSH1 0x84 DUP3 ADD MSTORE PUSH1 0xA4 ADD PUSH2 0x304 JUMP JUMPDEST CALLER PUSH0 SWAP1 DUP2 MSTORE PUSH1 0x3 PUSH1 0x20 MSTORE PUSH1 0x40 SWAP1 KECCAK256 SLOAD DUP2 GT ISZERO PUSH2 0x1576 JUMPI PUSH1 0x40 MLOAD PUSH3 0x461BCD PUSH1 0xE5 SHL DUP2 MSTORE PUSH1 0x20 PUSH1 0x4 DUP3 ADD MSTORE PUSH1 0x1C PUSH1 0x24 DUP3 ADD MSTORE PUSH32 0x4E6F7420656E6F7567682066756E6420746F2077697468647261772100000000 PUSH1 0x44 DUP3 ADD MSTORE PUSH1 0x64 ADD PUSH2 0x304 JUMP JUMPDEST CALLER PUSH0 SWAP1 DUP2 MSTORE PUSH1 0x3 PUSH1 0x20 MSTORE PUSH1 0x40 SWAP1 KECCAK256 PUSH1 0x1 ADD SLOAD PUSH2 0x1595 SWAP1 PUSH3 0x93A80 PUSH2 0x1B4F JUMP JUMPDEST TIMESTAMP LT ISZERO PUSH2 0x15E4 JUMPI PUSH1 0x40 MLOAD PUSH3 0x461BCD PUSH1 0xE5 SHL DUP2 MSTORE PUSH1 0x20 PUSH1 0x4 DUP3 ADD MSTORE PUSH1 0x1F PUSH1 0x24 DUP3 ADD MSTORE PUSH32 0x43616E6E6F74207769746864726177206166746572206F6E65207765656B2100 PUSH1 0x44 DUP3 ADD MSTORE PUSH1 0x64 ADD PUSH2 0x304 JUMP JUMPDEST DUP1 PUSH2 0x15FC SELFBALANCE PUSH1 0x1 SLOAD PUSH1 0x7 SLOAD PUSH1 0x5 SLOAD PUSH2 0x32A SWAP2 SWAP1 PUSH2 0x1B4F JUMP JUMPDEST LT ISZERO PUSH2 0x164A JUMPI PUSH1 0x40 MLOAD PUSH3 0x461BCD PUSH1 0xE5 SHL DUP2 MSTORE PUSH1 0x20 PUSH1 0x4 DUP3 ADD MSTORE PUSH1 0x1E PUSH1 0x24 DUP3 ADD MSTORE PUSH32 0x496E73756666696369656E742066756E6420746F207769746864726177210000 PUSH1 0x44 DUP3 ADD MSTORE PUSH1 0x64 ADD PUSH2 0x304 JUMP JUMPDEST CALLER PUSH0 SWAP1 DUP2 MSTORE PUSH1 0x3 PUSH1 0x20 MSTORE PUSH1 0x40 DUP2 KECCAK256 DUP1 SLOAD DUP4 SWAP3 SWAP1 PUSH2 0x1668 SWAP1 DUP5 SWAP1 PUSH2 0x1B95 JUMP JUMPDEST SWAP3 POP POP DUP2 SWAP1 SSTORE POP DUP1 PUSH1 0x4 PUSH0 DUP3 DUP3 SLOAD PUSH2 0x556 SWAP2 SWAP1 PUSH2 0x1B95 JUMP JUMPDEST PUSH0 SLOAD PUSH1 0x1 PUSH1 0x1 PUSH1 0xA0 SHL SUB AND CALLER EQ PUSH2 0x16D9 JUMPI PUSH1 0x40 MLOAD PUSH3 0x461BCD PUSH1 0xE5 SHL DUP2 MSTORE PUSH1 0x20 PUSH1 0x4 DUP3 ADD MSTORE PUSH1 0x19 PUSH1 0x24 DUP3 ADD MSTORE PUSH32 0x596F75206D7573742062652074686520646576656C6F70657200000000000000 PUSH1 0x44 DUP3 ADD MSTORE PUSH1 0x64 ADD PUSH2 0x304 JUMP JUMPDEST PUSH1 0x1 DUP1 SLOAD PUSH0 SWAP2 DUP3 SWAP1 SSTORE DUP2 SLOAD PUSH1 0x40 MLOAD SWAP2 SWAP3 PUSH1 0x1 PUSH1 0x1 PUSH1 0xA0 SHL SUB SWAP1 SWAP2 AND SWAP2 DUP4 ISZERO PUSH2 0x8FC MUL SWAP2 DUP5 SWAP2 SWAP1 DUP2 DUP2 DUP2 DUP6 DUP9 DUP9 CALL SWAP4 POP POP POP POP ISZERO DUP1 ISZERO PUSH2 0x585 JUMPI RETURNDATASIZE PUSH0 DUP1 RETURNDATACOPY RETURNDATASIZE PUSH0 REVERT JUMPDEST PUSH0 DUP3 DUP3 GT ISZERO PUSH2 0x172B JUMPI PUSH2 0x172B PUSH2 0x1C22 JUMP JUMPDEST PUSH2 0x1735 DUP3 DUP5 PUSH2 0x1B95 JUMP JUMPDEST SWAP1 POP JUMPDEST SWAP3 SWAP2 POP POP JUMP JUMPDEST PUSH0 DUP3 PUSH0 SUB PUSH2 0x174D JUMPI POP PUSH0 PUSH2 0x1738 JUMP JUMPDEST PUSH0 PUSH2 0x1758 DUP4 DUP6 PUSH2 0x1BA8 JUMP JUMPDEST SWAP1 POP DUP3 PUSH2 0x1765 DUP6 DUP4 PUSH2 0x1B62 JUMP JUMPDEST EQ PUSH2 0x1735 JUMPI PUSH2 0x1735 PUSH2 0x1C22 JUMP JUMPDEST PUSH0 DUP1 DUP3 GT PUSH2 0x1782 JUMPI PUSH2 0x1782 PUSH2 0x1C22 JUMP JUMPDEST PUSH0 PUSH2 0x178D DUP4 DUP6 PUSH2 0x1B62 JUMP JUMPDEST SWAP5 SWAP4 POP POP POP POP JUMP JUMPDEST PUSH0 PUSH4 0x4000000 DUP3 PUSH4 0xFFFFFFFF AND GT ISZERO PUSH2 0x17AF JUMPI POP PUSH0 SWAP2 SWAP1 POP JUMP JUMPDEST PUSH4 0x1000000 DUP3 PUSH4 0xFFFFFFFF AND LT PUSH2 0x17C8 JUMPI POP PUSH1 0xA SWAP2 SWAP1 POP JUMP JUMPDEST PUSH3 0x400000 DUP3 PUSH4 0xFFFFFFFF AND LT PUSH2 0x17E0 JUMPI POP PUSH1 0x9 SWAP2 SWAP1 POP JUMP JUMPDEST PUSH3 0x100000 DUP3 PUSH4 0xFFFFFFFF AND LT PUSH2 0x17F8 JUMPI POP PUSH1 0x8 SWAP2 SWAP1 POP JUMP JUMPDEST PUSH3 0x40000 DUP3 PUSH4 0xFFFFFFFF AND LT PUSH2 0x1810 JUMPI POP PUSH1 0x7 SWAP2 SWAP1 POP JUMP JUMPDEST PUSH3 0x10000 DUP3 PUSH4 0xFFFFFFFF AND LT PUSH2 0x1828 JUMPI POP PUSH1 0x6 SWAP2 SWAP1 POP JUMP JUMPDEST PUSH2 0x4000 DUP3 PUSH4 0xFFFFFFFF AND LT PUSH2 0x183F JUMPI POP PUSH1 0x5 SWAP2 SWAP1 POP JUMP JUMPDEST PUSH2 0x1000 DUP3 PUSH4 0xFFFFFFFF AND LT PUSH2 0x1856 JUMPI POP PUSH1 0x4 SWAP2 SWAP1 POP JUMP JUMPDEST PUSH2 0x400 DUP3 PUSH4 0xFFFFFFFF AND LT PUSH2 0x186D JUMPI POP PUSH1 0x3 SWAP2 SWAP1 POP JUMP JUMPDEST PUSH2 0x100 DUP3 PUSH4 0xFFFFFFFF AND LT PUSH2 0x1884 JUMPI POP PUSH1 0x2 SWAP2 SWAP1 POP JUMP JUMPDEST POP PUSH1 0x1 SWAP2 SWAP1 POP JUMP JUMPDEST SWAP2 SWAP1 POP JUMP JUMPDEST PUSH0 DUP2 PUSH0 SUB PUSH2 0x18A0 JUMPI POP PUSH0 SWAP2 SWAP1 POP JUMP JUMPDEST DUP2 PUSH1 0xA SUB PUSH2 0x18B0 JUMPI POP PUSH1 0x5 SWAP2 SWAP1 POP JUMP JUMPDEST DUP2 PUSH1 0x9 SUB PUSH2 0x18C0 JUMPI POP PUSH1 0x14 SWAP2 SWAP1 POP JUMP JUMPDEST DUP2 PUSH1 0x8 SUB PUSH2 0x18D0 JUMPI POP PUSH1 0x50 SWAP2 SWAP1 POP JUMP JUMPDEST DUP2 PUSH1 0x7 SUB PUSH2 0x18E1 JUMPI POP PUSH2 0x140 SWAP2 SWAP1 POP JUMP JUMPDEST DUP2 PUSH1 0x6 SUB PUSH2 0x18F2 JUMPI POP PUSH2 0x4B0 SWAP2 SWAP1 POP JUMP JUMPDEST DUP2 PUSH1 0x5 SUB PUSH2 0x1903 JUMPI POP PUSH2 0x12C0 SWAP2 SWAP1 POP JUMP JUMPDEST DUP2 PUSH1 0x4 SUB PUSH2 0x1914 JUMPI POP PUSH2 0x4E20 SWAP2 SWAP1 POP JUMP JUMPDEST DUP2 PUSH1 0x3 SUB PUSH2 0x1926 JUMPI POP PUSH3 0x186A0 SWAP2 SWAP1 POP JUMP JUMPDEST DUP2 PUSH1 0x2 SUB PUSH2 0x1938 JUMPI POP PUSH3 0x7A120 SWAP2 SWAP1 POP JUMP JUMPDEST DUP2 PUSH1 0x1 SUB PUSH2 0x194A JUMPI POP PUSH3 0x1E8480 SWAP2 SWAP1 POP JUMP JUMPDEST POP PUSH0 SWAP2 SWAP1 POP JUMP JUMPDEST POP DUP1 SLOAD PUSH0 DUP3 SSTORE SWAP1 PUSH0 MSTORE PUSH1 0x20 PUSH0 KECCAK256 SWAP1 DUP2 ADD SWAP1 PUSH2 0xFED SWAP2 SWAP1 PUSH2 0x198A JUMP JUMPDEST POP DUP1 SLOAD PUSH0 DUP3 SSTORE PUSH1 0x2 MUL SWAP1 PUSH0 MSTORE PUSH1 0x20 PUSH0 KECCAK256 SWAP1 DUP2 ADD SWAP1 PUSH2 0xFED SWAP2 SWAP1 PUSH2 0x19AB JUMP JUMPDEST JUMPDEST DUP1 DUP3 GT ISZERO PUSH2 0x19A7 JUMPI DUP1 SLOAD PUSH5 0xFFFFFFFFFF NOT AND DUP2 SSTORE PUSH1 0x1 ADD PUSH2 0x198B JUMP JUMPDEST POP SWAP1 JUMP JUMPDEST JUMPDEST DUP1 DUP3 GT ISZERO PUSH2 0x19A7 JUMPI PUSH0 DUP1 DUP3 SSTORE PUSH1 0x1 DUP3 ADD SSTORE PUSH1 0x2 ADD PUSH2 0x19AC JUMP JUMPDEST PUSH0 PUSH1 0x20 DUP3 DUP5 SUB SLT ISZERO PUSH2 0x19D5 JUMPI PUSH0 DUP1 REVERT JUMPDEST POP CALLDATALOAD SWAP2 SWAP1 POP JUMP JUMPDEST PUSH1 0x20 DUP1 DUP3 MSTORE DUP3 MLOAD DUP3 DUP3 ADD DUP2 SWAP1 MSTORE PUSH0 SWAP2 DUP5 ADD SWAP1 PUSH1 0x40 DUP5 ADD SWAP1 DUP4 JUMPDEST DUP2 DUP2 LT ISZERO PUSH2 0x1A48 JUMPI DUP4 MLOAD DUP1 MLOAD PUSH4 0xFFFFFFFF AND DUP5 MSTORE PUSH1 0x20 DUP1 DUP3 ADD MLOAD PUSH1 0xFF AND DUP2 DUP7 ADD MSTORE PUSH1 0x40 DUP1 DUP4 ADD MLOAD SWAP1 DUP7 ADD MSTORE PUSH1 0x60 SWAP2 DUP3 ADD MLOAD PUSH1 0x1 PUSH1 0x1 PUSH1 0xA0 SHL SUB AND SWAP2 DUP6 ADD SWAP2 SWAP1 SWAP2 MSTORE SWAP1 SWAP4 ADD SWAP3 PUSH1 0x80 SWAP1 SWAP3 ADD SWAP2 PUSH1 0x1 ADD PUSH2 0x19F5 JUMP JUMPDEST POP SWAP1 SWAP6 SWAP5 POP POP POP POP POP JUMP JUMPDEST DUP1 CALLDATALOAD PUSH1 0x1 PUSH1 0x1 PUSH1 0xA0 SHL SUB DUP2 AND DUP2 EQ PUSH2 0x188C JUMPI PUSH0 DUP1 REVERT JUMPDEST PUSH0 DUP1 PUSH0 DUP1 PUSH1 0x80 DUP6 DUP8 SUB SLT ISZERO PUSH2 0x1A7C JUMPI PUSH0 DUP1 REVERT JUMPDEST DUP5 CALLDATALOAD PUSH2 0xFFFF DUP2 AND DUP2 EQ PUSH2 0x1A8D JUMPI PUSH0 DUP1 REVERT JUMPDEST SWAP4 POP PUSH1 0x20 DUP6 ADD CALLDATALOAD PUSH1 0xFF DUP2 AND DUP2 EQ PUSH2 0x1AA2 JUMPI PUSH0 DUP1 REVERT JUMPDEST SWAP3 POP PUSH1 0x40 DUP6 ADD CALLDATALOAD PUSH1 0x1 PUSH1 0x1 PUSH1 0xE8 SHL SUB DUP2 AND DUP2 EQ PUSH2 0x1ABD JUMPI PUSH0 DUP1 REVERT JUMPDEST SWAP2 POP PUSH2 0x1ACB PUSH1 0x60 DUP7 ADD PUSH2 0x1A53 JUMP JUMPDEST SWAP1 POP SWAP3 SWAP6 SWAP2 SWAP5 POP SWAP3 POP JUMP JUMPDEST PUSH0 PUSH1 0x20 DUP3 DUP5 SUB SLT ISZERO PUSH2 0x1AE6 JUMPI PUSH0 DUP1 REVERT JUMPDEST PUSH2 0x1735 DUP3 PUSH2 0x1A53 JUMP JUMPDEST PUSH1 0x20 DUP1 DUP3 MSTORE DUP3 MLOAD DUP3 DUP3 ADD DUP2 SWAP1 MSTORE PUSH0 SWAP2 DUP5 ADD SWAP1 PUSH1 0x40 DUP5 ADD SWAP1 DUP4 JUMPDEST DUP2 DUP2 LT ISZERO PUSH2 0x1A48 JUMPI DUP4 MLOAD DUP1 MLOAD PUSH4 0xFFFFFFFF AND DUP5 MSTORE PUSH1 0x20 SWAP1 DUP2 ADD MLOAD PUSH1 0xFF AND DUP2 DUP6 ADD MSTORE SWAP1 SWAP4 ADD SWAP3 PUSH1 0x40 SWAP1 SWAP3 ADD SWAP2 PUSH1 0x1 ADD PUSH2 0x1B08 JUMP JUMPDEST PUSH4 0x4E487B71 PUSH1 0xE0 SHL PUSH0 MSTORE PUSH1 0x11 PUSH1 0x4 MSTORE PUSH1 0x24 PUSH0 REVERT JUMPDEST DUP1 DUP3 ADD DUP1 DUP3 GT ISZERO PUSH2 0x1738 JUMPI PUSH2 0x1738 PUSH2 0x1B3B JUMP JUMPDEST PUSH0 DUP3 PUSH2 0x1B7C JUMPI PUSH4 0x4E487B71 PUSH1 0xE0 SHL PUSH0 MSTORE PUSH1 0x12 PUSH1 0x4 MSTORE PUSH1 0x24 PUSH0 REVERT JUMPDEST POP DIV SWAP1 JUMP JUMPDEST PUSH4 0x4E487B71 PUSH1 0xE0 SHL PUSH0 MSTORE PUSH1 0x32 PUSH1 0x4 MSTORE PUSH1 0x24 PUSH0 REVERT JUMPDEST DUP2 DUP2 SUB DUP2 DUP2 GT ISZERO PUSH2 0x1738 JUMPI PUSH2 0x1738 PUSH2 0x1B3B JUMP JUMPDEST DUP1 DUP3 MUL DUP2 ISZERO DUP3 DUP3 DIV DUP5 EQ OR PUSH2 0x1738 JUMPI PUSH2 0x1738 PUSH2 0x1B3B JUMP JUMPDEST PUSH4 0x4E487B71 PUSH1 0xE0 SHL PUSH0 MSTORE PUSH1 0x41 PUSH1 0x4 MSTORE PUSH1 0x24 PUSH0 REVERT JUMPDEST PUSH2 0xFFFF DUP2 DUP2 AND DUP4 DUP3 AND MUL SWAP1 DUP2 AND SWAP1 DUP2 DUP2 EQ PUSH2 0x1BF0 JUMPI PUSH2 0x1BF0 PUSH2 0x1B3B JUMP JUMPDEST POP SWAP3 SWAP2 POP POP JUMP JUMPDEST PUSH0 PUSH1 0x1 PUSH1 0x1 PUSH1 0xE8 SHL SUB DUP3 AND PUSH1 0x2 PUSH1 0x1 PUSH1 0xE8 SHL SUB NOT DUP2 ADD PUSH2 0x1C19 JUMPI PUSH2 0x1C19 PUSH2 0x1B3B JUMP JUMPDEST PUSH1 0x1 ADD SWAP3 SWAP2 POP POP JUMP JUMPDEST PUSH4 0x4E487B71 PUSH1 0xE0 SHL PUSH0 MSTORE PUSH1 0x1 PUSH1 0x4 MSTORE PUSH1 0x24 PUSH0 REVERT INVALID LOG2 PUSH5 0x6970667358 0x22 SLT KECCAK256 PUSH26 0x5005B2F9F701AED3DD9180ED4435F53A675B83C7E4C44A5B9CB0 0xD4 0xAA JUMP DUP5 0xC2 PUSH5 0x736F6C6343 STOP ADDMOD BYTE STOP CALLER "
		},
		"gasEstimates": {
			"creation": {
				"codeDepositCost": "1455200",
				"executionCost": "69966",
				"totalCost": "1525166"
			},
			"external": {
				"BuyEggs(uint16,uint8,uint232,address)": "infinite",
				"DestructContract()": "infinite",
				"DevAddress()": "2424",
				"DeveloperWithdrawal()": "infinite",
				"DistributeInvestmentIncome()": "infinite",
				"GetInvestmentBalance(address)": "2560",
				"GetLatestLottery()": "infinite",
				"GetWinningRecord(uint256)": "infinite",
				"InvestmentDeposit()": "infinite",
				"InvestmentWithdrawal(uint256)": "infinite",
				"InvestorsProfit()": "2383",
				"OpenEggs()": "infinite",
				"RecentDividendTime()": "2339",
				"TotalInvestmentAmount()": "2317",
				"WithdrawReferralProfit()": "infinite"
			},
			"internal": {
				"GetWinninggrade(uint32)": "317",
				"GetWinningmultiple(uint256)": "275",
				"SafeMathadd(uint256,uint256)": "infinite",
				"SafeMathdiv(uint256,uint256)": "109",
				"SafeMathmul(uint256,uint256)": "infinite",
				"SafeMathsub(uint256,uint256)": "infinite"
			}
		},
		"methodIdentifiers": {
			"BuyEggs(uint16,uint8,uint232,address)": "c9ea0299",
			"DestructContract()": "289f9019",
			"DevAddress()": "89a4c1a0",
			"DeveloperWithdrawal()": "f4e79b5b",
			"DistributeInvestmentIncome()": "12db1357",
			"GetInvestmentBalance(address)": "cf438305",
			"GetLatestLottery()": "d9498a83",
			"GetWinningRecord(uint256)": "2b5baca1",
			"InvestmentDeposit()": "49821332",
			"InvestmentWithdrawal(uint256)": "dd5f6f4d",
			"InvestorsProfit()": "ca6aae29",
			"OpenEggs()": "7da384fd",
			"RecentDividendTime()": "b1c617ff",
			"TotalInvestmentAmount()": "a659f4dc",
			"WithdrawReferralProfit()": "22629256"
		}
	},
	"abi": [
		{
			"inputs": [],
			"stateMutability": "nonpayable",
			"type": "constructor"
		},
		{
			"inputs": [
				{
					"internalType": "uint16",
					"name": "LotCount",
					"type": "uint16"
				},
				{
					"internalType": "uint8",
					"name": "mul",
					"type": "uint8"
				},
				{
					"internalType": "uint232",
					"name": "Lucknum",
					"type": "uint232"
				},
				{
					"internalType": "address",
					"name": "ref",
					"type": "address"
				}
			],
			"name": "BuyEggs",
			"outputs": [],
			"stateMutability": "payable",
			"type": "function"
		},
		{
			"inputs": [],
			"name": "DestructContract",
			"outputs": [],
			"stateMutability": "nonpayable",
			"type": "function"
		},
		{
			"inputs": [],
			"name": "DevAddress",
			"outputs": [
				{
					"internalType": "address",
					"name": "",
					"type": "address"
				}
			],
			"stateMutability": "view",
			"type": "function"
		},
		{
			"inputs": [],
			"name": "DeveloperWithdrawal",
			"outputs": [],
			"stateMutability": "nonpayable",
			"type": "function"
		},
		{
			"inputs": [],
			"name": "DistributeInvestmentIncome",
			"outputs": [],
			"stateMutability": "nonpayable",
			"type": "function"
		},
		{
			"inputs": [
				{
					"internalType": "address",
					"name": "addr",
					"type": "address"
				}
			],
			"name": "GetInvestmentBalance",
			"outputs": [
				{
					"internalType": "uint256",
					"name": "",
					"type": "uint256"
				}
			],
			"stateMutability": "view",
			"type": "function"
		},
		{
			"inputs": [],
			"name": "GetLatestLottery",
			"outputs": [
				{
					"components": [
						{
							"internalType": "uint32",
							"name": "Lotterynum",
							"type": "uint32"
						},
						{
							"internalType": "uint8",
							"name": "mul",
							"type": "uint8"
						}
					],
					"internalType": "struct LotteryGame.OpenedLotInfo[]",
					"name": "",
					"type": "tuple[]"
				}
			],
			"stateMutability": "view",
			"type": "function"
		},
		{
			"inputs": [
				{
					"internalType": "uint256",
					"name": "RecordCount",
					"type": "uint256"
				}
			],
			"name": "GetWinningRecord",
			"outputs": [
				{
					"components": [
						{
							"internalType": "uint32",
							"name": "LotteryNum",
							"type": "uint32"
						},
						{
							"internalType": "uint8",
							"name": "mul",
							"type": "uint8"
						},
						{
							"internalType": "uint256",
							"name": "timestamp",
							"type": "uint256"
						},
						{
							"internalType": "address",
							"name": "winner",
							"type": "address"
						}
					],
					"internalType": "struct LotteryGame.Winninginfo[]",
					"name": "",
					"type": "tuple[]"
				}
			],
			"stateMutability": "view",
			"type": "function"
		},
		{
			"inputs": [],
			"name": "InvestmentDeposit",
			"outputs": [],
			"stateMutability": "payable",
			"type": "function"
		},
		{
			"inputs": [
				{
					"internalType": "uint256",
					"name": "WithdrawalAmount",
					"type": "uint256"
				}
			],
			"name": "InvestmentWithdrawal",
			"outputs": [],
			"stateMutability": "nonpayable",
			"type": "function"
		},
		{
			"inputs": [],
			"name": "InvestorsProfit",
			"outputs": [
				{
					"internalType": "uint256",
					"name": "",
					"type": "uint256"
				}
			],
			"stateMutability": "view",
			"type": "function"
		},
		{
			"inputs": [],
			"name": "OpenEggs",
			"outputs": [],
			"stateMutability": "nonpayable",
			"type": "function"
		},
		{
			"inputs": [],
			"name": "RecentDividendTime",
			"outputs": [
				{
					"internalType": "uint256",
					"name": "",
					"type": "uint256"
				}
			],
			"stateMutability": "view",
			"type": "function"
		},
		{
			"inputs": [],
			"name": "TotalInvestmentAmount",
			"outputs": [
				{
					"internalType": "uint256",
					"name": "",
					"type": "uint256"
				}
			],
			"stateMutability": "view",
			"type": "function"
		},
		{
			"inputs": [],
			"name": "WithdrawReferralProfit",
			"outputs": [],
			"stateMutability": "nonpayable",
			"type": "function"
		}
	]
}